{
  "_format": "hh-sol-artifact-1",
  "contractName": "Solver",
  "sourceName": "contracts/Solver.sol",
  "abi": [
    {
      "inputs": [
        {
          "internalType": "address payable",
          "name": "problems_",
          "type": "address"
        },
        {
          "internalType": "address",
          "name": "tocks_",
          "type": "address"
        }
      ],
      "stateMutability": "nonpayable",
      "type": "constructor"
    },
    {
      "anonymous": false,
      "inputs": [
        {
          "indexed": true,
          "internalType": "address",
          "name": "previousOwner",
          "type": "address"
        },
        {
          "indexed": true,
          "internalType": "address",
          "name": "newOwner",
          "type": "address"
        }
      ],
      "name": "OwnershipTransferred",
      "type": "event"
    },
    {
      "anonymous": false,
      "inputs": [
        {
          "indexed": true,
          "internalType": "uint256",
          "name": "problemId",
          "type": "uint256"
        },
        {
          "indexed": true,
          "internalType": "uint256",
          "name": "ticksInThisMatch",
          "type": "uint256"
        },
        {
          "indexed": true,
          "internalType": "uint256",
          "name": "winnings",
          "type": "uint256"
        }
      ],
      "name": "Solved",
      "type": "event"
    },
    {
      "stateMutability": "nonpayable",
      "type": "fallback"
    },
    {
      "inputs": [
        {
          "internalType": "uint256",
          "name": "problemId",
          "type": "uint256"
        },
        {
          "internalType": "uint256",
          "name": "tickCount",
          "type": "uint256"
        },
        {
          "internalType": "uint256[2][]",
          "name": "a",
          "type": "uint256[2][]"
        },
        {
          "internalType": "uint256[2][2][]",
          "name": "b",
          "type": "uint256[2][2][]"
        },
        {
          "internalType": "uint256[2][]",
          "name": "c",
          "type": "uint256[2][]"
        },
        {
          "internalType": "uint256[][]",
          "name": "input",
          "type": "uint256[][]"
        }
      ],
      "name": "batchSolve",
      "outputs": [],
      "stateMutability": "nonpayable",
      "type": "function"
    },
    {
      "inputs": [
        {
          "internalType": "uint256",
          "name": "",
          "type": "uint256"
        }
      ],
      "name": "bodyBoost",
      "outputs": [
        {
          "internalType": "uint256",
          "name": "",
          "type": "uint256"
        }
      ],
      "stateMutability": "view",
      "type": "function"
    },
    {
      "inputs": [],
      "name": "decimals",
      "outputs": [
        {
          "internalType": "uint256",
          "name": "",
          "type": "uint256"
        }
      ],
      "stateMutability": "view",
      "type": "function"
    },
    {
      "inputs": [
        {
          "internalType": "uint256",
          "name": "problemId",
          "type": "uint256"
        }
      ],
      "name": "deleteMatch",
      "outputs": [],
      "stateMutability": "nonpayable",
      "type": "function"
    },
    {
      "inputs": [
        {
          "internalType": "uint256",
          "name": "problemId",
          "type": "uint256"
        }
      ],
      "name": "inProgress",
      "outputs": [
        {
          "internalType": "bool",
          "name": "",
          "type": "bool"
        }
      ],
      "stateMutability": "view",
      "type": "function"
    },
    {
      "inputs": [
        {
          "internalType": "uint256",
          "name": "",
          "type": "uint256"
        }
      ],
      "name": "matches",
      "outputs": [
        {
          "internalType": "bool",
          "name": "inProgress",
          "type": "bool"
        },
        {
          "internalType": "uint256",
          "name": "problemId",
          "type": "uint256"
        },
        {
          "internalType": "uint256",
          "name": "startingTick",
          "type": "uint256"
        }
      ],
      "stateMutability": "view",
      "type": "function"
    },
    {
      "inputs": [],
      "name": "maxTick",
      "outputs": [
        {
          "internalType": "uint256",
          "name": "",
          "type": "uint256"
        }
      ],
      "stateMutability": "view",
      "type": "function"
    },
    {
      "inputs": [],
      "name": "owner",
      "outputs": [
        {
          "internalType": "address",
          "name": "",
          "type": "address"
        }
      ],
      "stateMutability": "view",
      "type": "function"
    },
    {
      "inputs": [],
      "name": "problems",
      "outputs": [
        {
          "internalType": "address payable",
          "name": "",
          "type": "address"
        }
      ],
      "stateMutability": "view",
      "type": "function"
    },
    {
      "inputs": [],
      "name": "renounceOwnership",
      "outputs": [],
      "stateMutability": "nonpayable",
      "type": "function"
    },
    {
      "inputs": [
        {
          "internalType": "uint256",
          "name": "problemId",
          "type": "uint256"
        },
        {
          "internalType": "uint256",
          "name": "tickCount",
          "type": "uint256"
        },
        {
          "internalType": "uint256[2]",
          "name": "a",
          "type": "uint256[2]"
        },
        {
          "internalType": "uint256[2][2]",
          "name": "b",
          "type": "uint256[2][2]"
        },
        {
          "internalType": "uint256[2]",
          "name": "c",
          "type": "uint256[2]"
        },
        {
          "internalType": "uint256[]",
          "name": "input",
          "type": "uint256[]"
        }
      ],
      "name": "solveProblem",
      "outputs": [],
      "stateMutability": "nonpayable",
      "type": "function"
    },
    {
      "inputs": [],
      "name": "tocks",
      "outputs": [
        {
          "internalType": "address",
          "name": "",
          "type": "address"
        }
      ],
      "stateMutability": "view",
      "type": "function"
    },
    {
      "inputs": [
        {
          "internalType": "address",
          "name": "newOwner",
          "type": "address"
        }
      ],
      "name": "transferOwnership",
      "outputs": [],
      "stateMutability": "nonpayable",
      "type": "function"
    },
    {
      "inputs": [
        {
          "internalType": "address payable",
          "name": "problems_",
          "type": "address"
        }
      ],
      "name": "updateProblemsAddress",
      "outputs": [],
      "stateMutability": "nonpayable",
      "type": "function"
    },
    {
      "inputs": [
        {
          "internalType": "address",
          "name": "tocks_",
          "type": "address"
        }
      ],
      "name": "updateTocksAddress",
      "outputs": [],
      "stateMutability": "nonpayable",
      "type": "function"
    }
  ],
  "bytecode": "0x608034620001695762002304906001600160401b03601f38849003908101601f1916830190828211848310176200016e5780849160409687948552833981010312620001695781516001600160a01b0390818116908190036200016957602080940151938285168095036200016957600080549460018060a01b031995338782161783558851953391167f8be0079c531659141344cd1fd0a4f28419497f9722a3daafe3b4186f6b6457e08488a3610160850190811185821017620001555787929192528184528181850152818785015260019384606082015260026080820152600460a0820152600860c0820152601060e0820152816101008201528761012082015260806101408201529084600393925b600b84106200013d5750915050849150541617905560025416176002555161217f9081620001858239f35b805160ff168555938101939201918590820162000112565b634e487b7160e01b82526041600452602482fd5b600080fd5b634e487b7160e01b600052604160045260246000fdfe604060808152600480361015610053575b3461004e576020606492519162461bcd60e51b835282015260146024820152733737903330b6363130b1b590333ab731ba34b7b760611b6044820152fd5b600080fd5b6000803560e01c8063087c32e614610789578063130e5a87146105995780631db3b6dd1461057c578063313ce567146105595780633e301fd0146105305780634768d4ef146104ec5780634e26b0cd146104be578063715018a6146104615780638da5cb5b146104395780639512ada214610389578063952ef7ef1461033f578063ab85f1f41461022b578063cd190a92146101fe578063f2fde38b146101305763f9df988f146101045750610010565b823461012c578160031936011261012c5760015490516001600160a01b039091168152602090f35b5080fd5b509190346101fa5760203660031901126101fa576001600160a01b03813581811692908390036101f657610162610a5a565b82156101a4575083546001600160a01b0319811683178555925192167f8be0079c531659141344cd1fd0a4f28419497f9722a3daafe3b4186f6b6457e08484a3f35b608490602085519162461bcd60e51b8352820152602660248201527f4f776e61626c653a206e6577206f776e657220697320746865207a65726f206160448201526564647265737360d01b6064820152fd5b8480fd5b8280fd5b509190346101fa5760203660031901126101fa5735600b8110156101fa5760209250600301549051908152f35b509190346101fa576101603660031901126101fa5736606312156101fa5781519061025582610818565b60848236821161030d576044905b82821061032f5750503660a312156101f657835161028081610818565b806101049236841161032b578690915b8483106103115750505036610123121561030d578451916102b083610818565b826101449136831161030957905b8282106102f957505035936001600160401b0385116102f5576102e76102f295369086016109fc565b936024359035610c65565b51f35b8680fd5b81358152602091820191016102be565b8880fd5b8580fd5b60209061031e368561094b565b8152019101908690610290565b8780fd5b8135815260209182019101610263565b509190346101fa5760203660031901126101fa57356001600160a01b038116908190036101fa5761036e610a5a565b6bffffffffffffffffffffffff60a01b600254161760025551f35b509190346101fa5760203660031901126101fa5760015482516331a9108f60e11b81528235928101839052906001600160a01b03906020908390602490829085165afa801561042f576103e6928691610401575b50163314610b20565b8252600e602052816002828220828155826001820155015551f35b610422915060203d8111610428575b61041a8183610913565b810190610b01565b386103dd565b503d610410565b84513d87823e3d90fd5b50823461012c578160031936011261012c57905490516001600160a01b039091168152602090f35b50823461012c578160031936011261012c5761047b610a5a565b81546001600160a01b03198116835590519082906001600160a01b03167f8be0079c531659141344cd1fd0a4f28419497f9722a3daafe3b4186f6b6457e08284a3f35b509190346101fa5760203660031901126101fa578160209360ff92358152600e855220541690519015158152f35b509190346101fa5760203660031901126101fa576060928291358152600e6020522060ff815416916002600183015492015491815193151584526020840152820152f35b50823461012c578160031936011261012c5760025490516001600160a01b039091168152602090f35b50823461012c578160031936011261012c5760209051670de0b6b3a76400008152f35b50823461012c578160031936011261012c5760209051610bb88152f35b508290346107865760c0366003190112610786578235926024918235604435916001600160401b039283811161012c576105d69036908601610990565b906064359380851161012c573660238601121561012c5784860135906105fb82610934565b956106088a519788610913565b828752602092898489019160071b8301019136831161030d578a01905b8282106107235750505060843581811161071f576106469036908901610990565b9660a435908282116101f657366023830112156101f6578101359061066a82610934565b996106778c519b8c610913565b828b5280858c019360051b830101933685116102f557818301935b8585106106f95750505050505050805b86518110156106f457806106ea8a898989896106e3876106dc816106d5818f6106ef9e6106ce91610ad7565b5197610ad7565b5196610ad7565b5195610ad7565b5194610c65565b610ab2565b6106a2565b508651f35b843582811161030957879161071483928636918901016109fc565b815201940193610692565b8380fd5b36601f8301121561030d578b5161073981610818565b608083018136821161030957908792918f86915b838310610767575050505091608092815201910190610625565b610777959192939495368561094b565b81520191018f8994939261074d565b80fd5b509190346101fa5760203660031901126101fa57356001600160a01b038116908190036101fa576107b8610a5a565b6bffffffffffffffffffffffff60a01b600154161760015551f35b6001600160401b0381116107e657604052565b634e487b7160e01b600052604160045260246000fd5b61016081019081106001600160401b038211176107e657604052565b604081019081106001600160401b038211176107e657604052565b610c8081019081106001600160401b038211176107e657604052565b610b4081019081106001600160401b038211176107e657604052565b610a0081019081106001600160401b038211176107e657604052565b6108c081019081106001600160401b038211176107e657604052565b61078081019081106001600160401b038211176107e657604052565b61064081019081106001600160401b038211176107e657604052565b61050081019081106001600160401b038211176107e657604052565b6103c081019081106001600160401b038211176107e657604052565b90601f801991011681019081106001600160401b038211176107e657604052565b6001600160401b0381116107e65760051b60200190565b9080601f8301121561004e576040519161096483610818565b82906040810192831161004e57905b8282106109805750505090565b8135815260209182019101610973565b81601f8201121561004e578035906109a782610934565b926040926109b784519586610913565b808552602091828087019260061b8501019381851161004e578301915b8483106109e45750505050505090565b8386916109f1848661094b565b8152019201916109d4565b81601f8201121561004e57803591610a1383610934565b92610a216040519485610913565b808452602092838086019260051b82010192831161004e578301905b828210610a4b575050505090565b81358152908301908301610a3d565b6000546001600160a01b03163303610a6e57565b606460405162461bcd60e51b815260206004820152602060248201527f4f776e61626c653a2063616c6c6572206973206e6f7420746865206f776e65726044820152fd5b6000198114610ac15760010190565b634e487b7160e01b600052601160045260246000fd5b8051821015610aeb5760209160051b010190565b634e487b7160e01b600052603260045260246000fd5b9081602091031261004e57516001600160a01b038116810361004e5790565b15610b2757565b60405162461bcd60e51b815260206004820152600d60248201526c2737ba103a34329037bbb732b960991b6044820152606490fd5b806000190460051181151516610ac15760050290565b7f33333333333333333333333333333333333333333333333333333333333333338111600116610ac15760050290565b8060001904821181151516610ac1570290565b9081602091031261004e5751801515810361004e5790565b6000915b60028310610bde57505050565b600190825181526020809101920192019190610bd1565b9060009182915b600280841015610c415782518590835b838310610c2a57505050506020604060019201920192019190610bfc565b600190825181526020809101920192019190610c0c565b5050505050565b81198111610ac1570190565b90600a811015610aeb5760051b0190565b929493909193600154926000956040516331a9108f60e11b815286600482015260208160248160018060a01b038a165afa90811561211f5790610cba91899161212a575b506001600160a01b03163314610b20565b6040516375d279b360e11b815260048101879052936080856024816001600160a01b038a165afa98891561211f578895899a6120e1575b50610cfb86610b5c565b8060001904600211811515166120cd5760011b855103612091576040516343569ffb60e01b81526004810187905260248101859052916020836044816001600160a01b038c165afa928315611427578a93612070575b506001600160a01b03831615612038576003870361180b5760405191610d76836108f7565b6103c0809336903760405192610d8b846108f7565b3684378a5b601e81106117eb5750610dc0949291610dca610dd4926040519788966301d28c8160e31b88526004880190610bcd565b6044860190610bf5565b60c4840190610bcd565b8961010483015b601e82106117d157506020936104c492508391506001600160a01b03165afa90811561163f5787916117a2575b5015611766575b848652600e6020526040862096604051978860608101106001600160401b0360608b0111176117525791610e6d9160409360608b018552600260ff825416159182158d528c602060018301549101520154858c015261174457610c48565b9601519283871061173057610bb8848803116116f7576040516310211ca160e21b81526004810186905290610140826024816001600160a01b0385165afa91821561163f57879261164a575b506001600160a01b0381163b156102f5576040516304b24e8560e01b815260048101879052602481018990529087908290604490829084906001600160a01b03165af1801561163f5761162c575b50908291869187610140604051610f1d816107fc565b8281528260208201528260408201528260608201528260808201528260a08201528260c08201528260e082015282610100820152826101208201520152875b84811061113d5750505014610f72575050505050565b6105dc8286031161113157610f8c60ff60025b1682610ba2565b90600b81101561111d5760030154610fa391610ba2565b670de0b6b3a7640000908060001904821181151516610ac157600254910294906001600160a01b0316803b156101f6578480916044604051809481936340c10f1960e01b83523360048401528b60248401525af180156110ea57908591611109575b50506001546001600160a01b0316803b156101f657848091602460405180948193630825ea8d60e01b83528960048401525af180156110ea579085916110f5575b50506001546001600160a01b0316803b156101f657848091602460405180948193630674876160e11b83528960048401525af180156110ea579085916110d6575b5090837f0c4d840a1a0bafcdc673f07982de54d3fb2f2628e86cf3b9116675b01a119702939252600e602052600060026040872082815582600182015501550392604051a43880808080610c41565b6110df906107d3565b61071f578338611087565b6040513d87823e3d90fd5b6110fe906107d3565b61071f578338611046565b611112906107d3565b61071f578338611005565b634e487b7160e01b85526032600452602485fd5b610f8c60ff6001610f85565b60015493945091929091906001600160a01b031661115b8285610c54565b51906040519163618faeb560e11b8352896004840152602483015261016082604481845afa918215611427578a92611578575b5060608201516111b86111b26111a38a610b72565b6111ac87610b5c565b90610c48565b86610ad7565b510361153e576111d06111ca84610b5c565b85610ad7565b51606083015260808201516111f06111e789610b72565b6111ac86610b5c565b6001198111611480576001611206910186610ad7565b51036115045761121583610b5c565b600119811161143657600161122b910185610ad7565b51608083015260a08201516112426111e789610b72565b6002198111611480576002611258910186610ad7565b51036114cc5761126783610b5c565b600219811161143657600261127d910185610ad7565b5160a083015260c08201516112946111e789610b72565b60031981116114805760036112aa910186610ad7565b5103611494576112b983610b5c565b60031981116114365760036112cf910185610ad7565b5160c083015260e08201516112e66111e789610b72565b60041981116114805760046112fc910186610ad7565b510361144a5761130b83610b5c565b6004198111611436576004611321910185610ad7565b5160e08301526113318386610c54565b51813b15611432578a906101a48b8360405195869485936334d70fe560e21b855260048501526024840152875160448401526020880151606484015260408801516084840152606088015160a4840152608088015160c484015260a088015160e484015260c088015161010484015260e08801516101248401526101008801516101448401526101208801516101648401526101408801516101848401525af1801561142757908a91611413575b505060e00151156113fe575b6113f490610ab2565b9084939291610f5c565b9261140b6113f491610ab2565b9390506113eb565b61141c906107d3565b6103095788386113df565b6040513d8c823e3d90fd5b8a80fd5b634e487b7160e01b8b52601160045260248bfd5b60405162461bcd60e51b815260206004820152600e60248201526d496e76616c69642072616469757360901b6044820152606490fd5b634e487b7160e01b8c52601160045260248cfd5b60405162461bcd60e51b815260206004820152601060248201526f496e76616c696420766563746f72207960801b6044820152606490fd5b60405162461bcd60e51b815260206004820152601060248201526f092dcecc2d8d2c840eccac6e8dee440f60831b6044820152606490fd5b60405162461bcd60e51b8152602060048201526012602482015271496e76616c696420706f736974696f6e207960701b6044820152606490fd5b60405162461bcd60e51b8152602060048201526012602482015271092dcecc2d8d2c840e0dee6d2e8d2dedc40f60731b6044820152606490fd5b909150610160813d61016011611624575b816115976101609383610913565b8101031261162057610140604051916115af836107fc565b805183526020810151602084015260408101516040840152606081015160608401526080810151608084015260a081015160a084015260c081015160c084015260e081015160e08401526101008101516101008401526101208101516101208401520151610140820152903861118e565b8980fd5b3d9150611589565b611638909691966107d3565b9438610f07565b6040513d89823e3d90fd5b909150610140903d610140116116ef575b6116658282610913565b61014081838101031261032b57818101601f8201121561032b5760405191826101408101106001600160401b03610140850111176116db576101408301604052829082016101408301116103095781905b610140830182106116cb575050509038610eb9565b81518152602091820191016116b6565b634e487b7160e01b89526041600452602489fd5b3d915061165b565b60405162461bcd60e51b815260206004820152601160248201527013585e081d1a58dac8195e18d959591959607a1b6044820152606490fd5b634e487b7160e01b86526011600452602486fd5b60018a5280848b0152610c48565b634e487b7160e01b88526041600452602488fd5b60405162461bcd60e51b815260206004820152601460248201527324b73b30b634b21019903137b23c90383937b7b360611b6044820152606490fd5b6117c4915060203d6020116117ca575b6117bc8183610913565b810190610bb5565b38610e08565b503d6117b2565b829350602080916001939451815201930191018492610ddb565b806117f9611806928a610ad7565b518160051b860152610ab2565b610d90565b600487036119325760405191611820836108db565b610500809336903760405192611835846108db565b3684378a5b6028811061191f5750610dc0949291610dca61186a926040519788966319da330f60e01b88526004880190610bcd565b8961010483015b60288210611905575060209361060492508391506001600160a01b03165afa90811561163f5787916118e6575b50156118aa575b610e0f565b60405162461bcd60e51b815260206004820152601460248201527324b73b30b634b2101a103137b23c90383937b7b360611b6044820152606490fd5b6118ff915060203d6020116117ca576117bc8183610913565b3861189e565b829350602080916001939451815201930191018492611871565b806117f961192d928a610ad7565b61183a565b60058703611a525760405191611947836108bf565b61064080933690376040519261195c846108bf565b3684378a5b60328110611a3f5750610dc0949291610dca6119919260405197889663a63bed3760e01b88526004880190610bcd565b8961010483015b60328210611a25575060209361074492508391506001600160a01b03165afa90811561163f578791611a06575b50610e0f5760405162461bcd60e51b815260206004820152601460248201527324b73b30b634b2101a903137b23c90383937b7b360611b6044820152606490fd5b611a1f915060203d6020116117ca576117bc8183610913565b386119c5565b829350602080916001939451815201930191018492611998565b806117f9611a4d928a610ad7565b611961565b60068703611b725760405191611a67836108a3565b610780809336903760405192611a7c846108a3565b3684378a5b603c8110611b5f5750610dc0949291610dca611ab19260405197889663a54a2bcf60e01b88526004880190610bcd565b8961010483015b603c8210611b45575060209361088492508391506001600160a01b03165afa90811561163f578791611b26575b50610e0f5760405162461bcd60e51b815260206004820152601460248201527324b73b30b634b2101b103137b23c90383937b7b360611b6044820152606490fd5b611b3f915060203d6020116117ca576117bc8183610913565b38611ae5565b829350602080916001939451815201930191018492611ab8565b806117f9611b6d928a610ad7565b611a81565b60078703611c925760405191611b8783610887565b6108c0809336903760405192611b9c84610887565b3684378a5b60468110611c7f5750610dc0949291610dca611bd192604051978896632cb278a960e11b88526004880190610bcd565b8961010483015b60468210611c6557506020936109c492508391506001600160a01b03165afa90811561163f578791611c46575b50610e0f5760405162461bcd60e51b815260206004820152601460248201527324b73b30b634b2101b903137b23c90383937b7b360611b6044820152606490fd5b611c5f915060203d6020116117ca576117bc8183610913565b38611c05565b829350602080916001939451815201930191018492611bd8565b806117f9611c8d928a610ad7565b611ba1565b60088703611db25760405191611ca78361086b565b610a00809336903760405192611cbc8461086b565b3684378a5b60508110611d9f5750610dc0949291610dca611cf1926040519788966361fd13f960e11b88526004880190610bcd565b8961010483015b60508210611d855750602093610b0492508391506001600160a01b03165afa90811561163f578791611d66575b50610e0f5760405162461bcd60e51b815260206004820152601460248201527324b73b30b634b2101c103137b23c90383937b7b360611b6044820152606490fd5b611d7f915060203d6020116117ca576117bc8183610913565b38611d25565b829350602080916001939451815201930191018492611cf8565b806117f9611dad928a610ad7565b611cc1565b60098703611ed25760405191611dc78361084f565b610b40809336903760405192611ddc8461084f565b3684378a5b605a8110611ebf5750610dc0949291610dca611e1192604051978896634456e8b360e01b88526004880190610bcd565b8961010483015b605a8210611ea55750602093610c4492508391506001600160a01b03165afa90811561163f578791611e86575b506118a55760405162461bcd60e51b815260206004820152601460248201527324b73b30b634b2101c903137b23c90383937b7b360611b6044820152606490fd5b611e9f915060203d6020116117ca576117bc8183610913565b38611e45565b829350602080916001939451815201930191018492611e18565b806117f9611ecd928a610ad7565b611de1565b600a8703611ff35760405191611ee783610833565b610c80809336903760405192611efc84610833565b3684378a5b60648110611fe05750610dc0949291610dca611f319260405197889663170ac5a560e11b88526004880190610bcd565b8961010483015b60648210611fc65750602093610d8492508391506001600160a01b03165afa90811561163f578791611fa7575b506118a55760405162461bcd60e51b815260206004820152601560248201527424b73b30b634b2101898103137b23c90383937b7b360591b6044820152606490fd5b611fc0915060203d6020116117ca576117bc8183610913565b38611f65565b829350602080916001939451815201930191018492611f38565b806117f9611fee928a610ad7565b611f01565b60405162461bcd60e51b815260206004820152601860248201527f496e76616c6964206e756d626572206f6620626f6469657300000000000000006044820152606490fd5b60405162461bcd60e51b815260206004820152601060248201526f24b73b30b634b2103b32b934b334b2b960811b6044820152606490fd5b61208a91935060203d6020116104285761041a8183610913565b9138610d51565b60405162461bcd60e51b8152602060048201526014602482015273092dcecc2d8d2c840d2dce0eae840d8cadccee8d60631b6044820152606490fd5b634e487b7160e01b8a52601160045260248afd5b955098506080853d608011612117575b816120fe60809383610913565b8101031261032b57606060208601519501519838610cf1565b3d91506120f1565b6040513d8a823e3d90fd5b612143915060203d6020116104285761041a8183610913565b38610ca956fea2646970667358221220931a226fd95244549516dbe320221ae392f8c618b264a95f1d6e5edadeb4287864736f6c634300080f0033",
  "linkReferences": {},
  "deployedLinkReferences": {}
}