{
  "_format": "hh-sol-artifact-1",
  "contractName": "Solver",
  "sourceName": "contracts/Solver.sol",
  "abi": [
    {
      "inputs": [
        {
          "internalType": "address payable",
          "name": "problems_",
          "type": "address"
        },
        {
          "internalType": "address",
          "name": "tocks_",
          "type": "address"
        }
      ],
      "stateMutability": "nonpayable",
      "type": "constructor"
    },
    {
      "anonymous": false,
      "inputs": [
        {
          "indexed": true,
          "internalType": "address",
          "name": "previousOwner",
          "type": "address"
        },
        {
          "indexed": true,
          "internalType": "address",
          "name": "newOwner",
          "type": "address"
        }
      ],
      "name": "OwnershipTransferred",
      "type": "event"
    },
    {
      "anonymous": false,
      "inputs": [
        {
          "indexed": true,
          "internalType": "uint256",
          "name": "problemId",
          "type": "uint256"
        },
        {
          "indexed": true,
          "internalType": "uint256",
          "name": "ticksInThisMatch",
          "type": "uint256"
        },
        {
          "indexed": true,
          "internalType": "uint256",
          "name": "winnings",
          "type": "uint256"
        }
      ],
      "name": "Solved",
      "type": "event"
    },
    {
      "stateMutability": "nonpayable",
      "type": "fallback"
    },
    {
      "inputs": [
        {
          "internalType": "uint256",
          "name": "problemId",
          "type": "uint256"
        },
        {
          "internalType": "uint256",
          "name": "tickCount",
          "type": "uint256"
        },
        {
          "internalType": "uint256[2][]",
          "name": "a",
          "type": "uint256[2][]"
        },
        {
          "internalType": "uint256[2][2][]",
          "name": "b",
          "type": "uint256[2][2][]"
        },
        {
          "internalType": "uint256[2][]",
          "name": "c",
          "type": "uint256[2][]"
        },
        {
          "internalType": "uint256[][]",
          "name": "input",
          "type": "uint256[][]"
        }
      ],
      "name": "batchSolve",
      "outputs": [],
      "stateMutability": "nonpayable",
      "type": "function"
    },
    {
      "inputs": [
        {
          "internalType": "uint256",
          "name": "",
          "type": "uint256"
        }
      ],
      "name": "bodyBoost",
      "outputs": [
        {
          "internalType": "uint256",
          "name": "",
          "type": "uint256"
        }
      ],
      "stateMutability": "view",
      "type": "function"
    },
    {
      "inputs": [],
      "name": "decimals",
      "outputs": [
        {
          "internalType": "uint256",
          "name": "",
          "type": "uint256"
        }
      ],
      "stateMutability": "view",
      "type": "function"
    },
    {
      "inputs": [
        {
          "internalType": "uint256",
          "name": "problemId",
          "type": "uint256"
        }
      ],
      "name": "deleteMatch",
      "outputs": [],
      "stateMutability": "nonpayable",
      "type": "function"
    },
    {
      "inputs": [],
      "name": "dust",
      "outputs": [
        {
          "internalType": "address",
          "name": "",
          "type": "address"
        }
      ],
      "stateMutability": "view",
      "type": "function"
    },
    {
      "inputs": [
        {
          "internalType": "uint256",
          "name": "ticks",
          "type": "uint256"
        }
      ],
      "name": "getSpeedBoost",
      "outputs": [
        {
          "internalType": "uint256",
          "name": "",
          "type": "uint256"
        }
      ],
      "stateMutability": "pure",
      "type": "function"
    },
    {
      "inputs": [
        {
          "internalType": "uint256",
          "name": "problemId",
          "type": "uint256"
        }
      ],
      "name": "inProgress",
      "outputs": [
        {
          "internalType": "bool",
          "name": "",
          "type": "bool"
        }
      ],
      "stateMutability": "view",
      "type": "function"
    },
    {
      "inputs": [
        {
          "internalType": "uint256",
          "name": "",
          "type": "uint256"
        }
      ],
      "name": "matches",
      "outputs": [
        {
          "internalType": "bool",
          "name": "inProgress",
          "type": "bool"
        },
        {
          "internalType": "uint256",
          "name": "problemId",
          "type": "uint256"
        },
        {
          "internalType": "uint256",
          "name": "startingTick",
          "type": "uint256"
        }
      ],
      "stateMutability": "view",
      "type": "function"
    },
    {
      "inputs": [],
      "name": "maxTick",
      "outputs": [
        {
          "internalType": "uint256",
          "name": "",
          "type": "uint256"
        }
      ],
      "stateMutability": "view",
      "type": "function"
    },
    {
      "inputs": [],
      "name": "owner",
      "outputs": [
        {
          "internalType": "address",
          "name": "",
          "type": "address"
        }
      ],
      "stateMutability": "view",
      "type": "function"
    },
    {
      "inputs": [],
      "name": "problems",
      "outputs": [
        {
          "internalType": "address payable",
          "name": "",
          "type": "address"
        }
      ],
      "stateMutability": "view",
      "type": "function"
    },
    {
      "inputs": [],
      "name": "renounceOwnership",
      "outputs": [],
      "stateMutability": "nonpayable",
      "type": "function"
    },
    {
      "inputs": [
        {
          "internalType": "uint256",
          "name": "problemId",
          "type": "uint256"
        },
        {
          "internalType": "uint256",
          "name": "tickCount",
          "type": "uint256"
        },
        {
          "internalType": "uint256[2]",
          "name": "a",
          "type": "uint256[2]"
        },
        {
          "internalType": "uint256[2][2]",
          "name": "b",
          "type": "uint256[2][2]"
        },
        {
          "internalType": "uint256[2]",
          "name": "c",
          "type": "uint256[2]"
        },
        {
          "internalType": "uint256[]",
          "name": "input",
          "type": "uint256[]"
        }
      ],
      "name": "solveProblem",
      "outputs": [],
      "stateMutability": "nonpayable",
      "type": "function"
    },
    {
      "inputs": [
        {
          "internalType": "address",
          "name": "newOwner",
          "type": "address"
        }
      ],
      "name": "transferOwnership",
      "outputs": [],
      "stateMutability": "nonpayable",
      "type": "function"
    },
    {
      "inputs": [
        {
          "internalType": "address payable",
          "name": "problems_",
          "type": "address"
        }
      ],
      "name": "updateProblemsAddress",
      "outputs": [],
      "stateMutability": "nonpayable",
      "type": "function"
    },
    {
      "inputs": [
        {
          "internalType": "address",
          "name": "tocks_",
          "type": "address"
        }
      ],
      "name": "updateTocksAddress",
      "outputs": [],
      "stateMutability": "nonpayable",
      "type": "function"
    }
  ],
  "bytecode": "0x6080346200016957620023c3906001600160401b03601f38849003908101601f1916830190828211848310176200016e5780849160409687948552833981010312620001695781516001600160a01b0390818116908190036200016957602080940151938285168095036200016957600080549460018060a01b031995338782161783558851953391167f8be0079c531659141344cd1fd0a4f28419497f9722a3daafe3b4186f6b6457e08488a3610160850190811185821017620001555787929192528184528181850152818785015260019384606082015260026080820152600460a0820152600860c0820152601060e0820152816101008201528761012082015260806101408201529084600393925b600b84106200013d5750915050849150541617905560025416176002555161223e9081620001858239f35b805160ff168555938101939201918590820162000112565b634e487b7160e01b82526041600452602482fd5b600080fd5b634e487b7160e01b600052604160045260246000fdfe604060808152600480361015610053575b3461004e576020606492519162461bcd60e51b835282015260146024820152733737903330b6363130b1b590333ab731ba34b7b760611b6044820152fd5b600080fd5b6000803560e01c8063087c32e614610808578063130e5a87146106135780631b375b54146105e85780631db3b6dd146105cb578063313ce567146105a85780634768d4ef146105645780634e26b0cd14610536578063715018a6146104d95780638da5cb5b146104b15780639512ada2146103b1578063952ef7ef1461036c578063ab85f1f414610264578063cd190a9214610237578063f2fde38b14610164578063f9df988f1461013b5763fad9aba31461010f5750610010565b823461013757816003193601126101375760025490516001600160a01b039091168152602090f35b5080fd5b50823461013757816003193601126101375760015490516001600160a01b039091168152602090f35b50919034610233576020366003190112610233576001600160a01b038135818116929083900361022f57610196610ad4565b82156101dd575060005492826001600160601b0360a01b8516176000555192167f8be0079c531659141344cd1fd0a4f28419497f9722a3daafe3b4186f6b6457e0600084a3f35b608490602085519162461bcd60e51b8352820152602660248201527f4f776e61626c653a206e6577206f776e657220697320746865207a65726f206160448201526564647265737360d01b6064820152fd5b8480fd5b8280fd5b509190346102335760203660031901126102335735600b8110156102335760209250600301549051908152f35b509190346102335761016036600319011261023357366063121561004e5781519061028e82610892565b60848236821161004e576044905b82821061035c5750503660a3121561004e5783516102b981610892565b806101049236841161004e578690915b8483106103425750505036610123121561004e578451916102e983610892565b826101449136831161004e57905b82821061033257505035936001600160401b03851161032e5761032061032b9536908601610a76565b936024359035610cdf565b51f35b8680fd5b81358152602091820191016102f7565b60209061034f36856109c5565b81520191019086906102c9565b813581526020918201910161029c565b5091903461023357602036600319011261023357356001600160a01b038116908190036102335761039b610ad4565b6001600160601b0360a01b600254161760025551f35b509190346102335760203660031901126102335760015482516331a9108f60e11b81528235818401819052926001600160a01b0392831692869290602082602481885afa80156104a75761040f928591610479575b50163314610b9a565b823b1561013757602484918387519586948593630825ea8d60e01b85528401525af1801561046c57610459575b508252600e60205260006002828420828155826001820155015551f35b6104659093919361084d565b913861043c565b50505051903d90823e3d90fd5b61049a915060203d81116104a0575b610492818361098d565b810190610b7b565b38610406565b503d610488565b87513d86823e3d90fd5b508234610137578160031936011261013757905490516001600160a01b039091168152602090f35b5082346101375781600319360112610137576104f3610ad4565b81546001600160a01b03198116835590519082906001600160a01b03167f8be0079c531659141344cd1fd0a4f28419497f9722a3daafe3b4186f6b6457e08284a3f35b50919034610233576020366003190112610233578160209360ff92358152600e855220541690519015158152f35b50919034610233576020366003190112610233576060928291358152600e6020522060ff815416916002600183015492015491815193151584526020840152820152f35b50823461013757816003193601126101375760209051670de0b6b3a76400008152f35b50823461013757816003193601126101375760209051610bb88152f35b508290346106105760203660031901126106105750610609602092356121b5565b9051908152f35b80fd5b508290346106105760c0366003190112610610578235926024918235604435916001600160401b0392838111610137576106509036908601610a0a565b90606435938085116101375736602386011215610137578486013590610675826109ae565b956106828a51978861098d565b828752602092898489019160071b83010191368311610804578a01905b8282106107a15750505060843581811161079d576106c09036908901610a0a565b9660a4359082821161022f573660238301121561022f57810135906106e4826109ae565b996106f18c519b8c61098d565b828b5280858c019360051b8301019336851161032e57818301935b8585106107735750505050505050805b865181101561076e57806107648a8989898961075d876107568161074f818f6107699e61074891610b51565b5197610b51565b5196610b51565b5195610b51565b5194610cdf565b610b2c565b61071c565b508651f35b843582811161079957879161078e8392863691890101610a76565b81520194019361070c565b8880fd5b8380fd5b36601f83011215610804578b516107b781610892565b608083018136821161079957908792918f86915b8383106107e557505050509160809281520191019061069f565b6107f595919293949536856109c5565b81520191018f899493926107cb565b8580fd5b5091903461023357602036600319011261023357356001600160a01b0381169081900361023357610837610ad4565b6001600160601b0360a01b600154161760015551f35b6001600160401b03811161086057604052565b634e487b7160e01b600052604160045260246000fd5b61016081019081106001600160401b0382111761086057604052565b604081019081106001600160401b0382111761086057604052565b610c8081019081106001600160401b0382111761086057604052565b610b4081019081106001600160401b0382111761086057604052565b610a0081019081106001600160401b0382111761086057604052565b6108c081019081106001600160401b0382111761086057604052565b61078081019081106001600160401b0382111761086057604052565b61064081019081106001600160401b0382111761086057604052565b61050081019081106001600160401b0382111761086057604052565b6103c081019081106001600160401b0382111761086057604052565b90601f801991011681019081106001600160401b0382111761086057604052565b6001600160401b0381116108605760051b60200190565b9080601f8301121561004e57604051916109de83610892565b82906040810192831161004e57905b8282106109fa5750505090565b81358152602091820191016109ed565b81601f8201121561004e57803590610a21826109ae565b92604092610a318451958661098d565b808552602091828087019260061b8501019381851161004e578301915b848310610a5e5750505050505090565b838691610a6b84866109c5565b815201920191610a4e565b81601f8201121561004e57803591610a8d836109ae565b92610a9b604051948561098d565b808452602092838086019260051b82010192831161004e578301905b828210610ac5575050505090565b81358152908301908301610ab7565b6000546001600160a01b03163303610ae857565b606460405162461bcd60e51b815260206004820152602060248201527f4f776e61626c653a2063616c6c6572206973206e6f7420746865206f776e65726044820152fd5b6000198114610b3b5760010190565b634e487b7160e01b600052601160045260246000fd5b8051821015610b655760209160051b010190565b634e487b7160e01b600052603260045260246000fd5b9081602091031261004e57516001600160a01b038116810361004e5790565b15610ba157565b60405162461bcd60e51b815260206004820152600d60248201526c2737ba103a34329037bbb732b960991b6044820152606490fd5b806000190460051181151516610b3b5760050290565b7f33333333333333333333333333333333333333333333333333333333333333338111600116610b3b5760050290565b8060001904821181151516610b3b570290565b9081602091031261004e5751801515810361004e5790565b6000915b60028310610c5857505050565b600190825181526020809101920192019190610c4b565b9060009182915b600280841015610cbb5782518590835b838310610ca457505050506020604060019201920192019190610c76565b600190825181526020809101920192019190610c86565b5050505050565b81198111610b3b570190565b90600a811015610b655760051b0190565b929493909193600154926000956040516331a9108f60e11b815286600482015260208160248160018060a01b038a165afa90811561218b5790610d34918991612196575b506001600160a01b03163314610b9a565b6040516375d279b360e11b815260048101879052936080856024816001600160a01b038a165afa98891561218b578895899a61214d575b50610d7586610bd6565b8060001904600211811515166121395760011b8551036120fd576040516343569ffb60e01b81526004810187905260248101859052916020836044816001600160a01b038c165afa92831561148f578a936120dc575b506001600160a01b038316156120a457600387036118775760405191610df083610971565b6103c0809336903760405192610e0584610971565b3684378a5b601e81106118575750610e3a949291610e44610e4e926040519788966301d28c8160e31b88526004880190610c47565b6044860190610c6f565b60c4840190610c47565b8961010483015b601e821061183d57506020936104c492508391506001600160a01b03165afa9081156116a757879161180e575b50156117d2575b848652600e6020526040862096604051978860608101106001600160401b0360608b0111176117be5791610ee79160409360608b018552600260ff825416159182158d528c602060018301549101520154858c01526117b057610cc2565b9601519283871061179c57610bb884880311611763576040516310211ca160e21b81526004810186905290610140826024816001600160a01b0385165afa9182156116a75787926116b2575b506001600160a01b0381163b1561032e576040516304b24e8560e01b815260048101879052602481018990529087908290604490829084906001600160a01b03165af180156116a757611694575b50908291869187610140604051610f9781610876565b8281528260208201528260408201528260608201528260808201528260a08201528260c08201528260e082015282610100820152826101208201520152875b8481106111a55750505014610fec575050505050565b611000610ffa8387036121b5565b82610c1c565b90600b811015611191576003015461101791610c1c565b670de0b6b3a7640000908060001904821181151516610b3b57600254910294906001600160a01b0316803b1561022f578480916044604051809481936340c10f1960e01b83523360048401528b60248401525af1801561115e5790859161117d575b50506001546001600160a01b0316803b1561022f57848091602460405180948193630825ea8d60e01b83528960048401525af1801561115e57908591611169575b50506001546001600160a01b0316803b1561022f57848091602460405180948193630674876160e11b83528960048401525af1801561115e5790859161114a575b5090837f0c4d840a1a0bafcdc673f07982de54d3fb2f2628e86cf3b9116675b01a119702939252600e602052600060026040872082815582600182015501550392604051a43880808080610cbb565b6111539061084d565b61079d5783386110fb565b6040513d87823e3d90fd5b6111729061084d565b61079d5783386110ba565b6111869061084d565b61079d578338611079565b634e487b7160e01b85526032600452602485fd5b60015493945091929091906001600160a01b03166111c38285610cce565b51906040519163618faeb560e11b8352896004840152602483015261016082604481845afa91821561148f578a926115e0575b50606082015161122061121a61120b8a610bec565b61121487610bd6565b90610cc2565b86610b51565b51036115a65761123861123284610bd6565b85610b51565b516060830152608082015161125861124f89610bec565b61121486610bd6565b60011981116114e857600161126e910186610b51565b510361156c5761127d83610bd6565b600119811161149e576001611293910185610b51565b51608083015260a08201516112aa61124f89610bec565b60021981116114e85760026112c0910186610b51565b5103611534576112cf83610bd6565b600219811161149e5760026112e5910185610b51565b5160a083015260c08201516112fc61124f89610bec565b60031981116114e8576003611312910186610b51565b51036114fc5761132183610bd6565b600319811161149e576003611337910185610b51565b5160c083015260e082015161134e61124f89610bec565b60041981116114e8576004611364910186610b51565b51036114b25761137383610bd6565b600419811161149e576004611389910185610b51565b5160e08301526113998386610cce565b51813b1561149a578a906101a48b8360405195869485936334d70fe560e21b855260048501526024840152875160448401526020880151606484015260408801516084840152606088015160a4840152608088015160c484015260a088015160e484015260c088015161010484015260e08801516101248401526101008801516101448401526101208801516101648401526101408801516101848401525af1801561148f57908a9161147b575b505060e0015115611466575b61145c90610b2c565b9084939291610fd6565b9261147361145c91610b2c565b939050611453565b6114849061084d565b610799578838611447565b6040513d8c823e3d90fd5b8a80fd5b634e487b7160e01b8b52601160045260248bfd5b60405162461bcd60e51b815260206004820152600e60248201526d496e76616c69642072616469757360901b6044820152606490fd5b634e487b7160e01b8c52601160045260248cfd5b60405162461bcd60e51b815260206004820152601060248201526f496e76616c696420766563746f72207960801b6044820152606490fd5b60405162461bcd60e51b815260206004820152601060248201526f092dcecc2d8d2c840eccac6e8dee440f60831b6044820152606490fd5b60405162461bcd60e51b8152602060048201526012602482015271496e76616c696420706f736974696f6e207960701b6044820152606490fd5b60405162461bcd60e51b8152602060048201526012602482015271092dcecc2d8d2c840e0dee6d2e8d2dedc40f60731b6044820152606490fd5b909150610160813d6101601161168c575b816115ff610160938361098d565b81010312611688576101406040519161161783610876565b805183526020810151602084015260408101516040840152606081015160608401526080810151608084015260a081015160a084015260c081015160c084015260e081015160e0840152610100810151610100840152610120810151610120840152015161014082015290386111f6565b8980fd5b3d91506115f1565b6116a09096919661084d565b9438610f81565b6040513d89823e3d90fd5b909150610140903d6101401161175b575b6116cd828261098d565b61014081838101031261175757818101601f820112156117575760405191826101408101106001600160401b0361014085011117611743576101408301604052829082016101408301116107995781905b61014083018210611733575050509038610f33565b815181526020918201910161171e565b634e487b7160e01b89526041600452602489fd5b8780fd5b3d91506116c3565b60405162461bcd60e51b815260206004820152601160248201527013585e081d1a58dac8195e18d959591959607a1b6044820152606490fd5b634e487b7160e01b86526011600452602486fd5b60018a5280848b0152610cc2565b634e487b7160e01b88526041600452602488fd5b60405162461bcd60e51b815260206004820152601460248201527324b73b30b634b21019903137b23c90383937b7b360611b6044820152606490fd5b611830915060203d602011611836575b611828818361098d565b810190610c2f565b38610e82565b503d61181e565b829350602080916001939451815201930191018492610e55565b80611865611872928a610b51565b518160051b860152610b2c565b610e0a565b6004870361199e576040519161188c83610955565b6105008093369037604051926118a184610955565b3684378a5b6028811061198b5750610e3a949291610e446118d6926040519788966319da330f60e01b88526004880190610c47565b8961010483015b60288210611971575060209361060492508391506001600160a01b03165afa9081156116a7578791611952575b5015611916575b610e89565b60405162461bcd60e51b815260206004820152601460248201527324b73b30b634b2101a103137b23c90383937b7b360611b6044820152606490fd5b61196b915060203d60201161183657611828818361098d565b3861190a565b8293506020809160019394518152019301910184926118dd565b80611865611999928a610b51565b6118a6565b60058703611abe57604051916119b383610939565b6106408093369037604051926119c884610939565b3684378a5b60328110611aab5750610e3a949291610e446119fd9260405197889663a63bed3760e01b88526004880190610c47565b8961010483015b60328210611a91575060209361074492508391506001600160a01b03165afa9081156116a7578791611a72575b50610e895760405162461bcd60e51b815260206004820152601460248201527324b73b30b634b2101a903137b23c90383937b7b360611b6044820152606490fd5b611a8b915060203d60201161183657611828818361098d565b38611a31565b829350602080916001939451815201930191018492611a04565b80611865611ab9928a610b51565b6119cd565b60068703611bde5760405191611ad38361091d565b610780809336903760405192611ae88461091d565b3684378a5b603c8110611bcb5750610e3a949291610e44611b1d9260405197889663a54a2bcf60e01b88526004880190610c47565b8961010483015b603c8210611bb1575060209361088492508391506001600160a01b03165afa9081156116a7578791611b92575b50610e895760405162461bcd60e51b815260206004820152601460248201527324b73b30b634b2101b103137b23c90383937b7b360611b6044820152606490fd5b611bab915060203d60201161183657611828818361098d565b38611b51565b829350602080916001939451815201930191018492611b24565b80611865611bd9928a610b51565b611aed565b60078703611cfe5760405191611bf383610901565b6108c0809336903760405192611c0884610901565b3684378a5b60468110611ceb5750610e3a949291610e44611c3d92604051978896632cb278a960e11b88526004880190610c47565b8961010483015b60468210611cd157506020936109c492508391506001600160a01b03165afa9081156116a7578791611cb2575b50610e895760405162461bcd60e51b815260206004820152601460248201527324b73b30b634b2101b903137b23c90383937b7b360611b6044820152606490fd5b611ccb915060203d60201161183657611828818361098d565b38611c71565b829350602080916001939451815201930191018492611c44565b80611865611cf9928a610b51565b611c0d565b60088703611e1e5760405191611d13836108e5565b610a00809336903760405192611d28846108e5565b3684378a5b60508110611e0b5750610e3a949291610e44611d5d926040519788966361fd13f960e11b88526004880190610c47565b8961010483015b60508210611df15750602093610b0492508391506001600160a01b03165afa9081156116a7578791611dd2575b50610e895760405162461bcd60e51b815260206004820152601460248201527324b73b30b634b2101c103137b23c90383937b7b360611b6044820152606490fd5b611deb915060203d60201161183657611828818361098d565b38611d91565b829350602080916001939451815201930191018492611d64565b80611865611e19928a610b51565b611d2d565b60098703611f3e5760405191611e33836108c9565b610b40809336903760405192611e48846108c9565b3684378a5b605a8110611f2b5750610e3a949291610e44611e7d92604051978896634456e8b360e01b88526004880190610c47565b8961010483015b605a8210611f115750602093610c4492508391506001600160a01b03165afa9081156116a7578791611ef2575b506119115760405162461bcd60e51b815260206004820152601460248201527324b73b30b634b2101c903137b23c90383937b7b360611b6044820152606490fd5b611f0b915060203d60201161183657611828818361098d565b38611eb1565b829350602080916001939451815201930191018492611e84565b80611865611f39928a610b51565b611e4d565b600a870361205f5760405191611f53836108ad565b610c80809336903760405192611f68846108ad565b3684378a5b6064811061204c5750610e3a949291610e44611f9d9260405197889663170ac5a560e11b88526004880190610c47565b8961010483015b606482106120325750602093610d8492508391506001600160a01b03165afa9081156116a7578791612013575b506119115760405162461bcd60e51b815260206004820152601560248201527424b73b30b634b2101898103137b23c90383937b7b360591b6044820152606490fd5b61202c915060203d60201161183657611828818361098d565b38611fd1565b829350602080916001939451815201930191018492611fa4565b8061186561205a928a610b51565b611f6d565b60405162461bcd60e51b815260206004820152601860248201527f496e76616c6964206e756d626572206f6620626f6469657300000000000000006044820152606490fd5b60405162461bcd60e51b815260206004820152601060248201526f24b73b30b634b2103b32b934b334b2b960811b6044820152606490fd5b6120f691935060203d6020116104a057610492818361098d565b9138610dcb565b60405162461bcd60e51b8152602060048201526014602482015273092dcecc2d8d2c840d2dce0eae840d8cadccee8d60631b6044820152606490fd5b634e487b7160e01b8a52601160045260248afd5b955098506080853d608011612183575b8161216a6080938361098d565b8101031261175757606060208601519501519838610d6b565b3d915061215d565b6040513d8a823e3d90fd5b6121af915060203d6020116104a057610492818361098d565b38610d23565b6101f48110156121c55750600690565b6102588110156121d55750600590565b6102ee8110156121e55750600490565b6103e88110156121f55750600390565b6105dc111561220357600290565b60019056fea264697066735822122077dceeb468867f382939e6e70620a74fb64c63716089fe7b4280df536195587d64736f6c634300080f0033",
  "linkReferences": {},
  "deployedLinkReferences": {}
}