{
  "_format": "hh-sol-artifact-1",
  "contractName": "Groth16Verifier",
  "sourceName": "contracts/Game_1_750Verifier.sol",
  "abi": [
    {
      "inputs": [
        {
          "internalType": "uint256[2]",
          "name": "_pA",
          "type": "uint256[2]"
        },
        {
          "internalType": "uint256[2][2]",
          "name": "_pB",
          "type": "uint256[2][2]"
        },
        {
          "internalType": "uint256[2]",
          "name": "_pC",
          "type": "uint256[2]"
        },
        {
          "internalType": "uint256[11]",
          "name": "_pubSignals",
          "type": "uint256[11]"
        }
      ],
      "name": "verifyProof",
      "outputs": [
        {
          "internalType": "bool",
          "name": "",
          "type": "bool"
        }
      ],
      "stateMutability": "view",
      "type": "function"
    }
  ],
  "bytecode": "0x6080806040523461001657610ada908161001c8239f35b600080fdfe6080604052600436101561001257600080fd5b6000803560e01c63b9c6ea871461002857600080fd5b3461010c5761026036600319011261010c576100433661010f565b3660c4116101085761005436610121565b906102643681116101045791610100916100fb6020959461040060405261007d6101043561012f565b6100896101243561012f565b6100956101443561012f565b6100a16101643561012f565b6100ad6101843561012f565b6100b96101a43561012f565b6100c56101c43561012f565b6100d16101e43561012f565b6100dd6102043561012f565b6100e96102243561012f565b6100f56102443561012f565b3561012f565b610750565b8152f35b8380fd5b5080fd5b80fd5b9060049160441161011c57565b600080fd5b9060c4916101041161011c57565b7f30644e72e131a029b85045b68181585d97816a916871ca8d3c208c16d87cfd47111561015857565b6000805260206000f35b604051907f010211695c10487f9a23e137510a104ff8f2d3868928d89b5795125245deadaa82527f17ce5701359f96efd1a97d74055aca71c2f821ef3b0f16d7f8761d5c6f44f0786020830152604082019081526107cf196040836060816007855a01fa156101585760409260066080939284938451905260a05160608401525a01fa1561015857565b604051907f2eebd81aa9a83f6f15ee56e855e512f71dd50603ae3090a815b4e505609e718282527f0f553ed50e3f813ba8f3ff8a282ebbd69e00eb47c593c72d7499bb96cce633336020830152604082019081526107cf196040836060816007855a01fa156101585760409260066080939284938451905260a05160608401525a01fa1561015857565b604051907f1a2bb2009fe50ed051794e2eab5d79c536b5abae7bdb5637380e975b3e3c2f5482527f2da765877674c682549a1cd926254d0eeb1906b4af0e898b0ce84b5e4a5f76bc6020830152604082019081526107cf196040836060816007855a01fa156101585760409260066080939284938451905260a05160608401525a01fa1561015857565b604051907f2fee012a524023a9280ff262eeb1c9ac36f545e33eb4a2eb8856128f924fa3e982527f239a82eb49666387a1236a15ecf89975c9e957c786b266abe0fcadf7911dfa166020830152604082019081526107cf196040836060816007855a01fa156101585760409260066080939284938451905260a05160608401525a01fa1561015857565b604051907f1ebeebbc245a5830d194eea4cca7c942444ab814a72e83d6e04e5e7ab6173e8782527f0e44d55e992def8c3b32dbb8e8724346987816fcf4f890f60b9c37e05a4c90b66020830152604082019081526107cf196040836060816007855a01fa156101585760409260066080939284938451905260a05160608401525a01fa1561015857565b604051907f286f3c650681f17991b959abaf0a950479d2b8c2fa415b57ed40235eab5e6dbe82527f1f6df4631bc7af14225554e14b463460e36de6960d0f9815854675e340b993166020830152604082019081526107cf196040836060816007855a01fa156101585760409260066080939284938451905260a05160608401525a01fa1561015857565b604051907f282b9dc53b61bd0e70a53b1186228b0e1626ffccfe6f21b76c77cf98e4257c1082527f127d56d7ca3b2ce14a0a701d0b35dcf58a3d6a5dcb5333c0d5babbbba8094b786020830152604082019081526107cf196040836060816007855a01fa156101585760409260066080939284938451905260a05160608401525a01fa1561015857565b604051907f07796a36f978f2c51912767f347fcc0bbfa6c7c35b140f9509bc740a2160153982527f239f6def9f8d98fef0474a53b010bb8bf8d16a7d0abc39d6b8d9c4d4d191790b6020830152604082019081526107cf196040836060816007855a01fa156101585760409260066080939284938451905260a05160608401525a01fa1561015857565b604051907f177e41d32f076d8fafd0e9efcce204a33c10caaea28a06eb56603e8825e2967182527f20b3c19437081b5ee23a04fc996e2fc442a6d152ccdcae8d6691338579a986a26020830152604082019081526107cf196040836060816007855a01fa156101585760409260066080939284938451905260a05160608401525a01fa1561015857565b604051907f1e85df42d506729a68a20b73cc3f87fa58434e58c4675d11d020315957c00c0f82527f28bf6aac3fe9c9616de081713dbbfa0fd6fcba293ee93eb93a698c7b8ec598576020830152604082019081526107cf196040836060816007855a01fa156101585760409260066080939284938451905260a05160608401525a01fa1561015857565b604051907f153367b1bc62de9f4ebc345bff2fa9d0436d4aa348db6d2c3a64379afd3aaa4d82527f1ea9f5fd6bd6300ee698d97aeb0b7de91ef6d30b7d788f4b797e19c89ece7e886020830152604082019081526107cf196040836060816007855a01fa156101585760409260066080939284938451905260a05160608401525a01fa1561015857565b6020907f0716ee002395600fd215ea74016d5a88a59ae13c9d4477e9f5738ab68e0e71176080527f26d9ce22131a091748ff13f92acaa86cfe0e0aae269e792bd4e67f0452e0e45660a0526107a761010435610162565b6107b3610124356101ec565b6107bf61014435610276565b6107cb61016435610300565b6107d76101843561038a565b6107e36101a435610414565b6107ef6101c43561049e565b6107fb6101e435610528565b610807610204356105b2565b6108136102243561063c565b61081f610244356106c6565b61010092818492358352837f30644e72e131a029b85045b68181585d97816a916871ca8d3c208c16d87cfd479101358103066101205260443561014052606435610160526084356101805260a4356101a0527f2d4d9aa7e302d9df41749d5507949d05dbea33fbb16c643b22f599a2be6df2e26101c0527f14bedd503c37ceb061d8ec60209fe345ce89830a19230301f076caff004d19266101e0527f0967032fcbf776d1afc985f88877f182d38480a653f2decaa9794cbc3bf3060c610200527f0e187847ad4c798374d0d6732bf501847dd68bc0e071241e0213bc7fc13db7ab610220527f304cfbd1e08a704a99f5e847d93f8c3caafddec46b7a0d379da69a4d112346a7610240527f1739c1b1a457a8c7313123d24d2f9192f896b7c63eea05a9d57f06547ad0cec8610260526080516102805260a0516102a0527f198e9393920d483a7260bfb731fb5d25f1aa493335a9e71297e485b7aef312c26102c0527f1800deef121f1e76426a00665e5c4479674322d4f75edadd46debd5cd992f6ed6102e05282610300917f090689d0585ff075ec9e99ad690c3395bc4b313370b38ef355acdadcd122975b83527f12c85ea5db8c6deb4aab71808dcb408fe3d1e7690c43d37b4ce6cc0166fa7daa610320528035610340520135610360527f18fae7cbc2414d9c107c5d109a196344219476f8e1fa3e1c4b2e2ea9d28dabd1610380527f03469c4f61350a69a9bf386e71ed580cbc8e15f1fac7c3391febcf122b7d48616103a0527f219bcaf19a152b94d8070c51c58cf4c7213af162bddfee83a7175802bc7132ba6103c0527f024d83dbc993f785064e6725d2785d3c5edcad6e28124e91584a08f524b5e4666103e0528160086107cf195a01fa9051169056fea2646970667358221220e0c1a53ad6fd3d65a4e5fba641ba4327f28f6394b0fa8fcf1cb486361c80939e64736f6c634300080f0033",
  "linkReferences": {},
  "deployedLinkReferences": {}
}