{
  "_format": "hh-sol-artifact-1",
  "contractName": "Groth16Verifier",
  "sourceName": "contracts/Game_3_500Verifier.sol",
  "abi": [
    {
      "inputs": [
        {
          "internalType": "uint256[2]",
          "name": "_pA",
          "type": "uint256[2]"
        },
        {
          "internalType": "uint256[2][2]",
          "name": "_pB",
          "type": "uint256[2][2]"
        },
        {
          "internalType": "uint256[2]",
          "name": "_pC",
          "type": "uint256[2]"
        },
        {
          "internalType": "uint256[31]",
          "name": "_pubSignals",
          "type": "uint256[31]"
        }
      ],
      "name": "verifyProof",
      "outputs": [
        {
          "internalType": "bool",
          "name": "",
          "type": "bool"
        }
      ],
      "stateMutability": "view",
      "type": "function"
    }
  ],
  "bytecode": "0x6080806040523461001657611781908161001c8239f35b600080fdfe6080604052600436101561001257600080fd5b6000803560e01c6344a173dd1461002857600080fd5b346101fc576104e03660031901126101fc57610043366101ff565b3660c4116101f85761005436610211565b906104e43681116101f457916101f0916101eb6020959461040060405261007d6101043561021f565b6100896101243561021f565b6100956101443561021f565b6100a16101643561021f565b6100ad6101843561021f565b6100b96101a43561021f565b6100c56101c43561021f565b6100d16101e43561021f565b6100dd6102043561021f565b6100e96102243561021f565b6100f56102443561021f565b6101016102643561021f565b61010d6102843561021f565b6101196102a43561021f565b6101256102c43561021f565b6101316102e43561021f565b61013d6103043561021f565b6101496103243561021f565b6101556103443561021f565b6101616103643561021f565b61016d6103843561021f565b6101796103a43561021f565b6101856103c43561021f565b6101916103e43561021f565b61019d6104043561021f565b6101a96104243561021f565b6101b56104443561021f565b6101c16104643561021f565b6101cd6104843561021f565b6101d96104a43561021f565b6101e56104c43561021f565b3561021f565b611308565b8152f35b8380fd5b5080fd5b80fd5b9060049160441161020c57565b600080fd5b9060c4916101041161020c57565b7f30644e72e131a029b85045b68181585d97816a916871ca8d3c208c16d87cfd47111561024857565b6000805260206000f35b604051907f1fdf4a9b59d69825faa5defbbc019c688bfcd7b78a29c67086b54a2e9c33159f82527f085ed864b33e9226d88479460dc5484c44d482dc8ea19ebce9ac02f86fbb18976020830152604082019081526107cf196040836060816007855a01fa156102485760409260066080939284938451905260a05160608401525a01fa1561024857565b604051907f29b39afe99d80ea505b1b8d021af9bb6885e39e99f77f4d995b39df7f3741d0e82527f0b53895e4d14d0ebda694cc2c890b29315c17472dc26b584ba5303d2d5fed1246020830152604082019081526107cf196040836060816007855a01fa156102485760409260066080939284938451905260a05160608401525a01fa1561024857565b604051907f195f8dc77f1980fe83fc43216b5741d3e7901b8cca18a53499af83f7a69dc99682527f19b8ecc7ac2d0e351a5588accad83293c8fa2d5c0479f1b3f99d93493b22ae2b6020830152604082019081526107cf196040836060816007855a01fa156102485760409260066080939284938451905260a05160608401525a01fa1561024857565b604051907f2529503efc5f97311f2af834ae68e034bb9b455c5d1bd4573dcd1e328b411ec882527f0fc31ad282b4a4847730509d50db638b2651780b6d1336c0594327a25dd0231f6020830152604082019081526107cf196040836060816007855a01fa156102485760409260066080939284938451905260a05160608401525a01fa1561024857565b604051907f0953a7d6207bee44bf9c70f4b02d4512542683e06bc0a00bafc788388d8b126e82527f146844fc58e727bb2420ec3099c4122a4a96c8af4485f0b780ba2be097ef16d86020830152604082019081526107cf196040836060816007855a01fa156102485760409260066080939284938451905260a05160608401525a01fa1561024857565b604051907f2f42d08c7ed848b296269f2019d93d344eea0b0e3c7bea892defdb76d212b6f682527f0411d10ad39b355a75668371520479e2de14ec3df57b05764781565d206ad5886020830152604082019081526107cf196040836060816007855a01fa156102485760409260066080939284938451905260a05160608401525a01fa1561024857565b604051907f2859e4088b0ed6cb0d20c640514f4bc3cef06c1be30e1b0b381227fcbc4e746582527f23b2699c3000a77597cabdbf01dc7fa32edf64bd7c6386150a9815b1562033f56020830152604082019081526107cf196040836060816007855a01fa156102485760409260066080939284938451905260a05160608401525a01fa1561024857565b604051907f03aafe542e099d6dedeb084b418fda5b5f0bdf68fe4e77e496611c6193f1bf5182527f0292dde7f62e7f1486f2586e3f7f84110fc78f61c753dcd1d7b014bb66e2f9556020830152604082019081526107cf196040836060816007855a01fa156102485760409260066080939284938451905260a05160608401525a01fa1561024857565b604051907f033d3fad688ae01c943463a321f06072a6d9b2840d5996ca289f43c58c0ae2b782527f1d602e6424f7fb7e37011419aad3383610cd85f2eec20d18fd49b6afb8f7452e6020830152604082019081526107cf196040836060816007855a01fa156102485760409260066080939284938451905260a05160608401525a01fa1561024857565b604051907f014d60a34042dfc4b433b7cd269eb1d3fdc7665c1d3b078458c1d89a1f3699b482527f0d165da6611c39f0ef1aaeabdf0f517da052450d3dd9101765c3412f27e692ee6020830152604082019081526107cf196040836060816007855a01fa156102485760409260066080939284938451905260a05160608401525a01fa1561024857565b604051907f04d921bbd081f5fb9f60c25787a1cd3d95b5ccb18ec935700b1e59618991c91682527f2b3e19cb28cf74e7f735fc9691092c2c01e61242fb844e4be96330c9855593a36020830152604082019081526107cf196040836060816007855a01fa156102485760409260066080939284938451905260a05160608401525a01fa1561024857565b604051907f0ef1d96fcfab3b10a98bc61d46483edc47842b13b84023cb11de1a9f07217b4982527f1cbceb3a4b778d19fdb07c800e4e14172cda14c4b5728344dd9005f7cb53c11f6020830152604082019081526107cf196040836060816007855a01fa156102485760409260066080939284938451905260a05160608401525a01fa1561024857565b604051907f12cf08ff4a2ecce58ee59516d232043df9bd8a4e5777b94cd18a044ca4cde22382527f016fef0e9b54d9fbeb770845fdbd135b6c3e5057dea8f39c7a30085d8b1d673a6020830152604082019081526107cf196040836060816007855a01fa156102485760409260066080939284938451905260a05160608401525a01fa1561024857565b604051907f20d0927ee99caf1453a87b27dae49e8a8fe18f81d540a85f9c0676055ae9abb182527f01cb64d4c55358ca3e07ca4f1edec985b18d05f869a9a649eaae431185e1b6906020830152604082019081526107cf196040836060816007855a01fa156102485760409260066080939284938451905260a05160608401525a01fa1561024857565b604051907f1d6f7ce6adab8efacb5c71a71c08db7c583afbe3d93c0b692c4788898e7ff8e482527f0d4f4088e8ec0b6e4ada8e2596dbddadaf1911700846b5e04b867845cac4e4576020830152604082019081526107cf196040836060816007855a01fa156102485760409260066080939284938451905260a05160608401525a01fa1561024857565b604051907f21e1d628f0cca2f20a883c4dde91798149d30d1bc82f463c65398f7ac2b6efd682527f23e694059fcd7bc63fdf8e87556993640df9cccdefaa78e59c66df2b018ca05f6020830152604082019081526107cf196040836060816007855a01fa156102485760409260066080939284938451905260a05160608401525a01fa1561024857565b604051907f18cee2374de4f9c6932d78122a2105afa33a92b2cf078a462550475588c6e20d82527f0dda43e73c982c5373c2a97cd681d0323ef8ab14bd97db0fee13f4507db1045d6020830152604082019081526107cf196040836060816007855a01fa156102485760409260066080939284938451905260a05160608401525a01fa1561024857565b604051907f2d6d99e2505aaf58a81cf14f8d01af9aee835293a0dbf08e053390dc1e3dd0d882527f0e14b5415e16ea0693ab25ceec868d4ef51ac734fc8897becd026ec1e38fcc6a6020830152604082019081526107cf196040836060816007855a01fa156102485760409260066080939284938451905260a05160608401525a01fa1561024857565b604051907f1445bec7e037511d48a8c50077d2c9af1bba6818fe04bc1f486a2e4fe44ad0b182527f18d2d1e33aa58c8529d782463079731066c2f819c2eb71ffbe2fe2563e6652576020830152604082019081526107cf196040836060816007855a01fa156102485760409260066080939284938451905260a05160608401525a01fa1561024857565b604051907f28b256350a34fbe6ad1e2041b14fa08de8d5c32a95f83a47cf23c59031f829e882527f3019ca46f28b7dcd94e7a09a7404c4f11f7945ead85f4b326752daa242e296a66020830152604082019081526107cf196040836060816007855a01fa156102485760409260066080939284938451905260a05160608401525a01fa1561024857565b604051907f2bea2a83f0ad83ce69022f0b7d6fb5e04d7e9ce5b2460bdb254782499f0042f082527f27f8a36741f0bfffc41b74eefa20dcc9b2675c8a8bd25fda8fb5275fce98b1e96020830152604082019081526107cf196040836060816007855a01fa156102485760409260066080939284938451905260a05160608401525a01fa1561024857565b604051907f22f88b66989125aca644b6ac712ccfea995a3759b33f417166e3af9d2563b5a782527f01cf41770b0098ea1a0af255df5f492a26264d516a9dd5200794155e94422f2c6020830152604082019081526107cf196040836060816007855a01fa156102485760409260066080939284938451905260a05160608401525a01fa1561024857565b604051907f303e66584d2d157eff691e04d404f5d4799eec7c1a29ab41a942c05db674293f82527f16bb6b8e71eaf47238735e8ddb7eee0368e3c8217137eac62ea45e5fbc1cd9176020830152604082019081526107cf196040836060816007855a01fa156102485760409260066080939284938451905260a05160608401525a01fa1561024857565b604051907f0d786542393ecbba4be200e67d7816ecef51909c276f77300b7debd57786279082527f15ffb37db6fca5ecb4073af0b0e007a116edce3fd70d797a37f2c0d6241083a66020830152604082019081526107cf196040836060816007855a01fa156102485760409260066080939284938451905260a05160608401525a01fa1561024857565b604051907f15c14ce815c39a53155332393c5e03fd8f2d57b4d8d9c10fcf1756844124b85382527f0199fac9921000542eedfa4f350fea62bbad9ac97fb4d9350ae626baef00bda96020830152604082019081526107cf196040836060816007855a01fa156102485760409260066080939284938451905260a05160608401525a01fa1561024857565b604051907f142a8fb6b633a6d70102bc8b568bfe846927a3968ccf55322c725e0b215f2f3782527f286dc504386498a14777728bf936bdc4b98c37a2aed8d225403b525dbe13b4c86020830152604082019081526107cf196040836060816007855a01fa156102485760409260066080939284938451905260a05160608401525a01fa1561024857565b604051907f0c3770ed1976d8793bbe2521910bdf0a4843139fbe931011f95662ff380226fc82527f2de849cabbf143b28a87078143c06a76624f93acb2cd4f95961c7daac364f5bc6020830152604082019081526107cf196040836060816007855a01fa156102485760409260066080939284938451905260a05160608401525a01fa1561024857565b604051907f281f58dbc8a2539831c5cc6cae01655ee50ad69fb91accc110daeb1d40f5eae482527f2cd78c79d387fcc62f64be8f73fceafcaa1e09005363aa5ada08be023457a1d16020830152604082019081526107cf196040836060816007855a01fa156102485760409260066080939284938451905260a05160608401525a01fa1561024857565b604051907f1c5ed74daa69e19ef02641730a6c5a07998d97915fe738bb1b9f1ec4fca5143882527f14f4acc49fc732e06d2e95cd533ac3d6cb8d0b302613776a62c1224c5c1d158e6020830152604082019081526107cf196040836060816007855a01fa156102485760409260066080939284938451905260a05160608401525a01fa1561024857565b604051907f19bb6ae6ba4f40f791ea20752b500449c8834c289b6e455f8ecb76302e2a78aa82527f171b7506a8c2127ce820f75093feb307c8799912ca40952465cf84e25127e5996020830152604082019081526107cf196040836060816007855a01fa156102485760409260066080939284938451905260a05160608401525a01fa1561024857565b604051907f2fef0c6da9f09e5eeda473e8a072ed3d7c0dfc95e65f8a04b07bace64fc8717182527f2dcbbbc330a4436efe766848ab8e1379622967047b2337cb58c4d139cc04974a6020830152604082019081526107cf196040836060816007855a01fa156102485760409260066080939284938451905260a05160608401525a01fa1561024857565b6020907f14660d96c7feb9871e242cbbc238ba2c31723ca7a64ffc5d5f4b3591c09fa4896080527f296c12d9b3389b76c8102b3a67c16dea25ea1cf8fba545bd716b45c4b8037c1660a05261135f61010435610252565b61136b610124356102dc565b61137761014435610366565b611383610164356103f0565b61138f6101843561047a565b61139b6101a435610504565b6113a76101c43561058e565b6113b36101e435610618565b6113bf610204356106a2565b6113cb6102243561072c565b6113d7610244356107b6565b6113e361026435610840565b6113ef610284356108ca565b6113fb6102a435610954565b6114076102c4356109de565b6114136102e435610a68565b61141f61030435610af2565b61142b61032435610b7c565b61143761034435610c06565b61144361036435610c90565b61144f61038435610d1a565b61145b6103a435610da4565b6114676103c435610e2e565b6114736103e435610eb8565b61147f61040435610f42565b61148b61042435610fcc565b61149761044435611056565b6114a3610464356110e0565b6114af6104843561116a565b6114bb6104a4356111f4565b6114c76104c43561127e565b61010092818492358352837f30644e72e131a029b85045b68181585d97816a916871ca8d3c208c16d87cfd479101358103066101205260443561014052606435610160526084356101805260a4356101a0527f2d4d9aa7e302d9df41749d5507949d05dbea33fbb16c643b22f599a2be6df2e26101c0527f14bedd503c37ceb061d8ec60209fe345ce89830a19230301f076caff004d19266101e0527f0967032fcbf776d1afc985f88877f182d38480a653f2decaa9794cbc3bf3060c610200527f0e187847ad4c798374d0d6732bf501847dd68bc0e071241e0213bc7fc13db7ab610220527f304cfbd1e08a704a99f5e847d93f8c3caafddec46b7a0d379da69a4d112346a7610240527f1739c1b1a457a8c7313123d24d2f9192f896b7c63eea05a9d57f06547ad0cec8610260526080516102805260a0516102a0527f198e9393920d483a7260bfb731fb5d25f1aa493335a9e71297e485b7aef312c26102c0527f1800deef121f1e76426a00665e5c4479674322d4f75edadd46debd5cd992f6ed6102e05282610300917f090689d0585ff075ec9e99ad690c3395bc4b313370b38ef355acdadcd122975b83527f12c85ea5db8c6deb4aab71808dcb408fe3d1e7690c43d37b4ce6cc0166fa7daa610320528035610340520135610360527f1cc128dd9c90e77ca6effd4fde8b33ed1c014b0a16e0fbd4127cf4f2d261d297610380527f1fafab2ba9fcc183a8d24931bcf9513ee8e31546b39ce69fbdc29dc1b126cdce6103a0527ef288b1d42a26fa02f4c5362c21ec74a98b594f1d71e327c3743be104697e146103c0527f133e378cdf4e7fbbbb8edb52ba88317ac1a2e52a59f0a04979d0b9810e42251b6103e0528160086107cf195a01fa9051169056fea2646970667358221220b5a77a5c13e29d60dcd47305eeb3037cb7516a85653c794a4669180fc5f306e064736f6c634300080f0033",
  "linkReferences": {},
  "deployedLinkReferences": {}
}