{
  "_format": "hh-sol-artifact-1",
  "contractName": "Problems",
  "sourceName": "contracts/Problems.sol",
  "abi": [
    {
      "inputs": [
        {
          "internalType": "address",
          "name": "metadata_",
          "type": "address"
        },
        {
          "internalType": "address[]",
          "name": "verifiers_",
          "type": "address[]"
        },
        {
          "internalType": "uint256[]",
          "name": "verifiersTicks",
          "type": "uint256[]"
        },
        {
          "internalType": "uint256[]",
          "name": "verifiersBodies",
          "type": "uint256[]"
        }
      ],
      "stateMutability": "nonpayable",
      "type": "constructor"
    },
    {
      "anonymous": false,
      "inputs": [
        {
          "indexed": true,
          "internalType": "address",
          "name": "owner",
          "type": "address"
        },
        {
          "indexed": true,
          "internalType": "address",
          "name": "approved",
          "type": "address"
        },
        {
          "indexed": true,
          "internalType": "uint256",
          "name": "tokenId",
          "type": "uint256"
        }
      ],
      "name": "Approval",
      "type": "event"
    },
    {
      "anonymous": false,
      "inputs": [
        {
          "indexed": true,
          "internalType": "address",
          "name": "owner",
          "type": "address"
        },
        {
          "indexed": true,
          "internalType": "address",
          "name": "operator",
          "type": "address"
        },
        {
          "indexed": false,
          "internalType": "bool",
          "name": "approved",
          "type": "bool"
        }
      ],
      "name": "ApprovalForAll",
      "type": "event"
    },
    {
      "anonymous": false,
      "inputs": [
        {
          "indexed": true,
          "internalType": "address",
          "name": "to",
          "type": "address"
        },
        {
          "indexed": true,
          "internalType": "bool",
          "name": "success",
          "type": "bool"
        },
        {
          "indexed": false,
          "internalType": "bytes",
          "name": "returnData",
          "type": "bytes"
        },
        {
          "indexed": false,
          "internalType": "uint256",
          "name": "amount",
          "type": "uint256"
        }
      ],
      "name": "EthMoved",
      "type": "event"
    },
    {
      "anonymous": false,
      "inputs": [
        {
          "indexed": true,
          "internalType": "address",
          "name": "previousOwner",
          "type": "address"
        },
        {
          "indexed": true,
          "internalType": "address",
          "name": "newOwner",
          "type": "address"
        }
      ],
      "name": "OwnershipTransferred",
      "type": "event"
    },
    {
      "anonymous": false,
      "inputs": [
        {
          "indexed": true,
          "internalType": "address",
          "name": "from",
          "type": "address"
        },
        {
          "indexed": true,
          "internalType": "address",
          "name": "to",
          "type": "address"
        },
        {
          "indexed": true,
          "internalType": "uint256",
          "name": "tokenId",
          "type": "uint256"
        }
      ],
      "name": "Transfer",
      "type": "event"
    },
    {
      "anonymous": false,
      "inputs": [
        {
          "indexed": false,
          "internalType": "uint256",
          "name": "problemId",
          "type": "uint256"
        },
        {
          "indexed": false,
          "internalType": "uint256",
          "name": "bodyId",
          "type": "uint256"
        },
        {
          "indexed": false,
          "internalType": "uint256",
          "name": "mintedBodyIndex",
          "type": "uint256"
        },
        {
          "indexed": false,
          "internalType": "uint256",
          "name": "tick",
          "type": "uint256"
        },
        {
          "indexed": false,
          "internalType": "uint256",
          "name": "px",
          "type": "uint256"
        },
        {
          "indexed": false,
          "internalType": "uint256",
          "name": "py",
          "type": "uint256"
        },
        {
          "indexed": false,
          "internalType": "uint256",
          "name": "radius",
          "type": "uint256"
        },
        {
          "indexed": false,
          "internalType": "uint256",
          "name": "starLvl",
          "type": "uint256"
        },
        {
          "indexed": false,
          "internalType": "uint256",
          "name": "maxStarLvl",
          "type": "uint256"
        },
        {
          "indexed": false,
          "internalType": "bytes32",
          "name": "seed",
          "type": "bytes32"
        }
      ],
      "name": "bodyAdded",
      "type": "event"
    },
    {
      "anonymous": false,
      "inputs": [
        {
          "indexed": false,
          "internalType": "uint256",
          "name": "problemId",
          "type": "uint256"
        },
        {
          "indexed": false,
          "internalType": "uint256",
          "name": "tick",
          "type": "uint256"
        },
        {
          "indexed": false,
          "internalType": "uint256",
          "name": "bodyId",
          "type": "uint256"
        },
        {
          "indexed": false,
          "internalType": "uint256",
          "name": "starLvl",
          "type": "uint256"
        },
        {
          "indexed": false,
          "internalType": "uint256",
          "name": "maxStarLvl",
          "type": "uint256"
        },
        {
          "indexed": false,
          "internalType": "bytes32",
          "name": "seed",
          "type": "bytes32"
        }
      ],
      "name": "bodyRemoved",
      "type": "event"
    },
    {
      "inputs": [
        {
          "internalType": "uint256",
          "name": "problemId",
          "type": "uint256"
        },
        {
          "internalType": "uint256",
          "name": "bodyId",
          "type": "uint256"
        }
      ],
      "name": "addExistingBody",
      "outputs": [],
      "stateMutability": "nonpayable",
      "type": "function"
    },
    {
      "inputs": [
        {
          "internalType": "address",
          "name": "recipient",
          "type": "address"
        }
      ],
      "name": "adminMint",
      "outputs": [],
      "stateMutability": "nonpayable",
      "type": "function"
    },
    {
      "inputs": [
        {
          "internalType": "address",
          "name": "to",
          "type": "address"
        },
        {
          "internalType": "uint256",
          "name": "tokenId",
          "type": "uint256"
        }
      ],
      "name": "approve",
      "outputs": [],
      "stateMutability": "nonpayable",
      "type": "function"
    },
    {
      "inputs": [
        {
          "internalType": "address",
          "name": "owner",
          "type": "address"
        }
      ],
      "name": "balanceOf",
      "outputs": [
        {
          "internalType": "uint256",
          "name": "",
          "type": "uint256"
        }
      ],
      "stateMutability": "view",
      "type": "function"
    },
    {
      "inputs": [],
      "name": "bodies",
      "outputs": [
        {
          "internalType": "address",
          "name": "",
          "type": "address"
        }
      ],
      "stateMutability": "view",
      "type": "function"
    },
    {
      "inputs": [
        {
          "internalType": "uint256",
          "name": "problemId",
          "type": "uint256"
        }
      ],
      "name": "convertBodiesToStars",
      "outputs": [],
      "stateMutability": "nonpayable",
      "type": "function"
    },
    {
      "inputs": [
        {
          "internalType": "uint256",
          "name": "tokenId",
          "type": "uint256"
        }
      ],
      "name": "getApproved",
      "outputs": [
        {
          "internalType": "address",
          "name": "",
          "type": "address"
        }
      ],
      "stateMutability": "view",
      "type": "function"
    },
    {
      "inputs": [
        {
          "internalType": "uint256",
          "name": "problemId",
          "type": "uint256"
        },
        {
          "internalType": "uint256",
          "name": "bodyId",
          "type": "uint256"
        }
      ],
      "name": "getProblemBodyData",
      "outputs": [
        {
          "components": [
            {
              "internalType": "uint256",
              "name": "bodyId",
              "type": "uint256"
            },
            {
              "internalType": "uint256",
              "name": "mintedBodyIndex",
              "type": "uint256"
            },
            {
              "internalType": "uint256",
              "name": "bodyIndex",
              "type": "uint256"
            },
            {
              "internalType": "uint256",
              "name": "px",
              "type": "uint256"
            },
            {
              "internalType": "uint256",
              "name": "py",
              "type": "uint256"
            },
            {
              "internalType": "uint256",
              "name": "vx",
              "type": "uint256"
            },
            {
              "internalType": "uint256",
              "name": "vy",
              "type": "uint256"
            },
            {
              "internalType": "uint256",
              "name": "radius",
              "type": "uint256"
            },
            {
              "internalType": "uint256",
              "name": "starLvl",
              "type": "uint256"
            },
            {
              "internalType": "uint256",
              "name": "maxStarLvl",
              "type": "uint256"
            },
            {
              "internalType": "bytes32",
              "name": "seed",
              "type": "bytes32"
            }
          ],
          "internalType": "struct Problems.Body",
          "name": "",
          "type": "tuple"
        }
      ],
      "stateMutability": "view",
      "type": "function"
    },
    {
      "inputs": [
        {
          "internalType": "uint256",
          "name": "problemId",
          "type": "uint256"
        }
      ],
      "name": "getProblemBodyIds",
      "outputs": [
        {
          "internalType": "uint256[10]",
          "name": "",
          "type": "uint256[10]"
        }
      ],
      "stateMutability": "view",
      "type": "function"
    },
    {
      "inputs": [
        {
          "internalType": "uint256",
          "name": "problemId",
          "type": "uint256"
        }
      ],
      "name": "getProblemMintedBodiesIndex",
      "outputs": [
        {
          "internalType": "uint256",
          "name": "",
          "type": "uint256"
        }
      ],
      "stateMutability": "view",
      "type": "function"
    },
    {
      "inputs": [
        {
          "internalType": "uint256",
          "name": "problemId",
          "type": "uint256"
        }
      ],
      "name": "getProblemStarData",
      "outputs": [
        {
          "components": [
            {
              "internalType": "uint256",
              "name": "bodyId",
              "type": "uint256"
            },
            {
              "internalType": "uint256",
              "name": "mintedBodyIndex",
              "type": "uint256"
            },
            {
              "internalType": "uint256",
              "name": "bodyIndex",
              "type": "uint256"
            },
            {
              "internalType": "uint256",
              "name": "px",
              "type": "uint256"
            },
            {
              "internalType": "uint256",
              "name": "py",
              "type": "uint256"
            },
            {
              "internalType": "uint256",
              "name": "vx",
              "type": "uint256"
            },
            {
              "internalType": "uint256",
              "name": "vy",
              "type": "uint256"
            },
            {
              "internalType": "uint256",
              "name": "radius",
              "type": "uint256"
            },
            {
              "internalType": "uint256",
              "name": "starLvl",
              "type": "uint256"
            },
            {
              "internalType": "uint256",
              "name": "maxStarLvl",
              "type": "uint256"
            },
            {
              "internalType": "bytes32",
              "name": "seed",
              "type": "bytes32"
            }
          ],
          "internalType": "struct Problems.Body[]",
          "name": "",
          "type": "tuple[]"
        }
      ],
      "stateMutability": "view",
      "type": "function"
    },
    {
      "inputs": [
        {
          "internalType": "bytes32",
          "name": "seed",
          "type": "bytes32"
        }
      ],
      "name": "getRandomValues",
      "outputs": [
        {
          "components": [
            {
              "internalType": "uint256",
              "name": "bodyId",
              "type": "uint256"
            },
            {
              "internalType": "uint256",
              "name": "mintedBodyIndex",
              "type": "uint256"
            },
            {
              "internalType": "uint256",
              "name": "bodyIndex",
              "type": "uint256"
            },
            {
              "internalType": "uint256",
              "name": "px",
              "type": "uint256"
            },
            {
              "internalType": "uint256",
              "name": "py",
              "type": "uint256"
            },
            {
              "internalType": "uint256",
              "name": "vx",
              "type": "uint256"
            },
            {
              "internalType": "uint256",
              "name": "vy",
              "type": "uint256"
            },
            {
              "internalType": "uint256",
              "name": "radius",
              "type": "uint256"
            },
            {
              "internalType": "uint256",
              "name": "starLvl",
              "type": "uint256"
            },
            {
              "internalType": "uint256",
              "name": "maxStarLvl",
              "type": "uint256"
            },
            {
              "internalType": "bytes32",
              "name": "seed",
              "type": "bytes32"
            }
          ],
          "internalType": "struct Problems.Body",
          "name": "",
          "type": "tuple"
        }
      ],
      "stateMutability": "view",
      "type": "function"
    },
    {
      "inputs": [
        {
          "internalType": "address",
          "name": "owner",
          "type": "address"
        },
        {
          "internalType": "address",
          "name": "operator",
          "type": "address"
        }
      ],
      "name": "isApprovedForAll",
      "outputs": [
        {
          "internalType": "bool",
          "name": "",
          "type": "bool"
        }
      ],
      "stateMutability": "view",
      "type": "function"
    },
    {
      "inputs": [
        {
          "internalType": "uint256",
          "name": "problemId",
          "type": "uint256"
        }
      ],
      "name": "levelUp",
      "outputs": [],
      "stateMutability": "nonpayable",
      "type": "function"
    },
    {
      "inputs": [],
      "name": "maxVector",
      "outputs": [
        {
          "internalType": "uint256",
          "name": "",
          "type": "uint256"
        }
      ],
      "stateMutability": "view",
      "type": "function"
    },
    {
      "inputs": [],
      "name": "metadata",
      "outputs": [
        {
          "internalType": "address",
          "name": "",
          "type": "address"
        }
      ],
      "stateMutability": "view",
      "type": "function"
    },
    {
      "inputs": [],
      "name": "mint",
      "outputs": [],
      "stateMutability": "payable",
      "type": "function"
    },
    {
      "inputs": [
        {
          "internalType": "address",
          "name": "recipient",
          "type": "address"
        },
        {
          "internalType": "uint256",
          "name": "quantity",
          "type": "uint256"
        }
      ],
      "name": "mint",
      "outputs": [],
      "stateMutability": "payable",
      "type": "function"
    },
    {
      "inputs": [
        {
          "internalType": "address",
          "name": "recipient",
          "type": "address"
        }
      ],
      "name": "mint",
      "outputs": [],
      "stateMutability": "payable",
      "type": "function"
    },
    {
      "inputs": [
        {
          "internalType": "uint256",
          "name": "problemId",
          "type": "uint256"
        }
      ],
      "name": "mintBodyOutsideProblem",
      "outputs": [],
      "stateMutability": "nonpayable",
      "type": "function"
    },
    {
      "inputs": [
        {
          "internalType": "uint256",
          "name": "problemId",
          "type": "uint256"
        }
      ],
      "name": "mintBodyToProblem",
      "outputs": [],
      "stateMutability": "nonpayable",
      "type": "function"
    },
    {
      "inputs": [],
      "name": "name",
      "outputs": [
        {
          "internalType": "string",
          "name": "",
          "type": "string"
        }
      ],
      "stateMutability": "view",
      "type": "function"
    },
    {
      "inputs": [],
      "name": "owner",
      "outputs": [
        {
          "internalType": "address",
          "name": "",
          "type": "address"
        }
      ],
      "stateMutability": "view",
      "type": "function"
    },
    {
      "inputs": [
        {
          "internalType": "uint256",
          "name": "tokenId",
          "type": "uint256"
        }
      ],
      "name": "ownerOf",
      "outputs": [
        {
          "internalType": "address",
          "name": "",
          "type": "address"
        }
      ],
      "stateMutability": "view",
      "type": "function"
    },
    {
      "inputs": [],
      "name": "paused",
      "outputs": [
        {
          "internalType": "bool",
          "name": "",
          "type": "bool"
        }
      ],
      "stateMutability": "view",
      "type": "function"
    },
    {
      "inputs": [],
      "name": "price",
      "outputs": [
        {
          "internalType": "uint256",
          "name": "",
          "type": "uint256"
        }
      ],
      "stateMutability": "view",
      "type": "function"
    },
    {
      "inputs": [],
      "name": "problemSupply",
      "outputs": [
        {
          "internalType": "uint256",
          "name": "",
          "type": "uint256"
        }
      ],
      "stateMutability": "view",
      "type": "function"
    },
    {
      "inputs": [
        {
          "internalType": "uint256",
          "name": "",
          "type": "uint256"
        }
      ],
      "name": "problems",
      "outputs": [
        {
          "internalType": "bytes32",
          "name": "seed",
          "type": "bytes32"
        },
        {
          "internalType": "uint256",
          "name": "bodyCount",
          "type": "uint256"
        },
        {
          "internalType": "uint256",
          "name": "mintedBodiesIndex",
          "type": "uint256"
        },
        {
          "internalType": "uint256",
          "name": "tickCount",
          "type": "uint256"
        }
      ],
      "stateMutability": "view",
      "type": "function"
    },
    {
      "inputs": [],
      "name": "proceedRecipient",
      "outputs": [
        {
          "internalType": "address",
          "name": "",
          "type": "address"
        }
      ],
      "stateMutability": "view",
      "type": "function"
    },
    {
      "inputs": [
        {
          "internalType": "address payable",
          "name": "_to",
          "type": "address"
        }
      ],
      "name": "recoverUnsuccessfulMintPayment",
      "outputs": [],
      "stateMutability": "nonpayable",
      "type": "function"
    },
    {
      "inputs": [
        {
          "internalType": "uint256",
          "name": "problemId",
          "type": "uint256"
        },
        {
          "internalType": "uint256",
          "name": "bodyId",
          "type": "uint256"
        }
      ],
      "name": "removeBody",
      "outputs": [],
      "stateMutability": "nonpayable",
      "type": "function"
    },
    {
      "inputs": [],
      "name": "renounceOwnership",
      "outputs": [],
      "stateMutability": "nonpayable",
      "type": "function"
    },
    {
      "inputs": [
        {
          "internalType": "uint256",
          "name": "problemId",
          "type": "uint256"
        }
      ],
      "name": "restoreRadius",
      "outputs": [],
      "stateMutability": "nonpayable",
      "type": "function"
    },
    {
      "inputs": [
        {
          "internalType": "address",
          "name": "from",
          "type": "address"
        },
        {
          "internalType": "address",
          "name": "to",
          "type": "address"
        },
        {
          "internalType": "uint256",
          "name": "tokenId",
          "type": "uint256"
        }
      ],
      "name": "safeTransferFrom",
      "outputs": [],
      "stateMutability": "nonpayable",
      "type": "function"
    },
    {
      "inputs": [
        {
          "internalType": "address",
          "name": "from",
          "type": "address"
        },
        {
          "internalType": "address",
          "name": "to",
          "type": "address"
        },
        {
          "internalType": "uint256",
          "name": "tokenId",
          "type": "uint256"
        },
        {
          "internalType": "bytes",
          "name": "data",
          "type": "bytes"
        }
      ],
      "name": "safeTransferFrom",
      "outputs": [],
      "stateMutability": "nonpayable",
      "type": "function"
    },
    {
      "inputs": [],
      "name": "scalingFactor",
      "outputs": [
        {
          "internalType": "uint256",
          "name": "",
          "type": "uint256"
        }
      ],
      "stateMutability": "view",
      "type": "function"
    },
    {
      "inputs": [
        {
          "internalType": "address",
          "name": "operator",
          "type": "address"
        },
        {
          "internalType": "bool",
          "name": "approved",
          "type": "bool"
        }
      ],
      "name": "setApprovalForAll",
      "outputs": [],
      "stateMutability": "nonpayable",
      "type": "function"
    },
    {
      "inputs": [],
      "name": "solver",
      "outputs": [
        {
          "internalType": "address",
          "name": "",
          "type": "address"
        }
      ],
      "stateMutability": "view",
      "type": "function"
    },
    {
      "inputs": [],
      "name": "startDate",
      "outputs": [
        {
          "internalType": "uint256",
          "name": "",
          "type": "uint256"
        }
      ],
      "stateMutability": "view",
      "type": "function"
    },
    {
      "inputs": [],
      "name": "startingRadius",
      "outputs": [
        {
          "internalType": "uint256",
          "name": "",
          "type": "uint256"
        }
      ],
      "stateMutability": "view",
      "type": "function"
    },
    {
      "inputs": [
        {
          "internalType": "bytes4",
          "name": "interfaceId",
          "type": "bytes4"
        }
      ],
      "name": "supportsInterface",
      "outputs": [
        {
          "internalType": "bool",
          "name": "",
          "type": "bool"
        }
      ],
      "stateMutability": "view",
      "type": "function"
    },
    {
      "inputs": [],
      "name": "symbol",
      "outputs": [
        {
          "internalType": "string",
          "name": "",
          "type": "string"
        }
      ],
      "stateMutability": "view",
      "type": "function"
    },
    {
      "inputs": [
        {
          "internalType": "uint256",
          "name": "id",
          "type": "uint256"
        }
      ],
      "name": "tokenURI",
      "outputs": [
        {
          "internalType": "string",
          "name": "",
          "type": "string"
        }
      ],
      "stateMutability": "view",
      "type": "function"
    },
    {
      "inputs": [
        {
          "internalType": "address",
          "name": "from",
          "type": "address"
        },
        {
          "internalType": "address",
          "name": "to",
          "type": "address"
        },
        {
          "internalType": "uint256",
          "name": "tokenId",
          "type": "uint256"
        }
      ],
      "name": "transferFrom",
      "outputs": [],
      "stateMutability": "nonpayable",
      "type": "function"
    },
    {
      "inputs": [
        {
          "internalType": "address",
          "name": "newOwner",
          "type": "address"
        }
      ],
      "name": "transferOwnership",
      "outputs": [],
      "stateMutability": "nonpayable",
      "type": "function"
    },
    {
      "inputs": [
        {
          "internalType": "address",
          "name": "bodies_",
          "type": "address"
        }
      ],
      "name": "updateBodiesAddress",
      "outputs": [],
      "stateMutability": "nonpayable",
      "type": "function"
    },
    {
      "inputs": [
        {
          "internalType": "address",
          "name": "metadata_",
          "type": "address"
        }
      ],
      "name": "updateMetadataAddress",
      "outputs": [],
      "stateMutability": "nonpayable",
      "type": "function"
    },
    {
      "inputs": [
        {
          "internalType": "bool",
          "name": "paused_",
          "type": "bool"
        }
      ],
      "name": "updatePaused",
      "outputs": [],
      "stateMutability": "nonpayable",
      "type": "function"
    },
    {
      "inputs": [
        {
          "internalType": "uint256",
          "name": "price_",
          "type": "uint256"
        }
      ],
      "name": "updatePrice",
      "outputs": [],
      "stateMutability": "nonpayable",
      "type": "function"
    },
    {
      "inputs": [
        {
          "internalType": "uint256",
          "name": "problemId",
          "type": "uint256"
        },
        {
          "internalType": "uint256",
          "name": "bodyId",
          "type": "uint256"
        },
        {
          "components": [
            {
              "internalType": "uint256",
              "name": "bodyId",
              "type": "uint256"
            },
            {
              "internalType": "uint256",
              "name": "mintedBodyIndex",
              "type": "uint256"
            },
            {
              "internalType": "uint256",
              "name": "bodyIndex",
              "type": "uint256"
            },
            {
              "internalType": "uint256",
              "name": "px",
              "type": "uint256"
            },
            {
              "internalType": "uint256",
              "name": "py",
              "type": "uint256"
            },
            {
              "internalType": "uint256",
              "name": "vx",
              "type": "uint256"
            },
            {
              "internalType": "uint256",
              "name": "vy",
              "type": "uint256"
            },
            {
              "internalType": "uint256",
              "name": "radius",
              "type": "uint256"
            },
            {
              "internalType": "uint256",
              "name": "starLvl",
              "type": "uint256"
            },
            {
              "internalType": "uint256",
              "name": "maxStarLvl",
              "type": "uint256"
            },
            {
              "internalType": "bytes32",
              "name": "seed",
              "type": "bytes32"
            }
          ],
          "internalType": "struct Problems.Body",
          "name": "body",
          "type": "tuple"
        }
      ],
      "name": "updateProblemBody",
      "outputs": [],
      "stateMutability": "nonpayable",
      "type": "function"
    },
    {
      "inputs": [
        {
          "internalType": "uint256",
          "name": "problemId",
          "type": "uint256"
        },
        {
          "internalType": "uint256",
          "name": "bodyCount",
          "type": "uint256"
        }
      ],
      "name": "updateProblemBodyCount",
      "outputs": [],
      "stateMutability": "nonpayable",
      "type": "function"
    },
    {
      "inputs": [
        {
          "internalType": "uint256",
          "name": "problemId",
          "type": "uint256"
        },
        {
          "internalType": "uint256[10]",
          "name": "bodyIds",
          "type": "uint256[10]"
        }
      ],
      "name": "updateProblemBodyIds",
      "outputs": [],
      "stateMutability": "nonpayable",
      "type": "function"
    },
    {
      "inputs": [
        {
          "internalType": "uint256",
          "name": "problemId",
          "type": "uint256"
        },
        {
          "internalType": "uint256",
          "name": "tickCount",
          "type": "uint256"
        }
      ],
      "name": "updateProblemTickCount",
      "outputs": [],
      "stateMutability": "nonpayable",
      "type": "function"
    },
    {
      "inputs": [
        {
          "internalType": "address",
          "name": "proceedRecipient_",
          "type": "address"
        }
      ],
      "name": "updateProceedRecipientAddress",
      "outputs": [],
      "stateMutability": "nonpayable",
      "type": "function"
    },
    {
      "inputs": [
        {
          "internalType": "address",
          "name": "solver_",
          "type": "address"
        }
      ],
      "name": "updateSolverAddress",
      "outputs": [],
      "stateMutability": "nonpayable",
      "type": "function"
    },
    {
      "inputs": [
        {
          "internalType": "uint256",
          "name": "startDate_",
          "type": "uint256"
        }
      ],
      "name": "updateStartDate",
      "outputs": [],
      "stateMutability": "nonpayable",
      "type": "function"
    },
    {
      "inputs": [
        {
          "internalType": "address",
          "name": "verifier_",
          "type": "address"
        },
        {
          "internalType": "uint256",
          "name": "verifierBodies",
          "type": "uint256"
        },
        {
          "internalType": "uint256",
          "name": "verifierTicks",
          "type": "uint256"
        }
      ],
      "name": "updateVerifier",
      "outputs": [],
      "stateMutability": "nonpayable",
      "type": "function"
    },
    {
      "inputs": [
        {
          "internalType": "uint256",
          "name": "",
          "type": "uint256"
        },
        {
          "internalType": "uint256",
          "name": "",
          "type": "uint256"
        }
      ],
      "name": "verifiers",
      "outputs": [
        {
          "internalType": "address",
          "name": "",
          "type": "address"
        }
      ],
      "stateMutability": "view",
      "type": "function"
    },
    {
      "inputs": [],
      "name": "windowWidth",
      "outputs": [
        {
          "internalType": "uint256",
          "name": "",
          "type": "uint256"
        }
      ],
      "stateMutability": "view",
      "type": "function"
    },
    {
      "stateMutability": "payable",
      "type": "receive"
    }
  ],
  "bytecode": "0x60406080815234620005b25762003c6590813803806200001f81620005f2565b9384398201608083820312620005b2576200003a8362000618565b92602091828201519260018060401b0393848111620005b257830191601f93818585011215620005b2578351936200007c62000076866200062d565b620005f2565b94848087838152019160051b83010191848311620005b25785809101915b838310620005b7575050505086810151868111620005b25782620000c091830162000645565b916060820151878111620005b257620000da920162000645565b91620000e5620005d2565b95600f908188526e416e79626f64792050726f626c656d60881b838901526200010d620005d2565b966003885262414e5960e81b848901528851978289116200059c5760009889549a60019b8c81811c9116801562000591575b888210146200057d579081858493116200052a575b508790858311600114620004bd578c92620004b1575b5050600019600383901b1c1916908b1b1789555b80519283116200049d5789548a81811c9116801562000492575b868210146200047e579081838594931162000429575b5085918311600114620003c5578992620003b9575b5050600019600383901b1c191690881b1787555b6006549860018060a01b03199533878c161760065589519a60018060a01b039283918d7f8be0079c531659141344cd1fd0a4f28419497f9722a3daafe3b4186f6b6457e08c8533941692a389600755662386f26fc10000600d55169a8b15620003845750889a3388600c541617600c5587600b541617600b55879a5b62000268575b89516135979081620006ce8239f35b80518b10156200037e576200027e8b86620006a2565b51156200033a5781620002928c83620006a2565b511615620003035781620002a78c83620006a2565b5116620002b58c88620006a2565b5189528385528a8920620002ca8d88620006a2565b518a5285528a892090888254161790556000198b14620002ef57998801998862000253565b634e487b7160e01b88526011600452602488fd5b895162461bcd60e51b815260048101859052601060248201526f24b73b30b634b2103b32b934b334b2b960811b6044820152606490fd5b895162461bcd60e51b815260048101859052601560248201527f496e76616c6964207665726966696572206475737400000000000000000000006044820152606490fd5b62000259565b62461bcd60e51b815260048101859052601060248201526f496e76616c6964206d6574616461746160801b6044820152606490fd5b015190503880620001c3565b8a8a52858a208b94509190601f1984168b5b88828210620004125750508411620003f8575b505050811b018755620001d7565b015160001960f88460031b161c19169055388080620003ea565b8385015186558e97909501949384019301620003d7565b909192508a8a52858a208380860160051c82019288871062000474575b9186958e929594930160051c01915b82811062000465575050620001ae565b8c81558695508d910162000455565b9250819262000446565b634e487b7160e01b8a52602260045260248afd5b90607f169062000198565b634e487b7160e01b89526041600452602489fd5b0151905038806200016a565b8c8052888d208e94509190601f1984168e5b8b8282106200050a5750508411620004f0575b505050811b0189556200017e565b015160001960f88460031b161c19169055388080620004e2565b91929395968291958786015181550195019301908f9594939291620004cf565b9091508b8052878c208580850160051c8201928a861062000573575b918f91869594930160051c01915b8281106200056457505062000154565b8e81558594508f910162000554565b9250819262000546565b634e487b7160e01b8c52602260045260248cfd5b90607f16906200013f565b634e487b7160e01b600052604160045260246000fd5b600080fd5b8190620005c48462000618565b81520191019085906200009a565b60408051919082016001600160401b038111838210176200059c57604052565b6040519190601f01601f191682016001600160401b038111838210176200059c57604052565b51906001600160a01b0382168203620005b257565b6001600160401b0381116200059c5760051b60200190565b9080601f83011215620005b2578151906200066462000076836200062d565b9182938184526020808095019260051b820101928311620005b2578301905b82821062000692575050505090565b8151815290830190830162000683565b8051821015620006b75760209160051b010190565b634e487b7160e01b600052603260045260246000fdfe60806040526004361015610023575b361561001957600080fd5b6100216128e9565b005b6000803560e01c8063010fdfd5146121b557806301ffc9a71461214657806304b24e851461210d57806306fdde031461204d578063081812fc1461202e5780630825ea8d14611f8257806308cdc2a814611f39578063095ea7b314611dc15780630b27ce3f14611d985780630b97bc8614611d7a5780630ce90ec214611c465780631249c58b14611c3257806318d9479314611c0d57806320a286d014611bef57806321dbbbdf14611aad57806323b872dd14611a835780632b057afa14611a285780632d6059331461193e578063306da04f1461191557806334e5e492146118e8578063392f37e9146118bf5780633ecb6f88146116b45780633f29ad1d146113eb578063408472841461135657806340c10f191461122257806342842e0e146111d057806343569ffb1461119957806349a7a26d146111705780634b9862d91461115457806353e52f09146111385780635c975abb14611112578063609e00a4146110f25780636282eff5146110b05780636352211e1461107f5780636a62784214610f0b57806370a0823114610e75578063715018a614610e155780637696d9ff14610dd3578063872d7e4814610d9a5780638d6cc56d14610d755780638da5cb5b14610d4c57806395d89b4114610c405780639769dc0e14610bd0578063a035b1fe14610bb2578063a22cb46514610ae0578063afcb1af0146109ee578063b88d4fde14610964578063bf82e9de146107f1578063c09fd8ef14610776578063c31f5d6a1461072c578063c87b56dd14610637578063d35c3f9414610542578063de4318fc1461049f578063e985e9c51461044b578063eba4f366146103fe578063ed3437f8146103e1578063ed892aae1461039f578063f2fde38b146102d85763f81c8ec3146102b8575061000e565b346102d557806003193601126102d5576020604051620f42408152f35b80fd5b50346102d55760203660031901126102d5576102f26121f7565b6102fa6123e1565b6001600160a01b03908116801561034b57600680546001600160a01b03198116831790915560405192167f8be0079c531659141344cd1fd0a4f28419497f9722a3daafe3b4186f6b6457e0600084a3f35b60405162461bcd60e51b815260206004820152602660248201527f4f776e61626c653a206e6577206f776e657220697320746865207a65726f206160448201526564647265737360d01b6064820152608490fd5b50346102d55760203660031901126102d5576103b96121f7565b6103c16123e1565b60018060a01b03166001600160601b0360a01b600b541617600b55604051f35b50346102d557806003193601126102d55760206040516103e88152f35b50346102d55760203660031901126102d55760406080916004358152600e60205220805490600181015490600f600282015491015491604051938452602084015260408301526060820152f35b50346102d55760403660031901126102d5576104656121f7565b604061046f612212565b9260018060a01b0380931681526005602052209116600052602052602060ff604060002054166040519015158152f35b50346102d5576101603660031901126102d55736604312156102d5576040516104c78161236a565b6101648136821161053e576024905b82821061052e57505050600a906104f760018060a01b0383541633146134fe565b60043583526020600e81526005604085200184925b8484106105195785604051f35b6001838282935185550192019301929061050c565b81358152602091820191016104d6565b8380fd5b50346102d5576101a03660031901126102d55761016080604319360112610633576040519081019080821067ffffffffffffffff83111761061d576106189160405260443581526064356020820152608435604082015260a435606082015260c435608082015260e43560a08201526101043560c08201526101243560e08201526101443561010082015261016435610120820152610184356101408201526105f660018060a01b03600a541633146134fe565b6004358352600e60205260046040842001602435845260205260408320612fe1565b604051f35b634e487b7160e01b600052604160045260246000fd5b5080fd5b50346102d55760208060031936011261063357600b5460405163295d33a960e21b81526004803590820152908390829060249082906001600160a01b03165afa92831561072057809361069f575b505061069b604051928284938452830190612273565b0390f35b909192503d8082843e6106b281846123a3565b82019183818403126106335780519067ffffffffffffffff821161071c570182601f82011215610633578051916106e8836123c5565b936106f660405195866123a3565b8385528584840101116102d55750906107149184808501910161223e565b903880610685565b8280fd5b604051903d90823e3d90fd5b50346102d55761076760406101609261074436612228565b9061074d6133c3565b508252600e60205260048383200190825260205220612f66565b61077460405180926122cd565bf35b50346102d55760203660031901126102d5576004356001600160a01b03811690819003610633576107a56123e1565b47906000805160206135428339815191526107e084808060405187875af16107cb6127c1565b90604051928392604084526040840190612273565b9560208301521515940390a3604051f35b50346102d557602090816003193601126102d5576004359160018060a01b0360248282600a541660405192838092634e26b0cd60e01b82528960048301525afa908115610959579061084b91859161092c575b5015612e1d565b61085d60ff60065460a01c16156129e7565b61087261086985612485565b82163314612e69565b838352600e825261088c600a600160408620015410612ea9565b838352600e82526002604084200154906108a8600a8310612ef5565b6009541690813b1561053e57604051630ab714fb60e11b81523360048201526024810186905260448101919091529083908290606490829084905af180156109215761090f575b508192600e925252600260408220016109088154612a1c565b9055604051f35b9161091b600e93612339565b916108ef565b6040513d85823e3d90fd5b61094c9150843d8611610952575b61094481836123a3565b810190612e05565b38610844565b503d61093a565b6040513d86823e3d90fd5b50346102d55760803660031901126102d55761097e6121f7565b610986612212565b906064359067ffffffffffffffff821161053e573660238301121561053e57816004013592846109b5856123c5565b936109c360405195866123a3565b858552366024878301011161063357856106189660246020930183880137850101526044359161254b565b50346102d5576109fd36612228565b600a54604051634e26b0cd60e01b8152600481018490526001600160a01b0393916020908290602490829088165afa8015610ad557610a43918691610abd575015612e1d565b808452600e602052600360016040862001541115610a7857610a7361061893610a6b83612485565b163314612e69565b613089565b60405162461bcd60e51b815260206004820152601e60248201527f43616e6e6f742068617665206c657373207468616e203320626f6469657300006044820152606490fd5b61094c915060203d81116109525761094481836123a3565b6040513d87823e3d90fd5b50346102d55760403660031901126102d557610afa6121f7565b6024359081151580920361071c576001600160a01b031690338214610b6d573383526005602052604083208284526020526040832060ff1981541660ff83161790556040519081527f17307eab39ab6107e8899845ad3d59bd9653f200f220920489ca2b5937696c3160203392a3604051f35b60405162461bcd60e51b815260206004820152601960248201527f4552433732313a20617070726f766520746f2063616c6c6572000000000000006044820152606490fd5b50346102d557806003193601126102d5576020600d54604051908152f35b50346102d55760203660031901126102d557610618610bed6121f7565b600a54610c33906001600160a01b0390610c0a90821615156129a9565b610c19816009541615156129a9565b610c2881600b541615156129a9565b600c541615156129a9565b610c3b6123e1565b612a5c565b50346102d557806003193601126102d557604051908060019182549283811c92818516948515610d42575b6020958686108114610d2e57858852879493929187908215610d0c575050600114610cb3575b5050610c9f925003836123a3565b61069b604051928284938452830190612273565b908592508082527fb10e2d527612073b26eecdfd717e6a320cf44b4afac2b0732d9fcbe2b7fa0cf65b858310610cf4575050610c9f93508201013880610c91565b80548389018501528794508693909201918101610cdc565b9250935050610c9f94915060ff191682840152151560051b8201013880610c91565b634e487b7160e01b83526022600452602483fd5b93607f1693610c6b565b50346102d557806003193601126102d5576006546040516001600160a01b039091168152602090f35b50346102d55760203660031901126102d557610d8f6123e1565b600435600d55604051f35b50346102d557610da936612228565b90610dbf60018060a01b03600a541633146134fe565b8252600e6020526001604083200155604051f35b50346102d55760203660031901126102d557610ded6121f7565b610df56123e1565b60018060a01b03166001600160601b0360a01b600a541617600a55604051f35b50346102d557806003193601126102d557610e2e6123e1565b600680546001600160a01b031981169091556040519082906001600160a01b03167f8be0079c531659141344cd1fd0a4f28419497f9722a3daafe3b4186f6b6457e08284a3f35b50346102d55760203660031901126102d5576001600160a01b03610e976121f7565b168015610eb4578160409160209352600383522054604051908152f35b60405162461bcd60e51b815260206004820152602960248201527f4552433732313a2061646472657373207a65726f206973206e6f7420612076616044820152683634b21037bbb732b960b91b6064820152608490fd5b5060203660031901126102d557610f206121f7565b600a546001600160a01b039081161515610f39816129a9565b610f7e8260095416151591610f4d836129a9565b610f7984600b54161515610f60816129a9565b610f7986600c541695610f7987151595610f79876129a9565b6129a9565b610f9060ff60065460a01c16156129e7565b600754421061104c57600d54340361101757838080926040519034905af190600080516020613542833981519152610fe3610fc96127c1565b92600c541692604051918291604083526040830190612273565b943460208301521515940390a3815b600181106110005782604051f35b6110129061100d83612a5c565b612a1c565b610ff2565b60405162461bcd60e51b815260206004820152600d60248201526c496e76616c696420707269636560981b6044820152606490fd5b60405162461bcd60e51b815260206004820152600b60248201526a139bdd081cdd185c9d195960aa1b6044820152606490fd5b50346102d55760203660031901126102d557602061109e600435612485565b6040516001600160a01b039091168152f35b50346102d55760203660031901126102d5576110ca6121f7565b6110d26123e1565b60018060a01b03166001600160601b0360a01b600c541617600c55604051f35b50346102d55760203660031901126102d557610160610767600435613416565b50346102d557806003193601126102d557602060ff60065460a01c166040519015158152f35b50346102d557806003193601126102d557602060405160028152f35b50346102d557806003193601126102d5576020604051600a8152f35b50346102d557806003193601126102d557600a546040516001600160a01b039091168152602090f35b50346102d5576020906111ab36612228565b908252600f8352604082209082528252604060018060a01b0391205416604051908152f35b50346102d5576111df36612298565b60409392935191602083019483861067ffffffffffffffff87111761120e57610618949560405285845261254b565b634e487b7160e01b85526041600452602485fd5b5060403660031901126102d5576112376121f7565b600a5460243591906001600160a01b039061125590821615156129a9565b611264816009541615156129a9565b61127381600b541615156129a9565b80600c54166112838115156129a9565b600584116113295761129d60ff60065460a01c16156129e7565b600754421061104c57600d548460001904811185151516611315578402340361101757848080926040519034905af1906000805160206135428339815191526112e7610fc96127c1565b943460208301521515940390a3825b8281106113035783604051f35b6113109061100d83612a5c565b6112f6565b634e487b7160e01b86526011600452602486fd5b60405162461bcd60e51b81526020600482015260056024820152644d6178203560d81b6044820152606490fd5b50346102d557602090816003193601126102d55790604051916113788361236a565b61014080933690376004358152600e82526005604082200191604051928383905b600a82106113d5575050506113ad8361236a565b6040519291835b600a82106113c0578585f35b828060019286518152019401910190926113b4565b8254815260019283019291909101908301611399565b50346102d55760203660031901126102d557600a54604051634e26b0cd60e01b815260048035908201526001600160a01b03916020908290602490829086165afa80156109215761144391849161169b575015612e1d565b61145560ff60065460a01c16156129e7565b611463610869600435612485565b6004358252600e602052611480600a600160408520015410612ea9565b6004358252600e60205260026040832001549061149f600a8310612ef5565b60095460405163d395cb1360e01b815233600480830191909152356024820152604481018490529291606091849160649183918891165af190811561092157839284908593611666575b506004358552600e60205260016040862001548461157e61156561150c87613416565b938385528660208601528961010086015261012085019586528060408601526004358a52600e602052600460408b2001848b5260205261154f8560408c20612fe1565b6004358a52600e602052600560408b2001612f40565b819391549060031b600019811b9283911b169119161790565b90556004358652600e6020526001604087200161159b8154612a1c565b90556004358652600e6020526040862060020180546001198111611652579161014095939160017fe40053ac8eef7fe7edc42668d8edfd183596014bf82e00bd7e938851ae1321479896940190556004358852600e602052600f604089200154606082015160808301519161010060e0850151940151945195604051986004358a5260208a015260408901526060880152608087015260a086015260c085015260e0840152610100830152610120820152a1604051f35b634e487b7160e01b88526011600452602488fd5b9193505061168b915060603d8111611694575b61168381836123a3565b810190612a41565b919290386114e9565b503d611679565b61094c915060203d6020116109525761094481836123a3565b50346102d557806116c436612228565b6116d660ff60065460a01c16156129e7565b60806116e183612485565b6001600160a01b03906116f79082163314612e69565b838552600e602052611712600a600160408820015410612ea9565b60095416606460405180968193636f21292560e01b83528660048401523360248401528760448401525af19283156109595784908580928192829761186d575b509181869593610140977fe40053ac8eef7fe7edc42668d8edfd183596014bf82e00bd7e938851ae13214799969452600e602052846117f06115656001604086200154600560406117a28c613416565b978689528760208a01526101009a8b8a01526101208901998a5283828a01528d8152600e6020526004828220018782526020526117e189838320612fe1565b8d8152600e6020522001612f40565b9055868a52600e602052600160408b200161180b8154612a1c565b9055868a52600e602052600f60408b2001546060830151906080840151928660e08601519501519551976040519a8b5260208b015260408a01526060890152608088015260a087015260c086015260e0850152830152610120820152a1604051f35b965050505050906080833d6080116118b7575b8161188d608093836123a3565b8101031261053e578251602084015160408501516060909501519492939290918690610140611752565b3d9150611880565b50346102d557806003193601126102d557600b546040516001600160a01b039091168152602090f35b50346102d55760203660031901126102d557600260406020926004358152600e8452200154604051908152f35b50346102d557806003193601126102d5576009546040516001600160a01b039091168152602090f35b50346102d557602090816003193601126102d5576004358152600e8252600360408220019182549067ffffffffffffffff8211611a14579192906040519061198b848260051b01836123a3565b8082528382018093865284862086915b8383106119ed57505050506040519280840191818552518092526040840192945b8281106119c95784840385f35b90919282610160826119de6001948a516122cd565b019601910194929190946119bc565b600b87600192611a01859b9a98999b612f66565b815201920192019190969493959661199b565b634e487b7160e01b83526041600452602483fd5b50346102d55760603660031901126102d557611a426121f7565b611a4a6123e1565b6024358252600f602052604082206044358352602052604082209060018060a01b03166001600160601b0360a01b825416179055604051f35b50346102d557610618611a9536612298565b91611aa8611aa384336125e6565b6124e9565b6126ae565b50346102d5576020806003193601126106335760043590602460018060a01b038281600a541660405193848092634e26b0cd60e01b82528860048301525afa918215610ad557611b1192611b08918791611bd8575015612e1d565b610a6b84612485565b825b828452600e908183526001604086200154811015611bd257611b8a91611b3f8260056040892001612f40565b9054600391821b1c908688528286526004604089200182895286526008604089200154878952838752600460408a2001838a528752600960408a20015414611b8f575b505050612a1c565b611b13565b611bca92878952808752600460408a2001838a528752611bbb611bb460408b20612f66565b9389613089565b8789528652604088200161304f565b388080611b82565b84604051f35b61094c9150853d87116109525761094481836123a3565b50346102d557806003193601126102d5576020600854604051908152f35b50346102d55760203660031901126102d557611c276123e1565b600435600755604051f35b50806003193601126102d5576106186128e9565b50346102d55760208060031936011261063357600435611c7160018060a01b03600a541633146134fe565b808352600e8083526040842060010154929084805b858210611c935786604051f35b8487528284526005604088200181831061165257611cb49082840390612f40565b929054600393841b1c868952848652600460408a2001818a528652886008806040832001611ce28154612a1c565b9055888252868852600460408320018383528852604082200154888252868852600460408320018383528852600960408320015414611d2f575b5050611d29919250612a1c565b90611c86565b90611d61611d299461100d611d5a6040868d611d7298528b8d526004828220018782528d5220612f66565b938b613089565b94888b5286885260408b200161304f565b829188611d1c565b50346102d557806003193601126102d5576020600754604051908152f35b50346102d557806003193601126102d557600c546040516001600160a01b039091168152602090f35b50346102d55760403660031901126102d557611ddb6121f7565b6024356001600160a01b038080611df184612485565b16931692808414611eea57803314908115611ec9575b5015611e5e5781845260046020526040842080546001600160a01b03191684179055611e3282612485565b1691604051927f8c5be1e5ebec7d5bd14f71427d1e84f3dd0314c0f7b2291e5b200ac8c7c3b9258585a4f35b60405162461bcd60e51b815260206004820152603d60248201527f4552433732313a20617070726f76652063616c6c6572206973206e6f7420746f60448201527f6b656e206f776e6572206f7220617070726f76656420666f7220616c6c0000006064820152608490fd5b9050845260056020526040842033855260205260ff60408520541638611e07565b60405162461bcd60e51b815260206004820152602160248201527f4552433732313a20617070726f76616c20746f2063757272656e74206f776e656044820152603960f91b6064820152608490fd5b50346102d55760203660031901126102d55760043580151580910361063357611f606123e1565b6006805460ff60a01b191660a09290921b60ff60a01b16919091179055604051f35b50346102d55760208060031936011261063357600435600a611fae60018060a01b0382541633146134fe565b835b828552600e9081855260016040872001548110156120285761202391611fdc82600560408a2001612f40565b90549060031b1c8588528187526004604089200181895287526120048560408a2001546134ba565b9186895287526004604089200190885286526007604088200155612a1c565b611fb0565b85604051f35b50346102d55760203660031901126102d557602061109e6004356124ab565b50346102d557806003193601126102d5576040519080805491600183811c92818516948515612103575b6020958686108114610d2e57858852879493929187908215610d0c5750506001146120aa575050610c9f925003836123a3565b908592508180527f290decd9548b62a8d60345a988386fc84ba6bc95484008f6362f93160ef3e5635b8583106120eb575050610c9f93508201013880610c91565b805483890185015287945086939092019181016120d3565b93607f1693612077565b50346102d55761211c36612228565b9061213260018060a01b03600a541633146134fe565b8252600e602052600f604083200155604051f35b50346102d55760203660031901126102d55760043563ffffffff60e01b8116809103610633576020906380ac58cd60e01b81149081156121a4575b8115612193575b506040519015158152f35b6301ffc9a760e01b14905082612188565b635b5e139f60e01b81149150612181565b50346102d55760203660031901126102d5576121cf6121f7565b6121d76123e1565b60018060a01b03166001600160601b0360a01b6009541617600955604051f35b600435906001600160a01b038216820361220d57565b600080fd5b602435906001600160a01b038216820361220d57565b604090600319011261220d576004359060243590565b918091926000905b82821061225e575011612257575050565b6000910152565b91508060209183015181860152018291612246565b9060209161228c8151809281855285808601910161223e565b601f01601f1916010190565b606090600319011261220d576001600160a01b0390600435828116810361220d5791602435908116810361220d579060443590565b805182526020810151602083015260408101516040830152606081015160608301526080810151608083015260a081015160a083015260c081015160c083015260e081015160e08301526101008082015190830152610120808201519083015261014080910151910152565b67ffffffffffffffff811161061d57604052565b610160810190811067ffffffffffffffff82111761061d57604052565b610140810190811067ffffffffffffffff82111761061d57604052565b6060810190811067ffffffffffffffff82111761061d57604052565b90601f8019910116810190811067ffffffffffffffff82111761061d57604052565b67ffffffffffffffff811161061d57601f01601f191660200190565b6006546001600160a01b031633036123f557565b606460405162461bcd60e51b815260206004820152602060248201527f4f776e61626c653a2063616c6c6572206973206e6f7420746865206f776e65726044820152fd5b1561244057565b60405162461bcd60e51b815260206004820152601860248201527f4552433732313a20696e76616c696420746f6b656e20494400000000000000006044820152606490fd5b6000908152600260205260409020546001600160a01b03166124a8811515612439565b90565b6000818152600260205260409020546124ce906001600160a01b03161515612439565b6000908152600460205260409020546001600160a01b031690565b156124f057565b60405162461bcd60e51b815260206004820152602d60248201527f4552433732313a2063616c6c6572206973206e6f7420746f6b656e206f776e6560448201526c1c881bdc88185c1c1c9bdd9959609a1b6064820152608490fd5b9061256f93929161255f611aa384336125e6565b61256a8383836126ae565b6127f1565b1561257657565b60405162461bcd60e51b81528061258f60048201612593565b0390fd5b60809060208152603260208201527f4552433732313a207472616e7366657220746f206e6f6e20455243373231526560408201527131b2b4bb32b91034b6b83632b6b2b73a32b960711b60608201520190565b906001600160a01b0380806125fa84612485565b1693169183831493841561262d575b508315612617575b50505090565b612623919293506124ab565b1614388080612611565b909350600052600560205260406000208260005260205260ff604060002054169238612609565b1561265b57565b60405162461bcd60e51b815260206004820152602560248201527f4552433732313a207472616e736665722066726f6d20696e636f72726563742060448201526437bbb732b960d91b6064820152608490fd5b906126d6916126bc84612485565b6001600160a01b0393918416928492909183168414612654565b1691821561277057816126f3916126ec86612485565b1614612654565b7fddf252ad1be2c89b69c2b068fc378daa952ba7f163c4a11628f55a4df523b3ef60008481526004602052604081206001600160601b0360a01b90818154169055838252600360205260408220600019815401905584825260408220600181540190558582526002602052846040832091825416179055604051a4565b60405162461bcd60e51b8152602060048201526024808201527f4552433732313a207472616e7366657220746f20746865207a65726f206164646044820152637265737360e01b6064820152608490fd5b3d156127ec573d906127d2826123c5565b916127e060405193846123a3565b82523d6000602084013e565b606090565b91926000929190813b156128df576020916128479185604051958680958194630a85bd0160e11b9b8c845233600485015260018060a01b0380951660248501526044840152608060648401526084830190612273565b0393165af190829082612897575b5050612889576128636127c1565b805190816128845760405162461bcd60e51b81528061258f60048201612593565b602001fd5b6001600160e01b0319161490565b909192506020813d82116128d7575b816128b3602093836123a3565b810103126106335751906001600160e01b0319821682036102d55750903880612855565b3d91506128a6565b5050505050600190565b600a546001600160a01b039061290290821615156129a9565b612911816009541615156129a9565b61292081600b541615156129a9565b80600c54166129308115156129a9565b61294260ff60065460a01c16156129e7565b600754421061104c57600d5434036110175760008080926040519034905af19060008051602061354283398151915261297c610fc96127c1565b943460208301521515940390a360005b600181106129975750565b6129a49061100d33612a5c565b61298c565b156129b057565b60405162461bcd60e51b815260206004820152600f60248201526e139bdd081a5b9a5d1a585b1a5e9959608a1b6044820152606490fd5b156129ee57565b60405162461bcd60e51b815260206004820152600660248201526514185d5cd95960d21b6044820152606490fd5b6000198114612a2b5760010190565b634e487b7160e01b600052601160045260246000fd5b9081606091031261220d578051916040602083015192015190565b612a67600854612a1c565b60088190556001600160a01b03821691908215612d7557600081815260026020526040902054612aa3906001600160a01b031615155b15612db9565b600081815260026020526040902054612ac6906001600160a01b03161515612a9d565b82600052600392836020526040600020600181540190558160005260026020526040600020816001600160601b0360a01b82541617905560007fddf252ad1be2c89b69c2b068fc378daa952ba7f163c4a11628f55a4df523b3ef81604051a460005b828110612b8057505060085460014310612a2b57604080516020810183815243600019014082840152918152612b5d81612387565b51902090600052600e602052604060002055600854600052600160406000200155565b60095460085460405163d395cb1360e01b81526001600160a01b038581166004808401919091526024830193909352604482018590529192909160609183916064918391600091165af1908115612d6957600090600090600093612d45575b5060085493612bed84613416565b91838352866020840152600061010084015261012083015285604083015284600052600e6020528060406000200183600052602052612c30826040600020612fe1565b84600052600e60205282612c4e611565886005604060002001612f40565b905584600052600e6020526001604060002001612c6b8154612a1c565b905584600052600e6020526002604060002001908154906001198211612d30575092612d2b9695927fe40053ac8eef7fe7edc42668d8edfd183596014bf82e00bd7e938851ae132147959260016101409601905583600052600e602052600f60406000200154606082015160808301519060e0840151926101206101008601519501519560405198895260208901528a60408901526060880152608087015260a086015260c085015260e0840152610100830152610120820152a1612a1c565b612b28565b601190634e487b7160e01b6000525260246000fd5b915050612d61915060603d6060116116945761168381836123a3565b919038612bdf565b6040513d6000823e3d90fd5b606460405162461bcd60e51b815260206004820152602060248201527f4552433732313a206d696e7420746f20746865207a65726f20616464726573736044820152fd5b15612dc057565b60405162461bcd60e51b815260206004820152601c60248201527f4552433732313a20746f6b656e20616c7265616479206d696e746564000000006044820152606490fd5b9081602091031261220d5751801515810361220d5790565b15612e2457565b60405162461bcd60e51b815260206004820152601960248201527f50726f626c656d2063757272656e746c7920696e20706c6179000000000000006044820152606490fd5b15612e7057565b60405162461bcd60e51b81526020600482015260116024820152702737ba10383937b13632b69037bbb732b960791b6044820152606490fd5b15612eb057565b60405162461bcd60e51b815260206004820152601f60248201527f43616e6e6f742068617665206d6f7265207468616e20313020626f64696573006044820152606490fd5b15612efc57565b606460405162461bcd60e51b815260206004820152602060248201527f50726f626c656d20616c7265616479206d696e74656420313020626f646965736044820152fd5b600a821015612f50570190600090565b634e487b7160e01b600052603260045260246000fd5b90604051612f738161234d565b610140600a82948054845260018101546020850152600281015460408501526003810154606085015260048101546080850152600581015460a0850152600681015460c0850152600781015460e0850152600881015461010085015260098101546101208501520154910152565b90610140600a91805184556020810151600185015560408101516002850155606081015160038501556080810151600485015560a0810151600585015560c0810151600685015560e08101516007850155610100810151600885015561012081015160098501550151910155565b9081546801000000000000000081101561061d5760018101808455811015612f505761308792600052600b6020600020910201612fe1565b565b90600654906130a060ff60009360a01c16156129e7565b828252600e602052600460408320018183526020526130c160408320612f66565b8181510361337757600954610100820180519092916001600160a01b031690813b15613373578591608483926040519485938492633c43b50b60e01b84523360048501528a60248501528c604485015260648401525af18015610ad55761333b575b507f6ad4359fe8e6d536b246aab3e16451ad6a5336cf0f7e9ec2fd6a544d5c5ba7649160c091868652600e602052610120600f60408820015492519101516040872054916040519389855260208501528660408501526060840152608083015260a0820152a1828252600e602052600460408320018183526020526002938460408420015491848452600e602052600160408520018054801561131557600019019055848452600e602052604080852090519060050185825b600a8210613325575050506131f08161236a565b6101406040516131ff8161236a565b369037835b600981106132f5575084610120820152858552600e602052600560408620019085905b600a82106132df5750505060046040852001908452602052604083209160008355600060018401556000868401556000600a600394828682015582600482015582600582015582600682015582600782015582600882015582600982015501555b848452600e60205260016040852001548110156132d7576132d290600460408620016132ba8260056040892001612f40565b905490861b1c86526020528087604087200155612a1c565b613288565b509350505050565b6001602082829351865501930191019091613227565b6001198111611315578061330f60016133209301846133b2565b5161331a82856133b2565b52612a1c565b613204565b60016020819285548152019301910190916131dc565b9160c0919461336a7f6ad4359fe8e6d536b246aab3e16451ad6a5336cf0f7e9ec2fd6a544d5c5ba76494612339565b94915091613123565b8580fd5b60405162461bcd60e51b8152602060048201526013602482015272426f6479206e6f7420696e2070726f626c656d60681b6044820152606490fd5b90600a811015612f505760051b0190565b604051906133d08261234d565b816101406000918281528260208201528260408201528260608201528260808201528260a08201528260c08201528260e082015282610100820152826101208201520152565b61341e6133c3565b506134276133c3565b9080610140830152613438816134ba565b9060014310612a2b576040908151602081019182526000194301408382015282815261346381612387565b5190209080516020810191838352602082528082019082821067ffffffffffffffff83111761061d5752620f4240918291519020069106606084015260808301526127108060a084015260c083015260e082015290565b6001168019600111612a2b576000199060010180151581830460051116612a2b576005026002198111612a2b57600201806103e89204821181151516612a2b570290565b1561350557565b60405162461bcd60e51b815260206004820152601460248201527313db9b1e4814dbdb1d995c8818d85b8818d85b1b60621b6044820152606490fdfeb08889abce443443404b2caf69aa3ccfb9ebfdf1ad2a634d06e11e24c1067938a2646970667358221220a0c7f3f0657a07188e585bebf06abb8a1e81e8c5a3b2d62931c4ae1b2fd3a88364736f6c634300080f0033",
  "linkReferences": {},
  "deployedLinkReferences": {}
}