{
  "_format": "hh-sol-artifact-1",
  "contractName": "Groth16Verifier",
  "sourceName": "contracts/Game_4_300Verifier.sol",
  "abi": [
    {
      "inputs": [
        {
          "internalType": "uint256[2]",
          "name": "_pA",
          "type": "uint256[2]"
        },
        {
          "internalType": "uint256[2][2]",
          "name": "_pB",
          "type": "uint256[2][2]"
        },
        {
          "internalType": "uint256[2]",
          "name": "_pC",
          "type": "uint256[2]"
        },
        {
          "internalType": "uint256[40]",
          "name": "_pubSignals",
          "type": "uint256[40]"
        }
      ],
      "name": "verifyProof",
      "outputs": [
        {
          "internalType": "bool",
          "name": "",
          "type": "bool"
        }
      ],
      "stateMutability": "view",
      "type": "function"
    }
  ],
  "bytecode": "0x6080806040523461001657611d32908161001c8239f35b600080fdfe6080604052600436101561001257600080fd5b6000803560e01c6319da330f1461002857600080fd5b3461026857610600366003190112610268576100433661026b565b3660c411610264576100543661027d565b90610604368111610260579161025c916102576020959461040060405261007d6101043561028b565b6100896101243561028b565b6100956101443561028b565b6100a16101643561028b565b6100ad6101843561028b565b6100b96101a43561028b565b6100c56101c43561028b565b6100d16101e43561028b565b6100dd6102043561028b565b6100e96102243561028b565b6100f56102443561028b565b6101016102643561028b565b61010d6102843561028b565b6101196102a43561028b565b6101256102c43561028b565b6101316102e43561028b565b61013d6103043561028b565b6101496103243561028b565b6101556103443561028b565b6101616103643561028b565b61016d6103843561028b565b6101796103a43561028b565b6101856103c43561028b565b6101916103e43561028b565b61019d6104043561028b565b6101a96104243561028b565b6101b56104443561028b565b6101c16104643561028b565b6101cd6104843561028b565b6101d96104a43561028b565b6101e56104c43561028b565b6101f16104e43561028b565b6101fd6105043561028b565b6102096105243561028b565b6102156105443561028b565b6102216105643561028b565b61022d6105843561028b565b6102396105a43561028b565b6102456105c43561028b565b6102516105e43561028b565b3561028b565b61184c565b8152f35b8380fd5b5080fd5b80fd5b9060049160441161027857565b600080fd5b9060c4916101041161027857565b7f30644e72e131a029b85045b68181585d97816a916871ca8d3c208c16d87cfd4711156102b457565b6000805260206000f35b604051907f252f3510a29f5c8f7bafd8edab492c706288a8f460086b2d9e8052b7583007e882527f093dfbfe8091a0b517902a100b69f817c3d8f7b4c7696686922e538afc6d23dd6020830152604082019081526107cf196040836060816007855a01fa156102b45760409260066080939284938451905260a05160608401525a01fa156102b457565b604051907f0fb046e71664cc94b7b037eeb9d81c6e9a009de1e1e6ce0970065f8f6551a09982527f13949b69ff9aa884b2265759de74c1e8712a17bb8f0b38026cabaedc72ca01906020830152604082019081526107cf196040836060816007855a01fa156102b45760409260066080939284938451905260a05160608401525a01fa156102b457565b604051907f24a4a16912afbfb077a51c03cab77f1a2e891157023386d1ffe6589e61706f1782527f0274046e9350035a05148a45fa4cc43c4c7dc48d9005de002833896d90b17f0c6020830152604082019081526107cf196040836060816007855a01fa156102b45760409260066080939284938451905260a05160608401525a01fa156102b457565b604051907f279d64b278781d7018af9d768c3b85a24873a964ec59130041d827e09f2865f282527f1474d91725d7777a826f9c0fbe297772a1f8e61ed2947bf1d25aab57122a1ebd6020830152604082019081526107cf196040836060816007855a01fa156102b45760409260066080939284938451905260a05160608401525a01fa156102b457565b604051907f24b528bd3da1513cdbf20673ca4ed98e977217b3a236122772c27ebb76f6fc5382527f223358e95f9d41fd816c29d8ee75b9eb77059f0950481549d49b0ffd68ac1ef06020830152604082019081526107cf196040836060816007855a01fa156102b45760409260066080939284938451905260a05160608401525a01fa156102b457565b604051907f27bf9ce5ebbc66d87f810ceb369c2bde8a2c2b2052745516ee9cdd3f2148f47d82527f113a7a82fcdd7ce7e2f926e5ac8c43de4a63c2520e2419a2ecbc2421154783076020830152604082019081526107cf196040836060816007855a01fa156102b45760409260066080939284938451905260a05160608401525a01fa156102b457565b604051907f3024ff9331a8e9c79d5b9e758e5024b80356fc9557e123527a2eb820ffcb9f5f82527f2abdf360318c00a91ffa044c9ea2702c98744c412767108d03ca094eb0fa425b6020830152604082019081526107cf196040836060816007855a01fa156102b45760409260066080939284938451905260a05160608401525a01fa156102b457565b604051907f20e7b172ebc9e435ab27e50a220cbc723e886c04bc1d6291a399cd5d325ec69182527f19735b0d11647df93760a6212876b86f4d0ab2c61bf0e24be13a553081d13a656020830152604082019081526107cf196040836060816007855a01fa156102b45760409260066080939284938451905260a05160608401525a01fa156102b457565b604051907f1c1b374b61b4682877e674bd57707aa3ced0ec1fe3ce3d92c7b8f665875c17d182527f08dae9f669a33a18f34f6c798b4fc99eb4050ca76db6ce3eb6dd63cee5755ab06020830152604082019081526107cf196040836060816007855a01fa156102b45760409260066080939284938451905260a05160608401525a01fa156102b457565b604051907f213b666d64d0e0541e3b7acc08d8db5f4c94cd39a3c59192d65e8554b78a2b4782527f2d7d1e98b1daf2b65a8fe68a92c574923746a3feb336cf12b2d91dd6b705853c6020830152604082019081526107cf196040836060816007855a01fa156102b45760409260066080939284938451905260a05160608401525a01fa156102b457565b604051907f2dfc53e30130ff51f6f881660fc4648e2ec9c5316735cbce1cefbe2fc6abbf0382527f253a494e1b57f105b2a1b4919cd5b0258dce3d164c99e76d9a6d68eed9215b286020830152604082019081526107cf196040836060816007855a01fa156102b45760409260066080939284938451905260a05160608401525a01fa156102b457565b604051907f204bbbab4e585c484aacf4d704781fb0fb1f6e3a15afe421f7c7f19820a0ff2282527f2949b09ea46f2c9c94357b860758b07bc0561fb06f7b2d88a42110db3e31a52e6020830152604082019081526107cf196040836060816007855a01fa156102b45760409260066080939284938451905260a05160608401525a01fa156102b457565b604051907f17d0441538b9c040c1a13b9783a629fd6c8266074b2bfbb380218e8fedf6e2b582527f12d98ef412156a43a099d6b33d7a2fb4dade8580d4ec3927bc25532aa0650a5a6020830152604082019081526107cf196040836060816007855a01fa156102b45760409260066080939284938451905260a05160608401525a01fa156102b457565b604051907f21b4adfa0733f2fccd5b488024fa7b1040efb41a6135f79583a663461c4d966382527f05dd854aca806c22894f6e79bc81097448ed7a0206b610d8983fee00826c8cdb6020830152604082019081526107cf196040836060816007855a01fa156102b45760409260066080939284938451905260a05160608401525a01fa156102b457565b604051907f26f1f5bed4672e9db73a26a5fa715499424670fc8d1cd1ce25d3c3007f7b311282527f1125e958924e98808e577eb21ed3be748cee05aab0b16bf0ff1bf8591768b7426020830152604082019081526107cf196040836060816007855a01fa156102b45760409260066080939284938451905260a05160608401525a01fa156102b457565b604051907f1af165be3a137c2a57efe469997d247af188be79816fca2c2f131982bccb846882527f0af9640bac4132d358c364891f7017956ce8cb821780e67c9ee0b3e7e15a46af6020830152604082019081526107cf196040836060816007855a01fa156102b45760409260066080939284938451905260a05160608401525a01fa156102b457565b604051907f2b17e0287009346708be996d3aafd9a19a3dbc54cfef2b40c47c78ac635603c282527f2bd6e3cdfd8d35bb189e3dd2860730e8ac7242c4dc33d03b7fd7c0b5465c766f6020830152604082019081526107cf196040836060816007855a01fa156102b45760409260066080939284938451905260a05160608401525a01fa156102b457565b604051907f249220f8581a459dac6589480c5e8388814186dd9891648bfc24635a0f835ccb82527f16497c13ee26899194473acfddcf3876310b2a7758482597944c6e319be659e36020830152604082019081526107cf196040836060816007855a01fa156102b45760409260066080939284938451905260a05160608401525a01fa156102b457565b604051907f2dd3734cba932f4a4184d3178f97c0954e66d126a615e77e3f1ab2de2c70dcc782527f0dfdf63db15a7a01a763fce805054b16a1701bbf5a20ecb815b2fde20cb2830a6020830152604082019081526107cf196040836060816007855a01fa156102b45760409260066080939284938451905260a05160608401525a01fa156102b457565b604051907f26f526eb4f08da413267cdee6c3e1de2656989eb55820d66efbaaee23516180d82527f284c8d0656b1316e6256c23a2e42439ea3636059a079ffeec39ffb0736f617456020830152604082019081526107cf196040836060816007855a01fa156102b45760409260066080939284938451905260a05160608401525a01fa156102b457565b604051907f13cc989082d7a78a26a058bb1216367313d0e889e99c8eb18f9d936b02c07a4282527f1b72e4533dab0953075afe16eade74f38d44b6ae617d5ba4c248612a254037c86020830152604082019081526107cf196040836060816007855a01fa156102b45760409260066080939284938451905260a05160608401525a01fa156102b457565b604051907f1a15bee453d7d4e4de2e81632f6c35a05ff0919377438be1c592b22873f4312182527ef30fe66328508a5907e61622545dce9a113c3831a00917b896a13e8c4b3c9f6020830152604082019081526107cf196040836060816007855a01fa156102b45760409260066080939284938451905260a05160608401525a01fa156102b457565b604051907f23f1c8e7866de1e31ec30159ab7c4ff8868ad65a7d0d13cdb9036efb6ee36da782527f11d6d3769364ec6beecc21f008094b6b0e7e0e4053bcdd61e422160b99891b996020830152604082019081526107cf196040836060816007855a01fa156102b45760409260066080939284938451905260a05160608401525a01fa156102b457565b604051907f2a2150f93a82d5dc7cf2adc0ed8c4790d4a67361567d3094bcbcf13469a0dc7b82527f04ff1b358f1d0279b136b9d33fd6e9c5fc677a515d460a50c6e3388f8a6ca1a26020830152604082019081526107cf196040836060816007855a01fa156102b45760409260066080939284938451905260a05160608401525a01fa156102b457565b604051907f2affa47802ab730029069990c3329008e5bcf3207f68c3f481a71fa3a7f31afd82527f0f5c977a4087adf423241a64fdd499f3e9a4d71bebd8fca6b9ca94d2932b4b546020830152604082019081526107cf196040836060816007855a01fa156102b45760409260066080939284938451905260a05160608401525a01fa156102b457565b604051907f0b6ebd4020612de4c37f0a77279c7828ed4f81bb88007598826541c301a8426282527f1e65f603c55986eceae26b46d85b224c8846893ad0fae1bfa6fe2a8b6a9ba0146020830152604082019081526107cf196040836060816007855a01fa156102b45760409260066080939284938451905260a05160608401525a01fa156102b457565b604051907f082d9275be3fab7c09163ed07a154533969e3cb719d454aa6a0de6ea3863597a82527f0a5e2a3ce825bcb812e3f266cd0099f67b4c99056376a3e999a0c521a6971ff46020830152604082019081526107cf196040836060816007855a01fa156102b45760409260066080939284938451905260a05160608401525a01fa156102b457565b604051907f1241a57bfad439f8402e1bff388b3e9e8050b5f549310886b006566453f966e482527f18809225f6ecc5254bae7a1265034879474abebfac10ae2f72af865222f0bf736020830152604082019081526107cf196040836060816007855a01fa156102b45760409260066080939284938451905260a05160608401525a01fa156102b457565b604051907f2d24bd48534ff07bc80670bab2975f963bc2d88ad8306160e5fab70bee63bdc782527f2306be1de64c91d9883a93195e20520013534339ee774fb727681f0d7d50d0e86020830152604082019081526107cf196040836060816007855a01fa156102b45760409260066080939284938451905260a05160608401525a01fa156102b457565b604051907f24dbcb990e93161e06c8104148fc678196411b726979126a6cb44fc3e16cccb682527f0d0e22dec03b18328508ea785bb897607b400c820810308310de808b0a2cbc736020830152604082019081526107cf196040836060816007855a01fa156102b45760409260066080939284938451905260a05160608401525a01fa156102b457565b604051907f2f14f700c59fbc385567eee669f8de5d5b9364b89cecdf4279abe9965aa0157482527f24348d6521f53c6bdb91399fd00ad62d71b66de73a3056514144753b9e4173a06020830152604082019081526107cf196040836060816007855a01fa156102b45760409260066080939284938451905260a05160608401525a01fa156102b457565b604051907f304cdea2c8ea33beb72a687bde1dd5eca89fa7a29abf34ab79cefd53d88747b982527f1cc4dbf4b1c15dc0cdd44d82ac9a6f50cc979bda7bdd514a17b71960b14bf7f56020830152604082019081526107cf196040836060816007855a01fa156102b45760409260066080939284938451905260a05160608401525a01fa156102b457565b604051907f01884e5383e5345d9b83802ed0ad12ea9f6741f4940e73617f2258995e221f3882527f16177f223a66fa27bdf40fef79c9adf2577693f8863969f88622d9a19af7447b6020830152604082019081526107cf196040836060816007855a01fa156102b45760409260066080939284938451905260a05160608401525a01fa156102b457565b604051907f17fe99add8f223507dc78c13ce1e566057bbe6c3d55826784d84cd0f28c52c6882527f1849d7d7f5671cc11048a15f4fb1fce0cb3cb810f36d9cdf73246fcec21eea9e6020830152604082019081526107cf196040836060816007855a01fa156102b45760409260066080939284938451905260a05160608401525a01fa156102b457565b604051907f0fe8f97e250ec832bd20a939e6af11d30bdb1829d65ba3db7abb9c897e127e4d82527f13a79ccfe8a105bf24a0a5b8b0a955e5be8012d957df678c1f8420fa900fc6fa6020830152604082019081526107cf196040836060816007855a01fa156102b45760409260066080939284938451905260a05160608401525a01fa156102b457565b604051907f1fb9c82038f8593cb2bbd1748b8d3e42cb989d9870d81aa4a01fda0289a5e73e82527f182c43e7b73f23c3e4e9f72d4ac4c3447eeb8ccc15c8c5c161401172f33a9a216020830152604082019081526107cf196040836060816007855a01fa156102b45760409260066080939284938451905260a05160608401525a01fa156102b457565b604051907f2e1c05748da76a8c2fe9ce95ec1238917e31416aa3dcd0b74d9a13ddc800789182527f13b7a85bedc4e41dce83d3b526736414d4c68e5c9a242f26c9fe1cbc19a3dd426020830152604082019081526107cf196040836060816007855a01fa156102b45760409260066080939284938451905260a05160608401525a01fa156102b457565b604051907f215e17252a3c8766024c1eddbbcd4cbb1b2696aa306a97fdf2580270001f468482527eb563529692181c7d4cdd0ba368b9494557e9383c4bf0f96ab6b8e1b43f50ee6020830152604082019081526107cf196040836060816007855a01fa156102b45760409260066080939284938451905260a05160608401525a01fa156102b457565b604051907f1efdc135e4af873c8b7e3af672c8f6b360f05aa03652b701b28b11a69cb2a35782527f235490cff57b7211d1eae7432c70a364d2f471774a2170495da869bc509443e36020830152604082019081526107cf196040836060816007855a01fa156102b45760409260066080939284938451905260a05160608401525a01fa156102b457565b604051907f0fde4492ea4283a6d014698a56f429bbab48cdda22722e8de15f4fa0edd5b56982527f21975eb8f58a3c8e71ac90e194c60ee6fb8e65230132274ac1837359891b57106020830152604082019081526107cf196040836060816007855a01fa156102b45760409260066080939284938451905260a05160608401525a01fa156102b457565b6020907f29b061c504eac338711d40fa46ba2a635728af447aa84fba24d04872767f42866080527f1ccee663e6fbb87adaae05bd311b351430436a7c351254537ee629e03f35eee660a0526118a3610104356102be565b6118af61012435610348565b6118bb610144356103d2565b6118c76101643561045c565b6118d3610184356104e6565b6118df6101a435610570565b6118eb6101c4356105fa565b6118f76101e435610684565b6119036102043561070e565b61190f61022435610798565b61191b61024435610822565b611927610264356108ac565b61193361028435610936565b61193f6102a4356109c0565b61194b6102c435610a4a565b6119576102e435610ad4565b61196361030435610b5e565b61196f61032435610be8565b61197b61034435610c72565b61198761036435610cfc565b61199361038435610d86565b61199f6103a435610e10565b6119ab6103c435610e99565b6119b76103e435610f23565b6119c361040435610fad565b6119cf61042435611037565b6119db610444356110c1565b6119e76104643561114b565b6119f3610484356111d5565b6119ff6104a43561125f565b611a0b6104c4356112e9565b611a176104e435611373565b611a23610504356113fd565b611a2f61052435611487565b611a3b61054435611511565b611a476105643561159b565b611a5361058435611625565b611a5f6105a4356116af565b611a6b6105c435611738565b611a776105e4356117c2565b61010092818492358352837f30644e72e131a029b85045b68181585d97816a916871ca8d3c208c16d87cfd479101358103066101205260443561014052606435610160526084356101805260a4356101a0527f2d4d9aa7e302d9df41749d5507949d05dbea33fbb16c643b22f599a2be6df2e26101c0527f14bedd503c37ceb061d8ec60209fe345ce89830a19230301f076caff004d19266101e0527f0967032fcbf776d1afc985f88877f182d38480a653f2decaa9794cbc3bf3060c610200527f0e187847ad4c798374d0d6732bf501847dd68bc0e071241e0213bc7fc13db7ab610220527f304cfbd1e08a704a99f5e847d93f8c3caafddec46b7a0d379da69a4d112346a7610240527f1739c1b1a457a8c7313123d24d2f9192f896b7c63eea05a9d57f06547ad0cec8610260526080516102805260a0516102a0527f198e9393920d483a7260bfb731fb5d25f1aa493335a9e71297e485b7aef312c26102c0527f1800deef121f1e76426a00665e5c4479674322d4f75edadd46debd5cd992f6ed6102e05282610300917f090689d0585ff075ec9e99ad690c3395bc4b313370b38ef355acdadcd122975b83527f12c85ea5db8c6deb4aab71808dcb408fe3d1e7690c43d37b4ce6cc0166fa7daa610320528035610340520135610360527f01b61e823e9a295d803e3b1cdd036600d5976229bdddd4d10d48880ca9781f31610380527f15c45a4c5d4ad48f13662b2d2902334f6a9e1300066e50b7c38351e0c4feea2b6103a0527f0feb1087ecb7f82fb6f4a2e51907a655510b081caf704a4fb58373399b2034f56103c0527f0e2e564419990e425c4c3c1940e3052dd08cb2869eb3d64699285ec629e8ba9a6103e0528160086107cf195a01fa9051169056fea26469706673582212204a2f2c655be2c736c186042508a767f09555cdf224a498f625ff04930ae14c7464736f6c634300080f0033",
  "linkReferences": {},
  "deployedLinkReferences": {}
}