{
  "_format": "hh-sol-artifact-1",
  "contractName": "Groth16Verifier",
  "sourceName": "contracts/Game_4_300Verifier.sol",
  "abi": [
    {
      "inputs": [
        {
          "internalType": "uint256[2]",
          "name": "_pA",
          "type": "uint256[2]"
        },
        {
          "internalType": "uint256[2][2]",
          "name": "_pB",
          "type": "uint256[2][2]"
        },
        {
          "internalType": "uint256[2]",
          "name": "_pC",
          "type": "uint256[2]"
        },
        {
          "internalType": "uint256[41]",
          "name": "_pubSignals",
          "type": "uint256[41]"
        }
      ],
      "name": "verifyProof",
      "outputs": [
        {
          "internalType": "bool",
          "name": "",
          "type": "bool"
        }
      ],
      "stateMutability": "view",
      "type": "function"
    }
  ],
  "bytecode": "0x6080806040523461001657611dd5908161001c8239f35b600080fdfe6080604052600436101561001257600080fd5b6000803560e01c63a44f88971461002857600080fd5b34610274576106203660031901126102745761004336610277565b3660c4116102705761005436610289565b9061062436811161026c5791610268916102636020959461040060405261007d61010435610297565b61008961012435610297565b61009561014435610297565b6100a161016435610297565b6100ad61018435610297565b6100b96101a435610297565b6100c56101c435610297565b6100d16101e435610297565b6100dd61020435610297565b6100e961022435610297565b6100f561024435610297565b61010161026435610297565b61010d61028435610297565b6101196102a435610297565b6101256102c435610297565b6101316102e435610297565b61013d61030435610297565b61014961032435610297565b61015561034435610297565b61016161036435610297565b61016d61038435610297565b6101796103a435610297565b6101856103c435610297565b6101916103e435610297565b61019d61040435610297565b6101a961042435610297565b6101b561044435610297565b6101c161046435610297565b6101cd61048435610297565b6101d96104a435610297565b6101e56104c435610297565b6101f16104e435610297565b6101fd61050435610297565b61020961052435610297565b61021561054435610297565b61022161056435610297565b61022d61058435610297565b6102396105a435610297565b6102456105c435610297565b6102516105e435610297565b61025d61060435610297565b35610297565b6118e3565b8152f35b8380fd5b5080fd5b80fd5b9060049160441161028457565b600080fd5b9060c4916101041161028457565b7f30644e72e131a029b85045b68181585d97816a916871ca8d3c208c16d87cfd4711156102c057565b6000805260206000f35b604051907f27b73804befa942867a47440378031ce9a7c8413623862b7d3e87929688f573f82527f01593762f02663ddd06a82abc3da28d42fe730c8e937050fcd57854e126dc0966020830152604082019081526107cf196040836060816007855a01fa156102c05760409260066080939284938451905260a05160608401525a01fa156102c057565b604051907f1c25ab7344c4e2cdcdb1e05aee1599205ce7bb7a31cd93e9c183b6ee579a794882527f23bff98658eb53eff055f4d767eb45eeeaf21cf9312dac0f39f100b783c23aac6020830152604082019081526107cf196040836060816007855a01fa156102c05760409260066080939284938451905260a05160608401525a01fa156102c057565b604051907f023b4c7dff98e292c428f41f6fa18454495679d79dd5a69a851fdaf5a9e7fc5a82527f0de1a9259e08896c827fd868a1940c5537c07854dd03644228876fec042866036020830152604082019081526107cf196040836060816007855a01fa156102c05760409260066080939284938451905260a05160608401525a01fa156102c057565b604051907f0d44589be4190ea40d5a13e37232efe1d2f45ac7b31bb0df2221805d5729662682527f28adb86c481b5523e7ebf7236812a9a6a2d35220e278acbc08d8481f15fd5bfc6020830152604082019081526107cf196040836060816007855a01fa156102c05760409260066080939284938451905260a05160608401525a01fa156102c057565b604051907f1bacb66cb810cf11dd3aa7acd2980aba0784351f978e80214b23352b132019b082527f0a32a87042129a392811f00f33d3313267ea7122a59569dc016052ea12b0b2e86020830152604082019081526107cf196040836060816007855a01fa156102c05760409260066080939284938451905260a05160608401525a01fa156102c057565b604051907f2db69c02ce32008dede8a0b0f3e4b3bb3cedb6a57e5b09235701525523b2ce1282527f276650bd2f63cb1c0c79c8bd874f1662f00018356aa6ee8f0d4637fea29ffaa86020830152604082019081526107cf196040836060816007855a01fa156102c05760409260066080939284938451905260a05160608401525a01fa156102c057565b604051907f17b474235da6745749da6b3c79d0279af48e0ef26e9de710177467c56119dcd682527f23ecd09f89618ee39636e83459041ca1812d46a9e1a2bce07a3a59547cf22e6d6020830152604082019081526107cf196040836060816007855a01fa156102c05760409260066080939284938451905260a05160608401525a01fa156102c057565b604051907f1b7eac3803b918b6a89b2ab9fd82f16ae67e07f9febfe9cda2f2a42fb9cc6fbb82527f15f172de855fd36eccb81397632dacaf0a523609f833ca6ebcf23ef7f630f6626020830152604082019081526107cf196040836060816007855a01fa156102c05760409260066080939284938451905260a05160608401525a01fa156102c057565b604051907f1951846020a5c4026979f4d10c454bcded41a4fdc5aa6f8172e210fb731ed68a82527f1e62c6c825bde35aabbef435ad910dfceac1dfe90ed349ed153922225e0a01556020830152604082019081526107cf196040836060816007855a01fa156102c05760409260066080939284938451905260a05160608401525a01fa156102c057565b604051907f0a5ff2cf32127b49b318f3b6cbb1e746eb3cafdad1726f27373eac6ced1f734582527f02093adc6e87747f530459e96c5aef548a9c46cc6e1583397e43d677fc994f9b6020830152604082019081526107cf196040836060816007855a01fa156102c05760409260066080939284938451905260a05160608401525a01fa156102c057565b604051907f07f744cc465f3cc652b45452e40b2e9178057778e8457499c362153f4ffd3d8382527f1c97e681dcc8532384ab6c00f629a7b8c475aa72d1ac7ea054bdca7ae15375a96020830152604082019081526107cf196040836060816007855a01fa156102c05760409260066080939284938451905260a05160608401525a01fa156102c057565b604051907f0155e0db116bfd4aacfdb39a4ff58daf1d197c649afccea74b89843c4774480c82527f10a85447652068de10b8825bc75eac3d89ee2fcc5417173e8d299d571d0a749c6020830152604082019081526107cf196040836060816007855a01fa156102c05760409260066080939284938451905260a05160608401525a01fa156102c057565b604051907f18516708b1d98ef78de8e151f61568516782c642e159e30f06e6442a4873cc3782527f243012d92ee066aaace4aa685adb848a37c3ecf729a2d9aaa58af5e8c4eb20946020830152604082019081526107cf196040836060816007855a01fa156102c05760409260066080939284938451905260a05160608401525a01fa156102c057565b604051907f25a274101f87899ff5243c73f3b9863ff2263e246aea5500462d9fe2cc75f1f282527f2736eb1f3721deb641dc78ea852890a449de45f78e9d2dfe2ecc641530b6c06e6020830152604082019081526107cf196040836060816007855a01fa156102c05760409260066080939284938451905260a05160608401525a01fa156102c057565b604051907f11416de0305fe456cc73057a4801a0746b14c6836d5b5e82f9b1d708de38727682527f1c80f61e8757abcbd94b6ddc7e4cb7dbb0a63f7dd5329b6d07a7848ea7fe30836020830152604082019081526107cf196040836060816007855a01fa156102c05760409260066080939284938451905260a05160608401525a01fa156102c057565b604051907f24b5d701632c40f3d598eb07d575afd06c7e5e3cbcab5615d813c7b206853bb882527f1d31d7a09837c2350f09564ea8becf35326a479d6f52f3764553dc23fcf388c86020830152604082019081526107cf196040836060816007855a01fa156102c05760409260066080939284938451905260a05160608401525a01fa156102c057565b604051907f181567775055451d7c03ac6cd7ecfa2a92ce1668de8d00aad6b065e93ae6a8a782527f1d10e996fcbbc5ae24faf245f0bb35308fe4b516ba482534b4e7323e38b90f636020830152604082019081526107cf196040836060816007855a01fa156102c05760409260066080939284938451905260a05160608401525a01fa156102c057565b604051907f111d7ee356c9c2798692cce8956492965c67f3b4ec3686991bf5fefe9c9cce8a82527f0bfd33cb0e4e61d11ca661bef368518636de4bbb95e63b21e823cc89964041f66020830152604082019081526107cf196040836060816007855a01fa156102c05760409260066080939284938451905260a05160608401525a01fa156102c057565b604051907f25795e60eba19c0db898e6127e5577b469a705ea59073f25423cb93e786a310782527f20b8e6318c48e97c019b607b9d8c401c3a0fd243762bb7c168a2958e56976c416020830152604082019081526107cf196040836060816007855a01fa156102c05760409260066080939284938451905260a05160608401525a01fa156102c057565b604051907f1644903f68f25ddb95535434f4ad7faba1b586c7018f576379271b74a35d63ff82527f17dc0e6073d59f9cf24eea232eb20192e5b069cdcb1f358bb7b7549a0961d4776020830152604082019081526107cf196040836060816007855a01fa156102c05760409260066080939284938451905260a05160608401525a01fa156102c057565b604051907f0dfbf633900baf41f8f25aef088d2a0e748a319601bba5413de5059842d0fe4182527f2a56c5178aa80de4b07ed314c44e379e611c2452a35412259e5571f3c9f063ec6020830152604082019081526107cf196040836060816007855a01fa156102c05760409260066080939284938451905260a05160608401525a01fa156102c057565b604051907f07c9c2108695c43aca6dfb432128260785c1f3ec695e073de8ab9cf1399de25382527f302e3c9c4669af85ae8292e48d999ab4cafe7e47b2ee7dca27da547f4e49d5fc6020830152604082019081526107cf196040836060816007855a01fa156102c05760409260066080939284938451905260a05160608401525a01fa156102c057565b604051907f27a1720768a452033f4cac43e3dc55132d02f10b5945ea0f695109bdedac270a82527f09e67861cfdc91ecb213d588465e44637c1f868427b7ecc8f812899078bd353d6020830152604082019081526107cf196040836060816007855a01fa156102c05760409260066080939284938451905260a05160608401525a01fa156102c057565b604051907f2e3992e28ab54a80f966a7b37799c7f1a97ccbea1c94a91880a9606406e45ec282527f02b14d04833f31c9413a6667604c4d2dc0f2430b6b6ed20d58d88506cf55095b6020830152604082019081526107cf196040836060816007855a01fa156102c05760409260066080939284938451905260a05160608401525a01fa156102c057565b604051907f11f49be3867dff5a424e2601eb0d4541f39ae5e861ef403f980ef7e1d1e33d9582527f13ade598747ea4733b8b0c76e9bbe0468b862433efef10a5fcd249d246678a336020830152604082019081526107cf196040836060816007855a01fa156102c05760409260066080939284938451905260a05160608401525a01fa156102c057565b604051907f20fd9a7528372c6843b1a5fe7cc1ff60bf37fa2d546a7b34f99edd3647a50e0f82527f05c7bf0dd35e5f860898302cd3c786a144dd0dc68c5c9cfd36a6989f4ddfa88f6020830152604082019081526107cf196040836060816007855a01fa156102c05760409260066080939284938451905260a05160608401525a01fa156102c057565b604051907f193b5ac023ddbadd6a71279d09c410c032ef03e397d1f6c8e4d8e4528589a4e882527f27d3d1bc6b68dfa02271f563db8926d35c3cc1bf6111536b34ab8c964b5f70cf6020830152604082019081526107cf196040836060816007855a01fa156102c05760409260066080939284938451905260a05160608401525a01fa156102c057565b604051907f0f5149bc56fe8465779c9139cc02a078a4a18d70100ab28bec866338267103da82527f17e299881693ce3ba1c21a7e52fa3fe85a1cb32e605fba51738875fc664ac7466020830152604082019081526107cf196040836060816007855a01fa156102c05760409260066080939284938451905260a05160608401525a01fa156102c057565b604051907f07e6cb8db98b8e26ddc3789fed70af547096afc36cfe18bb16c73a58b36b2b9382527f23af27fd2a93a74723dc194707d5f2f869e583e1baf837d72e48097223ed33126020830152604082019081526107cf196040836060816007855a01fa156102c05760409260066080939284938451905260a05160608401525a01fa156102c057565b604051907f20f1dd247888a7305c9250bd66bcb54e36834fd67f17905ca59b38c935d6473982527f045bfd28daab10fd9b2d66ff28f8b4347bcc8200ff13edfb9a9b762b3e857cc16020830152604082019081526107cf196040836060816007855a01fa156102c05760409260066080939284938451905260a05160608401525a01fa156102c057565b604051907f2249eba8a0576a1868d41850d42403003e234cdcc8e065abf01b489ce4c64f3c82527f2bd662edeae94a80112798d0cb48a98e973df67d260b175a75f4e9ea5b5e05706020830152604082019081526107cf196040836060816007855a01fa156102c05760409260066080939284938451905260a05160608401525a01fa156102c057565b604051907f0b355c8714cbdf9ca35a69271c6ef281c9bd4a7ac5f4013f024757961755feae82527f1b188a402aabe284ae8d342f588dd68b27657ccc571954d63fd53670cabafbce6020830152604082019081526107cf196040836060816007855a01fa156102c05760409260066080939284938451905260a05160608401525a01fa156102c057565b604051907f07b07e7565b6dfccc0738520d7aa575034a832db5b7e283ad28a1ff77376304982527f1a68a052a30f5d7bef5a3dca6b0f5dd0c7f3dc00f75a09287afdd1f1f1f21e686020830152604082019081526107cf196040836060816007855a01fa156102c05760409260066080939284938451905260a05160608401525a01fa156102c057565b604051907f05dedb89ace6050bb0f51b20d016ac27b2d284412c11aadae8eb29d2dbe3c89e82527f1c4a46e7e57f8361e5b169fdd67e8a6c2ac7dfc3a85509680ee4d7c54507a99b6020830152604082019081526107cf196040836060816007855a01fa156102c05760409260066080939284938451905260a05160608401525a01fa156102c057565b604051907f042a21e81cb309d798337a6e4949e85d050f3d0d2dc3824de350169419841d8d82527f02c4f926decc1077f04dcc7ca51be4e807e4d73f24a80b7697bcc9d98566021b6020830152604082019081526107cf196040836060816007855a01fa156102c05760409260066080939284938451905260a05160608401525a01fa156102c057565b604051907f08d415b5967df41116b1b60312280fde384e3316145f22dc001bf6a644b1103682527f0c674ca9f671a9a121b8de9fd47e443d72a9166f7b8dd84996df6f866206c77c6020830152604082019081526107cf196040836060816007855a01fa156102c05760409260066080939284938451905260a05160608401525a01fa156102c057565b604051907f0497814f49d8ce1311ce6a0621f26328804bf23c96d7ff9394d7fc9d96a4930882527f2b9c56117a3bc5a7d4a1290268fc32f3362d26afb4a2a53106347614edaf54bf6020830152604082019081526107cf196040836060816007855a01fa156102c05760409260066080939284938451905260a05160608401525a01fa156102c057565b604051907f2c55fec8f6ff829a6d22f549d5ebc660f06bca82e1ab8f7ef7e15d4b649af2ed82527ead3c23dc1fa60980a426eb74b6da8581ec1b253ec398fc15ba18f6ae4ebfc26020830152604082019081526107cf196040836060816007855a01fa156102c05760409260066080939284938451905260a05160608401525a01fa156102c057565b604051907f118311cbfbf23a86335e2bda5b4bb2d87516a8275c5ae30d7e240d74d489c90682527f1e4dcacdd15149cd230f481f4adc8890d25a5b60b7d3c850b187bafc2dab861c6020830152604082019081526107cf196040836060816007855a01fa156102c05760409260066080939284938451905260a05160608401525a01fa156102c057565b604051907f27daabbbc3251354f7012b4f1d2c0a81d6c5e08b0d183150017796db340bf86b82527f0e8a330e041eaeb526f42c7390ca374aba51e66a28195af9df8120e45c17a1ed6020830152604082019081526107cf196040836060816007855a01fa156102c05760409260066080939284938451905260a05160608401525a01fa156102c057565b604051907f1e0f48f8d9ee99104f599201d4ab35a721dbbc55803d89317701a3f41eba9f3682527f01e0d9b251dbd611690023f3092323bab9995928518b062e537bf5086f5af1536020830152604082019081526107cf196040836060816007855a01fa156102c05760409260066080939284938451905260a05160608401525a01fa156102c057565b6020907f14939cdae22d09ba13e02d50797de943048c4b558d5e9a112222739000e8654e6080527f286ddfafb285b2c0f55fd68b011df9e80304d59d9f1d17324416828b9f28826660a05261193a610104356102ca565b61194661012435610354565b611952610144356103de565b61195e61016435610468565b61196a610184356104f2565b6119766101a43561057c565b6119826101c435610606565b61198e6101e435610690565b61199a6102043561071a565b6119a6610224356107a4565b6119b26102443561082e565b6119be610264356108b8565b6119ca61028435610942565b6119d66102a4356109cc565b6119e26102c435610a56565b6119ee6102e435610ae0565b6119fa61030435610b6a565b611a0661032435610bf4565b611a1261034435610c7e565b611a1e61036435610d08565b611a2a61038435610d92565b611a366103a435610e1c565b611a426103c435610ea6565b611a4e6103e435610f30565b611a5a61040435610fba565b611a6661042435611044565b611a72610444356110ce565b611a7e61046435611158565b611a8a610484356111e2565b611a966104a43561126c565b611aa26104c4356112f6565b611aae6104e435611380565b611aba6105043561140a565b611ac661052435611494565b611ad26105443561151e565b611ade610564356115a8565b611aea61058435611632565b611af66105a4356116bc565b611b026105c435611745565b611b0e6105e4356117cf565b611b1a61060435611859565b61010092818492358352837f30644e72e131a029b85045b68181585d97816a916871ca8d3c208c16d87cfd479101358103066101205260443561014052606435610160526084356101805260a4356101a0527f2d4d9aa7e302d9df41749d5507949d05dbea33fbb16c643b22f599a2be6df2e26101c0527f14bedd503c37ceb061d8ec60209fe345ce89830a19230301f076caff004d19266101e0527f0967032fcbf776d1afc985f88877f182d38480a653f2decaa9794cbc3bf3060c610200527f0e187847ad4c798374d0d6732bf501847dd68bc0e071241e0213bc7fc13db7ab610220527f304cfbd1e08a704a99f5e847d93f8c3caafddec46b7a0d379da69a4d112346a7610240527f1739c1b1a457a8c7313123d24d2f9192f896b7c63eea05a9d57f06547ad0cec8610260526080516102805260a0516102a0527f198e9393920d483a7260bfb731fb5d25f1aa493335a9e71297e485b7aef312c26102c0527f1800deef121f1e76426a00665e5c4479674322d4f75edadd46debd5cd992f6ed6102e05282610300917f090689d0585ff075ec9e99ad690c3395bc4b313370b38ef355acdadcd122975b83527f12c85ea5db8c6deb4aab71808dcb408fe3d1e7690c43d37b4ce6cc0166fa7daa610320528035610340520135610360527f2ba54690d9c73346cdcaf60b0286538727380057ffe089ea7500d89f598a0117610380527f0d2626164eefda7a9a490d4dff81b3a6032ef0d484138a6bc88bb873378267576103a0527f1a213e72e5d6a31b5ab4bae9dc8028e63559e46a88a55803961551505794d6b06103c0527f28df3c0a06821248f658417cde42884a7d02b4319f649b7890598efc1af298756103e0528160086107cf195a01fa9051169056fea26469706673582212208878dfffca66b6c7ecef6acd2d996104f7b3c2f8390218273c580b06ad0a391264736f6c634300080f0033",
  "linkReferences": {},
  "deployedLinkReferences": {}
}