{
  "_format": "hh-sol-artifact-1",
  "contractName": "Problems",
  "sourceName": "contracts/Problems.sol",
  "abi": [
    {
      "inputs": [
        {
          "internalType": "address",
          "name": "problemMetadata_",
          "type": "address"
        },
        {
          "internalType": "address[]",
          "name": "verifiers_",
          "type": "address[]"
        },
        {
          "internalType": "uint256[]",
          "name": "verifiersTicks",
          "type": "uint256[]"
        },
        {
          "internalType": "uint256[]",
          "name": "verifiersBodies",
          "type": "uint256[]"
        }
      ],
      "stateMutability": "nonpayable",
      "type": "constructor"
    },
    {
      "anonymous": false,
      "inputs": [
        {
          "indexed": true,
          "internalType": "address",
          "name": "owner",
          "type": "address"
        },
        {
          "indexed": true,
          "internalType": "address",
          "name": "approved",
          "type": "address"
        },
        {
          "indexed": true,
          "internalType": "uint256",
          "name": "tokenId",
          "type": "uint256"
        }
      ],
      "name": "Approval",
      "type": "event"
    },
    {
      "anonymous": false,
      "inputs": [
        {
          "indexed": true,
          "internalType": "address",
          "name": "owner",
          "type": "address"
        },
        {
          "indexed": true,
          "internalType": "address",
          "name": "operator",
          "type": "address"
        },
        {
          "indexed": false,
          "internalType": "bool",
          "name": "approved",
          "type": "bool"
        }
      ],
      "name": "ApprovalForAll",
      "type": "event"
    },
    {
      "anonymous": false,
      "inputs": [
        {
          "indexed": true,
          "internalType": "address",
          "name": "to",
          "type": "address"
        },
        {
          "indexed": true,
          "internalType": "bool",
          "name": "success",
          "type": "bool"
        },
        {
          "indexed": false,
          "internalType": "bytes",
          "name": "returnData",
          "type": "bytes"
        },
        {
          "indexed": false,
          "internalType": "uint256",
          "name": "amount",
          "type": "uint256"
        }
      ],
      "name": "EthMoved",
      "type": "event"
    },
    {
      "anonymous": false,
      "inputs": [
        {
          "indexed": true,
          "internalType": "address",
          "name": "previousOwner",
          "type": "address"
        },
        {
          "indexed": true,
          "internalType": "address",
          "name": "newOwner",
          "type": "address"
        }
      ],
      "name": "OwnershipTransferred",
      "type": "event"
    },
    {
      "anonymous": false,
      "inputs": [
        {
          "indexed": true,
          "internalType": "address",
          "name": "from",
          "type": "address"
        },
        {
          "indexed": true,
          "internalType": "address",
          "name": "to",
          "type": "address"
        },
        {
          "indexed": true,
          "internalType": "uint256",
          "name": "tokenId",
          "type": "uint256"
        }
      ],
      "name": "Transfer",
      "type": "event"
    },
    {
      "anonymous": false,
      "inputs": [
        {
          "indexed": false,
          "internalType": "uint256",
          "name": "problemId",
          "type": "uint256"
        },
        {
          "indexed": false,
          "internalType": "uint256",
          "name": "bodyId",
          "type": "uint256"
        },
        {
          "indexed": false,
          "internalType": "uint256",
          "name": "mintedBodyIndex",
          "type": "uint256"
        },
        {
          "indexed": false,
          "internalType": "uint256",
          "name": "tick",
          "type": "uint256"
        },
        {
          "indexed": false,
          "internalType": "uint256",
          "name": "px",
          "type": "uint256"
        },
        {
          "indexed": false,
          "internalType": "uint256",
          "name": "py",
          "type": "uint256"
        },
        {
          "indexed": false,
          "internalType": "uint256",
          "name": "radius",
          "type": "uint256"
        },
        {
          "indexed": false,
          "internalType": "uint256",
          "name": "starLvl",
          "type": "uint256"
        },
        {
          "indexed": false,
          "internalType": "uint256",
          "name": "maxStarLvl",
          "type": "uint256"
        },
        {
          "indexed": false,
          "internalType": "bytes32",
          "name": "seed",
          "type": "bytes32"
        }
      ],
      "name": "bodyAdded",
      "type": "event"
    },
    {
      "anonymous": false,
      "inputs": [
        {
          "indexed": false,
          "internalType": "uint256",
          "name": "problemId",
          "type": "uint256"
        },
        {
          "indexed": false,
          "internalType": "uint256",
          "name": "tick",
          "type": "uint256"
        },
        {
          "indexed": false,
          "internalType": "uint256",
          "name": "bodyId",
          "type": "uint256"
        },
        {
          "indexed": false,
          "internalType": "uint256",
          "name": "starLvl",
          "type": "uint256"
        },
        {
          "indexed": false,
          "internalType": "uint256",
          "name": "maxStarLvl",
          "type": "uint256"
        },
        {
          "indexed": false,
          "internalType": "bytes32",
          "name": "seed",
          "type": "bytes32"
        }
      ],
      "name": "bodyRemoved",
      "type": "event"
    },
    {
      "inputs": [
        {
          "internalType": "uint256",
          "name": "problemId",
          "type": "uint256"
        },
        {
          "internalType": "uint256",
          "name": "bodyId",
          "type": "uint256"
        }
      ],
      "name": "addExistingBody",
      "outputs": [],
      "stateMutability": "nonpayable",
      "type": "function"
    },
    {
      "inputs": [
        {
          "internalType": "address",
          "name": "recipient",
          "type": "address"
        }
      ],
      "name": "adminMint",
      "outputs": [],
      "stateMutability": "nonpayable",
      "type": "function"
    },
    {
      "inputs": [
        {
          "internalType": "address",
          "name": "to",
          "type": "address"
        },
        {
          "internalType": "uint256",
          "name": "tokenId",
          "type": "uint256"
        }
      ],
      "name": "approve",
      "outputs": [],
      "stateMutability": "nonpayable",
      "type": "function"
    },
    {
      "inputs": [
        {
          "internalType": "address",
          "name": "owner",
          "type": "address"
        }
      ],
      "name": "balanceOf",
      "outputs": [
        {
          "internalType": "uint256",
          "name": "",
          "type": "uint256"
        }
      ],
      "stateMutability": "view",
      "type": "function"
    },
    {
      "inputs": [],
      "name": "bodies",
      "outputs": [
        {
          "internalType": "address",
          "name": "",
          "type": "address"
        }
      ],
      "stateMutability": "view",
      "type": "function"
    },
    {
      "inputs": [
        {
          "internalType": "uint256",
          "name": "problemId",
          "type": "uint256"
        }
      ],
      "name": "convertBodiesToStars",
      "outputs": [],
      "stateMutability": "nonpayable",
      "type": "function"
    },
    {
      "inputs": [
        {
          "internalType": "bytes32",
          "name": "seed",
          "type": "bytes32"
        }
      ],
      "name": "genRadius",
      "outputs": [
        {
          "internalType": "uint256",
          "name": "",
          "type": "uint256"
        }
      ],
      "stateMutability": "pure",
      "type": "function"
    },
    {
      "inputs": [
        {
          "internalType": "uint256",
          "name": "tokenId",
          "type": "uint256"
        }
      ],
      "name": "getApproved",
      "outputs": [
        {
          "internalType": "address",
          "name": "",
          "type": "address"
        }
      ],
      "stateMutability": "view",
      "type": "function"
    },
    {
      "inputs": [
        {
          "internalType": "uint256",
          "name": "problemId",
          "type": "uint256"
        },
        {
          "internalType": "uint256",
          "name": "bodyId",
          "type": "uint256"
        }
      ],
      "name": "getProblemBodyData",
      "outputs": [
        {
          "components": [
            {
              "internalType": "uint256",
              "name": "bodyId",
              "type": "uint256"
            },
            {
              "internalType": "uint256",
              "name": "mintedBodyIndex",
              "type": "uint256"
            },
            {
              "internalType": "uint256",
              "name": "bodyIndex",
              "type": "uint256"
            },
            {
              "internalType": "uint256",
              "name": "px",
              "type": "uint256"
            },
            {
              "internalType": "uint256",
              "name": "py",
              "type": "uint256"
            },
            {
              "internalType": "uint256",
              "name": "vx",
              "type": "uint256"
            },
            {
              "internalType": "uint256",
              "name": "vy",
              "type": "uint256"
            },
            {
              "internalType": "uint256",
              "name": "radius",
              "type": "uint256"
            },
            {
              "internalType": "uint256",
              "name": "starLvl",
              "type": "uint256"
            },
            {
              "internalType": "uint256",
              "name": "maxStarLvl",
              "type": "uint256"
            },
            {
              "internalType": "bytes32",
              "name": "seed",
              "type": "bytes32"
            }
          ],
          "internalType": "struct Problems.Body",
          "name": "",
          "type": "tuple"
        }
      ],
      "stateMutability": "view",
      "type": "function"
    },
    {
      "inputs": [
        {
          "internalType": "uint256",
          "name": "problemId",
          "type": "uint256"
        }
      ],
      "name": "getProblemBodyIds",
      "outputs": [
        {
          "internalType": "uint256[10]",
          "name": "",
          "type": "uint256[10]"
        }
      ],
      "stateMutability": "view",
      "type": "function"
    },
    {
      "inputs": [
        {
          "internalType": "uint256",
          "name": "problemId",
          "type": "uint256"
        }
      ],
      "name": "getProblemMintedBodiesIndex",
      "outputs": [
        {
          "internalType": "uint256",
          "name": "",
          "type": "uint256"
        }
      ],
      "stateMutability": "view",
      "type": "function"
    },
    {
      "inputs": [
        {
          "internalType": "uint256",
          "name": "problemId",
          "type": "uint256"
        }
      ],
      "name": "getProblemStarData",
      "outputs": [
        {
          "components": [
            {
              "internalType": "uint256",
              "name": "bodyId",
              "type": "uint256"
            },
            {
              "internalType": "uint256",
              "name": "mintedBodyIndex",
              "type": "uint256"
            },
            {
              "internalType": "uint256",
              "name": "bodyIndex",
              "type": "uint256"
            },
            {
              "internalType": "uint256",
              "name": "px",
              "type": "uint256"
            },
            {
              "internalType": "uint256",
              "name": "py",
              "type": "uint256"
            },
            {
              "internalType": "uint256",
              "name": "vx",
              "type": "uint256"
            },
            {
              "internalType": "uint256",
              "name": "vy",
              "type": "uint256"
            },
            {
              "internalType": "uint256",
              "name": "radius",
              "type": "uint256"
            },
            {
              "internalType": "uint256",
              "name": "starLvl",
              "type": "uint256"
            },
            {
              "internalType": "uint256",
              "name": "maxStarLvl",
              "type": "uint256"
            },
            {
              "internalType": "bytes32",
              "name": "seed",
              "type": "bytes32"
            }
          ],
          "internalType": "struct Problems.Body[]",
          "name": "",
          "type": "tuple[]"
        }
      ],
      "stateMutability": "view",
      "type": "function"
    },
    {
      "inputs": [
        {
          "internalType": "bytes32",
          "name": "seed",
          "type": "bytes32"
        }
      ],
      "name": "getRandomValues",
      "outputs": [
        {
          "components": [
            {
              "internalType": "uint256",
              "name": "bodyId",
              "type": "uint256"
            },
            {
              "internalType": "uint256",
              "name": "mintedBodyIndex",
              "type": "uint256"
            },
            {
              "internalType": "uint256",
              "name": "bodyIndex",
              "type": "uint256"
            },
            {
              "internalType": "uint256",
              "name": "px",
              "type": "uint256"
            },
            {
              "internalType": "uint256",
              "name": "py",
              "type": "uint256"
            },
            {
              "internalType": "uint256",
              "name": "vx",
              "type": "uint256"
            },
            {
              "internalType": "uint256",
              "name": "vy",
              "type": "uint256"
            },
            {
              "internalType": "uint256",
              "name": "radius",
              "type": "uint256"
            },
            {
              "internalType": "uint256",
              "name": "starLvl",
              "type": "uint256"
            },
            {
              "internalType": "uint256",
              "name": "maxStarLvl",
              "type": "uint256"
            },
            {
              "internalType": "bytes32",
              "name": "seed",
              "type": "bytes32"
            }
          ],
          "internalType": "struct Problems.Body",
          "name": "",
          "type": "tuple"
        }
      ],
      "stateMutability": "view",
      "type": "function"
    },
    {
      "inputs": [
        {
          "internalType": "address",
          "name": "owner",
          "type": "address"
        },
        {
          "internalType": "address",
          "name": "operator",
          "type": "address"
        }
      ],
      "name": "isApprovedForAll",
      "outputs": [
        {
          "internalType": "bool",
          "name": "",
          "type": "bool"
        }
      ],
      "stateMutability": "view",
      "type": "function"
    },
    {
      "inputs": [
        {
          "internalType": "uint256",
          "name": "problemId",
          "type": "uint256"
        }
      ],
      "name": "levelUp",
      "outputs": [],
      "stateMutability": "nonpayable",
      "type": "function"
    },
    {
      "inputs": [],
      "name": "maxVector",
      "outputs": [
        {
          "internalType": "uint256",
          "name": "",
          "type": "uint256"
        }
      ],
      "stateMutability": "view",
      "type": "function"
    },
    {
      "inputs": [],
      "name": "mint",
      "outputs": [],
      "stateMutability": "payable",
      "type": "function"
    },
    {
      "inputs": [
        {
          "internalType": "address",
          "name": "recipient",
          "type": "address"
        },
        {
          "internalType": "uint256",
          "name": "quantity",
          "type": "uint256"
        }
      ],
      "name": "mint",
      "outputs": [],
      "stateMutability": "payable",
      "type": "function"
    },
    {
      "inputs": [
        {
          "internalType": "address",
          "name": "recipient",
          "type": "address"
        }
      ],
      "name": "mint",
      "outputs": [],
      "stateMutability": "payable",
      "type": "function"
    },
    {
      "inputs": [
        {
          "internalType": "uint256",
          "name": "problemId",
          "type": "uint256"
        }
      ],
      "name": "mintBodyOutsideProblem",
      "outputs": [],
      "stateMutability": "nonpayable",
      "type": "function"
    },
    {
      "inputs": [
        {
          "internalType": "uint256",
          "name": "problemId",
          "type": "uint256"
        }
      ],
      "name": "mintBodyToProblem",
      "outputs": [],
      "stateMutability": "nonpayable",
      "type": "function"
    },
    {
      "inputs": [],
      "name": "name",
      "outputs": [
        {
          "internalType": "string",
          "name": "",
          "type": "string"
        }
      ],
      "stateMutability": "view",
      "type": "function"
    },
    {
      "inputs": [],
      "name": "owner",
      "outputs": [
        {
          "internalType": "address",
          "name": "",
          "type": "address"
        }
      ],
      "stateMutability": "view",
      "type": "function"
    },
    {
      "inputs": [
        {
          "internalType": "uint256",
          "name": "tokenId",
          "type": "uint256"
        }
      ],
      "name": "ownerOf",
      "outputs": [
        {
          "internalType": "address",
          "name": "",
          "type": "address"
        }
      ],
      "stateMutability": "view",
      "type": "function"
    },
    {
      "inputs": [],
      "name": "paused",
      "outputs": [
        {
          "internalType": "bool",
          "name": "",
          "type": "bool"
        }
      ],
      "stateMutability": "view",
      "type": "function"
    },
    {
      "inputs": [],
      "name": "price",
      "outputs": [
        {
          "internalType": "uint256",
          "name": "",
          "type": "uint256"
        }
      ],
      "stateMutability": "view",
      "type": "function"
    },
    {
      "inputs": [],
      "name": "problemMetadata",
      "outputs": [
        {
          "internalType": "address",
          "name": "",
          "type": "address"
        }
      ],
      "stateMutability": "view",
      "type": "function"
    },
    {
      "inputs": [],
      "name": "problemSupply",
      "outputs": [
        {
          "internalType": "uint256",
          "name": "",
          "type": "uint256"
        }
      ],
      "stateMutability": "view",
      "type": "function"
    },
    {
      "inputs": [
        {
          "internalType": "uint256",
          "name": "",
          "type": "uint256"
        }
      ],
      "name": "problems",
      "outputs": [
        {
          "internalType": "bytes32",
          "name": "seed",
          "type": "bytes32"
        },
        {
          "internalType": "uint256",
          "name": "bodyCount",
          "type": "uint256"
        },
        {
          "internalType": "uint256",
          "name": "mintedBodiesIndex",
          "type": "uint256"
        },
        {
          "internalType": "uint256",
          "name": "tickCount",
          "type": "uint256"
        }
      ],
      "stateMutability": "view",
      "type": "function"
    },
    {
      "inputs": [],
      "name": "proceedRecipient",
      "outputs": [
        {
          "internalType": "address",
          "name": "",
          "type": "address"
        }
      ],
      "stateMutability": "view",
      "type": "function"
    },
    {
      "inputs": [
        {
          "internalType": "address payable",
          "name": "_to",
          "type": "address"
        }
      ],
      "name": "recoverUnsuccessfulMintPayment",
      "outputs": [],
      "stateMutability": "nonpayable",
      "type": "function"
    },
    {
      "inputs": [
        {
          "internalType": "uint256",
          "name": "problemId",
          "type": "uint256"
        },
        {
          "internalType": "uint256",
          "name": "bodyId",
          "type": "uint256"
        }
      ],
      "name": "removeBody",
      "outputs": [],
      "stateMutability": "nonpayable",
      "type": "function"
    },
    {
      "inputs": [],
      "name": "renounceOwnership",
      "outputs": [],
      "stateMutability": "nonpayable",
      "type": "function"
    },
    {
      "inputs": [
        {
          "internalType": "uint256",
          "name": "problemId",
          "type": "uint256"
        }
      ],
      "name": "restoreRadius",
      "outputs": [],
      "stateMutability": "nonpayable",
      "type": "function"
    },
    {
      "inputs": [
        {
          "internalType": "address",
          "name": "from",
          "type": "address"
        },
        {
          "internalType": "address",
          "name": "to",
          "type": "address"
        },
        {
          "internalType": "uint256",
          "name": "tokenId",
          "type": "uint256"
        }
      ],
      "name": "safeTransferFrom",
      "outputs": [],
      "stateMutability": "nonpayable",
      "type": "function"
    },
    {
      "inputs": [
        {
          "internalType": "address",
          "name": "from",
          "type": "address"
        },
        {
          "internalType": "address",
          "name": "to",
          "type": "address"
        },
        {
          "internalType": "uint256",
          "name": "tokenId",
          "type": "uint256"
        },
        {
          "internalType": "bytes",
          "name": "data",
          "type": "bytes"
        }
      ],
      "name": "safeTransferFrom",
      "outputs": [],
      "stateMutability": "nonpayable",
      "type": "function"
    },
    {
      "inputs": [],
      "name": "scalingFactor",
      "outputs": [
        {
          "internalType": "uint256",
          "name": "",
          "type": "uint256"
        }
      ],
      "stateMutability": "view",
      "type": "function"
    },
    {
      "inputs": [
        {
          "internalType": "address",
          "name": "operator",
          "type": "address"
        },
        {
          "internalType": "bool",
          "name": "approved",
          "type": "bool"
        }
      ],
      "name": "setApprovalForAll",
      "outputs": [],
      "stateMutability": "nonpayable",
      "type": "function"
    },
    {
      "inputs": [],
      "name": "solver",
      "outputs": [
        {
          "internalType": "address",
          "name": "",
          "type": "address"
        }
      ],
      "stateMutability": "view",
      "type": "function"
    },
    {
      "inputs": [],
      "name": "startDate",
      "outputs": [
        {
          "internalType": "uint256",
          "name": "",
          "type": "uint256"
        }
      ],
      "stateMutability": "view",
      "type": "function"
    },
    {
      "inputs": [],
      "name": "startingRadius",
      "outputs": [
        {
          "internalType": "uint256",
          "name": "",
          "type": "uint256"
        }
      ],
      "stateMutability": "view",
      "type": "function"
    },
    {
      "inputs": [
        {
          "internalType": "bytes4",
          "name": "interfaceId",
          "type": "bytes4"
        }
      ],
      "name": "supportsInterface",
      "outputs": [
        {
          "internalType": "bool",
          "name": "",
          "type": "bool"
        }
      ],
      "stateMutability": "view",
      "type": "function"
    },
    {
      "inputs": [],
      "name": "symbol",
      "outputs": [
        {
          "internalType": "string",
          "name": "",
          "type": "string"
        }
      ],
      "stateMutability": "view",
      "type": "function"
    },
    {
      "inputs": [
        {
          "internalType": "uint256",
          "name": "id",
          "type": "uint256"
        }
      ],
      "name": "tokenURI",
      "outputs": [
        {
          "internalType": "string",
          "name": "",
          "type": "string"
        }
      ],
      "stateMutability": "view",
      "type": "function"
    },
    {
      "inputs": [
        {
          "internalType": "address",
          "name": "from",
          "type": "address"
        },
        {
          "internalType": "address",
          "name": "to",
          "type": "address"
        },
        {
          "internalType": "uint256",
          "name": "tokenId",
          "type": "uint256"
        }
      ],
      "name": "transferFrom",
      "outputs": [],
      "stateMutability": "nonpayable",
      "type": "function"
    },
    {
      "inputs": [
        {
          "internalType": "address",
          "name": "newOwner",
          "type": "address"
        }
      ],
      "name": "transferOwnership",
      "outputs": [],
      "stateMutability": "nonpayable",
      "type": "function"
    },
    {
      "inputs": [
        {
          "internalType": "address",
          "name": "bodies_",
          "type": "address"
        }
      ],
      "name": "updateBodiesAddress",
      "outputs": [],
      "stateMutability": "nonpayable",
      "type": "function"
    },
    {
      "inputs": [
        {
          "internalType": "bool",
          "name": "paused_",
          "type": "bool"
        }
      ],
      "name": "updatePaused",
      "outputs": [],
      "stateMutability": "nonpayable",
      "type": "function"
    },
    {
      "inputs": [
        {
          "internalType": "uint256",
          "name": "price_",
          "type": "uint256"
        }
      ],
      "name": "updatePrice",
      "outputs": [],
      "stateMutability": "nonpayable",
      "type": "function"
    },
    {
      "inputs": [
        {
          "internalType": "uint256",
          "name": "problemId",
          "type": "uint256"
        },
        {
          "internalType": "uint256",
          "name": "bodyId",
          "type": "uint256"
        },
        {
          "components": [
            {
              "internalType": "uint256",
              "name": "bodyId",
              "type": "uint256"
            },
            {
              "internalType": "uint256",
              "name": "mintedBodyIndex",
              "type": "uint256"
            },
            {
              "internalType": "uint256",
              "name": "bodyIndex",
              "type": "uint256"
            },
            {
              "internalType": "uint256",
              "name": "px",
              "type": "uint256"
            },
            {
              "internalType": "uint256",
              "name": "py",
              "type": "uint256"
            },
            {
              "internalType": "uint256",
              "name": "vx",
              "type": "uint256"
            },
            {
              "internalType": "uint256",
              "name": "vy",
              "type": "uint256"
            },
            {
              "internalType": "uint256",
              "name": "radius",
              "type": "uint256"
            },
            {
              "internalType": "uint256",
              "name": "starLvl",
              "type": "uint256"
            },
            {
              "internalType": "uint256",
              "name": "maxStarLvl",
              "type": "uint256"
            },
            {
              "internalType": "bytes32",
              "name": "seed",
              "type": "bytes32"
            }
          ],
          "internalType": "struct Problems.Body",
          "name": "body",
          "type": "tuple"
        }
      ],
      "name": "updateProblemBody",
      "outputs": [],
      "stateMutability": "nonpayable",
      "type": "function"
    },
    {
      "inputs": [
        {
          "internalType": "uint256",
          "name": "problemId",
          "type": "uint256"
        },
        {
          "internalType": "uint256",
          "name": "bodyCount",
          "type": "uint256"
        }
      ],
      "name": "updateProblemBodyCount",
      "outputs": [],
      "stateMutability": "nonpayable",
      "type": "function"
    },
    {
      "inputs": [
        {
          "internalType": "uint256",
          "name": "problemId",
          "type": "uint256"
        },
        {
          "internalType": "uint256[10]",
          "name": "bodyIds",
          "type": "uint256[10]"
        }
      ],
      "name": "updateProblemBodyIds",
      "outputs": [],
      "stateMutability": "nonpayable",
      "type": "function"
    },
    {
      "inputs": [
        {
          "internalType": "address",
          "name": "problemMetadata_",
          "type": "address"
        }
      ],
      "name": "updateProblemMetadataAddress",
      "outputs": [],
      "stateMutability": "nonpayable",
      "type": "function"
    },
    {
      "inputs": [
        {
          "internalType": "uint256",
          "name": "problemId",
          "type": "uint256"
        },
        {
          "internalType": "uint256",
          "name": "tickCount",
          "type": "uint256"
        }
      ],
      "name": "updateProblemTickCount",
      "outputs": [],
      "stateMutability": "nonpayable",
      "type": "function"
    },
    {
      "inputs": [
        {
          "internalType": "address",
          "name": "proceedRecipient_",
          "type": "address"
        }
      ],
      "name": "updateProceedRecipientAddress",
      "outputs": [],
      "stateMutability": "nonpayable",
      "type": "function"
    },
    {
      "inputs": [
        {
          "internalType": "address",
          "name": "solver_",
          "type": "address"
        }
      ],
      "name": "updateSolverAddress",
      "outputs": [],
      "stateMutability": "nonpayable",
      "type": "function"
    },
    {
      "inputs": [
        {
          "internalType": "uint256",
          "name": "startDate_",
          "type": "uint256"
        }
      ],
      "name": "updateStartDate",
      "outputs": [],
      "stateMutability": "nonpayable",
      "type": "function"
    },
    {
      "inputs": [
        {
          "internalType": "address",
          "name": "verifier_",
          "type": "address"
        },
        {
          "internalType": "uint256",
          "name": "verifierBodies",
          "type": "uint256"
        },
        {
          "internalType": "uint256",
          "name": "verifierTicks",
          "type": "uint256"
        }
      ],
      "name": "updateVerifier",
      "outputs": [],
      "stateMutability": "nonpayable",
      "type": "function"
    },
    {
      "inputs": [
        {
          "internalType": "uint256",
          "name": "",
          "type": "uint256"
        },
        {
          "internalType": "uint256",
          "name": "",
          "type": "uint256"
        }
      ],
      "name": "verifiers",
      "outputs": [
        {
          "internalType": "address",
          "name": "",
          "type": "address"
        }
      ],
      "stateMutability": "view",
      "type": "function"
    },
    {
      "inputs": [],
      "name": "windowWidth",
      "outputs": [
        {
          "internalType": "uint256",
          "name": "",
          "type": "uint256"
        }
      ],
      "stateMutability": "view",
      "type": "function"
    },
    {
      "stateMutability": "payable",
      "type": "receive"
    }
  ],
  "bytecode": "0x60406080815234620005bf5762003ca490813803806200001f81620005ff565b9384398201608083820312620005bf576200003a8362000625565b92602091828201519260018060401b0393848111620005bf57830191601f93818585011215620005bf578351936200007c62000076866200063a565b620005ff565b94848087838152019160051b83010191848311620005bf5785809101915b838310620005c4575050505086810151868111620005bf5782620000c091830162000652565b916060820151878111620005bf57620000da920162000652565b91620000e5620005df565b95600f908188526e416e79626f64792050726f626c656d60881b838901526200010d620005df565b966003885262414e5960e81b84890152885197828911620005a95760009889549a60019b8c81811c911680156200059e575b888210146200058a5790818584931162000537575b508790858311600114620004ca578c92620004be575b5050600019600383901b1c1916908b1b1789555b8051928311620004aa5789548a81811c911680156200049f575b868210146200048b579081838594931162000436575b5085918311600114620003d2578992620003c6575b5050600019600383901b1c191690881b1787555b6006549860018060a01b03199533878c161760065589519a60018060a01b039283918d7f8be0079c531659141344cd1fd0a4f28419497f9722a3daafe3b4186f6b6457e08c8533941692a389600755662386f26fc10000600d55169a8b15620003845750889a3388600c541617600c5587600b541617600b55879a5b62000268575b89516135c99081620006db8239f35b80518b10156200037e576200027e8b86620006af565b51156200033a5781620002928c83620006af565b511615620003035781620002a78c83620006af565b5116620002b58c88620006af565b5189528385528a8920620002ca8d88620006af565b518a5285528a892090888254161790556000198b14620002ef57998801998862000253565b634e487b7160e01b88526011600452602488fd5b895162461bcd60e51b815260048101859052601060248201526f24b73b30b634b2103b32b934b334b2b960811b6044820152606490fd5b895162461bcd60e51b815260048101859052601560248201527f496e76616c6964207665726966696572206475737400000000000000000000006044820152606490fd5b62000259565b62461bcd60e51b815260048101859052601760248201527f496e76616c69642070726f626c656d4d657461646174610000000000000000006044820152606490fd5b015190503880620001c3565b8a8a52858a208b94509190601f1984168b5b888282106200041f575050841162000405575b505050811b018755620001d7565b015160001960f88460031b161c19169055388080620003f7565b8385015186558e97909501949384019301620003e4565b909192508a8a52858a208380860160051c82019288871062000481575b9186958e929594930160051c01915b82811062000472575050620001ae565b8c81558695508d910162000462565b9250819262000453565b634e487b7160e01b8a52602260045260248afd5b90607f169062000198565b634e487b7160e01b89526041600452602489fd5b0151905038806200016a565b8c8052888d208e94509190601f1984168e5b8b828210620005175750508411620004fd575b505050811b0189556200017e565b015160001960f88460031b161c19169055388080620004ef565b91929395968291958786015181550195019301908f9594939291620004dc565b9091508b8052878c208580850160051c8201928a861062000580575b918f91869594930160051c01915b8281106200057157505062000154565b8e81558594508f910162000561565b9250819262000553565b634e487b7160e01b8c52602260045260248cfd5b90607f16906200013f565b634e487b7160e01b600052604160045260246000fd5b600080fd5b8190620005d18462000625565b81520191019085906200009a565b60408051919082016001600160401b03811183821017620005a957604052565b6040519190601f01601f191682016001600160401b03811183821017620005a957604052565b51906001600160a01b0382168203620005bf57565b6001600160401b038111620005a95760051b60200190565b9080601f83011215620005bf578151906200067162000076836200063a565b9182938184526020808095019260051b820101928311620005bf578301905b8282106200069f575050505090565b8151815290830190830162000690565b8051821015620006c45760209160051b010190565b634e487b7160e01b600052603260045260246000fdfe60806040526004361015610023575b361561001957600080fd5b61002161291b565b005b6000803560e01c8063010fdfd5146121e757806301ffc9a71461217857806304b24e851461213f57806305ee7fa0146120fd57806306fdde031461203d578063081812fc1461201e5780630825ea8d14611f7257806308cdc2a814611f29578063095ea7b314611db15780630b27ce3f14611d885780630b97bc8614611d6a5780630bdaaaca14611d435780630ce90ec214611c0f5780631249c58b14611bfb57806318d9479314611bd657806320a286d014611bb857806321dbbbdf14611a7657806323b872dd14611a4c5780632b057afa146119f15780632d60593314611907578063306da04f146118de57806334e5e492146118b15780633ecb6f88146116a65780633f29ad1d146113dd578063408472841461134857806340c10f191461121457806342842e0e146111c257806343569ffb1461118b57806349a7a26d146111625780634b9862d91461114657806353e52f091461112a5780635c975abb14611104578063609e00a4146110e45780636282eff5146110a25780636352211e146110715780636a62784214610efd57806370a0823114610e67578063715018a614610e075780637696d9ff14610dc5578063872d7e4814610d8c5780638d6cc56d14610d675780638da5cb5b14610d3e578063934317b114610d1557806395d89b4114610c095780639769dc0e14610b99578063a035b1fe14610b7b578063a22cb46514610aa9578063afcb1af0146109b7578063b88d4fde1461092d578063bf82e9de146107ba578063c09fd8ef1461073f578063c31f5d6a146106f5578063c87b56dd14610600578063d35c3f941461050b578063de4318fc14610468578063e985e9c514610414578063eba4f366146103c7578063ed3437f8146103aa578063f2fde38b146102e35763f81c8ec3146102c3575061000e565b346102e057806003193601126102e0576020604051620f42408152f35b80fd5b50346102e05760203660031901126102e0576102fd612229565b610305612413565b6001600160a01b03908116801561035657600680546001600160a01b03198116831790915560405192167f8be0079c531659141344cd1fd0a4f28419497f9722a3daafe3b4186f6b6457e0600084a3f35b60405162461bcd60e51b815260206004820152602660248201527f4f776e61626c653a206e6577206f776e657220697320746865207a65726f206160448201526564647265737360d01b6064820152608490fd5b50346102e057806003193601126102e05760206040516103e88152f35b50346102e05760203660031901126102e05760406080916004358152600e60205220805490600181015490600f600282015491015491604051938452602084015260408301526060820152f35b50346102e05760403660031901126102e05761042e612229565b6040610438612244565b9260018060a01b0380931681526005602052209116600052602052602060ff604060002054166040519015158152f35b50346102e0576101603660031901126102e05736604312156102e0576040516104908161239c565b61016481368211610507576024905b8282106104f757505050600a906104c060018060a01b038354163314613530565b60043583526020600e81526005604085200184925b8484106104e25785604051f35b600183828293518555019201930192906104d5565b813581526020918201910161049f565b8380fd5b50346102e0576101a03660031901126102e057610160806043193601126105fc576040519081019080821067ffffffffffffffff8311176105e6576105e19160405260443581526064356020820152608435604082015260a435606082015260c435608082015260e43560a08201526101043560c08201526101243560e08201526101443561010082015261016435610120820152610184356101408201526105bf60018060a01b03600a54163314613530565b6004358352600e60205260046040842001602435845260205260408320613013565b604051f35b634e487b7160e01b600052604160045260246000fd5b5080fd5b50346102e0576020806003193601126105fc57600b546040516351a35b5560e01b81526004803590820152908390829060249082906001600160a01b03165afa9283156106e9578093610668575b50506106646040519282849384528301906122a5565b0390f35b909192503d8082843e61067b81846123d5565b82019183818403126105fc5780519067ffffffffffffffff82116106e5570182601f820112156105fc578051916106b1836123f7565b936106bf60405195866123d5565b8385528584840101116102e05750906106dd91848085019101612270565b90388061064e565b8280fd5b604051903d90823e3d90fd5b50346102e05761073060406101609261070d3661225a565b90610716613439565b508252600e60205260048383200190825260205220612f98565b61073d60405180926122ff565bf35b50346102e05760203660031901126102e0576004356001600160a01b038116908190036105fc5761076e612413565b47906000805160206135748339815191526107a984808060405187875af16107946127f3565b906040519283926040845260408401906122a5565b9560208301521515940390a3604051f35b50346102e057602090816003193601126102e0576004359160018060a01b0360248282600a541660405192838092634e26b0cd60e01b82528960048301525afa90811561092257906108149185916108f5575b5015612e4f565b61082660ff60065460a01c1615612a19565b61083b610832856124b7565b82163314612e9b565b838352600e8252610855600a600160408620015410612edb565b838352600e8252600260408420015490610871600a8310612f27565b6009541690813b1561050757604051630ab714fb60e11b81523360048201526024810186905260448101919091529083908290606490829084905af180156108ea576108d8575b508192600e925252600260408220016108d18154612a4e565b9055604051f35b916108e4600e9361236b565b916108b8565b6040513d85823e3d90fd5b6109159150843d861161091b575b61090d81836123d5565b810190612e37565b3861080d565b503d610903565b6040513d86823e3d90fd5b50346102e05760803660031901126102e057610947612229565b61094f612244565b906064359067ffffffffffffffff82116105075736602383011215610507578160040135928461097e856123f7565b9361098c60405195866123d5565b85855236602487830101116105fc57856105e19660246020930183880137850101526044359161257d565b50346102e0576109c63661225a565b600a54604051634e26b0cd60e01b8152600481018490526001600160a01b0393916020908290602490829088165afa8015610a9e57610a0c918691610a86575015612e4f565b808452600e602052600360016040862001541115610a4157610a3c6105e193610a34836124b7565b163314612e9b565b6130bb565b60405162461bcd60e51b815260206004820152601e60248201527f43616e6e6f742068617665206c657373207468616e203320626f6469657300006044820152606490fd5b610915915060203d811161091b5761090d81836123d5565b6040513d87823e3d90fd5b50346102e05760403660031901126102e057610ac3612229565b602435908115158092036106e5576001600160a01b031690338214610b36573383526005602052604083208284526020526040832060ff1981541660ff83161790556040519081527f17307eab39ab6107e8899845ad3d59bd9653f200f220920489ca2b5937696c3160203392a3604051f35b60405162461bcd60e51b815260206004820152601960248201527f4552433732313a20617070726f766520746f2063616c6c6572000000000000006044820152606490fd5b50346102e057806003193601126102e0576020600d54604051908152f35b50346102e05760203660031901126102e0576105e1610bb6612229565b600a54610bfc906001600160a01b0390610bd390821615156129db565b610be2816009541615156129db565b610bf181600b541615156129db565b600c541615156129db565b610c04612413565b612a8e565b50346102e057806003193601126102e057604051908060019182549283811c92818516948515610d0b575b6020958686108114610cf757858852879493929187908215610cd5575050600114610c7c575b5050610c68925003836123d5565b6106646040519282849384528301906122a5565b908592508082527fb10e2d527612073b26eecdfd717e6a320cf44b4afac2b0732d9fcbe2b7fa0cf65b858310610cbd575050610c6893508201013880610c5a565b80548389018501528794508693909201918101610ca5565b9250935050610c6894915060ff191682840152151560051b8201013880610c5a565b634e487b7160e01b83526022600452602483fd5b93607f1693610c34565b50346102e057806003193601126102e057600b546040516001600160a01b039091168152602090f35b50346102e057806003193601126102e0576006546040516001600160a01b039091168152602090f35b50346102e05760203660031901126102e057610d81612413565b600435600d55604051f35b50346102e057610d9b3661225a565b90610db160018060a01b03600a54163314613530565b8252600e6020526001604083200155604051f35b50346102e05760203660031901126102e057610ddf612229565b610de7612413565b60018060a01b03166001600160601b0360a01b600a541617600a55604051f35b50346102e057806003193601126102e057610e20612413565b600680546001600160a01b031981169091556040519082906001600160a01b03167f8be0079c531659141344cd1fd0a4f28419497f9722a3daafe3b4186f6b6457e08284a3f35b50346102e05760203660031901126102e0576001600160a01b03610e89612229565b168015610ea6578160409160209352600383522054604051908152f35b60405162461bcd60e51b815260206004820152602960248201527f4552433732313a2061646472657373207a65726f206973206e6f7420612076616044820152683634b21037bbb732b960b91b6064820152608490fd5b5060203660031901126102e057610f12612229565b600a546001600160a01b039081161515610f2b816129db565b610f708260095416151591610f3f836129db565b610f6b84600b54161515610f52816129db565b610f6b86600c541695610f6b87151595610f6b876129db565b6129db565b610f8260ff60065460a01c1615612a19565b600754421061103e57600d54340361100957838080926040519034905af190600080516020613574833981519152610fd5610fbb6127f3565b92600c5416926040519182916040835260408301906122a5565b943460208301521515940390a3815b60018110610ff25782604051f35b61100490610fff83612a8e565b612a4e565b610fe4565b60405162461bcd60e51b815260206004820152600d60248201526c496e76616c696420707269636560981b6044820152606490fd5b60405162461bcd60e51b815260206004820152600b60248201526a139bdd081cdd185c9d195960aa1b6044820152606490fd5b50346102e05760203660031901126102e05760206110906004356124b7565b6040516001600160a01b039091168152f35b50346102e05760203660031901126102e0576110bc612229565b6110c4612413565b60018060a01b03166001600160601b0360a01b600c541617600c55604051f35b50346102e05760203660031901126102e05761016061073060043561348c565b50346102e057806003193601126102e057602060ff60065460a01c166040519015158152f35b50346102e057806003193601126102e057602060405160028152f35b50346102e057806003193601126102e0576020604051600a8152f35b50346102e057806003193601126102e057600a546040516001600160a01b039091168152602090f35b50346102e05760209061119d3661225a565b908252600f8352604082209082528252604060018060a01b0391205416604051908152f35b50346102e0576111d1366122ca565b60409392935191602083019483861067ffffffffffffffff871117611200576105e1949560405285845261257d565b634e487b7160e01b85526041600452602485fd5b5060403660031901126102e057611229612229565b600a5460243591906001600160a01b039061124790821615156129db565b611256816009541615156129db565b61126581600b541615156129db565b80600c54166112758115156129db565b6005841161131b5761128f60ff60065460a01c1615612a19565b600754421061103e57600d548460001904811185151516611307578402340361100957848080926040519034905af1906000805160206135748339815191526112d9610fbb6127f3565b943460208301521515940390a3825b8281106112f55783604051f35b61130290610fff83612a8e565b6112e8565b634e487b7160e01b86526011600452602486fd5b60405162461bcd60e51b81526020600482015260056024820152644d6178203560d81b6044820152606490fd5b50346102e057602090816003193601126102e057906040519161136a8361239c565b61014080933690376004358152600e82526005604082200191604051928383905b600a82106113c75750505061139f8361239c565b6040519291835b600a82106113b2578585f35b828060019286518152019401910190926113a6565b825481526001928301929190910190830161138b565b50346102e05760203660031901126102e057600a54604051634e26b0cd60e01b815260048035908201526001600160a01b03916020908290602490829086165afa80156108ea5761143591849161168d575015612e4f565b61144760ff60065460a01c1615612a19565b6114556108326004356124b7565b6004358252600e602052611472600a600160408520015410612edb565b6004358252600e602052600260408320015490611491600a8310612f27565b60095460405163d395cb1360e01b815233600480830191909152356024820152604481018490529291606091849160649183918891165af19081156108ea57839284908593611658575b506004358552600e6020526001604086200154846115706115576114fe8761348c565b938385528660208601528961010086015261012085019586528060408601526004358a52600e602052600460408b2001848b526020526115418560408c20613013565b6004358a52600e602052600560408b2001612f72565b819391549060031b600019811b9283911b169119161790565b90556004358652600e6020526001604087200161158d8154612a4e565b90556004358652600e6020526040862060020180546001198111611644579161014095939160017fe40053ac8eef7fe7edc42668d8edfd183596014bf82e00bd7e938851ae1321479896940190556004358852600e602052600f604089200154606082015160808301519161010060e0850151940151945195604051986004358a5260208a015260408901526060880152608087015260a086015260c085015260e0840152610100830152610120820152a1604051f35b634e487b7160e01b88526011600452602488fd5b9193505061167d915060603d8111611686575b61167581836123d5565b810190612a73565b919290386114db565b503d61166b565b610915915060203d60201161091b5761090d81836123d5565b50346102e057806116b63661225a565b6116c860ff60065460a01c1615612a19565b60806116d3836124b7565b6001600160a01b03906116e99082163314612e9b565b838552600e602052611704600a600160408820015410612edb565b60095416606460405180968193636f21292560e01b83528660048401523360248401528760448401525af19283156109225784908580928192829761185f575b509181869593610140977fe40053ac8eef7fe7edc42668d8edfd183596014bf82e00bd7e938851ae13214799969452600e602052846117e26115576001604086200154600560406117948c61348c565b978689528760208a01526101009a8b8a01526101208901998a5283828a01528d8152600e6020526004828220018782526020526117d389838320613013565b8d8152600e6020522001612f72565b9055868a52600e602052600160408b20016117fd8154612a4e565b9055868a52600e602052600f60408b2001546060830151906080840151928660e08601519501519551976040519a8b5260208b015260408a01526060890152608088015260a087015260c086015260e0850152830152610120820152a1604051f35b965050505050906080833d6080116118a9575b8161187f608093836123d5565b81010312610507578251602084015160408501516060909501519492939290918690610140611744565b3d9150611872565b50346102e05760203660031901126102e057600260406020926004358152600e8452200154604051908152f35b50346102e057806003193601126102e0576009546040516001600160a01b039091168152602090f35b50346102e057602090816003193601126102e0576004358152600e8252600360408220019182549067ffffffffffffffff82116119dd5791929060405190611954848260051b01836123d5565b8082528382018093865284862086915b8383106119b657505050506040519280840191818552518092526040840192945b8281106119925784840385f35b90919282610160826119a76001948a516122ff565b01960191019492919094611985565b600b876001926119ca859b9a98999b612f98565b8152019201920191909694939596611964565b634e487b7160e01b83526041600452602483fd5b50346102e05760603660031901126102e057611a0b612229565b611a13612413565b6024358252600f602052604082206044358352602052604082209060018060a01b03166001600160601b0360a01b825416179055604051f35b50346102e0576105e1611a5e366122ca565b91611a71611a6c8433612618565b61251b565b6126e0565b50346102e0576020806003193601126105fc5760043590602460018060a01b038281600a541660405193848092634e26b0cd60e01b82528860048301525afa918215610a9e57611ada92611ad1918791611ba1575015612e4f565b610a34846124b7565b825b828452600e908183526001604086200154811015611b9b57611b5391611b088260056040892001612f72565b9054600391821b1c908688528286526004604089200182895286526008604089200154878952838752600460408a2001838a528752600960408a20015414611b58575b505050612a4e565b611adc565b611b9392878952808752600460408a2001838a528752611b84611b7d60408b20612f98565b93896130bb565b87895286526040882001613081565b388080611b4b565b84604051f35b6109159150853d871161091b5761090d81836123d5565b50346102e057806003193601126102e0576020600854604051908152f35b50346102e05760203660031901126102e057611bf0612413565b600435600755604051f35b50806003193601126102e0576105e161291b565b50346102e0576020806003193601126105fc57600435611c3a60018060a01b03600a54163314613530565b808352600e8083526040842060010154929084805b858210611c5c5786604051f35b8487528284526005604088200181831061164457611c7d9082840390612f72565b929054600393841b1c868952848652600460408a2001818a528652886008806040832001611cab8154612a4e565b9055888252868852600460408320018383528852604082200154888252868852600460408320018383528852600960408320015414611cf8575b5050611cf2919250612a4e565b90611c4f565b90611d2a611cf294610fff611d236040868d611d3b98528b8d526004828220018782528d5220612f98565b938b6130bb565b94888b5286885260408b2001613081565b829188611ce5565b50346102e05760203660031901126102e0576020611d626004356133f5565b604051908152f35b50346102e057806003193601126102e0576020600754604051908152f35b50346102e057806003193601126102e057600c546040516001600160a01b039091168152602090f35b50346102e05760403660031901126102e057611dcb612229565b6024356001600160a01b038080611de1846124b7565b16931692808414611eda57803314908115611eb9575b5015611e4e5781845260046020526040842080546001600160a01b03191684179055611e22826124b7565b1691604051927f8c5be1e5ebec7d5bd14f71427d1e84f3dd0314c0f7b2291e5b200ac8c7c3b9258585a4f35b60405162461bcd60e51b815260206004820152603d60248201527f4552433732313a20617070726f76652063616c6c6572206973206e6f7420746f60448201527f6b656e206f776e6572206f7220617070726f76656420666f7220616c6c0000006064820152608490fd5b9050845260056020526040842033855260205260ff60408520541638611df7565b60405162461bcd60e51b815260206004820152602160248201527f4552433732313a20617070726f76616c20746f2063757272656e74206f776e656044820152603960f91b6064820152608490fd5b50346102e05760203660031901126102e0576004358015158091036105fc57611f50612413565b6006805460ff60a01b191660a09290921b60ff60a01b16919091179055604051f35b50346102e0576020806003193601126105fc57600435600a611f9e60018060a01b038254163314613530565b835b828552600e9081855260016040872001548110156120185761201391611fcc82600560408a2001612f72565b90549060031b1c858852818752600460408920018189528752611ff48560408a2001546133f5565b9186895287526004604089200190885286526007604088200155612a4e565b611fa0565b85604051f35b50346102e05760203660031901126102e05760206110906004356124dd565b50346102e057806003193601126102e0576040519080805491600183811c928185169485156120f3575b6020958686108114610cf757858852879493929187908215610cd557505060011461209a575050610c68925003836123d5565b908592508180527f290decd9548b62a8d60345a988386fc84ba6bc95484008f6362f93160ef3e5635b8583106120db575050610c6893508201013880610c5a565b805483890185015287945086939092019181016120c3565b93607f1693612067565b50346102e05760203660031901126102e057612117612229565b61211f612413565b60018060a01b03166001600160601b0360a01b600b541617600b55604051f35b50346102e05761214e3661225a565b9061216460018060a01b03600a54163314613530565b8252600e602052600f604083200155604051f35b50346102e05760203660031901126102e05760043563ffffffff60e01b81168091036105fc576020906380ac58cd60e01b81149081156121d6575b81156121c5575b506040519015158152f35b6301ffc9a760e01b149050826121ba565b635b5e139f60e01b811491506121b3565b50346102e05760203660031901126102e057612201612229565b612209612413565b60018060a01b03166001600160601b0360a01b6009541617600955604051f35b600435906001600160a01b038216820361223f57565b600080fd5b602435906001600160a01b038216820361223f57565b604090600319011261223f576004359060243590565b918091926000905b828210612290575011612289575050565b6000910152565b91508060209183015181860152018291612278565b906020916122be81518092818552858086019101612270565b601f01601f1916010190565b606090600319011261223f576001600160a01b0390600435828116810361223f5791602435908116810361223f579060443590565b805182526020810151602083015260408101516040830152606081015160608301526080810151608083015260a081015160a083015260c081015160c083015260e081015160e08301526101008082015190830152610120808201519083015261014080910151910152565b67ffffffffffffffff81116105e657604052565b610160810190811067ffffffffffffffff8211176105e657604052565b610140810190811067ffffffffffffffff8211176105e657604052565b6060810190811067ffffffffffffffff8211176105e657604052565b90601f8019910116810190811067ffffffffffffffff8211176105e657604052565b67ffffffffffffffff81116105e657601f01601f191660200190565b6006546001600160a01b0316330361242757565b606460405162461bcd60e51b815260206004820152602060248201527f4f776e61626c653a2063616c6c6572206973206e6f7420746865206f776e65726044820152fd5b1561247257565b60405162461bcd60e51b815260206004820152601860248201527f4552433732313a20696e76616c696420746f6b656e20494400000000000000006044820152606490fd5b6000908152600260205260409020546001600160a01b03166124da81151561246b565b90565b600081815260026020526040902054612500906001600160a01b0316151561246b565b6000908152600460205260409020546001600160a01b031690565b1561252257565b60405162461bcd60e51b815260206004820152602d60248201527f4552433732313a2063616c6c6572206973206e6f7420746f6b656e206f776e6560448201526c1c881bdc88185c1c1c9bdd9959609a1b6064820152608490fd5b906125a1939291612591611a6c8433612618565b61259c8383836126e0565b612823565b156125a857565b60405162461bcd60e51b8152806125c1600482016125c5565b0390fd5b60809060208152603260208201527f4552433732313a207472616e7366657220746f206e6f6e20455243373231526560408201527131b2b4bb32b91034b6b83632b6b2b73a32b960711b60608201520190565b906001600160a01b03808061262c846124b7565b1693169183831493841561265f575b508315612649575b50505090565b612655919293506124dd565b1614388080612643565b909350600052600560205260406000208260005260205260ff60406000205416923861263b565b1561268d57565b60405162461bcd60e51b815260206004820152602560248201527f4552433732313a207472616e736665722066726f6d20696e636f72726563742060448201526437bbb732b960d91b6064820152608490fd5b90612708916126ee846124b7565b6001600160a01b0393918416928492909183168414612686565b169182156127a257816127259161271e866124b7565b1614612686565b7fddf252ad1be2c89b69c2b068fc378daa952ba7f163c4a11628f55a4df523b3ef60008481526004602052604081206001600160601b0360a01b90818154169055838252600360205260408220600019815401905584825260408220600181540190558582526002602052846040832091825416179055604051a4565b60405162461bcd60e51b8152602060048201526024808201527f4552433732313a207472616e7366657220746f20746865207a65726f206164646044820152637265737360e01b6064820152608490fd5b3d1561281e573d90612804826123f7565b9161281260405193846123d5565b82523d6000602084013e565b606090565b91926000929190813b15612911576020916128799185604051958680958194630a85bd0160e11b9b8c845233600485015260018060a01b03809516602485015260448401526080606484015260848301906122a5565b0393165af1908290826128c9575b50506128bb576128956127f3565b805190816128b65760405162461bcd60e51b8152806125c1600482016125c5565b602001fd5b6001600160e01b0319161490565b909192506020813d8211612909575b816128e5602093836123d5565b810103126105fc5751906001600160e01b0319821682036102e05750903880612887565b3d91506128d8565b5050505050600190565b600a546001600160a01b039061293490821615156129db565b612943816009541615156129db565b61295281600b541615156129db565b80600c54166129628115156129db565b61297460ff60065460a01c1615612a19565b600754421061103e57600d5434036110095760008080926040519034905af1906000805160206135748339815191526129ae610fbb6127f3565b943460208301521515940390a360005b600181106129c95750565b6129d690610fff33612a8e565b6129be565b156129e257565b60405162461bcd60e51b815260206004820152600f60248201526e139bdd081a5b9a5d1a585b1a5e9959608a1b6044820152606490fd5b15612a2057565b60405162461bcd60e51b815260206004820152600660248201526514185d5cd95960d21b6044820152606490fd5b6000198114612a5d5760010190565b634e487b7160e01b600052601160045260246000fd5b9081606091031261223f578051916040602083015192015190565b612a99600854612a4e565b60088190556001600160a01b03821691908215612da757600081815260026020526040902054612ad5906001600160a01b031615155b15612deb565b600081815260026020526040902054612af8906001600160a01b03161515612acf565b82600052600392836020526040600020600181540190558160005260026020526040600020816001600160601b0360a01b82541617905560007fddf252ad1be2c89b69c2b068fc378daa952ba7f163c4a11628f55a4df523b3ef81604051a460005b828110612bb257505060085460014310612a5d57604080516020810183815243600019014082840152918152612b8f816123b9565b51902090600052600e602052604060002055600854600052600160406000200155565b60095460085460405163d395cb1360e01b81526001600160a01b038581166004808401919091526024830193909352604482018590529192909160609183916064918391600091165af1908115612d9b57600090600090600093612d77575b5060085493612c1f8461348c565b91838352866020840152600061010084015261012083015285604083015284600052600e6020528060406000200183600052602052612c62826040600020613013565b84600052600e60205282612c80611557886005604060002001612f72565b905584600052600e6020526001604060002001612c9d8154612a4e565b905584600052600e6020526002604060002001908154906001198211612d62575092612d5d9695927fe40053ac8eef7fe7edc42668d8edfd183596014bf82e00bd7e938851ae132147959260016101409601905583600052600e602052600f60406000200154606082015160808301519060e0840151926101206101008601519501519560405198895260208901528a60408901526060880152608087015260a086015260c085015260e0840152610100830152610120820152a1612a4e565b612b5a565b601190634e487b7160e01b6000525260246000fd5b915050612d93915060603d6060116116865761167581836123d5565b919038612c11565b6040513d6000823e3d90fd5b606460405162461bcd60e51b815260206004820152602060248201527f4552433732313a206d696e7420746f20746865207a65726f20616464726573736044820152fd5b15612df257565b60405162461bcd60e51b815260206004820152601c60248201527f4552433732313a20746f6b656e20616c7265616479206d696e746564000000006044820152606490fd5b9081602091031261223f5751801515810361223f5790565b15612e5657565b60405162461bcd60e51b815260206004820152601960248201527f50726f626c656d2063757272656e746c7920696e20706c6179000000000000006044820152606490fd5b15612ea257565b60405162461bcd60e51b81526020600482015260116024820152702737ba10383937b13632b69037bbb732b960791b6044820152606490fd5b15612ee257565b60405162461bcd60e51b815260206004820152601f60248201527f43616e6e6f742068617665206d6f7265207468616e20313020626f64696573006044820152606490fd5b15612f2e57565b606460405162461bcd60e51b815260206004820152602060248201527f50726f626c656d20616c7265616479206d696e74656420313020626f646965736044820152fd5b600a821015612f82570190600090565b634e487b7160e01b600052603260045260246000fd5b90604051612fa58161237f565b610140600a82948054845260018101546020850152600281015460408501526003810154606085015260048101546080850152600581015460a0850152600681015460c0850152600781015460e0850152600881015461010085015260098101546101208501520154910152565b90610140600a91805184556020810151600185015560408101516002850155606081015160038501556080810151600485015560a0810151600585015560c0810151600685015560e08101516007850155610100810151600885015561012081015160098501550151910155565b908154680100000000000000008110156105e65760018101808455811015612f82576130b992600052600b6020600020910201613013565b565b90600654906130d260ff60009360a01c1615612a19565b828252600e602052600460408320018183526020526130f360408320612f98565b818151036133a957600954610100820180519092916001600160a01b031690813b156133a5578591608483926040519485938492633c43b50b60e01b84523360048501528a60248501528c604485015260648401525af18015610a9e5761336d575b507f6ad4359fe8e6d536b246aab3e16451ad6a5336cf0f7e9ec2fd6a544d5c5ba7649160c091868652600e602052610120600f60408820015492519101516040872054916040519389855260208501528660408501526060840152608083015260a0820152a1828252600e602052600460408320018183526020526002938460408420015491848452600e602052600160408520018054801561130757600019019055848452600e602052604080852090519060050185825b600a8210613357575050506132228161239c565b6101406040516132318161239c565b369037835b60098110613327575084610120820152858552600e602052600560408620019085905b600a82106133115750505060046040852001908452602052604083209160008355600060018401556000868401556000600a600394828682015582600482015582600582015582600682015582600782015582600882015582600982015501555b848452600e60205260016040852001548110156133095761330490600460408620016132ec8260056040892001612f72565b905490861b1c86526020528087604087200155612a4e565b6132ba565b509350505050565b6001602082829351865501930191019091613259565b6001198111611307578061334160016133529301846133e4565b5161334c82856133e4565b52612a4e565b613236565b600160208192855481520193019101909161320e565b9160c0919461339c7f6ad4359fe8e6d536b246aab3e16451ad6a5336cf0f7e9ec2fd6a544d5c5ba7649461236b565b94915091613155565b8580fd5b60405162461bcd60e51b8152602060048201526013602482015272426f6479206e6f7420696e2070726f626c656d60681b6044820152606490fd5b90600a811015612f825760051b0190565b6001168019600111612a5d576000199060010180151581830460051116612a5d576005026002198111612a5d57600201806103e89204821181151516612a5d570290565b604051906134468261237f565b816101406000918281528260208201528260408201528260608201528260808201528260a08201528260c08201528260e082015282610100820152826101208201520152565b613494613439565b5061349d613439565b90806101408301526134ae816133f5565b9060014310612a5d57604090815160208101918252600019430140838201528281526134d9816123b9565b5190209080516020810191838352602082528082019082821067ffffffffffffffff8311176105e65752620f4240918291519020069106606084015260808301526127108060a084015260c083015260e082015290565b1561353757565b60405162461bcd60e51b815260206004820152601460248201527313db9b1e4814dbdb1d995c8818d85b8818d85b1b60621b6044820152606490fdfeb08889abce443443404b2caf69aa3ccfb9ebfdf1ad2a634d06e11e24c1067938a26469706673582212204f9cfe9462c3eea5caaf1e5ea4f2efbe78fa1cfa6fd353f7bd7029354b5eba4364736f6c634300080f0033",
  "linkReferences": {},
  "deployedLinkReferences": {}
}