{
  "_format": "hh-sol-artifact-1",
  "contractName": "Problems",
  "sourceName": "contracts/Problems.sol",
  "abi": [
    {
      "inputs": [
        {
          "internalType": "address",
          "name": "problemMetadata_",
          "type": "address"
        },
        {
          "internalType": "address[]",
          "name": "verifiers_",
          "type": "address[]"
        },
        {
          "internalType": "uint256[]",
          "name": "verifiersTicks",
          "type": "uint256[]"
        },
        {
          "internalType": "uint256[]",
          "name": "verifiersBodies",
          "type": "uint256[]"
        }
      ],
      "stateMutability": "nonpayable",
      "type": "constructor"
    },
    {
      "anonymous": false,
      "inputs": [
        {
          "indexed": true,
          "internalType": "address",
          "name": "owner",
          "type": "address"
        },
        {
          "indexed": true,
          "internalType": "address",
          "name": "approved",
          "type": "address"
        },
        {
          "indexed": true,
          "internalType": "uint256",
          "name": "tokenId",
          "type": "uint256"
        }
      ],
      "name": "Approval",
      "type": "event"
    },
    {
      "anonymous": false,
      "inputs": [
        {
          "indexed": true,
          "internalType": "address",
          "name": "owner",
          "type": "address"
        },
        {
          "indexed": true,
          "internalType": "address",
          "name": "operator",
          "type": "address"
        },
        {
          "indexed": false,
          "internalType": "bool",
          "name": "approved",
          "type": "bool"
        }
      ],
      "name": "ApprovalForAll",
      "type": "event"
    },
    {
      "anonymous": false,
      "inputs": [
        {
          "indexed": true,
          "internalType": "address",
          "name": "to",
          "type": "address"
        },
        {
          "indexed": true,
          "internalType": "bool",
          "name": "success",
          "type": "bool"
        },
        {
          "indexed": false,
          "internalType": "bytes",
          "name": "returnData",
          "type": "bytes"
        },
        {
          "indexed": false,
          "internalType": "uint256",
          "name": "amount",
          "type": "uint256"
        }
      ],
      "name": "EthMoved",
      "type": "event"
    },
    {
      "anonymous": false,
      "inputs": [
        {
          "indexed": true,
          "internalType": "address",
          "name": "previousOwner",
          "type": "address"
        },
        {
          "indexed": true,
          "internalType": "address",
          "name": "newOwner",
          "type": "address"
        }
      ],
      "name": "OwnershipTransferred",
      "type": "event"
    },
    {
      "anonymous": false,
      "inputs": [
        {
          "indexed": true,
          "internalType": "address",
          "name": "from",
          "type": "address"
        },
        {
          "indexed": true,
          "internalType": "address",
          "name": "to",
          "type": "address"
        },
        {
          "indexed": true,
          "internalType": "uint256",
          "name": "tokenId",
          "type": "uint256"
        }
      ],
      "name": "Transfer",
      "type": "event"
    },
    {
      "anonymous": false,
      "inputs": [
        {
          "indexed": false,
          "internalType": "uint256",
          "name": "problemId",
          "type": "uint256"
        },
        {
          "indexed": false,
          "internalType": "uint256",
          "name": "bodyId",
          "type": "uint256"
        },
        {
          "indexed": false,
          "internalType": "uint256",
          "name": "mintedBodyIndex",
          "type": "uint256"
        },
        {
          "indexed": false,
          "internalType": "uint256",
          "name": "tick",
          "type": "uint256"
        },
        {
          "indexed": false,
          "internalType": "uint256",
          "name": "px",
          "type": "uint256"
        },
        {
          "indexed": false,
          "internalType": "uint256",
          "name": "py",
          "type": "uint256"
        },
        {
          "indexed": false,
          "internalType": "uint256",
          "name": "radius",
          "type": "uint256"
        },
        {
          "indexed": false,
          "internalType": "bytes32",
          "name": "seed",
          "type": "bytes32"
        }
      ],
      "name": "bodyAdded",
      "type": "event"
    },
    {
      "anonymous": false,
      "inputs": [
        {
          "indexed": false,
          "internalType": "uint256",
          "name": "problemId",
          "type": "uint256"
        },
        {
          "indexed": false,
          "internalType": "uint256",
          "name": "tick",
          "type": "uint256"
        },
        {
          "indexed": false,
          "internalType": "uint256",
          "name": "bodyId",
          "type": "uint256"
        },
        {
          "indexed": false,
          "internalType": "bytes32",
          "name": "seed",
          "type": "bytes32"
        }
      ],
      "name": "bodyRemoved",
      "type": "event"
    },
    {
      "inputs": [],
      "name": "MAX_BODY_COUNT",
      "outputs": [
        {
          "internalType": "uint256",
          "name": "",
          "type": "uint256"
        }
      ],
      "stateMutability": "view",
      "type": "function"
    },
    {
      "inputs": [],
      "name": "SECONDS_IN_A_DAY",
      "outputs": [
        {
          "internalType": "uint256",
          "name": "",
          "type": "uint256"
        }
      ],
      "stateMutability": "view",
      "type": "function"
    },
    {
      "inputs": [
        {
          "internalType": "address",
          "name": "recipient",
          "type": "address"
        }
      ],
      "name": "adminMint",
      "outputs": [],
      "stateMutability": "nonpayable",
      "type": "function"
    },
    {
      "inputs": [
        {
          "internalType": "address",
          "name": "to",
          "type": "address"
        },
        {
          "internalType": "uint256",
          "name": "tokenId",
          "type": "uint256"
        }
      ],
      "name": "approve",
      "outputs": [],
      "stateMutability": "nonpayable",
      "type": "function"
    },
    {
      "inputs": [
        {
          "internalType": "address",
          "name": "owner",
          "type": "address"
        }
      ],
      "name": "balanceOf",
      "outputs": [
        {
          "internalType": "uint256",
          "name": "",
          "type": "uint256"
        }
      ],
      "stateMutability": "view",
      "type": "function"
    },
    {
      "inputs": [],
      "name": "bodies",
      "outputs": [
        {
          "internalType": "address",
          "name": "",
          "type": "address"
        }
      ],
      "stateMutability": "view",
      "type": "function"
    },
    {
      "inputs": [],
      "name": "currentDay",
      "outputs": [
        {
          "internalType": "uint256",
          "name": "",
          "type": "uint256"
        }
      ],
      "stateMutability": "view",
      "type": "function"
    },
    {
      "inputs": [
        {
          "internalType": "bytes32",
          "name": "seed",
          "type": "bytes32"
        }
      ],
      "name": "genRadius",
      "outputs": [
        {
          "internalType": "uint256",
          "name": "",
          "type": "uint256"
        }
      ],
      "stateMutability": "pure",
      "type": "function"
    },
    {
      "inputs": [
        {
          "internalType": "uint256",
          "name": "tokenId",
          "type": "uint256"
        }
      ],
      "name": "getApproved",
      "outputs": [
        {
          "internalType": "address",
          "name": "",
          "type": "address"
        }
      ],
      "stateMutability": "view",
      "type": "function"
    },
    {
      "inputs": [
        {
          "internalType": "uint256",
          "name": "day",
          "type": "uint256"
        },
        {
          "internalType": "uint256",
          "name": "mintedBodiesIndex",
          "type": "uint256"
        },
        {
          "internalType": "uint256",
          "name": "bodyIndex",
          "type": "uint256"
        }
      ],
      "name": "getLevelSeed",
      "outputs": [
        {
          "internalType": "bytes32",
          "name": "",
          "type": "bytes32"
        }
      ],
      "stateMutability": "pure",
      "type": "function"
    },
    {
      "inputs": [
        {
          "internalType": "uint256",
          "name": "problemId",
          "type": "uint256"
        },
        {
          "internalType": "uint256",
          "name": "bodyId",
          "type": "uint256"
        }
      ],
      "name": "getProblemBodyData",
      "outputs": [
        {
          "components": [
            {
              "internalType": "uint256",
              "name": "bodyId",
              "type": "uint256"
            },
            {
              "internalType": "uint256",
              "name": "mintedBodyIndex",
              "type": "uint256"
            },
            {
              "internalType": "uint256",
              "name": "bodyIndex",
              "type": "uint256"
            },
            {
              "internalType": "uint256",
              "name": "px",
              "type": "uint256"
            },
            {
              "internalType": "uint256",
              "name": "py",
              "type": "uint256"
            },
            {
              "internalType": "uint256",
              "name": "vx",
              "type": "uint256"
            },
            {
              "internalType": "uint256",
              "name": "vy",
              "type": "uint256"
            },
            {
              "internalType": "uint256",
              "name": "radius",
              "type": "uint256"
            },
            {
              "internalType": "bytes32",
              "name": "seed",
              "type": "bytes32"
            }
          ],
          "internalType": "struct Problems.Body",
          "name": "",
          "type": "tuple"
        }
      ],
      "stateMutability": "view",
      "type": "function"
    },
    {
      "inputs": [
        {
          "internalType": "uint256",
          "name": "problemId",
          "type": "uint256"
        }
      ],
      "name": "getProblemBodyIds",
      "outputs": [
        {
          "internalType": "uint256[10]",
          "name": "",
          "type": "uint256[10]"
        }
      ],
      "stateMutability": "view",
      "type": "function"
    },
    {
      "inputs": [
        {
          "internalType": "uint256",
          "name": "problemId",
          "type": "uint256"
        }
      ],
      "name": "getProblemMintedBodiesIndex",
      "outputs": [
        {
          "internalType": "uint256",
          "name": "",
          "type": "uint256"
        }
      ],
      "stateMutability": "view",
      "type": "function"
    },
    {
      "inputs": [
        {
          "internalType": "bytes32",
          "name": "rand",
          "type": "bytes32"
        },
        {
          "internalType": "uint256",
          "name": "bodyIndex",
          "type": "uint256"
        }
      ],
      "name": "getRandomValues",
      "outputs": [
        {
          "components": [
            {
              "internalType": "uint256",
              "name": "bodyId",
              "type": "uint256"
            },
            {
              "internalType": "uint256",
              "name": "mintedBodyIndex",
              "type": "uint256"
            },
            {
              "internalType": "uint256",
              "name": "bodyIndex",
              "type": "uint256"
            },
            {
              "internalType": "uint256",
              "name": "px",
              "type": "uint256"
            },
            {
              "internalType": "uint256",
              "name": "py",
              "type": "uint256"
            },
            {
              "internalType": "uint256",
              "name": "vx",
              "type": "uint256"
            },
            {
              "internalType": "uint256",
              "name": "vy",
              "type": "uint256"
            },
            {
              "internalType": "uint256",
              "name": "radius",
              "type": "uint256"
            },
            {
              "internalType": "bytes32",
              "name": "seed",
              "type": "bytes32"
            }
          ],
          "internalType": "struct Problems.Body",
          "name": "",
          "type": "tuple"
        }
      ],
      "stateMutability": "pure",
      "type": "function"
    },
    {
      "inputs": [
        {
          "internalType": "address",
          "name": "owner",
          "type": "address"
        },
        {
          "internalType": "address",
          "name": "operator",
          "type": "address"
        }
      ],
      "name": "isApprovedForAll",
      "outputs": [
        {
          "internalType": "bool",
          "name": "",
          "type": "bool"
        }
      ],
      "stateMutability": "view",
      "type": "function"
    },
    {
      "inputs": [
        {
          "internalType": "uint256",
          "name": "problemId",
          "type": "uint256"
        }
      ],
      "name": "levelUp",
      "outputs": [],
      "stateMutability": "nonpayable",
      "type": "function"
    },
    {
      "inputs": [],
      "name": "maxVector",
      "outputs": [
        {
          "internalType": "uint256",
          "name": "",
          "type": "uint256"
        }
      ],
      "stateMutability": "view",
      "type": "function"
    },
    {
      "inputs": [],
      "name": "mint",
      "outputs": [],
      "stateMutability": "payable",
      "type": "function"
    },
    {
      "inputs": [
        {
          "internalType": "address",
          "name": "recipient",
          "type": "address"
        },
        {
          "internalType": "uint256",
          "name": "quantity",
          "type": "uint256"
        }
      ],
      "name": "mint",
      "outputs": [],
      "stateMutability": "payable",
      "type": "function"
    },
    {
      "inputs": [
        {
          "internalType": "address",
          "name": "recipient",
          "type": "address"
        }
      ],
      "name": "mint",
      "outputs": [],
      "stateMutability": "payable",
      "type": "function"
    },
    {
      "inputs": [],
      "name": "name",
      "outputs": [
        {
          "internalType": "string",
          "name": "",
          "type": "string"
        }
      ],
      "stateMutability": "view",
      "type": "function"
    },
    {
      "inputs": [],
      "name": "owner",
      "outputs": [
        {
          "internalType": "address",
          "name": "",
          "type": "address"
        }
      ],
      "stateMutability": "view",
      "type": "function"
    },
    {
      "inputs": [
        {
          "internalType": "uint256",
          "name": "tokenId",
          "type": "uint256"
        }
      ],
      "name": "ownerOf",
      "outputs": [
        {
          "internalType": "address",
          "name": "",
          "type": "address"
        }
      ],
      "stateMutability": "view",
      "type": "function"
    },
    {
      "inputs": [],
      "name": "paused",
      "outputs": [
        {
          "internalType": "bool",
          "name": "",
          "type": "bool"
        }
      ],
      "stateMutability": "view",
      "type": "function"
    },
    {
      "inputs": [],
      "name": "price",
      "outputs": [
        {
          "internalType": "uint256",
          "name": "",
          "type": "uint256"
        }
      ],
      "stateMutability": "view",
      "type": "function"
    },
    {
      "inputs": [],
      "name": "problemMetadata",
      "outputs": [
        {
          "internalType": "address",
          "name": "",
          "type": "address"
        }
      ],
      "stateMutability": "view",
      "type": "function"
    },
    {
      "inputs": [],
      "name": "problemSupply",
      "outputs": [
        {
          "internalType": "uint256",
          "name": "",
          "type": "uint256"
        }
      ],
      "stateMutability": "view",
      "type": "function"
    },
    {
      "inputs": [
        {
          "internalType": "uint256",
          "name": "",
          "type": "uint256"
        }
      ],
      "name": "problems",
      "outputs": [
        {
          "internalType": "bool",
          "name": "solved",
          "type": "bool"
        },
        {
          "internalType": "bytes32",
          "name": "seed",
          "type": "bytes32"
        },
        {
          "internalType": "uint256",
          "name": "day",
          "type": "uint256"
        },
        {
          "internalType": "uint256",
          "name": "bodyCount",
          "type": "uint256"
        },
        {
          "internalType": "uint256",
          "name": "mintedBodiesIndex",
          "type": "uint256"
        },
        {
          "internalType": "uint256",
          "name": "tickCount",
          "type": "uint256"
        }
      ],
      "stateMutability": "view",
      "type": "function"
    },
    {
      "inputs": [],
      "name": "proceedRecipient",
      "outputs": [
        {
          "internalType": "address",
          "name": "",
          "type": "address"
        }
      ],
      "stateMutability": "view",
      "type": "function"
    },
    {
      "inputs": [
        {
          "internalType": "address payable",
          "name": "_to",
          "type": "address"
        }
      ],
      "name": "recoverUnsuccessfulMintPayment",
      "outputs": [],
      "stateMutability": "nonpayable",
      "type": "function"
    },
    {
      "inputs": [],
      "name": "renounceOwnership",
      "outputs": [],
      "stateMutability": "nonpayable",
      "type": "function"
    },
    {
      "inputs": [
        {
          "internalType": "uint256",
          "name": "problemId",
          "type": "uint256"
        }
      ],
      "name": "restoreRadius",
      "outputs": [],
      "stateMutability": "nonpayable",
      "type": "function"
    },
    {
      "inputs": [
        {
          "internalType": "address",
          "name": "from",
          "type": "address"
        },
        {
          "internalType": "address",
          "name": "to",
          "type": "address"
        },
        {
          "internalType": "uint256",
          "name": "tokenId",
          "type": "uint256"
        }
      ],
      "name": "safeTransferFrom",
      "outputs": [],
      "stateMutability": "nonpayable",
      "type": "function"
    },
    {
      "inputs": [
        {
          "internalType": "address",
          "name": "from",
          "type": "address"
        },
        {
          "internalType": "address",
          "name": "to",
          "type": "address"
        },
        {
          "internalType": "uint256",
          "name": "tokenId",
          "type": "uint256"
        },
        {
          "internalType": "bytes",
          "name": "data",
          "type": "bytes"
        }
      ],
      "name": "safeTransferFrom",
      "outputs": [],
      "stateMutability": "nonpayable",
      "type": "function"
    },
    {
      "inputs": [],
      "name": "scalingFactor",
      "outputs": [
        {
          "internalType": "uint256",
          "name": "",
          "type": "uint256"
        }
      ],
      "stateMutability": "view",
      "type": "function"
    },
    {
      "inputs": [
        {
          "internalType": "address",
          "name": "operator",
          "type": "address"
        },
        {
          "internalType": "bool",
          "name": "approved",
          "type": "bool"
        }
      ],
      "name": "setApprovalForAll",
      "outputs": [],
      "stateMutability": "nonpayable",
      "type": "function"
    },
    {
      "inputs": [],
      "name": "solver",
      "outputs": [
        {
          "internalType": "address",
          "name": "",
          "type": "address"
        }
      ],
      "stateMutability": "view",
      "type": "function"
    },
    {
      "inputs": [],
      "name": "startDate",
      "outputs": [
        {
          "internalType": "uint256",
          "name": "",
          "type": "uint256"
        }
      ],
      "stateMutability": "view",
      "type": "function"
    },
    {
      "inputs": [],
      "name": "startingRadius",
      "outputs": [
        {
          "internalType": "uint256",
          "name": "",
          "type": "uint256"
        }
      ],
      "stateMutability": "view",
      "type": "function"
    },
    {
      "inputs": [
        {
          "internalType": "bytes4",
          "name": "interfaceId",
          "type": "bytes4"
        }
      ],
      "name": "supportsInterface",
      "outputs": [
        {
          "internalType": "bool",
          "name": "",
          "type": "bool"
        }
      ],
      "stateMutability": "view",
      "type": "function"
    },
    {
      "inputs": [],
      "name": "symbol",
      "outputs": [
        {
          "internalType": "string",
          "name": "",
          "type": "string"
        }
      ],
      "stateMutability": "view",
      "type": "function"
    },
    {
      "inputs": [
        {
          "internalType": "uint256",
          "name": "id",
          "type": "uint256"
        }
      ],
      "name": "tokenURI",
      "outputs": [
        {
          "internalType": "string",
          "name": "",
          "type": "string"
        }
      ],
      "stateMutability": "view",
      "type": "function"
    },
    {
      "inputs": [
        {
          "internalType": "address",
          "name": "from",
          "type": "address"
        },
        {
          "internalType": "address",
          "name": "to",
          "type": "address"
        },
        {
          "internalType": "uint256",
          "name": "tokenId",
          "type": "uint256"
        }
      ],
      "name": "transferFrom",
      "outputs": [],
      "stateMutability": "nonpayable",
      "type": "function"
    },
    {
      "inputs": [
        {
          "internalType": "address",
          "name": "newOwner",
          "type": "address"
        }
      ],
      "name": "transferOwnership",
      "outputs": [],
      "stateMutability": "nonpayable",
      "type": "function"
    },
    {
      "inputs": [
        {
          "internalType": "address",
          "name": "bodies_",
          "type": "address"
        }
      ],
      "name": "updateBodiesAddress",
      "outputs": [],
      "stateMutability": "nonpayable",
      "type": "function"
    },
    {
      "inputs": [
        {
          "internalType": "bool",
          "name": "paused_",
          "type": "bool"
        }
      ],
      "name": "updatePaused",
      "outputs": [],
      "stateMutability": "nonpayable",
      "type": "function"
    },
    {
      "inputs": [
        {
          "internalType": "uint256",
          "name": "price_",
          "type": "uint256"
        }
      ],
      "name": "updatePrice",
      "outputs": [],
      "stateMutability": "nonpayable",
      "type": "function"
    },
    {
      "inputs": [
        {
          "internalType": "uint256",
          "name": "problemId",
          "type": "uint256"
        },
        {
          "internalType": "uint256",
          "name": "bodyId",
          "type": "uint256"
        },
        {
          "components": [
            {
              "internalType": "uint256",
              "name": "bodyId",
              "type": "uint256"
            },
            {
              "internalType": "uint256",
              "name": "mintedBodyIndex",
              "type": "uint256"
            },
            {
              "internalType": "uint256",
              "name": "bodyIndex",
              "type": "uint256"
            },
            {
              "internalType": "uint256",
              "name": "px",
              "type": "uint256"
            },
            {
              "internalType": "uint256",
              "name": "py",
              "type": "uint256"
            },
            {
              "internalType": "uint256",
              "name": "vx",
              "type": "uint256"
            },
            {
              "internalType": "uint256",
              "name": "vy",
              "type": "uint256"
            },
            {
              "internalType": "uint256",
              "name": "radius",
              "type": "uint256"
            },
            {
              "internalType": "bytes32",
              "name": "seed",
              "type": "bytes32"
            }
          ],
          "internalType": "struct Problems.Body",
          "name": "body",
          "type": "tuple"
        }
      ],
      "name": "updateProblemBody",
      "outputs": [],
      "stateMutability": "nonpayable",
      "type": "function"
    },
    {
      "inputs": [
        {
          "internalType": "uint256",
          "name": "problemId",
          "type": "uint256"
        },
        {
          "internalType": "uint256",
          "name": "bodyCount",
          "type": "uint256"
        }
      ],
      "name": "updateProblemBodyCount",
      "outputs": [],
      "stateMutability": "nonpayable",
      "type": "function"
    },
    {
      "inputs": [
        {
          "internalType": "uint256",
          "name": "problemId",
          "type": "uint256"
        },
        {
          "internalType": "uint256[10]",
          "name": "bodyIds",
          "type": "uint256[10]"
        }
      ],
      "name": "updateProblemBodyIds",
      "outputs": [],
      "stateMutability": "nonpayable",
      "type": "function"
    },
    {
      "inputs": [
        {
          "internalType": "address",
          "name": "problemMetadata_",
          "type": "address"
        }
      ],
      "name": "updateProblemMetadataAddress",
      "outputs": [],
      "stateMutability": "nonpayable",
      "type": "function"
    },
    {
      "inputs": [
        {
          "internalType": "uint256",
          "name": "problemId",
          "type": "uint256"
        },
        {
          "internalType": "uint256",
          "name": "tickCount",
          "type": "uint256"
        }
      ],
      "name": "updateProblemTickCount",
      "outputs": [],
      "stateMutability": "nonpayable",
      "type": "function"
    },
    {
      "inputs": [
        {
          "internalType": "address",
          "name": "proceedRecipient_",
          "type": "address"
        }
      ],
      "name": "updateProceedRecipientAddress",
      "outputs": [],
      "stateMutability": "nonpayable",
      "type": "function"
    },
    {
      "inputs": [
        {
          "internalType": "address",
          "name": "solver_",
          "type": "address"
        }
      ],
      "name": "updateSolverAddress",
      "outputs": [],
      "stateMutability": "nonpayable",
      "type": "function"
    },
    {
      "inputs": [
        {
          "internalType": "uint256",
          "name": "startDate_",
          "type": "uint256"
        }
      ],
      "name": "updateStartDate",
      "outputs": [],
      "stateMutability": "nonpayable",
      "type": "function"
    },
    {
      "inputs": [
        {
          "internalType": "address",
          "name": "verifier_",
          "type": "address"
        },
        {
          "internalType": "uint256",
          "name": "verifierBodies",
          "type": "uint256"
        },
        {
          "internalType": "uint256",
          "name": "verifierTicks",
          "type": "uint256"
        }
      ],
      "name": "updateVerifier",
      "outputs": [],
      "stateMutability": "nonpayable",
      "type": "function"
    },
    {
      "inputs": [
        {
          "internalType": "uint256",
          "name": "",
          "type": "uint256"
        },
        {
          "internalType": "uint256",
          "name": "",
          "type": "uint256"
        }
      ],
      "name": "verifiers",
      "outputs": [
        {
          "internalType": "address",
          "name": "",
          "type": "address"
        }
      ],
      "stateMutability": "view",
      "type": "function"
    },
    {
      "inputs": [],
      "name": "windowWidth",
      "outputs": [
        {
          "internalType": "uint256",
          "name": "",
          "type": "uint256"
        }
      ],
      "stateMutability": "view",
      "type": "function"
    },
    {
      "stateMutability": "payable",
      "type": "receive"
    }
  ],
  "bytecode": "0x6040608081523462000550576200324d90813803806200001f8162000590565b938439820160808382031262000550576200003a83620005b6565b92602091828201519260018060401b03938481116200055057830191601f9381858501121562000550578351936200007c6200007686620005cb565b62000590565b94848087838152019160051b83010191848311620005505785809101915b83831062000555575050505086810151868111620005505782620000c0918301620005e3565b9160608201518781116200055057620000da9201620005e3565b91620000e562000570565b95600f908188526e416e79626f64792050726f626c656d60881b838901526200010d62000570565b966003885262414e5960e81b848901528851978289116200053a5760009889549a60019b8c81811c911680156200052f575b888210146200051b57908185849311620004c8575b5087908583116001146200045b578c926200044f575b5050600019600383901b1c1916908b1b1789555b80519283116200043b5789548a81811c9116801562000430575b868210146200041c5790818385949311620003c7575b50859183116001146200036357899262000357575b5050600019600383901b1c191690881b1787555b6006549860018060a01b03199533878c161760065589519a60018060a01b039283918d7f8be0079c531659141344cd1fd0a4f28419497f9722a3daafe3b4186f6b6457e08c8533941692a389600755662386f26fc10000600d55169a8b15620003155750889a3388600c541617600c5587600b541617600b55879a5b62000268575b8951612ba19081620006ac8239f35b80518b10156200030f576200028b620002828c8762000640565b5115156200066b565b620002a6826200029c8d8462000640565b511615156200066b565b81620002b38c8362000640565b5116620002c18c8862000640565b5189528385528a8920620002d68d8862000640565b518a5285528a892090888254161790556000198b14620002fb57998801998862000253565b634e487b7160e01b88526011600452602488fd5b62000259565b62461bcd60e51b815260048101859052601760248201527f496e76616c69642070726f626c656d4d657461646174610000000000000000006044820152606490fd5b015190503880620001c3565b8a8a52858a208b94509190601f1984168b5b88828210620003b0575050841162000396575b505050811b018755620001d7565b015160001960f88460031b161c1916905538808062000388565b8385015186558e9790950194938401930162000375565b909192508a8a52858a208380860160051c82019288871062000412575b9186958e929594930160051c01915b82811062000403575050620001ae565b8c81558695508d9101620003f3565b92508192620003e4565b634e487b7160e01b8a52602260045260248afd5b90607f169062000198565b634e487b7160e01b89526041600452602489fd5b0151905038806200016a565b8c8052888d208e94509190601f1984168e5b8b828210620004a857505084116200048e575b505050811b0189556200017e565b015160001960f88460031b161c1916905538808062000480565b91929395968291958786015181550195019301908f95949392916200046d565b9091508b8052878c208580850160051c8201928a861062000511575b918f91869594930160051c01915b8281106200050257505062000154565b8e81558594508f9101620004f2565b92508192620004e4565b634e487b7160e01b8c52602260045260248cfd5b90607f16906200013f565b634e487b7160e01b600052604160045260246000fd5b600080fd5b81906200056284620005b6565b81520191019085906200009a565b60408051919082016001600160401b038111838210176200053a57604052565b6040519190601f01601f191682016001600160401b038111838210176200053a57604052565b51906001600160a01b03821682036200055057565b6001600160401b0381116200053a5760051b60200190565b9080601f830112156200055057815190620006026200007683620005cb565b9182938184526020808095019260051b82010192831162000550578301905b82821062000630575050505090565b8151815290830190830162000621565b8051821015620006555760209160051b010190565b634e487b7160e01b600052603260045260246000fd5b156200067357565b60405162461bcd60e51b815260206004820152601060248201526f24b73b30b634b2103b32b934b334b2b960811b6044820152606490fdfe60406080815260049081361015610028575b5050361561001e57600080fd5b6100266123c7565b005b600091823560e01c908163010fdfd514611c3e57816301ffc9a714611bd057816304b24e8514611b9957816305ee7fa014611b5857816306fdde0314611a8d578163081812fc14611a6d5781630825ea8d146119c757816308cdc2a814611981578163095ea7b3146118125781630b27ce3f146117e95781630b97bc86146117ca5781630bdaaaca146117aa5781630ce90ec2146113e45781631249c58b146113cf57816318d94793146113ad57816320a286d01461138e57816323b872dd146113635781632b057afa1461130b578163306da04f146112e257816334e5e492146112b957816335d6f0cc1461128e5781633ef2570b1461126657816340847284146111d857816340c10f191461102c57816342842e0e14610fdd57816343569ffb14610fa657816349a7a26d14610f7d5781634b9862d914610f6157816353e52f091461083d5781635c9302c914610f3d5781635c975abb14610f165781636282eff514610ed55781636352211e14610ea45781636a62784214610d3457816370a0823114610c9e578163715018a614610c3e5781637696d9ff14610bfd578163872d7e4814610bc65781638d6cc56d14610ba45781638da5cb5b14610b7b578163934317b114610b5257816395d89b4114610a3c5781639769dc0e146109cb578163a035b1fe146109ac578163a22cb465146108dc578163b88d4fde14610850578163b97374371461083d578163c09fd8ef146107c9578163c31f5d6a1461072e578163c87b56dd14610637578163de4318fc14610598578163e985e9c51461054a578163e9d903b114610437578163eba4f366146103d4578163ed3437f8146103b7578163f2fde38b146102ec57508063f81c8ec3146102cf5763f9cfa06f0361001157346102cb57816003193601126102cb5760209051620151808152f35b5080fd5b50346102cb57816003193601126102cb5760209051620f42408152f35b9050346103b35760203660031901126103b357610307611c7f565b61030f611e97565b6001600160a01b03908116918215610361575060065492826001600160601b0360a01b8516176006555192167f8be0079c531659141344cd1fd0a4f28419497f9722a3daafe3b4186f6b6457e08484a3f35b608490602085519162461bcd60e51b8352820152602660248201527f4f776e61626c653a206e6577206f776e657220697320746865207a65726f206160448201526564647265737360d01b6064820152fd5b8280fd5b5050346102cb57816003193601126102cb57602090516103e88152f35b919050346103b35760203660031901126103b3578060c09383358152600e6020522060ff815416926001820154926002830154906010600385015493850154940154948151961515875260208701528501526060840152608083015260a0820152f35b9050346103b3576101603660031901126103b357610120908160431936011261054657825191820182811067ffffffffffffffff8211176105335760089185918552604435845260208401906064358252858501906084358252606086019060a43582526080870160c435815260a088019260e435845260c089019461010435865260e08a019661012435885260058c6101008d019a610144358c526104e860018060a01b03600a54163314612b08565b87358152600e60205220018d60243590526020528b8d209a518b555160018b01555160028a015551600389015551908701555160058601555160068501555160078401555191015551f35b634e487b7160e01b855260418252602485fd5b8380fd5b5050346102cb57806003193601126102cb5760ff8160209361056a611c7f565b610572611c9a565b6001600160a01b0391821683526005875283832091168252855220549151911615158152f35b9050346103b3576101603660031901126103b35736604312156103b35781516105c081611e04565b61016481368211610633576024905b82821061062357505050600a916105f060018060a01b038454163314612b08565b3584526020600e815260068486200185925b84841061060e57868651f35b60018382829351855501920193019290610602565b81358152602091820191016105cf565b8580fd5b919050346103b3576020918260031936011261054657600b5482516351a35b5560e01b81528235928101929092528490829060249082906001600160a01b03165afa9384156107235780946106a0575b505061069c9051928284938452830190611cfb565b0390f35b909193503d8082843e6106b38184611e59565b82019183818403126102cb5780519067ffffffffffffffff82116103b3570182601f820112156102cb578051916106e983611e7b565b936106f687519586611e59565b8385528584840101116107205750829161071891858061069c96019101611cc6565b929038610687565b80fd5b8251903d90823e3d90fd5b919050346103b35760088161069c9461074636611cb0565b9061074f612a15565b508252600e6020526005838320019082526020522082519361077085611dd1565b8154855260018201546020860152600282015484860152600382015460608601528101546080850152600581015460a0850152600681015460c0850152600781015460e085015201546101008301525191829182611d55565b9050346103b35760203660031901126103b357356001600160a01b038116908190036103b3576107f7611e97565b4790600080516020612b4c83398151915261082e858080875187875af161081c612277565b90865192839288845288840190611cfb565b9560208301521515940390a351f35b50505050610849611db4565b3880610011565b9050346103b35760803660031901126103b35761086b611c7f565b90610874611c9a565b916064359167ffffffffffffffff831161063357366023840112156106335782013592856108a185611e7b565b936108ae87519586611e59565b85855236602487830101116102cb57856108d996602460209301838801378501015260443591612001565b51f35b9050346103b357816003193601126103b3576108f6611c7f565b602435908115158092036109a8576001600160a01b0316913383146109655750338452600560205282842082855260205282842060ff1981541660ff831617905582519081527f17307eab39ab6107e8899845ad3d59bd9653f200f220920489ca2b5937696c3160203392a351f35b606490602085519162461bcd60e51b8352820152601960248201527f4552433732313a20617070726f766520746f2063616c6c6572000000000000006044820152fd5b8480fd5b5050346102cb57816003193601126102cb57602090600d549051908152f35b5050346102cb5760203660031901126102cb576108d96109e9611c7f565b600a54610a2f906001600160a01b0390610a069082161515612509565b610a1581600954161515612509565b610a2481600b54161515612509565b600c54161515612509565b610a37611e97565b6125a1565b8284346107205780600319360112610720578151918160019283549384811c91818616958615610b48575b6020968785108114610b35578899509688969785829a529182600014610b0e575050600114610ab3575b50505061069c9291610aa4910385611e59565b51928284938452830190611cfb565b91908693508083527fb10e2d527612073b26eecdfd717e6a320cf44b4afac2b0732d9fcbe2b7fa0cf65b828410610af65750505082010181610aa461069c610a91565b8054848a018601528895508794909301928101610add565b60ff19168782015293151560051b86019093019350849250610aa4915061069c9050610a91565b634e487b7160e01b835260228a52602483fd5b92607f1692610a67565b5050346102cb57816003193601126102cb57600b5490516001600160a01b039091168152602090f35b5050346102cb57816003193601126102cb5760065490516001600160a01b039091168152602090f35b9050346103b35760203660031901126103b357610bbf611e97565b35600d5551f35b5050346102cb57610bd636611cb0565b90610bec60018060a01b03600a54163314612b08565b8352600e6020526003828420015551f35b5050346102cb5760203660031901126102cb57610c18611c7f565b610c20611e97565b60018060a01b03166001600160601b0360a01b600a541617600a5551f35b5050346102cb57816003193601126102cb57610c58611e97565b600680546001600160a01b0319811690915590519082906001600160a01b03167f8be0079c531659141344cd1fd0a4f28419497f9722a3daafe3b4186f6b6457e08284a3f35b839150346102cb5760203660031901126102cb576001600160a01b03610cc2611c7f565b16908115610cdf5760208480858581526003845220549051908152f35b608490602085519162461bcd60e51b8352820152602960248201527f4552433732313a2061646472657373207a65726f206973206e6f7420612076616044820152683634b21037bbb732b960b91b6064820152fd5b905060203660031901126103b357610d4a611c7f565b600a5490916001600160a01b03918216151590610d6682612509565b610dab8360095416151592610d7a84612509565b610da685600b54161515610d8d81612509565b610da687600c541696610da688151595610da687612509565b612509565b610dbd60ff60065460a01c1615612547565b6007544210610e7357600d543403610e4057508480809286519034905af190600080516020612b4c833981519152610e0d610df6612277565b92600c541692865191829188835288830190611cfb565b943460208301521515940390a3825b60018110610e2957505051f35b610e3b90610e36836125a1565b61257c565b610e1c565b606490602086519162461bcd60e51b8352820152600d60248201526c496e76616c696420707269636560981b6044820152fd5b606490602086519162461bcd60e51b8352820152600b60248201526a139bdd081cdd185c9d195960aa1b6044820152fd5b8284346107205760203660031901126107205750610ec460209235611f3b565b90516001600160a01b039091168152f35b5050346102cb5760203660031901126102cb57610ef0611c7f565b610ef8611e97565b60018060a01b03166001600160601b0360a01b600c541617600c5551f35b5050346102cb57816003193601126102cb5760209060ff60065460a01c1690519015158152f35b5050346102cb57816003193601126102cb57602090610f5a61239f565b9051908152f35b5050346102cb57816003193601126102cb5760209051600a8152f35b5050346102cb57816003193601126102cb57600a5490516001600160a01b039091168152602090f35b5050346102cb57602091610fb936611cb0565b908252600f845282822090825283528190205490516001600160a01b039091168152f35b8383346102cb57610fed36611d20565b908351926020840184811067ffffffffffffffff82111761101957856108d99697985052868452612001565b634e487b7160e01b875260418852602487fd5b9050816003193601126103b357611041611c7f565b600a54602435926001600160a01b039161105e9083161515612509565b61106d82600954161515612509565b61107c82600b54161515612509565b81600c54169061108d821515612509565b600585116111ad576110a760ff60065460a01c1615612547565b600754421061117c57600d548560001904811186151516611169578502340361113657508580809287519034905af190600080516020612b4c8339815191526111086110f1612277565b92600c541692875191829189835289830190611cfb565b943460208301521515940390a3835b8281106111245750505051f35b61113190610e36836125a1565b611117565b606490602087519162461bcd60e51b8352820152600d60248201526c496e76616c696420707269636560981b6044820152fd5b634e487b7160e01b885260118252602488fd5b606490602087519162461bcd60e51b8352820152600b60248201526a139bdd081cdd185c9d195960aa1b6044820152fd5b606490602087519162461bcd60e51b835282015260056024820152644d6178203560d81b6044820152fd5b8383346102cb576020806003193601126103b35781929151936111fa85611e04565b6101408095369037358252600e81528282208351939060060183855b600a82106112505750505061122a84611e04565b519291835b600a821061123b578585f35b8280600192865181520194019101909261122f565b8254815260019283019291909101908401611216565b8284346107205760603660031901126107205750610f5a602092604435906024359035612982565b828434610720578160031936011261072057506112ae61069c9235612a5a565b905191829182611d55565b9050346103b35760203660031901126103b3578160209382358152600e85522001549051908152f35b5050346102cb57816003193601126102cb5760095490516001600160a01b039091168152602090f35b5050346102cb5760603660031901126102cb57611326611c7f565b61132e611e97565b6024358352600f60205281832060443584526020528183209060018060a01b03166001600160601b0360a01b82541617905551f35b5050346102cb576108d961137636611d20565b91611389611384843361209c565b611f9f565b612164565b5050346102cb57816003193601126102cb576020906008549051908152f35b9050346103b35760203660031901126103b3576113c8611e97565b3560075551f35b5050816003193601126102cb576108d96123c7565b9050346103b35760208060031936011261054657813560018060a01b0361141081600a54163314612b08565b818652600e808452600390600282888a2001541460001461151157838852808552868820805460ff19166001179055875b60028110611453575050505050505051f35b8489528186526114688160068a8c20016129ab565b905490841b1c8985600954169161147e88611f3b565b92803b156103b3578b51637fd9d57b60e01b81526001600160a01b03909416848c01908152602081019290925260408201899052839182908490829060600103925af18015611507576114db575b506114d69061257c565b611441565b67ffffffffffffffff81116114f45788526114d66114cc565b634e487b7160e01b8a526041885260248afd5b89513d8c823e3d90fd5b939294909161152860ff60065460a01c1615612547565b858852848452818789200154906002821015611769579061158d88828b9695948a8861155382611f3b565b92600954169285519687958694859363d395cb1360e01b85528c8501604091949392606082019560018060a01b0316825260208201520152565b03925af196871561175f5788938692879961172a575b50848752818852858b8820015495838c8884828c2060020154928c2001546115ca92612982565b878a52848b526115d990612a5a565b978d6101008a019a8d8c52838b528c8b0199898b528d838d019085825282845289815284842060050190878552528383209b8d518d555160018d01555160028c015560608c019a8b518782015560808d019c8d518983015560a0810151600583015560c0810151600683015560e0019d8e5160078301555190600801558152868d522060060190611669916129ab565b8192915490841b600019811b9283911b169119161790558a8d528289528b8d200180546116959061257c565b9055898c528188528a8c20810180549091600119821161171757506001019055888b528652888a2060100154925193519451895198895295880152868801526060860152608085015260a084015260c083015260e08201527f26c34af247e1ccf098f0cc4e380568ece925088468fc831769e1f757fa3ea02a9061010090a151f35b634e487b7160e01b8e526011905260248dfd5b90985061174e9192508a3d8c11611758575b6117468183611e59565b81019061258b565b91909197386115a3565b503d61173c565b89513d87823e3d90fd5b60648386808b519262461bcd60e51b845283015260248201527f50726f626c656d20616c7265616479206d696e74656420313020626f646965736044820152fd5b8284346107205760203660031901126107205750610f5a602092356129d1565b5050346102cb57816003193601126102cb576020906007549051908152f35b5050346102cb57816003193601126102cb57600c5490516001600160a01b039091168152602090f35b9050346103b357816003193601126103b35761182c611c7f565b602435916001600160a01b0390818061184486611f3b565b1693169280841461193457803314908115611915575b50156118ac5783865260205283852080546001600160a01b0319168317905561188283611f3b565b169251927f8c5be1e5ebec7d5bd14f71427d1e84f3dd0314c0f7b2291e5b200ac8c7c3b9258585a4f35b608490602086519162461bcd60e51b8352820152603d60248201527f4552433732313a20617070726f76652063616c6c6572206973206e6f7420746f60448201527f6b656e206f776e6572206f7220617070726f76656420666f7220616c6c0000006064820152fd5b90508652600560205284862033875260205260ff85872054163861185a565b855162461bcd60e51b8152602081840152602160248201527f4552433732313a20617070726f76616c20746f2063757272656e74206f776e656044820152603960f91b6064820152608490fd5b9050346103b35760203660031901126103b357358015158091036103b3576119a7611e97565b6006805460ff60a01b191660a09290921b60ff60a01b1691909117905551f35b919050346103b357602091826003193601126105465735906119f460018060a01b03600a54163314612b08565b835b828552600e8085526003808488200154831015611a6857908291611a22611a63946006878b20016129ab565b9054911b1c858852818752600580868a2001828a528852611a486008878b2001546129d1565b92878a5288528589200190885286526007848820015561257c565b6119f6565b868451f35b8284346107205760203660031901126107205750610ec460209235611f61565b82843461072057806003193601126107205781519181825492600184811c91818616958615611b4e575b6020968785108114610b35578899509688969785829a529182600014610b0e575050600114611af35750505061069c9291610aa4910385611e59565b91908693508280527f290decd9548b62a8d60345a988386fc84ba6bc95484008f6362f93160ef3e5635b828410611b365750505082010181610aa461069c610a91565b8054848a018601528895508794909301928101611b1d565b92607f1692611ab7565b5050346102cb5760203660031901126102cb57611b73611c7f565b611b7b611e97565b60018060a01b03166001600160601b0360a01b600b541617600b5551f35b5050346102cb57611ba936611cb0565b90611bbf60018060a01b03600a54163314612b08565b8352600e6020526010828420015551f35b9050346103b35760203660031901126103b357359063ffffffff60e01b82168092036103b357602092506380ac58cd60e01b8214918215611c2d575b8215611c1c575b50519015158152f35b6301ffc9a760e01b14915038611c13565b635b5e139f60e01b81149250611c0c565b5050346102cb5760203660031901126102cb57611c59611c7f565b611c61611e97565b60018060a01b03166001600160601b0360a01b600954161760095551f35b600435906001600160a01b0382168203611c9557565b600080fd5b602435906001600160a01b0382168203611c9557565b6040906003190112611c95576004359060243590565b918091926000905b828210611ce6575011611cdf575050565b6000910152565b91508060209183015181860152018291611cce565b90602091611d1481518092818552858086019101611cc6565b601f01601f1916010190565b6060906003190112611c95576001600160a01b03906004358281168103611c9557916024359081168103611c95579060443590565b919091610120810192805182526020810151602083015260408101516040830152606081015160608301526080810151608083015260a081015160a083015260c081015160c083015260e081015160e083015261010080910151910152565b5034611c95576000366003190112611c9557602060405160028152f35b610120810190811067ffffffffffffffff821117611dee57604052565b634e487b7160e01b600052604160045260246000fd5b610140810190811067ffffffffffffffff821117611dee57604052565b6080810190811067ffffffffffffffff821117611dee57604052565b6040810190811067ffffffffffffffff821117611dee57604052565b90601f8019910116810190811067ffffffffffffffff821117611dee57604052565b67ffffffffffffffff8111611dee57601f01601f191660200190565b6006546001600160a01b03163303611eab57565b606460405162461bcd60e51b815260206004820152602060248201527f4f776e61626c653a2063616c6c6572206973206e6f7420746865206f776e65726044820152fd5b15611ef657565b60405162461bcd60e51b815260206004820152601860248201527f4552433732313a20696e76616c696420746f6b656e20494400000000000000006044820152606490fd5b6000908152600260205260409020546001600160a01b0316611f5e811515611eef565b90565b600081815260026020526040902054611f84906001600160a01b03161515611eef565b6000908152600460205260409020546001600160a01b031690565b15611fa657565b60405162461bcd60e51b815260206004820152602d60248201527f4552433732313a2063616c6c6572206973206e6f7420746f6b656e206f776e6560448201526c1c881bdc88185c1c1c9bdd9959609a1b6064820152608490fd5b90612025939291612015611384843361209c565b612020838383612164565b6122a7565b1561202c57565b60405162461bcd60e51b81528061204560048201612049565b0390fd5b60809060208152603260208201527f4552433732313a207472616e7366657220746f206e6f6e20455243373231526560408201527131b2b4bb32b91034b6b83632b6b2b73a32b960711b60608201520190565b906001600160a01b0380806120b084611f3b565b169316918383149384156120e3575b5083156120cd575b50505090565b6120d991929350611f61565b16143880806120c7565b909350600052600560205260406000208260005260205260ff6040600020541692386120bf565b1561211157565b60405162461bcd60e51b815260206004820152602560248201527f4552433732313a207472616e736665722066726f6d20696e636f72726563742060448201526437bbb732b960d91b6064820152608490fd5b9061218c9161217284611f3b565b6001600160a01b039391841692849290918316841461210a565b1691821561222657816121a9916121a286611f3b565b161461210a565b7fddf252ad1be2c89b69c2b068fc378daa952ba7f163c4a11628f55a4df523b3ef60008481526004602052604081206001600160601b0360a01b90818154169055838252600360205260408220600019815401905584825260408220600181540190558582526002602052846040832091825416179055604051a4565b60405162461bcd60e51b8152602060048201526024808201527f4552433732313a207472616e7366657220746f20746865207a65726f206164646044820152637265737360e01b6064820152608490fd5b3d156122a2573d9061228882611e7b565b916122966040519384611e59565b82523d6000602084013e565b606090565b91926000929190813b15612395576020916122fd9185604051958680958194630a85bd0160e11b9b8c845233600485015260018060a01b0380951660248501526044840152608060648401526084830190611cfb565b0393165af19082908261234d575b505061233f57612319612277565b8051908161233a5760405162461bcd60e51b81528061204560048201612049565b602001fd5b6001600160e01b0319161490565b909192506020813d821161238d575b8161236960209383611e59565b810103126102cb5751906001600160e01b031982168203610720575090388061230b565b3d915061235c565b5050505050600190565b6201518042068042106123b157420390565b634e487b7160e01b600052601160045260246000fd5b600a546001600160a01b03906123e09082161515612509565b6123ef81600954161515612509565b6123fe81600b54161515612509565b80600c541661240e811515612509565b61242060ff60065460a01c1615612547565b60075442106124d657600d5434036124a15760008080926040519034905af190600080516020612b4c83398151915261247461245a612277565b92600c541692604051918291604083526040830190611cfb565b943460208301521515940390a360005b6001811061248f5750565b61249c90610e36336125a1565b612484565b60405162461bcd60e51b815260206004820152600d60248201526c496e76616c696420707269636560981b6044820152606490fd5b60405162461bcd60e51b815260206004820152600b60248201526a139bdd081cdd185c9d195960aa1b6044820152606490fd5b1561251057565b60405162461bcd60e51b815260206004820152600f60248201526e139bdd081a5b9a5d1a585b1a5e9959608a1b6044820152606490fd5b1561254e57565b60405162461bcd60e51b815260206004820152600660248201526514185d5cd95960d21b6044820152606490fd5b60001981146123b15760010190565b9190826040910312611c95576020825192015190565b9060086125ae815461257c565b8082556001600160a01b039384169390919084156128f2576000838152600260205260409020546125eb906001600160a01b031615155b15612936565b60008381526002602052604090205461260e906001600160a01b031615156125e5565b600094808652602090600382526040948588206001815401905580885260028352858820826001600160601b0360a01b82541617905581887fddf252ad1be2c89b69c2b068fc378daa952ba7f163c4a11628f55a4df523b3ef818951a461267361239f565b9684548152600e9788845260028783200155845494600143106128de5786519284840195878752600019430140898601528885526060978886019786891067ffffffffffffffff8a11176128ca57858b948a948f946064958795868a528c5190209185528c5260018885200155600954169087549063d395cb1360e01b8552858b015260848a01528160a48a01525af19485156128c0578683948497612885575b50505080549586835289855261275d6002898520015460048a862001548a51908882019283528b820152858482015283815261274f81611e21565b5190208885528b8752612a5a565b9261010098898501958887528086528786018381528d838801908582528c86528a526005848620018386528a528385209188518355516001830155516002820155848701958651600383015560e060808901988951600485015560a0810151600585015560c08101516006850155019889516007840155519101558983528c885280600683852001556003828420016127f6815461257c565b90558983528c88526004828420019c8d549d8e600119106128715760017f26c34af247e1ccf098f0cc4e380568ece925088468fc831769e1f757fa3ea02a9e9f0190558a84528852601082842001549451955196519782519a8b528a0152880152860152608085015260a084015260c083015260e0820152a1565b634e487b7160e01b85526011600452602485fd5b90919296506128ac93945088903d8a116128b8575b6128a48285611e59565b01019061258b565b91909193388681612714565b3d915061289a565b87513d84823e3d90fd5b634e487b7160e01b86526041600452602486fd5b634e487b7160e01b82526011600452602482fd5b606460405162461bcd60e51b815260206004820152602060248201527f4552433732313a206d696e7420746f20746865207a65726f20616464726573736044820152fd5b1561293d57565b60405162461bcd60e51b815260206004820152601c60248201527f4552433732313a20746f6b656e20616c7265616479206d696e746564000000006044820152606490fd5b91604051916020830193845260408301526060820152606081526129a581611e21565b51902090565b600a8210156129bb570190600090565b634e487b7160e01b600052603260045260246000fd5b60011680196001116123b15760001990600101801515818304600511166123b15760050260021981116123b157600201806103e892048211811515166123b1570290565b60405190612a2282611dd1565b816101006000918281528260208201528260408201528260608201528260808201528260a08201528260c08201528260e08201520152565b612a62612a15565b50612a6b612a15565b90612a75816129d1565b60e083015260405190602091828101918252828152612a9381611e3d565b519020620f4240908181066060850152604051838101918252838152612ab881611e3d565b5190209081066080840152604051828101918252828152612ad881611e3d565b5190206127109182820660a0850152604051908082019283528152612afc81611e3d565b5190200660c082015290565b15612b0f57565b60405162461bcd60e51b815260206004820152601460248201527313db9b1e4814dbdb1d995c8818d85b8818d85b1b60621b6044820152606490fdfeb08889abce443443404b2caf69aa3ccfb9ebfdf1ad2a634d06e11e24c1067938a2646970667358221220e7fa888b821fe7b51874f3faf84c54d4e09c12f7b04163b45595819738baca1f64736f6c634300080f0033",
  "linkReferences": {},
  "deployedLinkReferences": {}
}