{
  "_format": "hh-sol-artifact-1",
  "contractName": "Solver",
  "sourceName": "contracts/Solver.sol",
  "abi": [
    {
      "inputs": [
        {
          "internalType": "address payable",
          "name": "problems_",
          "type": "address"
        },
        {
          "internalType": "address",
          "name": "tocks_",
          "type": "address"
        }
      ],
      "stateMutability": "nonpayable",
      "type": "constructor"
    },
    {
      "anonymous": false,
      "inputs": [
        {
          "indexed": true,
          "internalType": "address",
          "name": "previousOwner",
          "type": "address"
        },
        {
          "indexed": true,
          "internalType": "address",
          "name": "newOwner",
          "type": "address"
        }
      ],
      "name": "OwnershipTransferred",
      "type": "event"
    },
    {
      "anonymous": false,
      "inputs": [
        {
          "indexed": true,
          "internalType": "uint256",
          "name": "problemId",
          "type": "uint256"
        },
        {
          "indexed": true,
          "internalType": "uint256",
          "name": "previousTickCount",
          "type": "uint256"
        },
        {
          "indexed": true,
          "internalType": "uint256",
          "name": "tickCount",
          "type": "uint256"
        }
      ],
      "name": "Solved",
      "type": "event"
    },
    {
      "stateMutability": "nonpayable",
      "type": "fallback"
    },
    {
      "inputs": [
        {
          "internalType": "uint256",
          "name": "",
          "type": "uint256"
        }
      ],
      "name": "bodyBoost",
      "outputs": [
        {
          "internalType": "uint256",
          "name": "",
          "type": "uint256"
        }
      ],
      "stateMutability": "view",
      "type": "function"
    },
    {
      "inputs": [],
      "name": "owner",
      "outputs": [
        {
          "internalType": "address",
          "name": "",
          "type": "address"
        }
      ],
      "stateMutability": "view",
      "type": "function"
    },
    {
      "inputs": [],
      "name": "problems",
      "outputs": [
        {
          "internalType": "address payable",
          "name": "",
          "type": "address"
        }
      ],
      "stateMutability": "view",
      "type": "function"
    },
    {
      "inputs": [],
      "name": "renounceOwnership",
      "outputs": [],
      "stateMutability": "nonpayable",
      "type": "function"
    },
    {
      "inputs": [
        {
          "internalType": "uint256",
          "name": "problemId",
          "type": "uint256"
        },
        {
          "internalType": "uint256",
          "name": "tickCount",
          "type": "uint256"
        },
        {
          "internalType": "uint256[2]",
          "name": "a",
          "type": "uint256[2]"
        },
        {
          "internalType": "uint256[2][2]",
          "name": "b",
          "type": "uint256[2][2]"
        },
        {
          "internalType": "uint256[2]",
          "name": "c",
          "type": "uint256[2]"
        },
        {
          "internalType": "uint256[]",
          "name": "input",
          "type": "uint256[]"
        }
      ],
      "name": "solveProblem",
      "outputs": [],
      "stateMutability": "nonpayable",
      "type": "function"
    },
    {
      "inputs": [],
      "name": "tocks",
      "outputs": [
        {
          "internalType": "address",
          "name": "",
          "type": "address"
        }
      ],
      "stateMutability": "view",
      "type": "function"
    },
    {
      "inputs": [
        {
          "internalType": "address",
          "name": "newOwner",
          "type": "address"
        }
      ],
      "name": "transferOwnership",
      "outputs": [],
      "stateMutability": "nonpayable",
      "type": "function"
    },
    {
      "inputs": [
        {
          "internalType": "address payable",
          "name": "problems_",
          "type": "address"
        }
      ],
      "name": "updateProblemsAddress",
      "outputs": [],
      "stateMutability": "nonpayable",
      "type": "function"
    },
    {
      "inputs": [
        {
          "internalType": "address",
          "name": "tocks_",
          "type": "address"
        }
      ],
      "name": "updateTocksAddress",
      "outputs": [],
      "stateMutability": "nonpayable",
      "type": "function"
    }
  ],
  "bytecode": "0x6080346101615762001b7c906001600160401b03601f38849003908101601f19168301908282118483101761016657808491604096879485528339810103126101615781516001600160a01b039081811690819003610161576020809401519382851680950361016157600080549460018060a01b031995338782161783558851953391167f8be0079c531659141344cd1fd0a4f28419497f9722a3daafe3b4186f6b6457e08488a361016085019081118582101761014d5787929192528184528181850152818785015260019384606082015260026080820152600460a0820152600860c0820152601060e0820152816101008201528761012082015260806101408201529084600393925b600b8410610136575091505084915054161790556002541617600255516119ff90816200017d8239f35b805160ff168555938101939201918590820161010c565b634e487b7160e01b82526041600452602482fd5b600080fd5b634e487b7160e01b600052604160045260246000fdfe60806040526004361015610054575b3461004f5760405162461bcd60e51b81526020600482015260146024820152733737903330b6363130b1b590333ab731ba34b7b760611b6044820152606490fd5b600080fd5b6000803560e01c8063087c32e6146116955780633e301fd01461166c578063715018a61461160f5780638da5cb5b146115e8578063952ef7ef1461159c578063ab85f1f4146101ec578063cd190a92146101bb578063f2fde38b146100ee5763f9df988f146100c3575061000e565b346100eb57806003193601126100eb576001546040516001600160a01b039091168152602090f35b80fd5b50346100eb5760203660031901126100eb576001600160a01b03600435818116908190036101b75761011e611842565b801561016357600080546001600160a01b03198116831782556040519316907f8be0079c531659141344cd1fd0a4f28419497f9722a3daafe3b4186f6b6457e09084a3f35b60405162461bcd60e51b815260206004820152602660248201527f4f776e61626c653a206e6577206f776e657220697320746865207a65726f206160448201526564647265737360d01b6064820152608490fd5b8280fd5b50346100eb5760203660031901126100eb57600435600b8110156101e85760209060030154604051908152f35b5080fd5b50346100eb576101603660031901126100eb5736606312156100eb5760405161021481611726565b80366084116101b7576044905b6084821061158c5750503660a312156101e8576040519061024182611726565b813661010411610859576084905b610104821061153b5750503661012312156101b75760405161027081611726565b803661014411610a5857610104905b610144821061152b5750506001600160401b0361014435116108595736602361014435011215610859576101443560040135906001600160401b038211611517578160051b604051926102d56020830185611821565b8352602083013660248361014435010111610b515760246101443501905b60248361014435010182106115075750505060018060a01b036001541692604051916375d279b360e11b83526004356004840152608083602481885afa9586156114fc57879388976114be575b5061034a8461189a565b80600019046002118115151661085d5760011b85510361148257604051916343569ffb60e01b835284600484015260243560248401526020836044818a5afa92831561147757899361142f575b5060038503610c0257604051916103ad83611805565b6103c08093369037604051926103c284611805565b368437895b601e8110610be257506103f794929161040161040b926040519788966301d28c8160e31b885260048801906118f8565b6044860190611920565b60c48401906118f8565b8861010483015b601e8210610bc857506020936104c492508391506001600160a01b03165afa908115610a99578691610b99575b5015610b5d575b84604051936310211ca160e21b8552600435600486015261014085602481845afa94851561084e578295610aa4575b5061048260243587611973565b90803b156101b7576044839260405194859384926304b24e8560e01b8452600435600485015260248401525af18015610a9957610a86575b506002546001600160a01b0316600b821015610a7257816003015490602435600019048211602435151516610a5c578691813b156101b75782916044839260405194859384926340c10f1960e01b84523360048501526024350260248401525af1801561084e57610a44575b506101006040516105368161170a565b8281528260208201528260408201528260608201528260808201528260a08201528260c08201528260e08201520152845b8181106105a0576040518690602435876004357f0c4d840a1a0bafcdc673f07982de54d3fb2f2628e86cf3b9116675b01a1197028585a4f35b6001546001600160a01b03166105b6828661198e565b516040519063618faeb560e11b82526004356004830152602482015261012081604481855afa908115610a3957889161099f575b50606081015161061461060e6105ff876118b0565b6106088761189a565b90611973565b876119b5565b51036109655761062c6106268461189a565b866119b5565b516060820152608081015161064c610643866118b0565b6106088661189a565b60011981116108a75760016106629101876119b5565b510361092b576106718361189a565b600119811161085d5760016106879101866119b5565b51608082015260a081015161069e610643866118b0565b60021981116108a75760026106b49101876119b5565b51036108f3576106c38361189a565b600219811161085d5760026106d99101866119b5565b5160a082015260c08101516106f0610643866118b0565b60031981116108a75760036107069101876119b5565b51036108bb576107158361189a565b600319811161085d57600361072b9101866119b5565b5160c082015260e0810151610742610643866118b0565b60041981116108a75760046107589101876119b5565b5103610871576107678361189a565b600419811161085d579061078060048a949301876119b5565b5160e0820152610790848861198e565b5190823b156108595761016484928361010095604051968795869463e9d903b160e01b865260043560048701526024860152805160448601526020810151606486015260408101516084860152606081015160a4860152608081015160c486015260a081015160e486015260c081015161010486015260e081015161012486015201516101448401525af1801561084e57610836575b50506108319061197f565b610567565b61083f906116e1565b61084a578538610826565b8580fd5b6040513d84823e3d90fd5b8380fd5b634e487b7160e01b89526011600452602489fd5b60405162461bcd60e51b815260206004820152600e60248201526d496e76616c69642072616469757360901b6044820152606490fd5b634e487b7160e01b8a52601160045260248afd5b60405162461bcd60e51b815260206004820152601060248201526f496e76616c696420766563746f72207960801b6044820152606490fd5b60405162461bcd60e51b815260206004820152601060248201526f092dcecc2d8d2c840eccac6e8dee440f60831b6044820152606490fd5b60405162461bcd60e51b8152602060048201526012602482015271496e76616c696420706f736974696f6e207960701b6044820152606490fd5b60405162461bcd60e51b8152602060048201526012602482015271092dcecc2d8d2c840e0dee6d2e8d2dedc40f60731b6044820152606490fd5b9050610120813d61012011610a31575b816109bd6101209383611821565b81010312610a2d57610100604051916109d58361170a565b805183526020810151602084015260408101516040840152606081015160608401526080810151608084015260a081015160a084015260c081015160c084015260e081015160e08401520151610100820152386105ea565b8780fd5b3d91506109af565b6040513d8a823e3d90fd5b610a4d906116e1565b610a58578438610526565b8480fd5b634e487b7160e01b600052601160045260246000fd5b634e487b7160e01b86526032600452602486fd5b610a92909591956116e1565b93386104ba565b6040513d88823e3d90fd5b91509350610140903d61014011610b55575b610ac08282611821565b610140818381010312610b5157818101601f82011215610b515760405191826101408101106001600160401b0361014085011117610b3d57610140830160405282908201610140830111610a2d579087929181905b61014083018210610b2a575050509338610475565b8151815289945060209182019101610b15565b634e487b7160e01b88526041600452602488fd5b8680fd5b3d9150610ab6565b60405162461bcd60e51b815260206004820152601460248201527324b73b30b634b21019903137b23c90383937b7b360611b6044820152606490fd5b610bbb915060203d602011610bc1575b610bb38183611821565b8101906118e0565b3861043f565b503d610ba9565b829350602080916001939451815201930191018492610412565b80610bf0610bfd928a6119b5565b518160051b86015261197f565b6103c7565b60048503610d295760405191610c17836117e9565b610500809336903760405192610c2c846117e9565b368437895b60288110610d1657506103f7949291610401610c61926040519788966319da330f60e01b885260048801906118f8565b8861010483015b60288210610cfc575060209361060492508391506001600160a01b03165afa908115610a99578691610cdd575b5015610ca1575b610446565b60405162461bcd60e51b815260206004820152601460248201527324b73b30b634b2101a103137b23c90383937b7b360611b6044820152606490fd5b610cf6915060203d602011610bc157610bb38183611821565b38610c95565b829350602080916001939451815201930191018492610c68565b80610bf0610d24928a6119b5565b610c31565b60058503610e495760405191610d3e836117cd565b610640809336903760405192610d53846117cd565b368437895b60328110610e3657506103f7949291610401610d889260405197889663a63bed3760e01b885260048801906118f8565b8861010483015b60328210610e1c575060209361074492508391506001600160a01b03165afa908115610a99578691610dfd575b506104465760405162461bcd60e51b815260206004820152601460248201527324b73b30b634b2101a903137b23c90383937b7b360611b6044820152606490fd5b610e16915060203d602011610bc157610bb38183611821565b38610dbc565b829350602080916001939451815201930191018492610d8f565b80610bf0610e44928a6119b5565b610d58565b60068503610f695760405191610e5e836117b1565b610780809336903760405192610e73846117b1565b368437895b603c8110610f5657506103f7949291610401610ea89260405197889663a54a2bcf60e01b885260048801906118f8565b8861010483015b603c8210610f3c575060209361088492508391506001600160a01b03165afa908115610a99578691610f1d575b506104465760405162461bcd60e51b815260206004820152601460248201527324b73b30b634b2101b103137b23c90383937b7b360611b6044820152606490fd5b610f36915060203d602011610bc157610bb38183611821565b38610edc565b829350602080916001939451815201930191018492610eaf565b80610bf0610f64928a6119b5565b610e78565b600785036110895760405191610f7e83611795565b6108c0809336903760405192610f9384611795565b368437895b6046811061107657506103f7949291610401610fc892604051978896632cb278a960e11b885260048801906118f8565b8861010483015b6046821061105c57506020936109c492508391506001600160a01b03165afa908115610a9957869161103d575b506104465760405162461bcd60e51b815260206004820152601460248201527324b73b30b634b2101b903137b23c90383937b7b360611b6044820152606490fd5b611056915060203d602011610bc157610bb38183611821565b38610ffc565b829350602080916001939451815201930191018492610fcf565b80610bf0611084928a6119b5565b610f98565b600885036111a9576040519161109e83611779565b610a008093369037604051926110b384611779565b368437895b6050811061119657506103f79492916104016110e8926040519788966361fd13f960e11b885260048801906118f8565b8861010483015b6050821061117c5750602093610b0492508391506001600160a01b03165afa908115610a9957869161115d575b506104465760405162461bcd60e51b815260206004820152601460248201527324b73b30b634b2101c103137b23c90383937b7b360611b6044820152606490fd5b611176915060203d602011610bc157610bb38183611821565b3861111c565b8293506020809160019394518152019301910184926110ef565b80610bf06111a4928a6119b5565b6110b8565b600985036112c957604051916111be8361175d565b610b408093369037604051926111d38461175d565b368437895b605a81106112b657506103f794929161040161120892604051978896634456e8b360e01b885260048801906118f8565b8861010483015b605a821061129c5750602093610c4492508391506001600160a01b03165afa908115610a9957869161127d575b50610c9c5760405162461bcd60e51b815260206004820152601460248201527324b73b30b634b2101c903137b23c90383937b7b360611b6044820152606490fd5b611296915060203d602011610bc157610bb38183611821565b3861123c565b82935060208091600193945181520193019101849261120f565b80610bf06112c4928a6119b5565b6111d8565b600a85036113ea57604051916112de83611741565b610c808093369037604051926112f384611741565b368437895b606481106113d757506103f79492916104016113289260405197889663170ac5a560e11b885260048801906118f8565b8861010483015b606482106113bd5750602093610d8492508391506001600160a01b03165afa908115610a9957869161139e575b50610c9c5760405162461bcd60e51b815260206004820152601560248201527424b73b30b634b2101898103137b23c90383937b7b360591b6044820152606490fd5b6113b7915060203d602011610bc157610bb38183611821565b3861135c565b82935060208091600193945181520193019101849261132f565b80610bf06113e5928a6119b5565b6112f8565b60405162461bcd60e51b815260206004820152601860248201527f496e76616c6964206e756d626572206f6620626f6469657300000000000000006044820152606490fd5b9092506020813d60201161146f575b8161144b60209383611821565b8101031261146b57516001600160a01b038116810361146b579138610397565b8880fd5b3d915061143e565b6040513d8b823e3d90fd5b60405162461bcd60e51b8152602060048201526014602482015273092dcecc2d8d2c840d2dce0eae840d8cadccee8d60631b6044820152606490fd5b935095506080833d6080116114f4575b816114db60809383611821565b81010312610b5157606060208401519301519538610340565b3d91506114ce565b6040513d89823e3d90fd5b81358152602091820191016102f3565b634e487b7160e01b85526041600452602485fd5b813581526020918201910161027f565b36601f83011215610a585760405161155281611726565b8060408401368111610a2d5784915b81831061157c5750505081602091604093520191019061024f565b8235815260209283019201611561565b8135815260209182019101610221565b50346100eb5760203660031901126100eb576004356001600160a01b038116908190036101e8576115cb611842565b6bffffffffffffffffffffffff60a01b6002541617600255604051f35b50346100eb57806003193601126100eb57546040516001600160a01b039091168152602090f35b50346100eb57806003193601126100eb57611628611842565b80546001600160a01b0319811682556040519082906001600160a01b03167f8be0079c531659141344cd1fd0a4f28419497f9722a3daafe3b4186f6b6457e08284a3f35b50346100eb57806003193601126100eb576002546040516001600160a01b039091168152602090f35b50346100eb5760203660031901126100eb576004356001600160a01b038116908190036101e8576116c4611842565b6bffffffffffffffffffffffff60a01b6001541617600155604051f35b6001600160401b0381116116f457604052565b634e487b7160e01b600052604160045260246000fd5b61012081019081106001600160401b038211176116f457604052565b604081019081106001600160401b038211176116f457604052565b610c8081019081106001600160401b038211176116f457604052565b610b4081019081106001600160401b038211176116f457604052565b610a0081019081106001600160401b038211176116f457604052565b6108c081019081106001600160401b038211176116f457604052565b61078081019081106001600160401b038211176116f457604052565b61064081019081106001600160401b038211176116f457604052565b61050081019081106001600160401b038211176116f457604052565b6103c081019081106001600160401b038211176116f457604052565b90601f801991011681019081106001600160401b038211176116f457604052565b6000546001600160a01b0316330361185657565b606460405162461bcd60e51b815260206004820152602060248201527f4f776e61626c653a2063616c6c6572206973206e6f7420746865206f776e65726044820152fd5b806000190460051181151516610a5c5760050290565b7f33333333333333333333333333333333333333333333333333333333333333338111600116610a5c5760050290565b9081602091031261004f5751801515810361004f5790565b6000915b6002831061190957505050565b6001908251815260208091019201920191906118fc565b9060009182915b60028084101561196c5782518590835b83831061195557505050506020604060019201920192019190611927565b600190825181526020809101920192019190611937565b5050505050565b81198111610a5c570190565b6000198114610a5c5760010190565b90600a81101561199f5760051b0190565b634e487b7160e01b600052603260045260246000fd5b805182101561199f5760209160051b01019056fea2646970667358221220684eabd56b98a102a7f688e250c71ba3ea8fd0cdde4f2100ae124bda1a0c841164736f6c634300080f0033",
  "linkReferences": {},
  "deployedLinkReferences": {}
}