{
	"_format": "hh-sol-artifact-1",
	"contractName": "Problems",
	"sourceName": "contracts/Problems.sol",
	"abi": [
		{
			"inputs": [
				{
					"internalType": "address",
					"name": "metadata_",
					"type": "address"
				},
				{
					"internalType": "address[]",
					"name": "verifiers_",
					"type": "address[]"
				},
				{
					"internalType": "uint256[]",
					"name": "verifiersTicks",
					"type": "uint256[]"
				},
				{
					"internalType": "uint256[]",
					"name": "verifiersBodies",
					"type": "uint256[]"
				}
			],
			"stateMutability": "nonpayable",
			"type": "constructor"
		},
		{
			"anonymous": false,
			"inputs": [
				{
					"indexed": true,
					"internalType": "address",
					"name": "owner",
					"type": "address"
				},
				{
					"indexed": true,
					"internalType": "address",
					"name": "approved",
					"type": "address"
				},
				{
					"indexed": true,
					"internalType": "uint256",
					"name": "tokenId",
					"type": "uint256"
				}
			],
			"name": "Approval",
			"type": "event"
		},
		{
			"anonymous": false,
			"inputs": [
				{
					"indexed": true,
					"internalType": "address",
					"name": "owner",
					"type": "address"
				},
				{
					"indexed": true,
					"internalType": "address",
					"name": "operator",
					"type": "address"
				},
				{
					"indexed": false,
					"internalType": "bool",
					"name": "approved",
					"type": "bool"
				}
			],
			"name": "ApprovalForAll",
			"type": "event"
		},
		{
			"anonymous": false,
			"inputs": [
				{
					"indexed": true,
					"internalType": "address",
					"name": "to",
					"type": "address"
				},
				{
					"indexed": true,
					"internalType": "bool",
					"name": "success",
					"type": "bool"
				},
				{
					"indexed": false,
					"internalType": "bytes",
					"name": "returnData",
					"type": "bytes"
				},
				{
					"indexed": false,
					"internalType": "uint256",
					"name": "amount",
					"type": "uint256"
				}
			],
			"name": "EthMoved",
			"type": "event"
		},
		{
			"anonymous": false,
			"inputs": [
				{
					"indexed": true,
					"internalType": "address",
					"name": "previousOwner",
					"type": "address"
				},
				{
					"indexed": true,
					"internalType": "address",
					"name": "newOwner",
					"type": "address"
				}
			],
			"name": "OwnershipTransferred",
			"type": "event"
		},
		{
			"anonymous": false,
			"inputs": [
				{
					"indexed": true,
					"internalType": "address",
					"name": "from",
					"type": "address"
				},
				{
					"indexed": true,
					"internalType": "address",
					"name": "to",
					"type": "address"
				},
				{
					"indexed": true,
					"internalType": "uint256",
					"name": "tokenId",
					"type": "uint256"
				}
			],
			"name": "Transfer",
			"type": "event"
		},
		{
			"anonymous": false,
			"inputs": [
				{
					"indexed": false,
					"internalType": "uint256",
					"name": "problemId",
					"type": "uint256"
				},
				{
					"indexed": false,
					"internalType": "uint256",
					"name": "bodyId",
					"type": "uint256"
				},
				{
					"indexed": false,
					"internalType": "uint256",
					"name": "mintedBodyIndex",
					"type": "uint256"
				},
				{
					"indexed": false,
					"internalType": "uint256",
					"name": "tick",
					"type": "uint256"
				},
				{
					"indexed": false,
					"internalType": "uint256",
					"name": "px",
					"type": "uint256"
				},
				{
					"indexed": false,
					"internalType": "uint256",
					"name": "py",
					"type": "uint256"
				},
				{
					"indexed": false,
					"internalType": "uint256",
					"name": "radius",
					"type": "uint256"
				},
				{
					"indexed": false,
					"internalType": "uint256",
					"name": "life",
					"type": "uint256"
				},
				{
					"indexed": false,
					"internalType": "bytes32",
					"name": "seed",
					"type": "bytes32"
				}
			],
			"name": "bodyAdded",
			"type": "event"
		},
		{
			"anonymous": false,
			"inputs": [
				{
					"indexed": false,
					"internalType": "uint256",
					"name": "problemId",
					"type": "uint256"
				},
				{
					"indexed": false,
					"internalType": "uint256",
					"name": "tick",
					"type": "uint256"
				},
				{
					"indexed": false,
					"internalType": "uint256",
					"name": "bodyId",
					"type": "uint256"
				},
				{
					"indexed": false,
					"internalType": "uint256",
					"name": "life",
					"type": "uint256"
				},
				{
					"indexed": false,
					"internalType": "bytes32",
					"name": "seed",
					"type": "bytes32"
				}
			],
			"name": "bodyRemoved",
			"type": "event"
		},
		{
			"inputs": [
				{
					"internalType": "uint256",
					"name": "problemId",
					"type": "uint256"
				},
				{
					"internalType": "uint256",
					"name": "bodyId",
					"type": "uint256"
				}
			],
			"name": "addExistingBody",
			"outputs": [],
			"stateMutability": "nonpayable",
			"type": "function"
		},
		{
			"inputs": [
				{
					"internalType": "address",
					"name": "recipient",
					"type": "address"
				}
			],
			"name": "adminMint",
			"outputs": [],
			"stateMutability": "nonpayable",
			"type": "function"
		},
		{
			"inputs": [
				{
					"internalType": "address",
					"name": "to",
					"type": "address"
				},
				{
					"internalType": "uint256",
					"name": "tokenId",
					"type": "uint256"
				}
			],
			"name": "approve",
			"outputs": [],
			"stateMutability": "nonpayable",
			"type": "function"
		},
		{
			"inputs": [
				{
					"internalType": "address",
					"name": "owner",
					"type": "address"
				}
			],
			"name": "balanceOf",
			"outputs": [
				{
					"internalType": "uint256",
					"name": "",
					"type": "uint256"
				}
			],
			"stateMutability": "view",
			"type": "function"
		},
		{
			"inputs": [],
			"name": "bodies",
			"outputs": [
				{
					"internalType": "address",
					"name": "",
					"type": "address"
				}
			],
			"stateMutability": "view",
			"type": "function"
		},
		{
			"inputs": [
				{
					"internalType": "uint256",
					"name": "tokenId",
					"type": "uint256"
				}
			],
			"name": "getApproved",
			"outputs": [
				{
					"internalType": "address",
					"name": "",
					"type": "address"
				}
			],
			"stateMutability": "view",
			"type": "function"
		},
		{
			"inputs": [
				{
					"internalType": "uint256",
					"name": "problemId",
					"type": "uint256"
				},
				{
					"internalType": "uint256",
					"name": "bodyId",
					"type": "uint256"
				}
			],
			"name": "getProblemBodyData",
			"outputs": [
				{
					"components": [
						{
							"internalType": "uint256",
							"name": "bodyId",
							"type": "uint256"
						},
						{
							"internalType": "uint256",
							"name": "mintedBodyIndex",
							"type": "uint256"
						},
						{
							"internalType": "uint256",
							"name": "bodyIndex",
							"type": "uint256"
						},
						{
							"internalType": "uint256",
							"name": "px",
							"type": "uint256"
						},
						{
							"internalType": "uint256",
							"name": "py",
							"type": "uint256"
						},
						{
							"internalType": "uint256",
							"name": "vx",
							"type": "uint256"
						},
						{
							"internalType": "uint256",
							"name": "vy",
							"type": "uint256"
						},
						{
							"internalType": "uint256",
							"name": "radius",
							"type": "uint256"
						},
						{
							"internalType": "uint256",
							"name": "life",
							"type": "uint256"
						},
						{
							"internalType": "bytes32",
							"name": "seed",
							"type": "bytes32"
						}
					],
					"internalType": "struct Problems.Body",
					"name": "",
					"type": "tuple"
				}
			],
			"stateMutability": "view",
			"type": "function"
		},
		{
			"inputs": [
				{
					"internalType": "uint256",
					"name": "problemId",
					"type": "uint256"
				}
			],
			"name": "getProblemBodyIds",
			"outputs": [
				{
					"internalType": "uint256[10]",
					"name": "",
					"type": "uint256[10]"
				}
			],
			"stateMutability": "view",
			"type": "function"
		},
		{
			"inputs": [
				{
					"internalType": "uint256",
					"name": "problemId",
					"type": "uint256"
				}
			],
			"name": "getProblemMintedBodiesIndex",
			"outputs": [
				{
					"internalType": "uint256",
					"name": "",
					"type": "uint256"
				}
			],
			"stateMutability": "view",
			"type": "function"
		},
		{
			"inputs": [
				{
					"internalType": "bytes32",
					"name": "seed",
					"type": "bytes32"
				}
			],
			"name": "getRandomValues",
			"outputs": [
				{
					"components": [
						{
							"internalType": "uint256",
							"name": "bodyId",
							"type": "uint256"
						},
						{
							"internalType": "uint256",
							"name": "mintedBodyIndex",
							"type": "uint256"
						},
						{
							"internalType": "uint256",
							"name": "bodyIndex",
							"type": "uint256"
						},
						{
							"internalType": "uint256",
							"name": "px",
							"type": "uint256"
						},
						{
							"internalType": "uint256",
							"name": "py",
							"type": "uint256"
						},
						{
							"internalType": "uint256",
							"name": "vx",
							"type": "uint256"
						},
						{
							"internalType": "uint256",
							"name": "vy",
							"type": "uint256"
						},
						{
							"internalType": "uint256",
							"name": "radius",
							"type": "uint256"
						},
						{
							"internalType": "uint256",
							"name": "life",
							"type": "uint256"
						},
						{
							"internalType": "bytes32",
							"name": "seed",
							"type": "bytes32"
						}
					],
					"internalType": "struct Problems.Body",
					"name": "",
					"type": "tuple"
				}
			],
			"stateMutability": "view",
			"type": "function"
		},
		{
			"inputs": [
				{
					"internalType": "address",
					"name": "owner",
					"type": "address"
				},
				{
					"internalType": "address",
					"name": "operator",
					"type": "address"
				}
			],
			"name": "isApprovedForAll",
			"outputs": [
				{
					"internalType": "bool",
					"name": "",
					"type": "bool"
				}
			],
			"stateMutability": "view",
			"type": "function"
		},
		{
			"inputs": [],
			"name": "maxVector",
			"outputs": [
				{
					"internalType": "uint256",
					"name": "",
					"type": "uint256"
				}
			],
			"stateMutability": "view",
			"type": "function"
		},
		{
			"inputs": [],
			"name": "metadata",
			"outputs": [
				{
					"internalType": "address",
					"name": "",
					"type": "address"
				}
			],
			"stateMutability": "view",
			"type": "function"
		},
		{
			"inputs": [],
			"name": "mint",
			"outputs": [],
			"stateMutability": "payable",
			"type": "function"
		},
		{
			"inputs": [
				{
					"internalType": "address",
					"name": "recipient",
					"type": "address"
				},
				{
					"internalType": "uint256",
					"name": "quantity",
					"type": "uint256"
				}
			],
			"name": "mint",
			"outputs": [],
			"stateMutability": "payable",
			"type": "function"
		},
		{
			"inputs": [
				{
					"internalType": "address",
					"name": "recipient",
					"type": "address"
				}
			],
			"name": "mint",
			"outputs": [],
			"stateMutability": "payable",
			"type": "function"
		},
		{
			"inputs": [
				{
					"internalType": "uint256",
					"name": "problemId",
					"type": "uint256"
				}
			],
			"name": "mintBodyOutsideProblem",
			"outputs": [],
			"stateMutability": "nonpayable",
			"type": "function"
		},
		{
			"inputs": [
				{
					"internalType": "uint256",
					"name": "problemId",
					"type": "uint256"
				}
			],
			"name": "mintBodyToProblem",
			"outputs": [],
			"stateMutability": "nonpayable",
			"type": "function"
		},
		{
			"inputs": [],
			"name": "name",
			"outputs": [
				{
					"internalType": "string",
					"name": "",
					"type": "string"
				}
			],
			"stateMutability": "view",
			"type": "function"
		},
		{
			"inputs": [],
			"name": "owner",
			"outputs": [
				{
					"internalType": "address",
					"name": "",
					"type": "address"
				}
			],
			"stateMutability": "view",
			"type": "function"
		},
		{
			"inputs": [
				{
					"internalType": "uint256",
					"name": "tokenId",
					"type": "uint256"
				}
			],
			"name": "ownerOf",
			"outputs": [
				{
					"internalType": "address",
					"name": "",
					"type": "address"
				}
			],
			"stateMutability": "view",
			"type": "function"
		},
		{
			"inputs": [],
			"name": "paused",
			"outputs": [
				{
					"internalType": "bool",
					"name": "",
					"type": "bool"
				}
			],
			"stateMutability": "view",
			"type": "function"
		},
		{
			"inputs": [],
			"name": "price",
			"outputs": [
				{
					"internalType": "uint256",
					"name": "",
					"type": "uint256"
				}
			],
			"stateMutability": "view",
			"type": "function"
		},
		{
			"inputs": [],
			"name": "problemSupply",
			"outputs": [
				{
					"internalType": "uint256",
					"name": "",
					"type": "uint256"
				}
			],
			"stateMutability": "view",
			"type": "function"
		},
		{
			"inputs": [
				{
					"internalType": "uint256",
					"name": "",
					"type": "uint256"
				}
			],
			"name": "problems",
			"outputs": [
				{
					"internalType": "bytes32",
					"name": "seed",
					"type": "bytes32"
				},
				{
					"internalType": "uint256",
					"name": "bodyCount",
					"type": "uint256"
				},
				{
					"internalType": "uint256",
					"name": "mintedBodiesIndex",
					"type": "uint256"
				},
				{
					"internalType": "uint256",
					"name": "tickCount",
					"type": "uint256"
				}
			],
			"stateMutability": "view",
			"type": "function"
		},
		{
			"inputs": [],
			"name": "proceedRecipient",
			"outputs": [
				{
					"internalType": "address",
					"name": "",
					"type": "address"
				}
			],
			"stateMutability": "view",
			"type": "function"
		},
		{
			"inputs": [
				{
					"internalType": "address payable",
					"name": "_to",
					"type": "address"
				}
			],
			"name": "recoverUnsuccessfulMintPayment",
			"outputs": [],
			"stateMutability": "nonpayable",
			"type": "function"
		},
		{
			"inputs": [
				{
					"internalType": "uint256",
					"name": "problemId",
					"type": "uint256"
				},
				{
					"internalType": "uint256",
					"name": "bodyId",
					"type": "uint256"
				}
			],
			"name": "removeBody",
			"outputs": [],
			"stateMutability": "nonpayable",
			"type": "function"
		},
		{
			"inputs": [],
			"name": "renounceOwnership",
			"outputs": [],
			"stateMutability": "nonpayable",
			"type": "function"
		},
		{
			"inputs": [
				{
					"internalType": "address",
					"name": "from",
					"type": "address"
				},
				{
					"internalType": "address",
					"name": "to",
					"type": "address"
				},
				{
					"internalType": "uint256",
					"name": "tokenId",
					"type": "uint256"
				}
			],
			"name": "safeTransferFrom",
			"outputs": [],
			"stateMutability": "nonpayable",
			"type": "function"
		},
		{
			"inputs": [
				{
					"internalType": "address",
					"name": "from",
					"type": "address"
				},
				{
					"internalType": "address",
					"name": "to",
					"type": "address"
				},
				{
					"internalType": "uint256",
					"name": "tokenId",
					"type": "uint256"
				},
				{
					"internalType": "bytes",
					"name": "data",
					"type": "bytes"
				}
			],
			"name": "safeTransferFrom",
			"outputs": [],
			"stateMutability": "nonpayable",
			"type": "function"
		},
		{
			"inputs": [],
			"name": "scalingFactor",
			"outputs": [
				{
					"internalType": "uint256",
					"name": "",
					"type": "uint256"
				}
			],
			"stateMutability": "view",
			"type": "function"
		},
		{
			"inputs": [
				{
					"internalType": "address",
					"name": "operator",
					"type": "address"
				},
				{
					"internalType": "bool",
					"name": "approved",
					"type": "bool"
				}
			],
			"name": "setApprovalForAll",
			"outputs": [],
			"stateMutability": "nonpayable",
			"type": "function"
		},
		{
			"inputs": [],
			"name": "solver",
			"outputs": [
				{
					"internalType": "address",
					"name": "",
					"type": "address"
				}
			],
			"stateMutability": "view",
			"type": "function"
		},
		{
			"inputs": [],
			"name": "startDate",
			"outputs": [
				{
					"internalType": "uint256",
					"name": "",
					"type": "uint256"
				}
			],
			"stateMutability": "view",
			"type": "function"
		},
		{
			"inputs": [],
			"name": "startingRadius",
			"outputs": [
				{
					"internalType": "uint256",
					"name": "",
					"type": "uint256"
				}
			],
			"stateMutability": "view",
			"type": "function"
		},
		{
			"inputs": [
				{
					"internalType": "bytes4",
					"name": "interfaceId",
					"type": "bytes4"
				}
			],
			"name": "supportsInterface",
			"outputs": [
				{
					"internalType": "bool",
					"name": "",
					"type": "bool"
				}
			],
			"stateMutability": "view",
			"type": "function"
		},
		{
			"inputs": [],
			"name": "symbol",
			"outputs": [
				{
					"internalType": "string",
					"name": "",
					"type": "string"
				}
			],
			"stateMutability": "view",
			"type": "function"
		},
		{
			"inputs": [
				{
					"internalType": "uint256",
					"name": "id",
					"type": "uint256"
				}
			],
			"name": "tokenURI",
			"outputs": [
				{
					"internalType": "string",
					"name": "",
					"type": "string"
				}
			],
			"stateMutability": "view",
			"type": "function"
		},
		{
			"inputs": [
				{
					"internalType": "address",
					"name": "from",
					"type": "address"
				},
				{
					"internalType": "address",
					"name": "to",
					"type": "address"
				},
				{
					"internalType": "uint256",
					"name": "tokenId",
					"type": "uint256"
				}
			],
			"name": "transferFrom",
			"outputs": [],
			"stateMutability": "nonpayable",
			"type": "function"
		},
		{
			"inputs": [
				{
					"internalType": "address",
					"name": "newOwner",
					"type": "address"
				}
			],
			"name": "transferOwnership",
			"outputs": [],
			"stateMutability": "nonpayable",
			"type": "function"
		},
		{
			"inputs": [
				{
					"internalType": "address",
					"name": "bodies_",
					"type": "address"
				}
			],
			"name": "updateBodiesAddress",
			"outputs": [],
			"stateMutability": "nonpayable",
			"type": "function"
		},
		{
			"inputs": [
				{
					"internalType": "address",
					"name": "metadata_",
					"type": "address"
				}
			],
			"name": "updateMetadataAddress",
			"outputs": [],
			"stateMutability": "nonpayable",
			"type": "function"
		},
		{
			"inputs": [
				{
					"internalType": "bool",
					"name": "paused_",
					"type": "bool"
				}
			],
			"name": "updatePaused",
			"outputs": [],
			"stateMutability": "nonpayable",
			"type": "function"
		},
		{
			"inputs": [
				{
					"internalType": "uint256",
					"name": "price_",
					"type": "uint256"
				}
			],
			"name": "updatePrice",
			"outputs": [],
			"stateMutability": "nonpayable",
			"type": "function"
		},
		{
			"inputs": [
				{
					"internalType": "uint256",
					"name": "problemId",
					"type": "uint256"
				},
				{
					"internalType": "uint256",
					"name": "bodyId",
					"type": "uint256"
				},
				{
					"components": [
						{
							"internalType": "uint256",
							"name": "bodyId",
							"type": "uint256"
						},
						{
							"internalType": "uint256",
							"name": "mintedBodyIndex",
							"type": "uint256"
						},
						{
							"internalType": "uint256",
							"name": "bodyIndex",
							"type": "uint256"
						},
						{
							"internalType": "uint256",
							"name": "px",
							"type": "uint256"
						},
						{
							"internalType": "uint256",
							"name": "py",
							"type": "uint256"
						},
						{
							"internalType": "uint256",
							"name": "vx",
							"type": "uint256"
						},
						{
							"internalType": "uint256",
							"name": "vy",
							"type": "uint256"
						},
						{
							"internalType": "uint256",
							"name": "radius",
							"type": "uint256"
						},
						{
							"internalType": "uint256",
							"name": "life",
							"type": "uint256"
						},
						{
							"internalType": "bytes32",
							"name": "seed",
							"type": "bytes32"
						}
					],
					"internalType": "struct Problems.Body",
					"name": "body",
					"type": "tuple"
				}
			],
			"name": "updateProblemBody",
			"outputs": [],
			"stateMutability": "nonpayable",
			"type": "function"
		},
		{
			"inputs": [
				{
					"internalType": "uint256",
					"name": "problemId",
					"type": "uint256"
				},
				{
					"internalType": "uint256",
					"name": "bodyCount",
					"type": "uint256"
				}
			],
			"name": "updateProblemBodyCount",
			"outputs": [],
			"stateMutability": "nonpayable",
			"type": "function"
		},
		{
			"inputs": [
				{
					"internalType": "uint256",
					"name": "problemId",
					"type": "uint256"
				},
				{
					"internalType": "uint256[10]",
					"name": "bodyIds",
					"type": "uint256[10]"
				}
			],
			"name": "updateProblemBodyIds",
			"outputs": [],
			"stateMutability": "nonpayable",
			"type": "function"
		},
		{
			"inputs": [
				{
					"internalType": "uint256",
					"name": "problemId",
					"type": "uint256"
				},
				{
					"internalType": "uint256",
					"name": "tickCount",
					"type": "uint256"
				}
			],
			"name": "updateProblemTickCount",
			"outputs": [],
			"stateMutability": "nonpayable",
			"type": "function"
		},
		{
			"inputs": [
				{
					"internalType": "address",
					"name": "proceedRecipient_",
					"type": "address"
				}
			],
			"name": "updateProceedRecipientAddress",
			"outputs": [],
			"stateMutability": "nonpayable",
			"type": "function"
		},
		{
			"inputs": [
				{
					"internalType": "address",
					"name": "solver_",
					"type": "address"
				}
			],
			"name": "updateSolverAddress",
			"outputs": [],
			"stateMutability": "nonpayable",
			"type": "function"
		},
		{
			"inputs": [
				{
					"internalType": "uint256",
					"name": "startDate_",
					"type": "uint256"
				}
			],
			"name": "updateStartDate",
			"outputs": [],
			"stateMutability": "nonpayable",
			"type": "function"
		},
		{
			"inputs": [
				{
					"internalType": "address",
					"name": "verifier_",
					"type": "address"
				},
				{
					"internalType": "uint256",
					"name": "verifierBodies",
					"type": "uint256"
				},
				{
					"internalType": "uint256",
					"name": "verifierTicks",
					"type": "uint256"
				}
			],
			"name": "updateVerifier",
			"outputs": [],
			"stateMutability": "nonpayable",
			"type": "function"
		},
		{
			"inputs": [
				{
					"internalType": "uint256",
					"name": "",
					"type": "uint256"
				},
				{
					"internalType": "uint256",
					"name": "",
					"type": "uint256"
				}
			],
			"name": "verifiers",
			"outputs": [
				{
					"internalType": "address",
					"name": "",
					"type": "address"
				}
			],
			"stateMutability": "view",
			"type": "function"
		},
		{
			"inputs": [],
			"name": "windowWidth",
			"outputs": [
				{
					"internalType": "uint256",
					"name": "",
					"type": "uint256"
				}
			],
			"stateMutability": "view",
			"type": "function"
		},
		{
			"stateMutability": "payable",
			"type": "receive"
		}
	],
	"bytecode": "0x60406080815234620005b257620036c790813803806200001f81620005f2565b9384398201608083820312620005b2576200003a8362000618565b92602091828201519260018060401b0393848111620005b257830191601f93818585011215620005b2578351936200007c62000076866200062d565b620005f2565b94848087838152019160051b83010191848311620005b25785809101915b838310620005b7575050505086810151868111620005b25782620000c091830162000645565b916060820151878111620005b257620000da920162000645565b91620000e5620005d2565b95600f908188526e416e79626f64792050726f626c656d60881b838901526200010d620005d2565b966003885262414e5960e81b848901528851978289116200059c5760009889549a60019b8c81811c9116801562000591575b888210146200057d579081858493116200052a575b508790858311600114620004bd578c92620004b1575b5050600019600383901b1c1916908b1b1789555b80519283116200049d5789548a81811c9116801562000492575b868210146200047e579081838594931162000429575b5085918311600114620003c5578992620003b9575b5050600019600383901b1c191690881b1787555b6006549860018060a01b03199533878c161760065589519a60018060a01b039283918d7f8be0079c531659141344cd1fd0a4f28419497f9722a3daafe3b4186f6b6457e08c8533941692a389600755662386f26fc10000600d55169a8b15620003845750889a3388600c541617600c5587600b541617600b55879a5b62000268575b8951612ff99081620006ce8239f35b80518b10156200037e576200027e8b86620006a2565b51156200033a5781620002928c83620006a2565b511615620003035781620002a78c83620006a2565b5116620002b58c88620006a2565b5189528385528a8920620002ca8d88620006a2565b518a5285528a892090888254161790556000198b14620002ef57998801998862000253565b634e487b7160e01b88526011600452602488fd5b895162461bcd60e51b815260048101859052601060248201526f24b73b30b634b2103b32b934b334b2b960811b6044820152606490fd5b895162461bcd60e51b815260048101859052601660248201527f496e76616c696420766572696669657220746f636b73000000000000000000006044820152606490fd5b62000259565b62461bcd60e51b815260048101859052601060248201526f496e76616c6964206d6574616461746160801b6044820152606490fd5b015190503880620001c3565b8a8a52858a208b94509190601f1984168b5b88828210620004125750508411620003f8575b505050811b018755620001d7565b015160001960f88460031b161c19169055388080620003ea565b8385015186558e97909501949384019301620003d7565b909192508a8a52858a208380860160051c82019288871062000474575b9186958e929594930160051c01915b82811062000465575050620001ae565b8c81558695508d910162000455565b9250819262000446565b634e487b7160e01b8a52602260045260248afd5b90607f169062000198565b634e487b7160e01b89526041600452602489fd5b0151905038806200016a565b8c8052888d208e94509190601f1984168e5b8b8282106200050a5750508411620004f0575b505050811b0189556200017e565b015160001960f88460031b161c19169055388080620004e2565b91929395968291958786015181550195019301908f9594939291620004cf565b9091508b8052878c208580850160051c8201928a861062000573575b918f91869594930160051c01915b8281106200056457505062000154565b8e81558594508f910162000554565b9250819262000546565b634e487b7160e01b8c52602260045260248cfd5b90607f16906200013f565b634e487b7160e01b600052604160045260246000fd5b600080fd5b8190620005c48462000618565b81520191019085906200009a565b60408051919082016001600160401b038111838210176200059c57604052565b6040519190601f01601f191682016001600160401b038111838210176200059c57604052565b51906001600160a01b0382168203620005b257565b6001600160401b0381116200059c5760051b60200190565b9080601f83011215620005b2578151906200066462000076836200062d565b9182938184526020808095019260051b820101928311620005b2578301905b82821062000692575050505090565b8151815290830190830162000683565b8051821015620006b75760209160051b010190565b634e487b7160e01b600052603260045260246000fdfe60806040526004361015610023575b361561001957600080fd5b6100216127fc565b005b6000803560e01c8063010fdfd5146120d157806301ffc9a71461206257806304b24e851461202957806306fdde0314611f69578063081812fc14611f4a57806308cdc2a814611f01578063095ea7b314611d895780630b27ce3f14611d605780630b97bc8614611d425780631249c58b14611d2e57806318d9479314611d095780631d2eed5614611be757806320a286d014611bc957806323b872dd14611b9f5780632b057afa14611b44578063306da04f14611b1b57806334e5e49214611aee578063392f37e914611ac55780633ecb6f881461189a5780633f29ad1d146115cf578063408472841461153a57806340c10f191461141a57806342842e0e146113c857806343569ffb1461139157806349a7a26d146113685780634b9862d91461134c57806353e52f09146113305780635c975abb1461130a578063609e00a4146112de5780636282eff51461129c5780636352211e1461126b5780636a627842146110f757806370a0823114611061578063715018a6146110015780637696d9ff14610fbf578063872d7e4814610f865780638d6cc56d14610f615780638da5cb5b14610f3857806395d89b4114610e2c5780639769dc0e14610dbc578063a035b1fe14610d9e578063a22cb46514610ccc578063afcb1af0146108c6578063b88d4fde14610837578063bf82e9de14610735578063c09fd8ef146106ba578063c31f5d6a1461060f578063c87b56dd14610516578063de4318fc14610473578063e985e9c51461041f578063eba4f366146103d2578063ed3437f8146103b5578063ed892aae14610373578063f2fde38b146102ac5763f81c8ec31461028c575061000e565b346102a957806003193601126102a9576020604051620f42408152f35b80fd5b50346102a95760203660031901126102a9576102c6612113565b6102ce6122f4565b6001600160a01b03908116801561031f57600680546001600160a01b03198116831790915560405192167f8be0079c531659141344cd1fd0a4f28419497f9722a3daafe3b4186f6b6457e0600084a3f35b60405162461bcd60e51b815260206004820152602660248201527f4f776e61626c653a206e6577206f776e657220697320746865207a65726f206160448201526564647265737360d01b6064820152608490fd5b50346102a95760203660031901126102a95761038d612113565b6103956122f4565b60018060a01b03166001600160601b0360a01b600b541617600b55604051f35b50346102a957806003193601126102a95760206040516103e88152f35b50346102a95760203660031901126102a95760406080916004358152600e60205220805490600181015490600e600282015491015491604051938452602084015260408301526060820152f35b50346102a95760403660031901126102a957610439612113565b604061044361212e565b9260018060a01b0380931681526005602052209116600052602052602060ff604060002054166040519015158152f35b50346102a9576101603660031901126102a95736604312156102a95760405161049b816121b4565b61016481368211610512576024905b82821061050257505050600a906104cb60018060a01b038354163314612f60565b60043583526020600e81526004604085200184925b8484106104ed5785604051f35b600183828293518555019201930192906104e0565b81358152602091820191016104aa565b8380fd5b50346102a9576020806003193601126105fb57600b5460405163295d33a960e21b81526004803590820152908390829060249082906001600160a01b03165afa92831561060357809361057e575b505061057a60405192828493845283019061218f565b0390f35b909192503d8082843e6105918184612217565b82019183818403126105fb5780519067ffffffffffffffff82116105ff570182601f820112156105fb578051916105c7836122d8565b936105d56040519586612217565b8385528584840101116102a95750906105f39184808501910161215a565b903880610564565b5080fd5b8280fd5b604051903d90823e3d90fd5b50346102a957604061057a9161062436612144565b9061062d612e44565b508252600e60205260038383200190825260205220600960405191610651836121b4565b8054835260018101546020840152600281015460408401526003810154606084015260048101546080840152600581015460a0840152600681015460c0840152600781015460e0840152600881015461010084015201546101208201526040519182918261226e565b50346102a95760203660031901126102a9576004356001600160a01b038116908190036105fb576106e96122f4565b4790600080516020612fa483398151915261072484808060405187875af161070f6126d4565b9060405192839260408452604084019061218f565b9560208301521515940390a3604051f35b50346102a95760203660031901126102a95760043561075c60ff60065460a01c16156128fa565b8161076682612398565b6001600160a01b039061077c9082163314612d36565b828252600e602052610797600a600160408520015410612d76565b828252600e6020526002604083200154906107b4600a8310612dc2565b60095416803b156105ff57604051630ab714fb60e11b815233600482015260248101859052604481019290925282908290606490829084905af1801561082c57610818575b5052600e60205260026040822001610811815461292f565b9055604051f35b610821906121e7565b6105fb5781386107f9565b6040513d84823e3d90fd5b50346102a95760803660031901126102a957610851612113565b61085961212e565b906064359067ffffffffffffffff821161051257366023830112156105125781600401359284610888856122d8565b936108966040519586612217565b85855236602487830101116105fb57856108c19660246020930183880137850101526044359161245e565b604051f35b50346102a9576108d536612144565b6108e760ff60065460a01c16156128fa565b6108f082612398565b6001600160a01b03906109069082163314612d36565b828452600e602052600360016040862001541115610c8757828452600e60205260036040852001828552602052604084209082604051610945816121b4565b83549081815260018501546020820152600285015460408201526003850154606082015260048501546080820152600585015460a0820152600685015460c0820152600785015460e082015261012060096008870154966101008401978852015491015203610c4c57849060095416825190803b156105ff57608483926040519485938492633c43b50b60e01b84523360048501528960248501528a604485015260648401525af18015610c4157610c0b575b5060a07fe44d5dff35c5ea8b29e044e5b786df976bcc09bf23b67d62748ba7e255ff429f91848652600e602052600e604087200154905160408720549060405192878452602084015285604084015260608301526080820152a1818352600e60205260036040842001818452602052600260408420015490828452600e6020526001604085200180548015610be157600019019055828452600e602052604080852090519060040185825b600a8210610bf557505050610ab7816121b4565b610140604051610ac6816121b4565b369037825b60098110610bb1575084610120820152838552600e602052600460408620019085905b600a8210610b9b5750505060036040852001908452602052600060096040852082815582600182015582600282015582600382015582600482015582600582015582600682015582600782015582600882015501555b818352600e6020526001604084200154811015610b9557610b909060036040852001610b768260046040882001612e0d565b90549060031b1c855260205280600260408620015561292f565b610b44565b82604051f35b6001602082829351865501930191019091610aee565b6001198111610be15780610bcb6001610bdc930184612e33565b51610bd68285612e33565b5261292f565b610acb565b634e487b7160e01b86526011600452602486fd5b6001602081928554815201930191019091610aa3565b7fe44d5dff35c5ea8b29e044e5b786df976bcc09bf23b67d62748ba7e255ff429f9194610c3960a0926121e7565b9491506109f8565b6040513d87823e3d90fd5b60405162461bcd60e51b8152602060048201526013602482015272426f6479206e6f7420696e2070726f626c656d60681b6044820152606490fd5b60405162461bcd60e51b815260206004820152601e60248201527f43616e6e6f742068617665206c657373207468616e203320626f6469657300006044820152606490fd5b50346102a95760403660031901126102a957610ce6612113565b602435908115158092036105ff576001600160a01b031690338214610d59573383526005602052604083208284526020526040832060ff1981541660ff83161790556040519081527f17307eab39ab6107e8899845ad3d59bd9653f200f220920489ca2b5937696c3160203392a3604051f35b60405162461bcd60e51b815260206004820152601960248201527f4552433732313a20617070726f766520746f2063616c6c6572000000000000006044820152606490fd5b50346102a957806003193601126102a9576020600d54604051908152f35b50346102a95760203660031901126102a9576108c1610dd9612113565b600a54610e1f906001600160a01b0390610df690821615156128bc565b610e05816009541615156128bc565b610e1481600b541615156128bc565b600c541615156128bc565b610e276122f4565b61296f565b50346102a957806003193601126102a957604051908060019182549283811c92818516948515610f2e575b6020958686108114610f1a57858852879493929187908215610ef8575050600114610e9f575b5050610e8b92500383612217565b61057a60405192828493845283019061218f565b908592508082527fb10e2d527612073b26eecdfd717e6a320cf44b4afac2b0732d9fcbe2b7fa0cf65b858310610ee0575050610e8b93508201013880610e7d565b80548389018501528794508693909201918101610ec8565b9250935050610e8b94915060ff191682840152151560051b8201013880610e7d565b634e487b7160e01b83526022600452602483fd5b93607f1693610e57565b50346102a957806003193601126102a9576006546040516001600160a01b039091168152602090f35b50346102a95760203660031901126102a957610f7b6122f4565b600435600d55604051f35b50346102a957610f9536612144565b90610fab60018060a01b03600a54163314612f60565b8252600e6020526001604083200155604051f35b50346102a95760203660031901126102a957610fd9612113565b610fe16122f4565b60018060a01b03166001600160601b0360a01b600a541617600a55604051f35b50346102a957806003193601126102a95761101a6122f4565b600680546001600160a01b031981169091556040519082906001600160a01b03167f8be0079c531659141344cd1fd0a4f28419497f9722a3daafe3b4186f6b6457e08284a3f35b50346102a95760203660031901126102a9576001600160a01b03611083612113565b1680156110a0578160409160209352600383522054604051908152f35b60405162461bcd60e51b815260206004820152602960248201527f4552433732313a2061646472657373207a65726f206973206e6f7420612076616044820152683634b21037bbb732b960b91b6064820152608490fd5b5060203660031901126102a95761110c612113565b600a546001600160a01b039081161515611125816128bc565b61116a8260095416151591611139836128bc565b61116584600b5416151561114c816128bc565b61116586600c54169561116587151595611165876128bc565b6128bc565b61117c60ff60065460a01c16156128fa565b600754421061123857600d54340361120357838080926040519034905af190600080516020612fa48339815191526111cf6111b56126d4565b92600c54169260405191829160408352604083019061218f565b943460208301521515940390a3815b600181106111ec5782604051f35b6111fe906111f98361296f565b61292f565b6111de565b60405162461bcd60e51b815260206004820152600d60248201526c496e76616c696420707269636560981b6044820152606490fd5b60405162461bcd60e51b815260206004820152600b60248201526a139bdd081cdd185c9d195960aa1b6044820152606490fd5b50346102a95760203660031901126102a957602061128a600435612398565b6040516001600160a01b039091168152f35b50346102a95760203660031901126102a9576112b6612113565b6112be6122f4565b60018060a01b03166001600160601b0360a01b600c541617600c55604051f35b50346102a95760203660031901126102a95761057a6112fe600435612e90565b6040519182918261226e565b50346102a957806003193601126102a957602060ff60065460a01c166040519015158152f35b50346102a957806003193601126102a957602060405160028152f35b50346102a957806003193601126102a9576020604051600a8152f35b50346102a957806003193601126102a957600a546040516001600160a01b039091168152602090f35b50346102a9576020906113a336612144565b908252600f8352604082209082528252604060018060a01b0391205416604051908152f35b50346102a9576113d736612239565b60409392935191602083019483861067ffffffffffffffff871117611406576108c1949560405285845261245e565b634e487b7160e01b85526041600452602485fd5b5060403660031901126102a95761142f612113565b600a5460243591906001600160a01b039061144d90821615156128bc565b61145c816009541615156128bc565b61146b81600b541615156128bc565b80600c541661147b8115156128bc565b6005841161150d5761149560ff60065460a01c16156128fa565b600754421061123857600d548460001904811185151516610be1578402340361120357848080926040519034905af190600080516020612fa48339815191526114df6111b56126d4565b943460208301521515940390a3825b8281106114fb5783604051f35b611508906111f98361296f565b6114ee565b60405162461bcd60e51b81526020600482015260056024820152644d6178203560d81b6044820152606490fd5b50346102a957602090816003193601126102a957906040519161155c836121b4565b61014080933690376004358152600e82526004604082200191604051928383905b600a82106115b957505050611591836121b4565b6040519291835b600a82106115a4578585f35b82806001928651815201940191019092611598565b825481526001928301929190910190830161157d565b50346102a95760203660031901126102a9576115f360ff60065460a01c16156128fa565b6115fe600435612398565b6001600160a01b03906116149082163314612d36565b6004358252600e602052611631600a600160408520015410612d76565b6004358252600e602052600260408320015490611650600a8310612dc2565b60095460405163d395cb1360e01b815233600480830191909152356024820152604481018490529291606091849160649183918891165af190811561188f5783928490859361185a575b506004358552600e6020528361177b61176260016040892001546116bd87612e90565b94848652866020870152610100860152604085018181526004358a52600e602052600360408b2001858b5260205260408a20908651825560208701516001830155516002820155606086015160038201556080860151600482015560a0860151600582015560c0860151600682015560e08601516007820155610100860151600882015560096101208701519101556004358952600e602052600460408a2001612e0d565b819391549060031b600019811b9283911b169119161790565b90556004358552600e60205260016040862001611798815461292f565b90556004358552600e602052604085206002018054600119811161184657917fe99c2f556014ff7b301076eebbf17d96fa123ef4f5c9371a59dee751d4500eaa959391600161012096940190556004358752600e602052600e604088200154606082015160808301519161010060e085015194015194604051976004358952602089015260408801526060870152608086015260a085015260c084015260e0830152610100820152a1604051f35b634e487b7160e01b87526011600452602487fd5b9193505061187f915060603d8111611888575b6118778183612217565b810190612954565b9192903861169a565b503d61186d565b6040513d85823e3d90fd5b50346102a957806118aa36612144565b91906118be60ff60065460a01c16156128fa565b60606118c982612398565b6001600160a01b03906118df9082163314612d36565b828452600e6020526118fa600a600160408720015410612d76565b60095416606460405180958193636f21292560e01b83528860048401523360248401528660448401525af18015611aba577fe99c2f556014ff7b301076eebbf17d96fa123ef4f5c9371a59dee751d4500eaa93610120938687918894611a96575b50848852600e60205282611a1c611762600160408c20015461197c88612e90565b9584875285602088015261010087015260408601818152898d52600e6020528c8560036040832001915260205260408d20908751825560208801516001830155516002820155606087015160038201556080870151600482015560a0870151600582015560c0870151600682015560e08701516007820155610100870151600882015560098b880151910155888c52600e602052600460408d2001612e0d565b9055848852600e60205260016040892001611a37815461292f565b9055848852600e602052600e60408920015460608301519060808401519261010060e086015195015195604051988952602089015260408801526060870152608086015260a085015260c084015260e0830152610100820152a1604051f35b915050611ab291925060603d8111611888576118778183612217565b92913861195b565b6040513d86823e3d90fd5b50346102a957806003193601126102a957600b546040516001600160a01b039091168152602090f35b50346102a95760203660031901126102a957600260406020926004358152600e8452200154604051908152f35b50346102a957806003193601126102a9576009546040516001600160a01b039091168152602090f35b50346102a95760603660031901126102a957611b5e612113565b611b666122f4565b6024358252600f602052604082206044358352602052604082209060018060a01b03166001600160601b0360a01b825416179055604051f35b50346102a9576108c1611bb136612239565b91611bc4611bbf84336124f9565b6123fc565b6125c1565b50346102a957806003193601126102a9576020600854604051908152f35b50346102a9576101803660031901126102a957610140806043193601126105fb5760405190810181811067ffffffffffffffff821117611cf557604052604435815260096020820160643581526040830160843581526060840160a43581526080850160c435815260a0860160e435815260c087019161010435835260e08801936101243585526101008901956101443587526101208a0197610164358952611c9b60018060a01b03600a54163314612f60565b6004358c52600e602052600360408d20016024358d5260205260408c209a518b555160018b01555160028a015551600389015551600488015551600587015551600686015551600785015551600884015551910155604051f35b634e487b7160e01b83526041600452602483fd5b50346102a95760203660031901126102a957611d236122f4565b600435600755604051f35b50806003193601126102a9576108c16127fc565b50346102a957806003193601126102a9576020600754604051908152f35b50346102a957806003193601126102a957600c546040516001600160a01b039091168152602090f35b50346102a95760403660031901126102a957611da3612113565b6024356001600160a01b038080611db984612398565b16931692808414611eb257803314908115611e91575b5015611e265781845260046020526040842080546001600160a01b03191684179055611dfa82612398565b1691604051927f8c5be1e5ebec7d5bd14f71427d1e84f3dd0314c0f7b2291e5b200ac8c7c3b9258585a4f35b60405162461bcd60e51b815260206004820152603d60248201527f4552433732313a20617070726f76652063616c6c6572206973206e6f7420746f60448201527f6b656e206f776e6572206f7220617070726f76656420666f7220616c6c0000006064820152608490fd5b9050845260056020526040842033855260205260ff60408520541638611dcf565b60405162461bcd60e51b815260206004820152602160248201527f4552433732313a20617070726f76616c20746f2063757272656e74206f776e656044820152603960f91b6064820152608490fd5b50346102a95760203660031901126102a9576004358015158091036105fb57611f286122f4565b6006805460ff60a01b191660a09290921b60ff60a01b16919091179055604051f35b50346102a95760203660031901126102a957602061128a6004356123be565b50346102a957806003193601126102a9576040519080805491600183811c9281851694851561201f575b6020958686108114610f1a57858852879493929187908215610ef8575050600114611fc6575050610e8b92500383612217565b908592508180527f290decd9548b62a8d60345a988386fc84ba6bc95484008f6362f93160ef3e5635b858310612007575050610e8b93508201013880610e7d565b80548389018501528794508693909201918101611fef565b93607f1693611f93565b50346102a95761203836612144565b9061204e60018060a01b03600a54163314612f60565b8252600e602052600e604083200155604051f35b50346102a95760203660031901126102a95760043563ffffffff60e01b81168091036105fb576020906380ac58cd60e01b81149081156120c0575b81156120af575b506040519015158152f35b6301ffc9a760e01b149050826120a4565b635b5e139f60e01b8114915061209d565b50346102a95760203660031901126102a9576120eb612113565b6120f36122f4565b60018060a01b03166001600160601b0360a01b6009541617600955604051f35b600435906001600160a01b038216820361212957565b600080fd5b602435906001600160a01b038216820361212957565b6040906003190112612129576004359060243590565b918091926000905b82821061217a575011612173575050565b6000910152565b91508060209183015181860152018291612162565b906020916121a88151809281855285808601910161215a565b601f01601f1916010190565b610140810190811067ffffffffffffffff8211176121d157604052565b634e487b7160e01b600052604160045260246000fd5b67ffffffffffffffff81116121d157604052565b6060810190811067ffffffffffffffff8211176121d157604052565b90601f8019910116810190811067ffffffffffffffff8211176121d157604052565b6060906003190112612129576001600160a01b0390600435828116810361212957916024359081168103612129579060443590565b919091610140810192805182526020810151602083015260408101516040830152606081015160608301526080810151608083015260a081015160a083015260c081015160c083015260e081015160e0830152610100808201519083015261012080910151910152565b67ffffffffffffffff81116121d157601f01601f191660200190565b6006546001600160a01b0316330361230857565b606460405162461bcd60e51b815260206004820152602060248201527f4f776e61626c653a2063616c6c6572206973206e6f7420746865206f776e65726044820152fd5b1561235357565b60405162461bcd60e51b815260206004820152601860248201527f4552433732313a20696e76616c696420746f6b656e20494400000000000000006044820152606490fd5b6000908152600260205260409020546001600160a01b03166123bb81151561234c565b90565b6000818152600260205260409020546123e1906001600160a01b0316151561234c565b6000908152600460205260409020546001600160a01b031690565b1561240357565b60405162461bcd60e51b815260206004820152602d60248201527f4552433732313a2063616c6c6572206973206e6f7420746f6b656e206f776e6560448201526c1c881bdc88185c1c1c9bdd9959609a1b6064820152608490fd5b90612482939291612472611bbf84336124f9565b61247d8383836125c1565b612704565b1561248957565b60405162461bcd60e51b8152806124a2600482016124a6565b0390fd5b60809060208152603260208201527f4552433732313a207472616e7366657220746f206e6f6e20455243373231526560408201527131b2b4bb32b91034b6b83632b6b2b73a32b960711b60608201520190565b906001600160a01b03808061250d84612398565b16931691838314938415612540575b50831561252a575b50505090565b612536919293506123be565b1614388080612524565b909350600052600560205260406000208260005260205260ff60406000205416923861251c565b1561256e57565b60405162461bcd60e51b815260206004820152602560248201527f4552433732313a207472616e736665722066726f6d20696e636f72726563742060448201526437bbb732b960d91b6064820152608490fd5b906125e9916125cf84612398565b6001600160a01b0393918416928492909183168414612567565b169182156126835781612606916125ff86612398565b1614612567565b7fddf252ad1be2c89b69c2b068fc378daa952ba7f163c4a11628f55a4df523b3ef60008481526004602052604081206001600160601b0360a01b90818154169055838252600360205260408220600019815401905584825260408220600181540190558582526002602052846040832091825416179055604051a4565b60405162461bcd60e51b8152602060048201526024808201527f4552433732313a207472616e7366657220746f20746865207a65726f206164646044820152637265737360e01b6064820152608490fd5b3d156126ff573d906126e5826122d8565b916126f36040519384612217565b82523d6000602084013e565b606090565b91926000929190813b156127f25760209161275a9185604051958680958194630a85bd0160e11b9b8c845233600485015260018060a01b038095166024850152604484015260806064840152608483019061218f565b0393165af1908290826127aa575b505061279c576127766126d4565b805190816127975760405162461bcd60e51b8152806124a2600482016124a6565b602001fd5b6001600160e01b0319161490565b909192506020813d82116127ea575b816127c660209383612217565b810103126105fb5751906001600160e01b0319821682036102a95750903880612768565b3d91506127b9565b5050505050600190565b600a546001600160a01b039061281590821615156128bc565b612824816009541615156128bc565b61283381600b541615156128bc565b80600c54166128438115156128bc565b61285560ff60065460a01c16156128fa565b600754421061123857600d5434036112035760008080926040519034905af190600080516020612fa483398151915261288f6111b56126d4565b943460208301521515940390a360005b600181106128aa5750565b6128b7906111f93361296f565b61289f565b156128c357565b60405162461bcd60e51b815260206004820152600f60248201526e139bdd081a5b9a5d1a585b1a5e9959608a1b6044820152606490fd5b1561290157565b60405162461bcd60e51b815260206004820152600660248201526514185d5cd95960d21b6044820152606490fd5b600019811461293e5760010190565b634e487b7160e01b600052601160045260246000fd5b90816060910312612129578051916040602083015192015190565b61297a60085461292f565b60088190556001600160a01b0382168015612ca6576000828152600260205260409020546129b4906001600160a01b031615155b15612cea565b6000828152600260205260409020546129d7906001600160a01b031615156129ae565b8060005260036020526040600020600181540190558160005260026020526040600020816001600160601b0360a01b82541617905560007fddf252ad1be2c89b69c2b068fc378daa952ba7f163c4a11628f55a4df523b3ef81604051a460005b60038110612a925750506008546001431061293e57604080516020810183815243600019014082840152918152612a6d816121fb565b51902090600052600e6020526040600020556008546000526003600160406000200155565b60095460085460405163d395cb1360e01b81526001600160a01b038581166004830152602482019290925260448101849052929160609184916064918391600091165af18015612c9a5760008093600092612c74575b50600854612af583612e90565b948286528460208701526101008601526040850184815281600052600e6020526003604060002001836000526020526040600020908651825560208701516001830155516002820155606086015160038201556080860151600482015560a0860151600582015560c0860151600682015560e086015160078201556101008601516008820155600961012087015191015580600052600e60205281612ba4611762866004604060002001612e0d565b905580600052600e6020526001604060002001612bc1815461292f565b905580600052600e602052600260406000200192835492600119841161293e57612c6f967fe99c2f556014ff7b301076eebbf17d96fa123ef4f5c9371a59dee751d4500eaa9560016101209601905583600052600e602052600e60406000200154606082015160808301519161010060e08501519401519460405197885260208801528960408801526060870152608086015260a085015260c084015260e0830152610100820152a161292f565b612a37565b915050612c9191925060603d606011611888576118778183612217565b90929138612ae8565b6040513d6000823e3d90fd5b606460405162461bcd60e51b815260206004820152602060248201527f4552433732313a206d696e7420746f20746865207a65726f20616464726573736044820152fd5b15612cf157565b60405162461bcd60e51b815260206004820152601c60248201527f4552433732313a20746f6b656e20616c7265616479206d696e746564000000006044820152606490fd5b15612d3d57565b60405162461bcd60e51b81526020600482015260116024820152702737ba10383937b13632b69037bbb732b960791b6044820152606490fd5b15612d7d57565b60405162461bcd60e51b815260206004820152601f60248201527f43616e6e6f742068617665206d6f7265207468616e20313020626f64696573006044820152606490fd5b15612dc957565b606460405162461bcd60e51b815260206004820152602060248201527f50726f626c656d20616c7265616479206d696e74656420313020626f646965736044820152fd5b600a821015612e1d570190600090565b634e487b7160e01b600052603260045260246000fd5b90600a811015612e1d5760051b0190565b60405190612e51826121b4565b816101206000918281528260208201528260408201528260608201528260808201528260a08201528260c08201528260e0820152826101008201520152565b612e98612e44565b50612ea1612e44565b610120810182905290600019600382068015158183046005111661293e57600502600219811161293e57600201906103e89282820484118315151661293e576001431061293e576040918251906020820192835243014083820152828152612f08816121fb565b5190209080516020810191838352602082528082019082821067ffffffffffffffff8311176121d15752620f4240918291519020069106606085015260808401526127108060a085015260c08401520260e082015290565b15612f6757565b60405162461bcd60e51b815260206004820152601460248201527313db9b1e4814dbdb1d995c8818d85b8818d85b1b60621b6044820152606490fdfeb08889abce443443404b2caf69aa3ccfb9ebfdf1ad2a634d06e11e24c1067938a26469706673582212201b80efd232fa38f6c0cae9a18c870e60d3594062c74b037cbeb5ae2518b6551764736f6c634300080f0033",
	"linkReferences": {},
	"deployedLinkReferences": {}
}