{
  "_format": "hh-sol-artifact-1",
  "contractName": "Solver",
  "sourceName": "contracts/Solver.sol",
  "abi": [
    {
      "inputs": [
        {
          "internalType": "address payable",
          "name": "problems_",
          "type": "address"
        },
        {
          "internalType": "address",
          "name": "tocks_",
          "type": "address"
        }
      ],
      "stateMutability": "nonpayable",
      "type": "constructor"
    },
    {
      "anonymous": false,
      "inputs": [
        {
          "indexed": true,
          "internalType": "address",
          "name": "previousOwner",
          "type": "address"
        },
        {
          "indexed": true,
          "internalType": "address",
          "name": "newOwner",
          "type": "address"
        }
      ],
      "name": "OwnershipTransferred",
      "type": "event"
    },
    {
      "anonymous": false,
      "inputs": [
        {
          "indexed": true,
          "internalType": "uint256",
          "name": "problemId",
          "type": "uint256"
        },
        {
          "indexed": true,
          "internalType": "uint256",
          "name": "previousTickCount",
          "type": "uint256"
        },
        {
          "indexed": true,
          "internalType": "uint256",
          "name": "tickCount",
          "type": "uint256"
        }
      ],
      "name": "Solved",
      "type": "event"
    },
    {
      "stateMutability": "nonpayable",
      "type": "fallback"
    },
    {
      "inputs": [
        {
          "internalType": "uint256",
          "name": "",
          "type": "uint256"
        }
      ],
      "name": "bodyBoost",
      "outputs": [
        {
          "internalType": "uint256",
          "name": "",
          "type": "uint256"
        }
      ],
      "stateMutability": "view",
      "type": "function"
    },
    {
      "inputs": [],
      "name": "decimals",
      "outputs": [
        {
          "internalType": "uint256",
          "name": "",
          "type": "uint256"
        }
      ],
      "stateMutability": "view",
      "type": "function"
    },
    {
      "inputs": [],
      "name": "owner",
      "outputs": [
        {
          "internalType": "address",
          "name": "",
          "type": "address"
        }
      ],
      "stateMutability": "view",
      "type": "function"
    },
    {
      "inputs": [],
      "name": "problems",
      "outputs": [
        {
          "internalType": "address payable",
          "name": "",
          "type": "address"
        }
      ],
      "stateMutability": "view",
      "type": "function"
    },
    {
      "inputs": [],
      "name": "renounceOwnership",
      "outputs": [],
      "stateMutability": "nonpayable",
      "type": "function"
    },
    {
      "inputs": [
        {
          "internalType": "uint256",
          "name": "problemId",
          "type": "uint256"
        },
        {
          "internalType": "uint256",
          "name": "tickCount",
          "type": "uint256"
        },
        {
          "internalType": "uint256[2]",
          "name": "a",
          "type": "uint256[2]"
        },
        {
          "internalType": "uint256[2][2]",
          "name": "b",
          "type": "uint256[2][2]"
        },
        {
          "internalType": "uint256[2]",
          "name": "c",
          "type": "uint256[2]"
        },
        {
          "internalType": "uint256[]",
          "name": "input",
          "type": "uint256[]"
        }
      ],
      "name": "solveProblem",
      "outputs": [],
      "stateMutability": "nonpayable",
      "type": "function"
    },
    {
      "inputs": [],
      "name": "tocks",
      "outputs": [
        {
          "internalType": "address",
          "name": "",
          "type": "address"
        }
      ],
      "stateMutability": "view",
      "type": "function"
    },
    {
      "inputs": [
        {
          "internalType": "address",
          "name": "newOwner",
          "type": "address"
        }
      ],
      "name": "transferOwnership",
      "outputs": [],
      "stateMutability": "nonpayable",
      "type": "function"
    },
    {
      "inputs": [
        {
          "internalType": "address payable",
          "name": "problems_",
          "type": "address"
        }
      ],
      "name": "updateProblemsAddress",
      "outputs": [],
      "stateMutability": "nonpayable",
      "type": "function"
    },
    {
      "inputs": [
        {
          "internalType": "address",
          "name": "tocks_",
          "type": "address"
        }
      ],
      "name": "updateTocksAddress",
      "outputs": [],
      "stateMutability": "nonpayable",
      "type": "function"
    }
  ],
  "bytecode": "0x6080346101615762001cb7906001600160401b03601f38849003908101601f19168301908282118483101761016657808491604096879485528339810103126101615781516001600160a01b039081811690819003610161576020809401519382851680950361016157600080549460018060a01b031995338782161783558851953391167f8be0079c531659141344cd1fd0a4f28419497f9722a3daafe3b4186f6b6457e08488a361016085019081118582101761014d5787929192528184528181850152818785015260019384606082015260026080820152600460a0820152600860c0820152601060e0820152816101008201528761012082015260806101408201529084600393925b600b841061013657509150508491505416179055600254161760025551611b3a90816200017d8239f35b805160ff168555938101939201918590820161010c565b634e487b7160e01b82526041600452602482fd5b600080fd5b634e487b7160e01b600052604160045260246000fdfe60806040526004361015610054575b3461004f5760405162461bcd60e51b81526020600482015260146024820152733737903330b6363130b1b590333ab731ba34b7b760611b6044820152606490fd5b600080fd5b6000803560e01c8063087c32e6146117b1578063313ce5671461178e5780633e301fd014611765578063715018a6146117085780638da5cb5b146116e1578063952ef7ef14611695578063ab85f1f4146101f7578063cd190a92146101c6578063f2fde38b146100f95763f9df988f146100ce575061000e565b346100f657806003193601126100f6576001546040516001600160a01b039091168152602090f35b80fd5b50346100f65760203660031901126100f6576001600160a01b03600435818116908190036101c25761012961195e565b801561016e57600080546001600160a01b03198116831782556040519316907f8be0079c531659141344cd1fd0a4f28419497f9722a3daafe3b4186f6b6457e09084a3f35b60405162461bcd60e51b815260206004820152602660248201527f4f776e61626c653a206e6577206f776e657220697320746865207a65726f206160448201526564647265737360d01b6064820152608490fd5b8280fd5b50346100f65760203660031901126100f657600435600b8110156101f35760209060030154604051908152f35b5080fd5b50346100f6576101603660031901126100f65736606312156100f65760405161021f81611842565b80366084116101c2576044905b608482106116855750503660a312156101f3576040519061024c82611842565b813661010411610903576084905b61010482106116345750503661012312156101c25760405161027b81611842565b803661014411610b0e57610104905b61014482106116245750506001600160401b0390816101443511610b0e5736602361014435011215610b0e57610144356004013591821161161057604051918060051b906102db602083018561193d565b8352602083013660248361014435010111610bd65760246101443501905b60248361014435010182106116005750506001546040516331a9108f60e11b815260048035908201526001600160a01b03909116949150602081602481885afa9081156115a15787916115e1575b50336001600160a01b03909116036115ac576040516375d279b360e11b8152600480359082015291608083602481885afa9586156115a15787938897611563575b50610392846119d5565b8060001904600211811515166109075760011b85510361152757604051916343569ffb60e01b835284600484015260243560248401526020836044818a5afa92831561151c5789936114eb575b506001600160a01b038316156114b35760038503610c86576040519161040483611921565b6103c080933690376040519261041984611921565b368437895b601e8110610c66575061044e949291610458610462926040519788966301d28c8160e31b88526004880190611a33565b6044860190611a5b565b60c4840190611a33565b8861010483015b601e8210610c4c57506020936104c492508391506001600160a01b03165afa908115610b4f578691610c1d575b5015610be1575b84604051936310211ca160e21b8552600435600486015261014085602481845afa9485156108f8578295610b5a575b506104d960243587611aae565b90803b156101c2576044839260405194859384926304b24e8560e01b8452600435600485015260248401525af18015610b4f57610b3c575b506002546001600160a01b0316600b821015610b2857816003015490602435600019048211602435151516610b12576024358202600019819004670de0b6b3a76400001190151516610b12578691813b156101c257670de0b6b3a7640000604484928360405195869485936340c10f1960e01b8552336004860152602435020260248401525af180156108f857610afa575b506101206040516105b381611826565b8281528260208201528260408201528260608201528260808201528260a08201528260c08201528260e0820152826101008201520152845b818110610624576040518690602435876004357f0c4d840a1a0bafcdc673f07982de54d3fb2f2628e86cf3b9116675b01a1197028585a4f35b6001546001600160a01b031661063a8286611ac9565b516040519063618faeb560e11b82526004356004830152602482015261014081604481855afa908115610aef578891610a49575b50610100810151602435811061090757602435900361010082015260608101516106b26106ac61069d876119eb565b6106a6876119d5565b90611aae565b87611af0565b5103610a0f576106ca6106c4846119d5565b86611af0565b51606082015260808101516106ea6106e1866119eb565b6106a6866119d5565b6001198111610951576001610700910187611af0565b51036109d55761070f836119d5565b6001198111610907576001610725910186611af0565b51608082015260a081015161073c6106e1866119eb565b6002198111610951576002610752910187611af0565b510361099d57610761836119d5565b6002198111610907576002610777910186611af0565b5160a082015260c081015161078e6106e1866119eb565b60031981116109515760036107a4910187611af0565b5103610965576107b3836119d5565b60031981116109075760036107c9910186611af0565b5160c082015260e08101516107e06106e1866119eb565b60041981116109515760046107f6910187611af0565b510361091b57610805836119d5565b6004198111610907579061081e60048a94930187611af0565b5160e082015261082e8488611ac9565b5190823b1561090357610184849283610120956040519687958694630e9776ab60e11b865260043560048701526024860152805160448601526020810151606486015260408101516084860152606081015160a4860152608081015160c486015260a081015160e486015260c081015161010486015260e081015161012486015261010081015161014486015201516101648401525af180156108f8576108e0575b50506108db90611aba565b6105eb565b6108e9906117fd565b6108f45785386108d0565b8580fd5b6040513d84823e3d90fd5b8380fd5b634e487b7160e01b89526011600452602489fd5b60405162461bcd60e51b815260206004820152600e60248201526d496e76616c69642072616469757360901b6044820152606490fd5b634e487b7160e01b8a52601160045260248afd5b60405162461bcd60e51b815260206004820152601060248201526f496e76616c696420766563746f72207960801b6044820152606490fd5b60405162461bcd60e51b815260206004820152601060248201526f092dcecc2d8d2c840eccac6e8dee440f60831b6044820152606490fd5b60405162461bcd60e51b8152602060048201526012602482015271496e76616c696420706f736974696f6e207960701b6044820152606490fd5b60405162461bcd60e51b8152602060048201526012602482015271092dcecc2d8d2c840e0dee6d2e8d2dedc40f60731b6044820152606490fd5b9050610140813d61014011610ae7575b81610a67610140938361193d565b81010312610ae35761012060405191610a7f83611826565b805183526020810151602084015260408101516040840152606081015160608401526080810151608084015260a081015160a084015260c081015160c084015260e081015160e084015261010081015161010084015201516101208201523861066e565b8780fd5b3d9150610a59565b6040513d8a823e3d90fd5b610b03906117fd565b610b0e5784386105a3565b8480fd5b634e487b7160e01b600052601160045260246000fd5b634e487b7160e01b86526032600452602486fd5b610b48909591956117fd565b9338610511565b6040513d88823e3d90fd5b915093506101403d61014011610bda575b610b75818361193d565b81019061014081830312610bd65781601f82011215610bd65760405191610b9b83611826565b8290610140830111610ae3579087929181905b61014083018210610bc35750505093386104cc565b8151815289945060209182019101610bae565b8680fd5b503d610b6b565b60405162461bcd60e51b815260206004820152601460248201527324b73b30b634b21019903137b23c90383937b7b360611b6044820152606490fd5b610c3f915060203d602011610c45575b610c37818361193d565b810190611a1b565b38610496565b503d610c2d565b829350602080916001939451815201930191018492610469565b80610c74610c81928a611af0565b518160051b860152611aba565b61041e565b60048503610dad5760405191610c9b83611905565b610500809336903760405192610cb084611905565b368437895b60288110610d9a575061044e949291610458610ce5926040519788966319da330f60e01b88526004880190611a33565b8861010483015b60288210610d80575060209361060492508391506001600160a01b03165afa908115610b4f578691610d61575b5015610d25575b61049d565b60405162461bcd60e51b815260206004820152601460248201527324b73b30b634b2101a103137b23c90383937b7b360611b6044820152606490fd5b610d7a915060203d602011610c4557610c37818361193d565b38610d19565b829350602080916001939451815201930191018492610cec565b80610c74610da8928a611af0565b610cb5565b60058503610ecd5760405191610dc2836118e9565b610640809336903760405192610dd7846118e9565b368437895b60328110610eba575061044e949291610458610e0c9260405197889663a63bed3760e01b88526004880190611a33565b8861010483015b60328210610ea0575060209361074492508391506001600160a01b03165afa908115610b4f578691610e81575b5061049d5760405162461bcd60e51b815260206004820152601460248201527324b73b30b634b2101a903137b23c90383937b7b360611b6044820152606490fd5b610e9a915060203d602011610c4557610c37818361193d565b38610e40565b829350602080916001939451815201930191018492610e13565b80610c74610ec8928a611af0565b610ddc565b60068503610fed5760405191610ee2836118cd565b610780809336903760405192610ef7846118cd565b368437895b603c8110610fda575061044e949291610458610f2c9260405197889663a54a2bcf60e01b88526004880190611a33565b8861010483015b603c8210610fc0575060209361088492508391506001600160a01b03165afa908115610b4f578691610fa1575b5061049d5760405162461bcd60e51b815260206004820152601460248201527324b73b30b634b2101b103137b23c90383937b7b360611b6044820152606490fd5b610fba915060203d602011610c4557610c37818361193d565b38610f60565b829350602080916001939451815201930191018492610f33565b80610c74610fe8928a611af0565b610efc565b6007850361110d5760405191611002836118b1565b6108c0809336903760405192611017846118b1565b368437895b604681106110fa575061044e94929161045861104c92604051978896632cb278a960e11b88526004880190611a33565b8861010483015b604682106110e057506020936109c492508391506001600160a01b03165afa908115610b4f5786916110c1575b5061049d5760405162461bcd60e51b815260206004820152601460248201527324b73b30b634b2101b903137b23c90383937b7b360611b6044820152606490fd5b6110da915060203d602011610c4557610c37818361193d565b38611080565b829350602080916001939451815201930191018492611053565b80610c74611108928a611af0565b61101c565b6008850361122d576040519161112283611895565b610a0080933690376040519261113784611895565b368437895b6050811061121a575061044e94929161045861116c926040519788966361fd13f960e11b88526004880190611a33565b8861010483015b605082106112005750602093610b0492508391506001600160a01b03165afa908115610b4f5786916111e1575b5061049d5760405162461bcd60e51b815260206004820152601460248201527324b73b30b634b2101c103137b23c90383937b7b360611b6044820152606490fd5b6111fa915060203d602011610c4557610c37818361193d565b386111a0565b829350602080916001939451815201930191018492611173565b80610c74611228928a611af0565b61113c565b6009850361134d576040519161124283611879565b610b4080933690376040519261125784611879565b368437895b605a811061133a575061044e94929161045861128c92604051978896634456e8b360e01b88526004880190611a33565b8861010483015b605a82106113205750602093610c4492508391506001600160a01b03165afa908115610b4f578691611301575b50610d205760405162461bcd60e51b815260206004820152601460248201527324b73b30b634b2101c903137b23c90383937b7b360611b6044820152606490fd5b61131a915060203d602011610c4557610c37818361193d565b386112c0565b829350602080916001939451815201930191018492611293565b80610c74611348928a611af0565b61125c565b600a850361146e57604051916113628361185d565b610c808093369037604051926113778461185d565b368437895b6064811061145b575061044e9492916104586113ac9260405197889663170ac5a560e11b88526004880190611a33565b8861010483015b606482106114415750602093610d8492508391506001600160a01b03165afa908115610b4f578691611422575b50610d205760405162461bcd60e51b815260206004820152601560248201527424b73b30b634b2101898103137b23c90383937b7b360591b6044820152606490fd5b61143b915060203d602011610c4557610c37818361193d565b386113e0565b8293506020809160019394518152019301910184926113b3565b80610c74611469928a611af0565b61137c565b60405162461bcd60e51b815260206004820152601860248201527f496e76616c6964206e756d626572206f6620626f6469657300000000000000006044820152606490fd5b60405162461bcd60e51b815260206004820152601060248201526f24b73b30b634b2103b32b934b334b2b960811b6044820152606490fd5b61150e91935060203d602011611515575b611506818361193d565b8101906119b6565b91386103df565b503d6114fc565b6040513d8b823e3d90fd5b60405162461bcd60e51b8152602060048201526014602482015273092dcecc2d8d2c840d2dce0eae840d8cadccee8d60631b6044820152606490fd5b935095506080833d608011611599575b816115806080938361193d565b81010312610bd657606060208401519301519538610388565b3d9150611573565b6040513d89823e3d90fd5b60405162461bcd60e51b815260206004820152600d60248201526c2737ba103a34329037bbb732b960991b6044820152606490fd5b6115fa915060203d60201161151557611506818361193d565b38610347565b81358152602091820191016102f9565b634e487b7160e01b85526041600452602485fd5b813581526020918201910161028a565b36601f83011215610b0e5760405161164b81611842565b8060408401368111610ae35784915b8183106116755750505081602091604093520191019061025a565b823581526020928301920161165a565b813581526020918201910161022c565b50346100f65760203660031901126100f6576004356001600160a01b038116908190036101f3576116c461195e565b6bffffffffffffffffffffffff60a01b6002541617600255604051f35b50346100f657806003193601126100f657546040516001600160a01b039091168152602090f35b50346100f657806003193601126100f65761172161195e565b80546001600160a01b0319811682556040519082906001600160a01b03167f8be0079c531659141344cd1fd0a4f28419497f9722a3daafe3b4186f6b6457e08284a3f35b50346100f657806003193601126100f6576002546040516001600160a01b039091168152602090f35b50346100f657806003193601126100f6576020604051670de0b6b3a76400008152f35b50346100f65760203660031901126100f6576004356001600160a01b038116908190036101f3576117e061195e565b6bffffffffffffffffffffffff60a01b6001541617600155604051f35b6001600160401b03811161181057604052565b634e487b7160e01b600052604160045260246000fd5b61014081019081106001600160401b0382111761181057604052565b604081019081106001600160401b0382111761181057604052565b610c8081019081106001600160401b0382111761181057604052565b610b4081019081106001600160401b0382111761181057604052565b610a0081019081106001600160401b0382111761181057604052565b6108c081019081106001600160401b0382111761181057604052565b61078081019081106001600160401b0382111761181057604052565b61064081019081106001600160401b0382111761181057604052565b61050081019081106001600160401b0382111761181057604052565b6103c081019081106001600160401b0382111761181057604052565b90601f801991011681019081106001600160401b0382111761181057604052565b6000546001600160a01b0316330361197257565b606460405162461bcd60e51b815260206004820152602060248201527f4f776e61626c653a2063616c6c6572206973206e6f7420746865206f776e65726044820152fd5b9081602091031261004f57516001600160a01b038116810361004f5790565b806000190460051181151516610b125760050290565b7f33333333333333333333333333333333333333333333333333333333333333338111600116610b125760050290565b9081602091031261004f5751801515810361004f5790565b6000915b60028310611a4457505050565b600190825181526020809101920192019190611a37565b9060009182915b600280841015611aa75782518590835b838310611a9057505050506020604060019201920192019190611a62565b600190825181526020809101920192019190611a72565b5050505050565b81198111610b12570190565b6000198114610b125760010190565b90600a811015611ada5760051b0190565b634e487b7160e01b600052603260045260246000fd5b8051821015611ada5760209160051b01019056fea26469706673582212207d9e6ae0bcd6ae1b489f04079485a392d6a3b750a2fb909abda0741d0203285764736f6c634300080f0033",
  "linkReferences": {},
  "deployedLinkReferences": {}
}