{
  "_format": "hh-sol-artifact-1",
  "contractName": "ProblemMetadata",
  "sourceName": "contracts/ProblemMetadata.sol",
  "abi": [
    {
      "inputs": [],
      "stateMutability": "nonpayable",
      "type": "constructor"
    },
    {
      "anonymous": false,
      "inputs": [
        {
          "indexed": true,
          "internalType": "address",
          "name": "previousOwner",
          "type": "address"
        },
        {
          "indexed": true,
          "internalType": "address",
          "name": "newOwner",
          "type": "address"
        }
      ],
      "name": "OwnershipTransferred",
      "type": "event"
    },
    {
      "inputs": [
        {
          "internalType": "uint256",
          "name": "id",
          "type": "uint256"
        }
      ],
      "name": "exists",
      "outputs": [
        {
          "internalType": "bool",
          "name": "",
          "type": "bool"
        }
      ],
      "stateMutability": "view",
      "type": "function"
    },
    {
      "inputs": [
        {
          "internalType": "uint256",
          "name": "tokenId",
          "type": "uint256"
        }
      ],
      "name": "getHTML",
      "outputs": [
        {
          "internalType": "string",
          "name": "",
          "type": "string"
        }
      ],
      "stateMutability": "view",
      "type": "function"
    },
    {
      "inputs": [
        {
          "internalType": "uint256",
          "name": "tokenId",
          "type": "uint256"
        }
      ],
      "name": "getName",
      "outputs": [
        {
          "internalType": "string",
          "name": "",
          "type": "string"
        }
      ],
      "stateMutability": "pure",
      "type": "function"
    },
    {
      "inputs": [
        {
          "internalType": "uint256",
          "name": "tokenId",
          "type": "uint256"
        }
      ],
      "name": "getPath",
      "outputs": [
        {
          "internalType": "string",
          "name": "",
          "type": "string"
        }
      ],
      "stateMutability": "view",
      "type": "function"
    },
    {
      "inputs": [
        {
          "internalType": "uint256",
          "name": "tokenId",
          "type": "uint256"
        }
      ],
      "name": "getProblemMetadata",
      "outputs": [
        {
          "internalType": "string",
          "name": "",
          "type": "string"
        }
      ],
      "stateMutability": "view",
      "type": "function"
    },
    {
      "inputs": [
        {
          "internalType": "uint256",
          "name": "tokenId",
          "type": "uint256"
        }
      ],
      "name": "getSVG",
      "outputs": [
        {
          "internalType": "string",
          "name": "",
          "type": "string"
        }
      ],
      "stateMutability": "view",
      "type": "function"
    },
    {
      "inputs": [],
      "name": "owner",
      "outputs": [
        {
          "internalType": "address",
          "name": "",
          "type": "address"
        }
      ],
      "stateMutability": "view",
      "type": "function"
    },
    {
      "inputs": [],
      "name": "problems",
      "outputs": [
        {
          "internalType": "address payable",
          "name": "",
          "type": "address"
        }
      ],
      "stateMutability": "view",
      "type": "function"
    },
    {
      "inputs": [],
      "name": "renounceOwnership",
      "outputs": [],
      "stateMutability": "nonpayable",
      "type": "function"
    },
    {
      "inputs": [
        {
          "internalType": "bytes32",
          "name": "seed",
          "type": "bytes32"
        }
      ],
      "name": "seedToColor",
      "outputs": [
        {
          "internalType": "string",
          "name": "",
          "type": "string"
        }
      ],
      "stateMutability": "pure",
      "type": "function"
    },
    {
      "inputs": [
        {
          "internalType": "address",
          "name": "newOwner",
          "type": "address"
        }
      ],
      "name": "transferOwnership",
      "outputs": [],
      "stateMutability": "nonpayable",
      "type": "function"
    },
    {
      "inputs": [
        {
          "internalType": "address payable",
          "name": "problems_",
          "type": "address"
        }
      ],
      "name": "updateProblemsAddress",
      "outputs": [],
      "stateMutability": "nonpayable",
      "type": "function"
    }
  ],
  "bytecode": "0x6080806040523461005b5760008054336001600160a01b0319821681178355916001600160a01b03909116907f8be0079c531659141344cd1fd0a4f28419497f9722a3daafe3b4186f6b6457e09084a3611bda90816100618239f35b600080fdfe60806040526004361015610013575b600080fd5b60003560e01c8063087c32e614610103578063102581d2146100fa5780634f558e79146100f157806351a35b55146100e85780636b8ff574146100df578063715018a6146100d65780638da5cb5b146100cd578063be985ac9146100c4578063e1765073146100bb578063e82fedd7146100b2578063f2fde38b146100a95763f9df988f146100a157600080fd5b61000e61097c565b5061000e6108af565b5061000e61088f565b5061000e610875565b5061000e610860565b5061000e610836565b5061000e6107d4565b5061000e6107ba565b5061000e6102df565b5061000e6102bc565b5061000e6101d8565b5061000e61011d565b6001600160a01b0381160361000e57565b503461000e57602036600319011261000e5760043561013b8161010c565b6101436109a6565b600180546001600160a01b0319166001600160a01b0392909216919091179055005b602090600319011261000e5760043590565b918091926000905b828210610197575011610190575050565b6000910152565b9150806020918301518186015201829161017f565b604091602082526101cc8151809281602086015260208686019101610177565b601f01601f1916010190565b503461000e576102b86102606101f56101f036610165565b610ecf565b61025b60466040518093753c68746d6c3e3c626f64793e3c696d67207372633d2760501b6020830152610232815180926020603686019101610177565b81016f139f1e17b137b23c9f1e17b43a36b61f60811b6036820152036026810184520182610a3e565b610d9b565b6102ac603660405180937519185d184e9d195e1d0bda1d1b5b0ed8985cd94d8d0b60521b602083015261029c8151809260208686019101610177565b8101036016810184520182610a3e565b604051918291826101ac565b0390f35b503461000e5760206102d56102d036610165565b610a6d565b6040519015158152f35b503461000e5761039e6102f136610165565b6103026102fd82610a6d565b610afb565b61030b81610e87565b61031482610ecf565b61031d83610ecf565b60015490929061034390610337906001600160a01b031681565b6001600160a01b031690565b604080516375d279b360e11b81526004810187905290959091608083602481845afa9081156107ad575b6000809381958294610771575b50895180936317dff47760e31b8252818060209e8f95600483019190602083019252565b03915afa918215610764575b600092610731575b506103bc90611af5565b926103c69061192d565b936103d09061192d565b916103da9061192d565b906103e49061192d565b9188519485948b86016103ff90600190605b60f81b81520190565b7f7b2274726169745f74797065223a2273656564222c2276616c7565223a2200008152601e0161042e91610b38565b7f227d2c207b2274726169745f74797065223a22626f6479436f756e74222c227681526630b63ab2911d1160c91b602082015260270161046d91610b38565b7f227d2c207b2274726169745f74797065223a226d696e746564426f646965734981526e373232bc1116113b30b63ab2911d1160891b6020820152602f016104b491610b38565b7f227d2c207b2274726169745f74797065223a227469636b436f756e74222c227681526630b63ab2911d1160c91b60208201526027016104f391610b38565b7f227d2c207b2274726169745f74797065223a2273746172436f756e74222c227681526630b63ab2911d1160c91b602082015260270161053291610b38565b62227d5d60e81b81526003010393601f199485810183526105539083610a3e565b8551683d913730b6b2911d1160b91b88820190815290948594909160090161057a91610b38565b61088b60f21b81526002017f226465736372697074696f6e223a2022416e79626f64792050726f626c656d2081527f2868747470733a2f2f616e79626f64792e747269666c652e6c69666529222c006020820152603f01691134b6b0b3b2911d101160b11b8152600a016105ed91610b38565b61088b60f21b81526002016d1134b6b0b3b2afbab936111d101160911b8152600e0161061891610b38565b61088b60f21b81526002017f22686f6d655f75726c223a202268747470733a2f2f616e79626f64792e747269815269199b194b9b1a5999488b60b21b6020820152602a017f2265787465726e616c5f75726c223a202268747470733a2f2f616e79626f647981526d0b9d1c9a599b194b9b1a5999488b60921b6020820152602e016d01130ba3a3934b13aba32b9911d160951b8152600e016106b991610b38565b607d60f81b81526001010382810182526106d39082610a3e565b6106dc90610d9b565b82517f646174613a6170706c69636174696f6e2f6a736f6e3b6261736536342c00000094810194855293849190601d0161071591610b38565b0390810183526107259083610a3e565b516102b88192826101ac565b6103bc919250610756908b3d8d1161075d575b61074e8183610a3e565b810190611121565b91906103b2565b503d610744565b61076c610a60565b6103aa565b929450945050610798915060803d81116107a6575b6107908183610a3e565b810190611092565b90949193909290913861037a565b503d610786565b6107b5610a60565b61036d565b503461000e576102b86102ac6107cf36610165565b610e87565b503461000e57600080600319360112610833576107ef6109a6565b80546001600160a01b0319811682556040519082906001600160a01b03167f8be0079c531659141344cd1fd0a4f28419497f9722a3daafe3b4186f6b6457e08284a3f35b80fd5b503461000e57600036600319011261000e576000546040516001600160a01b039091168152602090f35b503461000e576102b86102ac6101f036610165565b503461000e576102b86102ac61088a36610165565b611210565b503461000e57602036600319011261000e576102b86102ac600435611869565b503461000e57602036600319011261000e576004356108cd8161010c565b6108d56109a6565b6001600160a01b0390811690811561092857600080546001600160a01b031981168417825560405191939192167f8be0079c531659141344cd1fd0a4f28419497f9722a3daafe3b4186f6b6457e08484a3f35b60405162461bcd60e51b815260206004820152602660248201527f4f776e61626c653a206e6577206f776e657220697320746865207a65726f206160448201526564647265737360d01b6064820152608490fd5b503461000e57600036600319011261000e576001546040516001600160a01b039091168152602090f35b6000546001600160a01b031633036109ba57565b606460405162461bcd60e51b815260206004820152602060248201527f4f776e61626c653a2063616c6c6572206973206e6f7420746865206f776e65726044820152fd5b50634e487b7160e01b600052604160045260246000fd5b6020810190811067ffffffffffffffff821117610a3157604052565b610a396109fe565b604052565b90601f8019910116810190811067ffffffffffffffff821117610a3157604052565b506040513d6000823e3d90fd5b6001546040516331a9108f60e11b815260048101929092526001600160a01b0391906020908290602490829086165afa908115610aee575b600091610ab4575b5016151590565b906020823d8211610ae6575b81610acd60209383610a3e565b81010312610833575051610ae08161010c565b38610aad565b3d9150610ac0565b610af6610a60565b610aa5565b15610b0257565b60405162461bcd60e51b815260206004820152600e60248201526d1113d154c81393d50811561254d560921b6044820152606490fd5b90610b4b60209282815194859201610177565b0190565b60405190610160820182811067ffffffffffffffff821117610a3157604052565b60209067ffffffffffffffff8111610b8e575b601f01601f19160190565b610b966109fe565b610b83565b60405190610ba882610a15565b60008252565b604051906060820182811067ffffffffffffffff821117610c1f575b604052604082527f6768696a6b6c6d6e6f707172737475767778797a303132333435363738392b2f6040837f4142434445464748494a4b4c4d4e4f505152535455565758595a61626364656660208201520152565b610c276109fe565b610bca565b50634e487b7160e01b600052601160045260246000fd5b6002906002198111610c53570190565b610b4b610c2c565b6020906020198111610c53570190565b81198111610c53570190565b8115610c81570490565b634e487b7160e01b600052601260045260246000fd5b6001600160fe1b038111600116610caf575b60021b90565b610cb7610c2c565b610ca9565b806000190460041181151516610caf5760021b90565b7f028f5c28f5c28f5c28f5c28f5c28f5c28f5c28f5c28f5c28f5c28f5c28f5c28f8111600116610d03575b60640290565b610d0b610c2c565b610cfd565b8060001904821181151516610d23570290565b610d2b610c2c565b0290565b604051906080820182811067ffffffffffffffff821117610d5c575b604052604282526060366020840137565b610d646109fe565b610d4b565b90610d7382610b70565b610d806040519182610a3e565b8281528092610d91601f1991610b70565b0190602036910137565b805115610e7b57610daa610bae565b610dc6610dc1610dba8451610c43565b6003900490565b610c97565b91610dd8610dd384610c5b565b610d69565b92835280815182019060208501935b828210610e2957505050600390510680600114610e1857600214610e09575090565b603d60f81b6000199091015290565b50613d3d60f01b6001199091015290565b9091936004906003809401938451600190603f9082828260121c16880101518553828282600c1c16880101518386015382828260061c1688010151600286015316850101519082015301939190610de7565b50610e84610b9b565b90565b610e909061192d565b610e84602960405180936850726f626c656d202360b81b6020830152610ebf8151809260208686019101610177565b8101036009810184520182610a3e565b610e84610fea61105161108693610ee86102fd82610a6d565b61103d611024610f00610efa84611210565b93610e87565b61101e6040519687957f3c3f786d6c2076657273696f6e3d22312e302220656e636f64696e673d22757460208801527f662d38223f3e3c73766720786d6c6e733d22687474703a2f2f7777772e77332e60408801527f6f72672f323030302f7376672220206865696768743d2231303025222077696460608801527f74683d2231303025222076696577426f783d223020302031303030203130303060808801527f22207374796c653d226261636b67726f756e642d636f6c6f723a677265793b2260a08801526f1f1e39ba3cb6329f1e17b9ba3cb6329f60811b60c088015260d0870190610b38565b7f3c7465787420783d2235302220793d223535302220636c6173733d226e616d65815261111f60f11b602082015260220190565b90610b38565b6c1e17ba32bc3a1f1e17b9bb339f60991b8152600d0190565b039161025b601f1993848101835282610a3e565b6040517f646174613a696d6167652f7376672b786d6c3b6261736536342c0000000000006020820152938491603a830161101e565b03908101835282610a3e565b919082608091031261000e578151916020810151916060604083015192015190565b90610140808383031261000e5781601f8401121561000e576040519281840184811067ffffffffffffffff821117611114575b6040528391810192831161000e57905b8282106111045750505090565b81518152602091820191016110f7565b61111c6109fe565b6110e7565b9081602091031261000e575190565b6001906000198114610c53570190565b50634e487b7160e01b600052603260045260246000fd5b90600a811015611169575b60051b0190565b611171611140565b611162565b908161016091031261000e5761118a610b4f565b90805182526020810151602083015260408101516040830152606081015160608301526080810151608083015260a081015160a083015260c081015160c083015260e081015160e083015261010080820151908301526101208082015190830152610140809101519082015290565b818110611204570390565b61120c610c2c565b0390565b611218610b9b565b60015490919061123290610337906001600160a01b031681565b604080516375d279b360e11b8152600480820185905290936080939192918486602481845afa95861561185c575b600096611839575b5082516310211ca160e21b81528481018381529094610140918290879081906020010381865afa95861561182c575b6000966117fd575b50845192631da686ff60e31b845260209687858481855afa9485156117f0575b6000956117d1575b509897969594939291906000995b898b106112ea57505050505050505050505090565b909192939495969798999a8989898e898b6113338a611309858b611157565b51865163618faeb560e11b8152918201938452602084015261016092909183918391829160400190565b03818d5afa9182156117c4575b600092611797575b5050818b60e083015161135a90610cbc565b61136383610cd2565b61136c91610c6b565b6113768382610c77565b61137f8161192d565b9361138991610d10565b611392916111f9565b61139b9061192d565b926060810195858751906113ae91610c77565b96516113ba8789610d10565b6113c3916111f9565b966113cd9061192d565b966113d79061192d565b9688519788918b83016113e991610b38565b601760f91b81526001016113fc91610b38565b0399601f199a8b810189526114119089610a3e565b8201958087519061142191610c77565b96519061142e9088610d10565b611437916111f9565b956114419061192d565b9561144b9061192d565b9588519687918b830161145d91610b38565b601760f91b815260010161147091610b38565b038a810187526114809087610a3e565b815161148b9061192d565b92885191828b81016114b6906012907103a3930b739b337b93696b7b934b3b4b71d160751b81520190565b6114c0908b610b38565b620383c160ed1b81526003016114d6908a610b38565b630383c1d960e51b8152600401038c810184526114f39084610a3e565b6114fc9061192d565b92015161150890611869565b97519a8b998a0161151891610b38565b7f3c7374796c653e20406b65796672616d6573206d6f7665456c6c6970736500008152601e016115489084610b38565b670103d901812903d960c51b81526008016115639082610b38565b7f207472616e73666f726d3a20726f74617465283064656729207472616e736c6181527f7465283070782c2031307078293b207d2031303025207b20000000000000000060208201526038016115b891610b38565b7f207472616e73666f726d3a20726f746174652833363064656729207472616e738152736c617465283070782c2031307078293b207d207d60601b60208201526034016a656c6c697073652369642d60a81b8152600b016116199083610b38565b7f207b20616e696d6174696f6e3a206d6f7665456c6c697073650000000000000081526019016116499083610b38565b7f20347320696e66696e697465206c696e6561723b20616e696d6174696f6e2d64815266656c61793a202d60c81b602082015260270161168891610b38565b6b399d903e9e17b9ba3cb6329f60a11b8152600c016f3c656c6c697073652069643d2269642d60801b81526010016116bf91610b38565b651110393c9e9160d11b81526006016116d89082610b38565b601760f91b81526001016116ec9083610b38565b651110393c1e9160d11b815260060161170491610b38565b601760f91b815260010161171791610b38565b65111031bc9e9160d11b815260060161172f91610b38565b65111031bc1e9160d11b815260060161174791610b38565b6711103334b6361e9160c11b815260080161176191610b38565b631110179f60e11b815260040103908101825261177e9082610a3e565b9a61178890611130565b999897969594939291906112d5565b6117b69250803d106117bd575b6117ae8183610a3e565b810190611176565b3880611348565b503d6117a4565b6117cc610a60565b611340565b6117e9919550883d8a1161075d5761074e8183610a3e565b93386112c7565b6117f8610a60565b6112bf565b61181e919650823d8411611825575b6118168183610a3e565b8101906110b4565b943861129f565b503d61180c565b611834610a60565b611297565b611851919650853d87116107a6576107908183610a3e565b505090509438611268565b611864610a60565b611260565b610e8460259161191261190461ffff61101e6118f66118bb60286118b4606482878b60201c16069683198811611920575b6118a9610168828d160661192d565b9a60101c160661192d565b940161192d565b92604051988997630d0e6d8560e31b60208a01526118e381518092602060248d019101610177565b8801600b60fa1b60248201520190610b38565b61094b60f21b815260020190565b61252960f01b815260020190565b03601f198101835282610a3e565b611928610c2c565b61189a565b806000917a184f03e93ff9f4daa797ed6e38ed64bf6a1f01000000000000000080821015611a62575b506d04ee2d6d415b85acef810000000080831015611a53575b50662386f26fc1000080831015611a44575b506305f5e10080831015611a35575b5061271080831015611a26575b506064821015611a16575b600a80921015611a0c575b6001908160216119c4828701610d69565b95860101905b6119d6575b5050505090565b600019019083906f181899199a1a9b1b9c1cb0b131b232b360811b8282061a835304918215611a07579190826119ca565b6119cf565b91600101916119b3565b91906064600291049101916119a8565b6004919392049101913861199d565b60089193920491019138611990565b60109193920491019138611981565b6020919392049101913861196f565b604093508104915038611956565b906020918051821015611a8257010190565b611a8a611140565b010190565b8015611a9d575b6000190190565b611aa5610c2c565b611a96565b15611ab157565b606460405162461bcd60e51b815260206004820152602060248201527f537472696e67733a20686578206c656e67746820696e73756666696369656e746044820152fd5b611afd610d2f565b90815115611b97575b603060208301538151600190811015611b8a575b90607860218401536041915b808311611b395750610e84915015611aaa565b9080600f611b7692166010811015611b7d575b6f181899199a1a9b1b9c1cb0b131b232b360811b901a611b6c8587611a70565b5360041c92611a8f565b9190611b26565b611b85611140565b611b4c565b611b92611140565b611b1a565b611b9f611140565b611b0656fea26469706673582212201259800c0de3c4dcf14cd96559e39f77a726e72e8075ff7f7bf5a8468420808e64736f6c634300080f0033",
  "linkReferences": {},
  "deployedLinkReferences": {}
}