{
  "_format": "hh-sol-artifact-1",
  "contractName": "Bodies",
  "sourceName": "contracts/Bodies.sol",
  "abi": [
    {
      "inputs": [
        {
          "internalType": "address",
          "name": "problems_",
          "type": "address"
        }
      ],
      "stateMutability": "nonpayable",
      "type": "constructor"
    },
    {
      "anonymous": false,
      "inputs": [
        {
          "indexed": true,
          "internalType": "address",
          "name": "owner",
          "type": "address"
        },
        {
          "indexed": true,
          "internalType": "address",
          "name": "approved",
          "type": "address"
        },
        {
          "indexed": true,
          "internalType": "uint256",
          "name": "tokenId",
          "type": "uint256"
        }
      ],
      "name": "Approval",
      "type": "event"
    },
    {
      "anonymous": false,
      "inputs": [
        {
          "indexed": true,
          "internalType": "address",
          "name": "owner",
          "type": "address"
        },
        {
          "indexed": true,
          "internalType": "address",
          "name": "operator",
          "type": "address"
        },
        {
          "indexed": false,
          "internalType": "bool",
          "name": "approved",
          "type": "bool"
        }
      ],
      "name": "ApprovalForAll",
      "type": "event"
    },
    {
      "anonymous": false,
      "inputs": [
        {
          "indexed": true,
          "internalType": "address",
          "name": "previousOwner",
          "type": "address"
        },
        {
          "indexed": true,
          "internalType": "address",
          "name": "newOwner",
          "type": "address"
        }
      ],
      "name": "OwnershipTransferred",
      "type": "event"
    },
    {
      "anonymous": false,
      "inputs": [
        {
          "indexed": true,
          "internalType": "address",
          "name": "from",
          "type": "address"
        },
        {
          "indexed": true,
          "internalType": "address",
          "name": "to",
          "type": "address"
        },
        {
          "indexed": true,
          "internalType": "uint256",
          "name": "tokenId",
          "type": "uint256"
        }
      ],
      "name": "Transfer",
      "type": "event"
    },
    {
      "inputs": [
        {
          "internalType": "address",
          "name": "to",
          "type": "address"
        },
        {
          "internalType": "uint256",
          "name": "tokenId",
          "type": "uint256"
        }
      ],
      "name": "approve",
      "outputs": [],
      "stateMutability": "nonpayable",
      "type": "function"
    },
    {
      "inputs": [
        {
          "internalType": "address",
          "name": "owner",
          "type": "address"
        }
      ],
      "name": "balanceOf",
      "outputs": [
        {
          "internalType": "uint256",
          "name": "",
          "type": "uint256"
        }
      ],
      "stateMutability": "view",
      "type": "function"
    },
    {
      "inputs": [
        {
          "internalType": "uint256",
          "name": "bodyID",
          "type": "uint256"
        }
      ],
      "name": "burn",
      "outputs": [],
      "stateMutability": "nonpayable",
      "type": "function"
    },
    {
      "inputs": [],
      "name": "counter",
      "outputs": [
        {
          "internalType": "uint256",
          "name": "",
          "type": "uint256"
        }
      ],
      "stateMutability": "view",
      "type": "function"
    },
    {
      "inputs": [],
      "name": "decimals",
      "outputs": [
        {
          "internalType": "uint256",
          "name": "",
          "type": "uint256"
        }
      ],
      "stateMutability": "view",
      "type": "function"
    },
    {
      "inputs": [
        {
          "internalType": "uint256",
          "name": "tokenId",
          "type": "uint256"
        }
      ],
      "name": "generateSeed",
      "outputs": [
        {
          "internalType": "bytes32",
          "name": "",
          "type": "bytes32"
        }
      ],
      "stateMutability": "view",
      "type": "function"
    },
    {
      "inputs": [
        {
          "internalType": "uint256",
          "name": "tokenId",
          "type": "uint256"
        }
      ],
      "name": "getApproved",
      "outputs": [
        {
          "internalType": "address",
          "name": "",
          "type": "address"
        }
      ],
      "stateMutability": "view",
      "type": "function"
    },
    {
      "inputs": [
        {
          "internalType": "address",
          "name": "owner",
          "type": "address"
        },
        {
          "internalType": "address",
          "name": "operator",
          "type": "address"
        }
      ],
      "name": "isApprovedForAll",
      "outputs": [
        {
          "internalType": "bool",
          "name": "",
          "type": "bool"
        }
      ],
      "stateMutability": "view",
      "type": "function"
    },
    {
      "inputs": [
        {
          "internalType": "uint256",
          "name": "problemId",
          "type": "uint256"
        }
      ],
      "name": "mint",
      "outputs": [],
      "stateMutability": "nonpayable",
      "type": "function"
    },
    {
      "inputs": [
        {
          "internalType": "address",
          "name": "owner",
          "type": "address"
        },
        {
          "internalType": "uint256",
          "name": "problemId",
          "type": "uint256"
        }
      ],
      "name": "mintAndBurn",
      "outputs": [
        {
          "internalType": "uint256",
          "name": "",
          "type": "uint256"
        }
      ],
      "stateMutability": "nonpayable",
      "type": "function"
    },
    {
      "inputs": [],
      "name": "name",
      "outputs": [
        {
          "internalType": "string",
          "name": "",
          "type": "string"
        }
      ],
      "stateMutability": "view",
      "type": "function"
    },
    {
      "inputs": [],
      "name": "owner",
      "outputs": [
        {
          "internalType": "address",
          "name": "",
          "type": "address"
        }
      ],
      "stateMutability": "view",
      "type": "function"
    },
    {
      "inputs": [
        {
          "internalType": "uint256",
          "name": "tokenId",
          "type": "uint256"
        }
      ],
      "name": "ownerOf",
      "outputs": [
        {
          "internalType": "address",
          "name": "",
          "type": "address"
        }
      ],
      "stateMutability": "view",
      "type": "function"
    },
    {
      "inputs": [
        {
          "internalType": "address",
          "name": "owner",
          "type": "address"
        },
        {
          "internalType": "uint256",
          "name": "bodyId",
          "type": "uint256"
        }
      ],
      "name": "problemMint",
      "outputs": [],
      "stateMutability": "nonpayable",
      "type": "function"
    },
    {
      "inputs": [
        {
          "internalType": "uint256",
          "name": "",
          "type": "uint256"
        }
      ],
      "name": "problemPriceLevels",
      "outputs": [
        {
          "internalType": "uint256",
          "name": "",
          "type": "uint256"
        }
      ],
      "stateMutability": "view",
      "type": "function"
    },
    {
      "inputs": [],
      "name": "problems",
      "outputs": [
        {
          "internalType": "address",
          "name": "",
          "type": "address"
        }
      ],
      "stateMutability": "view",
      "type": "function"
    },
    {
      "inputs": [],
      "name": "renounceOwnership",
      "outputs": [],
      "stateMutability": "nonpayable",
      "type": "function"
    },
    {
      "inputs": [
        {
          "internalType": "address",
          "name": "from",
          "type": "address"
        },
        {
          "internalType": "address",
          "name": "to",
          "type": "address"
        },
        {
          "internalType": "uint256",
          "name": "tokenId",
          "type": "uint256"
        }
      ],
      "name": "safeTransferFrom",
      "outputs": [],
      "stateMutability": "nonpayable",
      "type": "function"
    },
    {
      "inputs": [
        {
          "internalType": "address",
          "name": "from",
          "type": "address"
        },
        {
          "internalType": "address",
          "name": "to",
          "type": "address"
        },
        {
          "internalType": "uint256",
          "name": "tokenId",
          "type": "uint256"
        },
        {
          "internalType": "bytes",
          "name": "data",
          "type": "bytes"
        }
      ],
      "name": "safeTransferFrom",
      "outputs": [],
      "stateMutability": "nonpayable",
      "type": "function"
    },
    {
      "inputs": [
        {
          "internalType": "uint256",
          "name": "",
          "type": "uint256"
        }
      ],
      "name": "seeds",
      "outputs": [
        {
          "internalType": "bytes32",
          "name": "",
          "type": "bytes32"
        }
      ],
      "stateMutability": "view",
      "type": "function"
    },
    {
      "inputs": [
        {
          "internalType": "address",
          "name": "operator",
          "type": "address"
        },
        {
          "internalType": "bool",
          "name": "approved",
          "type": "bool"
        }
      ],
      "name": "setApprovalForAll",
      "outputs": [],
      "stateMutability": "nonpayable",
      "type": "function"
    },
    {
      "inputs": [
        {
          "internalType": "bytes4",
          "name": "interfaceId",
          "type": "bytes4"
        }
      ],
      "name": "supportsInterface",
      "outputs": [
        {
          "internalType": "bool",
          "name": "",
          "type": "bool"
        }
      ],
      "stateMutability": "view",
      "type": "function"
    },
    {
      "inputs": [],
      "name": "symbol",
      "outputs": [
        {
          "internalType": "string",
          "name": "",
          "type": "string"
        }
      ],
      "stateMutability": "view",
      "type": "function"
    },
    {
      "inputs": [
        {
          "internalType": "uint256",
          "name": "",
          "type": "uint256"
        }
      ],
      "name": "tickPrice",
      "outputs": [
        {
          "internalType": "uint256",
          "name": "",
          "type": "uint256"
        }
      ],
      "stateMutability": "view",
      "type": "function"
    },
    {
      "inputs": [],
      "name": "ticks",
      "outputs": [
        {
          "internalType": "address",
          "name": "",
          "type": "address"
        }
      ],
      "stateMutability": "view",
      "type": "function"
    },
    {
      "inputs": [
        {
          "internalType": "uint256",
          "name": "tokenId",
          "type": "uint256"
        }
      ],
      "name": "tokenURI",
      "outputs": [
        {
          "internalType": "string",
          "name": "",
          "type": "string"
        }
      ],
      "stateMutability": "view",
      "type": "function"
    },
    {
      "inputs": [
        {
          "internalType": "address",
          "name": "from",
          "type": "address"
        },
        {
          "internalType": "address",
          "name": "to",
          "type": "address"
        },
        {
          "internalType": "uint256",
          "name": "tokenId",
          "type": "uint256"
        }
      ],
      "name": "transferFrom",
      "outputs": [],
      "stateMutability": "nonpayable",
      "type": "function"
    },
    {
      "inputs": [
        {
          "internalType": "address",
          "name": "newOwner",
          "type": "address"
        }
      ],
      "name": "transferOwnership",
      "outputs": [],
      "stateMutability": "nonpayable",
      "type": "function"
    },
    {
      "inputs": [
        {
          "internalType": "address",
          "name": "problems_",
          "type": "address"
        }
      ],
      "name": "updateProblemsAddress",
      "outputs": [],
      "stateMutability": "nonpayable",
      "type": "function"
    },
    {
      "inputs": [
        {
          "internalType": "address",
          "name": "ticks_",
          "type": "address"
        }
      ],
      "name": "updateTicksAddress",
      "outputs": [],
      "stateMutability": "nonpayable",
      "type": "function"
    }
  ],
  "bytecode": "0x6080346200044e5762001bf990813803601f1991601f838184011682019460018060401b0393838710858811176200043857808492604098895283396020938491810103126200044e57516001600160a01b0380821695909290918690036200044e576200006c62000453565b916006835265426f6469657360d01b858401526200008962000453565b9160038352621093d160ea1b8684015283519287841162000438576000938454956001968781811c911680156200042d575b8a821014620004195790818a86859411620003e8575b50508990858311600114620003875787926200037b575b5050600019600383901b1c191690861b1784555b805192888411620003675785548681811c911680156200035c575b89821014620003485790818486959493116200030d575b5088928411600114620002ac57508492620002a0575b5050600019600383901b1c191690831b1782555b60065460018060a01b0319953387831617600655885191853391167f8be0079c531659141344cd1fd0a4f28419497f9722a3daafe3b4186f6b6457e08585a36101408201908111828210176200028c578852818152818582015281888201526103e860608201526127106080820152620186a060a0820152620f424060c08201526298968060e08201526305f5e100610100820152633b9aca0061012082015284600b92915b600a831062000271575050505050339060065416036200022f575060075416176007555161176c90816200048d8239f35b60649084519062461bcd60e51b825280600483015260248201527f4f776e61626c653a2063616c6c6572206973206e6f7420746865206f776e65726044820152fd5b805163ffffffff1684559284019291840191869101620001fe565b634e487b7160e01b83526041600452602483fd5b01519050388062000144565b86865288862087959093929116865b8a828210620002f65750508411620002dc575b505050811b01825562000158565b015160001960f88460031b161c19169055388080620002ce565b8385015186558997909501949384019301620002bb565b62000337908888528a88208580880160051c8201928d89106200033e575b0160051c019062000473565b386200012e565b925081926200032b565b634e487b7160e01b86526022600452602486fd5b90607f169062000117565b634e487b7160e01b85526041600452602485fd5b015190503880620000e8565b9086899416918880528b892092895b8d828210620003d15750508411620003b7575b505050811b018455620000fc565b015160001960f88460031b161c19169055388080620003a9565b8385015186558c9790950194938401930162000396565b620004119189805287828b209181870160051c83019387106200033e570160051c019062000473565b388a620000d1565b634e487b7160e01b87526022600452602487fd5b90607f1690620000bb565b634e487b7160e01b600052604160045260246000fd5b600080fd5b60408051919082016001600160401b038111838210176200043857604052565b8181106200047f575050565b600081556001016200047356fe608060408181526004918236101561001657600080fd5b600092833560e01c91826301ffc9a714610dc05750816306fdde0314610cf5578163081812fc14610cd5578163087c32e614610c94578163095ea7b314610b2557816323b872dd14610afa5781632cfffaf614610ad1578163313ce56714610aae57816331d988b214610a72578163424611c314610a4b57816342842e0e146109fc57816342966c68146109625781634ddbbcfa1461092157816361bc221a146109025781636352211e146108d157816370a082311461083b578163715018a6146107db5781638096989d1461074e5781638da5cb5b1461072557816395d89b411461060c578163a0712d68146104fe578163a22cb4651461042e578163b787ea1c14610402578163b88d4fde14610372578163c87b56dd14610303578163e985e9c5146102b5578163ed317c6c1461028d578163f0503e8014610265578163f2fde38b1461019a575063f9df988f1461016f57600080fd5b3461019657816003193601126101965760075490516001600160a01b039091168152602090f35b5080fd5b905034610261576020366003190112610261576101b5610e7c565b6101bd610f52565b6001600160a01b0390811691821561020f575060065492826001600160601b0360a01b8516176006555192167f8be0079c531659141344cd1fd0a4f28419497f9722a3daafe3b4186f6b6457e08484a3f35b608490602085519162461bcd60e51b8352820152602660248201527f4f776e61626c653a206e6577206f776e657220697320746865207a65726f206160448201526564647265737360d01b6064820152fd5b8280fd5b9050346102615760203660031901126102615760209282913581526009845220549051908152f35b9050346102615760203660031901126102615760209282913581526015845220549051908152f35b50503461019657806003193601126101965760ff816020936102d5610e7c565b6102dd610e97565b6001600160a01b0391821683526005875283832091168252855220549151911615158152f35b8383346101965760203660031901126101965761034161033c61036e9435600052600260205260018060a01b0360406000205416151590565b610faa565b81815161034d81610ee2565b5280519161035a83610ee2565b825251918291602083526020830190610e2b565b0390f35b9050346102615760803660031901126102615761038d610e7c565b90610396610e97565b916064359167ffffffffffffffff83116103fe57366023840112156103fe5782013592856103c385610f36565b936103d087519586610f14565b858552366024878301011161019657856103fb966024602093018388013785010152604435916110bc565b51f35b8580fd5b9050346102615760203660031901126102615735600a8110156102615760209250600b01549051908152f35b905034610261578160031936011261026157610448610e7c565b602435908115158092036104fa576001600160a01b0316913383146104b75750338452600560205282842082855260205282842060ff1981541660ff831617905582519081527f17307eab39ab6107e8899845ad3d59bd9653f200f220920489ca2b5937696c3160203392a351f35b606490602085519162461bcd60e51b8352820152601960248201527f4552433732313a20617070726f766520746f2063616c6c6572000000000000006044820152fd5b8480fd5b90503461026157602090816003193601126106085760075483516331a9108f60e11b8152823581840181905292916001600160a01b039085908390602490829085165afa9182156105fe5787926105c2575b5033911603610593575061056490336115d7565b6009610571600a54611498565b9182600a5561057f83611441565b92855252818320556103fb600a54336114f3565b835162461bcd60e51b815290810183905260096024820152682737ba1037bbb732b960b91b6044820152606490fd5b9091508481813d83116105f7575b6105da8183610f14565b810103126105f3575181811681036105f3579038610550565b8680fd5b503d6105d0565b86513d89823e3d90fd5b8380fd5b8284346107225780600319360112610722578151918160019283549384811c91818616958615610718575b6020968785108114610705578899509688969785829a5291826000146106de575050600114610683575b50505061036e9291610674910385610f14565b51928284938452830190610e2b565b91908693508083527fb10e2d527612073b26eecdfd717e6a320cf44b4afac2b0732d9fcbe2b7fa0cf65b8284106106c6575050508201018161067461036e610661565b8054848a0186015288955087949093019281016106ad565b60ff19168782015293151560051b86019093019350849250610674915061036e9050610661565b634e487b7160e01b835260228a52602483fd5b92607f1692610637565b80fd5b50503461019657816003193601126101965760065490516001600160a01b039091168152602090f35b50503461019657806003193601126101965760209161076b610e7c565b6007546001600160a01b03929061078590841633146116d1565b610791602435836115d7565b61079c600a54611498565b80600a556107a981611441565b9082526009865284822055600a549283921693519360008051602061171783398151915283828483818aa48286a48152f35b5050346101965781600319360112610196576107f5610f52565b600680546001600160a01b0319811690915590519082906001600160a01b03167f8be0079c531659141344cd1fd0a4f28419497f9722a3daafe3b4186f6b6457e08284a3f35b83915034610196576020366003190112610196576001600160a01b0361085f610e7c565b1690811561087c5760208480858581526003845220549051908152f35b608490602085519162461bcd60e51b8352820152602960248201527f4552433732313a2061646472657373207a65726f206973206e6f7420612076616044820152683634b21037bbb732b960b91b6064820152fd5b82843461072257602036600319011261072257506108f160209235610ff6565b90516001600160a01b039091168152f35b505034610196578160031936011261019657602090600a549051908152f35b5050346101965760203660031901126101965761093c610e7c565b610944610f52565b60018060a01b03166001600160601b0360a01b600854161760085551f35b91905034610261576020366003190112610261578282359160018060a01b03610990816007541633146116d1565b61099984610ff6565b506109a384610ff6565b94848452602052818320946001600160601b0360a01b95868154169055169384835260036020528183206000198154019055838352600260205281832090815416905551926000805160206117178339815191528285a4f35b83833461019657610a0c36610ead565b908351926020840184811067ffffffffffffffff821117610a3857856103fb96979850528684526110bc565b634e487b7160e01b875260418852602487fd5b8284346107225760203660031901126107225750610a6b60209235611441565b9051908152f35b505034610196578060031936011261019657610a8c610e7c565b50610aa260018060a01b036007541633146116d1565b6103fb602435336114f3565b50503461019657816003193601126101965760209051670de0b6b3a76400008152f35b50503461019657816003193601126101965760085490516001600160a01b039091168152602090f35b505034610196576103fb610b0d36610ead565b91610b20610b1b8433611157565b61105a565b61121f565b905034610261578160031936011261026157610b3f610e7c565b602435916001600160a01b03908180610b5786610ff6565b16931692808414610c4757803314908115610c28575b5015610bbf5783865260205283852080546001600160a01b03191683179055610b9583610ff6565b169251927f8c5be1e5ebec7d5bd14f71427d1e84f3dd0314c0f7b2291e5b200ac8c7c3b9258585a4f35b608490602086519162461bcd60e51b8352820152603d60248201527f4552433732313a20617070726f76652063616c6c6572206973206e6f7420746f60448201527f6b656e206f776e6572206f7220617070726f76656420666f7220616c6c0000006064820152fd5b90508652600560205284862033875260205260ff858720541638610b6d565b855162461bcd60e51b8152602081840152602160248201527f4552433732313a20617070726f76616c20746f2063757272656e74206f776e656044820152603960f91b6064820152608490fd5b50503461019657602036600319011261019657610caf610e7c565b610cb7610f52565b60018060a01b03166001600160601b0360a01b600754161760075551f35b82843461072257602036600319011261072257506108f16020923561101c565b82843461072257806003193601126107225781519181825492600184811c91818616958615610db6575b6020968785108114610705578899509688969785829a5291826000146106de575050600114610d5b5750505061036e9291610674910385610f14565b91908693508280527f290decd9548b62a8d60345a988386fc84ba6bc95484008f6362f93160ef3e5635b828410610d9e575050508201018161067461036e610661565b8054848a018601528895508794909301928101610d85565b92607f1692610d1f565b849134610261576020366003190112610261573563ffffffff60e01b811680910361026157602092506380ac58cd60e01b8114908115610e1a575b8115610e09575b5015158152f35b6301ffc9a760e01b14905083610e02565b635b5e139f60e01b81149150610dfb565b91908251928382526000905b848210610e64575092806020939411610e57575b601f01601f1916010190565b6000838284010152610e4b565b90602090818082850101519082860101520190610e37565b600435906001600160a01b0382168203610e9257565b600080fd5b602435906001600160a01b0382168203610e9257565b6060906003190112610e92576001600160a01b03906004358281168103610e9257916024359081168103610e92579060443590565b6020810190811067ffffffffffffffff821117610efe57604052565b634e487b7160e01b600052604160045260246000fd5b90601f8019910116810190811067ffffffffffffffff821117610efe57604052565b67ffffffffffffffff8111610efe57601f01601f191660200190565b6006546001600160a01b03163303610f6657565b606460405162461bcd60e51b815260206004820152602060248201527f4f776e61626c653a2063616c6c6572206973206e6f7420746865206f776e65726044820152fd5b15610fb157565b60405162461bcd60e51b815260206004820152601860248201527f4552433732313a20696e76616c696420746f6b656e20494400000000000000006044820152606490fd5b6000908152600260205260409020546001600160a01b0316611019811515610faa565b90565b60008181526002602052604090205461103f906001600160a01b03161515610faa565b6000908152600460205260409020546001600160a01b031690565b1561106157565b60405162461bcd60e51b815260206004820152602d60248201527f4552433732313a2063616c6c6572206973206e6f7420746f6b656e206f776e6560448201526c1c881bdc88185c1c1c9bdd9959609a1b6064820152608490fd5b906110e09392916110d0610b1b8433611157565b6110db83838361121f565b611320565b156110e757565b60405162461bcd60e51b81528061110060048201611104565b0390fd5b60809060208152603260208201527f4552433732313a207472616e7366657220746f206e6f6e20455243373231526560408201527131b2b4bb32b91034b6b83632b6b2b73a32b960711b60608201520190565b906001600160a01b03808061116b84610ff6565b1693169183831493841561119e575b508315611188575b50505090565b6111949192935061101c565b1614388080611182565b909350600052600560205260406000208260005260205260ff60406000205416923861117a565b156111cc57565b60405162461bcd60e51b815260206004820152602560248201527f4552433732313a207472616e736665722066726f6d20696e636f72726563742060448201526437bbb732b960d91b6064820152608490fd5b906112479161122d84610ff6565b6001600160a01b03939184169284929091831684146111c5565b169182156112cf57816112649161125d86610ff6565b16146111c5565b60008051602061171783398151915260008481526004602052604081206001600160601b0360a01b90818154169055838252600360205260408220600019815401905584825260408220600181540190558582526002602052846040832091825416179055604051a4565b60405162461bcd60e51b8152602060048201526024808201527f4552433732313a207472616e7366657220746f20746865207a65726f206164646044820152637265737360e01b6064820152608490fd5b9293600093909291803b156114365794849161137a9660405180948193630a85bd0160e11b9788845233600485015260018060a01b0380921660248501526044840152608060648401528260209b8c976084830190610e2b565b0393165af18491816113f6575b506113e5575050503d6000146113dd573d6113a181610f36565b906113af6040519283610f14565b81528091833d92013e5b805191826113da5760405162461bcd60e51b81528061110060048201611104565b01fd5b5060606113b9565b6001600160e01b0319161492509050565b9091508581813d831161142f575b61140e8183610f14565b810103126104fa57516001600160e01b0319811681036104fa579038611387565b503d611404565b505050915050600190565b6001431061148257604051602081019182526000194301406040820152604081526060810181811067ffffffffffffffff821117610efe5760405251902090565b634e487b7160e01b600052601160045260246000fd5b60001981146114825760010190565b156114ae57565b60405162461bcd60e51b815260206004820152601c60248201527f4552433732313a20746f6b656e20616c7265616479206d696e746564000000006044820152606490fd5b6001600160a01b0316801561159357600082815260026020526040902054611527906001600160a01b031615155b156114a7565b60008281526002602052604090205461154a906001600160a01b03161515611521565b600081815260036020526040812060018154019055828152600260205260408120826001600160601b0360a01b82541617905560008051602061171783398151915281604051a4565b606460405162461bcd60e51b815260206004820152602060248201527f4552433732313a206d696e7420746f20746865207a65726f20616464726573736044820152fd5b9060009080825260156020526040822054600a8110156116bd57600b015492670de0b6b3a76400009184600019048311851515166116a95783526015602052604083206116248154611498565b90556008546001600160a01b039290831690813b156104fa5791846044928195946040519889968795632770a7eb60e21b87521660048601520260248401525af1801561169c57611673575050565b67ffffffffffffffff82116116885750604052565b634e487b7160e01b81526041600452602490fd5b50604051903d90823e3d90fd5b634e487b7160e01b84526011600452602484fd5b634e487b7160e01b83526032600452602483fd5b156116d857565b60405162461bcd60e51b815260206004820152601660248201527513db9b1e48141c9bd89b195b5cc818d85b8818d85b1b60521b6044820152606490fdfeddf252ad1be2c89b69c2b068fc378daa952ba7f163c4a11628f55a4df523b3efa264697066735822122098b853a26bbed399f3a8af50a5807eb009acb5f59f59c70a6b7a2a1eb3bee4fb64736f6c634300080f0033",
  "linkReferences": {},
  "deployedLinkReferences": {}
}