{
  "_format": "hh-sol-artifact-1",
  "contractName": "BodyMetadata",
  "sourceName": "contracts/BodyMetadata.sol",
  "abi": [
    {
      "inputs": [],
      "stateMutability": "nonpayable",
      "type": "constructor"
    },
    {
      "anonymous": false,
      "inputs": [
        {
          "indexed": true,
          "internalType": "address",
          "name": "previousOwner",
          "type": "address"
        },
        {
          "indexed": true,
          "internalType": "address",
          "name": "newOwner",
          "type": "address"
        }
      ],
      "name": "OwnershipTransferred",
      "type": "event"
    },
    {
      "inputs": [],
      "name": "bodies",
      "outputs": [
        {
          "internalType": "address payable",
          "name": "",
          "type": "address"
        }
      ],
      "stateMutability": "view",
      "type": "function"
    },
    {
      "inputs": [
        {
          "internalType": "uint256",
          "name": "id",
          "type": "uint256"
        }
      ],
      "name": "exists",
      "outputs": [
        {
          "internalType": "bool",
          "name": "",
          "type": "bool"
        }
      ],
      "stateMutability": "view",
      "type": "function"
    },
    {
      "inputs": [
        {
          "internalType": "uint256",
          "name": "tokenId",
          "type": "uint256"
        }
      ],
      "name": "getBodyMetadata",
      "outputs": [
        {
          "internalType": "string",
          "name": "",
          "type": "string"
        }
      ],
      "stateMutability": "view",
      "type": "function"
    },
    {
      "inputs": [
        {
          "internalType": "uint256",
          "name": "tokenId",
          "type": "uint256"
        }
      ],
      "name": "getHTML",
      "outputs": [
        {
          "internalType": "string",
          "name": "",
          "type": "string"
        }
      ],
      "stateMutability": "view",
      "type": "function"
    },
    {
      "inputs": [
        {
          "internalType": "uint256",
          "name": "tokenId",
          "type": "uint256"
        }
      ],
      "name": "getName",
      "outputs": [
        {
          "internalType": "string",
          "name": "",
          "type": "string"
        }
      ],
      "stateMutability": "view",
      "type": "function"
    },
    {
      "inputs": [
        {
          "internalType": "uint256",
          "name": "tokenId",
          "type": "uint256"
        }
      ],
      "name": "getPath",
      "outputs": [
        {
          "internalType": "string",
          "name": "",
          "type": "string"
        }
      ],
      "stateMutability": "view",
      "type": "function"
    },
    {
      "inputs": [
        {
          "internalType": "uint256",
          "name": "tokenId",
          "type": "uint256"
        }
      ],
      "name": "getSVG",
      "outputs": [
        {
          "internalType": "string",
          "name": "",
          "type": "string"
        }
      ],
      "stateMutability": "view",
      "type": "function"
    },
    {
      "inputs": [],
      "name": "owner",
      "outputs": [
        {
          "internalType": "address",
          "name": "",
          "type": "address"
        }
      ],
      "stateMutability": "view",
      "type": "function"
    },
    {
      "inputs": [],
      "name": "problems",
      "outputs": [
        {
          "internalType": "address payable",
          "name": "",
          "type": "address"
        }
      ],
      "stateMutability": "view",
      "type": "function"
    },
    {
      "inputs": [],
      "name": "renounceOwnership",
      "outputs": [],
      "stateMutability": "nonpayable",
      "type": "function"
    },
    {
      "inputs": [
        {
          "internalType": "bytes32",
          "name": "seed",
          "type": "bytes32"
        }
      ],
      "name": "seedToColor",
      "outputs": [
        {
          "internalType": "string",
          "name": "",
          "type": "string"
        }
      ],
      "stateMutability": "pure",
      "type": "function"
    },
    {
      "inputs": [
        {
          "internalType": "address",
          "name": "newOwner",
          "type": "address"
        }
      ],
      "name": "transferOwnership",
      "outputs": [],
      "stateMutability": "nonpayable",
      "type": "function"
    },
    {
      "inputs": [
        {
          "internalType": "address payable",
          "name": "bodies_",
          "type": "address"
        }
      ],
      "name": "updateBodiesAddress",
      "outputs": [],
      "stateMutability": "nonpayable",
      "type": "function"
    },
    {
      "inputs": [
        {
          "internalType": "address payable",
          "name": "problems_",
          "type": "address"
        }
      ],
      "name": "updateProblemsAddress",
      "outputs": [],
      "stateMutability": "nonpayable",
      "type": "function"
    }
  ],
  "bytecode": "0x6080806040523461005b5760008054336001600160a01b0319821681178355916001600160a01b03909116907f8be0079c531659141344cd1fd0a4f28419497f9722a3daafe3b4186f6b6457e09084a3611a2e90816100618239f35b600080fdfe60806040526004361015610013575b600080fd5b60003560e01c8063010fdfd51461012b578063087c32e61461012257806308cffccf14610119578063102581d214610110578063306da04f146101075780634f558e79146100fe5780636b8ff574146100f5578063715018a6146100ec5780638da5cb5b146100e3578063be985ac9146100da578063e1765073146100d1578063e82fedd7146100c8578063f2fde38b146100bf5763f9df988f146100b757600080fd5b61000e6109d7565b5061000e61090a565b5061000e6108ea565b5061000e6108d0565b5061000e6108b6565b5061000e61088c565b5061000e61082a565b5061000e610810565b5061000e6107ed565b5061000e6107c3565b5061000e61079d565b5061000e610248565b5061000e61018d565b5061000e610145565b6001600160a01b0381160361000e57565b503461000e57602036600319011261000e5760043561016381610134565b61016b610a01565b600180546001600160a01b0319166001600160a01b0392909216919091179055005b503461000e57602036600319011261000e576004356101ab81610134565b6101b3610a01565b600280546001600160a01b0319166001600160a01b0392909216919091179055005b602090600319011261000e5760043590565b918091926000905b828210610207575011610200575050565b6000910152565b915080602091830151818601520182916101ef565b6040916020825261023c81518092816020860152602086860191016101e7565b601f01601f1916010190565b503461000e57610257366101d5565b61026861026382610ac8565b610b56565b61027181610ec1565b61027a82610fc9565b61028383610f06565b6002549091906102a99061029d906001600160a01b031681565b6001600160a01b031690565b926040938451631da686ff60e31b81526020968782600481865afa918215610790575b60009261076a575b506001546103129160a0916102f39061029d906001600160a01b031681565b89518080958194631133b9cf60e21b8352600483019190602083019252565b03915afa801561075d575b6000809381958294839461071a575b508a516305ed556560e11b815260048101859052610365918d90829060249082905afa90811561070d575b6000916106e0575b50610cd1565b9061036f90610cf5565b61037891610ca5565b906103829061176a565b9361038c9061176a565b946103969061176a565b926103a09061176a565b6103a983611949565b916103b39061176a565b926103bd906116a6565b938a519687968d88016103d890600190605b60f81b81520190565b7f7b2274726169745f74797065223a2250726f626c656d4964222c2276616c7565815262111d1160e91b602082015260230161041391610b93565b7f227d2c207b2274726169745f74797065223a226d696e746564426f6479496e6481526c32bc1116113b30b63ab2911d1160991b6020820152602d0161045891610b93565b7f227d2c207b2274726169745f74797065223a22737461724c766c222c2276616c8152643ab2911d1160d91b602082015260250161049591610b93565b7f227d2c207b2274726169745f74797065223a226d6178537461724c766c222c228152673b30b63ab2911d1160c11b60208201526028016104d591610b93565b7f227d2c207b2274726169745f74797065223a2273656564222c2276616c7565228152611d1160f11b602082015260220161050f91610b93565b7f227d2c207b2274726169745f74797065223a22726164697573222c2276616c7581526332911d1160e11b602082015260240161054b91610b93565b7f227d2c207b2274726169745f74797065223a22636f6c6f72222c2276616c7565815262111d1160e91b602082015260230161058691610b93565b62227d5d60e81b81526003010393601f199485810183526105a79083610a99565b8551683d913730b6b2911d1160b91b8882019081529094859490916009016105ce91610b93565b7f222c20226465736372697074696f6e223a202261736466222c2022696d616765815263111d101160e11b602082015260240161060a91610b93565b61088b60f21b8152600201711130b734b6b0ba34b7b72fbab936111d101160711b815260120161063991610b93565b61088b60f21b81526002016d01130ba3a3934b13aba32b9911d160951b8152600e0161066491610b93565b607d60f81b815260010103828101825261067e9082610a99565b61068790610dd5565b82517f646174613a6170706c69636174696f6e2f6a736f6e3b6261736536342c00000094810194855293849190601d016106c091610b93565b0390810183526106d09083610a99565b516106dc81928261021c565b0390f35b61070091508d803d10610706575b6106f88183610a99565b81019061118c565b3861035f565b503d6106ee565b610715610abb565b610357565b9250935094506103659350610746915060a03d8111610756575b61073e8183610a99565b81019061119b565b919692959094919392919061032c565b503d610734565b610765610abb565b61031d565b61031291925061078860a0918a3d8c11610706576106f88183610a99565b9291506102d4565b610798610abb565b6102cc565b503461000e576106dc6107b76107b2366101d5565b610f06565b6040519182918261021c565b503461000e57600036600319011261000e576001546040516001600160a01b039091168152602090f35b503461000e576020610806610801366101d5565b610ac8565b6040519015158152f35b503461000e576106dc6107b7610825366101d5565b610ec1565b503461000e5760008060031936011261088957610845610a01565b80546001600160a01b0319811682556040519082906001600160a01b03167f8be0079c531659141344cd1fd0a4f28419497f9722a3daafe3b4186f6b6457e08284a3f35b80fd5b503461000e57600036600319011261000e576000546040516001600160a01b039091168152602090f35b503461000e576106dc6107b76108cb366101d5565b610fc9565b503461000e576106dc6107b76108e5366101d5565b611217565b503461000e57602036600319011261000e576106dc6107b76004356116a6565b503461000e57602036600319011261000e5760043561092881610134565b610930610a01565b6001600160a01b0390811690811561098357600080546001600160a01b031981168417825560405191939192167f8be0079c531659141344cd1fd0a4f28419497f9722a3daafe3b4186f6b6457e08484a3f35b60405162461bcd60e51b815260206004820152602660248201527f4f776e61626c653a206e6577206f776e657220697320746865207a65726f206160448201526564647265737360d01b6064820152608490fd5b503461000e57600036600319011261000e576002546040516001600160a01b039091168152602090f35b6000546001600160a01b03163303610a1557565b606460405162461bcd60e51b815260206004820152602060248201527f4f776e61626c653a2063616c6c6572206973206e6f7420746865206f776e65726044820152fd5b50634e487b7160e01b600052604160045260246000fd5b6020810190811067ffffffffffffffff821117610a8c57604052565b610a94610a59565b604052565b90601f8019910116810190811067ffffffffffffffff821117610a8c57604052565b506040513d6000823e3d90fd5b6001546040516331a9108f60e11b815260048101929092526001600160a01b0391906020908290602490829086165afa908115610b49575b600091610b0f575b5016151590565b906020823d8211610b41575b81610b2860209383610a99565b81010312610889575051610b3b81610134565b38610b08565b3d9150610b1b565b610b51610abb565b610b00565b15610b5d57565b60405162461bcd60e51b815260206004820152600e60248201526d1113d154c81393d50811561254d560921b6044820152606490fd5b90610ba6602092828151948592016101e7565b0190565b60209067ffffffffffffffff8111610bc8575b601f01601f19160190565b610bd0610a59565b610bbd565b60405190610be282610a70565b60008252565b604051906060820182811067ffffffffffffffff821117610c59575b604052604082527f6768696a6b6c6d6e6f707172737475767778797a303132333435363738392b2f6040837f4142434445464748494a4b4c4d4e4f505152535455565758595a61626364656660208201520152565b610c61610a59565b610c04565b50634e487b7160e01b600052601160045260246000fd5b6002906002198111610c8d570190565b610ba6610c66565b6020906020198111610c8d570190565b81198111610c8d570190565b8115610cbb570490565b634e487b7160e01b600052601260045260246000fd5b806000190460041181151516610ce8575b60021b90565b610cf0610c66565b610ce2565b7f028f5c28f5c28f5c28f5c28f5c28f5c28f5c28f5c28f5c28f5c28f5c28f5c28f8111600116610d26575b60640290565b610d2e610c66565b610d20565b6001600160fe1b038111600116610ce85760021b90565b8060001904821181151516610d5d570290565b610d65610c66565b0290565b604051906080820182811067ffffffffffffffff821117610d96575b604052604282526060366020840137565b610d9e610a59565b610d85565b90610dad82610baa565b610dba6040519182610a99565b8281528092610dcb601f1991610baa565b0190602036910137565b805115610eb557610de4610be8565b610e00610dfb610df48451610c7d565b6003900490565b610d33565b91610e12610e0d84610c95565b610da3565b92835280815182019060208501935b828210610e6357505050600390510680600114610e5257600214610e43575090565b603d60f81b6000199091015290565b50613d3d60f01b6001199091015290565b9091936004906003809401938451600190603f9082828260121c16880101518553828282600c1c16880101518386015382828260061c1688010151600286015316850101519082015301939190610e21565b50610ebe610bd5565b90565b610eca9061176a565b610ebe6026604051809365426f6479202360d01b6020830152610ef681518092602086860191016101e7565b8101036006810184520182610a99565b610f12610f7d91610fc9565b610f7860466040518093753c68746d6c3e3c626f64793e3c696d67207372633d2760501b6020830152610f4f8151809260206036860191016101e7565b81016f139f1e17b137b23c9f1e17b43a36b61f60811b6036820152036026810184520182610a99565b610dd5565b610ebe603660405180937519185d184e9d195e1d0bda1d1b5b0ed8985cd94d8d0b60521b6020830152610fb981518092602086860191016101e7565b8101036016810184520182610a99565b610ebe6110e461114b61118093610fe261026382610ac8565b61113761111e610ffa610ff484611217565b93610ec1565b6111186040519687957f3c3f786d6c2076657273696f6e3d22312e302220656e636f64696e673d22757460208801527f662d38223f3e3c73766720786d6c6e733d22687474703a2f2f7777772e77332e60408801527f6f72672f323030302f7376672220206865696768743d2231303025222077696460608801527f74683d2231303025222076696577426f783d223020302031303030203130303060808801527f22207374796c653d226261636b67726f756e642d636f6c6f723a677265793b2260a08801526f1f1e39ba3cb6329f1e17b9ba3cb6329f60811b60c088015260d0870190610b93565b7f3c7465787420783d2235302220793d223535302220636c6173733d226e616d65815261111f60f11b602082015260220190565b90610b93565b6c1e17ba32bc3a1f1e17b9bb339f60991b8152600d0190565b0391610f78601f1993848101835282610a99565b6040517f646174613a696d6167652f7376672b786d6c3b6261736536342c0000000000006020820152938491603a8301611118565b03908101835282610a99565b9081602091031261000e575190565b908160a091031261000e578051916020820151916040810151916080606083015192015190565b8181106111cd570390565b6111d5610c66565b0390565b604051906040820182811067ffffffffffffffff82111761120a575b604052600382526203530360ec1b6020830152565b611212610a59565b6111f5565b61121f610bd5565b6002549091906112399061029d906001600160a01b031681565b90604051631da686ff60e31b81526020918282600481875afa918215611699575b60009261167a575b5060015461127a9061029d906001600160a01b031681565b604051631133b9cf60e21b815260048101839052949060a090869060249082905afa94851561166d575b600095611644575b506040516305ed556560e11b8152600481018690526112e5918590829060249082905afa908115611637575b6000916116205750610cd1565b6112ee83610cf5565b6112f791610ca5565b6113018382610cb1565b61130a8161176a565b9361131491610d4a565b61131d916111c2565b6113269061176a565b9061132f6111d9565b916113386111d9565b916113429061176a565b93604051948587810161136e906012907103a3930b739b337b93696b7b934b3b4b71d160751b81520190565b6113789087610b93565b620383c160ed1b815260030161138e9086610b93565b630383c1d960e51b81526004010397601f199889810188526113b09088610a99565b6113b9906116a6565b95604051998a9889016113cb91610b93565b7f3c7374796c653e20406b65796672616d6573206d6f7665456c6c6970736500008152601e016113fb9083610b93565b670103d901812903d960c51b81526008016114169082610b93565b7f207472616e73666f726d3a20726f74617465283064656729207472616e736c6181527f7465283070782c2031307078293b207d2031303025207b200000000000000000602082015260380161146b91610b93565b7f207472616e73666f726d3a20726f746174652833363064656729207472616e738152736c617465283070782c2031307078293b207d207d60601b60208201526034016a656c6c697073652369642d60a81b8152600b016114cc9082610b93565b7f207b20616e696d6174696f6e3a206d6f7665456c6c697073650000000000000081526019016114fc9082610b93565b7f20347320696e66696e697465206c696e6561723b20616e696d6174696f6e2d6481527332b630bc9d101698399d903e9e17b9ba3cb6329f60611b60208201526034016f3c656c6c697073652069643d2269642d60801b815260100161156191610b93565b651110393c9e9160d11b815260060161157a9082610b93565b601760f91b815260010161158e9083610b93565b651110393c1e9160d11b81526006016115a691610b93565b601760f91b81526001016115b991610b93565b65111031bc9e9160d11b81526006016115d191610b93565b65111031bc1e9160d11b81526006016115e991610b93565b6711103334b6361e9160c11b815260080161160391610b93565b631110179f60e11b8152600401039081018252610ebe9082610a99565b6107009150853d8711610706576106f88183610a99565b61163f610abb565b6112d8565b6112e59195506116619060a03d81116107565761073e8183610a99565b935050505094906112ac565b611675610abb565b6112a4565b611692919250833d8511610706576106f88183610a99565b9038611262565b6116a1610abb565b61125a565b610ebe60259161174f61174161ffff6111186117336116f860286116f1606482878b60201c1606968319881161175d575b6116e6610168828d160661176a565b9a60101c160661176a565b940161176a565b92604051988997630d0e6d8560e31b60208a015261172081518092602060248d0191016101e7565b8801600b60fa1b60248201520190610b93565b61094b60f21b815260020190565b61252960f01b815260020190565b03601f198101835282610a99565b611765610c66565b6116d7565b806000917a184f03e93ff9f4daa797ed6e38ed64bf6a1f0100000000000000008082101561189f575b506d04ee2d6d415b85acef810000000080831015611890575b50662386f26fc1000080831015611881575b506305f5e10080831015611872575b5061271080831015611863575b506064821015611853575b600a80921015611849575b600190816021611801828701610da3565b95860101905b611813575b5050505090565b600019019083906f181899199a1a9b1b9c1cb0b131b232b360811b8282061a83530491821561184457919082611807565b61180c565b91600101916117f0565b91906064600291049101916117e5565b600491939204910191386117da565b600891939204910191386117cd565b601091939204910191386117be565b602091939204910191386117ac565b604093508104915038611793565b50634e487b7160e01b600052603260045260246000fd5b9060209180518210156118d657010190565b6118de6118ad565b010190565b80156118f1575b6000190190565b6118f9610c66565b6118ea565b1561190557565b606460405162461bcd60e51b815260206004820152602060248201527f537472696e67733a20686578206c656e67746820696e73756666696369656e746044820152fd5b611951610d69565b908151156119eb575b6030602083015381516001908110156119de575b90607860218401536041915b80831161198d5750610ebe9150156118fe565b9080600f6119ca921660108110156119d1575b6f181899199a1a9b1b9c1cb0b131b232b360811b901a6119c085876118c4565b5360041c926118e3565b919061197a565b6119d96118ad565b6119a0565b6119e66118ad565b61196e565b6119f36118ad565b61195a56fea2646970667358221220ab9f76e091a17da50e15443b9e5c68bb205e9f10a10fc03097a5cc49e1b4217f64736f6c634300080f0033",
  "linkReferences": {},
  "deployedLinkReferences": {}
}