{
  "_format": "hh-sol-artifact-1",
  "contractName": "Problems",
  "sourceName": "contracts/Problems.sol",
  "abi": [
    {
      "inputs": [
        {
          "internalType": "address",
          "name": "problemMetadata_",
          "type": "address"
        },
        {
          "internalType": "address[]",
          "name": "verifiers_",
          "type": "address[]"
        },
        {
          "internalType": "uint256[]",
          "name": "verifiersTicks",
          "type": "uint256[]"
        },
        {
          "internalType": "uint256[]",
          "name": "verifiersBodies",
          "type": "uint256[]"
        }
      ],
      "stateMutability": "nonpayable",
      "type": "constructor"
    },
    {
      "anonymous": false,
      "inputs": [
        {
          "indexed": true,
          "internalType": "address",
          "name": "owner",
          "type": "address"
        },
        {
          "indexed": true,
          "internalType": "address",
          "name": "approved",
          "type": "address"
        },
        {
          "indexed": true,
          "internalType": "uint256",
          "name": "tokenId",
          "type": "uint256"
        }
      ],
      "name": "Approval",
      "type": "event"
    },
    {
      "anonymous": false,
      "inputs": [
        {
          "indexed": true,
          "internalType": "address",
          "name": "owner",
          "type": "address"
        },
        {
          "indexed": true,
          "internalType": "address",
          "name": "operator",
          "type": "address"
        },
        {
          "indexed": false,
          "internalType": "bool",
          "name": "approved",
          "type": "bool"
        }
      ],
      "name": "ApprovalForAll",
      "type": "event"
    },
    {
      "anonymous": false,
      "inputs": [
        {
          "indexed": true,
          "internalType": "address",
          "name": "to",
          "type": "address"
        },
        {
          "indexed": true,
          "internalType": "bool",
          "name": "success",
          "type": "bool"
        },
        {
          "indexed": false,
          "internalType": "bytes",
          "name": "returnData",
          "type": "bytes"
        },
        {
          "indexed": false,
          "internalType": "uint256",
          "name": "amount",
          "type": "uint256"
        }
      ],
      "name": "EthMoved",
      "type": "event"
    },
    {
      "anonymous": false,
      "inputs": [
        {
          "indexed": true,
          "internalType": "address",
          "name": "previousOwner",
          "type": "address"
        },
        {
          "indexed": true,
          "internalType": "address",
          "name": "newOwner",
          "type": "address"
        }
      ],
      "name": "OwnershipTransferred",
      "type": "event"
    },
    {
      "anonymous": false,
      "inputs": [
        {
          "indexed": true,
          "internalType": "address",
          "name": "from",
          "type": "address"
        },
        {
          "indexed": true,
          "internalType": "address",
          "name": "to",
          "type": "address"
        },
        {
          "indexed": true,
          "internalType": "uint256",
          "name": "tokenId",
          "type": "uint256"
        }
      ],
      "name": "Transfer",
      "type": "event"
    },
    {
      "anonymous": false,
      "inputs": [
        {
          "indexed": false,
          "internalType": "uint256",
          "name": "problemId",
          "type": "uint256"
        },
        {
          "indexed": false,
          "internalType": "uint256",
          "name": "bodyId",
          "type": "uint256"
        },
        {
          "indexed": false,
          "internalType": "uint256",
          "name": "mintedBodyIndex",
          "type": "uint256"
        },
        {
          "indexed": false,
          "internalType": "uint256",
          "name": "tick",
          "type": "uint256"
        },
        {
          "indexed": false,
          "internalType": "uint256",
          "name": "px",
          "type": "uint256"
        },
        {
          "indexed": false,
          "internalType": "uint256",
          "name": "py",
          "type": "uint256"
        },
        {
          "indexed": false,
          "internalType": "uint256",
          "name": "radius",
          "type": "uint256"
        },
        {
          "indexed": false,
          "internalType": "bytes32",
          "name": "seed",
          "type": "bytes32"
        }
      ],
      "name": "bodyAdded",
      "type": "event"
    },
    {
      "anonymous": false,
      "inputs": [
        {
          "indexed": false,
          "internalType": "uint256",
          "name": "problemId",
          "type": "uint256"
        },
        {
          "indexed": false,
          "internalType": "uint256",
          "name": "tick",
          "type": "uint256"
        },
        {
          "indexed": false,
          "internalType": "uint256",
          "name": "bodyId",
          "type": "uint256"
        },
        {
          "indexed": false,
          "internalType": "bytes32",
          "name": "seed",
          "type": "bytes32"
        }
      ],
      "name": "bodyRemoved",
      "type": "event"
    },
    {
      "inputs": [],
      "name": "SECONDS_IN_A_DAY",
      "outputs": [
        {
          "internalType": "uint256",
          "name": "",
          "type": "uint256"
        }
      ],
      "stateMutability": "view",
      "type": "function"
    },
    {
      "inputs": [
        {
          "internalType": "address",
          "name": "recipient",
          "type": "address"
        }
      ],
      "name": "adminMint",
      "outputs": [],
      "stateMutability": "nonpayable",
      "type": "function"
    },
    {
      "inputs": [
        {
          "internalType": "address",
          "name": "to",
          "type": "address"
        },
        {
          "internalType": "uint256",
          "name": "tokenId",
          "type": "uint256"
        }
      ],
      "name": "approve",
      "outputs": [],
      "stateMutability": "nonpayable",
      "type": "function"
    },
    {
      "inputs": [
        {
          "internalType": "address",
          "name": "owner",
          "type": "address"
        }
      ],
      "name": "balanceOf",
      "outputs": [
        {
          "internalType": "uint256",
          "name": "",
          "type": "uint256"
        }
      ],
      "stateMutability": "view",
      "type": "function"
    },
    {
      "inputs": [],
      "name": "bodies",
      "outputs": [
        {
          "internalType": "address",
          "name": "",
          "type": "address"
        }
      ],
      "stateMutability": "view",
      "type": "function"
    },
    {
      "inputs": [],
      "name": "currentDay",
      "outputs": [
        {
          "internalType": "uint256",
          "name": "",
          "type": "uint256"
        }
      ],
      "stateMutability": "view",
      "type": "function"
    },
    {
      "inputs": [
        {
          "internalType": "bytes32",
          "name": "seed",
          "type": "bytes32"
        }
      ],
      "name": "genRadius",
      "outputs": [
        {
          "internalType": "uint256",
          "name": "",
          "type": "uint256"
        }
      ],
      "stateMutability": "pure",
      "type": "function"
    },
    {
      "inputs": [
        {
          "internalType": "uint256",
          "name": "tokenId",
          "type": "uint256"
        }
      ],
      "name": "getApproved",
      "outputs": [
        {
          "internalType": "address",
          "name": "",
          "type": "address"
        }
      ],
      "stateMutability": "view",
      "type": "function"
    },
    {
      "inputs": [
        {
          "internalType": "uint256",
          "name": "day",
          "type": "uint256"
        },
        {
          "internalType": "uint256",
          "name": "mintedBodiesIndex",
          "type": "uint256"
        },
        {
          "internalType": "uint256",
          "name": "bodyIndex",
          "type": "uint256"
        }
      ],
      "name": "getLevelSeed",
      "outputs": [
        {
          "internalType": "bytes32",
          "name": "",
          "type": "bytes32"
        }
      ],
      "stateMutability": "pure",
      "type": "function"
    },
    {
      "inputs": [
        {
          "internalType": "uint256",
          "name": "problemId",
          "type": "uint256"
        },
        {
          "internalType": "uint256",
          "name": "bodyId",
          "type": "uint256"
        }
      ],
      "name": "getProblemBodyData",
      "outputs": [
        {
          "components": [
            {
              "internalType": "uint256",
              "name": "bodyId",
              "type": "uint256"
            },
            {
              "internalType": "uint256",
              "name": "mintedBodyIndex",
              "type": "uint256"
            },
            {
              "internalType": "uint256",
              "name": "bodyIndex",
              "type": "uint256"
            },
            {
              "internalType": "uint256",
              "name": "px",
              "type": "uint256"
            },
            {
              "internalType": "uint256",
              "name": "py",
              "type": "uint256"
            },
            {
              "internalType": "uint256",
              "name": "vx",
              "type": "uint256"
            },
            {
              "internalType": "uint256",
              "name": "vy",
              "type": "uint256"
            },
            {
              "internalType": "uint256",
              "name": "radius",
              "type": "uint256"
            },
            {
              "internalType": "bytes32",
              "name": "seed",
              "type": "bytes32"
            }
          ],
          "internalType": "struct Problems.Body",
          "name": "",
          "type": "tuple"
        }
      ],
      "stateMutability": "view",
      "type": "function"
    },
    {
      "inputs": [
        {
          "internalType": "uint256",
          "name": "problemId",
          "type": "uint256"
        }
      ],
      "name": "getProblemBodyIds",
      "outputs": [
        {
          "internalType": "uint256[10]",
          "name": "",
          "type": "uint256[10]"
        }
      ],
      "stateMutability": "view",
      "type": "function"
    },
    {
      "inputs": [
        {
          "internalType": "uint256",
          "name": "problemId",
          "type": "uint256"
        }
      ],
      "name": "getProblemMintedBodiesIndex",
      "outputs": [
        {
          "internalType": "uint256",
          "name": "",
          "type": "uint256"
        }
      ],
      "stateMutability": "view",
      "type": "function"
    },
    {
      "inputs": [
        {
          "internalType": "bytes32",
          "name": "rand",
          "type": "bytes32"
        },
        {
          "internalType": "uint256",
          "name": "bodyIndex",
          "type": "uint256"
        }
      ],
      "name": "getRandomValues",
      "outputs": [
        {
          "components": [
            {
              "internalType": "uint256",
              "name": "bodyId",
              "type": "uint256"
            },
            {
              "internalType": "uint256",
              "name": "mintedBodyIndex",
              "type": "uint256"
            },
            {
              "internalType": "uint256",
              "name": "bodyIndex",
              "type": "uint256"
            },
            {
              "internalType": "uint256",
              "name": "px",
              "type": "uint256"
            },
            {
              "internalType": "uint256",
              "name": "py",
              "type": "uint256"
            },
            {
              "internalType": "uint256",
              "name": "vx",
              "type": "uint256"
            },
            {
              "internalType": "uint256",
              "name": "vy",
              "type": "uint256"
            },
            {
              "internalType": "uint256",
              "name": "radius",
              "type": "uint256"
            },
            {
              "internalType": "bytes32",
              "name": "seed",
              "type": "bytes32"
            }
          ],
          "internalType": "struct Problems.Body",
          "name": "",
          "type": "tuple"
        }
      ],
      "stateMutability": "pure",
      "type": "function"
    },
    {
      "inputs": [
        {
          "internalType": "address",
          "name": "owner",
          "type": "address"
        },
        {
          "internalType": "address",
          "name": "operator",
          "type": "address"
        }
      ],
      "name": "isApprovedForAll",
      "outputs": [
        {
          "internalType": "bool",
          "name": "",
          "type": "bool"
        }
      ],
      "stateMutability": "view",
      "type": "function"
    },
    {
      "inputs": [
        {
          "internalType": "uint256",
          "name": "problemId",
          "type": "uint256"
        }
      ],
      "name": "levelUp",
      "outputs": [],
      "stateMutability": "nonpayable",
      "type": "function"
    },
    {
      "inputs": [],
      "name": "maxVector",
      "outputs": [
        {
          "internalType": "uint256",
          "name": "",
          "type": "uint256"
        }
      ],
      "stateMutability": "view",
      "type": "function"
    },
    {
      "inputs": [],
      "name": "mint",
      "outputs": [],
      "stateMutability": "payable",
      "type": "function"
    },
    {
      "inputs": [
        {
          "internalType": "address",
          "name": "recipient",
          "type": "address"
        },
        {
          "internalType": "uint256",
          "name": "quantity",
          "type": "uint256"
        }
      ],
      "name": "mint",
      "outputs": [],
      "stateMutability": "payable",
      "type": "function"
    },
    {
      "inputs": [
        {
          "internalType": "address",
          "name": "recipient",
          "type": "address"
        }
      ],
      "name": "mint",
      "outputs": [],
      "stateMutability": "payable",
      "type": "function"
    },
    {
      "inputs": [],
      "name": "name",
      "outputs": [
        {
          "internalType": "string",
          "name": "",
          "type": "string"
        }
      ],
      "stateMutability": "view",
      "type": "function"
    },
    {
      "inputs": [],
      "name": "owner",
      "outputs": [
        {
          "internalType": "address",
          "name": "",
          "type": "address"
        }
      ],
      "stateMutability": "view",
      "type": "function"
    },
    {
      "inputs": [
        {
          "internalType": "uint256",
          "name": "tokenId",
          "type": "uint256"
        }
      ],
      "name": "ownerOf",
      "outputs": [
        {
          "internalType": "address",
          "name": "",
          "type": "address"
        }
      ],
      "stateMutability": "view",
      "type": "function"
    },
    {
      "inputs": [],
      "name": "paused",
      "outputs": [
        {
          "internalType": "bool",
          "name": "",
          "type": "bool"
        }
      ],
      "stateMutability": "view",
      "type": "function"
    },
    {
      "inputs": [],
      "name": "price",
      "outputs": [
        {
          "internalType": "uint256",
          "name": "",
          "type": "uint256"
        }
      ],
      "stateMutability": "view",
      "type": "function"
    },
    {
      "inputs": [],
      "name": "problemMetadata",
      "outputs": [
        {
          "internalType": "address",
          "name": "",
          "type": "address"
        }
      ],
      "stateMutability": "view",
      "type": "function"
    },
    {
      "inputs": [],
      "name": "problemSupply",
      "outputs": [
        {
          "internalType": "uint256",
          "name": "",
          "type": "uint256"
        }
      ],
      "stateMutability": "view",
      "type": "function"
    },
    {
      "inputs": [
        {
          "internalType": "uint256",
          "name": "",
          "type": "uint256"
        }
      ],
      "name": "problems",
      "outputs": [
        {
          "internalType": "bool",
          "name": "solved",
          "type": "bool"
        },
        {
          "internalType": "bytes32",
          "name": "seed",
          "type": "bytes32"
        },
        {
          "internalType": "uint256",
          "name": "day",
          "type": "uint256"
        },
        {
          "internalType": "uint256",
          "name": "bodyCount",
          "type": "uint256"
        },
        {
          "internalType": "uint256",
          "name": "mintedBodiesIndex",
          "type": "uint256"
        },
        {
          "internalType": "uint256",
          "name": "tickCount",
          "type": "uint256"
        }
      ],
      "stateMutability": "view",
      "type": "function"
    },
    {
      "inputs": [],
      "name": "proceedRecipient",
      "outputs": [
        {
          "internalType": "address",
          "name": "",
          "type": "address"
        }
      ],
      "stateMutability": "view",
      "type": "function"
    },
    {
      "inputs": [
        {
          "internalType": "address payable",
          "name": "_to",
          "type": "address"
        }
      ],
      "name": "recoverUnsuccessfulMintPayment",
      "outputs": [],
      "stateMutability": "nonpayable",
      "type": "function"
    },
    {
      "inputs": [],
      "name": "renounceOwnership",
      "outputs": [],
      "stateMutability": "nonpayable",
      "type": "function"
    },
    {
      "inputs": [
        {
          "internalType": "uint256",
          "name": "problemId",
          "type": "uint256"
        }
      ],
      "name": "restoreRadius",
      "outputs": [],
      "stateMutability": "nonpayable",
      "type": "function"
    },
    {
      "inputs": [
        {
          "internalType": "address",
          "name": "from",
          "type": "address"
        },
        {
          "internalType": "address",
          "name": "to",
          "type": "address"
        },
        {
          "internalType": "uint256",
          "name": "tokenId",
          "type": "uint256"
        }
      ],
      "name": "safeTransferFrom",
      "outputs": [],
      "stateMutability": "nonpayable",
      "type": "function"
    },
    {
      "inputs": [
        {
          "internalType": "address",
          "name": "from",
          "type": "address"
        },
        {
          "internalType": "address",
          "name": "to",
          "type": "address"
        },
        {
          "internalType": "uint256",
          "name": "tokenId",
          "type": "uint256"
        },
        {
          "internalType": "bytes",
          "name": "data",
          "type": "bytes"
        }
      ],
      "name": "safeTransferFrom",
      "outputs": [],
      "stateMutability": "nonpayable",
      "type": "function"
    },
    {
      "inputs": [],
      "name": "scalingFactor",
      "outputs": [
        {
          "internalType": "uint256",
          "name": "",
          "type": "uint256"
        }
      ],
      "stateMutability": "view",
      "type": "function"
    },
    {
      "inputs": [
        {
          "internalType": "address",
          "name": "operator",
          "type": "address"
        },
        {
          "internalType": "bool",
          "name": "approved",
          "type": "bool"
        }
      ],
      "name": "setApprovalForAll",
      "outputs": [],
      "stateMutability": "nonpayable",
      "type": "function"
    },
    {
      "inputs": [],
      "name": "solver",
      "outputs": [
        {
          "internalType": "address",
          "name": "",
          "type": "address"
        }
      ],
      "stateMutability": "view",
      "type": "function"
    },
    {
      "inputs": [],
      "name": "startDate",
      "outputs": [
        {
          "internalType": "uint256",
          "name": "",
          "type": "uint256"
        }
      ],
      "stateMutability": "view",
      "type": "function"
    },
    {
      "inputs": [],
      "name": "startingRadius",
      "outputs": [
        {
          "internalType": "uint256",
          "name": "",
          "type": "uint256"
        }
      ],
      "stateMutability": "view",
      "type": "function"
    },
    {
      "inputs": [
        {
          "internalType": "bytes4",
          "name": "interfaceId",
          "type": "bytes4"
        }
      ],
      "name": "supportsInterface",
      "outputs": [
        {
          "internalType": "bool",
          "name": "",
          "type": "bool"
        }
      ],
      "stateMutability": "view",
      "type": "function"
    },
    {
      "inputs": [],
      "name": "symbol",
      "outputs": [
        {
          "internalType": "string",
          "name": "",
          "type": "string"
        }
      ],
      "stateMutability": "view",
      "type": "function"
    },
    {
      "inputs": [
        {
          "internalType": "uint256",
          "name": "id",
          "type": "uint256"
        }
      ],
      "name": "tokenURI",
      "outputs": [
        {
          "internalType": "string",
          "name": "",
          "type": "string"
        }
      ],
      "stateMutability": "view",
      "type": "function"
    },
    {
      "inputs": [
        {
          "internalType": "address",
          "name": "from",
          "type": "address"
        },
        {
          "internalType": "address",
          "name": "to",
          "type": "address"
        },
        {
          "internalType": "uint256",
          "name": "tokenId",
          "type": "uint256"
        }
      ],
      "name": "transferFrom",
      "outputs": [],
      "stateMutability": "nonpayable",
      "type": "function"
    },
    {
      "inputs": [
        {
          "internalType": "address",
          "name": "newOwner",
          "type": "address"
        }
      ],
      "name": "transferOwnership",
      "outputs": [],
      "stateMutability": "nonpayable",
      "type": "function"
    },
    {
      "inputs": [
        {
          "internalType": "address",
          "name": "bodies_",
          "type": "address"
        }
      ],
      "name": "updateBodiesAddress",
      "outputs": [],
      "stateMutability": "nonpayable",
      "type": "function"
    },
    {
      "inputs": [
        {
          "internalType": "bool",
          "name": "paused_",
          "type": "bool"
        }
      ],
      "name": "updatePaused",
      "outputs": [],
      "stateMutability": "nonpayable",
      "type": "function"
    },
    {
      "inputs": [
        {
          "internalType": "uint256",
          "name": "price_",
          "type": "uint256"
        }
      ],
      "name": "updatePrice",
      "outputs": [],
      "stateMutability": "nonpayable",
      "type": "function"
    },
    {
      "inputs": [
        {
          "internalType": "uint256",
          "name": "problemId",
          "type": "uint256"
        },
        {
          "internalType": "uint256",
          "name": "bodyId",
          "type": "uint256"
        },
        {
          "components": [
            {
              "internalType": "uint256",
              "name": "bodyId",
              "type": "uint256"
            },
            {
              "internalType": "uint256",
              "name": "mintedBodyIndex",
              "type": "uint256"
            },
            {
              "internalType": "uint256",
              "name": "bodyIndex",
              "type": "uint256"
            },
            {
              "internalType": "uint256",
              "name": "px",
              "type": "uint256"
            },
            {
              "internalType": "uint256",
              "name": "py",
              "type": "uint256"
            },
            {
              "internalType": "uint256",
              "name": "vx",
              "type": "uint256"
            },
            {
              "internalType": "uint256",
              "name": "vy",
              "type": "uint256"
            },
            {
              "internalType": "uint256",
              "name": "radius",
              "type": "uint256"
            },
            {
              "internalType": "bytes32",
              "name": "seed",
              "type": "bytes32"
            }
          ],
          "internalType": "struct Problems.Body",
          "name": "body",
          "type": "tuple"
        }
      ],
      "name": "updateProblemBody",
      "outputs": [],
      "stateMutability": "nonpayable",
      "type": "function"
    },
    {
      "inputs": [
        {
          "internalType": "uint256",
          "name": "problemId",
          "type": "uint256"
        },
        {
          "internalType": "uint256",
          "name": "bodyCount",
          "type": "uint256"
        }
      ],
      "name": "updateProblemBodyCount",
      "outputs": [],
      "stateMutability": "nonpayable",
      "type": "function"
    },
    {
      "inputs": [
        {
          "internalType": "uint256",
          "name": "problemId",
          "type": "uint256"
        },
        {
          "internalType": "uint256[10]",
          "name": "bodyIds",
          "type": "uint256[10]"
        }
      ],
      "name": "updateProblemBodyIds",
      "outputs": [],
      "stateMutability": "nonpayable",
      "type": "function"
    },
    {
      "inputs": [
        {
          "internalType": "address",
          "name": "problemMetadata_",
          "type": "address"
        }
      ],
      "name": "updateProblemMetadataAddress",
      "outputs": [],
      "stateMutability": "nonpayable",
      "type": "function"
    },
    {
      "inputs": [
        {
          "internalType": "uint256",
          "name": "problemId",
          "type": "uint256"
        },
        {
          "internalType": "uint256",
          "name": "tickCount",
          "type": "uint256"
        }
      ],
      "name": "updateProblemTickCount",
      "outputs": [],
      "stateMutability": "nonpayable",
      "type": "function"
    },
    {
      "inputs": [
        {
          "internalType": "address",
          "name": "proceedRecipient_",
          "type": "address"
        }
      ],
      "name": "updateProceedRecipientAddress",
      "outputs": [],
      "stateMutability": "nonpayable",
      "type": "function"
    },
    {
      "inputs": [
        {
          "internalType": "address",
          "name": "solver_",
          "type": "address"
        }
      ],
      "name": "updateSolverAddress",
      "outputs": [],
      "stateMutability": "nonpayable",
      "type": "function"
    },
    {
      "inputs": [
        {
          "internalType": "uint256",
          "name": "startDate_",
          "type": "uint256"
        }
      ],
      "name": "updateStartDate",
      "outputs": [],
      "stateMutability": "nonpayable",
      "type": "function"
    },
    {
      "inputs": [
        {
          "internalType": "address",
          "name": "verifier_",
          "type": "address"
        },
        {
          "internalType": "uint256",
          "name": "verifierBodies",
          "type": "uint256"
        },
        {
          "internalType": "uint256",
          "name": "verifierTicks",
          "type": "uint256"
        }
      ],
      "name": "updateVerifier",
      "outputs": [],
      "stateMutability": "nonpayable",
      "type": "function"
    },
    {
      "inputs": [
        {
          "internalType": "uint256",
          "name": "",
          "type": "uint256"
        },
        {
          "internalType": "uint256",
          "name": "",
          "type": "uint256"
        }
      ],
      "name": "verifiers",
      "outputs": [
        {
          "internalType": "address",
          "name": "",
          "type": "address"
        }
      ],
      "stateMutability": "view",
      "type": "function"
    },
    {
      "inputs": [],
      "name": "windowWidth",
      "outputs": [
        {
          "internalType": "uint256",
          "name": "",
          "type": "uint256"
        }
      ],
      "stateMutability": "view",
      "type": "function"
    },
    {
      "stateMutability": "payable",
      "type": "receive"
    }
  ],
  "bytecode": "0x6040608081523462000550576200329590813803806200001f8162000590565b938439820160808382031262000550576200003a83620005b6565b92602091828201519260018060401b03938481116200055057830191601f9381858501121562000550578351936200007c6200007686620005cb565b62000590565b94848087838152019160051b83010191848311620005505785809101915b83831062000555575050505086810151868111620005505782620000c0918301620005e3565b9160608201518781116200055057620000da9201620005e3565b91620000e562000570565b95600f908188526e416e79626f64792050726f626c656d60881b838901526200010d62000570565b966003885262414e5960e81b848901528851978289116200053a5760009889549a60019b8c81811c911680156200052f575b888210146200051b57908185849311620004c8575b5087908583116001146200045b578c926200044f575b5050600019600383901b1c1916908b1b1789555b80519283116200043b5789548a81811c9116801562000430575b868210146200041c5790818385949311620003c7575b50859183116001146200036357899262000357575b5050600019600383901b1c191690881b1787555b6006549860018060a01b03199533878c161760065589519a60018060a01b039283918d7f8be0079c531659141344cd1fd0a4f28419497f9722a3daafe3b4186f6b6457e08c8533941692a389600755662386f26fc10000600d55169a8b15620003155750889a3388600c541617600c5587600b541617600b55879a5b62000268575b8951612be99081620006ac8239f35b80518b10156200030f576200028b620002828c8762000640565b5115156200066b565b620002a6826200029c8d8462000640565b511615156200066b565b81620002b38c8362000640565b5116620002c18c8862000640565b5189528385528a8920620002d68d8862000640565b518a5285528a892090888254161790556000198b14620002fb57998801998862000253565b634e487b7160e01b88526011600452602488fd5b62000259565b62461bcd60e51b815260048101859052601760248201527f496e76616c69642070726f626c656d4d657461646174610000000000000000006044820152606490fd5b015190503880620001c3565b8a8a52858a208b94509190601f1984168b5b88828210620003b0575050841162000396575b505050811b018755620001d7565b015160001960f88460031b161c1916905538808062000388565b8385015186558e9790950194938401930162000375565b909192508a8a52858a208380860160051c82019288871062000412575b9186958e929594930160051c01915b82811062000403575050620001ae565b8c81558695508d9101620003f3565b92508192620003e4565b634e487b7160e01b8a52602260045260248afd5b90607f169062000198565b634e487b7160e01b89526041600452602489fd5b0151905038806200016a565b8c8052888d208e94509190601f1984168e5b8b828210620004a857505084116200048e575b505050811b0189556200017e565b015160001960f88460031b161c1916905538808062000480565b91929395968291958786015181550195019301908f95949392916200046d565b9091508b8052878c208580850160051c8201928a861062000511575b918f91869594930160051c01915b8281106200050257505062000154565b8e81558594508f9101620004f2565b92508192620004e4565b634e487b7160e01b8c52602260045260248cfd5b90607f16906200013f565b634e487b7160e01b600052604160045260246000fd5b600080fd5b81906200056284620005b6565b81520191019085906200009a565b60408051919082016001600160401b038111838210176200053a57604052565b6040519190601f01601f191682016001600160401b038111838210176200053a57604052565b51906001600160a01b03821682036200055057565b6001600160401b0381116200053a5760051b60200190565b9080601f830112156200055057815190620006026200007683620005cb565b9182938184526020808095019260051b82010192831162000550578301905b82821062000630575050505090565b8151815290830190830162000621565b8051821015620006555760209160051b010190565b634e487b7160e01b600052603260045260246000fd5b156200067357565b60405162461bcd60e51b815260206004820152601060248201526f24b73b30b634b2103b32b934b334b2b960811b6044820152606490fdfe60406080815260049081361015610028575b5050361561001e57600080fd5b6100266123eb565b005b600091823560e01c908163010fdfd514611c4857816301ffc9a714611bda57816304b24e8514611ba357816305ee7fa014611b6257816306fdde0314611a97578163081812fc14611a775781630825ea8d146119d157816308cdc2a81461198b578163095ea7b31461181c5781630b27ce3f146117f35781630b97bc86146117d45781630bdaaaca146117b45781630ce90ec2146113e65781631249c58b146113d157816318d94793146113af57816320a286d01461139057816323b872dd146113655781632b057afa1461130d578163306da04f146112e457816334e5e492146112bb57816335d6f0cc1461128c5781633ef2570b1461126457816340847284146111d657816340c10f191461102a57816342842e0e14610fdb57816343569ffb14610fa457816349a7a26d14610f7b5781634b9862d914610f5f57816353e52f0914610f435781635c9302c914610f1f5781635c975abb14610ef85781636282eff514610eb75781636352211e14610e865781636a62784214610d1657816370a0823114610c80578163715018a614610c205781637696d9ff14610bdf578163872d7e4814610ba85781638d6cc56d14610b865781638da5cb5b14610b5d578163934317b114610b3457816395d89b4114610a1e5781639769dc0e146109ad578163a035b1fe1461098e578163a22cb465146108be578163b88d4fde14610832578163c09fd8ef146107be578163c31f5d6a14610723578163c87b56dd1461062c578163de4318fc1461058d578163e985e9c51461053f578163e9d903b11461042c578163eba4f366146103c9578163ed3437f8146103ac578163f2fde38b146102e157508063f81c8ec3146102c45763f9cfa06f0361001157346102c057816003193601126102c05760209051620151808152f35b5080fd5b50346102c057816003193601126102c05760209051620f42408152f35b9050346103a85760203660031901126103a8576102fc611c89565b610304611eb1565b6001600160a01b03908116918215610356575060065492826001600160601b0360a01b8516176006555192167f8be0079c531659141344cd1fd0a4f28419497f9722a3daafe3b4186f6b6457e08484a3f35b608490602085519162461bcd60e51b8352820152602660248201527f4f776e61626c653a206e6577206f776e657220697320746865207a65726f206160448201526564647265737360d01b6064820152fd5b8280fd5b5050346102c057816003193601126102c057602090516103e88152f35b919050346103a85760203660031901126103a8578060c09383358152600e6020522060ff815416926001820154926002830154906010600385015493850154940154948151961515875260208701528501526060840152608083015260a0820152f35b9050346103a8576101603660031901126103a857610120908160431936011261053b57825191820182811067ffffffffffffffff8211176105285760089185918552604435845260208401906064358252858501906084358252606086019060a43582526080870160c435815260a088019260e435845260c089019461010435865260e08a019661012435885260058c6101008d019a610144358c526104dd60018060a01b03600a54163314612b50565b87358152600e60205220018d60243590526020528b8d209a518b555160018b01555160028a015551600389015551908701555160058601555160068501555160078401555191015551f35b634e487b7160e01b855260418252602485fd5b8380fd5b5050346102c057806003193601126102c05760ff8160209361055f611c89565b610567611ca4565b6001600160a01b0391821683526005875283832091168252855220549151911615158152f35b9050346103a8576101603660031901126103a85736604312156103a85781516105b581611df1565b61016481368211610628576024905b82821061061857505050600a916105e560018060a01b038454163314612b50565b3584526020600e815260068486200185925b84841061060357868651f35b600183828293518555019201930192906105f7565b81358152602091820191016105c4565b8580fd5b919050346103a8576020918260031936011261053b57600b5482516351a35b5560e01b81528235928101929092528490829060249082906001600160a01b03165afa938415610718578094610695575b50506106919051928284938452830190611d05565b0390f35b909193503d8082843e6106a88184611e46565b82019183818403126102c05780519067ffffffffffffffff82116103a8570182601f820112156102c0578051916106de83611e68565b936106eb87519586611e46565b8385528584840101116107155750829161070d91858061069196019101611cd0565b92903861067c565b80fd5b8251903d90823e3d90fd5b919050346103a8576008816106919461073b36611cba565b90610744612a34565b508252600e6020526005838320019082526020522082519361076585611dbe565b8154855260018201546020860152600282015484860152600382015460608601528101546080850152600581015460a0850152600681015460c0850152600781015460e085015201546101008301525191829182611d5f565b9050346103a85760203660031901126103a857356001600160a01b038116908190036103a8576107ec611eb1565b4790600080516020612b94833981519152610823858080875187875af1610811612291565b90865192839288845288840190611d05565b9560208301521515940390a351f35b9050346103a85760803660031901126103a85761084d611c89565b90610856611ca4565b916064359167ffffffffffffffff8311610628573660238401121561062857820135928561088385611e68565b9361089087519586611e46565b85855236602487830101116102c057856108bb9660246020930183880137850101526044359161201b565b51f35b9050346103a857816003193601126103a8576108d8611c89565b6024359081151580920361098a576001600160a01b0316913383146109475750338452600560205282842082855260205282842060ff1981541660ff831617905582519081527f17307eab39ab6107e8899845ad3d59bd9653f200f220920489ca2b5937696c3160203392a351f35b606490602085519162461bcd60e51b8352820152601960248201527f4552433732313a20617070726f766520746f2063616c6c6572000000000000006044820152fd5b8480fd5b5050346102c057816003193601126102c057602090600d549051908152f35b5050346102c05760203660031901126102c0576108bb6109cb611c89565b600a54610a11906001600160a01b03906109e8908216151561252d565b6109f78160095416151561252d565b610a0681600b5416151561252d565b600c5416151561252d565b610a19611eb1565b6125c5565b8284346107155780600319360112610715578151918160019283549384811c91818616958615610b2a575b6020968785108114610b17578899509688969785829a529182600014610af0575050600114610a95575b5050506106919291610a86910385611e46565b51928284938452830190611d05565b91908693508083527fb10e2d527612073b26eecdfd717e6a320cf44b4afac2b0732d9fcbe2b7fa0cf65b828410610ad85750505082010181610a86610691610a73565b8054848a018601528895508794909301928101610abf565b60ff19168782015293151560051b86019093019350849250610a8691506106919050610a73565b634e487b7160e01b835260228a52602483fd5b92607f1692610a49565b5050346102c057816003193601126102c057600b5490516001600160a01b039091168152602090f35b5050346102c057816003193601126102c05760065490516001600160a01b039091168152602090f35b9050346103a85760203660031901126103a857610ba1611eb1565b35600d5551f35b5050346102c057610bb836611cba565b90610bce60018060a01b03600a54163314612b50565b8352600e6020526003828420015551f35b5050346102c05760203660031901126102c057610bfa611c89565b610c02611eb1565b60018060a01b03166001600160601b0360a01b600a541617600a5551f35b5050346102c057816003193601126102c057610c3a611eb1565b600680546001600160a01b0319811690915590519082906001600160a01b03167f8be0079c531659141344cd1fd0a4f28419497f9722a3daafe3b4186f6b6457e08284a3f35b839150346102c05760203660031901126102c0576001600160a01b03610ca4611c89565b16908115610cc15760208480858581526003845220549051908152f35b608490602085519162461bcd60e51b8352820152602960248201527f4552433732313a2061646472657373207a65726f206973206e6f7420612076616044820152683634b21037bbb732b960b91b6064820152fd5b905060203660031901126103a857610d2c611c89565b600a5490916001600160a01b03918216151590610d488261252d565b610d8d8360095416151592610d5c8461252d565b610d8885600b54161515610d6f8161252d565b610d8887600c541696610d8888151595610d888761252d565b61252d565b610d9f60ff60065460a01c161561256b565b6007544210610e5557600d543403610e2257508480809286519034905af190600080516020612b94833981519152610def610dd8612291565b92600c541692865191829188835288830190611d05565b943460208301521515940390a3825b60018110610e0b57505051f35b610e1d90610e18836125c5565b6125a0565b610dfe565b606490602086519162461bcd60e51b8352820152600d60248201526c496e76616c696420707269636560981b6044820152fd5b606490602086519162461bcd60e51b8352820152600b60248201526a139bdd081cdd185c9d195960aa1b6044820152fd5b8284346107155760203660031901126107155750610ea660209235611f55565b90516001600160a01b039091168152f35b5050346102c05760203660031901126102c057610ed2611c89565b610eda611eb1565b60018060a01b03166001600160601b0360a01b600c541617600c5551f35b5050346102c057816003193601126102c05760209060ff60065460a01c1690519015158152f35b5050346102c057816003193601126102c057602090610f3c6123d9565b9051908152f35b5050346102c057816003193601126102c0576020905160028152f35b5050346102c057816003193601126102c05760209051600a8152f35b5050346102c057816003193601126102c057600a5490516001600160a01b039091168152602090f35b5050346102c057602091610fb736611cba565b908252600f845282822090825283528190205490516001600160a01b039091168152f35b8383346102c057610feb36611d2a565b908351926020840184811067ffffffffffffffff82111761101757856108bb969798505286845261201b565b634e487b7160e01b875260418852602487fd5b9050816003193601126103a85761103f611c89565b600a54602435926001600160a01b039161105c908316151561252d565b61106b8260095416151561252d565b61107a82600b5416151561252d565b81600c54169061108b82151561252d565b600585116111ab576110a560ff60065460a01c161561256b565b600754421061117a57600d548560001904811186151516611167578502340361113457508580809287519034905af190600080516020612b948339815191526111066110ef612291565b92600c541692875191829189835289830190611d05565b943460208301521515940390a3835b8281106111225750505051f35b61112f90610e18836125c5565b611115565b606490602087519162461bcd60e51b8352820152600d60248201526c496e76616c696420707269636560981b6044820152fd5b634e487b7160e01b885260118252602488fd5b606490602087519162461bcd60e51b8352820152600b60248201526a139bdd081cdd185c9d195960aa1b6044820152fd5b606490602087519162461bcd60e51b835282015260056024820152644d6178203560d81b6044820152fd5b8383346102c0576020806003193601126103a85781929151936111f885611df1565b6101408095369037358252600e81528282208351939060060183855b600a821061124e5750505061122884611df1565b519291835b600a8210611239578585f35b8280600192865181520194019101909261122d565b8254815260019283019291909101908401611214565b8284346107155760603660031901126107155750610f3c6020926044359060243590356129ae565b828434610715578160031936011261071557506112b0610691926024359035612a79565b905191829182611d5f565b9050346103a85760203660031901126103a8578160209382358152600e85522001549051908152f35b5050346102c057816003193601126102c05760095490516001600160a01b039091168152602090f35b5050346102c05760603660031901126102c057611328611c89565b611330611eb1565b6024358352600f60205281832060443584526020528183209060018060a01b03166001600160601b0360a01b82541617905551f35b5050346102c0576108bb61137836611d2a565b9161138b61138684336120b6565b611fb9565b61217e565b5050346102c057816003193601126102c0576020906008549051908152f35b9050346103a85760203660031901126103a8576113ca611eb1565b3560075551f35b5050816003193601126102c0576108bb6123eb565b9050346103a85760208060031936011261053b57813560018060a01b03600a92611414828554163314612b50565b828752600e8082526003918583898b2001541460001461151457848952818152878920805460ff19166001179055885b86811061145657505050505050505051f35b858a5282825261146b8160068b8d20016129d7565b905490851b1c8a86600954169161148189611f55565b92803b156103a8578c51637fd9d57b60e01b81526001600160a01b03909416848d019081526020810192909252604082018a9052839182908490829060600103925af1801561150a576114de575b506114d9906125a0565b611444565b67ffffffffffffffff81116114f75789526114d96114cf565b634e487b7160e01b8b526041895260248bfd5b8a513d8d823e3d90fd5b9395919261152d60ff60069793975460a01c161561256b565b86895285855282888a20015491821015611773579061159088828b9695948a8861155682611f55565b92600954169285519687958694859363d395cb1360e01b85528c8501604091949392606082019560018060a01b0316825260208201520152565b03925af196871561176957889386928799611734575b50848752818852858b8820015495838c838a8a828480842060020154932001546115cf926129ae565b91898c52868d528b2001546115e391612a79565b978d6101008a019a8d8c52838b528c8b0199898b528d838d019085825282845289815284842060050190878552528383209b8d518d555160018d01555160028c015560608c019a8b518782015560808d019c8d518983015560a0810151600583015560c0810151600683015560e0019d8e5160078301555190600801558152868d522060060190611673916129d7565b8192915490841b600019811b9283911b169119161790558a8d528289528b8d2001805461169f906125a0565b9055898c528188528a8c20810180549091600119821161172157506001019055888b528652888a2060100154925193519451895198895295880152868801526060860152608085015260a084015260c083015260e08201527f26c34af247e1ccf098f0cc4e380568ece925088468fc831769e1f757fa3ea02a9061010090a151f35b634e487b7160e01b8e526011905260248dfd5b9098506117589192508a3d8c11611762575b6117508183611e46565b8101906125af565b91909197386115a6565b503d611746565b89513d87823e3d90fd5b60648386808b519262461bcd60e51b845283015260248201527f50726f626c656d20616c7265616479206d696e74656420313020626f646965736044820152fd5b8284346107155760203660031901126107155750610f3c602092356129fd565b5050346102c057816003193601126102c0576020906007549051908152f35b5050346102c057816003193601126102c057600c5490516001600160a01b039091168152602090f35b9050346103a857816003193601126103a857611836611c89565b602435916001600160a01b0390818061184e86611f55565b1693169280841461193e5780331490811561191f575b50156118b65783865260205283852080546001600160a01b0319168317905561188c83611f55565b169251927f8c5be1e5ebec7d5bd14f71427d1e84f3dd0314c0f7b2291e5b200ac8c7c3b9258585a4f35b608490602086519162461bcd60e51b8352820152603d60248201527f4552433732313a20617070726f76652063616c6c6572206973206e6f7420746f60448201527f6b656e206f776e6572206f7220617070726f76656420666f7220616c6c0000006064820152fd5b90508652600560205284862033875260205260ff858720541638611864565b855162461bcd60e51b8152602081840152602160248201527f4552433732313a20617070726f76616c20746f2063757272656e74206f776e656044820152603960f91b6064820152608490fd5b9050346103a85760203660031901126103a857358015158091036103a8576119b1611eb1565b6006805460ff60a01b191660a09290921b60ff60a01b1691909117905551f35b919050346103a8576020918260031936011261053b5735906119fe60018060a01b03600a54163314612b50565b835b828552600e8085526003808488200154831015611a7257908291611a2c611a6d946006878b20016129d7565b9054911b1c858852818752600580868a2001828a528852611a526008878b2001546129fd565b92878a528852858920019088528652600784882001556125a0565b611a00565b868451f35b8284346107155760203660031901126107155750610ea660209235611f7b565b82843461071557806003193601126107155781519181825492600184811c91818616958615611b58575b6020968785108114610b17578899509688969785829a529182600014610af0575050600114611afd575050506106919291610a86910385611e46565b91908693508280527f290decd9548b62a8d60345a988386fc84ba6bc95484008f6362f93160ef3e5635b828410611b405750505082010181610a86610691610a73565b8054848a018601528895508794909301928101611b27565b92607f1692611ac1565b5050346102c05760203660031901126102c057611b7d611c89565b611b85611eb1565b60018060a01b03166001600160601b0360a01b600b541617600b5551f35b5050346102c057611bb336611cba565b90611bc960018060a01b03600a54163314612b50565b8352600e6020526010828420015551f35b9050346103a85760203660031901126103a857359063ffffffff60e01b82168092036103a857602092506380ac58cd60e01b8214918215611c37575b8215611c26575b50519015158152f35b6301ffc9a760e01b14915038611c1d565b635b5e139f60e01b81149250611c16565b5050346102c05760203660031901126102c057611c63611c89565b611c6b611eb1565b60018060a01b03166001600160601b0360a01b600954161760095551f35b600435906001600160a01b0382168203611c9f57565b600080fd5b602435906001600160a01b0382168203611c9f57565b6040906003190112611c9f576004359060243590565b918091926000905b828210611cf0575011611ce9575050565b6000910152565b91508060209183015181860152018291611cd8565b90602091611d1e81518092818552858086019101611cd0565b601f01601f1916010190565b6060906003190112611c9f576001600160a01b03906004358281168103611c9f57916024359081168103611c9f579060443590565b919091610120810192805182526020810151602083015260408101516040830152606081015160608301526080810151608083015260a081015160a083015260c081015160c083015260e081015160e083015261010080910151910152565b610120810190811067ffffffffffffffff821117611ddb57604052565b634e487b7160e01b600052604160045260246000fd5b610140810190811067ffffffffffffffff821117611ddb57604052565b6080810190811067ffffffffffffffff821117611ddb57604052565b6040810190811067ffffffffffffffff821117611ddb57604052565b90601f8019910116810190811067ffffffffffffffff821117611ddb57604052565b67ffffffffffffffff8111611ddb57601f01601f191660200190565b6103e8908060001904821181151516611e9b570290565b634e487b7160e01b600052601160045260246000fd5b6006546001600160a01b03163303611ec557565b606460405162461bcd60e51b815260206004820152602060248201527f4f776e61626c653a2063616c6c6572206973206e6f7420746865206f776e65726044820152fd5b15611f1057565b60405162461bcd60e51b815260206004820152601860248201527f4552433732313a20696e76616c696420746f6b656e20494400000000000000006044820152606490fd5b6000908152600260205260409020546001600160a01b0316611f78811515611f09565b90565b600081815260026020526040902054611f9e906001600160a01b03161515611f09565b6000908152600460205260409020546001600160a01b031690565b15611fc057565b60405162461bcd60e51b815260206004820152602d60248201527f4552433732313a2063616c6c6572206973206e6f7420746f6b656e206f776e6560448201526c1c881bdc88185c1c1c9bdd9959609a1b6064820152608490fd5b9061203f93929161202f61138684336120b6565b61203a83838361217e565b6122c1565b1561204657565b60405162461bcd60e51b81528061205f60048201612063565b0390fd5b60809060208152603260208201527f4552433732313a207472616e7366657220746f206e6f6e20455243373231526560408201527131b2b4bb32b91034b6b83632b6b2b73a32b960711b60608201520190565b906001600160a01b0380806120ca84611f55565b169316918383149384156120fd575b5083156120e7575b50505090565b6120f391929350611f7b565b16143880806120e1565b909350600052600560205260406000208260005260205260ff6040600020541692386120d9565b1561212b57565b60405162461bcd60e51b815260206004820152602560248201527f4552433732313a207472616e736665722066726f6d20696e636f72726563742060448201526437bbb732b960d91b6064820152608490fd5b906121a69161218c84611f55565b6001600160a01b0393918416928492909183168414612124565b1691821561224057816121c3916121bc86611f55565b1614612124565b7fddf252ad1be2c89b69c2b068fc378daa952ba7f163c4a11628f55a4df523b3ef60008481526004602052604081206001600160601b0360a01b90818154169055838252600360205260408220600019815401905584825260408220600181540190558582526002602052846040832091825416179055604051a4565b60405162461bcd60e51b8152602060048201526024808201527f4552433732313a207472616e7366657220746f20746865207a65726f206164646044820152637265737360e01b6064820152608490fd5b3d156122bc573d906122a282611e68565b916122b06040519384611e46565b82523d6000602084013e565b606090565b91926000929190813b156123af576020916123179185604051958680958194630a85bd0160e11b9b8c845233600485015260018060a01b0380951660248501526044840152608060648401526084830190611d05565b0393165af190829082612367575b505061235957612333612291565b805190816123545760405162461bcd60e51b81528061205f60048201612063565b602001fd5b6001600160e01b0319161490565b909192506020813d82116123a7575b8161238360209383611e46565b810103126102c05751906001600160e01b0319821682036107155750903880612325565b3d9150612376565b5050505050600190565b81156123c3570690565b634e487b7160e01b600052601260045260246000fd5b620151804206804210611e9b57420390565b600a546001600160a01b0390612404908216151561252d565b6124138160095416151561252d565b61242281600b5416151561252d565b80600c541661243281151561252d565b61244460ff60065460a01c161561256b565b60075442106124fa57600d5434036124c55760008080926040519034905af190600080516020612b9483398151915261249861247e612291565b92600c541692604051918291604083526040830190611d05565b943460208301521515940390a360005b600181106124b35750565b6124c090610e18336125c5565b6124a8565b60405162461bcd60e51b815260206004820152600d60248201526c496e76616c696420707269636560981b6044820152606490fd5b60405162461bcd60e51b815260206004820152600b60248201526a139bdd081cdd185c9d195960aa1b6044820152606490fd5b1561253457565b60405162461bcd60e51b815260206004820152600f60248201526e139bdd081a5b9a5d1a585b1a5e9959608a1b6044820152606490fd5b1561257257565b60405162461bcd60e51b815260206004820152600660248201526514185d5cd95960d21b6044820152606490fd5b6000198114611e9b5760010190565b9190826040910312611c9f576020825192015190565b9060086125d281546125a0565b8082556001600160a01b0393841693909190841561291e5760008381526002602052604090205461260f906001600160a01b031615155b15612962565b600083815260026020526040902054612632906001600160a01b03161515612609565b600094808652602090600382526040948588206001815401905580885260028352858820826001600160601b0360a01b82541617905581887fddf252ad1be2c89b69c2b068fc378daa952ba7f163c4a11628f55a4df523b3ef818951a46126976123d9565b9684548152600e97888452600287832001558454946001431061290a5786519284840195878752600019430140898601528885526060978886019786891067ffffffffffffffff8a11176128f657858b948a948f946064958795868a528c5190209185528c5260018885200155600954169087549063d395cb1360e01b8552858b015260848a01528160a48a01525af19485156128ec5786839484976128b1575b5050508054958683528985526127896002898520015460048a862001548a51908882019283528b820152858482015283815261277381611e0e565b5190208885528b875260048a8620015490612a79565b9261010098898501958887528086528786018381528d838801908582528c86528a526005848620018386528a528385209188518355516001830155516002820155848701958651600383015560e060808901988951600485015560a0810151600585015560c08101516006850155019889516007840155519101558983528c8852806006838520015560038284200161282281546125a0565b90558983528c88526004828420019c8d549d8e6001191061289d5760017f26c34af247e1ccf098f0cc4e380568ece925088468fc831769e1f757fa3ea02a9e9f0190558a84528852601082842001549451955196519782519a8b528a0152880152860152608085015260a084015260c083015260e0820152a1565b634e487b7160e01b85526011600452602485fd5b90919296506128d893945088903d8a116128e4575b6128d08285611e46565b0101906125af565b91909193388681612738565b3d91506128c6565b87513d84823e3d90fd5b634e487b7160e01b86526041600452602486fd5b634e487b7160e01b82526011600452602482fd5b606460405162461bcd60e51b815260206004820152602060248201527f4552433732313a206d696e7420746f20746865207a65726f20616464726573736044820152fd5b1561296957565b60405162461bcd60e51b815260206004820152601c60248201527f4552433732313a20746f6b656e20616c7265616479206d696e746564000000006044820152606490fd5b91604051916020830193845260408301526060820152606081526129d181611e0e565b51902090565b600a8210156129e7570190600090565b634e487b7160e01b600052603260045260246000fd5b6001168019600111611e9b57600101806000190460051181151516611e9b576005026002198111611e9b576002611f789101611e84565b60405190612a4182611dbe565b816101006000918281528260208201528260408201528260608201528260808201528260a08201528260c08201528260e08201520152565b90612b19612b4091612a89612a34565b50612a92612a34565b93612a9c816129fd565b60e086015260405190602091828101918252828152612aba81611e2a565b51902091620f4240928381066060880152604051838101918252838152612ae081611e2a565b5190209283066080870152612b48576006915b604051828101918252828152612b0881611e2a565b51902090612b1e612b1984846123b9565b611e84565b60a0870152604051908082019283528152612b3881611e2a565b5190206123b9565b60c082015290565b601491612af3565b15612b5757565b60405162461bcd60e51b815260206004820152601460248201527313db9b1e4814dbdb1d995c8818d85b8818d85b1b60621b6044820152606490fdfeb08889abce443443404b2caf69aa3ccfb9ebfdf1ad2a634d06e11e24c1067938a264697066735822122038f7e0158cf1f016dc91ad556acde0413e93650ffc4b4569a536ececafa6fbd864736f6c634300080f0033",
  "linkReferences": {},
  "deployedLinkReferences": {}
}