{
  "_format": "hh-sol-artifact-1",
  "contractName": "Solver",
  "sourceName": "contracts/Solver.sol",
  "abi": [
    {
      "inputs": [
        {
          "internalType": "address",
          "name": "problems_",
          "type": "address"
        },
        {
          "internalType": "address",
          "name": "ticks_",
          "type": "address"
        }
      ],
      "stateMutability": "nonpayable",
      "type": "constructor"
    },
    {
      "anonymous": false,
      "inputs": [
        {
          "indexed": true,
          "internalType": "address",
          "name": "previousOwner",
          "type": "address"
        },
        {
          "indexed": true,
          "internalType": "address",
          "name": "newOwner",
          "type": "address"
        }
      ],
      "name": "OwnershipTransferred",
      "type": "event"
    },
    {
      "inputs": [],
      "name": "owner",
      "outputs": [
        {
          "internalType": "address",
          "name": "",
          "type": "address"
        }
      ],
      "stateMutability": "view",
      "type": "function"
    },
    {
      "inputs": [],
      "name": "problems",
      "outputs": [
        {
          "internalType": "address",
          "name": "",
          "type": "address"
        }
      ],
      "stateMutability": "view",
      "type": "function"
    },
    {
      "inputs": [],
      "name": "renounceOwnership",
      "outputs": [],
      "stateMutability": "nonpayable",
      "type": "function"
    },
    {
      "inputs": [
        {
          "internalType": "uint256",
          "name": "problemId",
          "type": "uint256"
        },
        {
          "internalType": "uint256",
          "name": "tickCount",
          "type": "uint256"
        },
        {
          "internalType": "uint256[2]",
          "name": "a",
          "type": "uint256[2]"
        },
        {
          "internalType": "uint256[2][2]",
          "name": "b",
          "type": "uint256[2][2]"
        },
        {
          "internalType": "uint256[2]",
          "name": "c",
          "type": "uint256[2]"
        },
        {
          "internalType": "uint256[]",
          "name": "input",
          "type": "uint256[]"
        }
      ],
      "name": "solveProblem",
      "outputs": [],
      "stateMutability": "nonpayable",
      "type": "function"
    },
    {
      "inputs": [],
      "name": "ticks",
      "outputs": [
        {
          "internalType": "address",
          "name": "",
          "type": "address"
        }
      ],
      "stateMutability": "view",
      "type": "function"
    },
    {
      "inputs": [
        {
          "internalType": "address",
          "name": "newOwner",
          "type": "address"
        }
      ],
      "name": "transferOwnership",
      "outputs": [],
      "stateMutability": "nonpayable",
      "type": "function"
    },
    {
      "inputs": [
        {
          "internalType": "address",
          "name": "problems_",
          "type": "address"
        }
      ],
      "name": "updateProblemsAddress",
      "outputs": [],
      "stateMutability": "nonpayable",
      "type": "function"
    },
    {
      "inputs": [
        {
          "internalType": "address",
          "name": "ticks_",
          "type": "address"
        }
      ],
      "name": "updateTicksAddress",
      "outputs": [],
      "stateMutability": "nonpayable",
      "type": "function"
    }
  ],
  "bytecode": "0x6080346100c357601f61192738819003918201601f19168301916001600160401b038311848410176100c85780849260409485528339810103126100c357610052602061004b836100de565b92016100de565b60008054336001600160a01b0319808316821784556040519590946001600160a01b03949093859391908416907f8be0079c531659141344cd1fd0a4f28419497f9722a3daafe3b4186f6b6457e09089a3168360015416176001551690600254161760025561183490816100f38239f35b600080fd5b634e487b7160e01b600052604160045260246000fd5b51906001600160a01b03821682036100c35756fe6080604052600436101561001257600080fd5b6000803560e01c8063087c32e6146114b65780632cfffaf61461148d5780634ddbbcfa14611441578063715018a6146113e45780638da5cb5b146113bd578063ab85f1f41461016d578063f2fde38b146100a05763f9df988f1461007557600080fd5b3461009d578060031936011261009d576001546040516001600160a01b039091168152602090f35b80fd5b503461009d57602036600319011261009d576001600160a01b0360043581811690819003610169576100d0611631565b801561011557600080546001600160a01b03198116831782556040519316907f8be0079c531659141344cd1fd0a4f28419497f9722a3daafe3b4186f6b6457e09084a3f35b60405162461bcd60e51b815260206004820152602660248201527f4f776e61626c653a206e6577206f776e657220697320746865207a65726f206160448201526564647265737360d01b6064820152608490fd5b8280fd5b503461009d5761016036600319011261009d57366063121561009d5760405161019581611515565b8036608411610169576044905b608482106113ad5750503660a3121561084d57604051906101c282611515565b81366101041161073d576084905b610104821061135c575050366101231215610169576040516101f181611515565b80366101441161072e57610104905b610144821061134c57505061014435916001600160401b03831161072e573660238401121561072e578260040135926001600160401b038411611338578360051b604051946102526020830187611610565b8552602460208601918301019136831161090e57602401905b8282106113285750506001546040516375d279b360e11b81526004803590820152936001600160a01b03909116929150606084602481865afa95861561131d57879488976112df575b508460001904600511851515166112cb57600585028060001904600211811515166107415760011b86510361128f57604051916343569ffb60e01b83528560048401526024356024840152602083604481885afa92831561081a57899361124b575b50600386036109ed576040519161032c836115f4565b6103c0809336903760405192610341846115f4565b368437895b601e81106109cd575061037694929161038061038a926040519788966301d28c8160e31b885260048801906116ff565b6044860190611727565b60c48401906116ff565b8861010483015b601e82106109b357506020936104c492508391506001600160a01b03165afa9081156109a8578691610979575b501561093d5784905b6040516310211ca160e21b815260048035908201529461014086602481855afa95861561093257839661086f575b50610403906024359061177a565b90803b15610169576044839260405194859384926304b24e8560e01b8452600435600485015260248401525af1801561086457610851575b5060025484906001600160a01b0316803b1561084d578180916044604051809481936340c10f1960e01b835233600484015260243560248401525af1801561073257610839575b505b8181106104915784604051f35b600a811015610825578060051b84015160018060a01b03600154169060405163618faeb560e11b81526004356004820152816024820152610100908181604481875afa91821561081a578992610769575b505061050660408201516104ff6104f988886116cf565b89611795565b51146117bf565b61052b61052561051587611689565b61051f88886116cf565b9061177a565b87611795565b516040820152606081015161054086866116cf565b600119811161075557906104ff600161055a930189611795565b61057061056686611689565b61051f87876116cf565b6001198111610741576001610586910187611795565b516060820152608081015161059b86866116cf565b600219811161075557906104ff60026105b5930189611795565b6105c161056686611689565b60021981116107415760026105d7910187611795565b51608082015260a08101516105ec86866116cf565b600319811161075557906104ff6003610606930189611795565b61061261056686611689565b6003198111610741576003610628910187611795565b5160a082015260c081015161063d86866116cf565b600419811161075557906104ff6004610657930189611795565b61066361056686611689565b6004198111610741579061067d60048a9594930188611795565b5160c0820152823b1561073d5761014484928360e09560405196879586946375d4eedd831b865260043560048701526024860152805160448601526020810151606486015260408101516084860152606081015160a4860152608081015160c486015260a081015160e486015260c081015161010486015201516101248401525af180156107325761071a575b505061071590611786565b610484565b61072390611502565b61072e57843861070a565b8480fd5b6040513d84823e3d90fd5b8380fd5b634e487b7160e01b89526011600452602489fd5b634e487b7160e01b8a52601160045260248afd5b8181809394503d8311610813575b6107818183611610565b8101031261080f576040519182828101106001600160401b0383850111176107f95760e0918301604052805183526020810151602084015260408101516040840152606081015160608401526080808201519084015260a0808201519084015260c08082015190840152015160e082015238806104e2565b634e487b7160e01b600052604160045260246000fd5b8880fd5b503d610777565b6040513d8b823e3d90fd5b634e487b7160e01b85526032600452602485fd5b61084290611502565b61073d578338610482565b5080fd5b61085d90949194611502565b923861043b565b6040513d87823e3d90fd5b9192509450610140903d6101401161092a575b61088c8282611610565b61014081838101031261092657818101601f820112156109265760405191826101408101106001600160401b03610140850111176109125761014083016040528290820161014083011161090e57908793929181905b610140830182106108fb575050506104039095906103f5565b81518152899550602091820191016108e2565b8780fd5b634e487b7160e01b88526041600452602488fd5b8680fd5b3d9150610882565b6040513d85823e3d90fd5b60405162461bcd60e51b815260206004820152601460248201527324b73b30b634b21019903137b23c90383937b7b360611b6044820152606490fd5b61099b915060203d6020116109a1575b6109938183611610565b8101906116e2565b386103be565b503d610989565b6040513d88823e3d90fd5b829350602080916001939451815201930191018492610391565b806109db6109e8928b611795565b518160051b860152611786565b610346565b60048603610b155760405191610a02836115d8565b610500809336903760405192610a17846115d8565b368437895b60288110610b025750610376949291610380610a4c926040519788966319da330f60e01b885260048801906116ff565b8861010483015b60288210610ae8575060209361060492508391506001600160a01b03165afa9081156109a8578691610ac9575b5015610a8d5784906103c7565b60405162461bcd60e51b815260206004820152601460248201527324b73b30b634b2101a103137b23c90383937b7b360611b6044820152606490fd5b610ae2915060203d6020116109a1576109938183611610565b38610a80565b829350602080916001939451815201930191018492610a53565b806109db610b10928b611795565b610a1c565b60058603610c3d5760405191610b2a836115bc565b610640809336903760405192610b3f846115bc565b368437895b60328110610c2a5750610376949291610380610b749260405197889663a63bed3760e01b885260048801906116ff565b8861010483015b60328210610c10575060209361074492508391506001600160a01b03165afa9081156109a8578691610bf1575b5015610bb55784906103c7565b60405162461bcd60e51b815260206004820152601460248201527324b73b30b634b2101a903137b23c90383937b7b360611b6044820152606490fd5b610c0a915060203d6020116109a1576109938183611610565b38610ba8565b829350602080916001939451815201930191018492610b7b565b806109db610c38928b611795565b610b44565b60068603610d655760405191610c52836115a0565b610780809336903760405192610c67846115a0565b368437895b603c8110610d525750610376949291610380610c9c9260405197889663a54a2bcf60e01b885260048801906116ff565b8861010483015b603c8210610d38575060209361088492508391506001600160a01b03165afa9081156109a8578691610d19575b5015610cdd5784906103c7565b60405162461bcd60e51b815260206004820152601460248201527324b73b30b634b2101b103137b23c90383937b7b360611b6044820152606490fd5b610d32915060203d6020116109a1576109938183611610565b38610cd0565b829350602080916001939451815201930191018492610ca3565b806109db610d60928b611795565b610c6c565b60078603610e8d5760405191610d7a83611584565b6108c0809336903760405192610d8f84611584565b368437895b60468110610e7a5750610376949291610380610dc492604051978896632cb278a960e11b885260048801906116ff565b8861010483015b60468210610e6057506020936109c492508391506001600160a01b03165afa9081156109a8578691610e41575b5015610e055784906103c7565b60405162461bcd60e51b815260206004820152601460248201527324b73b30b634b2101b903137b23c90383937b7b360611b6044820152606490fd5b610e5a915060203d6020116109a1576109938183611610565b38610df8565b829350602080916001939451815201930191018492610dcb565b806109db610e88928b611795565b610d94565b60088603610fb55760405191610ea283611568565b610a00809336903760405192610eb784611568565b368437895b60508110610fa25750610376949291610380610eec926040519788966361fd13f960e11b885260048801906116ff565b8861010483015b60508210610f885750602093610b0492508391506001600160a01b03165afa9081156109a8578691610f69575b5015610f2d5784906103c7565b60405162461bcd60e51b815260206004820152601460248201527324b73b30b634b2101c103137b23c90383937b7b360611b6044820152606490fd5b610f82915060203d6020116109a1576109938183611610565b38610f20565b829350602080916001939451815201930191018492610ef3565b806109db610fb0928b611795565b610ebc565b600986036110dd5760405191610fca8361154c565b610b40809336903760405192610fdf8461154c565b368437895b605a81106110ca575061037694929161038061101492604051978896634456e8b360e01b885260048801906116ff565b8861010483015b605a82106110b05750602093610c4492508391506001600160a01b03165afa9081156109a8578691611091575b50156110555784906103c7565b60405162461bcd60e51b815260206004820152601460248201527324b73b30b634b2101c903137b23c90383937b7b360611b6044820152606490fd5b6110aa915060203d6020116109a1576109938183611610565b38611048565b82935060208091600193945181520193019101849261101b565b806109db6110d8928b611795565b610fe4565b600a860361120657604051916110f283611530565b610c8080933690376040519261110784611530565b368437895b606481106111f3575061037694929161038061113c9260405197889663170ac5a560e11b885260048801906116ff565b8861010483015b606482106111d95750602093610d8492508391506001600160a01b03165afa9081156109a85786916111ba575b501561117d5784906103c7565b60405162461bcd60e51b815260206004820152601560248201527424b73b30b634b2101898103137b23c90383937b7b360591b6044820152606490fd5b6111d3915060203d6020116109a1576109938183611610565b38611170565b829350602080916001939451815201930191018492611143565b806109db611201928b611795565b61110c565b60405162461bcd60e51b815260206004820152601860248201527f496e76616c6964206e756d626572206f6620626f6469657300000000000000006044820152606490fd5b9092506020813d602011611287575b8161126760209383611610565b8101031261080f57516001600160a01b038116810361080f579138610316565b3d915061125a565b60405162461bcd60e51b8152602060048201526014602482015273092dcecc2d8d2c840d2dce0eae840d8cadccee8d60631b6044820152606490fd5b634e487b7160e01b88526011600452602488fd5b945095506060843d606011611315575b816112fc60609383611610565b81010312610926576040602085015194015195386102b4565b3d91506112ef565b6040513d89823e3d90fd5b813581526020918201910161026b565b634e487b7160e01b86526041600452602486fd5b8135815260209182019101610200565b36601f8301121561072e5760405161137381611515565b806040840136811161090e5784915b81831061139d575050508160209160409352019101906101d0565b8235815260209283019201611382565b81358152602091820191016101a2565b503461009d578060031936011261009d57546040516001600160a01b039091168152602090f35b503461009d578060031936011261009d576113fd611631565b80546001600160a01b0319811682556040519082906001600160a01b03167f8be0079c531659141344cd1fd0a4f28419497f9722a3daafe3b4186f6b6457e08284a3f35b503461009d57602036600319011261009d576004356001600160a01b0381169081900361084d57611470611631565b6bffffffffffffffffffffffff60a01b6002541617600255604051f35b503461009d578060031936011261009d576002546040516001600160a01b039091168152602090f35b503461009d57602036600319011261009d576004356001600160a01b0381169081900361084d576114e5611631565b6bffffffffffffffffffffffff60a01b6001541617600155604051f35b6001600160401b0381116107f957604052565b604081019081106001600160401b038211176107f957604052565b610c8081019081106001600160401b038211176107f957604052565b610b4081019081106001600160401b038211176107f957604052565b610a0081019081106001600160401b038211176107f957604052565b6108c081019081106001600160401b038211176107f957604052565b61078081019081106001600160401b038211176107f957604052565b61064081019081106001600160401b038211176107f957604052565b61050081019081106001600160401b038211176107f957604052565b6103c081019081106001600160401b038211176107f957604052565b90601f801991011681019081106001600160401b038211176107f957604052565b6000546001600160a01b0316330361164557565b606460405162461bcd60e51b815260206004820152602060248201527f4f776e61626c653a2063616c6c6572206973206e6f7420746865206f776e65726044820152fd5b7f333333333333333333333333333333333333333333333333333333333333333381116001166116b95760050290565b634e487b7160e01b600052601160045260246000fd5b80600019048211811515166116b9570290565b908160209103126116fa575180151581036116fa5790565b600080fd5b6000915b6002831061171057505050565b600190825181526020809101920192019190611703565b9060009182915b6002808410156117735782518590835b83831061175c5750505050602060406001920192019201919061172e565b60019082518152602080910192019201919061173e565b5050505050565b811981116116b9570190565b60001981146116b95760010190565b80518210156117a95760209160051b010190565b634e487b7160e01b600052603260045260246000fd5b156117c657565b60405162461bcd60e51b815260206004820152601060248201526f24b73b30b634b2103837b9b4ba34b7b760811b6044820152606490fdfea26469706673582212203a6cf28779795a4642a58bd0e1b759a585f85b683fea9509c38bdce3c1f971fc64736f6c634300080f0033",
  "linkReferences": {},
  "deployedLinkReferences": {}
}