{
  "_format": "hh-sol-artifact-1",
  "contractName": "Groth16Verifier",
  "sourceName": "contracts/Game_2_750Verifier.sol",
  "abi": [
    {
      "inputs": [
        {
          "internalType": "uint256[2]",
          "name": "_pA",
          "type": "uint256[2]"
        },
        {
          "internalType": "uint256[2][2]",
          "name": "_pB",
          "type": "uint256[2][2]"
        },
        {
          "internalType": "uint256[2]",
          "name": "_pC",
          "type": "uint256[2]"
        },
        {
          "internalType": "uint256[20]",
          "name": "_pubSignals",
          "type": "uint256[20]"
        }
      ],
      "name": "verifyProof",
      "outputs": [
        {
          "internalType": "bool",
          "name": "",
          "type": "bool"
        }
      ],
      "stateMutability": "view",
      "type": "function"
    }
  ],
  "bytecode": "0x608080604052346100165761108b908161001c8239f35b600080fdfe6080604052600436101561001257600080fd5b6000803560e01c63e56ac42f1461002857600080fd5b3461017857610380366003190112610178576100433661017b565b3660c411610174576100543661018d565b90610384368111610170579161016c916101676020959461040060405261007d6101043561019b565b6100896101243561019b565b6100956101443561019b565b6100a16101643561019b565b6100ad6101843561019b565b6100b96101a43561019b565b6100c56101c43561019b565b6100d16101e43561019b565b6100dd6102043561019b565b6100e96102243561019b565b6100f56102443561019b565b6101016102643561019b565b61010d6102843561019b565b6101196102a43561019b565b6101256102c43561019b565b6101316102e43561019b565b61013d6103043561019b565b6101496103243561019b565b6101556103443561019b565b6101616103643561019b565b3561019b565b610c95565b8152f35b8380fd5b5080fd5b80fd5b9060049160441161018857565b600080fd5b9060c4916101041161018857565b7f30644e72e131a029b85045b68181585d97816a916871ca8d3c208c16d87cfd4711156101c457565b6000805260206000f35b604051907f09047fd9284d1ccdf799d443745684f98c9a2bb2220765650cf31261302e4b0e82527f04acffe27b448159550b6c31a0f87e28cbfcc20407ae185d5109afacb118a20c6020830152604082019081526107cf196040836060816007855a01fa156101c45760409260066080939284938451905260a05160608401525a01fa156101c457565b604051907f28f1553db376667b94497acf7a613f8ab923e19f8d16c9537e3e871f678a765382527f289b953d6470beb860016fcc5822f52b47346da9c50b5e458a8a439c3084aa956020830152604082019081526107cf196040836060816007855a01fa156101c45760409260066080939284938451905260a05160608401525a01fa156101c457565b604051907f017671523e2b4a599778d996cb43356305ce68473680c28c710748dfc71e7df482527f02820ffd2f89b74da1282743f960d152b249d3f5ada1683ad489dc7d51078d746020830152604082019081526107cf196040836060816007855a01fa156101c45760409260066080939284938451905260a05160608401525a01fa156101c457565b604051907e7caee8b296d63e7c398574b90c76b4701a48eb898ba19c933624f2a7da303a82527f1942acbd1e6ad5eec7c9d2c2d1b135a287bb5c16d6c93d5ead687e6f3f07e7716020830152604082019081526107cf196040836060816007855a01fa156101c45760409260066080939284938451905260a05160608401525a01fa156101c457565b604051907f1b7aa4f3258bc189b1f22b95c58c433e69c6a90ad2e694206ec2b1804bfec92e82527f2ea5e2a51d5b48ec94e02b5e180b3af95085c160671c7e40319edd94613497936020830152604082019081526107cf196040836060816007855a01fa156101c45760409260066080939284938451905260a05160608401525a01fa156101c457565b604051907f0f684f3e6c2f3105cae0e3ea60b51816132d7240e9f53da71c4d4080a8673eaf82527f16e32f6961bd645af5f67a0ab7a3ba2c10174d616d3f27e87522ec98bba4f1ad6020830152604082019081526107cf196040836060816007855a01fa156101c45760409260066080939284938451905260a05160608401525a01fa156101c457565b604051907f0c34a9b4bbb41970cc768948c08421541508cf8cc61ed3dce9af25eca31ca00a82527f2f3173c50370eb44e1990c2b32b5cd5ce6777a327ef58f3f89b76aa06f8c8f386020830152604082019081526107cf196040836060816007855a01fa156101c45760409260066080939284938451905260a05160608401525a01fa156101c457565b604051907f0d30baccbb228cdb8ed22ce28dd2a16b7f9fab5167fabb82ee40a304c289056582527f0cabd6ac810549b0622c6e15465c3419f4f6134f3d096323ee40be4001dd86b46020830152604082019081526107cf196040836060816007855a01fa156101c45760409260066080939284938451905260a05160608401525a01fa156101c457565b604051907f1f18e41fd0941dadb8cdea328dccea5eb3fa8f3519f85d7bd54a786fe4fcea1b82527f25c13465ab6f013d0d29524ce171f893432478bed947567bcc2de29575e5415d6020830152604082019081526107cf196040836060816007855a01fa156101c45760409260066080939284938451905260a05160608401525a01fa156101c457565b604051907f070f5841b9e41b38a96849deda4483e8d80da7018d5e1b94fc7062789f9f13d082527f1c62a5642a7e49d1f0aa52809f110f0e05eac716b72ba82ccbf29970558888b36020830152604082019081526107cf196040836060816007855a01fa156101c45760409260066080939284938451905260a05160608401525a01fa156101c457565b604051907f28dd9c52c6297103b70e70514c95bc5a033ad4349c0a7332543e0587efe1031082527f09c9b422a8ad2758298e6db3b7c18595a7b544dc337857a7295a4001538c15a16020830152604082019081526107cf196040836060816007855a01fa156101c45760409260066080939284938451905260a05160608401525a01fa156101c457565b604051907f1226c49e0d4852a614cf3abb3cd75d0b3d94673f137dd64182c3af3691cf1e4b82527f037e4ca8dbd6b87ae17d395e939a8b2dc71460fb4bece25e0aaf19cddae434096020830152604082019081526107cf196040836060816007855a01fa156101c45760409260066080939284938451905260a05160608401525a01fa156101c457565b604051907f0c013b07914586f7f8528b64da78639404dcf06f345698d1aa77badfb75a8a7982527f2c6a7c3ec554816e95bd53b17ed3c9cc5da931fee7956154316dd9bc3bac0ceb6020830152604082019081526107cf196040836060816007855a01fa156101c45760409260066080939284938451905260a05160608401525a01fa156101c457565b604051907f049f9287175a7135c260e5420cb7110914c9fd5e4ff4335961f8c5df91bfce9582527f25ca86c5225fb25f8419e2453101d4665a3c56002721622093b6b478f1b525c76020830152604082019081526107cf196040836060816007855a01fa156101c45760409260066080939284938451905260a05160608401525a01fa156101c457565b604051907f09a515d10b3377ceb9884da7d6f1fa9295ea85843f9eab823a1021a2e379814182527f1dcefebcb6996cc7c5ec03c6c1856745821fe65717d648dc0e196575780ac9996020830152604082019081526107cf196040836060816007855a01fa156101c45760409260066080939284938451905260a05160608401525a01fa156101c457565b604051907f183e627103f52c49c8537aa6b899c0e6f061faafd61684607e8d20794cc3390c82527f0bb71e1f949967c69b9e5d3bbde6b0ea1e8f46246c7add73f1b05dfa93b4205d6020830152604082019081526107cf196040836060816007855a01fa156101c45760409260066080939284938451905260a05160608401525a01fa156101c457565b604051907f1f748de9ad55842ac8153dad5c0f5804fff8d158b95ba5ca989102881067453082527f0c5995afc1d2d53145ee0c36c2b4562dfe36846cb6a4df0c278f32b3a05d29e96020830152604082019081526107cf196040836060816007855a01fa156101c45760409260066080939284938451905260a05160608401525a01fa156101c457565b604051907f055a1d76f23f44f5844629b59c8022f86d8485eb30dcee479ae15e3aa03fff7d82527f23c4150274fa7353b9599b94bb8412addbb280fa4b744b4bca931b989e27a9f96020830152604082019081526107cf196040836060816007855a01fa156101c45760409260066080939284938451905260a05160608401525a01fa156101c457565b604051907f26fc1b40851d94b462a7d17bd9672823a2be71bd94a17fe10da6e2bb34850e6e82527f19fe9211ad1fb0adf15a0a59c620a4d0b9c8b448ed3e51045501ed2e6e527e416020830152604082019081526107cf196040836060816007855a01fa156101c45760409260066080939284938451905260a05160608401525a01fa156101c457565b604051907f25a631180d75f2a2be146a30f6dba24a3cd8700db5cd41563d10007b2fe9872a82527f0d1ae41c9bdf57cae1ac88b31f236c83301a24b9acdbb19748736a9eaf3b2d896020830152604082019081526107cf196040836060816007855a01fa156101c45760409260066080939284938451905260a05160608401525a01fa156101c457565b6020907f30035711d75fa8f741a7c740462073a4c2301fc09f8c152ead6dba5ed82d15db6080527f2e357a424567282a285e08b8895e986239c10c5553eaf067e18f7f89a2421a9160a052610cec610104356101ce565b610cf861012435610258565b610d04610144356102e2565b610d106101643561036c565b610d1c610184356103f5565b610d286101a43561047f565b610d346101c435610509565b610d406101e435610593565b610d4c6102043561061d565b610d58610224356106a7565b610d6461024435610731565b610d70610264356107bb565b610d7c61028435610845565b610d886102a4356108cf565b610d946102c435610959565b610da06102e4356109e3565b610dac61030435610a6d565b610db861032435610af7565b610dc461034435610b81565b610dd061036435610c0b565b61010092818492358352837f30644e72e131a029b85045b68181585d97816a916871ca8d3c208c16d87cfd479101358103066101205260443561014052606435610160526084356101805260a4356101a0527f2d4d9aa7e302d9df41749d5507949d05dbea33fbb16c643b22f599a2be6df2e26101c0527f14bedd503c37ceb061d8ec60209fe345ce89830a19230301f076caff004d19266101e0527f0967032fcbf776d1afc985f88877f182d38480a653f2decaa9794cbc3bf3060c610200527f0e187847ad4c798374d0d6732bf501847dd68bc0e071241e0213bc7fc13db7ab610220527f304cfbd1e08a704a99f5e847d93f8c3caafddec46b7a0d379da69a4d112346a7610240527f1739c1b1a457a8c7313123d24d2f9192f896b7c63eea05a9d57f06547ad0cec8610260526080516102805260a0516102a0527f198e9393920d483a7260bfb731fb5d25f1aa493335a9e71297e485b7aef312c26102c0527f1800deef121f1e76426a00665e5c4479674322d4f75edadd46debd5cd992f6ed6102e05282610300917f090689d0585ff075ec9e99ad690c3395bc4b313370b38ef355acdadcd122975b83527f12c85ea5db8c6deb4aab71808dcb408fe3d1e7690c43d37b4ce6cc0166fa7daa610320528035610340520135610360527f2c58b174c089708110667c874184a0ea867ea0fb02c48478dc65f0c98eb2df49610380527f08c3abb9e6a33b28d324e62fb9c90e03b4381ad31121412533f8e1e6f47416c96103a0527f0a4ca8c5699a7e47817c0aa5191d95572672e70dabc9a3a8fdfbe25669171e3e6103c0527f2a2fa629466c32c4a5fcdc46c65dce1ada9a9bbf1dbd94b76e015f8c83d9efca6103e0528160086107cf195a01fa9051169056fea2646970667358221220599404b9ba691dcc26a395f5f19bffce5577aadd5adeac18c9f669671215bef264736f6c634300080f0033",
  "linkReferences": {},
  "deployedLinkReferences": {}
}