{
  "_format": "hh-sol-artifact-1",
  "contractName": "Bodies",
  "sourceName": "contracts/Bodies.sol",
  "abi": [
    {
      "inputs": [
        {
          "internalType": "address payable",
          "name": "problems_",
          "type": "address"
        }
      ],
      "stateMutability": "nonpayable",
      "type": "constructor"
    },
    {
      "anonymous": false,
      "inputs": [
        {
          "indexed": true,
          "internalType": "address",
          "name": "owner",
          "type": "address"
        },
        {
          "indexed": true,
          "internalType": "address",
          "name": "approved",
          "type": "address"
        },
        {
          "indexed": true,
          "internalType": "uint256",
          "name": "tokenId",
          "type": "uint256"
        }
      ],
      "name": "Approval",
      "type": "event"
    },
    {
      "anonymous": false,
      "inputs": [
        {
          "indexed": true,
          "internalType": "address",
          "name": "owner",
          "type": "address"
        },
        {
          "indexed": true,
          "internalType": "address",
          "name": "operator",
          "type": "address"
        },
        {
          "indexed": false,
          "internalType": "bool",
          "name": "approved",
          "type": "bool"
        }
      ],
      "name": "ApprovalForAll",
      "type": "event"
    },
    {
      "anonymous": false,
      "inputs": [
        {
          "indexed": true,
          "internalType": "address",
          "name": "previousOwner",
          "type": "address"
        },
        {
          "indexed": true,
          "internalType": "address",
          "name": "newOwner",
          "type": "address"
        }
      ],
      "name": "OwnershipTransferred",
      "type": "event"
    },
    {
      "anonymous": false,
      "inputs": [
        {
          "indexed": true,
          "internalType": "address",
          "name": "from",
          "type": "address"
        },
        {
          "indexed": true,
          "internalType": "address",
          "name": "to",
          "type": "address"
        },
        {
          "indexed": true,
          "internalType": "uint256",
          "name": "tokenId",
          "type": "uint256"
        }
      ],
      "name": "Transfer",
      "type": "event"
    },
    {
      "anonymous": false,
      "inputs": [
        {
          "indexed": true,
          "internalType": "uint256",
          "name": "persistBodyId",
          "type": "uint256"
        },
        {
          "indexed": true,
          "internalType": "uint256",
          "name": "burnBodyId",
          "type": "uint256"
        },
        {
          "indexed": true,
          "internalType": "uint256",
          "name": "styleId",
          "type": "uint256"
        }
      ],
      "name": "Upgrade",
      "type": "event"
    },
    {
      "stateMutability": "nonpayable",
      "type": "fallback"
    },
    {
      "inputs": [
        {
          "internalType": "address",
          "name": "to",
          "type": "address"
        },
        {
          "internalType": "uint256",
          "name": "tokenId",
          "type": "uint256"
        }
      ],
      "name": "approve",
      "outputs": [],
      "stateMutability": "nonpayable",
      "type": "function"
    },
    {
      "inputs": [
        {
          "internalType": "address",
          "name": "owner",
          "type": "address"
        }
      ],
      "name": "balanceOf",
      "outputs": [
        {
          "internalType": "uint256",
          "name": "",
          "type": "uint256"
        }
      ],
      "stateMutability": "view",
      "type": "function"
    },
    {
      "inputs": [
        {
          "internalType": "uint256",
          "name": "bodyID",
          "type": "uint256"
        }
      ],
      "name": "burn",
      "outputs": [],
      "stateMutability": "nonpayable",
      "type": "function"
    },
    {
      "inputs": [],
      "name": "counter",
      "outputs": [
        {
          "internalType": "uint256",
          "name": "",
          "type": "uint256"
        }
      ],
      "stateMutability": "view",
      "type": "function"
    },
    {
      "inputs": [],
      "name": "decimals",
      "outputs": [
        {
          "internalType": "uint256",
          "name": "",
          "type": "uint256"
        }
      ],
      "stateMutability": "view",
      "type": "function"
    },
    {
      "inputs": [
        {
          "internalType": "uint256",
          "name": "tokenId",
          "type": "uint256"
        }
      ],
      "name": "generateSeed",
      "outputs": [
        {
          "internalType": "bytes32",
          "name": "",
          "type": "bytes32"
        }
      ],
      "stateMutability": "view",
      "type": "function"
    },
    {
      "inputs": [
        {
          "internalType": "uint256",
          "name": "tokenId",
          "type": "uint256"
        }
      ],
      "name": "getApproved",
      "outputs": [
        {
          "internalType": "address",
          "name": "",
          "type": "address"
        }
      ],
      "stateMutability": "view",
      "type": "function"
    },
    {
      "inputs": [
        {
          "internalType": "address",
          "name": "owner",
          "type": "address"
        },
        {
          "internalType": "address",
          "name": "operator",
          "type": "address"
        }
      ],
      "name": "isApprovedForAll",
      "outputs": [
        {
          "internalType": "bool",
          "name": "",
          "type": "bool"
        }
      ],
      "stateMutability": "view",
      "type": "function"
    },
    {
      "inputs": [
        {
          "internalType": "uint256",
          "name": "problemId",
          "type": "uint256"
        }
      ],
      "name": "mint",
      "outputs": [],
      "stateMutability": "nonpayable",
      "type": "function"
    },
    {
      "inputs": [
        {
          "internalType": "address",
          "name": "owner",
          "type": "address"
        },
        {
          "internalType": "uint256",
          "name": "problemId",
          "type": "uint256"
        }
      ],
      "name": "mintAndBurn",
      "outputs": [
        {
          "internalType": "uint256",
          "name": "",
          "type": "uint256"
        }
      ],
      "stateMutability": "nonpayable",
      "type": "function"
    },
    {
      "inputs": [],
      "name": "name",
      "outputs": [
        {
          "internalType": "string",
          "name": "",
          "type": "string"
        }
      ],
      "stateMutability": "view",
      "type": "function"
    },
    {
      "inputs": [],
      "name": "owner",
      "outputs": [
        {
          "internalType": "address",
          "name": "",
          "type": "address"
        }
      ],
      "stateMutability": "view",
      "type": "function"
    },
    {
      "inputs": [
        {
          "internalType": "uint256",
          "name": "tokenId",
          "type": "uint256"
        }
      ],
      "name": "ownerOf",
      "outputs": [
        {
          "internalType": "address",
          "name": "",
          "type": "address"
        }
      ],
      "stateMutability": "view",
      "type": "function"
    },
    {
      "inputs": [
        {
          "internalType": "address",
          "name": "owner",
          "type": "address"
        },
        {
          "internalType": "uint256",
          "name": "bodyId",
          "type": "uint256"
        }
      ],
      "name": "problemMint",
      "outputs": [],
      "stateMutability": "nonpayable",
      "type": "function"
    },
    {
      "inputs": [
        {
          "internalType": "uint256",
          "name": "",
          "type": "uint256"
        }
      ],
      "name": "problemPriceLevels",
      "outputs": [
        {
          "internalType": "uint256",
          "name": "",
          "type": "uint256"
        }
      ],
      "stateMutability": "view",
      "type": "function"
    },
    {
      "inputs": [],
      "name": "problems",
      "outputs": [
        {
          "internalType": "address payable",
          "name": "",
          "type": "address"
        }
      ],
      "stateMutability": "view",
      "type": "function"
    },
    {
      "inputs": [],
      "name": "renounceOwnership",
      "outputs": [],
      "stateMutability": "nonpayable",
      "type": "function"
    },
    {
      "inputs": [
        {
          "internalType": "address",
          "name": "from",
          "type": "address"
        },
        {
          "internalType": "address",
          "name": "to",
          "type": "address"
        },
        {
          "internalType": "uint256",
          "name": "tokenId",
          "type": "uint256"
        }
      ],
      "name": "safeTransferFrom",
      "outputs": [],
      "stateMutability": "nonpayable",
      "type": "function"
    },
    {
      "inputs": [
        {
          "internalType": "address",
          "name": "from",
          "type": "address"
        },
        {
          "internalType": "address",
          "name": "to",
          "type": "address"
        },
        {
          "internalType": "uint256",
          "name": "tokenId",
          "type": "uint256"
        },
        {
          "internalType": "bytes",
          "name": "data",
          "type": "bytes"
        }
      ],
      "name": "safeTransferFrom",
      "outputs": [],
      "stateMutability": "nonpayable",
      "type": "function"
    },
    {
      "inputs": [
        {
          "internalType": "uint256",
          "name": "",
          "type": "uint256"
        }
      ],
      "name": "seeds",
      "outputs": [
        {
          "internalType": "bytes32",
          "name": "",
          "type": "bytes32"
        }
      ],
      "stateMutability": "view",
      "type": "function"
    },
    {
      "inputs": [
        {
          "internalType": "address",
          "name": "operator",
          "type": "address"
        },
        {
          "internalType": "bool",
          "name": "approved",
          "type": "bool"
        }
      ],
      "name": "setApprovalForAll",
      "outputs": [],
      "stateMutability": "nonpayable",
      "type": "function"
    },
    {
      "inputs": [
        {
          "internalType": "uint256",
          "name": "",
          "type": "uint256"
        }
      ],
      "name": "styles",
      "outputs": [
        {
          "internalType": "uint256",
          "name": "",
          "type": "uint256"
        }
      ],
      "stateMutability": "view",
      "type": "function"
    },
    {
      "inputs": [
        {
          "internalType": "bytes4",
          "name": "interfaceId",
          "type": "bytes4"
        }
      ],
      "name": "supportsInterface",
      "outputs": [
        {
          "internalType": "bool",
          "name": "",
          "type": "bool"
        }
      ],
      "stateMutability": "view",
      "type": "function"
    },
    {
      "inputs": [],
      "name": "symbol",
      "outputs": [
        {
          "internalType": "string",
          "name": "",
          "type": "string"
        }
      ],
      "stateMutability": "view",
      "type": "function"
    },
    {
      "inputs": [
        {
          "internalType": "uint256",
          "name": "",
          "type": "uint256"
        }
      ],
      "name": "tockPrice",
      "outputs": [
        {
          "internalType": "uint256",
          "name": "",
          "type": "uint256"
        }
      ],
      "stateMutability": "view",
      "type": "function"
    },
    {
      "inputs": [],
      "name": "tocks",
      "outputs": [
        {
          "internalType": "address",
          "name": "",
          "type": "address"
        }
      ],
      "stateMutability": "view",
      "type": "function"
    },
    {
      "inputs": [
        {
          "internalType": "uint256",
          "name": "tokenId",
          "type": "uint256"
        }
      ],
      "name": "tokenURI",
      "outputs": [
        {
          "internalType": "string",
          "name": "",
          "type": "string"
        }
      ],
      "stateMutability": "view",
      "type": "function"
    },
    {
      "inputs": [
        {
          "internalType": "address",
          "name": "from",
          "type": "address"
        },
        {
          "internalType": "address",
          "name": "to",
          "type": "address"
        },
        {
          "internalType": "uint256",
          "name": "tokenId",
          "type": "uint256"
        }
      ],
      "name": "transferFrom",
      "outputs": [],
      "stateMutability": "nonpayable",
      "type": "function"
    },
    {
      "inputs": [
        {
          "internalType": "address",
          "name": "newOwner",
          "type": "address"
        }
      ],
      "name": "transferOwnership",
      "outputs": [],
      "stateMutability": "nonpayable",
      "type": "function"
    },
    {
      "inputs": [
        {
          "internalType": "address payable",
          "name": "problems_",
          "type": "address"
        }
      ],
      "name": "updateProblemsAddress",
      "outputs": [],
      "stateMutability": "nonpayable",
      "type": "function"
    },
    {
      "inputs": [
        {
          "internalType": "uint256",
          "name": "index",
          "type": "uint256"
        },
        {
          "internalType": "uint256",
          "name": "price",
          "type": "uint256"
        }
      ],
      "name": "updateTockPrice",
      "outputs": [],
      "stateMutability": "nonpayable",
      "type": "function"
    },
    {
      "inputs": [
        {
          "internalType": "address",
          "name": "tocks_",
          "type": "address"
        }
      ],
      "name": "updateTocksAddress",
      "outputs": [],
      "stateMutability": "nonpayable",
      "type": "function"
    },
    {
      "inputs": [
        {
          "internalType": "uint256",
          "name": "persistBodyId",
          "type": "uint256"
        },
        {
          "internalType": "uint256",
          "name": "burnBodyId",
          "type": "uint256"
        }
      ],
      "name": "upgrade",
      "outputs": [],
      "stateMutability": "nonpayable",
      "type": "function"
    }
  ],
  "bytecode": "0x6080346200044a5762001eb990813803601f1991601f838184011682019460018060401b0393838710858811176200043457808492604098895283396020938491810103126200044a57516001600160a01b0380821695909290918690036200044a576200006c6200044f565b916006835265426f6469657360d01b85840152620000896200044f565b9160038352621093d160ea1b8684015283519287841162000434576000938454956001968781811c9116801562000429575b8a821014620004155790818a86859411620003e4575b505089908583116001146200038357879262000377575b5050600019600383901b1c191690861b1784555b805192888411620003635785548681811c9116801562000358575b898210146200034457908184869594931162000309575b5088928411600114620002a8575084926200029c575b5050600019600383901b1c191690831b1782555b60065460018060a01b0319953387831617600655885191853391167f8be0079c531659141344cd1fd0a4f28419497f9722a3daafe3b4186f6b6457e08585a361014082019081118282101762000288578852818152818582015281888201526103e8606082015261138860808201526161a860a08201526201e84860c08201526209896860e0820152622faf0861010082015262ee6b2861012082015284600c92915b600a83106200026e575050505050339060065416036200022c5750600754161760075551611a309081620004898239f35b60649084519062461bcd60e51b825280600483015260248201527f4f776e61626c653a2063616c6c6572206973206e6f7420746865206f776e65726044820152fd5b805162ffffff1684559284019291840191869101620001fb565b634e487b7160e01b83526041600452602483fd5b01519050388062000144565b86865288862087959093929116865b8a828210620002f25750508411620002d8575b505050811b01825562000158565b015160001960f88460031b161c19169055388080620002ca565b8385015186558997909501949384019301620002b7565b62000333908888528a88208580880160051c8201928d89106200033a575b0160051c01906200046f565b386200012e565b9250819262000327565b634e487b7160e01b86526022600452602486fd5b90607f169062000117565b634e487b7160e01b85526041600452602485fd5b015190503880620000e8565b9086899416918880528b892092895b8d828210620003cd5750508411620003b3575b505050811b018455620000fc565b015160001960f88460031b161c19169055388080620003a5565b8385015186558c9790950194938401930162000392565b6200040d9189805287828b209181870160051c83019387106200033a570160051c01906200046f565b388a620000d1565b634e487b7160e01b87526022600452602487fd5b90607f1690620000bb565b634e487b7160e01b600052604160045260246000fd5b600080fd5b60408051919082016001600160401b038111838210176200043457604052565b8181106200047b575050565b600081556001016200046f56fe608060409080825260049081361015610057575b5034610052576020606492519162461bcd60e51b835282015260146024820152733737903330b6363130b1b590333ab731ba34b7b760611b6044820152fd5b600080fd5b600090813560e01c90816301ffc9a714610fdf5750806306fdde0314610f13578063081812fc14610ef2578063087c32e614610ead578063095ea7b314610d3d57806320a9a7e014610cdf57806323b872dd14610cb4578063313ce56714610c9157806331d988b214610c565780633e301fd014610c2d578063424611c314610c0557806342842e0e14610bb657806342966c6814610b83578063451450ec146109f857806361bc221a146109d95780636352211e146109a757806370a0823114610912578063715018a6146108b25780638096989d146108255780638da5cb5b146107fc578063952ef7ef146107bb57806395d89b41146106a1578063a0712d681461058a578063a22cb465146104b9578063b2c60dc914610490578063b88d4fde146103ff578063c87b56dd14610390578063e70139b814610363578063e985e9c514610315578063ed317c6c146102ec578063f0503e80146102c3578063f2fde38b146101f75763f9df988f036100135782346101f357816003193601126101f35760075490516001600160a01b039091168152602090f35b5080fd5b509190346102bf5760203660031901126102bf5761021361109c565b61021b611183565b6001600160a01b0390811691821561026d575060065492826001600160601b0360a01b8516176006555192167f8be0079c531659141344cd1fd0a4f28419497f9722a3daafe3b4186f6b6457e08484a3f35b608490602085519162461bcd60e51b8352820152602660248201527f4f776e61626c653a206e6577206f776e657220697320746865207a65726f206160448201526564647265737360d01b6064820152fd5b8280fd5b509190346102bf5760203660031901126102bf5760209282913581526009845220549051908152f35b509190346102bf5760203660031901126102bf5760209282913581526016845220549051908152f35b5082346101f357806003193601126101f35760ff8160209361033561109c565b61033d6110b2565b6001600160a01b0391821683526005875283832091168252855220549151911615158152f35b509190346102bf5760203660031901126102bf5735600a8110156102bf5760209250600c01549051908152f35b5082346101f35760203660031901126101f3576103ce6103c96103fb9435600052600260205260018060a01b0360406000205416151590565b6111db565b8181516103da81611113565b528051916103e783611113565b82525191829160208352602083019061104b565b0390f35b509190346102bf5760803660031901126102bf5761041b61109c565b906104246110b2565b916064359167ffffffffffffffff831161048c573660238401121561048c57820135928561045185611167565b9361045e87519586611145565b85855236602487830101116101f35785610489966024602093018388013785010152604435916112ed565b51f35b8580fd5b509190346102bf5760203660031901126102bf576020928291358152600a845220549051908152f35b509190346102bf57816003193601126102bf576104d461109c565b60243590811515809203610586576001600160a01b0316913383146105435750338452600560205282842082855260205282842060ff1981541660ff831617905582519081527f17307eab39ab6107e8899845ad3d59bd9653f200f220920489ca2b5937696c3160203392a351f35b606490602085519162461bcd60e51b8352820152601960248201527f4552433732313a20617070726f766520746f2063616c6c6572000000000000006044820152fd5b8480fd5b509190346102bf576020908160031936011261069d5760075483516331a9108f60e11b8152823581840181905292916001600160a01b039085908390602490829085165afa918215610693578792610657575b503391160361062057506105f190336117f5565b60096105fe600b546116a0565b9182600b5561060c83611672565b9285525281832055610489600b5433611711565b835162461bcd60e51b815290810183905260116024820152702737ba10383937b13632b69037bbb732b960791b6044820152606490fd5b9091508481813d831161068c575b61066f8183611145565b81010312610688575181811681036106885790386105dd565b8680fd5b503d610665565b86513d89823e3d90fd5b8380fd5b508290346107b857806003193601126107b8578151918160019283549384811c918186169586156107ae575b602096878510811461079b578899509688969785829a529182600014610774575050600114610719575b5050506103fb929161070a910385611145565b5192828493845283019061104b565b91908693508083527fb10e2d527612073b26eecdfd717e6a320cf44b4afac2b0732d9fcbe2b7fa0cf65b82841061075c575050508201018161070a6103fb6106f7565b8054848a018601528895508794909301928101610743565b60ff19168782015293151560051b8601909301935084925061070a91506103fb90506106f7565b634e487b7160e01b835260228a52602483fd5b92607f16926106cd565b80fd5b5082346101f35760203660031901126101f3576107d661109c565b6107de611183565b60018060a01b03166001600160601b0360a01b600854161760085551f35b5082346101f357816003193601126101f35760065490516001600160a01b039091168152602090f35b5082346101f357806003193601126101f35760209161084261109c565b6007546001600160a01b03929061085c908416331461191b565b610868602435836117f5565b610873600b546116a0565b80600b5561088081611672565b9082526009865284822055600b54928392169351936000805160206119db83398151915283828483818aa48286a48152f35b5082346101f357816003193601126101f3576108cc611183565b600680546001600160a01b0319811690915590519082906001600160a01b03167f8be0079c531659141344cd1fd0a4f28419497f9722a3daafe3b4186f6b6457e08284a3f35b5090346101f35760203660031901126101f3576001600160a01b0361093561109c565b169081156109525760208480858581526003845220549051908152f35b608490602085519162461bcd60e51b8352820152602960248201527f4552433732313a2061646472657373207a65726f206973206e6f7420612076616044820152683634b21037bbb732b960b91b6064820152fd5b508290346107b85760203660031901126107b857506109c860209235611227565b90516001600160a01b039091168152f35b5082346101f357816003193601126101f357602090600b549051908152f35b5091346102bf57610a08366110c8565b9092610a1384611227565b6001600160a01b03903390821603610b48573390610a3084611227565b1603610b1057818414610ae157838552600a602052828520548286528386205403610aab5750610a5f81611960565b828452600a602052818420610a7481546116a0565b9055828452600a602052818420549151927fcd893c9768071a946e7cfbf126fee7bb123706941a9355f895f728f3d23650fc8585a4f35b606490602084519162461bcd60e51b8352820152601060248201526f446966666572656e74207374796c657360801b6044820152fd5b606490602084519162461bcd60e51b8352820152600960248201526853616d6520626f647960b81b6044820152fd5b606490602084519162461bcd60e51b835282015260126024820152712737ba10313ab9372137b23c9037bbb732b960711b6044820152fd5b835162461bcd60e51b815260208184015260156024820152742737ba103832b939b4b9ba2137b23c9037bbb732b960591b6044820152606490fd5b509190346102bf5760203660031901126102bf5761048990610bb060018060a01b0360075416331461191b565b35611960565b5082346101f357610bc6366110de565b908351926020840184811067ffffffffffffffff821117610bf2578561048996979850528684526112ed565b634e487b7160e01b875260418852602487fd5b508290346107b85760203660031901126107b85750610c2660209235611672565b9051908152f35b5082346101f357816003193601126101f35760085490516001600160a01b039091168152602090f35b5082346101f357806003193601126101f357610489610c7361109c565b610c8860018060a01b0360075416331461191b565b60243590611711565b5082346101f357816003193601126101f35760209051670de0b6b3a76400008152f35b5082346101f357610489610cc7366110de565b91610cda610cd58433611388565b61128b565b611450565b509190346102bf57610cf0366110c8565b91610cf9611183565b600a821015610d0a5750600c015551f35b606490602085519162461bcd60e51b8352820152600d60248201526c092dcecc2d8d2c840d2dcc8caf609b1b6044820152fd5b509190346102bf57816003193601126102bf57610d5861109c565b602435916001600160a01b03908180610d7086611227565b16931692808414610e6057803314908115610e41575b5015610dd85783865260205283852080546001600160a01b03191683179055610dae83611227565b169251927f8c5be1e5ebec7d5bd14f71427d1e84f3dd0314c0f7b2291e5b200ac8c7c3b9258585a4f35b608490602086519162461bcd60e51b8352820152603d60248201527f4552433732313a20617070726f76652063616c6c6572206973206e6f7420746f60448201527f6b656e206f776e6572206f7220617070726f76656420666f7220616c6c0000006064820152fd5b90508652600560205284862033875260205260ff858720541638610d86565b855162461bcd60e51b8152602081840152602160248201527f4552433732313a20617070726f76616c20746f2063757272656e74206f776e656044820152603960f91b6064820152608490fd5b509190346102bf5760203660031901126102bf57356001600160a01b038116908190036102bf57610edc611183565b6001600160601b0360a01b600754161760075551f35b508290346107b85760203660031901126107b857506109c86020923561124d565b508290346107b857806003193601126107b85781519181825492600184811c91818616958615610fd5575b602096878510811461079b578899509688969785829a529182600014610774575050600114610f7a575050506103fb929161070a910385611145565b91908693508280527f290decd9548b62a8d60345a988386fc84ba6bc95484008f6362f93160ef3e5635b828410610fbd575050508201018161070a6103fb6106f7565b8054848a018601528895508794909301928101610fa4565b92607f1692610f3e565b905082346102bf5760203660031901126102bf573563ffffffff60e01b81168091036102bf57602092506380ac58cd60e01b811490811561103a575b8115611029575b5015158152f35b6301ffc9a760e01b14905083611022565b635b5e139f60e01b8114915061101b565b91908251928382526000905b848210611084575092806020939411611077575b601f01601f1916010190565b600083828401015261106b565b90602090818082850101519082860101520190611057565b600435906001600160a01b038216820361005257565b602435906001600160a01b038216820361005257565b6040906003190112610052576004359060243590565b6060906003190112610052576001600160a01b0390600435828116810361005257916024359081168103610052579060443590565b6020810190811067ffffffffffffffff82111761112f57604052565b634e487b7160e01b600052604160045260246000fd5b90601f8019910116810190811067ffffffffffffffff82111761112f57604052565b67ffffffffffffffff811161112f57601f01601f191660200190565b6006546001600160a01b0316330361119757565b606460405162461bcd60e51b815260206004820152602060248201527f4f776e61626c653a2063616c6c6572206973206e6f7420746865206f776e65726044820152fd5b156111e257565b60405162461bcd60e51b815260206004820152601860248201527f4552433732313a20696e76616c696420746f6b656e20494400000000000000006044820152606490fd5b6000908152600260205260409020546001600160a01b031661124a8115156111db565b90565b600081815260026020526040902054611270906001600160a01b031615156111db565b6000908152600460205260409020546001600160a01b031690565b1561129257565b60405162461bcd60e51b815260206004820152602d60248201527f4552433732313a2063616c6c6572206973206e6f7420746f6b656e206f776e6560448201526c1c881bdc88185c1c1c9bdd9959609a1b6064820152608490fd5b90611311939291611301610cd58433611388565b61130c838383611450565b611551565b1561131857565b60405162461bcd60e51b81528061133160048201611335565b0390fd5b60809060208152603260208201527f4552433732313a207472616e7366657220746f206e6f6e20455243373231526560408201527131b2b4bb32b91034b6b83632b6b2b73a32b960711b60608201520190565b906001600160a01b03808061139c84611227565b169316918383149384156113cf575b5083156113b9575b50505090565b6113c59192935061124d565b16143880806113b3565b909350600052600560205260406000208260005260205260ff6040600020541692386113ab565b156113fd57565b60405162461bcd60e51b815260206004820152602560248201527f4552433732313a207472616e736665722066726f6d20696e636f72726563742060448201526437bbb732b960d91b6064820152608490fd5b906114789161145e84611227565b6001600160a01b03939184169284929091831684146113f6565b1691821561150057816114959161148e86611227565b16146113f6565b6000805160206119db83398151915260008481526004602052604081206001600160601b0360a01b90818154169055838252600360205260408220600019815401905584825260408220600181540190558582526002602052846040832091825416179055604051a4565b60405162461bcd60e51b8152602060048201526024808201527f4552433732313a207472616e7366657220746f20746865207a65726f206164646044820152637265737360e01b6064820152608490fd5b9293600093909291803b15611667579484916115ab9660405180948193630a85bd0160e11b9788845233600485015260018060a01b0380921660248501526044840152608060648401528260209b8c97608483019061104b565b0393165af1849181611627575b50611616575050503d60001461160e573d6115d281611167565b906115e06040519283611145565b81528091833d92013e5b8051918261160b5760405162461bcd60e51b81528061133160048201611335565b01fd5b5060606115ea565b6001600160e01b0319161492509050565b9091508581813d8311611660575b61163f8183611145565b8101031261058657516001600160e01b0319811681036105865790386115b8565b503d611635565b505050915050600190565b60405160208101918252602081526040810181811067ffffffffffffffff82111761112f5760405251902090565b60001981146116af5760010190565b634e487b7160e01b600052601160045260246000fd5b156116cc57565b60405162461bcd60e51b815260206004820152601c60248201527f4552433732313a20746f6b656e20616c7265616479206d696e746564000000006044820152606490fd5b6001600160a01b031680156117b157600082815260026020526040902054611745906001600160a01b031615155b156116c5565b600082815260026020526040902054611768906001600160a01b0316151561173f565b600081815260036020526040812060018154019055828152600260205260408120826001600160601b0360a01b8254161790556000805160206119db83398151915281604051a4565b606460405162461bcd60e51b815260206004820152602060248201527f4552433732313a206d696e7420746f20746865207a65726f20616464726573736044820152fd5b906000818152601660205260409182822054600a8110156118d857600c015493670de0b6b3a76400009185600019048311861515166118c4578352601660205283832061184281546116a0565b90556008546001600160a01b039290831690813b156105865791846044928195948851998a968795632770a7eb60e21b87521660048601520260248401525af180156118b85761189157505050565b67ffffffffffffffff83116118a4575052565b634e487b7160e01b81526041600452602490fd5b509051903d90823e3d90fd5b634e487b7160e01b84526011600452602484fd5b6064845162461bcd60e51b815260206004820152602060248201527f50726f626c656d20616c7265616479206d696e74656420313020626f646965736044820152fd5b1561192257565b60405162461bcd60e51b815260206004820152601660248201527513db9b1e48141c9bd89b195b5cc818d85b8818d85b1b60521b6044820152606490fd5b61196981611227565b5061197381611227565b600090828252600460205260408220906001600160601b0360a01b9182815416905560018060a01b03169081835260036020526040832060001981540190558383526002602052604083209081541690556000805160206119db83398151915282604051a456feddf252ad1be2c89b69c2b068fc378daa952ba7f163c4a11628f55a4df523b3efa2646970667358221220bbba50b981232202150e93c3095202029ef7183ca0bfa8b4d3fac1772c3c259e64736f6c634300080f0033",
  "linkReferences": {},
  "deployedLinkReferences": {}
}