{
  "_format": "hh-sol-artifact-1",
  "contractName": "Solver",
  "sourceName": "contracts/Solver.sol",
  "abi": [
    {
      "inputs": [
        {
          "internalType": "address payable",
          "name": "problems_",
          "type": "address"
        }
      ],
      "stateMutability": "nonpayable",
      "type": "constructor"
    },
    {
      "anonymous": false,
      "inputs": [
        {
          "indexed": true,
          "internalType": "address",
          "name": "previousOwner",
          "type": "address"
        },
        {
          "indexed": true,
          "internalType": "address",
          "name": "newOwner",
          "type": "address"
        }
      ],
      "name": "OwnershipTransferred",
      "type": "event"
    },
    {
      "anonymous": false,
      "inputs": [
        {
          "indexed": true,
          "internalType": "address",
          "name": "solver",
          "type": "address"
        },
        {
          "indexed": true,
          "internalType": "uint256",
          "name": "problemId",
          "type": "uint256"
        },
        {
          "indexed": true,
          "internalType": "uint256",
          "name": "level",
          "type": "uint256"
        },
        {
          "indexed": false,
          "internalType": "uint256",
          "name": "ticksInThisMatch",
          "type": "uint256"
        }
      ],
      "name": "Solved",
      "type": "event"
    },
    {
      "stateMutability": "nonpayable",
      "type": "fallback"
    },
    {
      "inputs": [
        {
          "internalType": "uint256",
          "name": "problemId",
          "type": "uint256"
        },
        {
          "internalType": "uint256",
          "name": "tickCount",
          "type": "uint256"
        },
        {
          "internalType": "uint256[2][]",
          "name": "a",
          "type": "uint256[2][]"
        },
        {
          "internalType": "uint256[2][2][]",
          "name": "b",
          "type": "uint256[2][2][]"
        },
        {
          "internalType": "uint256[2][]",
          "name": "c",
          "type": "uint256[2][]"
        },
        {
          "internalType": "uint256[][]",
          "name": "input",
          "type": "uint256[][]"
        }
      ],
      "name": "batchSolve",
      "outputs": [],
      "stateMutability": "nonpayable",
      "type": "function"
    },
    {
      "inputs": [
        {
          "internalType": "uint256",
          "name": "",
          "type": "uint256"
        }
      ],
      "name": "bodyBoost",
      "outputs": [
        {
          "internalType": "uint256",
          "name": "",
          "type": "uint256"
        }
      ],
      "stateMutability": "view",
      "type": "function"
    },
    {
      "inputs": [],
      "name": "decimals",
      "outputs": [
        {
          "internalType": "uint256",
          "name": "",
          "type": "uint256"
        }
      ],
      "stateMutability": "view",
      "type": "function"
    },
    {
      "inputs": [
        {
          "internalType": "uint256",
          "name": "problemId",
          "type": "uint256"
        }
      ],
      "name": "deleteMatch",
      "outputs": [],
      "stateMutability": "nonpayable",
      "type": "function"
    },
    {
      "inputs": [
        {
          "internalType": "uint256",
          "name": "problemId",
          "type": "uint256"
        }
      ],
      "name": "inProgress",
      "outputs": [
        {
          "internalType": "bool",
          "name": "",
          "type": "bool"
        }
      ],
      "stateMutability": "view",
      "type": "function"
    },
    {
      "inputs": [
        {
          "internalType": "uint256",
          "name": "",
          "type": "uint256"
        }
      ],
      "name": "matches",
      "outputs": [
        {
          "internalType": "bool",
          "name": "inProgress",
          "type": "bool"
        },
        {
          "internalType": "uint256",
          "name": "problemId",
          "type": "uint256"
        },
        {
          "internalType": "uint256",
          "name": "startingTick",
          "type": "uint256"
        }
      ],
      "stateMutability": "view",
      "type": "function"
    },
    {
      "inputs": [],
      "name": "maxTick",
      "outputs": [
        {
          "internalType": "uint256",
          "name": "",
          "type": "uint256"
        }
      ],
      "stateMutability": "view",
      "type": "function"
    },
    {
      "inputs": [],
      "name": "owner",
      "outputs": [
        {
          "internalType": "address",
          "name": "",
          "type": "address"
        }
      ],
      "stateMutability": "view",
      "type": "function"
    },
    {
      "inputs": [],
      "name": "problems",
      "outputs": [
        {
          "internalType": "address payable",
          "name": "",
          "type": "address"
        }
      ],
      "stateMutability": "view",
      "type": "function"
    },
    {
      "inputs": [],
      "name": "renounceOwnership",
      "outputs": [],
      "stateMutability": "nonpayable",
      "type": "function"
    },
    {
      "inputs": [
        {
          "internalType": "uint256",
          "name": "problemId",
          "type": "uint256"
        },
        {
          "internalType": "uint256",
          "name": "tickCount",
          "type": "uint256"
        },
        {
          "internalType": "uint256[2]",
          "name": "a",
          "type": "uint256[2]"
        },
        {
          "internalType": "uint256[2][2]",
          "name": "b",
          "type": "uint256[2][2]"
        },
        {
          "internalType": "uint256[2]",
          "name": "c",
          "type": "uint256[2]"
        },
        {
          "internalType": "uint256[]",
          "name": "input",
          "type": "uint256[]"
        }
      ],
      "name": "solveProblem",
      "outputs": [],
      "stateMutability": "nonpayable",
      "type": "function"
    },
    {
      "inputs": [
        {
          "internalType": "address",
          "name": "newOwner",
          "type": "address"
        }
      ],
      "name": "transferOwnership",
      "outputs": [],
      "stateMutability": "nonpayable",
      "type": "function"
    },
    {
      "inputs": [
        {
          "internalType": "address payable",
          "name": "problems_",
          "type": "address"
        }
      ],
      "name": "updateProblemsAddress",
      "outputs": [],
      "stateMutability": "nonpayable",
      "type": "function"
    }
  ],
  "bytecode": "0x60803461014c57601f6200202038819003918201601f1916830192916001600160401b03919082851184861017610151578084926040968752833960209384918101031261014c57516001600160a01b0392838216929183900361014c5760008054336001600160a01b031980831682178455885197909592167f8be0079c531659141344cd1fd0a4f28419497f9722a3daafe3b4186f6b6457e08489a36101608601908111868210176101385786929192528185528181860152818686015260019485606082015260026080820152600460a0820152600860c0820152601060e0820152816101008201528661012082015260806101408201529085600293925b600b8410610121575092505050541617905551611eb89081620001688239f35b805160ff1685559381019392019186908201610101565b634e487b7160e01b82526041600452602482fd5b600080fd5b634e487b7160e01b600052604160045260246000fdfe60806040526004361015610054575b3461004f5760405162461bcd60e51b81526020600482015260146024820152733737903330b6363130b1b590333ab731ba34b7b760611b6044820152606490fd5b600080fd5b60003560e01c8063087c32e614611afb578063130e5a87146110545780631db3b6dd14611037578063313ce567146110145780634768d4ef14610fcc5780634e26b0cd14610f9b578063715018a614610f3c5780638da5cb5b14610f135780639512ada214610de1578063ab85f1f414610207578063cd190a92146101db578063f2fde38b146101115763f9df988f0361000e573461004f57600036600319011261004f576001546040516001600160a01b039091168152602090f35b3461004f57602036600319011261004f576004356001600160a01b038181169182900361004f57610140611d1d565b811561018757600080546001600160a01b031981168417825560405191939192167f8be0079c531659141344cd1fd0a4f28419497f9722a3daafe3b4186f6b6457e08484a3f35b60405162461bcd60e51b815260206004820152602660248201527f4f776e61626c653a206e6577206f776e657220697320746865207a65726f206160448201526564647265737360d01b6064820152608490fd5b3461004f57602036600319011261004f57600435600b81101561004f5760209060020154604051908152f35b3461004f5761016036600319011261004f57366063121561004f5760405161022e81611b9f565b3660841161004f576044905b60848210610dd1573660a3121561004f5760405161025781611b9f565b366101041161004f576084905b6101048210610db75736610123121561004f5760405161028381611b9f565b366101441161004f57610104905b6101448210610da757610144356001600160401b03811161004f576102ba903690600401611cbf565b6001546040516331a9108f60e11b815260048035908201526001600160a01b0390911690602081602481855afa80156105dd5761030a91600091610d88575b506001600160a01b03163314611dcd565b6040516375d279b360e11b815260048035908201529160c083602481855afa9182156105dd5760008094600094610d3a575b50610d045761035261034d85611e09565b611e1f565b60011981116108fd57600101825103610cc8576020604491604051928380926343569ffb60e01b825288600483015260243560248301525afa9081156105dd57600091610c99575b506001600160a01b031615610c61576103bb6103b584611e09565b82611d84565b5160018403610bcb575b61040d604091600435600052600d60205282600020948351956103e787611b3f565b600260ff825416159182158952600181015460208a0152015485880152610b8b57611e65565b920151908183106108fd57610bb882840311610b52576001546040516310211ca160e21b8152600480359082015291906001600160a01b031661014083602481845afa9283156105dd57600093610ad2575b50803b1561004f57600080916044604051809481936304b24e8560e01b835260043560048401528a60248401525af180156105dd57610ac3575b5090849160009160006101006040516104b181611b83565b8281528260208201528260408201528260608201528260808201528260a08201528260c08201528260e0820152015260005b8481106105f857505050146104f5575b005b6001546001600160a01b0316803b1561004f5760008091604460405180948193635226dc9360e01b8352600435600484015287890360248401525af180156105dd576105e9575b506001546001600160a01b0316803b1561004f576000809160246040518094819363366cf14f60e11b835260043560048401525af180156105dd576105ce575b50600435600052600d6020526000600260408220828155826001820155015560405191038152600435907fd1a83cf15e893baacb4994c8e0feb9cb86c3725254e5c55c6f17b3d19c56dc4760203392a4005b6105d790611b70565b8361057c565b6040513d6000823e3d90fd5b6105f290611b70565b8361053c565b60015493945091929091906001600160a01b03166106168284611e71565b516040519063618faeb560e11b82526004356004830152602482015261012081604481855afa9081156105dd57600091610a2d575b50606081015161066c61065d8b611e35565b61066686611e09565b90611e65565b60011981116108fd576001610682910187611d84565b51036109f35761069a61069484611e09565b86611d84565b51606082015260808101516106b161065d8b611e35565b60011981116108fd5760011960018201116108fd5760026106d3910187611d84565b51036109b9576106e283611e09565b60011981116108fd5760016106f8910186611d84565b51608082015260a081015161070f61065d8b611e35565b60021981116108fd5760011960028201116108fd576003610731910187611d84565b51036109815761074083611e09565b60021981116108fd576002610756910186611d84565b5160a082015260c081015161076d61065d8b611e35565b60031981116108fd5760011960038201116108fd57600461078f910187611d84565b51036109495761079e83611e09565b60031981116108fd5760036107b4910186611d84565b5160c082015260e08101516107cb61065d8b611e35565b60041981116108fd5760011960048201116108fd5760056107ed910187611d84565b5103610913576107fc83611e09565b60041981116108fd576004610812910186611d84565b5160e08201526108228385611e71565b51823b1561004f576000926101648492604051958693849263e9d903b160e01b845260043560048501526024840152865160448401526020870151606484015260408701516084840152606087015160a4840152608087015160c484015260a087015160e484015260c087015161010484015260e08701516101248401526101008701516101448401525af19182156105dd5760e0926108ee575b500151156108d9575b6108cf90611d75565b90869392916104e3565b926108e66108cf91611d75565b9390506108c6565b6108f790611b70565b896108bd565b634e487b7160e01b600052601160045260246000fd5b60405162461bcd60e51b815260206004820152600e60248201526d496e76616c69642072616469757360901b6044820152606490fd5b60405162461bcd60e51b815260206004820152601060248201526f496e76616c696420766563746f72207960801b6044820152606490fd5b60405162461bcd60e51b815260206004820152601060248201526f092dcecc2d8d2c840eccac6e8dee440f60831b6044820152606490fd5b60405162461bcd60e51b8152602060048201526012602482015271496e76616c696420706f736974696f6e207960701b6044820152606490fd5b60405162461bcd60e51b8152602060048201526012602482015271092dcecc2d8d2c840e0dee6d2e8d2dedc40f60731b6044820152606490fd5b9050610120813d61012011610abb575b81610a4b6101209383611bd6565b8101031261004f5761010060405191610a6383611b83565b805183526020810151602084015260408101516040840152606081015160608401526080810151608084015260a081015160a084015260c081015160c084015260e081015160e084015201516101008201528961064b565b3d9150610a3d565b610acc90611b70565b85610499565b909250610140903d61014011610b4a575b610aed8282611bd6565b61014081838101031261004f57818101601f8201121561004f5760405191610b1483611bba565b8290820161014083011161004f5781905b61014083018210610b3a57505050918661045f565b8151815260209182019101610b25565b3d9150610ae3565b60405162461bcd60e51b815260206004820152601160248201527013585e081d1a58dac8195e18d959591959607a1b6044820152606490fd5b600186528084870152600435600052600d602052836000208651151560ff8019835416911617815560208701516001820155600285880151910155611e65565b60028403610bd9575b6103c5565b60038403156103c55760048403156103c55760058403156103c55760068403156103c5576007840315610bd45760088403156103c5576009840315610bd457600a840315610bd45760405162461bcd60e51b8152602060048201526018602482015277496e76616c6964206e756d626572206f6620626f6469657360401b6044820152606490fd5b60405162461bcd60e51b815260206004820152601060248201526f24b73b30b634b2103b32b934b334b2b960811b6044820152606490fd5b610cbb915060203d602011610cc1575b610cb38183611bd6565b810190611dae565b8461039a565b503d610ca9565b60405162461bcd60e51b8152602060048201526014602482015273092dcecc2d8d2c840d2dce0eae840d8cadccee8d60631b6044820152606490fd5b60405162461bcd60e51b815260206004820152600e60248201526d105b1c9958591e481cdbdb1d995960921b6044820152606490fd5b935050925060c0823d60c011610d80575b81610d5860c09383611bd6565b8101031261004f57815192831515840361004f5760a06060840151930151939293928561033c565b3d9150610d4b565b610da1915060203d602011610cc157610cb38183611bd6565b846102f9565b8135815260209182019101610291565b6020604091610dc63685611c0e565b815201910190610264565b813581526020918201910161023a565b3461004f5760208060031936011261004f576001546040516331a9108f60e11b8152600480359082018190526001600160a01b0392831693929091908382602481885afa80156105dd57610e4092600091610ef6575b50163314611dcd565b80600052600d825260ff6040600020541615610eb957823b1561004f576000809360246040518096819363366cf14f60e11b83528660048401525af19283156105dd57600d93610eaa575b5060005252600060026040822082815582600182015501556000604051f35b610eb390611b70565b83610e8b565b60405162461bcd60e51b81526004810183905260156024820152744d61746368206e6f7420696e2070726f677265737360581b6044820152606490fd5b610f0d9150853d8711610cc157610cb38183611bd6565b86610e37565b3461004f57600036600319011261004f576000546040516001600160a01b039091168152602090f35b3461004f57600036600319011261004f57610f55611d1d565b600080546001600160a01b0319811682556040519082906001600160a01b03167f8be0079c531659141344cd1fd0a4f28419497f9722a3daafe3b4186f6b6457e08284a3f35b3461004f57602036600319011261004f57600435600052600d602052602060ff604060002054166040519015158152f35b3461004f57602036600319011261004f57600435600052600d6020526060604060002060ff815416906002600182015491015490604051921515835260208301526040820152f35b3461004f57600036600319011261004f576020604051670de0b6b3a76400008152f35b3461004f57600036600319011261004f576020604051610bb88152f35b3461004f5760c036600319011261004f576044356001600160401b03811161004f57611084903690600401611c53565b606435906001600160401b03821161004f573660238301121561004f578160040135916110b083611bf7565b926110be6040519485611bd6565b80845260208401913660248360071b8301011161004f5760248101925b60248360071b8301018410611aa05785856084356001600160401b03811161004f5761110b903690600401611c53565b6001600160401b0360a4351161004f5736602360a43501121561004f5760a4356004013561113881611bf7565b906111466040519283611bd6565b80825260208201903660248260051b60a43501011161004f57602460a43501915b60248260051b60a43501018310611a6d5750505060005b81518110156104f3576111918185611d84565b5061119c8186611d84565b506111a78184611d84565b506111b28183611d84565b519060018060a01b03600154166040516331a9108f60e11b81526004356004820152602081602481855afa80156105dd576111ff91600091611a4e57506001600160a01b03163314611dcd565b6040516375d279b360e11b815260048035908201529060c082602481845afa9081156105dd5760008093600093611a00575b50610d045761124261034d84611e09565b60011981116108fd57600101855103610cc8576020604491604051928380926343569ffb60e01b825287600483015260243560248301525afa9081156105dd576000916119e1575b506001600160a01b031615610c61576112ab6112a583611e09565b85611d84565b516001830361194b575b6112fd604091600435600052600d60205282600020938351946112d786611b3f565b600260ff8254161591821588526001810154602089015201548587015261190b57611e65565b910151938482106108fd57610bb885830311610b52576001546040516310211ca160e21b8152600480359082015291906001600160a01b031661014083602481845afa9283156105dd5760009361188b575b50803b1561004f57600080916044604051809481936304b24e8560e01b835260043560048401528960248401525af180156105dd5761187c575b5090839160009160006101006040516113a181611b83565b8281528260208201528260408201528260608201528260808201528260a08201528260c08201528260e0820152015260005b8481106114f657505050146113f4575b50506113ef9150611d75565b61117e565b6001546001600160a01b0316803b1561004f5760008091604460405180948193635226dc9360e01b835260043560048401528a880360248401525af180156105dd576114e7575b506001546001600160a01b031693843b1561004f576000809560246040518098819363366cf14f60e11b835260043560048401525af19485156105dd576113ef956114d8575b50600435600052600d6020526000600260408220828155826001820155015560405191038152600435907fd1a83cf15e893baacb4994c8e0feb9cb86c3725254e5c55c6f17b3d19c56dc4760203392a486806113e3565b6114e190611b70565b89611481565b6114f090611b70565b8861143b565b60015493945091929091906001600160a01b03166115148284611e71565b516040519063618faeb560e11b82526004356004830152602482015261012081604481855afa9081156105dd576000916117e6575b50606081015161155b61065d8a611e35565b60011981116108fd576001611571910187611d84565b51036109f35761158361069484611e09565b516060820152608081015161159a61065d8a611e35565b60011981116108fd5760011960018201116108fd5760026115bc910187611d84565b51036109b9576115cb83611e09565b60011981116108fd5760016115e1910186611d84565b51608082015260a08101516115f861065d8a611e35565b60021981116108fd5760011960028201116108fd57600361161a910187611d84565b51036109815761162983611e09565b60021981116108fd57600261163f910186611d84565b5160a082015260c081015161165661065d8a611e35565b60031981116108fd5760011960038201116108fd576004611678910187611d84565b51036109495761168783611e09565b60031981116108fd57600361169d910186611d84565b5160c082015260e08101516116b461065d8a611e35565b60041981116108fd5760011960048201116108fd5760056116d6910187611d84565b5103610913576116e583611e09565b60041981116108fd5760046116fb910186611d84565b5160e082015261170b8385611e71565b51823b1561004f576000926101648492604051958693849263e9d903b160e01b845260043560048501526024840152865160448401526020870151606484015260408701516084840152606087015160a4840152608087015160c484015260a087015160e484015260c087015161010484015260e08701516101248401526101008701516101448401525af19182156105dd5760e0926117d7575b500151156117c2575b6117b890611d75565b90859392916113d3565b926117cf6117b891611d75565b9390506117af565b6117e090611b70565b8e6117a6565b9050610120813d61012011611874575b816118046101209383611bd6565b8101031261004f576101006040519161181c83611b83565b805183526020810151602084015260408101516040840152606081015160608401526080810151608084015260a081015160a084015260c081015160c084015260e081015160e084015201516101008201528e611549565b3d91506117f6565b61188590611b70565b8a611389565b909250610140903d61014011611903575b6118a68282611bd6565b61014081838101031261004f57818101601f8201121561004f57604051916118cd83611bba565b8290820161014083011161004f5781905b610140830182106118f357505050918b61134f565b81518152602091820191016118de565b3d915061189c565b600185528084860152600435600052600d602052836000208551151560ff8019835416911617815560208601516001820155600285870151910155611e65565b60028303611959575b6112b5565b60038303156112b55760048303156112b55760058303156112b55760068303156112b55760078303156119545760088303156112b557600983031561195457600a8303156119545760405162461bcd60e51b8152602060048201526018602482015277496e76616c6964206e756d626572206f6620626f6469657360401b6044820152606490fd5b6119fa915060203d602011610cc157610cb38183611bd6565b8961128a565b925050915060c0813d60c011611a46575b81611a1e60c09383611bd6565b8101031261004f57805191821515830361004f5760a06060830151920151929192918a611231565b3d9150611a11565b611a67915060203d602011610cc157610cb38183611bd6565b896102f9565b6001600160401b0383351161004f57602080602492611a933685883560a4350101611cbf565b8152019301929050611167565b36601f8501121561004f57604051611ab781611b9f565b806080860136811161004f5786915b818310611ae1575050508152608093909301926020016110db565b6020604091611af03686611c0e565b815201920191611ac6565b3461004f57602036600319011261004f576004356001600160a01b0381169081900361004f57611b29611d1d565b600180546001600160a01b031916919091179055005b606081019081106001600160401b03821117611b5a57604052565b634e487b7160e01b600052604160045260246000fd5b6001600160401b038111611b5a57604052565b61012081019081106001600160401b03821117611b5a57604052565b604081019081106001600160401b03821117611b5a57604052565b61014081019081106001600160401b03821117611b5a57604052565b90601f801991011681019081106001600160401b03821117611b5a57604052565b6001600160401b038111611b5a5760051b60200190565b9080601f8301121561004f5760405191611c2783611b9f565b82906040810192831161004f57905b828210611c435750505090565b8135815260209182019101611c36565b81601f8201121561004f57803590611c6a82611bf7565b92604092611c7a84519586611bd6565b808552602091828087019260061b8501019381851161004f578301915b848310611ca75750505050505090565b838691611cb48486611c0e565b815201920191611c97565b81601f8201121561004f57803591611cd683611bf7565b92611ce46040519485611bd6565b808452602092838086019260051b82010192831161004f578301905b828210611d0e575050505090565b81358152908301908301611d00565b6000546001600160a01b03163303611d3157565b606460405162461bcd60e51b815260206004820152602060248201527f4f776e61626c653a2063616c6c6572206973206e6f7420746865206f776e65726044820152fd5b60001981146108fd5760010190565b8051821015611d985760209160051b010190565b634e487b7160e01b600052603260045260246000fd5b9081602091031261004f57516001600160a01b038116810361004f5790565b15611dd457565b60405162461bcd60e51b815260206004820152600d60248201526c2737ba103a34329037bbb732b960991b6044820152606490fd5b8060001904600511811515166108fd5760050290565b8060001904600211811515166108fd5760011b90565b7f333333333333333333333333333333333333333333333333333333333333333381116001166108fd5760050290565b811981116108fd570190565b90600a811015611d985760051b019056fea264697066735822122028e12afef3b3843462da7a362d0d45651b07e3e96040c09ece83243b456c042864736f6c634300080f0033",
  "linkReferences": {},
  "deployedLinkReferences": {}
}