{
  "_format": "hh-sol-artifact-1",
  "contractName": "Metadata",
  "sourceName": "contracts/Metadata.sol",
  "abi": [
    {
      "inputs": [],
      "stateMutability": "nonpayable",
      "type": "constructor"
    },
    {
      "anonymous": false,
      "inputs": [
        {
          "indexed": true,
          "internalType": "address",
          "name": "previousOwner",
          "type": "address"
        },
        {
          "indexed": true,
          "internalType": "address",
          "name": "newOwner",
          "type": "address"
        }
      ],
      "name": "OwnershipTransferred",
      "type": "event"
    },
    {
      "inputs": [],
      "name": "baseURI",
      "outputs": [
        {
          "internalType": "string",
          "name": "",
          "type": "string"
        }
      ],
      "stateMutability": "view",
      "type": "function"
    },
    {
      "inputs": [
        {
          "internalType": "uint256",
          "name": "tokenId",
          "type": "uint256"
        }
      ],
      "name": "getMetadata",
      "outputs": [
        {
          "internalType": "string",
          "name": "",
          "type": "string"
        }
      ],
      "stateMutability": "view",
      "type": "function"
    },
    {
      "inputs": [],
      "name": "owner",
      "outputs": [
        {
          "internalType": "address",
          "name": "",
          "type": "address"
        }
      ],
      "stateMutability": "view",
      "type": "function"
    },
    {
      "inputs": [],
      "name": "renounceOwnership",
      "outputs": [],
      "stateMutability": "nonpayable",
      "type": "function"
    },
    {
      "inputs": [
        {
          "internalType": "string",
          "name": "baseURI_",
          "type": "string"
        }
      ],
      "name": "setbaseURI",
      "outputs": [],
      "stateMutability": "nonpayable",
      "type": "function"
    },
    {
      "inputs": [
        {
          "internalType": "address",
          "name": "newOwner",
          "type": "address"
        }
      ],
      "name": "transferOwnership",
      "outputs": [],
      "stateMutability": "nonpayable",
      "type": "function"
    }
  ],
  "bytecode": "0x608080604052346100ec5760008054336001600160a01b0319821681178355906001600160a01b03167f8be0079c531659141344cd1fd0a4f28419497f9722a3daafe3b4186f6b6457e08385a36001908154908282811c921680156100e2575b60208310146100ce57601f82116100a2575b50507f68747470733a2f2f00000000000000000000000000000000000000000000001090556107fc90816100f28239f35b82815282601f60208320930160051c8301925b8381106100c3575050610071565b8281550183906100b5565b634e487b7160e01b81526022600452602490fd5b91607f169161005f565b600080fdfe6040608081526004908136101561001557600080fd5b600091823560e01c80634a44f379146104ba5780636c0360eb146103fb578063715018a61461039e5780638da5cb5b14610372578063a574cea41461012e5763f2fde38b1461006357600080fd5b3461012a57602036600319011261012a576001600160a01b03813581811692908390036101265761009261074e565b82156100d4575083546001600160a01b0319811683178555925192167f8be0079c531659141344cd1fd0a4f28419497f9722a3daafe3b4186f6b6457e08484a3f35b608490602085519162461bcd60e51b8352820152602660248201527f4f776e61626c653a206e6577206f776e657220697320746865207a65726f206160448201526564647265737360d01b6064820152fd5b8480fd5b8280fd5b50903461012a576020918260031936011261036e578035809385927a184f03e93ff9f4daa797ed6e38ed64bf6a1f01000000000000000080841015610361575b506d04ee2d6d415b85acef810000000080871015610353575b50662386f26fc1000080871015610344575b506305f5e10080871015610335575b5061271080871015610326575b50506064851015610316575b600a8095101561030c575b600194858401928660216101f76101e287610697565b966101ef8a51988961065f565b808852610697565b8686019790601f1901368937860101905b6102dd575b50505083519486815491610220836106b3565b928181169081156102be5750600114610278575b610274888861026a6005838e8061024f8e8e519384916106ed565b0164173539b7b760d91b815203601a1981018552018361065f565b5191829182610722565b0390f35b81819293949950526000805160206107a78339815191525b8383106102ab5750505084019094019383828261024f610234565b80548884018a0152918801918101610290565b60ff1916858a015250505080151502850101945083828261024f610234565b600019019082906f181899199a1a9b1b9c1cb0b131b232b360811b8282061a835304908782610208575061020d565b91600101916101cc565b91936064600291049401916101c1565b909193950494019138806101b5565b600891949604950192386101a8565b60109194960495019238610199565b829194960495019238610187565b830495508493503861016e565b8380fd5b50503461039a578160031936011261039a57905490516001600160a01b039091168152602090f35b5080fd5b50503461039a578160031936011261039a576103b861074e565b81546001600160a01b03198116835590519082906001600160a01b03167f8be0079c531659141344cd1fd0a4f28419497f9722a3daafe3b4186f6b6457e08284a3f35b50503461039a578160031936011261039a5780519082600180549161041f836106b3565b808652928281169081156104925750600114610448575b50505061026a8261027494038361065f565b94508085526000805160206107a78339815191525b82861061047a5750505061026a8260206102749582010194610436565b8054602087870181019190915290950194810161045d565b61027497508693506020925061026a94915060ff191682840152151560051b82010194610436565b5091903461039a5760208060031936011261012a5783359367ffffffffffffffff90818611610126573660238701121561012657858101356104fb81610697565b966105088651988961065f565b818852366024838301011161065b578187926024879301838b01378801015261052f61074e565b8551918211610648575060019161054683546106b3565b601f81116105f6575b5080601f831160011461058a57508495829394959261057f575b5050600019600383901b1c191690821b17905551f35b015190503880610569565b838652601f198316966000805160206107a7833981519152929187905b8982106105df5750508385969798106105c6575b505050811b01905551f35b015160001960f88460031b161c191690553880806105bb565b8087859682949686015181550195019301906105a7565b8386526000805160206107a7833981519152601f840160051c81019183851061063e575b601f0160051c019084905b82811061063357505061054f565b878155018490610625565b909150819061061a565b634e487b7160e01b855260419052602484fd5b8680fd5b90601f8019910116810190811067ffffffffffffffff82111761068157604052565b634e487b7160e01b600052604160045260246000fd5b67ffffffffffffffff811161068157601f01601f191660200190565b90600182811c921680156106e3575b60208310146106cd57565b634e487b7160e01b600052602260045260246000fd5b91607f16916106c2565b918091926000905b82821061070d575011610706575050565b6000910152565b915080602091830151818601520182916106f5565b6040916020825261074281518092816020860152602086860191016106ed565b601f01601f1916010190565b6000546001600160a01b0316330361076257565b606460405162461bcd60e51b815260206004820152602060248201527f4f776e61626c653a2063616c6c6572206973206e6f7420746865206f776e65726044820152fdfeb10e2d527612073b26eecdfd717e6a320cf44b4afac2b0732d9fcbe2b7fa0cf6a264697066735822122080132ef8dacbd6185b67d4a0e6166510d684576599c2e7d51723f7d03bdf4a8764736f6c634300080f0033",
  "linkReferences": {},
  "deployedLinkReferences": {}
}