{
  "_format": "hh-sol-artifact-1",
  "contractName": "Solver",
  "sourceName": "contracts/Solver.sol",
  "abi": [
    {
      "inputs": [
        {
          "internalType": "address payable",
          "name": "problems_",
          "type": "address"
        }
      ],
      "stateMutability": "nonpayable",
      "type": "constructor"
    },
    {
      "anonymous": false,
      "inputs": [
        {
          "indexed": true,
          "internalType": "address",
          "name": "previousOwner",
          "type": "address"
        },
        {
          "indexed": true,
          "internalType": "address",
          "name": "newOwner",
          "type": "address"
        }
      ],
      "name": "OwnershipTransferred",
      "type": "event"
    },
    {
      "anonymous": false,
      "inputs": [
        {
          "indexed": true,
          "internalType": "address",
          "name": "solver",
          "type": "address"
        },
        {
          "indexed": true,
          "internalType": "uint256",
          "name": "problemId",
          "type": "uint256"
        },
        {
          "indexed": false,
          "internalType": "uint256",
          "name": "ticksInThisMatch",
          "type": "uint256"
        }
      ],
      "name": "Solved",
      "type": "event"
    },
    {
      "stateMutability": "nonpayable",
      "type": "fallback"
    },
    {
      "inputs": [
        {
          "internalType": "uint256",
          "name": "problemId",
          "type": "uint256"
        },
        {
          "internalType": "uint256",
          "name": "tickCount",
          "type": "uint256"
        },
        {
          "internalType": "uint256[2][]",
          "name": "a",
          "type": "uint256[2][]"
        },
        {
          "internalType": "uint256[2][2][]",
          "name": "b",
          "type": "uint256[2][2][]"
        },
        {
          "internalType": "uint256[2][]",
          "name": "c",
          "type": "uint256[2][]"
        },
        {
          "internalType": "uint256[][]",
          "name": "input",
          "type": "uint256[][]"
        }
      ],
      "name": "batchSolve",
      "outputs": [],
      "stateMutability": "nonpayable",
      "type": "function"
    },
    {
      "inputs": [
        {
          "internalType": "uint256",
          "name": "",
          "type": "uint256"
        }
      ],
      "name": "bodyBoost",
      "outputs": [
        {
          "internalType": "uint256",
          "name": "",
          "type": "uint256"
        }
      ],
      "stateMutability": "view",
      "type": "function"
    },
    {
      "inputs": [],
      "name": "decimals",
      "outputs": [
        {
          "internalType": "uint256",
          "name": "",
          "type": "uint256"
        }
      ],
      "stateMutability": "view",
      "type": "function"
    },
    {
      "inputs": [
        {
          "internalType": "uint256",
          "name": "problemId",
          "type": "uint256"
        }
      ],
      "name": "deleteMatch",
      "outputs": [],
      "stateMutability": "nonpayable",
      "type": "function"
    },
    {
      "inputs": [
        {
          "internalType": "uint256",
          "name": "ticks",
          "type": "uint256"
        }
      ],
      "name": "getSpeedBoost",
      "outputs": [
        {
          "internalType": "uint256",
          "name": "",
          "type": "uint256"
        }
      ],
      "stateMutability": "pure",
      "type": "function"
    },
    {
      "inputs": [
        {
          "internalType": "uint256",
          "name": "problemId",
          "type": "uint256"
        }
      ],
      "name": "inProgress",
      "outputs": [
        {
          "internalType": "bool",
          "name": "",
          "type": "bool"
        }
      ],
      "stateMutability": "view",
      "type": "function"
    },
    {
      "inputs": [
        {
          "internalType": "uint256",
          "name": "",
          "type": "uint256"
        }
      ],
      "name": "matches",
      "outputs": [
        {
          "internalType": "bool",
          "name": "inProgress",
          "type": "bool"
        },
        {
          "internalType": "uint256",
          "name": "problemId",
          "type": "uint256"
        },
        {
          "internalType": "uint256",
          "name": "startingTick",
          "type": "uint256"
        }
      ],
      "stateMutability": "view",
      "type": "function"
    },
    {
      "inputs": [],
      "name": "maxTick",
      "outputs": [
        {
          "internalType": "uint256",
          "name": "",
          "type": "uint256"
        }
      ],
      "stateMutability": "view",
      "type": "function"
    },
    {
      "inputs": [],
      "name": "owner",
      "outputs": [
        {
          "internalType": "address",
          "name": "",
          "type": "address"
        }
      ],
      "stateMutability": "view",
      "type": "function"
    },
    {
      "inputs": [],
      "name": "problems",
      "outputs": [
        {
          "internalType": "address payable",
          "name": "",
          "type": "address"
        }
      ],
      "stateMutability": "view",
      "type": "function"
    },
    {
      "inputs": [],
      "name": "renounceOwnership",
      "outputs": [],
      "stateMutability": "nonpayable",
      "type": "function"
    },
    {
      "inputs": [
        {
          "internalType": "uint256",
          "name": "problemId",
          "type": "uint256"
        },
        {
          "internalType": "uint256",
          "name": "tickCount",
          "type": "uint256"
        },
        {
          "internalType": "uint256[2]",
          "name": "a",
          "type": "uint256[2]"
        },
        {
          "internalType": "uint256[2][2]",
          "name": "b",
          "type": "uint256[2][2]"
        },
        {
          "internalType": "uint256[2]",
          "name": "c",
          "type": "uint256[2]"
        },
        {
          "internalType": "uint256[]",
          "name": "input",
          "type": "uint256[]"
        }
      ],
      "name": "solveProblem",
      "outputs": [],
      "stateMutability": "nonpayable",
      "type": "function"
    },
    {
      "inputs": [
        {
          "internalType": "address",
          "name": "newOwner",
          "type": "address"
        }
      ],
      "name": "transferOwnership",
      "outputs": [],
      "stateMutability": "nonpayable",
      "type": "function"
    },
    {
      "inputs": [
        {
          "internalType": "address payable",
          "name": "problems_",
          "type": "address"
        }
      ],
      "name": "updateProblemsAddress",
      "outputs": [],
      "stateMutability": "nonpayable",
      "type": "function"
    }
  ],
  "bytecode": "0x60803461014c57601f62001f6838819003918201601f1916830192916001600160401b03919082851184861017610151578084926040968752833960209384918101031261014c57516001600160a01b0392838216929183900361014c5760008054336001600160a01b031980831682178455885197909592167f8be0079c531659141344cd1fd0a4f28419497f9722a3daafe3b4186f6b6457e08489a36101608601908111868210176101385786929192528185528181860152818686015260019485606082015260026080820152600460a0820152600860c0820152601060e0820152816101008201528661012082015260806101408201529085600293925b600b8410610121575092505050541617905551611e009081620001688239f35b805160ff1685559381019392019186908201610101565b634e487b7160e01b82526041600452602482fd5b600080fd5b634e487b7160e01b600052604160045260246000fdfe60806040526004361015610054575b3461004f5760405162461bcd60e51b81526020600482015260146024820152733737903330b6363130b1b590333ab731ba34b7b760611b6044820152606490fd5b600080fd5b60003560e01c8063087c32e6146119f5578063130e5a8714610fc65780631b375b5414610fa05780631db3b6dd14610f83578063313ce56714610f605780634768d4ef14610f185780634e26b0cd14610ee7578063715018a614610e885780638da5cb5b14610e5f5780639512ada214610d85578063ab85f1f414610212578063cd190a92146101e6578063f2fde38b1461011c5763f9df988f0361000e573461004f57600036600319011261004f576001546040516001600160a01b039091168152602090f35b3461004f57602036600319011261004f576004356001600160a01b038181169182900361004f5761014b611c17565b811561019257600080546001600160a01b031981168417825560405191939192167f8be0079c531659141344cd1fd0a4f28419497f9722a3daafe3b4186f6b6457e08484a3f35b60405162461bcd60e51b815260206004820152602660248201527f4f776e61626c653a206e6577206f776e657220697320746865207a65726f206160448201526564647265737360d01b6064820152608490fd5b3461004f57602036600319011261004f57600435600b81101561004f5760209060020154604051908152f35b3461004f5761016036600319011261004f57366063121561004f5760405161023981611a99565b3660841161004f576044905b60848210610d75573660a3121561004f5760405161026281611a99565b366101041161004f576084905b6101048210610d5b5736610123121561004f5760405161028e81611a99565b366101441161004f57610104905b6101448210610d4b57610144356001600160401b03811161004f576102c5903690600401611bb9565b6001546040516331a9108f60e11b815260048035908201526001600160a01b039091169190602081602481865afa80156105c25761031691600091610d2c575b506001600160a01b03163314611cc7565b6040516375d279b360e11b8152600480359082015260c081602481865afa9283156105c25760008092600095610cde575b50610ca85761035d61035883611d03565b611d19565b835103610c6c576020604491604051928380926343569ffb60e01b825286600483015260243560248301525afa9081156105c257600091610c3d575b506001600160a01b031615610c055760018103610b6f575b600435600052600d60205260406103fd81600020948251956103d287611a39565b600260ff825416159182158952600181015460208a0152015484880152610b2f575b60243590611d5f565b930151918284106108a157610bb883850311610af6576001546040516310211ca160e21b8152600480359082015291906001600160a01b031661014083602481845afa9283156105c257600093610a76575b50803b1561004f57600080916044604051809481936304b24e8560e01b835260043560048401528b60248401525af180156105c257610a67575b50600091600061010060405161049e81611a7d565b8281528260208201528260408201528260608201528260808201528260a08201528260c08201528260e0820152015260005b8481106105dd57505050146104e2575b005b6001546001600160a01b0316803b1561004f5760008091602460405180948193630825ea8d60e01b835260043560048401525af180156105c2576105ce575b506001546001600160a01b0316803b1561004f5760008091602460405180948193630674876160e11b835260043560048401525af180156105c2576105b3575b50600435600052600d6020526000600260408220828155826001820155015560405191038152600435907f9bd92e07a5c7e094cab75dc30f65dcb13e24c81dd85af637a66bc51f3612097560203392a3005b6105bc90611a6a565b82610561565b6040513d6000823e3d90fd5b6105d790611a6a565b82610521565b6001546001600160a01b03166105f38284611d6b565b516040519063618faeb560e11b82526004356004830152602482015261012081604481855afa9081156105c2576000916109d1575b50606081015161065261064c61063d8a611d2f565b61064687611d03565b90611d5f565b87611c7e565b51036109975761066a61066484611d03565b86611c7e565b516060820152608081015161068a61068189611d2f565b61064686611d03565b60011981116108a15760016106a0910187611c7e565b510361095d576106af83611d03565b60011981116108a15760016106c5910186611c7e565b51608082015260a08101516106dc61068189611d2f565b60021981116108a15760026106f2910187611c7e565b51036109255761070183611d03565b60021981116108a1576002610717910186611c7e565b5160a082015260c081015161072e61068189611d2f565b60031981116108a1576003610744910187611c7e565b51036108ed5761075383611d03565b60031981116108a1576003610769910186611c7e565b5160c082015260e081015161078061068189611d2f565b60041981116108a1576004610796910187611c7e565b51036108b7576107a583611d03565b60041981116108a15760046107bb910186611c7e565b5160e08201526107cb8385611d6b565b51823b1561004f576000926101648492604051958693849263e9d903b160e01b845260043560048501526024840152865160448401526020870151606484015260408701516084840152606087015160a4840152608087015160c484015260a087015160e484015260c087015161010484015260e08701516101248401526101008701516101448401525af19182156105c25760e092610892575b5001511561087d575b61087890611c6f565b6104d0565b9261088a61087891611c6f565b93905061086f565b61089b90611a6a565b89610866565b634e487b7160e01b600052601160045260246000fd5b60405162461bcd60e51b815260206004820152600e60248201526d496e76616c69642072616469757360901b6044820152606490fd5b60405162461bcd60e51b815260206004820152601060248201526f496e76616c696420766563746f72207960801b6044820152606490fd5b60405162461bcd60e51b815260206004820152601060248201526f092dcecc2d8d2c840eccac6e8dee440f60831b6044820152606490fd5b60405162461bcd60e51b8152602060048201526012602482015271496e76616c696420706f736974696f6e207960701b6044820152606490fd5b60405162461bcd60e51b8152602060048201526012602482015271092dcecc2d8d2c840e0dee6d2e8d2dedc40f60731b6044820152606490fd5b9050610120813d61012011610a5f575b816109ef6101209383611ad0565b8101031261004f5761010060405191610a0783611a7d565b805183526020810151602084015260408101516040840152606081015160608401526080810151608084015260a081015160a084015260c081015160c084015260e081015160e0840152015161010082015289610628565b3d91506109e1565b610a7090611a6a565b85610489565b909250610140903d61014011610aee575b610a918282611ad0565b61014081838101031261004f57818101601f8201121561004f5760405191610ab883611ab4565b8290820161014083011161004f5781905b61014083018210610ade57505050918661044f565b8151815260209182019101610ac9565b3d9150610a87565b60405162461bcd60e51b815260206004820152601160248201527013585e081d1a58dac8195e18d959591959607a1b6044820152606490fd5b600186528083870152600435600052600d602052826000208651151560ff80198354169116178155602087015160018201556002848801519101556103f4565b60028103610b7d575b6103b1565b60038103156103b15760048103156103b15760058103156103b15760068103156103b1576007810315610b785760088103156103b1576009810315610b7857600a810315610b785760405162461bcd60e51b8152602060048201526018602482015277496e76616c6964206e756d626572206f6620626f6469657360401b6044820152606490fd5b60405162461bcd60e51b815260206004820152601060248201526f24b73b30b634b2103b32b934b334b2b960811b6044820152606490fd5b610c5f915060203d602011610c65575b610c578183611ad0565b810190611ca8565b84610399565b503d610c4d565b60405162461bcd60e51b8152602060048201526014602482015273092dcecc2d8d2c840d2dce0eae840d8cadccee8d60631b6044820152606490fd5b60405162461bcd60e51b815260206004820152600e60248201526d105b1c9958591e481cdbdb1d995960921b6044820152606490fd5b945050905060c0833d60c011610d24575b81610cfc60c09383611ad0565b8101031261004f57825190811515820361004f5760a060608501519401519193919385610347565b3d9150610cef565b610d45915060203d602011610c6557610c578183611ad0565b84610305565b813581526020918201910161029c565b6020604091610d6a3685611b08565b81520191019061026f565b8135815260209182019101610245565b3461004f57602036600319011261004f576001546040516331a9108f60e11b815260048035908201819052916001600160a01b039081169190602082602481865afa80156105c257610de292600091610e41575b50163314611cc7565b803b1561004f5760008091602460405180948193630825ea8d60e01b83528760048401525af180156105c257610e32575b506000908152600d602052604081208181556001810182905560020155005b610e3b90611a6a565b81610e13565b610e59915060203d8111610c6557610c578183611ad0565b85610dd9565b3461004f57600036600319011261004f576000546040516001600160a01b039091168152602090f35b3461004f57600036600319011261004f57610ea1611c17565b600080546001600160a01b0319811682556040519082906001600160a01b03167f8be0079c531659141344cd1fd0a4f28419497f9722a3daafe3b4186f6b6457e08284a3f35b3461004f57602036600319011261004f57600435600052600d602052602060ff604060002054166040519015158152f35b3461004f57602036600319011261004f57600435600052600d6020526060604060002060ff815416906002600182015491015490604051921515835260208301526040820152f35b3461004f57600036600319011261004f576020604051670de0b6b3a76400008152f35b3461004f57600036600319011261004f576020604051610bb88152f35b3461004f57602036600319011261004f576020610fbe600435611d7c565b604051908152f35b3461004f5760c036600319011261004f576044356001600160401b03811161004f57610ff6903690600401611b4d565b606435906001600160401b03821161004f573660238301121561004f5781600401359161102283611af1565b926110306040519485611ad0565b80845260208401913660248360071b8301011161004f5760248101925b60248360071b83010184106119995785856084356001600160401b03811161004f5761107d903690600401611b4d565b6001600160401b0360a4351161004f5736602360a43501121561004f5760a435600401356110aa81611af1565b906110b86040519283611ad0565b80825260208201903660248260051b60a43501011161004f57602460a43501915b60248260051b60a435010183106119665750505060005b81518110156104e0576111038185611c7e565b5061110e8186611c7e565b506111198184611c7e565b506111248183611c7e565b519060018060a01b03600154166040516331a9108f60e11b81526004356004820152602081602481855afa80156105c2576111719160009161194757506001600160a01b03163314611cc7565b6040516375d279b360e11b8152600480359082015260c081602481855afa9182156105c257600080926000946118f9575b50610ca8576111b361035883611d03565b855103610c6c576020604491604051928380926343569ffb60e01b825286600483015260243560248301525afa9081156105c2576000916118da575b506001600160a01b031615610c055760018103611844575b600435600052600d6020526040611252816000209382519461122886611a39565b600260ff825416159182158852600181015460208901520154848701526118045760243590611d5f565b920151938483106108a157610bb885840311610af6576001546040516310211ca160e21b8152600480359082015291906001600160a01b031661014083602481845afa9283156105c257600093611784575b50803b1561004f57600080916044604051809481936304b24e8560e01b835260043560048401528a60248401525af180156105c257611775575b5060009160006101006040516112f381611a7d565b8281528260208201528260408201528260608201528260808201528260a08201528260c08201528260e0820152015260005b84811061143e5750505014611345575b506113409150611c6f565b6110f0565b6001546001600160a01b0316803b1561004f5760008091602460405180948193630825ea8d60e01b835260043560048401525af180156105c25761142f575b506001546001600160a01b031692833b1561004f5760008094602460405180978193630674876160e11b835260043560048401525af19384156105c25761134094611420575b50600435600052600d6020526000600260408220828155826001820155015560405191038152600435907f9bd92e07a5c7e094cab75dc30f65dcb13e24c81dd85af637a66bc51f3612097560203392a386611335565b61142990611a6a565b886113ca565b61143890611a6a565b87611384565b6001546001600160a01b03166114548284611d6b565b516040519063618faeb560e11b82526004356004830152602482015261012081604481855afa9081156105c2576000916116df575b50606081015161149e61064c61063d8a611d2f565b5103610997576114b061066484611d03565b51606082015260808101516114c761068189611d2f565b60011981116108a15760016114dd910187611c7e565b510361095d576114ec83611d03565b60011981116108a1576001611502910186611c7e565b51608082015260a081015161151961068189611d2f565b60021981116108a157600261152f910187611c7e565b51036109255761153e83611d03565b60021981116108a1576002611554910186611c7e565b5160a082015260c081015161156b61068189611d2f565b60031981116108a1576003611581910187611c7e565b51036108ed5761159083611d03565b60031981116108a15760036115a6910186611c7e565b5160c082015260e08101516115bd61068189611d2f565b60041991908281116108a15760046115d6910188611c7e565b51036108b7576115e584611d03565b9081116108a15760046115f9910186611c7e565b5160e08201526116098385611d6b565b51823b1561004f576000926101648492604051958693849263e9d903b160e01b845260043560048501526024840152865160448401526020870151606484015260408701516084840152606087015160a4840152608087015160c484015260a087015160e484015260c087015161010484015260e08701516101248401526101008701516101448401525af19182156105c25760e0926116d0575b500151156116bb575b6116b690611c6f565b611325565b926116c86116b691611c6f565b9390506116ad565b6116d990611a6a565b8e6116a4565b9050610120813d6101201161176d575b816116fd6101209383611ad0565b8101031261004f576101006040519161171583611a7d565b805183526020810151602084015260408101516040840152606081015160608401526080810151608084015260a081015160a084015260c081015160c084015260e081015160e084015201516101008201528e611489565b3d91506116ef565b61177e90611a6a565b8a6112de565b909250610140903d610140116117fc575b61179f8282611ad0565b61014081838101031261004f57818101601f8201121561004f57604051916117c683611ab4565b8290820161014083011161004f5781905b610140830182106117ec57505050918b6112a4565b81518152602091820191016117d7565b3d9150611795565b600185528083860152600435600052600d602052826000208551151560ff80198354169116178155602086015160018201556002848701519101556103f4565b60028103611852575b611207565b600381031561120757600481031561120757600581031561120757600681031561120757600781031561184d57600881031561120757600981031561184d57600a81031561184d5760405162461bcd60e51b8152602060048201526018602482015277496e76616c6964206e756d626572206f6620626f6469657360401b6044820152606490fd5b6118f3915060203d602011610c6557610c578183611ad0565b896111ef565b935050905060c0823d60c01161193f575b8161191760c09383611ad0565b8101031261004f57815190811515820361004f5760a06060840151930151919291928a6111a2565b3d915061190a565b611960915060203d602011610c6557610c578183611ad0565b89610305565b6001600160401b0383351161004f5760208060249261198c3685883560a4350101611bb9565b81520193019290506110d9565b36601f8501121561004f576040516119b081611a99565b8036608087011161004f5785905b6080870182106119db57505081526080939093019260200161104d565b60206040916119ea3685611b08565b8152019101906119be565b3461004f57602036600319011261004f576004356001600160a01b0381169081900361004f57611a23611c17565b600180546001600160a01b031916919091179055005b606081019081106001600160401b03821117611a5457604052565b634e487b7160e01b600052604160045260246000fd5b6001600160401b038111611a5457604052565b61012081019081106001600160401b03821117611a5457604052565b604081019081106001600160401b03821117611a5457604052565b61014081019081106001600160401b03821117611a5457604052565b90601f801991011681019081106001600160401b03821117611a5457604052565b6001600160401b038111611a545760051b60200190565b9080601f8301121561004f5760405191611b2183611a99565b82906040810192831161004f57905b828210611b3d5750505090565b8135815260209182019101611b30565b81601f8201121561004f57803590611b6482611af1565b92604092611b7484519586611ad0565b808552602091828087019260061b8501019381851161004f578301915b848310611ba15750505050505090565b838691611bae8486611b08565b815201920191611b91565b81601f8201121561004f57803591611bd083611af1565b92611bde6040519485611ad0565b808452602092838086019260051b82010192831161004f578301905b828210611c08575050505090565b81358152908301908301611bfa565b6000546001600160a01b03163303611c2b57565b606460405162461bcd60e51b815260206004820152602060248201527f4f776e61626c653a2063616c6c6572206973206e6f7420746865206f776e65726044820152fd5b60001981146108a15760010190565b8051821015611c925760209160051b010190565b634e487b7160e01b600052603260045260246000fd5b9081602091031261004f57516001600160a01b038116810361004f5790565b15611cce57565b60405162461bcd60e51b815260206004820152600d60248201526c2737ba103a34329037bbb732b960991b6044820152606490fd5b8060001904600511811515166108a15760050290565b8060001904600211811515166108a15760011b90565b7f333333333333333333333333333333333333333333333333333333333333333381116001166108a15760050290565b811981116108a1570190565b90600a811015611c925760051b0190565b6101f48111611d8b5750600690565b6103e88111611d9a5750600590565b6105dc8111611da95750600490565b6107d08111611db85750600390565b6109c410611dc557600290565b60019056fea26469706673582212207cc073c3c3329a11083b23392ded7f2e86d5e0ad87e09ce6fe685ebece946cc664736f6c634300080f0033",
  "linkReferences": {},
  "deployedLinkReferences": {}
}