{
  "_format": "hh-sol-artifact-1",
  "contractName": "Problems",
  "sourceName": "contracts/Problems.sol",
  "abi": [
    {
      "inputs": [
        {
          "internalType": "address",
          "name": "metadata_",
          "type": "address"
        },
        {
          "internalType": "address[]",
          "name": "verifiers_",
          "type": "address[]"
        },
        {
          "internalType": "uint256[]",
          "name": "verifiersTicks",
          "type": "uint256[]"
        },
        {
          "internalType": "uint256[]",
          "name": "verifiersBodies",
          "type": "uint256[]"
        }
      ],
      "stateMutability": "nonpayable",
      "type": "constructor"
    },
    {
      "anonymous": false,
      "inputs": [
        {
          "indexed": true,
          "internalType": "address",
          "name": "owner",
          "type": "address"
        },
        {
          "indexed": true,
          "internalType": "address",
          "name": "approved",
          "type": "address"
        },
        {
          "indexed": true,
          "internalType": "uint256",
          "name": "tokenId",
          "type": "uint256"
        }
      ],
      "name": "Approval",
      "type": "event"
    },
    {
      "anonymous": false,
      "inputs": [
        {
          "indexed": true,
          "internalType": "address",
          "name": "owner",
          "type": "address"
        },
        {
          "indexed": true,
          "internalType": "address",
          "name": "operator",
          "type": "address"
        },
        {
          "indexed": false,
          "internalType": "bool",
          "name": "approved",
          "type": "bool"
        }
      ],
      "name": "ApprovalForAll",
      "type": "event"
    },
    {
      "anonymous": false,
      "inputs": [
        {
          "indexed": true,
          "internalType": "address",
          "name": "previousOwner",
          "type": "address"
        },
        {
          "indexed": true,
          "internalType": "address",
          "name": "newOwner",
          "type": "address"
        }
      ],
      "name": "OwnershipTransferred",
      "type": "event"
    },
    {
      "anonymous": false,
      "inputs": [
        {
          "indexed": true,
          "internalType": "address",
          "name": "from",
          "type": "address"
        },
        {
          "indexed": true,
          "internalType": "address",
          "name": "to",
          "type": "address"
        },
        {
          "indexed": true,
          "internalType": "uint256",
          "name": "tokenId",
          "type": "uint256"
        }
      ],
      "name": "Transfer",
      "type": "event"
    },
    {
      "anonymous": false,
      "inputs": [
        {
          "indexed": false,
          "internalType": "uint256",
          "name": "problemId",
          "type": "uint256"
        },
        {
          "indexed": false,
          "internalType": "uint256",
          "name": "tick",
          "type": "uint256"
        },
        {
          "indexed": false,
          "internalType": "uint256",
          "name": "px",
          "type": "uint256"
        },
        {
          "indexed": false,
          "internalType": "uint256",
          "name": "py",
          "type": "uint256"
        },
        {
          "indexed": false,
          "internalType": "uint256",
          "name": "radius",
          "type": "uint256"
        },
        {
          "indexed": false,
          "internalType": "bytes32",
          "name": "seed",
          "type": "bytes32"
        }
      ],
      "name": "bodyAdded",
      "type": "event"
    },
    {
      "anonymous": false,
      "inputs": [
        {
          "indexed": false,
          "internalType": "uint256",
          "name": "problemId",
          "type": "uint256"
        },
        {
          "indexed": false,
          "internalType": "uint256",
          "name": "tick",
          "type": "uint256"
        },
        {
          "indexed": false,
          "internalType": "uint256",
          "name": "bodyId",
          "type": "uint256"
        },
        {
          "indexed": false,
          "internalType": "bytes32",
          "name": "seed",
          "type": "bytes32"
        }
      ],
      "name": "bodyRemoved",
      "type": "event"
    },
    {
      "inputs": [
        {
          "internalType": "uint256",
          "name": "problemId",
          "type": "uint256"
        },
        {
          "internalType": "uint256",
          "name": "bodyId",
          "type": "uint256"
        }
      ],
      "name": "addBody",
      "outputs": [],
      "stateMutability": "nonpayable",
      "type": "function"
    },
    {
      "inputs": [
        {
          "internalType": "address",
          "name": "to",
          "type": "address"
        },
        {
          "internalType": "uint256",
          "name": "tokenId",
          "type": "uint256"
        }
      ],
      "name": "approve",
      "outputs": [],
      "stateMutability": "nonpayable",
      "type": "function"
    },
    {
      "inputs": [
        {
          "internalType": "address",
          "name": "owner",
          "type": "address"
        }
      ],
      "name": "balanceOf",
      "outputs": [
        {
          "internalType": "uint256",
          "name": "",
          "type": "uint256"
        }
      ],
      "stateMutability": "view",
      "type": "function"
    },
    {
      "inputs": [],
      "name": "bodies",
      "outputs": [
        {
          "internalType": "address",
          "name": "",
          "type": "address"
        }
      ],
      "stateMutability": "view",
      "type": "function"
    },
    {
      "inputs": [
        {
          "internalType": "uint256",
          "name": "tokenId",
          "type": "uint256"
        }
      ],
      "name": "generateSeed",
      "outputs": [
        {
          "internalType": "bytes32",
          "name": "",
          "type": "bytes32"
        }
      ],
      "stateMutability": "view",
      "type": "function"
    },
    {
      "inputs": [
        {
          "internalType": "uint256",
          "name": "tokenId",
          "type": "uint256"
        }
      ],
      "name": "getApproved",
      "outputs": [
        {
          "internalType": "address",
          "name": "",
          "type": "address"
        }
      ],
      "stateMutability": "view",
      "type": "function"
    },
    {
      "inputs": [
        {
          "internalType": "uint256",
          "name": "problemId",
          "type": "uint256"
        },
        {
          "internalType": "uint256",
          "name": "bodyId",
          "type": "uint256"
        }
      ],
      "name": "getProblemBodyData",
      "outputs": [
        {
          "components": [
            {
              "internalType": "uint256",
              "name": "bodyId",
              "type": "uint256"
            },
            {
              "internalType": "uint256",
              "name": "bodyIndex",
              "type": "uint256"
            },
            {
              "internalType": "uint256",
              "name": "px",
              "type": "uint256"
            },
            {
              "internalType": "uint256",
              "name": "py",
              "type": "uint256"
            },
            {
              "internalType": "uint256",
              "name": "vx",
              "type": "uint256"
            },
            {
              "internalType": "uint256",
              "name": "vy",
              "type": "uint256"
            },
            {
              "internalType": "uint256",
              "name": "radius",
              "type": "uint256"
            },
            {
              "internalType": "bytes32",
              "name": "seed",
              "type": "bytes32"
            }
          ],
          "internalType": "struct Problems.Body",
          "name": "",
          "type": "tuple"
        }
      ],
      "stateMutability": "view",
      "type": "function"
    },
    {
      "inputs": [
        {
          "internalType": "uint256",
          "name": "problemId",
          "type": "uint256"
        }
      ],
      "name": "getProblemBodyIds",
      "outputs": [
        {
          "internalType": "uint256[10]",
          "name": "",
          "type": "uint256[10]"
        }
      ],
      "stateMutability": "view",
      "type": "function"
    },
    {
      "inputs": [
        {
          "internalType": "uint256",
          "name": "blockNumber",
          "type": "uint256"
        }
      ],
      "name": "getRand",
      "outputs": [
        {
          "internalType": "bytes32",
          "name": "",
          "type": "bytes32"
        }
      ],
      "stateMutability": "view",
      "type": "function"
    },
    {
      "inputs": [
        {
          "internalType": "uint256",
          "name": "bodyId",
          "type": "uint256"
        },
        {
          "internalType": "bytes32",
          "name": "seed",
          "type": "bytes32"
        },
        {
          "internalType": "uint256",
          "name": "i",
          "type": "uint256"
        }
      ],
      "name": "getRandomValues",
      "outputs": [
        {
          "components": [
            {
              "internalType": "uint256",
              "name": "bodyId",
              "type": "uint256"
            },
            {
              "internalType": "uint256",
              "name": "bodyIndex",
              "type": "uint256"
            },
            {
              "internalType": "uint256",
              "name": "px",
              "type": "uint256"
            },
            {
              "internalType": "uint256",
              "name": "py",
              "type": "uint256"
            },
            {
              "internalType": "uint256",
              "name": "vx",
              "type": "uint256"
            },
            {
              "internalType": "uint256",
              "name": "vy",
              "type": "uint256"
            },
            {
              "internalType": "uint256",
              "name": "radius",
              "type": "uint256"
            },
            {
              "internalType": "bytes32",
              "name": "seed",
              "type": "bytes32"
            }
          ],
          "internalType": "struct Problems.Body",
          "name": "",
          "type": "tuple"
        }
      ],
      "stateMutability": "pure",
      "type": "function"
    },
    {
      "inputs": [
        {
          "internalType": "address",
          "name": "owner",
          "type": "address"
        },
        {
          "internalType": "address",
          "name": "operator",
          "type": "address"
        }
      ],
      "name": "isApprovedForAll",
      "outputs": [
        {
          "internalType": "bool",
          "name": "",
          "type": "bool"
        }
      ],
      "stateMutability": "view",
      "type": "function"
    },
    {
      "inputs": [],
      "name": "maxRadius",
      "outputs": [
        {
          "internalType": "uint256",
          "name": "",
          "type": "uint256"
        }
      ],
      "stateMutability": "view",
      "type": "function"
    },
    {
      "inputs": [],
      "name": "metadata",
      "outputs": [
        {
          "internalType": "address",
          "name": "",
          "type": "address"
        }
      ],
      "stateMutability": "view",
      "type": "function"
    },
    {
      "inputs": [],
      "name": "mint",
      "outputs": [],
      "stateMutability": "payable",
      "type": "function"
    },
    {
      "inputs": [
        {
          "internalType": "uint256",
          "name": "problemId",
          "type": "uint256"
        }
      ],
      "name": "mintBody",
      "outputs": [],
      "stateMutability": "nonpayable",
      "type": "function"
    },
    {
      "inputs": [],
      "name": "name",
      "outputs": [
        {
          "internalType": "string",
          "name": "",
          "type": "string"
        }
      ],
      "stateMutability": "view",
      "type": "function"
    },
    {
      "inputs": [],
      "name": "owner",
      "outputs": [
        {
          "internalType": "address",
          "name": "",
          "type": "address"
        }
      ],
      "stateMutability": "view",
      "type": "function"
    },
    {
      "inputs": [
        {
          "internalType": "uint256",
          "name": "tokenId",
          "type": "uint256"
        }
      ],
      "name": "ownerOf",
      "outputs": [
        {
          "internalType": "address",
          "name": "",
          "type": "address"
        }
      ],
      "stateMutability": "view",
      "type": "function"
    },
    {
      "inputs": [],
      "name": "price",
      "outputs": [
        {
          "internalType": "uint256",
          "name": "",
          "type": "uint256"
        }
      ],
      "stateMutability": "view",
      "type": "function"
    },
    {
      "inputs": [],
      "name": "problemSupply",
      "outputs": [
        {
          "internalType": "uint256",
          "name": "",
          "type": "uint256"
        }
      ],
      "stateMutability": "view",
      "type": "function"
    },
    {
      "inputs": [
        {
          "internalType": "uint256",
          "name": "",
          "type": "uint256"
        }
      ],
      "name": "problems",
      "outputs": [
        {
          "internalType": "bytes32",
          "name": "seed",
          "type": "bytes32"
        },
        {
          "internalType": "uint256",
          "name": "bodyCount",
          "type": "uint256"
        },
        {
          "internalType": "uint256",
          "name": "tickCount",
          "type": "uint256"
        }
      ],
      "stateMutability": "view",
      "type": "function"
    },
    {
      "inputs": [
        {
          "internalType": "uint256",
          "name": "problemId",
          "type": "uint256"
        },
        {
          "internalType": "uint256",
          "name": "bodyId",
          "type": "uint256"
        }
      ],
      "name": "removeBody",
      "outputs": [],
      "stateMutability": "nonpayable",
      "type": "function"
    },
    {
      "inputs": [],
      "name": "renounceOwnership",
      "outputs": [],
      "stateMutability": "nonpayable",
      "type": "function"
    },
    {
      "inputs": [
        {
          "internalType": "address",
          "name": "from",
          "type": "address"
        },
        {
          "internalType": "address",
          "name": "to",
          "type": "address"
        },
        {
          "internalType": "uint256",
          "name": "tokenId",
          "type": "uint256"
        }
      ],
      "name": "safeTransferFrom",
      "outputs": [],
      "stateMutability": "nonpayable",
      "type": "function"
    },
    {
      "inputs": [
        {
          "internalType": "address",
          "name": "from",
          "type": "address"
        },
        {
          "internalType": "address",
          "name": "to",
          "type": "address"
        },
        {
          "internalType": "uint256",
          "name": "tokenId",
          "type": "uint256"
        },
        {
          "internalType": "bytes",
          "name": "data",
          "type": "bytes"
        }
      ],
      "name": "safeTransferFrom",
      "outputs": [],
      "stateMutability": "nonpayable",
      "type": "function"
    },
    {
      "inputs": [],
      "name": "scalingFactor",
      "outputs": [
        {
          "internalType": "uint256",
          "name": "",
          "type": "uint256"
        }
      ],
      "stateMutability": "view",
      "type": "function"
    },
    {
      "inputs": [
        {
          "internalType": "address",
          "name": "operator",
          "type": "address"
        },
        {
          "internalType": "bool",
          "name": "approved",
          "type": "bool"
        }
      ],
      "name": "setApprovalForAll",
      "outputs": [],
      "stateMutability": "nonpayable",
      "type": "function"
    },
    {
      "inputs": [],
      "name": "solver",
      "outputs": [
        {
          "internalType": "address",
          "name": "",
          "type": "address"
        }
      ],
      "stateMutability": "view",
      "type": "function"
    },
    {
      "inputs": [
        {
          "internalType": "bytes4",
          "name": "interfaceId",
          "type": "bytes4"
        }
      ],
      "name": "supportsInterface",
      "outputs": [
        {
          "internalType": "bool",
          "name": "",
          "type": "bool"
        }
      ],
      "stateMutability": "view",
      "type": "function"
    },
    {
      "inputs": [],
      "name": "symbol",
      "outputs": [
        {
          "internalType": "string",
          "name": "",
          "type": "string"
        }
      ],
      "stateMutability": "view",
      "type": "function"
    },
    {
      "inputs": [
        {
          "internalType": "uint256",
          "name": "id",
          "type": "uint256"
        }
      ],
      "name": "tokenURI",
      "outputs": [
        {
          "internalType": "string",
          "name": "",
          "type": "string"
        }
      ],
      "stateMutability": "view",
      "type": "function"
    },
    {
      "inputs": [
        {
          "internalType": "address",
          "name": "from",
          "type": "address"
        },
        {
          "internalType": "address",
          "name": "to",
          "type": "address"
        },
        {
          "internalType": "uint256",
          "name": "tokenId",
          "type": "uint256"
        }
      ],
      "name": "transferFrom",
      "outputs": [],
      "stateMutability": "nonpayable",
      "type": "function"
    },
    {
      "inputs": [
        {
          "internalType": "address",
          "name": "newOwner",
          "type": "address"
        }
      ],
      "name": "transferOwnership",
      "outputs": [],
      "stateMutability": "nonpayable",
      "type": "function"
    },
    {
      "inputs": [
        {
          "internalType": "address",
          "name": "bodies_",
          "type": "address"
        }
      ],
      "name": "updateBodiesAddress",
      "outputs": [],
      "stateMutability": "nonpayable",
      "type": "function"
    },
    {
      "inputs": [
        {
          "internalType": "address",
          "name": "metadata_",
          "type": "address"
        }
      ],
      "name": "updateMetadataAddress",
      "outputs": [],
      "stateMutability": "nonpayable",
      "type": "function"
    },
    {
      "inputs": [
        {
          "internalType": "uint256",
          "name": "price_",
          "type": "uint256"
        }
      ],
      "name": "updatePrice",
      "outputs": [],
      "stateMutability": "nonpayable",
      "type": "function"
    },
    {
      "inputs": [
        {
          "internalType": "uint256",
          "name": "problemId",
          "type": "uint256"
        },
        {
          "internalType": "uint256",
          "name": "bodyId",
          "type": "uint256"
        },
        {
          "components": [
            {
              "internalType": "uint256",
              "name": "bodyId",
              "type": "uint256"
            },
            {
              "internalType": "uint256",
              "name": "bodyIndex",
              "type": "uint256"
            },
            {
              "internalType": "uint256",
              "name": "px",
              "type": "uint256"
            },
            {
              "internalType": "uint256",
              "name": "py",
              "type": "uint256"
            },
            {
              "internalType": "uint256",
              "name": "vx",
              "type": "uint256"
            },
            {
              "internalType": "uint256",
              "name": "vy",
              "type": "uint256"
            },
            {
              "internalType": "uint256",
              "name": "radius",
              "type": "uint256"
            },
            {
              "internalType": "bytes32",
              "name": "seed",
              "type": "bytes32"
            }
          ],
          "internalType": "struct Problems.Body",
          "name": "body",
          "type": "tuple"
        }
      ],
      "name": "updateProblemBody",
      "outputs": [],
      "stateMutability": "nonpayable",
      "type": "function"
    },
    {
      "inputs": [
        {
          "internalType": "uint256",
          "name": "problemId",
          "type": "uint256"
        },
        {
          "internalType": "uint256",
          "name": "bodyCount",
          "type": "uint256"
        }
      ],
      "name": "updateProblemBodyCount",
      "outputs": [],
      "stateMutability": "nonpayable",
      "type": "function"
    },
    {
      "inputs": [
        {
          "internalType": "uint256",
          "name": "problemId",
          "type": "uint256"
        },
        {
          "internalType": "uint256[10]",
          "name": "bodyIds",
          "type": "uint256[10]"
        }
      ],
      "name": "updateProblemBodyIds",
      "outputs": [],
      "stateMutability": "nonpayable",
      "type": "function"
    },
    {
      "inputs": [
        {
          "internalType": "uint256",
          "name": "problemId",
          "type": "uint256"
        },
        {
          "internalType": "uint256",
          "name": "tickCount",
          "type": "uint256"
        }
      ],
      "name": "updateProblemTickCount",
      "outputs": [],
      "stateMutability": "nonpayable",
      "type": "function"
    },
    {
      "inputs": [
        {
          "internalType": "address",
          "name": "solver_",
          "type": "address"
        }
      ],
      "name": "updateSolverAddress",
      "outputs": [],
      "stateMutability": "nonpayable",
      "type": "function"
    },
    {
      "inputs": [
        {
          "internalType": "address",
          "name": "verifier_",
          "type": "address"
        },
        {
          "internalType": "uint256",
          "name": "verifierBodies",
          "type": "uint256"
        },
        {
          "internalType": "uint256",
          "name": "verifierTicks",
          "type": "uint256"
        }
      ],
      "name": "updateVerifier",
      "outputs": [],
      "stateMutability": "nonpayable",
      "type": "function"
    },
    {
      "inputs": [
        {
          "internalType": "address",
          "name": "wallet_",
          "type": "address"
        }
      ],
      "name": "updateWalletAddress",
      "outputs": [],
      "stateMutability": "nonpayable",
      "type": "function"
    },
    {
      "inputs": [
        {
          "internalType": "uint256",
          "name": "",
          "type": "uint256"
        },
        {
          "internalType": "uint256",
          "name": "",
          "type": "uint256"
        }
      ],
      "name": "verifiers",
      "outputs": [
        {
          "internalType": "address",
          "name": "",
          "type": "address"
        }
      ],
      "stateMutability": "view",
      "type": "function"
    },
    {
      "inputs": [],
      "name": "wallet",
      "outputs": [
        {
          "internalType": "address",
          "name": "",
          "type": "address"
        }
      ],
      "stateMutability": "view",
      "type": "function"
    },
    {
      "inputs": [],
      "name": "windowWidth",
      "outputs": [
        {
          "internalType": "uint256",
          "name": "",
          "type": "uint256"
        }
      ],
      "stateMutability": "view",
      "type": "function"
    }
  ],
  "bytecode": "0x60406080815234620005aa5762002aec90813803806200001f81620005ea565b9384398201608083820312620005aa576200003a8362000610565b92602091828201519260018060401b0393848111620005aa57830191601f93818585011215620005aa578351936200007c620000768662000625565b620005ea565b94848087838152019160051b83010191848311620005aa5785809101915b838310620005af575050505086810151868111620005aa5782620000c09183016200063d565b916060820151878111620005aa57620000da92016200063d565b91620000e5620005ca565b95600f87526e416e79626f64792050726f626c656d60881b828801526200010b620005ca565b956003875262414e5960e81b83880152875196828811620005945760009788549960019a8b81811c9116801562000589575b87821014620005755790818584931162000522575b508690858311600114620004b5578b92620004a9575b5050600019600383901b1c1916908a1b1788555b8051928311620004955788548981811c911680156200048a575b8582101462000476579081838594931162000421575b5084918311600114620003bd578892620003b1575b5050600019600383901b1c191690871b1786555b60068054336001600160a01b0319808316821790935589519a92966001600160a01b0393909284929083167f8be0079c531659141344cd1fd0a4f28419497f9722a3daafe3b4186f6b6457e08b8fa388600c5516998a156200037c575087993387600b541617600b5586600a541617600a5586995b6200025f575b88516124269081620006c68239f35b80518a10156200037657620002758a856200069a565b5115620003325781620002898b836200069a565b511615620002fb57816200029e8b836200069a565b5116620002ac8b876200069a565b518852600e8452898820620002c28c876200069a565b518952845289882090878254161790556000198a14620002e75798870198876200024a565b634e487b7160e01b87526011600452602487fd5b885162461bcd60e51b815260048101849052601060248201526f24b73b30b634b2103b32b934b334b2b960811b6044820152606490fd5b885162461bcd60e51b815260048101849052601660248201527f496e76616c6964207665726966696572207469636b73000000000000000000006044820152606490fd5b62000250565b62461bcd60e51b815260048101849052601060248201526f496e76616c6964206d6574616461746160801b6044820152606490fd5b015190503880620001c1565b8989528489208a94509190601f1984168a5b878282106200040a5750508411620003f0575b505050811b018655620001d5565b015160001960f88460031b161c19169055388080620003e2565b8385015186558d97909501949384019301620003cf565b909192508989528489208380860160051c8201928787106200046c575b9186958d929594930160051c01915b8281106200045d575050620001ac565b8b81558695508c91016200044d565b925081926200043e565b634e487b7160e01b89526022600452602489fd5b90607f169062000196565b634e487b7160e01b88526041600452602488fd5b01519050388062000168565b8b8052878c208d94509190601f1984168d5b8a828210620005025750508411620004e8575b505050811b0188556200017c565b015160001960f88460031b161c19169055388080620004da565b91929395968291958786015181550195019301908e9594939291620004c7565b9091508a8052868b208580850160051c8201928986106200056b575b918e91869594930160051c01915b8281106200055c57505062000152565b8d81558594508e91016200054c565b925081926200053e565b634e487b7160e01b8b52602260045260248bfd5b90607f16906200013d565b634e487b7160e01b600052604160045260246000fd5b600080fd5b8190620005bc8462000610565b81520191019085906200009a565b60408051919082016001600160401b038111838210176200059457604052565b6040519190601f01601f191682016001600160401b038111838210176200059457604052565b51906001600160a01b0382168203620005aa57565b6001600160401b038111620005945760051b60200190565b9080601f83011215620005aa578151906200065c620000768362000625565b9182938184526020808095019260051b820101928311620005aa578301905b8282106200068a575050505090565b815181529083019083016200067b565b8051821015620006af5760209160051b010190565b634e487b7160e01b600052603260045260246000fdfe6040608081526004908136101561001557600080fd5b600091823560e01c908163010fdfd5146118b857816301ffc9a71461184a57816304b24e851461181357816306fdde0314611748578163081812fc14611728578163095ea7b3146115b95781631249c58b1461139857816320a286d01461137957816323b872dd1461134e5781632b057afa146112f6578163306da04f146112cd578163392f37e9146112a45781634084728414611216578163424611c3146111ef57816342842e0e146111a057816343569ffb1461116957816349a7a26d14611140578163521eb273146111175781635e5201b7146110e05781636352211e146110af57816370a0823114611019578163715018a614610fb957816375d4eedd14610ebd5781637696d9ff14610e7c57816383c3ef0514610e60578163872d7e4814610e295781638d6cc56d14610e075781638da5cb5b14610dde57816395d89b4114610cc8578163a035b1fe14610ca9578163a22cb46514610bdd578163af3b0f3f14610ba9578163afcb1af014610918578163b6460e7c14610823578163b88d4fde1461079a578163c31f5d6a1461070a578163c87b56dd1461060f578163c93c266e146105ce578163de4318fc1461052d578163e985e9c5146104dd578163eba4f3661461049f578163ed3437f814610482578163ed892aae14610441578163ee379aef1461030a578163f2fde38b1461023e575063f81c8ec31461021d57600080fd5b3461023a578160031936011261023a576020905163038504288152f35b5080fd5b905034610306576020366003190112610306576102596118f9565b610261611af7565b6001600160a01b039081169182156102b4575060065492826001600160601b0360a01b8516176006555192167f8be0079c531659141344cd1fd0a4f28419497f9722a3daafe3b4186f6b6457e0600084a3f35b608490602085519162461bcd60e51b8352820152602660248201527f4f776e61626c653a206e6577206f776e657220697320746865207a65726f206160448201526564647265737360d01b6064820152fd5b8280fd5b9050346103065761031a36611925565b8461032483611b9b565b6001600160a01b03949061033b90861633146120a0565b8460085416908651956331a9108f60e11b875284828801526020968781602481875afa9081156104375785916103fd575b50610379911633146120a0565b848352600d8652610392600a60018986200154106120d8565b813b15610306578360248492838a519586948593630852cd8d60e31b85528401525af180156103f3576103db575b506103d89383600d9252526001848620015491612189565b51f35b6103e4906119ca565b6103ef5784386103c0565b8480fd5b86513d84823e3d90fd5b90508781813d8311610430575b6104148183611a66565b810103126103ef57519080821682036103ef579061037961036c565b503d61040a565b89513d87823e3d90fd5b50503461023a57602036600319011261023a5761045c6118f9565b610464611af7565b60018060a01b03166001600160601b0360a01b600a541617600a5551f35b50503461023a578160031936011261023a576020905161e6a98152f35b905034610306576020366003190112610306576060928291358152600d60205220805491600d60018301549201549181519384526020840152820152f35b50503461023a578060031936011261023a576020916104fa6118f9565b8261050361190f565b9260018060a01b03809316815260058652209116600052825260ff81600020541690519015158152f35b905034610306576101603660031901126103065736604312156103065781519061055682611a11565b610164823682116105ca576024905b8282106105ba5750505061058460018060a01b036009541633146123ad565b358352602090600d82526003838520019184915b600a83106105a557858551f35b60018282829351875501940192019192610598565b8135815260209182019101610565565b8580fd5b50503461023a57602036600319011261023a576105e96118f9565b6105f1611af7565b60018060a01b03166001600160601b0360a01b600b541617600b5551f35b91905034610306576020918260031936011261070657600a54825163295d33a960e21b81528235928101929092528490829060249082906001600160a01b03165afa9384156106fb578094610678575b50506106749051928284938452830190611970565b0390f35b909193503d8082843e61068b8184611a66565b820191838184031261023a5780519067ffffffffffffffff8211610306570182601f8201121561023a578051916106c183611adb565b936106ce87519586611a66565b8385528584840101116106f8575082916106f09185806106749601910161193b565b92903861065f565b80fd5b8251903d90823e3d90fd5b8380fd5b91905034610306576007816106749461072236611925565b9061072b61214b565b508252600d6020526002838320019082526020522082519361074c856119f4565b8154855260018201546020860152600282015484860152600382015460608601528101546080850152600581015460a0850152600681015460c0850152015460e08301525191829182611a88565b905034610306576080366003190112610306576107b56118f9565b906107be61190f565b916064359167ffffffffffffffff83116105ca57366023840112156105ca5782013592856107eb85611adb565b936107f887519586611a66565b858552366024878301011161023a57856103d896602460209301838801378501015260443591611c61565b905034610306576020908160031936011261070657816108ae928235809361084a82611b9b565b6001600160a01b039061086090821633146120a0565b828952600d8452610879600a60018a8c200154106120d8565b6008548851638096989d60e01b815233938101938452602084019490945292968793919091169183918a918391604090910190565b03925af192831561090e5785936108d9575b5091600d6103d893838752526001848620015491612189565b92508083813d8311610907575b6108f08183611a66565b8101031261090257915191600d6108c0565b600080fd5b503d6108e6565b84513d87823e3d90fd5b9050346103065761092836611925565b610933829392611b9b565b6001600160a01b03939061094a90851633146120a0565b808652600d90602091808352600195600387898b2001541115610b665760085416803b15610b625787516318ecc45960e11b8152338782019081526020810187905290918a9183919082908490829060400103925af18015610b5857610b45575b508188528083527fe3d7c65a819210a4131cc5090a9efe680115139f33a226180fd95dd75a829966608082898b200154898b20548a519186835287830152878b8301526060820152a181885280835260028789200184895283528587892001549180895281845286888a200180548015610b3257600019019055808952818452878920885193906003018a89865b88600a8410610b1e575050505050610a5084611a11565b6101408951610a5e81611a11565b3690375b60098110610adc575088610120840152885282526003868820019087905b600a8210610ac9575050506007926000949285926002888a2001918952528186882093818555840155816002840155816003840155820155826005820155826006820155015551f35b8051835591860191908601908301610a80565b6001198111610b0b5780610af589610b06930186612124565b51610b008287612124565b52612045565b610a62565b634e487b7160e01b8a526011875260248afd5b829185548152019301910190918a90610a39565b634e487b7160e01b8b526011885260248bfd5b610b51909891986119ca565b96386109ab565b88513d8b823e3d90fd5b8880fd5b875162461bcd60e51b8152808701859052601e60248201527f43616e6e6f742068617665206c657373207468616e203320626f6469657300006044820152606490fd5b8284346106f85760603660031901126106f85750610bd261067492604435906024359035612310565b905191829182611a88565b905034610306578160031936011261030657610bf76118f9565b602435908115158092036103ef576001600160a01b031691338314610c665750338452600560205282842082855260205282842060ff1981541660ff831617905582519081527f17307eab39ab6107e8899845ad3d59bd9653f200f220920489ca2b5937696c3160203392a351f35b606490602085519162461bcd60e51b8352820152601960248201527f4552433732313a20617070726f766520746f2063616c6c6572000000000000006044820152fd5b50503461023a578160031936011261023a57602090600c549051908152f35b8284346106f857806003193601126106f8578151918160019283549384811c91818616958615610dd4575b6020968785108114610dc1578899509688969785829a529182600014610d9a575050600114610d3f575b5050506106749291610d30910385611a66565b51928284938452830190611970565b91908693508083527fb10e2d527612073b26eecdfd717e6a320cf44b4afac2b0732d9fcbe2b7fa0cf65b828410610d825750505082010181610d30610674610d1d565b8054848a018601528895508794909301928101610d69565b60ff19168782015293151560051b86019093019350849250610d3091506106749050610d1d565b634e487b7160e01b835260228a52602483fd5b92607f1692610cf3565b50503461023a578160031936011261023a5760065490516001600160a01b039091168152602090f35b90503461030657602036600319011261030657610e22611af7565b35600c5551f35b50503461023a57610e3936611925565b90610e4f60018060a01b036009541633146123ad565b8352600d6020526001828420015551f35b50503461023a578160031936011261023a5760209051600d8152f35b50503461023a57602036600319011261023a57610e976118f9565b610e9f611af7565b60018060a01b03166001600160601b0360a01b600954161760095551f35b9050346103065761014036600319011261030657610100908160431936011261070657825191820182811067ffffffffffffffff821117610fa657906007918452604435835260208301906064358252848401906084358252606085019060a43582526080860160c435815260a087019260e435845260c088019461010435865260e0890196610124358852610f5e60018060a01b036009541633146123ad565b84358c52600d60205260028b8d20016024358d526020528a8c2099518a555160018a015551600289015551600388015551908601555160058501555160068401555191015551f35b634e487b7160e01b855260418252602485fd5b50503461023a578160031936011261023a57610fd3611af7565b600680546001600160a01b0319811690915590519082906001600160a01b03167f8be0079c531659141344cd1fd0a4f28419497f9722a3daafe3b4186f6b6457e08284a3f35b8391503461023a57602036600319011261023a576001600160a01b0361103d6118f9565b1690811561105a5760208480858581526003845220549051908152f35b608490602085519162461bcd60e51b8352820152602960248201527f4552433732313a2061646472657373207a65726f206973206e6f7420612076616044820152683634b21037bbb732b960b91b6064820152fd5b8284346106f85760203660031901126106f857506110cf60209235611b9b565b90516001600160a01b039091168152f35b90503461030657602036600319011261030657602092508151838101913540825283815261110d81611a2e565b5190209051908152f35b50503461023a578160031936011261023a57600b5490516001600160a01b039091168152602090f35b50503461023a578160031936011261023a5760095490516001600160a01b039091168152602090f35b50503461023a5760209161117c36611925565b908252600e845282822090825283528190205490516001600160a01b039091168152f35b83833461023a576111b036611995565b908351926020840184811067ffffffffffffffff8211176111dc57856103d89697985052868452611c61565b634e487b7160e01b875260418852602487fd5b8284346106f85760203660031901126106f8575061120f60209235611fff565b9051908152f35b83833461023a5760208060031936011261030657819291519361123885611a11565b6101408095369037358252600d81528282208351939060030183855b600a821061128e5750505061126884611a11565b519291835b600a8210611279578585f35b8280600192865181520194019101909261126d565b8254815260019283019291909101908401611254565b50503461023a578160031936011261023a57600a5490516001600160a01b039091168152602090f35b50503461023a578160031936011261023a5760085490516001600160a01b039091168152602090f35b50503461023a57606036600319011261023a576113116118f9565b611319611af7565b6024358352600e60205281832060443584526020528183209060018060a01b03166001600160601b0360a01b82541617905551f35b50503461023a576103d861136136611995565b9161137461136f8433611cfc565b611bff565b611dc4565b50503461023a578160031936011261023a576020906007549051908152f35b90508260031936011261030657600c5434036115875760018060a01b0383808083600b541686519034905af1506113cd611ed7565b506007906113db8254612045565b9081835533156115445760008281526002602052604090205461140a906001600160a01b031615155b15612054565b60008281526002602052604090205461142d906001600160a01b03161515611404565b3386526003936020928584528688206001815401905580885260028452868820336001600160601b0360a01b82541617905533887fddf252ad1be2c89b69c2b068fc378daa952ba7f163c4a11628f55a4df523b3ef818a51a486805b8681106114b75750505050600d8254916114a283611fff565b92875252838520555483526001828420015551f35b60085486548951638096989d60e01b8152338682019081526020810192909252938792859283900360400191839189165af1918215610b58578992611513575b506115078161150c938854612189565b612045565b8790611489565b91508482813d831161153d575b61152a8183611a66565b81010312610b62579051906115076114f7565b503d611520565b845162461bcd60e51b8152602081860181905260248201527f4552433732313a206d696e7420746f20746865207a65726f20616464726573736044820152606490fd5b6020606492519162461bcd60e51b8352820152600d60248201526c496e76616c696420707269636560981b6044820152fd5b9050346103065781600319360112610306576115d36118f9565b602435916001600160a01b039081806115eb86611b9b565b169316928084146116db578033149081156116bc575b50156116535783865260205283852080546001600160a01b0319168317905561162983611b9b565b169251927f8c5be1e5ebec7d5bd14f71427d1e84f3dd0314c0f7b2291e5b200ac8c7c3b9258585a4f35b608490602086519162461bcd60e51b8352820152603d60248201527f4552433732313a20617070726f76652063616c6c6572206973206e6f7420746f60448201527f6b656e206f776e6572206f7220617070726f76656420666f7220616c6c0000006064820152fd5b90508652600560205284862033875260205260ff858720541638611601565b855162461bcd60e51b8152602081840152602160248201527f4552433732313a20617070726f76616c20746f2063757272656e74206f776e656044820152603960f91b6064820152608490fd5b8284346106f85760203660031901126106f857506110cf60209235611bc1565b8284346106f857806003193601126106f85781519181825492600184811c91818616958615611809575b6020968785108114610dc1578899509688969785829a529182600014610d9a5750506001146117ae575050506106749291610d30910385611a66565b91908693508280527f290decd9548b62a8d60345a988386fc84ba6bc95484008f6362f93160ef3e5635b8284106117f15750505082010181610d30610674610d1d565b8054848a0186015288955087949093019281016117d8565b92607f1692611772565b50503461023a5761182336611925565b9061183960018060a01b036009541633146123ad565b8352600d602052600d828420015551f35b90503461030657602036600319011261030657359063ffffffff60e01b821680920361030657602092506380ac58cd60e01b82149182156118a7575b8215611896575b50519015158152f35b6301ffc9a760e01b1491503861188d565b635b5e139f60e01b81149250611886565b50503461023a57602036600319011261023a576118d36118f9565b6118db611af7565b60018060a01b03166001600160601b0360a01b600854161760085551f35b600435906001600160a01b038216820361090257565b602435906001600160a01b038216820361090257565b6040906003190112610902576004359060243590565b918091926000905b82821061195b575011611954575050565b6000910152565b91508060209183015181860152018291611943565b906020916119898151809281855285808601910161193b565b601f01601f1916010190565b6060906003190112610902576001600160a01b0390600435828116810361090257916024359081168103610902579060443590565b67ffffffffffffffff81116119de57604052565b634e487b7160e01b600052604160045260246000fd5b610100810190811067ffffffffffffffff8211176119de57604052565b610140810190811067ffffffffffffffff8211176119de57604052565b6040810190811067ffffffffffffffff8211176119de57604052565b6060810190811067ffffffffffffffff8211176119de57604052565b90601f8019910116810190811067ffffffffffffffff8211176119de57604052565b91909160e080610100830194805184526020810151602085015260408101516040850152606081015160608501526080810151608085015260a081015160a085015260c081015160c08501520151910152565b67ffffffffffffffff81116119de57601f01601f191660200190565b6006546001600160a01b03163303611b0b57565b606460405162461bcd60e51b815260206004820152602060248201527f4f776e61626c653a2063616c6c6572206973206e6f7420746865206f776e65726044820152fd5b15611b5657565b60405162461bcd60e51b815260206004820152601860248201527f4552433732313a20696e76616c696420746f6b656e20494400000000000000006044820152606490fd5b6000908152600260205260409020546001600160a01b0316611bbe811515611b4f565b90565b600081815260026020526040902054611be4906001600160a01b03161515611b4f565b6000908152600460205260409020546001600160a01b031690565b15611c0657565b60405162461bcd60e51b815260206004820152602d60248201527f4552433732313a2063616c6c6572206973206e6f7420746f6b656e206f776e6560448201526c1c881bdc88185c1c1c9bdd9959609a1b6064820152608490fd5b90611c85939291611c7561136f8433611cfc565b611c80838383611dc4565b611f07565b15611c8c57565b60405162461bcd60e51b815280611ca560048201611ca9565b0390fd5b60809060208152603260208201527f4552433732313a207472616e7366657220746f206e6f6e20455243373231526560408201527131b2b4bb32b91034b6b83632b6b2b73a32b960711b60608201520190565b906001600160a01b038080611d1084611b9b565b16931691838314938415611d43575b508315611d2d575b50505090565b611d3991929350611bc1565b1614388080611d27565b909350600052600560205260406000208260005260205260ff604060002054169238611d1f565b15611d7157565b60405162461bcd60e51b815260206004820152602560248201527f4552433732313a207472616e736665722066726f6d20696e636f72726563742060448201526437bbb732b960d91b6064820152608490fd5b90611dec91611dd284611b9b565b6001600160a01b0393918416928492909183168414611d6a565b16918215611e865781611e0991611e0286611b9b565b1614611d6a565b7fddf252ad1be2c89b69c2b068fc378daa952ba7f163c4a11628f55a4df523b3ef60008481526004602052604081206001600160601b0360a01b90818154169055838252600360205260408220600019815401905584825260408220600181540190558582526002602052846040832091825416179055604051a4565b60405162461bcd60e51b8152602060048201526024808201527f4552433732313a207472616e7366657220746f20746865207a65726f206164646044820152637265737360e01b6064820152608490fd5b3d15611f02573d90611ee882611adb565b91611ef66040519384611a66565b82523d6000602084013e565b606090565b91926000929190813b15611ff557602091611f5d9185604051958680958194630a85bd0160e11b9b8c845233600485015260018060a01b0380951660248501526044840152608060648401526084830190611970565b0393165af190829082611fad575b5050611f9f57611f79611ed7565b80519081611f9a5760405162461bcd60e51b815280611ca560048201611ca9565b602001fd5b6001600160e01b0319161490565b909192506020813d8211611fed575b81611fc960209383611a66565b8101031261023a5751906001600160e01b0319821682036106f85750903880611f6b565b3d9150611fbc565b5050505050600190565b6001431061202f576040516020810191825260001943014060408201526040815261202981611a4a565b51902090565b634e487b7160e01b600052601160045260246000fd5b600019811461202f5760010190565b1561205b57565b60405162461bcd60e51b815260206004820152601c60248201527f4552433732313a20746f6b656e20616c7265616479206d696e746564000000006044820152606490fd5b156120a757565b60405162461bcd60e51b81526020600482015260096024820152682737ba1037bbb732b960b91b6044820152606490fd5b156120df57565b60405162461bcd60e51b815260206004820152601f60248201527f43616e6e6f742068617665206d6f7265207468616e20313020626f64696573006044820152606490fd5b90600a8110156121355760051b0190565b634e487b7160e01b600052603260045260246000fd5b60405190612158826119f4565b8160e06000918281528260208201528260408201528260608201528260808201528260a08201528260c08201520152565b600854604080516301e0a07d60e71b81526004810185905293949391602091908290849060249082906001600160a01b03165afa928315612305576000936122d6575b5083600052600d8252600d8160002001546121e561214b565b506121f1868589612310565b9185600052600d845260028160002001886000528452806000209183518355848401516001840155818401805160028501556060850193845160038201556080860151600482015560a08601516005820155600760e060c088019788516006850155015191015587600052600d86528260002099600a8a101561213557600360c09a7ffb52bc8f2e8e49f29b75fa40d0581e6835e4785af9dbc941e477d15690aac6d69c01015587600052600d8652600183600020016122b18154612045565b905551925193519482519788528701528501526060840152608083015260a0820152a1565b90928282813d83116122fe575b6122ed8183611a66565b810103126106f857505191386121cc565b503d6122e3565b50513d6000823e3d90fd5b91909161231b61214b565b5061232461214b565b928060e0850152604051602081019182528360408201526040815261234881611a4a565b51902060405160208101908282526020815261236381611a2e565b6303850428918291519020069084600d1061202f5784600d039261e6a9948460001904861187600d14151661202f57875206604086015260608501520260c0830152602082015290565b156123b457565b60405162461bcd60e51b815260206004820152601460248201527313db9b1e4814dbdb1d995c8818d85b8818d85b1b60621b6044820152606490fdfea2646970667358221220b56ed3cf12b44187595dbf7ae8086427807baa8aa437d7b2d6dab4f6450c04f864736f6c634300080f0033",
  "linkReferences": {},
  "deployedLinkReferences": {}
}