{
  "_format": "hh-sol-artifact-1",
  "contractName": "BodyMetadata",
  "sourceName": "contracts/BodyMetadata.sol",
  "abi": [
    {
      "inputs": [],
      "stateMutability": "nonpayable",
      "type": "constructor"
    },
    {
      "anonymous": false,
      "inputs": [
        {
          "indexed": true,
          "internalType": "address",
          "name": "previousOwner",
          "type": "address"
        },
        {
          "indexed": true,
          "internalType": "address",
          "name": "newOwner",
          "type": "address"
        }
      ],
      "name": "OwnershipTransferred",
      "type": "event"
    },
    {
      "inputs": [],
      "name": "bodies",
      "outputs": [
        {
          "internalType": "address payable",
          "name": "",
          "type": "address"
        }
      ],
      "stateMutability": "view",
      "type": "function"
    },
    {
      "inputs": [
        {
          "internalType": "uint256",
          "name": "id",
          "type": "uint256"
        }
      ],
      "name": "exists",
      "outputs": [
        {
          "internalType": "bool",
          "name": "",
          "type": "bool"
        }
      ],
      "stateMutability": "view",
      "type": "function"
    },
    {
      "inputs": [
        {
          "internalType": "uint256",
          "name": "tokenId",
          "type": "uint256"
        }
      ],
      "name": "getBodyMetadata",
      "outputs": [
        {
          "internalType": "string",
          "name": "",
          "type": "string"
        }
      ],
      "stateMutability": "view",
      "type": "function"
    },
    {
      "inputs": [
        {
          "internalType": "uint256",
          "name": "tokenId",
          "type": "uint256"
        }
      ],
      "name": "getHTML",
      "outputs": [
        {
          "internalType": "string",
          "name": "",
          "type": "string"
        }
      ],
      "stateMutability": "view",
      "type": "function"
    },
    {
      "inputs": [
        {
          "internalType": "uint256",
          "name": "tokenId",
          "type": "uint256"
        }
      ],
      "name": "getName",
      "outputs": [
        {
          "internalType": "string",
          "name": "",
          "type": "string"
        }
      ],
      "stateMutability": "pure",
      "type": "function"
    },
    {
      "inputs": [
        {
          "internalType": "uint256",
          "name": "tokenId",
          "type": "uint256"
        }
      ],
      "name": "getPath",
      "outputs": [
        {
          "internalType": "string",
          "name": "",
          "type": "string"
        }
      ],
      "stateMutability": "view",
      "type": "function"
    },
    {
      "inputs": [
        {
          "internalType": "uint256",
          "name": "tokenId",
          "type": "uint256"
        }
      ],
      "name": "getSVG",
      "outputs": [
        {
          "internalType": "string",
          "name": "",
          "type": "string"
        }
      ],
      "stateMutability": "view",
      "type": "function"
    },
    {
      "inputs": [],
      "name": "owner",
      "outputs": [
        {
          "internalType": "address",
          "name": "",
          "type": "address"
        }
      ],
      "stateMutability": "view",
      "type": "function"
    },
    {
      "inputs": [],
      "name": "problems",
      "outputs": [
        {
          "internalType": "address payable",
          "name": "",
          "type": "address"
        }
      ],
      "stateMutability": "view",
      "type": "function"
    },
    {
      "inputs": [],
      "name": "renounceOwnership",
      "outputs": [],
      "stateMutability": "nonpayable",
      "type": "function"
    },
    {
      "inputs": [
        {
          "internalType": "bytes32",
          "name": "seed",
          "type": "bytes32"
        }
      ],
      "name": "seedToColor",
      "outputs": [
        {
          "internalType": "string",
          "name": "",
          "type": "string"
        }
      ],
      "stateMutability": "pure",
      "type": "function"
    },
    {
      "inputs": [
        {
          "internalType": "address",
          "name": "newOwner",
          "type": "address"
        }
      ],
      "name": "transferOwnership",
      "outputs": [],
      "stateMutability": "nonpayable",
      "type": "function"
    },
    {
      "inputs": [
        {
          "internalType": "address payable",
          "name": "bodies_",
          "type": "address"
        }
      ],
      "name": "updateBodiesAddress",
      "outputs": [],
      "stateMutability": "nonpayable",
      "type": "function"
    },
    {
      "inputs": [
        {
          "internalType": "address payable",
          "name": "problems_",
          "type": "address"
        }
      ],
      "name": "updateProblemsAddress",
      "outputs": [],
      "stateMutability": "nonpayable",
      "type": "function"
    }
  ],
  "bytecode": "0x6080806040523461005b5760008054336001600160a01b0319821681178355916001600160a01b03909116907f8be0079c531659141344cd1fd0a4f28419497f9722a3daafe3b4186f6b6457e09084a3611a2090816100618239f35b600080fdfe60806040526004361015610013575b600080fd5b60003560e01c8063010fdfd51461012b578063087c32e61461012257806308cffccf14610119578063102581d214610110578063306da04f146101075780634f558e79146100fe5780636b8ff574146100f5578063715018a6146100ec5780638da5cb5b146100e3578063be985ac9146100da578063e1765073146100d1578063e82fedd7146100c8578063f2fde38b146100bf5763f9df988f146100b757600080fd5b61000e610a9a565b5061000e6109cd565b5061000e6109ad565b5061000e610993565b5061000e61097e565b5061000e610954565b5061000e6108f2565b5061000e6108d8565b5061000e6108b5565b5061000e61088b565b5061000e6107ab565b5061000e610248565b5061000e61018d565b5061000e610145565b6001600160a01b0381160361000e57565b503461000e57602036600319011261000e5760043561016381610134565b61016b610ac4565b600180546001600160a01b0319166001600160a01b0392909216919091179055005b503461000e57602036600319011261000e576004356101ab81610134565b6101b3610ac4565b600280546001600160a01b0319166001600160a01b0392909216919091179055005b602090600319011261000e5760043590565b918091926000905b828210610207575011610200575050565b6000910152565b915080602091830151818601520182916101ef565b6040916020825261023c81518092816020860152602086860191016101e7565b601f01601f1916010190565b503461000e57610257366101d5565b61026861026382610b8b565b610c19565b61027181610f84565b9061027b81610fc9565b61028482610fc9565b6002549091906102aa9061029e906001600160a01b031681565b6001600160a01b031690565b936040938451631da686ff60e31b81526020968782600481845afa91821561079e575b60009261077a575b50606061031392936102f461029e61029e60015460018060a01b031690565b89518080968194631133b9cf60e21b8352600483019190602083019252565b03915afa92831561076d575b60009182938395610732575b5088516305ed556560e11b815260048101869052610364918b90829060249082905afa908115610725575b6000916106f8575b50610d94565b9061036e90610db8565b61037791610d68565b906103819061175c565b9161038b9061175c565b926103958161193b565b9161039f9061175c565b906103a990611698565b9188519485948b86016103c490600190605b60f81b81520190565b7f7b2274726169745f74797065223a2250726f626c656d4964222c2276616c7565815262111d1160e91b60208201526023016103ff91610c56565b7f227d2c207b2274726169745f74797065223a226d696e746564426f6479496e6481526c32bc1116113b30b63ab2911d1160991b6020820152602d0161044491610c56565b7f227d2c207b2274726169745f74797065223a2273656564222c2276616c7565228152611d1160f11b602082015260220161047e91610c56565b7f227d2c207b2274726169745f74797065223a22726164697573222c2276616c7581526332911d1160e11b60208201526024016104ba91610c56565b7f227d2c207b2274726169745f74797065223a22636f6c6f72222c2276616c7565815262111d1160e91b60208201526023016104f591610c56565b62227d5d60e81b81526003010393601f199485810183526105169083610b5c565b8551683d913730b6b2911d1160b91b88820190815290948594909160090161053d91610c56565b61088b60f21b81526002017f226465736372697074696f6e223a2022416e79626f64792050726f626c656d2081527f2868747470733a2f2f616e79626f64792e747269666c652e6c69666529222c006020820152603f01691134b6b0b3b2911d101160b11b8152600a016105b091610c56565b61088b60f21b81526002016d1134b6b0b3b2afbab936111d101160911b8152600e016105db91610c56565b61088b60f21b81526002017f22686f6d655f75726c223a202268747470733a2f2f616e79626f64792e747269815269199b194b9b1a5999488b60b21b6020820152602a017f2265787465726e616c5f75726c223a202268747470733a2f2f616e79626f647981526d0b9d1c9a599b194b9b1a5999488b60921b6020820152602e016d01130ba3a3934b13aba32b9911d160951b8152600e0161067c91610c56565b607d60f81b81526001010382810182526106969082610b5c565b61069f90610e98565b82517f646174613a6170706c69636174696f6e2f6a736f6e3b6261736536342c00000094810194855293849190601d016106d891610c56565b0390810183526106e89083610b5c565b516106f481928261021c565b0390f35b61071891508b3d8d1161071e575b6107108183610b5c565b81019061118c565b3861035e565b503d610706565b61072d610b7e565b610356565b90945061075c919350610364925060603d8111610766575b6107548183610b5c565b81019061119b565b949093919261032b565b503d61074a565b610775610b7e565b61031f565b61031392506107976060918a3d8c1161071e576107108183610b5c565b92506102d5565b6107a6610b7e565b6102cd565b503461000e576106f46108336107c86107c3366101d5565b610fc9565b61082e60466040518093753c68746d6c3e3c626f64793e3c696d67207372633d2760501b60208301526108058151809260206036860191016101e7565b81016f139f1e17b137b23c9f1e17b43a36b61f60811b6036820152036026810184520182610b5c565b610e98565b61087f603660405180937519185d184e9d195e1d0bda1d1b5b0ed8985cd94d8d0b60521b602083015261086f81518092602086860191016101e7565b8101036016810184520182610b5c565b6040519182918261021c565b503461000e57600036600319011261000e576001546040516001600160a01b039091168152602090f35b503461000e5760206108ce6108c9366101d5565b610b8b565b6040519015158152f35b503461000e576106f461087f6108ed366101d5565b610f84565b503461000e576000806003193601126109515761090d610ac4565b80546001600160a01b0319811682556040519082906001600160a01b03167f8be0079c531659141344cd1fd0a4f28419497f9722a3daafe3b4186f6b6457e08284a3f35b80fd5b503461000e57600036600319011261000e576000546040516001600160a01b039091168152602090f35b503461000e576106f461087f6107c3366101d5565b503461000e576106f461087f6109a8366101d5565b61120b565b503461000e57602036600319011261000e576106f461087f600435611698565b503461000e57602036600319011261000e576004356109eb81610134565b6109f3610ac4565b6001600160a01b03908116908115610a4657600080546001600160a01b031981168417825560405191939192167f8be0079c531659141344cd1fd0a4f28419497f9722a3daafe3b4186f6b6457e08484a3f35b60405162461bcd60e51b815260206004820152602660248201527f4f776e61626c653a206e6577206f776e657220697320746865207a65726f206160448201526564647265737360d01b6064820152608490fd5b503461000e57600036600319011261000e576002546040516001600160a01b039091168152602090f35b6000546001600160a01b03163303610ad857565b606460405162461bcd60e51b815260206004820152602060248201527f4f776e61626c653a2063616c6c6572206973206e6f7420746865206f776e65726044820152fd5b50634e487b7160e01b600052604160045260246000fd5b6020810190811067ffffffffffffffff821117610b4f57604052565b610b57610b1c565b604052565b90601f8019910116810190811067ffffffffffffffff821117610b4f57604052565b506040513d6000823e3d90fd5b6001546040516331a9108f60e11b815260048101929092526001600160a01b0391906020908290602490829086165afa908115610c0c575b600091610bd2575b5016151590565b906020823d8211610c04575b81610beb60209383610b5c565b81010312610951575051610bfe81610134565b38610bcb565b3d9150610bde565b610c14610b7e565b610bc3565b15610c2057565b60405162461bcd60e51b815260206004820152600e60248201526d1113d154c81393d50811561254d560921b6044820152606490fd5b90610c69602092828151948592016101e7565b0190565b60209067ffffffffffffffff8111610c8b575b601f01601f19160190565b610c93610b1c565b610c80565b60405190610ca582610b33565b60008252565b604051906060820182811067ffffffffffffffff821117610d1c575b604052604082527f6768696a6b6c6d6e6f707172737475767778797a303132333435363738392b2f6040837f4142434445464748494a4b4c4d4e4f505152535455565758595a61626364656660208201520152565b610d24610b1c565b610cc7565b50634e487b7160e01b600052601160045260246000fd5b6002906002198111610d50570190565b610c69610d29565b6020906020198111610d50570190565b81198111610d50570190565b8115610d7e570490565b634e487b7160e01b600052601260045260246000fd5b806000190460041181151516610dab575b60021b90565b610db3610d29565b610da5565b7f028f5c28f5c28f5c28f5c28f5c28f5c28f5c28f5c28f5c28f5c28f5c28f5c28f8111600116610de9575b60640290565b610df1610d29565b610de3565b6001600160fe1b038111600116610dab5760021b90565b8060001904821181151516610e20570290565b610e28610d29565b0290565b604051906080820182811067ffffffffffffffff821117610e59575b604052604282526060366020840137565b610e61610b1c565b610e48565b90610e7082610c6d565b610e7d6040519182610b5c565b8281528092610e8e601f1991610c6d565b0190602036910137565b805115610f7857610ea7610cab565b610ec3610ebe610eb78451610d40565b6003900490565b610df6565b91610ed5610ed084610d58565b610e66565b92835280815182019060208501935b828210610f2657505050600390510680600114610f1557600214610f06575090565b603d60f81b6000199091015290565b50613d3d60f01b6001199091015290565b9091936004906003809401938451600190603f9082828260121c16880101518553828282600c1c16880101518386015382828260061c1688010151600286015316850101519082015301939190610ee4565b50610f81610c98565b90565b610f8d9061175c565b610f816026604051809365426f6479202360d01b6020830152610fb981518092602086860191016101e7565b8101036006810184520182610b5c565b610f816110e461114b61118093610fe261026382610b8b565b61113761111e610ffa610ff48461120b565b93610f84565b6111186040519687957f3c3f786d6c2076657273696f6e3d22312e302220656e636f64696e673d22757460208801527f662d38223f3e3c73766720786d6c6e733d22687474703a2f2f7777772e77332e60408801527f6f72672f323030302f7376672220206865696768743d2231303025222077696460608801527f74683d2231303025222076696577426f783d223020302031303030203130303060808801527f22207374796c653d226261636b67726f756e642d636f6c6f723a677265793b2260a08801526f1f1e39ba3cb6329f1e17b9ba3cb6329f60811b60c088015260d0870190610c56565b7f3c7465787420783d2235302220793d223535302220636c6173733d226e616d65815261111f60f11b602082015260220190565b90610c56565b6c1e17ba32bc3a1f1e17b9bb339f60991b8152600d0190565b039161082e601f1993848101835282610b5c565b6040517f646174613a696d6167652f7376672b786d6c3b6261736536342c0000000000006020820152938491603a8301611118565b03908101835282610b5c565b9081602091031261000e575190565b9081606091031261000e578051916040602083015192015190565b8181106111c1570390565b6111c9610d29565b0390565b604051906040820182811067ffffffffffffffff8211176111fe575b604052600382526203530360ec1b6020830152565b611206610b1c565b6111e9565b611213610c98565b60025490919061122d9061029e906001600160a01b031681565b90604051631da686ff60e31b81526020918282600481875afa91821561168b575b60009261166c575b5060015461126e9061029e906001600160a01b031681565b604051631133b9cf60e21b8152600481018390529490606090869060249082905afa94851561165f575b600095611638575b506040516305ed556560e11b8152600481018690526112d9918590829060249082905afa90811561162b575b6000916116145750610d94565b6112e283610db8565b6112eb91610d68565b6112f58382610d74565b6112fe8161175c565b9361130891610e0d565b611311916111b6565b61131a9061175c565b906113236111cd565b9161132c6111cd565b916113369061175c565b936040519485878101611362906012907103a3930b739b337b93696b7b934b3b4b71d160751b81520190565b61136c9087610c56565b620383c160ed1b81526003016113829086610c56565b630383c1d960e51b81526004010397601f199889810188526113a49088610b5c565b6113ad90611698565b95604051998a9889016113bf91610c56565b7f3c7374796c653e20406b65796672616d6573206d6f7665456c6c6970736500008152601e016113ef9083610c56565b670103d901812903d960c51b815260080161140a9082610c56565b7f207472616e73666f726d3a20726f74617465283064656729207472616e736c6181527f7465283070782c2031307078293b207d2031303025207b200000000000000000602082015260380161145f91610c56565b7f207472616e73666f726d3a20726f746174652833363064656729207472616e738152736c617465283070782c2031307078293b207d207d60601b60208201526034016a656c6c697073652369642d60a81b8152600b016114c09082610c56565b7f207b20616e696d6174696f6e3a206d6f7665456c6c697073650000000000000081526019016114f09082610c56565b7f20347320696e66696e697465206c696e6561723b20616e696d6174696f6e2d6481527332b630bc9d101698399d903e9e17b9ba3cb6329f60611b60208201526034016f3c656c6c697073652069643d2269642d60801b815260100161155591610c56565b651110393c9e9160d11b815260060161156e9082610c56565b601760f91b81526001016115829083610c56565b651110393c1e9160d11b815260060161159a91610c56565b601760f91b81526001016115ad91610c56565b65111031bc9e9160d11b81526006016115c591610c56565b65111031bc1e9160d11b81526006016115dd91610c56565b6711103334b6361e9160c11b81526008016115f791610c56565b631110179f60e11b8152600401039081018252610f819082610b5c565b6107189150853d871161071e576107108183610b5c565b611633610b7e565b6112cc565b6112d99195506116559060603d8111610766576107548183610b5c565b91505094906112a0565b611667610b7e565b611298565b611684919250833d851161071e576107108183610b5c565b9038611256565b611693610b7e565b61124e565b610f8160259161174161173361ffff6111186117256116ea60286116e3606482878b60201c1606968319881161174f575b6116d8610168828d160661175c565b9a60101c160661175c565b940161175c565b92604051988997630d0e6d8560e31b60208a015261171281518092602060248d0191016101e7565b8801600b60fa1b60248201520190610c56565b61094b60f21b815260020190565b61252960f01b815260020190565b03601f198101835282610b5c565b611757610d29565b6116c9565b806000917a184f03e93ff9f4daa797ed6e38ed64bf6a1f01000000000000000080821015611891575b506d04ee2d6d415b85acef810000000080831015611882575b50662386f26fc1000080831015611873575b506305f5e10080831015611864575b5061271080831015611855575b506064821015611845575b600a8092101561183b575b6001908160216117f3828701610e66565b95860101905b611805575b5050505090565b600019019083906f181899199a1a9b1b9c1cb0b131b232b360811b8282061a835304918215611836579190826117f9565b6117fe565b91600101916117e2565b91906064600291049101916117d7565b600491939204910191386117cc565b600891939204910191386117bf565b601091939204910191386117b0565b6020919392049101913861179e565b604093508104915038611785565b50634e487b7160e01b600052603260045260246000fd5b9060209180518210156118c857010190565b6118d061189f565b010190565b80156118e3575b6000190190565b6118eb610d29565b6118dc565b156118f757565b606460405162461bcd60e51b815260206004820152602060248201527f537472696e67733a20686578206c656e67746820696e73756666696369656e746044820152fd5b611943610e2c565b908151156119dd575b6030602083015381516001908110156119d0575b90607860218401536041915b80831161197f5750610f819150156118f0565b9080600f6119bc921660108110156119c3575b6f181899199a1a9b1b9c1cb0b131b232b360811b901a6119b285876118b6565b5360041c926118d5565b919061196c565b6119cb61189f565b611992565b6119d861189f565b611960565b6119e561189f565b61194c56fea26469706673582212200cdfd085065c0a2c5724c160802e0a1681b9ce22bd3876f1cea993a55a82e30164736f6c634300080f0033",
  "linkReferences": {},
  "deployedLinkReferences": {}
}