{
  "_format": "hh-sol-artifact-1",
  "contractName": "Groth16Verifier",
  "sourceName": "contracts/Game_9_50Verifier.sol",
  "abi": [
    {
      "inputs": [
        {
          "internalType": "uint256[2]",
          "name": "_pA",
          "type": "uint256[2]"
        },
        {
          "internalType": "uint256[2][2]",
          "name": "_pB",
          "type": "uint256[2][2]"
        },
        {
          "internalType": "uint256[2]",
          "name": "_pC",
          "type": "uint256[2]"
        },
        {
          "internalType": "uint256[91]",
          "name": "_pubSignals",
          "type": "uint256[91]"
        }
      ],
      "name": "verifyProof",
      "outputs": [
        {
          "internalType": "bool",
          "name": "",
          "type": "bool"
        }
      ],
      "stateMutability": "view",
      "type": "function"
    }
  ],
  "bytecode": "0x6080806040523461001657613d75908161001c8239f35b600080fdfe6080604052600436101561001257600080fd5b6000803560e01c63a84ae57e1461002857600080fd5b346104cc57610c603660031901126104cc57610043366104cf565b3660c4116104c857610054366104e1565b90610c643681116104c457916104c0916104bb6020959461040060405261007d610104356104ef565b610089610124356104ef565b610095610144356104ef565b6100a1610164356104ef565b6100ad610184356104ef565b6100b96101a4356104ef565b6100c56101c4356104ef565b6100d16101e4356104ef565b6100dd610204356104ef565b6100e9610224356104ef565b6100f5610244356104ef565b610101610264356104ef565b61010d610284356104ef565b6101196102a4356104ef565b6101256102c4356104ef565b6101316102e4356104ef565b61013d610304356104ef565b610149610324356104ef565b610155610344356104ef565b610161610364356104ef565b61016d610384356104ef565b6101796103a4356104ef565b6101856103c4356104ef565b6101916103e4356104ef565b61019d610404356104ef565b6101a9610424356104ef565b6101b5610444356104ef565b6101c1610464356104ef565b6101cd610484356104ef565b6101d96104a4356104ef565b6101e56104c4356104ef565b6101f16104e4356104ef565b6101fd610504356104ef565b610209610524356104ef565b610215610544356104ef565b610221610564356104ef565b61022d610584356104ef565b6102396105a4356104ef565b6102456105c4356104ef565b6102516105e4356104ef565b61025d610604356104ef565b610269610624356104ef565b610275610644356104ef565b610281610664356104ef565b61028d610684356104ef565b6102996106a4356104ef565b6102a56106c4356104ef565b6102b16106e4356104ef565b6102bd610704356104ef565b6102c9610724356104ef565b6102d5610744356104ef565b6102e1610764356104ef565b6102ed610784356104ef565b6102f96107a4356104ef565b6103056107c4356104ef565b6103116107e4356104ef565b61031d610804356104ef565b610329610824356104ef565b610335610844356104ef565b610341610864356104ef565b61034d610884356104ef565b6103596108a4356104ef565b6103656108c4356104ef565b6103716108e4356104ef565b61037d610904356104ef565b610389610924356104ef565b610395610944356104ef565b6103a1610964356104ef565b6103ad610984356104ef565b6103b96109a4356104ef565b6103c56109c4356104ef565b6103d16109e4356104ef565b6103dd610a04356104ef565b6103e9610a24356104ef565b6103f5610a44356104ef565b610401610a64356104ef565b61040d610a84356104ef565b610419610aa4356104ef565b610425610ac4356104ef565b610431610ae4356104ef565b61043d610b04356104ef565b610449610b24356104ef565b610455610b44356104ef565b610461610b64356104ef565b61046d610b84356104ef565b610479610ba4356104ef565b610485610bc4356104ef565b610491610be4356104ef565b61049d610c04356104ef565b6104a9610c24356104ef565b6104b5610c44356104ef565b356104ef565b61362b565b8152f35b8380fd5b5080fd5b80fd5b906004916044116104dc57565b600080fd5b9060c491610104116104dc57565b7f30644e72e131a029b85045b68181585d97816a916871ca8d3c208c16d87cfd47111561051857565b6000805260206000f35b604051907f205719650b7b3c9b4581b2e4a3dfcb46015a2e5de563720b31ca829dde97947182527f26a765bbb7dca5bc48af683ed2ff5a70bc5fd8a11f832449a09aaa481ceb06026020830152604082019081526107cf196040836060816007855a01fa156105185760409260066080939284938451905260a05160608401525a01fa1561051857565b604051907f19682464996707b15a8d6261dd93193853c7bea42a19d4a62838811fcc8edff082527f1e2683d6cf3a3d9514f2a63a7e0baad88632b0460431a84d8c69f664ae97491b6020830152604082019081526107cf196040836060816007855a01fa156105185760409260066080939284938451905260a05160608401525a01fa1561051857565b604051907f2b10c3097a3ab3287944d79cffbeab96fc77abdf78fafd6afd819cee4cd471a182527f13f0f71bddac9f787b145f0de46d606205469c35da23ed3ec4440b74c443c5d86020830152604082019081526107cf196040836060816007855a01fa156105185760409260066080939284938451905260a05160608401525a01fa1561051857565b604051907f2b9d37f69ae1139753d156ad329b2370569056241146e014f528972942187c4782527f303731956b139a584dbc1090285d3b971f3605cf37d8826dfc10a8986f92237a6020830152604082019081526107cf196040836060816007855a01fa156105185760409260066080939284938451905260a05160608401525a01fa1561051857565b604051907f019761dc829cd8bc89ffb6757b9c002ba0998d4f50292a1ad314dc24ac71626582527f24feaecedf27a0de2caee805d816b27608abb5213a161ba44ee1196f61e7f9786020830152604082019081526107cf196040836060816007855a01fa156105185760409260066080939284938451905260a05160608401525a01fa1561051857565b604051907f1578ea43468e78e96f31ce8ff059e54d7ebedb342014990d2956c28b97a0a8e882527f1875231fbe744f78b894d02b315b0b6d1153554db05dee3e405580b4253ed72e6020830152604082019081526107cf196040836060816007855a01fa156105185760409260066080939284938451905260a05160608401525a01fa1561051857565b604051907f1e48205446d4d5f508360fac1d8be96b47864204fb3573f0b3b441594afeca3882527f15c2748a5399b6aad1806bfa865dfab8a25db4e246a812fa9d615cfa7a5fe2fc6020830152604082019081526107cf196040836060816007855a01fa156105185760409260066080939284938451905260a05160608401525a01fa1561051857565b604051907f275abcd3f188abdf7b5f0895fab97d6e4f7f557a23c7333f253e5a0bf76efc0e82527f0d59f8f469d1c554143c9cb06097137e88da2b5c529c1fe4eca7dcf611e3ade06020830152604082019081526107cf196040836060816007855a01fa156105185760409260066080939284938451905260a05160608401525a01fa1561051857565b604051907f14d75b2f187700989792164422664203e37a2bb9ef7e3a3737d376a71e49f18e82527f2534deddd3141f146d5a86de999b37056bec735d1bc8b49b43deb7c4b67ea95c6020830152604082019081526107cf196040836060816007855a01fa156105185760409260066080939284938451905260a05160608401525a01fa1561051857565b604051907f29b1dc1820c25b3c7d344776721573bd033f7442e8e0102bfc89b67d25884f1382527f2a1936ed5ff240a4f412c09acb45d7cef32d5948bbdedbee0e8f106d0505c1dd6020830152604082019081526107cf196040836060816007855a01fa156105185760409260066080939284938451905260a05160608401525a01fa1561051857565b604051907f2217e554f5b4722783265bab4c9641657ee90a79ebb840382a2f12f22b44f98382527f2ebd2bdda0d32e3bd7c3439294407c645b63a9cfcef3cfe87f00c10656ad51a96020830152604082019081526107cf196040836060816007855a01fa156105185760409260066080939284938451905260a05160608401525a01fa1561051857565b604051907f12c825afe1461e050c0b9d4ab9689f9a7cf0a92a0ffc774332e39000a92ac24e82527f149f62c14c3431c64aa68108a62c974abb80db56ad0311aeff84fb06a312ef4a6020830152604082019081526107cf196040836060816007855a01fa156105185760409260066080939284938451905260a05160608401525a01fa1561051857565b604051907e19cf8a78f842bb2a68cb4915bd43947dd394c73783571bd2a21848657ee74282527f281041bcc42e5a07eeafe4e2531e6bed8a3c130ccda3b7b3108887585525ef766020830152604082019081526107cf196040836060816007855a01fa156105185760409260066080939284938451905260a05160608401525a01fa1561051857565b604051907f1e3094cd1f419d00c7925b0dee93f23c2b2e4c55d5e1e0da7fcbb422df79dab282527f0e05950b6d273a6e48ad037f085f52ccf325e8eed2eaf492e0908728d959d5126020830152604082019081526107cf196040836060816007855a01fa156105185760409260066080939284938451905260a05160608401525a01fa1561051857565b604051907f04e0f41742ba09a0c4e7116d62aa46a53ef71767d129641817ad9d541852dadf82527f28236ebea972e2e1185e457525f0c957623e2ef829559d1f6398ce5e70c184196020830152604082019081526107cf196040836060816007855a01fa156105185760409260066080939284938451905260a05160608401525a01fa1561051857565b604051907f1e21806c80b65396e2ff4e659f6a8a24d2bca70cdd1a05e818f2331cc022141382527f08a1299562c17a7305f252e236ce972d4e8c19ebb46d555b1a4644d4e00789316020830152604082019081526107cf196040836060816007855a01fa156105185760409260066080939284938451905260a05160608401525a01fa1561051857565b604051907f291b267fcba49ddf3041a4e5e11d3259dc1eb45aa93581f598d9e4ec4ad3aa2082527f13ae58bde18ba8764c362e6dcba23f4707f0f0fb592ed50690ff4ee2be41cf1a6020830152604082019081526107cf196040836060816007855a01fa156105185760409260066080939284938451905260a05160608401525a01fa1561051857565b604051907f0b41701bffb8c17459c50d62c81305af0671db91442f2b26b8c5ba91e799db8182527f02145b500bf50cfb2bcf0d542c2dc3cd79ba626a4b892e362096186b13aa111b6020830152604082019081526107cf196040836060816007855a01fa156105185760409260066080939284938451905260a05160608401525a01fa1561051857565b604051907f165867f1882e4f596a07e63ca46d65fe53a12ffc6564f7fc652c8099c3df816482527f2830938e2a191caac3e68aad63a4fc76d129dea94ff83828e86bde3dad550d206020830152604082019081526107cf196040836060816007855a01fa156105185760409260066080939284938451905260a05160608401525a01fa1561051857565b604051907f081ca921f82f50c8b293eabd1649eff37a15992a5ed48c7600ec65e42d6b38dd82527f1fb316faae103d155145248a9c1b0ed6f03d1eb255aa833e2330f044570440166020830152604082019081526107cf196040836060816007855a01fa156105185760409260066080939284938451905260a05160608401525a01fa1561051857565b604051907f1357dcd90fd4e9b8251a36729ec980a62755e6972bb75add3c57aa05e38ba33082527f0121bcde37f1183a6dd4a11304d542ff1f27d9ca33315d5f77c59730e8fcb32d6020830152604082019081526107cf196040836060816007855a01fa156105185760409260066080939284938451905260a05160608401525a01fa1561051857565b604051907f27fcc4cbbdd2176b23db829c11407cb8c3e3521c2d2a1747564440f5be981aed82527f0de7385c4dc2936ac1972bab4c3fc056cf812bf595b0a1cc1142368fc2e5f3d06020830152604082019081526107cf196040836060816007855a01fa156105185760409260066080939284938451905260a05160608401525a01fa1561051857565b604051907f0a6dd3544e129495ddb8502f313e40f294372783123684f33e18a381d34867d982527f05a3fef06ab6ab809b22b74ef6d19a97795669524401104700f4e09c2ab739a16020830152604082019081526107cf196040836060816007855a01fa156105185760409260066080939284938451905260a05160608401525a01fa1561051857565b604051907f2eb9663a1c85d452b9a70df8751f9fad1314f1ccb192b3679297299d2555bb1282527f2cf2ff5676deec99cc848644c82513c7cd8620eb66cd8ed70c99d2ea3d0a631c6020830152604082019081526107cf196040836060816007855a01fa156105185760409260066080939284938451905260a05160608401525a01fa1561051857565b604051907f0e513020c974a7acda5791dba78f97d41f89c2419f565df2350d62968e270ec182527eeda652b309de01545b6b6052e56861890e035fa6d6a0e7aa5715784bfea3aa6020830152604082019081526107cf196040836060816007855a01fa156105185760409260066080939284938451905260a05160608401525a01fa1561051857565b604051907f1532461144dd23dcad4e89fec6623b8473290ff1feefb96d01f3219ef929af1a82527f0fb59837a1a57cfde9af9539733fedae1018d22e9bdad75f412afff7635e6e746020830152604082019081526107cf196040836060816007855a01fa156105185760409260066080939284938451905260a05160608401525a01fa1561051857565b604051907f04cf02b58837c79e5d60aa2aaf67b14e6e35d4db2da58001a3c977dbdecfa69c82527f05c2d3b02edd7dd98b85af14a3bafb9adc2af6c25ad3e0d03033da2c1a7cc5576020830152604082019081526107cf196040836060816007855a01fa156105185760409260066080939284938451905260a05160608401525a01fa1561051857565b604051907f0c0b4ea6aa70b5f9064647d805f070f9dc390351f57d52898c2658a58395e4d082527f0a42db827058c3c97baec2b1e0ebbe3443c4725321b84e5fce69bbc0d7c65af96020830152604082019081526107cf196040836060816007855a01fa156105185760409260066080939284938451905260a05160608401525a01fa1561051857565b604051907f1bd6d174c91725fc802b79cf9105a1b388b3688dbc6293abaed4a96e7b1a4f7d82527f1b4ae4017a5797c2d2053d623f1fc243510c9fc7154525ef11b1afbb50ce996a6020830152604082019081526107cf196040836060816007855a01fa156105185760409260066080939284938451905260a05160608401525a01fa1561051857565b604051907f0d6352a15e90b6c7081335cc14140699270feab71a23dcc1253557065b6b449682527f1a6c6d0467a4ed60bfc7fc01ee9d565b90293af9933bb20b19c63841a5037d276020830152604082019081526107cf196040836060816007855a01fa156105185760409260066080939284938451905260a05160608401525a01fa1561051857565b604051907f13eaa9c679c1125f5d70face32cb6ab1ee86ff6ff93f62239031ac9147a0d8d282527f24adf0f1b31a538181e523e6dbbcabfc11dc92f91ddfd4a8fe24a8988c4aa8ff6020830152604082019081526107cf196040836060816007855a01fa156105185760409260066080939284938451905260a05160608401525a01fa1561051857565b604051907f11807090d72d1342ed8e096b66f5e17ee1ef016a260bd821b3f0ebb3d582044682527f2c155c8f810e790c5a53b40d52ca2a152b24f24923e85005ad058b856ca172bd6020830152604082019081526107cf196040836060816007855a01fa156105185760409260066080939284938451905260a05160608401525a01fa1561051857565b604051907e758668234ef88bd3feeee74f0aa3e7867d8167e6aefe28d6d897157347353f82527f09f1b5d46062c34ecce38b369e8f4f03db5ae26057f472e2e65a0e854969898d6020830152604082019081526107cf196040836060816007855a01fa156105185760409260066080939284938451905260a05160608401525a01fa1561051857565b604051907f111e3579820748afdae426e89a50f3dc1a621544c1f17005d24c60dec31d262d82527f2420ccc8fa24b7040e0a77859615121f2faa8ed02c26bc65a29cc0cbce5ae08f6020830152604082019081526107cf196040836060816007855a01fa156105185760409260066080939284938451905260a05160608401525a01fa1561051857565b604051907f142c537496f0dd9506bd96263a0f7d2433792da6383d04b84df01ca306b1965a82527f101a82c9261cbd97c29a7d20c6d93924bcf63d8fab071c4c79768f8bb15a3c056020830152604082019081526107cf196040836060816007855a01fa156105185760409260066080939284938451905260a05160608401525a01fa1561051857565b604051907f07ee190daa6a4f5f39a749493684b68d6e66e2f26c23652a021d57f371d562cd82527f207bd50b234e97ed8679e7e175b427825e4e3001feb97aab240af42866dae3a46020830152604082019081526107cf196040836060816007855a01fa156105185760409260066080939284938451905260a05160608401525a01fa1561051857565b604051907f0ca974f5f69692f737f8257904f358f58d7568ef5366b74da5bf6f90da7b5c8082527f1207204708d0754fdc5033b55bfc542679286bb3e5effbe8089fc5394bdd56ff6020830152604082019081526107cf196040836060816007855a01fa156105185760409260066080939284938451905260a05160608401525a01fa1561051857565b604051907f13e40bc74921ff63c019c99456949ba21db96d737355aeb28774947ee80a651682527f2186072f3dc82d7b3993d18a126ba57588a3a912e51a4566eb67486bd08e4ea86020830152604082019081526107cf196040836060816007855a01fa156105185760409260066080939284938451905260a05160608401525a01fa1561051857565b604051907f19c46a58ce5e6c91156030c7dc8e83a403622c26dd5da3357039bf0ff45989bf82527f08a041b72d44205bc9f4316ed79f6b67797435726e525f8145667742d4b2fb356020830152604082019081526107cf196040836060816007855a01fa156105185760409260066080939284938451905260a05160608401525a01fa1561051857565b604051907f1dd56b1f77ea6c16573feb02d6ce8a9feae49d384795af45b71a08ff153266a982527f2d0aa50f27deb399fbb5544611a2ecdcea467de184b2f6aec59df54087b6d3a86020830152604082019081526107cf196040836060816007855a01fa156105185760409260066080939284938451905260a05160608401525a01fa1561051857565b604051907f2e1d0cd5043d7e19c4e88d06ccbc277c3c53d68ace9402c858e589e41ac267ac82527f07640fdb017e8fb79e1f82b1e28911ce70b8af913af5c8987ddc6feed83c46d16020830152604082019081526107cf196040836060816007855a01fa156105185760409260066080939284938451905260a05160608401525a01fa1561051857565b604051907f0bc7c4a017858a1b66a1d7bb9516812e69c266c3c92559156784a536fe00672482527f076133f86e649d2f5a38944bbd395c0e9a143c797de415fe8cdc35b9c591e7156020830152604082019081526107cf196040836060816007855a01fa156105185760409260066080939284938451905260a05160608401525a01fa1561051857565b604051907f0f8471711c9a3b5815c0de3fe2078fdbc2ce52655e19b2536147fddcac8f5d9c82527f21fa465505fb7dfe01932707411cd71f9c61ce87f82b98bda0ec881cdf72003a6020830152604082019081526107cf196040836060816007855a01fa156105185760409260066080939284938451905260a05160608401525a01fa1561051857565b604051907f2549fd7c79b6aab9ce2a01c36c8c5c1c090144ac481f5cea788672b60e4febf482527f0d419899a2f6c4c81de52e042c1063e87754bebb0aea47a04382c5e38565d9826020830152604082019081526107cf196040836060816007855a01fa156105185760409260066080939284938451905260a05160608401525a01fa1561051857565b604051907f1ec7813c806138eaa8afe3056b40540f8914338045286bbfe8721f6b48582aa882527f0ebe756379360eecf21b7adcc2172bd15b9359a33a5de006af25ce6a2b17c4126020830152604082019081526107cf196040836060816007855a01fa156105185760409260066080939284938451905260a05160608401525a01fa1561051857565b604051907f21cd6b86f7d2298e05f7241eb23208e41d815e348187c243f4b53be5473700ad82527f02d9ef19455fbfc170f8ed49544c67906df55f3a3ec4de757319a7b0b499701e6020830152604082019081526107cf196040836060816007855a01fa156105185760409260066080939284938451905260a05160608401525a01fa1561051857565b604051907f0a87f27bd4de3c926c75eb4bd8f9f862ba4e2552ba730abf54c88ef353145a7682527f071bfd06dd9af5bd058d8cbc171fcc409bba40d1b938fbc7591545b87286c5e66020830152604082019081526107cf196040836060816007855a01fa156105185760409260066080939284938451905260a05160608401525a01fa1561051857565b604051907f0728a51dc5fc9d76eccc4436ed96d3b768c4ca126bc46ff7b1375898caabed2e82527f0b723755ca3e753aa866700bfecd1d5e7eec4f0a4464e27dc01d3fca32c0fa8f6020830152604082019081526107cf196040836060816007855a01fa156105185760409260066080939284938451905260a05160608401525a01fa1561051857565b604051907f0d5c05b413c5cc203f9fb84a41ce5f5a5b095db62883151283413f1080750a0582527f30491433e1d58828ecdf99533852317ccb8a9d8e9d292ce31069e1540b432f0f6020830152604082019081526107cf196040836060816007855a01fa156105185760409260066080939284938451905260a05160608401525a01fa1561051857565b604051907f2929aa038e3842d138ce2032b03d24409157f5127001c80894da036b590b5c5b82527f1611a2f0b75ae6b6fc41371c58db03884e55687983665d2a2031f6967cbbb3386020830152604082019081526107cf196040836060816007855a01fa156105185760409260066080939284938451905260a05160608401525a01fa1561051857565b604051907f1f7cab05b27c45cf8de8095f63fef2a8b997b3d585c813a2893d373e6c4ad5bb82527f203c0287ca17bde191906c46aed721d19f1e3c380a02d41383751408b0e8aabd6020830152604082019081526107cf196040836060816007855a01fa156105185760409260066080939284938451905260a05160608401525a01fa1561051857565b604051907f1393e4b0a0015f4fc4fa3a0bfaeefea927437a72a22d0886e663a9f893f0eb0d82527f0513638309f914338df22982ecc7acfb0ebecd1147173d29c3f541d5362cc6e06020830152604082019081526107cf196040836060816007855a01fa156105185760409260066080939284938451905260a05160608401525a01fa1561051857565b604051907f2cfc303c8ea261c3eb37de719fe482c9c8555596bea7dc8cebd650d6c90aece082527f154dd9229bf7e7ef30ee7c5afaa7a7906eaca8e4e12b0af530c3e09060e88fe46020830152604082019081526107cf196040836060816007855a01fa156105185760409260066080939284938451905260a05160608401525a01fa1561051857565b604051907f11d18a02c6e7c357e686b4dada8d1ea2006125f35e2a6ef127e860ba1f37e03482527f2a34b19363891f9cae581d2cd0563ca4d4ebdfd21267acd65bf416a18db3ddb66020830152604082019081526107cf196040836060816007855a01fa156105185760409260066080939284938451905260a05160608401525a01fa1561051857565b604051907f14afb7db18cbc04d3a98165c390b7f9b5b3132e79775986c84c470622b8269a082527f216bd9a653676d85da2f00f52026e68125edc27dcbccf8382ed859212c2c4fd26020830152604082019081526107cf196040836060816007855a01fa156105185760409260066080939284938451905260a05160608401525a01fa1561051857565b604051907f09d1beec4ead9f81c962041ce5ee78bb7763317935418e6a7f08a0e8aabc409182527f048522dab4719a912bdc760d44d6364ad661b3cbe916e56831629a47f77f01d36020830152604082019081526107cf196040836060816007855a01fa156105185760409260066080939284938451905260a05160608401525a01fa1561051857565b604051907f2b5bd9c1487f0699b49ae94d60cf81dacb29956eeee38d28e53900d56c58225f82527f1dbde19537d845af53f273e6af4b543852f608d13cab87826c4fe00d0288ed0e6020830152604082019081526107cf196040836060816007855a01fa156105185760409260066080939284938451905260a05160608401525a01fa1561051857565b604051907f152e1293a5cc2b7cae56b00335587cd9143f56272abd00519c35ba98b5e00f6382527f2168de8cf3c16e248524ca704c11eff7f524f3ddf95475def1b68fe12692f08c6020830152604082019081526107cf196040836060816007855a01fa156105185760409260066080939284938451905260a05160608401525a01fa1561051857565b604051907f145ea45db5a7c0c5f8a76cb25486d5f6d74d76b9f0cff03128eb6195bcf8579e82527f20aaf29abc1eb60af71f574b07c68b261913d80761276103a39a2ffa874030546020830152604082019081526107cf196040836060816007855a01fa156105185760409260066080939284938451905260a05160608401525a01fa1561051857565b604051907f028c584d5b39c0b6a6aa3bfbed1ba7dc4e4e1ff7a648bed817dbcdbdfab4c21c82527f03ac6a0860d320c7f5d0f72c5c279c615f52d7a948eae06d686b58a0174c33376020830152604082019081526107cf196040836060816007855a01fa156105185760409260066080939284938451905260a05160608401525a01fa1561051857565b604051907f03a139ae1d5939df91d951e71774c6d955cf650fa75e303af058d2f0a485977e82527f2a044cbe617af2bff0f94d9642bdb47ef727180282c8134a7a6f0cd5f30e62356020830152604082019081526107cf196040836060816007855a01fa156105185760409260066080939284938451905260a05160608401525a01fa1561051857565b604051907f074ee7a261aff225d574c24278ac9455f8d2e58e1756eef24067d57d935e764b82527f2fdb087afc2eaf722a32f495480f3fb813ec4ca300775f7e72629954ddbcbe9d6020830152604082019081526107cf196040836060816007855a01fa156105185760409260066080939284938451905260a05160608401525a01fa1561051857565b604051907f1fc29c01cb33cad02081ad65d5f01aaf0cd44f7926f62a4c79404835636c540882527f03c5593c09468d0a7ec7ac780f2d4e366ac4b3311eb80a4825706a7881662e8d6020830152604082019081526107cf196040836060816007855a01fa156105185760409260066080939284938451905260a05160608401525a01fa1561051857565b604051907f0680e669d22e2f5b8d3fa289a0b29415e629ef1d0489af5339a9df46a250b2ae82527f0b5bba81e6c79d82473e13e53ad25573ae54ef309e404f14ceffa9c1a8d6ce536020830152604082019081526107cf196040836060816007855a01fa156105185760409260066080939284938451905260a05160608401525a01fa1561051857565b604051907f20feeee7583a16333ee03ca7f6979b5ea2b29a35bca02c57efcc057fedf81b3d82527f2ae627b58f6afa85e4132454626a1782edbacf32b07ea0053edac4ead9bc83bd6020830152604082019081526107cf196040836060816007855a01fa156105185760409260066080939284938451905260a05160608401525a01fa1561051857565b604051907f1e9ce771698dec2fd903a764a503cc3d08c94d312f27974e64542fe0e30878c882527f1c0936cfcbf1bb7f1a4322cba3715ecfb14430bf90747ed7f80766c1e6ec6a1b6020830152604082019081526107cf196040836060816007855a01fa156105185760409260066080939284938451905260a05160608401525a01fa1561051857565b604051907f2d0f483721f5799ab132a76ef3049e9fa5fd43cdfa174c625810c42c1005706e82527f16b5999551fe4f88f5a858ff8c7261c99f7f7c7abc0408ebb1fb9f93c03d19676020830152604082019081526107cf196040836060816007855a01fa156105185760409260066080939284938451905260a05160608401525a01fa1561051857565b604051907f2fa21b85a3973f2b298aed7d58f4e87a0f54ac61d92f580a5a03ac775681335182527f01d4849655a92ec89e30fab531963497adda5bc06cc0af31e78759c5412ae4a66020830152604082019081526107cf196040836060816007855a01fa156105185760409260066080939284938451905260a05160608401525a01fa1561051857565b604051907f17c67a302e6f9cb53c9448e8f8c7088055502adeec22759811f222ad73ed5fb582527f2a5ebb6737bae5c4740ec872c03a0913b2c5ef65e9cb2acd921999c33f4a58b36020830152604082019081526107cf196040836060816007855a01fa156105185760409260066080939284938451905260a05160608401525a01fa1561051857565b604051907f102abb8a743f640a655dc5ff43e136cf89ae52ceb5ca6c2f1fbe8b35f8466f1982527f1c7048c32d9bf9151861b737a1b6a77637ef41eef58ad6f8e2e32d1914a5b0856020830152604082019081526107cf196040836060816007855a01fa156105185760409260066080939284938451905260a05160608401525a01fa1561051857565b604051907f0f94c9807ed60697a7a4757f6a52a57c40519c4111fdcb4af2dd9daab9b0bd3a82527ef89d1051a409096add922704b500acf3de100b52014ad59e8ec9ce2ac00a116020830152604082019081526107cf196040836060816007855a01fa156105185760409260066080939284938451905260a05160608401525a01fa1561051857565b604051907f1c579461d800ffa2581b212d00c5a14eb3eda5f548966c401151d3571c41dd4382527f0a1a7305b5692d93d7c01050ceab5f60263c79b97ca8704afd5073f484c5d8f56020830152604082019081526107cf196040836060816007855a01fa156105185760409260066080939284938451905260a05160608401525a01fa1561051857565b604051907f215ac5873431efa59719fd8187131ff424bb1653ff85b45a4320b6cf98e2053182527f2829956640d2a18040a32be0ddd356d877ebe8df76f892cbe6e106bcd5223c976020830152604082019081526107cf196040836060816007855a01fa156105185760409260066080939284938451905260a05160608401525a01fa1561051857565b604051907f014896ca7f306186ecc1fc6b489b541612ce6a751b4923fcc6464d36ed218e6282527f2301b65875ea8f72c114c97678811ccbe3336bcf07848386093750316e5db6186020830152604082019081526107cf196040836060816007855a01fa156105185760409260066080939284938451905260a05160608401525a01fa1561051857565b604051907e4360cd79dd0699e258cdf921f27e9c09fc4a34f798ca019ee46e83c05f8bb382527f13ae6ccaecf8ef0e48088aad636c23015e8b9ae81157afd6cd5b7630956b0cef6020830152604082019081526107cf196040836060816007855a01fa156105185760409260066080939284938451905260a05160608401525a01fa1561051857565b604051907f1460e2df926d29014d91834d6066d2b61f37ca0a5af825dc8a84c9e4f3828d5b82527f057ed2e8858354f073684dbb6bc9413064901f115a2d8db5d9b6498ed065d2cd6020830152604082019081526107cf196040836060816007855a01fa156105185760409260066080939284938451905260a05160608401525a01fa1561051857565b604051907f2d3ac05492790a8ac5d239094a7580fc4b7e11f482f30f1f5304e0fdf78f98ad82527f058898625720bdd57b7b3d690a9f7df2cbf2ff8c81c9e552837b1ba4fd0fffd66020830152604082019081526107cf196040836060816007855a01fa156105185760409260066080939284938451905260a05160608401525a01fa1561051857565b604051907f1f422f959c2730ab3b473668a2c2afa52cd9d31462add132a6cf2149c0900c5982527f0fdd20dcff4ab2d182932a5a14eed8d615a597ac08715326a06d682e0ccbe5e96020830152604082019081526107cf196040836060816007855a01fa156105185760409260066080939284938451905260a05160608401525a01fa1561051857565b604051907f11b6072c836db6f115b6f2782e52e00fd1cf23deacdda7dbb3e352e817f7cac482527f2ba96087273f65d355e9102dcc9dd946755a9e01236193407741d066dad3c0896020830152604082019081526107cf196040836060816007855a01fa156105185760409260066080939284938451905260a05160608401525a01fa1561051857565b604051907f1b03cfc6fa401ea120e380ef7c0dc2401f0dd0c84a76dc0c48b8948dd4319ba582527f08622baf55817086baf55979d2e277e86307446372d0d1adc75414dcea0e67406020830152604082019081526107cf196040836060816007855a01fa156105185760409260066080939284938451905260a05160608401525a01fa1561051857565b604051907f019a08957d382074b747c888e1a7028c736d37e5c8919e7e1af0eec2a6b0ed0882527f147dff2dc822eaf9ffaa77bceb5c6a752e45819e93bd9af833682bf686c4e6936020830152604082019081526107cf196040836060816007855a01fa156105185760409260066080939284938451905260a05160608401525a01fa1561051857565b604051907f0de94b4fdae93840e253cca79b2c45dbfc227b3c3062b0a9437fce79fef3ed9f82527f1f97b23a08b58db06edb5f4a225cbbe04fb8f6657e17c7be66c89eaafc2111a96020830152604082019081526107cf196040836060816007855a01fa156105185760409260066080939284938451905260a05160608401525a01fa1561051857565b604051907f23befd840d1eba44f0b1cff5c2bd035bc4bf407ead73b3670d39698029c00d6382527f0a276e8804fc477093f93b071c3b8e181d0ea4557e61f5f3da0794ca9302951d6020830152604082019081526107cf196040836060816007855a01fa156105185760409260066080939284938451905260a05160608401525a01fa1561051857565b604051907f2cfab3523f7f60820294c57a1847d94e6865d5fdc9abc6c6d1d93af0e7126daa82527f2cd5ea8d64731c3ef121fb484c678dac0044f85b8674d2ab5fa773b574b119026020830152604082019081526107cf196040836060816007855a01fa156105185760409260066080939284938451905260a05160608401525a01fa1561051857565b604051907f0bec739282f4d730840a74be770cdc336ef319fdc9a013edc5de6de7ed903e8d82527f1f907d8e610f51c3ab0884b50fb777c42d1ab4196c4718b2d8dea2ccecdc7aa56020830152604082019081526107cf196040836060816007855a01fa156105185760409260066080939284938451905260a05160608401525a01fa1561051857565b604051907f24b7d372b1d8a480cdb0fa0f65634257f84c634c15f911252c2ce611c447de1f82527f136e106d821f604345d775dd5bc54f2e93aa1d349f1643a38802d0c9b691f5656020830152604082019081526107cf196040836060816007855a01fa156105185760409260066080939284938451905260a05160608401525a01fa1561051857565b604051907f269fa52f73146471e4a5059f81c8ad7fe1d90f6a09ba003b556d7c95aa00b2a882527f2b9279789b485666d61a706ecdb381a3752ac07097a63c1de096658e17f954506020830152604082019081526107cf196040836060816007855a01fa156105185760409260066080939284938451905260a05160608401525a01fa1561051857565b604051907f24025e91a00381800027652ba0b4d2346f1f2b16136366b919e8f88f9cfdbef282527f0f0b66ac2a02f00effd05fddc71516d69e122a78f6f2e4171d86f1753ce6142a6020830152604082019081526107cf196040836060816007855a01fa156105185760409260066080939284938451905260a05160608401525a01fa1561051857565b604051907f17a860f646d49b60da0b385ddd5295669a0c233dae6b1b045898fe2ed1630d2182527f27512300f408e8332911c9ba9cb8c47c982faf09710dcac5d6ddc8b490bcc3776020830152604082019081526107cf196040836060816007855a01fa156105185760409260066080939284938451905260a05160608401525a01fa1561051857565b604051907f1ef9f7c7f4fa162496ac8073fd472f93e0ca5056424263369f761f26197d117282527f05544ed49dde3355f0703bc7835dd13fed76adb3399593996567b9497650f1566020830152604082019081526107cf196040836060816007855a01fa156105185760409260066080939284938451905260a05160608401525a01fa1561051857565b604051907f0af4ee3f0c401cb811b523d67759021289a2a20debcdb4192f64deea3177f1ae82527f221519b4becca64be5e375ec6772e88966a86e9ad596c8d68cc7f6e8b54f8dff6020830152604082019081526107cf196040836060816007855a01fa156105185760409260066080939284938451905260a05160608401525a01fa1561051857565b6020907f0cedf2f3e5056d680ad189ee01bef4904e5b0c15e31f77177fa494e15d624ed56080527f0afb10e54638b4b39f8082915839ea3c67503f8244b0333ae067afed3739c99c60a05261368261010435610522565b61368e610124356105ac565b61369a61014435610636565b6136a6610164356106c0565b6136b26101843561074a565b6136be6101a4356107d4565b6136ca6101c43561085e565b6136d66101e4356108e8565b6136e261020435610972565b6136ee610224356109fc565b6136fa61024435610a86565b61370661026435610b10565b61371261028435610b9a565b61371e6102a435610c23565b61372a6102c435610cad565b6137366102e435610d37565b61374261030435610dc1565b61374e61032435610e4b565b61375a61034435610ed5565b61376661036435610f5f565b61377261038435610fe9565b61377e6103a435611073565b61378a6103c4356110fd565b6137966103e435611187565b6137a261040435611211565b6137ae6104243561129a565b6137ba61044435611324565b6137c6610464356113ae565b6137d261048435611438565b6137de6104a4356114c2565b6137ea6104c43561154c565b6137f66104e4356115d6565b61380261050435611660565b61380e610524356116e9565b61381a61054435611773565b613826610564356117fd565b61383261058435611887565b61383e6105a435611911565b61384a6105c43561199b565b6138566105e435611a25565b61386261060435611aaf565b61386e61062435611b39565b61387a61064435611bc3565b61388661066435611c4d565b61389261068435611cd7565b61389e6106a435611d61565b6138aa6106c435611deb565b6138b66106e435611e75565b6138c261070435611eff565b6138ce61072435611f89565b6138da61074435612013565b6138e66107643561209d565b6138f261078435612127565b6138fe6107a4356121b1565b61390a6107c43561223b565b6139166107e4356122c5565b6139226108043561234f565b61392e610824356123d9565b61393a61084435612463565b613946610864356124ed565b61395261088435612577565b61395e6108a435612601565b61396a6108c43561268b565b6139766108e435612715565b6139826109043561279f565b61398e61092435612829565b61399a610944356128b3565b6139a66109643561293d565b6139b2610984356129c7565b6139be6109a435612a51565b6139ca6109c435612adb565b6139d66109e435612b64565b6139e2610a0435612bee565b6139ee610a2435612c78565b6139fa610a4435612d02565b613a06610a6435612d8b565b613a12610a8435612e15565b613a1e610aa435612e9f565b613a2a610ac435612f29565b613a36610ae435612fb3565b613a42610b043561303d565b613a4e610b24356130c7565b613a5a610b4435613151565b613a66610b64356131db565b613a72610b8435613265565b613a7e610ba4356132ef565b613a8a610bc435613379565b613a96610be435613403565b613aa2610c043561348d565b613aae610c2435613517565b613aba610c44356135a1565b61010092818492358352837f30644e72e131a029b85045b68181585d97816a916871ca8d3c208c16d87cfd479101358103066101205260443561014052606435610160526084356101805260a4356101a0527f2d4d9aa7e302d9df41749d5507949d05dbea33fbb16c643b22f599a2be6df2e26101c0527f14bedd503c37ceb061d8ec60209fe345ce89830a19230301f076caff004d19266101e0527f0967032fcbf776d1afc985f88877f182d38480a653f2decaa9794cbc3bf3060c610200527f0e187847ad4c798374d0d6732bf501847dd68bc0e071241e0213bc7fc13db7ab610220527f304cfbd1e08a704a99f5e847d93f8c3caafddec46b7a0d379da69a4d112346a7610240527f1739c1b1a457a8c7313123d24d2f9192f896b7c63eea05a9d57f06547ad0cec8610260526080516102805260a0516102a0527f198e9393920d483a7260bfb731fb5d25f1aa493335a9e71297e485b7aef312c26102c0527f1800deef121f1e76426a00665e5c4479674322d4f75edadd46debd5cd992f6ed6102e05282610300917f090689d0585ff075ec9e99ad690c3395bc4b313370b38ef355acdadcd122975b83527f12c85ea5db8c6deb4aab71808dcb408fe3d1e7690c43d37b4ce6cc0166fa7daa610320528035610340520135610360527f0dcbf224c85d607788783fb1794e1e4a8a604111145ae09fa5833688218fd567610380527f274b6d7e968a3dc65f2b743f172625a0ac53b04dc56c96c4598d50578e99d3fd6103a0527f024e48b6cc0076fc4872e703568392dd7d9eff8fd01ac7013ad40c8dff3903346103c0527f1ba895e918d14eb1d1b98df31f19e93e7a304d7c87f085ea9efd8d127bee559a6103e0528160086107cf195a01fa9051169056fea26469706673582212208ecb901cc85bfc445156ea6987a112794efc02e802e8d3e1483fe09e9338ea8064736f6c634300080f0033",
  "linkReferences": {},
  "deployedLinkReferences": {}
}