{
  "_format": "hh-sol-artifact-1",
  "contractName": "Solver",
  "sourceName": "contracts/Solver.sol",
  "abi": [
    {
      "inputs": [
        {
          "internalType": "address payable",
          "name": "problems_",
          "type": "address"
        },
        {
          "internalType": "address",
          "name": "dust_",
          "type": "address"
        }
      ],
      "stateMutability": "nonpayable",
      "type": "constructor"
    },
    {
      "anonymous": false,
      "inputs": [
        {
          "indexed": true,
          "internalType": "address",
          "name": "previousOwner",
          "type": "address"
        },
        {
          "indexed": true,
          "internalType": "address",
          "name": "newOwner",
          "type": "address"
        }
      ],
      "name": "OwnershipTransferred",
      "type": "event"
    },
    {
      "anonymous": false,
      "inputs": [
        {
          "indexed": true,
          "internalType": "address",
          "name": "solver",
          "type": "address"
        },
        {
          "indexed": true,
          "internalType": "uint256",
          "name": "problemId",
          "type": "uint256"
        },
        {
          "indexed": false,
          "internalType": "uint256",
          "name": "ticksInThisMatch",
          "type": "uint256"
        },
        {
          "indexed": false,
          "internalType": "uint256",
          "name": "winnings",
          "type": "uint256"
        }
      ],
      "name": "Solved",
      "type": "event"
    },
    {
      "stateMutability": "nonpayable",
      "type": "fallback"
    },
    {
      "inputs": [
        {
          "internalType": "uint256",
          "name": "problemId",
          "type": "uint256"
        },
        {
          "internalType": "uint256",
          "name": "tickCount",
          "type": "uint256"
        },
        {
          "internalType": "uint256[2][]",
          "name": "a",
          "type": "uint256[2][]"
        },
        {
          "internalType": "uint256[2][2][]",
          "name": "b",
          "type": "uint256[2][2][]"
        },
        {
          "internalType": "uint256[2][]",
          "name": "c",
          "type": "uint256[2][]"
        },
        {
          "internalType": "uint256[][]",
          "name": "input",
          "type": "uint256[][]"
        }
      ],
      "name": "batchSolve",
      "outputs": [],
      "stateMutability": "nonpayable",
      "type": "function"
    },
    {
      "inputs": [
        {
          "internalType": "uint256",
          "name": "",
          "type": "uint256"
        }
      ],
      "name": "bodyBoost",
      "outputs": [
        {
          "internalType": "uint256",
          "name": "",
          "type": "uint256"
        }
      ],
      "stateMutability": "view",
      "type": "function"
    },
    {
      "inputs": [],
      "name": "decimals",
      "outputs": [
        {
          "internalType": "uint256",
          "name": "",
          "type": "uint256"
        }
      ],
      "stateMutability": "view",
      "type": "function"
    },
    {
      "inputs": [
        {
          "internalType": "uint256",
          "name": "problemId",
          "type": "uint256"
        }
      ],
      "name": "deleteMatch",
      "outputs": [],
      "stateMutability": "nonpayable",
      "type": "function"
    },
    {
      "inputs": [],
      "name": "dust",
      "outputs": [
        {
          "internalType": "address",
          "name": "",
          "type": "address"
        }
      ],
      "stateMutability": "view",
      "type": "function"
    },
    {
      "inputs": [
        {
          "internalType": "uint256",
          "name": "ticks",
          "type": "uint256"
        }
      ],
      "name": "getSpeedBoost",
      "outputs": [
        {
          "internalType": "uint256",
          "name": "",
          "type": "uint256"
        }
      ],
      "stateMutability": "pure",
      "type": "function"
    },
    {
      "inputs": [
        {
          "internalType": "uint256",
          "name": "problemId",
          "type": "uint256"
        }
      ],
      "name": "inProgress",
      "outputs": [
        {
          "internalType": "bool",
          "name": "",
          "type": "bool"
        }
      ],
      "stateMutability": "view",
      "type": "function"
    },
    {
      "inputs": [
        {
          "internalType": "uint256",
          "name": "",
          "type": "uint256"
        }
      ],
      "name": "matches",
      "outputs": [
        {
          "internalType": "bool",
          "name": "inProgress",
          "type": "bool"
        },
        {
          "internalType": "uint256",
          "name": "problemId",
          "type": "uint256"
        },
        {
          "internalType": "uint256",
          "name": "startingTick",
          "type": "uint256"
        }
      ],
      "stateMutability": "view",
      "type": "function"
    },
    {
      "inputs": [],
      "name": "maxTick",
      "outputs": [
        {
          "internalType": "uint256",
          "name": "",
          "type": "uint256"
        }
      ],
      "stateMutability": "view",
      "type": "function"
    },
    {
      "inputs": [],
      "name": "owner",
      "outputs": [
        {
          "internalType": "address",
          "name": "",
          "type": "address"
        }
      ],
      "stateMutability": "view",
      "type": "function"
    },
    {
      "inputs": [],
      "name": "problems",
      "outputs": [
        {
          "internalType": "address payable",
          "name": "",
          "type": "address"
        }
      ],
      "stateMutability": "view",
      "type": "function"
    },
    {
      "inputs": [],
      "name": "renounceOwnership",
      "outputs": [],
      "stateMutability": "nonpayable",
      "type": "function"
    },
    {
      "inputs": [
        {
          "internalType": "uint256",
          "name": "problemId",
          "type": "uint256"
        },
        {
          "internalType": "uint256",
          "name": "tickCount",
          "type": "uint256"
        },
        {
          "internalType": "uint256[2]",
          "name": "a",
          "type": "uint256[2]"
        },
        {
          "internalType": "uint256[2][2]",
          "name": "b",
          "type": "uint256[2][2]"
        },
        {
          "internalType": "uint256[2]",
          "name": "c",
          "type": "uint256[2]"
        },
        {
          "internalType": "uint256[]",
          "name": "input",
          "type": "uint256[]"
        }
      ],
      "name": "solveProblem",
      "outputs": [],
      "stateMutability": "nonpayable",
      "type": "function"
    },
    {
      "inputs": [
        {
          "internalType": "address",
          "name": "newOwner",
          "type": "address"
        }
      ],
      "name": "transferOwnership",
      "outputs": [],
      "stateMutability": "nonpayable",
      "type": "function"
    },
    {
      "inputs": [
        {
          "internalType": "address",
          "name": "dust_",
          "type": "address"
        }
      ],
      "name": "updateDustAddress",
      "outputs": [],
      "stateMutability": "nonpayable",
      "type": "function"
    },
    {
      "inputs": [
        {
          "internalType": "address payable",
          "name": "problems_",
          "type": "address"
        }
      ],
      "name": "updateProblemsAddress",
      "outputs": [],
      "stateMutability": "nonpayable",
      "type": "function"
    }
  ],
  "bytecode": "0x6080346200016957620023dc906001600160401b03601f38849003908101601f1916830190828211848310176200016e5780849160409687948552833981010312620001695781516001600160a01b0390818116908190036200016957602080940151938285168095036200016957600080549460018060a01b031995338782161783558851953391167f8be0079c531659141344cd1fd0a4f28419497f9722a3daafe3b4186f6b6457e08488a3610160850190811185821017620001555787929192528184528181850152818785015260019384606082015260026080820152600460a0820152600860c0820152601060e0820152816101008201528761012082015260806101408201529084600393925b600b84106200013d575091505084915054161790556002541617600255516122579081620001858239f35b805160ff168555938101939201918590820162000112565b634e487b7160e01b82526041600452602482fd5b600080fd5b634e487b7160e01b600052604160045260246000fdfe604060808152600480361015610053575b3461004e576020606492519162461bcd60e51b835282015260146024820152733737903330b6363130b1b590333ab731ba34b7b760611b6044820152fd5b600080fd5b6000803560e01c8063087c32e614610808578063130e5a87146106135780631b375b54146105e85780631db3b6dd146105cb578063313ce567146105a85780634768d4ef146105645780634e26b0cd146105365780636a890e67146104f1578063715018a6146104945780638da5cb5b1461046c5780639512ada21461036c578063ab85f1f414610264578063cd190a9214610237578063f2fde38b14610164578063f9df988f1461013b5763fad9aba31461010f5750610010565b823461013757816003193601126101375760025490516001600160a01b039091168152602090f35b5080fd5b50823461013757816003193601126101375760015490516001600160a01b039091168152602090f35b50919034610233576020366003190112610233576001600160a01b038135818116929083900361022f57610196610ad4565b82156101dd575060005492826001600160601b0360a01b8516176000555192167f8be0079c531659141344cd1fd0a4f28419497f9722a3daafe3b4186f6b6457e0600084a3f35b608490602085519162461bcd60e51b8352820152602660248201527f4f776e61626c653a206e6577206f776e657220697320746865207a65726f206160448201526564647265737360d01b6064820152fd5b8480fd5b8280fd5b509190346102335760203660031901126102335735600b8110156102335760209250600301549051908152f35b509190346102335761016036600319011261023357366063121561004e5781519061028e82610892565b60848236821161004e576044905b82821061035c5750503660a3121561004e5783516102b981610892565b806101049236841161004e578690915b8483106103425750505036610123121561004e578451916102e983610892565b826101449136831161004e57905b82821061033257505035936001600160401b03851161032e5761032061032b9536908601610a76565b936024359035610ccc565b51f35b8680fd5b81358152602091820191016102f7565b60209061034f36856109c5565b81520191019086906102c9565b813581526020918201910161029c565b509190346102335760203660031901126102335760015482516331a9108f60e11b81528235818401819052926001600160a01b0392831692869290602082602481885afa8015610462576103ca928591610434575b50163314610b9a565b823b1561013757602484918387519586948593630825ea8d60e01b85528401525af1801561042757610414575b508252600e60205260006002828420828155826001820155015551f35b6104209093919361084d565b91386103f7565b50505051903d90823e3d90fd5b610455915060203d811161045b575b61044d818361098d565b810190610b7b565b386103c1565b503d610443565b87513d86823e3d90fd5b508234610137578160031936011261013757905490516001600160a01b039091168152602090f35b5082346101375781600319360112610137576104ae610ad4565b81546001600160a01b03198116835590519082906001600160a01b03167f8be0079c531659141344cd1fd0a4f28419497f9722a3daafe3b4186f6b6457e08284a3f35b5091903461023357602036600319011261023357356001600160a01b0381169081900361023357610520610ad4565b6001600160601b0360a01b600254161760025551f35b50919034610233576020366003190112610233578160209360ff92358152600e855220541690519015158152f35b50919034610233576020366003190112610233576060928291358152600e6020522060ff815416916002600183015492015491815193151584526020840152820152f35b50823461013757816003193601126101375760209051670de0b6b3a76400008152f35b50823461013757816003193601126101375760209051610bb88152f35b508290346106105760203660031901126106105750610609602092356121d3565b9051908152f35b80fd5b508290346106105760c0366003190112610610578235926024918235604435916001600160401b0392838111610137576106509036908601610a0a565b90606435938085116101375736602386011215610137578486013590610675826109ae565b956106828a51978861098d565b828752602092898489019160071b83010191368311610804578a01905b8282106107a15750505060843581811161079d576106c09036908901610a0a565b9660a4359082821161022f573660238301121561022f57810135906106e4826109ae565b996106f18c519b8c61098d565b828b5280858c019360051b8301019336851161032e57818301935b8585106107735750505050505050805b865181101561076e57806107648a8989898961075d876107568161074f818f6107699e61074891610b51565b5197610b51565b5196610b51565b5195610b51565b5194610ccc565b610b2c565b61071c565b508651f35b843582811161079957879161078e8392863691890101610a76565b81520194019361070c565b8880fd5b8380fd5b36601f83011215610804578b516107b781610892565b608083018136821161079957908792918f86915b8383106107e557505050509160809281520191019061069f565b6107f595919293949536856109c5565b81520191018f899493926107cb565b8580fd5b5091903461023357602036600319011261023357356001600160a01b0381169081900361023357610837610ad4565b6001600160601b0360a01b600154161760015551f35b6001600160401b03811161086057604052565b634e487b7160e01b600052604160045260246000fd5b61016081019081106001600160401b0382111761086057604052565b604081019081106001600160401b0382111761086057604052565b610c8081019081106001600160401b0382111761086057604052565b610b4081019081106001600160401b0382111761086057604052565b610a0081019081106001600160401b0382111761086057604052565b6108c081019081106001600160401b0382111761086057604052565b61078081019081106001600160401b0382111761086057604052565b61064081019081106001600160401b0382111761086057604052565b61050081019081106001600160401b0382111761086057604052565b6103c081019081106001600160401b0382111761086057604052565b90601f801991011681019081106001600160401b0382111761086057604052565b6001600160401b0381116108605760051b60200190565b9080601f8301121561004e57604051916109de83610892565b82906040810192831161004e57905b8282106109fa5750505090565b81358152602091820191016109ed565b81601f8201121561004e57803590610a21826109ae565b92604092610a318451958661098d565b808552602091828087019260061b8501019381851161004e578301915b848310610a5e5750505050505090565b838691610a6b84866109c5565b815201920191610a4e565b81601f8201121561004e57803591610a8d836109ae565b92610a9b604051948561098d565b808452602092838086019260051b82010192831161004e578301905b828210610ac5575050505090565b81358152908301908301610ab7565b6000546001600160a01b03163303610ae857565b606460405162461bcd60e51b815260206004820152602060248201527f4f776e61626c653a2063616c6c6572206973206e6f7420746865206f776e65726044820152fd5b6000198114610b3b5760010190565b634e487b7160e01b600052601160045260246000fd5b8051821015610b655760209160051b010190565b634e487b7160e01b600052603260045260246000fd5b9081602091031261004e57516001600160a01b038116810361004e5790565b15610ba157565b60405162461bcd60e51b815260206004820152600d60248201526c2737ba103a34329037bbb732b960991b6044820152606490fd5b806000190460051181151516610b3b5760050290565b7f33333333333333333333333333333333333333333333333333333333333333338111600116610b3b5760050290565b9081602091031261004e5751801515810361004e5790565b6000915b60028310610c4557505050565b600190825181526020809101920192019190610c38565b9060009182915b600280841015610ca85782518590835b838310610c9157505050506020604060019201920192019190610c63565b600190825181526020809101920192019190610c73565b5050505050565b81198111610b3b570190565b90600a811015610b655760051b0190565b94919290600154936000946040516331a9108f60e11b815288600482015260208160248160018060a01b0386165afa9081156121a95790610d1f9188916121b4575b506001600160a01b03163314610b9a565b6040516375d279b360e11b815260048101899052936080856024816001600160a01b0386165afa9788156121a9578795889961216b575b50610d6086610bd6565b8060001904600211811515166121575760011b87510361211b576040516343569ffb60e01b8152600481018790526024810186905292602090849060449082906001600160a01b03165afa9283156121105788936120ef575b506001600160a01b038316156120b7576003860361188a5760405191610dde83610971565b6103c0809336903760405192610df384610971565b368437885b601e811061186a5750610e28949291610e32610e3c926040519788966301d28c8160e31b88526004880190610c34565b6044860190610c5c565b60c4840190610c34565b8761010483015b601e821061185057506020936104c492508391506001600160a01b03165afa908115611845578591611816575b50156117da575b858452600e6020526040842094604051958660608101106001600160401b036060890111176117c65791610ed491604093606089018552600260ff825416159182158b52600181015460208c01520154858a015261178a57610caf565b9401519182851061177657610bb88386031161173d576001546040516310211ca160e21b815260048101889052906001600160a01b031661014082602481845afa918215611685578692611690575b50803b15610804578580916044604051809481936304b24e8560e01b83528d60048401528c60248401525af1801561168557611672575b50908291859186610140604051610f7081610876565b8281528260208201528260408201528260608201528260808201528260a08201528260c08201528260e082015282610100820152826101208201520152865b8481106111835750505014610fc5575050505050565b610fd08285036121d3565b90600b81101561116f5760030154908060001904821181151516610b3b5702670de0b6b3a7640000908060001904821181151516610b3b57600254910292906001600160a01b0316803b15610137578180916044604051809481936340c10f1960e01b83523360048401528960248401525af1801561113c5790829161115b575b50506001546001600160a01b0316803b1561013757818091602460405180948193630825ea8d60e01b83528b60048401525af1801561113c57908291611147575b50506001546001600160a01b0316803b1561013757818091602460405180948193630674876160e11b83528b60048401525af1801561113c57611128575b5060026040828760009452600e6020522082815582600182015501556040519203825260208201527fd1a83cf15e893baacb4994c8e0feb9cb86c3725254e5c55c6f17b3d19c56dc4760403392a33880808080610ca8565b611132829161084d565b61061057386110d0565b6040513d84823e3d90fd5b6111509061084d565b610610578038611092565b6111649061084d565b610610578038611051565b634e487b7160e01b84526032600452602484fd5b60015493945091929091906001600160a01b03166111a18285610cbb565b51906040519163618faeb560e11b83528b6004840152602483015261016082604481845afa9182156114715789926115c2575b5060608201516111fe6111f86111e98a610bec565b6111f287610bd6565b90610caf565b86610b51565b51036115885761121661121084610bd6565b85610b51565b516060830152608082015161123661122d89610bec565b6111f286610bd6565b60011981116114ca57600161124c910186610b51565b510361154e5761125b83610bd6565b6001198111611480576001611271910185610b51565b51608083015260a082015161128861122d89610bec565b60021981116114ca57600261129e910186610b51565b5103611516576112ad83610bd6565b60021981116114805760026112c3910185610b51565b5160a083015260c08201516112da61122d89610bec565b60031981116114ca5760036112f0910186610b51565b51036114de576112ff83610bd6565b6003198111611480576003611315910185610b51565b5160c083015260e082015161132c61122d89610bec565b60041981116114ca576004611342910186610b51565b51036114945761135183610bd6565b6004198111611480576004611367910185610b51565b5160e08301526113778386610cbb565b51813b1561147c5789906101a48d8360405195869485936334d70fe560e21b855260048501526024840152875160448401526020880151606484015260408801516084840152606088015160a4840152608088015160c484015260a088015160e484015260c088015161010484015260e08801516101248401526101008801516101448401526101208801516101648401526101408801516101848401525af1801561147157908991611459575b505060e0015115611444575b61143a90610b2c565b9084939291610faf565b9261145161143a91610b2c565b939050611431565b6114629061084d565b61146d578738611425565b8780fd5b6040513d8b823e3d90fd5b8980fd5b634e487b7160e01b8a52601160045260248afd5b60405162461bcd60e51b815260206004820152600e60248201526d496e76616c69642072616469757360901b6044820152606490fd5b634e487b7160e01b8b52601160045260248bfd5b60405162461bcd60e51b815260206004820152601060248201526f496e76616c696420766563746f72207960801b6044820152606490fd5b60405162461bcd60e51b815260206004820152601060248201526f092dcecc2d8d2c840eccac6e8dee440f60831b6044820152606490fd5b60405162461bcd60e51b8152602060048201526012602482015271496e76616c696420706f736974696f6e207960701b6044820152606490fd5b60405162461bcd60e51b8152602060048201526012602482015271092dcecc2d8d2c840e0dee6d2e8d2dedc40f60731b6044820152606490fd5b909150610160813d6101601161166a575b816115e1610160938361098d565b8101031261079957610140604051916115f983610876565b805183526020810151602084015260408101516040840152606081015160608401526080810151608084015260a081015160a084015260c081015160c084015260e081015160e0840152610100810151610100840152610120810151610120840152015161014082015290386111d4565b3d91506115d3565b61167e9095919561084d565b9338610f5a565b6040513d88823e3d90fd5b909150610140903d61014011611735575b6116ab828261098d565b61014081838101031261032e57818101601f8201121561032e5760405191826101408101106001600160401b03610140850111176117215761014083016040528290820161014083011161146d5781905b61014083018210611711575050509038610f23565b81518152602091820191016116fc565b634e487b7160e01b88526041600452602488fd5b3d91506116a1565b60405162461bcd60e51b815260206004820152601160248201527013585e081d1a58dac8195e18d959591959607a1b6044820152606490fd5b634e487b7160e01b84526011600452602484fd5b600188528084890152888752600e6020528387208851151560ff80198354169116178155602089015160018201556002858a0151910155610caf565b634e487b7160e01b86526041600452602486fd5b60405162461bcd60e51b815260206004820152601460248201527324b73b30b634b21019903137b23c90383937b7b360611b6044820152606490fd5b611838915060203d60201161183e575b611830818361098d565b810190610c1c565b38610e70565b503d611826565b6040513d87823e3d90fd5b829350602080916001939451815201930191018492610e43565b80611878611885928b610b51565b518160051b860152610b2c565b610df8565b600486036119b1576040519161189f83610955565b6105008093369037604051926118b484610955565b368437885b6028811061199e5750610e28949291610e326118e9926040519788966319da330f60e01b88526004880190610c34565b8761010483015b60288210611984575060209361060492508391506001600160a01b03165afa908115611845578591611965575b5015611929575b610e77565b60405162461bcd60e51b815260206004820152601460248201527324b73b30b634b2101a103137b23c90383937b7b360611b6044820152606490fd5b61197e915060203d60201161183e57611830818361098d565b3861191d565b8293506020809160019394518152019301910184926118f0565b806118786119ac928b610b51565b6118b9565b60058603611ad157604051916119c683610939565b6106408093369037604051926119db84610939565b368437885b60328110611abe5750610e28949291610e32611a109260405197889663a63bed3760e01b88526004880190610c34565b8761010483015b60328210611aa4575060209361074492508391506001600160a01b03165afa908115611845578591611a85575b50610e775760405162461bcd60e51b815260206004820152601460248201527324b73b30b634b2101a903137b23c90383937b7b360611b6044820152606490fd5b611a9e915060203d60201161183e57611830818361098d565b38611a44565b829350602080916001939451815201930191018492611a17565b80611878611acc928b610b51565b6119e0565b60068603611bf15760405191611ae68361091d565b610780809336903760405192611afb8461091d565b368437885b603c8110611bde5750610e28949291610e32611b309260405197889663a54a2bcf60e01b88526004880190610c34565b8761010483015b603c8210611bc4575060209361088492508391506001600160a01b03165afa908115611845578591611ba5575b50610e775760405162461bcd60e51b815260206004820152601460248201527324b73b30b634b2101b103137b23c90383937b7b360611b6044820152606490fd5b611bbe915060203d60201161183e57611830818361098d565b38611b64565b829350602080916001939451815201930191018492611b37565b80611878611bec928b610b51565b611b00565b60078603611d115760405191611c0683610901565b6108c0809336903760405192611c1b84610901565b368437885b60468110611cfe5750610e28949291610e32611c5092604051978896632cb278a960e11b88526004880190610c34565b8761010483015b60468210611ce457506020936109c492508391506001600160a01b03165afa908115611845578591611cc5575b50610e775760405162461bcd60e51b815260206004820152601460248201527324b73b30b634b2101b903137b23c90383937b7b360611b6044820152606490fd5b611cde915060203d60201161183e57611830818361098d565b38611c84565b829350602080916001939451815201930191018492611c57565b80611878611d0c928b610b51565b611c20565b60088603611e315760405191611d26836108e5565b610a00809336903760405192611d3b846108e5565b368437885b60508110611e1e5750610e28949291610e32611d70926040519788966361fd13f960e11b88526004880190610c34565b8761010483015b60508210611e045750602093610b0492508391506001600160a01b03165afa908115611845578591611de5575b50610e775760405162461bcd60e51b815260206004820152601460248201527324b73b30b634b2101c103137b23c90383937b7b360611b6044820152606490fd5b611dfe915060203d60201161183e57611830818361098d565b38611da4565b829350602080916001939451815201930191018492611d77565b80611878611e2c928b610b51565b611d40565b60098603611f515760405191611e46836108c9565b610b40809336903760405192611e5b846108c9565b368437885b605a8110611f3e5750610e28949291610e32611e9092604051978896634456e8b360e01b88526004880190610c34565b8761010483015b605a8210611f245750602093610c4492508391506001600160a01b03165afa908115611845578591611f05575b506119245760405162461bcd60e51b815260206004820152601460248201527324b73b30b634b2101c903137b23c90383937b7b360611b6044820152606490fd5b611f1e915060203d60201161183e57611830818361098d565b38611ec4565b829350602080916001939451815201930191018492611e97565b80611878611f4c928b610b51565b611e60565b600a86036120725760405191611f66836108ad565b610c80809336903760405192611f7b846108ad565b368437885b6064811061205f5750610e28949291610e32611fb09260405197889663170ac5a560e11b88526004880190610c34565b8761010483015b606482106120455750602093610d8492508391506001600160a01b03165afa908115611845578591612026575b506119245760405162461bcd60e51b815260206004820152601560248201527424b73b30b634b2101898103137b23c90383937b7b360591b6044820152606490fd5b61203f915060203d60201161183e57611830818361098d565b38611fe4565b829350602080916001939451815201930191018492611fb7565b8061187861206d928b610b51565b611f80565b60405162461bcd60e51b815260206004820152601860248201527f496e76616c6964206e756d626572206f6620626f6469657300000000000000006044820152606490fd5b60405162461bcd60e51b815260206004820152601060248201526f24b73b30b634b2103b32b934b334b2b960811b6044820152606490fd5b61210991935060203d60201161045b5761044d818361098d565b9138610db9565b6040513d8a823e3d90fd5b60405162461bcd60e51b8152602060048201526014602482015273092dcecc2d8d2c840d2dce0eae840d8cadccee8d60631b6044820152606490fd5b634e487b7160e01b89526011600452602489fd5b955097506080853d6080116121a1575b816121886080938361098d565b8101031261032e57606060208601519501519738610d56565b3d915061217b565b6040513d89823e3d90fd5b6121cd915060203d60201161045b5761044d818361098d565b38610d0e565b6101f481116121e25750600690565b6103e881116121f15750600590565b6105dc81116122005750600490565b6107d0811161220f5750600390565b6109c41061221c57600290565b60019056fea2646970667358221220c0b91103271f5c11c8245da898fc9b586272a07b4d0ec28f3eba2d95255b1fe664736f6c634300080f0033",
  "linkReferences": {},
  "deployedLinkReferences": {}
}