{
  "_format": "hh-sol-artifact-1",
  "contractName": "Groth16Verifier",
  "sourceName": "contracts/Game_6_100Verifier.sol",
  "abi": [
    {
      "inputs": [
        {
          "internalType": "uint256[2]",
          "name": "_pA",
          "type": "uint256[2]"
        },
        {
          "internalType": "uint256[2][2]",
          "name": "_pB",
          "type": "uint256[2][2]"
        },
        {
          "internalType": "uint256[2]",
          "name": "_pC",
          "type": "uint256[2]"
        },
        {
          "internalType": "uint256[60]",
          "name": "_pubSignals",
          "type": "uint256[60]"
        }
      ],
      "name": "verifyProof",
      "outputs": [
        {
          "internalType": "bool",
          "name": "",
          "type": "bool"
        }
      ],
      "stateMutability": "view",
      "type": "function"
    }
  ],
  "bytecode": "0x60808060405234610016576129db908161001c8239f35b600080fdfe6080604052600436101561001257600080fd5b6000803560e01c63a54a2bcf1461002857600080fd5b3461035857610880366003190112610358576100433661035b565b3660c411610354576100543661036d565b90610884368111610350579161034c916103476020959461040060405261007d6101043561037b565b6100896101243561037b565b6100956101443561037b565b6100a16101643561037b565b6100ad6101843561037b565b6100b96101a43561037b565b6100c56101c43561037b565b6100d16101e43561037b565b6100dd6102043561037b565b6100e96102243561037b565b6100f56102443561037b565b6101016102643561037b565b61010d6102843561037b565b6101196102a43561037b565b6101256102c43561037b565b6101316102e43561037b565b61013d6103043561037b565b6101496103243561037b565b6101556103443561037b565b6101616103643561037b565b61016d6103843561037b565b6101796103a43561037b565b6101856103c43561037b565b6101916103e43561037b565b61019d6104043561037b565b6101a96104243561037b565b6101b56104443561037b565b6101c16104643561037b565b6101cd6104843561037b565b6101d96104a43561037b565b6101e56104c43561037b565b6101f16104e43561037b565b6101fd6105043561037b565b6102096105243561037b565b6102156105443561037b565b6102216105643561037b565b61022d6105843561037b565b6102396105a43561037b565b6102456105c43561037b565b6102516105e43561037b565b61025d6106043561037b565b6102696106243561037b565b6102756106443561037b565b6102816106643561037b565b61028d6106843561037b565b6102996106a43561037b565b6102a56106c43561037b565b6102b16106e43561037b565b6102bd6107043561037b565b6102c96107243561037b565b6102d56107443561037b565b6102e16107643561037b565b6102ed6107843561037b565b6102f96107a43561037b565b6103056107c43561037b565b6103116107e43561037b565b61031d6108043561037b565b6103296108243561037b565b6103356108443561037b565b6103416108643561037b565b3561037b565b612405565b8152f35b8380fd5b5080fd5b80fd5b9060049160441161036857565b600080fd5b9060c4916101041161036857565b7f30644e72e131a029b85045b68181585d97816a916871ca8d3c208c16d87cfd4711156103a457565b6000805260206000f35b604051907f12c6e5cceb0e257e7eaa46f80ff20c5031e5fe7bbb8e4d0d64624e13b6700f7382527f0df372c0377a11e522968c90b3eb2c371e6f7072e60f5bbf04de11116b7c1d976020830152604082019081526107cf196040836060816007855a01fa156103a45760409260066080939284938451905260a05160608401525a01fa156103a457565b604051907f0c2881d246a13943a5caa9bf6c33270e54cf724fcfa3919dc7eb645a6250054682527f0e4862e9395ca569998f3a6a395c64249a71df8ef5e4be1ab2569f4fe94036ce6020830152604082019081526107cf196040836060816007855a01fa156103a45760409260066080939284938451905260a05160608401525a01fa156103a457565b604051907f0ce6f33a7a0168627a528fb21007c7bca1b603b3f388c464fe1c0a65e22d3ea982527f2422a98c5faab8e865215c43e01227c871372c489aee6bfb628ca089a7b9bab66020830152604082019081526107cf196040836060816007855a01fa156103a45760409260066080939284938451905260a05160608401525a01fa156103a457565b604051907f18a0f9ffc009138762f0a1927826bb3953e5370d187566cc5b465a4989db11bb82527f11e8d8ccbe70f6d73b85e0c30d3c4a856efa74e0db8356f937eb8f8dbd18425f6020830152604082019081526107cf196040836060816007855a01fa156103a45760409260066080939284938451905260a05160608401525a01fa156103a457565b604051907f23e76ca70f2351546b61ab2e8f535fc4e9bcf6f4ce8277330077855aa8ba81b882527f1d9d143d4a26f9d86c363b747cc6eec41af76b89e1c8708a0811b685df37a5666020830152604082019081526107cf196040836060816007855a01fa156103a45760409260066080939284938451905260a05160608401525a01fa156103a457565b604051907f0bea88e1fc2c4409fed3cf59cf151d33299ddd86e55e7985e6ad55a46bbfd87182527f26570dc6a23ec42d2fb8127c3bc3fa0b598985834e0c219d7d6fb5355a8ce6b36020830152604082019081526107cf196040836060816007855a01fa156103a45760409260066080939284938451905260a05160608401525a01fa156103a457565b604051907f02740def343347b783dc890a4b3587592bd2eebd67341bbb4d906b8d948c382c82527f208144acc33f28e64523f36b6331a861f9ceefe718f52201c23b029a7dfcbb6a6020830152604082019081526107cf196040836060816007855a01fa156103a45760409260066080939284938451905260a05160608401525a01fa156103a457565b604051907f20472ea1417e3b36cd246865e40d100cedd9fd371854e442b3911cbf7b9eb03182527f03bd41e00378136ee3e4bcf63ac3725468b20d9ae7072e95374960b6b4d805216020830152604082019081526107cf196040836060816007855a01fa156103a45760409260066080939284938451905260a05160608401525a01fa156103a457565b604051907f0a252fce069e9c63377d54c9f0f97df5feb01186ee17333f64b4ba07375742e082527f0dab24a174b94a3fc7f3a5d1eb41976e257f1a5feff0a840d386054f5d1797b86020830152604082019081526107cf196040836060816007855a01fa156103a45760409260066080939284938451905260a05160608401525a01fa156103a457565b604051907f07e7d7687b57039af1794bc18f274e976e99a9fa9335448758c3d68833f2df5182527f066b2607d20dcddefdcc56c703fd60abe374a98363ef594f721e098e69ce24f26020830152604082019081526107cf196040836060816007855a01fa156103a45760409260066080939284938451905260a05160608401525a01fa156103a457565b604051907f3063834d59a1f552cd2c5f72bb19ccdcb03a25d4b249f34f7417b258372455a282527f271c5580a0e0c5586e33d7c295f21c596ff4985440400d08f6bd15d4dce7d59a6020830152604082019081526107cf196040836060816007855a01fa156103a45760409260066080939284938451905260a05160608401525a01fa156103a457565b604051907f0def53cd283943729cae5ed8609f8e44226b21c99a6fd746a8ec4b494fb2ac8c82527f1d7b270b060811f8bcd139f2852234f1eddad2f4041b3e8257078affc97b129a6020830152604082019081526107cf196040836060816007855a01fa156103a45760409260066080939284938451905260a05160608401525a01fa156103a457565b604051907f11a8fbcadea18164f0fa7ff96c3b83018a3fededa72a0cd1c9659ae7c6b13a2582527f098b09dde756063a3c72a7af55f5df7162cdb4760ee0e61e79d19f2940545ed16020830152604082019081526107cf196040836060816007855a01fa156103a45760409260066080939284938451905260a05160608401525a01fa156103a457565b604051907f09e88a5f1df090bca9a331518143a44bccd9fc86c8c59fff3b278ebaf5bb600982527f0fe45456212eb03be86d9638fb4e83aa36b836bef3e9007a47fcef65516b09576020830152604082019081526107cf196040836060816007855a01fa156103a45760409260066080939284938451905260a05160608401525a01fa156103a457565b604051907f23c5b02007a82b03c773d20d6a3bb7b099f5457d0db766a454ef2ef4d2e7c4ae82527f100fa39d2ff15f177d59cc805d5ea765e0e82b420d7f3378e19e0f439efa8fe06020830152604082019081526107cf196040836060816007855a01fa156103a45760409260066080939284938451905260a05160608401525a01fa156103a457565b604051907f120755071980a85121f1b8adddbf8a995a3d84c2290b16c329e6da39b9be0a1982527f24c2a03c08876f58be526de2dae94ad7f6117a9fe449a3b9466bf62b1baf0b716020830152604082019081526107cf196040836060816007855a01fa156103a45760409260066080939284938451905260a05160608401525a01fa156103a457565b604051907f15c9536f2af60ac09125463a4843d9eb9c1771df222679950a6102009d9d707482527f27f0ee5ce0b1183abf9fe1c5855c468a89c8bde4d64b40a81b482968f27c76216020830152604082019081526107cf196040836060816007855a01fa156103a45760409260066080939284938451905260a05160608401525a01fa156103a457565b604051907f05a9a77c76eeedaf894039062f18031a79f3fcd203167710c5ba044123ddf75a82527f1e4d7af3a3344168dec51cde758b110cc0c65983bf444f05da2359cd43d7ad816020830152604082019081526107cf196040836060816007855a01fa156103a45760409260066080939284938451905260a05160608401525a01fa156103a457565b604051907f0789f17b06bcffdc54935bf63c19da315f1f83d7269d0ae27d841ba487cba94c82527f1a841c3fa4765286f25b7d40860adc88066f2853c9d66bf0f3e252bbab07e3426020830152604082019081526107cf196040836060816007855a01fa156103a45760409260066080939284938451905260a05160608401525a01fa156103a457565b604051907f1f58879e7997de5451f55cc90a192f819f6b02d170d280a723ac4be406755e6482527f1d62864eb832459ce5e4c30cbd2e4dd252bba694c2a3547a5f19967a61282f236020830152604082019081526107cf196040836060816007855a01fa156103a45760409260066080939284938451905260a05160608401525a01fa156103a457565b604051907f0d0c6c7270d37707134109997fcc838fa17bab20cbb34a669b01555f926b137182527f2bd850669dfdf239b3f39c918fbc298690787edfb09eba36207eb710fabc6fa16020830152604082019081526107cf196040836060816007855a01fa156103a45760409260066080939284938451905260a05160608401525a01fa156103a457565b604051907f14639c30848f828de67c5a7c095bea87cf7e4e627aeea1adf75e71a8d808d4dd82527f2484cc28ba04529b102b1d4422b97a484c97dc5af8a8400fdc07da0b536b7cb16020830152604082019081526107cf196040836060816007855a01fa156103a45760409260066080939284938451905260a05160608401525a01fa156103a457565b604051907f02220fe04d5fa3f9c30e2dbd2dd48383ae5904e77981c890a60dfec9898410f882527f23afc3567892e848d325407289f43e90ccf39cf89f99548376fc6feb5e55efc56020830152604082019081526107cf196040836060816007855a01fa156103a45760409260066080939284938451905260a05160608401525a01fa156103a457565b604051907f11c4f39de22015cb27ba886c2fa69140a8f9513717a703a993a1049dfaf3f49082527f1e20ba4c237bf5893adb6b0aaa8555ad5aee32c5df6d79d4558ff3a4ad0647f96020830152604082019081526107cf196040836060816007855a01fa156103a45760409260066080939284938451905260a05160608401525a01fa156103a457565b604051907f0af28bba1a9c1ae1a543e33999bb19afeb4f5ccd44dfcd650eaacd5546bb5b1d82527f24c1125a199f22ad13e992299226a9d1548cdcac1fd37a059c515ffb24b51e396020830152604082019081526107cf196040836060816007855a01fa156103a45760409260066080939284938451905260a05160608401525a01fa156103a457565b604051907f01c163c295c60499330d0992105955ed7252c5e4ec0409f2b3cb91b266cadc8e82527e26e5632fced98df160bdbc806894ddceb1836ee78a6a2ab4d4c2683b9544af6020830152604082019081526107cf196040836060816007855a01fa156103a45760409260066080939284938451905260a05160608401525a01fa156103a457565b604051907f2d899926bdd3f9ca606cdd1b0137c52c7227a3e19dc7fe74969e57efb0ab581682527f2687f60794aa56f88f4cd616fb30de1a46cb752d3636f1f7ed78c41757a66bdd6020830152604082019081526107cf196040836060816007855a01fa156103a45760409260066080939284938451905260a05160608401525a01fa156103a457565b604051907f11cc1c15f8a5897bb7eb3cd0e0eacb9987953da729190be36d1841d9bd80b0d282527f07e93a248f90ed0e268066e77d6590d3610e94aa8bc37824711ad24c1b1bf28b6020830152604082019081526107cf196040836060816007855a01fa156103a45760409260066080939284938451905260a05160608401525a01fa156103a457565b604051907f2f5a4c5bb391be23ab315bbbff5796f7282fd23d70c9d224c73ba896c49c220782527f2b754d415fbfba46d45c355af8238d8e1097ae452a8f4ad8e0d654a865981de76020830152604082019081526107cf196040836060816007855a01fa156103a45760409260066080939284938451905260a05160608401525a01fa156103a457565b604051907f1eb5d21878a51d5fb2ae9da52f1da4bce174a20b3ee9e60c3a595c1eaff744f282527f10d81ca493744c4b50f654382f202e5537c094c7978df1e579e4989a2e1311c66020830152604082019081526107cf196040836060816007855a01fa156103a45760409260066080939284938451905260a05160608401525a01fa156103a457565b604051907f06e51f8ece8eea5ad44891df12183c8ea27b146f33eb171994663c85c3abfed282527f2b6e6209c3423d5c62a0757686235e88b725e269a061d61289e7b889b0e1d6086020830152604082019081526107cf196040836060816007855a01fa156103a45760409260066080939284938451905260a05160608401525a01fa156103a457565b604051907f10148030bacb4b4a3f0af24c8527e843b70704e7bb0449f0396a9051e10c51f182527f22507ee9a0ba72cb31e89440c68cd5d5c0059ad89416fccb99a8bc489e6d994f6020830152604082019081526107cf196040836060816007855a01fa156103a45760409260066080939284938451905260a05160608401525a01fa156103a457565b604051907f1388308217ada6c1abf3897fbbf9f2fbc845f70871bc92245442641d1b3a0f8082527f110c3ba35670223a2e4805f69bd42b07e1d15590bf9f9b1d2fcbe9cb206eed7d6020830152604082019081526107cf196040836060816007855a01fa156103a45760409260066080939284938451905260a05160608401525a01fa156103a457565b604051907f0ba1f43a0d7672e377e90d05c2de7a41d9c7cbe53a19acf420dda4cf20ce0d2d82527f19f80582bafbfdd6184221a2fff49443a76608b796279880690adc2d956fa0256020830152604082019081526107cf196040836060816007855a01fa156103a45760409260066080939284938451905260a05160608401525a01fa156103a457565b604051907f113ef466c6ed2c94e6fb4fb39b8fc566f3daca5ab0fcd35f3a92fc62616da0f582527f164e3209bdd46518576c0b74fc2a286c59bb93fb4bab81308bbbd2f782aa73b66020830152604082019081526107cf196040836060816007855a01fa156103a45760409260066080939284938451905260a05160608401525a01fa156103a457565b604051907f0f98574d20bd7c3fc7076fc40dfb24f22bd2ca3f4224cac7d525514edcc8e33c82527f1200fc1539386ab88799aa273e80379e6babf98b9fd65e2465dc5feb0b47785e6020830152604082019081526107cf196040836060816007855a01fa156103a45760409260066080939284938451905260a05160608401525a01fa156103a457565b604051907f01f614364ab520a47515a37e1667ff488f21f806048b6ff465cdac96542e276a82527f26de8ba4629d67c1ddac1712f8c9ff61f34e982a239e479c215f26c5f8e4f2976020830152604082019081526107cf196040836060816007855a01fa156103a45760409260066080939284938451905260a05160608401525a01fa156103a457565b604051907f08f38dde5bd962bf65bcc4e7f500b469e53a1ab0e7d51ad822ee81511b50a09b82527f09dcc0d219079183bb8804c6eb1b78728f800014cd05d67c4aa0f0b331b088d56020830152604082019081526107cf196040836060816007855a01fa156103a45760409260066080939284938451905260a05160608401525a01fa156103a457565b604051907f05baf803b9bd5ac032f086beb44bc3451e79ae018fb9f1d1f5cd6b4e079e0b4f82527f0d6dd5d6c4add2396da106f2ab2325281cd172de2a51dc87f34239785acba9b96020830152604082019081526107cf196040836060816007855a01fa156103a45760409260066080939284938451905260a05160608401525a01fa156103a457565b604051907f163cce7890f76cb4ec1cb30860976472f4f5c7df483cbc30bf224a9fee46effc82527f297e4b8aac7d6515ab9d2b5c9a6a5c8603a0f1a57a52395418dbf3ab54b3b3f16020830152604082019081526107cf196040836060816007855a01fa156103a45760409260066080939284938451905260a05160608401525a01fa156103a457565b604051907f0aea89ac0edcd66e2a14e3b56c542cc7174ec542d6cc7c4e572c1abbc300489c82527f26ed19f5336d617cf8e658b5c1f90fc5bad403b1d34578179afd8728bf4469256020830152604082019081526107cf196040836060816007855a01fa156103a45760409260066080939284938451905260a05160608401525a01fa156103a457565b604051907f1e7c55c9c023893c6bf1b24849636349865e68c708c7f822255ce90d2bc5204082527f1f69f6c83e159c53b968b1d8204a254a1a8295dd203b4315448cc4868d2607eb6020830152604082019081526107cf196040836060816007855a01fa156103a45760409260066080939284938451905260a05160608401525a01fa156103a457565b604051907f18f8216fa40a6588fcc2f886779ab309a53a03a0f7daca5145432cd407b5530a82527f17f15eedea4e681e67278eb4710925a76c1d0ab3e21038b8ae31d4ac606c120b6020830152604082019081526107cf196040836060816007855a01fa156103a45760409260066080939284938451905260a05160608401525a01fa156103a457565b604051907f27d8b0bcd45f00a874ee2fb0fa4d2cb5e3b160f3eb836ba1a32846bfb27f91cf82527f1e3ff46c0871044dcb4c3c8fab958bb1035c4164509ed388ce1f89257ecb11ce6020830152604082019081526107cf196040836060816007855a01fa156103a45760409260066080939284938451905260a05160608401525a01fa156103a457565b604051907f28f68f76f7a5f4d5d0660fde8276e1071fef100389aa5ce2baaedbb65bd1ba5a82527f2394a7f126db6b9af1f9ae5c20590be17bb71232cf9715c7b4b21f809984067a6020830152604082019081526107cf196040836060816007855a01fa156103a45760409260066080939284938451905260a05160608401525a01fa156103a457565b604051907f09591f537a8cc16c531e27fbcd963c7eb6a683c208eafc6b9eb5fdf790bfb07f82527f18e7239d4ecfa060683c3b62579e940a94b28814574da050b52d8af0659ca2dc6020830152604082019081526107cf196040836060816007855a01fa156103a45760409260066080939284938451905260a05160608401525a01fa156103a457565b604051907f0a7aba7ae814af0c2467112518bb7292c2a4b5c3851743aa60b2f9a2c21d9d5b82527f2d0cee02890af14636aa4f9b877822dd21f4ce1e7d31624fe2e8df7832459c756020830152604082019081526107cf196040836060816007855a01fa156103a45760409260066080939284938451905260a05160608401525a01fa156103a457565b604051907f07d7adf4aafe70c849a42447c6707f2139c647f4ec6232682e0bcfe23f4a84e882527f0f9519a001bc098c5813f14816d4ff508cdc211cbf9c319d50228d768c7c20b76020830152604082019081526107cf196040836060816007855a01fa156103a45760409260066080939284938451905260a05160608401525a01fa156103a457565b604051907f01f8b9e8f4c26ba45ff38735fd9a95c9607998da4d22bcc15177382bbd104e0882527f0f4134e7476f1bc05d44a30a70d2dedace17c2abb010fd8eae2a126dcc21e1f36020830152604082019081526107cf196040836060816007855a01fa156103a45760409260066080939284938451905260a05160608401525a01fa156103a457565b604051907f13dcafb4b422d6ffba57208d96d7a039b696b07d28dd324276fa3d0e314233c582527f0a7f3ff31819b0971d04d3cdaf881de2d184b9a6a33f9ff34a42ccc205612b7c6020830152604082019081526107cf196040836060816007855a01fa156103a45760409260066080939284938451905260a05160608401525a01fa156103a457565b604051907f0421de5388538c31af93cf46636457aeb3b6b596c2a4cb278dbc350f5317ca9082527f19473c09f8e71f85f6a4c8e8455372d897773595ae8aeb3d2357bac4d59d2a6f6020830152604082019081526107cf196040836060816007855a01fa156103a45760409260066080939284938451905260a05160608401525a01fa156103a457565b604051907f23dc1c1950a4a454bcb34f0d2b14007a229dd0b24032575d1dc1cb06408c5f5082527f24e0a41038676cae6e3ceafc776255c73f2d895bb786e9c98ea17ce69de528646020830152604082019081526107cf196040836060816007855a01fa156103a45760409260066080939284938451905260a05160608401525a01fa156103a457565b604051907f2c1ab1c36e85bf5dd78203ff7a77879fbf9324bd7f203198bda5678d2b5d321682527f251790b2c102ea289a1086ea70fe121dd3a6cc44d1c3c752d0b877a93bdd70d06020830152604082019081526107cf196040836060816007855a01fa156103a45760409260066080939284938451905260a05160608401525a01fa156103a457565b604051907f28972311aef791bfe645a9da2204a39cf42a071bdfbbd7d5b234873119228ced82527f2226fddbd8eaddb879bf5bc501ae498b8e19433ce8d641852cab3dc65f01fd516020830152604082019081526107cf196040836060816007855a01fa156103a45760409260066080939284938451905260a05160608401525a01fa156103a457565b604051907f1c2935defc40b90825b63734932908a51bbe479129b22ec1907c1cd9db02b4eb82527f2e56f288a43c9e110ed40ecbe93ec2c8fc2df4799df89bdcee58c3bae9bab14e6020830152604082019081526107cf196040836060816007855a01fa156103a45760409260066080939284938451905260a05160608401525a01fa156103a457565b604051907f065a0404303e0d7527812d31a29fab4bf44b2601bf08faef9d59b8be3f5d3e1082527f2d1a7493d1fdb82b2b4233032ba5969665c08c5b20523ca8ff11b37c89b1b54a6020830152604082019081526107cf196040836060816007855a01fa156103a45760409260066080939284938451905260a05160608401525a01fa156103a457565b604051907f01cf502bdede776a09df1d8dc95aaa5fffb1c8ef7ba6e424b658be236d670fc982527f1469090388cab36a3bb64835b7be5c27559c91c64a98fac397b7f07ca6feb0656020830152604082019081526107cf196040836060816007855a01fa156103a45760409260066080939284938451905260a05160608401525a01fa156103a457565b604051907f18589778a5b462fe4c1d0bfc820b5a0b83d83dbc5b128e6213329b0d85421d3182527f181df8847a8133f9f5505ac8cdfd80dfd72bce805ce74b91299c9c86effddec56020830152604082019081526107cf196040836060816007855a01fa156103a45760409260066080939284938451905260a05160608401525a01fa156103a457565b604051907f12483f188f9105b205142b6638775ab3e560ca99ed809be6a37873c57aceef8882527f18337c30ed573c1a5ff8e5396bfd424b6878237ff35bced30d6d157006df29ec6020830152604082019081526107cf196040836060816007855a01fa156103a45760409260066080939284938451905260a05160608401525a01fa156103a457565b604051907f2d8766edf4fc70a41a672b1b8d59e86aa3c78c1b63ded48541773963a64cd80682527f1e0d55d079c19a0b59a6b323fb05777254053b6fc2d714e311410790f9227a696020830152604082019081526107cf196040836060816007855a01fa156103a45760409260066080939284938451905260a05160608401525a01fa156103a457565b6020907f25c5160d58049b8a91a4ae315ac2f9bd856eaa5940f6f9e8571f8b97148e07b26080527f08c851aa5cc40493b6a6c2289f04e9c6cac090d044bebcfb9d6767c35507f3cf60a05261245c610104356103ae565b61246861012435610438565b612474610144356104c2565b6124806101643561054c565b61248c610184356105d6565b6124986101a435610660565b6124a46101c4356106ea565b6124b06101e435610774565b6124bc610204356107fe565b6124c861022435610888565b6124d461024435610912565b6124e06102643561099c565b6124ec61028435610a26565b6124f86102a435610ab0565b6125046102c435610b3a565b6125106102e435610bc4565b61251c61030435610c4e565b61252861032435610cd8565b61253461034435610d62565b61254061036435610dec565b61254c61038435610e76565b6125586103a435610f00565b6125646103c435610f8a565b6125706103e435611014565b61257c6104043561109e565b61258861042435611128565b612594610444356111b1565b6125a06104643561123b565b6125ac610484356112c5565b6125b86104a43561134f565b6125c46104c4356113d9565b6125d06104e435611463565b6125dc610504356114ed565b6125e861052435611577565b6125f461054435611601565b6126006105643561168b565b61260c61058435611715565b6126186105a43561179f565b6126246105c435611829565b6126306105e4356118b3565b61263c6106043561193d565b612648610624356119c7565b61265461064435611a51565b61266061066435611adb565b61266c61068435611b65565b6126786106a435611bef565b6126846106c435611c79565b6126906106e435611d03565b61269c61070435611d8d565b6126a861072435611e17565b6126b461074435611ea1565b6126c061076435611f2b565b6126cc61078435611fb5565b6126d86107a43561203f565b6126e46107c4356120c9565b6126f06107e435612153565b6126fc610804356121dd565b61270861082435612267565b612714610844356122f1565b6127206108643561237b565b61010092818492358352837f30644e72e131a029b85045b68181585d97816a916871ca8d3c208c16d87cfd479101358103066101205260443561014052606435610160526084356101805260a4356101a0527f2d4d9aa7e302d9df41749d5507949d05dbea33fbb16c643b22f599a2be6df2e26101c0527f14bedd503c37ceb061d8ec60209fe345ce89830a19230301f076caff004d19266101e0527f0967032fcbf776d1afc985f88877f182d38480a653f2decaa9794cbc3bf3060c610200527f0e187847ad4c798374d0d6732bf501847dd68bc0e071241e0213bc7fc13db7ab610220527f304cfbd1e08a704a99f5e847d93f8c3caafddec46b7a0d379da69a4d112346a7610240527f1739c1b1a457a8c7313123d24d2f9192f896b7c63eea05a9d57f06547ad0cec8610260526080516102805260a0516102a0527f198e9393920d483a7260bfb731fb5d25f1aa493335a9e71297e485b7aef312c26102c0527f1800deef121f1e76426a00665e5c4479674322d4f75edadd46debd5cd992f6ed6102e05282610300917f090689d0585ff075ec9e99ad690c3395bc4b313370b38ef355acdadcd122975b83527f12c85ea5db8c6deb4aab71808dcb408fe3d1e7690c43d37b4ce6cc0166fa7daa610320528035610340520135610360527f083b255a830f686f38d9aa868b803b79bee873457b4ae99d71adc850cd1b5afb610380527f11ad25ffae6eb50d1bbb0962c45d4a3c6847a5a28fb623d2622d05564e632fa06103a0527f03742f3bcdab6f27ee4c707e8f51d067356e6c4fdfc9fc5483e03c2a899baab06103c0527f14db935004e78211f60ff9dcbca05b72a3e53f820b05a96a2324016e1dced5006103e0528160086107cf195a01fa9051169056fea2646970667358221220f1ed419b8fe18a89ffefc5744b945d500cb2a7b633c4ea360afd51b7537bafa364736f6c634300080f0033",
  "linkReferences": {},
  "deployedLinkReferences": {}
}