{
  "_format": "hh-sol-artifact-1",
  "contractName": "Bodies",
  "sourceName": "contracts/Bodies.sol",
  "abi": [
    {
      "inputs": [
        {
          "internalType": "address",
          "name": "bodyMetadata_",
          "type": "address"
        },
        {
          "internalType": "address payable",
          "name": "problems_",
          "type": "address"
        }
      ],
      "stateMutability": "nonpayable",
      "type": "constructor"
    },
    {
      "anonymous": false,
      "inputs": [
        {
          "indexed": true,
          "internalType": "address",
          "name": "owner",
          "type": "address"
        },
        {
          "indexed": true,
          "internalType": "address",
          "name": "approved",
          "type": "address"
        },
        {
          "indexed": true,
          "internalType": "uint256",
          "name": "tokenId",
          "type": "uint256"
        }
      ],
      "name": "Approval",
      "type": "event"
    },
    {
      "anonymous": false,
      "inputs": [
        {
          "indexed": true,
          "internalType": "address",
          "name": "owner",
          "type": "address"
        },
        {
          "indexed": true,
          "internalType": "address",
          "name": "operator",
          "type": "address"
        },
        {
          "indexed": false,
          "internalType": "bool",
          "name": "approved",
          "type": "bool"
        }
      ],
      "name": "ApprovalForAll",
      "type": "event"
    },
    {
      "anonymous": false,
      "inputs": [
        {
          "indexed": true,
          "internalType": "address",
          "name": "previousOwner",
          "type": "address"
        },
        {
          "indexed": true,
          "internalType": "address",
          "name": "newOwner",
          "type": "address"
        }
      ],
      "name": "OwnershipTransferred",
      "type": "event"
    },
    {
      "anonymous": false,
      "inputs": [
        {
          "indexed": true,
          "internalType": "address",
          "name": "from",
          "type": "address"
        },
        {
          "indexed": true,
          "internalType": "address",
          "name": "to",
          "type": "address"
        },
        {
          "indexed": true,
          "internalType": "uint256",
          "name": "tokenId",
          "type": "uint256"
        }
      ],
      "name": "Transfer",
      "type": "event"
    },
    {
      "anonymous": false,
      "inputs": [
        {
          "indexed": true,
          "internalType": "uint256",
          "name": "bodyId",
          "type": "uint256"
        },
        {
          "indexed": true,
          "internalType": "uint256",
          "name": "problemId",
          "type": "uint256"
        },
        {
          "indexed": true,
          "internalType": "uint256",
          "name": "mintedBodyIndex",
          "type": "uint256"
        },
        {
          "indexed": false,
          "internalType": "uint256",
          "name": "maxStarLvl",
          "type": "uint256"
        },
        {
          "indexed": false,
          "internalType": "bytes32",
          "name": "seed",
          "type": "bytes32"
        },
        {
          "indexed": false,
          "internalType": "bool",
          "name": "addedToProblem",
          "type": "bool"
        }
      ],
      "name": "bodyBorn",
      "type": "event"
    },
    {
      "stateMutability": "nonpayable",
      "type": "fallback"
    },
    {
      "inputs": [
        {
          "internalType": "address",
          "name": "to",
          "type": "address"
        },
        {
          "internalType": "uint256",
          "name": "tokenId",
          "type": "uint256"
        }
      ],
      "name": "approve",
      "outputs": [],
      "stateMutability": "nonpayable",
      "type": "function"
    },
    {
      "inputs": [
        {
          "internalType": "address",
          "name": "owner",
          "type": "address"
        }
      ],
      "name": "balanceOf",
      "outputs": [
        {
          "internalType": "uint256",
          "name": "",
          "type": "uint256"
        }
      ],
      "stateMutability": "view",
      "type": "function"
    },
    {
      "inputs": [
        {
          "internalType": "uint256",
          "name": "",
          "type": "uint256"
        }
      ],
      "name": "bodies",
      "outputs": [
        {
          "internalType": "uint256",
          "name": "problemId",
          "type": "uint256"
        },
        {
          "internalType": "uint256",
          "name": "mintedBodyIndex",
          "type": "uint256"
        },
        {
          "internalType": "uint256",
          "name": "starLvl",
          "type": "uint256"
        },
        {
          "internalType": "uint256",
          "name": "maxStarLvl",
          "type": "uint256"
        },
        {
          "internalType": "bytes32",
          "name": "seed",
          "type": "bytes32"
        }
      ],
      "stateMutability": "view",
      "type": "function"
    },
    {
      "inputs": [],
      "name": "bodyMetadata",
      "outputs": [
        {
          "internalType": "address",
          "name": "",
          "type": "address"
        }
      ],
      "stateMutability": "view",
      "type": "function"
    },
    {
      "inputs": [
        {
          "internalType": "uint256",
          "name": "bodyID",
          "type": "uint256"
        }
      ],
      "name": "burn",
      "outputs": [],
      "stateMutability": "nonpayable",
      "type": "function"
    },
    {
      "inputs": [],
      "name": "counter",
      "outputs": [
        {
          "internalType": "uint256",
          "name": "",
          "type": "uint256"
        }
      ],
      "stateMutability": "view",
      "type": "function"
    },
    {
      "inputs": [],
      "name": "decimals",
      "outputs": [
        {
          "internalType": "uint256",
          "name": "",
          "type": "uint256"
        }
      ],
      "stateMutability": "view",
      "type": "function"
    },
    {
      "inputs": [],
      "name": "dust",
      "outputs": [
        {
          "internalType": "address",
          "name": "",
          "type": "address"
        }
      ],
      "stateMutability": "view",
      "type": "function"
    },
    {
      "inputs": [
        {
          "internalType": "uint256",
          "name": "",
          "type": "uint256"
        }
      ],
      "name": "dustPrice",
      "outputs": [
        {
          "internalType": "uint256",
          "name": "",
          "type": "uint256"
        }
      ],
      "stateMutability": "view",
      "type": "function"
    },
    {
      "inputs": [
        {
          "internalType": "uint256",
          "name": "tokenId",
          "type": "uint256"
        }
      ],
      "name": "generateSeed",
      "outputs": [
        {
          "internalType": "bytes32",
          "name": "",
          "type": "bytes32"
        }
      ],
      "stateMutability": "view",
      "type": "function"
    },
    {
      "inputs": [
        {
          "internalType": "uint256",
          "name": "tokenId",
          "type": "uint256"
        }
      ],
      "name": "getApproved",
      "outputs": [
        {
          "internalType": "address",
          "name": "",
          "type": "address"
        }
      ],
      "stateMutability": "view",
      "type": "function"
    },
    {
      "inputs": [
        {
          "internalType": "address",
          "name": "owner",
          "type": "address"
        },
        {
          "internalType": "address",
          "name": "operator",
          "type": "address"
        }
      ],
      "name": "isApprovedForAll",
      "outputs": [
        {
          "internalType": "bool",
          "name": "",
          "type": "bool"
        }
      ],
      "stateMutability": "view",
      "type": "function"
    },
    {
      "inputs": [
        {
          "internalType": "address",
          "name": "owner",
          "type": "address"
        },
        {
          "internalType": "uint256",
          "name": "problemId",
          "type": "uint256"
        },
        {
          "internalType": "uint256",
          "name": "mintedBodyIndex",
          "type": "uint256"
        }
      ],
      "name": "mint",
      "outputs": [],
      "stateMutability": "nonpayable",
      "type": "function"
    },
    {
      "inputs": [
        {
          "internalType": "address",
          "name": "owner",
          "type": "address"
        },
        {
          "internalType": "uint256",
          "name": "problemId",
          "type": "uint256"
        },
        {
          "internalType": "uint256",
          "name": "mintedBodyIndex",
          "type": "uint256"
        }
      ],
      "name": "mintAndAddToProblem",
      "outputs": [
        {
          "internalType": "uint256",
          "name": "bodyId",
          "type": "uint256"
        },
        {
          "internalType": "uint256",
          "name": "maxStarLvl",
          "type": "uint256"
        },
        {
          "internalType": "bytes32",
          "name": "seed",
          "type": "bytes32"
        }
      ],
      "stateMutability": "nonpayable",
      "type": "function"
    },
    {
      "inputs": [
        {
          "internalType": "address",
          "name": "owner",
          "type": "address"
        },
        {
          "internalType": "uint256",
          "name": "bodyId",
          "type": "uint256"
        },
        {
          "internalType": "uint256",
          "name": "problemId",
          "type": "uint256"
        },
        {
          "internalType": "uint256",
          "name": "starLvl",
          "type": "uint256"
        }
      ],
      "name": "moveBodyFromProblem",
      "outputs": [],
      "stateMutability": "nonpayable",
      "type": "function"
    },
    {
      "inputs": [
        {
          "internalType": "uint256",
          "name": "bodyId",
          "type": "uint256"
        },
        {
          "internalType": "address",
          "name": "owner",
          "type": "address"
        },
        {
          "internalType": "uint256",
          "name": "problemId",
          "type": "uint256"
        }
      ],
      "name": "moveBodyToProblem",
      "outputs": [
        {
          "internalType": "uint256",
          "name": "mintedBodyIndex",
          "type": "uint256"
        },
        {
          "internalType": "uint256",
          "name": "starLvl",
          "type": "uint256"
        },
        {
          "internalType": "uint256",
          "name": "maxStarLvl",
          "type": "uint256"
        },
        {
          "internalType": "bytes32",
          "name": "seed",
          "type": "bytes32"
        }
      ],
      "stateMutability": "nonpayable",
      "type": "function"
    },
    {
      "inputs": [],
      "name": "name",
      "outputs": [
        {
          "internalType": "string",
          "name": "",
          "type": "string"
        }
      ],
      "stateMutability": "view",
      "type": "function"
    },
    {
      "inputs": [],
      "name": "owner",
      "outputs": [
        {
          "internalType": "address",
          "name": "",
          "type": "address"
        }
      ],
      "stateMutability": "view",
      "type": "function"
    },
    {
      "inputs": [
        {
          "internalType": "uint256",
          "name": "tokenId",
          "type": "uint256"
        }
      ],
      "name": "ownerOf",
      "outputs": [
        {
          "internalType": "address",
          "name": "",
          "type": "address"
        }
      ],
      "stateMutability": "view",
      "type": "function"
    },
    {
      "inputs": [
        {
          "internalType": "address",
          "name": "owner",
          "type": "address"
        },
        {
          "internalType": "uint256",
          "name": "bodyId",
          "type": "uint256"
        }
      ],
      "name": "problemMint",
      "outputs": [],
      "stateMutability": "nonpayable",
      "type": "function"
    },
    {
      "inputs": [],
      "name": "problems",
      "outputs": [
        {
          "internalType": "address payable",
          "name": "",
          "type": "address"
        }
      ],
      "stateMutability": "view",
      "type": "function"
    },
    {
      "inputs": [],
      "name": "renounceOwnership",
      "outputs": [],
      "stateMutability": "nonpayable",
      "type": "function"
    },
    {
      "inputs": [
        {
          "internalType": "address",
          "name": "from",
          "type": "address"
        },
        {
          "internalType": "address",
          "name": "to",
          "type": "address"
        },
        {
          "internalType": "uint256",
          "name": "tokenId",
          "type": "uint256"
        }
      ],
      "name": "safeTransferFrom",
      "outputs": [],
      "stateMutability": "nonpayable",
      "type": "function"
    },
    {
      "inputs": [
        {
          "internalType": "address",
          "name": "from",
          "type": "address"
        },
        {
          "internalType": "address",
          "name": "to",
          "type": "address"
        },
        {
          "internalType": "uint256",
          "name": "tokenId",
          "type": "uint256"
        },
        {
          "internalType": "bytes",
          "name": "data",
          "type": "bytes"
        }
      ],
      "name": "safeTransferFrom",
      "outputs": [],
      "stateMutability": "nonpayable",
      "type": "function"
    },
    {
      "inputs": [
        {
          "internalType": "address",
          "name": "operator",
          "type": "address"
        },
        {
          "internalType": "bool",
          "name": "approved",
          "type": "bool"
        }
      ],
      "name": "setApprovalForAll",
      "outputs": [],
      "stateMutability": "nonpayable",
      "type": "function"
    },
    {
      "inputs": [
        {
          "internalType": "uint256",
          "name": "",
          "type": "uint256"
        }
      ],
      "name": "starLvls",
      "outputs": [
        {
          "internalType": "uint256",
          "name": "",
          "type": "uint256"
        }
      ],
      "stateMutability": "view",
      "type": "function"
    },
    {
      "inputs": [
        {
          "internalType": "bytes4",
          "name": "interfaceId",
          "type": "bytes4"
        }
      ],
      "name": "supportsInterface",
      "outputs": [
        {
          "internalType": "bool",
          "name": "",
          "type": "bool"
        }
      ],
      "stateMutability": "view",
      "type": "function"
    },
    {
      "inputs": [],
      "name": "symbol",
      "outputs": [
        {
          "internalType": "string",
          "name": "",
          "type": "string"
        }
      ],
      "stateMutability": "view",
      "type": "function"
    },
    {
      "inputs": [
        {
          "internalType": "uint256",
          "name": "tokenId",
          "type": "uint256"
        }
      ],
      "name": "tokenURI",
      "outputs": [
        {
          "internalType": "string",
          "name": "",
          "type": "string"
        }
      ],
      "stateMutability": "view",
      "type": "function"
    },
    {
      "inputs": [
        {
          "internalType": "address",
          "name": "from",
          "type": "address"
        },
        {
          "internalType": "address",
          "name": "to",
          "type": "address"
        },
        {
          "internalType": "uint256",
          "name": "tokenId",
          "type": "uint256"
        }
      ],
      "name": "transferFrom",
      "outputs": [],
      "stateMutability": "nonpayable",
      "type": "function"
    },
    {
      "inputs": [
        {
          "internalType": "address",
          "name": "newOwner",
          "type": "address"
        }
      ],
      "name": "transferOwnership",
      "outputs": [],
      "stateMutability": "nonpayable",
      "type": "function"
    },
    {
      "inputs": [
        {
          "internalType": "uint256",
          "name": "index",
          "type": "uint256"
        },
        {
          "internalType": "uint256",
          "name": "maxStarLvl",
          "type": "uint256"
        }
      ],
      "name": "updateBodyMaxStarLvl",
      "outputs": [],
      "stateMutability": "nonpayable",
      "type": "function"
    },
    {
      "inputs": [
        {
          "internalType": "address",
          "name": "bodyMetadata_",
          "type": "address"
        }
      ],
      "name": "updateBodyMetadataAddress",
      "outputs": [],
      "stateMutability": "nonpayable",
      "type": "function"
    },
    {
      "inputs": [
        {
          "internalType": "address",
          "name": "dust_",
          "type": "address"
        }
      ],
      "name": "updateDustAddress",
      "outputs": [],
      "stateMutability": "nonpayable",
      "type": "function"
    },
    {
      "inputs": [
        {
          "internalType": "uint256",
          "name": "index",
          "type": "uint256"
        },
        {
          "internalType": "uint256",
          "name": "price",
          "type": "uint256"
        }
      ],
      "name": "updateDustPrice",
      "outputs": [],
      "stateMutability": "nonpayable",
      "type": "function"
    },
    {
      "inputs": [
        {
          "internalType": "address payable",
          "name": "problems_",
          "type": "address"
        }
      ],
      "name": "updateProblemsAddress",
      "outputs": [],
      "stateMutability": "nonpayable",
      "type": "function"
    }
  ],
  "bytecode": "0x6080346200046f57620020f5906001600160401b0390601f1990601f388590038181018416830190858211848310176200045957808491604098899485528339810103126200046f5781516001600160a01b039384821693918490036200046f57602080920151958587168097036200046f576200007c62000495565b936006855265426f6469657360d01b848601526200009962000495565b60038152621093d160ea1b8582015285519383851162000459576000948554976001988981811c911680156200044e575b898210146200043a579081868493116200040a575b508890868311600114620003a95788926200039d575b5050600019600383901b1c191690881b1785555b8151938411620003895786548781811c911680156200037e575b878210146200036a5790818486959493116200032f575b5086928411600114620002ce57508492620002c2575b5050600019600383901b1c191690841b1783555b60065460018060a01b03199533878316176006553391167f8be0079c531659141344cd1fd0a4f28419497f9722a3daafe3b4186f6b6457e0838a51a3620001aa62000474565b91818352818184015281888401526002606084015260046080840152600860a0840152601060c08401528060e0840152610100888185015261012093608085820152600c908685915b85600a8410620002aa57505050505060096200020e62000474565b916004835260048484015260048b8401526004606084015260056080840152600660a0840152600760c0840152600860e0840152820152600a809482015291601690925b84841062000293575050505050506200026a620004ce565b8160085416176008556200027d620004ce565b600754161760075551611bcd9081620005288239f35b805160ff1682559285019290850190820162000252565b8160ff849351168655019301910190918790620001f3565b01519050388062000150565b87865286862088959093929116865b88828210620003185750508411620002fe575b505050811b01835562000164565b015160001960f88460031b161c19169055388080620002f0565b8385015186558a97909501949384019301620002dd565b62000359908988528888208580880160051c8201928b891062000360575b0160051c0190620004b5565b386200013a565b925081926200034d565b634e487b7160e01b86526022600452602486fd5b90607f169062000123565b634e487b7160e01b85526041600452602485fd5b015190503880620000f5565b90848b9416918980528a8a20928a5b8c828210620003f35750508411620003d9575b505050811b01855562000109565b015160001960f88460031b161c19169055388080620003cb565b8385015186558e97909501949384019301620003b8565b62000433908980528a8a208880860160051c8201928d871062000360570160051c0190620004b5565b38620000df565b634e487b7160e01b88526022600452602488fd5b90607f1690620000ca565b634e487b7160e01b600052604160045260246000fd5b600080fd5b6040519061014082016001600160401b038111838210176200045957604052565b60408051919082016001600160401b038111838210176200045957604052565b818110620004c1575050565b60008155600101620004b5565b6006546001600160a01b03163303620004e357565b606460405162461bcd60e51b815260206004820152602060248201527f4f776e61626c653a2063616c6c6572206973206e6f7420746865206f776e65726044820152fdfe608060409080825260049081361015610057575b5034610052576020606492519162461bcd60e51b835282015260146024820152733737903330b6363130b1b590333ab731ba34b7b760611b6044820152fd5b600080fd5b600090813560e01c90816301ffc9a7146111685750806306fdde031461109c578063081812fc1461107b578063087c32e614611036578063095ea7b314610ec65780630d74a4e414610e92578063156e29f614610d7957806323b872dd14610d4e578063313ce56714610d2b57806331d988b214610cf0578063392f370714610ca95780633c43b50b14610bf4578063424611c314610bcc57806342842e0e14610b7d57806342966c6814610ad257806344cee73c14610a8057806361bc221a14610a615780636352211e14610a2f5780636a890e67146109ee5780636f2129251461094e57806370a08231146108b9578063715018a6146108595780638da5cb5b1461083057806395d89b4114610719578063a22cb46514610648578063a56564cb1461061b578063a85e1cfe146105f2578063b88d4fde14610561578063bba54ca814610534578063c87b56dd146104c5578063d395cb131461039c578063d5f356661461035b578063e985e9c51461030d578063f2fde38b14610241578063f9df988f146102185763fad9aba30361001357823461021457816003193601126102145760095490516001600160a01b039091168152602090f35b5080fd5b50823461021457816003193601126102145760075490516001600160a01b039091168152602090f35b509190346103095760203660031901126103095761025d611225565b610265611352565b6001600160a01b039081169182156102b7575060065492826001600160601b0360a01b8516176006555192167f8be0079c531659141344cd1fd0a4f28419497f9722a3daafe3b4186f6b6457e08484a3f35b608490602085519162461bcd60e51b8352820152602660248201527f4f776e61626c653a206e6577206f776e657220697320746865207a65726f206160448201526564647265737360d01b6064820152fd5b8280fd5b50823461021457806003193601126102145760ff8160209361032d611225565b61033561123b565b6001600160a01b0391821683526005875283832091168252855220549151911615158152f35b50823461021457602036600319011261021457610376611225565b61037e611352565b60018060a01b03166001600160601b0360a01b600854161760085551f35b508290346104c2576103ad36611267565b9093916103c560018060a01b036007541633146118e6565b6103cf8282611a7c565b6103da600b5461192b565b9384600b55600a8310156104af578291610467916060989460160154946104008861188f565b809888519361040e856112c6565b8b8552602085018881528a808701928084528f8801948c8652608089019687528152600a60205220955186555160018601555160028501555160038401555191015561045c600b5482611986565b600b5490309061161f565b600b5494857f11d2af26f29275293ddf60830060f807c915c3d847afa3afc7d31dab9aa3f472888651868152886020820152600188820152a481519384526020840152820152f35b634e487b7160e01b815260328752602490fd5b80fd5b508234610214576020366003190112610214576105036104fe6105309435600052600260205260018060a01b0360406000205416151590565b6113aa565b81815161050f816112f8565b5280519161051c836112f8565b8252519182916020835260208301906111d4565b0390f35b509190346103095760203660031901126103095735600a8110156103095760209250601601549051908152f35b509190346103095760803660031901126103095761057d611225565b9061058661123b565b916064359167ffffffffffffffff83116105ee57366023840112156105ee5782013592856105b385611336565b936105c087519586611314565b858552366024878301011161021457856105eb966024602093018388013785010152604435916114bc565b51f35b8580fd5b50823461021457816003193601126102145760085490516001600160a01b039091168152602090f35b509190346103095760203660031901126103095735600a8110156103095760209250600c01549051908152f35b50919034610309578160031936011261030957610663611225565b60243590811515809203610715576001600160a01b0316913383146106d25750338452600560205282842082855260205282842060ff1981541660ff831617905582519081527f17307eab39ab6107e8899845ad3d59bd9653f200f220920489ca2b5937696c3160203392a351f35b606490602085519162461bcd60e51b8352820152601960248201527f4552433732313a20617070726f766520746f2063616c6c6572000000000000006044820152fd5b8480fd5b508290346104c257806003193601126104c2578151918160019283549384811c91818616958615610826575b6020968785108114610813578899509688969785829a5291826000146107ec575050600114610791575b5050506105309291610782910385611314565b519282849384528301906111d4565b91908693508083527fb10e2d527612073b26eecdfd717e6a320cf44b4afac2b0732d9fcbe2b7fa0cf65b8284106107d4575050508201018161078261053061076f565b8054848a0186015288955087949093019281016107bb565b60ff19168782015293151560051b860190930193508492506107829150610530905061076f565b634e487b7160e01b835260228a52602483fd5b92607f1692610745565b50823461021457816003193601126102145760065490516001600160a01b039091168152602090f35b508234610214578160031936011261021457610873611352565b600680546001600160a01b0319811690915590519082906001600160a01b03167f8be0079c531659141344cd1fd0a4f28419497f9722a3daafe3b4186f6b6457e08284a3f35b509034610214576020366003190112610214576001600160a01b036108dc611225565b169081156108f95760208480858581526003845220549051908152f35b608490602085519162461bcd60e51b8352820152602960248201527f4552433732313a2061646472657373207a65726f206973206e6f7420612076616044820152683634b21037bbb732b960b91b6064820152fd5b509190346103095760603660031901126103095760809281356109b68161097361123b565b6109a060018060a01b0361098c816007541633146118e6565b610995846113f6565b811690831614611b5a565b818552600a60205260443587862055309061161f565b8152600a6020526001838220015492600281832001549281600381852001549320015492815194855260208501528301526060820152f35b50823461021457602036600319011261021457610a09611225565b610a11611352565b60018060a01b03166001600160601b0360a01b600954161760095551f35b508290346104c25760203660031901126104c25750610a50602092356113f6565b90516001600160a01b039091168152f35b508234610214578160031936011261021457602090600b549051908152f35b509134610309576020366003190112610309578060a09383358152600a602052208054926001820154926002830154916003840154930154938151958652602086015284015260608301526080820152f35b509134610309576020366003190112610309578282359160018060a01b03610aff816007541633146118e6565b610b08846113f6565b50610b12846113f6565b94848452602052818320946001600160601b0360a01b95868154169055169384835260036020528183206000198154019055838352600260205281832090815416905551927fddf252ad1be2c89b69c2b068fc378daa952ba7f163c4a11628f55a4df523b3ef8285a4f35b50823461021457610b8d36611291565b908351926020840184811067ffffffffffffffff821117610bb957856105eb96979850528684526114bc565b634e487b7160e01b875260418852602487fd5b508290346104c25760203660031901126104c25750610bed6020923561188f565b9051908152f35b5091903461030957608036600319011261030957610c10611225565b60243591610c3e60018060a01b03610c2d816007541633146118e6565b610c36856113f6565b163014611b5a565b828552600a6020526044358486205403610c755750906105eb91818552600a6020528484812055606435600285872001553061161f565b606490602085519162461bcd60e51b8352820152600e60248201526d4e6f7420696e2070726f626c656d60901b6044820152fd5b5091903461030957610cba36611251565b91610cc3611352565b600a8210610cd081611853565b15610cdd5750600c015551f35b634e487b7160e01b855260329052602484fd5b5082346102145780600319360112610214576105eb610d0d611225565b610d2260018060a01b036007541633146118e6565b60243590611986565b50823461021457816003193601126102145760209051670de0b6b3a76400008152f35b508234610214576105eb610d6136611291565b91610d74610d6f8433611557565b61145a565b61161f565b5091903461030957610d8a36611267565b92610da360018060a09594951b036007541633146118e6565b610dad8483611a7c565b610db8600b5461192b565b9182600b55600a851015610e7f5781610e59606092897f11d2af26f29275293ddf60830060f807c915c3d847afa3afc7d31dab9aa3f472958a8a601601988954908c610e038261188f565b93805196610e10886112c6565b80885260208801928352818801938185528c8901958652608089019687528152600a602052209551865551600186015551600285015551600384015551910155600b5490611986565b600b54935490848952600a6020528789200154875191825260208201528787820152a451f35b634e487b7160e01b875260328252602487fd5b5091903461030957610ea336611251565b91610eac611352565b600a8210610eb981611853565b15610cdd57506016015551f35b50919034610309578160031936011261030957610ee1611225565b602435916001600160a01b03908180610ef9866113f6565b16931692808414610fe957803314908115610fca575b5015610f615783865260205283852080546001600160a01b03191683179055610f37836113f6565b169251927f8c5be1e5ebec7d5bd14f71427d1e84f3dd0314c0f7b2291e5b200ac8c7c3b9258585a4f35b608490602086519162461bcd60e51b8352820152603d60248201527f4552433732313a20617070726f76652063616c6c6572206973206e6f7420746f60448201527f6b656e206f776e6572206f7220617070726f76656420666f7220616c6c0000006064820152fd5b90508652600560205284862033875260205260ff858720541638610f0f565b855162461bcd60e51b8152602081840152602160248201527f4552433732313a20617070726f76616c20746f2063757272656e74206f776e656044820152603960f91b6064820152608490fd5b5091903461030957602036600319011261030957356001600160a01b0381169081900361030957611065611352565b6001600160601b0360a01b600754161760075551f35b508290346104c25760203660031901126104c25750610a506020923561141c565b508290346104c257806003193601126104c25781519181825492600184811c9181861695861561115e575b6020968785108114610813578899509688969785829a5291826000146107ec575050600114611103575050506105309291610782910385611314565b91908693508280527f290decd9548b62a8d60345a988386fc84ba6bc95484008f6362f93160ef3e5635b828410611146575050508201018161078261053061076f565b8054848a01860152889550879490930192810161112d565b92607f16926110c7565b90508234610309576020366003190112610309573563ffffffff60e01b811680910361030957602092506380ac58cd60e01b81149081156111c3575b81156111b2575b5015158152f35b6301ffc9a760e01b149050836111ab565b635b5e139f60e01b811491506111a4565b91908251928382526000905b84821061120d575092806020939411611200575b601f01601f1916010190565b60008382840101526111f4565b906020908180828501015190828601015201906111e0565b600435906001600160a01b038216820361005257565b602435906001600160a01b038216820361005257565b6040906003190112610052576004359060243590565b6060906003190112610052576004356001600160a01b038116810361005257906024359060443590565b6060906003190112610052576001600160a01b0390600435828116810361005257916024359081168103610052579060443590565b60a0810190811067ffffffffffffffff8211176112e257604052565b634e487b7160e01b600052604160045260246000fd5b6020810190811067ffffffffffffffff8211176112e257604052565b90601f8019910116810190811067ffffffffffffffff8211176112e257604052565b67ffffffffffffffff81116112e257601f01601f191660200190565b6006546001600160a01b0316330361136657565b606460405162461bcd60e51b815260206004820152602060248201527f4f776e61626c653a2063616c6c6572206973206e6f7420746865206f776e65726044820152fd5b156113b157565b60405162461bcd60e51b815260206004820152601860248201527f4552433732313a20696e76616c696420746f6b656e20494400000000000000006044820152606490fd5b6000908152600260205260409020546001600160a01b03166114198115156113aa565b90565b60008181526002602052604090205461143f906001600160a01b031615156113aa565b6000908152600460205260409020546001600160a01b031690565b1561146157565b60405162461bcd60e51b815260206004820152602d60248201527f4552433732313a2063616c6c6572206973206e6f7420746f6b656e206f776e6560448201526c1c881bdc88185c1c1c9bdd9959609a1b6064820152608490fd5b906114e09392916114d0610d6f8433611557565b6114db83838361161f565b611732565b156114e757565b60405162461bcd60e51b81528061150060048201611504565b0390fd5b60809060208152603260208201527f4552433732313a207472616e7366657220746f206e6f6e20455243373231526560408201527131b2b4bb32b91034b6b83632b6b2b73a32b960711b60608201520190565b906001600160a01b03808061156b846113f6565b1693169183831493841561159e575b508315611588575b50505090565b6115949192935061141c565b1614388080611582565b909350600052600560205260406000208260005260205260ff60406000205416923861157a565b156115cc57565b60405162461bcd60e51b815260206004820152602560248201527f4552433732313a207472616e736665722066726f6d20696e636f72726563742060448201526437bbb732b960d91b6064820152608490fd5b906116479161162d846113f6565b6001600160a01b03939184169284929091831684146115c5565b169182156116e157816116649161165d866113f6565b16146115c5565b7fddf252ad1be2c89b69c2b068fc378daa952ba7f163c4a11628f55a4df523b3ef60008481526004602052604081206001600160601b0360a01b90818154169055838252600360205260408220600019815401905584825260408220600181540190558582526002602052846040832091825416179055604051a4565b60405162461bcd60e51b8152602060048201526024808201527f4552433732313a207472616e7366657220746f20746865207a65726f206164646044820152637265737360e01b6064820152608490fd5b9293600093909291803b156118485794849161178c9660405180948193630a85bd0160e11b9788845233600485015260018060a01b0380921660248501526044840152608060648401528260209b8c9760848301906111d4565b0393165af1849181611808575b506117f7575050503d6000146117ef573d6117b381611336565b906117c16040519283611314565b81528091833d92013e5b805191826117ec5760405162461bcd60e51b81528061150060048201611504565b01fd5b5060606117cb565b6001600160e01b0319161492509050565b9091508581813d8311611841575b6118208183611314565b8101031261071557516001600160e01b031981168103610715579038611799565b503d611816565b505050915050600190565b1561185a57565b60405162461bcd60e51b815260206004820152600d60248201526c092dcecc2d8d2c840d2dcc8caf609b1b6044820152606490fd5b600143106118d057604051602081019182526000194301406040820152604081526060810181811067ffffffffffffffff8211176112e25760405251902090565b634e487b7160e01b600052601160045260246000fd5b156118ed57565b60405162461bcd60e51b815260206004820152601660248201527513db9b1e48141c9bd89b195b5cc818d85b8818d85b1b60521b6044820152606490fd5b60001981146118d05760010190565b1561194157565b60405162461bcd60e51b815260206004820152601c60248201527f4552433732313a20746f6b656e20616c7265616479206d696e746564000000006044820152606490fd5b6001600160a01b03168015611a38576000828152600260205260409020546119ba906001600160a01b031615155b1561193a565b6000828152600260205260409020546119dd906001600160a01b031615156119b4565b600081815260036020526040812060018154019055828152600260205260408120826001600160601b0360a01b8254161790557fddf252ad1be2c89b69c2b068fc378daa952ba7f163c4a11628f55a4df523b3ef81604051a4565b606460405162461bcd60e51b815260206004820152602060248201527f4552433732313a206d696e7420746f20746865207a65726f20616464726573736044820152fd5b90600a811015611b1657600c0154670de0b6b3a76400009080600019048211811515166118d057029081611aae575050565b6009546001600160a01b03908116803b1561005257600092836044926040519687958694632770a7eb60e21b865216600485015260248401525af18015611b0a57611af65750565b67ffffffffffffffff81116112e257604052565b6040513d6000823e3d90fd5b606460405162461bcd60e51b815260206004820152602060248201527f50726f626c656d20616c7265616479206d696e74656420313020626f646965736044820152fd5b15611b6157565b60405162461bcd60e51b815260206004820152600e60248201526d2737ba103137b23c9037bbb732b960911b6044820152606490fdfea26469706673582212208b96b842fd823406c9f07f47809afa60d5b16e7590e936de9d1d5b786271912664736f6c634300080f0033",
  "linkReferences": {},
  "deployedLinkReferences": {}
}