{
  "_format": "hh-sol-artifact-1",
  "contractName": "Groth16Verifier",
  "sourceName": "contracts/Game_10_20Verifier.sol",
  "abi": [
    {
      "inputs": [
        {
          "internalType": "uint256[2]",
          "name": "_pA",
          "type": "uint256[2]"
        },
        {
          "internalType": "uint256[2][2]",
          "name": "_pB",
          "type": "uint256[2][2]"
        },
        {
          "internalType": "uint256[2]",
          "name": "_pC",
          "type": "uint256[2]"
        },
        {
          "internalType": "uint256[100]",
          "name": "_pubSignals",
          "type": "uint256[100]"
        }
      ],
      "name": "verifyProof",
      "outputs": [
        {
          "internalType": "bool",
          "name": "",
          "type": "bool"
        }
      ],
      "stateMutability": "view",
      "type": "function"
    }
  ],
  "bytecode": "0x6080806040523461001657614326908161001c8239f35b600080fdfe6080604052600436101561001257600080fd5b6000803560e01c632e158b4a1461002857600080fd5b3461053857610d80366003190112610538576100433661053b565b3660c411610534576100543661054d565b90610d84368111610530579161052c916105276020959461040060405261007d6101043561055b565b6100896101243561055b565b6100956101443561055b565b6100a16101643561055b565b6100ad6101843561055b565b6100b96101a43561055b565b6100c56101c43561055b565b6100d16101e43561055b565b6100dd6102043561055b565b6100e96102243561055b565b6100f56102443561055b565b6101016102643561055b565b61010d6102843561055b565b6101196102a43561055b565b6101256102c43561055b565b6101316102e43561055b565b61013d6103043561055b565b6101496103243561055b565b6101556103443561055b565b6101616103643561055b565b61016d6103843561055b565b6101796103a43561055b565b6101856103c43561055b565b6101916103e43561055b565b61019d6104043561055b565b6101a96104243561055b565b6101b56104443561055b565b6101c16104643561055b565b6101cd6104843561055b565b6101d96104a43561055b565b6101e56104c43561055b565b6101f16104e43561055b565b6101fd6105043561055b565b6102096105243561055b565b6102156105443561055b565b6102216105643561055b565b61022d6105843561055b565b6102396105a43561055b565b6102456105c43561055b565b6102516105e43561055b565b61025d6106043561055b565b6102696106243561055b565b6102756106443561055b565b6102816106643561055b565b61028d6106843561055b565b6102996106a43561055b565b6102a56106c43561055b565b6102b16106e43561055b565b6102bd6107043561055b565b6102c96107243561055b565b6102d56107443561055b565b6102e16107643561055b565b6102ed6107843561055b565b6102f96107a43561055b565b6103056107c43561055b565b6103116107e43561055b565b61031d6108043561055b565b6103296108243561055b565b6103356108443561055b565b6103416108643561055b565b61034d6108843561055b565b6103596108a43561055b565b6103656108c43561055b565b6103716108e43561055b565b61037d6109043561055b565b6103896109243561055b565b6103956109443561055b565b6103a16109643561055b565b6103ad6109843561055b565b6103b96109a43561055b565b6103c56109c43561055b565b6103d16109e43561055b565b6103dd610a043561055b565b6103e9610a243561055b565b6103f5610a443561055b565b610401610a643561055b565b61040d610a843561055b565b610419610aa43561055b565b610425610ac43561055b565b610431610ae43561055b565b61043d610b043561055b565b610449610b243561055b565b610455610b443561055b565b610461610b643561055b565b61046d610b843561055b565b610479610ba43561055b565b610485610bc43561055b565b610491610be43561055b565b61049d610c043561055b565b6104a9610c243561055b565b6104b5610c443561055b565b6104c1610c643561055b565b6104cd610c843561055b565b6104d9610ca43561055b565b6104e5610cc43561055b565b6104f1610ce43561055b565b6104fd610d043561055b565b610509610d243561055b565b610515610d443561055b565b610521610d643561055b565b3561055b565b613b71565b8152f35b8380fd5b5080fd5b80fd5b9060049160441161054857565b600080fd5b9060c4916101041161054857565b7f30644e72e131a029b85045b68181585d97816a916871ca8d3c208c16d87cfd47111561058457565b6000805260206000f35b604051907f182e6a1f175b7f4e1c3c6d77cab1784f61d12649b7415417d68e48eeeeee492582527f22c443b80d8aa5609b4daec5c42a0a5650912ba7f5929ef1b0d7a25f990795226020830152604082019081526107cf196040836060816007855a01fa156105845760409260066080939284938451905260a05160608401525a01fa1561058457565b604051907f22df92275314ee159515df593ecc81e974f7129d923ed277d57369b95648116782527f1655ce465197037b098c4767fbec2d719c4141e31f88ef5a51ed3b5099d00f636020830152604082019081526107cf196040836060816007855a01fa156105845760409260066080939284938451905260a05160608401525a01fa1561058457565b604051907f195c45a59dc629d8916687201ea24e729630d53cae8407040f627d130c70c7a582527f2d0399ee8fb70bb89f496413c3d78f3297e09400deaaa3234db503fdaf6d83e76020830152604082019081526107cf196040836060816007855a01fa156105845760409260066080939284938451905260a05160608401525a01fa1561058457565b604051907f27eec9948a792e0cb046b041b4c40a324f1350d32f1ebdf430fb46756098f57b82527f1efe6655409622d8e603ee04ad492dd88ed493df26a874d6b5ce1ca33c6356366020830152604082019081526107cf196040836060816007855a01fa156105845760409260066080939284938451905260a05160608401525a01fa1561058457565b604051907f1031001adb59916511308e8d0ee402dad1cc6469b1b348e321568ebe7435b54582527f1d32b6e148b5734f761946ed9a65ab4321ba75c2a456e573ba4edd82ecf7ff2a6020830152604082019081526107cf196040836060816007855a01fa156105845760409260066080939284938451905260a05160608401525a01fa1561058457565b604051907f202e07f31e05e89b6e440b2d489aa85bf5aeb7395003ba9b7e252f30bd56312882527f1803b8f27f19e0f05b3290bb489bc5ead9caa5034d3fa68bcccb35394256dc146020830152604082019081526107cf196040836060816007855a01fa156105845760409260066080939284938451905260a05160608401525a01fa1561058457565b604051907f25347ffb93192e6f7b48c52b73e2aa23fdb8ea49b5df3ac6ca56c9b80078d01a82527f28f627c6ced51d446cd1da6a6d322e3e62c0074f6c7f3234c62e5f72da76b5f06020830152604082019081526107cf196040836060816007855a01fa156105845760409260066080939284938451905260a05160608401525a01fa1561058457565b604051907f1fbc62bb2af245a6872d63600abd282d5c543d000effee2a8a81d6dd36540ae782527f0c5132f7c504ed7f5973cea52e7a8637ae8d8b6245f2f4353e7c6c21190933106020830152604082019081526107cf196040836060816007855a01fa156105845760409260066080939284938451905260a05160608401525a01fa1561058457565b604051907f2f3985ee615da6f626a1226a41f4d835ed626a7f75ac5222b95d60b3f2d7a56982527f1e1dbe81b326977d0ae8481ed0108bbe9c6055051e009a0f986de80ca3c284906020830152604082019081526107cf196040836060816007855a01fa156105845760409260066080939284938451905260a05160608401525a01fa1561058457565b604051907f0204407a759d05892489d9ac356b09ea7091a7025832832bfebbe5b8cb7cb43c82527f1b97b5c42d7a15be03cc8e4ab640d71cba7303e41d4dbf47dc8d1a91c06757376020830152604082019081526107cf196040836060816007855a01fa156105845760409260066080939284938451905260a05160608401525a01fa1561058457565b604051907f1cb588a36a5218087a95812178be1eab42ab7da2239cc5df89606265b10dabb982527ec95d701978c3bf339372a3263deab66f261780099de0dddd31870de2efbbd26020830152604082019081526107cf196040836060816007855a01fa156105845760409260066080939284938451905260a05160608401525a01fa1561058457565b604051907f1d610a3ccf84eaefa67f430a0397cff57f80b3007ac239d26341cc4f91090a3e82527f048d953c4729ca832183e6470b0d57e14f255bf94b2516bc1254b3a3718213be6020830152604082019081526107cf196040836060816007855a01fa156105845760409260066080939284938451905260a05160608401525a01fa1561058457565b604051907f0e4abec0ef94f4c81c3ba81461535da9b30c4bf8ac186b0a1ff8808bf4165cc382527f1d65bf7009a2f0cdb6e402018c412df222e8eb246eeb5b24a1725d491c5169306020830152604082019081526107cf196040836060816007855a01fa156105845760409260066080939284938451905260a05160608401525a01fa1561058457565b604051907f17df6f1f2b643c83beafb54bf28634accb3defe40c5822388c9f356b4e3e779182527f02989ba4ef8644ddaf5f8b6f2d1bab25bc538a91d66214abd85ef290e45255e86020830152604082019081526107cf196040836060816007855a01fa156105845760409260066080939284938451905260a05160608401525a01fa1561058457565b604051907f1cdd76288ece7a2c08c85c13910aa4974b5115cab323df159711639527e739ce82527f141badb633c312bb6d34860e5abef4a2179072698ce00f1f39b842b5161b96ef6020830152604082019081526107cf196040836060816007855a01fa156105845760409260066080939284938451905260a05160608401525a01fa1561058457565b604051907f08118874f0f8970482facfe7f223877f5a76a0304f20be8c76953ffada917e7782527f0f796cb2a54bd46e4b1da7589d030d8b9a7fbb7cd0747edc48e9b32f571090f26020830152604082019081526107cf196040836060816007855a01fa156105845760409260066080939284938451905260a05160608401525a01fa1561058457565b604051907e02ce3f7a807ec0ce9f0bf95fc0a34ea692153a66a98b15938a25f9e10b61dc82527f2cccb2adc5d1c4a7da8e5367c60687e15f5b57231b3ea0f22fb23b0381d070186020830152604082019081526107cf196040836060816007855a01fa156105845760409260066080939284938451905260a05160608401525a01fa1561058457565b604051907f107f2c90118659f7d2512471792b5141860857602f997d182bf9b4da13a0a98682527f2dd71a197d26fae84370d2ca54fc0c9ee582f6b5f6c654a86f7c7af4f63a2ba86020830152604082019081526107cf196040836060816007855a01fa156105845760409260066080939284938451905260a05160608401525a01fa1561058457565b604051907f2f5ac08418e76fe193db660517961f5c42b2fd663932188e2d90d25874b70ad182527f0a331dbfe22f57b0c3c370575a7d1ca44977105bce8e8dbb70fe6248992ad34f6020830152604082019081526107cf196040836060816007855a01fa156105845760409260066080939284938451905260a05160608401525a01fa1561058457565b604051907f2a6b89daf3dfc6376105f3ed4d84408c6c09c8d60735bce3cefb644e7dcdf48182527f246e684e50df8b0dff682ea0b535852583024121223fccfc39d42afdae6a6eee6020830152604082019081526107cf196040836060816007855a01fa156105845760409260066080939284938451905260a05160608401525a01fa1561058457565b604051907f220d38462f7ecca4908a66e034abe1bff4b0b571909b16f21c23c394cbeb89bb82527f2766c3533248e67cb0b88a49471633969dcf5888e47c9cdbd5661fbfbd1cc4b06020830152604082019081526107cf196040836060816007855a01fa156105845760409260066080939284938451905260a05160608401525a01fa1561058457565b604051907f04e111a6fab604b0e4d96ae99b1af9664be3dfd7b42456bea9803587b17a6d3c82527f0f8e43e21fbef08b55e743f614602b8a8a4c7f0942341c74d7a2d82f8552cfa56020830152604082019081526107cf196040836060816007855a01fa156105845760409260066080939284938451905260a05160608401525a01fa1561058457565b604051907f2e1f6fe5bf70d8a67127e0dd4ada79ec03023c150984dae92f7b09ee628c967282527f0ca06899c7b277e867e50410c9a73e32f59baa7e8e7252984a7db5dc479fc3706020830152604082019081526107cf196040836060816007855a01fa156105845760409260066080939284938451905260a05160608401525a01fa1561058457565b604051907f16e9491a3193faec2d9053dd82573e108f6d1fe8954561c9bbcd565643e542ab82527f019a837dfe708d09bf1418bbe73f8c368884b3d3319e952198f54dcf50897f716020830152604082019081526107cf196040836060816007855a01fa156105845760409260066080939284938451905260a05160608401525a01fa1561058457565b604051907f09af3d1442b88329f9febad0893fe49ccf29c8024e4eb6d7912955d45cfc8b3282527f039b9382f65ebd4d3c32fcc19965e6820d8773365890cdc895633a821768cf166020830152604082019081526107cf196040836060816007855a01fa156105845760409260066080939284938451905260a05160608401525a01fa1561058457565b604051907f26756485f5dcf59a5f014b932878dcfb1a5020f8df6bcda9c700f34233f8050282527f195dbf6e073cd19b64febbc142c3a3e1e17750aced229f425deb12f765cc28276020830152604082019081526107cf196040836060816007855a01fa156105845760409260066080939284938451905260a05160608401525a01fa1561058457565b604051907f0ba3db262460e6eded15155c9280fb963517a21ab561ddfce28c8b89e6acaee982527f2b15d811290987de933d7174f7f66f7194030b11ee89e8d14753ea01db7bb1f16020830152604082019081526107cf196040836060816007855a01fa156105845760409260066080939284938451905260a05160608401525a01fa1561058457565b604051907f2b7d7c007a45fc52e3c113d57cb22dfaf975afd923403164ac3ff12cc8ab5c8182527f207485b541b1e454b615a7e51992e19c5205412356e74abc1f3df44a647663ae6020830152604082019081526107cf196040836060816007855a01fa156105845760409260066080939284938451905260a05160608401525a01fa1561058457565b604051907f1256524f62b5e7e561b5e46f65b1aeaf4191a65c0f67bffc46a4858136bde33782527f2f03bbc1e6ab4c9c704b38fca959b5b52b96bc1de97d54350bf1e643f85940036020830152604082019081526107cf196040836060816007855a01fa156105845760409260066080939284938451905260a05160608401525a01fa1561058457565b604051907f274942fcacb97b03c59cda620e32e9ded1cda10758e2490070d45805011be65382527f18f7a85c416e844fb86e493db88613cef92830279927aa3f0c368def1040be956020830152604082019081526107cf196040836060816007855a01fa156105845760409260066080939284938451905260a05160608401525a01fa1561058457565b604051907f1d165cc287d32d0d14734648b66b2bd66c715124871fe5b52468799905c91f7282527f2ba77e2205c34a0b2f0cfa92588134d4b26dffb3883338f9e37cd1f7343d97766020830152604082019081526107cf196040836060816007855a01fa156105845760409260066080939284938451905260a05160608401525a01fa1561058457565b604051907f18e0e94cbb80c690d1815f55b43087641b4997eb8a381ae85591932b6a2f5eb482527f26233836c2ea76cb2ab479e774c1f90aabc05bf137a485ed42e2771fb3b224ae6020830152604082019081526107cf196040836060816007855a01fa156105845760409260066080939284938451905260a05160608401525a01fa1561058457565b604051907f21eba84cfded084c6da9501c99cc9077fe831edc0708f93395dcbbcdaa3a21a882527f07c2fb4fb3a03d1c429ecb0ff75ba03cd89292b538cedb1035ddcd366459b28b6020830152604082019081526107cf196040836060816007855a01fa156105845760409260066080939284938451905260a05160608401525a01fa1561058457565b604051907f17866dc2f755810583cdb557b62c3d377fc588cc1f1fc3261e8e3e0db43ed58382527f1897b5b099dae7fead2d95f4e498776782323709bb3000a2f1a4003d87aa19c66020830152604082019081526107cf196040836060816007855a01fa156105845760409260066080939284938451905260a05160608401525a01fa1561058457565b604051907f05a2f8f8e1e6e2a9785fff915263e7089b79d01b3599ff3d1d292673e9cd97d082527f0463d41d81467a4852914089270c50091af4524600354ec387509a5f18aec4a86020830152604082019081526107cf196040836060816007855a01fa156105845760409260066080939284938451905260a05160608401525a01fa1561058457565b604051907f2040f96f09c675a4ccbb9c5e53c4484cde9f3f2a6f243b10957f8fc16b25314082527f2228bb3b3e226a76c323e294192a074811994a1b81ff3aafc0d57a9545d5b9426020830152604082019081526107cf196040836060816007855a01fa156105845760409260066080939284938451905260a05160608401525a01fa1561058457565b604051907f112685400758ebbe37fdb2d411ea01a1ece956903e1cc69b552c6498007c75b082527f2679b6381c7443a7c349b7b2ba8f581962112df22f7f24648eab180c2a9949e16020830152604082019081526107cf196040836060816007855a01fa156105845760409260066080939284938451905260a05160608401525a01fa1561058457565b604051907f2200a0f48ceda0f468e0d044791d06607733937ef45e0f778955893f0dda63db82527f199d032673742f8df63deed7568f7a9373910e1d37db193d5518859dad3833536020830152604082019081526107cf196040836060816007855a01fa156105845760409260066080939284938451905260a05160608401525a01fa1561058457565b604051907f1512e55af6fdb8728d564a016d9c3e06b1fb065e0ca83858de09a6eacc62377e82527f29cb9abe589af05bb83a63cd707aee83365162474ede39eac3325bd30cb60c546020830152604082019081526107cf196040836060816007855a01fa156105845760409260066080939284938451905260a05160608401525a01fa1561058457565b604051907f11a4b96e514e60e48d89e736a9be747ca3a2ce8030d6ca9805ac9c1a3bbb60df82527f269c57511d769550d37fefcc2482bad8d39b3a0fb9898a8727e57de76826469a6020830152604082019081526107cf196040836060816007855a01fa156105845760409260066080939284938451905260a05160608401525a01fa1561058457565b604051907f0a1d83968da49e553782677f7db015caade8de41574cc51cc695981b5f128da282527f0b1b6eec94ec333f60b9a0e513f58d57ce2f672f23e15232e3ac2bfc55ca31496020830152604082019081526107cf196040836060816007855a01fa156105845760409260066080939284938451905260a05160608401525a01fa1561058457565b604051907f2649ba4ad7c03fee5d5d8d5619a519e76c2eb8f1ea42d7d411335dcc249f6d7482527f145f5f028a78a66a374e7db740668682d3edbec0b55c0cf674dfc4f394da24766020830152604082019081526107cf196040836060816007855a01fa156105845760409260066080939284938451905260a05160608401525a01fa1561058457565b604051907f2ddb3130313162c6785a54a692df14aa19ea6e7268fad198e5b03314ac0bea9182527f2398d5872815e22e5875902fd34e9a7c2b679b345722cb9f23aac91a19c571ef6020830152604082019081526107cf196040836060816007855a01fa156105845760409260066080939284938451905260a05160608401525a01fa1561058457565b604051907f244b916c556abed6bf579cbb27cd3edd07496225084ca887be0d51c192ec2b6a82527f0526b88b2e3cc640c9e493a7980aa9269e2c5501b1185abd0f2270b0bc5fdfb76020830152604082019081526107cf196040836060816007855a01fa156105845760409260066080939284938451905260a05160608401525a01fa1561058457565b604051907f238258cd080fbccb6e5d9e752226c54e9584d42f6769630ef0afafcebd16788482527f2958d9dc81c65d5d348624ce5b715a8012ea85d144da02d66bbf79235a897f9f6020830152604082019081526107cf196040836060816007855a01fa156105845760409260066080939284938451905260a05160608401525a01fa1561058457565b604051907f1450e2d0228020701ed4e621c63b5aec0b39a14d5758d91a4141d5c79dacecd182527f1bc74b14bfbd5885daa2066ed2546e15333d45c813cc9c1c6172a85413ae91936020830152604082019081526107cf196040836060816007855a01fa156105845760409260066080939284938451905260a05160608401525a01fa1561058457565b604051907f08fd470ec61f19b57ba88d28e84f773360b32cfeea811bfc3889d5da27f0979182527f2690cd37d048fb8db4f7127944262127eae43b212ee6e9bc959b6919ded2c26e6020830152604082019081526107cf196040836060816007855a01fa156105845760409260066080939284938451905260a05160608401525a01fa1561058457565b604051907f0bd0768bccedf1da85fcce0a9aa9e0f4280725f1f4b8868f5d700a9264ebeceb82527f1ceb2835f15a58ef7823d2216095b250a6cc1371994de445614b719e4f8d3b516020830152604082019081526107cf196040836060816007855a01fa156105845760409260066080939284938451905260a05160608401525a01fa1561058457565b604051907f2dc39e4a5e8927244f46e09661f669fbe712fcd5ad1ce67915d0b170a4f0849382527f28d188621907f930553d1126d7a4cf16172f61282ecf1cdff274a3f17d8e476b6020830152604082019081526107cf196040836060816007855a01fa156105845760409260066080939284938451905260a05160608401525a01fa1561058457565b604051907e284d1a68fae32028b0272656a0cea483d58e0de2d296d71217fc6001a993d882527f144be6cc3e5e7377b63bf52a52afb8b24810c6ebc1f8deab1c3f213fdd0f80f76020830152604082019081526107cf196040836060816007855a01fa156105845760409260066080939284938451905260a05160608401525a01fa1561058457565b604051907f0fea44e2d3df04b4c11ef29d5e31145e6bd8ac9d664b37561a9ebf28d158938682527f10d2ff7580c83afa9fc4ce7971979b27e838ebd4df338a4004d9be2a62a19dfe6020830152604082019081526107cf196040836060816007855a01fa156105845760409260066080939284938451905260a05160608401525a01fa1561058457565b604051907f2343cd8eba66e2a57d345c121565a0e0ca9d0bd6459009da5f660a812eb2d48382527f19d89d891955ad84478220539d46e7b1a9c6973b683f9063c0abda540e20c20d6020830152604082019081526107cf196040836060816007855a01fa156105845760409260066080939284938451905260a05160608401525a01fa1561058457565b604051907f1acb7b9a46afd161454100dd5749fef1f1f94eae4b3ce2a57a2c383ad07633c682527f2875a9d8eb1858b994d6ca661c8aae3fb020275c88eaee2667a91da0ee7e07776020830152604082019081526107cf196040836060816007855a01fa156105845760409260066080939284938451905260a05160608401525a01fa1561058457565b604051907f214864fe735f97709f4c3c3e14a6d260d7dd80ca803d9986a4b337ca567887a382527f0747f96a45fc36ee4bf2119e6ad0dc867481e63258ad97ed91caa773fcc9c75d6020830152604082019081526107cf196040836060816007855a01fa156105845760409260066080939284938451905260a05160608401525a01fa1561058457565b604051907f122c276a0d0a4283afaf8d96f10f9558cc9f751003a52c21eb9313e825cfd7af82527f1bae0ac34f99f00792003291c233e460218183643b16dbabe9aa71b5160fad3d6020830152604082019081526107cf196040836060816007855a01fa156105845760409260066080939284938451905260a05160608401525a01fa1561058457565b604051907f03a12b04c455aa18f059cee29841992aa7ac101b15c921235cc6169c4a83ac0782527f2a422c2d3d1bbe5aa845bc6714370d5fc094fca2467af240300aa6a6757394b96020830152604082019081526107cf196040836060816007855a01fa156105845760409260066080939284938451905260a05160608401525a01fa1561058457565b604051907f22eec7d25f8a93791628712a7e2eb9b02276be45791511af531d4b1f73b7bef382527f2a9a2b40a967b17dc7045e4778fb0bc6a0c89da6f6d73f72b33ec0c14b266eca6020830152604082019081526107cf196040836060816007855a01fa156105845760409260066080939284938451905260a05160608401525a01fa1561058457565b604051907f03b15df5acaf49aa3f05957b8172193a65c9e1a10061a34b15e43f07b91dc9aa82527f07a2ae4fa580c48c4c4482f40141e0776c3996d32970510c392d7fc5ca658cbe6020830152604082019081526107cf196040836060816007855a01fa156105845760409260066080939284938451905260a05160608401525a01fa1561058457565b604051907f1ca1e38f0b4a511cc5e989f719eec5073fb766c00e93c4a5dff81165e9cca6cc82527f2ef51fe5f0379369a47f8bd05adc511a4a8c5610fbe9bbbe87fe1c5b99fa0b0b6020830152604082019081526107cf196040836060816007855a01fa156105845760409260066080939284938451905260a05160608401525a01fa1561058457565b604051907f1d91a388298aa0fd44a676cc41b28092d42f3aaba1d64a0679c47ca1e2fe914082527f1749fea95ee4b1a32b284c5d65df9b46c2341d01a02a91a05062bc71eb421eef6020830152604082019081526107cf196040836060816007855a01fa156105845760409260066080939284938451905260a05160608401525a01fa1561058457565b604051907f06a35a3546d2d1e7ebe1fbfd29ba0fb191c971dbca26db8d963eec54981015e482527f10a2974dc8979248070d06fe8241157a2c271f0a5f7690bed79a827477bd47b66020830152604082019081526107cf196040836060816007855a01fa156105845760409260066080939284938451905260a05160608401525a01fa1561058457565b604051907f0527665d3a8fc1269dff51407b553af2e2d33740b049faa6660d0ebacf1f4b8c82527f0a1ca22eb0e7b706c67ddc03a728f5a99af03615cdd43752ab3e8a15d6ee9fd26020830152604082019081526107cf196040836060816007855a01fa156105845760409260066080939284938451905260a05160608401525a01fa1561058457565b604051907f16f413662524cca7f82b6ec8dc308078caa08dfebcd8fffc770ec2e40a617cb982527f2b8c4df8c6c850d742fca4ae9d11141e5e8be8d70f19eede78cbf869bf458fbe6020830152604082019081526107cf196040836060816007855a01fa156105845760409260066080939284938451905260a05160608401525a01fa1561058457565b604051907f2796d28fddee00ab308272436b3b97cb748885558eb2972fd238ca0ae0ffb1ab82527f2841680b9372706e5e85b3099fe4e4cae7791a78b0af361a051e9ae1da6217566020830152604082019081526107cf196040836060816007855a01fa156105845760409260066080939284938451905260a05160608401525a01fa1561058457565b604051907f0461a2a8d2dbdfc63ac072869e87cdd0ea36434bcc0725371c894708a12ecde082527f13aa4de0c07b53d8cf93dbb9b7b5efde1ac93285c20731bfcaaeb38f8bfc664a6020830152604082019081526107cf196040836060816007855a01fa156105845760409260066080939284938451905260a05160608401525a01fa1561058457565b604051907f26bafae18efd5940a861adcdb5c6a0b7eb2767f96bceb3f4926f69a528f1e8d282527f194f3024286ab21a32d705cac2756fcb1509c859ef49a9c81a76d224309122586020830152604082019081526107cf196040836060816007855a01fa156105845760409260066080939284938451905260a05160608401525a01fa1561058457565b604051907f1c8dabc24173602c6e48e5cd8f508d98af3788a44cf6e3a3d3a42c9f28aee21b82527f093719779d8bdccc32466ad3eae77d70b432a31fe68664e07cabc857ef9cf9fc6020830152604082019081526107cf196040836060816007855a01fa156105845760409260066080939284938451905260a05160608401525a01fa1561058457565b604051907f213b80d9da41ce0cd1e6c5d64ee5b46e5eab1ee55ff07cdd28852af0a10c720e82527f061e53397c2dd1685a0464260dd8de9affd945be54b9e654dde29a2189239ac66020830152604082019081526107cf196040836060816007855a01fa156105845760409260066080939284938451905260a05160608401525a01fa1561058457565b604051907f23905efd5a564466c614502e1ece65097ba43fde11a381c4ce727d41a0ff09e582527f1806d0562b3da459f201524827d92b0b18bef1ee4bdf999b4bc0aaf6d95dd7aa6020830152604082019081526107cf196040836060816007855a01fa156105845760409260066080939284938451905260a05160608401525a01fa1561058457565b604051907f0288874535dc9e9ab41e9ab3ef36b99937764ad199d87a4bfd589e6745315abe82527f301eb5f7729f2c16d6aa07f0c7481d82c45a7e61c99da19086709c638b50ac306020830152604082019081526107cf196040836060816007855a01fa156105845760409260066080939284938451905260a05160608401525a01fa1561058457565b604051907f09ca311b4bf4458e803c157323d5f53f558773325612f71fbf91c1fb088d484382527f1bebf1d105e291ac687f0cd8bd929ecf3a93542ca9fa07ca1e030f09645ddf6d6020830152604082019081526107cf196040836060816007855a01fa156105845760409260066080939284938451905260a05160608401525a01fa1561058457565b604051907f17375fc369ae670873690c0681c4561f0537a2d8799a091626b418e496f6dcfa82527f14e4dcbfc346dc034f5b72eaaad4dd4e3c97ef0bd85027be360f3649ef4f0b136020830152604082019081526107cf196040836060816007855a01fa156105845760409260066080939284938451905260a05160608401525a01fa1561058457565b604051907f08bd2fc53487934b1087f222b24313c87ed8bb20fe7ccb34bd38f3e30eb1654a82527f1b88a285a73fe5870a78789d5b2b61b28e9e698e1887955bf31969d75c7762286020830152604082019081526107cf196040836060816007855a01fa156105845760409260066080939284938451905260a05160608401525a01fa1561058457565b604051907f101ed22823cd0ea84a09d4944f7e23c4a850c558f71bcca47ee2744b38db606082527f24414bbf45f45e32b912396b4850a4affe9ba861413787394b8b684540af483f6020830152604082019081526107cf196040836060816007855a01fa156105845760409260066080939284938451905260a05160608401525a01fa1561058457565b604051907f15dbed7ca72aed4915f946d33aa793709a77befd6cb2ea08120433269e4bedf482527f0a4d98fc0e8f0ec73f78424cc118947929c8b53998166704b4311144c69c791f6020830152604082019081526107cf196040836060816007855a01fa156105845760409260066080939284938451905260a05160608401525a01fa1561058457565b604051907f0cb772892b55d4d82da992d6416ba4e0fc61d5fb3851fd0b3bca7bde660b5c4182527f14782d049a5df85ef851a499edf882367a26a890ee2b0df0194abc602f5da6746020830152604082019081526107cf196040836060816007855a01fa156105845760409260066080939284938451905260a05160608401525a01fa1561058457565b604051907f028af45e4df936fc7ec11e52f0346d03b51706aee46c7d0e45607a2c36ef9e0182527f1fa1d04bfe495db934564d952442a8b76bcfd138f48a5074c168bfc9de53d6e96020830152604082019081526107cf196040836060816007855a01fa156105845760409260066080939284938451905260a05160608401525a01fa1561058457565b604051907f25623d946876f33a1cfe141e12d22ae2216a7948718eed44bd3f0cb29372676382527f0de916c5a7477fbe41650548eae4d0bef3ab3713f42fd0a385fb9d18be99b74d6020830152604082019081526107cf196040836060816007855a01fa156105845760409260066080939284938451905260a05160608401525a01fa1561058457565b604051907f0a9564b95c8f93b6f5f32f860b58e775bef9f9236a82b5347bf75ad8891dae3d82527f06bdbd48c5772aca8786679d24a4220d60528c78846d9e56c50c012ecfccb23b6020830152604082019081526107cf196040836060816007855a01fa156105845760409260066080939284938451905260a05160608401525a01fa1561058457565b604051907f0a913552a4d0d23b3f5e07c39b847fe7ce5dbb95c27d527836c6e972418a096b82527f0e4e9be6d231fa0cda6f9122b68e6f4815e973c31b858db58afd9b9a9abbf21b6020830152604082019081526107cf196040836060816007855a01fa156105845760409260066080939284938451905260a05160608401525a01fa1561058457565b604051907f20ce2f672964cba1bd4f6acb8bf0b6c94fe3c36a2c77e2ecd8b739c4d15d533c82527eb6c0397153aa386c8651bb506d48caa07a943e81f09217be3e359773a45a466020830152604082019081526107cf196040836060816007855a01fa156105845760409260066080939284938451905260a05160608401525a01fa1561058457565b604051907f150dbd7c6c1b2c777d20e2a5cc35789bc889ee0fa51de2121e318c743eaee05682527f2249b3dd1ffb7127ba2951df3ff0db117b38b67b421ab02c6e8e8105c1a3da276020830152604082019081526107cf196040836060816007855a01fa156105845760409260066080939284938451905260a05160608401525a01fa1561058457565b604051907f14b34605e3d6bfeddb6775f04cadc5880f6b0f977c6404e0bfd4f9c2316e40ef82527f1acff2fe23cd52b722044f44023539344b2a5097dbbd8a05f0ad4142972ad34e6020830152604082019081526107cf196040836060816007855a01fa156105845760409260066080939284938451905260a05160608401525a01fa1561058457565b604051907f2a3c696e1ee363d92856fae1b9a3d86b8cf48b701f1004f72e2a8cc158fba4f682527f0bc3585a0683a1c3b3bb3053305ef8e27d36c8fa8434fdb1959199355908af156020830152604082019081526107cf196040836060816007855a01fa156105845760409260066080939284938451905260a05160608401525a01fa1561058457565b604051907f26b7a1693fe6e19100825b51a650af597d698d65dad057eb1ed20ff93a56e43782527f225a1654fb8c1fe971f3f2d83304d7b1a368b2bb107cce5d5d1d43a13d4553816020830152604082019081526107cf196040836060816007855a01fa156105845760409260066080939284938451905260a05160608401525a01fa1561058457565b604051907f1e5cbb57184f989025e477b22f71cdd7e8f4517db531b13902a382283305436582527f2f60b99204fc95ac2e0437a88bd818b571702b1e8d752a973f3f970ffc4a1c706020830152604082019081526107cf196040836060816007855a01fa156105845760409260066080939284938451905260a05160608401525a01fa1561058457565b604051907f23c4e180fd45ba95d203fe7d70a884f44d4154ad192bcf09c5208eadc585b10682527f14440a012414ee30d3f4c485f8d6409f056d73adfca83caee7cd63aeb3806bfd6020830152604082019081526107cf196040836060816007855a01fa156105845760409260066080939284938451905260a05160608401525a01fa1561058457565b604051907f03d8971f5da54eac12c6b8d8bda129bc474e64fb2767dbb41cdccd544f72835a82527f1a67a169b35d06dff4d80b70de71fa552e10190f95d6453537f83e843d452e4b6020830152604082019081526107cf196040836060816007855a01fa156105845760409260066080939284938451905260a05160608401525a01fa1561058457565b604051907f15ec2050e21359b50a374cc417c547ee791bd0ef2136f899eaa8a4b4851313f582527f0a7093aa1ded3db4341bb2bec2d01ad5304f1da0dd1e3507e550f747e812cfa36020830152604082019081526107cf196040836060816007855a01fa156105845760409260066080939284938451905260a05160608401525a01fa1561058457565b604051907f1c07468d6be7e4616ce245dd5a44b9fc6d8e91de7ecf659f443388d17f6170cb82527f1d991000a58bcdb9dd25b917576b32edc6ab59fdad964c134f25f38192b0e59e6020830152604082019081526107cf196040836060816007855a01fa156105845760409260066080939284938451905260a05160608401525a01fa1561058457565b604051907f15a82269d4b86a99e5c9e034cd93c3588009744fb8c07723787732a966fbc31a82527f1d7ca6b9248c8b043bfc6a2777957ec3c8de2b08346d96cebe624e5adbf806846020830152604082019081526107cf196040836060816007855a01fa156105845760409260066080939284938451905260a05160608401525a01fa1561058457565b604051907f05e2bdfdac42fdeaa14b4aa672986ad39a5ca3f76889723cc73aa3bcbef488c382527f0b14d678b8f5f632177641ed91d0a831462d2a55df5dd4f21c380bfc26674c7e6020830152604082019081526107cf196040836060816007855a01fa156105845760409260066080939284938451905260a05160608401525a01fa1561058457565b604051907f15f2b2706f1de5a82bc0dc62120db4645fe7cce273e4ada7b6464e81882d6c6282527f0169c34d52f50863ebc4a04c613d8f24b2ff3cc04414741cbd9cd1108169cdeb6020830152604082019081526107cf196040836060816007855a01fa156105845760409260066080939284938451905260a05160608401525a01fa1561058457565b604051907f0ae9ea5efb2d15a354075ab20be54b8230f6239ac15e84a94d0351df3801776e82527f1607c5dca075a307d98997e90028fcb72fa2e5ff50720e88ea96aa717c00d5c36020830152604082019081526107cf196040836060816007855a01fa156105845760409260066080939284938451905260a05160608401525a01fa1561058457565b604051907f03f323af063c0cba1fca4e46423fa1ea3d21be5262ca94e55a10f3b1421d42a182527f1d9880ef0d1d487143cd59a780630c96e5023b83fc27bf2d10d2360921e7961f6020830152604082019081526107cf196040836060816007855a01fa156105845760409260066080939284938451905260a05160608401525a01fa1561058457565b604051907f22c48fd720733199316d3d9a6ad12a2213c110bad30c4f7f7073a144b36cf59882527f2af5a53db6bc293662d02df57bda20db41e715ab358d1de15bcefd515586aea46020830152604082019081526107cf196040836060816007855a01fa156105845760409260066080939284938451905260a05160608401525a01fa1561058457565b604051907f038a3c6a02b5d3f7dd2f01e874e1f6e69c3b81a7f87fceb70bb9ae3854d7b4e782527f1e03175ac012e2fe7f5e0119996985b997f77cfc192b73436910e0dab16264636020830152604082019081526107cf196040836060816007855a01fa156105845760409260066080939284938451905260a05160608401525a01fa1561058457565b604051907efbda19b951fad33acd53522399d29b8b189835499bca9f2ee20e048009540182527f12f992f08d7bd1583e42e3cff1a6817854ee0d17192e0ce859d32aee97d5acec6020830152604082019081526107cf196040836060816007855a01fa156105845760409260066080939284938451905260a05160608401525a01fa1561058457565b604051907f0f2cd41d98e2437229746b6b6460244fec6604828eeeee255e0d709f92bbf5e282527f1fd27af41847213c6e48a0867ff92ac48fc603856e88906ca488a77cf39252c86020830152604082019081526107cf196040836060816007855a01fa156105845760409260066080939284938451905260a05160608401525a01fa1561058457565b604051907f0d8be05e4e8c50d70451a277d58b6daf86ddd73eca53a82ba00d32bec01d3b9182527f208a9701e9307afe73d82b586b60d94b9a5a56d5f04f85b3f52cea665114841f6020830152604082019081526107cf196040836060816007855a01fa156105845760409260066080939284938451905260a05160608401525a01fa1561058457565b6020907f174630c22a24120d52d20aea2e05db8b1785a02f7426bd3e601ea50e0a9d02d16080527f2b49f35eecf49235496e247daa973f732714b01f3f8e9835ed26258d7d75e66060a052613bc86101043561058e565b613bd461012435610618565b613be0610144356106a2565b613bec6101643561072c565b613bf8610184356107b6565b613c046101a435610840565b613c106101c4356108ca565b613c1c6101e435610954565b613c28610204356109de565b613c3461022435610a68565b613c4061024435610af2565b613c4c61026435610b7b565b613c5861028435610c05565b613c646102a435610c8f565b613c706102c435610d19565b613c7c6102e435610da3565b613c8861030435610e2d565b613c9461032435610eb6565b613ca061034435610f40565b613cac61036435610fca565b613cb861038435611054565b613cc46103a4356110de565b613cd06103c435611168565b613cdc6103e4356111f2565b613ce86104043561127c565b613cf461042435611306565b613d0061044435611390565b613d0c6104643561141a565b613d18610484356114a4565b613d246104a43561152e565b613d306104c4356115b8565b613d3c6104e435611642565b613d48610504356116cc565b613d5461052435611756565b613d60610544356117e0565b613d6c6105643561186a565b613d78610584356118f4565b613d846105a43561197e565b613d906105c435611a08565b613d9c6105e435611a92565b613da861060435611b1c565b613db461062435611ba6565b613dc061064435611c30565b613dcc61066435611cba565b613dd861068435611d44565b613de46106a435611dce565b613df06106c435611e58565b613dfc6106e435611ee2565b613e0861070435611f6c565b613e1461072435611ff6565b613e206107443561207f565b613e2c61076435612109565b613e3861078435612193565b613e446107a43561221d565b613e506107c4356122a7565b613e5c6107e435612331565b613e68610804356123bb565b613e7461082435612445565b613e80610844356124cf565b613e8c61086435612559565b613e98610884356125e3565b613ea46108a43561266d565b613eb06108c4356126f7565b613ebc6108e435612781565b613ec86109043561280b565b613ed461092435612895565b613ee06109443561291f565b613eec610964356129a9565b613ef861098435612a33565b613f046109a435612abd565b613f106109c435612b47565b613f1c6109e435612bd1565b613f28610a0435612c5b565b613f34610a2435612ce5565b613f40610a4435612d6f565b613f4c610a6435612df9565b613f58610a8435612e83565b613f64610aa435612f0d565b613f70610ac435612f97565b613f7c610ae435613021565b613f88610b04356130ab565b613f94610b2435613134565b613fa0610b44356131be565b613fac610b6435613248565b613fb8610b84356132d2565b613fc4610ba43561335c565b613fd0610bc4356133e6565b613fdc610be435613470565b613fe8610c04356134fa565b613ff4610c2435613584565b614000610c443561360e565b61400c610c6435613698565b614018610c8435613722565b614024610ca4356137ac565b614030610cc435613836565b61403c610ce4356138c0565b614048610d043561394a565b614054610d24356139d4565b614060610d4435613a5d565b61406c610d6435613ae7565b61010092818492358352837f30644e72e131a029b85045b68181585d97816a916871ca8d3c208c16d87cfd479101358103066101205260443561014052606435610160526084356101805260a4356101a0527f2d4d9aa7e302d9df41749d5507949d05dbea33fbb16c643b22f599a2be6df2e26101c0527f14bedd503c37ceb061d8ec60209fe345ce89830a19230301f076caff004d19266101e0527f0967032fcbf776d1afc985f88877f182d38480a653f2decaa9794cbc3bf3060c610200527f0e187847ad4c798374d0d6732bf501847dd68bc0e071241e0213bc7fc13db7ab610220527f304cfbd1e08a704a99f5e847d93f8c3caafddec46b7a0d379da69a4d112346a7610240527f1739c1b1a457a8c7313123d24d2f9192f896b7c63eea05a9d57f06547ad0cec8610260526080516102805260a0516102a0527f198e9393920d483a7260bfb731fb5d25f1aa493335a9e71297e485b7aef312c26102c0527f1800deef121f1e76426a00665e5c4479674322d4f75edadd46debd5cd992f6ed6102e05282610300917f090689d0585ff075ec9e99ad690c3395bc4b313370b38ef355acdadcd122975b83527f12c85ea5db8c6deb4aab71808dcb408fe3d1e7690c43d37b4ce6cc0166fa7daa610320528035610340520135610360527f129165cc83941ccc8fae4eae09ccfd5e1d8e317f1974355b028cea1a61b78414610380527f0b91ae1aaca73a72984a20c4d54ee2264b76062c5a52dc6afb80a7f345b8709b6103a0527f1a2d14f23c1729e3b287ea6047239003bbeb55f2aa6505bc7fdac8b984a435236103c0527e5efa2d32bce9739aa998048bce3c7b9764ae8b2f0a90ec1a67ec2ec90c00436103e0528160086107cf195a01fa9051169056fea264697066735822122030477976cb8e1fb9185ba0dbafde51307ee8d538b1b7c21756e582acd7753f8d64736f6c634300080f0033",
  "linkReferences": {},
  "deployedLinkReferences": {}
}