{
  "_format": "hh-sol-artifact-1",
  "contractName": "ProblemMetadata",
  "sourceName": "contracts/ProblemMetadata.sol",
  "abi": [
    {
      "inputs": [],
      "stateMutability": "nonpayable",
      "type": "constructor"
    },
    {
      "anonymous": false,
      "inputs": [
        {
          "indexed": true,
          "internalType": "address",
          "name": "previousOwner",
          "type": "address"
        },
        {
          "indexed": true,
          "internalType": "address",
          "name": "newOwner",
          "type": "address"
        }
      ],
      "name": "OwnershipTransferred",
      "type": "event"
    },
    {
      "inputs": [
        {
          "internalType": "uint256",
          "name": "id",
          "type": "uint256"
        }
      ],
      "name": "exists",
      "outputs": [
        {
          "internalType": "bool",
          "name": "",
          "type": "bool"
        }
      ],
      "stateMutability": "view",
      "type": "function"
    },
    {
      "inputs": [
        {
          "internalType": "uint256",
          "name": "tokenId",
          "type": "uint256"
        }
      ],
      "name": "getHTML",
      "outputs": [
        {
          "internalType": "string",
          "name": "",
          "type": "string"
        }
      ],
      "stateMutability": "view",
      "type": "function"
    },
    {
      "inputs": [
        {
          "internalType": "uint256",
          "name": "tokenId",
          "type": "uint256"
        }
      ],
      "name": "getName",
      "outputs": [
        {
          "internalType": "string",
          "name": "",
          "type": "string"
        }
      ],
      "stateMutability": "pure",
      "type": "function"
    },
    {
      "inputs": [
        {
          "internalType": "uint256",
          "name": "tokenId",
          "type": "uint256"
        }
      ],
      "name": "getPath",
      "outputs": [
        {
          "internalType": "string",
          "name": "",
          "type": "string"
        }
      ],
      "stateMutability": "view",
      "type": "function"
    },
    {
      "inputs": [
        {
          "internalType": "uint256",
          "name": "tokenId",
          "type": "uint256"
        }
      ],
      "name": "getProblemMetadata",
      "outputs": [
        {
          "internalType": "string",
          "name": "",
          "type": "string"
        }
      ],
      "stateMutability": "view",
      "type": "function"
    },
    {
      "inputs": [
        {
          "internalType": "uint256",
          "name": "tokenId",
          "type": "uint256"
        }
      ],
      "name": "getSVG",
      "outputs": [
        {
          "internalType": "string",
          "name": "",
          "type": "string"
        }
      ],
      "stateMutability": "view",
      "type": "function"
    },
    {
      "inputs": [],
      "name": "owner",
      "outputs": [
        {
          "internalType": "address",
          "name": "",
          "type": "address"
        }
      ],
      "stateMutability": "view",
      "type": "function"
    },
    {
      "inputs": [],
      "name": "problems",
      "outputs": [
        {
          "internalType": "address payable",
          "name": "",
          "type": "address"
        }
      ],
      "stateMutability": "view",
      "type": "function"
    },
    {
      "inputs": [],
      "name": "renounceOwnership",
      "outputs": [],
      "stateMutability": "nonpayable",
      "type": "function"
    },
    {
      "inputs": [
        {
          "internalType": "bytes32",
          "name": "seed",
          "type": "bytes32"
        }
      ],
      "name": "seedToColor",
      "outputs": [
        {
          "internalType": "string",
          "name": "",
          "type": "string"
        }
      ],
      "stateMutability": "pure",
      "type": "function"
    },
    {
      "inputs": [
        {
          "internalType": "address",
          "name": "newOwner",
          "type": "address"
        }
      ],
      "name": "transferOwnership",
      "outputs": [],
      "stateMutability": "nonpayable",
      "type": "function"
    },
    {
      "inputs": [
        {
          "internalType": "address payable",
          "name": "problems_",
          "type": "address"
        }
      ],
      "name": "updateProblemsAddress",
      "outputs": [],
      "stateMutability": "nonpayable",
      "type": "function"
    }
  ],
  "bytecode": "0x6080806040523461005b5760008054336001600160a01b0319821681178355916001600160a01b03909116907f8be0079c531659141344cd1fd0a4f28419497f9722a3daafe3b4186f6b6457e09084a3611c1790816100618239f35b600080fdfe60806040526004361015610013575b600080fd5b60003560e01c8063087c32e614610103578063102581d2146100fa5780634f558e79146100f157806351a35b55146100e85780636b8ff574146100df578063715018a6146100d65780638da5cb5b146100cd578063be985ac9146100c4578063e1765073146100bb578063e82fedd7146100b2578063f2fde38b146100a95763f9df988f146100a157600080fd5b61000e610950565b5061000e610883565b5061000e610863565b5061000e610849565b5061000e610834565b5061000e61080a565b5061000e6107a8565b5061000e61078e565b5061000e6102df565b5061000e6102bc565b5061000e6101d8565b5061000e61011d565b6001600160a01b0381160361000e57565b503461000e57602036600319011261000e5760043561013b8161010c565b61014361097a565b600180546001600160a01b0319166001600160a01b0392909216919091179055005b602090600319011261000e5760043590565b918091926000905b828210610197575011610190575050565b6000910152565b9150806020918301518186015201829161017f565b604091602082526101cc8151809281602086015260208686019101610177565b601f01601f1916010190565b503461000e576102b86102606101f56101f036610165565b610ebf565b61025b60466040518093753c68746d6c3e3c626f64793e3c696d67207372633d2760501b6020830152610232815180926020603686019101610177565b81016f139f1e17b137b23c9f1e17b43a36b61f60811b6036820152036026810184520182610a2e565b610d8b565b6102ac603660405180937519185d184e9d195e1d0bda1d1b5b0ed8985cd94d8d0b60521b602083015261029c8151809260208686019101610177565b8101036016810184520182610a2e565b604051918291826101ac565b0390f35b503461000e5760206102d56102d036610165565b610a5d565b6040519015158152f35b503461000e576102ee36610165565b6102ff6102fa82610a5d565b610aeb565b61030881610e77565b61031182610ebf565b9061036660c061032085610ebf565b6001549095906103469061033a906001600160a01b031681565b6001600160a01b031690565b60405180809581946375d279b360e11b8352600483019190602083019252565b03915afa8015610781575b6000809181938280918193610748575b501561073d5761039861039261194a565b94611b32565b946103a29061196a565b926103ac9061196a565b906103b69061196a565b916103c09061196a565b604051605b60f81b6020820152958695919491602187017f7b2274726169745f74797065223a22736f6c766564222c2276616c7565223a008152601f0161040691610b28565b7f7d2c207b2274726169745f74797065223a2273656564222c2276616c7565223a8152601160f91b602082015260210161043f91610b28565b7f227d2c207b2274726169745f74797065223a22646179222c2276616c7565223a8152601160f91b602082015260210161047891610b28565b7f227d2c207b2274726169745f74797065223a22626f6479436f756e74222c227681526630b63ab2911d1160c91b60208201526027016104b791610b28565b7f227d2c207b2274726169745f74797065223a226d696e746564426f646965734981526e373232bc1116113b30b63ab2911d1160891b6020820152602f016104fe91610b28565b7f227d2c207b2274726169745f74797065223a227469636b436f756e74222c227681526630b63ab2911d1160c91b602082015260270161053d91610b28565b62227d5d60e81b81526003010393601f1994858101835261055e9083610a2e565b604051683d913730b6b2911d1160b91b60208201529384936029850161058391610b28565b61088b60f21b81526002017f226465736372697074696f6e223a2022416e79626f64792050726f626c656d2081527f2868747470733a2f2f616e79626f64792e747269666c652e6c69666529222c006020820152603f01691134b6b0b3b2911d101160b11b8152600a016105f691610b28565b61088b60f21b81526002016d1134b6b0b3b2afbab936111d101160911b8152600e0161062191610b28565b61088b60f21b81526002017f22686f6d655f75726c223a202268747470733a2f2f616e79626f64792e747269815269199b194b9b1a5999488b60b21b6020820152602a017f2265787465726e616c5f75726c223a202268747470733a2f2f616e79626f647981526d0b9d1c9a599b194b9b1a5999488b60921b6020820152602e016d01130ba3a3934b13aba32b9911d160951b8152600e016106c291610b28565b607d60f81b81526001010382810182526106dc9082610a2e565b6106e590610d8b565b6040517f646174613a6170706c69636174696f6e2f6a736f6e3b6261736536342c000000602082015291908290603d820161071f91610b28565b03908101825261072f9082610a2e565b6040516102b88192826101ac565b610398610392611929565b94505050505061076f915060c03d811161077a575b6107678183610a2e565b810190611082565b929491929138610381565b503d61075d565b610789610a50565b610371565b503461000e576102b86102ac6107a336610165565b610e77565b503461000e57600080600319360112610807576107c361097a565b80546001600160a01b0319811682556040519082906001600160a01b03167f8be0079c531659141344cd1fd0a4f28419497f9722a3daafe3b4186f6b6457e08284a3f35b80fd5b503461000e57600036600319011261000e576000546040516001600160a01b039091168152602090f35b503461000e576102b86102ac6101f036610165565b503461000e576102b86102ac61085e36610165565b6111ff565b503461000e57602036600319011261000e576102b86102ac600435611865565b503461000e57602036600319011261000e576004356108a18161010c565b6108a961097a565b6001600160a01b039081169081156108fc57600080546001600160a01b031981168417825560405191939192167f8be0079c531659141344cd1fd0a4f28419497f9722a3daafe3b4186f6b6457e08484a3f35b60405162461bcd60e51b815260206004820152602660248201527f4f776e61626c653a206e6577206f776e657220697320746865207a65726f206160448201526564647265737360d01b6064820152608490fd5b503461000e57600036600319011261000e576001546040516001600160a01b039091168152602090f35b6000546001600160a01b0316330361098e57565b606460405162461bcd60e51b815260206004820152602060248201527f4f776e61626c653a2063616c6c6572206973206e6f7420746865206f776e65726044820152fd5b50634e487b7160e01b600052604160045260246000fd5b6020810190811067ffffffffffffffff821117610a0557604052565b610a0d6109d2565b604052565b6040810190811067ffffffffffffffff821117610a0557604052565b90601f8019910116810190811067ffffffffffffffff821117610a0557604052565b506040513d6000823e3d90fd5b6001546040516331a9108f60e11b815260048101929092526001600160a01b0391906020908290602490829086165afa908115610ade575b600091610aa4575b5016151590565b906020823d8211610ad6575b81610abd60209383610a2e565b81010312610807575051610ad08161010c565b38610a9d565b3d9150610ab0565b610ae6610a50565b610a95565b15610af257565b60405162461bcd60e51b815260206004820152600e60248201526d1113d154c81393d50811561254d560921b6044820152606490fd5b90610b3b60209282815194859201610177565b0190565b60405190610120820182811067ffffffffffffffff821117610a0557604052565b60209067ffffffffffffffff8111610b7e575b601f01601f19160190565b610b866109d2565b610b73565b60405190610b98826109e9565b60008252565b604051906060820182811067ffffffffffffffff821117610c0f575b604052604082527f6768696a6b6c6d6e6f707172737475767778797a303132333435363738392b2f6040837f4142434445464748494a4b4c4d4e4f505152535455565758595a61626364656660208201520152565b610c176109d2565b610bba565b50634e487b7160e01b600052601160045260246000fd5b6002906002198111610c43570190565b610b3b610c1c565b6020906020198111610c43570190565b81198111610c43570190565b8115610c71570490565b634e487b7160e01b600052601260045260246000fd5b6001600160fe1b038111600116610c9f575b60021b90565b610ca7610c1c565b610c99565b806000190460041181151516610c9f5760021b90565b7f028f5c28f5c28f5c28f5c28f5c28f5c28f5c28f5c28f5c28f5c28f5c28f5c28f8111600116610cf3575b60640290565b610cfb610c1c565b610ced565b8060001904821181151516610d13570290565b610d1b610c1c565b0290565b604051906080820182811067ffffffffffffffff821117610d4c575b604052604282526060366020840137565b610d546109d2565b610d3b565b90610d6382610b60565b610d706040519182610a2e565b8281528092610d81601f1991610b60565b0190602036910137565b805115610e6b57610d9a610b9e565b610db6610db1610daa8451610c33565b6003900490565b610c87565b91610dc8610dc384610c4b565b610d59565b92835280815182019060208501935b828210610e1957505050600390510680600114610e0857600214610df9575090565b603d60f81b6000199091015290565b50613d3d60f01b6001199091015290565b9091936004906003809401938451600190603f9082828260121c16880101518553828282600c1c16880101518386015382828260061c1688010151600286015316850101519082015301939190610dd7565b50610e74610b8b565b90565b610e809061196a565b610e74602960405180936850726f626c656d202360b81b6020830152610eaf8151809260208686019101610177565b8101036009810184520182610a2e565b610e74610fda61104161107693610ed86102fa82610a5d565b61102d611014610ef0610eea846111ff565b93610e77565b61100e6040519687957f3c3f786d6c2076657273696f6e3d22312e302220656e636f64696e673d22757460208801527f662d38223f3e3c73766720786d6c6e733d22687474703a2f2f7777772e77332e60408801527f6f72672f323030302f7376672220206865696768743d2231303025222077696460608801527f74683d2231303025222076696577426f783d223020302031303030203130303060808801527f22207374796c653d226261636b67726f756e642d636f6c6f723a677265793b2260a08801526f1f1e39ba3cb6329f1e17b9ba3cb6329f60811b60c088015260d0870190610b28565b7f3c7465787420783d2235302220793d223535302220636c6173733d226e616d65815261111f60f11b602082015260220190565b90610b28565b6c1e17ba32bc3a1f1e17b9bb339f60991b8152600d0190565b039161025b601f1993848101835282610a2e565b6040517f646174613a696d6167652f7376672b786d6c3b6261736536342c0000000000006020820152938491603a830161100e565b03908101835282610a2e565b91908260c091031261000e578151801515810361000e579160208101519160408201519160608101519160a0608083015192015190565b90610140808383031261000e5781601f8401121561000e576040519281840184811067ffffffffffffffff821117611119575b6040528391810192831161000e57905b8282106111095750505090565b81518152602091820191016110fc565b6111216109d2565b6110ec565b9081602091031261000e575190565b6001906000198114610c43570190565b50634e487b7160e01b600052603260045260246000fd5b90600a81101561116e575b60051b0190565b611176611145565b611167565b908161012091031261000e5761118f610b3f565b90805182526020810151602083015260408101516040830152606081015160608301526080810151608083015260a081015160a083015260c081015160c083015260e081015160e0830152610100809101519082015290565b8181106111f3570390565b6111fb610c1c565b0390565b611207610b8b565b6001549091906112219061033a906001600160a01b031681565b604080516375d279b360e11b8152600480820185905290939290919060c085602481845afa948515611858575b600095611832575b5081516310211ca160e21b81528381018581526101409491908590829081906020010381865afa948515611825575b6000956117f6575b5050825191631da686ff60e31b835260209485848481855afa9384156117e9575b6000946117ba575b50969594939291906000975b8789106112d55750505050505050505090565b909192939495969798898787878b61131b896112f1878a61115c565b51855163618faeb560e11b8152918201938452602084015261012092909183918391829160400190565b03818c5afa9182156117ad575b600092611780575b505060e081015161134090610cac565b61134983610cc2565b61135291610c5b565b61135c8382610c67565b6113658161196a565b9361136f91610d00565b611378916111e8565b6113819061196a565b60608201928b84519061139391610c67565b935161139f8d86610d00565b6113a8916111e8565b936113b29061196a565b936113bc9061196a565b9385519485918883016113ce91610b28565b601760f91b81526001016113e191610b28565b0396601f199788810186526113f69086610a2e565b60808401938d8086519061140991610c67565b9551906114169087610d00565b61141f916111e8565b946114299061196a565b946114339061196a565b9487519586918a830161144591610b28565b601760f91b815260010161145891610b28565b0389810186526114689086610a2e565b80516114739061196a565b91875190818a810161149e906012907103a3930b739b337b93696b7b934b3b4b71d160751b81520190565b6114a8908a610b28565b620383c160ed1b81526003016114be9089610b28565b630383c1d960e51b8152600401038b810183526114db9083610a2e565b6114e49061196a565b9161010001516114f390611865565b97519a8b998a0161150391610b28565b7f3c7374796c653e20406b65796672616d6573206d6f7665456c6c6970736500008152601e016115339084610b28565b670103d901812903d960c51b815260080161154e9082610b28565b7f207472616e73666f726d3a20726f74617465283064656729207472616e736c6181527f7465283070782c2031307078293b207d2031303025207b20000000000000000060208201526038016115a391610b28565b7f207472616e73666f726d3a20726f746174652833363064656729207472616e738152736c617465283070782c2031307078293b207d207d60601b60208201526034016a656c6c697073652369642d60a81b8152600b016116049083610b28565b7f207b20616e696d6174696f6e3a206d6f7665456c6c697073650000000000000081526019016116349083610b28565b7f20347320696e66696e697465206c696e6561723b20616e696d6174696f6e2d64815266656c61793a202d60c81b602082015260270161167391610b28565b6b399d903e9e17b9ba3cb6329f60a11b8152600c016f3c656c6c697073652069643d2269642d60801b81526010016116aa91610b28565b651110393c9e9160d11b81526006016116c39082610b28565b601760f91b81526001016116d79083610b28565b651110393c1e9160d11b81526006016116ef91610b28565b601760f91b815260010161170291610b28565b65111031bc9e9160d11b815260060161171a91610b28565b65111031bc1e9160d11b815260060161173291610b28565b6711103334b6361e9160c11b815260080161174c91610b28565b631110179f60e11b81526004010390810182526117699082610a2e565b9861177390611135565b97969594939291906112c2565b61179f9250803d106117a6575b6117978183610a2e565b81019061117b565b3880611330565b503d61178d565b6117b5610a50565b611328565b6117db919450863d88116117e2575b6117d38183610a2e565b810190611126565b92386112b6565b503d6117c9565b6117f1610a50565b6112ae565b611816929550803d1061181e575b61180e8183610a2e565b8101906110b9565b92388061128d565b503d611804565b61182d610a50565b611285565b61184b91955060c03d811161077a576107678183610a2e565b5050925050509338611256565b611860610a50565b61124e565b610e7460259161190e61190061ffff61100e6118f26118b760286118b0606482878b60201c1606968319881161191c575b6118a5610168828d160661196a565b9a60101c160661196a565b940161196a565b92604051988997630d0e6d8560e31b60208a01526118df81518092602060248d019101610177565b8801600b60fa1b60248201520190610b28565b61094b60f21b815260020190565b61252960f01b815260020190565b03601f198101835282610a2e565b611924610c1c565b611896565b6040519061193682610a12565b600582526466616c736560d81b6020830152565b6040519061195782610a12565b60048252637472756560e01b6020830152565b806000917a184f03e93ff9f4daa797ed6e38ed64bf6a1f01000000000000000080821015611a9f575b506d04ee2d6d415b85acef810000000080831015611a90575b50662386f26fc1000080831015611a81575b506305f5e10080831015611a72575b5061271080831015611a63575b506064821015611a53575b600a80921015611a49575b600190816021611a01828701610d59565b95860101905b611a13575b5050505090565b600019019083906f181899199a1a9b1b9c1cb0b131b232b360811b8282061a835304918215611a4457919082611a07565b611a0c565b91600101916119f0565b91906064600291049101916119e5565b600491939204910191386119da565b600891939204910191386119cd565b601091939204910191386119be565b602091939204910191386119ac565b604093508104915038611993565b906020918051821015611abf57010190565b611ac7611145565b010190565b8015611ada575b6000190190565b611ae2610c1c565b611ad3565b15611aee57565b606460405162461bcd60e51b815260206004820152602060248201527f537472696e67733a20686578206c656e67746820696e73756666696369656e746044820152fd5b611b3a610d1f565b90815115611bd4575b603060208301538151600190811015611bc7575b90607860218401536041915b808311611b765750610e74915015611ae7565b9080600f611bb392166010811015611bba575b6f181899199a1a9b1b9c1cb0b131b232b360811b901a611ba98587611aad565b5360041c92611acc565b9190611b63565b611bc2611145565b611b89565b611bcf611145565b611b57565b611bdc611145565b611b4356fea26469706673582212203d12e5baf8cd63ad80d4e4aff69949215f6fa17b0bb132917d693ce0272b8cec64736f6c634300080f0033",
  "linkReferences": {},
  "deployedLinkReferences": {}
}