{
  "_format": "hh-sol-artifact-1",
  "contractName": "Bodies",
  "sourceName": "contracts/Bodies.sol",
  "abi": [
    {
      "inputs": [
        {
          "internalType": "address",
          "name": "bodyMetadata_",
          "type": "address"
        },
        {
          "internalType": "address payable",
          "name": "problems_",
          "type": "address"
        }
      ],
      "stateMutability": "nonpayable",
      "type": "constructor"
    },
    {
      "anonymous": false,
      "inputs": [
        {
          "indexed": true,
          "internalType": "address",
          "name": "owner",
          "type": "address"
        },
        {
          "indexed": true,
          "internalType": "address",
          "name": "approved",
          "type": "address"
        },
        {
          "indexed": true,
          "internalType": "uint256",
          "name": "tokenId",
          "type": "uint256"
        }
      ],
      "name": "Approval",
      "type": "event"
    },
    {
      "anonymous": false,
      "inputs": [
        {
          "indexed": true,
          "internalType": "address",
          "name": "owner",
          "type": "address"
        },
        {
          "indexed": true,
          "internalType": "address",
          "name": "operator",
          "type": "address"
        },
        {
          "indexed": false,
          "internalType": "bool",
          "name": "approved",
          "type": "bool"
        }
      ],
      "name": "ApprovalForAll",
      "type": "event"
    },
    {
      "anonymous": false,
      "inputs": [
        {
          "indexed": true,
          "internalType": "address",
          "name": "previousOwner",
          "type": "address"
        },
        {
          "indexed": true,
          "internalType": "address",
          "name": "newOwner",
          "type": "address"
        }
      ],
      "name": "OwnershipTransferred",
      "type": "event"
    },
    {
      "anonymous": false,
      "inputs": [
        {
          "indexed": true,
          "internalType": "address",
          "name": "from",
          "type": "address"
        },
        {
          "indexed": true,
          "internalType": "address",
          "name": "to",
          "type": "address"
        },
        {
          "indexed": true,
          "internalType": "uint256",
          "name": "tokenId",
          "type": "uint256"
        }
      ],
      "name": "Transfer",
      "type": "event"
    },
    {
      "anonymous": false,
      "inputs": [
        {
          "indexed": true,
          "internalType": "uint256",
          "name": "bodyId",
          "type": "uint256"
        },
        {
          "indexed": true,
          "internalType": "uint256",
          "name": "problemId",
          "type": "uint256"
        },
        {
          "indexed": true,
          "internalType": "uint256",
          "name": "mintedBodyIndex",
          "type": "uint256"
        },
        {
          "indexed": false,
          "internalType": "bytes32",
          "name": "seed",
          "type": "bytes32"
        },
        {
          "indexed": false,
          "internalType": "bool",
          "name": "addedToProblem",
          "type": "bool"
        }
      ],
      "name": "bodyBorn",
      "type": "event"
    },
    {
      "stateMutability": "nonpayable",
      "type": "fallback"
    },
    {
      "inputs": [
        {
          "internalType": "address",
          "name": "to",
          "type": "address"
        },
        {
          "internalType": "uint256",
          "name": "tokenId",
          "type": "uint256"
        }
      ],
      "name": "approve",
      "outputs": [],
      "stateMutability": "nonpayable",
      "type": "function"
    },
    {
      "inputs": [
        {
          "internalType": "address",
          "name": "owner",
          "type": "address"
        }
      ],
      "name": "balanceOf",
      "outputs": [
        {
          "internalType": "uint256",
          "name": "",
          "type": "uint256"
        }
      ],
      "stateMutability": "view",
      "type": "function"
    },
    {
      "inputs": [
        {
          "internalType": "uint256",
          "name": "",
          "type": "uint256"
        }
      ],
      "name": "bodies",
      "outputs": [
        {
          "internalType": "uint256",
          "name": "problemId",
          "type": "uint256"
        },
        {
          "internalType": "uint256",
          "name": "mintedBodyIndex",
          "type": "uint256"
        },
        {
          "internalType": "bytes32",
          "name": "seed",
          "type": "bytes32"
        }
      ],
      "stateMutability": "view",
      "type": "function"
    },
    {
      "inputs": [],
      "name": "bodyMetadata",
      "outputs": [
        {
          "internalType": "address",
          "name": "",
          "type": "address"
        }
      ],
      "stateMutability": "view",
      "type": "function"
    },
    {
      "inputs": [
        {
          "internalType": "uint256",
          "name": "bodyID",
          "type": "uint256"
        }
      ],
      "name": "burn",
      "outputs": [],
      "stateMutability": "nonpayable",
      "type": "function"
    },
    {
      "inputs": [],
      "name": "counter",
      "outputs": [
        {
          "internalType": "uint256",
          "name": "",
          "type": "uint256"
        }
      ],
      "stateMutability": "view",
      "type": "function"
    },
    {
      "inputs": [],
      "name": "decimals",
      "outputs": [
        {
          "internalType": "uint256",
          "name": "",
          "type": "uint256"
        }
      ],
      "stateMutability": "view",
      "type": "function"
    },
    {
      "inputs": [
        {
          "internalType": "uint256",
          "name": "tokenId",
          "type": "uint256"
        }
      ],
      "name": "generateSeed",
      "outputs": [
        {
          "internalType": "bytes32",
          "name": "",
          "type": "bytes32"
        }
      ],
      "stateMutability": "view",
      "type": "function"
    },
    {
      "inputs": [
        {
          "internalType": "uint256",
          "name": "tokenId",
          "type": "uint256"
        }
      ],
      "name": "getApproved",
      "outputs": [
        {
          "internalType": "address",
          "name": "",
          "type": "address"
        }
      ],
      "stateMutability": "view",
      "type": "function"
    },
    {
      "inputs": [
        {
          "internalType": "address",
          "name": "owner",
          "type": "address"
        },
        {
          "internalType": "address",
          "name": "operator",
          "type": "address"
        }
      ],
      "name": "isApprovedForAll",
      "outputs": [
        {
          "internalType": "bool",
          "name": "",
          "type": "bool"
        }
      ],
      "stateMutability": "view",
      "type": "function"
    },
    {
      "inputs": [
        {
          "internalType": "address",
          "name": "owner",
          "type": "address"
        },
        {
          "internalType": "uint256",
          "name": "problemId",
          "type": "uint256"
        },
        {
          "internalType": "uint256",
          "name": "mintedBodyIndex",
          "type": "uint256"
        }
      ],
      "name": "mintAndAddToProblem",
      "outputs": [
        {
          "internalType": "uint256",
          "name": "bodyId",
          "type": "uint256"
        },
        {
          "internalType": "bytes32",
          "name": "seed",
          "type": "bytes32"
        }
      ],
      "stateMutability": "nonpayable",
      "type": "function"
    },
    {
      "inputs": [
        {
          "internalType": "address",
          "name": "owner",
          "type": "address"
        },
        {
          "internalType": "uint256",
          "name": "bodyId",
          "type": "uint256"
        },
        {
          "internalType": "uint256",
          "name": "problemId",
          "type": "uint256"
        }
      ],
      "name": "moveBodyFromProblem",
      "outputs": [],
      "stateMutability": "nonpayable",
      "type": "function"
    },
    {
      "inputs": [
        {
          "internalType": "uint256",
          "name": "bodyId",
          "type": "uint256"
        },
        {
          "internalType": "address",
          "name": "owner",
          "type": "address"
        },
        {
          "internalType": "uint256",
          "name": "problemId",
          "type": "uint256"
        }
      ],
      "name": "moveBodyToProblem",
      "outputs": [
        {
          "internalType": "uint256",
          "name": "mintedBodyIndex",
          "type": "uint256"
        },
        {
          "internalType": "bytes32",
          "name": "seed",
          "type": "bytes32"
        }
      ],
      "stateMutability": "nonpayable",
      "type": "function"
    },
    {
      "inputs": [],
      "name": "name",
      "outputs": [
        {
          "internalType": "string",
          "name": "",
          "type": "string"
        }
      ],
      "stateMutability": "view",
      "type": "function"
    },
    {
      "inputs": [],
      "name": "owner",
      "outputs": [
        {
          "internalType": "address",
          "name": "",
          "type": "address"
        }
      ],
      "stateMutability": "view",
      "type": "function"
    },
    {
      "inputs": [
        {
          "internalType": "uint256",
          "name": "tokenId",
          "type": "uint256"
        }
      ],
      "name": "ownerOf",
      "outputs": [
        {
          "internalType": "address",
          "name": "",
          "type": "address"
        }
      ],
      "stateMutability": "view",
      "type": "function"
    },
    {
      "inputs": [
        {
          "internalType": "address",
          "name": "owner",
          "type": "address"
        },
        {
          "internalType": "uint256",
          "name": "bodyId",
          "type": "uint256"
        }
      ],
      "name": "problemMint",
      "outputs": [],
      "stateMutability": "nonpayable",
      "type": "function"
    },
    {
      "inputs": [],
      "name": "problems",
      "outputs": [
        {
          "internalType": "address payable",
          "name": "",
          "type": "address"
        }
      ],
      "stateMutability": "view",
      "type": "function"
    },
    {
      "inputs": [],
      "name": "renounceOwnership",
      "outputs": [],
      "stateMutability": "nonpayable",
      "type": "function"
    },
    {
      "inputs": [
        {
          "internalType": "address",
          "name": "from",
          "type": "address"
        },
        {
          "internalType": "address",
          "name": "to",
          "type": "address"
        },
        {
          "internalType": "uint256",
          "name": "tokenId",
          "type": "uint256"
        }
      ],
      "name": "safeTransferFrom",
      "outputs": [],
      "stateMutability": "nonpayable",
      "type": "function"
    },
    {
      "inputs": [
        {
          "internalType": "address",
          "name": "from",
          "type": "address"
        },
        {
          "internalType": "address",
          "name": "to",
          "type": "address"
        },
        {
          "internalType": "uint256",
          "name": "tokenId",
          "type": "uint256"
        },
        {
          "internalType": "bytes",
          "name": "data",
          "type": "bytes"
        }
      ],
      "name": "safeTransferFrom",
      "outputs": [],
      "stateMutability": "nonpayable",
      "type": "function"
    },
    {
      "inputs": [
        {
          "internalType": "address",
          "name": "operator",
          "type": "address"
        },
        {
          "internalType": "bool",
          "name": "approved",
          "type": "bool"
        }
      ],
      "name": "setApprovalForAll",
      "outputs": [],
      "stateMutability": "nonpayable",
      "type": "function"
    },
    {
      "inputs": [
        {
          "internalType": "bytes4",
          "name": "interfaceId",
          "type": "bytes4"
        }
      ],
      "name": "supportsInterface",
      "outputs": [
        {
          "internalType": "bool",
          "name": "",
          "type": "bool"
        }
      ],
      "stateMutability": "view",
      "type": "function"
    },
    {
      "inputs": [],
      "name": "symbol",
      "outputs": [
        {
          "internalType": "string",
          "name": "",
          "type": "string"
        }
      ],
      "stateMutability": "view",
      "type": "function"
    },
    {
      "inputs": [
        {
          "internalType": "uint256",
          "name": "id",
          "type": "uint256"
        }
      ],
      "name": "tokenURI",
      "outputs": [
        {
          "internalType": "string",
          "name": "",
          "type": "string"
        }
      ],
      "stateMutability": "view",
      "type": "function"
    },
    {
      "inputs": [
        {
          "internalType": "address",
          "name": "from",
          "type": "address"
        },
        {
          "internalType": "address",
          "name": "to",
          "type": "address"
        },
        {
          "internalType": "uint256",
          "name": "tokenId",
          "type": "uint256"
        }
      ],
      "name": "transferFrom",
      "outputs": [],
      "stateMutability": "nonpayable",
      "type": "function"
    },
    {
      "inputs": [
        {
          "internalType": "address",
          "name": "newOwner",
          "type": "address"
        }
      ],
      "name": "transferOwnership",
      "outputs": [],
      "stateMutability": "nonpayable",
      "type": "function"
    },
    {
      "inputs": [
        {
          "internalType": "address",
          "name": "bodyMetadata_",
          "type": "address"
        }
      ],
      "name": "updateBodyMetadataAddress",
      "outputs": [],
      "stateMutability": "nonpayable",
      "type": "function"
    },
    {
      "inputs": [
        {
          "internalType": "address payable",
          "name": "problems_",
          "type": "address"
        }
      ],
      "name": "updateProblemsAddress",
      "outputs": [],
      "stateMutability": "nonpayable",
      "type": "function"
    }
  ],
  "bytecode": "0x608034620003ca57601f906001600160401b0390601f1962001c2f3881900385810183168401919085831185841017620003b4578085926040948552833981010312620003ca5781516001600160a01b03938482169391849003620003ca5760208092015195858716809703620003ca576200007a620003cf565b926006845265426f6469657360d01b8185015262000097620003cf565b9060038252621093d160ea1b81830152845195848711620003b4576000968754966001978881811c91168015620003a9575b85821014620003955790818784931162000342575b508490878311600114620002e1578a92620002d5575b5050600019600383901b1c191690871b1787555b8251948511620002c15785548681811c91168015620002b6575b83821014620002a25790818587969594931162000249575b5081938511600114620001e45750508592620001d8575b5050600019600383901b1c191690821b1790555b600654907f8be0079c531659141344cd1fd0a4f28419497f9722a3daafe3b4186f6b6457e060018060a01b031994338685161760065533931691604051a3620001ad620003ef565b816008541617600855620001c0620003ef565b60075416176007556040516117e69081620004498239f35b01519050388062000151565b869593929193168588528388209388905b8282106200022f575050841162000215575b505050811b01905562000165565b015160001960f88460031b161c1916905538808062000207565b8484015186558897909501949384019390810190620001f5565b9091929394508688528288208580880160051c82019285891062000298575b9188978a9297969594930160051c01915b828110620002895750506200013a565b8a815588975089910162000279565b9250819262000268565b634e487b7160e01b88526022600452602488fd5b90607f169062000122565b634e487b7160e01b87526041600452602487fd5b015190503880620000f4565b90848a9416918b8052868c20928c5b888282106200032b575050841162000311575b505050811b01875562000108565b015160001960f88460031b161c1916905538808062000303565b8385015186558d97909501949384019301620002f0565b909150898052848a208780850160051c8201928786106200038b575b918b91869594930160051c01915b8281106200037c575050620000de565b8c81558594508b91016200036c565b925081926200035e565b634e487b7160e01b8a52602260045260248afd5b90607f1690620000c9565b634e487b7160e01b600052604160045260246000fd5b600080fd5b60408051919082016001600160401b03811183821017620003b457604052565b6006546001600160a01b031633036200040457565b606460405162461bcd60e51b815260206004820152602060248201527f4f776e61626c653a2063616c6c6572206973206e6f7420746865206f776e65726044820152fdfe608060409080825260049081361015610057575b5034610052576020606492519162461bcd60e51b835282015260146024820152733737903330b6363130b1b590333ab731ba34b7b760611b6044820152fd5b600080fd5b600090813560e01c90816301ffc9a714610eef5750806306fdde0314610e23578063081812fc14610e02578063087c32e614610dbd578063095ea7b314610c4d57806323b872dd14610c22578063313ce56714610bff57806331d988b214610bc4578063424611c314610b9c57806342842e0e14610b4d57806342966c6814610aa257806344cee73c14610a6357806361bc221a14610a445780636352211e14610a125780636f2129251461098e57806370a08231146108f9578063715018a6146108995780637fd9d57b146107fd5780638da5cb5b146107d457806395d89b41146106bd578063a22cb465146105ec578063a85e1cfe146105c3578063b88d4fde14610532578063c87b56dd1461043b578063d395cb1314610326578063d5f35666146102e5578063e985e9c514610297578063f2fde38b146101cb5763f9df988f036100135782346101c757816003193601126101c75760075490516001600160a01b039091168152602090f35b5080fd5b50919034610293576020366003190112610293576101e7610fb5565b6101ef611094565b6001600160a01b03908116918215610241575060065492826001600160601b0360a01b8516176006555192167f8be0079c531659141344cd1fd0a4f28419497f9722a3daafe3b4186f6b6457e08484a3f35b608490602085519162461bcd60e51b8352820152602660248201527f4f776e61626c653a206e6577206f776e657220697320746865207a65726f206160448201526564647265737360d01b6064820152fd5b8280fd5b5082346101c757806003193601126101c75760ff816020936102b7610fb5565b6102bf610fcb565b6001600160a01b0391821683526005875283832091168252855220549151911615158152f35b5082346101c75760203660031901126101c757610300610fb5565b610308611094565b60018060a01b03166001600160601b0360a01b600854161760085551f35b50346104385761033536611016565b91909361034d60018060a01b036007541633146115ec565b600a5460001981146104255760010180600a5561036981611595565b94875192606084019084821067ffffffffffffffff8311176104125750916002916103d29594938a52888452896020850191888352818601938a8552815260096020522093518455516001840155519101556103c7600a548261167d565b600a54903090611361565b600a5492837f56ddbb3aec71853d67d04e34f3c4314343eaa399863c8424210e8c96a74b1dc186805186815260016020820152a482519182526020820152f35b634e487b7160e01b835260419052602482fd5b634e487b7160e01b855260118252602485fd5b80fd5b509134610293576020918260031936011261052e5760085482516308cffccf60e01b81528235928101929092528490829060249082906001600160a01b03165afa9384156105235780946104a3575b505061049f9051928284938452830190610f90565b0390f35b909193503d8082843e6104b68184611040565b82019183818403126101c75780519067ffffffffffffffff8211610293570182601f820112156101c7578051916104ec83611078565b936104f987519586611040565b8385528584840101116104385750829161051b91858061049f96019101610f5b565b92903861048a565b8251903d90823e3d90fd5b8380fd5b509190346102935760803660031901126102935761054e610fb5565b90610557610fcb565b916064359167ffffffffffffffff83116105bf57366023840112156105bf57820135928561058485611078565b9361059187519586611040565b85855236602487830101116101c757856105bc966024602093018388013785010152604435916111fe565b51f35b8580fd5b5082346101c757816003193601126101c75760085490516001600160a01b039091168152602090f35b50919034610293578160031936011261029357610607610fb5565b602435908115158092036106b9576001600160a01b0316913383146106765750338452600560205282842082855260205282842060ff1981541660ff831617905582519081527f17307eab39ab6107e8899845ad3d59bd9653f200f220920489ca2b5937696c3160203392a351f35b606490602085519162461bcd60e51b8352820152601960248201527f4552433732313a20617070726f766520746f2063616c6c6572000000000000006044820152fd5b8480fd5b508290346104385780600319360112610438578151918160019283549384811c918186169586156107ca575b60209687851081146107b7578899509688969785829a529182600014610790575050600114610735575b50505061049f9291610726910385611040565b51928284938452830190610f90565b91908693508083527fb10e2d527612073b26eecdfd717e6a320cf44b4afac2b0732d9fcbe2b7fa0cf65b828410610778575050508201018161072661049f610713565b8054848a01860152889550879490930192810161075f565b60ff19168782015293151560051b86019093019350849250610726915061049f9050610713565b634e487b7160e01b835260228a52602483fd5b92607f16926106e9565b5082346101c757816003193601126101c75760065490516001600160a01b039091168152602090f35b509190346102935761080e36611016565b61083b60018060a09694961b0361082a816007541633146115ec565b61083386611138565b163014611773565b838652600960205284862054036108655750906105bc918185526009602052848481205530611361565b606490602085519162461bcd60e51b8352820152600e60248201526d4e6f7420696e2070726f626c656d60901b6044820152fd5b5082346101c757816003193601126101c7576108b3611094565b600680546001600160a01b0319811690915590519082906001600160a01b03167f8be0079c531659141344cd1fd0a4f28419497f9722a3daafe3b4186f6b6457e08284a3f35b5090346101c75760203660031901126101c7576001600160a01b0361091c610fb5565b169081156109395760208480858581526003845220549051908152f35b608490602085519162461bcd60e51b8352820152602960248201527f4552433732313a2061646472657373207a65726f206973206e6f7420612076616044820152683634b21037bbb732b960b91b6064820152fd5b5090346101c75760603660031901126101c757356109f1816109ae610fcb565b6109db60018060a01b036109c7816007541633146115ec565b6109d084611138565b811690831614611773565b8185526009602052604435868620553090611361565b81526009602052600282600181842001549220015482519182526020820152f35b508290346104385760203660031901126104385750610a3360209235611138565b90516001600160a01b039091168152f35b5082346101c757816003193601126101c757602090600a549051908152f35b50919034610293576020366003190112610293576060928291358152600960205220805491600260018301549201549181519384526020840152820152f35b509134610293576020366003190112610293578282359160018060a01b03610acf816007541633146115ec565b610ad884611138565b50610ae284611138565b94848452602052818320946001600160601b0360a01b95868154169055169384835260036020528183206000198154019055838352600260205281832090815416905551927fddf252ad1be2c89b69c2b068fc378daa952ba7f163c4a11628f55a4df523b3ef8285a4f35b5082346101c757610b5d36610fe1565b908351926020840184811067ffffffffffffffff821117610b8957856105bc96979850528684526111fe565b634e487b7160e01b875260418852602487fd5b508290346104385760203660031901126104385750610bbd60209235611595565b9051908152f35b5082346101c757806003193601126101c7576105bc610be1610fb5565b610bf660018060a01b036007541633146115ec565b6024359061167d565b5082346101c757816003193601126101c75760209051670de0b6b3a76400008152f35b5082346101c7576105bc610c3536610fe1565b91610c48610c438433611299565b61119c565b611361565b50919034610293578160031936011261029357610c68610fb5565b602435916001600160a01b03908180610c8086611138565b16931692808414610d7057803314908115610d51575b5015610ce85783865260205283852080546001600160a01b03191683179055610cbe83611138565b169251927f8c5be1e5ebec7d5bd14f71427d1e84f3dd0314c0f7b2291e5b200ac8c7c3b9258585a4f35b608490602086519162461bcd60e51b8352820152603d60248201527f4552433732313a20617070726f76652063616c6c6572206973206e6f7420746f60448201527f6b656e206f776e6572206f7220617070726f76656420666f7220616c6c0000006064820152fd5b90508652600560205284862033875260205260ff858720541638610c96565b855162461bcd60e51b8152602081840152602160248201527f4552433732313a20617070726f76616c20746f2063757272656e74206f776e656044820152603960f91b6064820152608490fd5b5091903461029357602036600319011261029357356001600160a01b0381169081900361029357610dec611094565b6001600160601b0360a01b600754161760075551f35b508290346104385760203660031901126104385750610a336020923561115e565b5082903461043857806003193601126104385781519181825492600184811c91818616958615610ee5575b60209687851081146107b7578899509688969785829a529182600014610790575050600114610e8a5750505061049f9291610726910385611040565b91908693508280527f290decd9548b62a8d60345a988386fc84ba6bc95484008f6362f93160ef3e5635b828410610ecd575050508201018161072661049f610713565b8054848a018601528895508794909301928101610eb4565b92607f1692610e4e565b90508234610293576020366003190112610293573563ffffffff60e01b811680910361029357602092506380ac58cd60e01b8114908115610f4a575b8115610f39575b5015158152f35b6301ffc9a760e01b14905083610f32565b635b5e139f60e01b81149150610f2b565b918091926000905b828210610f7b575011610f74575050565b6000910152565b91508060209183015181860152018291610f63565b90602091610fa981518092818552858086019101610f5b565b601f01601f1916010190565b600435906001600160a01b038216820361005257565b602435906001600160a01b038216820361005257565b6060906003190112610052576001600160a01b0390600435828116810361005257916024359081168103610052579060443590565b6060906003190112610052576004356001600160a01b038116810361005257906024359060443590565b90601f8019910116810190811067ffffffffffffffff82111761106257604052565b634e487b7160e01b600052604160045260246000fd5b67ffffffffffffffff811161106257601f01601f191660200190565b6006546001600160a01b031633036110a857565b606460405162461bcd60e51b815260206004820152602060248201527f4f776e61626c653a2063616c6c6572206973206e6f7420746865206f776e65726044820152fd5b156110f357565b60405162461bcd60e51b815260206004820152601860248201527f4552433732313a20696e76616c696420746f6b656e20494400000000000000006044820152606490fd5b6000908152600260205260409020546001600160a01b031661115b8115156110ec565b90565b600081815260026020526040902054611181906001600160a01b031615156110ec565b6000908152600460205260409020546001600160a01b031690565b156111a357565b60405162461bcd60e51b815260206004820152602d60248201527f4552433732313a2063616c6c6572206973206e6f7420746f6b656e206f776e6560448201526c1c881bdc88185c1c1c9bdd9959609a1b6064820152608490fd5b90611222939291611212610c438433611299565b61121d838383611361565b611474565b1561122957565b60405162461bcd60e51b81528061124260048201611246565b0390fd5b60809060208152603260208201527f4552433732313a207472616e7366657220746f206e6f6e20455243373231526560408201527131b2b4bb32b91034b6b83632b6b2b73a32b960711b60608201520190565b906001600160a01b0380806112ad84611138565b169316918383149384156112e0575b5083156112ca575b50505090565b6112d69192935061115e565b16143880806112c4565b909350600052600560205260406000208260005260205260ff6040600020541692386112bc565b1561130e57565b60405162461bcd60e51b815260206004820152602560248201527f4552433732313a207472616e736665722066726f6d20696e636f72726563742060448201526437bbb732b960d91b6064820152608490fd5b906113899161136f84611138565b6001600160a01b0393918416928492909183168414611307565b1691821561142357816113a69161139f86611138565b1614611307565b7fddf252ad1be2c89b69c2b068fc378daa952ba7f163c4a11628f55a4df523b3ef60008481526004602052604081206001600160601b0360a01b90818154169055838252600360205260408220600019815401905584825260408220600181540190558582526002602052846040832091825416179055604051a4565b60405162461bcd60e51b8152602060048201526024808201527f4552433732313a207472616e7366657220746f20746865207a65726f206164646044820152637265737360e01b6064820152608490fd5b9293600093909291803b1561158a579484916114ce9660405180948193630a85bd0160e11b9788845233600485015260018060a01b0380921660248501526044840152608060648401528260209b8c976084830190610f90565b0393165af184918161154a575b50611539575050503d600014611531573d6114f581611078565b906115036040519283611040565b81528091833d92013e5b8051918261152e5760405162461bcd60e51b81528061124260048201611246565b01fd5b50606061150d565b6001600160e01b0319161492509050565b9091508581813d8311611583575b6115628183611040565b810103126106b957516001600160e01b0319811681036106b95790386114db565b503d611558565b505050915050600190565b600143106115d657604051602081019182526000194301406040820152604081526060810181811067ffffffffffffffff8211176110625760405251902090565b634e487b7160e01b600052601160045260246000fd5b156115f357565b60405162461bcd60e51b815260206004820152601660248201527513db9b1e48141c9bd89b195b5cc818d85b8818d85b1b60521b6044820152606490fd5b1561163857565b60405162461bcd60e51b815260206004820152601c60248201527f4552433732313a20746f6b656e20616c7265616479206d696e746564000000006044820152606490fd5b6001600160a01b0316801561172f576000828152600260205260409020546116b1906001600160a01b031615155b15611631565b6000828152600260205260409020546116d4906001600160a01b031615156116ab565b600081815260036020526040812060018154019055828152600260205260408120826001600160601b0360a01b8254161790557fddf252ad1be2c89b69c2b068fc378daa952ba7f163c4a11628f55a4df523b3ef81604051a4565b606460405162461bcd60e51b815260206004820152602060248201527f4552433732313a206d696e7420746f20746865207a65726f20616464726573736044820152fd5b1561177a57565b60405162461bcd60e51b815260206004820152600e60248201526d2737ba103137b23c9037bbb732b960911b6044820152606490fdfea264697066735822122070477e08b24a483197f92f77a0fb47eebcd39d449944da178fb7bf30579ab58664736f6c634300080f0033",
  "linkReferences": {},
  "deployedLinkReferences": {}
}