{
  "_format": "hh-sol-artifact-1",
  "contractName": "Groth16Verifier",
  "sourceName": "contracts/Game_7_100Verifier.sol",
  "abi": [
    {
      "inputs": [
        {
          "internalType": "uint256[2]",
          "name": "_pA",
          "type": "uint256[2]"
        },
        {
          "internalType": "uint256[2][2]",
          "name": "_pB",
          "type": "uint256[2][2]"
        },
        {
          "internalType": "uint256[2]",
          "name": "_pC",
          "type": "uint256[2]"
        },
        {
          "internalType": "uint256[70]",
          "name": "_pubSignals",
          "type": "uint256[70]"
        }
      ],
      "name": "verifyProof",
      "outputs": [
        {
          "internalType": "bool",
          "name": "",
          "type": "bool"
        }
      ],
      "stateMutability": "view",
      "type": "function"
    }
  ],
  "bytecode": "0x608080604052346100165761302e908161001c8239f35b600080fdfe6080604052600436101561001257600080fd5b6000803560e01c635964f1521461002857600080fd5b346103d0576109c03660031901126103d057610043366103d3565b3660c4116103cc57610054366103e5565b906109c43681116103c857916103c4916103bf6020959461040060405261007d610104356103f3565b610089610124356103f3565b610095610144356103f3565b6100a1610164356103f3565b6100ad610184356103f3565b6100b96101a4356103f3565b6100c56101c4356103f3565b6100d16101e4356103f3565b6100dd610204356103f3565b6100e9610224356103f3565b6100f5610244356103f3565b610101610264356103f3565b61010d610284356103f3565b6101196102a4356103f3565b6101256102c4356103f3565b6101316102e4356103f3565b61013d610304356103f3565b610149610324356103f3565b610155610344356103f3565b610161610364356103f3565b61016d610384356103f3565b6101796103a4356103f3565b6101856103c4356103f3565b6101916103e4356103f3565b61019d610404356103f3565b6101a9610424356103f3565b6101b5610444356103f3565b6101c1610464356103f3565b6101cd610484356103f3565b6101d96104a4356103f3565b6101e56104c4356103f3565b6101f16104e4356103f3565b6101fd610504356103f3565b610209610524356103f3565b610215610544356103f3565b610221610564356103f3565b61022d610584356103f3565b6102396105a4356103f3565b6102456105c4356103f3565b6102516105e4356103f3565b61025d610604356103f3565b610269610624356103f3565b610275610644356103f3565b610281610664356103f3565b61028d610684356103f3565b6102996106a4356103f3565b6102a56106c4356103f3565b6102b16106e4356103f3565b6102bd610704356103f3565b6102c9610724356103f3565b6102d5610744356103f3565b6102e1610764356103f3565b6102ed610784356103f3565b6102f96107a4356103f3565b6103056107c4356103f3565b6103116107e4356103f3565b61031d610804356103f3565b610329610824356103f3565b610335610844356103f3565b610341610864356103f3565b61034d610884356103f3565b6103596108a4356103f3565b6103656108c4356103f3565b6103716108e4356103f3565b61037d610904356103f3565b610389610924356103f3565b610395610944356103f3565b6103a1610964356103f3565b6103ad610984356103f3565b6103b96109a4356103f3565b356103f3565b6129e0565b8152f35b8380fd5b5080fd5b80fd5b906004916044116103e057565b600080fd5b9060c491610104116103e057565b7f30644e72e131a029b85045b68181585d97816a916871ca8d3c208c16d87cfd47111561041c57565b6000805260206000f35b604051907f2f5b2814253ca16c9e6a80336a3d345c7b6d0305b87e7dfed0a448fcfc231b3582527f2dfd81ebd80991ff4a83584ba9a00c98140c2ba99faf63e97327eb268ee109fa6020830152604082019081526107cf196040836060816007855a01fa1561041c5760409260066080939284938451905260a05160608401525a01fa1561041c57565b604051907f14798187466725c7796baa20137fd72b92857866c564a40c83beb3eb873e859f82527f1f21db1ebe093495dda8a73b524583fd05b9bf47aa0041e91cc30c75e57f88b16020830152604082019081526107cf196040836060816007855a01fa1561041c5760409260066080939284938451905260a05160608401525a01fa1561041c57565b604051907f28afb1db3b0a070013e54fa940ad2ed355c5e42c81a83e8c573c717c38ec458382527f2fe74e4895b761a5f4b17653ffd4dcbd66816f975fd7a024c6193451db908c5b6020830152604082019081526107cf196040836060816007855a01fa1561041c5760409260066080939284938451905260a05160608401525a01fa1561041c57565b604051907f123a546915e05c4379976e660efdeba4bd43ad060f286bc58558d3207673dab382527f137b1cc97bfce65cf22379c61aac494bfa602a2b6c1a355d0596c069a0f1c5816020830152604082019081526107cf196040836060816007855a01fa1561041c5760409260066080939284938451905260a05160608401525a01fa1561041c57565b604051907f09ae0f7f4536025a92aa5c5498d01c6b37f0d2f7036900ba79f7bb5161fb82a282527f2bc9d55c15557a5e1077d113e0592aa8a8efe6ffa4a09c8f1bd1487421d659b46020830152604082019081526107cf196040836060816007855a01fa1561041c5760409260066080939284938451905260a05160608401525a01fa1561041c57565b604051907f1c2a8611fdf0c5ce6e3949cc627f9757cd90c00e37f4b67e4690b22f555b9d1e82527f171713b9e25a46858e3d7acedde873f1ab677454534b08f52426bcf3c5bb9b0b6020830152604082019081526107cf196040836060816007855a01fa1561041c5760409260066080939284938451905260a05160608401525a01fa1561041c57565b604051907f1c89c38d93ce74d5c88d87dc0c624126ef9c0917c5a52b4d2ab9b742c0100d5182527f03f6ccf42893b6045e4eb37a6fc98495c610d81a1cd072b0534dde65c01d4b3b6020830152604082019081526107cf196040836060816007855a01fa1561041c5760409260066080939284938451905260a05160608401525a01fa1561041c57565b604051907f0d26f7d2397314a67f55406d9c61f59efe0148b98236f3218a9a59927996da7782527f1ef04f63b3723d83690641dbd7945ff9753031d81b94d4bb7c1c43f194cdc4306020830152604082019081526107cf196040836060816007855a01fa1561041c5760409260066080939284938451905260a05160608401525a01fa1561041c57565b604051907f0736591b6c301bf09cb88ebcb89f17d871547ddc76575e0c8ffe1f385ff516ae82527f0bb7689e481440dcbdce7436c5a808f07176f70c6cadd125ead2e6acf297a28f6020830152604082019081526107cf196040836060816007855a01fa1561041c5760409260066080939284938451905260a05160608401525a01fa1561041c57565b604051907f140e2c53bc9b6660be53ccbf7583f1603097af47aa46782a0480d9d6fcc3042e82527f240e4e4fae5ac777cc0fa64051856ee522f7f558bf800bf275a85bebeaa1b2836020830152604082019081526107cf196040836060816007855a01fa1561041c5760409260066080939284938451905260a05160608401525a01fa1561041c57565b604051907f20166b425cc68db7cd28c1a4f42e65c48670dec70e99ce921c4380d50d15142f82527f0843bc387a1e3cc44782d9fb3ccef4f38f409cff7f9fb2352304b8bae1a463a56020830152604082019081526107cf196040836060816007855a01fa1561041c5760409260066080939284938451905260a05160608401525a01fa1561041c57565b604051907f1da47d9adac4f6e28468120f9e530886193305699937819c2c2b8c369d9f100582527f2c122a8fb999cf1aad70b44ba74ce8edabb9367c8b223e79d946cc9dde1756836020830152604082019081526107cf196040836060816007855a01fa1561041c5760409260066080939284938451905260a05160608401525a01fa1561041c57565b604051907f148ca02597a1e874fcf2f51b0ea68ee73e9bbc464d12e621ab64e05a3602db1782527f0f2c1265a09dfccf5e6bef667e091e15632f8fe4fcdb49c40fc5ee2d6a61a66b6020830152604082019081526107cf196040836060816007855a01fa1561041c5760409260066080939284938451905260a05160608401525a01fa1561041c57565b604051907f15b7c864cf3272e7e14ddc9ac69bd9e7dad2321f87a13f17a93ba6b71b915e9882527f208dcbae4bef785fc0cabb6a2313afc1c28a9e0305ea1582ab980228b5c2e2b36020830152604082019081526107cf196040836060816007855a01fa1561041c5760409260066080939284938451905260a05160608401525a01fa1561041c57565b604051907f29a40f8c29a8eca2850766c27d220b6b590fbafd5d0c91702795cd16087cc32f82527f037debe012d05634ce9ba28c0ca6ca7012b5d6c5bd1ba6d99286e7921439b0176020830152604082019081526107cf196040836060816007855a01fa1561041c5760409260066080939284938451905260a05160608401525a01fa1561041c57565b604051907f2c2129ec3431b6405def6bdb522c6893da2981597260f0e07452db256670c98382527f157e3d19157fdb86cfcdb11d7bfa206f567bf2c000791f61b09ca1247451237f6020830152604082019081526107cf196040836060816007855a01fa1561041c5760409260066080939284938451905260a05160608401525a01fa1561041c57565b604051907f1dc2e340c98576506078d26ca82025dd3f8290466753ccaeaafa28bfdbd8e51a82527f281d97cc17d52037debed974418899bf818212c2cafd870ac117f9d4635bcfab6020830152604082019081526107cf196040836060816007855a01fa1561041c5760409260066080939284938451905260a05160608401525a01fa1561041c57565b604051907f193b42ff682de0dc22574b078ac2d326baf683495369655d6ae746a8217d02f982527f2e0b0d877a3ad8261f8a3abe2a2027b9c65cd18aeada3aa83b7ffdab13723beb6020830152604082019081526107cf196040836060816007855a01fa1561041c5760409260066080939284938451905260a05160608401525a01fa1561041c57565b604051907f0ba8e2f412826f99a982edf6f47c98571da9ef348c8e0999053f2f8b5ccb868a82527f1de18ce93e689feb9d9c3556423d0468e5101ee2425909ed7404d6e5ba0987836020830152604082019081526107cf196040836060816007855a01fa1561041c5760409260066080939284938451905260a05160608401525a01fa1561041c57565b604051907f0e168af78f999b6e009f5bbf2e8caa0931d7c35260e33958c218575fbcc34d6a82527f209e8bb0d05f623b25f6035b15ad4f6eb950e1cd2a1ca66795c171b073a041356020830152604082019081526107cf196040836060816007855a01fa1561041c5760409260066080939284938451905260a05160608401525a01fa1561041c57565b604051907f2b62132e3ff3b4abf6effcb81c94b091588cd36ca06d0f8a1a8bfda4c1ba84ef82527f1d1ea31b372e8ebd348bb8787972360308cfa61e1c94f79fb1273e494bd34ef06020830152604082019081526107cf196040836060816007855a01fa1561041c5760409260066080939284938451905260a05160608401525a01fa1561041c57565b604051907e0d95a8ac807604d3f2f7a93d5cb04bf0468944e1fd8c347c697df7b2a4fdcd82527f1e255751f7fecfeab49000ebc4ed8d6a3eebc8658257d782f170a1b6e95075b56020830152604082019081526107cf196040836060816007855a01fa1561041c5760409260066080939284938451905260a05160608401525a01fa1561041c57565b604051907f2b829dcabb43e22601bcb0d3e9948da7a8dc7e5252df9f5a642a5090c515c01682527f17ef54dd1e3814c237de6f8abd59682dd4ae282abea5226df9c04be06727ede36020830152604082019081526107cf196040836060816007855a01fa1561041c5760409260066080939284938451905260a05160608401525a01fa1561041c57565b604051907f0b432c5a6257032f6de55a9f938bc0b68661d5a42b76e6aa54eda2ad08c0dc9c82527f200f71393bd4d03b9a6b37e32ffe412d6bf17087960ac5074d9150f472d97aed6020830152604082019081526107cf196040836060816007855a01fa1561041c5760409260066080939284938451905260a05160608401525a01fa1561041c57565b604051907f0fa533b1bae8ceb3ac06b4849d44f64ae1c9f9ab713ae53ac7c39b41697c225282527f2c9f00f31611907df5d6c33762cef526538fa3b21691a7b2c376c22f6f6200d16020830152604082019081526107cf196040836060816007855a01fa1561041c5760409260066080939284938451905260a05160608401525a01fa1561041c57565b604051907f0267d81d94adbc9d91ebbda8df07bd82f39250fbde9bd691ce554e908189322582527f017613934a5cbf5a70db0d0cee36403f8b7389d9196652ddfcf903ba0a60e4016020830152604082019081526107cf196040836060816007855a01fa1561041c5760409260066080939284938451905260a05160608401525a01fa1561041c57565b604051907f16c25ccd3864aa289d22bd150f26656dbaf7733c38b9f46b03e136f2a3d804e182527f103076f4a7c2b6d02e22f76442a2ab8ee83146b0edabb9e889f6d17bb55a04576020830152604082019081526107cf196040836060816007855a01fa1561041c5760409260066080939284938451905260a05160608401525a01fa1561041c57565b604051907f1de846b0f92bfc3ce59898090856e8d1563a28685bf164312625a8e03edeb47582527f0b9a71c5e05f7706e26b17dba70cb303f0d6a4c40ae3387523ad5ed233a96c726020830152604082019081526107cf196040836060816007855a01fa1561041c5760409260066080939284938451905260a05160608401525a01fa1561041c57565b604051907f2bf5c5899beecafbbbc1dc8919fc98617fc642742f12c6f83a2ff431bc37851282527f2c8b24b1714ea609c950d212e6a35c2e260cb66ca482663362c996652b4cb4086020830152604082019081526107cf196040836060816007855a01fa1561041c5760409260066080939284938451905260a05160608401525a01fa1561041c57565b604051907f1bef973923231810036d5f06e37460cdbe914230879c48a8f5a6d093cf64cb2082527f15fed3f1d93c79c20532c09eeb71d40a3e7aca46b04b84e28d8f60eaa5df2fce6020830152604082019081526107cf196040836060816007855a01fa1561041c5760409260066080939284938451905260a05160608401525a01fa1561041c57565b604051907f1528883da86ef70c1afcec0ce8d6a662d510b99c28c32cde88aa567486e8a26982527f2829168f25ed67e3beda38c5642dbfd03ca98c9e07f6c13a4d7f9d765a2b35cd6020830152604082019081526107cf196040836060816007855a01fa1561041c5760409260066080939284938451905260a05160608401525a01fa1561041c57565b604051907f29c916f5b144c02b03259189ec211dbc78bd8f50783778512f98416d5ac76d1382527f0360aa24bf5c19a049784baca6032ddfc674816aae8bf6318b6cade443b006f66020830152604082019081526107cf196040836060816007855a01fa1561041c5760409260066080939284938451905260a05160608401525a01fa1561041c57565b604051907f25a546a2d00dcb0791379760c540a88dcfc7f4e4e23d7502b3525c5c731240cf82527ee93b6a9966233f1619dddc440ac22096405513b5643b67545a0238846b85006020830152604082019081526107cf196040836060816007855a01fa1561041c5760409260066080939284938451905260a05160608401525a01fa1561041c57565b604051907f0814007bf68f07516442720645be1f5c27609dd89cb596640760bec304fe8b7982527f03cbaaf13eb18e83f43460d374ed9233672e263969a468e5c8a34a36a82fff656020830152604082019081526107cf196040836060816007855a01fa1561041c5760409260066080939284938451905260a05160608401525a01fa1561041c57565b604051907f16bb03229f04c8c357e7ccd7ff146cdd70b82c02b1964556f4b5f98c1b7e20bd82527f1057b75a8b08663b3fa14741d8793a520c987df1876bf6d2ca0221b7030cb83b6020830152604082019081526107cf196040836060816007855a01fa1561041c5760409260066080939284938451905260a05160608401525a01fa1561041c57565b604051907f20f32935de6e640c44778799bcc437ad681454353a1f90d8be751097e780191e82527f070940429732a84a0ed06a3c904c263f3ec3a909fb42f3a7d986f1cf8444533c6020830152604082019081526107cf196040836060816007855a01fa1561041c5760409260066080939284938451905260a05160608401525a01fa1561041c57565b604051907f2cd96c1d9b81760be05b5a3e21742a023be9883a5360b92325a6e62ddc894c3082527f0c14d9f17003e843aa6e692024d463f14a388aa6f5874752256edb58b76b4d0a6020830152604082019081526107cf196040836060816007855a01fa1561041c5760409260066080939284938451905260a05160608401525a01fa1561041c57565b604051907f1cf669066e49cf74b7755be4bc68204cfc74682558a697d5899fbad38d5b9ea882527f128dfffe4ed7a7c8a5523c337ee43ed555487fb2f42b00e89c8929e7cdbcb2656020830152604082019081526107cf196040836060816007855a01fa1561041c5760409260066080939284938451905260a05160608401525a01fa1561041c57565b604051907f1bf464d54c66f85eb80888482fe909784d243b48a7ce9aec13d9eaa35c4fb17182527f0abcd75fdb86005a33003eb5d64d26daf623862128d4e3e865133e2c37fbc9356020830152604082019081526107cf196040836060816007855a01fa1561041c5760409260066080939284938451905260a05160608401525a01fa1561041c57565b604051907f1a7d2b84e5a2cc6ac01becaf63c4bdc8ecd34f2426f9b49e7274eb02b7c1080182527f044f04f3d4d6f545cb9ecff5b682c9e8aced1d4f949e846bc9f17084a92a71d26020830152604082019081526107cf196040836060816007855a01fa1561041c5760409260066080939284938451905260a05160608401525a01fa1561041c57565b604051907f200d6a260ebf21c0e4344683d5c6303bf0244dd5ef169016b87a929aed1dc39d82527f0fe29d636decc9d28924dddd88333826639ba5a3251baab0f1f37e82557c0c056020830152604082019081526107cf196040836060816007855a01fa1561041c5760409260066080939284938451905260a05160608401525a01fa1561041c57565b604051907f12a039100e2768712b2a01821df39e78a7d643481cc0992724cea86984dbbfb682527f1ae0bf5474c8844827b8237ae5218e25329c56cf7d5cbcd4b8d05121366f2d4f6020830152604082019081526107cf196040836060816007855a01fa1561041c5760409260066080939284938451905260a05160608401525a01fa1561041c57565b604051907f1407f5eab73b8ee579706b6bf233d5c980f87027d7b6e0d13dd0f21d7793843c82527f0b7226226fbbccbcce17b8b7a543e5507832d89081d2a36a9541dd8fe02287ff6020830152604082019081526107cf196040836060816007855a01fa1561041c5760409260066080939284938451905260a05160608401525a01fa1561041c57565b604051907f2f543f01773921f3d9dac3b19e545fe827ce9ff4e0c3686e01fdc28f103a8ca582527f2728095e3f0ea5094120c9ee841bee9bc909a579dbb51e89dea764fe931126cd6020830152604082019081526107cf196040836060816007855a01fa1561041c5760409260066080939284938451905260a05160608401525a01fa1561041c57565b604051907f038e4e5afe58d4fa1456eaf0e600c1f6efb14bcedb1adf8808c7a4246961b8c282527f2db968002c01fc3bd75a95d29601ee158c69f2a318f410382a60cd4d1ea58e346020830152604082019081526107cf196040836060816007855a01fa1561041c5760409260066080939284938451905260a05160608401525a01fa1561041c57565b604051907f19939a82de2e1d58dcb84608845b9e87370aa4b942b2ed5d0363ec8a5893133f82527f2a5ab609832f1afa14a7d7bbc0d57370b538ede71562cb4323cb93cd37462cac6020830152604082019081526107cf196040836060816007855a01fa1561041c5760409260066080939284938451905260a05160608401525a01fa1561041c57565b604051907f18c63e46ce1d39f2ec0cb9cf558b330dc12409b7c57a7bb96a35c85837b9c93e82527f16d4fba2faad7f2856237fa10ff15c5fba5e197fac1833be83181f00033cb9e86020830152604082019081526107cf196040836060816007855a01fa1561041c5760409260066080939284938451905260a05160608401525a01fa1561041c57565b604051907f09c8b22eb1b55bc6dcc2fb98ae837780cc747dc03676100d566975e612b2148582527f1a8080c6f860b0f946db14d71104ec4eb7a9123b866ce529a246d13ac79af8a16020830152604082019081526107cf196040836060816007855a01fa1561041c5760409260066080939284938451905260a05160608401525a01fa1561041c57565b604051907f1dad908b14d87b1966d9d1ac0b5a34517862f33601cf25a2fc0353b1e45cd65282527f2df59b6017379be19dbc905239621f0b98f5b445dd7e1aa31ed231d2445f83196020830152604082019081526107cf196040836060816007855a01fa1561041c5760409260066080939284938451905260a05160608401525a01fa1561041c57565b604051907f0dd86c1d1aa63a84b3e36968072a8b9875bc5c43becae0b2703099c73c9df66d82527f2e5be499bda08be78cbd4984c9d4ef9fe5930619ca56b7bbf579b8360b0b986e6020830152604082019081526107cf196040836060816007855a01fa1561041c5760409260066080939284938451905260a05160608401525a01fa1561041c57565b604051907f1217df2193aaa4af4afe8413494188adbad053d5f04d6fdcd3d78fc173c7db9a82527f180cc99afbeb79acfc7ad15cd0bb60d3ffde63f63f27bd25bc41a5aac428e46a6020830152604082019081526107cf196040836060816007855a01fa1561041c5760409260066080939284938451905260a05160608401525a01fa1561041c57565b604051907f2799559ac01aff6e9adaec97414d24b34120d42ac7254e1507c138f20d55589582527f09c16ee681039be85c93de4e2fd91d803e888cb995ff2bf5419892b791fc0fd46020830152604082019081526107cf196040836060816007855a01fa1561041c5760409260066080939284938451905260a05160608401525a01fa1561041c57565b604051907f2cc8fdd1bba19c51aee80385429bebd930fc7eb4dc8432dec0714f1e2cc8565a82527f15cb857a54c7eadb15c3fe1d65add30761612bbf99b6ddfb8ceab4fb798ae52b6020830152604082019081526107cf196040836060816007855a01fa1561041c5760409260066080939284938451905260a05160608401525a01fa1561041c57565b604051907f16aa05fc383826e1f4f01d8afe17852f5f9023b9c1f4980ac897c44dbf62073382527f2a68cbb21874a2d88bfcdd6ce79a3364e17df3aad28b8b09c1fb8d17b045114e6020830152604082019081526107cf196040836060816007855a01fa1561041c5760409260066080939284938451905260a05160608401525a01fa1561041c57565b604051907f15b1f690d335f290ad24c53a67959fb84044e84435ef960950599d0208f50aaa82527f273ada16aadfdbd1b4a926f063e0b8763bb5bb0c563a380f4b6d2603665491a16020830152604082019081526107cf196040836060816007855a01fa1561041c5760409260066080939284938451905260a05160608401525a01fa1561041c57565b604051907f301ba13527c0486583e81abb6346ffc948ebb7e00ba78003bd3e6f07decd1e2e82527f04763fb3e820bad2e1fa616a8dd4915285f03b9a5abf90ef64acfe53a6240cbe6020830152604082019081526107cf196040836060816007855a01fa1561041c5760409260066080939284938451905260a05160608401525a01fa1561041c57565b604051907f2d0aaf9974e96cc87220e51c77025215b418f4e93e39775a45fe9c7803da17a082527f287ec813fe509e0e7cc8ca509dac504414061ad5e01e72f088abb121769915fd6020830152604082019081526107cf196040836060816007855a01fa1561041c5760409260066080939284938451905260a05160608401525a01fa1561041c57565b604051907f11f4f8faa1a38d5173aa006ebf5097ab426569f9f7e5f098c23f442bcffa763582527f151c1379adeb63f3c8bd882163070573ee02a82e2045c694871198aad5e0781e6020830152604082019081526107cf196040836060816007855a01fa1561041c5760409260066080939284938451905260a05160608401525a01fa1561041c57565b604051907f2709696cddba4904c396db202e5a6dea5bdeef9ebd6cc825e58c738bc83dcc3482527f0bddcb220c2cd3273f092a27139119b9c727f7dd59b395fe7d5e08a4acdd97d76020830152604082019081526107cf196040836060816007855a01fa1561041c5760409260066080939284938451905260a05160608401525a01fa1561041c57565b604051907f28119301305ec8444e9359e77e0f33a1b6d1a8aef0d3074669171d5d4ae587f682527f10a8ca71905358f9efa530b4790d4ba2450597ccf97ebfd6d7679dc33155810c6020830152604082019081526107cf196040836060816007855a01fa1561041c5760409260066080939284938451905260a05160608401525a01fa1561041c57565b604051907f23b7e29aef7ccc6c38f8b4c1f969acbde69fcdc939ca41bef3bed65a6223c36b82527f0aa8cd8d887b74386156a37a91400c6fc4a317be5af7433e179190d7941ba9956020830152604082019081526107cf196040836060816007855a01fa1561041c5760409260066080939284938451905260a05160608401525a01fa1561041c57565b604051907f0867885842f3aa3d80fc740cc3b93df8789edcc7edbf8aca362eab1d92b650a082527f18820650c131bc0a672e7d047a670ebdfbca1d6f46d2035c903b749d850579be6020830152604082019081526107cf196040836060816007855a01fa1561041c5760409260066080939284938451905260a05160608401525a01fa1561041c57565b604051907f1749bc68b489c20e2bf8d4f28429693a9515e971e6627e0644604faf65e3f39882527f2a0b5d264653a761bee552adb0cff4d1e41d79cb119b2efc168b7a6369e71a4e6020830152604082019081526107cf196040836060816007855a01fa1561041c5760409260066080939284938451905260a05160608401525a01fa1561041c57565b604051907f1328fe4e93a1a970470c07053c9ac06ddefb664d642138890712d40f7add16cf82527f21d3e539b9cdea9ab3e045d3a05a0a3971bbb75356a60bfaac5614c4505f91306020830152604082019081526107cf196040836060816007855a01fa1561041c5760409260066080939284938451905260a05160608401525a01fa1561041c57565b604051907f28e1bc76779b087a8449fe0aaf9b0d4d7aeef792a3b36ce2daf3a1b46a87546882527f09ee6c35193083948be00c8f99605c3b1b1d65f1b8da89a9453ec8cae9447e916020830152604082019081526107cf196040836060816007855a01fa1561041c5760409260066080939284938451905260a05160608401525a01fa1561041c57565b604051907f179d683c7ef26f5e9946dd1e73924da2f89764fdc2e4f5f778fafacf56cfd5bf82527f07204c14005a8daf0248e72321e44c79f4926637bd1e3445d09c74c09b0dcd976020830152604082019081526107cf196040836060816007855a01fa1561041c5760409260066080939284938451905260a05160608401525a01fa1561041c57565b604051907f1bcb1ab2c0795b352bc47bf7bd1e9a5565ce9cdd1b40238e3a160309daae8bd582527f07bcaf262e03726a6f21814db236dcfc88de4ad16d68c19f8b7d0307002d51826020830152604082019081526107cf196040836060816007855a01fa1561041c5760409260066080939284938451905260a05160608401525a01fa1561041c57565b604051907f16c0db4f70a884c8684a798444b36b8d9661ad27793bff372381fd2dbc7499f182527f1242ae1bcd73da8469bd416a1ca49094201b1b2a32dce94e386f97abdacb53e46020830152604082019081526107cf196040836060816007855a01fa1561041c5760409260066080939284938451905260a05160608401525a01fa1561041c57565b604051907f0e2bc9a4e4575d3b2a9a6ae1cbda9c6a2bed90896ac416ab76d488536de2165c82527f0e39129dfcd37515d31e0030a7a28d9cc773e19d49f4e12546bafab515c4c0b06020830152604082019081526107cf196040836060816007855a01fa1561041c5760409260066080939284938451905260a05160608401525a01fa1561041c57565b604051907f03fdb65d17d5942b210c521b93a70180d3e414fba4bbf17e7fc05138a008ba7782527f19a4354dd411e6544a8c5d74354b4804f4094b8b51e1b494d2615b141faafba36020830152604082019081526107cf196040836060816007855a01fa1561041c5760409260066080939284938451905260a05160608401525a01fa1561041c57565b6020907f080c524897d67f0dd99763bb3acef36305bae3bdc7a7f77e199e187c21b63e556080527f2d768896dbfd12189640799b714a2c217e25a1dcdf2dcf1cb43a2b25e6fef01b60a052612a3761010435610426565b612a43610124356104b0565b612a4f6101443561053a565b612a5b610164356105c4565b612a676101843561064e565b612a736101a4356106d8565b612a7f6101c435610762565b612a8b6101e4356107ec565b612a9761020435610876565b612aa361022435610900565b612aaf6102443561098a565b612abb61026435610a14565b612ac761028435610a9e565b612ad36102a435610b28565b612adf6102c435610bb2565b612aeb6102e435610c3c565b612af761030435610cc6565b612b0361032435610d50565b612b0f61034435610dda565b612b1b61036435610e64565b612b2761038435610eee565b612b336103a435610f78565b612b3f6103c435611001565b612b4b6103e43561108b565b612b5761040435611115565b612b636104243561119f565b612b6f61044435611229565b612b7b610464356112b3565b612b876104843561133d565b612b936104a4356113c7565b612b9f6104c435611451565b612bab6104e4356114db565b612bb761050435611565565b612bc3610524356115ee565b612bcf61054435611678565b612bdb61056435611702565b612be76105843561178c565b612bf36105a435611816565b612bff6105c4356118a0565b612c0b6105e43561192a565b612c17610604356119b4565b612c2361062435611a3e565b612c2f61064435611ac8565b612c3b61066435611b52565b612c4761068435611bdc565b612c536106a435611c66565b612c5f6106c435611cf0565b612c6b6106e435611d7a565b612c7761070435611e04565b612c8361072435611e8e565b612c8f61074435611f18565b612c9b61076435611fa2565b612ca76107843561202c565b612cb36107a4356120b6565b612cbf6107c435612140565b612ccb6107e4356121ca565b612cd761080435612254565b612ce3610824356122de565b612cef61084435612368565b612cfb610864356123f2565b612d076108843561247c565b612d136108a435612506565b612d1f6108c435612590565b612d2b6108e43561261a565b612d37610904356126a4565b612d436109243561272e565b612d4f610944356127b8565b612d5b61096435612842565b612d67610984356128cc565b612d736109a435612956565b61010092818492358352837f30644e72e131a029b85045b68181585d97816a916871ca8d3c208c16d87cfd479101358103066101205260443561014052606435610160526084356101805260a4356101a0527f2d4d9aa7e302d9df41749d5507949d05dbea33fbb16c643b22f599a2be6df2e26101c0527f14bedd503c37ceb061d8ec60209fe345ce89830a19230301f076caff004d19266101e0527f0967032fcbf776d1afc985f88877f182d38480a653f2decaa9794cbc3bf3060c610200527f0e187847ad4c798374d0d6732bf501847dd68bc0e071241e0213bc7fc13db7ab610220527f304cfbd1e08a704a99f5e847d93f8c3caafddec46b7a0d379da69a4d112346a7610240527f1739c1b1a457a8c7313123d24d2f9192f896b7c63eea05a9d57f06547ad0cec8610260526080516102805260a0516102a0527f198e9393920d483a7260bfb731fb5d25f1aa493335a9e71297e485b7aef312c26102c0527f1800deef121f1e76426a00665e5c4479674322d4f75edadd46debd5cd992f6ed6102e05282610300917f090689d0585ff075ec9e99ad690c3395bc4b313370b38ef355acdadcd122975b83527f12c85ea5db8c6deb4aab71808dcb408fe3d1e7690c43d37b4ce6cc0166fa7daa610320528035610340520135610360527f168761e26d72ec6eb575f8f9f9797db22c1035ad9791150fe38d6ef478c52d6d610380527f2c70016e6407a3839751f2af4cc92ae058ee37be117ce89f1a356f321959f4156103a0527f2bed330be1fe32367728eb71c93ea25d006a228f6be846ab4420f6cac215e4dc6103c0527f0bac6ece0d51418629f9c1bc3535374a3d19483ee9ccfa045528b65987f5bfae6103e0528160086107cf195a01fa9051169056fea264697066735822122002f5dc7b100ebc3a1e337ec1fd16ecdc83bc08c15a88e0690ed94292f62be4ba64736f6c634300080f0033",
  "linkReferences": {},
  "deployedLinkReferences": {}
}