{
  "_format": "hh-sol-artifact-1",
  "contractName": "Groth16Verifier",
  "sourceName": "contracts/Nft_9_20Verifier.sol",
  "abi": [
    {
      "inputs": [
        {
          "internalType": "uint256[2]",
          "name": "_pA",
          "type": "uint256[2]"
        },
        {
          "internalType": "uint256[2][2]",
          "name": "_pB",
          "type": "uint256[2][2]"
        },
        {
          "internalType": "uint256[2]",
          "name": "_pC",
          "type": "uint256[2]"
        },
        {
          "internalType": "uint256[90]",
          "name": "_pubSignals",
          "type": "uint256[90]"
        }
      ],
      "name": "verifyProof",
      "outputs": [
        {
          "internalType": "bool",
          "name": "",
          "type": "bool"
        }
      ],
      "stateMutability": "view",
      "type": "function"
    }
  ],
  "bytecode": "0x6080806040523461001657613cd5908161001c8239f35b600080fdfe6080604052600436101561001257600080fd5b6000803560e01c634456e8b31461002857600080fd5b346104c057610c403660031901126104c057610043366104c3565b3660c4116104bc57610054366104d5565b90610c443681116104b857916104b4916104af6020959461040060405261007d610104356104e3565b610089610124356104e3565b610095610144356104e3565b6100a1610164356104e3565b6100ad610184356104e3565b6100b96101a4356104e3565b6100c56101c4356104e3565b6100d16101e4356104e3565b6100dd610204356104e3565b6100e9610224356104e3565b6100f5610244356104e3565b610101610264356104e3565b61010d610284356104e3565b6101196102a4356104e3565b6101256102c4356104e3565b6101316102e4356104e3565b61013d610304356104e3565b610149610324356104e3565b610155610344356104e3565b610161610364356104e3565b61016d610384356104e3565b6101796103a4356104e3565b6101856103c4356104e3565b6101916103e4356104e3565b61019d610404356104e3565b6101a9610424356104e3565b6101b5610444356104e3565b6101c1610464356104e3565b6101cd610484356104e3565b6101d96104a4356104e3565b6101e56104c4356104e3565b6101f16104e4356104e3565b6101fd610504356104e3565b610209610524356104e3565b610215610544356104e3565b610221610564356104e3565b61022d610584356104e3565b6102396105a4356104e3565b6102456105c4356104e3565b6102516105e4356104e3565b61025d610604356104e3565b610269610624356104e3565b610275610644356104e3565b610281610664356104e3565b61028d610684356104e3565b6102996106a4356104e3565b6102a56106c4356104e3565b6102b16106e4356104e3565b6102bd610704356104e3565b6102c9610724356104e3565b6102d5610744356104e3565b6102e1610764356104e3565b6102ed610784356104e3565b6102f96107a4356104e3565b6103056107c4356104e3565b6103116107e4356104e3565b61031d610804356104e3565b610329610824356104e3565b610335610844356104e3565b610341610864356104e3565b61034d610884356104e3565b6103596108a4356104e3565b6103656108c4356104e3565b6103716108e4356104e3565b61037d610904356104e3565b610389610924356104e3565b610395610944356104e3565b6103a1610964356104e3565b6103ad610984356104e3565b6103b96109a4356104e3565b6103c56109c4356104e3565b6103d16109e4356104e3565b6103dd610a04356104e3565b6103e9610a24356104e3565b6103f5610a44356104e3565b610401610a64356104e3565b61040d610a84356104e3565b610419610aa4356104e3565b610425610ac4356104e3565b610431610ae4356104e3565b61043d610b04356104e3565b610449610b24356104e3565b610455610b44356104e3565b610461610b64356104e3565b61046d610b84356104e3565b610479610ba4356104e3565b610485610bc4356104e3565b610491610be4356104e3565b61049d610c04356104e3565b6104a9610c24356104e3565b356104e3565b613597565b8152f35b8380fd5b5080fd5b80fd5b906004916044116104d057565b600080fd5b9060c491610104116104d057565b7f30644e72e131a029b85045b68181585d97816a916871ca8d3c208c16d87cfd47111561050c57565b6000805260206000f35b604051907f080ce86d97c5d73579aa4ff44013288b9db26a194940a5e0f7eac54716e1f31882527f261dcd434d7c4fa796d44ca5f3c6cde463b650dbfb1a44d53d031a168568af426020830152604082019081526107cf196040836060816007855a01fa1561050c5760409260066080939284938451905260a05160608401525a01fa1561050c57565b604051907f22d434decfa52a62c7f189b6929e26e75d54d36c5710b67aab3f47536c3a8a7882527f1d3b1f5ef88029f448c376dd2284d3d00ebf3e8388725862ca27be0e3325b0216020830152604082019081526107cf196040836060816007855a01fa1561050c5760409260066080939284938451905260a05160608401525a01fa1561050c57565b604051907f18e903f2553914516acca499895fbb3390f7f1080c83529637d36273d1c89d0382527f26a8da2ecb50df4c8d73ded5d821fa7e971698f81e45b3c6e75394a4633950226020830152604082019081526107cf196040836060816007855a01fa1561050c5760409260066080939284938451905260a05160608401525a01fa1561050c57565b604051907f18395a8043fe3d149b866a7b9034ba7b7909e6366a2a7d42eda1ae9b2c3c3e7b82527f241cf6b12e18d94239710dabe80b01957d4a61b8b929807e99bb21165001153c6020830152604082019081526107cf196040836060816007855a01fa1561050c5760409260066080939284938451905260a05160608401525a01fa1561050c57565b604051907f29dd170574c391d70fa2f9654ac260e43bdbbdd3455ea5ede14029fe11a4ee5b82527f28cd358d0a180e0369c60849de69a6698931811e57b1cba2ea296e8a0f16d47e6020830152604082019081526107cf196040836060816007855a01fa1561050c5760409260066080939284938451905260a05160608401525a01fa1561050c57565b604051907f2ba9e062c8b996a9e733ba5904b45d7f3496079ff04c04d1e4602a028e4e27dd82527f10bbe04f7928916296c5bc3a0936b0fb18198e5473803732020f2fa19f0077b26020830152604082019081526107cf196040836060816007855a01fa1561050c5760409260066080939284938451905260a05160608401525a01fa1561050c57565b604051907f2bdfffaa381cab267255974263f38205b21e41aa4ecff22a39d25ec8ea0a85e182527f0bc2efa689dfda118756e69783bdaff3e0414b7303873f19a3394e8e46a251456020830152604082019081526107cf196040836060816007855a01fa1561050c5760409260066080939284938451905260a05160608401525a01fa1561050c57565b604051907f23d8cb61fec21c357ad9012f904dd57dc977a1de67fa4850b1d0d1738274cf3082527f1686ff0d118d6161f8562b4de15f653dc12ea53069524a2914709d155dc38d596020830152604082019081526107cf196040836060816007855a01fa1561050c5760409260066080939284938451905260a05160608401525a01fa1561050c57565b604051907f17511ee81efff50de100a3f71d8b5a3e7fc6a7b2311956cef3a2776d872a4bbc82527f28264b894bcd6c72b6d0daad7cfb3b5023b4c309b5b20dc46809a90f5aa324d26020830152604082019081526107cf196040836060816007855a01fa1561050c5760409260066080939284938451905260a05160608401525a01fa1561050c57565b604051907f175ae94fdcd194267de29a8bd2ea753f4832b4b8abde7b4f2a90646c8a06403882527f128151409d023733d667c99987f65177756e292e53335b6f727b3c2240a8c32e6020830152604082019081526107cf196040836060816007855a01fa1561050c5760409260066080939284938451905260a05160608401525a01fa1561050c57565b604051907f2eae10bdfb43936266e6b3f60ea4dbb9ca239a0cac59fec5e030adc4feed5c1382527f04b03437d680dbe1fea977c7d6331e4d1e30fcc4c38a0fad65ca0f51ec6bb9776020830152604082019081526107cf196040836060816007855a01fa1561050c5760409260066080939284938451905260a05160608401525a01fa1561050c57565b604051907f2a50f864fa21415c797ca31e0ece0cd07a1c279ddb194a80f9992f34e409efa782527f1de0d8d5ed558eaafec8dd691561514b3abae71c6c71650b46047ed5f54188a06020830152604082019081526107cf196040836060816007855a01fa1561050c5760409260066080939284938451905260a05160608401525a01fa1561050c57565b604051907f182a7803b0ee3f1c15e5719912ec14279d688e29573518310abb8cf3dc4c4f8c82527f1083306a950af15ef844f7d790c96950c3c1b0086fe1b2179b52a59dfd891d926020830152604082019081526107cf196040836060816007855a01fa1561050c5760409260066080939284938451905260a05160608401525a01fa1561050c57565b604051907f15bf6c8b87d514671f429777970e8a7d6de18102cb59b5b35232c1670a5028d782527f2525941737a93b1f99deeba061e6067fa221c614f638755c84a44013364602376020830152604082019081526107cf196040836060816007855a01fa1561050c5760409260066080939284938451905260a05160608401525a01fa1561050c57565b604051907f05ec7ed120c7d27528a1cb1c1e3d9d3fb581cfd535e0508a79470a2b815f628e82527f2023ad11b835fa8fb13d9bdc8b26cf39808e6aef53df16ca37ffdde5325cad246020830152604082019081526107cf196040836060816007855a01fa1561050c5760409260066080939284938451905260a05160608401525a01fa1561050c57565b604051907f11da1a88b1a62dfb593077886a639b068a4823415916627d46a2cab1557d4ab882527f226d41dc054d620d87f77d3154ea44a86adf395b3cd1035fa4389c911fd557b96020830152604082019081526107cf196040836060816007855a01fa1561050c5760409260066080939284938451905260a05160608401525a01fa1561050c57565b604051907f0fc3c3edc59feaa68b9ccb3aeb6b0069e84dff7708ae112bad2c5615d2860f1d82527f1d8ac1a07d8dce0c45c2ec96e25cf055f318d871de5a03b45309f82ebdadfb3d6020830152604082019081526107cf196040836060816007855a01fa1561050c5760409260066080939284938451905260a05160608401525a01fa1561050c57565b604051907f22da37ded0c0f3eae651f39d00390fc77c27f1568db218fcf55ca6df49f120eb82527f23fb8c6c0c7e68cf04063b8c74763a0291033c18550961b54f13cdd5bb9d8eaa6020830152604082019081526107cf196040836060816007855a01fa1561050c5760409260066080939284938451905260a05160608401525a01fa1561050c57565b604051907f28cfbc96dccffe284ee08f3c3805e34a7bb4314890b19a1215a480fc8ee9fab382527f1e651b046ff3f42da446e6b48a4fa962383ca893a3648b41f7a2c205450daedb6020830152604082019081526107cf196040836060816007855a01fa1561050c5760409260066080939284938451905260a05160608401525a01fa1561050c57565b604051907f2f5292729d79d6c16e479867f71e21459ac8253837e9f19a69ac39d511d731e982527f11ac3a497f3d3d494f94ac3df45d79d853ac811a06f122c6901fe84ee3da02cf6020830152604082019081526107cf196040836060816007855a01fa1561050c5760409260066080939284938451905260a05160608401525a01fa1561050c57565b604051907f144b73805feef89263affbb91e8aa7109d19c1dcdec68cb567dfcc17d4d543cb82527f2802b46b8e7af77a6557d00f5d8ce5f7d1f4d174e7434ab662bba862f7ca2a4a6020830152604082019081526107cf196040836060816007855a01fa1561050c5760409260066080939284938451905260a05160608401525a01fa1561050c57565b604051907f18b57e4cc34034221a15820801e769662947db046c9abd20227ff6dc439ff37082527f2eeab32db2ac0879185b0b6802012d6cacea6f029d8054ffd3676c26390a43426020830152604082019081526107cf196040836060816007855a01fa1561050c5760409260066080939284938451905260a05160608401525a01fa1561050c57565b604051907f2e71ad97fe9954ada509ffa62a7c8cce033c83d2606af4a16b7e5d981d79d63c82527f1c6d34cb8c60f38c249b2ad8fb05b1ed526f6c11b105b283e4d918e2a74a3c9e6020830152604082019081526107cf196040836060816007855a01fa1561050c5760409260066080939284938451905260a05160608401525a01fa1561050c57565b604051907eef79507f499af14e8e5a5a62c39f8136ca7cdceed5c69e74f16159c5d4ab7b82527f037506da497cc46350f0618ee174605cd9343859e9652bd83c2f891c0f5a97f86020830152604082019081526107cf196040836060816007855a01fa1561050c5760409260066080939284938451905260a05160608401525a01fa1561050c57565b604051907f158d347b896f57d8a7e7225b38cf5354d22d8188416675673490fdda2a24154d82527f26d9af65678a7f5317d64477b832498c2e901fe5162abf5d1b7e1c76b60c245d6020830152604082019081526107cf196040836060816007855a01fa1561050c5760409260066080939284938451905260a05160608401525a01fa1561050c57565b604051907f217246417ae385dbe3d9cd63f7d65fe6320bfa2976462490ae902700e004bed382527f237c97e145ef4928c56db90f239d4da78df6c8b1de62c868959e3ea43f78805d6020830152604082019081526107cf196040836060816007855a01fa1561050c5760409260066080939284938451905260a05160608401525a01fa1561050c57565b604051907f2d0d19ee8c562e0fe961ddeccdc8c90f07171fd62f84aac355d6c53b2ea9f93182527f2d440c0f486359ed558430b497f1deb6289f367282bed71c5d2b85ea18e51f896020830152604082019081526107cf196040836060816007855a01fa1561050c5760409260066080939284938451905260a05160608401525a01fa1561050c57565b604051907f0afd5c00c65f05cf669f2ed69ee4ccf5aa5f0dd09816cd3a1d1268be0167c37182527f0e1a737430ba2d2a13024e9cebf96c9906724cfd570885dad27b193eb91e70e66020830152604082019081526107cf196040836060816007855a01fa1561050c5760409260066080939284938451905260a05160608401525a01fa1561050c57565b604051907f23c614d718f4f6282747f147ed712802403e273b0491dc6c9101ac901726470282527f14b555214f5d243f1f0a37bed22ab89cd73d16e6eda3d7317c62ffe1f1bcc02c6020830152604082019081526107cf196040836060816007855a01fa1561050c5760409260066080939284938451905260a05160608401525a01fa1561050c57565b604051907f25b5393bd37ef4ae8927222d864640fc560b9590d047b281e3a196dee0f981c282527f168082c3cba54d34531bea49df45d9bf1a33d7075b49b28425a36c07708f23ee6020830152604082019081526107cf196040836060816007855a01fa1561050c5760409260066080939284938451905260a05160608401525a01fa1561050c57565b604051907f0bf656bd8e91e8df5f84b968aaa31e5ab370729e8b7fdb8a28ffc7dc4510637c82527f1334905f6b4ccabef9725b639d33c4f7ae437efaf55f0bf80c29c15ea04e0e386020830152604082019081526107cf196040836060816007855a01fa1561050c5760409260066080939284938451905260a05160608401525a01fa1561050c57565b604051907f25bfccafbfb4106a01a724c1123ea9c7e1635356006c4a8f036bcf922597ad4582527f2c7db4dad4d576a0c099949125c01bbabed8c791f86cbfeb5158e1391831d1ca6020830152604082019081526107cf196040836060816007855a01fa1561050c5760409260066080939284938451905260a05160608401525a01fa1561050c57565b604051907f0a17609adf0f6a868a2dfaae2f2c9a238df082a1bbd5556495de3285fbcdb9d182527f16728598afe6e3ba59657e3cd8681519409be7f6e360e00200d24f65b2a715736020830152604082019081526107cf196040836060816007855a01fa1561050c5760409260066080939284938451905260a05160608401525a01fa1561050c57565b604051907f207a8f05beef8dd7b12d1f97a806a0ea8ff768c882b1a1eef6f650a0a705b97682527f1f318e5511d755b35a5aaa6cbfe7fd85167a5a00b6293f90df2eb68d0ab9d7386020830152604082019081526107cf196040836060816007855a01fa1561050c5760409260066080939284938451905260a05160608401525a01fa1561050c57565b604051907e3953645f9197d262d3641c1d306c5829a91796edfdafaf91c2d0c61bd0162982527f2edca47ad21bced09562e8bea27f4858ae5d8f9e3ca01a86a7ac16710918809c6020830152604082019081526107cf196040836060816007855a01fa1561050c5760409260066080939284938451905260a05160608401525a01fa1561050c57565b604051907f2f7dd4c26de10f1c6a9743c23d6f665b7e3ba85f08bae4f090f178c0ed1bd2c482527f017f62431f8c4affc435fca0a9dbd990cec327384c4173f4cf0940670c4823876020830152604082019081526107cf196040836060816007855a01fa1561050c5760409260066080939284938451905260a05160608401525a01fa1561050c57565b604051907f230161d2060d1c928f1170f24877545ee876b20d66ccde8d1883c655dc5e168682527f18a2e2c49f5306dc841b67d6ef86df5812a9f0f68b066129b51488c48dddcadd6020830152604082019081526107cf196040836060816007855a01fa1561050c5760409260066080939284938451905260a05160608401525a01fa1561050c57565b604051907f1841018b504a308d839275926840465855c76601feae65d3baa5437fb21d605d82527f1bb58b9c7a23e024219f8e909a88588f5fd4974af0588763965a76c77e65fd806020830152604082019081526107cf196040836060816007855a01fa1561050c5760409260066080939284938451905260a05160608401525a01fa1561050c57565b604051907f0f06eb0d3d112c645edda9bc83af6579b3c866c6a47acb580647fa4b5108daba82527f2e40cb5763d0c81544868ba830408b230167326809c08e741f18c0cda8fd53d86020830152604082019081526107cf196040836060816007855a01fa1561050c5760409260066080939284938451905260a05160608401525a01fa1561050c57565b604051907f15b971bf3073f12221b6275350e0fa1085f1a7ac836b7b67d8a5555014ab3b3482527f26f80bf4aaba349d92a573352b2143c223b35497011a43bcc267e17221c74f646020830152604082019081526107cf196040836060816007855a01fa1561050c5760409260066080939284938451905260a05160608401525a01fa1561050c57565b604051907f20302e8f9cec754d259b41ebcd186309dc48a95817f8a00e68202c32a26756c682527f0911977d322c52a7103200da0df8ff68d7136b57df26ac17fbbd8f8af1a88b836020830152604082019081526107cf196040836060816007855a01fa1561050c5760409260066080939284938451905260a05160608401525a01fa1561050c57565b604051907f01431085c320cf3f3417d1e5a97fccb69feea8f819a3ca4781ba4bb8d6307e4b82527f0f8dd535603d03519bed26adb0e35f636e8a24c2740c62f2f08462359f425f206020830152604082019081526107cf196040836060816007855a01fa1561050c5760409260066080939284938451905260a05160608401525a01fa1561050c57565b604051907f0d896002f6b2ef6a2ebae66c69802c471c15911e9713126fc00e7af553a71ea382527f26c4b3feb426bf11348c3565dddecaa52801dc2ae8002a25f0ceb6058a6210e36020830152604082019081526107cf196040836060816007855a01fa1561050c5760409260066080939284938451905260a05160608401525a01fa1561050c57565b604051907f29d329e476a02dcc329cc57d15b6b920ccb713dd283903cace475fc28a62bd9282527f28642ae3bee1b7369c054066445dfc2534eb80d046540352141bd64de5dc1c406020830152604082019081526107cf196040836060816007855a01fa1561050c5760409260066080939284938451905260a05160608401525a01fa1561050c57565b604051907f1efca8b203991c96349945185e03be61d6c0f7e18aedd6ab67a98852bfa2ab8782527f09e87af0c3c614589121e718be2d3b363711e5227cd58e2e9bde9194a60373d76020830152604082019081526107cf196040836060816007855a01fa1561050c5760409260066080939284938451905260a05160608401525a01fa1561050c57565b604051907f29709d533e9322e218de903aed991313833f0df7d426e8072a4e54888464ac9e82527e661e023a7d929fcddb74cb5083bd595d29270121a3a879683e7a145780e2816020830152604082019081526107cf196040836060816007855a01fa1561050c5760409260066080939284938451905260a05160608401525a01fa1561050c57565b604051907f06edad12ecb7504129368ad639448ee92816904ed675a9ee2e5527287998a30b82527f29fd3a3e434ce3fccadb4dbbcb957d75b7dc0f20157d288a6e6cfd905d4923796020830152604082019081526107cf196040836060816007855a01fa1561050c5760409260066080939284938451905260a05160608401525a01fa1561050c57565b604051907f1df3d51d1b8ad8b39ca6e30fed0c25b6d2c4c21fb667be8c3e83a281dccdc0ed82527f305c827a73a41d96d915bd7c1e8e9b29c2bd71fabf963d76f345f9987a1104306020830152604082019081526107cf196040836060816007855a01fa1561050c5760409260066080939284938451905260a05160608401525a01fa1561050c57565b604051907f16d24776786f6f3c19be38fbf0b81bffe03c6857f36eef872bb7d61ec93fafa082527f0c5cdc56ee74c02168d256a63108c24cc61565d2fa039edddaf314de85f9465c6020830152604082019081526107cf196040836060816007855a01fa1561050c5760409260066080939284938451905260a05160608401525a01fa1561050c57565b604051907f0d86707007749dcaa81ca3ff0b76b87be0fb66c145972b59c7e790a827dca2a882527f2a54c5b911a59a27d3d05bc8c043871df916f786ef4f9fb67188a41fd5565c9e6020830152604082019081526107cf196040836060816007855a01fa1561050c5760409260066080939284938451905260a05160608401525a01fa1561050c57565b604051907f26b70fc88ca06b8a9fcc71c99a4681ed546e1418bc35b3f6e01bfe8829eb2c6982527f2ae14d363a032ff132daf2c3317fccf883fdb3c036914b4ac5f422251a2091816020830152604082019081526107cf196040836060816007855a01fa1561050c5760409260066080939284938451905260a05160608401525a01fa1561050c57565b604051907f0b8df5b7f0a78c7bb79acca5b2e5bc67a2457b7c8298e2a1c9645fc896e9ba6b82527f2309b2739aa6fd5129680c53ea1349b6125653005e8db2df93db52792d9aa9c36020830152604082019081526107cf196040836060816007855a01fa1561050c5760409260066080939284938451905260a05160608401525a01fa1561050c57565b604051907f20123c40b4a4063ef9bad7aecbf18ebfbc93a35239de556509735a1f70437c4082527f080f3a961d7dc483cc05554f65d6689189617387d83f48c9d8529a6881d9cd8a6020830152604082019081526107cf196040836060816007855a01fa1561050c5760409260066080939284938451905260a05160608401525a01fa1561050c57565b604051907f1e272bc8f3800699e233cc5375294ebdc392c91482faa7807fd3562cc95c620d82527f028c3182fb02b839d5a368331d214a675b2c41f857d7b69fa4fe447ca94d985b6020830152604082019081526107cf196040836060816007855a01fa1561050c5760409260066080939284938451905260a05160608401525a01fa1561050c57565b604051907f0a7c3293d724fd57f5bb83ef36925632140ced43ffdd366e2d173a5cf0ca95e282527f1d4232442c60006a720f17641c79717b81568f2b53ce2a5cba435a195a54e8cb6020830152604082019081526107cf196040836060816007855a01fa1561050c5760409260066080939284938451905260a05160608401525a01fa1561050c57565b604051907f0e2f5940d531104863d1c612fe08a869f6fefdf61a805699d57cc71e472b5fa582527f1a022e852f03afcb89fb1c9e6ca9889661da3586b993b7b01cb877a2499d1a976020830152604082019081526107cf196040836060816007855a01fa1561050c5760409260066080939284938451905260a05160608401525a01fa1561050c57565b604051907f19c63593510212d9501e718da1842a431afa5c19dfc73ef90b15d96020856d4f82527f1c3fc86aa9aca4f711bc90b5a2b1a117e5c11a49d6c5d3cb0318688d4a804f5a6020830152604082019081526107cf196040836060816007855a01fa1561050c5760409260066080939284938451905260a05160608401525a01fa1561050c57565b604051907f2f8d45eff9b9a7c999b0229b52d41aa7bab0b6d8b2a8d948251b34d229b5217082527f1662475fa1f2117741188b131f04d94a3c1acc085db5889c1683f10b83f5fc836020830152604082019081526107cf196040836060816007855a01fa1561050c5760409260066080939284938451905260a05160608401525a01fa1561050c57565b604051907f1fb35561f8e01f9cda81bb62cbc72aae74dd0501cf5ad7f12548e1214dc06df182527f13808df3d75bf7ad95424474277d885d1c0e8d99976540817c3de97d69a707d46020830152604082019081526107cf196040836060816007855a01fa1561050c5760409260066080939284938451905260a05160608401525a01fa1561050c57565b604051907f2c647ab7a8d020d438b8aeaf954ad96d9406397d79b73033b397899880da90cd82527f1b95962a101ffa013ba5efb7f22d62a94486ef6eb8cfcee42f6ee6515b3d5d8a6020830152604082019081526107cf196040836060816007855a01fa1561050c5760409260066080939284938451905260a05160608401525a01fa1561050c57565b604051907f0630089aa5037ca81a5a7405bbe272b3f10206d313cd4a93efaf710c2349920e82527f2fd86fc4a4e21d48b3c48d13f8f49c4e1a62b1da9d8d28a6d29a2ee8957f46ba6020830152604082019081526107cf196040836060816007855a01fa1561050c5760409260066080939284938451905260a05160608401525a01fa1561050c57565b604051907f1c59726647777435a54f9baef245291ff8b6c384d4e5ac40375ae23124cf0b2482527f106d3d17422c41aa52c56d97cd9b63d81ac31d0eb57d9faa5b49799533237d846020830152604082019081526107cf196040836060816007855a01fa1561050c5760409260066080939284938451905260a05160608401525a01fa1561050c57565b604051907f224feb21ec3354abf682f4e1b6d9e648d7f50f8ed12b52367a11da1427f4118482527f0f945a5c113235c84bc339490166b08762b8968ae0424bbd8d3e73fc859635126020830152604082019081526107cf196040836060816007855a01fa1561050c5760409260066080939284938451905260a05160608401525a01fa1561050c57565b604051907f201de0e5959505f55b4e48e3d6571c4661d286b7a8c915876733144b95fd82f582527f27ef96e6b2c0eba15374be2de5a4ef9e76d4ee3be735fa4ffacde0cfe3755b846020830152604082019081526107cf196040836060816007855a01fa1561050c5760409260066080939284938451905260a05160608401525a01fa1561050c57565b604051907f2b8d05cd28b132ba8e2951432058c01d76efa960f29a3031957f936ad716393882527f1d4928de6129e0584a4c6c0515ef63f2d401f2d711617e2353d0c73a63bd6dd66020830152604082019081526107cf196040836060816007855a01fa1561050c5760409260066080939284938451905260a05160608401525a01fa1561050c57565b604051907f073d93892de6708d3bda2e730f2cb49a30773b35fe0b21b91d1a5b2dc57720d382527f0a2616c740913e6c8352f99ef3bf5d43310d6f8a69dc76072c0e193518ac35596020830152604082019081526107cf196040836060816007855a01fa1561050c5760409260066080939284938451905260a05160608401525a01fa1561050c57565b604051907f25563a715dc2ba3667d9ece10c16caf758f8685b8d5cd15eb52d49d0d114f89b82527f1b6a489b13a328fa9c610d0e390c27935212aeb620d703bba12766449b96663e6020830152604082019081526107cf196040836060816007855a01fa1561050c5760409260066080939284938451905260a05160608401525a01fa1561050c57565b604051907f265d46dc40932e03e06cd869aec9f7ec3687832974bb099c5ddfa127f92e5ba482527f0314e659fff8f1d1a1d5a319d0feb246e8190e43a8245ce40bc0afb3766793896020830152604082019081526107cf196040836060816007855a01fa1561050c5760409260066080939284938451905260a05160608401525a01fa1561050c57565b604051907f20ebcae87d372110aa1f297a5de4fdd3113abe012d887ec1aea681896baec18282527f0aa0336e069c17eff2734d9bc3ebf2f988fd4fa9e4548c59a4aa616f90be079e6020830152604082019081526107cf196040836060816007855a01fa1561050c5760409260066080939284938451905260a05160608401525a01fa1561050c57565b604051907f18adf4ef0576d51721da40a6af2b9e8d786c31d5792eca7627bf5e98ac28f77f82527f26a3bdb77b8080116bd7acb49548d9f9abdab5f5f0d36f4a60a22a9d681fd82b6020830152604082019081526107cf196040836060816007855a01fa1561050c5760409260066080939284938451905260a05160608401525a01fa1561050c57565b604051907f0ace5e93d4c10743eab3f4b9a6b1519150464d9cd6b6f5e4f56ec7a6ff421de182527f2208a522c63c0b37d9e1e65904710bde78ed831520b1b39e7f9d36feba65f77c6020830152604082019081526107cf196040836060816007855a01fa1561050c5760409260066080939284938451905260a05160608401525a01fa1561050c57565b604051907f1a0dd97b545b866955a8e9bfc2894ecd0840cd039b60a36a01399ccdd2b42aa982527f058f148d22612f750f2f9610c7c8e25a8d0940f8fd13b63156b6b422b954683e6020830152604082019081526107cf196040836060816007855a01fa1561050c5760409260066080939284938451905260a05160608401525a01fa1561050c57565b604051907f1f1cf1f926d8eb993da9d0f3f27195767a6c52ce0cc25ebcac2339fd1441b5ae82527f1b8826370bf1223a9a874bdf07bd73e876f229d9966a4ae217bef7b48f747c476020830152604082019081526107cf196040836060816007855a01fa1561050c5760409260066080939284938451905260a05160608401525a01fa1561050c57565b604051907f2575044a0b2cd398c6a76d13fbfdd453f1c9a6827e750ba254c15bbb8fa5bc4e82527f12eb85062b9475989bd8ee213200814a9de9eba2471ba9f7eb7ac6af5f8202d46020830152604082019081526107cf196040836060816007855a01fa1561050c5760409260066080939284938451905260a05160608401525a01fa1561050c57565b604051907f2b01047df3d549b26f1ecf8b20a66bd36acd5f3d3a0fff17f5138440929925e582527f15e6334db765dde1b06dab9e9b0e42100f491e7b86cd642700b5bf3e193792156020830152604082019081526107cf196040836060816007855a01fa1561050c5760409260066080939284938451905260a05160608401525a01fa1561050c57565b604051907f2f1e1c3d57aa5d7dbf865f49539e8b6ff581e166324b4c4f973ff7a15bf6de2382527f10a87f372419935b8d65225ce3ad94d84dab29830ec12211a8261bd10720ea2a6020830152604082019081526107cf196040836060816007855a01fa1561050c5760409260066080939284938451905260a05160608401525a01fa1561050c57565b604051907f0a3e6c5fa81ad47c0ce4c802b8bd8f3b57c6d9915c794fee54f866f6706d43af82527f084a4c439821b394667ae23a6932a272947ffb923f8ff20f5b5237089cfb71d46020830152604082019081526107cf196040836060816007855a01fa1561050c5760409260066080939284938451905260a05160608401525a01fa1561050c57565b604051907f14b57dc24ffa435f6ac68342283136970c77f5273573ff8e78eaa2f87c366f1782527f25e0bae561a2dcbeb33b3a085a3783db0cec4605c918fe87f807e4b992f17f2e6020830152604082019081526107cf196040836060816007855a01fa1561050c5760409260066080939284938451905260a05160608401525a01fa1561050c57565b604051907f27f60881aa1d373a5ec467ad0d7bd8109a6bfc97dbbe97c1ec8be7f357e43b7b82527f2754b663ddc321d26d09e4a4277b836dd5f876324202202f4024d6a272ffbf706020830152604082019081526107cf196040836060816007855a01fa1561050c5760409260066080939284938451905260a05160608401525a01fa1561050c57565b604051907f0517c44977e5bc07b7a79b1efaaae8c84ad06180154c6f1f3af4bf62b5fc1c2282527f07ca34b6315c0461ddfb2559fdc23f3e2fd2906241e69cb626c989af2cb398116020830152604082019081526107cf196040836060816007855a01fa1561050c5760409260066080939284938451905260a05160608401525a01fa1561050c57565b604051907f0d2cadce571f54d5afba05fc0ebb1291ab6cf4d2fbf9f24b616589b218bea06d82527f155a41ecdbe6109c8dd46dcb0143d9d5b63cfbf5c344a158df0fbd656311fd496020830152604082019081526107cf196040836060816007855a01fa1561050c5760409260066080939284938451905260a05160608401525a01fa1561050c57565b604051907f025d9d4236e556504be1ecaf4a1451570aeaf11183a2328f14ac135af1718a6182527f199ec826562aeef3a003d0fbf2858d75164e26756c2ed0bdca2dd204dce1ce626020830152604082019081526107cf196040836060816007855a01fa1561050c5760409260066080939284938451905260a05160608401525a01fa1561050c57565b604051907f2a21aaa7498d58eff5db7d51787ca34104c37e7f24ca73061750471003729ea182527f2b75dd6b322196849eb3bd8ad7d1045057408c7e5355d3eb79af47c34a56b8986020830152604082019081526107cf196040836060816007855a01fa1561050c5760409260066080939284938451905260a05160608401525a01fa1561050c57565b604051907f18263a34d1005c0d957e8115f108bfb3e960982e3a44294ec18273e313d4642482527f0c85afa049fdb9c3910a85aa8a6ac28a9f00334df12f8cab647a2706d3c709e66020830152604082019081526107cf196040836060816007855a01fa1561050c5760409260066080939284938451905260a05160608401525a01fa1561050c57565b604051907f2437fc49691ddb21258e26a2cc496572d663612b2fe5566cd941fcda3e43084782527f097daace859eef8836ee57b657d083d083af024dc7d1480b3c66357385ea7c786020830152604082019081526107cf196040836060816007855a01fa1561050c5760409260066080939284938451905260a05160608401525a01fa1561050c57565b604051907f060f2275dd6c66e314e1d68dc7b1810782f7e0c072286faa66093376b5e1e71382527f1327a5b8e56cfcad3aed2185d38f9cf616f8857ecffc6a526f8203e47ee2ca9d6020830152604082019081526107cf196040836060816007855a01fa1561050c5760409260066080939284938451905260a05160608401525a01fa1561050c57565b604051907f067a564d57940c3b395eff0ef4ccb8fcd41461999662b4a3810accde629a8de282527f036f787315fb69eb0b0aa8ff3e128c91c33d0212149fdc6b80b8d5d9a20626116020830152604082019081526107cf196040836060816007855a01fa1561050c5760409260066080939284938451905260a05160608401525a01fa1561050c57565b604051907f163931b46ec6672f59120f848adba774162032e6dd079b9b458003aded36da9e82527f3056dd863bdd6470b573d2bd1e2917e5d754a4cc9f522e3bed2b3e4e07c0928b6020830152604082019081526107cf196040836060816007855a01fa1561050c5760409260066080939284938451905260a05160608401525a01fa1561050c57565b604051907f264700ad7e228dd5fb31add92ab47c72014775e74b6593bd1531ba6b4ea1226582527f2ffb75f56ca93d205e05b4dc92040468bfdbdb10a98a114226c53aae9ce4761c6020830152604082019081526107cf196040836060816007855a01fa1561050c5760409260066080939284938451905260a05160608401525a01fa1561050c57565b604051907f0ebed0e4558943511e33707819017237accc375894ad04596087929c4eeddec482527f1073aba5d1f13a5a63e7e4b33ee4381fe15ddde6548821ecbb0a809791e4ccbd6020830152604082019081526107cf196040836060816007855a01fa1561050c5760409260066080939284938451905260a05160608401525a01fa1561050c57565b6020907f221f37b8d5914d97cf17fd2da1a671ca2bae5801d71abd17605aa6fef58cc10e6080527f0e8f2c7edd8538fd867a5734842eadba24af1b5b8367bb51dfaab935b340854060a0526135ee61010435610516565b6135fa610124356105a0565b6136066101443561062a565b613612610164356106b4565b61361e6101843561073e565b61362a6101a4356107c8565b6136366101c435610852565b6136426101e4356108dc565b61364e61020435610966565b61365a610224356109f0565b61366661024435610a7a565b61367261026435610b04565b61367e61028435610b8e565b61368a6102a435610c18565b6136966102c435610ca2565b6136a26102e435610d2c565b6136ae61030435610db6565b6136ba61032435610e40565b6136c661034435610eca565b6136d261036435610f54565b6136de61038435610fde565b6136ea6103a435611068565b6136f66103c4356110f2565b6137026103e43561117c565b61370e61040435611205565b61371a6104243561128f565b61372661044435611319565b613732610464356113a3565b61373e6104843561142d565b61374a6104a4356114b7565b6137566104c435611541565b6137626104e4356115cb565b61376e61050435611655565b61377a610524356116df565b61378661054435611769565b613792610564356117f2565b61379e6105843561187c565b6137aa6105a435611906565b6137b66105c435611990565b6137c26105e435611a1a565b6137ce61060435611aa4565b6137da61062435611b2e565b6137e661064435611bb8565b6137f261066435611c42565b6137fe61068435611ccc565b61380a6106a435611d56565b6138166106c435611ddf565b6138226106e435611e69565b61382e61070435611ef3565b61383a61072435611f7d565b61384661074435612007565b61385261076435612091565b61385e6107843561211b565b61386a6107a4356121a5565b6138766107c43561222f565b6138826107e4356122b9565b61388e61080435612343565b61389a610824356123cd565b6138a661084435612457565b6138b2610864356124e1565b6138be6108843561256b565b6138ca6108a4356125f5565b6138d66108c43561267f565b6138e26108e435612709565b6138ee61090435612793565b6138fa6109243561281d565b613906610944356128a7565b61391261096435612931565b61391e610984356129bb565b61392a6109a435612a45565b6139366109c435612acf565b6139426109e435612b59565b61394e610a0435612be3565b61395a610a2435612c6d565b613966610a4435612cf7565b613972610a6435612d81565b61397e610a8435612e0b565b61398a610aa435612e95565b613996610ac435612f1f565b6139a2610ae435612fa9565b6139ae610b0435613033565b6139ba610b24356130bd565b6139c6610b4435613147565b6139d2610b64356131d1565b6139de610b843561325b565b6139ea610ba4356132e5565b6139f6610bc43561336f565b613a02610be4356133f9565b613a0e610c0435613483565b613a1a610c243561350d565b61010092818492358352837f30644e72e131a029b85045b68181585d97816a916871ca8d3c208c16d87cfd479101358103066101205260443561014052606435610160526084356101805260a4356101a0527f2d4d9aa7e302d9df41749d5507949d05dbea33fbb16c643b22f599a2be6df2e26101c0527f14bedd503c37ceb061d8ec60209fe345ce89830a19230301f076caff004d19266101e0527f0967032fcbf776d1afc985f88877f182d38480a653f2decaa9794cbc3bf3060c610200527f0e187847ad4c798374d0d6732bf501847dd68bc0e071241e0213bc7fc13db7ab610220527f304cfbd1e08a704a99f5e847d93f8c3caafddec46b7a0d379da69a4d112346a7610240527f1739c1b1a457a8c7313123d24d2f9192f896b7c63eea05a9d57f06547ad0cec8610260526080516102805260a0516102a0527f198e9393920d483a7260bfb731fb5d25f1aa493335a9e71297e485b7aef312c26102c0527f1800deef121f1e76426a00665e5c4479674322d4f75edadd46debd5cd992f6ed6102e05282610300917f090689d0585ff075ec9e99ad690c3395bc4b313370b38ef355acdadcd122975b83527f12c85ea5db8c6deb4aab71808dcb408fe3d1e7690c43d37b4ce6cc0166fa7daa610320528035610340520135610360527f12cbd35cf00b21f1b0415b60954f3a19600a14bbee21b1e0d5b3fad3f177d41f610380527f1684c41993aad6456690b51b0e5a063c198043f1decc55531b4846a339d967d16103a0527f28d99d3ede66a4c2a9feb5cffcf7de367c3b5868628fd156343842f02e3f85466103c0527f0b1a1b7256e34fb2a627c7908c176ae6e8a45d89e6033b8580426c1f25852cd36103e0528160086107cf195a01fa9051169056fea2646970667358221220ebfdb5028c13a83a8028e45349919eb2dc413d0425aaea244ec47818dec68bb564736f6c634300080f0033",
  "linkReferences": {},
  "deployedLinkReferences": {}
}