{
  "_format": "hh-sol-artifact-1",
  "contractName": "Groth16Verifier",
  "sourceName": "contracts/Nft_10_20Verifier.sol",
  "abi": [
    {
      "inputs": [
        {
          "internalType": "uint256[2]",
          "name": "_pA",
          "type": "uint256[2]"
        },
        {
          "internalType": "uint256[2][2]",
          "name": "_pB",
          "type": "uint256[2][2]"
        },
        {
          "internalType": "uint256[2]",
          "name": "_pC",
          "type": "uint256[2]"
        },
        {
          "internalType": "uint256[100]",
          "name": "_pubSignals",
          "type": "uint256[100]"
        }
      ],
      "name": "verifyProof",
      "outputs": [
        {
          "internalType": "bool",
          "name": "",
          "type": "bool"
        }
      ],
      "stateMutability": "view",
      "type": "function"
    }
  ],
  "bytecode": "0x6080806040523461001657614327908161001c8239f35b600080fdfe6080604052600436101561001257600080fd5b6000803560e01c632e158b4a1461002857600080fd5b3461053857610d80366003190112610538576100433661053b565b3660c411610534576100543661054d565b90610d84368111610530579161052c916105276020959461040060405261007d6101043561055b565b6100896101243561055b565b6100956101443561055b565b6100a16101643561055b565b6100ad6101843561055b565b6100b96101a43561055b565b6100c56101c43561055b565b6100d16101e43561055b565b6100dd6102043561055b565b6100e96102243561055b565b6100f56102443561055b565b6101016102643561055b565b61010d6102843561055b565b6101196102a43561055b565b6101256102c43561055b565b6101316102e43561055b565b61013d6103043561055b565b6101496103243561055b565b6101556103443561055b565b6101616103643561055b565b61016d6103843561055b565b6101796103a43561055b565b6101856103c43561055b565b6101916103e43561055b565b61019d6104043561055b565b6101a96104243561055b565b6101b56104443561055b565b6101c16104643561055b565b6101cd6104843561055b565b6101d96104a43561055b565b6101e56104c43561055b565b6101f16104e43561055b565b6101fd6105043561055b565b6102096105243561055b565b6102156105443561055b565b6102216105643561055b565b61022d6105843561055b565b6102396105a43561055b565b6102456105c43561055b565b6102516105e43561055b565b61025d6106043561055b565b6102696106243561055b565b6102756106443561055b565b6102816106643561055b565b61028d6106843561055b565b6102996106a43561055b565b6102a56106c43561055b565b6102b16106e43561055b565b6102bd6107043561055b565b6102c96107243561055b565b6102d56107443561055b565b6102e16107643561055b565b6102ed6107843561055b565b6102f96107a43561055b565b6103056107c43561055b565b6103116107e43561055b565b61031d6108043561055b565b6103296108243561055b565b6103356108443561055b565b6103416108643561055b565b61034d6108843561055b565b6103596108a43561055b565b6103656108c43561055b565b6103716108e43561055b565b61037d6109043561055b565b6103896109243561055b565b6103956109443561055b565b6103a16109643561055b565b6103ad6109843561055b565b6103b96109a43561055b565b6103c56109c43561055b565b6103d16109e43561055b565b6103dd610a043561055b565b6103e9610a243561055b565b6103f5610a443561055b565b610401610a643561055b565b61040d610a843561055b565b610419610aa43561055b565b610425610ac43561055b565b610431610ae43561055b565b61043d610b043561055b565b610449610b243561055b565b610455610b443561055b565b610461610b643561055b565b61046d610b843561055b565b610479610ba43561055b565b610485610bc43561055b565b610491610be43561055b565b61049d610c043561055b565b6104a9610c243561055b565b6104b5610c443561055b565b6104c1610c643561055b565b6104cd610c843561055b565b6104d9610ca43561055b565b6104e5610cc43561055b565b6104f1610ce43561055b565b6104fd610d043561055b565b610509610d243561055b565b610515610d443561055b565b610521610d643561055b565b3561055b565b613b71565b8152f35b8380fd5b5080fd5b80fd5b9060049160441161054857565b600080fd5b9060c4916101041161054857565b7f30644e72e131a029b85045b68181585d97816a916871ca8d3c208c16d87cfd47111561058457565b6000805260206000f35b604051907f14b8978ae4a099556b594ac7b4227c8ddead44f280d0138608fdcac9cb21841082527f14eedf96d130a86000f587f1f63b6a0dc26de122566d49c705dc3ddabe0172d76020830152604082019081526107cf196040836060816007855a01fa156105845760409260066080939284938451905260a05160608401525a01fa1561058457565b604051907f0a1251d0d5ac75c7a5e0657802a2c7305509ffa60af56b86b5fb77399143831082527f2f0864b6eb652da99379430ff905222bf0d6c0811000ca3e74396c1c106286bf6020830152604082019081526107cf196040836060816007855a01fa156105845760409260066080939284938451905260a05160608401525a01fa1561058457565b604051907f058a374157049f53908185ca4f8ff1f288e43440bce68fb1e76ec407b337693a82527f23b05258298bcf2880d1d9b3072a7839478c44898e0f30017a139860eeceb0dd6020830152604082019081526107cf196040836060816007855a01fa156105845760409260066080939284938451905260a05160608401525a01fa1561058457565b604051907f2c8b2c3bca13e319b44790a9dd822eb6db07570f429e45ae1375cc9eca6be12c82527f03b8b238595846121ca0e8a40de7a2937a86e9f851bf9ac5e97cda2ebfb57a516020830152604082019081526107cf196040836060816007855a01fa156105845760409260066080939284938451905260a05160608401525a01fa1561058457565b604051907f1a7dec91bdb73fcbb3014ce4635ca181e9e6d00854da5e2f0be9943db80ff83b82527f26dcb436e41da2b2e064c043d8ed714760de6befd352a61808c08d25f4e1633d6020830152604082019081526107cf196040836060816007855a01fa156105845760409260066080939284938451905260a05160608401525a01fa1561058457565b604051907f0e7fab618d61e5cfc5e62b63e62dda9e87aa41d84dec779d9161353a31691a3b82527f14a4b14b276a09c86d636a487b318ca2bab3880e52587f57ba755ef2a8abda296020830152604082019081526107cf196040836060816007855a01fa156105845760409260066080939284938451905260a05160608401525a01fa1561058457565b604051907f011946c9d21c28290393c8ea7c4e75a9cd8a2acac24268c1a43df4a83003e29c82527f0c76c2865bceb749f7403179e5df542ab39152dfd51fcfc977bed799707cc0ba6020830152604082019081526107cf196040836060816007855a01fa156105845760409260066080939284938451905260a05160608401525a01fa1561058457565b604051907f1e6eac38d7ff7d35353261af78c2f53f5e8db99778b0bd8e6a0a30e7f5658bbe82527f04c6ec98f40f444fda514c883de12c941919903578fd3323c3aa5a3eba2c85e76020830152604082019081526107cf196040836060816007855a01fa156105845760409260066080939284938451905260a05160608401525a01fa1561058457565b604051907f185f03d7717e9160b6ae4840d4b2fc8f528a144eb8023e3b846565b378368b3b82527f03da2f23844f64c98f1d54046540782abb0a8730fb7f3ff31fdd8a3da9286b4b6020830152604082019081526107cf196040836060816007855a01fa156105845760409260066080939284938451905260a05160608401525a01fa1561058457565b604051907f1ed28f6ddffafb2a87d36745ef02ea6c9aec505176d7767fb35878cb523f637082527f0c6f74ea8c1d12c61a4cb37af678673508dfd27c3c13eaec3faa5dccf9150b8b6020830152604082019081526107cf196040836060816007855a01fa156105845760409260066080939284938451905260a05160608401525a01fa1561058457565b604051907f057de1f02ecf4d116d49fa1d00d1b4d4019c1b71569d2ee0e2171e0ba93a246182527f105a8702fc0acebfb65f671b855d180eda7244baa66ed63c6506a61747abd9936020830152604082019081526107cf196040836060816007855a01fa156105845760409260066080939284938451905260a05160608401525a01fa1561058457565b604051907f0768cdc8c439e8d4c8df9f40571c1848fab0aa633fbe13ed5a6a0687316e4b4d82527f1064657fc57eac48ad0529378b64fa641b92c1bc7924e93e1bbb571eabb77fba6020830152604082019081526107cf196040836060816007855a01fa156105845760409260066080939284938451905260a05160608401525a01fa1561058457565b604051907f26dc9880b905f209297e251cccfe78024dd1f7515ceb0c0f535dc2fbeb4cc39482527f09404403b8d133c7eefe2a4a9489aaa89e1f068f6c2d12cf8aea912c227c78706020830152604082019081526107cf196040836060816007855a01fa156105845760409260066080939284938451905260a05160608401525a01fa1561058457565b604051907f2a2f2af14af3e8b3b67f29726c4dafdb7e95455e759eb80e5e5d2a419846ae7582527f12c79aad73d193354878d8b748e1b3abb5adf46e668b7d2084c0e2184ebcebab6020830152604082019081526107cf196040836060816007855a01fa156105845760409260066080939284938451905260a05160608401525a01fa1561058457565b604051907f08a47255116166c17e17f1eb3eaefdf918ca2207c7bdc8e4d7742c22b06ce81d82527f1fd28c537333f8202a20068b49fd6fa0562a33c28df2be5415abac0cc1a00ec86020830152604082019081526107cf196040836060816007855a01fa156105845760409260066080939284938451905260a05160608401525a01fa1561058457565b604051907f0b8ae4177193023d376c528a67a95bf7c5f63a36daa464afbac6e648773a532482527f25c00803b2fa3fe0c9cf9fb47393d71f989ffbec03d64ac340191e4a23f698666020830152604082019081526107cf196040836060816007855a01fa156105845760409260066080939284938451905260a05160608401525a01fa1561058457565b604051907f035f815c552beb8fc69a5edd5348d0a5a4e89ecda8223aca9c716bda6b4ce57082527f197e3c49e6f83d96d0720fea73c67b57f4d4d92fa04af61209afff8ea5ca008e6020830152604082019081526107cf196040836060816007855a01fa156105845760409260066080939284938451905260a05160608401525a01fa1561058457565b604051907f1102d8bcd5e58a0006a36ddba903e6774a78525ab15e655e563f511244ae258d82527f2f6b4a783b7def2f0403518e82734cb6cfa5d591f0c71e3e469ebee703d98f1c6020830152604082019081526107cf196040836060816007855a01fa156105845760409260066080939284938451905260a05160608401525a01fa1561058457565b604051907f0e882178a2535620c6de07a8ce917424ceba466911c89b505cc03ab2b35aea2b82527f2ede004ecad3b7cb6f8acc4eb0ff8544fdcac95c9780585cb5647f133cdcf52f6020830152604082019081526107cf196040836060816007855a01fa156105845760409260066080939284938451905260a05160608401525a01fa1561058457565b604051907f2fc1b498b4a0ba44060cd44bd54a4c7fea563a2b611d8eb9e49e9716ad2db50182527e4ca329fb65c3472b30fe17c5c5250b3814b389c20855d20145ed96b5dc52936020830152604082019081526107cf196040836060816007855a01fa156105845760409260066080939284938451905260a05160608401525a01fa1561058457565b604051907f27298950226a671a627eb3e7e01b37d6cf44611e43ad07d0ce08fd2c4f7b427b82527f0a0898f249a7f16fdc868262b5538bb1064119a5db8d985a711f65b0dfc37b696020830152604082019081526107cf196040836060816007855a01fa156105845760409260066080939284938451905260a05160608401525a01fa1561058457565b604051907f2087d9c4a1f04a1cb61bcc3069413c3660a1934f765b0f08cd81c358789997cd82527f2fc8785758625d33379b501e9922276621e39a1b6e0ea954295beee8fb5976076020830152604082019081526107cf196040836060816007855a01fa156105845760409260066080939284938451905260a05160608401525a01fa1561058457565b604051907f0123a142b20032f4f16cecc965c3dc016f25a837feac5b8b3718d31b81d9fe0082527f0b6cb96753cd928dcfb60ddadb0c6b0a05b248038909841771479226a9e9b2996020830152604082019081526107cf196040836060816007855a01fa156105845760409260066080939284938451905260a05160608401525a01fa1561058457565b604051907f0547e14d91677b4423d9a55dd312d164c9054e9efa3890dda2acf80a1c511e9382527f07ff764e8bb3b9b1c7b3293b75f4a8132d0314a141ab1512cad58b4720b1a5ca6020830152604082019081526107cf196040836060816007855a01fa156105845760409260066080939284938451905260a05160608401525a01fa1561058457565b604051907f21b721139418d93f7314858dc54b60753a56999aa5fa64b4c51331e34c7a167182527f212fe6764ff912d24d089caebdb7b3fa269b258a8a192e9cd1a776653178d6ac6020830152604082019081526107cf196040836060816007855a01fa156105845760409260066080939284938451905260a05160608401525a01fa1561058457565b604051907f2f4b066c9200961c414b7176fa2e408e53ee222a9a94d39df1f49c456d4c1fbc82527f133d5149722a20d9ce1c67dabeb99b5c23b0ab910f1c003d5bd314b7d167fc366020830152604082019081526107cf196040836060816007855a01fa156105845760409260066080939284938451905260a05160608401525a01fa1561058457565b604051907f0f15d1ee982ee5923e3a24c6b8992a1bc07cb4992271853abb85a74494ae942c82527f1634a1961b06d8b19d38c7a86ce244a9220b741c3b33cf3c3806cf01854efa9d6020830152604082019081526107cf196040836060816007855a01fa156105845760409260066080939284938451905260a05160608401525a01fa1561058457565b604051907f29baa445962711e43ce00a085d6cf21bf6d0e1c07cc9ce5d62ba153d896ad4f382527f175f3d223937dc12cade66fb472076e56180e3862517711b6a71747fd34bb8266020830152604082019081526107cf196040836060816007855a01fa156105845760409260066080939284938451905260a05160608401525a01fa1561058457565b604051907f14efd9c51915dd13a9f79055ea339a0f6a2a9f7f7613deeba7d2f2e582da0bb882527f13d53f981fc5ebcfa1eacfcc8b9cd9400db72f005b8ac16f73999b679e5953f06020830152604082019081526107cf196040836060816007855a01fa156105845760409260066080939284938451905260a05160608401525a01fa1561058457565b604051907f171d2242fd2fd2887eec998da46268ac0607983de8c15f48fba02e3c1d52f3b882527ee507392ab39c25041023748a8e2790b6df7937463371fa92fa2d27449573bc6020830152604082019081526107cf196040836060816007855a01fa156105845760409260066080939284938451905260a05160608401525a01fa1561058457565b604051907f24c231aef69615af4b041a4ac2281e15e80e5c98d090478299c48a56a330a15782527f2414d6285c580ca38a2be99b78b2277a4146fbd3160999f890f34b6d62431f496020830152604082019081526107cf196040836060816007855a01fa156105845760409260066080939284938451905260a05160608401525a01fa1561058457565b604051907f168110998979cb7d4f4cdf014b270dd921224eeeab55ffee7fde507672ca3cce82527f231804c121930d38b9365b18d357c832ea745d1c0721402d257b892bbcc6f3b36020830152604082019081526107cf196040836060816007855a01fa156105845760409260066080939284938451905260a05160608401525a01fa1561058457565b604051907f035792e7b74ca7f5280496bbdc596ce316c205cd9f4342f2da665e26f186a83582527f0f475eedeeacf22714b432098c4ab8c5b750673ed8a7d82708984643b3e750576020830152604082019081526107cf196040836060816007855a01fa156105845760409260066080939284938451905260a05160608401525a01fa1561058457565b604051907f0b1d7be4a6c4fe9d80d773db279b659809f7f9aae769f2438e48978d7c64c0c082527f19a41781eb5991ed57627f6b81af4a0b1f7ad35345339a0b7f6e6ecbbda2f4156020830152604082019081526107cf196040836060816007855a01fa156105845760409260066080939284938451905260a05160608401525a01fa1561058457565b604051907f06664b56dcc8852f1951f36e9faeede06d4298f2d6f4fac2886dc1edbff9917182527f2a6b3c004aa6887b83fade8efdee361441186b88cce1cc87d3f1ba64ea149f5b6020830152604082019081526107cf196040836060816007855a01fa156105845760409260066080939284938451905260a05160608401525a01fa1561058457565b604051907f16b493b7685e32cf915ce3685d5b906e62b50d00f37295bb5bbc6c5411cc6e0f82527f133c0e78ffda540f7c4a1eeb152403a3a770f9519ef756488c6fa066ad01a38c6020830152604082019081526107cf196040836060816007855a01fa156105845760409260066080939284938451905260a05160608401525a01fa1561058457565b604051907f1cf7d4ba8803116cc0ac5e58e5d015da1c48e26b2dffffc19a41988d39a0bd0982527f2925ab0a703a7d9d312dd3308516826150cddf40b686b780bd96dbf80bcaacf66020830152604082019081526107cf196040836060816007855a01fa156105845760409260066080939284938451905260a05160608401525a01fa1561058457565b604051907f0cf6dd33ff8120b8f7517bea7b57dfce79a6a1d71feed9f21536ba3822dc69c182527f269e6f6c0809386d952cc9f33cbfd190880f6fe33543a3c5fd84ee984851c8896020830152604082019081526107cf196040836060816007855a01fa156105845760409260066080939284938451905260a05160608401525a01fa1561058457565b604051907f265c85b60a9604c4dcc2072965f05664916fed6be659d6d56e583235b502449e82527f236d8d635fc4156e1694d68c3732bde45e2e1ebada0482b7e8e0379f7a5561666020830152604082019081526107cf196040836060816007855a01fa156105845760409260066080939284938451905260a05160608401525a01fa1561058457565b604051907f11a6e02b13fe13e1f0c3d5a114097ca64d1a679e64065a57400160e9895711c182527f1df7d14e7b0ad0f3051f990497800504ffeb4cf6c02bf4c0481096653ed364b06020830152604082019081526107cf196040836060816007855a01fa156105845760409260066080939284938451905260a05160608401525a01fa1561058457565b604051907f0e43da422fe28677edfcb7f3fef54e2b8d9ac2a969cf8b37dd1a9fd5ebaeb8fb82527f2345705fb56335a98b578bc042d14858141e7f1c87df4f57e8f096af2a67050a6020830152604082019081526107cf196040836060816007855a01fa156105845760409260066080939284938451905260a05160608401525a01fa1561058457565b604051907f2c5499cd43b851fc949ed6dbb8881dcc6c9d3f8e57dc9d982f676232566ea8bf82527f17765199dce25a6da2ad3048a652716312337cec5cc736a1d9c297a3c8c2314d6020830152604082019081526107cf196040836060816007855a01fa156105845760409260066080939284938451905260a05160608401525a01fa1561058457565b604051907f1ba1fa06556077540b3fe42a46aa1b1fe7d893275920558d47b0882d9e6e1ec782527f096af433656badb7204193c753521187b3e65977d2e137540d478e8764e009786020830152604082019081526107cf196040836060816007855a01fa156105845760409260066080939284938451905260a05160608401525a01fa1561058457565b604051907f0fb7a7094fc98021bf22e4a951a1869c8c124daf368c03337eeb111ffdf8f8dd82527f2ed32947930a5c19ab6e08b59f056b1eb2b541902dba8f147492022f637899d46020830152604082019081526107cf196040836060816007855a01fa156105845760409260066080939284938451905260a05160608401525a01fa1561058457565b604051907f186c53f51530130e07b28c36de2f1a79292212b4f6f739f3e047022ea0f4f8c382527f2eda7ebde3bcd8aede578b29382c1c94165a634b46aceb93a8b5ae1dc7c111986020830152604082019081526107cf196040836060816007855a01fa156105845760409260066080939284938451905260a05160608401525a01fa1561058457565b604051907e0604e2bd45a9fe3039658f7c007edbf0b5e9f9ce67c4dbd6facf46dbdf959882527f14479be8835959d2bd59fcd14d7c916e2b7a999ee567a22374b47b8d2926e3756020830152604082019081526107cf196040836060816007855a01fa156105845760409260066080939284938451905260a05160608401525a01fa1561058457565b604051907f1f7d4b9ebe71b17e50cef500c47c894b3d14b1293970665ac50e5d8b4967003982527f1d96a2917a562ad0e8d43c293ec4d42b72095e95e5cd0e4e212aed9f6453cd206020830152604082019081526107cf196040836060816007855a01fa156105845760409260066080939284938451905260a05160608401525a01fa1561058457565b604051907f282b6ec673e1bf146ec43df37e7a68ba45316337bd7061dea25480f1812d37cb82527f17438aa7e01270622ea9b2d648cc520d3216630643634c9805edfb716cc5d3d76020830152604082019081526107cf196040836060816007855a01fa156105845760409260066080939284938451905260a05160608401525a01fa1561058457565b604051907f2d5b5b0d64257cd7abd8ceb6202188151508040ade0309310e7fcf819dac7bb482527f2cd3691970f62676d3eff1840abdcdf20183e19d13af3ef3a66b755acdc9e2d56020830152604082019081526107cf196040836060816007855a01fa156105845760409260066080939284938451905260a05160608401525a01fa1561058457565b604051907f29997db5183246f329c1659c0c21031eba7a1c40ccfb721f3f601f5b9864e19682527f240fdcf3ccb6e51d2fa65efc43951920616a58230e2f206e0a7e3c4f3f10839a6020830152604082019081526107cf196040836060816007855a01fa156105845760409260066080939284938451905260a05160608401525a01fa1561058457565b604051907f2d384518685bf302cd69422a72f3f89fe4d7391c4fe162434548edf72af1b97682527f1c39ec4f6b6a4ae3dc63d4bb36150e385036b87435957f58e9a69e07747277686020830152604082019081526107cf196040836060816007855a01fa156105845760409260066080939284938451905260a05160608401525a01fa1561058457565b604051907f2442127e025f874c95763d2c52bbba860f9170674fa7360a117c26b829ab579c82527f29b628cbb8f8e735b2b57b24c9ec894a9cffaf7897f8b49e0c54e1f4bc07031f6020830152604082019081526107cf196040836060816007855a01fa156105845760409260066080939284938451905260a05160608401525a01fa1561058457565b604051907f05e79517c132b1fb24f5b72ef84f9d37cb0610707c744e4ebfa71e6b65bedd7482527f17d797efea3d58aa752af94c6a84531b6b29da263540a833d5b4e2825ffdcc616020830152604082019081526107cf196040836060816007855a01fa156105845760409260066080939284938451905260a05160608401525a01fa1561058457565b604051907f2f4d52d4d3a5b01fe56c9cc41017c5e93bb429e5e9517252c7fd6299403f62ec82527f26549119e52f89bebd532bb89ed502458820c6df4b94289d5d2cd5a23599ba686020830152604082019081526107cf196040836060816007855a01fa156105845760409260066080939284938451905260a05160608401525a01fa1561058457565b604051907f1cc6365f1fb28fa2d5c32991cd174e7719d7f5895bdc61d1676188ad9c0da16f82527f07b14130b27084b8cdce5edc25172be654064b74455f43ba2cb327dc8da4d3496020830152604082019081526107cf196040836060816007855a01fa156105845760409260066080939284938451905260a05160608401525a01fa1561058457565b604051907f166d49b4f5ec89159f8de7b21d899b721163b9a97e8acf6123e0054539ece78e82527f0d5d4c4356cedd5cc064be1bcdd74f63cdcbc00d01643b4544d3c7bc7598f0ed6020830152604082019081526107cf196040836060816007855a01fa156105845760409260066080939284938451905260a05160608401525a01fa1561058457565b604051907f1dad4fe145a22625ece89a137f173cceb6fada073d948b01532fc0f69e9b585082527f2bda5f27f5af321af1b8d34675bb8c85ab324cca10db6167e9245239051a0a456020830152604082019081526107cf196040836060816007855a01fa156105845760409260066080939284938451905260a05160608401525a01fa1561058457565b604051907f1e3eee967cba99f70dce56804527a1bb1ef47936240868e3c26cb60f458771be82527f087b87f2938714ef0fe7816a69f27d985874d274531a317803fcdfb80d223ab46020830152604082019081526107cf196040836060816007855a01fa156105845760409260066080939284938451905260a05160608401525a01fa1561058457565b604051907f1130755d4177b7254057b588be74fd4585842ec8e2142882de1751a85a064c7e82527f28582ee1dd68464a4405d2d18af29a430769bbd9553869ce557278dcac0532996020830152604082019081526107cf196040836060816007855a01fa156105845760409260066080939284938451905260a05160608401525a01fa1561058457565b604051907f1f66580fce5ab426caf8f3099dfddaf1046383468b924f3f22337129f20cadde82527f2f6e4c33a853d94f45009394047b698cf27193c789caafac982c8c4baadb0ce26020830152604082019081526107cf196040836060816007855a01fa156105845760409260066080939284938451905260a05160608401525a01fa1561058457565b604051907f1ca6f7dc8e43f0929ec91fc80327b1f649359f60f21db2bd1c28b5feb045163582527f089bf2e314df307e0b50f0571a02b82cfcdb1358aabbcb45ec5574500e6caa816020830152604082019081526107cf196040836060816007855a01fa156105845760409260066080939284938451905260a05160608401525a01fa1561058457565b604051907f16dab85655dbfb1887bceb28dd814c4191c622e882988dc349c8bba669eba7ec82527f14fd3eac4f623398de858fc2db3d47135b54f866c0c93f261d2410df4cbde6c96020830152604082019081526107cf196040836060816007855a01fa156105845760409260066080939284938451905260a05160608401525a01fa1561058457565b604051907f06a0ee88279340f823ab7217d2ba928587697a686d2e964d8ad0a5fbf3d3ae0b82527f08d0082206eeff83fa6016d8f50ca5a468ac067f67a6cb708162a6618d3e58266020830152604082019081526107cf196040836060816007855a01fa156105845760409260066080939284938451905260a05160608401525a01fa1561058457565b604051907f12f5e466ce2fef3a8d628d3faeb6ac16f018a1909d4233980a7d49f18ebaf60c82527f04fc7754a93eb54a48d656f1a91974afa770821bb6c0f5db67f02205081657476020830152604082019081526107cf196040836060816007855a01fa156105845760409260066080939284938451905260a05160608401525a01fa1561058457565b604051907f04f0fd062b5bae3c6ff554a1074c02c0c4559d96a7684b74302ef1fed41819d982527f24854fce796bfe4c4b755288fa5f562739465c41151ee7b2a765b032720af6546020830152604082019081526107cf196040836060816007855a01fa156105845760409260066080939284938451905260a05160608401525a01fa1561058457565b604051907f1bb03eeaff4968e0285e11368b85712895366fe3c52320afed7accb324c6163282527eafb00264c7d54f8012f197d144f3c515469c6c5956f01b606fc9b24385579e6020830152604082019081526107cf196040836060816007855a01fa156105845760409260066080939284938451905260a05160608401525a01fa1561058457565b604051907f179c2c64549cba896d61e02b1ccbdbdd58fc4e3a1890beb3980555a7e526647382527f09c0c4846f81f1aff0adf9eaeb630b67c9169a0d29cbbe352b5d49b595bece176020830152604082019081526107cf196040836060816007855a01fa156105845760409260066080939284938451905260a05160608401525a01fa1561058457565b604051907f1157300484a0536e5716794f4c8c74c7138119974c98d8cc1850c1cbbe3dee8a82527f25497091b83ae863c3209161932e4778a16d513a5f0efb6d7c236d9d76590afc6020830152604082019081526107cf196040836060816007855a01fa156105845760409260066080939284938451905260a05160608401525a01fa1561058457565b604051907f21338bb133d9978d2177af3e4b44e21282497783a276a5063d07ea02f943fc8782527f2483fa7e264527c46138729c94f7f7f6ccfb1793e9fd828791fdca86a336346f6020830152604082019081526107cf196040836060816007855a01fa156105845760409260066080939284938451905260a05160608401525a01fa1561058457565b604051907f0681bb927820697aab29bdea4df04a962ca5a98e0fe413b2b443c2511f66ef0582527f204c6acc01ee4bd8a83658ec148e585a5f707f4ae4c873e1be63be92c1da682f6020830152604082019081526107cf196040836060816007855a01fa156105845760409260066080939284938451905260a05160608401525a01fa1561058457565b604051907f04c881fdae10ea6447d5768722ecd6a069b9da5b4cb67250a026f75c90ee582382527f140889a753d982ce9001d6126c4a78041fc713cf6a9f98228920748c4fb065dc6020830152604082019081526107cf196040836060816007855a01fa156105845760409260066080939284938451905260a05160608401525a01fa1561058457565b604051907f01a9f6da54d0925f743cf2f7f18e3b4646cf58b00b9b6cb4479abcb8cd1dfeac82527f0e9dffc38776f17ecc573eaf117835019e02a09e4e3f0e62dfe3445131ddb8dd6020830152604082019081526107cf196040836060816007855a01fa156105845760409260066080939284938451905260a05160608401525a01fa1561058457565b604051907f240f78114babd4bab257e34556a561b7f4d5791c7e43d14dc68d783b6fce7ea782527f0b51cebf1257667dab98848306307f0ac90dfac95605796eafb370f067db4a1a6020830152604082019081526107cf196040836060816007855a01fa156105845760409260066080939284938451905260a05160608401525a01fa1561058457565b604051907ef2639fa57c531767579ea0dd61cb11f75cbfb4a426e10da5267c4ff0f36f1582527f0a8ae7e151112fc68585c28771c9b29e28ceaef63e0bdb8cc8c1f541aa7d8b4c6020830152604082019081526107cf196040836060816007855a01fa156105845760409260066080939284938451905260a05160608401525a01fa1561058457565b604051907f01b4ec7bd5e269c29ed9358b59d242dcdcf045e630a6637d1c28e5c2be0b4c4f82527f0702ebec77a2b505746ab44902e1d8945f705a5a133d716f36e64fe9b834dec06020830152604082019081526107cf196040836060816007855a01fa156105845760409260066080939284938451905260a05160608401525a01fa1561058457565b604051907f0dbcd720fa27fb8aeed51f3bd0eb3c2de803897f591cf7147180625f79ba8d7f82527f14e134a1c38df43b856c2e3e29b2ac897ba4a9fd137b5807e31a3dec05dcd0916020830152604082019081526107cf196040836060816007855a01fa156105845760409260066080939284938451905260a05160608401525a01fa1561058457565b604051907f2b37dfa4c9b4458e433a6d7ea17056b021c5b2bc88cd4b66774b869739d706cb82527f2b4727cf202e2a0ce1c02893b0020578757cac8cf816e14980aaef2a32ab00386020830152604082019081526107cf196040836060816007855a01fa156105845760409260066080939284938451905260a05160608401525a01fa1561058457565b604051907f16b4c56f20ef3c930f761b1c618b27bb0d70abc913d3b5e728382bb91265b41782527f0f03cb5cd06075d9e67f2f5acbe8d3cba8bfdb99c3f198219cf209c4355b7a7a6020830152604082019081526107cf196040836060816007855a01fa156105845760409260066080939284938451905260a05160608401525a01fa1561058457565b604051907f11b23a558e717d507c672f1274e6b710b99e016b58e6416bf1811d94db89acd782527f2509bba9eaa93d9ce1338566423b5de549a5cf844777d099f4492c00e35ae4166020830152604082019081526107cf196040836060816007855a01fa156105845760409260066080939284938451905260a05160608401525a01fa1561058457565b604051907f0d96ac0ebb012369e363cbc97289253cbc6d9f527fd946ebbfc2cc33b47fba6782527f17600aed6c3776998b1de660cfa2be931dff8bd952d2909f6b70661a8b77ea4c6020830152604082019081526107cf196040836060816007855a01fa156105845760409260066080939284938451905260a05160608401525a01fa1561058457565b604051907f1256676ac9af241119cdae629f1b9804d6ed4dcb29d95a3f4a55ed42aaa4e46282527f0a67a631821837a58b69c0524ee030803ea644abee66c5d8cd103d8ebf359e4c6020830152604082019081526107cf196040836060816007855a01fa156105845760409260066080939284938451905260a05160608401525a01fa1561058457565b604051907f04b53c1b14d48292605a4c1d18182cecdb69a0840d48e2cac0a5123d1dd5487c82527f1ff8560b0985cb861d7560f99ed02595d89ddf63396980040227cfbcb7b024fa6020830152604082019081526107cf196040836060816007855a01fa156105845760409260066080939284938451905260a05160608401525a01fa1561058457565b604051907f2c29f339daa2cbe6367dd26cb47678d6feb69046d9c90d6784f1dd753fbc1cbf82527f074d0ae83a73eca245cc6dfdf4b63b3929be93d5f00f5e8b051e057cae4b6c656020830152604082019081526107cf196040836060816007855a01fa156105845760409260066080939284938451905260a05160608401525a01fa1561058457565b604051907f1417e51e769a4d47abdded3ee46fee9fbb64509b0e56304f8e6a6337052ea17682527f264b951c4a731a2c1254bcf8945cf324567621c59922199b680c8056b7d4784f6020830152604082019081526107cf196040836060816007855a01fa156105845760409260066080939284938451905260a05160608401525a01fa1561058457565b604051907f22e5d59d42e588ec51e73f9b3a1bfe065bc184d2b7f6249e31364e9882646a4682527f03f3edc1dda3e4606308c99a151c82d4ab1199b6f03838a3891d1289d984a7a46020830152604082019081526107cf196040836060816007855a01fa156105845760409260066080939284938451905260a05160608401525a01fa1561058457565b604051907f24b8fdae36b7b301a5a48a751d638ec63205ad9db1a595430c45797334df04d182527f0f08986bfed1faa46dcce409f6e3eace8c2b82e6a7410cd22b3177aa43c6f83c6020830152604082019081526107cf196040836060816007855a01fa156105845760409260066080939284938451905260a05160608401525a01fa1561058457565b604051907f0fa45cdc5b0ead251a1d816acc4d20cddea05697931cb8950833aa35267ff01582527f19b9495376a9eac47b185f483e831dd5768e94ff1eaf64a7fbd98474c8e4959e6020830152604082019081526107cf196040836060816007855a01fa156105845760409260066080939284938451905260a05160608401525a01fa1561058457565b604051907f12d6ef2744730b83782c43ea2a62dd31f5bf6ee50f5f18b592fb84a8198df70f82527f01e58660ba75989b1b74176084aaff666814d9bde4d1758a698f1ef7eab97dc16020830152604082019081526107cf196040836060816007855a01fa156105845760409260066080939284938451905260a05160608401525a01fa1561058457565b604051907f10243b735ed70f0c44a6ae6a2ee1f4c647890445b22b4d30f405a81f2048714c82527f0c598fd9ccaa8305518eb95f99c65e2e766e058ff7880f614fc4e559cda5ff956020830152604082019081526107cf196040836060816007855a01fa156105845760409260066080939284938451905260a05160608401525a01fa1561058457565b604051907f2fcf92f1d73c2b272168f3bf0bbd2266a8f44713ec89330c4911536bd3be5adf82527f2cce8ae12b1cd69f691df5161502dc973ccde71fa5a013b4ca63c94bb23eb2f76020830152604082019081526107cf196040836060816007855a01fa156105845760409260066080939284938451905260a05160608401525a01fa1561058457565b604051907f134ad72ca26fd3d0265ca64ec02be8278a3b43dad8aa71f3b0c052a36640f83782527f1c850917d6cdf22ed5ab49fdad496075ca75fc4bd44087b263df8c1cc1a9d6656020830152604082019081526107cf196040836060816007855a01fa156105845760409260066080939284938451905260a05160608401525a01fa1561058457565b604051907f1b20a8013326473483e89ac369308970ea85c8e3930f0ed6943ae82359468f4282527f28a3b7f4a2794c6d1ca7327f7402962a05e83abee55b774b664e1fbba0cc22c06020830152604082019081526107cf196040836060816007855a01fa156105845760409260066080939284938451905260a05160608401525a01fa1561058457565b604051907f11d18bbc94ddb39bcc22b852d2e3b00873075df4b779bff8e0adf19818cd35f982527f206f21ecb655ebf4c01771eb418c4d5ce5a8a852aba45493d556ad501da08b736020830152604082019081526107cf196040836060816007855a01fa156105845760409260066080939284938451905260a05160608401525a01fa1561058457565b604051907f2929537c220ad7dc512af9326c894a45639f558453c10cd6613c02beeddc2fe182527f0b58914cb026971ae60874802a5cbeebeb38e488ae1d7e1d32824235f32762dd6020830152604082019081526107cf196040836060816007855a01fa156105845760409260066080939284938451905260a05160608401525a01fa1561058457565b604051907f0248147662ba2c73d0ee10ad4a168bc605db46eede7109ca1345a0c8bcd367da82527f26bcbf2d73f3e534d555832adec31127ffac49eac8f113bb4adeea65b230c1c36020830152604082019081526107cf196040836060816007855a01fa156105845760409260066080939284938451905260a05160608401525a01fa1561058457565b604051907f293a76cacb140d9fe5012fddd42464e8f70ba83b4d4c3bff82e683975836716682527f0779dee98ddde35ccf3ab479ad5545f9d7f828e28cc7ff7e203561daa6d37c096020830152604082019081526107cf196040836060816007855a01fa156105845760409260066080939284938451905260a05160608401525a01fa1561058457565b604051907f1fab7a4235a9dc83734a73c2a73c4603596e1bb696531ed68589374854a31fac82527f14ccf5424e63dbd7fb95ed7289a31825f7326b43f52a38cba96e778a88fa54aa6020830152604082019081526107cf196040836060816007855a01fa156105845760409260066080939284938451905260a05160608401525a01fa1561058457565b604051907f1ac71422e97711145729948fe4751f4667d743b9844c63572172a1e0ac82a71482527f225d50e62fd50540857083d360a8f94962b08fea00d377ecce50edccfe19ec196020830152604082019081526107cf196040836060816007855a01fa156105845760409260066080939284938451905260a05160608401525a01fa1561058457565b604051907f03b1e9d2b156def805123a616d07fa9feff36e865f035dd74b06e591d4b9b81782527f18c8f5220ea7024dbb2eb9b702e803c4690596308a51e56c8987983e8014935c6020830152604082019081526107cf196040836060816007855a01fa156105845760409260066080939284938451905260a05160608401525a01fa1561058457565b604051907f17d9d9a58932f8c13494edb81436ceaf0fc43b623a5395025104d3086f5da19482527f2352df75262d525819235566b081bb490233f23c80dc766aea018cc85bb509506020830152604082019081526107cf196040836060816007855a01fa156105845760409260066080939284938451905260a05160608401525a01fa1561058457565b6020907f01773a2f99efcc67eb89baa4f76ca03f4d54b8ae1cf2676320600bc6f6cd76f96080527f083484d8c4dcddcea952cdf0fe2517c2e65c2b5fefb94ae3b99b256a46483f2f60a052613bc86101043561058e565b613bd461012435610618565b613be0610144356106a2565b613bec6101643561072c565b613bf8610184356107b6565b613c046101a435610840565b613c106101c4356108ca565b613c1c6101e435610954565b613c28610204356109de565b613c3461022435610a68565b613c4061024435610af2565b613c4c61026435610b7c565b613c5861028435610c06565b613c646102a435610c90565b613c706102c435610d1a565b613c7c6102e435610da4565b613c8861030435610e2e565b613c9461032435610eb8565b613ca061034435610f42565b613cac61036435610fcc565b613cb861038435611055565b613cc46103a4356110df565b613cd06103c435611169565b613cdc6103e4356111f3565b613ce86104043561127d565b613cf461042435611307565b613d0061044435611391565b613d0c6104643561141b565b613d18610484356114a5565b613d246104a43561152f565b613d306104c4356115b8565b613d3c6104e435611642565b613d48610504356116cc565b613d5461052435611756565b613d60610544356117e0565b613d6c6105643561186a565b613d78610584356118f4565b613d846105a43561197e565b613d906105c435611a08565b613d9c6105e435611a92565b613da861060435611b1c565b613db461062435611ba6565b613dc061064435611c30565b613dcc61066435611cba565b613dd861068435611d44565b613de46106a435611dce565b613df06106c435611e57565b613dfc6106e435611ee1565b613e0861070435611f6b565b613e1461072435611ff5565b613e206107443561207f565b613e2c61076435612109565b613e3861078435612193565b613e446107a43561221d565b613e506107c4356122a7565b613e5c6107e435612331565b613e68610804356123bb565b613e7461082435612445565b613e80610844356124cf565b613e8c61086435612559565b613e98610884356125e3565b613ea46108a43561266d565b613eb06108c4356126f7565b613ebc6108e435612781565b613ec86109043561280b565b613ed461092435612895565b613ee06109443561291e565b613eec610964356129a8565b613ef861098435612a32565b613f046109a435612abc565b613f106109c435612b46565b613f1c6109e435612bd0565b613f28610a0435612c5a565b613f34610a2435612ce4565b613f40610a4435612d6d565b613f4c610a6435612df7565b613f58610a8435612e81565b613f64610aa435612f0b565b613f70610ac435612f95565b613f7c610ae43561301f565b613f88610b04356130a9565b613f94610b2435613133565b613fa0610b44356131bd565b613fac610b6435613247565b613fb8610b84356132d1565b613fc4610ba43561335b565b613fd0610bc4356133e5565b613fdc610be43561346f565b613fe8610c04356134f9565b613ff4610c2435613583565b614000610c443561360d565b61400c610c6435613697565b614018610c8435613721565b614024610ca4356137ab565b614030610cc435613835565b61403c610ce4356138bf565b614048610d0435613949565b614054610d24356139d3565b614060610d4435613a5d565b61406c610d6435613ae7565b61010092818492358352837f30644e72e131a029b85045b68181585d97816a916871ca8d3c208c16d87cfd479101358103066101205260443561014052606435610160526084356101805260a4356101a0527f2d4d9aa7e302d9df41749d5507949d05dbea33fbb16c643b22f599a2be6df2e26101c0527f14bedd503c37ceb061d8ec60209fe345ce89830a19230301f076caff004d19266101e0527f0967032fcbf776d1afc985f88877f182d38480a653f2decaa9794cbc3bf3060c610200527f0e187847ad4c798374d0d6732bf501847dd68bc0e071241e0213bc7fc13db7ab610220527f304cfbd1e08a704a99f5e847d93f8c3caafddec46b7a0d379da69a4d112346a7610240527f1739c1b1a457a8c7313123d24d2f9192f896b7c63eea05a9d57f06547ad0cec8610260526080516102805260a0516102a0527f198e9393920d483a7260bfb731fb5d25f1aa493335a9e71297e485b7aef312c26102c0527f1800deef121f1e76426a00665e5c4479674322d4f75edadd46debd5cd992f6ed6102e05282610300917f090689d0585ff075ec9e99ad690c3395bc4b313370b38ef355acdadcd122975b83527f12c85ea5db8c6deb4aab71808dcb408fe3d1e7690c43d37b4ce6cc0166fa7daa610320528035610340520135610360527f295a0475df10ee34ae412dfb5ac9bc3a48b6cccd5e623863a057d20f4941d680610380527f26c7381374a04e49f0c5e6fe6423fe32797c1c2e02b0a0a38ad5aed960e92f416103a0527f2fd908d60545c8184e022b7130dc699e52560a3d856152e6a2ebf25ec6b903de6103c0527f06a989eebafe490b8dc98ac14d4671d36bf081adb17079f71a829efbd9e838a26103e0528160086107cf195a01fa9051169056fea2646970667358221220e344709b847ea4eabca011986f5fa400b84e41a7424dda1eba5cd89c3a06b6cd64736f6c634300080f0033",
  "linkReferences": {},
  "deployedLinkReferences": {}
}