{
  "_format": "hh-sol-artifact-1",
  "contractName": "Solver",
  "sourceName": "contracts/Solver.sol",
  "abi": [
    {
      "inputs": [
        {
          "internalType": "address payable",
          "name": "problems_",
          "type": "address"
        },
        {
          "internalType": "address",
          "name": "tocks_",
          "type": "address"
        }
      ],
      "stateMutability": "nonpayable",
      "type": "constructor"
    },
    {
      "anonymous": false,
      "inputs": [
        {
          "indexed": true,
          "internalType": "address",
          "name": "previousOwner",
          "type": "address"
        },
        {
          "indexed": true,
          "internalType": "address",
          "name": "newOwner",
          "type": "address"
        }
      ],
      "name": "OwnershipTransferred",
      "type": "event"
    },
    {
      "anonymous": false,
      "inputs": [
        {
          "indexed": true,
          "internalType": "uint256",
          "name": "problemId",
          "type": "uint256"
        },
        {
          "indexed": true,
          "internalType": "uint256",
          "name": "ticksInThisMatch",
          "type": "uint256"
        },
        {
          "indexed": true,
          "internalType": "uint256",
          "name": "winnings",
          "type": "uint256"
        }
      ],
      "name": "Solved",
      "type": "event"
    },
    {
      "stateMutability": "nonpayable",
      "type": "fallback"
    },
    {
      "inputs": [
        {
          "internalType": "uint256",
          "name": "problemId",
          "type": "uint256"
        },
        {
          "internalType": "uint256",
          "name": "tickCount",
          "type": "uint256"
        },
        {
          "internalType": "uint256[2][]",
          "name": "a",
          "type": "uint256[2][]"
        },
        {
          "internalType": "uint256[2][2][]",
          "name": "b",
          "type": "uint256[2][2][]"
        },
        {
          "internalType": "uint256[2][]",
          "name": "c",
          "type": "uint256[2][]"
        },
        {
          "internalType": "uint256[][]",
          "name": "input",
          "type": "uint256[][]"
        }
      ],
      "name": "batchSolve",
      "outputs": [],
      "stateMutability": "nonpayable",
      "type": "function"
    },
    {
      "inputs": [
        {
          "internalType": "uint256",
          "name": "",
          "type": "uint256"
        }
      ],
      "name": "bodyBoost",
      "outputs": [
        {
          "internalType": "uint256",
          "name": "",
          "type": "uint256"
        }
      ],
      "stateMutability": "view",
      "type": "function"
    },
    {
      "inputs": [],
      "name": "decimals",
      "outputs": [
        {
          "internalType": "uint256",
          "name": "",
          "type": "uint256"
        }
      ],
      "stateMutability": "view",
      "type": "function"
    },
    {
      "inputs": [
        {
          "internalType": "uint256",
          "name": "problemId",
          "type": "uint256"
        }
      ],
      "name": "deleteMatch",
      "outputs": [],
      "stateMutability": "nonpayable",
      "type": "function"
    },
    {
      "inputs": [
        {
          "internalType": "uint256",
          "name": "problemId",
          "type": "uint256"
        }
      ],
      "name": "inProgress",
      "outputs": [
        {
          "internalType": "bool",
          "name": "",
          "type": "bool"
        }
      ],
      "stateMutability": "view",
      "type": "function"
    },
    {
      "inputs": [
        {
          "internalType": "uint256",
          "name": "",
          "type": "uint256"
        }
      ],
      "name": "matches",
      "outputs": [
        {
          "internalType": "bool",
          "name": "inProgress",
          "type": "bool"
        },
        {
          "internalType": "uint256",
          "name": "problemId",
          "type": "uint256"
        },
        {
          "internalType": "uint256",
          "name": "startingTick",
          "type": "uint256"
        }
      ],
      "stateMutability": "view",
      "type": "function"
    },
    {
      "inputs": [],
      "name": "maxTick",
      "outputs": [
        {
          "internalType": "uint256",
          "name": "",
          "type": "uint256"
        }
      ],
      "stateMutability": "view",
      "type": "function"
    },
    {
      "inputs": [],
      "name": "owner",
      "outputs": [
        {
          "internalType": "address",
          "name": "",
          "type": "address"
        }
      ],
      "stateMutability": "view",
      "type": "function"
    },
    {
      "inputs": [],
      "name": "problems",
      "outputs": [
        {
          "internalType": "address payable",
          "name": "",
          "type": "address"
        }
      ],
      "stateMutability": "view",
      "type": "function"
    },
    {
      "inputs": [],
      "name": "renounceOwnership",
      "outputs": [],
      "stateMutability": "nonpayable",
      "type": "function"
    },
    {
      "inputs": [
        {
          "internalType": "uint256",
          "name": "problemId",
          "type": "uint256"
        },
        {
          "internalType": "uint256",
          "name": "tickCount",
          "type": "uint256"
        },
        {
          "internalType": "uint256[2]",
          "name": "a",
          "type": "uint256[2]"
        },
        {
          "internalType": "uint256[2][2]",
          "name": "b",
          "type": "uint256[2][2]"
        },
        {
          "internalType": "uint256[2]",
          "name": "c",
          "type": "uint256[2]"
        },
        {
          "internalType": "uint256[]",
          "name": "input",
          "type": "uint256[]"
        }
      ],
      "name": "solveProblem",
      "outputs": [],
      "stateMutability": "nonpayable",
      "type": "function"
    },
    {
      "inputs": [],
      "name": "tocks",
      "outputs": [
        {
          "internalType": "address",
          "name": "",
          "type": "address"
        }
      ],
      "stateMutability": "view",
      "type": "function"
    },
    {
      "inputs": [
        {
          "internalType": "address",
          "name": "newOwner",
          "type": "address"
        }
      ],
      "name": "transferOwnership",
      "outputs": [],
      "stateMutability": "nonpayable",
      "type": "function"
    },
    {
      "inputs": [
        {
          "internalType": "address payable",
          "name": "problems_",
          "type": "address"
        }
      ],
      "name": "updateProblemsAddress",
      "outputs": [],
      "stateMutability": "nonpayable",
      "type": "function"
    },
    {
      "inputs": [
        {
          "internalType": "address",
          "name": "tocks_",
          "type": "address"
        }
      ],
      "name": "updateTocksAddress",
      "outputs": [],
      "stateMutability": "nonpayable",
      "type": "function"
    }
  ],
  "bytecode": "0x60803462000169576200234f906001600160401b03601f38849003908101601f1916830190828211848310176200016e5780849160409687948552833981010312620001695781516001600160a01b0390818116908190036200016957602080940151938285168095036200016957600080549460018060a01b031995338782161783558851953391167f8be0079c531659141344cd1fd0a4f28419497f9722a3daafe3b4186f6b6457e08488a3610160850190811185821017620001555787929192528184528181850152818785015260019384606082015260026080820152600460a0820152600860c0820152601060e0820152816101008201528761012082015260806101408201529084600393925b600b84106200013d575091505084915054161790556002541617600255516121ca9081620001858239f35b805160ff168555938101939201918590820162000112565b634e487b7160e01b82526041600452602482fd5b600080fd5b634e487b7160e01b600052604160045260246000fdfe604060808152600480361015610053575b3461004e576020606492519162461bcd60e51b835282015260146024820152733737903330b6363130b1b590333ab731ba34b7b760611b6044820152fd5b600080fd5b6000803560e01c8063087c32e6146107d5578063130e5a87146105dd5780631db3b6dd146105c0578063313ce5671461059d5780633e301fd0146105745780634768d4ef146105305780634e26b0cd14610502578063715018a6146104a55780638da5cb5b1461047d5780639512ada21461037d578063952ef7ef14610338578063ab85f1f414610230578063cd190a9214610203578063f2fde38b146101305763f9df988f146101045750610010565b823461012c578160031936011261012c5760015490516001600160a01b039091168152602090f35b5080fd5b509190346101ff5760203660031901126101ff576001600160a01b03813581811692908390036101fb57610162610aa1565b82156101a9575060005492826001600160601b0360a01b8516176000555192167f8be0079c531659141344cd1fd0a4f28419497f9722a3daafe3b4186f6b6457e0600084a3f35b608490602085519162461bcd60e51b8352820152602660248201527f4f776e61626c653a206e6577206f776e657220697320746865207a65726f206160448201526564647265737360d01b6064820152fd5b8480fd5b8280fd5b509190346101ff5760203660031901126101ff5735600b8110156101ff5760209250600301549051908152f35b509190346101ff576101603660031901126101ff57366063121561004e5781519061025a8261085f565b60848236821161004e576044905b8282106103285750503660a3121561004e5783516102858161085f565b806101049236841161004e578690915b84831061030e5750505036610123121561004e578451916102b58361085f565b826101449136831161004e57905b8282106102fe57505035936001600160401b0385116102fa576102ec6102f79536908601610a43565b936024359035610cac565b51f35b8680fd5b81358152602091820191016102c3565b60209061031b3685610992565b8152019101908690610295565b8135815260209182019101610268565b509190346101ff5760203660031901126101ff57356001600160a01b038116908190036101ff57610367610aa1565b6001600160601b0360a01b600254161760025551f35b509190346101ff5760203660031901126101ff5760015482516331a9108f60e11b81528235818401819052926001600160a01b0392831692869290602082602481885afa8015610473576103db928591610445575b50163314610b67565b823b1561012c57602484918387519586948593630825ea8d60e01b85528401525af1801561043857610425575b508252600e60205260006002828420828155826001820155015551f35b6104319093919361081a565b9138610408565b50505051903d90823e3d90fd5b610466915060203d811161046c575b61045e818361095a565b810190610b48565b386103d2565b503d610454565b87513d86823e3d90fd5b50823461012c578160031936011261012c57905490516001600160a01b039091168152602090f35b50823461012c578160031936011261012c576104bf610aa1565b81546001600160a01b03198116835590519082906001600160a01b03167f8be0079c531659141344cd1fd0a4f28419497f9722a3daafe3b4186f6b6457e08284a3f35b509190346101ff5760203660031901126101ff578160209360ff92358152600e855220541690519015158152f35b509190346101ff5760203660031901126101ff576060928291358152600e6020522060ff815416916002600183015492015491815193151584526020840152820152f35b50823461012c578160031936011261012c5760025490516001600160a01b039091168152602090f35b50823461012c578160031936011261012c5760209051670de0b6b3a76400008152f35b50823461012c578160031936011261012c5760209051610bb88152f35b508290346107d25760c03660031901126107d2578235926024918235604435916001600160401b039283811161012c5761061a90369086016109d7565b906064359380851161012c573660238601121561012c57848601359061063f8261097b565b9561064c8a51978861095a565b828752602092898489019160071b830101913683116107ce578a01905b82821061076b575050506084358181116107675761068a90369089016109d7565b9660a435908282116101fb57366023830112156101fb57810135906106ae8261097b565b996106bb8c519b8c61095a565b828b5280858c019360051b830101933685116102fa57818301935b85851061073d5750505050505050805b8651811015610738578061072e8a898989896107278761072081610719818f6107339e61071291610b1e565b5197610b1e565b5196610b1e565b5195610b1e565b5194610cac565b610af9565b6106e6565b508651f35b84358281116107635787916107588392863691890101610a43565b8152019401936106d6565b8880fd5b8380fd5b36601f830112156107ce578b516107818161085f565b608083018136821161076357908792918f86915b8383106107af575050505091608092815201910190610669565b6107bf9591929394953685610992565b81520191018f89949392610795565b8580fd5b80fd5b509190346101ff5760203660031901126101ff57356001600160a01b038116908190036101ff57610804610aa1565b6001600160601b0360a01b600154161760015551f35b6001600160401b03811161082d57604052565b634e487b7160e01b600052604160045260246000fd5b61016081019081106001600160401b0382111761082d57604052565b604081019081106001600160401b0382111761082d57604052565b610c8081019081106001600160401b0382111761082d57604052565b610b4081019081106001600160401b0382111761082d57604052565b610a0081019081106001600160401b0382111761082d57604052565b6108c081019081106001600160401b0382111761082d57604052565b61078081019081106001600160401b0382111761082d57604052565b61064081019081106001600160401b0382111761082d57604052565b61050081019081106001600160401b0382111761082d57604052565b6103c081019081106001600160401b0382111761082d57604052565b90601f801991011681019081106001600160401b0382111761082d57604052565b6001600160401b03811161082d5760051b60200190565b9080601f8301121561004e57604051916109ab8361085f565b82906040810192831161004e57905b8282106109c75750505090565b81358152602091820191016109ba565b81601f8201121561004e578035906109ee8261097b565b926040926109fe8451958661095a565b808552602091828087019260061b8501019381851161004e578301915b848310610a2b5750505050505090565b838691610a388486610992565b815201920191610a1b565b81601f8201121561004e57803591610a5a8361097b565b92610a68604051948561095a565b808452602092838086019260051b82010192831161004e578301905b828210610a92575050505090565b81358152908301908301610a84565b6000546001600160a01b03163303610ab557565b606460405162461bcd60e51b815260206004820152602060248201527f4f776e61626c653a2063616c6c6572206973206e6f7420746865206f776e65726044820152fd5b6000198114610b085760010190565b634e487b7160e01b600052601160045260246000fd5b8051821015610b325760209160051b010190565b634e487b7160e01b600052603260045260246000fd5b9081602091031261004e57516001600160a01b038116810361004e5790565b15610b6e57565b60405162461bcd60e51b815260206004820152600d60248201526c2737ba103a34329037bbb732b960991b6044820152606490fd5b806000190460051181151516610b085760050290565b7f33333333333333333333333333333333333333333333333333333333333333338111600116610b085760050290565b8060001904821181151516610b08570290565b9081602091031261004e5751801515810361004e5790565b6000915b60028310610c2557505050565b600190825181526020809101920192019190610c18565b9060009182915b600280841015610c885782518590835b838310610c7157505050506020604060019201920192019190610c43565b600190825181526020809101920192019190610c53565b5050505050565b81198111610b08570190565b90600a811015610b325760051b0190565b929493909193600154926000956040516331a9108f60e11b815286600482015260208160248160018060a01b038a165afa90811561216a5790610d01918991612175575b506001600160a01b03163314610b67565b6040516375d279b360e11b815260048101879052936080856024816001600160a01b038a165afa98891561216a578895899a61212c575b50610d4286610ba3565b8060001904600211811515166121185760011b8551036120dc576040516343569ffb60e01b81526004810187905260248101859052916020836044816001600160a01b038c165afa92831561146e578a936120bb575b506001600160a01b0383161561208357600387036118565760405191610dbd8361093e565b6103c0809336903760405192610dd28461093e565b3684378a5b601e81106118365750610e07949291610e11610e1b926040519788966301d28c8160e31b88526004880190610c14565b6044860190610c3c565b60c4840190610c14565b8961010483015b601e821061181c57506020936104c492508391506001600160a01b03165afa9081156116865787916117ed575b50156117b1575b848652600e6020526040862096604051978860608101106001600160401b0360608b01111761179d5791610eb49160409360608b018552600260ff825416159182158d528c602060018301549101520154858c015261178f57610c8f565b9601519283871061177b57610bb884880311611742576040516310211ca160e21b81526004810186905290610140826024816001600160a01b0385165afa918215611686578792611691575b506001600160a01b0381163b156102fa576040516304b24e8560e01b815260048101879052602481018990529087908290604490829084906001600160a01b03165af1801561168657611673575b50908291869187610140604051610f6481610843565b8281528260208201528260408201528260608201528260808201528260a08201528260c08201528260e082015282610100820152826101208201520152875b8481106111845750505014610fb9575050505050565b6105dc8286031161117857610fd360ff60025b1682610be9565b90600b8110156111645760030154610fea91610be9565b670de0b6b3a7640000908060001904821181151516610b0857600254910294906001600160a01b0316803b156101fb578480916044604051809481936340c10f1960e01b83523360048401528b60248401525af1801561113157908591611150575b50506001546001600160a01b0316803b156101fb57848091602460405180948193630825ea8d60e01b83528960048401525af180156111315790859161113c575b50506001546001600160a01b0316803b156101fb57848091602460405180948193630674876160e11b83528960048401525af180156111315790859161111d575b5090837f0c4d840a1a0bafcdc673f07982de54d3fb2f2628e86cf3b9116675b01a119702939252600e602052600060026040872082815582600182015501550392604051a43880808080610c88565b6111269061081a565b6107675783386110ce565b6040513d87823e3d90fd5b6111459061081a565b61076757833861108d565b6111599061081a565b61076757833861104c565b634e487b7160e01b85526032600452602485fd5b610fd360ff6001610fcc565b60015493945091929091906001600160a01b03166111a28285610c9b565b51906040519163618faeb560e11b8352896004840152602483015261016082604481845afa91821561146e578a926115bf575b5060608201516111ff6111f96111ea8a610bb9565b6111f387610ba3565b90610c8f565b86610b1e565b51036115855761121761121184610ba3565b85610b1e565b516060830152608082015161123761122e89610bb9565b6111f386610ba3565b60011981116114c757600161124d910186610b1e565b510361154b5761125c83610ba3565b600119811161147d576001611272910185610b1e565b51608083015260a082015161128961122e89610bb9565b60021981116114c757600261129f910186610b1e565b5103611513576112ae83610ba3565b600219811161147d5760026112c4910185610b1e565b5160a083015260c08201516112db61122e89610bb9565b60031981116114c75760036112f1910186610b1e565b51036114db5761130083610ba3565b600319811161147d576003611316910185610b1e565b5160c083015260e082015161132d61122e89610bb9565b60041981116114c7576004611343910186610b1e565b51036114915761135283610ba3565b600419811161147d576004611368910185610b1e565b5160e08301526113788386610c9b565b51813b15611479578a906101a48b8360405195869485936334d70fe560e21b855260048501526024840152875160448401526020880151606484015260408801516084840152606088015160a4840152608088015160c484015260a088015160e484015260c088015161010484015260e08801516101248401526101008801516101448401526101208801516101648401526101408801516101848401525af1801561146e57908a9161145a575b505060e0015115611445575b61143b90610af9565b9084939291610fa3565b9261145261143b91610af9565b939050611432565b6114639061081a565b610763578838611426565b6040513d8c823e3d90fd5b8a80fd5b634e487b7160e01b8b52601160045260248bfd5b60405162461bcd60e51b815260206004820152600e60248201526d496e76616c69642072616469757360901b6044820152606490fd5b634e487b7160e01b8c52601160045260248cfd5b60405162461bcd60e51b815260206004820152601060248201526f496e76616c696420766563746f72207960801b6044820152606490fd5b60405162461bcd60e51b815260206004820152601060248201526f092dcecc2d8d2c840eccac6e8dee440f60831b6044820152606490fd5b60405162461bcd60e51b8152602060048201526012602482015271496e76616c696420706f736974696f6e207960701b6044820152606490fd5b60405162461bcd60e51b8152602060048201526012602482015271092dcecc2d8d2c840e0dee6d2e8d2dedc40f60731b6044820152606490fd5b909150610160813d6101601161166b575b816115de610160938361095a565b8101031261166757610140604051916115f683610843565b805183526020810151602084015260408101516040840152606081015160608401526080810151608084015260a081015160a084015260c081015160c084015260e081015160e0840152610100810151610100840152610120810151610120840152015161014082015290386111d5565b8980fd5b3d91506115d0565b61167f9096919661081a565b9438610f4e565b6040513d89823e3d90fd5b909150610140903d6101401161173a575b6116ac828261095a565b61014081838101031261173657818101601f820112156117365760405191826101408101106001600160401b0361014085011117611722576101408301604052829082016101408301116107635781905b61014083018210611712575050509038610f00565b81518152602091820191016116fd565b634e487b7160e01b89526041600452602489fd5b8780fd5b3d91506116a2565b60405162461bcd60e51b815260206004820152601160248201527013585e081d1a58dac8195e18d959591959607a1b6044820152606490fd5b634e487b7160e01b86526011600452602486fd5b60018a5280848b0152610c8f565b634e487b7160e01b88526041600452602488fd5b60405162461bcd60e51b815260206004820152601460248201527324b73b30b634b21019903137b23c90383937b7b360611b6044820152606490fd5b61180f915060203d602011611815575b611807818361095a565b810190610bfc565b38610e4f565b503d6117fd565b829350602080916001939451815201930191018492610e22565b80611844611851928a610b1e565b518160051b860152610af9565b610dd7565b6004870361197d576040519161186b83610922565b61050080933690376040519261188084610922565b3684378a5b6028811061196a5750610e07949291610e116118b5926040519788966319da330f60e01b88526004880190610c14565b8961010483015b60288210611950575060209361060492508391506001600160a01b03165afa908115611686578791611931575b50156118f5575b610e56565b60405162461bcd60e51b815260206004820152601460248201527324b73b30b634b2101a103137b23c90383937b7b360611b6044820152606490fd5b61194a915060203d60201161181557611807818361095a565b386118e9565b8293506020809160019394518152019301910184926118bc565b80611844611978928a610b1e565b611885565b60058703611a9d576040519161199283610906565b6106408093369037604051926119a784610906565b3684378a5b60328110611a8a5750610e07949291610e116119dc9260405197889663a63bed3760e01b88526004880190610c14565b8961010483015b60328210611a70575060209361074492508391506001600160a01b03165afa908115611686578791611a51575b50610e565760405162461bcd60e51b815260206004820152601460248201527324b73b30b634b2101a903137b23c90383937b7b360611b6044820152606490fd5b611a6a915060203d60201161181557611807818361095a565b38611a10565b8293506020809160019394518152019301910184926119e3565b80611844611a98928a610b1e565b6119ac565b60068703611bbd5760405191611ab2836108ea565b610780809336903760405192611ac7846108ea565b3684378a5b603c8110611baa5750610e07949291610e11611afc9260405197889663a54a2bcf60e01b88526004880190610c14565b8961010483015b603c8210611b90575060209361088492508391506001600160a01b03165afa908115611686578791611b71575b50610e565760405162461bcd60e51b815260206004820152601460248201527324b73b30b634b2101b103137b23c90383937b7b360611b6044820152606490fd5b611b8a915060203d60201161181557611807818361095a565b38611b30565b829350602080916001939451815201930191018492611b03565b80611844611bb8928a610b1e565b611acc565b60078703611cdd5760405191611bd2836108ce565b6108c0809336903760405192611be7846108ce565b3684378a5b60468110611cca5750610e07949291610e11611c1c92604051978896632cb278a960e11b88526004880190610c14565b8961010483015b60468210611cb057506020936109c492508391506001600160a01b03165afa908115611686578791611c91575b50610e565760405162461bcd60e51b815260206004820152601460248201527324b73b30b634b2101b903137b23c90383937b7b360611b6044820152606490fd5b611caa915060203d60201161181557611807818361095a565b38611c50565b829350602080916001939451815201930191018492611c23565b80611844611cd8928a610b1e565b611bec565b60088703611dfd5760405191611cf2836108b2565b610a00809336903760405192611d07846108b2565b3684378a5b60508110611dea5750610e07949291610e11611d3c926040519788966361fd13f960e11b88526004880190610c14565b8961010483015b60508210611dd05750602093610b0492508391506001600160a01b03165afa908115611686578791611db1575b50610e565760405162461bcd60e51b815260206004820152601460248201527324b73b30b634b2101c103137b23c90383937b7b360611b6044820152606490fd5b611dca915060203d60201161181557611807818361095a565b38611d70565b829350602080916001939451815201930191018492611d43565b80611844611df8928a610b1e565b611d0c565b60098703611f1d5760405191611e1283610896565b610b40809336903760405192611e2784610896565b3684378a5b605a8110611f0a5750610e07949291610e11611e5c92604051978896634456e8b360e01b88526004880190610c14565b8961010483015b605a8210611ef05750602093610c4492508391506001600160a01b03165afa908115611686578791611ed1575b506118f05760405162461bcd60e51b815260206004820152601460248201527324b73b30b634b2101c903137b23c90383937b7b360611b6044820152606490fd5b611eea915060203d60201161181557611807818361095a565b38611e90565b829350602080916001939451815201930191018492611e63565b80611844611f18928a610b1e565b611e2c565b600a870361203e5760405191611f328361087a565b610c80809336903760405192611f478461087a565b3684378a5b6064811061202b5750610e07949291610e11611f7c9260405197889663170ac5a560e11b88526004880190610c14565b8961010483015b606482106120115750602093610d8492508391506001600160a01b03165afa908115611686578791611ff2575b506118f05760405162461bcd60e51b815260206004820152601560248201527424b73b30b634b2101898103137b23c90383937b7b360591b6044820152606490fd5b61200b915060203d60201161181557611807818361095a565b38611fb0565b829350602080916001939451815201930191018492611f83565b80611844612039928a610b1e565b611f4c565b60405162461bcd60e51b815260206004820152601860248201527f496e76616c6964206e756d626572206f6620626f6469657300000000000000006044820152606490fd5b60405162461bcd60e51b815260206004820152601060248201526f24b73b30b634b2103b32b934b334b2b960811b6044820152606490fd5b6120d591935060203d60201161046c5761045e818361095a565b9138610d98565b60405162461bcd60e51b8152602060048201526014602482015273092dcecc2d8d2c840d2dce0eae840d8cadccee8d60631b6044820152606490fd5b634e487b7160e01b8a52601160045260248afd5b955098506080853d608011612162575b816121496080938361095a565b8101031261173657606060208601519501519838610d38565b3d915061213c565b6040513d8a823e3d90fd5b61218e915060203d60201161046c5761045e818361095a565b38610cf056fea264697066735822122071587c44a5db192af5c15a031a7a124dd95f2a31a5a943434911b91d3bd9eb7264736f6c634300080f0033",
  "linkReferences": {},
  "deployedLinkReferences": {}
}