{
  "_format": "hh-sol-artifact-1",
  "contractName": "Groth16Verifier",
  "sourceName": "contracts/Game_2_750Verifier.sol",
  "abi": [
    {
      "inputs": [
        {
          "internalType": "uint256[2]",
          "name": "_pA",
          "type": "uint256[2]"
        },
        {
          "internalType": "uint256[2][2]",
          "name": "_pB",
          "type": "uint256[2][2]"
        },
        {
          "internalType": "uint256[2]",
          "name": "_pC",
          "type": "uint256[2]"
        },
        {
          "internalType": "uint256[21]",
          "name": "_pubSignals",
          "type": "uint256[21]"
        }
      ],
      "name": "verifyProof",
      "outputs": [
        {
          "internalType": "bool",
          "name": "",
          "type": "bool"
        }
      ],
      "stateMutability": "view",
      "type": "function"
    }
  ],
  "bytecode": "0x608080604052346100165761112c908161001c8239f35b600080fdfe6080604052600436101561001257600080fd5b6000803560e01c635debc07e1461002857600080fd5b34610184576103a03660031901126101845761004336610187565b3660c4116101805761005436610199565b906103a436811161017c5791610178916101736020959461040060405261007d610104356101a7565b610089610124356101a7565b610095610144356101a7565b6100a1610164356101a7565b6100ad610184356101a7565b6100b96101a4356101a7565b6100c56101c4356101a7565b6100d16101e4356101a7565b6100dd610204356101a7565b6100e9610224356101a7565b6100f5610244356101a7565b610101610264356101a7565b61010d610284356101a7565b6101196102a4356101a7565b6101256102c4356101a7565b6101316102e4356101a7565b61013d610304356101a7565b610149610324356101a7565b610155610344356101a7565b610161610364356101a7565b61016d610384356101a7565b356101a7565b610d2b565b8152f35b8380fd5b5080fd5b80fd5b9060049160441161019457565b600080fd5b9060c4916101041161019457565b7f30644e72e131a029b85045b68181585d97816a916871ca8d3c208c16d87cfd4711156101d057565b6000805260206000f35b604051907f24b836656473c04a4efefa72b6d0347089d2732f0a7959e39bb1ea3eb97408e382527f1d819105d6b9cf9fde53dba83c98fd94de7511cc376985a4c6650204f2b17f056020830152604082019081526107cf196040836060816007855a01fa156101d05760409260066080939284938451905260a05160608401525a01fa156101d057565b604051907f2655378d9b91c80ce437bab7feb0ffe5a73e475df5fe83ba2a34e529efc6180382527f263f4af66cbcd2fbe52edd1541c978f32b63b634cdaea8039d79ac0147de3f586020830152604082019081526107cf196040836060816007855a01fa156101d05760409260066080939284938451905260a05160608401525a01fa156101d057565b604051907f27739467fb49329cddb08301507ac647ba67dd52872afc305c0dc6449564d19982527f03576ede25f393c9f76861f61efa5d431ac58828254d2c02206e598e203575ff6020830152604082019081526107cf196040836060816007855a01fa156101d05760409260066080939284938451905260a05160608401525a01fa156101d057565b604051907f0190df33ff3517e3939afa3b9246f1d8c10bea0deb608ce93d08bf910496d9ca82527f27396c3016a6e7900ce326168bf83718b83d7fc5ccaafc9e54cf5a917fe4e7126020830152604082019081526107cf196040836060816007855a01fa156101d05760409260066080939284938451905260a05160608401525a01fa156101d057565b604051907e5b2a3a79634c1f24339363a7f47fdeea514ea22970f91e05ecf8c8cebd04f182527f0db494c1064c8b9d6dcf6de0d57b16b8cafe666f372f1d36b036de9f5a952acb6020830152604082019081526107cf196040836060816007855a01fa156101d05760409260066080939284938451905260a05160608401525a01fa156101d057565b604051907f1209ba82b05ebefed270b176002b8741441f49bdc0ce1411ea8dfae9ae4eb64f82527f16940ca02c1662f662b89ccbfc768aa100fdb3aeff38e167db2a2c0a7b946c7f6020830152604082019081526107cf196040836060816007855a01fa156101d05760409260066080939284938451905260a05160608401525a01fa156101d057565b604051907f0b701dcd0ecd85302f04f1765272683e3ce2c90d451e30fdd820db484cd88cc282527f0a5c28fa9a83006c1c6ce4c549c4cbd7f9af206e1d9919b7c42879530d9dbeaa6020830152604082019081526107cf196040836060816007855a01fa156101d05760409260066080939284938451905260a05160608401525a01fa156101d057565b604051907f0cb636d7cfc5c4abf20ca63dc44f04c2673296f3bccec5af087f8cf297893c7582527f298774322654b6c6546a0b28b37f3c4f999013432581d486b3ea6e9c97b8cc106020830152604082019081526107cf196040836060816007855a01fa156101d05760409260066080939284938451905260a05160608401525a01fa156101d057565b604051907f132c35ec9944dd6c2a80e4ab5066a92ff41906b278a0d4552e9a45f94fcae13882527f117b5a335641b9add22676b7662b4bfb1b59da1445d2ddd5469b6180d5593b9b6020830152604082019081526107cf196040836060816007855a01fa156101d05760409260066080939284938451905260a05160608401525a01fa156101d057565b604051907f0d7ddd91ba3fe56560fe8fb64559e207a90e92f1261facf41597d8871004777e82527f02d54368475b89da50afd8c1125a7b8e65d654d4f39bb78f84f5a808db664bdd6020830152604082019081526107cf196040836060816007855a01fa156101d05760409260066080939284938451905260a05160608401525a01fa156101d057565b604051907f19809e4ebfeb43098f6f0e38b71131539b10cad5e5285e65afdc05d8b4c9b13382527f2ad0f248520a0c3df78fb3931801746d88e28980115861c9827d4a0e0f6e25706020830152604082019081526107cf196040836060816007855a01fa156101d05760409260066080939284938451905260a05160608401525a01fa156101d057565b604051907f1efd9efcd46e44ba07bfa274877412215df14b88f90e4baf2fcb58a75b0b50ad82527f2a04e2c794c825ba53d02f64c9f0a04937e78bd1d3d671edcce01eee5d047c066020830152604082019081526107cf196040836060816007855a01fa156101d05760409260066080939284938451905260a05160608401525a01fa156101d057565b604051907f2f39e03a12739b5bc7fe1d2a5dd394eb034151218e84401962df2ac754bcfe6782527f2f00ceec53e2aea7cc5fd5e2e0a28c5cb70a0791568560ee1d0a60811dce97a66020830152604082019081526107cf196040836060816007855a01fa156101d05760409260066080939284938451905260a05160608401525a01fa156101d057565b604051907f2327843e6fa1f73d7f756c42534e8aee954308b18e0d5a746a59ef2dd400eca782527f1751906dbc2e1fd74a1e55eb1faaca835081298abcfca636283ee720ff53299c6020830152604082019081526107cf196040836060816007855a01fa156101d05760409260066080939284938451905260a05160608401525a01fa156101d057565b604051907f29f7fce0a33167039446d80192621fe68e5e25ba1e095e0b5e14f8319f53ed0682527f0d4b72382c35b4fe522f00b122fad5349bf8b6cd94eeaa2bb56bfde633ff05776020830152604082019081526107cf196040836060816007855a01fa156101d05760409260066080939284938451905260a05160608401525a01fa156101d057565b604051907f0571e52e017c56c01a801ea0a0d0e927694af2c5580e24f6570456b3b7cb461f82527f272da88413924c58715069ccccdaa3040fd6e5bf6d66f8eca617e25ad21bda406020830152604082019081526107cf196040836060816007855a01fa156101d05760409260066080939284938451905260a05160608401525a01fa156101d057565b604051907f135408df2a06c7dfe9379530d0cd04c6bf02d98243db1351bbf674d24387566b82527f117db1b0e03cd9242687a55679aa9aa4a5c77b336085cc5208fea564cf78b5c06020830152604082019081526107cf196040836060816007855a01fa156101d05760409260066080939284938451905260a05160608401525a01fa156101d057565b604051907f1d93274e2c95771ef504ee62ad7fae5d2896a87be72699f946471a13a499ee6082527f03f3bbac30be71872c10dce02ead7823f3dbc23888d63a0e9de10132a8d9692e6020830152604082019081526107cf196040836060816007855a01fa156101d05760409260066080939284938451905260a05160608401525a01fa156101d057565b604051907f2f149949ee80b92006b5cbb1a807be12ed9af28ba0ca8cdd6f3cdbfdf64d839c82527f0104fb5ec46537121d4e53cfc02475af849b2ddf69b755795be37c4db17faaa86020830152604082019081526107cf196040836060816007855a01fa156101d05760409260066080939284938451905260a05160608401525a01fa156101d057565b604051907f19117f72229f978a79b3e55a410cafa96e112666e2b6c042b7f77805684cd19082527f22311dc7dc43621dcbda3faba2799f35546b8e1aa0c4d60fc0c4231e871ce4486020830152604082019081526107cf196040836060816007855a01fa156101d05760409260066080939284938451905260a05160608401525a01fa156101d057565b604051907f228808994de05a31a545f7e0cb523adae19dee8f349b71d97fe77aab5f07863c82527f201112a1f14f138529e6f3215f378c0bcb98bbc8486737f9ac1181912de33fb46020830152604082019081526107cf196040836060816007855a01fa156101d05760409260066080939284938451905260a05160608401525a01fa156101d057565b6020907f081c90669b4e45a45155482d76d087d847a0d63a36bac3d20af6e386e02aee346080527f1350b3500a18145da9f05b34e20555b20b21467ceef4b388e01730a6985e34af60a052610d82610104356101da565b610d8e61012435610264565b610d9a610144356102ee565b610da661016435610378565b610db261018435610402565b610dbe6101a43561048b565b610dca6101c435610515565b610dd66101e43561059f565b610de261020435610629565b610dee610224356106b3565b610dfa6102443561073d565b610e06610264356107c7565b610e1261028435610851565b610e1e6102a4356108db565b610e2a6102c435610965565b610e366102e4356109ef565b610e4261030435610a79565b610e4e61032435610b03565b610e5a61034435610b8d565b610e6661036435610c17565b610e7261038435610ca1565b61010092818492358352837f30644e72e131a029b85045b68181585d97816a916871ca8d3c208c16d87cfd479101358103066101205260443561014052606435610160526084356101805260a4356101a0527f2d4d9aa7e302d9df41749d5507949d05dbea33fbb16c643b22f599a2be6df2e26101c0527f14bedd503c37ceb061d8ec60209fe345ce89830a19230301f076caff004d19266101e0527f0967032fcbf776d1afc985f88877f182d38480a653f2decaa9794cbc3bf3060c610200527f0e187847ad4c798374d0d6732bf501847dd68bc0e071241e0213bc7fc13db7ab610220527f304cfbd1e08a704a99f5e847d93f8c3caafddec46b7a0d379da69a4d112346a7610240527f1739c1b1a457a8c7313123d24d2f9192f896b7c63eea05a9d57f06547ad0cec8610260526080516102805260a0516102a0527f198e9393920d483a7260bfb731fb5d25f1aa493335a9e71297e485b7aef312c26102c0527f1800deef121f1e76426a00665e5c4479674322d4f75edadd46debd5cd992f6ed6102e05282610300917f090689d0585ff075ec9e99ad690c3395bc4b313370b38ef355acdadcd122975b83527f12c85ea5db8c6deb4aab71808dcb408fe3d1e7690c43d37b4ce6cc0166fa7daa610320528035610340520135610360527f1db6404b67cb870a625302489d9c4cb4cead03dd8bbfc451fbe4d94dac61b460610380527f2fc427a8c2c659357b6da513186ead70b8386bc4db4251b6379f5daefeace0c66103a0527e31080c909e076cef9bc875ec1b8f90802a8272be58519e4356c5c6df46ed706103c0527f05e262bc73bf49c2a0e82189d9e660c41cf8dae5c43d2f44812d4770fe9c64a66103e0528160086107cf195a01fa9051169056fea26469706673582212202e6c2f929a209ba66bc04a6dc1fd82b8884b7b7a7324087d84ef6c4277e9eca164736f6c634300080f0033",
  "linkReferences": {},
  "deployedLinkReferences": {}
}