{
  "_format": "hh-sol-artifact-1",
  "contractName": "Groth16Verifier",
  "sourceName": "contracts/Game_7_20Verifier.sol",
  "abi": [
    {
      "inputs": [
        {
          "internalType": "uint256[2]",
          "name": "_pA",
          "type": "uint256[2]"
        },
        {
          "internalType": "uint256[2][2]",
          "name": "_pB",
          "type": "uint256[2][2]"
        },
        {
          "internalType": "uint256[2]",
          "name": "_pC",
          "type": "uint256[2]"
        },
        {
          "internalType": "uint256[70]",
          "name": "_pubSignals",
          "type": "uint256[70]"
        }
      ],
      "name": "verifyProof",
      "outputs": [
        {
          "internalType": "bool",
          "name": "",
          "type": "bool"
        }
      ],
      "stateMutability": "view",
      "type": "function"
    }
  ],
  "bytecode": "0x608080604052346100165761302b908161001c8239f35b600080fdfe6080604052600436101561001257600080fd5b6000803560e01c635964f1521461002857600080fd5b346103d0576109c03660031901126103d057610043366103d3565b3660c4116103cc57610054366103e5565b906109c43681116103c857916103c4916103bf6020959461040060405261007d610104356103f3565b610089610124356103f3565b610095610144356103f3565b6100a1610164356103f3565b6100ad610184356103f3565b6100b96101a4356103f3565b6100c56101c4356103f3565b6100d16101e4356103f3565b6100dd610204356103f3565b6100e9610224356103f3565b6100f5610244356103f3565b610101610264356103f3565b61010d610284356103f3565b6101196102a4356103f3565b6101256102c4356103f3565b6101316102e4356103f3565b61013d610304356103f3565b610149610324356103f3565b610155610344356103f3565b610161610364356103f3565b61016d610384356103f3565b6101796103a4356103f3565b6101856103c4356103f3565b6101916103e4356103f3565b61019d610404356103f3565b6101a9610424356103f3565b6101b5610444356103f3565b6101c1610464356103f3565b6101cd610484356103f3565b6101d96104a4356103f3565b6101e56104c4356103f3565b6101f16104e4356103f3565b6101fd610504356103f3565b610209610524356103f3565b610215610544356103f3565b610221610564356103f3565b61022d610584356103f3565b6102396105a4356103f3565b6102456105c4356103f3565b6102516105e4356103f3565b61025d610604356103f3565b610269610624356103f3565b610275610644356103f3565b610281610664356103f3565b61028d610684356103f3565b6102996106a4356103f3565b6102a56106c4356103f3565b6102b16106e4356103f3565b6102bd610704356103f3565b6102c9610724356103f3565b6102d5610744356103f3565b6102e1610764356103f3565b6102ed610784356103f3565b6102f96107a4356103f3565b6103056107c4356103f3565b6103116107e4356103f3565b61031d610804356103f3565b610329610824356103f3565b610335610844356103f3565b610341610864356103f3565b61034d610884356103f3565b6103596108a4356103f3565b6103656108c4356103f3565b6103716108e4356103f3565b61037d610904356103f3565b610389610924356103f3565b610395610944356103f3565b6103a1610964356103f3565b6103ad610984356103f3565b6103b96109a4356103f3565b356103f3565b6129dd565b8152f35b8380fd5b5080fd5b80fd5b906004916044116103e057565b600080fd5b9060c491610104116103e057565b7f30644e72e131a029b85045b68181585d97816a916871ca8d3c208c16d87cfd47111561041c57565b6000805260206000f35b604051907f242ddf170a6049bea3f3649292b1a64e8b940644255e8fefb191bc1c59cb5fb282527f02f72241d4676d8077f2a14c2700bcfe91602b2bb253834c8a7302616a644ddb6020830152604082019081526107cf196040836060816007855a01fa1561041c5760409260066080939284938451905260a05160608401525a01fa1561041c57565b604051907f01764fa2d1260c5138be100a60ea8b223e61cf19eed466bca3de8a64c330a7cc82527f2a273256d530cdcfbc4bc656c755068f65a41bfc372fcec0577d5026444cf3c26020830152604082019081526107cf196040836060816007855a01fa1561041c5760409260066080939284938451905260a05160608401525a01fa1561041c57565b604051907f05235a68fd0ff47eb5503e1431fa5f519dbdabb26acb31deef5642115ec26af182527f11371f968d6e4d9bf6b19c9fd89377b0b209eeb9f48cac27e2580839a556c13b6020830152604082019081526107cf196040836060816007855a01fa1561041c5760409260066080939284938451905260a05160608401525a01fa1561041c57565b604051907ecb685c9d01b4bc82247ef5c70f043107bd09af202c18ae6a39daecc3159a4382527f2be8f33702c6e964723bc19dbf39a443ca48543fb1e16be31b27bbd6a2485cc56020830152604082019081526107cf196040836060816007855a01fa1561041c5760409260066080939284938451905260a05160608401525a01fa1561041c57565b604051907f21ff6ac12d5d27243fd5d2be9b8a09d05c341475cd2efccad05621f6a8a33cb382527f1c28a11f7b9931ccde8a6eae553317a3231b3599e2fa3ad555f14d4558d554b36020830152604082019081526107cf196040836060816007855a01fa1561041c5760409260066080939284938451905260a05160608401525a01fa1561041c57565b604051907f2cbb74b963e87d6c50b7be918ac9314e8906f84fe8724ab9d09aafc02ec8af2082527f2523b0cc9c95e243a29cca74709c0e17f469d646720f24bd52d338fd995e22bf6020830152604082019081526107cf196040836060816007855a01fa1561041c5760409260066080939284938451905260a05160608401525a01fa1561041c57565b604051907f05954540cc26025625c3124b09ae135a04d7f44f5642fe3e1c44ce989ef96e4e82527e42c87cc7739de4759733345991dbb70e27297ea20b9343088ae630271f09606020830152604082019081526107cf196040836060816007855a01fa1561041c5760409260066080939284938451905260a05160608401525a01fa1561041c57565b604051907f0608051ab51fb87fc667f7b818a522f18a2b68bc5203645b1b982a2c1cb9ed5882527f1c1c93f57c4cb16e65a76493a46aec2477e12346c841cdf848b09e1333dcee506020830152604082019081526107cf196040836060816007855a01fa1561041c5760409260066080939284938451905260a05160608401525a01fa1561041c57565b604051907f0aca508823a9f824772822bac120f84b1d6ba5eec5f9fb7e1a3c326050763ba882527f21c92028409c9dc85b1cc3022562f12ee8fc99fa7ad7c746ca910abe046bdbcf6020830152604082019081526107cf196040836060816007855a01fa1561041c5760409260066080939284938451905260a05160608401525a01fa1561041c57565b604051907f1bd522999d2f48293df0aed7724546c617aebf69a6258963d7f6a5925d98c6b982527f1fee8141e47e0f30915ff4d3f2e76c3f92921f8f7e52590554222382e7a20d4f6020830152604082019081526107cf196040836060816007855a01fa1561041c5760409260066080939284938451905260a05160608401525a01fa1561041c57565b604051907f157e9c2efd134315e8d5c227b9bf975004ccc53aa2e70e650b438f2508363ece82527f0f6d6a5c1ddd878e5f8b69572a0c84d5e12b0e3650a5fcc6c41d5d5b54b4f2416020830152604082019081526107cf196040836060816007855a01fa1561041c5760409260066080939284938451905260a05160608401525a01fa1561041c57565b604051907f22aad4dbcb7da70502fad59afcef9a13a8aac333ef27a421ff154b411eaf315a82527f29fd42cafb2f0c3318bc38915d11ef7d9e4b79ff53855b1a8c8c242fc1270e426020830152604082019081526107cf196040836060816007855a01fa1561041c5760409260066080939284938451905260a05160608401525a01fa1561041c57565b604051907f22d00ebcc67bb24374e40c23aa55b8c8413100c912fb3e75e22116d8afdbdf3482527f073e78099c1d3350f417f3d6c8c537b40c525a2e3d2ac9bf9894d7651cb6cbbc6020830152604082019081526107cf196040836060816007855a01fa1561041c5760409260066080939284938451905260a05160608401525a01fa1561041c57565b604051907f0d5e78b4e265ca75dd4b042d29cd89dd9f0fe088eef11ed125d1b435935d7d1f82527f30425921225e6ecd6d7bd9b8e77aff3e0486982a56e019888640d3fe412558676020830152604082019081526107cf196040836060816007855a01fa1561041c5760409260066080939284938451905260a05160608401525a01fa1561041c57565b604051907f20e588b8208c35fc21e37b210a3862b37c050edc31383c809613cf9d7709140b82527f28731c442005b2277ca80f36c64c5bac590e31e6d7d649306505f6948aafe6636020830152604082019081526107cf196040836060816007855a01fa1561041c5760409260066080939284938451905260a05160608401525a01fa1561041c57565b604051907f1d6f943190de044e63cf940b91e9ac04082e981328f18d59551da99b2144ae4182527f0d4ebd7873c8d96ac3fcf60c9d3cb9587f8d03a40f337642e2d8eaecc3ee1b1e6020830152604082019081526107cf196040836060816007855a01fa1561041c5760409260066080939284938451905260a05160608401525a01fa1561041c57565b604051907f14e1b84cdc8aa8fed2d993c8fe5a8056761f6440a0769ddf7b53d7327ee96fc482527f1e53269997a5dc42eaa0a3c0c14bf70bc59ed1f6948c393b644051ab564f26e06020830152604082019081526107cf196040836060816007855a01fa1561041c5760409260066080939284938451905260a05160608401525a01fa1561041c57565b604051907f0eedd49bbb7ab8676927dcdff008685cc6a131677d35f62b91a6353cb5dd734a82527f1d8d61091470cdf8dcccc8c1fed0ddd1ff2c41e0bc133615374ae749651a458e6020830152604082019081526107cf196040836060816007855a01fa1561041c5760409260066080939284938451905260a05160608401525a01fa1561041c57565b604051907f29a2c8a87463052fcab13b5b9cf99d76e45b4149dd8264d40fe8e9080c8acccf82527f2af765d952462d33f4847656827ceb6c08f31a40ef40d238fb286448af3f81f86020830152604082019081526107cf196040836060816007855a01fa1561041c5760409260066080939284938451905260a05160608401525a01fa1561041c57565b604051907f05a56f18264a69fa93e30085ba86cfba232c997a711e2e98ea379e3b707c4d1382527f0bd851af62113084e987fc7cf275f76686122d8e449aa9230aabe0f3834f044e6020830152604082019081526107cf196040836060816007855a01fa1561041c5760409260066080939284938451905260a05160608401525a01fa1561041c57565b604051907f1976d3459c2d9f5b384b2c65f18ec8a5b5a90a3b3c712746f76f593003a3536582527f1fde7af5ef9e418b34bdf3b79b0857c08e6cf9f00698bb7c689b3dbba0fdf0e16020830152604082019081526107cf196040836060816007855a01fa1561041c5760409260066080939284938451905260a05160608401525a01fa1561041c57565b604051907e96c93793a78abe1ad11be55b1c083b1c9ed38011af20288df8a72756cd6b5782527f27933e01d593799c9e0f6b916774670165bb0912c08b358db8bb9df2cdc0a1286020830152604082019081526107cf196040836060816007855a01fa1561041c5760409260066080939284938451905260a05160608401525a01fa1561041c57565b604051907f0a0a5ac99ad77b6caf6c260352850182168e749d6ce516bcd2843c66d086736182527f29d99da7e3ef612bc492eddee41495c7837101f8e90f7aed1f28f16fa70af5ad6020830152604082019081526107cf196040836060816007855a01fa1561041c5760409260066080939284938451905260a05160608401525a01fa1561041c57565b604051907f28e87884cdff34330883e803903100bd96ac0c8eb8e8d3ac50321f0d22227c9082527f20d9176ecdb61ef0934c128383bc56a4fff3399c63cef1182bae4abd45b2a6936020830152604082019081526107cf196040836060816007855a01fa1561041c5760409260066080939284938451905260a05160608401525a01fa1561041c57565b604051907f29130d0673e2c8dd3b1fe3425e22287768b1ad90c389aa99ababb0ec268e44c082527f04e80413c21777ed809ceaf6b4956a16c3887a79e9e73cb3502c7629ad971a846020830152604082019081526107cf196040836060816007855a01fa1561041c5760409260066080939284938451905260a05160608401525a01fa1561041c57565b604051907f2bf3ee61726efe0cd77b2e6923ecdfb943188f2a27669fae8b47207044cf2f7482527f048898101934d78f2c5d7de7a8a3f87deb82b031742006792feb41a6556f86f66020830152604082019081526107cf196040836060816007855a01fa1561041c5760409260066080939284938451905260a05160608401525a01fa1561041c57565b604051907f260c3bca923d91a81e1d04e4b3a61ef3e05257899b4473e693815ca05e5f987c82527f245767746c539a5bf5c449df7ce0c58783bfa60a52f5f605e1146280ddf140386020830152604082019081526107cf196040836060816007855a01fa1561041c5760409260066080939284938451905260a05160608401525a01fa1561041c57565b604051907f0d550fe395c1990148dbb5200d0a3c9f63b7eb8a0ed92d33d49ce8744fd7a78682527f28e83043e40d6f9eae06b6edb93a0d428f8354453d97642051538b049eda65bc6020830152604082019081526107cf196040836060816007855a01fa1561041c5760409260066080939284938451905260a05160608401525a01fa1561041c57565b604051907f12561f7a3700fc6f82f27d033e8b49a0133eb6be307b42279f21ead6a37f1e0882527f2224e09ec635e7e7e1baa99f2c68ee2dddb02da777ad859019763b0d31dd422d6020830152604082019081526107cf196040836060816007855a01fa1561041c5760409260066080939284938451905260a05160608401525a01fa1561041c57565b604051907f2507b9fc90ad40bc93c8dd36bb5564e6295dcedc3c5604847c40b7ce40aa098482527f207f085a1fcb29a0fcf9e2a6d4fd908d8e1bfd366b7ba14c8dafb2511d19c0686020830152604082019081526107cf196040836060816007855a01fa1561041c5760409260066080939284938451905260a05160608401525a01fa1561041c57565b604051907f02d4e74d5691ba029e594d06f60446a5f64afab89359d8ab7cdf6790af748d1482527f16f91fbd7d79abe9969ffe7b67e16059f5b466379d8086e9423e08ce27d181096020830152604082019081526107cf196040836060816007855a01fa1561041c5760409260066080939284938451905260a05160608401525a01fa1561041c57565b604051907f27e759b374ca8cacc7595c7aa30cd13a906b99f148f64b1a9d08afb21b7c815682527f2ac05dc432ad4566aab0c78976c34a8a99dcebc9d3f06dda6232d2ef6d9940e16020830152604082019081526107cf196040836060816007855a01fa1561041c5760409260066080939284938451905260a05160608401525a01fa1561041c57565b604051907ee7a5ab5ff49d712579162dfc3510cdd2ff7bc1fbad0e9aecdd1c4356d57f0482527f2b8608c2365ec37bd6c216a272753e3d81562fda55916c2c0d8bf8f3c13686e36020830152604082019081526107cf196040836060816007855a01fa1561041c5760409260066080939284938451905260a05160608401525a01fa1561041c57565b604051907f0d91774e1ab6293148dc548d7924d207908e5b97b7afa7cf39b4099e716883a482527f07ecb3fb3bf25d28bf6b1c70b46b79739f14fb811b9e7068071ee01fcf644d9f6020830152604082019081526107cf196040836060816007855a01fa1561041c5760409260066080939284938451905260a05160608401525a01fa1561041c57565b604051907f04b239e569218f74596889524dfd4f3162c5ef107d10a2da4b64241eab8e339d82527f05eda3c21cd0179458e98a700bdf8a2db4dd6cec4f955a3168d09b5dad99dbdc6020830152604082019081526107cf196040836060816007855a01fa1561041c5760409260066080939284938451905260a05160608401525a01fa1561041c57565b604051907f0bf5365b28751139663eba956c8e32cfe4fc0a77754765012c5865dfed8802fd82527f164699ba306cd1c5938c623b046c7343d598a43fbb334900580e7991a9571bc46020830152604082019081526107cf196040836060816007855a01fa1561041c5760409260066080939284938451905260a05160608401525a01fa1561041c57565b604051907f02112c1598b6cd0ca2e6d50110ee659dcfed1e7cbb488ebf9c2ba130a0c8203d82527f0f37d5cb639d4a9baf294f35dd06b647008a4dd04d1097bb237a45803950ce206020830152604082019081526107cf196040836060816007855a01fa1561041c5760409260066080939284938451905260a05160608401525a01fa1561041c57565b604051907f053969bfc653c8016ccffac0b7158747c98d859d672106548a006e8d623a0ed582527f2d8b5d081ddb0e2320b551735b90abe0730475bc80db17a70ee0b00c01a0fcf26020830152604082019081526107cf196040836060816007855a01fa1561041c5760409260066080939284938451905260a05160608401525a01fa1561041c57565b604051907f11ce0d3f675403275a34e2dc8765465cea536eec9211563a83446a9e4de5080282527f045349eb39c5b3617af98ff090cfea5f2a362ca2d8ce26613049a910b09ee77f6020830152604082019081526107cf196040836060816007855a01fa1561041c5760409260066080939284938451905260a05160608401525a01fa1561041c57565b604051907f05138b8fe92151ff7474945b5b3c2f93694e2233aae5b850a0a61ae862fd383d82527f096d15751ec3e275973266f10ba789c4679e83f2acdb6ecb12b913bc556b1c126020830152604082019081526107cf196040836060816007855a01fa1561041c5760409260066080939284938451905260a05160608401525a01fa1561041c57565b604051907f1723572e2b8a13806c384fcfcaa555fe216628afda5865c09cc4ae101a008dda82527f1b15b3e7ceb6d81c4aaa3e5445ceedacc5dd9b3ba7f5117c544730d8e506b0256020830152604082019081526107cf196040836060816007855a01fa1561041c5760409260066080939284938451905260a05160608401525a01fa1561041c57565b604051907f18c8da09e4d59e975df57e93490c6a0eb32e475d692c89802563f36099f80ecc82527f0850aca014035e9cac1bd94a77d0f37599bde8cdde7ef2fbff96f669e274a3556020830152604082019081526107cf196040836060816007855a01fa1561041c5760409260066080939284938451905260a05160608401525a01fa1561041c57565b604051907f1c68ba31583f286f53b5398c879ce966b0e46381328a05ebe14ff8821a8c8f3182527f1ab98923efe3b7fc461dd9fbeed90245cd44aa73b734d083e4f6681c46e569e46020830152604082019081526107cf196040836060816007855a01fa1561041c5760409260066080939284938451905260a05160608401525a01fa1561041c57565b604051907f225221ca6ec11cbfe8b6212ffe6b80354c1f30bf2090c95c76ad6f516eac3bf282527f229da4b48e9e68d31e4beddcba53345798995a9903e103d3d39036fbfc1f1fca6020830152604082019081526107cf196040836060816007855a01fa1561041c5760409260066080939284938451905260a05160608401525a01fa1561041c57565b604051907f2c40447189287ba18ae9e67ff9c5562b7bea0742b9f1ba2b8858decd70e0285c82527f1fd9ccb785883d2c2ec83dade2b1e3f6c3cc73638decbb20581ea977d75a080f6020830152604082019081526107cf196040836060816007855a01fa1561041c5760409260066080939284938451905260a05160608401525a01fa1561041c57565b604051907f2af57c00ed249469c9422171ce91697247db608f576f633231619098edc94e6d82527f180d312485e45ff28fee3461dc80420694e52639086d6f4c8eb3bc811a55f6cb6020830152604082019081526107cf196040836060816007855a01fa1561041c5760409260066080939284938451905260a05160608401525a01fa1561041c57565b604051907f0bee381b53aecd4aa2e9f53e119c37d416ab1fe0f56e03ae830c07fae4c9fcd982527f22ee0302318fac9cc20bbf93fca9ca7ae204ab23f47f384fec254db7dab56de56020830152604082019081526107cf196040836060816007855a01fa1561041c5760409260066080939284938451905260a05160608401525a01fa1561041c57565b604051907f19a0d8bbbc9ba1324965c61d8d0f062ab29e8a48d5ddbe6fc604388be89aef8f82527f09efb5dace87c1f52fb246c26801ea09c787c467a35cd4ff10e78a3432f631f26020830152604082019081526107cf196040836060816007855a01fa1561041c5760409260066080939284938451905260a05160608401525a01fa1561041c57565b604051907f2bc9e2604990c2a7bd6c2f0fae2e62dd1f27a092e1d653e57d7d2903cd5d643382527e7974b7ecb460c561339fbaa4807180ed3ccb17469d07631341604ccf4b7ffb6020830152604082019081526107cf196040836060816007855a01fa1561041c5760409260066080939284938451905260a05160608401525a01fa1561041c57565b604051907f190e483280da3b02fdbeb4e7651701332ba517e01c42ef5f33bdb3bb3032d43c82527f15949210a072968e73a9db9462a12637a608f57220f54dd27481e4d817e3e28a6020830152604082019081526107cf196040836060816007855a01fa1561041c5760409260066080939284938451905260a05160608401525a01fa1561041c57565b604051907f127cd142c7807657c6748ee6834c715951afc4881b061317615e098a93d1258182527f09061b6bf66f126442bb90f3e08d77069a82b1de833ca0963f3f5c7bfbd29bb76020830152604082019081526107cf196040836060816007855a01fa1561041c5760409260066080939284938451905260a05160608401525a01fa1561041c57565b604051907f0d779acdc38071c07166862ee41037215c3e9b134a14cbd79bf881bff1b5810282527f229fed475198b8d6439a220978c7bd2e6a1c26388ef7b67ac1fceba653a999c06020830152604082019081526107cf196040836060816007855a01fa1561041c5760409260066080939284938451905260a05160608401525a01fa1561041c57565b604051907f2e12e1ebfdbbf1e10bde82669665efebf3b5c11c0cd475f35a50e52d006fac8b82527f1539a2d0c54f6861412d7ab91115d391511978ef28e97860d5228d8f7e1303f46020830152604082019081526107cf196040836060816007855a01fa1561041c5760409260066080939284938451905260a05160608401525a01fa1561041c57565b604051907f09683e9bd5f44f8dc729988a81614251a230cff21b3ae33ad7aa86aa38c2931f82527f03e3ce2bd3f62845a472ba69e7007a672e907acf6082687d27f61eeeed2512216020830152604082019081526107cf196040836060816007855a01fa1561041c5760409260066080939284938451905260a05160608401525a01fa1561041c57565b604051907f1351a097d7e99838ee810a1142b4fc4273010c768cc02ebf5f7c0d2b2408e3b082527f0881b3ffadceb140f752761e5c87e5f5aeaa58460200a7ae5eb186d7401a33e06020830152604082019081526107cf196040836060816007855a01fa1561041c5760409260066080939284938451905260a05160608401525a01fa1561041c57565b604051907f039b1ce2d5dcb352d0ef8087e8a699375cc456927907c042902aac53c24c1ed982527f01939fc0e0906fb9b071c4658d3d80635b1ae1eaa277d5fd2eef8fab482e540b6020830152604082019081526107cf196040836060816007855a01fa1561041c5760409260066080939284938451905260a05160608401525a01fa1561041c57565b604051907f07e9004e40a7a97c9d4f79cd5a42f0983d16a26641b09c9478c8dedf7e04bb4982527f092faf0c8266054a764f32f62df3ba526652ae23abb34f54445a89fb24c1985c6020830152604082019081526107cf196040836060816007855a01fa1561041c5760409260066080939284938451905260a05160608401525a01fa1561041c57565b604051907f0fd4714ec6aff49b263ce483c1159777eaf86a4e99cdff59e385ff6399c38c6a82527f2aa5d29a52ab4b1787a4ff8da01efb6685eb0ccd0c98a5e2af10d1f7598a7ae76020830152604082019081526107cf196040836060816007855a01fa1561041c5760409260066080939284938451905260a05160608401525a01fa1561041c57565b604051907f1d86e910329bc01c39f0caf096778d007aa1924031606295b5538ed6fc9a120382527f14afbec4d7fb15e13908cd72549501d0115f999fcc904fc46428bc472d58ed626020830152604082019081526107cf196040836060816007855a01fa1561041c5760409260066080939284938451905260a05160608401525a01fa1561041c57565b604051907f177b656b488348e5843159e77ed3456ae870a5b84899a9c07e1537770d820b9482527f117cbec55b95bc3eff93d5c8063ab7b2865c862209f0238e8fd6bc365d7c41016020830152604082019081526107cf196040836060816007855a01fa1561041c5760409260066080939284938451905260a05160608401525a01fa1561041c57565b604051907f0a1b6c7c960f95926ead8ec06c72c74f50bdbc5f1c239b992d1e402ed421abed82527f17659bdbdbfebc365846a8dbbf3cb4ec0890936a2c5e5a74d043842df2f698076020830152604082019081526107cf196040836060816007855a01fa1561041c5760409260066080939284938451905260a05160608401525a01fa1561041c57565b604051907f2dbb696cb35de7ed128c7dbbccfe5d6c769150c14fc8541efa5a21832141aed982527f1621f4258fbc123711f8099150bf8542779b9d997910533f1fcee26e0bc1513b6020830152604082019081526107cf196040836060816007855a01fa1561041c5760409260066080939284938451905260a05160608401525a01fa1561041c57565b604051907f1e252bfa76917114109183d349ef2ee49b2ee6fa68ed6224ab6c10ed989cebf782527f050e4c2ef9768eb72d045b8da130401279011d0c6780e10a7c5872b94092ce486020830152604082019081526107cf196040836060816007855a01fa1561041c5760409260066080939284938451905260a05160608401525a01fa1561041c57565b604051907f0132869af6ee37f88c3e8e98f58622b42767d86a6fcab548f0401806ad45053482527f2115d1b8f39ab7d9a2d37a76b0faebd32fd5d5910698a46f57365e78c8d8e9e06020830152604082019081526107cf196040836060816007855a01fa1561041c5760409260066080939284938451905260a05160608401525a01fa1561041c57565b604051907f2b6b398608854e8d4cde4e4f187928c9aec31d84ae0918f3620e887587a6b00c82527f20d1fe0ca4f488be66cf775ff8e31722df20d30f6160c667e35540f34ff6bb616020830152604082019081526107cf196040836060816007855a01fa1561041c5760409260066080939284938451905260a05160608401525a01fa1561041c57565b604051907f065e7d62322844b3e1dc2d7953d5d38ac2408ca7a87ff3e05b0cbe23913bb90b82527f08af45081ac5bfd094dbc1d0c0bc8e5cb55050706ee2ed4c292d9c0223fff1556020830152604082019081526107cf196040836060816007855a01fa1561041c5760409260066080939284938451905260a05160608401525a01fa1561041c57565b604051907f17a9d08ed1bbbb0b07bc2bf86511da4c37be1badf2e622f150e429776606830082527f1bc2a08f6bcb1d9d27767aaf7c7fcf627a51dea23db1a80a8cd0c8607ad34b636020830152604082019081526107cf196040836060816007855a01fa1561041c5760409260066080939284938451905260a05160608401525a01fa1561041c57565b604051907f0953c666483f8b8d0ecd9050e6bcd1ad0e37b86b305f1d0a5d13e80b998746b482527f19f99172a5821596be6ea322af8a4321df6b643e84a3431d88d529a77f80073c6020830152604082019081526107cf196040836060816007855a01fa1561041c5760409260066080939284938451905260a05160608401525a01fa1561041c57565b604051907f0a485c2edbe6a8f7cf02cfc18dce49ba57a2938d5fcf5b15486a60113943e05482527f04cf41a90b352ae51cbb6d3d2ff843c4bb281e4fe2ec342f79b00bd7057202ac6020830152604082019081526107cf196040836060816007855a01fa1561041c5760409260066080939284938451905260a05160608401525a01fa1561041c57565b604051907f2d3d14f3e7e9c83739e8ae1b019eec8ce7e9ca6a263d13e5529925affb6b211382527f19c03b2892833c47eac398af41c70190b5474c9941e628df24f994e380efc2006020830152604082019081526107cf196040836060816007855a01fa1561041c5760409260066080939284938451905260a05160608401525a01fa1561041c57565b6020907f0c1100bb5113b48aec4b74328fc550a032cc1328d0a86bfdea48f208e322d1166080527f0e59956eb05d61586b8edfd35048c962ad7a392b4e1cb2dff2cee5ea81a3e05060a052612a3461010435610426565b612a40610124356104b0565b612a4c6101443561053a565b612a58610164356105c4565b612a646101843561064d565b612a706101a4356106d7565b612a7c6101c435610761565b612a886101e4356107ea565b612a9461020435610874565b612aa0610224356108fe565b612aac61024435610988565b612ab861026435610a12565b612ac461028435610a9c565b612ad06102a435610b26565b612adc6102c435610bb0565b612ae86102e435610c3a565b612af461030435610cc4565b612b0061032435610d4e565b612b0c61034435610dd8565b612b1861036435610e62565b612b2461038435610eec565b612b306103a435610f76565b612b3c6103c435610fff565b612b486103e435611089565b612b5461040435611113565b612b606104243561119d565b612b6c61044435611227565b612b78610464356112b1565b612b846104843561133b565b612b906104a4356113c5565b612b9c6104c43561144f565b612ba86104e4356114d9565b612bb461050435611563565b612bc0610524356115ec565b612bcc61054435611676565b612bd861056435611700565b612be46105843561178a565b612bf06105a435611814565b612bfc6105c43561189e565b612c086105e435611928565b612c14610604356119b2565b612c2061062435611a3c565b612c2c61064435611ac6565b612c3861066435611b50565b612c4461068435611bda565b612c506106a435611c64565b612c5c6106c435611cee565b612c686106e435611d78565b612c7461070435611e02565b612c8061072435611e8b565b612c8c61074435611f15565b612c9861076435611f9f565b612ca461078435612029565b612cb06107a4356120b3565b612cbc6107c43561213d565b612cc86107e4356121c7565b612cd461080435612251565b612ce0610824356122db565b612cec61084435612365565b612cf8610864356123ef565b612d0461088435612479565b612d106108a435612503565b612d1c6108c43561258d565b612d286108e435612617565b612d34610904356126a1565b612d406109243561272b565b612d4c610944356127b5565b612d586109643561283f565b612d64610984356128c9565b612d706109a435612953565b61010092818492358352837f30644e72e131a029b85045b68181585d97816a916871ca8d3c208c16d87cfd479101358103066101205260443561014052606435610160526084356101805260a4356101a0527f2d4d9aa7e302d9df41749d5507949d05dbea33fbb16c643b22f599a2be6df2e26101c0527f14bedd503c37ceb061d8ec60209fe345ce89830a19230301f076caff004d19266101e0527f0967032fcbf776d1afc985f88877f182d38480a653f2decaa9794cbc3bf3060c610200527f0e187847ad4c798374d0d6732bf501847dd68bc0e071241e0213bc7fc13db7ab610220527f304cfbd1e08a704a99f5e847d93f8c3caafddec46b7a0d379da69a4d112346a7610240527f1739c1b1a457a8c7313123d24d2f9192f896b7c63eea05a9d57f06547ad0cec8610260526080516102805260a0516102a0527f198e9393920d483a7260bfb731fb5d25f1aa493335a9e71297e485b7aef312c26102c0527f1800deef121f1e76426a00665e5c4479674322d4f75edadd46debd5cd992f6ed6102e05282610300917f090689d0585ff075ec9e99ad690c3395bc4b313370b38ef355acdadcd122975b83527f12c85ea5db8c6deb4aab71808dcb408fe3d1e7690c43d37b4ce6cc0166fa7daa610320528035610340520135610360527f09b9c4cd06b4c8caf782f0d6622ed7ab01a7992061c6628cf221e6a990a77072610380527f2116371c35fcf86add7ef771b068dd60cb9ac65d9a092191408bf4072d8fbc566103a0527f1e73836ab81beec53d2a10f4e254aa2f4320e770cf8f1287f205a02a0ade67ce6103c0527f13c673e1f4c8b3e0b642b02b9966d77f1fad09902f93884882810fd7c554eb626103e0528160086107cf195a01fa9051169056fea2646970667358221220af2fc05c3107ec8a61f7ac111adf8afeab01f573e53e2ef7bbfe883cbff5e30864736f6c634300080f0033",
  "linkReferences": {},
  "deployedLinkReferences": {}
}