{
	"_format": "hh-sol-artifact-1",
	"contractName": "Solver",
	"sourceName": "contracts/Solver.sol",
	"abi": [
		{
			"inputs": [
				{
					"internalType": "address payable",
					"name": "problems_",
					"type": "address"
				},
				{
					"internalType": "address",
					"name": "tocks_",
					"type": "address"
				}
			],
			"stateMutability": "nonpayable",
			"type": "constructor"
		},
		{
			"anonymous": false,
			"inputs": [
				{
					"indexed": true,
					"internalType": "address",
					"name": "previousOwner",
					"type": "address"
				},
				{
					"indexed": true,
					"internalType": "address",
					"name": "newOwner",
					"type": "address"
				}
			],
			"name": "OwnershipTransferred",
			"type": "event"
		},
		{
			"anonymous": false,
			"inputs": [
				{
					"indexed": true,
					"internalType": "uint256",
					"name": "problemId",
					"type": "uint256"
				},
				{
					"indexed": true,
					"internalType": "uint256",
					"name": "previousTickCount",
					"type": "uint256"
				},
				{
					"indexed": true,
					"internalType": "uint256",
					"name": "tickCount",
					"type": "uint256"
				}
			],
			"name": "Solved",
			"type": "event"
		},
		{
			"stateMutability": "nonpayable",
			"type": "fallback"
		},
		{
			"inputs": [
				{
					"internalType": "uint256",
					"name": "",
					"type": "uint256"
				}
			],
			"name": "bodyBoost",
			"outputs": [
				{
					"internalType": "uint256",
					"name": "",
					"type": "uint256"
				}
			],
			"stateMutability": "view",
			"type": "function"
		},
		{
			"inputs": [],
			"name": "decimals",
			"outputs": [
				{
					"internalType": "uint256",
					"name": "",
					"type": "uint256"
				}
			],
			"stateMutability": "view",
			"type": "function"
		},
		{
			"inputs": [],
			"name": "owner",
			"outputs": [
				{
					"internalType": "address",
					"name": "",
					"type": "address"
				}
			],
			"stateMutability": "view",
			"type": "function"
		},
		{
			"inputs": [],
			"name": "problems",
			"outputs": [
				{
					"internalType": "address payable",
					"name": "",
					"type": "address"
				}
			],
			"stateMutability": "view",
			"type": "function"
		},
		{
			"inputs": [],
			"name": "renounceOwnership",
			"outputs": [],
			"stateMutability": "nonpayable",
			"type": "function"
		},
		{
			"inputs": [
				{
					"internalType": "uint256",
					"name": "problemId",
					"type": "uint256"
				},
				{
					"internalType": "uint256",
					"name": "tickCount",
					"type": "uint256"
				},
				{
					"internalType": "uint256[2]",
					"name": "a",
					"type": "uint256[2]"
				},
				{
					"internalType": "uint256[2][2]",
					"name": "b",
					"type": "uint256[2][2]"
				},
				{
					"internalType": "uint256[2]",
					"name": "c",
					"type": "uint256[2]"
				},
				{
					"internalType": "uint256[]",
					"name": "input",
					"type": "uint256[]"
				}
			],
			"name": "solveProblem",
			"outputs": [],
			"stateMutability": "nonpayable",
			"type": "function"
		},
		{
			"inputs": [],
			"name": "tocks",
			"outputs": [
				{
					"internalType": "address",
					"name": "",
					"type": "address"
				}
			],
			"stateMutability": "view",
			"type": "function"
		},
		{
			"inputs": [
				{
					"internalType": "address",
					"name": "newOwner",
					"type": "address"
				}
			],
			"name": "transferOwnership",
			"outputs": [],
			"stateMutability": "nonpayable",
			"type": "function"
		},
		{
			"inputs": [
				{
					"internalType": "address payable",
					"name": "problems_",
					"type": "address"
				}
			],
			"name": "updateProblemsAddress",
			"outputs": [],
			"stateMutability": "nonpayable",
			"type": "function"
		},
		{
			"inputs": [
				{
					"internalType": "address",
					"name": "tocks_",
					"type": "address"
				}
			],
			"name": "updateTocksAddress",
			"outputs": [],
			"stateMutability": "nonpayable",
			"type": "function"
		}
	],
	"bytecode": "0x6080346101615762001bed906001600160401b03601f38849003908101601f19168301908282118483101761016657808491604096879485528339810103126101615781516001600160a01b039081811690819003610161576020809401519382851680950361016157600080549460018060a01b031995338782161783558851953391167f8be0079c531659141344cd1fd0a4f28419497f9722a3daafe3b4186f6b6457e08488a361016085019081118582101761014d5787929192528184528181850152818785015260019384606082015260026080820152600460a0820152600860c0820152601060e0820152816101008201528761012082015260806101408201529084600393925b600b841061013657509150508491505416179055600254161760025551611a7090816200017d8239f35b805160ff168555938101939201918590820161010c565b634e487b7160e01b82526041600452602482fd5b600080fd5b634e487b7160e01b600052604160045260246000fdfe60806040526004361015610054575b3461004f5760405162461bcd60e51b81526020600482015260146024820152733737903330b6363130b1b590333ab731ba34b7b760611b6044820152606490fd5b600080fd5b6000803560e01c8063087c32e614611706578063313ce567146116e35780633e301fd0146116ba578063715018a61461165d5780638da5cb5b14611636578063952ef7ef146115ea578063ab85f1f4146101f7578063cd190a92146101c6578063f2fde38b146100f95763f9df988f146100ce575061000e565b346100f657806003193601126100f6576001546040516001600160a01b039091168152602090f35b80fd5b50346100f65760203660031901126100f6576001600160a01b03600435818116908190036101c2576101296118b3565b801561016e57600080546001600160a01b03198116831782556040519316907f8be0079c531659141344cd1fd0a4f28419497f9722a3daafe3b4186f6b6457e09084a3f35b60405162461bcd60e51b815260206004820152602660248201527f4f776e61626c653a206e6577206f776e657220697320746865207a65726f206160448201526564647265737360d01b6064820152608490fd5b8280fd5b50346100f65760203660031901126100f657600435600b8110156101f35760209060030154604051908152f35b5080fd5b50346100f6576101603660031901126100f65736606312156100f65760405161021f81611797565b80366084116101c2576044905b608482106115da5750503660a312156101f3576040519061024c82611797565b813661010411610895576084905b61010482106115895750503661012312156101c25760405161027b81611797565b803661014411610aa057610104905b610144821061157957505061014435906001600160401b03918281116108865736602382011215610886578060040135928311611565578260051b604051936102d66020830186611892565b84526024602085019183010191368311610a7557602401905b8282106115555750505060018060a01b036001541692604051916375d279b360e11b83526004356004840152608083602481885afa95861561154a578793889761150c575b5061033e8461190b565b8060001904600211811515166108995760011b8551036114d057604051916343569ffb60e01b835284600484015260243560248401526020836044818a5afa9283156114c557899361147d575b506001600160a01b038316156114455760038503610c1857604051916103b083611876565b6103c08093369037604051926103c584611876565b368437895b601e8110610bf857506103fa94929161040461040e926040519788966301d28c8160e31b88526004880190611969565b6044860190611991565b60c4840190611969565b8861010483015b601e8210610bde57506020936104c492508391506001600160a01b03165afa908115610ae1578691610baf575b5015610b73575b84604051936310211ca160e21b8552600435600486015261014085602481845afa94851561088a578295610aec575b50610485602435876119e4565b90803b156101c2576044839260405194859384926304b24e8560e01b8452600435600485015260248401525af18015610ae157610ace575b506002546001600160a01b0316600b821015610aba57816003015490602435600019048211602435151516610aa4576024358202600019819004670de0b6b3a76400001190151516610aa4578691813b156101c257670de0b6b3a7640000604484928360405195869485936340c10f1960e01b8552336004860152602435020260248401525af1801561088a57610a8c575b5061012060405161055f8161177b565b8281528260208201528260408201528260608201528260808201528260a08201528260c08201528260e0820152826101008201520152845b8181106105d0576040518690602435876004357f0c4d840a1a0bafcdc673f07982de54d3fb2f2628e86cf3b9116675b01a1197028585a4f35b6001546001600160a01b03166105e682866119ff565b516040519063618faeb560e11b82526004356004830152602482015261014081604481855afa908115610a815788916109db575b50606081015161064461063e61062f87611921565b6106388761190b565b906119e4565b87611a26565b51036109a15761065c6106568461190b565b86611a26565b516060820152608081015161067c61067386611921565b6106388661190b565b60011981116108e3576001610692910187611a26565b5103610967576106a18361190b565b60011981116108995760016106b7910186611a26565b51608082015260a08101516106ce61067386611921565b60021981116108e35760026106e4910187611a26565b510361092f576106f38361190b565b6002198111610899576002610709910186611a26565b5160a082015260c081015161072061067386611921565b60031981116108e3576003610736910187611a26565b51036108f7576107458361190b565b600319811161089957600361075b910186611a26565b5160c082015260e081015161077261067386611921565b60041981116108e3576004610788910187611a26565b51036108ad576107978361190b565b600419811161089957906107b060048a94930187611a26565b5160e08201526107c084886119ff565b5190823b1561089557610184849283610120956040519687958694630e9776ab60e11b865260043560048701526024860152805160448601526020810151606486015260408101516084860152606081015160a4860152608081015160c486015260a081015160e486015260c081015161010486015260e081015161012486015261010081015161014486015201516101648401525af1801561088a57610872575b505061086d906119f0565b610597565b61087b90611752565b610886578538610862565b8580fd5b6040513d84823e3d90fd5b8380fd5b634e487b7160e01b89526011600452602489fd5b60405162461bcd60e51b815260206004820152600e60248201526d496e76616c69642072616469757360901b6044820152606490fd5b634e487b7160e01b8a52601160045260248afd5b60405162461bcd60e51b815260206004820152601060248201526f496e76616c696420766563746f72207960801b6044820152606490fd5b60405162461bcd60e51b815260206004820152601060248201526f092dcecc2d8d2c840eccac6e8dee440f60831b6044820152606490fd5b60405162461bcd60e51b8152602060048201526012602482015271496e76616c696420706f736974696f6e207960701b6044820152606490fd5b60405162461bcd60e51b8152602060048201526012602482015271092dcecc2d8d2c840e0dee6d2e8d2dedc40f60731b6044820152606490fd5b9050610140813d61014011610a79575b816109f96101409383611892565b81010312610a755761012060405191610a118361177b565b805183526020810151602084015260408101516040840152606081015160608401526080810151608084015260a081015160a084015260c081015160c084015260e081015160e084015261010081015161010084015201516101208201523861061a565b8780fd5b3d91506109eb565b6040513d8a823e3d90fd5b610a9590611752565b610aa057843861054f565b8480fd5b634e487b7160e01b600052601160045260246000fd5b634e487b7160e01b86526032600452602486fd5b610ada90959195611752565b93386104bd565b6040513d88823e3d90fd5b915093506101403d61014011610b6c575b610b078183611892565b81019061014081830312610b685781601f82011215610b685760405191610b2d8361177b565b8290610140830111610a75579087929181905b61014083018210610b55575050509338610478565b8151815289945060209182019101610b40565b8680fd5b503d610afd565b60405162461bcd60e51b815260206004820152601460248201527324b73b30b634b21019903137b23c90383937b7b360611b6044820152606490fd5b610bd1915060203d602011610bd7575b610bc98183611892565b810190611951565b38610442565b503d610bbf565b829350602080916001939451815201930191018492610415565b80610c06610c13928a611a26565b518160051b8601526119f0565b6103ca565b60048503610d3f5760405191610c2d8361185a565b610500809336903760405192610c428461185a565b368437895b60288110610d2c57506103fa949291610404610c77926040519788966319da330f60e01b88526004880190611969565b8861010483015b60288210610d12575060209361060492508391506001600160a01b03165afa908115610ae1578691610cf3575b5015610cb7575b610449565b60405162461bcd60e51b815260206004820152601460248201527324b73b30b634b2101a103137b23c90383937b7b360611b6044820152606490fd5b610d0c915060203d602011610bd757610bc98183611892565b38610cab565b829350602080916001939451815201930191018492610c7e565b80610c06610d3a928a611a26565b610c47565b60058503610e5f5760405191610d548361183e565b610640809336903760405192610d698461183e565b368437895b60328110610e4c57506103fa949291610404610d9e9260405197889663a63bed3760e01b88526004880190611969565b8861010483015b60328210610e32575060209361074492508391506001600160a01b03165afa908115610ae1578691610e13575b506104495760405162461bcd60e51b815260206004820152601460248201527324b73b30b634b2101a903137b23c90383937b7b360611b6044820152606490fd5b610e2c915060203d602011610bd757610bc98183611892565b38610dd2565b829350602080916001939451815201930191018492610da5565b80610c06610e5a928a611a26565b610d6e565b60068503610f7f5760405191610e7483611822565b610780809336903760405192610e8984611822565b368437895b603c8110610f6c57506103fa949291610404610ebe9260405197889663a54a2bcf60e01b88526004880190611969565b8861010483015b603c8210610f52575060209361088492508391506001600160a01b03165afa908115610ae1578691610f33575b506104495760405162461bcd60e51b815260206004820152601460248201527324b73b30b634b2101b103137b23c90383937b7b360611b6044820152606490fd5b610f4c915060203d602011610bd757610bc98183611892565b38610ef2565b829350602080916001939451815201930191018492610ec5565b80610c06610f7a928a611a26565b610e8e565b6007850361109f5760405191610f9483611806565b6108c0809336903760405192610fa984611806565b368437895b6046811061108c57506103fa949291610404610fde92604051978896632cb278a960e11b88526004880190611969565b8861010483015b6046821061107257506020936109c492508391506001600160a01b03165afa908115610ae1578691611053575b506104495760405162461bcd60e51b815260206004820152601460248201527324b73b30b634b2101b903137b23c90383937b7b360611b6044820152606490fd5b61106c915060203d602011610bd757610bc98183611892565b38611012565b829350602080916001939451815201930191018492610fe5565b80610c0661109a928a611a26565b610fae565b600885036111bf57604051916110b4836117ea565b610a008093369037604051926110c9846117ea565b368437895b605081106111ac57506103fa9492916104046110fe926040519788966361fd13f960e11b88526004880190611969565b8861010483015b605082106111925750602093610b0492508391506001600160a01b03165afa908115610ae1578691611173575b506104495760405162461bcd60e51b815260206004820152601460248201527324b73b30b634b2101c103137b23c90383937b7b360611b6044820152606490fd5b61118c915060203d602011610bd757610bc98183611892565b38611132565b829350602080916001939451815201930191018492611105565b80610c066111ba928a611a26565b6110ce565b600985036112df57604051916111d4836117ce565b610b408093369037604051926111e9846117ce565b368437895b605a81106112cc57506103fa94929161040461121e92604051978896634456e8b360e01b88526004880190611969565b8861010483015b605a82106112b25750602093610c4492508391506001600160a01b03165afa908115610ae1578691611293575b50610cb25760405162461bcd60e51b815260206004820152601460248201527324b73b30b634b2101c903137b23c90383937b7b360611b6044820152606490fd5b6112ac915060203d602011610bd757610bc98183611892565b38611252565b829350602080916001939451815201930191018492611225565b80610c066112da928a611a26565b6111ee565b600a850361140057604051916112f4836117b2565b610c80809336903760405192611309846117b2565b368437895b606481106113ed57506103fa94929161040461133e9260405197889663170ac5a560e11b88526004880190611969565b8861010483015b606482106113d35750602093610d8492508391506001600160a01b03165afa908115610ae15786916113b4575b50610cb25760405162461bcd60e51b815260206004820152601560248201527424b73b30b634b2101898103137b23c90383937b7b360591b6044820152606490fd5b6113cd915060203d602011610bd757610bc98183611892565b38611372565b829350602080916001939451815201930191018492611345565b80610c066113fb928a611a26565b61130e565b60405162461bcd60e51b815260206004820152601860248201527f496e76616c6964206e756d626572206f6620626f6469657300000000000000006044820152606490fd5b60405162461bcd60e51b815260206004820152601060248201526f24b73b30b634b2103b32b934b334b2b960811b6044820152606490fd5b9092506020813d6020116114bd575b8161149960209383611892565b810103126114b957516001600160a01b03811681036114b957913861038b565b8880fd5b3d915061148c565b6040513d8b823e3d90fd5b60405162461bcd60e51b8152602060048201526014602482015273092dcecc2d8d2c840d2dce0eae840d8cadccee8d60631b6044820152606490fd5b935095506080833d608011611542575b8161152960809383611892565b81010312610b6857606060208401519301519538610334565b3d915061151c565b6040513d89823e3d90fd5b81358152602091820191016102ef565b634e487b7160e01b86526041600452602486fd5b813581526020918201910161028a565b36601f83011215610aa0576040516115a081611797565b8060408401368111610a755784915b8183106115ca5750505081602091604093520191019061025a565b82358152602092830192016115af565b813581526020918201910161022c565b50346100f65760203660031901126100f6576004356001600160a01b038116908190036101f3576116196118b3565b6bffffffffffffffffffffffff60a01b6002541617600255604051f35b50346100f657806003193601126100f657546040516001600160a01b039091168152602090f35b50346100f657806003193601126100f6576116766118b3565b80546001600160a01b0319811682556040519082906001600160a01b03167f8be0079c531659141344cd1fd0a4f28419497f9722a3daafe3b4186f6b6457e08284a3f35b50346100f657806003193601126100f6576002546040516001600160a01b039091168152602090f35b50346100f657806003193601126100f6576020604051670de0b6b3a76400008152f35b50346100f65760203660031901126100f6576004356001600160a01b038116908190036101f3576117356118b3565b6bffffffffffffffffffffffff60a01b6001541617600155604051f35b6001600160401b03811161176557604052565b634e487b7160e01b600052604160045260246000fd5b61014081019081106001600160401b0382111761176557604052565b604081019081106001600160401b0382111761176557604052565b610c8081019081106001600160401b0382111761176557604052565b610b4081019081106001600160401b0382111761176557604052565b610a0081019081106001600160401b0382111761176557604052565b6108c081019081106001600160401b0382111761176557604052565b61078081019081106001600160401b0382111761176557604052565b61064081019081106001600160401b0382111761176557604052565b61050081019081106001600160401b0382111761176557604052565b6103c081019081106001600160401b0382111761176557604052565b90601f801991011681019081106001600160401b0382111761176557604052565b6000546001600160a01b031633036118c757565b606460405162461bcd60e51b815260206004820152602060248201527f4f776e61626c653a2063616c6c6572206973206e6f7420746865206f776e65726044820152fd5b806000190460051181151516610aa45760050290565b7f33333333333333333333333333333333333333333333333333333333333333338111600116610aa45760050290565b9081602091031261004f5751801515810361004f5790565b6000915b6002831061197a57505050565b60019082518152602080910192019201919061196d565b9060009182915b6002808410156119dd5782518590835b8383106119c657505050506020604060019201920192019190611998565b6001908251815260208091019201920191906119a8565b5050505050565b81198111610aa4570190565b6000198114610aa45760010190565b90600a811015611a105760051b0190565b634e487b7160e01b600052603260045260246000fd5b8051821015611a105760209160051b01019056fea264697066735822122051f81847489891bed1b914e336f598a72f6c65f298b52c4dc1d79e6f6f84d34664736f6c634300080f0033",
	"linkReferences": {},
	"deployedLinkReferences": {}
}