{
  "_format": "hh-sol-artifact-1",
  "contractName": "Solver",
  "sourceName": "contracts/Solver.sol",
  "abi": [
    {
      "inputs": [
        {
          "internalType": "address payable",
          "name": "problems_",
          "type": "address"
        },
        {
          "internalType": "address",
          "name": "tocks_",
          "type": "address"
        }
      ],
      "stateMutability": "nonpayable",
      "type": "constructor"
    },
    {
      "anonymous": false,
      "inputs": [
        {
          "indexed": true,
          "internalType": "address",
          "name": "previousOwner",
          "type": "address"
        },
        {
          "indexed": true,
          "internalType": "address",
          "name": "newOwner",
          "type": "address"
        }
      ],
      "name": "OwnershipTransferred",
      "type": "event"
    },
    {
      "anonymous": false,
      "inputs": [
        {
          "indexed": true,
          "internalType": "uint256",
          "name": "problemId",
          "type": "uint256"
        },
        {
          "indexed": true,
          "internalType": "uint256",
          "name": "previousTickCount",
          "type": "uint256"
        },
        {
          "indexed": true,
          "internalType": "uint256",
          "name": "tickCount",
          "type": "uint256"
        }
      ],
      "name": "Solved",
      "type": "event"
    },
    {
      "stateMutability": "nonpayable",
      "type": "fallback"
    },
    {
      "inputs": [
        {
          "internalType": "uint256",
          "name": "",
          "type": "uint256"
        }
      ],
      "name": "bodyBoost",
      "outputs": [
        {
          "internalType": "uint256",
          "name": "",
          "type": "uint256"
        }
      ],
      "stateMutability": "view",
      "type": "function"
    },
    {
      "inputs": [],
      "name": "owner",
      "outputs": [
        {
          "internalType": "address",
          "name": "",
          "type": "address"
        }
      ],
      "stateMutability": "view",
      "type": "function"
    },
    {
      "inputs": [],
      "name": "problems",
      "outputs": [
        {
          "internalType": "address payable",
          "name": "",
          "type": "address"
        }
      ],
      "stateMutability": "view",
      "type": "function"
    },
    {
      "inputs": [],
      "name": "renounceOwnership",
      "outputs": [],
      "stateMutability": "nonpayable",
      "type": "function"
    },
    {
      "inputs": [
        {
          "internalType": "uint256",
          "name": "problemId",
          "type": "uint256"
        },
        {
          "internalType": "uint256",
          "name": "tickCount",
          "type": "uint256"
        },
        {
          "internalType": "uint256[2]",
          "name": "a",
          "type": "uint256[2]"
        },
        {
          "internalType": "uint256[2][2]",
          "name": "b",
          "type": "uint256[2][2]"
        },
        {
          "internalType": "uint256[2]",
          "name": "c",
          "type": "uint256[2]"
        },
        {
          "internalType": "uint256[]",
          "name": "input",
          "type": "uint256[]"
        }
      ],
      "name": "solveProblem",
      "outputs": [],
      "stateMutability": "nonpayable",
      "type": "function"
    },
    {
      "inputs": [],
      "name": "tocks",
      "outputs": [
        {
          "internalType": "address",
          "name": "",
          "type": "address"
        }
      ],
      "stateMutability": "view",
      "type": "function"
    },
    {
      "inputs": [
        {
          "internalType": "address",
          "name": "newOwner",
          "type": "address"
        }
      ],
      "name": "transferOwnership",
      "outputs": [],
      "stateMutability": "nonpayable",
      "type": "function"
    },
    {
      "inputs": [
        {
          "internalType": "address payable",
          "name": "problems_",
          "type": "address"
        }
      ],
      "name": "updateProblemsAddress",
      "outputs": [],
      "stateMutability": "nonpayable",
      "type": "function"
    },
    {
      "inputs": [
        {
          "internalType": "address",
          "name": "tocks_",
          "type": "address"
        }
      ],
      "name": "updateTocksAddress",
      "outputs": [],
      "stateMutability": "nonpayable",
      "type": "function"
    }
  ],
  "bytecode": "0x6080346101615762001b99906001600160401b03601f38849003908101601f19168301908282118483101761016657808491604096879485528339810103126101615781516001600160a01b039081811690819003610161576020809401519382851680950361016157600080549460018060a01b031995338782161783558851953391167f8be0079c531659141344cd1fd0a4f28419497f9722a3daafe3b4186f6b6457e08488a361016085019081118582101761014d5787929192528184528181850152818785015260019384606082015260026080820152600460a0820152600860c0820152601060e0820152816101008201528761012082015260806101408201529084600393925b600b841061013657509150508491505416179055600254161760025551611a1c90816200017d8239f35b805160ff168555938101939201918590820161010c565b634e487b7160e01b82526041600452602482fd5b600080fd5b634e487b7160e01b600052604160045260246000fdfe60806040526004361015610054575b3461004f5760405162461bcd60e51b81526020600482015260146024820152733737903330b6363130b1b590333ab731ba34b7b760611b6044820152606490fd5b600080fd5b6000803560e01c8063087c32e6146116b25780633e301fd014611689578063715018a61461162c5780638da5cb5b14611605578063952ef7ef146115b9578063ab85f1f4146101ec578063cd190a92146101bb578063f2fde38b146100ee5763f9df988f146100c3575061000e565b346100eb57806003193601126100eb576001546040516001600160a01b039091168152602090f35b80fd5b50346100eb5760203660031901126100eb576001600160a01b03600435818116908190036101b75761011e61185f565b801561016357600080546001600160a01b03198116831782556040519316907f8be0079c531659141344cd1fd0a4f28419497f9722a3daafe3b4186f6b6457e09084a3f35b60405162461bcd60e51b815260206004820152602660248201527f4f776e61626c653a206e6577206f776e657220697320746865207a65726f206160448201526564647265737360d01b6064820152608490fd5b8280fd5b50346100eb5760203660031901126100eb57600435600b8110156101e85760209060030154604051908152f35b5080fd5b50346100eb576101603660031901126100eb5736606312156100eb5760405161021481611743565b80366084116101b7576044905b608482106115a95750503660a312156101e8576040519061024182611743565b813661010411610864576084905b61010482106115585750503661012312156101b75760405161027081611743565b803661014411610a6f57610104905b610144821061154857505061014435906001600160401b03918281116108555736602382011215610855578060040135928311611534578260051b604051936102cb602083018661183e565b84526024602085019183010191368311610a4457602401905b8282106115245750505060018060a01b036001541692604051916375d279b360e11b83526004356004840152608083602481885afa95861561151957879388976114db575b50610333846118b7565b8060001904600211811515166108685760011b85510361149f57604051916343569ffb60e01b835284600484015260243560248401526020836044818a5afa92831561149457899361144c575b506001600160a01b038316156114145760038503610be757604051916103a583611822565b6103c08093369037604051926103ba84611822565b368437895b601e8110610bc757506103ef9492916103f9610403926040519788966301d28c8160e31b88526004880190611915565b604486019061193d565b60c4840190611915565b8861010483015b601e8210610bad57506020936104c492508391506001600160a01b03165afa908115610ab0578691610b7e575b5015610b42575b84604051936310211ca160e21b8552600435600486015261014085602481845afa948515610859578295610abb575b5061047a60243587611990565b90803b156101b7576044839260405194859384926304b24e8560e01b8452600435600485015260248401525af18015610ab057610a9d575b506002546001600160a01b0316600b821015610a8957816003015490602435600019048211602435151516610a73578691813b156101b75782916044839260405194859384926340c10f1960e01b84523360048501526024350260248401525af1801561085957610a5b575b5061012060405161052e81611727565b8281528260208201528260408201528260608201528260808201528260a08201528260c08201528260e0820152826101008201520152845b81811061059f576040518690602435876004357f0c4d840a1a0bafcdc673f07982de54d3fb2f2628e86cf3b9116675b01a1197028585a4f35b6001546001600160a01b03166105b582866119ab565b516040519063618faeb560e11b82526004356004830152602482015261014081604481855afa908115610a505788916109aa575b50606081015161061361060d6105fe876118cd565b610607876118b7565b90611990565b876119d2565b51036109705761062b610625846118b7565b866119d2565b516060820152608081015161064b610642866118cd565b610607866118b7565b60011981116108b25760016106619101876119d2565b510361093657610670836118b7565b60011981116108685760016106869101866119d2565b51608082015260a081015161069d610642866118cd565b60021981116108b25760026106b39101876119d2565b51036108fe576106c2836118b7565b60021981116108685760026106d89101866119d2565b5160a082015260c08101516106ef610642866118cd565b60031981116108b25760036107059101876119d2565b51036108c657610714836118b7565b600319811161086857600361072a9101866119d2565b5160c082015260e0810151610741610642866118cd565b60041981116108b25760046107579101876119d2565b510361087c57610766836118b7565b6004198111610868579061077f60048a949301876119d2565b5160e082015261078f84886119ab565b5190823b1561086457610184849283610120956040519687958694630e9776ab60e11b865260043560048701526024860152805160448601526020810151606486015260408101516084860152606081015160a4860152608081015160c486015260a081015160e486015260c081015161010486015260e081015161012486015261010081015161014486015201516101648401525af1801561085957610841575b505061083c9061199c565b610566565b61084a906116fe565b610855578538610831565b8580fd5b6040513d84823e3d90fd5b8380fd5b634e487b7160e01b89526011600452602489fd5b60405162461bcd60e51b815260206004820152600e60248201526d496e76616c69642072616469757360901b6044820152606490fd5b634e487b7160e01b8a52601160045260248afd5b60405162461bcd60e51b815260206004820152601060248201526f496e76616c696420766563746f72207960801b6044820152606490fd5b60405162461bcd60e51b815260206004820152601060248201526f092dcecc2d8d2c840eccac6e8dee440f60831b6044820152606490fd5b60405162461bcd60e51b8152602060048201526012602482015271496e76616c696420706f736974696f6e207960701b6044820152606490fd5b60405162461bcd60e51b8152602060048201526012602482015271092dcecc2d8d2c840e0dee6d2e8d2dedc40f60731b6044820152606490fd5b9050610140813d61014011610a48575b816109c8610140938361183e565b81010312610a4457610120604051916109e083611727565b805183526020810151602084015260408101516040840152606081015160608401526080810151608084015260a081015160a084015260c081015160c084015260e081015160e08401526101008101516101008401520151610120820152386105e9565b8780fd5b3d91506109ba565b6040513d8a823e3d90fd5b610a64906116fe565b610a6f57843861051e565b8480fd5b634e487b7160e01b600052601160045260246000fd5b634e487b7160e01b86526032600452602486fd5b610aa9909591956116fe565b93386104b2565b6040513d88823e3d90fd5b915093506101403d61014011610b3b575b610ad6818361183e565b81019061014081830312610b375781601f82011215610b375760405191610afc83611727565b8290610140830111610a44579087929181905b61014083018210610b2457505050933861046d565b8151815289945060209182019101610b0f565b8680fd5b503d610acc565b60405162461bcd60e51b815260206004820152601460248201527324b73b30b634b21019903137b23c90383937b7b360611b6044820152606490fd5b610ba0915060203d602011610ba6575b610b98818361183e565b8101906118fd565b38610437565b503d610b8e565b82935060208091600193945181520193019101849261040a565b80610bd5610be2928a6119d2565b518160051b86015261199c565b6103bf565b60048503610d0e5760405191610bfc83611806565b610500809336903760405192610c1184611806565b368437895b60288110610cfb57506103ef9492916103f9610c46926040519788966319da330f60e01b88526004880190611915565b8861010483015b60288210610ce1575060209361060492508391506001600160a01b03165afa908115610ab0578691610cc2575b5015610c86575b61043e565b60405162461bcd60e51b815260206004820152601460248201527324b73b30b634b2101a103137b23c90383937b7b360611b6044820152606490fd5b610cdb915060203d602011610ba657610b98818361183e565b38610c7a565b829350602080916001939451815201930191018492610c4d565b80610bd5610d09928a6119d2565b610c16565b60058503610e2e5760405191610d23836117ea565b610640809336903760405192610d38846117ea565b368437895b60328110610e1b57506103ef9492916103f9610d6d9260405197889663a63bed3760e01b88526004880190611915565b8861010483015b60328210610e01575060209361074492508391506001600160a01b03165afa908115610ab0578691610de2575b5061043e5760405162461bcd60e51b815260206004820152601460248201527324b73b30b634b2101a903137b23c90383937b7b360611b6044820152606490fd5b610dfb915060203d602011610ba657610b98818361183e565b38610da1565b829350602080916001939451815201930191018492610d74565b80610bd5610e29928a6119d2565b610d3d565b60068503610f4e5760405191610e43836117ce565b610780809336903760405192610e58846117ce565b368437895b603c8110610f3b57506103ef9492916103f9610e8d9260405197889663a54a2bcf60e01b88526004880190611915565b8861010483015b603c8210610f21575060209361088492508391506001600160a01b03165afa908115610ab0578691610f02575b5061043e5760405162461bcd60e51b815260206004820152601460248201527324b73b30b634b2101b103137b23c90383937b7b360611b6044820152606490fd5b610f1b915060203d602011610ba657610b98818361183e565b38610ec1565b829350602080916001939451815201930191018492610e94565b80610bd5610f49928a6119d2565b610e5d565b6007850361106e5760405191610f63836117b2565b6108c0809336903760405192610f78846117b2565b368437895b6046811061105b57506103ef9492916103f9610fad92604051978896632cb278a960e11b88526004880190611915565b8861010483015b6046821061104157506020936109c492508391506001600160a01b03165afa908115610ab0578691611022575b5061043e5760405162461bcd60e51b815260206004820152601460248201527324b73b30b634b2101b903137b23c90383937b7b360611b6044820152606490fd5b61103b915060203d602011610ba657610b98818361183e565b38610fe1565b829350602080916001939451815201930191018492610fb4565b80610bd5611069928a6119d2565b610f7d565b6008850361118e576040519161108383611796565b610a0080933690376040519261109884611796565b368437895b6050811061117b57506103ef9492916103f96110cd926040519788966361fd13f960e11b88526004880190611915565b8861010483015b605082106111615750602093610b0492508391506001600160a01b03165afa908115610ab0578691611142575b5061043e5760405162461bcd60e51b815260206004820152601460248201527324b73b30b634b2101c103137b23c90383937b7b360611b6044820152606490fd5b61115b915060203d602011610ba657610b98818361183e565b38611101565b8293506020809160019394518152019301910184926110d4565b80610bd5611189928a6119d2565b61109d565b600985036112ae57604051916111a38361177a565b610b408093369037604051926111b88461177a565b368437895b605a811061129b57506103ef9492916103f96111ed92604051978896634456e8b360e01b88526004880190611915565b8861010483015b605a82106112815750602093610c4492508391506001600160a01b03165afa908115610ab0578691611262575b50610c815760405162461bcd60e51b815260206004820152601460248201527324b73b30b634b2101c903137b23c90383937b7b360611b6044820152606490fd5b61127b915060203d602011610ba657610b98818361183e565b38611221565b8293506020809160019394518152019301910184926111f4565b80610bd56112a9928a6119d2565b6111bd565b600a85036113cf57604051916112c38361175e565b610c808093369037604051926112d88461175e565b368437895b606481106113bc57506103ef9492916103f961130d9260405197889663170ac5a560e11b88526004880190611915565b8861010483015b606482106113a25750602093610d8492508391506001600160a01b03165afa908115610ab0578691611383575b50610c815760405162461bcd60e51b815260206004820152601560248201527424b73b30b634b2101898103137b23c90383937b7b360591b6044820152606490fd5b61139c915060203d602011610ba657610b98818361183e565b38611341565b829350602080916001939451815201930191018492611314565b80610bd56113ca928a6119d2565b6112dd565b60405162461bcd60e51b815260206004820152601860248201527f496e76616c6964206e756d626572206f6620626f6469657300000000000000006044820152606490fd5b60405162461bcd60e51b815260206004820152601060248201526f24b73b30b634b2103b32b934b334b2b960811b6044820152606490fd5b9092506020813d60201161148c575b816114686020938361183e565b8101031261148857516001600160a01b0381168103611488579138610380565b8880fd5b3d915061145b565b6040513d8b823e3d90fd5b60405162461bcd60e51b8152602060048201526014602482015273092dcecc2d8d2c840d2dce0eae840d8cadccee8d60631b6044820152606490fd5b935095506080833d608011611511575b816114f86080938361183e565b81010312610b3757606060208401519301519538610329565b3d91506114eb565b6040513d89823e3d90fd5b81358152602091820191016102e4565b634e487b7160e01b86526041600452602486fd5b813581526020918201910161027f565b36601f83011215610a6f5760405161156f81611743565b8060408401368111610a445784915b8183106115995750505081602091604093520191019061024f565b823581526020928301920161157e565b8135815260209182019101610221565b50346100eb5760203660031901126100eb576004356001600160a01b038116908190036101e8576115e861185f565b6bffffffffffffffffffffffff60a01b6002541617600255604051f35b50346100eb57806003193601126100eb57546040516001600160a01b039091168152602090f35b50346100eb57806003193601126100eb5761164561185f565b80546001600160a01b0319811682556040519082906001600160a01b03167f8be0079c531659141344cd1fd0a4f28419497f9722a3daafe3b4186f6b6457e08284a3f35b50346100eb57806003193601126100eb576002546040516001600160a01b039091168152602090f35b50346100eb5760203660031901126100eb576004356001600160a01b038116908190036101e8576116e161185f565b6bffffffffffffffffffffffff60a01b6001541617600155604051f35b6001600160401b03811161171157604052565b634e487b7160e01b600052604160045260246000fd5b61014081019081106001600160401b0382111761171157604052565b604081019081106001600160401b0382111761171157604052565b610c8081019081106001600160401b0382111761171157604052565b610b4081019081106001600160401b0382111761171157604052565b610a0081019081106001600160401b0382111761171157604052565b6108c081019081106001600160401b0382111761171157604052565b61078081019081106001600160401b0382111761171157604052565b61064081019081106001600160401b0382111761171157604052565b61050081019081106001600160401b0382111761171157604052565b6103c081019081106001600160401b0382111761171157604052565b90601f801991011681019081106001600160401b0382111761171157604052565b6000546001600160a01b0316330361187357565b606460405162461bcd60e51b815260206004820152602060248201527f4f776e61626c653a2063616c6c6572206973206e6f7420746865206f776e65726044820152fd5b806000190460051181151516610a735760050290565b7f33333333333333333333333333333333333333333333333333333333333333338111600116610a735760050290565b9081602091031261004f5751801515810361004f5790565b6000915b6002831061192657505050565b600190825181526020809101920192019190611919565b9060009182915b6002808410156119895782518590835b83831061197257505050506020604060019201920192019190611944565b600190825181526020809101920192019190611954565b5050505050565b81198111610a73570190565b6000198114610a735760010190565b90600a8110156119bc5760051b0190565b634e487b7160e01b600052603260045260246000fd5b80518210156119bc5760209160051b01019056fea26469706673582212202e40e6448786827fd8ef7bf9484628256ae04df5679c42f99a24e44cf781899b64736f6c634300080f0033",
  "linkReferences": {},
  "deployedLinkReferences": {}
}