{
  "_format": "hh-sol-artifact-1",
  "contractName": "Metadata",
  "sourceName": "contracts/Metadata.sol",
  "abi": [
    {
      "inputs": [],
      "stateMutability": "nonpayable",
      "type": "constructor"
    },
    {
      "anonymous": false,
      "inputs": [
        {
          "indexed": true,
          "internalType": "address",
          "name": "previousOwner",
          "type": "address"
        },
        {
          "indexed": true,
          "internalType": "address",
          "name": "newOwner",
          "type": "address"
        }
      ],
      "name": "OwnershipTransferred",
      "type": "event"
    },
    {
      "inputs": [
        {
          "internalType": "uint256",
          "name": "id",
          "type": "uint256"
        }
      ],
      "name": "exists",
      "outputs": [
        {
          "internalType": "bool",
          "name": "",
          "type": "bool"
        }
      ],
      "stateMutability": "view",
      "type": "function"
    },
    {
      "inputs": [
        {
          "internalType": "uint256",
          "name": "tokenId",
          "type": "uint256"
        }
      ],
      "name": "getHTML",
      "outputs": [
        {
          "internalType": "string",
          "name": "",
          "type": "string"
        }
      ],
      "stateMutability": "view",
      "type": "function"
    },
    {
      "inputs": [
        {
          "internalType": "uint256",
          "name": "tokenId",
          "type": "uint256"
        }
      ],
      "name": "getMetadata",
      "outputs": [
        {
          "internalType": "string",
          "name": "",
          "type": "string"
        }
      ],
      "stateMutability": "view",
      "type": "function"
    },
    {
      "inputs": [
        {
          "internalType": "uint256",
          "name": "tokenId",
          "type": "uint256"
        }
      ],
      "name": "getName",
      "outputs": [
        {
          "internalType": "string",
          "name": "",
          "type": "string"
        }
      ],
      "stateMutability": "view",
      "type": "function"
    },
    {
      "inputs": [
        {
          "internalType": "uint256",
          "name": "tokenId",
          "type": "uint256"
        }
      ],
      "name": "getPath",
      "outputs": [
        {
          "internalType": "string",
          "name": "",
          "type": "string"
        }
      ],
      "stateMutability": "view",
      "type": "function"
    },
    {
      "inputs": [
        {
          "internalType": "uint256",
          "name": "tokenId",
          "type": "uint256"
        }
      ],
      "name": "getSVG",
      "outputs": [
        {
          "internalType": "string",
          "name": "",
          "type": "string"
        }
      ],
      "stateMutability": "view",
      "type": "function"
    },
    {
      "inputs": [],
      "name": "owner",
      "outputs": [
        {
          "internalType": "address",
          "name": "",
          "type": "address"
        }
      ],
      "stateMutability": "view",
      "type": "function"
    },
    {
      "inputs": [],
      "name": "problems",
      "outputs": [
        {
          "internalType": "address payable",
          "name": "",
          "type": "address"
        }
      ],
      "stateMutability": "view",
      "type": "function"
    },
    {
      "inputs": [],
      "name": "renounceOwnership",
      "outputs": [],
      "stateMutability": "nonpayable",
      "type": "function"
    },
    {
      "inputs": [
        {
          "internalType": "bytes32",
          "name": "seed",
          "type": "bytes32"
        }
      ],
      "name": "seedToColor",
      "outputs": [
        {
          "internalType": "string",
          "name": "",
          "type": "string"
        }
      ],
      "stateMutability": "view",
      "type": "function"
    },
    {
      "inputs": [
        {
          "internalType": "address",
          "name": "newOwner",
          "type": "address"
        }
      ],
      "name": "transferOwnership",
      "outputs": [],
      "stateMutability": "nonpayable",
      "type": "function"
    },
    {
      "inputs": [
        {
          "internalType": "address payable",
          "name": "problems_",
          "type": "address"
        }
      ],
      "name": "updateProblemsAddress",
      "outputs": [],
      "stateMutability": "nonpayable",
      "type": "function"
    }
  ],
  "bytecode": "0x6080806040523461005b5760008054336001600160a01b0319821681178355916001600160a01b03909116907f8be0079c531659141344cd1fd0a4f28419497f9722a3daafe3b4186f6b6457e09084a361184f90816100618239f35b600080fdfe60806040526004361015610013575b600080fd5b60003560e01c8063087c32e614610103578063102581d2146100fa5780634f558e79146100f15780636b8ff574146100e8578063715018a6146100df5780638da5cb5b146100d6578063a574cea4146100cd578063be985ac9146100c4578063e1765073146100bb578063e82fedd7146100b2578063f2fde38b146100a95763f9df988f146100a157600080fd5b61000e6105f1565b5061000e610524565b5061000e610504565b5061000e6104ea565b5061000e6104d0565b5061000e6102cb565b5061000e6102a1565b5061000e61023f565b5061000e610225565b5061000e610202565b5061000e6101d8565b5061000e61011d565b6001600160a01b0381160361000e57565b503461000e57602036600319011261000e5760043561013b8161010c565b61014361061b565b600180546001600160a01b0319166001600160a01b0392909216919091179055005b602090600319011261000e5760043590565b918091926000905b828210610197575011610190575050565b6000910152565b9150806020918301518186015201829161017f565b604091602082526101cc8151809281602086015260208686019101610177565b601f01601f1916010190565b503461000e576101fe6101f26101ed36610165565b610b26565b604051918291826101ac565b0390f35b503461000e57602061021b61021636610165565b6106fe565b6040519015158152f35b503461000e576101fe6101f261023a36610165565b610ade565b503461000e5760008060031936011261029e5761025a61061b565b80546001600160a01b0319811682556040519082906001600160a01b03167f8be0079c531659141344cd1fd0a4f28419497f9722a3daafe3b4186f6b6457e08284a3f35b80fd5b503461000e57600036600319011261000e576000546040516001600160a01b039091168152602090f35b503461000e576102da36610165565b6102e3816106fe565b6102ec9061078c565b6102f581610ade565b6102fe82610be9565b9161030890610b26565b604051605b60f81b60208201527f7b2274726169745f74797065223a2241534446222c2276616c7565223a22000060218201526000603f8201527f227d2c207b2274726169745f74797065223a224153444632222c2276616c7565605f82015262111d1160e91b607f8201526001608282015262227d5d60e81b60a282015260858152906103958261068a565b604051683d913730b6b2911d1160b91b6020820152938493602985016103ba916107c9565b7f222c20226465736372697074696f6e223a202261736466222c2022696d616765815263111d101160e11b60208201526024016103f6916107c9565b61088b60f21b8152600201711130b734b6b0ba34b7b72fbab936111d101160711b8152601201610425916107c9565b61088b60f21b81526002016d01130ba3a3934b13aba32b9911d160951b8152600e01610450916107c9565b607d60f81b81526001010390601f1991828101825261046f90826106cf565b610478906109f2565b6040517f646174613a6170706c69636174696f6e2f6a736f6e3b6261736536342c000000602082015291908290603d82016104b2916107c9565b0390810182526104c290826106cf565b6040516101fe8192826101ac565b503461000e576101fe6101f26104e536610165565b610be9565b503461000e576101fe6101f26104ff36610165565b610f24565b503461000e57602036600319011261000e576101fe6101f26004356115a9565b503461000e57602036600319011261000e576004356105428161010c565b61054a61061b565b6001600160a01b0390811690811561059d57600080546001600160a01b031981168417825560405191939192167f8be0079c531659141344cd1fd0a4f28419497f9722a3daafe3b4186f6b6457e08484a3f35b60405162461bcd60e51b815260206004820152602660248201527f4f776e61626c653a206e6577206f776e657220697320746865207a65726f206160448201526564647265737360d01b6064820152608490fd5b503461000e57600036600319011261000e576001546040516001600160a01b039091168152602090f35b6000546001600160a01b0316330361062f57565b606460405162461bcd60e51b815260206004820152602060248201527f4f776e61626c653a2063616c6c6572206973206e6f7420746865206f776e65726044820152fd5b50634e487b7160e01b600052604160045260246000fd5b60c0810190811067ffffffffffffffff8211176106a657604052565b6106ae610673565b604052565b6020810190811067ffffffffffffffff8211176106a657604052565b90601f8019910116810190811067ffffffffffffffff8211176106a657604052565b506040513d6000823e3d90fd5b6001546040516331a9108f60e11b815260048101929092526001600160a01b0391906020908290602490829086165afa90811561077f575b600091610745575b5016151590565b906020823d8211610777575b8161075e602093836106cf565b8101031261029e5750516107718161010c565b3861073e565b3d9150610751565b6107876106f1565b610736565b1561079357565b60405162461bcd60e51b815260206004820152600e60248201526d1113d154c81393d50811561254d560921b6044820152606490fd5b906107dc60209282815194859201610177565b0190565b60405190610140820182811067ffffffffffffffff8211176106a657604052565b60209067ffffffffffffffff811161081f575b601f01601f19160190565b610827610673565b610814565b60405190610839826106b3565b60008252565b604051906060820182811067ffffffffffffffff8211176108b0575b604052604082527f6768696a6b6c6d6e6f707172737475767778797a303132333435363738392b2f6040837f4142434445464748494a4b4c4d4e4f505152535455565758595a61626364656660208201520152565b6108b8610673565b61085b565b50634e487b7160e01b600052601160045260246000fd5b60029060021981116108e4570190565b6107dc6108bd565b60209060201981116108e4570190565b811981116108e4570190565b8115610912570490565b634e487b7160e01b600052601260045260246000fd5b6001600160fe1b038111600116610940575b60021b90565b6109486108bd565b61093a565b8060001904600411811515166109405760021b90565b7f028f5c28f5c28f5c28f5c28f5c28f5c28f5c28f5c28f5c28f5c28f5c28f5c28f8111600116610994575b60640290565b61099c6108bd565b61098e565b80600019048211811515166109b4570290565b6109bc6108bd565b0290565b906109ca82610801565b6109d760405191826106cf565b82815280926109e8601f1991610801565b0190602036910137565b805115610ad257610a0161083f565b610a1d610a18610a1184516108d4565b6003900490565b610928565b91610a2f610a2a846108ec565b6109c0565b92835280815182019060208501935b828210610a8057505050600390510680600114610a6f57600214610a60575090565b603d60f81b6000199091015290565b50613d3d60f01b6001199091015290565b9091936004906003809401938451600190603f9082828260121c16880101518553828282600c1c16880101518386015382828260061c1688010151600286015316850101519082015301939190610a3e565b50610adb61082c565b90565b610ae79061164c565b610adb602960405180936850726f626c656d202360b81b6020830152610b168151809260208686019101610177565b81010360098101845201826106cf565b610b32610b9d91610be9565b610b9860466040518093753c68746d6c3e3c626f64793e3c696d67207372633d2760501b6020830152610b6f815180926020603686019101610177565b81016f139f1e17b137b23c9f1e17b43a36b61f60811b60368201520360268101845201826106cf565b6109f2565b610adb603660405180937519185d184e9d195e1d0bda1d1b5b0ed8985cd94d8d0b60521b6020830152610bd98151809260208686019101610177565b81010360168101845201826106cf565b610adb610d09610d70610da593610c07610c02826106fe565b61078c565b610d5c610d43610c1f610c1984610f24565b93610ade565b610d3d6040519687957f3c3f786d6c2076657273696f6e3d22312e302220656e636f64696e673d22757460208801527f662d38223f3e3c73766720786d6c6e733d22687474703a2f2f7777772e77332e60408801527f6f72672f323030302f7376672220206865696768743d2231303025222077696460608801527f74683d2231303025222076696577426f783d223020302031303030203130303060808801527f22207374796c653d226261636b67726f756e642d636f6c6f723a677265793b2260a08801526f1f1e39ba3cb6329f1e17b9ba3cb6329f60811b60c088015260d08701906107c9565b7f3c7465787420783d2235302220793d223535302220636c6173733d226e616d65815261111f60f11b602082015260220190565b906107c9565b6c1e17ba32bc3a1f1e17b9bb339f60991b8152600d0190565b0391610b98601f19938481018352826106cf565b6040517f646174613a696d6167652f7376672b786d6c3b6261736536342c0000000000006020820152938491603a8301610d3d565b039081018352826106cf565b919082608091031261000e578151916020810151916060604083015192015190565b90610140808383031261000e5781601f8401121561000e576040519281840184811067ffffffffffffffff821117610e33575b6040528391810192831161000e57905b828210610e235750505090565b8151815260209182019101610e16565b610e3b610673565b610e06565b9081602091031261000e575190565b60019060001981146108e4570190565b50634e487b7160e01b600052603260045260246000fd5b90600a811015610e88575b60051b0190565b610e90610e5f565b610e81565b908161014091031261000e57610ea96107e0565b90805182526020810151602083015260408101516040830152606081015160608301526080810151608083015260a081015160a083015260c081015160c083015260e081015160e08301526101008082015190830152610120809101519082015290565b818110610f18570390565b610f206108bd565b0390565b610f2c61082c565b600154909190610f5290610f46906001600160a01b031681565b6001600160a01b031690565b604080516375d279b360e11b815260048082018590529093608093919291908486602481855afa95861561159c575b600096611569575b508251936310211ca160e21b855261014092838680610faf868683019190602083019252565b0381845afa95861561155c575b60009661152d575b50845192631da686ff60e31b845260209687858581865afa948515611520575b6000956114f1575b509897969594939291906000995b898b1061100f57505050505050505050505090565b909192939495969798999a8989898e896110298288610e76565b51835163618faeb560e11b8152808c018a8152602081019290925292908d908490819060400103818d5afa9283156114e4575b6000936114b5575b508160e08401516110749061094d565b61107d82610963565b611086916108fc565b6110908282610908565b6110998161164c565b926110a3916109a1565b6110ac91610f0d565b6110b59061164c565b916060850194848651906110c891610908565b95516110d486886109a1565b6110dd91610f0d565b956110e79061164c565b956110f19061164c565b9587519687918a8301611103916107c9565b601760f91b8152600101611116916107c9565b0398601f19998a8101885261112b90886106cf565b8101948086519061113b91610908565b95519061114890876109a1565b61115191610f0d565b9461115b9061164c565b946111659061164c565b9487519586918a8301611177916107c9565b601760f91b815260010161118a916107c9565b03898101865261119a90866106cf565b80516111a59061164c565b91875190818a81016111d0906012907103a3930b739b337b93696b7b934b3b4b71d160751b81520190565b6111da908a6107c9565b620383c160ed1b81526003016111f090896107c9565b630383c1d960e51b8152600401038b8101835261120d90836106cf565b6112169061164c565b916101200151611225906115a9565b97519a8b998a01611235916107c9565b7f3c7374796c653e20406b65796672616d6573206d6f7665456c6c6970736500008152601e0161126590846107c9565b670103d901812903d960c51b815260080161128090826107c9565b7f207472616e73666f726d3a20726f74617465283064656729207472616e736c6181527f7465283070782c2031307078293b207d2031303025207b20000000000000000060208201526038016112d5916107c9565b7f207472616e73666f726d3a20726f746174652833363064656729207472616e738152736c617465283070782c2031307078293b207d207d60601b60208201526034016a656c6c697073652369642d60a81b8152600b0161133690836107c9565b7f207b20616e696d6174696f6e3a206d6f7665456c6c6970736500000000000000815260190161136690836107c9565b7f20347320696e66696e697465206c696e6561723b20616e696d6174696f6e2d64815266656c61793a202d60c81b60208201526027016113a5916107c9565b6b399d903e9e17b9ba3cb6329f60a11b8152600c016f3c656c6c697073652069643d2269642d60801b81526010016113dc916107c9565b651110393c9e9160d11b81526006016113f590826107c9565b601760f91b815260010161140990836107c9565b651110393c1e9160d11b8152600601611421916107c9565b601760f91b8152600101611434916107c9565b65111031bc9e9160d11b815260060161144c916107c9565b65111031bc1e9160d11b8152600601611464916107c9565b68222066696c6c3d222360b81b815260090161147f916107c9565b631110179f60e11b815260040103908101825261149c90826106cf565b9a6114a690610e4f565b99989796959493929190610ffa565b6114d69193508d803d106114dd575b6114ce81836106cf565b810190610e95565b9138611064565b503d6114c4565b6114ec6106f1565b61105c565b611512919550883d8a11611519575b61150a81836106cf565b810190610e40565b9338610fec565b503d611500565b6115286106f1565b610fe4565b61154e919650843d8611611555575b61154681836106cf565b810190610dd3565b9438610fc4565b503d61153c565b6115646106f1565b610fbc565b61158a919650853d8711611595575b61158281836106cf565b810190610db1565b505090509438610f89565b503d611578565b6115a46106f1565b610f81565b62ffffff16604051906040820182811067ffffffffffffffff82111761163f575b60405260068252602036818401376005905b60008212156115f057610adb9150156117ce565b80600f61162c92166010811015611632575b6f181899199a1a9b1b9c1cb0b131b232b360811b901a61162284866117af565b5360041c9161178f565b906115dc565b61163a610e5f565b611602565b611647610673565b6115ca565b806000917a184f03e93ff9f4daa797ed6e38ed64bf6a1f01000000000000000080821015611781575b506d04ee2d6d415b85acef810000000080831015611772575b50662386f26fc1000080831015611763575b506305f5e10080831015611754575b5061271080831015611745575b506064821015611735575b600a8092101561172b575b6001908160216116e38287016109c0565b95860101905b6116f5575b5050505090565b600019019083906f181899199a1a9b1b9c1cb0b131b232b360811b8282061a835304918215611726579190826116e9565b6116ee565b91600101916116d2565b91906064600291049101916116c7565b600491939204910191386116bc565b600891939204910191386116af565b601091939204910191386116a0565b6020919392049101913861168e565b604093508104915038611675565b600160ff1b81146117a2575b6000190190565b6117aa6108bd565b61179b565b9060209180518210156117c157010190565b6117c9610e5f565b010190565b156117d557565b606460405162461bcd60e51b815260206004820152602060248201527f537472696e67733a20686578206c656e67746820696e73756666696369656e746044820152fdfea26469706673582212200c8c199697529965077929bdefcb0705282cee083c2591699e6c9f2ad2d74e5e64736f6c634300080f0033",
  "linkReferences": {},
  "deployedLinkReferences": {}
}