{
  "_format": "hh-sol-artifact-1",
  "contractName": "Bodies",
  "sourceName": "contracts/Bodies.sol",
  "abi": [
    {
      "inputs": [
        {
          "internalType": "address payable",
          "name": "problems_",
          "type": "address"
        }
      ],
      "stateMutability": "nonpayable",
      "type": "constructor"
    },
    {
      "anonymous": false,
      "inputs": [
        {
          "indexed": true,
          "internalType": "address",
          "name": "owner",
          "type": "address"
        },
        {
          "indexed": true,
          "internalType": "address",
          "name": "approved",
          "type": "address"
        },
        {
          "indexed": true,
          "internalType": "uint256",
          "name": "tokenId",
          "type": "uint256"
        }
      ],
      "name": "Approval",
      "type": "event"
    },
    {
      "anonymous": false,
      "inputs": [
        {
          "indexed": true,
          "internalType": "address",
          "name": "owner",
          "type": "address"
        },
        {
          "indexed": true,
          "internalType": "address",
          "name": "operator",
          "type": "address"
        },
        {
          "indexed": false,
          "internalType": "bool",
          "name": "approved",
          "type": "bool"
        }
      ],
      "name": "ApprovalForAll",
      "type": "event"
    },
    {
      "anonymous": false,
      "inputs": [
        {
          "indexed": true,
          "internalType": "address",
          "name": "previousOwner",
          "type": "address"
        },
        {
          "indexed": true,
          "internalType": "address",
          "name": "newOwner",
          "type": "address"
        }
      ],
      "name": "OwnershipTransferred",
      "type": "event"
    },
    {
      "anonymous": false,
      "inputs": [
        {
          "indexed": true,
          "internalType": "address",
          "name": "from",
          "type": "address"
        },
        {
          "indexed": true,
          "internalType": "address",
          "name": "to",
          "type": "address"
        },
        {
          "indexed": true,
          "internalType": "uint256",
          "name": "tokenId",
          "type": "uint256"
        }
      ],
      "name": "Transfer",
      "type": "event"
    },
    {
      "anonymous": false,
      "inputs": [
        {
          "indexed": true,
          "internalType": "uint256",
          "name": "bodyId",
          "type": "uint256"
        },
        {
          "indexed": true,
          "internalType": "uint256",
          "name": "problemId",
          "type": "uint256"
        },
        {
          "indexed": true,
          "internalType": "uint256",
          "name": "mintedBodyIndex",
          "type": "uint256"
        },
        {
          "indexed": false,
          "internalType": "uint256",
          "name": "life",
          "type": "uint256"
        },
        {
          "indexed": false,
          "internalType": "bytes32",
          "name": "seed",
          "type": "bytes32"
        },
        {
          "indexed": false,
          "internalType": "bool",
          "name": "addedToProblem",
          "type": "bool"
        }
      ],
      "name": "bodyBorn",
      "type": "event"
    },
    {
      "stateMutability": "nonpayable",
      "type": "fallback"
    },
    {
      "inputs": [
        {
          "internalType": "address",
          "name": "to",
          "type": "address"
        },
        {
          "internalType": "uint256",
          "name": "tokenId",
          "type": "uint256"
        }
      ],
      "name": "approve",
      "outputs": [],
      "stateMutability": "nonpayable",
      "type": "function"
    },
    {
      "inputs": [
        {
          "internalType": "address",
          "name": "owner",
          "type": "address"
        }
      ],
      "name": "balanceOf",
      "outputs": [
        {
          "internalType": "uint256",
          "name": "",
          "type": "uint256"
        }
      ],
      "stateMutability": "view",
      "type": "function"
    },
    {
      "inputs": [
        {
          "internalType": "uint256",
          "name": "",
          "type": "uint256"
        }
      ],
      "name": "bodies",
      "outputs": [
        {
          "internalType": "uint256",
          "name": "problemId",
          "type": "uint256"
        },
        {
          "internalType": "uint256",
          "name": "mintedBodyIndex",
          "type": "uint256"
        },
        {
          "internalType": "uint256",
          "name": "starLvl",
          "type": "uint256"
        },
        {
          "internalType": "uint256",
          "name": "maxStarLvl",
          "type": "uint256"
        },
        {
          "internalType": "bytes32",
          "name": "seed",
          "type": "bytes32"
        }
      ],
      "stateMutability": "view",
      "type": "function"
    },
    {
      "inputs": [
        {
          "internalType": "uint256",
          "name": "bodyID",
          "type": "uint256"
        }
      ],
      "name": "burn",
      "outputs": [],
      "stateMutability": "nonpayable",
      "type": "function"
    },
    {
      "inputs": [],
      "name": "counter",
      "outputs": [
        {
          "internalType": "uint256",
          "name": "",
          "type": "uint256"
        }
      ],
      "stateMutability": "view",
      "type": "function"
    },
    {
      "inputs": [],
      "name": "decimals",
      "outputs": [
        {
          "internalType": "uint256",
          "name": "",
          "type": "uint256"
        }
      ],
      "stateMutability": "view",
      "type": "function"
    },
    {
      "inputs": [
        {
          "internalType": "uint256",
          "name": "tokenId",
          "type": "uint256"
        }
      ],
      "name": "generateSeed",
      "outputs": [
        {
          "internalType": "bytes32",
          "name": "",
          "type": "bytes32"
        }
      ],
      "stateMutability": "view",
      "type": "function"
    },
    {
      "inputs": [
        {
          "internalType": "uint256",
          "name": "tokenId",
          "type": "uint256"
        }
      ],
      "name": "getApproved",
      "outputs": [
        {
          "internalType": "address",
          "name": "",
          "type": "address"
        }
      ],
      "stateMutability": "view",
      "type": "function"
    },
    {
      "inputs": [
        {
          "internalType": "address",
          "name": "owner",
          "type": "address"
        },
        {
          "internalType": "address",
          "name": "operator",
          "type": "address"
        }
      ],
      "name": "isApprovedForAll",
      "outputs": [
        {
          "internalType": "bool",
          "name": "",
          "type": "bool"
        }
      ],
      "stateMutability": "view",
      "type": "function"
    },
    {
      "inputs": [
        {
          "internalType": "address",
          "name": "owner",
          "type": "address"
        },
        {
          "internalType": "uint256",
          "name": "problemId",
          "type": "uint256"
        },
        {
          "internalType": "uint256",
          "name": "mintedBodyIndex",
          "type": "uint256"
        }
      ],
      "name": "mint",
      "outputs": [],
      "stateMutability": "nonpayable",
      "type": "function"
    },
    {
      "inputs": [
        {
          "internalType": "address",
          "name": "owner",
          "type": "address"
        },
        {
          "internalType": "uint256",
          "name": "problemId",
          "type": "uint256"
        },
        {
          "internalType": "uint256",
          "name": "mintedBodyIndex",
          "type": "uint256"
        }
      ],
      "name": "mintAndAddToProblem",
      "outputs": [
        {
          "internalType": "uint256",
          "name": "bodyId",
          "type": "uint256"
        },
        {
          "internalType": "uint256",
          "name": "life",
          "type": "uint256"
        },
        {
          "internalType": "bytes32",
          "name": "seed",
          "type": "bytes32"
        }
      ],
      "stateMutability": "nonpayable",
      "type": "function"
    },
    {
      "inputs": [
        {
          "internalType": "address",
          "name": "owner",
          "type": "address"
        },
        {
          "internalType": "uint256",
          "name": "bodyId",
          "type": "uint256"
        },
        {
          "internalType": "uint256",
          "name": "problemId",
          "type": "uint256"
        },
        {
          "internalType": "uint256",
          "name": "starLvl",
          "type": "uint256"
        }
      ],
      "name": "moveBodyFromProblem",
      "outputs": [],
      "stateMutability": "nonpayable",
      "type": "function"
    },
    {
      "inputs": [
        {
          "internalType": "uint256",
          "name": "bodyId",
          "type": "uint256"
        },
        {
          "internalType": "address",
          "name": "owner",
          "type": "address"
        },
        {
          "internalType": "uint256",
          "name": "problemId",
          "type": "uint256"
        }
      ],
      "name": "moveBodyToProblem",
      "outputs": [
        {
          "internalType": "uint256",
          "name": "mintedBodyIndex",
          "type": "uint256"
        },
        {
          "internalType": "uint256",
          "name": "starLvl",
          "type": "uint256"
        },
        {
          "internalType": "uint256",
          "name": "maxStarLvl",
          "type": "uint256"
        },
        {
          "internalType": "bytes32",
          "name": "seed",
          "type": "bytes32"
        }
      ],
      "stateMutability": "nonpayable",
      "type": "function"
    },
    {
      "inputs": [],
      "name": "name",
      "outputs": [
        {
          "internalType": "string",
          "name": "",
          "type": "string"
        }
      ],
      "stateMutability": "view",
      "type": "function"
    },
    {
      "inputs": [],
      "name": "owner",
      "outputs": [
        {
          "internalType": "address",
          "name": "",
          "type": "address"
        }
      ],
      "stateMutability": "view",
      "type": "function"
    },
    {
      "inputs": [
        {
          "internalType": "uint256",
          "name": "tokenId",
          "type": "uint256"
        }
      ],
      "name": "ownerOf",
      "outputs": [
        {
          "internalType": "address",
          "name": "",
          "type": "address"
        }
      ],
      "stateMutability": "view",
      "type": "function"
    },
    {
      "inputs": [
        {
          "internalType": "address",
          "name": "owner",
          "type": "address"
        },
        {
          "internalType": "uint256",
          "name": "bodyId",
          "type": "uint256"
        }
      ],
      "name": "problemMint",
      "outputs": [],
      "stateMutability": "nonpayable",
      "type": "function"
    },
    {
      "inputs": [],
      "name": "problems",
      "outputs": [
        {
          "internalType": "address payable",
          "name": "",
          "type": "address"
        }
      ],
      "stateMutability": "view",
      "type": "function"
    },
    {
      "inputs": [],
      "name": "renounceOwnership",
      "outputs": [],
      "stateMutability": "nonpayable",
      "type": "function"
    },
    {
      "inputs": [
        {
          "internalType": "address",
          "name": "from",
          "type": "address"
        },
        {
          "internalType": "address",
          "name": "to",
          "type": "address"
        },
        {
          "internalType": "uint256",
          "name": "tokenId",
          "type": "uint256"
        }
      ],
      "name": "safeTransferFrom",
      "outputs": [],
      "stateMutability": "nonpayable",
      "type": "function"
    },
    {
      "inputs": [
        {
          "internalType": "address",
          "name": "from",
          "type": "address"
        },
        {
          "internalType": "address",
          "name": "to",
          "type": "address"
        },
        {
          "internalType": "uint256",
          "name": "tokenId",
          "type": "uint256"
        },
        {
          "internalType": "bytes",
          "name": "data",
          "type": "bytes"
        }
      ],
      "name": "safeTransferFrom",
      "outputs": [],
      "stateMutability": "nonpayable",
      "type": "function"
    },
    {
      "inputs": [
        {
          "internalType": "address",
          "name": "operator",
          "type": "address"
        },
        {
          "internalType": "bool",
          "name": "approved",
          "type": "bool"
        }
      ],
      "name": "setApprovalForAll",
      "outputs": [],
      "stateMutability": "nonpayable",
      "type": "function"
    },
    {
      "inputs": [
        {
          "internalType": "uint256",
          "name": "",
          "type": "uint256"
        }
      ],
      "name": "starLvls",
      "outputs": [
        {
          "internalType": "uint256",
          "name": "",
          "type": "uint256"
        }
      ],
      "stateMutability": "view",
      "type": "function"
    },
    {
      "inputs": [
        {
          "internalType": "bytes4",
          "name": "interfaceId",
          "type": "bytes4"
        }
      ],
      "name": "supportsInterface",
      "outputs": [
        {
          "internalType": "bool",
          "name": "",
          "type": "bool"
        }
      ],
      "stateMutability": "view",
      "type": "function"
    },
    {
      "inputs": [],
      "name": "symbol",
      "outputs": [
        {
          "internalType": "string",
          "name": "",
          "type": "string"
        }
      ],
      "stateMutability": "view",
      "type": "function"
    },
    {
      "inputs": [
        {
          "internalType": "uint256",
          "name": "",
          "type": "uint256"
        }
      ],
      "name": "tockPrice",
      "outputs": [
        {
          "internalType": "uint256",
          "name": "",
          "type": "uint256"
        }
      ],
      "stateMutability": "view",
      "type": "function"
    },
    {
      "inputs": [],
      "name": "tocks",
      "outputs": [
        {
          "internalType": "address",
          "name": "",
          "type": "address"
        }
      ],
      "stateMutability": "view",
      "type": "function"
    },
    {
      "inputs": [
        {
          "internalType": "uint256",
          "name": "tokenId",
          "type": "uint256"
        }
      ],
      "name": "tokenURI",
      "outputs": [
        {
          "internalType": "string",
          "name": "",
          "type": "string"
        }
      ],
      "stateMutability": "view",
      "type": "function"
    },
    {
      "inputs": [
        {
          "internalType": "address",
          "name": "from",
          "type": "address"
        },
        {
          "internalType": "address",
          "name": "to",
          "type": "address"
        },
        {
          "internalType": "uint256",
          "name": "tokenId",
          "type": "uint256"
        }
      ],
      "name": "transferFrom",
      "outputs": [],
      "stateMutability": "nonpayable",
      "type": "function"
    },
    {
      "inputs": [
        {
          "internalType": "address",
          "name": "newOwner",
          "type": "address"
        }
      ],
      "name": "transferOwnership",
      "outputs": [],
      "stateMutability": "nonpayable",
      "type": "function"
    },
    {
      "inputs": [
        {
          "internalType": "uint256",
          "name": "index",
          "type": "uint256"
        },
        {
          "internalType": "uint256",
          "name": "life",
          "type": "uint256"
        }
      ],
      "name": "updateBodyLife",
      "outputs": [],
      "stateMutability": "nonpayable",
      "type": "function"
    },
    {
      "inputs": [
        {
          "internalType": "address payable",
          "name": "problems_",
          "type": "address"
        }
      ],
      "name": "updateProblemsAddress",
      "outputs": [],
      "stateMutability": "nonpayable",
      "type": "function"
    },
    {
      "inputs": [
        {
          "internalType": "uint256",
          "name": "index",
          "type": "uint256"
        },
        {
          "internalType": "uint256",
          "name": "price",
          "type": "uint256"
        }
      ],
      "name": "updateTockPrice",
      "outputs": [],
      "stateMutability": "nonpayable",
      "type": "function"
    },
    {
      "inputs": [
        {
          "internalType": "address",
          "name": "tocks_",
          "type": "address"
        }
      ],
      "name": "updateTocksAddress",
      "outputs": [],
      "stateMutability": "nonpayable",
      "type": "function"
    }
  ],
  "bytecode": "0x60803462000492576200203a9081380390601f19601f91818385011681019460018060401b0394828710868811176200047c57808392604098895283396020928391810103126200049257516001600160a01b0380821695909186900362000492576200006b620004b8565b946006865265426f6469657360d01b8487015262000088620004b8565b60038152621093d160ea1b858201528651958387116200047c576000968754986001998a81811c9116801562000471575b898210146200045d579081868493116200042d575b508890868311600114620003cc578a92620003c0575b5050600019600383901b1c191690891b1787555b8151938411620003ac5787548881811c91168015620003a1575b878210146200038d57908184869594931162000352575b5086928411600114620002f157508692620002e5575b5050600019600383901b1c191690851b1784555b6006549360018060a01b0319943386821617600655823391167f8be0079c531659141344cd1fd0a4f28419497f9722a3daafe3b4186f6b6457e0868a51a36200019b62000497565b8481528484820152848882015260026060820152600494856080830152600860a0830152601060c08301528460e0830152610100898184015261012092608084820152600b908584915b89600a8410620002cd57505050505060096200020062000497565b918883528888840152888c84015288606084015260056080840152600660a0840152600760c0840152600860e0840152820152600a80938201529085601591925b848410620002b5575050505050503390600654160362000273575050600754161760075551611b489081620004f28239f35b845162461bcd60e51b815291820181905260248201527f4f776e61626c653a2063616c6c6572206973206e6f7420746865206f776e6572604482015260649150fd5b805160ff168355928501929185019187910162000241565b8160ff849351168655019301910190918690620001e5565b0151905038806200013f565b88885286882089959093929116885b888282106200033b575050841162000321575b505050811b01845562000153565b015160001960f88460031b161c1916905538808062000313565b8385015186558b9790950194938401930162000300565b6200037c908a8a52888a208580880160051c8201928b891062000383575b0160051c0190620004d8565b3862000129565b9250819262000370565b634e487b7160e01b88526022600452602488fd5b90607f169062000112565b634e487b7160e01b87526041600452602487fd5b015190503880620000e4565b90848c9416918b80528a8c20928c5b8c828210620004165750508411620003fc575b505050811b018755620000f8565b015160001960f88460031b161c19169055388080620003ee565b8385015186558f97909501949384019301620003db565b62000456908b80528a8c208880860160051c8201928d871062000383570160051c0190620004d8565b38620000ce565b634e487b7160e01b8a52602260045260248afd5b90607f1690620000b9565b634e487b7160e01b600052604160045260246000fd5b600080fd5b6040519061014082016001600160401b038111838210176200047c57604052565b60408051919082016001600160401b038111838210176200047c57604052565b818110620004e4575050565b60008155600101620004d856fe608060409080825260049081361015610057575b5034610052576020606492519162461bcd60e51b835282015260146024820152733737903330b6363130b1b590333ab731ba34b7b760611b6044820152fd5b600080fd5b600090813560e01c90816301ffc9a7146110e35750806306fdde0314611017578063081812fc14610ff6578063087c32e614610fb1578063095ea7b314610e41578063156e29f614610d2857806320a9a7e014610cf457806323b872dd14610cc9578063313ce56714610ca657806331d988b214610c6b5780633c43b50b14610bb65780633e301fd014610b8d578063424611c314610b6557806342842e0e14610b1657806342966c6814610a6b57806344cee73c14610a1957806361bc221a146109fa5780636352211e146109c85780636f2129251461092857806370a0823114610893578063715018a6146108335780638da5cb5b1461080a578063952ef7ef146107c957806395d89b41146106b2578063a22cb465146105e1578063b88d4fde14610550578063bba54ca814610523578063c87b56dd146104b4578063d395cb1314610390578063e70139b814610363578063e805c77d1461031c578063e985e9c5146102ce578063f2fde38b146102025763f9df988f036100135782346101fe57816003193601126101fe5760075490516001600160a01b039091168152602090f35b5080fd5b509190346102ca5760203660031901126102ca5761021e6111a0565b6102266112cd565b6001600160a01b03908116918215610278575060065492826001600160601b0360a01b8516176006555192167f8be0079c531659141344cd1fd0a4f28419497f9722a3daafe3b4186f6b6457e08484a3f35b608490602085519162461bcd60e51b8352820152602660248201527f4f776e61626c653a206e6577206f776e657220697320746865207a65726f206160448201526564647265737360d01b6064820152fd5b8280fd5b5082346101fe57806003193601126101fe5760ff816020936102ee6111a0565b6102f66111b6565b6001600160a01b0391821683526005875283832091168252855220549151911615158152f35b509190346102ca5761032d366111f6565b916103366112cd565b600a8210610343816117ce565b1561035057506015015551f35b634e487b7160e01b855260329052602484fd5b509190346102ca5760203660031901126102ca5735600a8110156102ca5760209250600b01549051908152f35b50346104b15761039f366111cc565b6103ba60018060a09895989794971b03600754163314611861565b6103c481876119f7565b600a6103d081546118a6565b948582558183101561049e57606097610458918460150154956103f28961180a565b809989519361040085611241565b8c8552602085018981528b8087019280845260608801948d8652608089019687528152600960205220955186555160018601555160028501555160038401555191015561044e835482611901565b825490309061159a565b5494857f11d2af26f29275293ddf60830060f807c915c3d847afa3afc7d31dab9aa3f472888651868152886020820152600188820152a481519384526020840152820152f35b634e487b7160e01b815260328452602490fd5b80fd5b5082346101fe5760203660031901126101fe576104f26104ed61051f9435600052600260205260018060a01b0360406000205416151590565b611325565b8181516104fe81611273565b5280519161050b83611273565b82525191829160208352602083019061114f565b0390f35b509190346102ca5760203660031901126102ca5735600a8110156102ca5760209250601501549051908152f35b509190346102ca5760803660031901126102ca5761056c6111a0565b906105756111b6565b916064359167ffffffffffffffff83116105dd57366023840112156105dd5782013592856105a2856112b1565b936105af8751958661128f565b85855236602487830101116101fe57856105da96602460209301838801378501015260443591611437565b51f35b8580fd5b509190346102ca57816003193601126102ca576105fc6111a0565b602435908115158092036106ae576001600160a01b03169133831461066b5750338452600560205282842082855260205282842060ff1981541660ff831617905582519081527f17307eab39ab6107e8899845ad3d59bd9653f200f220920489ca2b5937696c3160203392a351f35b606490602085519162461bcd60e51b8352820152601960248201527f4552433732313a20617070726f766520746f2063616c6c6572000000000000006044820152fd5b8480fd5b508290346104b157806003193601126104b1578151918160019283549384811c918186169586156107bf575b60209687851081146107ac578899509688969785829a52918260001461078557505060011461072a575b50505061051f929161071b91038561128f565b5192828493845283019061114f565b91908693508083527fb10e2d527612073b26eecdfd717e6a320cf44b4afac2b0732d9fcbe2b7fa0cf65b82841061076d575050508201018161071b61051f610708565b8054848a018601528895508794909301928101610754565b60ff19168782015293151560051b8601909301935084925061071b915061051f9050610708565b634e487b7160e01b835260228a52602483fd5b92607f16926106de565b5082346101fe5760203660031901126101fe576107e46111a0565b6107ec6112cd565b60018060a01b03166001600160601b0360a01b600854161760085551f35b5082346101fe57816003193601126101fe5760065490516001600160a01b039091168152602090f35b5082346101fe57816003193601126101fe5761084d6112cd565b600680546001600160a01b0319811690915590519082906001600160a01b03167f8be0079c531659141344cd1fd0a4f28419497f9722a3daafe3b4186f6b6457e08284a3f35b5090346101fe5760203660031901126101fe576001600160a01b036108b66111a0565b169081156108d35760208480858581526003845220549051908152f35b608490602085519162461bcd60e51b8352820152602960248201527f4552433732313a2061646472657373207a65726f206973206e6f7420612076616044820152683634b21037bbb732b960b91b6064820152fd5b509190346102ca5760603660031901126102ca5760809281356109908161094d6111b6565b61097a60018060a01b0361096681600754163314611861565b61096f84611371565b811690831614611ad5565b818552600960205260443587862055309061159a565b815260096020526001838220015492600281832001549281600381852001549320015492815194855260208501528301526060820152f35b508290346104b15760203660031901126104b157506109e960209235611371565b90516001600160a01b039091168152f35b5082346101fe57816003193601126101fe57602090600a549051908152f35b5091346102ca5760203660031901126102ca578060a093833581526009602052208054926001820154926002830154916003840154930154938151958652602086015284015260608301526080820152f35b5091346102ca5760203660031901126102ca578282359160018060a01b03610a9881600754163314611861565b610aa184611371565b50610aab84611371565b94848452602052818320946001600160601b0360a01b95868154169055169384835260036020528183206000198154019055838352600260205281832090815416905551927fddf252ad1be2c89b69c2b068fc378daa952ba7f163c4a11628f55a4df523b3ef8285a4f35b5082346101fe57610b263661120c565b908351926020840184811067ffffffffffffffff821117610b5257856105da9697985052868452611437565b634e487b7160e01b875260418852602487fd5b508290346104b15760203660031901126104b15750610b866020923561180a565b9051908152f35b5082346101fe57816003193601126101fe5760085490516001600160a01b039091168152602090f35b509190346102ca5760803660031901126102ca57610bd26111a0565b60243591610c0060018060a01b03610bef81600754163314611861565b610bf885611371565b163014611ad5565b82855260096020526044358486205403610c375750906105da9181855260096020528484812055606435600285872001553061159a565b606490602085519162461bcd60e51b8352820152600e60248201526d4e6f7420696e2070726f626c656d60901b6044820152fd5b5082346101fe57806003193601126101fe576105da610c886111a0565b610c9d60018060a01b03600754163314611861565b60243590611901565b5082346101fe57816003193601126101fe5760209051670de0b6b3a76400008152f35b5082346101fe576105da610cdc3661120c565b91610cef610cea84336114d2565b6113d5565b61159a565b509190346102ca57610d05366111f6565b91610d0e6112cd565b600a8210610d1b816117ce565b156103505750600b015551f35b509190346102ca57610d39366111cc565b92610d5260018060a09594951b03600754163314611861565b610d5c84836119f7565b610d67600a546118a6565b9182600a55600a851015610e2e5781610e08606092897f11d2af26f29275293ddf60830060f807c915c3d847afa3afc7d31dab9aa3f472958a8a601501988954908c610db28261180a565b93805196610dbf88611241565b80885260208801928352818801938185528c89019586526080890196875281526009602052209551865551600186015551600285015551600384015551910155600a5490611901565b600a5493549084895260096020528789200154875191825260208201528787820152a451f35b634e487b7160e01b875260328252602487fd5b509190346102ca57816003193601126102ca57610e5c6111a0565b602435916001600160a01b03908180610e7486611371565b16931692808414610f6457803314908115610f45575b5015610edc5783865260205283852080546001600160a01b03191683179055610eb283611371565b169251927f8c5be1e5ebec7d5bd14f71427d1e84f3dd0314c0f7b2291e5b200ac8c7c3b9258585a4f35b608490602086519162461bcd60e51b8352820152603d60248201527f4552433732313a20617070726f76652063616c6c6572206973206e6f7420746f60448201527f6b656e206f776e6572206f7220617070726f76656420666f7220616c6c0000006064820152fd5b90508652600560205284862033875260205260ff858720541638610e8a565b855162461bcd60e51b8152602081840152602160248201527f4552433732313a20617070726f76616c20746f2063757272656e74206f776e656044820152603960f91b6064820152608490fd5b509190346102ca5760203660031901126102ca57356001600160a01b038116908190036102ca57610fe06112cd565b6001600160601b0360a01b600754161760075551f35b508290346104b15760203660031901126104b157506109e960209235611397565b508290346104b157806003193601126104b15781519181825492600184811c918186169586156110d9575b60209687851081146107ac578899509688969785829a52918260001461078557505060011461107e5750505061051f929161071b91038561128f565b91908693508280527f290decd9548b62a8d60345a988386fc84ba6bc95484008f6362f93160ef3e5635b8284106110c1575050508201018161071b61051f610708565b8054848a0186015288955087949093019281016110a8565b92607f1692611042565b905082346102ca5760203660031901126102ca573563ffffffff60e01b81168091036102ca57602092506380ac58cd60e01b811490811561113e575b811561112d575b5015158152f35b6301ffc9a760e01b14905083611126565b635b5e139f60e01b8114915061111f565b91908251928382526000905b84821061118857509280602093941161117b575b601f01601f1916010190565b600083828401015261116f565b9060209081808285010151908286010152019061115b565b600435906001600160a01b038216820361005257565b602435906001600160a01b038216820361005257565b6060906003190112610052576004356001600160a01b038116810361005257906024359060443590565b6040906003190112610052576004359060243590565b6060906003190112610052576001600160a01b0390600435828116810361005257916024359081168103610052579060443590565b60a0810190811067ffffffffffffffff82111761125d57604052565b634e487b7160e01b600052604160045260246000fd5b6020810190811067ffffffffffffffff82111761125d57604052565b90601f8019910116810190811067ffffffffffffffff82111761125d57604052565b67ffffffffffffffff811161125d57601f01601f191660200190565b6006546001600160a01b031633036112e157565b606460405162461bcd60e51b815260206004820152602060248201527f4f776e61626c653a2063616c6c6572206973206e6f7420746865206f776e65726044820152fd5b1561132c57565b60405162461bcd60e51b815260206004820152601860248201527f4552433732313a20696e76616c696420746f6b656e20494400000000000000006044820152606490fd5b6000908152600260205260409020546001600160a01b0316611394811515611325565b90565b6000818152600260205260409020546113ba906001600160a01b03161515611325565b6000908152600460205260409020546001600160a01b031690565b156113dc57565b60405162461bcd60e51b815260206004820152602d60248201527f4552433732313a2063616c6c6572206973206e6f7420746f6b656e206f776e6560448201526c1c881bdc88185c1c1c9bdd9959609a1b6064820152608490fd5b9061145b93929161144b610cea84336114d2565b61145683838361159a565b6116ad565b1561146257565b60405162461bcd60e51b81528061147b6004820161147f565b0390fd5b60809060208152603260208201527f4552433732313a207472616e7366657220746f206e6f6e20455243373231526560408201527131b2b4bb32b91034b6b83632b6b2b73a32b960711b60608201520190565b906001600160a01b0380806114e684611371565b16931691838314938415611519575b508315611503575b50505090565b61150f91929350611397565b16143880806114fd565b909350600052600560205260406000208260005260205260ff6040600020541692386114f5565b1561154757565b60405162461bcd60e51b815260206004820152602560248201527f4552433732313a207472616e736665722066726f6d20696e636f72726563742060448201526437bbb732b960d91b6064820152608490fd5b906115c2916115a884611371565b6001600160a01b0393918416928492909183168414611540565b1691821561165c57816115df916115d886611371565b1614611540565b7fddf252ad1be2c89b69c2b068fc378daa952ba7f163c4a11628f55a4df523b3ef60008481526004602052604081206001600160601b0360a01b90818154169055838252600360205260408220600019815401905584825260408220600181540190558582526002602052846040832091825416179055604051a4565b60405162461bcd60e51b8152602060048201526024808201527f4552433732313a207472616e7366657220746f20746865207a65726f206164646044820152637265737360e01b6064820152608490fd5b9293600093909291803b156117c3579484916117079660405180948193630a85bd0160e11b9788845233600485015260018060a01b0380921660248501526044840152608060648401528260209b8c97608483019061114f565b0393165af1849181611783575b50611772575050503d60001461176a573d61172e816112b1565b9061173c604051928361128f565b81528091833d92013e5b805191826117675760405162461bcd60e51b81528061147b6004820161147f565b01fd5b506060611746565b6001600160e01b0319161492509050565b9091508581813d83116117bc575b61179b818361128f565b810103126106ae57516001600160e01b0319811681036106ae579038611714565b503d611791565b505050915050600190565b156117d557565b60405162461bcd60e51b815260206004820152600d60248201526c092dcecc2d8d2c840d2dcc8caf609b1b6044820152606490fd5b6001431061184b57604051602081019182526000194301406040820152604081526060810181811067ffffffffffffffff82111761125d5760405251902090565b634e487b7160e01b600052601160045260246000fd5b1561186857565b60405162461bcd60e51b815260206004820152601660248201527513db9b1e48141c9bd89b195b5cc818d85b8818d85b1b60521b6044820152606490fd5b600019811461184b5760010190565b156118bc57565b60405162461bcd60e51b815260206004820152601c60248201527f4552433732313a20746f6b656e20616c7265616479206d696e746564000000006044820152606490fd5b6001600160a01b031680156119b357600082815260026020526040902054611935906001600160a01b031615155b156118b5565b600082815260026020526040902054611958906001600160a01b0316151561192f565b600081815260036020526040812060018154019055828152600260205260408120826001600160601b0360a01b8254161790557fddf252ad1be2c89b69c2b068fc378daa952ba7f163c4a11628f55a4df523b3ef81604051a4565b606460405162461bcd60e51b815260206004820152602060248201527f4552433732313a206d696e7420746f20746865207a65726f20616464726573736044820152fd5b90600a811015611a9157600b0154670de0b6b3a764000090806000190482118115151661184b57029081611a29575050565b6008546001600160a01b03908116803b1561005257600092836044926040519687958694632770a7eb60e21b865216600485015260248401525af18015611a8557611a715750565b67ffffffffffffffff811161125d57604052565b6040513d6000823e3d90fd5b606460405162461bcd60e51b815260206004820152602060248201527f50726f626c656d20616c7265616479206d696e74656420313020626f646965736044820152fd5b15611adc57565b60405162461bcd60e51b815260206004820152600e60248201526d2737ba103137b23c9037bbb732b960911b6044820152606490fdfea26469706673582212201a3c4989ba83f6c0078d4c287b5280ffbf549e279cdb8cec7a694d9f3271bf3664736f6c634300080f0033",
  "linkReferences": {},
  "deployedLinkReferences": {}
}