{
  "_format": "hh-sol-artifact-1",
  "contractName": "Groth16Verifier",
  "sourceName": "contracts/Nft_4_20Verifier.sol",
  "abi": [
    {
      "inputs": [
        {
          "internalType": "uint256[2]",
          "name": "_pA",
          "type": "uint256[2]"
        },
        {
          "internalType": "uint256[2][2]",
          "name": "_pB",
          "type": "uint256[2][2]"
        },
        {
          "internalType": "uint256[2]",
          "name": "_pC",
          "type": "uint256[2]"
        },
        {
          "internalType": "uint256[40]",
          "name": "_pubSignals",
          "type": "uint256[40]"
        }
      ],
      "name": "verifyProof",
      "outputs": [
        {
          "internalType": "bool",
          "name": "",
          "type": "bool"
        }
      ],
      "stateMutability": "view",
      "type": "function"
    }
  ],
  "bytecode": "0x6080806040523461001657611d30908161001c8239f35b600080fdfe6080604052600436101561001257600080fd5b6000803560e01c6319da330f1461002857600080fd5b3461026857610600366003190112610268576100433661026b565b3660c411610264576100543661027d565b90610604368111610260579161025c916102576020959461040060405261007d6101043561028b565b6100896101243561028b565b6100956101443561028b565b6100a16101643561028b565b6100ad6101843561028b565b6100b96101a43561028b565b6100c56101c43561028b565b6100d16101e43561028b565b6100dd6102043561028b565b6100e96102243561028b565b6100f56102443561028b565b6101016102643561028b565b61010d6102843561028b565b6101196102a43561028b565b6101256102c43561028b565b6101316102e43561028b565b61013d6103043561028b565b6101496103243561028b565b6101556103443561028b565b6101616103643561028b565b61016d6103843561028b565b6101796103a43561028b565b6101856103c43561028b565b6101916103e43561028b565b61019d6104043561028b565b6101a96104243561028b565b6101b56104443561028b565b6101c16104643561028b565b6101cd6104843561028b565b6101d96104a43561028b565b6101e56104c43561028b565b6101f16104e43561028b565b6101fd6105043561028b565b6102096105243561028b565b6102156105443561028b565b6102216105643561028b565b61022d6105843561028b565b6102396105a43561028b565b6102456105c43561028b565b6102516105e43561028b565b3561028b565b61184b565b8152f35b8380fd5b5080fd5b80fd5b9060049160441161027857565b600080fd5b9060c4916101041161027857565b7f30644e72e131a029b85045b68181585d97816a916871ca8d3c208c16d87cfd4711156102b457565b6000805260206000f35b604051907f2a14ec00a8377cf8e18fe585990f798ccf334fe550f89de17a21fe81f116d3e682527f29485fbf14f8bc1b744f2ca99f4322e5abea224fdfe082d2570cce7b322bfbe36020830152604082019081526107cf196040836060816007855a01fa156102b45760409260066080939284938451905260a05160608401525a01fa156102b457565b604051907f05bec3f0e5c8f401bd63810f0bd4a5c0a45c96905d51736dbd95c942e9d19aa682527f049e579ee8dc6ceefd4a921a91aecf1e9d43d0a82e296b29e9c5e3ef4984e47d6020830152604082019081526107cf196040836060816007855a01fa156102b45760409260066080939284938451905260a05160608401525a01fa156102b457565b604051907f0542c8bbc8a7b321027e581429407dfccb3b225831b774e2f4f5346ee25bb01482527f285753bebb23d2d405fb1f53f02b13cd85ab626ffedc46508c5267c31d9b0cb46020830152604082019081526107cf196040836060816007855a01fa156102b45760409260066080939284938451905260a05160608401525a01fa156102b457565b604051907f16d97ff97eb5314eac4db0fe58b8cf2de69f5789bca02c38e36c2360b65ca48d82527f025d5b3922a645dac026a1e76fffe86ae7188d2283d8f0c4833850b639f096ef6020830152604082019081526107cf196040836060816007855a01fa156102b45760409260066080939284938451905260a05160608401525a01fa156102b457565b604051907f17b28c95886cd54b5928ea23792bb98d2a7a45aaba29fb565ffb1d93be0f031e82527f262ab55a2d07a266bfe32be7c07327421cfde2a4f2b84ba890c65ba0211b33996020830152604082019081526107cf196040836060816007855a01fa156102b45760409260066080939284938451905260a05160608401525a01fa156102b457565b604051907f179699ae51fad3758027357048b76c53f843f6f45cad28f2431a888be8c37d3082527e2df9a8616889d8b941fe926a94f4b0f8d1e4e28210e143fc7e1dba4d320ecf6020830152604082019081526107cf196040836060816007855a01fa156102b45760409260066080939284938451905260a05160608401525a01fa156102b457565b604051907f29481849f0b1dd984536523e456d3ed2106b090622ccf72dd1ccd8a48ca5430982527f03d2ce54f48b1186c4bad38524708ca409c996f000b8fa10c9e3156277f13cec6020830152604082019081526107cf196040836060816007855a01fa156102b45760409260066080939284938451905260a05160608401525a01fa156102b457565b604051907f1769b0147b87355eefa1808eb24b65a5e842fc1ebc2ed5a65bb19f53da5c04e682527f0b5eed29f4343f2cbaaf1e67a286c6492a07d4e92b55553eca185f1a97c10f1f6020830152604082019081526107cf196040836060816007855a01fa156102b45760409260066080939284938451905260a05160608401525a01fa156102b457565b604051907f0db6ebf5bd47aeaadbddec6c1f02e9341a4f73dfd91b5c187720f5581e6e5e2f82527f0acc6dc86f91a51f71b0bd4bfd77c3e88844c70a78de90e40d4e16302dc83bf56020830152604082019081526107cf196040836060816007855a01fa156102b45760409260066080939284938451905260a05160608401525a01fa156102b457565b604051907f3049be930c8f994cee9244aeae1bc2d568dfaf7661b1ebb1f8c607643847ec7f82527f171b0a5c03648bfa23a75756b3cda557e8fc367a1fe289882b933efd2e2e14d56020830152604082019081526107cf196040836060816007855a01fa156102b45760409260066080939284938451905260a05160608401525a01fa156102b457565b604051907f107777a9790f3a80c5a694879f0f481ae9ad2ab21990d1ac00f8514e693a211e82527f30210abcb4535480b1d23eeb7650953b9cf949dc38d3a486aaf95bd8b79405766020830152604082019081526107cf196040836060816007855a01fa156102b45760409260066080939284938451905260a05160608401525a01fa156102b457565b604051907f21ebe08a910237366d5482e2ea5bafd557441570795525902c27f913c295f53a82527f0f57c30f8c1a15a9bd9ece0ea8f7bf92f18f722208f69f442055ec37f38896d86020830152604082019081526107cf196040836060816007855a01fa156102b45760409260066080939284938451905260a05160608401525a01fa156102b457565b604051907f28f8f26cacb3a7faf461a3fb17c240c88ea5384db6b2ebd8262ea4748556f7b382527f10c086bbccb495d343560fddc190a0266ab760b6735c0c1439a44b0abfe6224e6020830152604082019081526107cf196040836060816007855a01fa156102b45760409260066080939284938451905260a05160608401525a01fa156102b457565b604051907f2cd1d39f6f73deed916e588d479605170fa7c532fc4a9d5b567f944d08aeb77982527f0f5c2a897143e32d62199a2e1de9b022c9463e60e150992f14a3b54a3d6e2f876020830152604082019081526107cf196040836060816007855a01fa156102b45760409260066080939284938451905260a05160608401525a01fa156102b457565b604051907f2300f696ba427e9073576ec0940e287d117b357d69d117c853d53e7f3f330a8882527f2533c3c374355f68f617f8888041627df8992409b98bb2685ce1773c43e696896020830152604082019081526107cf196040836060816007855a01fa156102b45760409260066080939284938451905260a05160608401525a01fa156102b457565b604051907f26ba82a8db5a7b1305a44892e4685475d968d3eaed3dafad9b9719e4457d46ff82527f28567fa590dde7c1e13e48ed1ebb801494418bd53212e47f3ecd15d12feb68866020830152604082019081526107cf196040836060816007855a01fa156102b45760409260066080939284938451905260a05160608401525a01fa156102b457565b604051907f28bea44e7b5ecd4619df05575bbcd096e962ad053d26efa60cf3afb808c61d2482527f139284b6e459e9b1b2ec4fb6b7f75b621338d2e99a4a1bf3b5a151e4cb36b5026020830152604082019081526107cf196040836060816007855a01fa156102b45760409260066080939284938451905260a05160608401525a01fa156102b457565b604051907f19c73fb4372fcfe33fa8a5d912959c039875c8d2171d43cb243f3d14ea90b77282527f2160a7a55a7771c85288add1bd648759679d2f07ff556b2515577658c05f17e56020830152604082019081526107cf196040836060816007855a01fa156102b45760409260066080939284938451905260a05160608401525a01fa156102b457565b604051907f1de1099388563b1ebb73e7eed4963f8b585bb41e5b10ebd0c1d1a4366927b11082527efec3c496065444a2b68773bd54ca968b5b7c630bef6ff00f019dd566bfe7b16020830152604082019081526107cf196040836060816007855a01fa156102b45760409260066080939284938451905260a05160608401525a01fa156102b457565b604051907f2b76abf261e9dc3631a2368f81ba88b955da2942deaaa11562547e790ad4c56182527f2b7f8282256884a46c86466a18d4acb3b9825be2c53b77950d45371f2d5f69306020830152604082019081526107cf196040836060816007855a01fa156102b45760409260066080939284938451905260a05160608401525a01fa156102b457565b604051907f0a2f2c155e340571b30ce482e5257d82acf683178f4cca4f367d93dd7e6edff282527f21cf63441e03a174b59c6c61236fc84491978ac13e87b6793aa3e0880ec297856020830152604082019081526107cf196040836060816007855a01fa156102b45760409260066080939284938451905260a05160608401525a01fa156102b457565b604051907f2cb9f81cf1211c8eeab6ebb511f8615c03f98b0891b34a89910d927aa431968882527f1deb97557f4ad07d143b0da056ee122d45a57b5afa5122af21c5c667778c0b216020830152604082019081526107cf196040836060816007855a01fa156102b45760409260066080939284938451905260a05160608401525a01fa156102b457565b604051907f12013868e36b9fc70dfe69ce31d88af0d5c01a07b2dfd2715364482c3ad5f0ec82527f19bd10030129f480c68f3cb4d335eff6c2f7b1b66f0de9700f636a5e275238d26020830152604082019081526107cf196040836060816007855a01fa156102b45760409260066080939284938451905260a05160608401525a01fa156102b457565b604051907f14e3adce7b8cc013044d2d5ad6600c202e0535f8cc6639350c75c9045e16ee9282527f2e5c127f6ab6b9839e87cc7c7a0b46eb88d1507fdad45c0d395bf7bc27949fb96020830152604082019081526107cf196040836060816007855a01fa156102b45760409260066080939284938451905260a05160608401525a01fa156102b457565b604051907f2878cd492ffeb61751c9f1db918299b35625bc7731e7d56fb3c1dc42e35fa87782527f2cab54b38ef1dfc2c4ff707a8f7f986f6553f21936a01d5807be5fd96666690a6020830152604082019081526107cf196040836060816007855a01fa156102b45760409260066080939284938451905260a05160608401525a01fa156102b457565b604051907f2a5469460eb1e6c0a2aadc5fccbdb00afef48c347a0a829d75444d98ac0c135882527f24daa002e7813a16cb0426ae1033af8c5d200c25a7a3fa137bda21ac658e47046020830152604082019081526107cf196040836060816007855a01fa156102b45760409260066080939284938451905260a05160608401525a01fa156102b457565b604051907f2ab71ca762f324a44b839fcfb0edca66ab957673f73a8d225ff9a764638e1d5182527f2fc7db69e28ed2138fbd29eb9bf8f4222b48cfb6e95bac5c979b645c3daff05d6020830152604082019081526107cf196040836060816007855a01fa156102b45760409260066080939284938451905260a05160608401525a01fa156102b457565b604051907f20cd2b3bcd0669632327d82e285b67c13eca43d1fbebafa76156d23a4f2a474582527f1c53e3f239752ad5115273c87263d45c562174712c065f23de5dfb639eacec8e6020830152604082019081526107cf196040836060816007855a01fa156102b45760409260066080939284938451905260a05160608401525a01fa156102b457565b604051907f2e04350fc946db7a5102de3c73c1aefef1b5962d766b5b117f1518eed8fb614882527f24a3923725a9932ead224fd8391d287ed9daf581b4b756ec27edf45e112c441d6020830152604082019081526107cf196040836060816007855a01fa156102b45760409260066080939284938451905260a05160608401525a01fa156102b457565b604051907f25c15dceff3489eac7aa6846004a112d171227e247d88dd19d51bca1c8c35bb382527f292757c42655823bc9a9d0690f1169a2a72a57b9a1a9b367c38a42aa350ae8016020830152604082019081526107cf196040836060816007855a01fa156102b45760409260066080939284938451905260a05160608401525a01fa156102b457565b604051907f2255f237830d01fe20cbc51cf2f5a358d137b52144f5a75b05f02958ebd17cc182527f11c8906ed3fef7793cc0d041074e7c3c5573879a15d20dff889fd452972120246020830152604082019081526107cf196040836060816007855a01fa156102b45760409260066080939284938451905260a05160608401525a01fa156102b457565b604051907f1a93ec47b47e7b0a717207865e2b0dc7e01711e253953fe162519d206310ccd782527f2745d7c2cfacea413f37f2a0fa3a31ad117479c57983c077b74bf3dbe25333736020830152604082019081526107cf196040836060816007855a01fa156102b45760409260066080939284938451905260a05160608401525a01fa156102b457565b604051907f1e27c9ad06c85db1508f9ded918044a23abf2fe8ea285e8007b5c898654b073f82527f0e4917fa66b1c475f425cdbe49893145834bd7c7ab96590c5e6ee590548ed2626020830152604082019081526107cf196040836060816007855a01fa156102b45760409260066080939284938451905260a05160608401525a01fa156102b457565b604051907f2bcc5446eb02d0322869d742370f094df4fcb856cdcc872aba31a933d0d7653982527f14a7b5819f081a8fd1b9bb64ed3e6d66b1ef0726f8e9dc50e7585e9745240b7b6020830152604082019081526107cf196040836060816007855a01fa156102b45760409260066080939284938451905260a05160608401525a01fa156102b457565b604051907f117fddebc1dd12469da223c44eaa41020408a93c725c6bcd0e0ae05160ff39ed82527f0538085034206b312f5bcf7ad1e45dad0ac2c53bb683e0a8138682d98416d86d6020830152604082019081526107cf196040836060816007855a01fa156102b45760409260066080939284938451905260a05160608401525a01fa156102b457565b604051907f1dbf703ba4236428a0da0f8b150fa102db0448888a8524f4e092ab6f0c31f93882527f17b507a64f964b112806c77bdabd799f9816e6b446d4b5a89749478e96dac89e6020830152604082019081526107cf196040836060816007855a01fa156102b45760409260066080939284938451905260a05160608401525a01fa156102b457565b604051907f0f09d35c481ab1d527f5484556dbfb6bccc6e3d029774f7bf2a80c6e3706157082527f28e6b8ece391af8c362b07c71069d611bbb48537d8969f88e755e053f151614d6020830152604082019081526107cf196040836060816007855a01fa156102b45760409260066080939284938451905260a05160608401525a01fa156102b457565b604051907f29e14ff28ed75101574cd127e9b8b83d6563d4af95933f416200cf8d4c840cac82527f0c218eb6bca082d6b3fdc7eca8a9cd89467b12f5d14f50ce4ae38dcd02048df66020830152604082019081526107cf196040836060816007855a01fa156102b45760409260066080939284938451905260a05160608401525a01fa156102b457565b604051907f07fb50d548f858b87e94e2ba6ff1e7341ff1b5241f5d77073aee1aabcaa7a45982527eb4682a5435795565d8fc89f1b539cad8cab7e0dfc01394e74e50ce25f7a2bb6020830152604082019081526107cf196040836060816007855a01fa156102b45760409260066080939284938451905260a05160608401525a01fa156102b457565b604051907f27f731b4a2aa2b04ce85ca85f630d18579f3dbd905a034f80361bda06c99994182527f1f7e10e986429084bb0c9816faa74f0467d850e7247bc67c73f659ca4121b4026020830152604082019081526107cf196040836060816007855a01fa156102b45760409260066080939284938451905260a05160608401525a01fa156102b457565b6020907f0f0aa9f17977488f5ee460a9bd3f8dd7ee036e5ee026fb8a1be8772d054692d16080527f28b4f9cb08dc3e9d93414a0ffc56f2289bdf34a05b8d4e4f33b56fa33da432cd60a0526118a2610104356102be565b6118ae61012435610348565b6118ba610144356103d2565b6118c66101643561045c565b6118d2610184356104e6565b6118de6101a435610570565b6118ea6101c4356105f9565b6118f66101e435610683565b6119026102043561070d565b61190e61022435610797565b61191a61024435610821565b611926610264356108ab565b61193261028435610935565b61193e6102a4356109bf565b61194a6102c435610a49565b6119566102e435610ad3565b61196261030435610b5d565b61196e61032435610be7565b61197a61034435610c71565b61198661036435610cfa565b61199261038435610d84565b61199e6103a435610e0e565b6119aa6103c435610e98565b6119b66103e435610f22565b6119c261040435610fac565b6119ce61042435611036565b6119da610444356110c0565b6119e66104643561114a565b6119f2610484356111d4565b6119fe6104a43561125e565b611a0a6104c4356112e8565b611a166104e435611372565b611a22610504356113fc565b611a2e61052435611486565b611a3a61054435611510565b611a466105643561159a565b611a5261058435611624565b611a5e6105a4356116ae565b611a6a6105c435611738565b611a766105e4356117c1565b61010092818492358352837f30644e72e131a029b85045b68181585d97816a916871ca8d3c208c16d87cfd479101358103066101205260443561014052606435610160526084356101805260a4356101a0527f2d4d9aa7e302d9df41749d5507949d05dbea33fbb16c643b22f599a2be6df2e26101c0527f14bedd503c37ceb061d8ec60209fe345ce89830a19230301f076caff004d19266101e0527f0967032fcbf776d1afc985f88877f182d38480a653f2decaa9794cbc3bf3060c610200527f0e187847ad4c798374d0d6732bf501847dd68bc0e071241e0213bc7fc13db7ab610220527f304cfbd1e08a704a99f5e847d93f8c3caafddec46b7a0d379da69a4d112346a7610240527f1739c1b1a457a8c7313123d24d2f9192f896b7c63eea05a9d57f06547ad0cec8610260526080516102805260a0516102a0527f198e9393920d483a7260bfb731fb5d25f1aa493335a9e71297e485b7aef312c26102c0527f1800deef121f1e76426a00665e5c4479674322d4f75edadd46debd5cd992f6ed6102e05282610300917f090689d0585ff075ec9e99ad690c3395bc4b313370b38ef355acdadcd122975b83527f12c85ea5db8c6deb4aab71808dcb408fe3d1e7690c43d37b4ce6cc0166fa7daa610320528035610340520135610360527e5e5d93f856d12312c6cbea1b4bb4ef24ae143c509ff1367bf90cb4124fd11e610380527f19587b0230442bf2f1dc4c6f216fb10d414e7b6ff4727d049422a4236c57933a6103a0527f01125b6d2333d1b4badbd2bbf938595caa0415dd6726e0c4a65dc19dcb52cf2f6103c0527f14db5809c363df16c5684ac37f9baad52afb78d681c961a4f52fdb441c59cb1a6103e0528160086107cf195a01fa9051169056fea26469706673582212205a8ebd6bb35365bafa4f9a3879a5fb67d985b7a88520aeefb1a6fe1b5aa5d83b64736f6c634300080f0033",
  "linkReferences": {},
  "deployedLinkReferences": {}
}