{
  "_format": "hh-sol-artifact-1",
  "contractName": "Problems",
  "sourceName": "contracts/Problems.sol",
  "abi": [
    {
      "inputs": [
        {
          "internalType": "address",
          "name": "metadata_",
          "type": "address"
        },
        {
          "internalType": "address[]",
          "name": "verifiers_",
          "type": "address[]"
        },
        {
          "internalType": "uint256[]",
          "name": "verifiersTicks",
          "type": "uint256[]"
        },
        {
          "internalType": "uint256[]",
          "name": "verifiersBodies",
          "type": "uint256[]"
        }
      ],
      "stateMutability": "nonpayable",
      "type": "constructor"
    },
    {
      "anonymous": false,
      "inputs": [
        {
          "indexed": true,
          "internalType": "address",
          "name": "owner",
          "type": "address"
        },
        {
          "indexed": true,
          "internalType": "address",
          "name": "approved",
          "type": "address"
        },
        {
          "indexed": true,
          "internalType": "uint256",
          "name": "tokenId",
          "type": "uint256"
        }
      ],
      "name": "Approval",
      "type": "event"
    },
    {
      "anonymous": false,
      "inputs": [
        {
          "indexed": true,
          "internalType": "address",
          "name": "owner",
          "type": "address"
        },
        {
          "indexed": true,
          "internalType": "address",
          "name": "operator",
          "type": "address"
        },
        {
          "indexed": false,
          "internalType": "bool",
          "name": "approved",
          "type": "bool"
        }
      ],
      "name": "ApprovalForAll",
      "type": "event"
    },
    {
      "anonymous": false,
      "inputs": [
        {
          "indexed": true,
          "internalType": "address",
          "name": "to",
          "type": "address"
        },
        {
          "indexed": true,
          "internalType": "bool",
          "name": "success",
          "type": "bool"
        },
        {
          "indexed": false,
          "internalType": "bytes",
          "name": "returnData",
          "type": "bytes"
        },
        {
          "indexed": false,
          "internalType": "uint256",
          "name": "amount",
          "type": "uint256"
        }
      ],
      "name": "EthMoved",
      "type": "event"
    },
    {
      "anonymous": false,
      "inputs": [
        {
          "indexed": true,
          "internalType": "address",
          "name": "previousOwner",
          "type": "address"
        },
        {
          "indexed": true,
          "internalType": "address",
          "name": "newOwner",
          "type": "address"
        }
      ],
      "name": "OwnershipTransferred",
      "type": "event"
    },
    {
      "anonymous": false,
      "inputs": [
        {
          "indexed": true,
          "internalType": "address",
          "name": "from",
          "type": "address"
        },
        {
          "indexed": true,
          "internalType": "address",
          "name": "to",
          "type": "address"
        },
        {
          "indexed": true,
          "internalType": "uint256",
          "name": "tokenId",
          "type": "uint256"
        }
      ],
      "name": "Transfer",
      "type": "event"
    },
    {
      "anonymous": false,
      "inputs": [
        {
          "indexed": false,
          "internalType": "uint256",
          "name": "problemId",
          "type": "uint256"
        },
        {
          "indexed": false,
          "internalType": "uint256",
          "name": "bodyId",
          "type": "uint256"
        },
        {
          "indexed": false,
          "internalType": "uint256",
          "name": "bodyStyle",
          "type": "uint256"
        },
        {
          "indexed": false,
          "internalType": "uint256",
          "name": "tick",
          "type": "uint256"
        },
        {
          "indexed": false,
          "internalType": "uint256",
          "name": "px",
          "type": "uint256"
        },
        {
          "indexed": false,
          "internalType": "uint256",
          "name": "py",
          "type": "uint256"
        },
        {
          "indexed": false,
          "internalType": "uint256",
          "name": "radius",
          "type": "uint256"
        },
        {
          "indexed": false,
          "internalType": "bytes32",
          "name": "seed",
          "type": "bytes32"
        }
      ],
      "name": "bodyAdded",
      "type": "event"
    },
    {
      "anonymous": false,
      "inputs": [
        {
          "indexed": false,
          "internalType": "uint256",
          "name": "problemId",
          "type": "uint256"
        },
        {
          "indexed": false,
          "internalType": "uint256",
          "name": "tick",
          "type": "uint256"
        },
        {
          "indexed": false,
          "internalType": "uint256",
          "name": "bodyId",
          "type": "uint256"
        },
        {
          "indexed": false,
          "internalType": "bytes32",
          "name": "seed",
          "type": "bytes32"
        }
      ],
      "name": "bodyRemoved",
      "type": "event"
    },
    {
      "inputs": [
        {
          "internalType": "uint256",
          "name": "problemId",
          "type": "uint256"
        },
        {
          "internalType": "uint256",
          "name": "bodyId",
          "type": "uint256"
        }
      ],
      "name": "addBody",
      "outputs": [],
      "stateMutability": "nonpayable",
      "type": "function"
    },
    {
      "inputs": [
        {
          "internalType": "address",
          "name": "recipient",
          "type": "address"
        }
      ],
      "name": "adminMint",
      "outputs": [],
      "stateMutability": "nonpayable",
      "type": "function"
    },
    {
      "inputs": [
        {
          "internalType": "address",
          "name": "to",
          "type": "address"
        },
        {
          "internalType": "uint256",
          "name": "tokenId",
          "type": "uint256"
        }
      ],
      "name": "approve",
      "outputs": [],
      "stateMutability": "nonpayable",
      "type": "function"
    },
    {
      "inputs": [
        {
          "internalType": "address",
          "name": "owner",
          "type": "address"
        }
      ],
      "name": "balanceOf",
      "outputs": [
        {
          "internalType": "uint256",
          "name": "",
          "type": "uint256"
        }
      ],
      "stateMutability": "view",
      "type": "function"
    },
    {
      "inputs": [],
      "name": "bodies",
      "outputs": [
        {
          "internalType": "address",
          "name": "",
          "type": "address"
        }
      ],
      "stateMutability": "view",
      "type": "function"
    },
    {
      "inputs": [
        {
          "internalType": "uint256",
          "name": "tokenId",
          "type": "uint256"
        }
      ],
      "name": "getApproved",
      "outputs": [
        {
          "internalType": "address",
          "name": "",
          "type": "address"
        }
      ],
      "stateMutability": "view",
      "type": "function"
    },
    {
      "inputs": [
        {
          "internalType": "uint256",
          "name": "problemId",
          "type": "uint256"
        },
        {
          "internalType": "uint256",
          "name": "bodyId",
          "type": "uint256"
        }
      ],
      "name": "getProblemBodyData",
      "outputs": [
        {
          "components": [
            {
              "internalType": "uint256",
              "name": "bodyId",
              "type": "uint256"
            },
            {
              "internalType": "uint256",
              "name": "bodyStyle",
              "type": "uint256"
            },
            {
              "internalType": "uint256",
              "name": "bodyIndex",
              "type": "uint256"
            },
            {
              "internalType": "uint256",
              "name": "px",
              "type": "uint256"
            },
            {
              "internalType": "uint256",
              "name": "py",
              "type": "uint256"
            },
            {
              "internalType": "uint256",
              "name": "vx",
              "type": "uint256"
            },
            {
              "internalType": "uint256",
              "name": "vy",
              "type": "uint256"
            },
            {
              "internalType": "uint256",
              "name": "radius",
              "type": "uint256"
            },
            {
              "internalType": "bytes32",
              "name": "seed",
              "type": "bytes32"
            }
          ],
          "internalType": "struct Problems.Body",
          "name": "",
          "type": "tuple"
        }
      ],
      "stateMutability": "view",
      "type": "function"
    },
    {
      "inputs": [
        {
          "internalType": "uint256",
          "name": "problemId",
          "type": "uint256"
        }
      ],
      "name": "getProblemBodyIds",
      "outputs": [
        {
          "internalType": "uint256[10]",
          "name": "",
          "type": "uint256[10]"
        }
      ],
      "stateMutability": "view",
      "type": "function"
    },
    {
      "inputs": [
        {
          "internalType": "uint256",
          "name": "bodyId",
          "type": "uint256"
        },
        {
          "internalType": "bytes32",
          "name": "seed",
          "type": "bytes32"
        },
        {
          "internalType": "uint256",
          "name": "bodyStyle",
          "type": "uint256"
        },
        {
          "internalType": "uint256",
          "name": "i",
          "type": "uint256"
        }
      ],
      "name": "getRandomValues",
      "outputs": [
        {
          "components": [
            {
              "internalType": "uint256",
              "name": "bodyId",
              "type": "uint256"
            },
            {
              "internalType": "uint256",
              "name": "bodyStyle",
              "type": "uint256"
            },
            {
              "internalType": "uint256",
              "name": "bodyIndex",
              "type": "uint256"
            },
            {
              "internalType": "uint256",
              "name": "px",
              "type": "uint256"
            },
            {
              "internalType": "uint256",
              "name": "py",
              "type": "uint256"
            },
            {
              "internalType": "uint256",
              "name": "vx",
              "type": "uint256"
            },
            {
              "internalType": "uint256",
              "name": "vy",
              "type": "uint256"
            },
            {
              "internalType": "uint256",
              "name": "radius",
              "type": "uint256"
            },
            {
              "internalType": "bytes32",
              "name": "seed",
              "type": "bytes32"
            }
          ],
          "internalType": "struct Problems.Body",
          "name": "",
          "type": "tuple"
        }
      ],
      "stateMutability": "pure",
      "type": "function"
    },
    {
      "inputs": [
        {
          "internalType": "address",
          "name": "owner",
          "type": "address"
        },
        {
          "internalType": "address",
          "name": "operator",
          "type": "address"
        }
      ],
      "name": "isApprovedForAll",
      "outputs": [
        {
          "internalType": "bool",
          "name": "",
          "type": "bool"
        }
      ],
      "stateMutability": "view",
      "type": "function"
    },
    {
      "inputs": [],
      "name": "maxVector",
      "outputs": [
        {
          "internalType": "uint256",
          "name": "",
          "type": "uint256"
        }
      ],
      "stateMutability": "view",
      "type": "function"
    },
    {
      "inputs": [],
      "name": "metadata",
      "outputs": [
        {
          "internalType": "address",
          "name": "",
          "type": "address"
        }
      ],
      "stateMutability": "view",
      "type": "function"
    },
    {
      "inputs": [],
      "name": "mint",
      "outputs": [],
      "stateMutability": "payable",
      "type": "function"
    },
    {
      "inputs": [
        {
          "internalType": "address",
          "name": "recipient",
          "type": "address"
        }
      ],
      "name": "mint",
      "outputs": [],
      "stateMutability": "payable",
      "type": "function"
    },
    {
      "inputs": [
        {
          "internalType": "uint256",
          "name": "problemId",
          "type": "uint256"
        }
      ],
      "name": "mintBody",
      "outputs": [],
      "stateMutability": "nonpayable",
      "type": "function"
    },
    {
      "inputs": [],
      "name": "name",
      "outputs": [
        {
          "internalType": "string",
          "name": "",
          "type": "string"
        }
      ],
      "stateMutability": "view",
      "type": "function"
    },
    {
      "inputs": [],
      "name": "owner",
      "outputs": [
        {
          "internalType": "address",
          "name": "",
          "type": "address"
        }
      ],
      "stateMutability": "view",
      "type": "function"
    },
    {
      "inputs": [
        {
          "internalType": "uint256",
          "name": "tokenId",
          "type": "uint256"
        }
      ],
      "name": "ownerOf",
      "outputs": [
        {
          "internalType": "address",
          "name": "",
          "type": "address"
        }
      ],
      "stateMutability": "view",
      "type": "function"
    },
    {
      "inputs": [],
      "name": "paused",
      "outputs": [
        {
          "internalType": "bool",
          "name": "",
          "type": "bool"
        }
      ],
      "stateMutability": "view",
      "type": "function"
    },
    {
      "inputs": [],
      "name": "price",
      "outputs": [
        {
          "internalType": "uint256",
          "name": "",
          "type": "uint256"
        }
      ],
      "stateMutability": "view",
      "type": "function"
    },
    {
      "inputs": [],
      "name": "problemSupply",
      "outputs": [
        {
          "internalType": "uint256",
          "name": "",
          "type": "uint256"
        }
      ],
      "stateMutability": "view",
      "type": "function"
    },
    {
      "inputs": [
        {
          "internalType": "uint256",
          "name": "",
          "type": "uint256"
        }
      ],
      "name": "problems",
      "outputs": [
        {
          "internalType": "bytes32",
          "name": "seed",
          "type": "bytes32"
        },
        {
          "internalType": "uint256",
          "name": "bodyCount",
          "type": "uint256"
        },
        {
          "internalType": "uint256",
          "name": "bodiesProduced",
          "type": "uint256"
        },
        {
          "internalType": "uint256",
          "name": "tickCount",
          "type": "uint256"
        }
      ],
      "stateMutability": "view",
      "type": "function"
    },
    {
      "inputs": [
        {
          "internalType": "address payable",
          "name": "_to",
          "type": "address"
        }
      ],
      "name": "recoverUnsuccessfulMintPayment",
      "outputs": [],
      "stateMutability": "nonpayable",
      "type": "function"
    },
    {
      "inputs": [
        {
          "internalType": "uint256",
          "name": "problemId",
          "type": "uint256"
        },
        {
          "internalType": "uint256",
          "name": "bodyId",
          "type": "uint256"
        }
      ],
      "name": "removeBody",
      "outputs": [],
      "stateMutability": "nonpayable",
      "type": "function"
    },
    {
      "inputs": [],
      "name": "renounceOwnership",
      "outputs": [],
      "stateMutability": "nonpayable",
      "type": "function"
    },
    {
      "inputs": [
        {
          "internalType": "address",
          "name": "from",
          "type": "address"
        },
        {
          "internalType": "address",
          "name": "to",
          "type": "address"
        },
        {
          "internalType": "uint256",
          "name": "tokenId",
          "type": "uint256"
        }
      ],
      "name": "safeTransferFrom",
      "outputs": [],
      "stateMutability": "nonpayable",
      "type": "function"
    },
    {
      "inputs": [
        {
          "internalType": "address",
          "name": "from",
          "type": "address"
        },
        {
          "internalType": "address",
          "name": "to",
          "type": "address"
        },
        {
          "internalType": "uint256",
          "name": "tokenId",
          "type": "uint256"
        },
        {
          "internalType": "bytes",
          "name": "data",
          "type": "bytes"
        }
      ],
      "name": "safeTransferFrom",
      "outputs": [],
      "stateMutability": "nonpayable",
      "type": "function"
    },
    {
      "inputs": [],
      "name": "scalingFactor",
      "outputs": [
        {
          "internalType": "uint256",
          "name": "",
          "type": "uint256"
        }
      ],
      "stateMutability": "view",
      "type": "function"
    },
    {
      "inputs": [
        {
          "internalType": "address",
          "name": "operator",
          "type": "address"
        },
        {
          "internalType": "bool",
          "name": "approved",
          "type": "bool"
        }
      ],
      "name": "setApprovalForAll",
      "outputs": [],
      "stateMutability": "nonpayable",
      "type": "function"
    },
    {
      "inputs": [],
      "name": "solver",
      "outputs": [
        {
          "internalType": "address",
          "name": "",
          "type": "address"
        }
      ],
      "stateMutability": "view",
      "type": "function"
    },
    {
      "inputs": [],
      "name": "startDate",
      "outputs": [
        {
          "internalType": "uint256",
          "name": "",
          "type": "uint256"
        }
      ],
      "stateMutability": "view",
      "type": "function"
    },
    {
      "inputs": [],
      "name": "startingRadius",
      "outputs": [
        {
          "internalType": "uint256",
          "name": "",
          "type": "uint256"
        }
      ],
      "stateMutability": "view",
      "type": "function"
    },
    {
      "inputs": [
        {
          "internalType": "bytes4",
          "name": "interfaceId",
          "type": "bytes4"
        }
      ],
      "name": "supportsInterface",
      "outputs": [
        {
          "internalType": "bool",
          "name": "",
          "type": "bool"
        }
      ],
      "stateMutability": "view",
      "type": "function"
    },
    {
      "inputs": [],
      "name": "symbol",
      "outputs": [
        {
          "internalType": "string",
          "name": "",
          "type": "string"
        }
      ],
      "stateMutability": "view",
      "type": "function"
    },
    {
      "inputs": [
        {
          "internalType": "uint256",
          "name": "id",
          "type": "uint256"
        }
      ],
      "name": "tokenURI",
      "outputs": [
        {
          "internalType": "string",
          "name": "",
          "type": "string"
        }
      ],
      "stateMutability": "view",
      "type": "function"
    },
    {
      "inputs": [
        {
          "internalType": "address",
          "name": "from",
          "type": "address"
        },
        {
          "internalType": "address",
          "name": "to",
          "type": "address"
        },
        {
          "internalType": "uint256",
          "name": "tokenId",
          "type": "uint256"
        }
      ],
      "name": "transferFrom",
      "outputs": [],
      "stateMutability": "nonpayable",
      "type": "function"
    },
    {
      "inputs": [
        {
          "internalType": "address",
          "name": "newOwner",
          "type": "address"
        }
      ],
      "name": "transferOwnership",
      "outputs": [],
      "stateMutability": "nonpayable",
      "type": "function"
    },
    {
      "inputs": [
        {
          "internalType": "address",
          "name": "bodies_",
          "type": "address"
        }
      ],
      "name": "updateBodiesAddress",
      "outputs": [],
      "stateMutability": "nonpayable",
      "type": "function"
    },
    {
      "inputs": [
        {
          "internalType": "address",
          "name": "metadata_",
          "type": "address"
        }
      ],
      "name": "updateMetadataAddress",
      "outputs": [],
      "stateMutability": "nonpayable",
      "type": "function"
    },
    {
      "inputs": [
        {
          "internalType": "bool",
          "name": "paused_",
          "type": "bool"
        }
      ],
      "name": "updatePaused",
      "outputs": [],
      "stateMutability": "nonpayable",
      "type": "function"
    },
    {
      "inputs": [
        {
          "internalType": "uint256",
          "name": "price_",
          "type": "uint256"
        }
      ],
      "name": "updatePrice",
      "outputs": [],
      "stateMutability": "nonpayable",
      "type": "function"
    },
    {
      "inputs": [
        {
          "internalType": "uint256",
          "name": "problemId",
          "type": "uint256"
        },
        {
          "internalType": "uint256",
          "name": "bodyId",
          "type": "uint256"
        },
        {
          "components": [
            {
              "internalType": "uint256",
              "name": "bodyId",
              "type": "uint256"
            },
            {
              "internalType": "uint256",
              "name": "bodyStyle",
              "type": "uint256"
            },
            {
              "internalType": "uint256",
              "name": "bodyIndex",
              "type": "uint256"
            },
            {
              "internalType": "uint256",
              "name": "px",
              "type": "uint256"
            },
            {
              "internalType": "uint256",
              "name": "py",
              "type": "uint256"
            },
            {
              "internalType": "uint256",
              "name": "vx",
              "type": "uint256"
            },
            {
              "internalType": "uint256",
              "name": "vy",
              "type": "uint256"
            },
            {
              "internalType": "uint256",
              "name": "radius",
              "type": "uint256"
            },
            {
              "internalType": "bytes32",
              "name": "seed",
              "type": "bytes32"
            }
          ],
          "internalType": "struct Problems.Body",
          "name": "body",
          "type": "tuple"
        }
      ],
      "name": "updateProblemBody",
      "outputs": [],
      "stateMutability": "nonpayable",
      "type": "function"
    },
    {
      "inputs": [
        {
          "internalType": "uint256",
          "name": "problemId",
          "type": "uint256"
        },
        {
          "internalType": "uint256",
          "name": "bodyCount",
          "type": "uint256"
        }
      ],
      "name": "updateProblemBodyCount",
      "outputs": [],
      "stateMutability": "nonpayable",
      "type": "function"
    },
    {
      "inputs": [
        {
          "internalType": "uint256",
          "name": "problemId",
          "type": "uint256"
        },
        {
          "internalType": "uint256[10]",
          "name": "bodyIds",
          "type": "uint256[10]"
        }
      ],
      "name": "updateProblemBodyIds",
      "outputs": [],
      "stateMutability": "nonpayable",
      "type": "function"
    },
    {
      "inputs": [
        {
          "internalType": "uint256",
          "name": "problemId",
          "type": "uint256"
        },
        {
          "internalType": "uint256",
          "name": "tickCount",
          "type": "uint256"
        }
      ],
      "name": "updateProblemTickCount",
      "outputs": [],
      "stateMutability": "nonpayable",
      "type": "function"
    },
    {
      "inputs": [
        {
          "internalType": "address",
          "name": "solver_",
          "type": "address"
        }
      ],
      "name": "updateSolverAddress",
      "outputs": [],
      "stateMutability": "nonpayable",
      "type": "function"
    },
    {
      "inputs": [
        {
          "internalType": "uint256",
          "name": "startDate_",
          "type": "uint256"
        }
      ],
      "name": "updateStartDate",
      "outputs": [],
      "stateMutability": "nonpayable",
      "type": "function"
    },
    {
      "inputs": [
        {
          "internalType": "address",
          "name": "verifier_",
          "type": "address"
        },
        {
          "internalType": "uint256",
          "name": "verifierBodies",
          "type": "uint256"
        },
        {
          "internalType": "uint256",
          "name": "verifierTicks",
          "type": "uint256"
        }
      ],
      "name": "updateVerifier",
      "outputs": [],
      "stateMutability": "nonpayable",
      "type": "function"
    },
    {
      "inputs": [
        {
          "internalType": "address",
          "name": "wallet_",
          "type": "address"
        }
      ],
      "name": "updateWalletAddress",
      "outputs": [],
      "stateMutability": "nonpayable",
      "type": "function"
    },
    {
      "inputs": [
        {
          "internalType": "uint256",
          "name": "",
          "type": "uint256"
        },
        {
          "internalType": "uint256",
          "name": "",
          "type": "uint256"
        }
      ],
      "name": "verifiers",
      "outputs": [
        {
          "internalType": "address",
          "name": "",
          "type": "address"
        }
      ],
      "stateMutability": "view",
      "type": "function"
    },
    {
      "inputs": [],
      "name": "wallet",
      "outputs": [
        {
          "internalType": "address",
          "name": "",
          "type": "address"
        }
      ],
      "stateMutability": "view",
      "type": "function"
    },
    {
      "inputs": [],
      "name": "windowWidth",
      "outputs": [
        {
          "internalType": "uint256",
          "name": "",
          "type": "uint256"
        }
      ],
      "stateMutability": "view",
      "type": "function"
    },
    {
      "stateMutability": "payable",
      "type": "receive"
    }
  ],
  "bytecode": "0x60406080815234620005b6576200351290813803806200001f81620005f6565b9384398201608083820312620005b6576200003a836200061c565b92602091828201519260018060401b0393848111620005b657830191601f93818585011215620005b6578351936200007c620000768662000631565b620005f6565b94848087838152019160051b83010191848311620005b65785809101915b838310620005bb575050505086810151868111620005b65782620000c091830162000649565b916060820151878111620005b657620000da920162000649565b91620000e5620005d6565b95600f908188526e416e79626f64792050726f626c656d60881b838901526200010d620005d6565b966003885262414e5960e81b84890152885197828911620005a05760009889549a60019b8c81811c9116801562000595575b8882101462000581579081858493116200052e575b508790858311600114620004c1578c92620004b5575b5050600019600383901b1c1916908b1b1789555b8051928311620004a15789548a81811c9116801562000496575b868210146200048257908183859493116200042d575b5085918311600114620003c9578992620003bd575b5050600019600383901b1c191690881b1787555b6006549860018060a01b03199533878c161760065589519a60018060a01b039283918d7f8be0079c531659141344cd1fd0a4f28419497f9722a3daafe3b4186f6b6457e08c8533941692a363f2a52380600755662386f26fc10000600d55169a8b15620003885750889a3388600c541617600c5587600b541617600b55879a5b6200026c575b8951612e409081620006d28239f35b80518b10156200038257620002828b86620006a6565b51156200033e5781620002968c83620006a6565b511615620003075781620002ab8c83620006a6565b5116620002b98c88620006a6565b5189528385528a8920620002ce8d88620006a6565b518a5285528a892090888254161790556000198b14620002f357998801998862000257565b634e487b7160e01b88526011600452602488fd5b895162461bcd60e51b815260048101859052601060248201526f24b73b30b634b2103b32b934b334b2b960811b6044820152606490fd5b895162461bcd60e51b815260048101859052601660248201527f496e76616c696420766572696669657220746f636b73000000000000000000006044820152606490fd5b6200025d565b62461bcd60e51b815260048101859052601060248201526f496e76616c6964206d6574616461746160801b6044820152606490fd5b015190503880620001c3565b8a8a52858a208b94509190601f1984168b5b88828210620004165750508411620003fc575b505050811b018755620001d7565b015160001960f88460031b161c19169055388080620003ee565b8385015186558e97909501949384019301620003db565b909192508a8a52858a208380860160051c82019288871062000478575b9186958e929594930160051c01915b82811062000469575050620001ae565b8c81558695508d910162000459565b925081926200044a565b634e487b7160e01b8a52602260045260248afd5b90607f169062000198565b634e487b7160e01b89526041600452602489fd5b0151905038806200016a565b8c8052888d208e94509190601f1984168e5b8b8282106200050e5750508411620004f4575b505050811b0189556200017e565b015160001960f88460031b161c19169055388080620004e6565b91929395968291958786015181550195019301908f9594939291620004d3565b9091508b8052878c208580850160051c8201928a861062000577575b918f91869594930160051c01915b8281106200056857505062000154565b8e81558594508f910162000558565b925081926200054a565b634e487b7160e01b8c52602260045260248cfd5b90607f16906200013f565b634e487b7160e01b600052604160045260246000fd5b600080fd5b8190620005c8846200061c565b81520191019085906200009a565b60408051919082016001600160401b03811183821017620005a057604052565b6040519190601f01601f191682016001600160401b03811183821017620005a057604052565b51906001600160a01b0382168203620005b657565b6001600160401b038111620005a05760051b60200190565b9080601f83011215620005b65781519062000668620000768362000631565b9182938184526020808095019260051b820101928311620005b6578301905b82821062000696575050505090565b8151815290830190830162000687565b8051821015620006bb5760209160051b010190565b634e487b7160e01b600052603260045260246000fdfe60406080815260049081361015610028575b5050361561001e57600080fd5b61002661258c565b005b600091823560e01c908163010fdfd514611e5557816301ffc9a714611de757816304b24e8514611db057816306fdde0314611ce5578163081812fc14611cc557816308cdc2a814611c7f578163095ea7b314611b105781630b97bc8614611af15781631249c58b14611adc57816318d9479314611aba57816320a286d014611a9b57816323b872dd14611a705781632b057afa14611a18578163306da04f146119ef578163392f37e9146119c6578163408472841461193957816342842e0e146118ea57816343569ffb146118b357816349a7a26d1461188a5781634b9862d91461186e578163521eb2731461184557816353e52f09146118295781635c975abb146118025781636352211e146117d157816364e211c0146117995781636a6278421461164c57816370a08231146115b6578163715018a6146115565781637696d9ff14611515578163872d7e48146114de5781638d6cc56d146114bc5781638da5cb5b1461149357816395d89b411461137d5781639769dc0e1461130c578163a035b1fe146112ed578163a22cb4651461121d578163afcb1af014610f79578163b6460e7c14610c63578163b88d4fde14610bd7578163c09fd8ef14610b51578163c31f5d6a14610ab6578163c87b56dd146109c2578163c93c266e14610981578163de4318fc146108e2578163e985e9c514610892578163e9d903b11461077d578163eba4f36614610733578163ed3437f814610716578163ed892aae146106d5578163ee379aef14610359578163f2fde38b1461028d575063f81c8ec303610011573461028957816003193601126102895760209051620f42408152f35b5080fd5b905034610355576020366003190112610355576102a8611e96565b6102b0612084565b6001600160a01b03908116918215610303575060065492826001600160601b0360a01b8516176006555192167f8be0079c531659141344cd1fd0a4f28419497f9722a3daafe3b4186f6b6457e0600084a3f35b608490602085519162461bcd60e51b8352820152602660248201527f4f776e61626c653a206e6577206f776e657220697320746865207a65726f206160448201526564647265737360d01b6064820152fd5b8280fd5b9050346103555761036936611ec2565b909161037d60ff60065460a01c1615612709565b61038683612128565b6001600160a01b03919061039d9083163314612bfa565b8160095416908551926331a9108f60e11b845284828501526020938481602481875afa9081156106cb578991610691575b50813391160361065d5785885287600e938486526103f4600a60018b8520015410612c3a565b803b156102895781809160248b5180948193630852cd8d60e31b83528c8a8401525af180156106535761063b575b508690528284528688206001015460095488516301e0a07d60e71b8152848101889052969192168587602481845afa9687156106015760009761060c575b5090856024928a519384809263b2c60dc960e01b825285898301525afa918215610601576000926105cf575b508760005284865284896000200154926104a4612c97565b506104b181848a85612cdc565b958960005280885260038b600020018360005288528a60002095875187558888015160018801558b8801516002880155606088019283516003890155608089019788518382015560a08a0151600582015560c08a01516006820155600861010060e08c019b8c51600785015501519101558b600052828a528c600020600a8210156105ba57947f26c34af247e1ccf098f0cc4e380568ece925088468fc831769e1f757fa3ea02a9c9a989694928194926101009d9b99970101558960005280885260018d60002001610583815461273e565b90558960005287525193519451958b51988952880152898701526060860152608085015260a084015260c083015260e0820152a151f35b603283634e487b7160e01b6000525260246000fd5b90918682813d83116105fa575b6105e68183612046565b810103126105f7575051903861048c565b80fd5b503d6105dc565b89513d6000823e3d90fd5b90968682813d8311610634575b6106238183612046565b810103126105f75750519585610460565b503d610619565b61064490611fc6565b61064f578738610422565b8780fd5b89513d84823e3d90fd5b865162461bcd60e51b8152808301859052600e60248201526d2737ba103137b23c9037bbb732b960911b6044820152606490fd5b90508481813d83116106c4575b6106a88183612046565b810103126106c0575181811681036106c057386103ce565b8880fd5b503d61069e565b88513d8b823e3d90fd5b505034610289576020366003190112610289576106f0611e96565b6106f8612084565b60018060a01b03166001600160601b0360a01b600b541617600b5551f35b505034610289578160031936011261028957602090516103e88152f35b905034610355576020366003190112610355576080928291358152600e6020522090815491600181015491600e600283015492015492815194855260208501528301526060820152f35b9050346103555761016036600319011261035557610120908160431936011261088e57825191820182811067ffffffffffffffff8211176108795760089185918552604435845260208401906064358252858501906084358252606086019060a43582526080870160c435815260a088019260e435845260c089019461010435865260e08a019661012435885260038c6101008d019a610144358c5261082e60018060a01b03600a54163314612dc7565b87358152600e60205220018d60243590526020528b8d209a518b555160018b01555160028a015551600389015551908701555160058601555160068501555160078401555191015551f35b604182634e487b7160e01b6000525260246000fd5b8380fd5b5050346102895780600319360112610289576020916108af611e96565b826108b8611eac565b9260018060a01b03809316815260058652209116600052825260ff81600020541690519015158152f35b9050346103555761016036600319011261035557366043121561035557815161090a8161200d565b6101648136821161097d576024905b82821061096d57505050600a9161093a60018060a01b038454163314612dc7565b80358552602090600e82528486200185925b84841061095857868651f35b6001838282935185550192019301929061094c565b8135815260209182019101610919565b8580fd5b5050346102895760203660031901126102895761099c611e96565b6109a4612084565b60018060a01b03166001600160601b0360a01b600c541617600c5551f35b91905034610355576020918260031936011261088e57600b54825163295d33a960e21b81528235928101929092528490829060249082906001600160a01b03165afa938415610aab578094610a2b575b5050610a279051928284938452830190611f0d565b0390f35b909193503d8082843e610a3e8184612046565b82019183818403126102895780519067ffffffffffffffff8211610355570182601f8201121561028957805191610a7483612068565b93610a8187519586612046565b8385528584840101116105f757508291610aa3918580610a2796019101611ed8565b929038610a12565b8251903d90823e3d90fd5b9190503461035557600881610a2794610ace36611ec2565b90610ad7612c97565b508252600e60205260038383200190825260205220825193610af885611ff0565b8154855260018201546020860152600282015484860152600382015460608601528101546080850152600581015460a0850152600681015460c0850152600781015460e085015201546101008301525191829182611f67565b90503461035557602036600319011261035557356001600160a01b0381169081900361035557610b7f612084565b47907fb08889abce443443404b2caf69aa3ccfb9ebfdf1ad2a634d06e11e24c1067938610bc8858080875187875af1610bb6612464565b90865192839288845288840190611f0d565b9560208301521515940390a351f35b90503461035557608036600319011261035557610bf2611e96565b90610bfb611eac565b916064359167ffffffffffffffff831161097d573660238401121561097d578201359285610c2885612068565b93610c3587519586612046565b85855236602487830101116102895785610c60966024602093018388013785010152604435916121ee565b51f35b905034610355576020908160031936011261088e57803591610c8d60ff60065460a01c1615612709565b610c9683612128565b6001600160a01b039290610cad9084163314612bfa565b838652600e808352610cc7600a6001888a20015410612c3a565b6009548651638096989d60e01b815233848201908152602081018890529095918591879184169082908c90829060400103925af1948515610f6f578895610f3b575b508588528184528688206001015460095488516301e0a07d60e71b8152858101889052969192168587602481845afa96871561060157600097610f0c575b5090856024928a519384809263b2c60dc960e01b8252858a8301525afa91821561060157600092610edd575b50876000528386528389600020015492610d8b612c97565b50610d9881848a85612cdc565b958960005285885260038b600020018360005288528a60002095875187558888015160018801558b8801516002880155606088019283516003890155608089019788518482015560a08a0151600582015560c08a01516006820155600861010060e08c019b8c51600785015501519101558b600052818a528c600020600a821015610ec857859184910101558a60005280895260018c60002001610e3c815461273e565b90558a600052885260028b60002001908154906001198211610eb3575060010190555193519451895198895295880152868801526060860152608085015260a084015260c083015260e08201527f26c34af247e1ccf098f0cc4e380568ece925088468fc831769e1f757fa3ea02a9061010090a151f35b601190634e487b7160e01b6000525260246000fd5b603284634e487b7160e01b6000525260246000fd5b90918682813d8311610f05575b610ef48183612046565b810103126105f75750519038610d73565b503d610eea565b90968682813d8311610f34575b610f238183612046565b810103126105f75750519585610d47565b503d610f19565b9094508381813d8311610f68575b610f538183612046565b81010312610f6357519338610d09565b600080fd5b503d610f49565b87513d8a823e3d90fd5b90503461035557610f8936611ec2565b610f9e60ff60069493945460a01c1615612709565b610fa783612128565b6001600160a01b0390610fbd9082163314612bfa565b838652600e90602091808352600195600387898b20015411156111da5760099283541689813b156105f75789516318ecc45960e11b815233818a01908152602081018990529092839182908490829060400103925af180156111d0576111bd575b508089528184527fe3d7c65a819210a4131cc5090a9efe680115139f33a226180fd95dd75a8299666080838a8c2001548a8c20548b519185835288830152888c8301526060820152a18089528184526003888a2001858a5284526002888a20015492818a5282855287898b2001805480156111aa57600019019055818a52828552888a208951949088018b8a875b89600a84106111965750505050506110c38561200d565b6101408a516110d18161200d565b3690375b818110611154575050886101208401528852825283868820019087905b600a8210611141575050506008926000949285926003888a2001918952528186882093818555840155816002840155816003840155820155826005820155826006820155826007820155015551f35b80518355918601919086019083016110f2565b6001198111611183578061116d8a61117e930187612c86565b516111788288612c86565b5261273e565b6110d5565b634e487b7160e01b8b526011885260248bfd5b829185548152019301910190918b906110ac565b634e487b7160e01b8c526011895260248cfd5b6111c990999199611fc6565b973861101e565b89513d8c823e3d90fd5b875162461bcd60e51b8152808701859052601e60248201527f43616e6e6f742068617665206c657373207468616e203320626f6469657300006044820152606490fd5b905034610355578160031936011261035557611237611e96565b602435908115158092036112e9576001600160a01b0316913383146112a65750338452600560205282842082855260205282842060ff1981541660ff831617905582519081527f17307eab39ab6107e8899845ad3d59bd9653f200f220920489ca2b5937696c3160203392a351f35b606490602085519162461bcd60e51b8352820152601960248201527f4552433732313a20617070726f766520746f2063616c6c6572000000000000006044820152fd5b8480fd5b505034610289578160031936011261028957602090600d549051908152f35b50503461028957602036600319011261028957610c6061132a611e96565b600a54611370906001600160a01b039061134790821615156126cb565b611356816009541615156126cb565b61136581600b541615156126cb565b600c541615156126cb565b611378612084565b612763565b8284346105f757806003193601126105f7578151918160019283549384811c91818616958615611489575b6020968785108114611476578899509688969785829a52918260001461144f5750506001146113f4575b505050610a2792916113e5910385612046565b51928284938452830190611f0d565b91908693508083527fb10e2d527612073b26eecdfd717e6a320cf44b4afac2b0732d9fcbe2b7fa0cf65b82841061143757505050820101816113e5610a276113d2565b8054848a01860152889550879490930192810161141e565b60ff19168782015293151560051b860190930193508492506113e59150610a2790506113d2565b634e487b7160e01b835260228a52602483fd5b92607f16926113a8565b50503461028957816003193601126102895760065490516001600160a01b039091168152602090f35b905034610355576020366003190112610355576114d7612084565b35600d5551f35b505034610289576114ee36611ec2565b9061150460018060a01b03600a54163314612dc7565b8352600e6020526001828420015551f35b50503461028957602036600319011261028957611530611e96565b611538612084565b60018060a01b03166001600160601b0360a01b600a541617600a5551f35b505034610289578160031936011261028957611570612084565b600680546001600160a01b0319811690915590519082906001600160a01b03167f8be0079c531659141344cd1fd0a4f28419497f9722a3daafe3b4186f6b6457e08284a3f35b83915034610289576020366003190112610289576001600160a01b036115da611e96565b169081156115f75760208480858581526003845220549051908152f35b608490602085519162461bcd60e51b8352820152602960248201527f4552433732313a2061646472657373207a65726f206973206e6f7420612076616044820152683634b21037bbb732b960b91b6064820152fd5b8383602036600319011261028957611662611e96565b600a546001600160a01b039061167b90821615156126cb565b61168a816009541615156126cb565b61169981600b541615156126cb565b80600c5416946116aa8615156126cb565b6116bc60ff60065460a01c1615612709565b600754421061176857600d5434036117355750838080859697610c6096519034905af1907fb08889abce443443404b2caf69aa3ccfb9ebfdf1ad2a634d06e11e24c106793861172361170c612464565b92600c541692875191829189835289830190611f0d565b943460208301521515940390a3612763565b606490602085519162461bcd60e51b8352820152600d60248201526c496e76616c696420707269636560981b6044820152fd5b606490602085519162461bcd60e51b8352820152600b60248201526a139bdd081cdd185c9d195960aa1b6044820152fd5b8284346105f75760803660031901126105f757506117c6610a279260643590604435906024359035612cdc565b905191829182611f67565b8284346105f75760203660031901126105f757506117f160209235612128565b90516001600160a01b039091168152f35b50503461028957816003193601126102895760209060ff60065460a01c1690519015158152f35b5050346102895781600319360112610289576020905160028152f35b505034610289578160031936011261028957600c5490516001600160a01b039091168152602090f35b50503461028957816003193601126102895760209051600a8152f35b505034610289578160031936011261028957600a5490516001600160a01b039091168152602090f35b505034610289576020916118c636611ec2565b908252600f845282822090825283528190205490516001600160a01b039091168152f35b838334610289576118fa36611f32565b908351926020840184811067ffffffffffffffff8211176119265785610c6096979850528684526121ee565b634e487b7160e01b875260418852602487fd5b8383346102895760208060031936011261035557819291519361195b8561200d565b610140809536903780358352600e8252838320845194910183855b600a82106119b05750505061198a8461200d565b519291835b600a821061199b578585f35b8280600192865181520194019101909261198f565b8254815260019283019291909101908401611976565b505034610289578160031936011261028957600b5490516001600160a01b039091168152602090f35b50503461028957816003193601126102895760095490516001600160a01b039091168152602090f35b50503461028957606036600319011261028957611a33611e96565b611a3b612084565b6024358352600f60205281832060443584526020528183209060018060a01b03166001600160601b0360a01b82541617905551f35b50503461028957610c60611a8336611f32565b91611a96611a918433612289565b61218c565b612351565b5050346102895781600319360112610289576020906008549051908152f35b90503461035557602036600319011261035557611ad5612084565b3560075551f35b50508160031936011261028957610c6061258c565b5050346102895781600319360112610289576020906007549051908152f35b905034610355578160031936011261035557611b2a611e96565b602435916001600160a01b03908180611b4286612128565b16931692808414611c3257803314908115611c13575b5015611baa5783865260205283852080546001600160a01b03191683179055611b8083612128565b169251927f8c5be1e5ebec7d5bd14f71427d1e84f3dd0314c0f7b2291e5b200ac8c7c3b9258585a4f35b608490602086519162461bcd60e51b8352820152603d60248201527f4552433732313a20617070726f76652063616c6c6572206973206e6f7420746f60448201527f6b656e206f776e6572206f7220617070726f76656420666f7220616c6c0000006064820152fd5b90508652600560205284862033875260205260ff858720541638611b58565b855162461bcd60e51b8152602081840152602160248201527f4552433732313a20617070726f76616c20746f2063757272656e74206f776e656044820152603960f91b6064820152608490fd5b905034610355576020366003190112610355573580151580910361035557611ca5612084565b6006805460ff60a01b191660a09290921b60ff60a01b1691909117905551f35b8284346105f75760203660031901126105f757506117f16020923561214e565b8284346105f757806003193601126105f75781519181825492600184811c91818616958615611da6575b6020968785108114611476578899509688969785829a52918260001461144f575050600114611d4b57505050610a2792916113e5910385612046565b91908693508280527f290decd9548b62a8d60345a988386fc84ba6bc95484008f6362f93160ef3e5635b828410611d8e57505050820101816113e5610a276113d2565b8054848a018601528895508794909301928101611d75565b92607f1692611d0f565b50503461028957611dc036611ec2565b90611dd660018060a01b03600a54163314612dc7565b8352600e602052600e828420015551f35b90503461035557602036600319011261035557359063ffffffff60e01b821680920361035557602092506380ac58cd60e01b8214918215611e44575b8215611e33575b50519015158152f35b6301ffc9a760e01b14915038611e2a565b635b5e139f60e01b81149250611e23565b50503461028957602036600319011261028957611e70611e96565b611e78612084565b60018060a01b03166001600160601b0360a01b600954161760095551f35b600435906001600160a01b0382168203610f6357565b602435906001600160a01b0382168203610f6357565b6040906003190112610f63576004359060243590565b918091926000905b828210611ef8575011611ef1575050565b6000910152565b91508060209183015181860152018291611ee0565b90602091611f2681518092818552858086019101611ed8565b601f01601f1916010190565b6060906003190112610f63576001600160a01b03906004358281168103610f6357916024359081168103610f63579060443590565b919091610120810192805182526020810151602083015260408101516040830152606081015160608301526080810151608083015260a081015160a083015260c081015160c083015260e081015160e083015261010080910151910152565b67ffffffffffffffff8111611fda57604052565b634e487b7160e01b600052604160045260246000fd5b610120810190811067ffffffffffffffff821117611fda57604052565b610140810190811067ffffffffffffffff821117611fda57604052565b6040810190811067ffffffffffffffff821117611fda57604052565b90601f8019910116810190811067ffffffffffffffff821117611fda57604052565b67ffffffffffffffff8111611fda57601f01601f191660200190565b6006546001600160a01b0316330361209857565b606460405162461bcd60e51b815260206004820152602060248201527f4f776e61626c653a2063616c6c6572206973206e6f7420746865206f776e65726044820152fd5b156120e357565b60405162461bcd60e51b815260206004820152601860248201527f4552433732313a20696e76616c696420746f6b656e20494400000000000000006044820152606490fd5b6000908152600260205260409020546001600160a01b031661214b8115156120dc565b90565b600081815260026020526040902054612171906001600160a01b031615156120dc565b6000908152600460205260409020546001600160a01b031690565b1561219357565b60405162461bcd60e51b815260206004820152602d60248201527f4552433732313a2063616c6c6572206973206e6f7420746f6b656e206f776e6560448201526c1c881bdc88185c1c1c9bdd9959609a1b6064820152608490fd5b90612212939291612202611a918433612289565b61220d838383612351565b612494565b1561221957565b60405162461bcd60e51b81528061223260048201612236565b0390fd5b60809060208152603260208201527f4552433732313a207472616e7366657220746f206e6f6e20455243373231526560408201527131b2b4bb32b91034b6b83632b6b2b73a32b960711b60608201520190565b906001600160a01b03808061229d84612128565b169316918383149384156122d0575b5083156122ba575b50505090565b6122c69192935061214e565b16143880806122b4565b909350600052600560205260406000208260005260205260ff6040600020541692386122ac565b156122fe57565b60405162461bcd60e51b815260206004820152602560248201527f4552433732313a207472616e736665722066726f6d20696e636f72726563742060448201526437bbb732b960d91b6064820152608490fd5b906123799161235f84612128565b6001600160a01b03939184169284929091831684146122f7565b1691821561241357816123969161238f86612128565b16146122f7565b7fddf252ad1be2c89b69c2b068fc378daa952ba7f163c4a11628f55a4df523b3ef60008481526004602052604081206001600160601b0360a01b90818154169055838252600360205260408220600019815401905584825260408220600181540190558582526002602052846040832091825416179055604051a4565b60405162461bcd60e51b8152602060048201526024808201527f4552433732313a207472616e7366657220746f20746865207a65726f206164646044820152637265737360e01b6064820152608490fd5b3d1561248f573d9061247582612068565b916124836040519384612046565b82523d6000602084013e565b606090565b91926000929190813b15612582576020916124ea9185604051958680958194630a85bd0160e11b9b8c845233600485015260018060a01b0380951660248501526044840152608060648401526084830190611f0d565b0393165af19082908261253a575b505061252c57612506612464565b805190816125275760405162461bcd60e51b81528061223260048201612236565b602001fd5b6001600160e01b0319161490565b909192506020813d821161257a575b8161255660209383612046565b810103126102895751906001600160e01b0319821682036105f757509038806124f8565b3d9150612549565b5050505050600190565b600a546001600160a01b03906125a590821615156126cb565b6125b4816009541615156126cb565b6125c381600b541615156126cb565b80600c54166125d38115156126cb565b6125e560ff60065460a01c1615612709565b600754421061269857600d5434036126635760008080926040519034905af1907fb08889abce443443404b2caf69aa3ccfb9ebfdf1ad2a634d06e11e24c106793861264b612631612464565b92600c541692604051918291604083526040830190611f0d565b943460208301521515940390a361266133612763565b565b60405162461bcd60e51b815260206004820152600d60248201526c496e76616c696420707269636560981b6044820152606490fd5b60405162461bcd60e51b815260206004820152600b60248201526a139bdd081cdd185c9d195960aa1b6044820152606490fd5b156126d257565b60405162461bcd60e51b815260206004820152600f60248201526e139bdd081a5b9a5d1a585b1a5e9959608a1b6044820152606490fd5b1561271057565b60405162461bcd60e51b815260206004820152600660248201526514185d5cd95960d21b6044820152606490fd5b600019811461274d5760010190565b634e487b7160e01b600052601160045260246000fd5b61276e60085461273e565b60088190556001600160a01b0382168015612b6a576000828152600260205260409020546127a8906001600160a01b031615155b15612bae565b6000828152600260205260409020546127cb906001600160a01b031615156127a2565b8060005260036020526040600020600181540190558160005260026020526040600020816001600160601b0360a01b82541617905560007fddf252ad1be2c89b69c2b068fc378daa952ba7f163c4a11628f55a4df523b3ef81604051a460005b600381106128865750506008546040516020810190828252602081526040810181811067ffffffffffffffff821117611fda5760405251902090600052600e6020526040600020556008546000526003600160406000200155565b60098054600854604051638096989d60e01b81526001600160a01b03868116600483015260248201929092529293929160209183916044918391600091165af1908115612af557600091612b38575b5060085492546040516301e0a07d60e71b81526004810183905293906001600160a01b0316602085602481845afa948515612af557600095612b01575b509060206024926040519384809263b2c60dc960e01b82528760048301525afa918215612af557600092612ac1575b5080600052600e602052600e604060002001549461295d612c97565b5061296a85848387612cdc565b9382600052600e6020526003604060002001816000526020526040600020855181556020860151600182015560408601516002820155606086015160038201556080860151600482015560a0860151600582015560c0860151600682015560e08601516007820155600861010087015191015582600052600e6020526040600020600a871015612aab57600487839201015582600052600e6020526001604060002001612a17815461273e565b905582600052600e602052600260406000200194855494600119861161274d57612aa6987f26c34af247e1ccf098f0cc4e380568ece925088468fc831769e1f757fa3ea02a9760016101009801905560608301519160e0608085015194015194604051978852602088015260408701526060860152608085015260a084015260c083015260e0820152a161273e565b61282b565b634e487b7160e01b600052603260045260246000fd5b9091506020813d602011612aed575b81612add60209383612046565b81010312610f6357519038612941565b3d9150612ad0565b6040513d6000823e3d90fd5b919094506020823d602011612b30575b81612b1e60209383612046565b81010312610f63579051936020612912565b3d9150612b11565b90506020813d602011612b62575b81612b5360209383612046565b81010312610f635751386128d5565b3d9150612b46565b606460405162461bcd60e51b815260206004820152602060248201527f4552433732313a206d696e7420746f20746865207a65726f20616464726573736044820152fd5b15612bb557565b60405162461bcd60e51b815260206004820152601c60248201527f4552433732313a20746f6b656e20616c7265616479206d696e746564000000006044820152606490fd5b15612c0157565b60405162461bcd60e51b81526020600482015260116024820152702737ba10383937b13632b69037bbb732b960791b6044820152606490fd5b15612c4157565b60405162461bcd60e51b815260206004820152601f60248201527f43616e6e6f742068617665206d6f7265207468616e20313020626f64696573006044820152606490fd5b90600a811015612aab5760051b0190565b60405190612ca482611ff0565b816101006000918281528260208201528260408201528260608201528260808201528260a08201528260c08201528260e08201520152565b9291612ce6612c97565b50612cef612c97565b9382610100860152604092835190602082019081528585830152848252606082019082821067ffffffffffffffff831117611fda576080908287528351902092019082825260208152612d418161202a565b51902060038551602081019083825260208152612d5d8161202a565b5190200693600019948086046005118115151661274d57600502600219811161274d5760020193846103e8960486118515151661274d5788526020880152620f424080920660608801520660808601526127108060a087015260c08601520260e084015282015290565b15612dce57565b60405162461bcd60e51b815260206004820152601460248201527313db9b1e4814dbdb1d995c8818d85b8818d85b1b60621b6044820152606490fdfea2646970667358221220cdad611f0c2fd3f845ea68fd8b980a548cf2e1bf9ae4c0b9a3bb6f24c191459764736f6c634300080f0033",
  "linkReferences": {},
  "deployedLinkReferences": {}
}