{
  "_format": "hh-sol-artifact-1",
  "contractName": "Bodies",
  "sourceName": "contracts/Bodies.sol",
  "abi": [
    {
      "inputs": [
        {
          "internalType": "address payable",
          "name": "problems_",
          "type": "address"
        }
      ],
      "stateMutability": "nonpayable",
      "type": "constructor"
    },
    {
      "anonymous": false,
      "inputs": [
        {
          "indexed": true,
          "internalType": "address",
          "name": "owner",
          "type": "address"
        },
        {
          "indexed": true,
          "internalType": "address",
          "name": "approved",
          "type": "address"
        },
        {
          "indexed": true,
          "internalType": "uint256",
          "name": "tokenId",
          "type": "uint256"
        }
      ],
      "name": "Approval",
      "type": "event"
    },
    {
      "anonymous": false,
      "inputs": [
        {
          "indexed": true,
          "internalType": "address",
          "name": "owner",
          "type": "address"
        },
        {
          "indexed": true,
          "internalType": "address",
          "name": "operator",
          "type": "address"
        },
        {
          "indexed": false,
          "internalType": "bool",
          "name": "approved",
          "type": "bool"
        }
      ],
      "name": "ApprovalForAll",
      "type": "event"
    },
    {
      "anonymous": false,
      "inputs": [
        {
          "indexed": true,
          "internalType": "address",
          "name": "previousOwner",
          "type": "address"
        },
        {
          "indexed": true,
          "internalType": "address",
          "name": "newOwner",
          "type": "address"
        }
      ],
      "name": "OwnershipTransferred",
      "type": "event"
    },
    {
      "anonymous": false,
      "inputs": [
        {
          "indexed": true,
          "internalType": "address",
          "name": "from",
          "type": "address"
        },
        {
          "indexed": true,
          "internalType": "address",
          "name": "to",
          "type": "address"
        },
        {
          "indexed": true,
          "internalType": "uint256",
          "name": "tokenId",
          "type": "uint256"
        }
      ],
      "name": "Transfer",
      "type": "event"
    },
    {
      "anonymous": false,
      "inputs": [
        {
          "indexed": true,
          "internalType": "uint256",
          "name": "bodyId",
          "type": "uint256"
        },
        {
          "indexed": true,
          "internalType": "uint256",
          "name": "problemId",
          "type": "uint256"
        },
        {
          "indexed": true,
          "internalType": "uint256",
          "name": "mintedBodyIndex",
          "type": "uint256"
        },
        {
          "indexed": false,
          "internalType": "uint256",
          "name": "life",
          "type": "uint256"
        },
        {
          "indexed": false,
          "internalType": "bytes32",
          "name": "seed",
          "type": "bytes32"
        },
        {
          "indexed": false,
          "internalType": "bool",
          "name": "addedToProblem",
          "type": "bool"
        }
      ],
      "name": "bodyBorn",
      "type": "event"
    },
    {
      "stateMutability": "nonpayable",
      "type": "fallback"
    },
    {
      "inputs": [
        {
          "internalType": "address",
          "name": "to",
          "type": "address"
        },
        {
          "internalType": "uint256",
          "name": "tokenId",
          "type": "uint256"
        }
      ],
      "name": "approve",
      "outputs": [],
      "stateMutability": "nonpayable",
      "type": "function"
    },
    {
      "inputs": [
        {
          "internalType": "address",
          "name": "owner",
          "type": "address"
        }
      ],
      "name": "balanceOf",
      "outputs": [
        {
          "internalType": "uint256",
          "name": "",
          "type": "uint256"
        }
      ],
      "stateMutability": "view",
      "type": "function"
    },
    {
      "inputs": [
        {
          "internalType": "uint256",
          "name": "",
          "type": "uint256"
        }
      ],
      "name": "bodies",
      "outputs": [
        {
          "internalType": "uint256",
          "name": "problemId",
          "type": "uint256"
        },
        {
          "internalType": "uint256",
          "name": "mintedBodyIndex",
          "type": "uint256"
        },
        {
          "internalType": "uint256",
          "name": "life",
          "type": "uint256"
        },
        {
          "internalType": "bytes32",
          "name": "seed",
          "type": "bytes32"
        }
      ],
      "stateMutability": "view",
      "type": "function"
    },
    {
      "inputs": [
        {
          "internalType": "uint256",
          "name": "bodyID",
          "type": "uint256"
        }
      ],
      "name": "burn",
      "outputs": [],
      "stateMutability": "nonpayable",
      "type": "function"
    },
    {
      "inputs": [],
      "name": "counter",
      "outputs": [
        {
          "internalType": "uint256",
          "name": "",
          "type": "uint256"
        }
      ],
      "stateMutability": "view",
      "type": "function"
    },
    {
      "inputs": [],
      "name": "decimals",
      "outputs": [
        {
          "internalType": "uint256",
          "name": "",
          "type": "uint256"
        }
      ],
      "stateMutability": "view",
      "type": "function"
    },
    {
      "inputs": [
        {
          "internalType": "uint256",
          "name": "tokenId",
          "type": "uint256"
        }
      ],
      "name": "generateSeed",
      "outputs": [
        {
          "internalType": "bytes32",
          "name": "",
          "type": "bytes32"
        }
      ],
      "stateMutability": "view",
      "type": "function"
    },
    {
      "inputs": [
        {
          "internalType": "uint256",
          "name": "tokenId",
          "type": "uint256"
        }
      ],
      "name": "getApproved",
      "outputs": [
        {
          "internalType": "address",
          "name": "",
          "type": "address"
        }
      ],
      "stateMutability": "view",
      "type": "function"
    },
    {
      "inputs": [
        {
          "internalType": "address",
          "name": "owner",
          "type": "address"
        },
        {
          "internalType": "address",
          "name": "operator",
          "type": "address"
        }
      ],
      "name": "isApprovedForAll",
      "outputs": [
        {
          "internalType": "bool",
          "name": "",
          "type": "bool"
        }
      ],
      "stateMutability": "view",
      "type": "function"
    },
    {
      "inputs": [
        {
          "internalType": "uint256",
          "name": "",
          "type": "uint256"
        }
      ],
      "name": "lifeLengths",
      "outputs": [
        {
          "internalType": "uint256",
          "name": "",
          "type": "uint256"
        }
      ],
      "stateMutability": "view",
      "type": "function"
    },
    {
      "inputs": [
        {
          "internalType": "address",
          "name": "owner",
          "type": "address"
        },
        {
          "internalType": "uint256",
          "name": "problemId",
          "type": "uint256"
        },
        {
          "internalType": "uint256",
          "name": "mintedBodyIndex",
          "type": "uint256"
        }
      ],
      "name": "mint",
      "outputs": [],
      "stateMutability": "nonpayable",
      "type": "function"
    },
    {
      "inputs": [
        {
          "internalType": "address",
          "name": "owner",
          "type": "address"
        },
        {
          "internalType": "uint256",
          "name": "problemId",
          "type": "uint256"
        },
        {
          "internalType": "uint256",
          "name": "mintedBodyIndex",
          "type": "uint256"
        }
      ],
      "name": "mintAndAddToProblem",
      "outputs": [
        {
          "internalType": "uint256",
          "name": "bodyId",
          "type": "uint256"
        },
        {
          "internalType": "uint256",
          "name": "life",
          "type": "uint256"
        },
        {
          "internalType": "bytes32",
          "name": "seed",
          "type": "bytes32"
        }
      ],
      "stateMutability": "nonpayable",
      "type": "function"
    },
    {
      "inputs": [
        {
          "internalType": "address",
          "name": "owner",
          "type": "address"
        },
        {
          "internalType": "uint256",
          "name": "bodyId",
          "type": "uint256"
        },
        {
          "internalType": "uint256",
          "name": "problemId",
          "type": "uint256"
        },
        {
          "internalType": "uint256",
          "name": "life",
          "type": "uint256"
        }
      ],
      "name": "moveBodyFromProblem",
      "outputs": [],
      "stateMutability": "nonpayable",
      "type": "function"
    },
    {
      "inputs": [
        {
          "internalType": "uint256",
          "name": "bodyId",
          "type": "uint256"
        },
        {
          "internalType": "address",
          "name": "owner",
          "type": "address"
        },
        {
          "internalType": "uint256",
          "name": "problemId",
          "type": "uint256"
        }
      ],
      "name": "moveBodyToProblem",
      "outputs": [
        {
          "internalType": "uint256",
          "name": "mintedBodyIndex",
          "type": "uint256"
        },
        {
          "internalType": "uint256",
          "name": "life",
          "type": "uint256"
        },
        {
          "internalType": "bytes32",
          "name": "seed",
          "type": "bytes32"
        }
      ],
      "stateMutability": "nonpayable",
      "type": "function"
    },
    {
      "inputs": [],
      "name": "name",
      "outputs": [
        {
          "internalType": "string",
          "name": "",
          "type": "string"
        }
      ],
      "stateMutability": "view",
      "type": "function"
    },
    {
      "inputs": [],
      "name": "owner",
      "outputs": [
        {
          "internalType": "address",
          "name": "",
          "type": "address"
        }
      ],
      "stateMutability": "view",
      "type": "function"
    },
    {
      "inputs": [
        {
          "internalType": "uint256",
          "name": "tokenId",
          "type": "uint256"
        }
      ],
      "name": "ownerOf",
      "outputs": [
        {
          "internalType": "address",
          "name": "",
          "type": "address"
        }
      ],
      "stateMutability": "view",
      "type": "function"
    },
    {
      "inputs": [
        {
          "internalType": "address",
          "name": "owner",
          "type": "address"
        },
        {
          "internalType": "uint256",
          "name": "bodyId",
          "type": "uint256"
        }
      ],
      "name": "problemMint",
      "outputs": [],
      "stateMutability": "nonpayable",
      "type": "function"
    },
    {
      "inputs": [],
      "name": "problems",
      "outputs": [
        {
          "internalType": "address payable",
          "name": "",
          "type": "address"
        }
      ],
      "stateMutability": "view",
      "type": "function"
    },
    {
      "inputs": [],
      "name": "renounceOwnership",
      "outputs": [],
      "stateMutability": "nonpayable",
      "type": "function"
    },
    {
      "inputs": [
        {
          "internalType": "address",
          "name": "from",
          "type": "address"
        },
        {
          "internalType": "address",
          "name": "to",
          "type": "address"
        },
        {
          "internalType": "uint256",
          "name": "tokenId",
          "type": "uint256"
        }
      ],
      "name": "safeTransferFrom",
      "outputs": [],
      "stateMutability": "nonpayable",
      "type": "function"
    },
    {
      "inputs": [
        {
          "internalType": "address",
          "name": "from",
          "type": "address"
        },
        {
          "internalType": "address",
          "name": "to",
          "type": "address"
        },
        {
          "internalType": "uint256",
          "name": "tokenId",
          "type": "uint256"
        },
        {
          "internalType": "bytes",
          "name": "data",
          "type": "bytes"
        }
      ],
      "name": "safeTransferFrom",
      "outputs": [],
      "stateMutability": "nonpayable",
      "type": "function"
    },
    {
      "inputs": [
        {
          "internalType": "address",
          "name": "operator",
          "type": "address"
        },
        {
          "internalType": "bool",
          "name": "approved",
          "type": "bool"
        }
      ],
      "name": "setApprovalForAll",
      "outputs": [],
      "stateMutability": "nonpayable",
      "type": "function"
    },
    {
      "inputs": [
        {
          "internalType": "bytes4",
          "name": "interfaceId",
          "type": "bytes4"
        }
      ],
      "name": "supportsInterface",
      "outputs": [
        {
          "internalType": "bool",
          "name": "",
          "type": "bool"
        }
      ],
      "stateMutability": "view",
      "type": "function"
    },
    {
      "inputs": [],
      "name": "symbol",
      "outputs": [
        {
          "internalType": "string",
          "name": "",
          "type": "string"
        }
      ],
      "stateMutability": "view",
      "type": "function"
    },
    {
      "inputs": [
        {
          "internalType": "uint256",
          "name": "",
          "type": "uint256"
        }
      ],
      "name": "tockPrice",
      "outputs": [
        {
          "internalType": "uint256",
          "name": "",
          "type": "uint256"
        }
      ],
      "stateMutability": "view",
      "type": "function"
    },
    {
      "inputs": [],
      "name": "tocks",
      "outputs": [
        {
          "internalType": "address",
          "name": "",
          "type": "address"
        }
      ],
      "stateMutability": "view",
      "type": "function"
    },
    {
      "inputs": [
        {
          "internalType": "uint256",
          "name": "tokenId",
          "type": "uint256"
        }
      ],
      "name": "tokenURI",
      "outputs": [
        {
          "internalType": "string",
          "name": "",
          "type": "string"
        }
      ],
      "stateMutability": "view",
      "type": "function"
    },
    {
      "inputs": [
        {
          "internalType": "address",
          "name": "from",
          "type": "address"
        },
        {
          "internalType": "address",
          "name": "to",
          "type": "address"
        },
        {
          "internalType": "uint256",
          "name": "tokenId",
          "type": "uint256"
        }
      ],
      "name": "transferFrom",
      "outputs": [],
      "stateMutability": "nonpayable",
      "type": "function"
    },
    {
      "inputs": [
        {
          "internalType": "address",
          "name": "newOwner",
          "type": "address"
        }
      ],
      "name": "transferOwnership",
      "outputs": [],
      "stateMutability": "nonpayable",
      "type": "function"
    },
    {
      "inputs": [
        {
          "internalType": "uint256",
          "name": "index",
          "type": "uint256"
        },
        {
          "internalType": "uint256",
          "name": "life",
          "type": "uint256"
        }
      ],
      "name": "updateBodyLife",
      "outputs": [],
      "stateMutability": "nonpayable",
      "type": "function"
    },
    {
      "inputs": [
        {
          "internalType": "address payable",
          "name": "problems_",
          "type": "address"
        }
      ],
      "name": "updateProblemsAddress",
      "outputs": [],
      "stateMutability": "nonpayable",
      "type": "function"
    },
    {
      "inputs": [
        {
          "internalType": "uint256",
          "name": "index",
          "type": "uint256"
        },
        {
          "internalType": "uint256",
          "name": "price",
          "type": "uint256"
        }
      ],
      "name": "updateTockPrice",
      "outputs": [],
      "stateMutability": "nonpayable",
      "type": "function"
    },
    {
      "inputs": [
        {
          "internalType": "address",
          "name": "tocks_",
          "type": "address"
        }
      ],
      "name": "updateTocksAddress",
      "outputs": [],
      "stateMutability": "nonpayable",
      "type": "function"
    }
  ],
  "bytecode": "0x608034620004ac57601f6200203838819003828101601f19908116850194909290916001600160401b03919082871184881017620004965780849260409889528339602093849181010312620004ac57516001600160a01b038082169590929091869003620004ac5762000072620004d2565b916006835265426f6469657360d01b858401526200008f620004d2565b60038152621093d160ea1b8682015283519683881162000496576000978854956001968781811c911680156200048b575b8a8210146200047757908a8a83888087961162000446575b505050508990868311600114620003e5578b92620003d9575b5050600019600383901b1c191690861b1788555b8151938411620003c55784548581811c91168015620003ba575b88821014620003a65790818486959493116200036b575b50879284116001146200030a57508792620002fe575b5050600019600383901b1c191690821b1781555b6006549360018060a01b0319943386821617600655833391167f8be0079c531659141344cd1fd0a4f28419497f9722a3daafe3b4186f6b6457e0838a51a3620001a8620004b1565b818152818582015281888201526103e860608201526107d06080820152610fa060a0820152611f4060c0820152613e8060e082015261010090617d00828201526101209061fa0082820152600b90858886925b600a8410620002e3575050505050614e209062000217620004b1565b926127108085528089860152808c8601526060850152612af86080850152612ee0908160a08601528160c08601528160e086015284015282015284601592915b600a8310620002ca57505050505033906006541603620002885750600754161760075551611b2c90816200050c8239f35b60649084519062461bcd60e51b825280600483015260248201527f4f776e61626c653a2063616c6c6572206973206e6f7420746865206f776e65726044820152fd5b805161ffff168455928401929184019186910162000257565b908161ffff84935116865501930191019091888791620001fb565b0151905038806200014c565b85895287892086959093929116895b898282106200035457505084116200033a575b505050811b01815562000160565b015160001960f88460031b161c191690553880806200032c565b838501518655889790950194938401930162000319565b6200039590878b52898b208580880160051c8201928c89106200039c575b0160051c0190620004f2565b3862000136565b9250819262000389565b634e487b7160e01b89526022600452602489fd5b90607f16906200011f565b634e487b7160e01b88526041600452602488fd5b015190503880620000f1565b9084899416918c80528b8d20928d5b8d8282106200042f575050841162000415575b505050811b01885562000105565b015160001960f88460031b161c1916905538808062000407565b8385015186558c97909501949384019301620003f4565b8284806200046d9652209181870160051c83019387106200039c570160051c0190620004f2565b8a8a3888620000d8565b634e487b7160e01b8b52602260045260248bfd5b90607f1690620000c0565b634e487b7160e01b600052604160045260246000fd5b600080fd5b6040519061014082016001600160401b038111838210176200049657604052565b60408051919082016001600160401b038111838210176200049657604052565b818110620004fe575050565b60008155600101620004f256fe608060409080825260049081361015610057575b5034610052576020606492519162461bcd60e51b835282015260146024820152733737903330b6363130b1b590333ab731ba34b7b760611b6044820152fd5b600080fd5b600090813560e01c90816301ffc9a7146110c75750806306fdde0314610ffb578063081812fc14610fda578063087c32e614610f95578063095ea7b314610e255780630efa71e014610df8578063156e29f614610cec57806320a9a7e014610cb857806323b872dd14610c8d578063313ce56714610c6a57806331d988b214610c2f5780633c43b50b14610b7a5780633e301fd014610b51578063424611c314610b2957806342842e0e14610ada57806342966c6814610a2f57806344cee73c146109e457806361bc221a146109c55780636352211e146109935780636f212925146108ff57806370a082311461086a578063715018a61461080a5780638da5cb5b146107e1578063952ef7ef146107a057806395d89b4114610686578063a22cb465146105b5578063b88d4fde14610524578063c87b56dd146104b9578063d395cb1314610390578063e70139b814610363578063e805c77d1461031c578063e985e9c5146102ce578063f2fde38b146102025763f9df988f036100135782346101fe57816003193601126101fe5760075490516001600160a01b039091168152602090f35b5080fd5b509190346102ca5760203660031901126102ca5761021e611184565b6102266112b1565b6001600160a01b03908116918215610278575060065492826001600160601b0360a01b8516176006555192167f8be0079c531659141344cd1fd0a4f28419497f9722a3daafe3b4186f6b6457e08484a3f35b608490602085519162461bcd60e51b8352820152602660248201527f4f776e61626c653a206e6577206f776e657220697320746865207a65726f206160448201526564647265737360d01b6064820152fd5b8280fd5b5082346101fe57806003193601126101fe5760ff816020936102ee611184565b6102f661119a565b6001600160a01b0391821683526005875283832091168252855220549151911615158152f35b509190346102ca5761032d366111da565b916103366112b1565b600a8210610343816117b2565b1561035057506015015551f35b634e487b7160e01b855260329052602484fd5b509190346102ca5760203660031901126102ca5735600a8110156102ca5760209250600b01549051908152f35b5082346101fe576103a0366111b0565b6103b860018060a09694961b03600754163314611845565b6103c281846119db565b600a6103ce815461188a565b93848255818310156104a6576104a29596975061044f9083601501549860036103f6886117ee565b978b88519361040485611225565b8c85528960208601918a835281870193845260608701948d8652815260096020522094518555516001850155516002840155519101556104458354826118e5565b825490309061157e565b5494857f11d2af26f29275293ddf60830060f807c915c3d847afa3afc7d31dab9aa3f472606085518a8152876020820152600187820152a451938493846040919493926060820195825260208201520152565b0390f35b634e487b7160e01b875260328852602487fd5b5082346101fe5760203660031901126101fe576104f76104f26104a29435600052600260205260018060a01b0360406000205416151590565b611309565b81815161050381611257565b5280519161051083611257565b825251918291602083526020830190611133565b509190346102ca5760803660031901126102ca57610540611184565b9061054961119a565b916064359167ffffffffffffffff83116105b157366023840112156105b157820135928561057685611295565b9361058387519586611273565b85855236602487830101116101fe57856105ae9660246020930183880137850101526044359161141b565b51f35b8580fd5b509190346102ca57816003193601126102ca576105d0611184565b60243590811515809203610682576001600160a01b03169133831461063f5750338452600560205282842082855260205282842060ff1981541660ff831617905582519081527f17307eab39ab6107e8899845ad3d59bd9653f200f220920489ca2b5937696c3160203392a351f35b606490602085519162461bcd60e51b8352820152601960248201527f4552433732313a20617070726f766520746f2063616c6c6572000000000000006044820152fd5b8480fd5b5082903461079d578060031936011261079d578151918160019283549384811c91818616958615610793575b6020968785108114610780578899509688969785829a5291826000146107595750506001146106fe575b5050506104a292916106ef910385611273565b51928284938452830190611133565b91908693508083527fb10e2d527612073b26eecdfd717e6a320cf44b4afac2b0732d9fcbe2b7fa0cf65b82841061074157505050820101816106ef6104a26106dc565b8054848a018601528895508794909301928101610728565b60ff19168782015293151560051b860190930193508492506106ef91506104a290506106dc565b634e487b7160e01b835260228a52602483fd5b92607f16926106b2565b80fd5b5082346101fe5760203660031901126101fe576107bb611184565b6107c36112b1565b60018060a01b03166001600160601b0360a01b600854161760085551f35b5082346101fe57816003193601126101fe5760065490516001600160a01b039091168152602090f35b5082346101fe57816003193601126101fe576108246112b1565b600680546001600160a01b0319811690915590519082906001600160a01b03167f8be0079c531659141344cd1fd0a4f28419497f9722a3daafe3b4186f6b6457e08284a3f35b5090346101fe5760203660031901126101fe576001600160a01b0361088d611184565b169081156108aa5760208480858581526003845220549051908152f35b608490602085519162461bcd60e51b8352820152602960248201527f4552433732313a2061646472657373207a65726f206973206e6f7420612076616044820152683634b21037bbb732b960b91b6064820152fd5b509190346102ca5760603660031901126102ca57356109638161092061119a565b61094d60018060a01b0361093981600754163314611845565b61094284611355565b811690831614611ab9565b818652600960205260443585872055309061157e565b82526009602090815291819020600181015460028201546003909201549251908152928301526040820152606090f35b5082903461079d57602036600319011261079d57506109b460209235611355565b90516001600160a01b039091168152f35b5082346101fe57816003193601126101fe57602090600a549051908152f35b509190346102ca5760203660031901126102ca576080928291358152600960205220908154916001810154916003600283015492015492815194855260208501528301526060820152f35b5091346102ca5760203660031901126102ca578282359160018060a01b03610a5c81600754163314611845565b610a6584611355565b50610a6f84611355565b94848452602052818320946001600160601b0360a01b95868154169055169384835260036020528183206000198154019055838352600260205281832090815416905551927fddf252ad1be2c89b69c2b068fc378daa952ba7f163c4a11628f55a4df523b3ef8285a4f35b5082346101fe57610aea366111f0565b908351926020840184811067ffffffffffffffff821117610b1657856105ae969798505286845261141b565b634e487b7160e01b875260418852602487fd5b5082903461079d57602036600319011261079d5750610b4a602092356117ee565b9051908152f35b5082346101fe57816003193601126101fe5760085490516001600160a01b039091168152602090f35b509190346102ca5760803660031901126102ca57610b96611184565b60243591610bc460018060a01b03610bb381600754163314611845565b610bbc85611355565b163014611ab9565b82855260096020526044358486205403610bfb5750906105ae9181855260096020528484812055606435600285872001553061157e565b606490602085519162461bcd60e51b8352820152600e60248201526d4e6f7420696e2070726f626c656d60901b6044820152fd5b5082346101fe57806003193601126101fe576105ae610c4c611184565b610c6160018060a01b03600754163314611845565b602435906118e5565b5082346101fe57816003193601126101fe5760209051670de0b6b3a76400008152f35b5082346101fe576105ae610ca0366111f0565b91610cb3610cae84336114b6565b6113b9565b61157e565b509190346102ca57610cc9366111da565b91610cd26112b1565b600a8210610cdf816117b2565b156103505750600b015551f35b509190346102ca57610cfd366111b0565b929091610d1560018060a01b03600754163314611845565b610d1f84826119db565b610d2a600a5461188a565b9182600a55600a851015610de55750610d9b90846015019260038454610d4f836117ee565b90895193610d5c85611225565b8b855260208501908a82528b8601928352606086019384528c5260096020528a8c209451855551600185015551600284015551910155600a54906118e5565b7f11d2af26f29275293ddf60830060f807c915c3d847afa3afc7d31dab9aa3f4726060600a549254838852600960205260038789200154875191825260208201528787820152a451f35b634e487b7160e01b875260329052602486fd5b509190346102ca5760203660031901126102ca5735600a8110156102ca5760209250601501549051908152f35b509190346102ca57816003193601126102ca57610e40611184565b602435916001600160a01b03908180610e5886611355565b16931692808414610f4857803314908115610f29575b5015610ec05783865260205283852080546001600160a01b03191683179055610e9683611355565b169251927f8c5be1e5ebec7d5bd14f71427d1e84f3dd0314c0f7b2291e5b200ac8c7c3b9258585a4f35b608490602086519162461bcd60e51b8352820152603d60248201527f4552433732313a20617070726f76652063616c6c6572206973206e6f7420746f60448201527f6b656e206f776e6572206f7220617070726f76656420666f7220616c6c0000006064820152fd5b90508652600560205284862033875260205260ff858720541638610e6e565b855162461bcd60e51b8152602081840152602160248201527f4552433732313a20617070726f76616c20746f2063757272656e74206f776e656044820152603960f91b6064820152608490fd5b509190346102ca5760203660031901126102ca57356001600160a01b038116908190036102ca57610fc46112b1565b6001600160601b0360a01b600754161760075551f35b5082903461079d57602036600319011261079d57506109b46020923561137b565b5082903461079d578060031936011261079d5781519181825492600184811c918186169586156110bd575b6020968785108114610780578899509688969785829a529182600014610759575050600114611062575050506104a292916106ef910385611273565b91908693508280527f290decd9548b62a8d60345a988386fc84ba6bc95484008f6362f93160ef3e5635b8284106110a557505050820101816106ef6104a26106dc565b8054848a01860152889550879490930192810161108c565b92607f1692611026565b905082346102ca5760203660031901126102ca573563ffffffff60e01b81168091036102ca57602092506380ac58cd60e01b8114908115611122575b8115611111575b5015158152f35b6301ffc9a760e01b1490508361110a565b635b5e139f60e01b81149150611103565b91908251928382526000905b84821061116c57509280602093941161115f575b601f01601f1916010190565b6000838284010152611153565b9060209081808285010151908286010152019061113f565b600435906001600160a01b038216820361005257565b602435906001600160a01b038216820361005257565b6060906003190112610052576004356001600160a01b038116810361005257906024359060443590565b6040906003190112610052576004359060243590565b6060906003190112610052576001600160a01b0390600435828116810361005257916024359081168103610052579060443590565b6080810190811067ffffffffffffffff82111761124157604052565b634e487b7160e01b600052604160045260246000fd5b6020810190811067ffffffffffffffff82111761124157604052565b90601f8019910116810190811067ffffffffffffffff82111761124157604052565b67ffffffffffffffff811161124157601f01601f191660200190565b6006546001600160a01b031633036112c557565b606460405162461bcd60e51b815260206004820152602060248201527f4f776e61626c653a2063616c6c6572206973206e6f7420746865206f776e65726044820152fd5b1561131057565b60405162461bcd60e51b815260206004820152601860248201527f4552433732313a20696e76616c696420746f6b656e20494400000000000000006044820152606490fd5b6000908152600260205260409020546001600160a01b0316611378811515611309565b90565b60008181526002602052604090205461139e906001600160a01b03161515611309565b6000908152600460205260409020546001600160a01b031690565b156113c057565b60405162461bcd60e51b815260206004820152602d60248201527f4552433732313a2063616c6c6572206973206e6f7420746f6b656e206f776e6560448201526c1c881bdc88185c1c1c9bdd9959609a1b6064820152608490fd5b9061143f93929161142f610cae84336114b6565b61143a83838361157e565b611691565b1561144657565b60405162461bcd60e51b81528061145f60048201611463565b0390fd5b60809060208152603260208201527f4552433732313a207472616e7366657220746f206e6f6e20455243373231526560408201527131b2b4bb32b91034b6b83632b6b2b73a32b960711b60608201520190565b906001600160a01b0380806114ca84611355565b169316918383149384156114fd575b5083156114e7575b50505090565b6114f39192935061137b565b16143880806114e1565b909350600052600560205260406000208260005260205260ff6040600020541692386114d9565b1561152b57565b60405162461bcd60e51b815260206004820152602560248201527f4552433732313a207472616e736665722066726f6d20696e636f72726563742060448201526437bbb732b960d91b6064820152608490fd5b906115a69161158c84611355565b6001600160a01b0393918416928492909183168414611524565b1691821561164057816115c3916115bc86611355565b1614611524565b7fddf252ad1be2c89b69c2b068fc378daa952ba7f163c4a11628f55a4df523b3ef60008481526004602052604081206001600160601b0360a01b90818154169055838252600360205260408220600019815401905584825260408220600181540190558582526002602052846040832091825416179055604051a4565b60405162461bcd60e51b8152602060048201526024808201527f4552433732313a207472616e7366657220746f20746865207a65726f206164646044820152637265737360e01b6064820152608490fd5b9293600093909291803b156117a7579484916116eb9660405180948193630a85bd0160e11b9788845233600485015260018060a01b0380921660248501526044840152608060648401528260209b8c976084830190611133565b0393165af1849181611767575b50611756575050503d60001461174e573d61171281611295565b906117206040519283611273565b81528091833d92013e5b8051918261174b5760405162461bcd60e51b81528061145f60048201611463565b01fd5b50606061172a565b6001600160e01b0319161492509050565b9091508581813d83116117a0575b61177f8183611273565b8101031261068257516001600160e01b0319811681036106825790386116f8565b503d611775565b505050915050600190565b156117b957565b60405162461bcd60e51b815260206004820152600d60248201526c092dcecc2d8d2c840d2dcc8caf609b1b6044820152606490fd5b6001431061182f57604051602081019182526000194301406040820152604081526060810181811067ffffffffffffffff8211176112415760405251902090565b634e487b7160e01b600052601160045260246000fd5b1561184c57565b60405162461bcd60e51b815260206004820152601660248201527513db9b1e48141c9bd89b195b5cc818d85b8818d85b1b60521b6044820152606490fd5b600019811461182f5760010190565b156118a057565b60405162461bcd60e51b815260206004820152601c60248201527f4552433732313a20746f6b656e20616c7265616479206d696e746564000000006044820152606490fd5b6001600160a01b0316801561199757600082815260026020526040902054611919906001600160a01b031615155b15611899565b60008281526002602052604090205461193c906001600160a01b03161515611913565b600081815260036020526040812060018154019055828152600260205260408120826001600160601b0360a01b8254161790557fddf252ad1be2c89b69c2b068fc378daa952ba7f163c4a11628f55a4df523b3ef81604051a4565b606460405162461bcd60e51b815260206004820152602060248201527f4552433732313a206d696e7420746f20746865207a65726f20616464726573736044820152fd5b90600a811015611a7557600b0154670de0b6b3a764000090806000190482118115151661182f57029081611a0d575050565b6008546001600160a01b03908116803b1561005257600092836044926040519687958694632770a7eb60e21b865216600485015260248401525af18015611a6957611a555750565b67ffffffffffffffff811161124157604052565b6040513d6000823e3d90fd5b606460405162461bcd60e51b815260206004820152602060248201527f50726f626c656d20616c7265616479206d696e74656420313020626f646965736044820152fd5b15611ac057565b60405162461bcd60e51b815260206004820152600e60248201526d2737ba103137b23c9037bbb732b960911b6044820152606490fdfea2646970667358221220740e96e34e610ff2ee94ac54f26a48178f744dee27adba6570fe74b4478cd41064736f6c634300080f0033",
  "linkReferences": {},
  "deployedLinkReferences": {}
}