{
  "_format": "hh-sol-artifact-1",
  "contractName": "Problems",
  "sourceName": "contracts/Problems.sol",
  "abi": [
    {
      "inputs": [
        {
          "internalType": "address",
          "name": "metadata_",
          "type": "address"
        },
        {
          "internalType": "address[]",
          "name": "verifiers_",
          "type": "address[]"
        },
        {
          "internalType": "uint256[]",
          "name": "verifiersTicks",
          "type": "uint256[]"
        },
        {
          "internalType": "uint256[]",
          "name": "verifiersBodies",
          "type": "uint256[]"
        }
      ],
      "stateMutability": "nonpayable",
      "type": "constructor"
    },
    {
      "anonymous": false,
      "inputs": [
        {
          "indexed": true,
          "internalType": "address",
          "name": "owner",
          "type": "address"
        },
        {
          "indexed": true,
          "internalType": "address",
          "name": "approved",
          "type": "address"
        },
        {
          "indexed": true,
          "internalType": "uint256",
          "name": "tokenId",
          "type": "uint256"
        }
      ],
      "name": "Approval",
      "type": "event"
    },
    {
      "anonymous": false,
      "inputs": [
        {
          "indexed": true,
          "internalType": "address",
          "name": "owner",
          "type": "address"
        },
        {
          "indexed": true,
          "internalType": "address",
          "name": "operator",
          "type": "address"
        },
        {
          "indexed": false,
          "internalType": "bool",
          "name": "approved",
          "type": "bool"
        }
      ],
      "name": "ApprovalForAll",
      "type": "event"
    },
    {
      "anonymous": false,
      "inputs": [
        {
          "indexed": true,
          "internalType": "address",
          "name": "to",
          "type": "address"
        },
        {
          "indexed": true,
          "internalType": "bool",
          "name": "success",
          "type": "bool"
        },
        {
          "indexed": false,
          "internalType": "bytes",
          "name": "returnData",
          "type": "bytes"
        },
        {
          "indexed": false,
          "internalType": "uint256",
          "name": "amount",
          "type": "uint256"
        }
      ],
      "name": "EthMoved",
      "type": "event"
    },
    {
      "anonymous": false,
      "inputs": [
        {
          "indexed": true,
          "internalType": "address",
          "name": "previousOwner",
          "type": "address"
        },
        {
          "indexed": true,
          "internalType": "address",
          "name": "newOwner",
          "type": "address"
        }
      ],
      "name": "OwnershipTransferred",
      "type": "event"
    },
    {
      "anonymous": false,
      "inputs": [
        {
          "indexed": true,
          "internalType": "address",
          "name": "from",
          "type": "address"
        },
        {
          "indexed": true,
          "internalType": "address",
          "name": "to",
          "type": "address"
        },
        {
          "indexed": true,
          "internalType": "uint256",
          "name": "tokenId",
          "type": "uint256"
        }
      ],
      "name": "Transfer",
      "type": "event"
    },
    {
      "anonymous": false,
      "inputs": [
        {
          "indexed": false,
          "internalType": "uint256",
          "name": "problemId",
          "type": "uint256"
        },
        {
          "indexed": false,
          "internalType": "uint256",
          "name": "bodyId",
          "type": "uint256"
        },
        {
          "indexed": false,
          "internalType": "uint256",
          "name": "mintedBodyIndex",
          "type": "uint256"
        },
        {
          "indexed": false,
          "internalType": "uint256",
          "name": "tick",
          "type": "uint256"
        },
        {
          "indexed": false,
          "internalType": "uint256",
          "name": "px",
          "type": "uint256"
        },
        {
          "indexed": false,
          "internalType": "uint256",
          "name": "py",
          "type": "uint256"
        },
        {
          "indexed": false,
          "internalType": "uint256",
          "name": "radius",
          "type": "uint256"
        },
        {
          "indexed": false,
          "internalType": "uint256",
          "name": "starLvl",
          "type": "uint256"
        },
        {
          "indexed": false,
          "internalType": "uint256",
          "name": "maxStarLvl",
          "type": "uint256"
        },
        {
          "indexed": false,
          "internalType": "bytes32",
          "name": "seed",
          "type": "bytes32"
        }
      ],
      "name": "bodyAdded",
      "type": "event"
    },
    {
      "anonymous": false,
      "inputs": [
        {
          "indexed": false,
          "internalType": "uint256",
          "name": "problemId",
          "type": "uint256"
        },
        {
          "indexed": false,
          "internalType": "uint256",
          "name": "tick",
          "type": "uint256"
        },
        {
          "indexed": false,
          "internalType": "uint256",
          "name": "bodyId",
          "type": "uint256"
        },
        {
          "indexed": false,
          "internalType": "uint256",
          "name": "starLvl",
          "type": "uint256"
        },
        {
          "indexed": false,
          "internalType": "uint256",
          "name": "maxStarLvl",
          "type": "uint256"
        },
        {
          "indexed": false,
          "internalType": "bytes32",
          "name": "seed",
          "type": "bytes32"
        }
      ],
      "name": "bodyRemoved",
      "type": "event"
    },
    {
      "inputs": [
        {
          "internalType": "uint256",
          "name": "problemId",
          "type": "uint256"
        },
        {
          "internalType": "uint256",
          "name": "bodyId",
          "type": "uint256"
        }
      ],
      "name": "addExistingBody",
      "outputs": [],
      "stateMutability": "nonpayable",
      "type": "function"
    },
    {
      "inputs": [
        {
          "internalType": "address",
          "name": "recipient",
          "type": "address"
        }
      ],
      "name": "adminMint",
      "outputs": [],
      "stateMutability": "nonpayable",
      "type": "function"
    },
    {
      "inputs": [
        {
          "internalType": "address",
          "name": "to",
          "type": "address"
        },
        {
          "internalType": "uint256",
          "name": "tokenId",
          "type": "uint256"
        }
      ],
      "name": "approve",
      "outputs": [],
      "stateMutability": "nonpayable",
      "type": "function"
    },
    {
      "inputs": [
        {
          "internalType": "address",
          "name": "owner",
          "type": "address"
        }
      ],
      "name": "balanceOf",
      "outputs": [
        {
          "internalType": "uint256",
          "name": "",
          "type": "uint256"
        }
      ],
      "stateMutability": "view",
      "type": "function"
    },
    {
      "inputs": [],
      "name": "bodies",
      "outputs": [
        {
          "internalType": "address",
          "name": "",
          "type": "address"
        }
      ],
      "stateMutability": "view",
      "type": "function"
    },
    {
      "inputs": [
        {
          "internalType": "uint256",
          "name": "problemId",
          "type": "uint256"
        }
      ],
      "name": "convertBodiesToStars",
      "outputs": [],
      "stateMutability": "nonpayable",
      "type": "function"
    },
    {
      "inputs": [
        {
          "internalType": "uint256",
          "name": "tokenId",
          "type": "uint256"
        }
      ],
      "name": "getApproved",
      "outputs": [
        {
          "internalType": "address",
          "name": "",
          "type": "address"
        }
      ],
      "stateMutability": "view",
      "type": "function"
    },
    {
      "inputs": [
        {
          "internalType": "uint256",
          "name": "problemId",
          "type": "uint256"
        },
        {
          "internalType": "uint256",
          "name": "bodyId",
          "type": "uint256"
        }
      ],
      "name": "getProblemBodyData",
      "outputs": [
        {
          "components": [
            {
              "internalType": "uint256",
              "name": "bodyId",
              "type": "uint256"
            },
            {
              "internalType": "uint256",
              "name": "mintedBodyIndex",
              "type": "uint256"
            },
            {
              "internalType": "uint256",
              "name": "bodyIndex",
              "type": "uint256"
            },
            {
              "internalType": "uint256",
              "name": "px",
              "type": "uint256"
            },
            {
              "internalType": "uint256",
              "name": "py",
              "type": "uint256"
            },
            {
              "internalType": "uint256",
              "name": "vx",
              "type": "uint256"
            },
            {
              "internalType": "uint256",
              "name": "vy",
              "type": "uint256"
            },
            {
              "internalType": "uint256",
              "name": "radius",
              "type": "uint256"
            },
            {
              "internalType": "uint256",
              "name": "starLvl",
              "type": "uint256"
            },
            {
              "internalType": "uint256",
              "name": "maxStarLvl",
              "type": "uint256"
            },
            {
              "internalType": "bytes32",
              "name": "seed",
              "type": "bytes32"
            }
          ],
          "internalType": "struct Problems.Body",
          "name": "",
          "type": "tuple"
        }
      ],
      "stateMutability": "view",
      "type": "function"
    },
    {
      "inputs": [
        {
          "internalType": "uint256",
          "name": "problemId",
          "type": "uint256"
        }
      ],
      "name": "getProblemBodyIds",
      "outputs": [
        {
          "internalType": "uint256[10]",
          "name": "",
          "type": "uint256[10]"
        }
      ],
      "stateMutability": "view",
      "type": "function"
    },
    {
      "inputs": [
        {
          "internalType": "uint256",
          "name": "problemId",
          "type": "uint256"
        }
      ],
      "name": "getProblemMintedBodiesIndex",
      "outputs": [
        {
          "internalType": "uint256",
          "name": "",
          "type": "uint256"
        }
      ],
      "stateMutability": "view",
      "type": "function"
    },
    {
      "inputs": [
        {
          "internalType": "bytes32",
          "name": "seed",
          "type": "bytes32"
        }
      ],
      "name": "getRandomValues",
      "outputs": [
        {
          "components": [
            {
              "internalType": "uint256",
              "name": "bodyId",
              "type": "uint256"
            },
            {
              "internalType": "uint256",
              "name": "mintedBodyIndex",
              "type": "uint256"
            },
            {
              "internalType": "uint256",
              "name": "bodyIndex",
              "type": "uint256"
            },
            {
              "internalType": "uint256",
              "name": "px",
              "type": "uint256"
            },
            {
              "internalType": "uint256",
              "name": "py",
              "type": "uint256"
            },
            {
              "internalType": "uint256",
              "name": "vx",
              "type": "uint256"
            },
            {
              "internalType": "uint256",
              "name": "vy",
              "type": "uint256"
            },
            {
              "internalType": "uint256",
              "name": "radius",
              "type": "uint256"
            },
            {
              "internalType": "uint256",
              "name": "starLvl",
              "type": "uint256"
            },
            {
              "internalType": "uint256",
              "name": "maxStarLvl",
              "type": "uint256"
            },
            {
              "internalType": "bytes32",
              "name": "seed",
              "type": "bytes32"
            }
          ],
          "internalType": "struct Problems.Body",
          "name": "",
          "type": "tuple"
        }
      ],
      "stateMutability": "view",
      "type": "function"
    },
    {
      "inputs": [
        {
          "internalType": "address",
          "name": "owner",
          "type": "address"
        },
        {
          "internalType": "address",
          "name": "operator",
          "type": "address"
        }
      ],
      "name": "isApprovedForAll",
      "outputs": [
        {
          "internalType": "bool",
          "name": "",
          "type": "bool"
        }
      ],
      "stateMutability": "view",
      "type": "function"
    },
    {
      "inputs": [
        {
          "internalType": "uint256",
          "name": "problemId",
          "type": "uint256"
        }
      ],
      "name": "levelUp",
      "outputs": [],
      "stateMutability": "nonpayable",
      "type": "function"
    },
    {
      "inputs": [],
      "name": "maxVector",
      "outputs": [
        {
          "internalType": "uint256",
          "name": "",
          "type": "uint256"
        }
      ],
      "stateMutability": "view",
      "type": "function"
    },
    {
      "inputs": [],
      "name": "metadata",
      "outputs": [
        {
          "internalType": "address",
          "name": "",
          "type": "address"
        }
      ],
      "stateMutability": "view",
      "type": "function"
    },
    {
      "inputs": [],
      "name": "mint",
      "outputs": [],
      "stateMutability": "payable",
      "type": "function"
    },
    {
      "inputs": [
        {
          "internalType": "address",
          "name": "recipient",
          "type": "address"
        },
        {
          "internalType": "uint256",
          "name": "quantity",
          "type": "uint256"
        }
      ],
      "name": "mint",
      "outputs": [],
      "stateMutability": "payable",
      "type": "function"
    },
    {
      "inputs": [
        {
          "internalType": "address",
          "name": "recipient",
          "type": "address"
        }
      ],
      "name": "mint",
      "outputs": [],
      "stateMutability": "payable",
      "type": "function"
    },
    {
      "inputs": [
        {
          "internalType": "uint256",
          "name": "problemId",
          "type": "uint256"
        }
      ],
      "name": "mintBodyOutsideProblem",
      "outputs": [],
      "stateMutability": "nonpayable",
      "type": "function"
    },
    {
      "inputs": [
        {
          "internalType": "uint256",
          "name": "problemId",
          "type": "uint256"
        }
      ],
      "name": "mintBodyToProblem",
      "outputs": [],
      "stateMutability": "nonpayable",
      "type": "function"
    },
    {
      "inputs": [],
      "name": "name",
      "outputs": [
        {
          "internalType": "string",
          "name": "",
          "type": "string"
        }
      ],
      "stateMutability": "view",
      "type": "function"
    },
    {
      "inputs": [],
      "name": "owner",
      "outputs": [
        {
          "internalType": "address",
          "name": "",
          "type": "address"
        }
      ],
      "stateMutability": "view",
      "type": "function"
    },
    {
      "inputs": [
        {
          "internalType": "uint256",
          "name": "tokenId",
          "type": "uint256"
        }
      ],
      "name": "ownerOf",
      "outputs": [
        {
          "internalType": "address",
          "name": "",
          "type": "address"
        }
      ],
      "stateMutability": "view",
      "type": "function"
    },
    {
      "inputs": [],
      "name": "paused",
      "outputs": [
        {
          "internalType": "bool",
          "name": "",
          "type": "bool"
        }
      ],
      "stateMutability": "view",
      "type": "function"
    },
    {
      "inputs": [],
      "name": "price",
      "outputs": [
        {
          "internalType": "uint256",
          "name": "",
          "type": "uint256"
        }
      ],
      "stateMutability": "view",
      "type": "function"
    },
    {
      "inputs": [],
      "name": "problemSupply",
      "outputs": [
        {
          "internalType": "uint256",
          "name": "",
          "type": "uint256"
        }
      ],
      "stateMutability": "view",
      "type": "function"
    },
    {
      "inputs": [
        {
          "internalType": "uint256",
          "name": "",
          "type": "uint256"
        }
      ],
      "name": "problems",
      "outputs": [
        {
          "internalType": "bytes32",
          "name": "seed",
          "type": "bytes32"
        },
        {
          "internalType": "uint256",
          "name": "bodyCount",
          "type": "uint256"
        },
        {
          "internalType": "uint256",
          "name": "mintedBodiesIndex",
          "type": "uint256"
        },
        {
          "internalType": "uint256",
          "name": "tickCount",
          "type": "uint256"
        }
      ],
      "stateMutability": "view",
      "type": "function"
    },
    {
      "inputs": [],
      "name": "proceedRecipient",
      "outputs": [
        {
          "internalType": "address",
          "name": "",
          "type": "address"
        }
      ],
      "stateMutability": "view",
      "type": "function"
    },
    {
      "inputs": [
        {
          "internalType": "address payable",
          "name": "_to",
          "type": "address"
        }
      ],
      "name": "recoverUnsuccessfulMintPayment",
      "outputs": [],
      "stateMutability": "nonpayable",
      "type": "function"
    },
    {
      "inputs": [
        {
          "internalType": "uint256",
          "name": "problemId",
          "type": "uint256"
        },
        {
          "internalType": "uint256",
          "name": "bodyId",
          "type": "uint256"
        }
      ],
      "name": "removeBody",
      "outputs": [],
      "stateMutability": "nonpayable",
      "type": "function"
    },
    {
      "inputs": [],
      "name": "renounceOwnership",
      "outputs": [],
      "stateMutability": "nonpayable",
      "type": "function"
    },
    {
      "inputs": [
        {
          "internalType": "uint256",
          "name": "problemId",
          "type": "uint256"
        }
      ],
      "name": "restoreRadius",
      "outputs": [],
      "stateMutability": "nonpayable",
      "type": "function"
    },
    {
      "inputs": [
        {
          "internalType": "address",
          "name": "from",
          "type": "address"
        },
        {
          "internalType": "address",
          "name": "to",
          "type": "address"
        },
        {
          "internalType": "uint256",
          "name": "tokenId",
          "type": "uint256"
        }
      ],
      "name": "safeTransferFrom",
      "outputs": [],
      "stateMutability": "nonpayable",
      "type": "function"
    },
    {
      "inputs": [
        {
          "internalType": "address",
          "name": "from",
          "type": "address"
        },
        {
          "internalType": "address",
          "name": "to",
          "type": "address"
        },
        {
          "internalType": "uint256",
          "name": "tokenId",
          "type": "uint256"
        },
        {
          "internalType": "bytes",
          "name": "data",
          "type": "bytes"
        }
      ],
      "name": "safeTransferFrom",
      "outputs": [],
      "stateMutability": "nonpayable",
      "type": "function"
    },
    {
      "inputs": [],
      "name": "scalingFactor",
      "outputs": [
        {
          "internalType": "uint256",
          "name": "",
          "type": "uint256"
        }
      ],
      "stateMutability": "view",
      "type": "function"
    },
    {
      "inputs": [
        {
          "internalType": "address",
          "name": "operator",
          "type": "address"
        },
        {
          "internalType": "bool",
          "name": "approved",
          "type": "bool"
        }
      ],
      "name": "setApprovalForAll",
      "outputs": [],
      "stateMutability": "nonpayable",
      "type": "function"
    },
    {
      "inputs": [],
      "name": "solver",
      "outputs": [
        {
          "internalType": "address",
          "name": "",
          "type": "address"
        }
      ],
      "stateMutability": "view",
      "type": "function"
    },
    {
      "inputs": [],
      "name": "startDate",
      "outputs": [
        {
          "internalType": "uint256",
          "name": "",
          "type": "uint256"
        }
      ],
      "stateMutability": "view",
      "type": "function"
    },
    {
      "inputs": [],
      "name": "startingRadius",
      "outputs": [
        {
          "internalType": "uint256",
          "name": "",
          "type": "uint256"
        }
      ],
      "stateMutability": "view",
      "type": "function"
    },
    {
      "inputs": [
        {
          "internalType": "bytes4",
          "name": "interfaceId",
          "type": "bytes4"
        }
      ],
      "name": "supportsInterface",
      "outputs": [
        {
          "internalType": "bool",
          "name": "",
          "type": "bool"
        }
      ],
      "stateMutability": "view",
      "type": "function"
    },
    {
      "inputs": [],
      "name": "symbol",
      "outputs": [
        {
          "internalType": "string",
          "name": "",
          "type": "string"
        }
      ],
      "stateMutability": "view",
      "type": "function"
    },
    {
      "inputs": [
        {
          "internalType": "uint256",
          "name": "id",
          "type": "uint256"
        }
      ],
      "name": "tokenURI",
      "outputs": [
        {
          "internalType": "string",
          "name": "",
          "type": "string"
        }
      ],
      "stateMutability": "view",
      "type": "function"
    },
    {
      "inputs": [
        {
          "internalType": "address",
          "name": "from",
          "type": "address"
        },
        {
          "internalType": "address",
          "name": "to",
          "type": "address"
        },
        {
          "internalType": "uint256",
          "name": "tokenId",
          "type": "uint256"
        }
      ],
      "name": "transferFrom",
      "outputs": [],
      "stateMutability": "nonpayable",
      "type": "function"
    },
    {
      "inputs": [
        {
          "internalType": "address",
          "name": "newOwner",
          "type": "address"
        }
      ],
      "name": "transferOwnership",
      "outputs": [],
      "stateMutability": "nonpayable",
      "type": "function"
    },
    {
      "inputs": [
        {
          "internalType": "address",
          "name": "bodies_",
          "type": "address"
        }
      ],
      "name": "updateBodiesAddress",
      "outputs": [],
      "stateMutability": "nonpayable",
      "type": "function"
    },
    {
      "inputs": [
        {
          "internalType": "address",
          "name": "metadata_",
          "type": "address"
        }
      ],
      "name": "updateMetadataAddress",
      "outputs": [],
      "stateMutability": "nonpayable",
      "type": "function"
    },
    {
      "inputs": [
        {
          "internalType": "bool",
          "name": "paused_",
          "type": "bool"
        }
      ],
      "name": "updatePaused",
      "outputs": [],
      "stateMutability": "nonpayable",
      "type": "function"
    },
    {
      "inputs": [
        {
          "internalType": "uint256",
          "name": "price_",
          "type": "uint256"
        }
      ],
      "name": "updatePrice",
      "outputs": [],
      "stateMutability": "nonpayable",
      "type": "function"
    },
    {
      "inputs": [
        {
          "internalType": "uint256",
          "name": "problemId",
          "type": "uint256"
        },
        {
          "internalType": "uint256",
          "name": "bodyId",
          "type": "uint256"
        },
        {
          "components": [
            {
              "internalType": "uint256",
              "name": "bodyId",
              "type": "uint256"
            },
            {
              "internalType": "uint256",
              "name": "mintedBodyIndex",
              "type": "uint256"
            },
            {
              "internalType": "uint256",
              "name": "bodyIndex",
              "type": "uint256"
            },
            {
              "internalType": "uint256",
              "name": "px",
              "type": "uint256"
            },
            {
              "internalType": "uint256",
              "name": "py",
              "type": "uint256"
            },
            {
              "internalType": "uint256",
              "name": "vx",
              "type": "uint256"
            },
            {
              "internalType": "uint256",
              "name": "vy",
              "type": "uint256"
            },
            {
              "internalType": "uint256",
              "name": "radius",
              "type": "uint256"
            },
            {
              "internalType": "uint256",
              "name": "starLvl",
              "type": "uint256"
            },
            {
              "internalType": "uint256",
              "name": "maxStarLvl",
              "type": "uint256"
            },
            {
              "internalType": "bytes32",
              "name": "seed",
              "type": "bytes32"
            }
          ],
          "internalType": "struct Problems.Body",
          "name": "body",
          "type": "tuple"
        }
      ],
      "name": "updateProblemBody",
      "outputs": [],
      "stateMutability": "nonpayable",
      "type": "function"
    },
    {
      "inputs": [
        {
          "internalType": "uint256",
          "name": "problemId",
          "type": "uint256"
        },
        {
          "internalType": "uint256",
          "name": "bodyCount",
          "type": "uint256"
        }
      ],
      "name": "updateProblemBodyCount",
      "outputs": [],
      "stateMutability": "nonpayable",
      "type": "function"
    },
    {
      "inputs": [
        {
          "internalType": "uint256",
          "name": "problemId",
          "type": "uint256"
        },
        {
          "internalType": "uint256[10]",
          "name": "bodyIds",
          "type": "uint256[10]"
        }
      ],
      "name": "updateProblemBodyIds",
      "outputs": [],
      "stateMutability": "nonpayable",
      "type": "function"
    },
    {
      "inputs": [
        {
          "internalType": "uint256",
          "name": "problemId",
          "type": "uint256"
        },
        {
          "internalType": "uint256",
          "name": "tickCount",
          "type": "uint256"
        }
      ],
      "name": "updateProblemTickCount",
      "outputs": [],
      "stateMutability": "nonpayable",
      "type": "function"
    },
    {
      "inputs": [
        {
          "internalType": "address",
          "name": "proceedRecipient_",
          "type": "address"
        }
      ],
      "name": "updateProceedRecipientAddress",
      "outputs": [],
      "stateMutability": "nonpayable",
      "type": "function"
    },
    {
      "inputs": [
        {
          "internalType": "address",
          "name": "solver_",
          "type": "address"
        }
      ],
      "name": "updateSolverAddress",
      "outputs": [],
      "stateMutability": "nonpayable",
      "type": "function"
    },
    {
      "inputs": [
        {
          "internalType": "uint256",
          "name": "startDate_",
          "type": "uint256"
        }
      ],
      "name": "updateStartDate",
      "outputs": [],
      "stateMutability": "nonpayable",
      "type": "function"
    },
    {
      "inputs": [
        {
          "internalType": "address",
          "name": "verifier_",
          "type": "address"
        },
        {
          "internalType": "uint256",
          "name": "verifierBodies",
          "type": "uint256"
        },
        {
          "internalType": "uint256",
          "name": "verifierTicks",
          "type": "uint256"
        }
      ],
      "name": "updateVerifier",
      "outputs": [],
      "stateMutability": "nonpayable",
      "type": "function"
    },
    {
      "inputs": [
        {
          "internalType": "uint256",
          "name": "",
          "type": "uint256"
        },
        {
          "internalType": "uint256",
          "name": "",
          "type": "uint256"
        }
      ],
      "name": "verifiers",
      "outputs": [
        {
          "internalType": "address",
          "name": "",
          "type": "address"
        }
      ],
      "stateMutability": "view",
      "type": "function"
    },
    {
      "inputs": [],
      "name": "windowWidth",
      "outputs": [
        {
          "internalType": "uint256",
          "name": "",
          "type": "uint256"
        }
      ],
      "stateMutability": "view",
      "type": "function"
    },
    {
      "stateMutability": "payable",
      "type": "receive"
    }
  ],
  "bytecode": "0x60406080815234620005b25762003c3090813803806200001f81620005f2565b9384398201608083820312620005b2576200003a8362000618565b92602091828201519260018060401b0393848111620005b257830191601f93818585011215620005b2578351936200007c62000076866200062d565b620005f2565b94848087838152019160051b83010191848311620005b25785809101915b838310620005b7575050505086810151868111620005b25782620000c091830162000645565b916060820151878111620005b257620000da920162000645565b91620000e5620005d2565b95600f908188526e416e79626f64792050726f626c656d60881b838901526200010d620005d2565b966003885262414e5960e81b848901528851978289116200059c5760009889549a60019b8c81811c9116801562000591575b888210146200057d579081858493116200052a575b508790858311600114620004bd578c92620004b1575b5050600019600383901b1c1916908b1b1789555b80519283116200049d5789548a81811c9116801562000492575b868210146200047e579081838594931162000429575b5085918311600114620003c5578992620003b9575b5050600019600383901b1c191690881b1787555b6006549860018060a01b03199533878c161760065589519a60018060a01b039283918d7f8be0079c531659141344cd1fd0a4f28419497f9722a3daafe3b4186f6b6457e08c8533941692a389600755662386f26fc10000600d55169a8b15620003845750889a3388600c541617600c5587600b541617600b55879a5b62000268575b89516135629081620006ce8239f35b80518b10156200037e576200027e8b86620006a2565b51156200033a5781620002928c83620006a2565b511615620003035781620002a78c83620006a2565b5116620002b58c88620006a2565b5189528385528a8920620002ca8d88620006a2565b518a5285528a892090888254161790556000198b14620002ef57998801998862000253565b634e487b7160e01b88526011600452602488fd5b895162461bcd60e51b815260048101859052601060248201526f24b73b30b634b2103b32b934b334b2b960811b6044820152606490fd5b895162461bcd60e51b815260048101859052601660248201527f496e76616c696420766572696669657220746f636b73000000000000000000006044820152606490fd5b62000259565b62461bcd60e51b815260048101859052601060248201526f496e76616c6964206d6574616461746160801b6044820152606490fd5b015190503880620001c3565b8a8a52858a208b94509190601f1984168b5b88828210620004125750508411620003f8575b505050811b018755620001d7565b015160001960f88460031b161c19169055388080620003ea565b8385015186558e97909501949384019301620003d7565b909192508a8a52858a208380860160051c82019288871062000474575b9186958e929594930160051c01915b82811062000465575050620001ae565b8c81558695508d910162000455565b9250819262000446565b634e487b7160e01b8a52602260045260248afd5b90607f169062000198565b634e487b7160e01b89526041600452602489fd5b0151905038806200016a565b8c8052888d208e94509190601f1984168e5b8b8282106200050a5750508411620004f0575b505050811b0189556200017e565b015160001960f88460031b161c19169055388080620004e2565b91929395968291958786015181550195019301908f9594939291620004cf565b9091508b8052878c208580850160051c8201928a861062000573575b918f91869594930160051c01915b8281106200056457505062000154565b8e81558594508f910162000554565b9250819262000546565b634e487b7160e01b8c52602260045260248cfd5b90607f16906200013f565b634e487b7160e01b600052604160045260246000fd5b600080fd5b8190620005c48462000618565b81520191019085906200009a565b60408051919082016001600160401b038111838210176200059c57604052565b6040519190601f01601f191682016001600160401b038111838210176200059c57604052565b51906001600160a01b0382168203620005b257565b6001600160401b0381116200059c5760051b60200190565b9080601f83011215620005b2578151906200066462000076836200062d565b9182938184526020808095019260051b820101928311620005b2578301905b82821062000692575050505090565b8151815290830190830162000683565b8051821015620006b75760209160051b010190565b634e487b7160e01b600052603260045260246000fdfe60806040526004361015610023575b361561001957600080fd5b6100216128ae565b005b6000803560e01c8063010fdfd51461217157806301ffc9a71461210257806304b24e85146120c957806306fdde0314612009578063081812fc14611fea5780630825ea8d14611f3e57806308cdc2a814611ef5578063095ea7b314611d7d5780630b27ce3f14611d545780630b97bc8614611d365780630ce90ec214611c515780631249c58b14611c3d57806318d9479314611c1857806320a286d014611bfa57806321dbbbdf14611a3057806323b872dd14611a065780632b057afa146119ab578063306da04f1461198257806334e5e49214611955578063392f37e91461192c5780633ecb6f88146117215780633f29ad1d1461145857806340847284146113c357806340c10f191461128f57806342842e0e1461123d57806343569ffb1461120657806349a7a26d146111dd5780634b9862d9146111c157806353e52f09146111a55780635c975abb1461117f578063609e00a4146111535780636282eff5146111115780636352211e146110e05780636a62784214610f6c57806370a0823114610ed6578063715018a614610e765780637696d9ff14610e34578063872d7e4814610dfb5780638d6cc56d14610dd65780638da5cb5b14610dad57806395d89b4114610ca15780639769dc0e14610c31578063a035b1fe14610c13578063a22cb46514610b41578063afcb1af014610a4f578063b88d4fde146109c5578063bf82e9de14610852578063c09fd8ef146107d7578063c31f5d6a14610721578063c87b56dd1461062c578063d35c3f9414610537578063de4318fc14610494578063e985e9c514610440578063eba4f366146103f3578063ed3437f8146103d6578063ed892aae14610394578063f2fde38b146102cd5763f81c8ec3146102ad575061000e565b346102ca57806003193601126102ca576020604051620f42408152f35b80fd5b50346102ca5760203660031901126102ca576102e76121b3565b6102ef6123a6565b6001600160a01b03908116801561034057600680546001600160a01b03198116831790915560405192167f8be0079c531659141344cd1fd0a4f28419497f9722a3daafe3b4186f6b6457e0600084a3f35b60405162461bcd60e51b815260206004820152602660248201527f4f776e61626c653a206e6577206f776e657220697320746865207a65726f206160448201526564647265737360d01b6064820152608490fd5b50346102ca5760203660031901126102ca576103ae6121b3565b6103b66123a6565b60018060a01b03166001600160601b0360a01b600b541617600b55604051f35b50346102ca57806003193601126102ca5760206040516103e88152f35b50346102ca5760203660031901126102ca5760406080916004358152600e60205220805490600181015490600f600282015491015491604051938452602084015260408301526060820152f35b50346102ca5760403660031901126102ca5761045a6121b3565b60406104646121ce565b9260018060a01b0380931681526005602052209116600052602052602060ff604060002054166040519015158152f35b50346102ca576101603660031901126102ca5736604312156102ca576040516104bc8161232f565b61016481368211610533576024905b82821061052357505050600a906104ec60018060a01b0383541633146134c9565b60043583526020600e81526005604085200184925b84841061050e5785604051f35b60018382829351855501920193019290610501565b81358152602091820191016104cb565b8380fd5b50346102ca576101a03660031901126102ca5761016080604319360112610628576040519081019080821067ffffffffffffffff8311176106125761060d9160405260443581526064356020820152608435604082015260a435606082015260c435608082015260e43560a08201526101043560c08201526101243560e08201526101443561010082015261016435610120820152610184356101408201526105eb60018060a01b03600a541633146134c9565b6004358352600e60205260046040842001602435845260205260408320612f2b565b604051f35b634e487b7160e01b600052604160045260246000fd5b5080fd5b50346102ca5760208060031936011261062857600b5460405163295d33a960e21b81526004803590820152908390829060249082906001600160a01b03165afa928315610715578093610694575b505061069060405192828493845283019061222f565b0390f35b909192503d8082843e6106a78184612368565b82019183818403126106285780519067ffffffffffffffff8211610711570182601f82011215610628578051916106dd8361238a565b936106eb6040519586612368565b8385528584840101116102ca575090610709918480850191016121fa565b90388061067a565b8280fd5b604051903d90823e3d90fd5b50346102ca57604061069091610736366121e4565b9061073f61338e565b508252600e60205260048383200190825260205220600a60405191610763836122fe565b8054835260018101546020840152600281015460408401526003810154606084015260048101546080840152600581015460a0840152600681015460c0840152600781015460e084015260088101546101008401526009810154610120840152015461014082015260405191829182612289565b50346102ca5760203660031901126102ca576004356001600160a01b03811690819003610628576108066123a6565b479060008051602061350d83398151915261084184808060405187875af161082c612786565b9060405192839260408452604084019061222f565b9560208301521515940390a3604051f35b50346102ca57602090816003193601126102ca576004359160018060a01b0360248282600a541660405192838092634e26b0cd60e01b82528960048301525afa9081156109ba57906108ac91859161098d575b5015612de2565b6108be60ff60065460a01c16156129ac565b6108d36108ca8561244a565b82163314612e2e565b838352600e82526108ed600a600160408620015410612e6e565b838352600e8252600260408420015490610909600a8310612eba565b6009541690813b1561053357604051630ab714fb60e11b81523360048201526024810186905260448101919091529083908290606490829084905af1801561098257610970575b508192600e9252526002604082200161096981546129e1565b9055604051f35b9161097c600e9361231b565b91610950565b6040513d85823e3d90fd5b6109ad9150843d86116109b3575b6109a58183612368565b810190612dca565b386108a5565b503d61099b565b6040513d86823e3d90fd5b50346102ca5760803660031901126102ca576109df6121b3565b6109e76121ce565b906064359067ffffffffffffffff821161053357366023830112156105335781600401359284610a168561238a565b93610a246040519586612368565b8585523660248783010111610628578561060d96602460209301838801378501015260443591612510565b50346102ca57610a5e366121e4565b600a54604051634e26b0cd60e01b8152600481018490526001600160a01b0393916020908290602490829088165afa8015610b3657610aa4918691610b1e575015612de2565b808452600e602052600360016040862001541115610ad957610ad461060d93610acc8361244a565b163314612e2e565b612fd3565b60405162461bcd60e51b815260206004820152601e60248201527f43616e6e6f742068617665206c657373207468616e203320626f6469657300006044820152606490fd5b6109ad915060203d81116109b3576109a58183612368565b6040513d87823e3d90fd5b50346102ca5760403660031901126102ca57610b5b6121b3565b60243590811515809203610711576001600160a01b031690338214610bce573383526005602052604083208284526020526040832060ff1981541660ff83161790556040519081527f17307eab39ab6107e8899845ad3d59bd9653f200f220920489ca2b5937696c3160203392a3604051f35b60405162461bcd60e51b815260206004820152601960248201527f4552433732313a20617070726f766520746f2063616c6c6572000000000000006044820152606490fd5b50346102ca57806003193601126102ca576020600d54604051908152f35b50346102ca5760203660031901126102ca5761060d610c4e6121b3565b600a54610c94906001600160a01b0390610c6b908216151561296e565b610c7a8160095416151561296e565b610c8981600b5416151561296e565b600c5416151561296e565b610c9c6123a6565b612a21565b50346102ca57806003193601126102ca57604051908060019182549283811c92818516948515610da3575b6020958686108114610d8f57858852879493929187908215610d6d575050600114610d14575b5050610d0092500383612368565b61069060405192828493845283019061222f565b908592508082527fb10e2d527612073b26eecdfd717e6a320cf44b4afac2b0732d9fcbe2b7fa0cf65b858310610d55575050610d0093508201013880610cf2565b80548389018501528794508693909201918101610d3d565b9250935050610d0094915060ff191682840152151560051b8201013880610cf2565b634e487b7160e01b83526022600452602483fd5b93607f1693610ccc565b50346102ca57806003193601126102ca576006546040516001600160a01b039091168152602090f35b50346102ca5760203660031901126102ca57610df06123a6565b600435600d55604051f35b50346102ca57610e0a366121e4565b90610e2060018060a01b03600a541633146134c9565b8252600e6020526001604083200155604051f35b50346102ca5760203660031901126102ca57610e4e6121b3565b610e566123a6565b60018060a01b03166001600160601b0360a01b600a541617600a55604051f35b50346102ca57806003193601126102ca57610e8f6123a6565b600680546001600160a01b031981169091556040519082906001600160a01b03167f8be0079c531659141344cd1fd0a4f28419497f9722a3daafe3b4186f6b6457e08284a3f35b50346102ca5760203660031901126102ca576001600160a01b03610ef86121b3565b168015610f15578160409160209352600383522054604051908152f35b60405162461bcd60e51b815260206004820152602960248201527f4552433732313a2061646472657373207a65726f206973206e6f7420612076616044820152683634b21037bbb732b960b91b6064820152608490fd5b5060203660031901126102ca57610f816121b3565b600a546001600160a01b039081161515610f9a8161296e565b610fdf8260095416151591610fae8361296e565b610fda84600b54161515610fc18161296e565b610fda86600c541695610fda87151595610fda8761296e565b61296e565b610ff160ff60065460a01c16156129ac565b60075442106110ad57600d54340361107857838080926040519034905af19060008051602061350d83398151915261104461102a612786565b92600c54169260405191829160408352604083019061222f565b943460208301521515940390a3815b600181106110615782604051f35b6110739061106e83612a21565b6129e1565b611053565b60405162461bcd60e51b815260206004820152600d60248201526c496e76616c696420707269636560981b6044820152606490fd5b60405162461bcd60e51b815260206004820152600b60248201526a139bdd081cdd185c9d195960aa1b6044820152606490fd5b50346102ca5760203660031901126102ca5760206110ff60043561244a565b6040516001600160a01b039091168152f35b50346102ca5760203660031901126102ca5761112b6121b3565b6111336123a6565b60018060a01b03166001600160601b0360a01b600c541617600c55604051f35b50346102ca5760203660031901126102ca576106906111736004356133e1565b60405191829182612289565b50346102ca57806003193601126102ca57602060ff60065460a01c166040519015158152f35b50346102ca57806003193601126102ca57602060405160028152f35b50346102ca57806003193601126102ca576020604051600a8152f35b50346102ca57806003193601126102ca57600a546040516001600160a01b039091168152602090f35b50346102ca57602090611218366121e4565b908252600f8352604082209082528252604060018060a01b0391205416604051908152f35b50346102ca5761124c36612254565b60409392935191602083019483861067ffffffffffffffff87111761127b5761060d9495604052858452612510565b634e487b7160e01b85526041600452602485fd5b5060403660031901126102ca576112a46121b3565b600a5460243591906001600160a01b03906112c2908216151561296e565b6112d18160095416151561296e565b6112e081600b5416151561296e565b80600c54166112f081151561296e565b600584116113965761130a60ff60065460a01c16156129ac565b60075442106110ad57600d548460001904811185151516611382578402340361107857848080926040519034905af19060008051602061350d83398151915261135461102a612786565b943460208301521515940390a3825b8281106113705783604051f35b61137d9061106e83612a21565b611363565b634e487b7160e01b86526011600452602486fd5b60405162461bcd60e51b81526020600482015260056024820152644d6178203560d81b6044820152606490fd5b50346102ca57602090816003193601126102ca5790604051916113e58361232f565b61014080933690376004358152600e82526005604082200191604051928383905b600a82106114425750505061141a8361232f565b6040519291835b600a821061142d578585f35b82806001928651815201940191019092611421565b8254815260019283019291909101908301611406565b50346102ca5760203660031901126102ca57600a54604051634e26b0cd60e01b815260048035908201526001600160a01b03916020908290602490829086165afa8015610982576114b0918491611708575015612de2565b6114c260ff60065460a01c16156129ac565b6114d06108ca60043561244a565b6004358252600e6020526114ed600a600160408520015410612e6e565b6004358252600e60205260026040832001549061150c600a8310612eba565b60095460405163d395cb1360e01b815233600480830191909152356024820152604481018490529291606091849160649183918891165af1908115610982578392849085936116d3575b506004358552600e6020526001604086200154846115eb6115d2611579876133e1565b938385528660208601528961010086015261012085019586528060408601526004358a52600e602052600460408b2001848b526020526115bc8560408c20612f2b565b6004358a52600e602052600560408b2001612f05565b819391549060031b600019811b9283911b169119161790565b90556004358652600e6020526001604087200161160881546129e1565b90556004358652600e60205260408620600201805460011981116116bf579161014095939160017fe40053ac8eef7fe7edc42668d8edfd183596014bf82e00bd7e938851ae1321479896940190556004358852600e602052600f604089200154606082015160808301519161010060e0850151940151945195604051986004358a5260208a015260408901526060880152608087015260a086015260c085015260e0840152610100830152610120820152a1604051f35b634e487b7160e01b88526011600452602488fd5b919350506116f8915060603d8111611701575b6116f08183612368565b810190612a06565b91929038611556565b503d6116e6565b6109ad915060203d6020116109b3576109a58183612368565b50346102ca5780611731366121e4565b61174360ff60065460a01c16156129ac565b608061174e8361244a565b6001600160a01b03906117649082163314612e2e565b838552600e60205261177f600a600160408820015410612e6e565b60095416606460405180968193636f21292560e01b83528660048401523360248401528760448401525af19283156109ba578490858092819282976118da575b509181869593610140977fe40053ac8eef7fe7edc42668d8edfd183596014bf82e00bd7e938851ae13214799969452600e6020528461185d6115d260016040862001546005604061180f8c6133e1565b978689528760208a01526101009a8b8a01526101208901998a5283828a01528d8152600e60205260048282200187825260205261184e89838320612f2b565b8d8152600e6020522001612f05565b9055868a52600e602052600160408b200161187881546129e1565b9055868a52600e602052600f60408b2001546060830151906080840151928660e08601519501519551976040519a8b5260208b015260408a01526060890152608088015260a087015260c086015260e0850152830152610120820152a1604051f35b965050505050906080833d608011611924575b816118fa60809383612368565b810103126105335782516020840151604085015160609095015194929392909186906101406117bf565b3d91506118ed565b50346102ca57806003193601126102ca57600b546040516001600160a01b039091168152602090f35b50346102ca5760203660031901126102ca57600260406020926004358152600e8452200154604051908152f35b50346102ca57806003193601126102ca576009546040516001600160a01b039091168152602090f35b50346102ca5760603660031901126102ca576119c56121b3565b6119cd6123a6565b6024358252600f602052604082206044358352602052604082209060018060a01b03166001600160601b0360a01b825416179055604051f35b50346102ca5761060d611a1836612254565b91611a2b611a2684336125ab565b6124ae565b612673565b50346102ca57602090816003193601126102ca57600a8054604051634e26b0cd60e01b81526004803590820181905293916001600160a01b03919086908290602490829086165afa90811561098257611a9e9291611a95918591611be3575015612de2565b610acc8561244a565b805b838252600e80865260019081604085200154831015611bdd57611b2c929187879286600589611ad488836040862001612f05565b959054600396871b1c92888552858252600460408620018486528252600880604087200154918a87528784526004604088200186885284526009928360408920015414611b31575b50505050505050505050506129e1565b611aa0565b604087611bcd9c611bbe9952898652600482822001888252865220936040519a611b5a8c6122fe565b85548c52850154908b0152600284015460408b01528884015460608b0152600484015460808b015283015460a08a0152600683015460c08a0152600783015460e08a015282015461010089015281015461012088015201546101408601528a612fd3565b88875289526040862001612f99565b843880808681898c828080611b1c565b83604051f35b6109ad9150883d8a116109b3576109a58183612368565b50346102ca57806003193601126102ca576020600854604051908152f35b50346102ca5760203660031901126102ca57611c326123a6565b600435600755604051f35b50806003193601126102ca5761060d6128ae565b50346102ca57602090816003193601126102ca5760043590600a90611c8060018060a01b0383541633146134c9565b805b838252600e80865260019081604085200154831015611bdd57611d31929187879286600589611cb688836040862001612f05565b959054600396871b1c928885528582526004604086200184865282526008806040872001611ce481546129e1565b905589865286835260046040872001858752835280604087200154918a87528784526004604088200186885284526009928360408920015414611b315750505050505050505050506129e1565b611c82565b50346102ca57806003193601126102ca576020600754604051908152f35b50346102ca57806003193601126102ca57600c546040516001600160a01b039091168152602090f35b50346102ca5760403660031901126102ca57611d976121b3565b6024356001600160a01b038080611dad8461244a565b16931692808414611ea657803314908115611e85575b5015611e1a5781845260046020526040842080546001600160a01b03191684179055611dee8261244a565b1691604051927f8c5be1e5ebec7d5bd14f71427d1e84f3dd0314c0f7b2291e5b200ac8c7c3b9258585a4f35b60405162461bcd60e51b815260206004820152603d60248201527f4552433732313a20617070726f76652063616c6c6572206973206e6f7420746f60448201527f6b656e206f776e6572206f7220617070726f76656420666f7220616c6c0000006064820152608490fd5b9050845260056020526040842033855260205260ff60408520541638611dc3565b60405162461bcd60e51b815260206004820152602160248201527f4552433732313a20617070726f76616c20746f2063757272656e74206f776e656044820152603960f91b6064820152608490fd5b50346102ca5760203660031901126102ca5760043580151580910361062857611f1c6123a6565b6006805460ff60a01b191660a09290921b60ff60a01b16919091179055604051f35b50346102ca5760208060031936011261062857600435600a611f6a60018060a01b0382541633146134c9565b835b828552600e908185526001604087200154811015611fe457611fdf91611f9882600560408a2001612f05565b90549060031b1c858852818752600460408920018189528752611fc08560408a200154613485565b91868952875260046040892001908852865260076040882001556129e1565b611f6c565b85604051f35b50346102ca5760203660031901126102ca5760206110ff600435612470565b50346102ca57806003193601126102ca576040519080805491600183811c928185169485156120bf575b6020958686108114610d8f57858852879493929187908215610d6d575050600114612066575050610d0092500383612368565b908592508180527f290decd9548b62a8d60345a988386fc84ba6bc95484008f6362f93160ef3e5635b8583106120a7575050610d0093508201013880610cf2565b8054838901850152879450869390920191810161208f565b93607f1693612033565b50346102ca576120d8366121e4565b906120ee60018060a01b03600a541633146134c9565b8252600e602052600f604083200155604051f35b50346102ca5760203660031901126102ca5760043563ffffffff60e01b8116809103610628576020906380ac58cd60e01b8114908115612160575b811561214f575b506040519015158152f35b6301ffc9a760e01b14905082612144565b635b5e139f60e01b8114915061213d565b50346102ca5760203660031901126102ca5761218b6121b3565b6121936123a6565b60018060a01b03166001600160601b0360a01b6009541617600955604051f35b600435906001600160a01b03821682036121c957565b600080fd5b602435906001600160a01b03821682036121c957565b60409060031901126121c9576004359060243590565b918091926000905b82821061221a575011612213575050565b6000910152565b91508060209183015181860152018291612202565b90602091612248815180928185528580860191016121fa565b601f01601f1916010190565b60609060031901126121c9576001600160a01b039060043582811681036121c9579160243590811681036121c9579060443590565b919091610160810192805182526020810151602083015260408101516040830152606081015160608301526080810151608083015260a081015160a083015260c081015160c083015260e081015160e08301526101008082015190830152610120808201519083015261014080910151910152565b610160810190811067ffffffffffffffff82111761061257604052565b67ffffffffffffffff811161061257604052565b610140810190811067ffffffffffffffff82111761061257604052565b6060810190811067ffffffffffffffff82111761061257604052565b90601f8019910116810190811067ffffffffffffffff82111761061257604052565b67ffffffffffffffff811161061257601f01601f191660200190565b6006546001600160a01b031633036123ba57565b606460405162461bcd60e51b815260206004820152602060248201527f4f776e61626c653a2063616c6c6572206973206e6f7420746865206f776e65726044820152fd5b1561240557565b60405162461bcd60e51b815260206004820152601860248201527f4552433732313a20696e76616c696420746f6b656e20494400000000000000006044820152606490fd5b6000908152600260205260409020546001600160a01b031661246d8115156123fe565b90565b600081815260026020526040902054612493906001600160a01b031615156123fe565b6000908152600460205260409020546001600160a01b031690565b156124b557565b60405162461bcd60e51b815260206004820152602d60248201527f4552433732313a2063616c6c6572206973206e6f7420746f6b656e206f776e6560448201526c1c881bdc88185c1c1c9bdd9959609a1b6064820152608490fd5b90612534939291612524611a2684336125ab565b61252f838383612673565b6127b6565b1561253b57565b60405162461bcd60e51b81528061255460048201612558565b0390fd5b60809060208152603260208201527f4552433732313a207472616e7366657220746f206e6f6e20455243373231526560408201527131b2b4bb32b91034b6b83632b6b2b73a32b960711b60608201520190565b906001600160a01b0380806125bf8461244a565b169316918383149384156125f2575b5083156125dc575b50505090565b6125e891929350612470565b16143880806125d6565b909350600052600560205260406000208260005260205260ff6040600020541692386125ce565b1561262057565b60405162461bcd60e51b815260206004820152602560248201527f4552433732313a207472616e736665722066726f6d20696e636f72726563742060448201526437bbb732b960d91b6064820152608490fd5b9061269b916126818461244a565b6001600160a01b0393918416928492909183168414612619565b1691821561273557816126b8916126b18661244a565b1614612619565b7fddf252ad1be2c89b69c2b068fc378daa952ba7f163c4a11628f55a4df523b3ef60008481526004602052604081206001600160601b0360a01b90818154169055838252600360205260408220600019815401905584825260408220600181540190558582526002602052846040832091825416179055604051a4565b60405162461bcd60e51b8152602060048201526024808201527f4552433732313a207472616e7366657220746f20746865207a65726f206164646044820152637265737360e01b6064820152608490fd5b3d156127b1573d906127978261238a565b916127a56040519384612368565b82523d6000602084013e565b606090565b91926000929190813b156128a45760209161280c9185604051958680958194630a85bd0160e11b9b8c845233600485015260018060a01b038095166024850152604484015260806064840152608483019061222f565b0393165af19082908261285c575b505061284e57612828612786565b805190816128495760405162461bcd60e51b81528061255460048201612558565b602001fd5b6001600160e01b0319161490565b909192506020813d821161289c575b8161287860209383612368565b810103126106285751906001600160e01b0319821682036102ca575090388061281a565b3d915061286b565b5050505050600190565b600a546001600160a01b03906128c7908216151561296e565b6128d68160095416151561296e565b6128e581600b5416151561296e565b80600c54166128f581151561296e565b61290760ff60065460a01c16156129ac565b60075442106110ad57600d5434036110785760008080926040519034905af19060008051602061350d83398151915261294161102a612786565b943460208301521515940390a360005b6001811061295c5750565b6129699061106e33612a21565b612951565b1561297557565b60405162461bcd60e51b815260206004820152600f60248201526e139bdd081a5b9a5d1a585b1a5e9959608a1b6044820152606490fd5b156129b357565b60405162461bcd60e51b815260206004820152600660248201526514185d5cd95960d21b6044820152606490fd5b60001981146129f05760010190565b634e487b7160e01b600052601160045260246000fd5b908160609103126121c9578051916040602083015192015190565b612a2c6008546129e1565b60088190556001600160a01b03821691908215612d3a57600081815260026020526040902054612a68906001600160a01b031615155b15612d7e565b600081815260026020526040902054612a8b906001600160a01b03161515612a62565b82600052600392836020526040600020600181540190558160005260026020526040600020816001600160601b0360a01b82541617905560007fddf252ad1be2c89b69c2b068fc378daa952ba7f163c4a11628f55a4df523b3ef81604051a460005b828110612b45575050600854600143106129f057604080516020810183815243600019014082840152918152612b228161234c565b51902090600052600e602052604060002055600854600052600160406000200155565b60095460085460405163d395cb1360e01b81526001600160a01b038581166004808401919091526024830193909352604482018590529192909160609183916064918391600091165af1908115612d2e57600090600090600093612d0a575b5060085493612bb2846133e1565b91838352866020840152600061010084015261012083015285604083015284600052600e6020528060406000200183600052602052612bf5826040600020612f2b565b84600052600e60205282612c136115d2886005604060002001612f05565b905584600052600e6020526001604060002001612c3081546129e1565b905584600052600e6020526002604060002001908154906001198211612cf5575092612cf09695927fe40053ac8eef7fe7edc42668d8edfd183596014bf82e00bd7e938851ae132147959260016101409601905583600052600e602052600f60406000200154606082015160808301519060e0840151926101206101008601519501519560405198895260208901528a60408901526060880152608087015260a086015260c085015260e0840152610100830152610120820152a16129e1565b612aed565b601190634e487b7160e01b6000525260246000fd5b915050612d26915060603d606011611701576116f08183612368565b919038612ba4565b6040513d6000823e3d90fd5b606460405162461bcd60e51b815260206004820152602060248201527f4552433732313a206d696e7420746f20746865207a65726f20616464726573736044820152fd5b15612d8557565b60405162461bcd60e51b815260206004820152601c60248201527f4552433732313a20746f6b656e20616c7265616479206d696e746564000000006044820152606490fd5b908160209103126121c9575180151581036121c95790565b15612de957565b60405162461bcd60e51b815260206004820152601960248201527f50726f626c656d2063757272656e746c7920696e20706c6179000000000000006044820152606490fd5b15612e3557565b60405162461bcd60e51b81526020600482015260116024820152702737ba10383937b13632b69037bbb732b960791b6044820152606490fd5b15612e7557565b60405162461bcd60e51b815260206004820152601f60248201527f43616e6e6f742068617665206d6f7265207468616e20313020626f64696573006044820152606490fd5b15612ec157565b606460405162461bcd60e51b815260206004820152602060248201527f50726f626c656d20616c7265616479206d696e74656420313020626f646965736044820152fd5b600a821015612f15570190600090565b634e487b7160e01b600052603260045260246000fd5b90610140600a91805184556020810151600185015560408101516002850155606081015160038501556080810151600485015560a0810151600585015560c0810151600685015560e08101516007850155610100810151600885015561012081015160098501550151910155565b908154680100000000000000008110156106125760018101808455811015612f1557612fd192600052600b6020600020910201612f2b565b565b909160065492612feb60ff60009560a01c16156129ac565b828452600e60205260046040852001818552602052604084208160405191613012836122fe565b600a81549182855260018101546020860152600281015460408601526003810154606086015260048101546080860152600581015460a0860152600681015460c0860152600781015460e0860152600881015461010086015260098101546101208601520154610140840152036133425760095461010082015186916001600160a01b0316803b1561071157608483926040519485938492633c43b50b60e01b84523360048501528960248501528b604485015260648401525af1801561333757613301575b5060c07f6ad4359fe8e6d536b246aab3e16451ad6a5336cf0f7e9ec2fd6a544d5c5ba76491858752600e602052600f604088200154906101206101008201519101516040892054916040519389855260208501528660408501526060840152608083015260a0820152a1828452600e60205260046040852001818552602052600260408520015490838552600e60205260016040862001805480156132d757600019019055838552600e602052604080862090519060050186825b600a82106132eb575050506131a78161232f565b6101406040516131b68161232f565b369037825b600981106132a7575085610120820152848652600e602052600560408720019086905b600a821061329157505050600460408620019085526020526000600a6040862082815582600182015582600282015582600382015582600482015582600582015582600682015582600782015582600882015582600982015501555b828452600e602052600160408520015481101561328b57613286906004604086200161326c8260056040892001612f05565b90549060031b1c86526020528060026040872001556129e1565b61323a565b50915050565b60016020828293518655019301910190916131de565b60011981116132d757806132c160016132d293018461337d565b516132cc828561337d565b526129e1565b6131bb565b634e487b7160e01b87526011600452602487fd5b6001602081928554815201930191019091613193565b7f6ad4359fe8e6d536b246aab3e16451ad6a5336cf0f7e9ec2fd6a544d5c5ba764919561332f60c09261231b565b9591506130d8565b6040513d88823e3d90fd5b60405162461bcd60e51b8152602060048201526013602482015272426f6479206e6f7420696e2070726f626c656d60681b6044820152606490fd5b90600a811015612f155760051b0190565b6040519061339b826122fe565b816101406000918281528260208201528260408201528260608201528260808201528260a08201528260c08201528260e082015282610100820152826101208201520152565b6133e961338e565b506133f261338e565b908061014083015261340381613485565b90600143106129f0576040908151602081019182526000194301408382015282815261342e8161234c565b5190209080516020810191838352602082528082019082821067ffffffffffffffff8311176106125752620f4240918291519020069106606084015260808301526127108060a084015260c083015260e082015290565b60011680196001116129f05760001990600101801515818304600511166129f05760050260021981116129f057600201806103e892048211811515166129f0570290565b156134d057565b60405162461bcd60e51b815260206004820152601460248201527313db9b1e4814dbdb1d995c8818d85b8818d85b1b60621b6044820152606490fdfeb08889abce443443404b2caf69aa3ccfb9ebfdf1ad2a634d06e11e24c1067938a26469706673582212209b49c577c7b33909306aeaedc12397b0eb92b108a41471f2f91e4dca8c01765a64736f6c634300080f0033",
  "linkReferences": {},
  "deployedLinkReferences": {}
}