{
  "_format": "hh-sol-artifact-1",
  "contractName": "Groth16Verifier",
  "sourceName": "contracts/Game_2_300Verifier.sol",
  "abi": [
    {
      "inputs": [
        {
          "internalType": "uint256[2]",
          "name": "_pA",
          "type": "uint256[2]"
        },
        {
          "internalType": "uint256[2][2]",
          "name": "_pB",
          "type": "uint256[2][2]"
        },
        {
          "internalType": "uint256[2]",
          "name": "_pC",
          "type": "uint256[2]"
        },
        {
          "internalType": "uint256[21]",
          "name": "_pubSignals",
          "type": "uint256[21]"
        }
      ],
      "name": "verifyProof",
      "outputs": [
        {
          "internalType": "bool",
          "name": "",
          "type": "bool"
        }
      ],
      "stateMutability": "view",
      "type": "function"
    }
  ],
  "bytecode": "0x608080604052346100165761112e908161001c8239f35b600080fdfe6080604052600436101561001257600080fd5b6000803560e01c635debc07e1461002857600080fd5b34610184576103a03660031901126101845761004336610187565b3660c4116101805761005436610199565b906103a436811161017c5791610178916101736020959461040060405261007d610104356101a7565b610089610124356101a7565b610095610144356101a7565b6100a1610164356101a7565b6100ad610184356101a7565b6100b96101a4356101a7565b6100c56101c4356101a7565b6100d16101e4356101a7565b6100dd610204356101a7565b6100e9610224356101a7565b6100f5610244356101a7565b610101610264356101a7565b61010d610284356101a7565b6101196102a4356101a7565b6101256102c4356101a7565b6101316102e4356101a7565b61013d610304356101a7565b610149610324356101a7565b610155610344356101a7565b610161610364356101a7565b61016d610384356101a7565b356101a7565b610d2c565b8152f35b8380fd5b5080fd5b80fd5b9060049160441161019457565b600080fd5b9060c4916101041161019457565b7f30644e72e131a029b85045b68181585d97816a916871ca8d3c208c16d87cfd4711156101d057565b6000805260206000f35b604051907f14b0d23278d2ffec5adf8933b794d96eace1a88413f1d477aaef29550192208782527f25aca76f26a1dfc9bb16fbe137b5f4ff044ab8a3e5b76fd5dc14068a5dc922526020830152604082019081526107cf196040836060816007855a01fa156101d05760409260066080939284938451905260a05160608401525a01fa156101d057565b604051907f1836999fd8df60eb6f7cb99dedd701fb3bdcb3cdf88cfa45c199f130ff76ae8382527f077f54a53dc531e740318b0f8bd86f879662f2c170348731e6b098e2673508a26020830152604082019081526107cf196040836060816007855a01fa156101d05760409260066080939284938451905260a05160608401525a01fa156101d057565b604051907f0dd75d180bbf692a0e437ba7e20f6bd081d86633bfde4827be42d2deba5778ac82527f30633a38683c4d78a88c0c30132508d9b0a82998787080289b4abb0701a989956020830152604082019081526107cf196040836060816007855a01fa156101d05760409260066080939284938451905260a05160608401525a01fa156101d057565b604051907f0fcb49a1ef3cb4a2a2cec80768d1f8ff161037266468620f363281f58da4fcaf82527f2c89bd2b317148aea52071fc040a5e168a4604d943faaa7fa01bcd6cbfe5a5c76020830152604082019081526107cf196040836060816007855a01fa156101d05760409260066080939284938451905260a05160608401525a01fa156101d057565b604051907f12602f281c9f725415735ac7f5fc14554a502cbfda32ba4c0e147b394f54067f82527f0a05fa0cafaaa26512794fcaece858f799db5a7038d4735470659490adfb0df36020830152604082019081526107cf196040836060816007855a01fa156101d05760409260066080939284938451905260a05160608401525a01fa156101d057565b604051907f30622c3e3b86ccb7a3be3f6e1792aa926675bc651bd0dfa7de2513e716b3ea0082527f081b36ebc55de36f7636589cac17d0c0d778fe8786c0a7559b14659586d6c4d86020830152604082019081526107cf196040836060816007855a01fa156101d05760409260066080939284938451905260a05160608401525a01fa156101d057565b604051907f192faf886da87897061e9280759486fe029a7c936173f483739044e0d217024e82527f0e27aec586b737725109e16f233e3a68c8dee1974a9fdbf3aa6fae6110d082976020830152604082019081526107cf196040836060816007855a01fa156101d05760409260066080939284938451905260a05160608401525a01fa156101d057565b604051907f20c45ed47387e703c913d2ccde5cac6bd44977bbde609827724cf1a226ea418082527f051bea49b6f5eb016c7ea9735bb838b4edd1af5575bb82043216d067a785fb446020830152604082019081526107cf196040836060816007855a01fa156101d05760409260066080939284938451905260a05160608401525a01fa156101d057565b604051907f21fbd07dfa28097ea2ebbf68ee362d97ebabe316e8c05c1498044c98d5a15d5382527f18a4137d71082873ca84daab1a172588a0c79b0fc4f33152a9c490866a7c507d6020830152604082019081526107cf196040836060816007855a01fa156101d05760409260066080939284938451905260a05160608401525a01fa156101d057565b604051907f16711dc6ab4b938fbf54dba71a11e042a15ad4f4e9db119ae5b4fb95b6143b0a82527f1e1231751ff58fbeb941e1afe956921bf527f40bf63e61c195dd1e309ba686e56020830152604082019081526107cf196040836060816007855a01fa156101d05760409260066080939284938451905260a05160608401525a01fa156101d057565b604051907f0470eab1f39ab704df800adc350e73c78255dfee356c6b8e79b3c6601d521e9682527f215add1c6753950f78caba9f3ae5549e2fcf38c91eed639104ecb3aa73dfc3096020830152604082019081526107cf196040836060816007855a01fa156101d05760409260066080939284938451905260a05160608401525a01fa156101d057565b604051907f12137b34a3e0c15d55a4da5f8924cc8c665634f18d42ecb959b1e35eaf8a7d7182527f13835cf70fc90c1b19d3b0bccce50540d412d1e81b3ee07b3756afe717419a136020830152604082019081526107cf196040836060816007855a01fa156101d05760409260066080939284938451905260a05160608401525a01fa156101d057565b604051907f011deff6d5d53be30ba1b7569ea92489feaf73be31b70cd33749d022806fbc4b82527f15ea8b446b4e04d5a74aa42932e05b1a27073ea4c3af37c9c707ecbfa60099066020830152604082019081526107cf196040836060816007855a01fa156101d05760409260066080939284938451905260a05160608401525a01fa156101d057565b604051907f1845f4c8f31b5e3aede19bb38d4f8e7c49db24d3a3da0e634fb1988edb42234282527f076d38d025c487397afaa913799d185b169e126083597b888ca71cd7d9904e1e6020830152604082019081526107cf196040836060816007855a01fa156101d05760409260066080939284938451905260a05160608401525a01fa156101d057565b604051907f11b8a9086cccb77966cb64ff7f4ec6fe4a15d9e3165ff39cb95525bdc3ffba4482527f2521c0fbd284b167eb34c13c0aa87ae984f12410983705b9893e0ac6973f5dca6020830152604082019081526107cf196040836060816007855a01fa156101d05760409260066080939284938451905260a05160608401525a01fa156101d057565b604051907f1224596e0673a06681d57f255ff77cc51834269d44e71b5ae9ad898f76dddfcb82527f12a5c879da7fa48db0863e0ab476f21956991bf5540991544687f13880905d8b6020830152604082019081526107cf196040836060816007855a01fa156101d05760409260066080939284938451905260a05160608401525a01fa156101d057565b604051907f277f9eb92b420dca02b1705fb22c141aa6f1ac3037e2630531ab4c8f0d566aab82527f153ed2635f68627ae0515e365d6a1960b6248fbe713a2e1f42a405c058fec99b6020830152604082019081526107cf196040836060816007855a01fa156101d05760409260066080939284938451905260a05160608401525a01fa156101d057565b604051907f2b1dcc4246fd87720e86f53b968baf9a89de77e94196b1e6dd8ce11b2c5df65482527f08045925d7847617c3094c9659f13a1e638e410b21d16c12df58cebd90cade596020830152604082019081526107cf196040836060816007855a01fa156101d05760409260066080939284938451905260a05160608401525a01fa156101d057565b604051907f23d9933768783cc7f636b13a2b5d7dca8bfbdde8149a486cb5c61e3fb870310682527f2b767cd5f447cd534ba8093dc7c33d49179f79f86e3fdba464006ed85fd255016020830152604082019081526107cf196040836060816007855a01fa156101d05760409260066080939284938451905260a05160608401525a01fa156101d057565b604051907f2efafe500bb4332cfbcb9d60f822aeec0fda65be6c4c47edf4be291fbbcf2eab82527f1087e9e42029271c1f2f3f1a706e73c0a4290d930e4a688cc43a164f929738fc6020830152604082019081526107cf196040836060816007855a01fa156101d05760409260066080939284938451905260a05160608401525a01fa156101d057565b604051907f1b650bf3450605f0e33f0192de06911ba2e4fbd0a6d3442b4ead50e299d77e5082527f189e71625ffd605bed3f5cc4fe855ee5b9ba1011d363c69f262f0eafea797e376020830152604082019081526107cf196040836060816007855a01fa156101d05760409260066080939284938451905260a05160608401525a01fa156101d057565b6020907f04b75aed5df2349be4a32b4e597f9877d954391883ec6f7725a62f99e50a936f6080527f0e73bd2ea4a9c72e3920a858e2ed814524104f3b07cdf753610c6446707b8d9f60a052610d83610104356101da565b610d8f61012435610264565b610d9b610144356102ee565b610da761016435610378565b610db361018435610402565b610dbf6101a43561048c565b610dcb6101c435610516565b610dd76101e4356105a0565b610de36102043561062a565b610def610224356106b4565b610dfb6102443561073e565b610e07610264356107c8565b610e1361028435610852565b610e1f6102a4356108dc565b610e2b6102c435610966565b610e376102e4356109f0565b610e4361030435610a7a565b610e4f61032435610b04565b610e5b61034435610b8e565b610e6761036435610c18565b610e7361038435610ca2565b61010092818492358352837f30644e72e131a029b85045b68181585d97816a916871ca8d3c208c16d87cfd479101358103066101205260443561014052606435610160526084356101805260a4356101a0527f2d4d9aa7e302d9df41749d5507949d05dbea33fbb16c643b22f599a2be6df2e26101c0527f14bedd503c37ceb061d8ec60209fe345ce89830a19230301f076caff004d19266101e0527f0967032fcbf776d1afc985f88877f182d38480a653f2decaa9794cbc3bf3060c610200527f0e187847ad4c798374d0d6732bf501847dd68bc0e071241e0213bc7fc13db7ab610220527f304cfbd1e08a704a99f5e847d93f8c3caafddec46b7a0d379da69a4d112346a7610240527f1739c1b1a457a8c7313123d24d2f9192f896b7c63eea05a9d57f06547ad0cec8610260526080516102805260a0516102a0527f198e9393920d483a7260bfb731fb5d25f1aa493335a9e71297e485b7aef312c26102c0527f1800deef121f1e76426a00665e5c4479674322d4f75edadd46debd5cd992f6ed6102e05282610300917f090689d0585ff075ec9e99ad690c3395bc4b313370b38ef355acdadcd122975b83527f12c85ea5db8c6deb4aab71808dcb408fe3d1e7690c43d37b4ce6cc0166fa7daa610320528035610340520135610360527f20a1df6c98b6f17e27073042e2899d2ff01db96a62be3dd7097da3e647ef7f9d610380527f20ea4e2786a4e02eded1f17fbd321905a4dbcd09a3e2a12a40fa737f0fc0a08f6103a0527f1d954454bc898ba974b6c6b549287504ccea0f73ee63c4b3d08457321c7ca72f6103c0527f19cdf0d3fb460dd8497dfefd069f4b29a84cbf7560067b45dedffcde0aa7e62d6103e0528160086107cf195a01fa9051169056fea2646970667358221220a619b80c28a322ef82a626055615079ac036c74526f91225e5a576542c8ec14a64736f6c634300080f0033",
  "linkReferences": {},
  "deployedLinkReferences": {}
}