{
  "_format": "hh-sol-artifact-1",
  "contractName": "Solver",
  "sourceName": "contracts/Solver.sol",
  "abi": [
    {
      "inputs": [
        {
          "internalType": "address payable",
          "name": "problems_",
          "type": "address"
        },
        {
          "internalType": "address",
          "name": "dust_",
          "type": "address"
        }
      ],
      "stateMutability": "nonpayable",
      "type": "constructor"
    },
    {
      "anonymous": false,
      "inputs": [
        {
          "indexed": true,
          "internalType": "address",
          "name": "previousOwner",
          "type": "address"
        },
        {
          "indexed": true,
          "internalType": "address",
          "name": "newOwner",
          "type": "address"
        }
      ],
      "name": "OwnershipTransferred",
      "type": "event"
    },
    {
      "anonymous": false,
      "inputs": [
        {
          "indexed": true,
          "internalType": "address",
          "name": "solver",
          "type": "address"
        },
        {
          "indexed": true,
          "internalType": "uint256",
          "name": "problemId",
          "type": "uint256"
        },
        {
          "indexed": false,
          "internalType": "uint256",
          "name": "ticksInThisMatch",
          "type": "uint256"
        },
        {
          "indexed": false,
          "internalType": "uint256",
          "name": "winnings",
          "type": "uint256"
        }
      ],
      "name": "Solved",
      "type": "event"
    },
    {
      "stateMutability": "nonpayable",
      "type": "fallback"
    },
    {
      "inputs": [
        {
          "internalType": "uint256",
          "name": "problemId",
          "type": "uint256"
        },
        {
          "internalType": "uint256",
          "name": "tickCount",
          "type": "uint256"
        },
        {
          "internalType": "uint256[2][]",
          "name": "a",
          "type": "uint256[2][]"
        },
        {
          "internalType": "uint256[2][2][]",
          "name": "b",
          "type": "uint256[2][2][]"
        },
        {
          "internalType": "uint256[2][]",
          "name": "c",
          "type": "uint256[2][]"
        },
        {
          "internalType": "uint256[][]",
          "name": "input",
          "type": "uint256[][]"
        }
      ],
      "name": "batchSolve",
      "outputs": [],
      "stateMutability": "nonpayable",
      "type": "function"
    },
    {
      "inputs": [
        {
          "internalType": "uint256",
          "name": "",
          "type": "uint256"
        }
      ],
      "name": "bodyBoost",
      "outputs": [
        {
          "internalType": "uint256",
          "name": "",
          "type": "uint256"
        }
      ],
      "stateMutability": "view",
      "type": "function"
    },
    {
      "inputs": [],
      "name": "decimals",
      "outputs": [
        {
          "internalType": "uint256",
          "name": "",
          "type": "uint256"
        }
      ],
      "stateMutability": "view",
      "type": "function"
    },
    {
      "inputs": [
        {
          "internalType": "uint256",
          "name": "problemId",
          "type": "uint256"
        }
      ],
      "name": "deleteMatch",
      "outputs": [],
      "stateMutability": "nonpayable",
      "type": "function"
    },
    {
      "inputs": [],
      "name": "dust",
      "outputs": [
        {
          "internalType": "address",
          "name": "",
          "type": "address"
        }
      ],
      "stateMutability": "view",
      "type": "function"
    },
    {
      "inputs": [
        {
          "internalType": "uint256",
          "name": "ticks",
          "type": "uint256"
        }
      ],
      "name": "getSpeedBoost",
      "outputs": [
        {
          "internalType": "uint256",
          "name": "",
          "type": "uint256"
        }
      ],
      "stateMutability": "pure",
      "type": "function"
    },
    {
      "inputs": [
        {
          "internalType": "uint256",
          "name": "problemId",
          "type": "uint256"
        }
      ],
      "name": "inProgress",
      "outputs": [
        {
          "internalType": "bool",
          "name": "",
          "type": "bool"
        }
      ],
      "stateMutability": "view",
      "type": "function"
    },
    {
      "inputs": [
        {
          "internalType": "uint256",
          "name": "",
          "type": "uint256"
        }
      ],
      "name": "matches",
      "outputs": [
        {
          "internalType": "bool",
          "name": "inProgress",
          "type": "bool"
        },
        {
          "internalType": "uint256",
          "name": "problemId",
          "type": "uint256"
        },
        {
          "internalType": "uint256",
          "name": "startingTick",
          "type": "uint256"
        }
      ],
      "stateMutability": "view",
      "type": "function"
    },
    {
      "inputs": [],
      "name": "maxTick",
      "outputs": [
        {
          "internalType": "uint256",
          "name": "",
          "type": "uint256"
        }
      ],
      "stateMutability": "view",
      "type": "function"
    },
    {
      "inputs": [],
      "name": "owner",
      "outputs": [
        {
          "internalType": "address",
          "name": "",
          "type": "address"
        }
      ],
      "stateMutability": "view",
      "type": "function"
    },
    {
      "inputs": [],
      "name": "problems",
      "outputs": [
        {
          "internalType": "address payable",
          "name": "",
          "type": "address"
        }
      ],
      "stateMutability": "view",
      "type": "function"
    },
    {
      "inputs": [],
      "name": "renounceOwnership",
      "outputs": [],
      "stateMutability": "nonpayable",
      "type": "function"
    },
    {
      "inputs": [
        {
          "internalType": "uint256",
          "name": "problemId",
          "type": "uint256"
        },
        {
          "internalType": "uint256",
          "name": "tickCount",
          "type": "uint256"
        },
        {
          "internalType": "uint256[2]",
          "name": "a",
          "type": "uint256[2]"
        },
        {
          "internalType": "uint256[2][2]",
          "name": "b",
          "type": "uint256[2][2]"
        },
        {
          "internalType": "uint256[2]",
          "name": "c",
          "type": "uint256[2]"
        },
        {
          "internalType": "uint256[]",
          "name": "input",
          "type": "uint256[]"
        }
      ],
      "name": "solveProblem",
      "outputs": [],
      "stateMutability": "nonpayable",
      "type": "function"
    },
    {
      "inputs": [
        {
          "internalType": "address",
          "name": "newOwner",
          "type": "address"
        }
      ],
      "name": "transferOwnership",
      "outputs": [],
      "stateMutability": "nonpayable",
      "type": "function"
    },
    {
      "inputs": [
        {
          "internalType": "address",
          "name": "dust_",
          "type": "address"
        }
      ],
      "name": "updateDustAddress",
      "outputs": [],
      "stateMutability": "nonpayable",
      "type": "function"
    },
    {
      "inputs": [
        {
          "internalType": "address payable",
          "name": "problems_",
          "type": "address"
        }
      ],
      "name": "updateProblemsAddress",
      "outputs": [],
      "stateMutability": "nonpayable",
      "type": "function"
    }
  ],
  "bytecode": "0x6080346200016957620020e9906001600160401b03601f38849003908101601f1916830190828211848310176200016e5780849160409687948552833981010312620001695781516001600160a01b0390818116908190036200016957602080940151938285168095036200016957600080549460018060a01b031995338782161783558851953391167f8be0079c531659141344cd1fd0a4f28419497f9722a3daafe3b4186f6b6457e08488a3610160850190811185821017620001555787929192528184528181850152818785015260019384606082015260026080820152600460a0820152600860c0820152601060e0820152816101008201528761012082015260806101408201529084600393925b600b84106200013d57509150508491505416179055600254161760025551611f649081620001858239f35b805160ff168555938101939201918590820162000112565b634e487b7160e01b82526041600452602482fd5b600080fd5b634e487b7160e01b600052604160045260246000fdfe60806040526004361015610054575b3461004f5760405162461bcd60e51b81526020600482015260146024820152733737903330b6363130b1b590333ab731ba34b7b760611b6044820152606490fd5b600080fd5b60003560e01c8063087c32e614611b3f578063130e5a87146110c55780631b375b541461109f5780631db3b6dd14611082578063313ce5671461105f5780634768d4ef146110175780634e26b0cd14610fe65780636a890e6714610fa2578063715018a614610f435780638da5cb5b14610f1a5780639512ada214610e40578063ab85f1f414610251578063cd190a9214610225578063f2fde38b1461015b578063f9df988f146101325763fad9aba30361000e573461004f57600036600319011261004f576002546040516001600160a01b039091168152602090f35b3461004f57600036600319011261004f576001546040516001600160a01b039091168152602090f35b3461004f57602036600319011261004f576004356001600160a01b038181169182900361004f5761018a611d61565b81156101d157600080546001600160a01b031981168417825560405191939192167f8be0079c531659141344cd1fd0a4f28419497f9722a3daafe3b4186f6b6457e08484a3f35b60405162461bcd60e51b815260206004820152602660248201527f4f776e61626c653a206e6577206f776e657220697320746865207a65726f206160448201526564647265737360d01b6064820152608490fd5b3461004f57602036600319011261004f57600435600b81101561004f5760209060030154604051908152f35b3461004f5761016036600319011261004f57366063121561004f5760405161027881611be3565b3660841161004f576044905b60848210610e30573660a3121561004f576040516102a181611be3565b366101041161004f576084905b6101048210610e165736610123121561004f576040516102cd81611be3565b366101441161004f57610104905b6101448210610e0657610144356001600160401b03811161004f57610304903690600401611d03565b6001546040516331a9108f60e11b815260048035908201526001600160a01b0390911690602081602481855afa80156106805761035491600091610de7575b506001600160a01b03163314611dfb565b6040516375d279b360e11b81526004803590820152608081602481855afa91821561068057600091600093610da9575b5061039661039183611e37565b611e4d565b845103610d6d576020604491604051928380926343569ffb60e01b825286600483015260243560248301525afa90811561068057600091610d3e575b506001600160a01b031615610d065760038103610c82575b600435600052600e6020526040610436816000209382519461040b86611b83565b600260ff82541615918215885260018101546020890152015484870152610c42575b60243590611ec3565b9201519081831061099c57610bb882840311610c09576001546040516310211ca160e21b81526004803590820152906001600160a01b031661014082602481845afa91821561068057600092610b89575b50803b1561004f57600080916044604051809481936304b24e8560e01b835260043560048401528a60248401525af1801561068057610b7a575b5060009060006101406040516104d681611bc7565b8281528260208201528260408201528260608201528260808201528260a08201528260c08201528260e08201528261010082015282610120820152015260005b8381106106c05750508114610528575b005b610533828403611ee0565b90600b8110156106aa576105549161054f916003015490611eb0565b611e93565b6002549091906001600160a01b0316803b1561004f57600080916044604051809481936340c10f1960e01b83523360048401528860248401525af180156106805761069b575b506001546001600160a01b0316803b1561004f5760008091602460405180948193630825ea8d60e01b835260043560048401525af180156106805761068c575b506001546001600160a01b0316803b1561004f5760008091602460405180948193630674876160e11b835260043560048401525af1801561068057610671575b50600435600052600e60205260006002604082208281558260018201550155604051920382526020820152600435907fd1a83cf15e893baacb4994c8e0feb9cb86c3725254e5c55c6f17b3d19c56dc4760403392a3005b61067a90611bb4565b8361061a565b6040513d6000823e3d90fd5b61069590611bb4565b836105da565b6106a490611bb4565b8361059a565b634e487b7160e01b600052603260045260246000fd5b6001546001600160a01b03166106d68284611ecf565b516040519063618faeb560e11b82526004356004830152602482015261016081604481855afa90811561068057600091610acc575b50606081015161073561072f61072089611e63565b61072987611e37565b90611ec3565b8b611dc8565b5103610a925761074d61074784611e37565b8a611dc8565b516060820152608081015161076d61076488611e63565b61072986611e37565b600119811161099c57600161078391018b611dc8565b5103610a585761079283611e37565b600119811161099c5760016107a891018a611dc8565b51608082015260a08101516107bf61076488611e63565b600219811161099c5760026107d591018b611dc8565b5103610a20576107e483611e37565b600219811161099c5760026107fa91018a611dc8565b5160a082015260c081015161081161076488611e63565b600319811161099c57600361082791018b611dc8565b51036109e85761083683611e37565b600319811161099c57600361084c91018a611dc8565b5160c082015260e081015161086361076488611e63565b600419811161099c57600461087991018b611dc8565b51036109b25761088883611e37565b600419811161099c57600461089e91018a611dc8565b5160e08201526108ae8385611ecf565b51823b1561004f576000926101a4849260405195869384926334d70fe560e21b845260043560048501526024840152865160448401526020870151606484015260408701516084840152606087015160a4840152608087015160c484015260a087015160e484015260c087015161010484015260e08701516101248401526101008701516101448401526101208701516101648401526101408701516101848401525af19182156106805760e09261098d575b50015115610978575b61097390611db9565b610516565b9161098561097391611db9565b92905061096a565b61099690611bb4565b89610961565b634e487b7160e01b600052601160045260246000fd5b60405162461bcd60e51b815260206004820152600e60248201526d496e76616c69642072616469757360901b6044820152606490fd5b60405162461bcd60e51b815260206004820152601060248201526f496e76616c696420766563746f72207960801b6044820152606490fd5b60405162461bcd60e51b815260206004820152601060248201526f092dcecc2d8d2c840eccac6e8dee440f60831b6044820152606490fd5b60405162461bcd60e51b8152602060048201526012602482015271496e76616c696420706f736974696f6e207960701b6044820152606490fd5b60405162461bcd60e51b8152602060048201526012602482015271092dcecc2d8d2c840e0dee6d2e8d2dedc40f60731b6044820152606490fd5b9050610160813d61016011610b72575b81610aea6101609383611c1a565b8101031261004f5761014060405191610b0283611bc7565b805183526020810151602084015260408101516040840152606081015160608401526080810151608084015260a081015160a084015260c081015160c084015260e081015160e084015261010081015161010084015261012081015161012084015201516101408201528961070b565b3d9150610adc565b610b8390611bb4565b856104c1565b909150610140903d61014011610c01575b610ba48282611c1a565b61014081838101031261004f57818101601f8201121561004f5760405191610bcb83611bfe565b8290820161014083011161004f5781905b61014083018210610bf1575050509086610487565b8151815260209182019101610bdc565b3d9150610b9a565b60405162461bcd60e51b815260206004820152601160248201527013585e081d1a58dac8195e18d959591959607a1b6044820152606490fd5b600185528083860152600435600052600e602052826000208551151560ff801983541691161781556020860151600182015560028487015191015561042d565b60048103610c90575b6103ea565b60058103156103ea5760068103156103ea5760078103156103ea5760088103156103ea576009810315610c8b57600a810315610c8b5760405162461bcd60e51b8152602060048201526018602482015277496e76616c6964206e756d626572206f6620626f6469657360401b6044820152606490fd5b60405162461bcd60e51b815260206004820152601060248201526f24b73b30b634b2103b32b934b334b2b960811b6044820152606490fd5b610d60915060203d602011610d66575b610d588183611c1a565b810190611ddc565b846103d2565b503d610d4e565b60405162461bcd60e51b8152602060048201526014602482015273092dcecc2d8d2c840d2dce0eae840d8cadccee8d60631b6044820152606490fd5b915091506080813d608011610ddf575b81610dc660809383611c1a565b8101031261004f57606060208201519101519184610384565b3d9150610db9565b610e00915060203d602011610d6657610d588183611c1a565b84610343565b81358152602091820191016102db565b6020604091610e253685611c52565b8152019101906102ae565b8135815260209182019101610284565b3461004f57602036600319011261004f576001546040516331a9108f60e11b815260048035908201819052916001600160a01b039081169190602082602481865afa801561068057610e9d92600091610efc575b50163314611dfb565b803b1561004f5760008091602460405180948193630825ea8d60e01b83528760048401525af1801561068057610eed575b506000908152600e602052604081208181556001810182905560020155005b610ef690611bb4565b81610ece565b610f14915060203d8111610d6657610d588183611c1a565b85610e94565b3461004f57600036600319011261004f576000546040516001600160a01b039091168152602090f35b3461004f57600036600319011261004f57610f5c611d61565b600080546001600160a01b0319811682556040519082906001600160a01b03167f8be0079c531659141344cd1fd0a4f28419497f9722a3daafe3b4186f6b6457e08284a3f35b3461004f57602036600319011261004f576004356001600160a01b0381169081900361004f57610fd0611d61565b600280546001600160a01b031916919091179055005b3461004f57602036600319011261004f57600435600052600e602052602060ff604060002054166040519015158152f35b3461004f57602036600319011261004f57600435600052600e6020526060604060002060ff815416906002600182015491015490604051921515835260208301526040820152f35b3461004f57600036600319011261004f576020604051670de0b6b3a76400008152f35b3461004f57600036600319011261004f576020604051610bb88152f35b3461004f57602036600319011261004f5760206110bd600435611ee0565b604051908152f35b3461004f5760c036600319011261004f576044356001600160401b03811161004f576110f5903690600401611c97565b606435906001600160401b03821161004f573660238301121561004f57816004013561112081611c3b565b9261112e6040519485611c1a565b8184526024602085019260071b8201019036821161004f57602401915b818310611ae4575050506001600160401b036084351161004f5761117436608435600401611c97565b6001600160401b0360a4351161004f5736602360a43501121561004f576111a060a43560040135611c3b565b6111ad6040519182611c1a565b60a4356004013581526020810136602460a4356004013560051b60a43501011161004f57602460a43501905b602460a4356004013560051b60a43501018210611ab457505060005b8151811015610526576112088185611dc8565b506112138186611dc8565b5061121e8184611dc8565b506112298183611dc8565b519060018060a01b03600154166040516331a9108f60e11b81526004356004820152602081602481855afa80156106805761127691600091611a9557506001600160a01b03163314611dfb565b6040516375d279b360e11b81526004803590820152608081602481855afa91821561068057600091600093611a57575b506112b361039183611e37565b855103610d6d576020604491604051928380926343569ffb60e01b825286600483015260243560248301525afa90811561068057600091611a38575b506001600160a01b031615610d0657600381036119b4575b600435600052600e6020526040611328816000209382519461040b86611b83565b9201519384831061099c57610bb885840311610c09576001546040516310211ca160e21b8152600480359082015291906001600160a01b031661014083602481845afa92831561068057600093611934575b50803b1561004f57600080916044604051809481936304b24e8560e01b835260043560048401528a60248401525af1801561068057611925575b5090829160009160006101406040516113cc81611bc7565b8281528260208201528260408201528260608201528260808201528260a08201528260c08201528260e08201528261010082015282610120820152015260005b8481106115a6575050501461142d575b50506114289150611db9565b6111f5565b611438848303611ee0565b90600b8110156106aa576114549161054f916003015490611eb0565b6002546001600160a01b0316803b1561004f57600080916044604051809481936340c10f1960e01b83523360048401528760248401525af1801561068057611597575b506001546001600160a01b0316803b1561004f5760008091602460405180948193630825ea8d60e01b835260043560048401525af1801561068057611588575b506001546001600160a01b031693843b1561004f5760008095602460405180988193630674876160e11b835260043560048401525af19485156106805761142895611579575b50600435600052600e60205260006002604082208281558260018201550155604051920382526020820152600435907fd1a83cf15e893baacb4994c8e0feb9cb86c3725254e5c55c6f17b3d19c56dc4760403392a3868061141c565b61158290611bb4565b8961151d565b61159190611bb4565b886114d7565b6115a090611bb4565b88611497565b60015493945091929091906001600160a01b03166115c48284611ecf565b516040519063618faeb560e11b82526004356004830152602482015261016081604481855afa90811561068057600091611877575b50606081015161161461160e6107208a611e63565b87611dc8565b5103610a925761162c61162684611e37565b86611dc8565b516060820152608081015161164361076489611e63565b600119811161099c576001611659910187611dc8565b5103610a585761166883611e37565b600119811161099c57600161167e910186611dc8565b51608082015260a081015161169561076489611e63565b600219811161099c5760026116ab910187611dc8565b5103610a20576116ba83611e37565b600219811161099c5760026116d0910186611dc8565b5160a082015260c08101516116e761076489611e63565b600319811161099c5760036116fd910187611dc8565b51036109e85761170c83611e37565b600319811161099c576003611722910186611dc8565b5160c082015260e081015161173961076489611e63565b600419811161099c57600461174f910187611dc8565b51036109b25761175e83611e37565b600419811161099c576004611774910186611dc8565b5160e08201526117848385611ecf565b51823b1561004f576000926101a4849260405195869384926334d70fe560e21b845260043560048501526024840152865160448401526020870151606484015260408701516084840152606087015160a4840152608087015160c484015260a087015160e484015260c087015161010484015260e08701516101248401526101008701516101448401526101208701516101648401526101408701516101848401525af19182156106805760e092611868575b50015115611853575b61184990611db9565b908493929161140c565b9261186061184991611db9565b939050611840565b61187190611bb4565b8e611837565b9050610160813d6101601161191d575b816118956101609383611c1a565b8101031261004f57610140604051916118ad83611bc7565b805183526020810151602084015260408101516040840152606081015160608401526080810151608084015260a081015160a084015260c081015160c084015260e081015160e084015261010081015161010084015261012081015161012084015201516101408201528e6115f9565b3d9150611887565b61192e90611bb4565b8a6113b4565b909250610140903d610140116119ac575b61194f8282611c1a565b61014081838101031261004f57818101601f8201121561004f576040519161197683611bfe565b8290820161014083011161004f5781905b6101408301821061199c57505050918b61137a565b8151815260209182019101611987565b3d9150611945565b600481036119c2575b611307565b60058103156113075760068103156113075760078103156113075760088103156113075760098103156119bd57600a8103156119bd5760405162461bcd60e51b8152602060048201526018602482015277496e76616c6964206e756d626572206f6620626f6469657360401b6044820152606490fd5b611a51915060203d602011610d6657610d588183611c1a565b896112ef565b915091506080813d608011611a8d575b81611a7460809383611c1a565b8101031261004f576060602082015191015191896112a6565b3d9150611a67565b611aae915060203d602011610d6657610d588183611c1a565b89610343565b6001600160401b0382351161004f5760208091611ad9366024863560a4350101611d03565b8152019101906111d9565b36601f8401121561004f57604051611afb81611be3565b806080850136811161004f5785915b818310611b255750505081602091608093520192019161114b565b6020604091611b343686611c52565b815201920191611b0a565b3461004f57602036600319011261004f576004356001600160a01b0381169081900361004f57611b6d611d61565b600180546001600160a01b031916919091179055005b606081019081106001600160401b03821117611b9e57604052565b634e487b7160e01b600052604160045260246000fd5b6001600160401b038111611b9e57604052565b61016081019081106001600160401b03821117611b9e57604052565b604081019081106001600160401b03821117611b9e57604052565b61014081019081106001600160401b03821117611b9e57604052565b90601f801991011681019081106001600160401b03821117611b9e57604052565b6001600160401b038111611b9e5760051b60200190565b9080601f8301121561004f5760405191611c6b83611be3565b82906040810192831161004f57905b828210611c875750505090565b8135815260209182019101611c7a565b81601f8201121561004f57803590611cae82611c3b565b92604092611cbe84519586611c1a565b808552602091828087019260061b8501019381851161004f578301915b848310611ceb5750505050505090565b838691611cf88486611c52565b815201920191611cdb565b81601f8201121561004f57803591611d1a83611c3b565b92611d286040519485611c1a565b808452602092838086019260051b82010192831161004f578301905b828210611d52575050505090565b81358152908301908301611d44565b6000546001600160a01b03163303611d7557565b606460405162461bcd60e51b815260206004820152602060248201527f4f776e61626c653a2063616c6c6572206973206e6f7420746865206f776e65726044820152fd5b600019811461099c5760010190565b80518210156106aa5760209160051b010190565b9081602091031261004f57516001600160a01b038116810361004f5790565b15611e0257565b60405162461bcd60e51b815260206004820152600d60248201526c2737ba103a34329037bbb732b960991b6044820152606490fd5b80600019046005118115151661099c5760050290565b80600019046002118115151661099c5760011b90565b7f3333333333333333333333333333333333333333333333333333333333333333811160011661099c5760050290565b670de0b6b3a764000090806000190482118115151661099c570290565b806000190482118115151661099c570290565b8119811161099c570190565b90600a8110156106aa5760051b0190565b6101f48111611eef5750600690565b6103e88111611efe5750600590565b6105dc8111611f0d5750600490565b6107d08111611f1c5750600390565b6109c410611f2957600290565b60019056fea2646970667358221220c64f50534f51fd280a3050e8b1f3ffdb659424ed08b0190e68ccbd7cc22a441064736f6c634300080f0033",
  "linkReferences": {},
  "deployedLinkReferences": {}
}