{
  "_format": "hh-sol-artifact-1",
  "contractName": "Solver",
  "sourceName": "contracts/Solver.sol",
  "abi": [
    {
      "inputs": [
        {
          "internalType": "address payable",
          "name": "problems_",
          "type": "address"
        }
      ],
      "stateMutability": "nonpayable",
      "type": "constructor"
    },
    {
      "anonymous": false,
      "inputs": [
        {
          "indexed": true,
          "internalType": "address",
          "name": "previousOwner",
          "type": "address"
        },
        {
          "indexed": true,
          "internalType": "address",
          "name": "newOwner",
          "type": "address"
        }
      ],
      "name": "OwnershipTransferred",
      "type": "event"
    },
    {
      "anonymous": false,
      "inputs": [
        {
          "indexed": true,
          "internalType": "address",
          "name": "solver",
          "type": "address"
        },
        {
          "indexed": true,
          "internalType": "uint256",
          "name": "problemId",
          "type": "uint256"
        },
        {
          "indexed": true,
          "internalType": "uint256",
          "name": "level",
          "type": "uint256"
        },
        {
          "indexed": false,
          "internalType": "uint256",
          "name": "ticksInThisMatch",
          "type": "uint256"
        }
      ],
      "name": "Solved",
      "type": "event"
    },
    {
      "stateMutability": "nonpayable",
      "type": "fallback"
    },
    {
      "inputs": [
        {
          "internalType": "uint256",
          "name": "problemId",
          "type": "uint256"
        },
        {
          "internalType": "uint256",
          "name": "tickCount",
          "type": "uint256"
        },
        {
          "internalType": "uint256[2][]",
          "name": "a",
          "type": "uint256[2][]"
        },
        {
          "internalType": "uint256[2][2][]",
          "name": "b",
          "type": "uint256[2][2][]"
        },
        {
          "internalType": "uint256[2][]",
          "name": "c",
          "type": "uint256[2][]"
        },
        {
          "internalType": "uint256[][]",
          "name": "input",
          "type": "uint256[][]"
        }
      ],
      "name": "batchSolve",
      "outputs": [],
      "stateMutability": "nonpayable",
      "type": "function"
    },
    {
      "inputs": [
        {
          "internalType": "uint256",
          "name": "",
          "type": "uint256"
        }
      ],
      "name": "bodyBoost",
      "outputs": [
        {
          "internalType": "uint256",
          "name": "",
          "type": "uint256"
        }
      ],
      "stateMutability": "view",
      "type": "function"
    },
    {
      "inputs": [],
      "name": "decimals",
      "outputs": [
        {
          "internalType": "uint256",
          "name": "",
          "type": "uint256"
        }
      ],
      "stateMutability": "view",
      "type": "function"
    },
    {
      "inputs": [
        {
          "internalType": "uint256",
          "name": "problemId",
          "type": "uint256"
        }
      ],
      "name": "deleteMatch",
      "outputs": [],
      "stateMutability": "nonpayable",
      "type": "function"
    },
    {
      "inputs": [
        {
          "internalType": "uint256",
          "name": "ticks",
          "type": "uint256"
        }
      ],
      "name": "getSpeedBoost",
      "outputs": [
        {
          "internalType": "uint256",
          "name": "",
          "type": "uint256"
        }
      ],
      "stateMutability": "pure",
      "type": "function"
    },
    {
      "inputs": [
        {
          "internalType": "uint256",
          "name": "problemId",
          "type": "uint256"
        }
      ],
      "name": "inProgress",
      "outputs": [
        {
          "internalType": "bool",
          "name": "",
          "type": "bool"
        }
      ],
      "stateMutability": "view",
      "type": "function"
    },
    {
      "inputs": [
        {
          "internalType": "uint256",
          "name": "",
          "type": "uint256"
        }
      ],
      "name": "matches",
      "outputs": [
        {
          "internalType": "bool",
          "name": "inProgress",
          "type": "bool"
        },
        {
          "internalType": "uint256",
          "name": "problemId",
          "type": "uint256"
        },
        {
          "internalType": "uint256",
          "name": "startingTick",
          "type": "uint256"
        }
      ],
      "stateMutability": "view",
      "type": "function"
    },
    {
      "inputs": [],
      "name": "maxTick",
      "outputs": [
        {
          "internalType": "uint256",
          "name": "",
          "type": "uint256"
        }
      ],
      "stateMutability": "view",
      "type": "function"
    },
    {
      "inputs": [],
      "name": "owner",
      "outputs": [
        {
          "internalType": "address",
          "name": "",
          "type": "address"
        }
      ],
      "stateMutability": "view",
      "type": "function"
    },
    {
      "inputs": [],
      "name": "problems",
      "outputs": [
        {
          "internalType": "address payable",
          "name": "",
          "type": "address"
        }
      ],
      "stateMutability": "view",
      "type": "function"
    },
    {
      "inputs": [],
      "name": "renounceOwnership",
      "outputs": [],
      "stateMutability": "nonpayable",
      "type": "function"
    },
    {
      "inputs": [
        {
          "internalType": "uint256",
          "name": "problemId",
          "type": "uint256"
        },
        {
          "internalType": "uint256",
          "name": "tickCount",
          "type": "uint256"
        },
        {
          "internalType": "uint256[2]",
          "name": "a",
          "type": "uint256[2]"
        },
        {
          "internalType": "uint256[2][2]",
          "name": "b",
          "type": "uint256[2][2]"
        },
        {
          "internalType": "uint256[2]",
          "name": "c",
          "type": "uint256[2]"
        },
        {
          "internalType": "uint256[]",
          "name": "input",
          "type": "uint256[]"
        }
      ],
      "name": "solveProblem",
      "outputs": [],
      "stateMutability": "nonpayable",
      "type": "function"
    },
    {
      "inputs": [
        {
          "internalType": "address",
          "name": "newOwner",
          "type": "address"
        }
      ],
      "name": "transferOwnership",
      "outputs": [],
      "stateMutability": "nonpayable",
      "type": "function"
    },
    {
      "inputs": [
        {
          "internalType": "address payable",
          "name": "problems_",
          "type": "address"
        }
      ],
      "name": "updateProblemsAddress",
      "outputs": [],
      "stateMutability": "nonpayable",
      "type": "function"
    }
  ],
  "bytecode": "0x60803461014c57601f6200202f38819003918201601f1916830192916001600160401b03919082851184861017610151578084926040968752833960209384918101031261014c57516001600160a01b0392838216929183900361014c5760008054336001600160a01b031980831682178455885197909592167f8be0079c531659141344cd1fd0a4f28419497f9722a3daafe3b4186f6b6457e08489a36101608601908111868210176101385786929192528185528181860152818686015260019485606082015260026080820152600460a0820152600860c0820152601060e0820152816101008201528661012082015260806101408201529085600293925b600b8410610121575092505050541617905551611ec79081620001688239f35b805160ff1685559381019392019186908201610101565b634e487b7160e01b82526041600452602482fd5b600080fd5b634e487b7160e01b600052604160045260246000fdfe60806040526004361015610054575b3461004f5760405162461bcd60e51b81526020600482015260146024820152733737903330b6363130b1b590333ab731ba34b7b760611b6044820152606490fd5b600080fd5b60003560e01c8063087c32e614611abc578063130e5a87146110255780631b375b5414610fff5780631db3b6dd14610fe2578063313ce56714610fbf5780634768d4ef14610f775780634e26b0cd14610f46578063715018a614610ee75780638da5cb5b14610ebe5780639512ada214610de4578063ab85f1f414610212578063cd190a92146101e6578063f2fde38b1461011c5763f9df988f0361000e573461004f57600036600319011261004f576001546040516001600160a01b039091168152602090f35b3461004f57602036600319011261004f576004356001600160a01b038181169182900361004f5761014b611cde565b811561019257600080546001600160a01b031981168417825560405191939192167f8be0079c531659141344cd1fd0a4f28419497f9722a3daafe3b4186f6b6457e08484a3f35b60405162461bcd60e51b815260206004820152602660248201527f4f776e61626c653a206e6577206f776e657220697320746865207a65726f206160448201526564647265737360d01b6064820152608490fd5b3461004f57602036600319011261004f57600435600b81101561004f5760209060020154604051908152f35b3461004f5761016036600319011261004f57366063121561004f5760405161023981611b60565b3660841161004f576044905b60848210610dd4573660a3121561004f5760405161026281611b60565b366101041161004f576084905b6101048210610dba5736610123121561004f5760405161028e81611b60565b366101441161004f57610104905b6101448210610daa57610144356001600160401b03811161004f576102c5903690600401611c80565b6001546040516331a9108f60e11b815260048035908201526001600160a01b0390911690602081602481855afa80156105e05761031591600091610d8b575b506001600160a01b03163314611d8e565b6040516375d279b360e11b815260048035908201529160c083602481855afa9182156105e05760008094600094610d3d575b50610d075761035d61035885611dca565b611de0565b600119811161090057600101825103610ccb576020604491604051928380926343569ffb60e01b825288600483015260243560248301525afa9081156105e057600091610c9c575b506001600160a01b031615610c64576103c66103c084611dca565b82611d45565b5160018403610bce575b610418604091600435600052600d60205282600020948351956103f287611b00565b600260ff825416159182158952600181015460208a0152015485880152610b8e57611e26565b9201519081831061090057610bb882840311610b55576001546040516310211ca160e21b8152600480359082015291906001600160a01b031661014083602481845afa9283156105e057600093610ad5575b50803b1561004f57600080916044604051809481936304b24e8560e01b835260043560048401528a60248401525af180156105e057610ac6575b5090849160009160006101006040516104bc81611b44565b8281528260208201528260408201528260608201528260808201528260a08201528260c08201528260e0820152015260005b8481106105fb5750505014610500575b005b6001546001600160a01b0316803b1561004f5760008091602460405180948193630825ea8d60e01b835260043560048401525af180156105e0576105ec575b506001546001600160a01b0316803b1561004f5760008091602460405180948193630674876160e11b835260043560048401525af180156105e0576105d1575b50600435600052600d6020526000600260408220828155826001820155015560405191038152600435907fd1a83cf15e893baacb4994c8e0feb9cb86c3725254e5c55c6f17b3d19c56dc4760203392a4005b6105da90611b31565b8361057f565b6040513d6000823e3d90fd5b6105f590611b31565b8361053f565b60015493945091929091906001600160a01b03166106198284611e32565b516040519063618faeb560e11b82526004356004830152602482015261012081604481855afa9081156105e057600091610a30575b50606081015161066f6106608b611df6565b61066986611dca565b90611e26565b6001198111610900576001610685910187611d45565b51036109f65761069d61069784611dca565b86611d45565b51606082015260808101516106b46106608b611df6565b60011981116109005760011960018201116109005760026106d6910187611d45565b51036109bc576106e583611dca565b60011981116109005760016106fb910186611d45565b51608082015260a08101516107126106608b611df6565b6002198111610900576001196002820111610900576003610734910187611d45565b51036109845761074383611dca565b6002198111610900576002610759910186611d45565b5160a082015260c08101516107706106608b611df6565b6003198111610900576001196003820111610900576004610792910187611d45565b510361094c576107a183611dca565b60031981116109005760036107b7910186611d45565b5160c082015260e08101516107ce6106608b611df6565b60041981116109005760011960048201116109005760056107f0910187611d45565b5103610916576107ff83611dca565b6004198111610900576004610815910186611d45565b5160e08201526108258385611e32565b51823b1561004f576000926101648492604051958693849263e9d903b160e01b845260043560048501526024840152865160448401526020870151606484015260408701516084840152606087015160a4840152608087015160c484015260a087015160e484015260c087015161010484015260e08701516101248401526101008701516101448401525af19182156105e05760e0926108f1575b500151156108dc575b6108d290611d36565b90869392916104ee565b926108e96108d291611d36565b9390506108c9565b6108fa90611b31565b896108c0565b634e487b7160e01b600052601160045260246000fd5b60405162461bcd60e51b815260206004820152600e60248201526d496e76616c69642072616469757360901b6044820152606490fd5b60405162461bcd60e51b815260206004820152601060248201526f496e76616c696420766563746f72207960801b6044820152606490fd5b60405162461bcd60e51b815260206004820152601060248201526f092dcecc2d8d2c840eccac6e8dee440f60831b6044820152606490fd5b60405162461bcd60e51b8152602060048201526012602482015271496e76616c696420706f736974696f6e207960701b6044820152606490fd5b60405162461bcd60e51b8152602060048201526012602482015271092dcecc2d8d2c840e0dee6d2e8d2dedc40f60731b6044820152606490fd5b9050610120813d61012011610abe575b81610a4e6101209383611b97565b8101031261004f5761010060405191610a6683611b44565b805183526020810151602084015260408101516040840152606081015160608401526080810151608084015260a081015160a084015260c081015160c084015260e081015160e084015201516101008201528961064e565b3d9150610a40565b610acf90611b31565b856104a4565b909250610140903d61014011610b4d575b610af08282611b97565b61014081838101031261004f57818101601f8201121561004f5760405191610b1783611b7b565b8290820161014083011161004f5781905b61014083018210610b3d57505050918661046a565b8151815260209182019101610b28565b3d9150610ae6565b60405162461bcd60e51b815260206004820152601160248201527013585e081d1a58dac8195e18d959591959607a1b6044820152606490fd5b600186528084870152600435600052600d602052836000208651151560ff8019835416911617815560208701516001820155600285880151910155611e26565b60028403610bdc575b6103d0565b60038403156103d05760048403156103d05760058403156103d05760068403156103d0576007840315610bd75760088403156103d0576009840315610bd757600a840315610bd75760405162461bcd60e51b8152602060048201526018602482015277496e76616c6964206e756d626572206f6620626f6469657360401b6044820152606490fd5b60405162461bcd60e51b815260206004820152601060248201526f24b73b30b634b2103b32b934b334b2b960811b6044820152606490fd5b610cbe915060203d602011610cc4575b610cb68183611b97565b810190611d6f565b846103a5565b503d610cac565b60405162461bcd60e51b8152602060048201526014602482015273092dcecc2d8d2c840d2dce0eae840d8cadccee8d60631b6044820152606490fd5b60405162461bcd60e51b815260206004820152600e60248201526d105b1c9958591e481cdbdb1d995960921b6044820152606490fd5b935050925060c0823d60c011610d83575b81610d5b60c09383611b97565b8101031261004f57815192831515840361004f5760a060608401519301519392939285610347565b3d9150610d4e565b610da4915060203d602011610cc457610cb68183611b97565b84610304565b813581526020918201910161029c565b6020604091610dc93685611bcf565b81520191019061026f565b8135815260209182019101610245565b3461004f57602036600319011261004f576001546040516331a9108f60e11b815260048035908201819052916001600160a01b039081169190602082602481865afa80156105e057610e4192600091610ea0575b50163314611d8e565b803b1561004f5760008091602460405180948193630825ea8d60e01b83528760048401525af180156105e057610e91575b506000908152600d602052604081208181556001810182905560020155005b610e9a90611b31565b81610e72565b610eb8915060203d8111610cc457610cb68183611b97565b85610e38565b3461004f57600036600319011261004f576000546040516001600160a01b039091168152602090f35b3461004f57600036600319011261004f57610f00611cde565b600080546001600160a01b0319811682556040519082906001600160a01b03167f8be0079c531659141344cd1fd0a4f28419497f9722a3daafe3b4186f6b6457e08284a3f35b3461004f57602036600319011261004f57600435600052600d602052602060ff604060002054166040519015158152f35b3461004f57602036600319011261004f57600435600052600d6020526060604060002060ff815416906002600182015491015490604051921515835260208301526040820152f35b3461004f57600036600319011261004f576020604051670de0b6b3a76400008152f35b3461004f57600036600319011261004f576020604051610bb88152f35b3461004f57602036600319011261004f57602061101d600435611e43565b604051908152f35b3461004f5760c036600319011261004f576044356001600160401b03811161004f57611055903690600401611c14565b606435906001600160401b03821161004f573660238301121561004f57816004013561108081611bb8565b9261108e6040519485611b97565b8184526024602085019260071b8201019036821161004f57602401915b818310611a61575050506084356001600160401b03811161004f576110d4903690600401611c14565b6001600160401b0360a4351161004f5736602360a43501121561004f5760a4356004013561110181611bb8565b9061110f6040519283611b97565b80825260208201903660248260051b60a43501011161004f57602460a43501915b60248260051b60a43501018310611a2e5750505060005b81518110156104fe5761115a8185611d45565b506111658186611d45565b506111708184611d45565b5061117b8183611d45565b519060018060a01b03600154166040516331a9108f60e11b81526004356004820152602081602481855afa80156105e0576111c891600091611a0f57506001600160a01b03163314611d8e565b6040516375d279b360e11b815260048035908201529060c082602481845afa9081156105e057600080936000936119c1575b50610d075761120b61035884611dca565b600119811161090057600101855103610ccb576020604491604051928380926343569ffb60e01b825287600483015260243560248301525afa9081156105e0576000916119a2575b506001600160a01b031615610c645761127461126e83611dca565b85611d45565b516001830361190c575b6112c6604091600435600052600d60205282600020938351946112a086611b00565b600260ff825416159182158852600181015460208901520154858701526118cc57611e26565b9101519384821061090057610bb885830311610b55576001546040516310211ca160e21b8152600480359082015291906001600160a01b031661014083602481845afa9283156105e05760009361184c575b50803b1561004f57600080916044604051809481936304b24e8560e01b835260043560048401528960248401525af180156105e05761183d575b50908391600091600061010060405161136a81611b44565b8281528260208201528260408201528260608201528260808201528260a08201528260c08201528260e0820152015260005b8481106114b757505050146113bd575b50506113b89150611d36565b611147565b6001546001600160a01b0316803b1561004f5760008091602460405180948193630825ea8d60e01b835260043560048401525af180156105e0576114a8575b506001546001600160a01b031693843b1561004f5760008095602460405180988193630674876160e11b835260043560048401525af19485156105e0576113b895611499575b50600435600052600d6020526000600260408220828155826001820155015560405191038152600435907fd1a83cf15e893baacb4994c8e0feb9cb86c3725254e5c55c6f17b3d19c56dc4760203392a486806113ac565b6114a290611b31565b89611442565b6114b190611b31565b886113fc565b60015493945091929091906001600160a01b03166114d58284611e32565b516040519063618faeb560e11b82526004356004830152602482015261012081604481855afa9081156105e0576000916117a7575b50606081015161151c6106608a611df6565b6001198111610900576001611532910187611d45565b51036109f65761154461069784611dca565b516060820152608081015161155b6106608a611df6565b600119811161090057600119600182011161090057600261157d910187611d45565b51036109bc5761158c83611dca565b60011981116109005760016115a2910186611d45565b51608082015260a08101516115b96106608a611df6565b60021981116109005760011960028201116109005760036115db910187611d45565b5103610984576115ea83611dca565b6002198111610900576002611600910186611d45565b5160a082015260c08101516116176106608a611df6565b6003198111610900576001196003820111610900576004611639910187611d45565b510361094c5761164883611dca565b600319811161090057600361165e910186611d45565b5160c082015260e08101516116756106608a611df6565b6004198111610900576001196004820111610900576005611697910187611d45565b5103610916576116a683611dca565b60041981116109005760046116bc910186611d45565b5160e08201526116cc8385611e32565b51823b1561004f576000926101648492604051958693849263e9d903b160e01b845260043560048501526024840152865160448401526020870151606484015260408701516084840152606087015160a4840152608087015160c484015260a087015160e484015260c087015161010484015260e08701516101248401526101008701516101448401525af19182156105e05760e092611798575b50015115611783575b61177990611d36565b908593929161139c565b9261179061177991611d36565b939050611770565b6117a190611b31565b8e611767565b9050610120813d61012011611835575b816117c56101209383611b97565b8101031261004f57610100604051916117dd83611b44565b805183526020810151602084015260408101516040840152606081015160608401526080810151608084015260a081015160a084015260c081015160c084015260e081015160e084015201516101008201528e61150a565b3d91506117b7565b61184690611b31565b8a611352565b909250610140903d610140116118c4575b6118678282611b97565b61014081838101031261004f57818101601f8201121561004f576040519161188e83611b7b565b8290820161014083011161004f5781905b610140830182106118b457505050918b611318565b815181526020918201910161189f565b3d915061185d565b600185528084860152600435600052600d602052836000208551151560ff8019835416911617815560208601516001820155600285870151910155611e26565b6002830361191a575b61127e565b600383031561127e57600483031561127e57600583031561127e57600683031561127e57600783031561191557600883031561127e57600983031561191557600a8303156119155760405162461bcd60e51b8152602060048201526018602482015277496e76616c6964206e756d626572206f6620626f6469657360401b6044820152606490fd5b6119bb915060203d602011610cc457610cb68183611b97565b89611253565b925050915060c0813d60c011611a07575b816119df60c09383611b97565b8101031261004f57805191821515830361004f5760a06060830151920151929192918a6111fa565b3d91506119d2565b611a28915060203d602011610cc457610cb68183611b97565b89610304565b6001600160401b0383351161004f57602080602492611a543685883560a4350101611c80565b8152019301929050611130565b36601f8401121561004f57604051611a7881611b60565b806080850136811161004f5785915b818310611aa2575050508160209160809352019201916110ab565b6020604091611ab13686611bcf565b815201920191611a87565b3461004f57602036600319011261004f576004356001600160a01b0381169081900361004f57611aea611cde565b600180546001600160a01b031916919091179055005b606081019081106001600160401b03821117611b1b57604052565b634e487b7160e01b600052604160045260246000fd5b6001600160401b038111611b1b57604052565b61012081019081106001600160401b03821117611b1b57604052565b604081019081106001600160401b03821117611b1b57604052565b61014081019081106001600160401b03821117611b1b57604052565b90601f801991011681019081106001600160401b03821117611b1b57604052565b6001600160401b038111611b1b5760051b60200190565b9080601f8301121561004f5760405191611be883611b60565b82906040810192831161004f57905b828210611c045750505090565b8135815260209182019101611bf7565b81601f8201121561004f57803590611c2b82611bb8565b92604092611c3b84519586611b97565b808552602091828087019260061b8501019381851161004f578301915b848310611c685750505050505090565b838691611c758486611bcf565b815201920191611c58565b81601f8201121561004f57803591611c9783611bb8565b92611ca56040519485611b97565b808452602092838086019260051b82010192831161004f578301905b828210611ccf575050505090565b81358152908301908301611cc1565b6000546001600160a01b03163303611cf257565b606460405162461bcd60e51b815260206004820152602060248201527f4f776e61626c653a2063616c6c6572206973206e6f7420746865206f776e65726044820152fd5b60001981146109005760010190565b8051821015611d595760209160051b010190565b634e487b7160e01b600052603260045260246000fd5b9081602091031261004f57516001600160a01b038116810361004f5790565b15611d9557565b60405162461bcd60e51b815260206004820152600d60248201526c2737ba103a34329037bbb732b960991b6044820152606490fd5b8060001904600511811515166109005760050290565b8060001904600211811515166109005760011b90565b7f333333333333333333333333333333333333333333333333333333333333333381116001166109005760050290565b81198111610900570190565b90600a811015611d595760051b0190565b6101f48111611e525750600690565b6103e88111611e615750600590565b6105dc8111611e705750600490565b6107d08111611e7f5750600390565b6109c410611e8c57600290565b60019056fea26469706673582212203412eec0b97685a99914afa6a0f3913dd7acf29c8b4fa58a904cdfab6ee1216264736f6c634300080f0033",
  "linkReferences": {},
  "deployedLinkReferences": {}
}