{
  "_format": "hh-sol-artifact-1",
  "contractName": "Problems",
  "sourceName": "contracts/Problems.sol",
  "abi": [
    {
      "inputs": [
        {
          "internalType": "address",
          "name": "metadata_",
          "type": "address"
        },
        {
          "internalType": "address[]",
          "name": "verifiers_",
          "type": "address[]"
        },
        {
          "internalType": "uint256[]",
          "name": "verifiersTicks",
          "type": "uint256[]"
        },
        {
          "internalType": "uint256[]",
          "name": "verifiersBodies",
          "type": "uint256[]"
        }
      ],
      "stateMutability": "nonpayable",
      "type": "constructor"
    },
    {
      "anonymous": false,
      "inputs": [
        {
          "indexed": true,
          "internalType": "address",
          "name": "owner",
          "type": "address"
        },
        {
          "indexed": true,
          "internalType": "address",
          "name": "approved",
          "type": "address"
        },
        {
          "indexed": true,
          "internalType": "uint256",
          "name": "tokenId",
          "type": "uint256"
        }
      ],
      "name": "Approval",
      "type": "event"
    },
    {
      "anonymous": false,
      "inputs": [
        {
          "indexed": true,
          "internalType": "address",
          "name": "owner",
          "type": "address"
        },
        {
          "indexed": true,
          "internalType": "address",
          "name": "operator",
          "type": "address"
        },
        {
          "indexed": false,
          "internalType": "bool",
          "name": "approved",
          "type": "bool"
        }
      ],
      "name": "ApprovalForAll",
      "type": "event"
    },
    {
      "anonymous": false,
      "inputs": [
        {
          "indexed": true,
          "internalType": "address",
          "name": "to",
          "type": "address"
        },
        {
          "indexed": true,
          "internalType": "bool",
          "name": "success",
          "type": "bool"
        },
        {
          "indexed": false,
          "internalType": "bytes",
          "name": "returnData",
          "type": "bytes"
        },
        {
          "indexed": false,
          "internalType": "uint256",
          "name": "amount",
          "type": "uint256"
        }
      ],
      "name": "EthMoved",
      "type": "event"
    },
    {
      "anonymous": false,
      "inputs": [
        {
          "indexed": true,
          "internalType": "address",
          "name": "previousOwner",
          "type": "address"
        },
        {
          "indexed": true,
          "internalType": "address",
          "name": "newOwner",
          "type": "address"
        }
      ],
      "name": "OwnershipTransferred",
      "type": "event"
    },
    {
      "anonymous": false,
      "inputs": [
        {
          "indexed": true,
          "internalType": "address",
          "name": "from",
          "type": "address"
        },
        {
          "indexed": true,
          "internalType": "address",
          "name": "to",
          "type": "address"
        },
        {
          "indexed": true,
          "internalType": "uint256",
          "name": "tokenId",
          "type": "uint256"
        }
      ],
      "name": "Transfer",
      "type": "event"
    },
    {
      "anonymous": false,
      "inputs": [
        {
          "indexed": false,
          "internalType": "uint256",
          "name": "problemId",
          "type": "uint256"
        },
        {
          "indexed": false,
          "internalType": "uint256",
          "name": "bodyId",
          "type": "uint256"
        },
        {
          "indexed": false,
          "internalType": "uint256",
          "name": "bodyStyle",
          "type": "uint256"
        },
        {
          "indexed": false,
          "internalType": "uint256",
          "name": "tick",
          "type": "uint256"
        },
        {
          "indexed": false,
          "internalType": "uint256",
          "name": "px",
          "type": "uint256"
        },
        {
          "indexed": false,
          "internalType": "uint256",
          "name": "py",
          "type": "uint256"
        },
        {
          "indexed": false,
          "internalType": "uint256",
          "name": "radius",
          "type": "uint256"
        },
        {
          "indexed": false,
          "internalType": "bytes32",
          "name": "seed",
          "type": "bytes32"
        }
      ],
      "name": "bodyAdded",
      "type": "event"
    },
    {
      "anonymous": false,
      "inputs": [
        {
          "indexed": false,
          "internalType": "uint256",
          "name": "problemId",
          "type": "uint256"
        },
        {
          "indexed": false,
          "internalType": "uint256",
          "name": "tick",
          "type": "uint256"
        },
        {
          "indexed": false,
          "internalType": "uint256",
          "name": "bodyId",
          "type": "uint256"
        },
        {
          "indexed": false,
          "internalType": "bytes32",
          "name": "seed",
          "type": "bytes32"
        }
      ],
      "name": "bodyRemoved",
      "type": "event"
    },
    {
      "inputs": [
        {
          "internalType": "uint256",
          "name": "problemId",
          "type": "uint256"
        },
        {
          "internalType": "uint256",
          "name": "bodyId",
          "type": "uint256"
        }
      ],
      "name": "addBody",
      "outputs": [],
      "stateMutability": "nonpayable",
      "type": "function"
    },
    {
      "inputs": [
        {
          "internalType": "address",
          "name": "recipient",
          "type": "address"
        }
      ],
      "name": "adminMint",
      "outputs": [],
      "stateMutability": "nonpayable",
      "type": "function"
    },
    {
      "inputs": [
        {
          "internalType": "address",
          "name": "to",
          "type": "address"
        },
        {
          "internalType": "uint256",
          "name": "tokenId",
          "type": "uint256"
        }
      ],
      "name": "approve",
      "outputs": [],
      "stateMutability": "nonpayable",
      "type": "function"
    },
    {
      "inputs": [
        {
          "internalType": "address",
          "name": "owner",
          "type": "address"
        }
      ],
      "name": "balanceOf",
      "outputs": [
        {
          "internalType": "uint256",
          "name": "",
          "type": "uint256"
        }
      ],
      "stateMutability": "view",
      "type": "function"
    },
    {
      "inputs": [],
      "name": "bodies",
      "outputs": [
        {
          "internalType": "address",
          "name": "",
          "type": "address"
        }
      ],
      "stateMutability": "view",
      "type": "function"
    },
    {
      "inputs": [
        {
          "internalType": "uint256",
          "name": "tokenId",
          "type": "uint256"
        }
      ],
      "name": "getApproved",
      "outputs": [
        {
          "internalType": "address",
          "name": "",
          "type": "address"
        }
      ],
      "stateMutability": "view",
      "type": "function"
    },
    {
      "inputs": [
        {
          "internalType": "uint256",
          "name": "problemId",
          "type": "uint256"
        },
        {
          "internalType": "uint256",
          "name": "bodyId",
          "type": "uint256"
        }
      ],
      "name": "getProblemBodyData",
      "outputs": [
        {
          "components": [
            {
              "internalType": "uint256",
              "name": "bodyId",
              "type": "uint256"
            },
            {
              "internalType": "uint256",
              "name": "bodyStyle",
              "type": "uint256"
            },
            {
              "internalType": "uint256",
              "name": "bodyIndex",
              "type": "uint256"
            },
            {
              "internalType": "uint256",
              "name": "px",
              "type": "uint256"
            },
            {
              "internalType": "uint256",
              "name": "py",
              "type": "uint256"
            },
            {
              "internalType": "uint256",
              "name": "vx",
              "type": "uint256"
            },
            {
              "internalType": "uint256",
              "name": "vy",
              "type": "uint256"
            },
            {
              "internalType": "uint256",
              "name": "radius",
              "type": "uint256"
            },
            {
              "internalType": "bytes32",
              "name": "seed",
              "type": "bytes32"
            }
          ],
          "internalType": "struct Problems.Body",
          "name": "",
          "type": "tuple"
        }
      ],
      "stateMutability": "view",
      "type": "function"
    },
    {
      "inputs": [
        {
          "internalType": "uint256",
          "name": "problemId",
          "type": "uint256"
        }
      ],
      "name": "getProblemBodyIds",
      "outputs": [
        {
          "internalType": "uint256[10]",
          "name": "",
          "type": "uint256[10]"
        }
      ],
      "stateMutability": "view",
      "type": "function"
    },
    {
      "inputs": [
        {
          "internalType": "uint256",
          "name": "bodyId",
          "type": "uint256"
        },
        {
          "internalType": "bytes32",
          "name": "seed",
          "type": "bytes32"
        },
        {
          "internalType": "uint256",
          "name": "bodyStyle",
          "type": "uint256"
        },
        {
          "internalType": "uint256",
          "name": "i",
          "type": "uint256"
        }
      ],
      "name": "getRandomValues",
      "outputs": [
        {
          "components": [
            {
              "internalType": "uint256",
              "name": "bodyId",
              "type": "uint256"
            },
            {
              "internalType": "uint256",
              "name": "bodyStyle",
              "type": "uint256"
            },
            {
              "internalType": "uint256",
              "name": "bodyIndex",
              "type": "uint256"
            },
            {
              "internalType": "uint256",
              "name": "px",
              "type": "uint256"
            },
            {
              "internalType": "uint256",
              "name": "py",
              "type": "uint256"
            },
            {
              "internalType": "uint256",
              "name": "vx",
              "type": "uint256"
            },
            {
              "internalType": "uint256",
              "name": "vy",
              "type": "uint256"
            },
            {
              "internalType": "uint256",
              "name": "radius",
              "type": "uint256"
            },
            {
              "internalType": "bytes32",
              "name": "seed",
              "type": "bytes32"
            }
          ],
          "internalType": "struct Problems.Body",
          "name": "",
          "type": "tuple"
        }
      ],
      "stateMutability": "pure",
      "type": "function"
    },
    {
      "inputs": [
        {
          "internalType": "address",
          "name": "owner",
          "type": "address"
        },
        {
          "internalType": "address",
          "name": "operator",
          "type": "address"
        }
      ],
      "name": "isApprovedForAll",
      "outputs": [
        {
          "internalType": "bool",
          "name": "",
          "type": "bool"
        }
      ],
      "stateMutability": "view",
      "type": "function"
    },
    {
      "inputs": [],
      "name": "maxVector",
      "outputs": [
        {
          "internalType": "uint256",
          "name": "",
          "type": "uint256"
        }
      ],
      "stateMutability": "view",
      "type": "function"
    },
    {
      "inputs": [],
      "name": "metadata",
      "outputs": [
        {
          "internalType": "address",
          "name": "",
          "type": "address"
        }
      ],
      "stateMutability": "view",
      "type": "function"
    },
    {
      "inputs": [],
      "name": "mint",
      "outputs": [],
      "stateMutability": "payable",
      "type": "function"
    },
    {
      "inputs": [
        {
          "internalType": "address",
          "name": "recipient",
          "type": "address"
        },
        {
          "internalType": "uint256",
          "name": "quantity",
          "type": "uint256"
        }
      ],
      "name": "mint",
      "outputs": [],
      "stateMutability": "payable",
      "type": "function"
    },
    {
      "inputs": [
        {
          "internalType": "address",
          "name": "recipient",
          "type": "address"
        }
      ],
      "name": "mint",
      "outputs": [],
      "stateMutability": "payable",
      "type": "function"
    },
    {
      "inputs": [
        {
          "internalType": "uint256",
          "name": "problemId",
          "type": "uint256"
        }
      ],
      "name": "mintBody",
      "outputs": [],
      "stateMutability": "nonpayable",
      "type": "function"
    },
    {
      "inputs": [],
      "name": "name",
      "outputs": [
        {
          "internalType": "string",
          "name": "",
          "type": "string"
        }
      ],
      "stateMutability": "view",
      "type": "function"
    },
    {
      "inputs": [],
      "name": "owner",
      "outputs": [
        {
          "internalType": "address",
          "name": "",
          "type": "address"
        }
      ],
      "stateMutability": "view",
      "type": "function"
    },
    {
      "inputs": [
        {
          "internalType": "uint256",
          "name": "tokenId",
          "type": "uint256"
        }
      ],
      "name": "ownerOf",
      "outputs": [
        {
          "internalType": "address",
          "name": "",
          "type": "address"
        }
      ],
      "stateMutability": "view",
      "type": "function"
    },
    {
      "inputs": [],
      "name": "paused",
      "outputs": [
        {
          "internalType": "bool",
          "name": "",
          "type": "bool"
        }
      ],
      "stateMutability": "view",
      "type": "function"
    },
    {
      "inputs": [],
      "name": "price",
      "outputs": [
        {
          "internalType": "uint256",
          "name": "",
          "type": "uint256"
        }
      ],
      "stateMutability": "view",
      "type": "function"
    },
    {
      "inputs": [],
      "name": "problemSupply",
      "outputs": [
        {
          "internalType": "uint256",
          "name": "",
          "type": "uint256"
        }
      ],
      "stateMutability": "view",
      "type": "function"
    },
    {
      "inputs": [
        {
          "internalType": "uint256",
          "name": "",
          "type": "uint256"
        }
      ],
      "name": "problems",
      "outputs": [
        {
          "internalType": "bytes32",
          "name": "seed",
          "type": "bytes32"
        },
        {
          "internalType": "uint256",
          "name": "bodyCount",
          "type": "uint256"
        },
        {
          "internalType": "uint256",
          "name": "bodiesProduced",
          "type": "uint256"
        },
        {
          "internalType": "uint256",
          "name": "tickCount",
          "type": "uint256"
        }
      ],
      "stateMutability": "view",
      "type": "function"
    },
    {
      "inputs": [],
      "name": "proceedRecipient",
      "outputs": [
        {
          "internalType": "address",
          "name": "",
          "type": "address"
        }
      ],
      "stateMutability": "view",
      "type": "function"
    },
    {
      "inputs": [
        {
          "internalType": "address payable",
          "name": "_to",
          "type": "address"
        }
      ],
      "name": "recoverUnsuccessfulMintPayment",
      "outputs": [],
      "stateMutability": "nonpayable",
      "type": "function"
    },
    {
      "inputs": [
        {
          "internalType": "uint256",
          "name": "problemId",
          "type": "uint256"
        },
        {
          "internalType": "uint256",
          "name": "bodyId",
          "type": "uint256"
        }
      ],
      "name": "removeBody",
      "outputs": [],
      "stateMutability": "nonpayable",
      "type": "function"
    },
    {
      "inputs": [],
      "name": "renounceOwnership",
      "outputs": [],
      "stateMutability": "nonpayable",
      "type": "function"
    },
    {
      "inputs": [
        {
          "internalType": "address",
          "name": "from",
          "type": "address"
        },
        {
          "internalType": "address",
          "name": "to",
          "type": "address"
        },
        {
          "internalType": "uint256",
          "name": "tokenId",
          "type": "uint256"
        }
      ],
      "name": "safeTransferFrom",
      "outputs": [],
      "stateMutability": "nonpayable",
      "type": "function"
    },
    {
      "inputs": [
        {
          "internalType": "address",
          "name": "from",
          "type": "address"
        },
        {
          "internalType": "address",
          "name": "to",
          "type": "address"
        },
        {
          "internalType": "uint256",
          "name": "tokenId",
          "type": "uint256"
        },
        {
          "internalType": "bytes",
          "name": "data",
          "type": "bytes"
        }
      ],
      "name": "safeTransferFrom",
      "outputs": [],
      "stateMutability": "nonpayable",
      "type": "function"
    },
    {
      "inputs": [],
      "name": "scalingFactor",
      "outputs": [
        {
          "internalType": "uint256",
          "name": "",
          "type": "uint256"
        }
      ],
      "stateMutability": "view",
      "type": "function"
    },
    {
      "inputs": [
        {
          "internalType": "address",
          "name": "operator",
          "type": "address"
        },
        {
          "internalType": "bool",
          "name": "approved",
          "type": "bool"
        }
      ],
      "name": "setApprovalForAll",
      "outputs": [],
      "stateMutability": "nonpayable",
      "type": "function"
    },
    {
      "inputs": [],
      "name": "solver",
      "outputs": [
        {
          "internalType": "address",
          "name": "",
          "type": "address"
        }
      ],
      "stateMutability": "view",
      "type": "function"
    },
    {
      "inputs": [],
      "name": "startDate",
      "outputs": [
        {
          "internalType": "uint256",
          "name": "",
          "type": "uint256"
        }
      ],
      "stateMutability": "view",
      "type": "function"
    },
    {
      "inputs": [],
      "name": "startingRadius",
      "outputs": [
        {
          "internalType": "uint256",
          "name": "",
          "type": "uint256"
        }
      ],
      "stateMutability": "view",
      "type": "function"
    },
    {
      "inputs": [
        {
          "internalType": "bytes4",
          "name": "interfaceId",
          "type": "bytes4"
        }
      ],
      "name": "supportsInterface",
      "outputs": [
        {
          "internalType": "bool",
          "name": "",
          "type": "bool"
        }
      ],
      "stateMutability": "view",
      "type": "function"
    },
    {
      "inputs": [],
      "name": "symbol",
      "outputs": [
        {
          "internalType": "string",
          "name": "",
          "type": "string"
        }
      ],
      "stateMutability": "view",
      "type": "function"
    },
    {
      "inputs": [
        {
          "internalType": "uint256",
          "name": "id",
          "type": "uint256"
        }
      ],
      "name": "tokenURI",
      "outputs": [
        {
          "internalType": "string",
          "name": "",
          "type": "string"
        }
      ],
      "stateMutability": "view",
      "type": "function"
    },
    {
      "inputs": [
        {
          "internalType": "address",
          "name": "from",
          "type": "address"
        },
        {
          "internalType": "address",
          "name": "to",
          "type": "address"
        },
        {
          "internalType": "uint256",
          "name": "tokenId",
          "type": "uint256"
        }
      ],
      "name": "transferFrom",
      "outputs": [],
      "stateMutability": "nonpayable",
      "type": "function"
    },
    {
      "inputs": [
        {
          "internalType": "address",
          "name": "newOwner",
          "type": "address"
        }
      ],
      "name": "transferOwnership",
      "outputs": [],
      "stateMutability": "nonpayable",
      "type": "function"
    },
    {
      "inputs": [
        {
          "internalType": "address",
          "name": "bodies_",
          "type": "address"
        }
      ],
      "name": "updateBodiesAddress",
      "outputs": [],
      "stateMutability": "nonpayable",
      "type": "function"
    },
    {
      "inputs": [
        {
          "internalType": "address",
          "name": "metadata_",
          "type": "address"
        }
      ],
      "name": "updateMetadataAddress",
      "outputs": [],
      "stateMutability": "nonpayable",
      "type": "function"
    },
    {
      "inputs": [
        {
          "internalType": "bool",
          "name": "paused_",
          "type": "bool"
        }
      ],
      "name": "updatePaused",
      "outputs": [],
      "stateMutability": "nonpayable",
      "type": "function"
    },
    {
      "inputs": [
        {
          "internalType": "uint256",
          "name": "price_",
          "type": "uint256"
        }
      ],
      "name": "updatePrice",
      "outputs": [],
      "stateMutability": "nonpayable",
      "type": "function"
    },
    {
      "inputs": [
        {
          "internalType": "uint256",
          "name": "problemId",
          "type": "uint256"
        },
        {
          "internalType": "uint256",
          "name": "bodyId",
          "type": "uint256"
        },
        {
          "components": [
            {
              "internalType": "uint256",
              "name": "bodyId",
              "type": "uint256"
            },
            {
              "internalType": "uint256",
              "name": "bodyStyle",
              "type": "uint256"
            },
            {
              "internalType": "uint256",
              "name": "bodyIndex",
              "type": "uint256"
            },
            {
              "internalType": "uint256",
              "name": "px",
              "type": "uint256"
            },
            {
              "internalType": "uint256",
              "name": "py",
              "type": "uint256"
            },
            {
              "internalType": "uint256",
              "name": "vx",
              "type": "uint256"
            },
            {
              "internalType": "uint256",
              "name": "vy",
              "type": "uint256"
            },
            {
              "internalType": "uint256",
              "name": "radius",
              "type": "uint256"
            },
            {
              "internalType": "bytes32",
              "name": "seed",
              "type": "bytes32"
            }
          ],
          "internalType": "struct Problems.Body",
          "name": "body",
          "type": "tuple"
        }
      ],
      "name": "updateProblemBody",
      "outputs": [],
      "stateMutability": "nonpayable",
      "type": "function"
    },
    {
      "inputs": [
        {
          "internalType": "uint256",
          "name": "problemId",
          "type": "uint256"
        },
        {
          "internalType": "uint256",
          "name": "bodyCount",
          "type": "uint256"
        }
      ],
      "name": "updateProblemBodyCount",
      "outputs": [],
      "stateMutability": "nonpayable",
      "type": "function"
    },
    {
      "inputs": [
        {
          "internalType": "uint256",
          "name": "problemId",
          "type": "uint256"
        },
        {
          "internalType": "uint256[10]",
          "name": "bodyIds",
          "type": "uint256[10]"
        }
      ],
      "name": "updateProblemBodyIds",
      "outputs": [],
      "stateMutability": "nonpayable",
      "type": "function"
    },
    {
      "inputs": [
        {
          "internalType": "uint256",
          "name": "problemId",
          "type": "uint256"
        },
        {
          "internalType": "uint256",
          "name": "tickCount",
          "type": "uint256"
        }
      ],
      "name": "updateProblemTickCount",
      "outputs": [],
      "stateMutability": "nonpayable",
      "type": "function"
    },
    {
      "inputs": [
        {
          "internalType": "address",
          "name": "proceedRecipient_",
          "type": "address"
        }
      ],
      "name": "updateProceedRecipientAddress",
      "outputs": [],
      "stateMutability": "nonpayable",
      "type": "function"
    },
    {
      "inputs": [
        {
          "internalType": "address",
          "name": "solver_",
          "type": "address"
        }
      ],
      "name": "updateSolverAddress",
      "outputs": [],
      "stateMutability": "nonpayable",
      "type": "function"
    },
    {
      "inputs": [
        {
          "internalType": "uint256",
          "name": "startDate_",
          "type": "uint256"
        }
      ],
      "name": "updateStartDate",
      "outputs": [],
      "stateMutability": "nonpayable",
      "type": "function"
    },
    {
      "inputs": [
        {
          "internalType": "address",
          "name": "verifier_",
          "type": "address"
        },
        {
          "internalType": "uint256",
          "name": "verifierBodies",
          "type": "uint256"
        },
        {
          "internalType": "uint256",
          "name": "verifierTicks",
          "type": "uint256"
        }
      ],
      "name": "updateVerifier",
      "outputs": [],
      "stateMutability": "nonpayable",
      "type": "function"
    },
    {
      "inputs": [
        {
          "internalType": "uint256",
          "name": "",
          "type": "uint256"
        },
        {
          "internalType": "uint256",
          "name": "",
          "type": "uint256"
        }
      ],
      "name": "verifiers",
      "outputs": [
        {
          "internalType": "address",
          "name": "",
          "type": "address"
        }
      ],
      "stateMutability": "view",
      "type": "function"
    },
    {
      "inputs": [],
      "name": "windowWidth",
      "outputs": [
        {
          "internalType": "uint256",
          "name": "",
          "type": "uint256"
        }
      ],
      "stateMutability": "view",
      "type": "function"
    },
    {
      "stateMutability": "payable",
      "type": "receive"
    }
  ],
  "bytecode": "0x60406080815234620005b257620036f990813803806200001f81620005f2565b9384398201608083820312620005b2576200003a8362000618565b92602091828201519260018060401b0393848111620005b257830191601f93818585011215620005b2578351936200007c62000076866200062d565b620005f2565b94848087838152019160051b83010191848311620005b25785809101915b838310620005b7575050505086810151868111620005b25782620000c091830162000645565b916060820151878111620005b257620000da920162000645565b91620000e5620005d2565b95600f908188526e416e79626f64792050726f626c656d60881b838901526200010d620005d2565b966003885262414e5960e81b848901528851978289116200059c5760009889549a60019b8c81811c9116801562000591575b888210146200057d579081858493116200052a575b508790858311600114620004bd578c92620004b1575b5050600019600383901b1c1916908b1b1789555b80519283116200049d5789548a81811c9116801562000492575b868210146200047e579081838594931162000429575b5085918311600114620003c5578992620003b9575b5050600019600383901b1c191690881b1787555b6006549860018060a01b03199533878c161760065589519a60018060a01b039283918d7f8be0079c531659141344cd1fd0a4f28419497f9722a3daafe3b4186f6b6457e08c8533941692a389600755662386f26fc10000600d55169a8b15620003845750889a3388600c541617600c5587600b541617600b55879a5b62000268575b895161302b9081620006ce8239f35b80518b10156200037e576200027e8b86620006a2565b51156200033a5781620002928c83620006a2565b511615620003035781620002a78c83620006a2565b5116620002b58c88620006a2565b5189528385528a8920620002ca8d88620006a2565b518a5285528a892090888254161790556000198b14620002ef57998801998862000253565b634e487b7160e01b88526011600452602488fd5b895162461bcd60e51b815260048101859052601060248201526f24b73b30b634b2103b32b934b334b2b960811b6044820152606490fd5b895162461bcd60e51b815260048101859052601660248201527f496e76616c696420766572696669657220746f636b73000000000000000000006044820152606490fd5b62000259565b62461bcd60e51b815260048101859052601060248201526f496e76616c6964206d6574616461746160801b6044820152606490fd5b015190503880620001c3565b8a8a52858a208b94509190601f1984168b5b88828210620004125750508411620003f8575b505050811b018755620001d7565b015160001960f88460031b161c19169055388080620003ea565b8385015186558e97909501949384019301620003d7565b909192508a8a52858a208380860160051c82019288871062000474575b9186958e929594930160051c01915b82811062000465575050620001ae565b8c81558695508d910162000455565b9250819262000446565b634e487b7160e01b8a52602260045260248afd5b90607f169062000198565b634e487b7160e01b89526041600452602489fd5b0151905038806200016a565b8c8052888d208e94509190601f1984168e5b8b8282106200050a5750508411620004f0575b505050811b0189556200017e565b015160001960f88460031b161c19169055388080620004e2565b91929395968291958786015181550195019301908f9594939291620004cf565b9091508b8052878c208580850160051c8201928a861062000573575b918f91869594930160051c01915b8281106200056457505062000154565b8e81558594508f910162000554565b9250819262000546565b634e487b7160e01b8c52602260045260248cfd5b90607f16906200013f565b634e487b7160e01b600052604160045260246000fd5b600080fd5b8190620005c48462000618565b81520191019085906200009a565b60408051919082016001600160401b038111838210176200059c57604052565b6040519190601f01601f191682016001600160401b038111838210176200059c57604052565b51906001600160a01b0382168203620005b257565b6001600160401b0381116200059c5760051b60200190565b9080601f83011215620005b2578151906200066462000076836200062d565b9182938184526020808095019260051b820101928311620005b2578301905b82821062000692575050505090565b8151815290830190830162000683565b8051821015620006b75760209160051b010190565b634e487b7160e01b600052603260045260246000fdfe60406080815260049081361015610028575b5050361561001e57600080fd5b610026612754565b005b600091823560e01c908163010fdfd51461201d57816301ffc9a714611faf57816304b24e8514611f7857816306fdde0314611ead578163081812fc14611e8d57816308cdc2a814611e47578163095ea7b314611cd85781630b27ce3f14611caf5781630b97bc8614611c905781631249c58b14611c7b57816318d9479314611c5957816320a286d014611c3a57816323b872dd14611c0f5781632b057afa14611bb7578163306da04f14611b8e578163392f37e914611b655781634084728414611ad857816340c10f191461192c57816342842e0e146118dd57816343569ffb146118a657816349a7a26d1461187d5781634b9862d91461186157816353e52f09146118455781635c975abb1461181e5781636282eff5146117dd5781636352211e146117ac57816364e211c0146117745781636a6278421461160457816370a082311461156e578163715018a61461150e5781637696d9ff146114cd578163872d7e48146114965781638d6cc56d146114745781638da5cb5b1461144b57816395d89b41146113355781639769dc0e146112c4578163a035b1fe146112a5578163a22cb465146111d5578163afcb1af014610f31578163b6460e7c14610c1b578163b88d4fde14610b8f578163c09fd8ef14610b1b578163c31f5d6a14610a80578163c87b56dd1461098c578163de4318fc146108ed578163e985e9c51461089d578163e9d903b114610788578163eba4f3661461073e578163ed3437f814610721578163ed892aae146106e0578163ee379aef14610364578163f2fde38b14610298575063f81c8ec303610011573461029457816003193601126102945760209051620f42408152f35b5080fd5b905034610360576020366003190112610360576102b361205e565b6102bb61224c565b6001600160a01b0390811691821561030e575060065492826001600160601b0360a01b8516176006555192167f8be0079c531659141344cd1fd0a4f28419497f9722a3daafe3b4186f6b6457e0600084a3f35b608490602085519162461bcd60e51b8352820152602660248201527f4f776e61626c653a206e6577206f776e657220697320746865207a65726f206160448201526564647265737360d01b6064820152fd5b8280fd5b905034610360576103743661208a565b909161038860ff60065460a01c16156128d4565b610391836122f0565b6001600160a01b0391906103a89083163314612dc5565b8160095416908551926331a9108f60e11b845284828501526020938481602481875afa9081156106d657899161069c575b5081339116036106685785885287600e938486526103ff600a60018b8520015410612e05565b803b156102945781809160248b5180948193630852cd8d60e31b83528c8a8401525af1801561065e57610646575b508690528284528688206001015460095488516301e0a07d60e71b8152848101889052969192168587602481845afa96871561060c57600097610617575b5090856024928a519384809263b2c60dc960e01b825285898301525afa91821561060c576000926105da575b508760005284865284896000200154926104af612e62565b506104bc81848a85612ea7565b958960005280885260038b600020018360005288528a60002095875187558888015160018801558b8801516002880155606088019283516003890155608089019788518382015560a08a0151600582015560c08a01516006820155600861010060e08c019b8c51600785015501519101558b600052828a528c600020600a8210156105c557947f26c34af247e1ccf098f0cc4e380568ece925088468fc831769e1f757fa3ea02a9c9a989694928194926101009d9b99970101558960005280885260018d6000200161058e8154612909565b90558960005287525193519451958b51988952880152898701526060860152608085015260a084015260c083015260e0820152a151f35b603283634e487b7160e01b6000525260246000fd5b90918682813d8311610605575b6105f1818361220e565b810103126106025750519038610497565b80fd5b503d6105e7565b89513d6000823e3d90fd5b90968682813d831161063f575b61062e818361220e565b81010312610602575051958561046b565b503d610624565b61064f9061218e565b61065a57873861042d565b8780fd5b89513d84823e3d90fd5b865162461bcd60e51b8152808301859052600e60248201526d2737ba103137b23c9037bbb732b960911b6044820152606490fd5b90508481813d83116106cf575b6106b3818361220e565b810103126106cb575181811681036106cb57386103d9565b8880fd5b503d6106a9565b88513d8b823e3d90fd5b505034610294576020366003190112610294576106fb61205e565b61070361224c565b60018060a01b03166001600160601b0360a01b600b541617600b5551f35b505034610294578160031936011261029457602090516103e88152f35b905034610360576020366003190112610360576080928291358152600e6020522090815491600181015491600e600283015492015492815194855260208501528301526060820152f35b9050346103605761016036600319011261036057610120908160431936011261089957825191820182811067ffffffffffffffff8211176108845760089185918552604435845260208401906064358252858501906084358252606086019060a43582526080870160c435815260a088019260e435845260c089019461010435865260e08a019661012435885260038c6101008d019a610144358c5261083960018060a01b03600a54163314612f92565b87358152600e60205220018d60243590526020528b8d209a518b555160018b01555160028a015551600389015551908701555160058601555160068501555160078401555191015551f35b604182634e487b7160e01b6000525260246000fd5b8380fd5b5050346102945780600319360112610294576020916108ba61205e565b826108c3612074565b9260018060a01b03809316815260058652209116600052825260ff81600020541690519015158152f35b90503461036057610160366003190112610360573660431215610360578151610915816121d5565b61016481368211610988576024905b82821061097857505050600a9161094560018060a01b038454163314612f92565b80358552602090600e82528486200185925b84841061096357868651f35b60018382829351855501920193019290610957565b8135815260209182019101610924565b8580fd5b91905034610360576020918260031936011261089957600b54825163295d33a960e21b81528235928101929092528490829060249082906001600160a01b03165afa938415610a755780946109f5575b50506109f190519282849384528301906120d5565b0390f35b909193503d8082843e610a08818461220e565b82019183818403126102945780519067ffffffffffffffff8211610360570182601f8201121561029457805191610a3e83612230565b93610a4b8751958661220e565b83855285848401011161060257508291610a6d9185806109f1960191016120a0565b9290386109dc565b8251903d90823e3d90fd5b91905034610360576008816109f194610a983661208a565b90610aa1612e62565b508252600e60205260038383200190825260205220825193610ac2856121b8565b8154855260018201546020860152600282015484860152600382015460608601528101546080850152600581015460a0850152600681015460c0850152600781015460e08501520154610100830152519182918261212f565b90503461036057602036600319011261036057356001600160a01b0381169081900361036057610b4961224c565b4790600080516020612fd6833981519152610b80858080875187875af1610b6e61262c565b908651928392888452888401906120d5565b9560208301521515940390a351f35b90503461036057608036600319011261036057610baa61205e565b90610bb3612074565b916064359167ffffffffffffffff83116109885736602384011215610988578201359285610be085612230565b93610bed8751958661220e565b85855236602487830101116102945785610c18966024602093018388013785010152604435916123b6565b51f35b905034610360576020908160031936011261089957803591610c4560ff60065460a01c16156128d4565b610c4e836122f0565b6001600160a01b039290610c659084163314612dc5565b838652600e808352610c7f600a6001888a20015410612e05565b6009548651638096989d60e01b815233848201908152602081018890529095918591879184169082908c90829060400103925af1948515610f27578895610ef3575b508588528184528688206001015460095488516301e0a07d60e71b8152858101889052969192168587602481845afa96871561060c57600097610ec4575b5090856024928a519384809263b2c60dc960e01b8252858a8301525afa91821561060c57600092610e95575b50876000528386528389600020015492610d43612e62565b50610d5081848a85612ea7565b958960005285885260038b600020018360005288528a60002095875187558888015160018801558b8801516002880155606088019283516003890155608089019788518482015560a08a0151600582015560c08a01516006820155600861010060e08c019b8c51600785015501519101558b600052818a528c600020600a821015610e8057859184910101558a60005280895260018c60002001610df48154612909565b90558a600052885260028b60002001908154906001198211610e6b575060010190555193519451895198895295880152868801526060860152608085015260a084015260c083015260e08201527f26c34af247e1ccf098f0cc4e380568ece925088468fc831769e1f757fa3ea02a9061010090a151f35b601190634e487b7160e01b6000525260246000fd5b603284634e487b7160e01b6000525260246000fd5b90918682813d8311610ebd575b610eac818361220e565b810103126106025750519038610d2b565b503d610ea2565b90968682813d8311610eec575b610edb818361220e565b810103126106025750519585610cff565b503d610ed1565b9094508381813d8311610f20575b610f0b818361220e565b81010312610f1b57519338610cc1565b600080fd5b503d610f01565b87513d8a823e3d90fd5b90503461036057610f413661208a565b610f5660ff60069493945460a01c16156128d4565b610f5f836122f0565b6001600160a01b0390610f759082163314612dc5565b838652600e90602091808352600195600387898b20015411156111925760099283541689813b156106025789516318ecc45960e11b815233818a01908152602081018990529092839182908490829060400103925af1801561118857611175575b508089528184527fe3d7c65a819210a4131cc5090a9efe680115139f33a226180fd95dd75a8299666080838a8c2001548a8c20548b519185835288830152888c8301526060820152a18089528184526003888a2001858a5284526002888a20015492818a5282855287898b20018054801561116257600019019055818a52828552888a208951949088018b8a875b89600a841061114e57505050505061107b856121d5565b6101408a51611089816121d5565b3690375b81811061110c575050886101208401528852825283868820019087905b600a82106110f9575050506008926000949285926003888a2001918952528186882093818555840155816002840155816003840155820155826005820155826006820155826007820155015551f35b80518355918601919086019083016110aa565b600119811161113b57806111258a611136930187612e51565b516111308288612e51565b52612909565b61108d565b634e487b7160e01b8b526011885260248bfd5b829185548152019301910190918b90611064565b634e487b7160e01b8c526011895260248cfd5b6111819099919961218e565b9738610fd6565b89513d8c823e3d90fd5b875162461bcd60e51b8152808701859052601e60248201527f43616e6e6f742068617665206c657373207468616e203320626f6469657300006044820152606490fd5b9050346103605781600319360112610360576111ef61205e565b602435908115158092036112a1576001600160a01b03169133831461125e5750338452600560205282842082855260205282842060ff1981541660ff831617905582519081527f17307eab39ab6107e8899845ad3d59bd9653f200f220920489ca2b5937696c3160203392a351f35b606490602085519162461bcd60e51b8352820152601960248201527f4552433732313a20617070726f766520746f2063616c6c6572000000000000006044820152fd5b8480fd5b505034610294578160031936011261029457602090600d549051908152f35b50503461029457602036600319011261029457610c186112e261205e565b600a54611328906001600160a01b03906112ff9082161515612896565b61130e81600954161515612896565b61131d81600b54161515612896565b600c54161515612896565b61133061224c565b61292e565b8284346106025780600319360112610602578151918160019283549384811c91818616958615611441575b602096878510811461142e578899509688969785829a5291826000146114075750506001146113ac575b5050506109f1929161139d91038561220e565b519282849384528301906120d5565b91908693508083527fb10e2d527612073b26eecdfd717e6a320cf44b4afac2b0732d9fcbe2b7fa0cf65b8284106113ef575050508201018161139d6109f161138a565b8054848a0186015288955087949093019281016113d6565b60ff19168782015293151560051b8601909301935084925061139d91506109f1905061138a565b634e487b7160e01b835260228a52602483fd5b92607f1692611360565b50503461029457816003193601126102945760065490516001600160a01b039091168152602090f35b9050346103605760203660031901126103605761148f61224c565b35600d5551f35b505034610294576114a63661208a565b906114bc60018060a01b03600a54163314612f92565b8352600e6020526001828420015551f35b505034610294576020366003190112610294576114e861205e565b6114f061224c565b60018060a01b03166001600160601b0360a01b600a541617600a5551f35b50503461029457816003193601126102945761152861224c565b600680546001600160a01b0319811690915590519082906001600160a01b03167f8be0079c531659141344cd1fd0a4f28419497f9722a3daafe3b4186f6b6457e08284a3f35b83915034610294576020366003190112610294576001600160a01b0361159261205e565b169081156115af5760208480858581526003845220549051908152f35b608490602085519162461bcd60e51b8352820152602960248201527f4552433732313a2061646472657373207a65726f206973206e6f7420612076616044820152683634b21037bbb732b960b91b6064820152fd5b905060203660031901126103605761161a61205e565b600a5490916001600160a01b0391821615159061163682612896565b61167b836009541615159261164a84612896565b61167685600b5416151561165d81612896565b61167687600c5416966116768815159561167687612896565b612896565b61168d60ff60065460a01c16156128d4565b600754421061174357600d54340361171057508480809286519034905af190600080516020612fd68339815191526116dd6116c661262c565b92600c5416928651918291888352888301906120d5565b943460208301521515940390a3825b600181106116f957505051f35b61170b906117068361292e565b612909565b6116ec565b606490602086519162461bcd60e51b8352820152600d60248201526c496e76616c696420707269636560981b6044820152fd5b606490602086519162461bcd60e51b8352820152600b60248201526a139bdd081cdd185c9d195960aa1b6044820152fd5b82843461060257608036600319011261060257506117a16109f19260643590604435906024359035612ea7565b90519182918261212f565b82843461060257602036600319011261060257506117cc602092356122f0565b90516001600160a01b039091168152f35b505034610294576020366003190112610294576117f861205e565b61180061224c565b60018060a01b03166001600160601b0360a01b600c541617600c5551f35b50503461029457816003193601126102945760209060ff60065460a01c1690519015158152f35b5050346102945781600319360112610294576020905160028152f35b50503461029457816003193601126102945760209051600a8152f35b505034610294578160031936011261029457600a5490516001600160a01b039091168152602090f35b505034610294576020916118b93661208a565b908252600f845282822090825283528190205490516001600160a01b039091168152f35b838334610294576118ed366120fa565b908351926020840184811067ffffffffffffffff8211176119195785610c1896979850528684526123b6565b634e487b7160e01b875260418852602487fd5b9050816003193601126103605761194161205e565b600a54602435926001600160a01b039161195e9083161515612896565b61196d82600954161515612896565b61197c82600b54161515612896565b81600c54169061198d821515612896565b60058511611aad576119a760ff60065460a01c16156128d4565b6007544210611a7c57600d548560001904811186151516611a695785023403611a3657508580809287519034905af190600080516020612fd6833981519152611a086119f161262c565b92600c5416928751918291898352898301906120d5565b943460208301521515940390a3835b828110611a245750505051f35b611a31906117068361292e565b611a17565b606490602087519162461bcd60e51b8352820152600d60248201526c496e76616c696420707269636560981b6044820152fd5b634e487b7160e01b885260118252602488fd5b606490602087519162461bcd60e51b8352820152600b60248201526a139bdd081cdd185c9d195960aa1b6044820152fd5b606490602087519162461bcd60e51b835282015260056024820152644d6178203560d81b6044820152fd5b83833461029457602080600319360112610360578192915193611afa856121d5565b610140809536903780358352600e8252838320845194910183855b600a8210611b4f57505050611b29846121d5565b519291835b600a8210611b3a578585f35b82806001928651815201940191019092611b2e565b8254815260019283019291909101908401611b15565b505034610294578160031936011261029457600b5490516001600160a01b039091168152602090f35b50503461029457816003193601126102945760095490516001600160a01b039091168152602090f35b50503461029457606036600319011261029457611bd261205e565b611bda61224c565b6024358352600f60205281832060443584526020528183209060018060a01b03166001600160601b0360a01b82541617905551f35b50503461029457610c18611c22366120fa565b91611c35611c308433612451565b612354565b612519565b5050346102945781600319360112610294576020906008549051908152f35b90503461036057602036600319011261036057611c7461224c565b3560075551f35b50508160031936011261029457610c18612754565b5050346102945781600319360112610294576020906007549051908152f35b505034610294578160031936011261029457600c5490516001600160a01b039091168152602090f35b905034610360578160031936011261036057611cf261205e565b602435916001600160a01b03908180611d0a866122f0565b16931692808414611dfa57803314908115611ddb575b5015611d725783865260205283852080546001600160a01b03191683179055611d48836122f0565b169251927f8c5be1e5ebec7d5bd14f71427d1e84f3dd0314c0f7b2291e5b200ac8c7c3b9258585a4f35b608490602086519162461bcd60e51b8352820152603d60248201527f4552433732313a20617070726f76652063616c6c6572206973206e6f7420746f60448201527f6b656e206f776e6572206f7220617070726f76656420666f7220616c6c0000006064820152fd5b90508652600560205284862033875260205260ff858720541638611d20565b855162461bcd60e51b8152602081840152602160248201527f4552433732313a20617070726f76616c20746f2063757272656e74206f776e656044820152603960f91b6064820152608490fd5b905034610360576020366003190112610360573580151580910361036057611e6d61224c565b6006805460ff60a01b191660a09290921b60ff60a01b1691909117905551f35b82843461060257602036600319011261060257506117cc60209235612316565b82843461060257806003193601126106025781519181825492600184811c91818616958615611f6e575b602096878510811461142e578899509688969785829a529182600014611407575050600114611f13575050506109f1929161139d91038561220e565b91908693508280527f290decd9548b62a8d60345a988386fc84ba6bc95484008f6362f93160ef3e5635b828410611f56575050508201018161139d6109f161138a565b8054848a018601528895508794909301928101611f3d565b92607f1692611ed7565b50503461029457611f883661208a565b90611f9e60018060a01b03600a54163314612f92565b8352600e602052600e828420015551f35b90503461036057602036600319011261036057359063ffffffff60e01b821680920361036057602092506380ac58cd60e01b821491821561200c575b8215611ffb575b50519015158152f35b6301ffc9a760e01b14915038611ff2565b635b5e139f60e01b81149250611feb565b5050346102945760203660031901126102945761203861205e565b61204061224c565b60018060a01b03166001600160601b0360a01b600954161760095551f35b600435906001600160a01b0382168203610f1b57565b602435906001600160a01b0382168203610f1b57565b6040906003190112610f1b576004359060243590565b918091926000905b8282106120c05750116120b9575050565b6000910152565b915080602091830151818601520182916120a8565b906020916120ee815180928185528580860191016120a0565b601f01601f1916010190565b6060906003190112610f1b576001600160a01b03906004358281168103610f1b57916024359081168103610f1b579060443590565b919091610120810192805182526020810151602083015260408101516040830152606081015160608301526080810151608083015260a081015160a083015260c081015160c083015260e081015160e083015261010080910151910152565b67ffffffffffffffff81116121a257604052565b634e487b7160e01b600052604160045260246000fd5b610120810190811067ffffffffffffffff8211176121a257604052565b610140810190811067ffffffffffffffff8211176121a257604052565b6040810190811067ffffffffffffffff8211176121a257604052565b90601f8019910116810190811067ffffffffffffffff8211176121a257604052565b67ffffffffffffffff81116121a257601f01601f191660200190565b6006546001600160a01b0316330361226057565b606460405162461bcd60e51b815260206004820152602060248201527f4f776e61626c653a2063616c6c6572206973206e6f7420746865206f776e65726044820152fd5b156122ab57565b60405162461bcd60e51b815260206004820152601860248201527f4552433732313a20696e76616c696420746f6b656e20494400000000000000006044820152606490fd5b6000908152600260205260409020546001600160a01b03166123138115156122a4565b90565b600081815260026020526040902054612339906001600160a01b031615156122a4565b6000908152600460205260409020546001600160a01b031690565b1561235b57565b60405162461bcd60e51b815260206004820152602d60248201527f4552433732313a2063616c6c6572206973206e6f7420746f6b656e206f776e6560448201526c1c881bdc88185c1c1c9bdd9959609a1b6064820152608490fd5b906123da9392916123ca611c308433612451565b6123d5838383612519565b61265c565b156123e157565b60405162461bcd60e51b8152806123fa600482016123fe565b0390fd5b60809060208152603260208201527f4552433732313a207472616e7366657220746f206e6f6e20455243373231526560408201527131b2b4bb32b91034b6b83632b6b2b73a32b960711b60608201520190565b906001600160a01b038080612465846122f0565b16931691838314938415612498575b508315612482575b50505090565b61248e91929350612316565b161438808061247c565b909350600052600560205260406000208260005260205260ff604060002054169238612474565b156124c657565b60405162461bcd60e51b815260206004820152602560248201527f4552433732313a207472616e736665722066726f6d20696e636f72726563742060448201526437bbb732b960d91b6064820152608490fd5b9061254191612527846122f0565b6001600160a01b03939184169284929091831684146124bf565b169182156125db578161255e91612557866122f0565b16146124bf565b7fddf252ad1be2c89b69c2b068fc378daa952ba7f163c4a11628f55a4df523b3ef60008481526004602052604081206001600160601b0360a01b90818154169055838252600360205260408220600019815401905584825260408220600181540190558582526002602052846040832091825416179055604051a4565b60405162461bcd60e51b8152602060048201526024808201527f4552433732313a207472616e7366657220746f20746865207a65726f206164646044820152637265737360e01b6064820152608490fd5b3d15612657573d9061263d82612230565b9161264b604051938461220e565b82523d6000602084013e565b606090565b91926000929190813b1561274a576020916126b29185604051958680958194630a85bd0160e11b9b8c845233600485015260018060a01b03809516602485015260448401526080606484015260848301906120d5565b0393165af190829082612702575b50506126f4576126ce61262c565b805190816126ef5760405162461bcd60e51b8152806123fa600482016123fe565b602001fd5b6001600160e01b0319161490565b909192506020813d8211612742575b8161271e6020938361220e565b810103126102945751906001600160e01b03198216820361060257509038806126c0565b3d9150612711565b5050505050600190565b600a546001600160a01b039061276d9082161515612896565b61277c81600954161515612896565b61278b81600b54161515612896565b80600c541661279b811515612896565b6127ad60ff60065460a01c16156128d4565b600754421061286357600d54340361282e5760008080926040519034905af190600080516020612fd68339815191526128016127e761262c565b92600c5416926040519182916040835260408301906120d5565b943460208301521515940390a360005b6001811061281c5750565b612829906117063361292e565b612811565b60405162461bcd60e51b815260206004820152600d60248201526c496e76616c696420707269636560981b6044820152606490fd5b60405162461bcd60e51b815260206004820152600b60248201526a139bdd081cdd185c9d195960aa1b6044820152606490fd5b1561289d57565b60405162461bcd60e51b815260206004820152600f60248201526e139bdd081a5b9a5d1a585b1a5e9959608a1b6044820152606490fd5b156128db57565b60405162461bcd60e51b815260206004820152600660248201526514185d5cd95960d21b6044820152606490fd5b60001981146129185760010190565b634e487b7160e01b600052601160045260246000fd5b612939600854612909565b60088190556001600160a01b0382168015612d3557600082815260026020526040902054612973906001600160a01b031615155b15612d79565b600082815260026020526040902054612996906001600160a01b0316151561296d565b8060005260036020526040600020600181540190558160005260026020526040600020816001600160601b0360a01b82541617905560007fddf252ad1be2c89b69c2b068fc378daa952ba7f163c4a11628f55a4df523b3ef81604051a460005b60038110612a515750506008546040516020810190828252602081526040810181811067ffffffffffffffff8211176121a25760405251902090600052600e6020526040600020556008546000526003600160406000200155565b60098054600854604051638096989d60e01b81526001600160a01b03868116600483015260248201929092529293929160209183916044918391600091165af1908115612cc057600091612d03575b5060085492546040516301e0a07d60e71b81526004810183905293906001600160a01b0316602085602481845afa948515612cc057600095612ccc575b509060206024926040519384809263b2c60dc960e01b82528760048301525afa918215612cc057600092612c8c575b5080600052600e602052600e6040600020015494612b28612e62565b50612b3585848387612ea7565b9382600052600e6020526003604060002001816000526020526040600020855181556020860151600182015560408601516002820155606086015160038201556080860151600482015560a0860151600582015560c0860151600682015560e08601516007820155600861010087015191015582600052600e6020526040600020600a871015612c7657600487839201015582600052600e6020526001604060002001612be28154612909565b905582600052600e602052600260406000200194855494600119861161291857612c71987f26c34af247e1ccf098f0cc4e380568ece925088468fc831769e1f757fa3ea02a9760016101009801905560608301519160e0608085015194015194604051978852602088015260408701526060860152608085015260a084015260c083015260e0820152a1612909565b6129f6565b634e487b7160e01b600052603260045260246000fd5b9091506020813d602011612cb8575b81612ca86020938361220e565b81010312610f1b57519038612b0c565b3d9150612c9b565b6040513d6000823e3d90fd5b919094506020823d602011612cfb575b81612ce96020938361220e565b81010312610f1b579051936020612add565b3d9150612cdc565b90506020813d602011612d2d575b81612d1e6020938361220e565b81010312610f1b575138612aa0565b3d9150612d11565b606460405162461bcd60e51b815260206004820152602060248201527f4552433732313a206d696e7420746f20746865207a65726f20616464726573736044820152fd5b15612d8057565b60405162461bcd60e51b815260206004820152601c60248201527f4552433732313a20746f6b656e20616c7265616479206d696e746564000000006044820152606490fd5b15612dcc57565b60405162461bcd60e51b81526020600482015260116024820152702737ba10383937b13632b69037bbb732b960791b6044820152606490fd5b15612e0c57565b60405162461bcd60e51b815260206004820152601f60248201527f43616e6e6f742068617665206d6f7265207468616e20313020626f64696573006044820152606490fd5b90600a811015612c765760051b0190565b60405190612e6f826121b8565b816101006000918281528260208201528260408201528260608201528260808201528260a08201528260c08201528260e08201520152565b9291612eb1612e62565b50612eba612e62565b9382610100860152604092835190602082019081528585830152848252606082019082821067ffffffffffffffff8311176121a2576080908287528351902092019082825260208152612f0c816121f2565b51902060038551602081019083825260208152612f28816121f2565b519020069360001994808604600511811515166129185760050260021981116129185760020193846103e896048611851515166129185788526020880152620f424080920660608801520660808601526127108060a087015260c08601520260e084015282015290565b15612f9957565b60405162461bcd60e51b815260206004820152601460248201527313db9b1e4814dbdb1d995c8818d85b8818d85b1b60621b6044820152606490fdfeb08889abce443443404b2caf69aa3ccfb9ebfdf1ad2a634d06e11e24c1067938a2646970667358221220d1169ea919dd350ab5757dc56aa89ef9db584d4c74f2bf87e218adef19bea86064736f6c634300080f0033",
  "linkReferences": {},
  "deployedLinkReferences": {}
}