{
  "_format": "hh-sol-artifact-1",
  "contractName": "Groth16Verifier",
  "sourceName": "contracts/Game_8_50Verifier.sol",
  "abi": [
    {
      "inputs": [
        {
          "internalType": "uint256[2]",
          "name": "_pA",
          "type": "uint256[2]"
        },
        {
          "internalType": "uint256[2][2]",
          "name": "_pB",
          "type": "uint256[2][2]"
        },
        {
          "internalType": "uint256[2]",
          "name": "_pC",
          "type": "uint256[2]"
        },
        {
          "internalType": "uint256[80]",
          "name": "_pubSignals",
          "type": "uint256[80]"
        }
      ],
      "name": "verifyProof",
      "outputs": [
        {
          "internalType": "bool",
          "name": "",
          "type": "bool"
        }
      ],
      "stateMutability": "view",
      "type": "function"
    }
  ],
  "bytecode": "0x6080806040523461001657613682908161001c8239f35b600080fdfe6080604052600436101561001257600080fd5b6000803560e01c63c3fa27f21461002857600080fd5b3461044857610b00366003190112610448576100433661044b565b3660c411610444576100543661045d565b90610b04368111610440579161043c916104376020959461040060405261007d6101043561046b565b6100896101243561046b565b6100956101443561046b565b6100a16101643561046b565b6100ad6101843561046b565b6100b96101a43561046b565b6100c56101c43561046b565b6100d16101e43561046b565b6100dd6102043561046b565b6100e96102243561046b565b6100f56102443561046b565b6101016102643561046b565b61010d6102843561046b565b6101196102a43561046b565b6101256102c43561046b565b6101316102e43561046b565b61013d6103043561046b565b6101496103243561046b565b6101556103443561046b565b6101616103643561046b565b61016d6103843561046b565b6101796103a43561046b565b6101856103c43561046b565b6101916103e43561046b565b61019d6104043561046b565b6101a96104243561046b565b6101b56104443561046b565b6101c16104643561046b565b6101cd6104843561046b565b6101d96104a43561046b565b6101e56104c43561046b565b6101f16104e43561046b565b6101fd6105043561046b565b6102096105243561046b565b6102156105443561046b565b6102216105643561046b565b61022d6105843561046b565b6102396105a43561046b565b6102456105c43561046b565b6102516105e43561046b565b61025d6106043561046b565b6102696106243561046b565b6102756106443561046b565b6102816106643561046b565b61028d6106843561046b565b6102996106a43561046b565b6102a56106c43561046b565b6102b16106e43561046b565b6102bd6107043561046b565b6102c96107243561046b565b6102d56107443561046b565b6102e16107643561046b565b6102ed6107843561046b565b6102f96107a43561046b565b6103056107c43561046b565b6103116107e43561046b565b61031d6108043561046b565b6103296108243561046b565b6103356108443561046b565b6103416108643561046b565b61034d6108843561046b565b6103596108a43561046b565b6103656108c43561046b565b6103716108e43561046b565b61037d6109043561046b565b6103896109243561046b565b6103956109443561046b565b6103a16109643561046b565b6103ad6109843561046b565b6103b96109a43561046b565b6103c56109c43561046b565b6103d16109e43561046b565b6103dd610a043561046b565b6103e9610a243561046b565b6103f5610a443561046b565b610401610a643561046b565b61040d610a843561046b565b610419610aa43561046b565b610425610ac43561046b565b610431610ae43561046b565b3561046b565b612fbc565b8152f35b8380fd5b5080fd5b80fd5b9060049160441161045857565b600080fd5b9060c4916101041161045857565b7f30644e72e131a029b85045b68181585d97816a916871ca8d3c208c16d87cfd47111561049457565b6000805260206000f35b604051907f27de874e5759ff51ae298e4fc25f775df0247e136bcad5e6f46c7b02c92fb73282527f10581bc240a8e63c7d2ea29c13d76586a95a94277b265cd6a7b3f6455461c4336020830152604082019081526107cf196040836060816007855a01fa156104945760409260066080939284938451905260a05160608401525a01fa1561049457565b604051907f3022f70ce650162b6956ff227a74dce6d92390fbab72ed2c5b96bba2f995453f82527f0afec7b9bd96b09e0f72bce4e0e51faca3b4ae0de1859efeee3ff9bae88a7aa46020830152604082019081526107cf196040836060816007855a01fa156104945760409260066080939284938451905260a05160608401525a01fa1561049457565b604051907f1d5df59512f941ac559caebbc5cc2ac23ad2b15cd8ea93c38059206dc7ede27782527f0c6f1e2c3611658ce33dbdc3f406e1987639628d56c3eb1c7b3011657f4412ba6020830152604082019081526107cf196040836060816007855a01fa156104945760409260066080939284938451905260a05160608401525a01fa1561049457565b604051907f020849dce470ea6d98a28fadb1d9737b31f2958cc15e746919f6624b7e481ee682527f125aa25124967193d5e3dbe5dc33dc594f0fc0e7b516e4b5f629b68780a123706020830152604082019081526107cf196040836060816007855a01fa156104945760409260066080939284938451905260a05160608401525a01fa1561049457565b604051907f18603a0cdc30c9968cf356ee90ec79e616a595248dc3cf307fd3e9dfffc3cbb582527f1de09bdeb17c9040cf7b09d1bf81eeb66381a8440d47c8e9f7dec590a41a93206020830152604082019081526107cf196040836060816007855a01fa156104945760409260066080939284938451905260a05160608401525a01fa1561049457565b604051907f2452769ed6db99611af56ff468478675133793fcab92e886033697366f3fd75882527f1810d6216af8ad7676bb9d0aefb3edd6ff518601cd674037f3ca0b9abd83a9c46020830152604082019081526107cf196040836060816007855a01fa156104945760409260066080939284938451905260a05160608401525a01fa1561049457565b604051907f2f84b1b8f6a20511ffd4f02df619ff8a1b529d22300d91aae37687cea707017f82527f0bf74e3a15eb0ad6e1dacd4dc07869a09ba7eec832c814e78ecc461dd8a4a9496020830152604082019081526107cf196040836060816007855a01fa156104945760409260066080939284938451905260a05160608401525a01fa1561049457565b604051907f169c6debd017fa9984062dbf8f071f73a786b525006a3e009c1be80517f06e7082527f1e9344ccbd064f146600096d7b69b0b20f75efc6498b63288f8b1f96d25f5a956020830152604082019081526107cf196040836060816007855a01fa156104945760409260066080939284938451905260a05160608401525a01fa1561049457565b604051907f059a4d100cacb0eb276f6f3f0d1fa21c308660034d625f4327d2b4b6f279392082527f2c72f741fb0af2cb4a99f5a1c2d26e9ad67a1ca2b66bdb1035558fa2b0ffd3876020830152604082019081526107cf196040836060816007855a01fa156104945760409260066080939284938451905260a05160608401525a01fa1561049457565b604051907f18706edc91bf21fdda8bcfba46d02c6db6a147f528b078659cb78506a8f48c4282527f034d5ddd3e7250f87613d8d2c24d5735cf2aaf61363869c3a6164ee929c86ccc6020830152604082019081526107cf196040836060816007855a01fa156104945760409260066080939284938451905260a05160608401525a01fa1561049457565b604051907f2e3299fba278fc33c4756bd21b5269ec23d72ae3280a0ff1f43a6325d64fb84b82527f1cf4cb9c90f1900ecdeb061102cf3260657f5f7dbd8bb928a2122f2799336de66020830152604082019081526107cf196040836060816007855a01fa156104945760409260066080939284938451905260a05160608401525a01fa1561049457565b604051907f301a7da29bf02854d907b31358b7b588c20938bc7379b0c9738d20bb839b9db782527f03fecb516522181d8c140bdc181268ef4ecd30b12a9e1a7b95e70714b76a421b6020830152604082019081526107cf196040836060816007855a01fa156104945760409260066080939284938451905260a05160608401525a01fa1561049457565b604051907f05e0b71e8cc49cfb82d199cea8ac73336818605e517f5bac7f4607581a89c77382527f074fb666c766c7a72cc2d53228cf040e4b4641b26c045ad6df51c34973bc9a406020830152604082019081526107cf196040836060816007855a01fa156104945760409260066080939284938451905260a05160608401525a01fa1561049457565b604051907f045b4336a8f9567bf357b5b678426e897b6906b64465a2a92330d62578d1b43882527f27a32ecaeb22b9b00b89608d7c9bd5d960d4ef8d594c88ca01eb7a6a54d5e2c46020830152604082019081526107cf196040836060816007855a01fa156104945760409260066080939284938451905260a05160608401525a01fa1561049457565b604051907f2cd269e31783e93b20a4427f3df856092a20c9b3336ad5fc1dd6f6befa15294d82527f267df4fa1a2a5b3986a79856e40397e7b7c7b75ad5f8ee9b6f1a08da7ffae9936020830152604082019081526107cf196040836060816007855a01fa156104945760409260066080939284938451905260a05160608401525a01fa1561049457565b604051907f01941f2b1f3e8bc8589c31922c917600df627b48346c3ee0e2a82fb23a9fb61f82527f0c15b799bd063074ef1a26d5ab1ccc851e69d1bbfcb5bc5bae65bb8382f48c656020830152604082019081526107cf196040836060816007855a01fa156104945760409260066080939284938451905260a05160608401525a01fa1561049457565b604051907f17a0aaadc61363595462d4885bb7a2fde60cbfa14f3817546b9c5d26d354cd5f82527f274b062949910d751cf780b881d30f21de5fcf06624569ad946b60a50d066a696020830152604082019081526107cf196040836060816007855a01fa156104945760409260066080939284938451905260a05160608401525a01fa1561049457565b604051907f1d39af5383cc2eaf00e5fd3a096147920f2a7781b4047fc31f25f949fe664b1e82527f29d8142db9d93eafe8434b00ed4169dd7180e221ad5ac87c8fc97e93889498c46020830152604082019081526107cf196040836060816007855a01fa156104945760409260066080939284938451905260a05160608401525a01fa1561049457565b604051907f1ff8cc736053733105431b4d60a622ec0e0e45dd52a9d7cc7315a53e652293df82527f0aa2acf2c305fe1fe89e48ff1920706ba88cb46bada46ba2280815d5aec72ad36020830152604082019081526107cf196040836060816007855a01fa156104945760409260066080939284938451905260a05160608401525a01fa1561049457565b604051907f27fe1a5bbda0ee224fef462ca49bff7a1f855d809690a975679364483c00e7e082527f2894b10e7a75cd92b36412c87ad1f0df7076937910346ba4c31ca0fafdc1bf296020830152604082019081526107cf196040836060816007855a01fa156104945760409260066080939284938451905260a05160608401525a01fa1561049457565b604051907f1c89383927308b62f89fe11fab420dad1a80af40ff1f378b4ee50017ce5a4dde82527f2f027f45381987ca1a2a0cf00f8a675b26fe69fc0e457de04e4e7addad8f7ad06020830152604082019081526107cf196040836060816007855a01fa156104945760409260066080939284938451905260a05160608401525a01fa1561049457565b604051907f0ecafab6d15191c26ed6f8d55bec7237eca885b6d8d3226cb071e8a25d2ba2d582527f14e7d2aa4e70d3557f537262b91d40f2e76065a7d0f9f917f885a66a767b4fd76020830152604082019081526107cf196040836060816007855a01fa156104945760409260066080939284938451905260a05160608401525a01fa1561049457565b604051907f2be606539a67e93998fd0c403fb5e8b3e6af902c55ab0664d8149e8af70f109c82527f1dfb665cceea3e83a29e95d6fb621bddae0e9733db0ab90f469b4ecbd0e51d926020830152604082019081526107cf196040836060816007855a01fa156104945760409260066080939284938451905260a05160608401525a01fa1561049457565b604051907f140ab6f55ca33489cbd10aa4b0bd0a18e4466d99293bd1dd2f391aa5c02947af82527f1b1397292f73d96355a924049b66453f6622b2ffe441b6158c8cf317a5e4c0ad6020830152604082019081526107cf196040836060816007855a01fa156104945760409260066080939284938451905260a05160608401525a01fa1561049457565b604051907f213f44f18d77683b9d181e4890a9ce1984fc32754dd05621022d81b517fbf13b82527f24d933c46b140b1f6ce9de9a92e5bb42bdef4c7d88d45c17322758ca5dd93ea06020830152604082019081526107cf196040836060816007855a01fa156104945760409260066080939284938451905260a05160608401525a01fa1561049457565b604051907f0210d1c67e441c43dd02156bf06021ec9b749308df0ce0890236e2ad56a14b2a82527f057948562f4ef48ca857184a6c56250805f8e45dd57f0bdbd0463fac936225c06020830152604082019081526107cf196040836060816007855a01fa156104945760409260066080939284938451905260a05160608401525a01fa1561049457565b604051907f12a193e1e5b89d9825b252a4562c6e18f25917d60513d58fb4298621084a681d82527f03d86e39a4ee21846ccd1db40b80decf341a517907d31a338ff3cdca5ff7b5826020830152604082019081526107cf196040836060816007855a01fa156104945760409260066080939284938451905260a05160608401525a01fa1561049457565b604051907f101d75d45127084c2c0d67976b2c069e1475caa6df670fdaadfcf0f44a836f2182527f0f29177e021b6b0dffea78c71e83554e19319ea3917dd9703e4e7bda9dc89a9e6020830152604082019081526107cf196040836060816007855a01fa156104945760409260066080939284938451905260a05160608401525a01fa1561049457565b604051907ea8832860a3ca80941ca91f8b7601c19251a12f8bfe3741ea2d4c621b8c931682527f2fc3b63bcd8afb3ea876b0d61df9590344d1001312a6123a393d4aa702615c896020830152604082019081526107cf196040836060816007855a01fa156104945760409260066080939284938451905260a05160608401525a01fa1561049457565b604051907f2ed2502f8dc51d251691271a63651293f898000206d58c8437f37c22ed912e7582527f2f7730bc271540ecdff7d84a7462a7ef0fe031e02c748ac9f72d4b7607e96eae6020830152604082019081526107cf196040836060816007855a01fa156104945760409260066080939284938451905260a05160608401525a01fa1561049457565b604051907f08c6aac1e5eaaa93ca5ef8b403ffa8f84e151306897bfb6f7682fe36f51bf57e82527f259d257bcd5e2273f47eb3229137b7d88897a728508e5584d70b0194a61c4a2f6020830152604082019081526107cf196040836060816007855a01fa156104945760409260066080939284938451905260a05160608401525a01fa1561049457565b604051907f0bf2cd111340a8d2c1dde2aa02ad8ca249edf99bb3c09625730f7940ba03955982527f250501cacb99a31a9989dc1642d50c79ce2816020ae699e214a5078fa2572cd26020830152604082019081526107cf196040836060816007855a01fa156104945760409260066080939284938451905260a05160608401525a01fa1561049457565b604051907f1b9dc4c0477bd77e790f30bf0bb892b4fe09f06903de9565a3e2ad00424d316c82527f0f8f135b51c02a914c5bd8e7a484475e22362362976b5bf1cc01b212070af79e6020830152604082019081526107cf196040836060816007855a01fa156104945760409260066080939284938451905260a05160608401525a01fa1561049457565b604051907f1d1756ecf1040da20e5144a184ee382c94218f940e7941dd92988feceeaa1ded82527e1f3267ac265c4265822bbd26039807ae178892a1b065acac1cac24c2cf512d6020830152604082019081526107cf196040836060816007855a01fa156104945760409260066080939284938451905260a05160608401525a01fa1561049457565b604051907f02eb9e29588a6930554c1c1674af35ce4832558e8533cc2f141c606c1eacb5ed82527f12b47d4010c983bdd9fb1faa31c098115e76cc951d28f4b9fc7c6b859c05bc706020830152604082019081526107cf196040836060816007855a01fa156104945760409260066080939284938451905260a05160608401525a01fa1561049457565b604051907f26fbabbd2bd0b44695ad3d413c730c6221da0f5bfb447cba1ba5f6f58194e90982527f1d0cf6c8aa51274c7ea972481d1b3d9e65483ed2ba2d4b9d6f0e2ddf1fa9d28e6020830152604082019081526107cf196040836060816007855a01fa156104945760409260066080939284938451905260a05160608401525a01fa1561049457565b604051907f2243ef1cde4ffb17424d64788f67c31fd4d1e2850382c228c6ba139c7aaf5dea82527f25fb9ff787daf97614ec8cd2e9e3157a319c7f85ac99a7c8fd10d5515c65f07c6020830152604082019081526107cf196040836060816007855a01fa156104945760409260066080939284938451905260a05160608401525a01fa1561049457565b604051907f12e066f2900566430653f417edad7d58b4e4e544e8aa1fadae7b2c6e1eaf630882527f2b58bf87149f3dbca527de8ba33ec6a6f00d7218fd1bd00feb20610241554ff96020830152604082019081526107cf196040836060816007855a01fa156104945760409260066080939284938451905260a05160608401525a01fa1561049457565b604051907f0c30d228ad236b423d27fd93f4eb5a4d0c152f6223c9fe7b1d65aff43a1a93b382527f0eb1c87a1683f99043634853c5f0dc11595c3b724fa5b4e4f29222776811c3216020830152604082019081526107cf196040836060816007855a01fa156104945760409260066080939284938451905260a05160608401525a01fa1561049457565b604051907f0c6ee843b9aab3f573eda33309ca6547afbc0ef40019b42f62cfdb709841b88882527f0bc2e5f446fd9644415515b1e15d9501306d24bd581a94d2fb78620f2bd9b2966020830152604082019081526107cf196040836060816007855a01fa156104945760409260066080939284938451905260a05160608401525a01fa1561049457565b604051907f2b0d1f3fba24481cf0c34008bfcab8198e1af04f1d874a435651860efdd456dc82527f0d36fbbb5fb5ef5b8365ee897990e3dc855e2c11124b06311d19059dd9fb97fe6020830152604082019081526107cf196040836060816007855a01fa156104945760409260066080939284938451905260a05160608401525a01fa1561049457565b604051907f26c8d80328aefbba562f6be4573c029e368f7c5be02ff6f1285ff909715262f882527f25f8c8fbe863567a75038920680a141b7a2a4d3aabe4f373110a9e12ea4f223e6020830152604082019081526107cf196040836060816007855a01fa156104945760409260066080939284938451905260a05160608401525a01fa1561049457565b604051907f224b3b17e3079ee93dcf18c6705324f3b4b0804c2556abb745577615822b36db82527f142d085aa03cd6d8f9a0125608737b21fa6694c8ffe5b334ac9162b77cf47e596020830152604082019081526107cf196040836060816007855a01fa156104945760409260066080939284938451905260a05160608401525a01fa1561049457565b604051907f0a94308f83649f6930b366c4962222954837734c02fa206a6cfa7524e1cd13ed82527f031c3cd451fedeb20ce455148a9a3b1b7857d0e70e0bbd1d909aaa720593c2526020830152604082019081526107cf196040836060816007855a01fa156104945760409260066080939284938451905260a05160608401525a01fa1561049457565b604051907f0f977f363df43cb83691427ba4b59f3e2b5c78b8826907773e795ce213aadd2a82527f193951ef31cc0cc9066dc03bcf74da10b39f0425d63e7c58c467ac34a86c802b6020830152604082019081526107cf196040836060816007855a01fa156104945760409260066080939284938451905260a05160608401525a01fa1561049457565b604051907f0a31fa32f02ad4fd2a6d4ec90d67c90bcd08d5ec830bb237455a9095f2d2debe82527f2a9a63254ef4124107e336a0a31fd2d17c7cb2fc6dd38cba990ba5270a3cda926020830152604082019081526107cf196040836060816007855a01fa156104945760409260066080939284938451905260a05160608401525a01fa1561049457565b604051907f210e606348af75124e2281805f5ce92221f1619c8f686852f83a217b8562787e82527f1443507a83b14fafbcaa098bf69b5ae96f852098af96512b57be01f43750f0d66020830152604082019081526107cf196040836060816007855a01fa156104945760409260066080939284938451905260a05160608401525a01fa1561049457565b604051907f05e6e74092f91bba169f105d00d5f18b378303eb1296e699687187e3e3908e2282527f2b66bb63f83389bf0685262626c779749cb027ad551ec3b534ec0fa4996793c56020830152604082019081526107cf196040836060816007855a01fa156104945760409260066080939284938451905260a05160608401525a01fa1561049457565b604051907f1cb5df41ad786c508c43a306c181318c8d622baa1d1505dac66077e1203a7bb882527f260561200818c7f6300afd46cba2daad41634019fb6ab4db132c2a147be549b06020830152604082019081526107cf196040836060816007855a01fa156104945760409260066080939284938451905260a05160608401525a01fa1561049457565b604051907f14791793c946c283f6162377e0c5fa597e7a0fd3c1678093d8c0042a56d6fd9c82527f012d7f095ae50e0bbfb7f5431b81522f0d0dd0bf5adbd5bb817d332a3e241b996020830152604082019081526107cf196040836060816007855a01fa156104945760409260066080939284938451905260a05160608401525a01fa1561049457565b604051907f2958fea99f53c4eab73f671fc0b3463366d1b8ab8e469611a09e3e3b5344ec1a82527f2a21b5caf0f8d1af46683876d9a60d8dfa1dd422e77789a10ad0e39bee38657d6020830152604082019081526107cf196040836060816007855a01fa156104945760409260066080939284938451905260a05160608401525a01fa1561049457565b604051907f08effa0caf5c352d98d139a5bbc5f6ffd76bfef1fc554fd3dcaa508ed3b1fca382527f03c44fbe6f6aefbb0f40abb499f817488089d743082a76c9002f52401eafb9f46020830152604082019081526107cf196040836060816007855a01fa156104945760409260066080939284938451905260a05160608401525a01fa1561049457565b604051907f0f2e29172621121e00c458a26a6be158d8579e1b25df4cd9b6826c024283251082527f05e6afec42fdbb44e3be9bd017ce244b7ee5fa53c4a56ad82efd4d59979c79966020830152604082019081526107cf196040836060816007855a01fa156104945760409260066080939284938451905260a05160608401525a01fa1561049457565b604051907f1b85844c3c8a37d2829486780853ab8edaf27f76fec04424200304c78f9f640e82527f2c444c5def08662388a10edea71b06f4563ac0d223aa41055295626f5fcb2c0f6020830152604082019081526107cf196040836060816007855a01fa156104945760409260066080939284938451905260a05160608401525a01fa1561049457565b604051907f3048b444f891fa94a6592e1cc22308bb521cf9c4c88ec2e2279405b419ff0ab582527f2798d511116afbe2d85667ae25f217181f9187f541a5252aca9633fa6b0f06f56020830152604082019081526107cf196040836060816007855a01fa156104945760409260066080939284938451905260a05160608401525a01fa1561049457565b604051907f1a60af62669887ff75eebba250936fd1b10fd45425f62c61c4d02b5f1a94928a82527f0cc0a15037484909403b810f8d876d1e012508c240c87eb4247bb4b328f600cd6020830152604082019081526107cf196040836060816007855a01fa156104945760409260066080939284938451905260a05160608401525a01fa1561049457565b604051907f25925e681c0787c5ffcb4451cb40224d59a06985664805c11016ce20b4ecdb5882527f09dd307472aa35f6fd5ef74a514d992ae6260cc4408fe32d0485d9ce062ec61e6020830152604082019081526107cf196040836060816007855a01fa156104945760409260066080939284938451905260a05160608401525a01fa1561049457565b604051907f0fca04b969ce963caf5289662e822e9ee1c03b611f25976db9f88eff57685fae82527f0f0cd6ffe419b97cef292791d3b0f97bd56e5dd593f234a182b370b9812bef616020830152604082019081526107cf196040836060816007855a01fa156104945760409260066080939284938451905260a05160608401525a01fa1561049457565b604051907f19ab4fa240cc2abf5a7854b9f56485bc09e08f6ed2a053607feb051132138f3482527f19b3987a932d57d29e3f72cd3246544e6b1e3cbbd0bf865327b7df0ac60265e86020830152604082019081526107cf196040836060816007855a01fa156104945760409260066080939284938451905260a05160608401525a01fa1561049457565b604051907f05102fa45c67f88f1b83c68c30e639198127c011c8e72b75067647351f874e4082527f14f6399b092964fdd7513d6c1bd1c05eb8d8c4fb2dfb199cb819f89876b475936020830152604082019081526107cf196040836060816007855a01fa156104945760409260066080939284938451905260a05160608401525a01fa1561049457565b604051907f0be61f687da1428a6d2c9f54ff40ad87e8ec0ac9f5e8d61d878c67c1d2ffb15382527f0379904aaa89234cf6edaba187484a8c23cac5a814c637f9110c3dd91598c22c6020830152604082019081526107cf196040836060816007855a01fa156104945760409260066080939284938451905260a05160608401525a01fa1561049457565b604051907f08193c3fc0c0c5054da82739140b41f9aa91f78cf39efcde399cfc683ef7654382527f09c54ebba1349d83a067b6a67031fc070b0e827067f5716f0fa619c8130257186020830152604082019081526107cf196040836060816007855a01fa156104945760409260066080939284938451905260a05160608401525a01fa1561049457565b604051907f2a3ed889c1db09703efd691b0bb102a87c5de6ba99480093724c917bd60ec1be82527f187e31310710d600550141aacadf24425334174c5078c7a4cfe958ab551cc5836020830152604082019081526107cf196040836060816007855a01fa156104945760409260066080939284938451905260a05160608401525a01fa1561049457565b604051907f1f5b24f5233e33ee9b0f209774792b1702ae02c16909ec212a426fc705489e0082527f17e2dcb4dee8b4ffa1803b7a4f97ba093e3f9fdc920ee3094087b1df6bdfeef56020830152604082019081526107cf196040836060816007855a01fa156104945760409260066080939284938451905260a05160608401525a01fa1561049457565b604051907f29ebfaf1b4d4e9c245256470083edf06138b47e9ccce3fc8461de347240c21a382527f242f7131018bab391843f08a4f262be48ca766560e315c752dd30c593c161b3b6020830152604082019081526107cf196040836060816007855a01fa156104945760409260066080939284938451905260a05160608401525a01fa1561049457565b604051907f225ecf04fc0fd9f697fc379438b2a2a5af17c9cc78b65ec2dc1fa3d5d9c7279682527f2972c44a14ce4f6f859218674aed31ae4614c7a0203e2b64a936848a06ec225f6020830152604082019081526107cf196040836060816007855a01fa156104945760409260066080939284938451905260a05160608401525a01fa1561049457565b604051907f2c2efd6c8e9232bf307da34cd604a18b678d8e21c4492e81ee36782356bc6a2b82527f28fdb86200434873d1d2d1caaa38430f8de924a21405c6955feef835ce49d6346020830152604082019081526107cf196040836060816007855a01fa156104945760409260066080939284938451905260a05160608401525a01fa1561049457565b604051907f0d6b18f47a51824f717bb514dd5d6f12aca2cac323acae302e687de0dc26b7b982527f29d225fb8f985eb6a52a3a604ef27fe3224d2c8f0f4be5f2d18829e598655ec56020830152604082019081526107cf196040836060816007855a01fa156104945760409260066080939284938451905260a05160608401525a01fa1561049457565b604051907f24e1028ff647c4310a9c0bb57bf8c950a963f3f86e6857b9063c74b6c432bb4682527f106d823ba8ffed7a99b606e84de50a0bb477a0e5e35306dd6f958b57defae60e6020830152604082019081526107cf196040836060816007855a01fa156104945760409260066080939284938451905260a05160608401525a01fa1561049457565b604051907f25cf4d6c38f10ff29ef7f49723cc4abc4001c7cd2f31c62177471032c04e3d2682527f050f2078930d0ff54eccd086d7634cf671ce9fa634f59edca7ac5e5c48bd27f06020830152604082019081526107cf196040836060816007855a01fa156104945760409260066080939284938451905260a05160608401525a01fa1561049457565b604051907f1a84f4a92975eb258c4a124608eaebaf864073a879abc92e29f5c5d67d3606d882527f04a490e42a15266fd6611d75c3a3f4bf62ef8ef2e6095fe5d5acb5d7d713cb6d6020830152604082019081526107cf196040836060816007855a01fa156104945760409260066080939284938451905260a05160608401525a01fa1561049457565b604051907f123f507954cee3512212effaa75746d9cde097b153020caa6c4df16a47197b3582527f038a63a7c27d892d1136faa01e0672207b46e059a1785ff87f0f97c1101995376020830152604082019081526107cf196040836060816007855a01fa156104945760409260066080939284938451905260a05160608401525a01fa1561049457565b604051907f1b3c3225fe96d301285a08480a5fc1c511895e66ef3cd4512421cc591b8073c182527f16dba8b87fb4fd1605f7e8b932030735adae7a641f2f98067e7323f7c5c7ef076020830152604082019081526107cf196040836060816007855a01fa156104945760409260066080939284938451905260a05160608401525a01fa1561049457565b604051907f143f33bfb0c0ca4bbff00a6716904db6665a3d44e7883c0d476dd676359fd97682527f100a119aa911404701795e075307dcf6492a28b98bf027145e89e3149f3985e56020830152604082019081526107cf196040836060816007855a01fa156104945760409260066080939284938451905260a05160608401525a01fa1561049457565b604051907f170439aa363045de287a2f0b14194d0b647edcf333943d1cb7f0bd0dd17bfddb82527f2d577c405b859f720c3ed1aed4a95e3955f46786bb1a9bdc03a7eb0c7a8ea8756020830152604082019081526107cf196040836060816007855a01fa156104945760409260066080939284938451905260a05160608401525a01fa1561049457565b604051907f2f4816b19c99afddd08630841312b79cb75674913b51705892fcd119e7d5be1582527f0bce82b95e15756fcadebc4ddf09aa51545976066e134910366a8857171ddc776020830152604082019081526107cf196040836060816007855a01fa156104945760409260066080939284938451905260a05160608401525a01fa1561049457565b604051907f0c170c44b3f6155c8737a729ea75aebcd9da6bc21cff3b1c850023bb8751753382527f136e9b8e2864f20fa613846992e95b3f9f2fa38e11a75a86f1632eaed5562d6e6020830152604082019081526107cf196040836060816007855a01fa156104945760409260066080939284938451905260a05160608401525a01fa1561049457565b604051907f13e4c69a4bedecd819c73f439b23185a9de664126c5653ea67b9d9febf4a764d82527f0c80da3f7abd1d3ff3de851bbe323b71071ce4f4395466b960d7252d16bf88b66020830152604082019081526107cf196040836060816007855a01fa156104945760409260066080939284938451905260a05160608401525a01fa1561049457565b604051907f25959ef3aedbf43350a826a1603c0f7780c071b1e35e29a96df1ee9f551a6a6182527f130a7c54a733ec8436bc160c257754f16eb702db091af1ed25041f57486ae1256020830152604082019081526107cf196040836060816007855a01fa156104945760409260066080939284938451905260a05160608401525a01fa1561049457565b604051907f194536131a417e4dc59916ad440a6d6a608f26ec0e24b8995da9122121b6206582527f1434c350686109bf98f49c82a893f8ded8a56659a236bf2d557586dfdf354b7d6020830152604082019081526107cf196040836060816007855a01fa156104945760409260066080939284938451905260a05160608401525a01fa1561049457565b6020907f090ab2a284062d430ce49b5450c7a008d0cddab583d7d677ba7b8bcd60e375ea6080527f132639f9ec8d724b4edecb06b5a2d5a974937197a4afd3f106cb1070ba7ca75360a0526130136101043561049e565b61301f61012435610528565b61302b610144356105b2565b6130376101643561063c565b613043610184356106c6565b61304f6101a435610750565b61305b6101c4356107da565b6130676101e435610864565b613073610204356108ee565b61307f61022435610978565b61308b61024435610a02565b61309761026435610a8c565b6130a361028435610b16565b6130af6102a435610ba0565b6130bb6102c435610c2a565b6130c76102e435610cb4565b6130d361030435610d3e565b6130df61032435610dc8565b6130eb61034435610e52565b6130f761036435610edc565b61310361038435610f66565b61310f6103a435610ff0565b61311b6103c43561107a565b6131276103e435611104565b6131336104043561118e565b61313f61042435611218565b61314b610444356112a2565b6131576104643561132c565b613163610484356113b6565b61316f6104a43561143f565b61317b6104c4356114c9565b6131876104e435611553565b613193610504356115dd565b61319f61052435611667565b6131ab610544356116f0565b6131b76105643561177a565b6131c361058435611804565b6131cf6105a43561188e565b6131db6105c435611918565b6131e76105e4356119a2565b6131f361060435611a2c565b6131ff61062435611ab6565b61320b61064435611b40565b61321761066435611bca565b61322361068435611c54565b61322f6106a435611cde565b61323b6106c435611d68565b6132476106e435611df2565b61325361070435611e7c565b61325f61072435611f06565b61326b61074435611f90565b6132776107643561201a565b613283610784356120a4565b61328f6107a43561212e565b61329b6107c4356121b8565b6132a76107e435612242565b6132b3610804356122cc565b6132bf61082435612356565b6132cb610844356123e0565b6132d76108643561246a565b6132e3610884356124f4565b6132ef6108a43561257e565b6132fb6108c435612608565b6133076108e435612692565b6133136109043561271c565b61331f610924356127a6565b61332b61094435612830565b613337610964356128ba565b61334361098435612944565b61334f6109a4356129ce565b61335b6109c435612a58565b6133676109e435612ae2565b613373610a0435612b6c565b61337f610a2435612bf6565b61338b610a4435612c80565b613397610a6435612d0a565b6133a3610a8435612d94565b6133af610aa435612e1e565b6133bb610ac435612ea8565b6133c7610ae435612f32565b61010092818492358352837f30644e72e131a029b85045b68181585d97816a916871ca8d3c208c16d87cfd479101358103066101205260443561014052606435610160526084356101805260a4356101a0527f2d4d9aa7e302d9df41749d5507949d05dbea33fbb16c643b22f599a2be6df2e26101c0527f14bedd503c37ceb061d8ec60209fe345ce89830a19230301f076caff004d19266101e0527f0967032fcbf776d1afc985f88877f182d38480a653f2decaa9794cbc3bf3060c610200527f0e187847ad4c798374d0d6732bf501847dd68bc0e071241e0213bc7fc13db7ab610220527f304cfbd1e08a704a99f5e847d93f8c3caafddec46b7a0d379da69a4d112346a7610240527f1739c1b1a457a8c7313123d24d2f9192f896b7c63eea05a9d57f06547ad0cec8610260526080516102805260a0516102a0527f198e9393920d483a7260bfb731fb5d25f1aa493335a9e71297e485b7aef312c26102c0527f1800deef121f1e76426a00665e5c4479674322d4f75edadd46debd5cd992f6ed6102e05282610300917f090689d0585ff075ec9e99ad690c3395bc4b313370b38ef355acdadcd122975b83527f12c85ea5db8c6deb4aab71808dcb408fe3d1e7690c43d37b4ce6cc0166fa7daa610320528035610340520135610360527f2964c2b15dc8c8a4c674f6742604c821f27c481bf2654d92c15aefb4ecf71d76610380527f035b0c53ca0bb4a8765d21dde89b7be6db9840f27093ee3241d76a808718bc3a6103a0527f108d7eb576fa20e89302c0355414d78f4e9b11e1c944b4cecd44ab8616ea506f6103c0527f1daf1fb4f793fadb87b47356bb96616cad99345068a3c2486b84641f2e136e666103e0528160086107cf195a01fa9051169056fea264697066735822122008611d5a8e606a4a6d23c182e3589cb719415bf0fcf713c1e0432ec5423acb4e64736f6c634300080f0033",
  "linkReferences": {},
  "deployedLinkReferences": {}
}