{
  "_format": "hh-sol-artifact-1",
  "contractName": "Dust",
  "sourceName": "contracts/Dust.sol",
  "abi": [
    {
      "inputs": [
        {
          "internalType": "address payable",
          "name": "problems_",
          "type": "address"
        },
        {
          "internalType": "address",
          "name": "bodies_",
          "type": "address"
        }
      ],
      "stateMutability": "nonpayable",
      "type": "constructor"
    },
    {
      "anonymous": false,
      "inputs": [
        {
          "indexed": true,
          "internalType": "address",
          "name": "owner",
          "type": "address"
        },
        {
          "indexed": true,
          "internalType": "address",
          "name": "spender",
          "type": "address"
        },
        {
          "indexed": false,
          "internalType": "uint256",
          "name": "value",
          "type": "uint256"
        }
      ],
      "name": "Approval",
      "type": "event"
    },
    {
      "anonymous": false,
      "inputs": [
        {
          "indexed": true,
          "internalType": "address",
          "name": "previousOwner",
          "type": "address"
        },
        {
          "indexed": true,
          "internalType": "address",
          "name": "newOwner",
          "type": "address"
        }
      ],
      "name": "OwnershipTransferred",
      "type": "event"
    },
    {
      "anonymous": false,
      "inputs": [
        {
          "indexed": true,
          "internalType": "address",
          "name": "from",
          "type": "address"
        },
        {
          "indexed": true,
          "internalType": "address",
          "name": "to",
          "type": "address"
        },
        {
          "indexed": false,
          "internalType": "uint256",
          "name": "value",
          "type": "uint256"
        }
      ],
      "name": "Transfer",
      "type": "event"
    },
    {
      "inputs": [
        {
          "internalType": "address",
          "name": "owner",
          "type": "address"
        },
        {
          "internalType": "address",
          "name": "spender",
          "type": "address"
        }
      ],
      "name": "allowance",
      "outputs": [
        {
          "internalType": "uint256",
          "name": "",
          "type": "uint256"
        }
      ],
      "stateMutability": "view",
      "type": "function"
    },
    {
      "inputs": [
        {
          "internalType": "address",
          "name": "spender",
          "type": "address"
        },
        {
          "internalType": "uint256",
          "name": "amount",
          "type": "uint256"
        }
      ],
      "name": "approve",
      "outputs": [
        {
          "internalType": "bool",
          "name": "",
          "type": "bool"
        }
      ],
      "stateMutability": "nonpayable",
      "type": "function"
    },
    {
      "inputs": [
        {
          "internalType": "address",
          "name": "account",
          "type": "address"
        }
      ],
      "name": "balanceOf",
      "outputs": [
        {
          "internalType": "uint256",
          "name": "",
          "type": "uint256"
        }
      ],
      "stateMutability": "view",
      "type": "function"
    },
    {
      "inputs": [],
      "name": "bodies",
      "outputs": [
        {
          "internalType": "address",
          "name": "",
          "type": "address"
        }
      ],
      "stateMutability": "view",
      "type": "function"
    },
    {
      "inputs": [
        {
          "internalType": "address",
          "name": "from",
          "type": "address"
        },
        {
          "internalType": "uint256",
          "name": "amount",
          "type": "uint256"
        }
      ],
      "name": "burn",
      "outputs": [],
      "stateMutability": "nonpayable",
      "type": "function"
    },
    {
      "inputs": [],
      "name": "decimals",
      "outputs": [
        {
          "internalType": "uint8",
          "name": "",
          "type": "uint8"
        }
      ],
      "stateMutability": "view",
      "type": "function"
    },
    {
      "inputs": [
        {
          "internalType": "address",
          "name": "spender",
          "type": "address"
        },
        {
          "internalType": "uint256",
          "name": "subtractedValue",
          "type": "uint256"
        }
      ],
      "name": "decreaseAllowance",
      "outputs": [
        {
          "internalType": "bool",
          "name": "",
          "type": "bool"
        }
      ],
      "stateMutability": "nonpayable",
      "type": "function"
    },
    {
      "inputs": [
        {
          "internalType": "address",
          "name": "spender",
          "type": "address"
        },
        {
          "internalType": "uint256",
          "name": "addedValue",
          "type": "uint256"
        }
      ],
      "name": "increaseAllowance",
      "outputs": [
        {
          "internalType": "bool",
          "name": "",
          "type": "bool"
        }
      ],
      "stateMutability": "nonpayable",
      "type": "function"
    },
    {
      "inputs": [
        {
          "internalType": "address",
          "name": "to",
          "type": "address"
        },
        {
          "internalType": "uint256",
          "name": "amount",
          "type": "uint256"
        }
      ],
      "name": "mint",
      "outputs": [],
      "stateMutability": "nonpayable",
      "type": "function"
    },
    {
      "inputs": [],
      "name": "name",
      "outputs": [
        {
          "internalType": "string",
          "name": "",
          "type": "string"
        }
      ],
      "stateMutability": "view",
      "type": "function"
    },
    {
      "inputs": [],
      "name": "owner",
      "outputs": [
        {
          "internalType": "address",
          "name": "",
          "type": "address"
        }
      ],
      "stateMutability": "view",
      "type": "function"
    },
    {
      "inputs": [],
      "name": "problems",
      "outputs": [
        {
          "internalType": "address payable",
          "name": "",
          "type": "address"
        }
      ],
      "stateMutability": "view",
      "type": "function"
    },
    {
      "inputs": [],
      "name": "renounceOwnership",
      "outputs": [],
      "stateMutability": "nonpayable",
      "type": "function"
    },
    {
      "inputs": [],
      "name": "solver",
      "outputs": [
        {
          "internalType": "address",
          "name": "",
          "type": "address"
        }
      ],
      "stateMutability": "view",
      "type": "function"
    },
    {
      "inputs": [],
      "name": "symbol",
      "outputs": [
        {
          "internalType": "string",
          "name": "",
          "type": "string"
        }
      ],
      "stateMutability": "view",
      "type": "function"
    },
    {
      "inputs": [],
      "name": "totalSupply",
      "outputs": [
        {
          "internalType": "uint256",
          "name": "",
          "type": "uint256"
        }
      ],
      "stateMutability": "view",
      "type": "function"
    },
    {
      "inputs": [
        {
          "internalType": "address",
          "name": "to",
          "type": "address"
        },
        {
          "internalType": "uint256",
          "name": "amount",
          "type": "uint256"
        }
      ],
      "name": "transfer",
      "outputs": [
        {
          "internalType": "bool",
          "name": "",
          "type": "bool"
        }
      ],
      "stateMutability": "nonpayable",
      "type": "function"
    },
    {
      "inputs": [
        {
          "internalType": "address",
          "name": "from",
          "type": "address"
        },
        {
          "internalType": "address",
          "name": "to",
          "type": "address"
        },
        {
          "internalType": "uint256",
          "name": "amount",
          "type": "uint256"
        }
      ],
      "name": "transferFrom",
      "outputs": [
        {
          "internalType": "bool",
          "name": "",
          "type": "bool"
        }
      ],
      "stateMutability": "nonpayable",
      "type": "function"
    },
    {
      "inputs": [
        {
          "internalType": "address",
          "name": "newOwner",
          "type": "address"
        }
      ],
      "name": "transferOwnership",
      "outputs": [],
      "stateMutability": "nonpayable",
      "type": "function"
    },
    {
      "inputs": [
        {
          "internalType": "address",
          "name": "bodies_",
          "type": "address"
        }
      ],
      "name": "updateBodiesAddress",
      "outputs": [],
      "stateMutability": "nonpayable",
      "type": "function"
    },
    {
      "inputs": [
        {
          "internalType": "address payable",
          "name": "problems_",
          "type": "address"
        }
      ],
      "name": "updateProblemsAddress",
      "outputs": [],
      "stateMutability": "nonpayable",
      "type": "function"
    },
    {
      "inputs": [
        {
          "internalType": "address",
          "name": "solver_",
          "type": "address"
        }
      ],
      "name": "updateSolverAddress",
      "outputs": [],
      "stateMutability": "nonpayable",
      "type": "function"
    }
  ],
  "bytecode": "0x608034620003ad576001600160401b03601f19601f620012db3881900382810184168601919085831187841017620003b2578087926040948552833981010312620003ad5783516001600160a01b03938482169391849003620003ad5760208096015195858716809703620003ad5762000078620003c8565b60049485825263111d5cdd60e21b8383015262000094620003c8565b86815263544f434b60e01b84820152825193858511620002b3576003948554946001958681811c91168015620003a2575b848210146200038d5790818684931162000337575b508390868311600114620002d457600092620002c8575b505060001982881b1c191690851b1785555b8151958611620002b35787548481811c91168015620002a8575b82821014620002935783811162000248575b5080928611600114620001dc575084955090849291600095620001d0575b50501b92600019911b1c19161790555b60055460018060a01b03199233848316176005553391167f8be0079c531659141344cd1fd0a4f28419497f9722a3daafe3b4186f6b6457e06000604051a3620001a5620003e8565b816007541617600755620001b8620003e8565b6008541617600855604051610e999081620004428239f35b0151935038806200014d565b939295859081168860005285600020956000905b898383106200022d575050501062000212575b50505050811b0190556200015d565b01519060f884600019921b161c191690553880808062000203565b858701518955909701969485019488935090810190620001f0565b88600052816000208480890160051c820192848a1062000289575b0160051c019085905b8281106200027c5750506200012f565b600081550185906200026c565b9250819262000263565b602289634e487b7160e01b6000525260246000fd5b90607f16906200011d565b604188634e487b7160e01b6000525260246000fd5b015190503880620000f1565b908a8894169189600052856000209260005b8782821062000320575050841162000307575b505050811b01855562000103565b0151600019838a1b60f8161c19169055388080620002f9565b8385015186558b97909501949384019301620002e6565b90915087600052836000208680850160051c82019286861062000383575b918991869594930160051c01915b82811062000373575050620000da565b6000815585945089910162000363565b9250819262000355565b60228b634e487b7160e01b6000525260246000fd5b90607f1690620000c5565b600080fd5b634e487b7160e01b600052604160045260246000fd5b60408051919082016001600160401b03811183821017620003b257604052565b6005546001600160a01b03163303620003fd57565b606460405162461bcd60e51b815260206004820152602060248201527f4f776e61626c653a2063616c6c6572206973206e6f7420746865206f776e65726044820152fdfe6040608081526004908136101561001557600080fd5b600091823560e01c908163010fdfd514610a5c57816306fdde0314610982578163087c32e61461093e578163095ea7b31461091457816318160ddd146108f557816323b872dd1461083d578163306da04f14610814578163313ce567146107f857816339509351146107bc57816340c10f19146106b857816349a7a26d1461068f57816370a0823114610658578163715018a6146105f85781637696d9ff146105b75781638da5cb5b1461058e57816395d89b411461046f5781639dc29fac14610308578163a457c2d714610271578163a9059cbb14610240578163dd62ed3e1461020b578163f2fde38b14610140575063f9df988f1461011557600080fd5b3461013c578160031936011261013c5760075490516001600160a01b039091168152602090f35b5080fd5b9050346102075760203660031901126102075761015b610a9d565b610163610b25565b6001600160a01b039081169182156101b5575060055492826001600160601b0360a01b8516176005555192167f8be0079c531659141344cd1fd0a4f28419497f9722a3daafe3b4186f6b6457e08484a3f35b608490602085519162461bcd60e51b8352820152602660248201527f4f776e61626c653a206e6577206f776e657220697320746865207a65726f206160448201526564647265737360d01b6064820152fd5b8280fd5b50503461013c578060031936011261013c5760209061023961022b610a9d565b610233610ab8565b90610e0f565b9051908152f35b50503461013c578060031936011261013c5760209061026a610260610a9d565b6024359033610b9f565b5160018152f35b905082346103055782600319360112610305575061028d610a9d565b906024359061029c8333610e0f565b908282106102b45760208561026a8585038733610d0d565b608490602086519162461bcd60e51b8352820152602560248201527f45524332303a2064656372656173656420616c6c6f77616e63652062656c6f77604482015264207a65726f60d81b6064820152fd5b80fd5b905034610207578160031936011261020757610322610a9d565b600854602435916001600160a01b03918216330361043557169182156103e85782855284602052838520549082821061039a575060208284937fddf252ad1be2c89b69c2b068fc378daa952ba7f163c4a11628f55a4df523b3ef9388968752868452038686205580600254036002558551908152a351f35b608490602086519162461bcd60e51b8352820152602260248201527f45524332303a206275726e20616d6f756e7420657863656564732062616c616e604482015261636560f01b6064820152fd5b608490602085519162461bcd60e51b8352820152602160248201527f45524332303a206275726e2066726f6d20746865207a65726f206164647265736044820152607360f81b6064820152fd5b845162461bcd60e51b8152602081860152601460248201527313db9b1e48109bd91a595cc818d85b8818d85b1b60621b6044820152606490fd5b83833461013c578160031936011261013c57805190828454600181811c90808316928315610584575b6020938484108114610571578388529081156105555750600114610500575b505050829003601f01601f191682019267ffffffffffffffff8411838510176104ed57508291826104e9925282610ace565b0390f35b634e487b7160e01b815260418552602490fd5b8787529192508591837f8a35acfbc15ff81a39ae7d344fd709f28e8600b4aa8c65c6b64bfe7fe36bd19b5b83851061054157505050508301018580806104b7565b80548886018301529301928490820161052b565b60ff1916878501525050151560051b84010190508580806104b7565b634e487b7160e01b895260228a52602489fd5b91607f1691610498565b50503461013c578160031936011261013c5760055490516001600160a01b039091168152602090f35b50503461013c57602036600319011261013c576105d2610a9d565b6105da610b25565b60018060a01b03166001600160601b0360a01b600654161760065551f35b50503461013c578160031936011261013c57610612610b25565b600580546001600160a01b0319811690915590519082906001600160a01b03167f8be0079c531659141344cd1fd0a4f28419497f9722a3daafe3b4186f6b6457e08284a3f35b50503461013c57602036600319011261013c5760209181906001600160a01b03610680610a9d565b16815280845220549051908152f35b50503461013c578160031936011261013c5760065490516001600160a01b039091168152602090f35b9050346102075781600319360112610207576106d2610a9d565b600654602435916001600160a01b039182163303610782571691821561073f57507fddf252ad1be2c89b69c2b068fc378daa952ba7f163c4a11628f55a4df523b3ef6020826107248794600254610b7d565b6002558484528382528584208181540190558551908152a351f35b606490602085519162461bcd60e51b8352820152601f60248201527f45524332303a206d696e7420746f20746865207a65726f2061646472657373006044820152fd5b845162461bcd60e51b8152602081860152601460248201527313db9b1e4814dbdb1d995c8818d85b8818d85b1b60621b6044820152606490fd5b50503461013c578060031936011261013c5760209061026a6107dc610a9d565b6107f16024356107ec8333610e0f565b610b7d565b9033610d0d565b50503461013c578160031936011261013c576020905160128152f35b50503461013c578160031936011261013c5760085490516001600160a01b039091168152602090f35b90508234610305576060366003190112610305575061085a610a9d565b610862610ab8565b90604435926108713383610e0f565b9060018201610889575b60208661026a878787610b9f565b8482106108b257509183916108a76020969561026a95033383610d0d565b91939481935061087b565b606490602087519162461bcd60e51b8352820152601d60248201527f45524332303a20696e73756666696369656e7420616c6c6f77616e63650000006044820152fd5b50503461013c578160031936011261013c576020906002549051908152f35b50503461013c578060031936011261013c5760209061026a610934610a9d565b6024359033610d0d565b90503461020757602036600319011261020757356001600160a01b038116908190036102075761096c610b25565b6001600160601b0360a01b600754161760075551f35b83833461013c578160031936011261013c5780519082600354600181811c90808316928315610a52575b60209384841081146105715783885290811561055557506001146109fc57505050829003601f01601f191682019267ffffffffffffffff8411838510176104ed57508291826104e9925282610ace565b600387529192508591837fc2575a0e9e593c00f959f8c92f12db2869c3395a3b0502d05e2516446f71f85b5b838510610a3e57505050508301018580806104b7565b805488860183015293019284908201610a28565b91607f16916109ac565b50503461013c57602036600319011261013c57610a77610a9d565b610a7f610b25565b60018060a01b03166001600160601b0360a01b600854161760085551f35b600435906001600160a01b0382168203610ab357565b600080fd5b602435906001600160a01b0382168203610ab357565b919091602080825283519081818401526000945b828610610b0f575050806040939411610b02575b601f01601f1916010190565b6000838284010152610af6565b8581018201518487016040015294810194610ae2565b6005546001600160a01b03163303610b3957565b606460405162461bcd60e51b815260206004820152602060248201527f4f776e61626c653a2063616c6c6572206973206e6f7420746865206f776e65726044820152fd5b81198111610b89570190565b634e487b7160e01b600052601160045260246000fd5b6001600160a01b03908116918215610cba5716918215610c6957600082815280602052604081205491808310610c1557604082827fddf252ad1be2c89b69c2b068fc378daa952ba7f163c4a11628f55a4df523b3ef958760209652828652038282205586815220818154019055604051908152a3565b60405162461bcd60e51b815260206004820152602660248201527f45524332303a207472616e7366657220616d6f756e7420657863656564732062604482015265616c616e636560d01b6064820152608490fd5b60405162461bcd60e51b815260206004820152602360248201527f45524332303a207472616e7366657220746f20746865207a65726f206164647260448201526265737360e81b6064820152608490fd5b60405162461bcd60e51b815260206004820152602560248201527f45524332303a207472616e736665722066726f6d20746865207a65726f206164604482015264647265737360d81b6064820152608490fd5b6001600160a01b03908116918215610dbe5716918215610d6e5760207f8c5be1e5ebec7d5bd14f71427d1e84f3dd0314c0f7b2291e5b200ac8c7c3b925918360005260018252604060002085600052825280604060002055604051908152a3565b60405162461bcd60e51b815260206004820152602260248201527f45524332303a20617070726f766520746f20746865207a65726f206164647265604482015261737360f01b6064820152608490fd5b60405162461bcd60e51b8152602060048201526024808201527f45524332303a20617070726f76652066726f6d20746865207a65726f206164646044820152637265737360e01b6064820152608490fd5b6007546001600160a01b03928316929190821683148015610e56575b610e4d5716600052600160205260406000209060005260205260406000205490565b50505060001990565b5081600854168314610e2b56fea2646970667358221220e0d41d72623d2aa6b4c81b8211012fd4f24c5f32ceb3d16076a9b379260e7f9564736f6c634300080f0033",
  "linkReferences": {},
  "deployedLinkReferences": {}
}