{
  "_format": "hh-sol-artifact-1",
  "contractName": "Bodies",
  "sourceName": "contracts/Bodies.sol",
  "abi": [
    {
      "inputs": [
        {
          "internalType": "address",
          "name": "bodyMetadata_",
          "type": "address"
        },
        {
          "internalType": "address payable",
          "name": "problems_",
          "type": "address"
        }
      ],
      "stateMutability": "nonpayable",
      "type": "constructor"
    },
    {
      "anonymous": false,
      "inputs": [
        {
          "indexed": true,
          "internalType": "address",
          "name": "owner",
          "type": "address"
        },
        {
          "indexed": true,
          "internalType": "address",
          "name": "approved",
          "type": "address"
        },
        {
          "indexed": true,
          "internalType": "uint256",
          "name": "tokenId",
          "type": "uint256"
        }
      ],
      "name": "Approval",
      "type": "event"
    },
    {
      "anonymous": false,
      "inputs": [
        {
          "indexed": true,
          "internalType": "address",
          "name": "owner",
          "type": "address"
        },
        {
          "indexed": true,
          "internalType": "address",
          "name": "operator",
          "type": "address"
        },
        {
          "indexed": false,
          "internalType": "bool",
          "name": "approved",
          "type": "bool"
        }
      ],
      "name": "ApprovalForAll",
      "type": "event"
    },
    {
      "anonymous": false,
      "inputs": [
        {
          "indexed": true,
          "internalType": "address",
          "name": "previousOwner",
          "type": "address"
        },
        {
          "indexed": true,
          "internalType": "address",
          "name": "newOwner",
          "type": "address"
        }
      ],
      "name": "OwnershipTransferred",
      "type": "event"
    },
    {
      "anonymous": false,
      "inputs": [
        {
          "indexed": true,
          "internalType": "address",
          "name": "from",
          "type": "address"
        },
        {
          "indexed": true,
          "internalType": "address",
          "name": "to",
          "type": "address"
        },
        {
          "indexed": true,
          "internalType": "uint256",
          "name": "tokenId",
          "type": "uint256"
        }
      ],
      "name": "Transfer",
      "type": "event"
    },
    {
      "anonymous": false,
      "inputs": [
        {
          "indexed": true,
          "internalType": "uint256",
          "name": "bodyId",
          "type": "uint256"
        },
        {
          "indexed": true,
          "internalType": "uint256",
          "name": "problemId",
          "type": "uint256"
        },
        {
          "indexed": true,
          "internalType": "uint256",
          "name": "mintedBodyIndex",
          "type": "uint256"
        },
        {
          "indexed": false,
          "internalType": "uint256",
          "name": "maxStarLvl",
          "type": "uint256"
        },
        {
          "indexed": false,
          "internalType": "bytes32",
          "name": "seed",
          "type": "bytes32"
        },
        {
          "indexed": false,
          "internalType": "bool",
          "name": "addedToProblem",
          "type": "bool"
        }
      ],
      "name": "bodyBorn",
      "type": "event"
    },
    {
      "stateMutability": "nonpayable",
      "type": "fallback"
    },
    {
      "inputs": [
        {
          "internalType": "address",
          "name": "to",
          "type": "address"
        },
        {
          "internalType": "uint256",
          "name": "tokenId",
          "type": "uint256"
        }
      ],
      "name": "approve",
      "outputs": [],
      "stateMutability": "nonpayable",
      "type": "function"
    },
    {
      "inputs": [
        {
          "internalType": "address",
          "name": "owner",
          "type": "address"
        }
      ],
      "name": "balanceOf",
      "outputs": [
        {
          "internalType": "uint256",
          "name": "",
          "type": "uint256"
        }
      ],
      "stateMutability": "view",
      "type": "function"
    },
    {
      "inputs": [
        {
          "internalType": "uint256",
          "name": "",
          "type": "uint256"
        }
      ],
      "name": "bodies",
      "outputs": [
        {
          "internalType": "uint256",
          "name": "problemId",
          "type": "uint256"
        },
        {
          "internalType": "uint256",
          "name": "mintedBodyIndex",
          "type": "uint256"
        },
        {
          "internalType": "uint256",
          "name": "starLvl",
          "type": "uint256"
        },
        {
          "internalType": "uint256",
          "name": "maxStarLvl",
          "type": "uint256"
        },
        {
          "internalType": "bytes32",
          "name": "seed",
          "type": "bytes32"
        }
      ],
      "stateMutability": "view",
      "type": "function"
    },
    {
      "inputs": [],
      "name": "bodyMetadata",
      "outputs": [
        {
          "internalType": "address",
          "name": "",
          "type": "address"
        }
      ],
      "stateMutability": "view",
      "type": "function"
    },
    {
      "inputs": [
        {
          "internalType": "uint256",
          "name": "bodyID",
          "type": "uint256"
        }
      ],
      "name": "burn",
      "outputs": [],
      "stateMutability": "nonpayable",
      "type": "function"
    },
    {
      "inputs": [],
      "name": "counter",
      "outputs": [
        {
          "internalType": "uint256",
          "name": "",
          "type": "uint256"
        }
      ],
      "stateMutability": "view",
      "type": "function"
    },
    {
      "inputs": [],
      "name": "decimals",
      "outputs": [
        {
          "internalType": "uint256",
          "name": "",
          "type": "uint256"
        }
      ],
      "stateMutability": "view",
      "type": "function"
    },
    {
      "inputs": [],
      "name": "dust",
      "outputs": [
        {
          "internalType": "address",
          "name": "",
          "type": "address"
        }
      ],
      "stateMutability": "view",
      "type": "function"
    },
    {
      "inputs": [
        {
          "internalType": "uint256",
          "name": "",
          "type": "uint256"
        }
      ],
      "name": "dustPrice",
      "outputs": [
        {
          "internalType": "uint256",
          "name": "",
          "type": "uint256"
        }
      ],
      "stateMutability": "view",
      "type": "function"
    },
    {
      "inputs": [
        {
          "internalType": "uint256",
          "name": "tokenId",
          "type": "uint256"
        }
      ],
      "name": "generateSeed",
      "outputs": [
        {
          "internalType": "bytes32",
          "name": "",
          "type": "bytes32"
        }
      ],
      "stateMutability": "view",
      "type": "function"
    },
    {
      "inputs": [
        {
          "internalType": "uint256",
          "name": "tokenId",
          "type": "uint256"
        }
      ],
      "name": "getApproved",
      "outputs": [
        {
          "internalType": "address",
          "name": "",
          "type": "address"
        }
      ],
      "stateMutability": "view",
      "type": "function"
    },
    {
      "inputs": [
        {
          "internalType": "address",
          "name": "owner",
          "type": "address"
        },
        {
          "internalType": "address",
          "name": "operator",
          "type": "address"
        }
      ],
      "name": "isApprovedForAll",
      "outputs": [
        {
          "internalType": "bool",
          "name": "",
          "type": "bool"
        }
      ],
      "stateMutability": "view",
      "type": "function"
    },
    {
      "inputs": [
        {
          "internalType": "address",
          "name": "owner",
          "type": "address"
        },
        {
          "internalType": "uint256",
          "name": "problemId",
          "type": "uint256"
        },
        {
          "internalType": "uint256",
          "name": "mintedBodyIndex",
          "type": "uint256"
        }
      ],
      "name": "mint",
      "outputs": [],
      "stateMutability": "nonpayable",
      "type": "function"
    },
    {
      "inputs": [
        {
          "internalType": "address",
          "name": "owner",
          "type": "address"
        },
        {
          "internalType": "uint256",
          "name": "problemId",
          "type": "uint256"
        },
        {
          "internalType": "uint256",
          "name": "mintedBodyIndex",
          "type": "uint256"
        }
      ],
      "name": "mintAndAddToProblem",
      "outputs": [
        {
          "internalType": "uint256",
          "name": "bodyId",
          "type": "uint256"
        },
        {
          "internalType": "uint256",
          "name": "maxStarLvl",
          "type": "uint256"
        },
        {
          "internalType": "bytes32",
          "name": "seed",
          "type": "bytes32"
        }
      ],
      "stateMutability": "nonpayable",
      "type": "function"
    },
    {
      "inputs": [
        {
          "internalType": "address",
          "name": "owner",
          "type": "address"
        },
        {
          "internalType": "uint256",
          "name": "bodyId",
          "type": "uint256"
        },
        {
          "internalType": "uint256",
          "name": "problemId",
          "type": "uint256"
        },
        {
          "internalType": "uint256",
          "name": "starLvl",
          "type": "uint256"
        }
      ],
      "name": "moveBodyFromProblem",
      "outputs": [],
      "stateMutability": "nonpayable",
      "type": "function"
    },
    {
      "inputs": [
        {
          "internalType": "uint256",
          "name": "bodyId",
          "type": "uint256"
        },
        {
          "internalType": "address",
          "name": "owner",
          "type": "address"
        },
        {
          "internalType": "uint256",
          "name": "problemId",
          "type": "uint256"
        }
      ],
      "name": "moveBodyToProblem",
      "outputs": [
        {
          "internalType": "uint256",
          "name": "mintedBodyIndex",
          "type": "uint256"
        },
        {
          "internalType": "uint256",
          "name": "starLvl",
          "type": "uint256"
        },
        {
          "internalType": "uint256",
          "name": "maxStarLvl",
          "type": "uint256"
        },
        {
          "internalType": "bytes32",
          "name": "seed",
          "type": "bytes32"
        }
      ],
      "stateMutability": "nonpayable",
      "type": "function"
    },
    {
      "inputs": [],
      "name": "name",
      "outputs": [
        {
          "internalType": "string",
          "name": "",
          "type": "string"
        }
      ],
      "stateMutability": "view",
      "type": "function"
    },
    {
      "inputs": [],
      "name": "owner",
      "outputs": [
        {
          "internalType": "address",
          "name": "",
          "type": "address"
        }
      ],
      "stateMutability": "view",
      "type": "function"
    },
    {
      "inputs": [
        {
          "internalType": "uint256",
          "name": "tokenId",
          "type": "uint256"
        }
      ],
      "name": "ownerOf",
      "outputs": [
        {
          "internalType": "address",
          "name": "",
          "type": "address"
        }
      ],
      "stateMutability": "view",
      "type": "function"
    },
    {
      "inputs": [
        {
          "internalType": "address",
          "name": "owner",
          "type": "address"
        },
        {
          "internalType": "uint256",
          "name": "bodyId",
          "type": "uint256"
        }
      ],
      "name": "problemMint",
      "outputs": [],
      "stateMutability": "nonpayable",
      "type": "function"
    },
    {
      "inputs": [],
      "name": "problems",
      "outputs": [
        {
          "internalType": "address payable",
          "name": "",
          "type": "address"
        }
      ],
      "stateMutability": "view",
      "type": "function"
    },
    {
      "inputs": [],
      "name": "renounceOwnership",
      "outputs": [],
      "stateMutability": "nonpayable",
      "type": "function"
    },
    {
      "inputs": [
        {
          "internalType": "address",
          "name": "from",
          "type": "address"
        },
        {
          "internalType": "address",
          "name": "to",
          "type": "address"
        },
        {
          "internalType": "uint256",
          "name": "tokenId",
          "type": "uint256"
        }
      ],
      "name": "safeTransferFrom",
      "outputs": [],
      "stateMutability": "nonpayable",
      "type": "function"
    },
    {
      "inputs": [
        {
          "internalType": "address",
          "name": "from",
          "type": "address"
        },
        {
          "internalType": "address",
          "name": "to",
          "type": "address"
        },
        {
          "internalType": "uint256",
          "name": "tokenId",
          "type": "uint256"
        },
        {
          "internalType": "bytes",
          "name": "data",
          "type": "bytes"
        }
      ],
      "name": "safeTransferFrom",
      "outputs": [],
      "stateMutability": "nonpayable",
      "type": "function"
    },
    {
      "inputs": [
        {
          "internalType": "address",
          "name": "operator",
          "type": "address"
        },
        {
          "internalType": "bool",
          "name": "approved",
          "type": "bool"
        }
      ],
      "name": "setApprovalForAll",
      "outputs": [],
      "stateMutability": "nonpayable",
      "type": "function"
    },
    {
      "inputs": [
        {
          "internalType": "uint256",
          "name": "",
          "type": "uint256"
        }
      ],
      "name": "starLvls",
      "outputs": [
        {
          "internalType": "uint256",
          "name": "",
          "type": "uint256"
        }
      ],
      "stateMutability": "view",
      "type": "function"
    },
    {
      "inputs": [
        {
          "internalType": "bytes4",
          "name": "interfaceId",
          "type": "bytes4"
        }
      ],
      "name": "supportsInterface",
      "outputs": [
        {
          "internalType": "bool",
          "name": "",
          "type": "bool"
        }
      ],
      "stateMutability": "view",
      "type": "function"
    },
    {
      "inputs": [],
      "name": "symbol",
      "outputs": [
        {
          "internalType": "string",
          "name": "",
          "type": "string"
        }
      ],
      "stateMutability": "view",
      "type": "function"
    },
    {
      "inputs": [
        {
          "internalType": "uint256",
          "name": "id",
          "type": "uint256"
        }
      ],
      "name": "tokenURI",
      "outputs": [
        {
          "internalType": "string",
          "name": "",
          "type": "string"
        }
      ],
      "stateMutability": "view",
      "type": "function"
    },
    {
      "inputs": [
        {
          "internalType": "address",
          "name": "from",
          "type": "address"
        },
        {
          "internalType": "address",
          "name": "to",
          "type": "address"
        },
        {
          "internalType": "uint256",
          "name": "tokenId",
          "type": "uint256"
        }
      ],
      "name": "transferFrom",
      "outputs": [],
      "stateMutability": "nonpayable",
      "type": "function"
    },
    {
      "inputs": [
        {
          "internalType": "address",
          "name": "newOwner",
          "type": "address"
        }
      ],
      "name": "transferOwnership",
      "outputs": [],
      "stateMutability": "nonpayable",
      "type": "function"
    },
    {
      "inputs": [
        {
          "internalType": "uint256",
          "name": "index",
          "type": "uint256"
        },
        {
          "internalType": "uint256",
          "name": "maxStarLvl",
          "type": "uint256"
        }
      ],
      "name": "updateBodyMaxStarLvl",
      "outputs": [],
      "stateMutability": "nonpayable",
      "type": "function"
    },
    {
      "inputs": [
        {
          "internalType": "address",
          "name": "bodyMetadata_",
          "type": "address"
        }
      ],
      "name": "updateBodyMetadataAddress",
      "outputs": [],
      "stateMutability": "nonpayable",
      "type": "function"
    },
    {
      "inputs": [
        {
          "internalType": "address",
          "name": "dust_",
          "type": "address"
        }
      ],
      "name": "updateDustAddress",
      "outputs": [],
      "stateMutability": "nonpayable",
      "type": "function"
    },
    {
      "inputs": [
        {
          "internalType": "uint256",
          "name": "index",
          "type": "uint256"
        },
        {
          "internalType": "uint256",
          "name": "price",
          "type": "uint256"
        }
      ],
      "name": "updateDustPrice",
      "outputs": [],
      "stateMutability": "nonpayable",
      "type": "function"
    },
    {
      "inputs": [
        {
          "internalType": "address payable",
          "name": "problems_",
          "type": "address"
        }
      ],
      "name": "updateProblemsAddress",
      "outputs": [],
      "stateMutability": "nonpayable",
      "type": "function"
    }
  ],
  "bytecode": "0x6080346200046f576200216a906001600160401b0390601f1990601f388590038181018416830190858211848310176200045957808491604098899485528339810103126200046f5781516001600160a01b039384821693918490036200046f57602080920151958587168097036200046f576200007c62000495565b936006855265426f6469657360d01b848601526200009962000495565b60038152621093d160ea1b8582015285519383851162000459576000948554976001988981811c911680156200044e575b898210146200043a579081868493116200040a575b508890868311600114620003a95788926200039d575b5050600019600383901b1c191690881b1785555b8151938411620003895786548781811c911680156200037e575b878210146200036a5790818486959493116200032f575b5086928411600114620002ce57508492620002c2575b5050600019600383901b1c191690841b1783555b60065460018060a01b03199533878316176006553391167f8be0079c531659141344cd1fd0a4f28419497f9722a3daafe3b4186f6b6457e0838a51a3620001aa62000474565b91818352818184015281888401526002606084015260046080840152600860a0840152601060c08401528060e0840152610100888185015261012093608085820152600c908685915b85600a8410620002aa57505050505060096200020e62000474565b916004835260048484015260048b8401526004606084015260056080840152600660a0840152600760c0840152600860e0840152820152600a809482015291601690925b84841062000293575050505050506200026a620004ce565b8160085416176008556200027d620004ce565b600754161760075551611c429081620005288239f35b805160ff1682559285019290850190820162000252565b8160ff849351168655019301910190918790620001f3565b01519050388062000150565b87865286862088959093929116865b88828210620003185750508411620002fe575b505050811b01835562000164565b015160001960f88460031b161c19169055388080620002f0565b8385015186558a97909501949384019301620002dd565b62000359908988528888208580880160051c8201928b891062000360575b0160051c0190620004b5565b386200013a565b925081926200034d565b634e487b7160e01b86526022600452602486fd5b90607f169062000123565b634e487b7160e01b85526041600452602485fd5b015190503880620000f5565b90848b9416918980528a8a20928a5b8c828210620003f35750508411620003d9575b505050811b01855562000109565b015160001960f88460031b161c19169055388080620003cb565b8385015186558e97909501949384019301620003b8565b62000433908980528a8a208880860160051c8201928d871062000360570160051c0190620004b5565b38620000df565b634e487b7160e01b88526022600452602488fd5b90607f1690620000ca565b634e487b7160e01b600052604160045260246000fd5b600080fd5b6040519061014082016001600160401b038111838210176200045957604052565b60408051919082016001600160401b038111838210176200045957604052565b818110620004c1575050565b60008155600101620004b5565b6006546001600160a01b03163303620004e357565b606460405162461bcd60e51b815260206004820152602060248201527f4f776e61626c653a2063616c6c6572206973206e6f7420746865206f776e65726044820152fdfe608060409080825260049081361015610057575b5034610052576020606492519162461bcd60e51b835282015260146024820152733737903330b6363130b1b590333ab731ba34b7b760611b6044820152fd5b600080fd5b600090813560e01c90816301ffc9a7146111f05750806306fdde0314611124578063081812fc14611103578063087c32e6146110be578063095ea7b314610f4e5780630d74a4e414610f1a578063156e29f614610e0157806323b872dd14610dd6578063313ce56714610db357806331d988b214610d78578063392f370714610d315780633c43b50b14610c7c578063424611c314610c5457806342842e0e14610c0557806342966c6814610b5a57806344cee73c14610b0857806361bc221a14610ae95780636352211e14610ab75780636a890e6714610a765780636f212925146109d657806370a0823114610941578063715018a6146108e15780638da5cb5b146108b857806395d89b41146107a1578063a22cb465146106d0578063a56564cb146106a3578063a85e1cfe1461067a578063b88d4fde146105e9578063bba54ca8146105bc578063c87b56dd146104c5578063d395cb131461039c578063d5f356661461035b578063e985e9c51461030d578063f2fde38b14610241578063f9df988f146102185763fad9aba30361001357823461021457816003193601126102145760095490516001600160a01b039091168152602090f35b5080fd5b50823461021457816003193601126102145760075490516001600160a01b039091168152602090f35b509190346103095760203660031901126103095761025d6112b6565b6102656113c7565b6001600160a01b039081169182156102b7575060065492826001600160601b0360a01b8516176006555192167f8be0079c531659141344cd1fd0a4f28419497f9722a3daafe3b4186f6b6457e08484a3f35b608490602085519162461bcd60e51b8352820152602660248201527f4f776e61626c653a206e6577206f776e657220697320746865207a65726f206160448201526564647265737360d01b6064820152fd5b8280fd5b50823461021457806003193601126102145760ff8160209361032d6112b6565b6103356112cc565b6001600160a01b0391821683526005875283832091168252855220549151911615158152f35b508234610214576020366003190112610214576103766112b6565b61037e6113c7565b60018060a01b03166001600160601b0360a01b600854161760085551f35b508290346104c2576103ad366112f8565b9093916103c560018060a01b0360075416331461195b565b6103cf8282611af1565b6103da600b546119a0565b9384600b55600a8310156104af5782916104679160609894601601549461040088611904565b809888519361040e85611357565b8b8552602085018881528a808701928084528f8801948c8652608089019687528152600a60205220955186555160018601555160028501555160038401555191015561045c600b54826119fb565b600b54903090611694565b600b5494857f11d2af26f29275293ddf60830060f807c915c3d847afa3afc7d31dab9aa3f472888651868152886020820152600188820152a481519384526020840152820152f35b634e487b7160e01b815260328752602490fd5b80fd5b50913461030957602091826003193601126105b85760085482516308cffccf60e01b81528235928101929092528490829060249082906001600160a01b03165afa9384156105ad57809461052d575b50506105299051928284938452830190611291565b0390f35b909193503d8082843e6105408184611389565b82019183818403126102145780519067ffffffffffffffff8211610309570182601f8201121561021457805191610576836113ab565b9361058387519586611389565b8385528584840101116104c2575082916105a59185806105299601910161125c565b929038610514565b8251903d90823e3d90fd5b8380fd5b509190346103095760203660031901126103095735600a8110156103095760209250601601549051908152f35b50919034610309576080366003190112610309576106056112b6565b9061060e6112cc565b916064359167ffffffffffffffff8311610676573660238401121561067657820135928561063b856113ab565b9361064887519586611389565b8585523660248783010111610214578561067396602460209301838801378501015260443591611531565b51f35b8580fd5b50823461021457816003193601126102145760085490516001600160a01b039091168152602090f35b509190346103095760203660031901126103095735600a8110156103095760209250600c01549051908152f35b509190346103095781600319360112610309576106eb6112b6565b6024359081151580920361079d576001600160a01b03169133831461075a5750338452600560205282842082855260205282842060ff1981541660ff831617905582519081527f17307eab39ab6107e8899845ad3d59bd9653f200f220920489ca2b5937696c3160203392a351f35b606490602085519162461bcd60e51b8352820152601960248201527f4552433732313a20617070726f766520746f2063616c6c6572000000000000006044820152fd5b8480fd5b508290346104c257806003193601126104c2578151918160019283549384811c918186169586156108ae575b602096878510811461089b578899509688969785829a529182600014610874575050600114610819575b505050610529929161080a910385611389565b51928284938452830190611291565b91908693508083527fb10e2d527612073b26eecdfd717e6a320cf44b4afac2b0732d9fcbe2b7fa0cf65b82841061085c575050508201018161080a6105296107f7565b8054848a018601528895508794909301928101610843565b60ff19168782015293151560051b8601909301935084925061080a915061052990506107f7565b634e487b7160e01b835260228a52602483fd5b92607f16926107cd565b50823461021457816003193601126102145760065490516001600160a01b039091168152602090f35b5082346102145781600319360112610214576108fb6113c7565b600680546001600160a01b0319811690915590519082906001600160a01b03167f8be0079c531659141344cd1fd0a4f28419497f9722a3daafe3b4186f6b6457e08284a3f35b509034610214576020366003190112610214576001600160a01b036109646112b6565b169081156109815760208480858581526003845220549051908152f35b608490602085519162461bcd60e51b8352820152602960248201527f4552433732313a2061646472657373207a65726f206973206e6f7420612076616044820152683634b21037bbb732b960b91b6064820152fd5b50919034610309576060366003190112610309576080928135610a3e816109fb6112cc565b610a2860018060a01b03610a148160075416331461195b565b610a1d8461146b565b811690831614611bcf565b818552600a602052604435878620553090611694565b8152600a6020526001838220015492600281832001549281600381852001549320015492815194855260208501528301526060820152f35b50823461021457602036600319011261021457610a916112b6565b610a996113c7565b60018060a01b03166001600160601b0360a01b600954161760095551f35b508290346104c25760203660031901126104c25750610ad86020923561146b565b90516001600160a01b039091168152f35b508234610214578160031936011261021457602090600b549051908152f35b509134610309576020366003190112610309578060a09383358152600a602052208054926001820154926002830154916003840154930154938151958652602086015284015260608301526080820152f35b509134610309576020366003190112610309578282359160018060a01b03610b878160075416331461195b565b610b908461146b565b50610b9a8461146b565b94848452602052818320946001600160601b0360a01b95868154169055169384835260036020528183206000198154019055838352600260205281832090815416905551927fddf252ad1be2c89b69c2b068fc378daa952ba7f163c4a11628f55a4df523b3ef8285a4f35b50823461021457610c1536611322565b908351926020840184811067ffffffffffffffff821117610c4157856106739697985052868452611531565b634e487b7160e01b875260418852602487fd5b508290346104c25760203660031901126104c25750610c7560209235611904565b9051908152f35b5091903461030957608036600319011261030957610c986112b6565b60243591610cc660018060a01b03610cb58160075416331461195b565b610cbe8561146b565b163014611bcf565b828552600a6020526044358486205403610cfd57509061067391818552600a60205284848120556064356002858720015530611694565b606490602085519162461bcd60e51b8352820152600e60248201526d4e6f7420696e2070726f626c656d60901b6044820152fd5b5091903461030957610d42366112e2565b91610d4b6113c7565b600a8210610d58816118c8565b15610d655750600c015551f35b634e487b7160e01b855260329052602484fd5b508234610214578060031936011261021457610673610d956112b6565b610daa60018060a01b0360075416331461195b565b602435906119fb565b50823461021457816003193601126102145760209051670de0b6b3a76400008152f35b50823461021457610673610de936611322565b91610dfc610df784336115cc565b6114cf565b611694565b5091903461030957610e12366112f8565b92610e2b60018060a09594951b0360075416331461195b565b610e358483611af1565b610e40600b546119a0565b9182600b55600a851015610f075781610ee1606092897f11d2af26f29275293ddf60830060f807c915c3d847afa3afc7d31dab9aa3f472958a8a601601988954908c610e8b82611904565b93805196610e9888611357565b80885260208801928352818801938185528c8901958652608089019687528152600a602052209551865551600186015551600285015551600384015551910155600b54906119fb565b600b54935490848952600a6020528789200154875191825260208201528787820152a451f35b634e487b7160e01b875260328252602487fd5b5091903461030957610f2b366112e2565b91610f346113c7565b600a8210610f41816118c8565b15610d6557506016015551f35b50919034610309578160031936011261030957610f696112b6565b602435916001600160a01b03908180610f818661146b565b1693169280841461107157803314908115611052575b5015610fe95783865260205283852080546001600160a01b03191683179055610fbf8361146b565b169251927f8c5be1e5ebec7d5bd14f71427d1e84f3dd0314c0f7b2291e5b200ac8c7c3b9258585a4f35b608490602086519162461bcd60e51b8352820152603d60248201527f4552433732313a20617070726f76652063616c6c6572206973206e6f7420746f60448201527f6b656e206f776e6572206f7220617070726f76656420666f7220616c6c0000006064820152fd5b90508652600560205284862033875260205260ff858720541638610f97565b855162461bcd60e51b8152602081840152602160248201527f4552433732313a20617070726f76616c20746f2063757272656e74206f776e656044820152603960f91b6064820152608490fd5b5091903461030957602036600319011261030957356001600160a01b03811690819003610309576110ed6113c7565b6001600160601b0360a01b600754161760075551f35b508290346104c25760203660031901126104c25750610ad860209235611491565b508290346104c257806003193601126104c25781519181825492600184811c918186169586156111e6575b602096878510811461089b578899509688969785829a52918260001461087457505060011461118b57505050610529929161080a910385611389565b91908693508280527f290decd9548b62a8d60345a988386fc84ba6bc95484008f6362f93160ef3e5635b8284106111ce575050508201018161080a6105296107f7565b8054848a0186015288955087949093019281016111b5565b92607f169261114f565b90508234610309576020366003190112610309573563ffffffff60e01b811680910361030957602092506380ac58cd60e01b811490811561124b575b811561123a575b5015158152f35b6301ffc9a760e01b14905083611233565b635b5e139f60e01b8114915061122c565b918091926000905b82821061127c575011611275575050565b6000910152565b91508060209183015181860152018291611264565b906020916112aa8151809281855285808601910161125c565b601f01601f1916010190565b600435906001600160a01b038216820361005257565b602435906001600160a01b038216820361005257565b6040906003190112610052576004359060243590565b6060906003190112610052576004356001600160a01b038116810361005257906024359060443590565b6060906003190112610052576001600160a01b0390600435828116810361005257916024359081168103610052579060443590565b60a0810190811067ffffffffffffffff82111761137357604052565b634e487b7160e01b600052604160045260246000fd5b90601f8019910116810190811067ffffffffffffffff82111761137357604052565b67ffffffffffffffff811161137357601f01601f191660200190565b6006546001600160a01b031633036113db57565b606460405162461bcd60e51b815260206004820152602060248201527f4f776e61626c653a2063616c6c6572206973206e6f7420746865206f776e65726044820152fd5b1561142657565b60405162461bcd60e51b815260206004820152601860248201527f4552433732313a20696e76616c696420746f6b656e20494400000000000000006044820152606490fd5b6000908152600260205260409020546001600160a01b031661148e81151561141f565b90565b6000818152600260205260409020546114b4906001600160a01b0316151561141f565b6000908152600460205260409020546001600160a01b031690565b156114d657565b60405162461bcd60e51b815260206004820152602d60248201527f4552433732313a2063616c6c6572206973206e6f7420746f6b656e206f776e6560448201526c1c881bdc88185c1c1c9bdd9959609a1b6064820152608490fd5b90611555939291611545610df784336115cc565b611550838383611694565b6117a7565b1561155c57565b60405162461bcd60e51b81528061157560048201611579565b0390fd5b60809060208152603260208201527f4552433732313a207472616e7366657220746f206e6f6e20455243373231526560408201527131b2b4bb32b91034b6b83632b6b2b73a32b960711b60608201520190565b906001600160a01b0380806115e08461146b565b16931691838314938415611613575b5083156115fd575b50505090565b61160991929350611491565b16143880806115f7565b909350600052600560205260406000208260005260205260ff6040600020541692386115ef565b1561164157565b60405162461bcd60e51b815260206004820152602560248201527f4552433732313a207472616e736665722066726f6d20696e636f72726563742060448201526437bbb732b960d91b6064820152608490fd5b906116bc916116a28461146b565b6001600160a01b039391841692849290918316841461163a565b1691821561175657816116d9916116d28661146b565b161461163a565b7fddf252ad1be2c89b69c2b068fc378daa952ba7f163c4a11628f55a4df523b3ef60008481526004602052604081206001600160601b0360a01b90818154169055838252600360205260408220600019815401905584825260408220600181540190558582526002602052846040832091825416179055604051a4565b60405162461bcd60e51b8152602060048201526024808201527f4552433732313a207472616e7366657220746f20746865207a65726f206164646044820152637265737360e01b6064820152608490fd5b9293600093909291803b156118bd579484916118019660405180948193630a85bd0160e11b9788845233600485015260018060a01b0380921660248501526044840152608060648401528260209b8c976084830190611291565b0393165af184918161187d575b5061186c575050503d600014611864573d611828816113ab565b906118366040519283611389565b81528091833d92013e5b805191826118615760405162461bcd60e51b81528061157560048201611579565b01fd5b506060611840565b6001600160e01b0319161492509050565b9091508581813d83116118b6575b6118958183611389565b8101031261079d57516001600160e01b03198116810361079d57903861180e565b503d61188b565b505050915050600190565b156118cf57565b60405162461bcd60e51b815260206004820152600d60248201526c092dcecc2d8d2c840d2dcc8caf609b1b6044820152606490fd5b6001431061194557604051602081019182526000194301406040820152604081526060810181811067ffffffffffffffff8211176113735760405251902090565b634e487b7160e01b600052601160045260246000fd5b1561196257565b60405162461bcd60e51b815260206004820152601660248201527513db9b1e48141c9bd89b195b5cc818d85b8818d85b1b60521b6044820152606490fd5b60001981146119455760010190565b156119b657565b60405162461bcd60e51b815260206004820152601c60248201527f4552433732313a20746f6b656e20616c7265616479206d696e746564000000006044820152606490fd5b6001600160a01b03168015611aad57600082815260026020526040902054611a2f906001600160a01b031615155b156119af565b600082815260026020526040902054611a52906001600160a01b03161515611a29565b600081815260036020526040812060018154019055828152600260205260408120826001600160601b0360a01b8254161790557fddf252ad1be2c89b69c2b068fc378daa952ba7f163c4a11628f55a4df523b3ef81604051a4565b606460405162461bcd60e51b815260206004820152602060248201527f4552433732313a206d696e7420746f20746865207a65726f20616464726573736044820152fd5b90600a811015611b8b57600c0154670de0b6b3a764000090806000190482118115151661194557029081611b23575050565b6009546001600160a01b03908116803b1561005257600092836044926040519687958694632770a7eb60e21b865216600485015260248401525af18015611b7f57611b6b5750565b67ffffffffffffffff811161137357604052565b6040513d6000823e3d90fd5b606460405162461bcd60e51b815260206004820152602060248201527f50726f626c656d20616c7265616479206d696e74656420313020626f646965736044820152fd5b15611bd657565b60405162461bcd60e51b815260206004820152600e60248201526d2737ba103137b23c9037bbb732b960911b6044820152606490fdfea26469706673582212201f220a78c7787e2b0bd452447af5f566bb6f5b7b5a918abc38c65bb81ee5e93364736f6c634300080f0033",
  "linkReferences": {},
  "deployedLinkReferences": {}
}