{
  "_format": "hh-sol-artifact-1",
  "contractName": "AnybodyProblem",
  "sourceName": "contracts/AnybodyProblem.sol",
  "abi": [
    {
      "inputs": [
        {
          "internalType": "address payable",
          "name": "proceedRecipient_",
          "type": "address"
        },
        {
          "internalType": "address payable",
          "name": "speedruns_",
          "type": "address"
        },
        {
          "internalType": "address[]",
          "name": "verifiers_",
          "type": "address[]"
        },
        {
          "internalType": "uint256[]",
          "name": "verifiersTicks",
          "type": "uint256[]"
        },
        {
          "internalType": "uint256[]",
          "name": "verifiersBodies",
          "type": "uint256[]"
        }
      ],
      "stateMutability": "nonpayable",
      "type": "constructor"
    },
    {
      "anonymous": false,
      "inputs": [
        {
          "indexed": true,
          "internalType": "address",
          "name": "to",
          "type": "address"
        },
        {
          "indexed": true,
          "internalType": "bool",
          "name": "success",
          "type": "bool"
        },
        {
          "indexed": false,
          "internalType": "bytes",
          "name": "returnData",
          "type": "bytes"
        },
        {
          "indexed": false,
          "internalType": "uint256",
          "name": "amount",
          "type": "uint256"
        }
      ],
      "name": "EthMoved",
      "type": "event"
    },
    {
      "anonymous": false,
      "inputs": [
        {
          "indexed": false,
          "internalType": "uint256",
          "name": "runId",
          "type": "uint256"
        },
        {
          "indexed": false,
          "internalType": "uint256",
          "name": "level",
          "type": "uint256"
        },
        {
          "indexed": false,
          "internalType": "bytes32",
          "name": "seed",
          "type": "bytes32"
        },
        {
          "indexed": false,
          "internalType": "uint256",
          "name": "day",
          "type": "uint256"
        }
      ],
      "name": "LevelCreated",
      "type": "event"
    },
    {
      "anonymous": false,
      "inputs": [
        {
          "indexed": true,
          "internalType": "address",
          "name": "player",
          "type": "address"
        },
        {
          "indexed": true,
          "internalType": "uint256",
          "name": "runId",
          "type": "uint256"
        },
        {
          "indexed": true,
          "internalType": "uint256",
          "name": "level",
          "type": "uint256"
        },
        {
          "indexed": false,
          "internalType": "uint256",
          "name": "time",
          "type": "uint256"
        },
        {
          "indexed": false,
          "internalType": "uint256",
          "name": "day",
          "type": "uint256"
        }
      ],
      "name": "LevelSolved",
      "type": "event"
    },
    {
      "anonymous": false,
      "inputs": [
        {
          "indexed": true,
          "internalType": "address",
          "name": "previousOwner",
          "type": "address"
        },
        {
          "indexed": true,
          "internalType": "address",
          "name": "newOwner",
          "type": "address"
        }
      ],
      "name": "OwnershipTransferred",
      "type": "event"
    },
    {
      "anonymous": false,
      "inputs": [
        {
          "indexed": false,
          "internalType": "uint256",
          "name": "runId",
          "type": "uint256"
        },
        {
          "indexed": false,
          "internalType": "uint256",
          "name": "day",
          "type": "uint256"
        },
        {
          "indexed": false,
          "internalType": "bytes32",
          "name": "seed",
          "type": "bytes32"
        }
      ],
      "name": "RunCreated",
      "type": "event"
    },
    {
      "anonymous": false,
      "inputs": [
        {
          "indexed": true,
          "internalType": "address",
          "name": "player",
          "type": "address"
        },
        {
          "indexed": true,
          "internalType": "uint256",
          "name": "runId",
          "type": "uint256"
        },
        {
          "indexed": false,
          "internalType": "uint256",
          "name": "accumulativeTime",
          "type": "uint256"
        },
        {
          "indexed": false,
          "internalType": "uint256",
          "name": "day",
          "type": "uint256"
        }
      ],
      "name": "RunSolved",
      "type": "event"
    },
    {
      "stateMutability": "nonpayable",
      "type": "fallback"
    },
    {
      "inputs": [],
      "name": "FIRST_SUNDAY_AT_6_PM_UTC",
      "outputs": [
        {
          "internalType": "uint256",
          "name": "",
          "type": "uint256"
        }
      ],
      "stateMutability": "view",
      "type": "function"
    },
    {
      "inputs": [],
      "name": "LEVELS",
      "outputs": [
        {
          "internalType": "uint256",
          "name": "",
          "type": "uint256"
        }
      ],
      "stateMutability": "view",
      "type": "function"
    },
    {
      "inputs": [],
      "name": "SECONDS_IN_A_DAY",
      "outputs": [
        {
          "internalType": "uint256",
          "name": "",
          "type": "uint256"
        }
      ],
      "stateMutability": "view",
      "type": "function"
    },
    {
      "inputs": [],
      "name": "SECONDS_IN_A_WEEK",
      "outputs": [
        {
          "internalType": "uint256",
          "name": "",
          "type": "uint256"
        }
      ],
      "stateMutability": "view",
      "type": "function"
    },
    {
      "inputs": [
        {
          "internalType": "uint256",
          "name": "runId",
          "type": "uint256"
        },
        {
          "internalType": "uint256[]",
          "name": "tickCounts",
          "type": "uint256[]"
        },
        {
          "internalType": "uint256[2][]",
          "name": "a",
          "type": "uint256[2][]"
        },
        {
          "internalType": "uint256[2][2][]",
          "name": "b",
          "type": "uint256[2][2][]"
        },
        {
          "internalType": "uint256[2][]",
          "name": "c",
          "type": "uint256[2][]"
        },
        {
          "internalType": "uint256[][]",
          "name": "input",
          "type": "uint256[][]"
        }
      ],
      "name": "batchSolve",
      "outputs": [],
      "stateMutability": "payable",
      "type": "function"
    },
    {
      "inputs": [
        {
          "internalType": "uint256[]",
          "name": "input",
          "type": "uint256[]"
        }
      ],
      "name": "convertTo102",
      "outputs": [
        {
          "internalType": "uint256[102]",
          "name": "",
          "type": "uint256[102]"
        }
      ],
      "stateMutability": "pure",
      "type": "function"
    },
    {
      "inputs": [
        {
          "internalType": "uint256[]",
          "name": "input",
          "type": "uint256[]"
        }
      ],
      "name": "convertTo112",
      "outputs": [
        {
          "internalType": "uint256[112]",
          "name": "",
          "type": "uint256[112]"
        }
      ],
      "stateMutability": "pure",
      "type": "function"
    },
    {
      "inputs": [
        {
          "internalType": "uint256[]",
          "name": "input",
          "type": "uint256[]"
        }
      ],
      "name": "convertTo22",
      "outputs": [
        {
          "internalType": "uint256[22]",
          "name": "",
          "type": "uint256[22]"
        }
      ],
      "stateMutability": "pure",
      "type": "function"
    },
    {
      "inputs": [
        {
          "internalType": "uint256[]",
          "name": "input",
          "type": "uint256[]"
        }
      ],
      "name": "convertTo32",
      "outputs": [
        {
          "internalType": "uint256[32]",
          "name": "",
          "type": "uint256[32]"
        }
      ],
      "stateMutability": "pure",
      "type": "function"
    },
    {
      "inputs": [
        {
          "internalType": "uint256[]",
          "name": "input",
          "type": "uint256[]"
        }
      ],
      "name": "convertTo42",
      "outputs": [
        {
          "internalType": "uint256[42]",
          "name": "",
          "type": "uint256[42]"
        }
      ],
      "stateMutability": "pure",
      "type": "function"
    },
    {
      "inputs": [
        {
          "internalType": "uint256[]",
          "name": "input",
          "type": "uint256[]"
        }
      ],
      "name": "convertTo52",
      "outputs": [
        {
          "internalType": "uint256[52]",
          "name": "",
          "type": "uint256[52]"
        }
      ],
      "stateMutability": "pure",
      "type": "function"
    },
    {
      "inputs": [
        {
          "internalType": "uint256[]",
          "name": "input",
          "type": "uint256[]"
        }
      ],
      "name": "convertTo62",
      "outputs": [
        {
          "internalType": "uint256[62]",
          "name": "",
          "type": "uint256[62]"
        }
      ],
      "stateMutability": "pure",
      "type": "function"
    },
    {
      "inputs": [
        {
          "internalType": "uint256[]",
          "name": "input",
          "type": "uint256[]"
        }
      ],
      "name": "convertTo72",
      "outputs": [
        {
          "internalType": "uint256[72]",
          "name": "",
          "type": "uint256[72]"
        }
      ],
      "stateMutability": "pure",
      "type": "function"
    },
    {
      "inputs": [
        {
          "internalType": "uint256[]",
          "name": "input",
          "type": "uint256[]"
        }
      ],
      "name": "convertTo82",
      "outputs": [
        {
          "internalType": "uint256[82]",
          "name": "",
          "type": "uint256[82]"
        }
      ],
      "stateMutability": "pure",
      "type": "function"
    },
    {
      "inputs": [
        {
          "internalType": "uint256[]",
          "name": "input",
          "type": "uint256[]"
        }
      ],
      "name": "convertTo92",
      "outputs": [
        {
          "internalType": "uint256[92]",
          "name": "",
          "type": "uint256[92]"
        }
      ],
      "stateMutability": "pure",
      "type": "function"
    },
    {
      "inputs": [],
      "name": "currentDay",
      "outputs": [
        {
          "internalType": "uint256",
          "name": "",
          "type": "uint256"
        }
      ],
      "stateMutability": "view",
      "type": "function"
    },
    {
      "inputs": [
        {
          "internalType": "uint256",
          "name": "runId",
          "type": "uint256"
        }
      ],
      "name": "currentLevel",
      "outputs": [
        {
          "internalType": "uint256",
          "name": "",
          "type": "uint256"
        }
      ],
      "stateMutability": "view",
      "type": "function"
    },
    {
      "inputs": [],
      "name": "currentWeek",
      "outputs": [
        {
          "internalType": "uint256",
          "name": "",
          "type": "uint256"
        }
      ],
      "stateMutability": "view",
      "type": "function"
    },
    {
      "inputs": [
        {
          "internalType": "uint256",
          "name": "_fromTokenId",
          "type": "uint256"
        },
        {
          "internalType": "uint256",
          "name": "_toTokenId",
          "type": "uint256"
        }
      ],
      "name": "emitBatchMetadataUpdate",
      "outputs": [],
      "stateMutability": "nonpayable",
      "type": "function"
    },
    {
      "inputs": [
        {
          "internalType": "uint256",
          "name": "tokenId",
          "type": "uint256"
        }
      ],
      "name": "emitMetadataUpdate",
      "outputs": [],
      "stateMutability": "nonpayable",
      "type": "function"
    },
    {
      "inputs": [
        {
          "internalType": "uint256",
          "name": "_fromTokenId",
          "type": "uint256"
        },
        {
          "internalType": "uint256",
          "name": "_toTokenId",
          "type": "uint256"
        }
      ],
      "name": "exampleEmitMultipleIndexEvent",
      "outputs": [],
      "stateMutability": "nonpayable",
      "type": "function"
    },
    {
      "inputs": [
        {
          "components": [
            {
              "internalType": "uint256",
              "name": "bodyIndex",
              "type": "uint256"
            },
            {
              "internalType": "uint256",
              "name": "px",
              "type": "uint256"
            },
            {
              "internalType": "uint256",
              "name": "py",
              "type": "uint256"
            },
            {
              "internalType": "uint256",
              "name": "vx",
              "type": "uint256"
            },
            {
              "internalType": "uint256",
              "name": "vy",
              "type": "uint256"
            },
            {
              "internalType": "uint256",
              "name": "radius",
              "type": "uint256"
            },
            {
              "internalType": "bytes32",
              "name": "seed",
              "type": "bytes32"
            }
          ],
          "internalType": "struct AnybodyProblem.Body",
          "name": "bodyData",
          "type": "tuple"
        },
        {
          "internalType": "uint256[]",
          "name": "input",
          "type": "uint256[]"
        },
        {
          "internalType": "uint256",
          "name": "i",
          "type": "uint256"
        }
      ],
      "name": "extractBodyData",
      "outputs": [
        {
          "components": [
            {
              "internalType": "uint256",
              "name": "bodyIndex",
              "type": "uint256"
            },
            {
              "internalType": "uint256",
              "name": "px",
              "type": "uint256"
            },
            {
              "internalType": "uint256",
              "name": "py",
              "type": "uint256"
            },
            {
              "internalType": "uint256",
              "name": "vx",
              "type": "uint256"
            },
            {
              "internalType": "uint256",
              "name": "vy",
              "type": "uint256"
            },
            {
              "internalType": "uint256",
              "name": "radius",
              "type": "uint256"
            },
            {
              "internalType": "bytes32",
              "name": "seed",
              "type": "bytes32"
            }
          ],
          "internalType": "struct AnybodyProblem.Body",
          "name": "",
          "type": "tuple"
        }
      ],
      "stateMutability": "pure",
      "type": "function"
    },
    {
      "inputs": [
        {
          "internalType": "uint256",
          "name": "",
          "type": "uint256"
        },
        {
          "internalType": "uint256",
          "name": "",
          "type": "uint256"
        }
      ],
      "name": "fastestByDay",
      "outputs": [
        {
          "internalType": "uint256",
          "name": "",
          "type": "uint256"
        }
      ],
      "stateMutability": "view",
      "type": "function"
    },
    {
      "inputs": [
        {
          "internalType": "uint256",
          "name": "",
          "type": "uint256"
        },
        {
          "internalType": "uint256",
          "name": "",
          "type": "uint256"
        }
      ],
      "name": "fastestByWeek",
      "outputs": [
        {
          "internalType": "address",
          "name": "",
          "type": "address"
        }
      ],
      "stateMutability": "view",
      "type": "function"
    },
    {
      "inputs": [
        {
          "internalType": "address",
          "name": "",
          "type": "address"
        }
      ],
      "name": "gamesPlayed",
      "outputs": [
        {
          "internalType": "uint256",
          "name": "total",
          "type": "uint256"
        },
        {
          "internalType": "uint256",
          "name": "lastPlayed",
          "type": "uint256"
        },
        {
          "internalType": "uint256",
          "name": "streak",
          "type": "uint256"
        }
      ],
      "stateMutability": "view",
      "type": "function"
    },
    {
      "inputs": [
        {
          "internalType": "bytes32",
          "name": "seed",
          "type": "bytes32"
        },
        {
          "internalType": "uint256",
          "name": "index",
          "type": "uint256"
        }
      ],
      "name": "genRadius",
      "outputs": [
        {
          "internalType": "uint256",
          "name": "",
          "type": "uint256"
        }
      ],
      "stateMutability": "pure",
      "type": "function"
    },
    {
      "inputs": [
        {
          "internalType": "uint256",
          "name": "day",
          "type": "uint256"
        },
        {
          "internalType": "uint256",
          "name": "level",
          "type": "uint256"
        }
      ],
      "name": "generateLevelData",
      "outputs": [
        {
          "components": [
            {
              "internalType": "uint256",
              "name": "bodyIndex",
              "type": "uint256"
            },
            {
              "internalType": "uint256",
              "name": "px",
              "type": "uint256"
            },
            {
              "internalType": "uint256",
              "name": "py",
              "type": "uint256"
            },
            {
              "internalType": "uint256",
              "name": "vx",
              "type": "uint256"
            },
            {
              "internalType": "uint256",
              "name": "vy",
              "type": "uint256"
            },
            {
              "internalType": "uint256",
              "name": "radius",
              "type": "uint256"
            },
            {
              "internalType": "bytes32",
              "name": "seed",
              "type": "bytes32"
            }
          ],
          "internalType": "struct AnybodyProblem.Body[6]",
          "name": "bodyData",
          "type": "tuple[6]"
        },
        {
          "internalType": "uint256",
          "name": "bodyCount",
          "type": "uint256"
        }
      ],
      "stateMutability": "view",
      "type": "function"
    },
    {
      "inputs": [
        {
          "internalType": "uint256",
          "name": "id",
          "type": "uint256"
        },
        {
          "internalType": "uint256",
          "name": "index",
          "type": "uint256"
        }
      ],
      "name": "generateSeed",
      "outputs": [
        {
          "internalType": "bytes32",
          "name": "",
          "type": "bytes32"
        }
      ],
      "stateMutability": "view",
      "type": "function"
    },
    {
      "inputs": [
        {
          "internalType": "uint256",
          "name": "inputLength",
          "type": "uint256"
        }
      ],
      "name": "getLevelFromInputs",
      "outputs": [
        {
          "internalType": "uint256",
          "name": "",
          "type": "uint256"
        }
      ],
      "stateMutability": "pure",
      "type": "function"
    },
    {
      "inputs": [
        {
          "internalType": "uint256",
          "name": "day",
          "type": "uint256"
        },
        {
          "internalType": "uint256",
          "name": "level",
          "type": "uint256"
        },
        {
          "internalType": "uint256",
          "name": "bodyIndex",
          "type": "uint256"
        }
      ],
      "name": "getLevelSeed",
      "outputs": [
        {
          "internalType": "bytes32",
          "name": "",
          "type": "bytes32"
        }
      ],
      "stateMutability": "pure",
      "type": "function"
    },
    {
      "inputs": [
        {
          "internalType": "uint256",
          "name": "runId",
          "type": "uint256"
        }
      ],
      "name": "getLevelsData",
      "outputs": [
        {
          "components": [
            {
              "internalType": "bool",
              "name": "solved",
              "type": "bool"
            },
            {
              "internalType": "uint256",
              "name": "time",
              "type": "uint256"
            },
            {
              "internalType": "bytes32",
              "name": "seed",
              "type": "bytes32"
            },
            {
              "internalType": "uint256[5]",
              "name": "tmpInflightMissile",
              "type": "uint256[5]"
            },
            {
              "components": [
                {
                  "internalType": "uint256",
                  "name": "bodyIndex",
                  "type": "uint256"
                },
                {
                  "internalType": "uint256",
                  "name": "px",
                  "type": "uint256"
                },
                {
                  "internalType": "uint256",
                  "name": "py",
                  "type": "uint256"
                },
                {
                  "internalType": "uint256",
                  "name": "vx",
                  "type": "uint256"
                },
                {
                  "internalType": "uint256",
                  "name": "vy",
                  "type": "uint256"
                },
                {
                  "internalType": "uint256",
                  "name": "radius",
                  "type": "uint256"
                },
                {
                  "internalType": "bytes32",
                  "name": "seed",
                  "type": "bytes32"
                }
              ],
              "internalType": "struct AnybodyProblem.Body[6]",
              "name": "tmpBodyData",
              "type": "tuple[6]"
            }
          ],
          "internalType": "struct AnybodyProblem.Level[]",
          "name": "levels",
          "type": "tuple[]"
        }
      ],
      "stateMutability": "view",
      "type": "function"
    },
    {
      "inputs": [
        {
          "internalType": "bytes32",
          "name": "dayLevelIndexSeed",
          "type": "bytes32"
        },
        {
          "internalType": "bytes32",
          "name": "dayIndexSeed",
          "type": "bytes32"
        },
        {
          "internalType": "uint256",
          "name": "index",
          "type": "uint256"
        }
      ],
      "name": "getRandomValues",
      "outputs": [
        {
          "components": [
            {
              "internalType": "uint256",
              "name": "bodyIndex",
              "type": "uint256"
            },
            {
              "internalType": "uint256",
              "name": "px",
              "type": "uint256"
            },
            {
              "internalType": "uint256",
              "name": "py",
              "type": "uint256"
            },
            {
              "internalType": "uint256",
              "name": "vx",
              "type": "uint256"
            },
            {
              "internalType": "uint256",
              "name": "vy",
              "type": "uint256"
            },
            {
              "internalType": "uint256",
              "name": "radius",
              "type": "uint256"
            },
            {
              "internalType": "bytes32",
              "name": "seed",
              "type": "bytes32"
            }
          ],
          "internalType": "struct AnybodyProblem.Body",
          "name": "",
          "type": "tuple"
        }
      ],
      "stateMutability": "pure",
      "type": "function"
    },
    {
      "inputs": [
        {
          "internalType": "uint256",
          "name": "",
          "type": "uint256"
        }
      ],
      "name": "longestStreak",
      "outputs": [
        {
          "internalType": "address",
          "name": "",
          "type": "address"
        }
      ],
      "stateMutability": "view",
      "type": "function"
    },
    {
      "inputs": [],
      "name": "maxTick",
      "outputs": [
        {
          "internalType": "uint256",
          "name": "",
          "type": "uint256"
        }
      ],
      "stateMutability": "view",
      "type": "function"
    },
    {
      "inputs": [],
      "name": "maxVector",
      "outputs": [
        {
          "internalType": "uint256",
          "name": "",
          "type": "uint256"
        }
      ],
      "stateMutability": "view",
      "type": "function"
    },
    {
      "inputs": [],
      "name": "maxVectorScaled",
      "outputs": [
        {
          "internalType": "uint256",
          "name": "",
          "type": "uint256"
        }
      ],
      "stateMutability": "view",
      "type": "function"
    },
    {
      "inputs": [
        {
          "internalType": "uint256",
          "name": "",
          "type": "uint256"
        }
      ],
      "name": "mostGames",
      "outputs": [
        {
          "internalType": "address",
          "name": "",
          "type": "address"
        }
      ],
      "stateMutability": "view",
      "type": "function"
    },
    {
      "inputs": [],
      "name": "owner",
      "outputs": [
        {
          "internalType": "address",
          "name": "",
          "type": "address"
        }
      ],
      "stateMutability": "view",
      "type": "function"
    },
    {
      "inputs": [],
      "name": "paused",
      "outputs": [
        {
          "internalType": "bool",
          "name": "",
          "type": "bool"
        }
      ],
      "stateMutability": "view",
      "type": "function"
    },
    {
      "inputs": [],
      "name": "price",
      "outputs": [
        {
          "internalType": "uint256",
          "name": "",
          "type": "uint256"
        }
      ],
      "stateMutability": "view",
      "type": "function"
    },
    {
      "inputs": [],
      "name": "proceedRecipient",
      "outputs": [
        {
          "internalType": "address payable",
          "name": "",
          "type": "address"
        }
      ],
      "stateMutability": "view",
      "type": "function"
    },
    {
      "inputs": [
        {
          "internalType": "uint256",
          "name": "min",
          "type": "uint256"
        },
        {
          "internalType": "uint256",
          "name": "max",
          "type": "uint256"
        },
        {
          "internalType": "bytes32",
          "name": "rand",
          "type": "bytes32"
        }
      ],
      "name": "randomRange",
      "outputs": [
        {
          "internalType": "uint256",
          "name": "",
          "type": "uint256"
        }
      ],
      "stateMutability": "pure",
      "type": "function"
    },
    {
      "inputs": [
        {
          "internalType": "address payable",
          "name": "_to",
          "type": "address"
        }
      ],
      "name": "recoverUnsuccessfulPayment",
      "outputs": [],
      "stateMutability": "nonpayable",
      "type": "function"
    },
    {
      "inputs": [],
      "name": "renounceOwnership",
      "outputs": [],
      "stateMutability": "nonpayable",
      "type": "function"
    },
    {
      "inputs": [
        {
          "internalType": "uint256",
          "name": "tokenId",
          "type": "uint256"
        },
        {
          "internalType": "uint256",
          "name": "salePrice",
          "type": "uint256"
        }
      ],
      "name": "royaltyInfo",
      "outputs": [
        {
          "internalType": "address",
          "name": "",
          "type": "address"
        },
        {
          "internalType": "uint256",
          "name": "",
          "type": "uint256"
        }
      ],
      "stateMutability": "view",
      "type": "function"
    },
    {
      "inputs": [],
      "name": "runCount",
      "outputs": [
        {
          "internalType": "uint256",
          "name": "",
          "type": "uint256"
        }
      ],
      "stateMutability": "view",
      "type": "function"
    },
    {
      "inputs": [
        {
          "internalType": "uint256",
          "name": "",
          "type": "uint256"
        }
      ],
      "name": "runs",
      "outputs": [
        {
          "internalType": "address",
          "name": "owner",
          "type": "address"
        },
        {
          "internalType": "bool",
          "name": "solved",
          "type": "bool"
        },
        {
          "internalType": "uint256",
          "name": "accumulativeTime",
          "type": "uint256"
        },
        {
          "internalType": "bytes32",
          "name": "seed",
          "type": "bytes32"
        },
        {
          "internalType": "uint256",
          "name": "day",
          "type": "uint256"
        }
      ],
      "stateMutability": "view",
      "type": "function"
    },
    {
      "inputs": [],
      "name": "scalingFactor",
      "outputs": [
        {
          "internalType": "uint256",
          "name": "",
          "type": "uint256"
        }
      ],
      "stateMutability": "view",
      "type": "function"
    },
    {
      "inputs": [],
      "name": "speedFactor",
      "outputs": [
        {
          "internalType": "uint256",
          "name": "",
          "type": "uint256"
        }
      ],
      "stateMutability": "view",
      "type": "function"
    },
    {
      "inputs": [],
      "name": "speedruns",
      "outputs": [
        {
          "internalType": "address payable",
          "name": "",
          "type": "address"
        }
      ],
      "stateMutability": "view",
      "type": "function"
    },
    {
      "inputs": [
        {
          "internalType": "bytes4",
          "name": "interfaceId",
          "type": "bytes4"
        }
      ],
      "name": "speedrunsSupportsInterface",
      "outputs": [
        {
          "internalType": "bool",
          "name": "",
          "type": "bool"
        }
      ],
      "stateMutability": "pure",
      "type": "function"
    },
    {
      "inputs": [
        {
          "internalType": "uint256",
          "name": "id",
          "type": "uint256"
        }
      ],
      "name": "speedrunsTokenURI",
      "outputs": [
        {
          "internalType": "string",
          "name": "",
          "type": "string"
        }
      ],
      "stateMutability": "view",
      "type": "function"
    },
    {
      "inputs": [],
      "name": "startingRadius",
      "outputs": [
        {
          "internalType": "uint256",
          "name": "",
          "type": "uint256"
        }
      ],
      "stateMutability": "view",
      "type": "function"
    },
    {
      "inputs": [
        {
          "internalType": "bytes4",
          "name": "interfaceId",
          "type": "bytes4"
        }
      ],
      "name": "supportsInterface",
      "outputs": [
        {
          "internalType": "bool",
          "name": "",
          "type": "bool"
        }
      ],
      "stateMutability": "view",
      "type": "function"
    },
    {
      "inputs": [],
      "name": "timeUntilEndOfWeek",
      "outputs": [
        {
          "internalType": "uint256",
          "name": "",
          "type": "uint256"
        }
      ],
      "stateMutability": "view",
      "type": "function"
    },
    {
      "inputs": [
        {
          "internalType": "address",
          "name": "newOwner",
          "type": "address"
        }
      ],
      "name": "transferOwnership",
      "outputs": [],
      "stateMutability": "nonpayable",
      "type": "function"
    },
    {
      "inputs": [
        {
          "internalType": "bool",
          "name": "paused_",
          "type": "bool"
        }
      ],
      "name": "updatePaused",
      "outputs": [],
      "stateMutability": "nonpayable",
      "type": "function"
    },
    {
      "inputs": [
        {
          "internalType": "uint256",
          "name": "price_",
          "type": "uint256"
        }
      ],
      "name": "updatePrice",
      "outputs": [],
      "stateMutability": "nonpayable",
      "type": "function"
    },
    {
      "inputs": [
        {
          "internalType": "address payable",
          "name": "proceedRecipient_",
          "type": "address"
        }
      ],
      "name": "updateProceedRecipient",
      "outputs": [],
      "stateMutability": "nonpayable",
      "type": "function"
    },
    {
      "inputs": [
        {
          "internalType": "address payable",
          "name": "speedruns_",
          "type": "address"
        }
      ],
      "name": "updateSpeedrunsAddress",
      "outputs": [],
      "stateMutability": "nonpayable",
      "type": "function"
    },
    {
      "inputs": [
        {
          "internalType": "address",
          "name": "verifier_",
          "type": "address"
        },
        {
          "internalType": "uint256",
          "name": "verifierBodies",
          "type": "uint256"
        },
        {
          "internalType": "uint256",
          "name": "verifierTicks",
          "type": "uint256"
        }
      ],
      "name": "updateVerifier",
      "outputs": [],
      "stateMutability": "nonpayable",
      "type": "function"
    },
    {
      "inputs": [
        {
          "internalType": "uint256",
          "name": "",
          "type": "uint256"
        },
        {
          "internalType": "uint256",
          "name": "",
          "type": "uint256"
        }
      ],
      "name": "verifiers",
      "outputs": [
        {
          "internalType": "address",
          "name": "",
          "type": "address"
        }
      ],
      "stateMutability": "view",
      "type": "function"
    },
    {
      "inputs": [
        {
          "components": [
            {
              "internalType": "uint256",
              "name": "bodyIndex",
              "type": "uint256"
            },
            {
              "internalType": "uint256",
              "name": "px",
              "type": "uint256"
            },
            {
              "internalType": "uint256",
              "name": "py",
              "type": "uint256"
            },
            {
              "internalType": "uint256",
              "name": "vx",
              "type": "uint256"
            },
            {
              "internalType": "uint256",
              "name": "vy",
              "type": "uint256"
            },
            {
              "internalType": "uint256",
              "name": "radius",
              "type": "uint256"
            },
            {
              "internalType": "bytes32",
              "name": "seed",
              "type": "bytes32"
            }
          ],
          "internalType": "struct AnybodyProblem.Body",
          "name": "bodyData",
          "type": "tuple"
        },
        {
          "internalType": "uint256[]",
          "name": "input",
          "type": "uint256[]"
        },
        {
          "internalType": "uint256",
          "name": "bodyCount",
          "type": "uint256"
        },
        {
          "internalType": "uint256",
          "name": "i",
          "type": "uint256"
        }
      ],
      "name": "verifyBodyDataMatches",
      "outputs": [],
      "stateMutability": "pure",
      "type": "function"
    },
    {
      "inputs": [
        {
          "internalType": "uint256",
          "name": "bodyCount",
          "type": "uint256"
        },
        {
          "internalType": "address",
          "name": "verifier",
          "type": "address"
        },
        {
          "internalType": "uint256[2]",
          "name": "a",
          "type": "uint256[2]"
        },
        {
          "internalType": "uint256[2][2]",
          "name": "b",
          "type": "uint256[2][2]"
        },
        {
          "internalType": "uint256[2]",
          "name": "c",
          "type": "uint256[2]"
        },
        {
          "internalType": "uint256[]",
          "name": "input",
          "type": "uint256[]"
        }
      ],
      "name": "verifyProof",
      "outputs": [],
      "stateMutability": "view",
      "type": "function"
    },
    {
      "inputs": [
        {
          "internalType": "address",
          "name": "",
          "type": "address"
        },
        {
          "internalType": "uint256",
          "name": "",
          "type": "uint256"
        },
        {
          "internalType": "uint256",
          "name": "",
          "type": "uint256"
        }
      ],
      "name": "weeklyRecords",
      "outputs": [
        {
          "internalType": "uint256",
          "name": "",
          "type": "uint256"
        }
      ],
      "stateMutability": "view",
      "type": "function"
    },
    {
      "inputs": [],
      "name": "windowWidth",
      "outputs": [
        {
          "internalType": "uint256",
          "name": "",
          "type": "uint256"
        }
      ],
      "stateMutability": "view",
      "type": "function"
    },
    {
      "stateMutability": "payable",
      "type": "receive"
    }
  ],
  "bytecode": "0x6080604052346200064f5762004f25803803806200001d8162000676565b928339810160a0828203126200064f5762000038826200069c565b9062000047602084016200069c565b60408401516001600160401b0381116200064f5784019382601f860112156200064f578451620000816200007b82620006b1565b62000676565b9560208088848152019260051b820101908582116200064f57602001915b818310620006545750505060608101516001600160401b0381116200064f5783620000cc918301620006c9565b60808201519093906001600160401b0381116200064f57620000ef9201620006c9565b60008054336001600160a01b03198216811783556040519396939290916001600160a01b0316907f8be0079c531659141344cd1fd0a4f28419497f9722a3daafe3b4186f6b6457e09084a36003805460ff191690556601c6bf526340006004556001600160401b0360408201908111908211176200050a57604081016040526001815260005b60208110620005f657508051906801000000000000000082116200050a576011548260115580831062000520575b506011600090815260008051602062004f0583398151915292916020015b828210620002f95750505050620001d76200084a565b600580546001600160a01b0319166001600160a01b0392909216919091179055620002016200084a565b600680546001600160a01b0319166001600160a01b039290921691909117905560005b8351811015620002e957620002476200023e8284620007df565b5115156200080a565b620002696001600160a01b036200025f8387620007df565b511615156200080a565b6001600160a01b036200027d8286620007df565b51166200028b8285620007df565b5160005260126020526040600020620002a58385620007df565b5160005260205260406000209060018060a01b03198254161790556000198114620002d35760010162000224565b634e487b7160e01b600052601160045260246000fd5b6040516146619081620008a48239f35b60a08151600180831b0381511686549060ff841b60208401511515851b169160018060a81b0319161717865560408101516001870155606081015160028701556080810151600387015501518051906801000000000000000082116200050a57600486015482600488015580831062000494575b50602001906004860160005260206000206000905b828210620003a257505050506005602060019201940191019092620001c1565b9693929a8b9c9198929a9c999699518051151560ff80198b54169116178955602081015160018a0155604081015160028a0155606081015160038a01906000905b600582106200047c57505050608001519660088901936000985b60068a10156200045a57600760208260c06001945180518b5583810151868c0155604081015160028c0155606081015160038c0155608081015160048c015560a081015160058c0155015160068a015501960199019894620003fd565b5099929d9b93509996509a603260206001929995969901940191019062000382565b805183556001928301929190910190602001620003e3565b6200049f9062000757565b620004aa8362000757565b906004880160005260206000209182015b8183018110620004cd5750506200036d565b8060006032925560006001820155600060028201556200050360088201620004f9816003850162000788565b83830190620007a1565b01620004bb565b634e487b7160e01b600052604160045260246000fd5b6200052b9062000726565b620005368362000726565b601160005260008051602062004f05833981519152919082015b818301811062000562575050620001a3565b600081556000600182015560006002820155600060038201556004810154600060048301558062000598575b5060050162000550565b620005a39062000757565b600482016000526020600020908101905b818110620005c357506200058e565b806000603292556000600182015560006002820155620005ef60088201620004f9816003850162000788565b01620005b4565b604051906001600160401b0360c08301908111908311176200050a578160c06020930160405260008152600083820152600060408201526000606082015260006080820152606060a08201528282850101520162000175565b600080fd5b82516001600160a01b03811681036200064f578152602092830192016200009f565b6040519190601f01601f191682016001600160401b038111838210176200050a57604052565b51906001600160a01b03821682036200064f57565b6001600160401b0381116200050a5760051b60200190565b9080601f830112156200064f57815190620006e86200007b83620006b1565b9182938184526020808095019260051b8201019283116200064f578301905b82821062000716575050505090565b8151815290830190830162000707565b7f33333333333333333333333333333333333333333333333333333333333333338111600116620002d35760050290565b7f051eb851eb851eb851eb851eb851eb851eb851eb851eb851eb851eb851eb851e8111600116620002d35760320290565b81811062000794575050565b6000815560010162000788565b818110620007ad575050565b6007906000808255806001830155806002830155806003830155806004830155806005830155600682015501620007a1565b8051821015620007f45760209160051b010190565b634e487b7160e01b600052603260045260246000fd5b156200081257565b60405162461bcd60e51b815260206004820152601060248201526f24b73b30b634b2103b32b934b334b2b960811b6044820152606490fd5b6000546001600160a01b031633036200085f57565b606460405162461bcd60e51b815260206004820152602060248201527f4f776e61626c653a2063616c6c6572206973206e6f7420746865206f776e65726044820152fdfe6101006040526004361015610098575b361561005c57346100575760405162461bcd60e51b81526020600482015260156024820152746e6f2066616c6c6261636b207468616e6b20796f7560581b6044820152606490fd5b600080fd5b60405162461bcd60e51b81526020600482015260146024820152736e6f2072656365697665207468616e6b20796f7560601b6044820152606490fd5b6000803560e01c8063010520a114612d64578063014a30d214612d1b57806301ffc9a714612cc5578063041df08214612cab57806306575c8914612c9057806308cdc2a814612c56578063098b5e9314612baf5780630b27ce3f14612b8657806310d80a5514612b5b578063132d5ed914612b3d5780631db3b6dd14612b205780632a55205a14612a7c5780632b057afa14612a305780632e93a492146129fa5780633190b9ea1461292d578063355f7407146126e75780633bdbdb711461290e5780633ef2570b146128e957806343569ffb146128b25780634b9862d9146128965780634b9a48a8146128715780634caa028b146128285780634dbe7f73146127f85780635103d6ea146127635780635120a26114612746578063530ab7dc146126f757806353e52f09146126e75780635542437b146126a05780635bd6b2ea146126575780635c9302c9146126355780635c975abb146126125780636498c128146125db5780636ef24f2d1461253457806370180bc1146124e3578063715018a61461248557806371b8ccb01461243a578063770c5da1146124035780637a19b1901461235c578063861f75561461224257806387b07780146122195780638cb9aae61461215a5780638cc52cf31461213c5780638d6cc56d146121175780638da5cb5b146120f0578063907311b1146120495780639196b7001461200957806398a6a64114611fc5578063a035b1fe14611fa7578063a483011414611ecd578063ac4a604714611e84578063adcbb85b14611df7578063ae66f57c14611d0e578063b24f67b814611c9e578063bd2c955214611bdd578063c8b90ebb14611b29578063cc80b8ea14611ae2578063d8531e6e14611a97578063da60598a14611a6d578063de89d1c11461059c578063e2adba8c14610580578063ed3437f814610563578063f2fde38b1461049d578063f6fbc39a146103fa578063f81c8ec3146103dc578063f9cfa06f146103be5763ffd73d3b1461037b575b5061000f565b346103bb5761038936613041565b919081526007602052604081209060038310156103bb5760206103ac848461325e565b90549060031b1c604051908152f35b80fd5b50346103bb57806003193601126103bb576020604051620151808152f35b50346103bb57806003193601126103bb576020604051620f42408152f35b50346103bb5760203660031901126103bb5760043563ffffffff60e01b8116809103610499576020906301ffc9a760e01b8114908115610488575b8115610477575b8115610466575b8115610455575b506040519015158152f35b632483248360e11b1490508261044a565b63152a902d60e11b81149150610443565b635b5e139f60e01b8114915061043c565b6380ac58cd60e01b81149150610435565b5080fd5b50346103bb5760203660031901126103bb576104b76130e4565b6104bf6133fb565b6001600160a01b03908116801561050f57600080546001600160a01b03198116831782556040519316907f8be0079c531659141344cd1fd0a4f28419497f9722a3daafe3b4186f6b6457e09084a3f35b60405162461bcd60e51b815260206004820152602660248201527f4f776e61626c653a206e6577206f776e657220697320746865207a65726f206160448201526564647265737360d01b6064820152608490fd5b50346103bb57806003193601126103bb5760206040516103e88152f35b50346103bb57806003193601126103bb57602060405160058152f35b5060c03660031901126103bb576024356001600160401b038111610499576105c8903690600401612fb7565b6044356001600160401b038111611a69576105e790369060040161338f565b6064356001600160401b038111611a655736602382011215611a655780600401359061061282612fa0565b916106206040519384612f7f565b80835260208301913660248360071b83010111611a015760248101925b60248360071b8301018410611a0957505050506084356001600160401b038111611a055761066f90369060040161338f565b916001600160401b0360a43511611a055736602360a435011215611a055761069c60a43560040135612fa0565b916106aa6040519384612f7f565b60a4356004013583526020830136602460a4356004013560051b60a435010111611a0157602460a43501905b602460a4356004013560051b60a435010182106119cd5750506004359360ff600354166119935761070c620151804206426134a3565b9385156115d6575b61071d866132db565b50546001600160a01b031633036115825760ff610739876132db565b505460a01c1661154857600361074e876132db565b50015485036114f457875b81518110156114ee578661076d828a61348f565b51610778838861348f565b51610783848861348f565b5161078e858861348f565b519161079a868861348f565b519360046107b16107ab875161444a565b976132db565b5001548096036114a957600186106114595760ff6107e06107d18f6132db565b506000198901906004016138bb565b50541661146d576001198611611459578e9060018701825260126020526040822091526020528d604060018060a01b039120541680156114215761082660018701613087565b80196005116112905760011960058201116112905733906001600160a01b0390610853906006018861348f565b5116036113ce57610882600361087b8f61086c906132db565b506000198a01906004016138bb565b50016134ae565b6040519061088f82612de0565b6108a361089e60018a0161309d565b613087565b80196005116113b75760021960058201116113b75760076108c591018861348f565b5182526108d761089e60018a0161309d565b80196005116113b75760021960058201116113b75760011960078201116113b757600861090591018861348f565b51602083015261091a61089e60018a0161309d565b80196005116113b75760021960058201116113b75760021960078201116113b757600961094891018861348f565b51604083015261095d61089e60018a0161309d565b80196005116113b75760021960058201116113b75760031960078201116113b757600a61098b91018861348f565b5160608301526109a061089e60018a0161309d565b80196005116113b75760021960058201116113b75760041960078201116113b757600b6109ce91018861348f565b51806080840152806112d1575b5050506040516109ea81612de0565b6109f386613462565b5181526109ff8661346f565b516020820152610a0e8661347f565b5160408201528551600310156112bb57608086015160608201528551600410156112bb578f60038f610a4c610a5b9160a08b015160808701526132db565b506000198b01906004016138bb565b500190915b600583106112a557505050610a7760018701613087565b801960051161129057610ab68e610ab1888a99986105dc98610ad698610acb986001610aa9610ac59a6005018761348f565b519e01613fc9565b6132db565b506000198801906004016138bb565b506134f3565b9360208501516136a5565b80602085015211611255578b828b859383610aef61361b565b505b60018601811061116d57505090610b1c610b0d610b22936132db565b506000198601906004016138bb565b906138d7565b14610b38575b5050610b3390613453565b610759565b906020600592610b62610b538c9b989d99969c9a979a6132db565b506000198501906004016138bb565b50600160ff19825416179055828a8383015160405190815289858201527f416328325568dd8681e48de39e8d89a80ddf01a688fbcb49c28c621071c9333b60403392a40151610bbf6001610bb58b6132db565b50019182546136a5565b90550361115357610bcf866132db565b50805460ff60a01b1916600160a01b179055600454340361111a576005546040518a918291829134906001600160a01b03165af1610c0b613ac5565b6006548b906001600160a01b0316803b156104995781809160448c60405194859384926397478f1d60e01b845260048401523360248401525af1801561110f576110f7575b50507fb08889abce443443404b2caf69aa3ccfb9ebfdf1ad2a634d06e11e24c1067938610c9660018060a01b036005541692604051918291604083526040830190613316565b943460208301521515940390a3856001610caf826132db565b5001546040519081528460208201527f7f05a2f6290fe88fe25ed1665c50706361d709c5003e3067340b9053916fd70760403392a3338952600e60205260408920610cfa8154613453565b9055610d0e610d08876132db565b50613b11565b97895b60808a01518b5260076020528a60038210156110e657610d08610d41836040610d4d948f6080015181522061325e565b90549060031b1c6132db565b6040808c01519101518091109081156110dd575b50610d7457610d6f90613453565b610d11565b896080899a94979b9993969998959801518c52600760205260025b8281116110665750610dcc916080610db39201518d52600760205260408d2061325e565b819391549060031b600019811b9283911b169119161790565b90555b6003610dda886132db565b500154338a52600e60205260408a209060405191610df783612dfb565b8054835260026001820154918260208601520154604084015262015180198111611052576201518001811461103b57600160408301525b6020820152338a52600e60205260408a20815181556020820151600182015560026040830151910155895b60038110610f90575b5050338952600e60205260408920600260405191610e7f83612dfb565b805483526001810154602084015201546040820152895b60038110610ead575b5050610b33905b9038610b28565b815160088201546001600160a01b03168c52600e60205260408c205410610edc57610ed790613453565b610e96565b905060025b818111610f05575060080180546001600160a01b03191633179055610b3338610e9f565b60018110610f7c57600360001982011015610f685760078101546001600160a01b03166003821015610f54576008820180546001600160a01b0319169091179055610f4f90613b04565b610ee1565b634e487b7160e01b8c52603260045260248cfd5b634e487b7160e01b8b52603260045260248bfd5b634e487b7160e01b8b52601160045260248bfd5b604082810151600b8301546001600160a01b03168d52600e602052908c206002015410610fc557610fc090613453565b610e59565b905060025b818111610fec5750600b0180546001600160a01b031916331790553880610e62565b60018110610f7c57600360001982011015610f6857600a8101546001600160a01b03166003821015610f5457600b820180546001600160a01b031916909117905561103690613b04565b610fca565b6110486040830151613453565b6040830152610e2e565b634e487b7160e01b8c52601160045260248cfd5b9091925060808201518c52600760205260408c20600182106110c957908c6110b9610db383604061109f6110c09760001984019061325e565b90549060031b1c946080890151815260076020522061325e565b9055613b04565b90899291610d8f565b634e487b7160e01b8d52601160045260248dfd5b90501538610d61565b505092959690939750939093610dcf565b61110090612db2565b61110b578a38610c50565b8a80fd5b6040513d84823e3d90fd5b60405162461bcd60e51b8152602060048201526011602482015270125b98dbdc9c9958dd081c185e5b595b9d607a1b6044820152606490fd5b9296919495610b3390611168889693966139d0565b610ea6565b928194955061119c92509061118784608081940151613685565b516111978360018b018484613c5a565b613b68565b81156111fb575b60a0810151156111de575b906111cd816111d3936080880151906111c78383613685565b52613685565b50613453565b8b8593928592610af1565b92906111cd816111f06111d394613453565b9592509250506111ae565b60a08101516111a35760405162461bcd60e51b8152602060048201526024808201527f596f752073686f742074686520626f647920796f752073686f756c642070726f6044820152631d1958dd60e21b6064820152608490fd5b60405162461bcd60e51b8152602060048201526013602482015272151a5b59481b1a5b5a5d08195e18d959591959606a1b6044820152606490fd5b50634e487b7160e01b8f52601160045260248ffd5b6001602082829351855501920192019190610a60565b634e487b7160e01b600052603260045260246000fd5b815190835180921492836113a4575b83611391575b8361137e575b83611370575b505015918261135f575b508115611357575b5015611312573880806109db565b60405162461bcd60e51b815260206004820152601760248201527f496e76616c696420696e666c696768744d697373696c650000000000000000006044820152606490fd5b905038611304565b60200151620f4240149150386112fc565b6080015114915038806112f2565b92506060830151606085015114926112ec565b92506040830151604085015114926112e6565b92506020830151602085015114926112e0565b50505060248f634e487b7160e01b81526011600452fd5b60405162461bcd60e51b815260206004820152602560248201527f4f776e6572206f6620746869732070726f6f66206973206e6f7420746865207360448201526432b73232b960d91b6064820152608490fd5b60405162461bcd60e51b815260206004820152601060248201526f24b73b30b634b2103b32b934b334b2b960811b6044820152606490fd5b634e487b7160e01b8f52601160045260248ffd5b60405162461bcd60e51b815260206004820152601460248201527313195d995b08185b1c9958591e481cdbdb1d995960621b6044820152606490fd5b60405162461bcd60e51b815260206004820152601f60248201527f50726576696f7573206c6576656c206e6f742079657420636f6d706c657465006044820152606490fd5b88604051f35b60405162461bcd60e51b815260206004820152602660248201527f43616e206f6e6c7920736f6c76652072756e73206f6e207468652063757272656044820152656e742064617960d01b6064820152608490fd5b60405162461bcd60e51b8152602060048201526012602482015271149d5b88185b1c9958591e481cdbdb1d995960721b6044820152606490fd5b60405162461bcd60e51b815260206004820152602660248201527f4f6e6c7920746865206f776e6572206f66207468652072756e2063616e20736f6044820152651b1d99481a5d60d21b6064820152608490fd5b94506011549460405160a0526115ed60a051612dc5565b87602060a051015287604060a051015287606060a051015287608060a0510152606060a0805101523360a051526001431061197d57604051866020820152600060408201526000194301406060820152606081528060808101106001600160401b03608083011117611967576080810160405260208151910120606060a051015284608060a0510152600160401b8610156119535760018601601155611692866132db565b61193f5760a0805180518354602083015160ff60a01b901515851b166001600160a01b039092166001600160a81b0319909116171783556040810151600184015560608101516002840155608081015160038401550151805190600160401b821161192b57600483015482600485015580831061187e575b5060206004910192018a5260208a208a905b82821061177157505050507fbe33ae7a5df03243155e17a5896a63473638d0a5042d1504b59ea59ff0f2b0a560608060a0510151604051908982528860208301526040820152a161176c866139d0565b610714565b95839a939b94959892999b9791975161179981511515899060ff801983541691151516179055565b60208101516001890155604081015160028901556060810151600389016080526000905b600582106118575750506080015198600888019660009a5b60068c101561183657600760208260c0600194518d815190558d86858301519101558d600260408301519101558d600360608301519101558d600460808301519101558d600560a0830151910155015160068d01550199019b019a976117d5565b50959c9a92989399509550959299603260206001920194019201909161171c565b805160c08190526080805160e08190529182556001918201905291909101906020016117bd565b61188790613057565b61189083613057565b90600485018d5260208d209182015b81830181106118af57505061170a565b8d81556000600182015560006002820155600381015b60088201811061191f5750600881015b6032820181106118e8575060320161189f565b80600060079255600060018201556000600282015560006003820155600060048201556000600582015560006006820155016118d5565b600081556001016118c5565b634e487b7160e01b8b52604160045260248bfd5b634e487b7160e01b89526004899052602489fd5b634e487b7160e01b88526041600452602488fd5b634e487b7160e01b600052604160045260246000fd5b634e487b7160e01b600052601160045260246000fd5b60405162461bcd60e51b815260206004820152601260248201527110dbdb9d1c9858dd081a5cc81c185d5cd95960721b6044820152606490fd5b6001600160401b038235116119fd57602080916119f2366024863560a4350101612fb7565b8152019101906106d6565b8780fd5b8680fd5b8480fd5b36601f8501121561005757604051611a2081612e16565b803660808701116100575785905b608087018210611a4b57505081526080939093019260200161063d565b6020604091611a5a368561326e565b815201910190611a2e565b8380fd5b8280fd5b50346103bb5760403660031901126103bb576020611a8f60243560043561381a565b604051908152f35b50346103bb5760203660031901126103bb57600435906001600160401b0382116103bb57610680611ad3611ace3660048601612fb7565b614506565b611ae06040518092613367565bf35b50346103bb5760203660031901126103bb576004356001600160a01b0381169081900361049957611b116133fb565b6001600160601b0360a01b6005541617600555604051f35b50346103bb57602090816003193601126103bb576004356001600160401b03811161049957611b5c903690600401612fb7565b9060405192611b6a84612ed7565b610a40809436903760405192611b7f84612ed7565b84368537825b60528110611bb75750506040519291835b60528210611ba2578585f35b82806001928651815201940191019092611b96565b80611bc8611bd5928497969761348f565b518160051b860152613453565b939293611b85565b50346103bb5760208060031936011261049957611c066004611bff81356132db565b50016135c5565b6040519180830181845282518091528160408501930191855b828110611c2c5785850386f35b90919293828551805115158352818101518284015260408101516040840152606080820151908401908a915b60058310611c8857505050600192611c7c6080610640930151610100830190613169565b01950193929101611c1f565b8151815287946001909301929182019101611c58565b50346103bb57602090816003193601126103bb575060405190808252816060519182818301526000905b838210611cf65750918060409311611ce9575b601f01601f19168101030190f35b6000838284010152611cdb565b91508082916080015160408287010152018391611cc8565b50346103bb5760203660031901126103bb57600435906011548210156103bb5760a0600583601160005202807f31ecc21a745e3968a04e9570e4425bc18fa8019c68028196b546d1669c200c680154907f31ecc21a745e3968a04e9570e4425bc18fa8019c68028196b546d1669c200c69810154907f31ecc21a745e3968a04e9570e4425bc18fa8019c68028196b546d1669c200c6b7f31ecc21a745e3968a04e9570e4425bc18fa8019c68028196b546d1669c200c6a8201549101549160ff60405194600180881b0381168652861c1615156020850152604084015260608301526080820152f35b50346103bb5760203660031901126103bb576004356001600160a01b0381169081900361049957611e266133fb565b47907fb08889abce443443404b2caf69aa3ccfb9ebfdf1ad2a634d06e11e24c1067938611e7384808060405187875af1611e5e613ac5565b90604051928392604084526040840190613316565b9560208301521515940390a3604051f35b50346103bb5760203660031901126103bb57600435906001600160401b0382116103bb576107c0611ec0611ebb3660048601612fb7565b61454e565b611ae060405180926132b3565b50346103bb5780611edd36613041565b611ee56133fb565b604051916020830152604082015260408152611f0081612dfb565b604051611f0c81612e16565b60018152602036818301377f6bd5c950a8d8df17f772f5af37cb3655737899cbf903264b9795592da439661c611f4182613462565b526006546001600160a01b031691823b15611fa257611f799284928360405180968195829463b46f007160e01b8452600484016145de565b03925af1801561110f57611f8e575b50604051f35b611f9790612db2565b6103bb578038611f88565b505050fd5b50346103bb57806003193601126103bb576020600454604051908152f35b50346103bb57611fd4366130fa565b9160018060a01b03168352600f60205260408320908352602052604082206007821015611a6957602092500154604051908152f35b50346103bb57806003193601126103bb5760115490600182106120355760405160001983018152602090f35b634e487b7160e01b81526011600452602490fd5b50346103bb57602090816003193601126103bb576004356001600160401b0381116104995761207c903690600401612fb7565b906040519261208a84612ebb565b610b8080943690376040519261209f84612ebb565b84368537825b605c81106120d75750506040519291835b605c82106120c2578585f35b828060019286518152019401910190926120b6565b80611bc86120e8928497969761348f565b9392936120a5565b50346103bb57806003193601126103bb57546040516001600160a01b039091168152602090f35b50346103bb5760203660031901126103bb576121316133fb565b600435600455604051f35b50346103bb57806003193601126103bb5760206040516204f1a08152f35b50346103bb578061216a36613041565b6121726133fb565b604051906020918281019084825283815261218c81612e16565b519020604051838101908382528481526121a581612e16565b5190209160405194848601526040850152604084526121c384612dfb565b6060604051936121d285612ea0565b6003855236908501377f6bd5c950a8d8df17f772f5af37cb3655737899cbf903264b9795592da439661c61220584613462565b5261220f8361346f565b52611f418261347f565b50346103bb57806003193601126103bb576006546040516001600160a01b039091168152602090f35b50346103bb576101603660031901126103bb576024356001600160a01b0381168103610057573660631215610057576040519061227e82612e16565b608482368211610057576044905b82821061234c5750503660a31215610057576040516122aa81612e16565b806101049236841161005757905b83821061233257505036610123121561005757604051916122d883612e16565b826101449136831161005757905b82821061232257505035936001600160401b03851161231e57612310612319953690600401612fb7565b93600435613fc9565b604051f35b8580fd5b81358152602091820191016122e6565b6020604091612341368561326e565b8152019101906122b8565b813581526020918201910161228c565b50346103bb57602090816003193601126103bb576004356001600160401b0381116104995761238f903690600401612fb7565b906040519261239d84612e84565b6102c08094369037604051926123b284612e84565b84368537825b601681106123ea5750506040519291835b601682106123d5578585f35b828060019286518152019401910190926123c9565b80611bc86123fb928497969761348f565b9392936123b8565b50346103bb5760203660031901126103bb57600435600381101561049957600801546040516001600160a01b039091168152602090f35b50346103bb5761244936613041565b919081526010602052604081209060038310156103bb57602061246c848461325e565b905460405160039290921b1c6001600160a01b03168152f35b50346103bb57806003193601126103bb5761249e6133fb565b600080546001600160a01b03198116825560405191906001600160a01b03167f8be0079c531659141344cd1fd0a4f28419497f9722a3daafe3b4186f6b6457e08284a3f35b50346103bb5760203660031901126103bb576060906040906001600160a01b0361250b6130e4565b168152600e60205220805490600260018201549101549060405192835260208301526040820152f35b50346103bb57602090816003193601126103bb576004356001600160401b03811161049957612567903690600401612fb7565b906040519261257584612e68565b610cc080943690376040519261258a84612e68565b84368537825b606681106125c25750506040519291835b606682106125ad578585f35b828060019286518152019401910190926125a1565b80611bc86125d3928497969761348f565b939293612590565b50346103bb5760203660031901126103bb57600435600381101561049957600b01546040516001600160a01b039091168152602090f35b50346103bb57806003193601126103bb57602060ff600354166040519015158152f35b50346103bb57806003193601126103bb576020611a8f620151804206426134a3565b50346103bb5760203660031901126103bb57600435906001600160401b0382116103bb5761090061269361268e3660048601612fb7565b614596565b611ae06040518092613236565b50346103bb5760203660031901126103bb576004356001600160a01b03811690819003610499576126cf6133fb565b6001600160601b0360a01b6006541617600655604051f35b50506126f1613124565b38610375565b50346103bb576101403660031901126103bb57612713366131d5565b60e435906001600160401b038211611a6957612736612319923690600401612fb7565b9061012435916101043591613c5a565b50346103bb57806003193601126103bb576020604051614e208152f35b50346103bb576101203660031901126103bb5761277f366131d5565b9060e435906001600160401b0382116103bb5760e06127af846127a53660048701612fb7565b6101043591613b68565b611ae0604051809260c08091805184526020810151602085015260408101516040850152606081015160608501526080810151608085015260a081015160a08501520151910152565b50346103bb5761056061281361280d36613041565b906136b1565b6128206040518093613169565b610540820152f35b50346103bb5760203660031901126103bb57600435906001600160401b0382116103bb5761054061286461285f3660048601612fb7565b6144be565b611ae06040518092613141565b50346103bb5760603660031901126103bb5760e06127af604435602435600435613753565b50346103bb57806003193601126103bb57602060405160148152f35b50346103bb576020906128c436613041565b90825260128352604082209082528252604060018060a01b0391205416604051908152f35b50346103bb5760603660031901126103bb576020611a8f60443560243560043561372a565b50346103bb5760203660031901126103bb576020611a8f60043561444a565b50346103bb5760203660031901126103bb576129476133fb565b60405160043560208201526020815261295f81612e16565b816040519161296d83612e16565b60018352602036818501377ff8e1a15aba9398e019f0b49df1a4fde98ee17ae345cb5f6b5e2c27f5033e8ce76129a284613462565b526006546001600160a01b0316803b15611a69576129d7938360405180968195829463b46f007160e01b8452600484016145de565b03925af1801561110f576129eb5750604051f35b6129f490612db2565b38611f88565b50346103bb57806003193601126103bb57612a13613899565b9062093a80198211612035576020611a8f4262093a8085016134a3565b50346103bb57612a3f366130fa565b90612a486133fb565b8352601260205260408320908352602052604082209060018060a01b03166001600160601b0360a01b825416179055604051f35b50346103bb57612a8b36613041565b90825260026020526040822060405190612aa482612e16565b546001600160a01b0380821680845260a09290921c6020840152919015612afe575b6001600160601b0360208201511693836000190485118415151661203557509261271091604094511692845193845202046020820152f35b50604051612b0b81612e16565b600154828116825260a01c6020820152612ac6565b50346103bb57806003193601126103bb5760206040516105dc8152f35b50346103bb57806003193601126103bb57602060405162093a808152f35b50346103bb5760203660031901126103bb5760206004612b7b81356132db565b500154604051908152f35b50346103bb57806003193601126103bb576005546040516001600160a01b039091168152602090f35b50346103bb57602090816003193601126103bb576004356001600160401b03811161049957612be2903690600401612fb7565b9060405192612bf084612e4c565b610e00809436903760405192612c0584612e4c565b84368537825b60708110612c3d5750506040519291835b60708210612c28578585f35b82806001928651815201940191019092612c1c565b80611bc8612c4e928497969761348f565b939293612c0b565b50346103bb5760203660031901126103bb5760043580151580910361049957612c7d6133fb565b60ff801960035416911617600355604051f35b50346103bb57806003193601126103bb576020611a8f613899565b50346103bb576020611a8f612cbf36613041565b90613868565b50346103bb5760203660031901126103bb5760043563ffffffff60e01b81168091036104995760209063152a902d60e11b8114908115612d0a57506040519015158152f35b6301ffc9a760e01b1490508261044a565b50346103bb5760203660031901126103bb57600435906001600160401b0382116103bb57610400612d57612d523660048601612fb7565b614469565b611ae06040518092613015565b50346103bb5760603660031901126103bb5760043590612d86826024356134a3565b908115612d9e576020611a8f848460443506906136a5565b634e487b7160e01b81526012600452602490fd5b6001600160401b03811161196757604052565b60c081019081106001600160401b0382111761196757604052565b60a081019081106001600160401b0382111761196757604052565b606081019081106001600160401b0382111761196757604052565b604081019081106001600160401b0382111761196757604052565b60e081019081106001600160401b0382111761196757604052565b610e0081019081106001600160401b0382111761196757604052565b610cc081019081106001600160401b0382111761196757604052565b6102c081019081106001600160401b0382111761196757604052565b608081019081106001600160401b0382111761196757604052565b610b8081019081106001600160401b0382111761196757604052565b610a4081019081106001600160401b0382111761196757604052565b61040081019081106001600160401b0382111761196757604052565b61054081019081106001600160401b0382111761196757604052565b61068081019081106001600160401b0382111761196757604052565b6107c081019081106001600160401b0382111761196757604052565b61090081019081106001600160401b0382111761196757604052565b90601f801991011681019081106001600160401b0382111761196757604052565b6001600160401b0381116119675760051b60200190565b81601f8201121561005757803591612fce83612fa0565b92612fdc6040519485612f7f565b808452602092838086019260051b820101928311610057578301905b828210613006575050505090565b81358152908301908301612ff8565b916000915b6020908184101561303a579080600192865181520194019201919261301a565b5050915050565b6040906003190112610057576004359060243590565b7f051eb851eb851eb851eb851eb851eb851eb851eb851eb851eb851eb851eb851e811160011661197d5760320290565b80600019046005118115151661197d5760050290565b6001600160ff1b03811160011661197d5760011b90565b7f3333333333333333333333333333333333333333333333333333333333333333811160011661197d5760050290565b600435906001600160a01b038216820361005757565b6060906003190112610057576004356001600160a01b038116810361005757906024359060443590565b503461005757600036600319011261005757602060405160028152f35b6000915b602a831061315257505050565b600190825181526020809101920192019190613145565b906000905b6006821061317b57505050565b602060e0826131c9600194875160c08091805184526020810151602085015260408101516040850152606081015160608501526080810151608085015260a081015160a08501520151910152565b0193019101909161316e565b60e0906003190112610057576040519060e082018281106001600160401b0382111761196757604052816004358152602435602082015260443560408201526064356060820152608435608082015260a43560a082015260c060c435910152565b6000915b6048831061324757505050565b60019082518152602080910192019201919061323a565b60038210156112bb570190600090565b9080601f83011215610057576040519161328783612e16565b82906040810192831161005757905b8282106132a35750505090565b8135815260209182019101613296565b6000915b603e83106132c457505050565b6001908251815260208091019201920191906132b7565b6011548110156112bb576005906011600052027f31ecc21a745e3968a04e9570e4425bc18fa8019c68028196b546d1669c200c680190600090565b91908251928382526000905b84821061334f575092806020939411613342575b601f01601f1916010190565b6000838284010152613336565b90602090818082850101519082860101520190613322565b6000915b6034831061337857505050565b60019082518152602080910192019201919061336b565b81601f82011215610057578035906133a682612fa0565b926040926133b684519586612f7f565b808552602091828087019260061b85010193818511610057578301915b8483106133e35750505050505090565b8386916133f0848661326e565b8152019201916133d3565b6000546001600160a01b0316330361340f57565b606460405162461bcd60e51b815260206004820152602060248201527f4f776e61626c653a2063616c6c6572206973206e6f7420746865206f776e65726044820152fd5b600019811461197d5760010190565b8051156112bb5760200190565b8051600110156112bb5760400190565b8051600210156112bb5760600190565b80518210156112bb5760209160051b010190565b81811061197d570390565b60405191906000835b600582106134dd5750505060a082018281106001600160401b0382111761196757604052565b60016020819285548152019301910190916134b7565b90604080519261350284612de0565b8360ff82541615158152600193848301549160209283820152600290818501548682015260036135338187016134ae565b906060918284015287519761354789612dc5565b60009760080195895b6006808b10156135b257898d9260079286519061356c82612e31565b8c548252858d0154848301528b8d015488830152888d01548a83015260048d0154608083015260058d015460a08301528c015460c0820152815201980199019896613550565b5050995050505092505050608091500152565b9081546135d181612fa0565b926135df6040519485612f7f565b818452600090815260208082208186015b8484106135fe575050505050565b60328360019261360d856134f3565b8152019201930192906135f0565b6040519061362882612e31565b8160c06000918281528260208201528260408201528260608201528260808201528260a08201520152565b6040519061366082612dc5565b8160005b60c08110613670575050565b60209061367b61361b565b8184015201613664565b9060068110156112bb5760051b0190565b6127108119811161197d570190565b8119811161197d570190565b91906136bb613653565b9260005b828111156136d8575050600119811161197d5760010190565b80613710816136eb61372594878761372a565b6040805160208101918883528481830152815261370781612dfb565b51902090613753565b61371a8288613685565b526111cd8187613685565b6136bf565b916040519160208301938452604083015260608201526060815261374d81612ea0565b51902090565b61377b613812929361376361361b565b5061376c61361b565b948186528360c087015261381a565b60a08401526040519060209182810191825282815261379981612e16565b519020620f424090818106838601526040518381019182528381526137bd81612e16565b51902090810660408501526040518281019182528281526137dd81612e16565b519020614e20916137ef838306613696565b606086015260405190808201928352815261380981612e16565b51902006613696565b608082015290565b600116801960011161197d5760009161384957505060245b6103e890806000190482118115151661197d570290565b61385590600101613087565b9060021982116120355750600201613832565b906001431061197d576040519060208201928352604082015260001943014060608201526060815261374d81612ea0565b6204f1a0421061197d576138b862093a806204f19f19420106426134a3565b90565b80548210156112bb576000526032602060002091020190600090565b92906139ba576138f8829392511515839060ff801983541691151516179055565b6020918284015192600193848301556040948581015193600294858501556060918281015160039081870190896000915b600583106139a6575050505060086080809301519601936000965b60068089101561399857815180518855888101518c8901558c8101518b890155838101518589015585810151600489015560a0810151600589015560c0015190870155968901966007909501948601613944565b505050505095505050505050565b80518455928101929101908a908801613929565b634e487b7160e01b600052600060045260246000fd5b60036139db826132db565b5001549060046139ea826132db565b500154600119811161197d576001019060405192613a0784612de0565b6000845260006020850152604084019260008452604051613a2781612de0565b60a0368237606086015260808501613a3d613653565b8152613a498285613868565b8552613a5582846136b1565b5090526004613a63846132db565b5001938454600160401b811015611967577f70f3b6a85b7a5047df9e61440f8b6480a7cd8a96f849a4092d0a22303a5dbb0f96610b1c826080986001613aab950181556138bb565b5190604051938452602084015260408301526060820152a1565b3d15613aff573d906001600160401b0382116119675760405191613af3601f8201601f191660200184612f7f565b82523d6000602084013e565b606090565b801561197d576000190190565b90604051613b1e81612dc5565b60a0613b636004839560ff8154600180871b0381168752851c1615156020860152600181015460408601526002810154606086015260038101546080860152016135c5565b910152565b9190613b7261361b565b50613b7c82613087565b916005928019841161197d57613b949084018361348f565b516020850152613ba381613087565b8019841161197d576001198482011161197d576006613bc391018361348f565b516040850152613bd281613087565b8019841161197d576002198482011161197d576007613bf291018361348f565b516060850152613c0181613087565b908119841161197d576003198483011161197d57613c256008613c3093018461348f565b516080860152613087565b918219811161197d576004199083011161197d576009613c5192019061348f565b5160a082015290565b9291906020928385015190613c6e846130b4565b906005918019831161197d57613c8f90613c8783613087565b9084016136a5565b600219939084811161197d576002613ca891018661348f565b5103613f1f576040870151613cbc866130b4565b8019841161197d57613cd990613cd184613087565b9085016136a5565b600119811161197d5784600182011161197d576003613cf991018661348f565b5103613ee557606087015196613d0e866130b4565b8019841161197d57613d2390613cd184613087565b9784891161197d578460028a011161197d57613d436004809a018761348f565b5103613eae576080810151613d57876130b4565b80198511613e9957613d7490613d6c85613087565b9086016136a5565b6003198111613e9957856003820111613e995784613d9391018761348f565b5103613e625760a0613da7910151956130b4565b9081198311613e4d5790613dbe613dc59392613087565b91016136a5565b906004198211613e385785820111613e2357906006613de592019061348f565b5103613def575050565b60405162461bcd60e51b815291820152600e60248201526d496e76616c69642072616469757360901b604482015260649150fd5b601185634e487b7160e01b6000525260246000fd5b601186634e487b7160e01b6000525260246000fd5b601188634e487b7160e01b6000525260246000fd5b60405162461bcd60e51b8152808901889052601060248201526f496e76616c696420766563746f72207960801b6044820152606490fd5b60118a634e487b7160e01b6000525260246000fd5b60405162461bcd60e51b8152808901889052601060248201526f092dcecc2d8d2c840eccac6e8dee440f60831b6044820152606490fd5b60405162461bcd60e51b8152600481018790526012602482015271496e76616c696420706f736974696f6e207960701b6044820152606490fd5b60405162461bcd60e51b8152600481018790526012602482015271092dcecc2d8d2c840e0dee6d2e8d2dedc40f60731b6044820152606490fd5b90816020910312610057575180151581036100575790565b6000915b60028310613f8257505050565b600190825181526020809101920192019190613f75565b906000905b60028210613fab57505050565b6020604082613fbd6001948751613f71565b01930191019091613f9e565b9390919293600281146000146140cc5750916105049161403461401594614029613ff560209899614469565b9161401f6040519a8b998a98630f3022c960e21b8a5260048a0190613f71565b6044880190613f99565b60c4860190613f71565b610104840190613015565b6001600160a01b03165afa9081156140c057600091614092575b501561405657565b60405162461bcd60e51b815260206004820152601460248201527324b73b30b634b21019103137b23c90383937b7b360611b6044820152606490fd5b6140b3915060203d81116140b9575b6140ab8183612f7f565b810190613f59565b3861404e565b503d6140a1565b6040513d6000823e3d90fd5b600381036141975750916106449161411b614015946141106140f0602098996144be565b9161401f6040519a8b998a986371dd4db160e11b8a5260048a0190613f71565b610104840190613141565b6001600160a01b03165afa9081156140c057600091614179575b501561413d57565b60405162461bcd60e51b815260206004820152601460248201527324b73b30b634b21019903137b23c90383937b7b360611b6044820152606490fd5b614191915060203d81116140b9576140ab8183612f7f565b38614135565b929390600495848780961460001461426b5750926141ef610784936141e46020979461401f6141c96140159b99614506565b936040519b8c9a8b99632a6d5ed560e01b8b528a0190613f71565b610104840190613367565b6001600160a01b03165afa9081156140c05760009161424d575b50156142125750565b60649060206040519162461bcd60e51b8352820152601460248201527324b73b30b634b2101a103137b23c90383937b7b360611b6044820152fd5b614265915060203d81116140b9576140ab8183612f7f565b38614209565b600581036143355750926142b96108c4936142ae6020979461401f6142936140159b9961454e565b936040519b8c9a8b9963ea59061d60e01b8b528a0190613f71565b6101048401906132b3565b6001600160a01b03165afa9081156140c057600091614317575b50156142dc5750565b60649060206040519162461bcd60e51b8352820152601460248201527324b73b30b634b2101a903137b23c90383937b7b360611b6044820152fd5b61432f915060203d81116140b9576140ab8183612f7f565b386142d3565b6006919293949550146000146144065760209361438a614015969461437f610a049561401f6143648c97614596565b936040519b8c9a8b996311b5352360e01b8b528a0190613f71565b610104840190613236565b6001600160a01b03165afa9081156140c0576000916143e8575b50156143ad5750565b60649060206040519162461bcd60e51b8352820152601460248201527324b73b30b634b2101b103137b23c90383937b7b360611b6044820152fd5b614400915060203d81116140b9576140ab8183612f7f565b386143a4565b60405162461bcd60e51b8152602081880152601860248201527f496e76616c6964206e756d626572206f6620626f6469657300000000000000006044820152606490fd5b600c811061197d57600a90600b1901046001811061197d576000190190565b9060405161447681612ef3565b61040080913690376040519061448b82612ef3565b36823760005b6020811061449e57509150565b806144ac6144b9928661348f565b518160051b840152613453565b614491565b906040516144cb81612f0f565b6105408091369037604051906144e082612f0f565b36823760005b602a81106144f357509150565b806144ac614501928661348f565b6144e6565b9060405161451381612f2b565b61068080913690376040519061452882612f2b565b36823760005b6034811061453b57509150565b806144ac614549928661348f565b61452e565b9060405161455b81612f47565b6107c080913690376040519061457082612f47565b36823760005b603e811061458357509150565b806144ac614591928661348f565b614576565b906040516145a381612f63565b6109008091369037604051906145b882612f63565b36823760005b604881106145cb57509150565b806144ac6145d9928661348f565b6145be565b9092916040820191604081528451809352606081019260208096019060005b818110614617575050506138b89394818403910152613316565b8251865294870194918701916001016145fd56fea26469706673582212209d3b8d99e8481610cca710d68435252770480bff91d394fe4a6ba8d0e35e5ba564736f6c634300080f003331ecc21a745e3968a04e9570e4425bc18fa8019c68028196b546d1669c200c68",
  "linkReferences": {},
  "deployedLinkReferences": {}
}