{
  "_format": "hh-sol-artifact-1",
  "contractName": "ExternalMetadata",
  "sourceName": "contracts/ExternalMetadata.sol",
  "abi": [
    {
      "inputs": [],
      "stateMutability": "nonpayable",
      "type": "constructor"
    },
    {
      "anonymous": false,
      "inputs": [
        {
          "indexed": true,
          "internalType": "address",
          "name": "previousOwner",
          "type": "address"
        },
        {
          "indexed": true,
          "internalType": "address",
          "name": "newOwner",
          "type": "address"
        }
      ],
      "name": "OwnershipTransferred",
      "type": "event"
    },
    {
      "inputs": [],
      "name": "anybodyProblem",
      "outputs": [
        {
          "internalType": "address payable",
          "name": "",
          "type": "address"
        }
      ],
      "stateMutability": "view",
      "type": "function"
    },
    {
      "inputs": [
        {
          "internalType": "uint256",
          "name": "tokenId",
          "type": "uint256"
        }
      ],
      "name": "getHTML",
      "outputs": [
        {
          "internalType": "string",
          "name": "",
          "type": "string"
        }
      ],
      "stateMutability": "view",
      "type": "function"
    },
    {
      "inputs": [
        {
          "internalType": "uint256",
          "name": "tokenId",
          "type": "uint256"
        }
      ],
      "name": "getMetadata",
      "outputs": [
        {
          "internalType": "string",
          "name": "",
          "type": "string"
        }
      ],
      "stateMutability": "view",
      "type": "function"
    },
    {
      "inputs": [
        {
          "internalType": "uint256",
          "name": "tokenId",
          "type": "uint256"
        }
      ],
      "name": "getName",
      "outputs": [
        {
          "internalType": "string",
          "name": "",
          "type": "string"
        }
      ],
      "stateMutability": "pure",
      "type": "function"
    },
    {
      "inputs": [
        {
          "internalType": "uint256",
          "name": "tokenId",
          "type": "uint256"
        }
      ],
      "name": "getPath",
      "outputs": [
        {
          "internalType": "string",
          "name": "",
          "type": "string"
        }
      ],
      "stateMutability": "view",
      "type": "function"
    },
    {
      "inputs": [
        {
          "internalType": "uint256",
          "name": "tokenId",
          "type": "uint256"
        }
      ],
      "name": "getSVG",
      "outputs": [
        {
          "internalType": "string",
          "name": "",
          "type": "string"
        }
      ],
      "stateMutability": "view",
      "type": "function"
    },
    {
      "inputs": [],
      "name": "owner",
      "outputs": [
        {
          "internalType": "address",
          "name": "",
          "type": "address"
        }
      ],
      "stateMutability": "view",
      "type": "function"
    },
    {
      "inputs": [],
      "name": "renounceOwnership",
      "outputs": [],
      "stateMutability": "nonpayable",
      "type": "function"
    },
    {
      "inputs": [
        {
          "internalType": "bytes32",
          "name": "seed",
          "type": "bytes32"
        }
      ],
      "name": "seedToColor",
      "outputs": [
        {
          "internalType": "string",
          "name": "",
          "type": "string"
        }
      ],
      "stateMutability": "pure",
      "type": "function"
    },
    {
      "inputs": [],
      "name": "speedruns",
      "outputs": [
        {
          "internalType": "address payable",
          "name": "",
          "type": "address"
        }
      ],
      "stateMutability": "view",
      "type": "function"
    },
    {
      "inputs": [
        {
          "internalType": "address",
          "name": "newOwner",
          "type": "address"
        }
      ],
      "name": "transferOwnership",
      "outputs": [],
      "stateMutability": "nonpayable",
      "type": "function"
    },
    {
      "inputs": [
        {
          "internalType": "address payable",
          "name": "anybodyProblem_",
          "type": "address"
        }
      ],
      "name": "updateAnybodyProblemAddress",
      "outputs": [],
      "stateMutability": "nonpayable",
      "type": "function"
    },
    {
      "inputs": [
        {
          "internalType": "address payable",
          "name": "speedruns_",
          "type": "address"
        }
      ],
      "name": "updateSpeedrunsAddress",
      "outputs": [],
      "stateMutability": "nonpayable",
      "type": "function"
    }
  ],
  "bytecode": "0x6080806040523461005b5760008054336001600160a01b0319821681178355916001600160a01b03909116907f8be0079c531659141344cd1fd0a4f28419497f9722a3daafe3b4186f6b6457e09084a3611d3090816100618239f35b600080fdfe60806040526004361015610013575b600080fd5b60003560e01c8063102581d21461011757806319d4c3f91461010e5780635542437b146101055780636b8ff574146100fc578063715018a6146100f357806387b07780146100ea5780638da5cb5b146100e1578063a574cea4146100d8578063be985ac9146100cf578063e1765073146100c6578063e2ce81a5146100bd578063e82fedd7146100b45763f2fde38b146100ac57600080fd5b61000e610966565b5061000e610946565b5061000e6108fe565b5061000e6108e4565b5061000e6108cf565b5061000e6103ca565b5061000e6103a0565b5061000e610376565b5061000e610314565b5061000e6102fa565b5061000e6102b2565b5061000e610277565b5061000e610193565b602090600319011261000e5760043590565b918091926000905b82821061015257501161014b575050565b6000910152565b9150806020918301518186015201829161013a565b604091602082526101878151809281602086015260208686019101610132565b601f01601f1916010190565b503461000e5761027361021b6101b06101ab36610120565b610ee3565b61021660466040518093753c68746d6c3e3c626f64793e3c696d67207372633d2760501b60208301526101ed815180926020603686019101610132565b81016f139f1e17b137b23c9f1e17b43a36b61f60811b6036820152036026810184520182610b52565b610daf565b610267603660405180937519185d184e9d195e1d0bda1d1b5b0ed8985cd94d8d0b60521b60208301526102578151809260208686019101610132565b8101036016810184520182610b52565b60405191829182610167565b0390f35b503461000e57600036600319011261000e576001546040516001600160a01b039091168152602090f35b6001600160a01b0381160361000e57565b503461000e57602036600319011261000e576004356102d0816102a1565b6102d8610a33565b600280546001600160a01b0319166001600160a01b0392909216919091179055005b503461000e5761027361026761030f36610120565b610e9b565b503461000e576000806003193601126103735761032f610a33565b80546001600160a01b0319811682556040519082906001600160a01b03167f8be0079c531659141344cd1fd0a4f28419497f9722a3daafe3b4186f6b6457e08284a3f35b80fd5b503461000e57600036600319011261000e576002546040516001600160a01b039091168152602090f35b503461000e57600036600319011261000e576000546040516001600160a01b039091168152602090f35b503461000e576103d936610120565b6103e281610e9b565b906103ec81610ee3565b6103f582610ee3565b60015490939061041b9061040f906001600160a01b031681565b6001600160a01b031690565b60408051632b99bd5f60e21b815260048101869052909460a082602481865afa9283156108c2575b60009182918394849661087c575b508851635e964aa960e11b8152600481019290925260009082908180602481015b03915afa90811561086f575b60009161084e575b505161049181610c47565b9215610843576104a86104a2611a63565b94611c4b565b946104b290611a83565b926104bc90611a83565b906104c690611a83565b916104d090611a83565b8851605b60f81b6020820152958695919491602187017f7b2274726169745f74797065223a22736f6c766564222c2276616c7565223a008152601f0161051591610a8b565b7f7d2c207b2274726169745f74797065223a2273656564222c2276616c7565223a8152601160f91b602082015260210161054e91610a8b565b7f227d2c207b2274726169745f74797065223a22646179222c2276616c7565223a8152601160f91b602082015260210161058791610a8b565b7f227d2c207b2274726169745f74797065223a22626f6479436f756e74222c227681526630b63ab2911d1160c91b60208201526027016105c691610a8b565b7f227d2c207b2274726169745f74797065223a226c6576656c222c2276616c7565815262111d1160e91b602082015260230161060191610a8b565b7f227d2c207b2274726169745f74797065223a22616363756d756c61746976655481526d34b6b29116113b30b63ab2911d1160911b6020820152602e0161064791610a8b565b62227d5d60e81b81526003010394601f199586810183526106689083610b52565b8451683d913730b6b2911d1160b91b60208201529384936029850161068c91610a8b565b61088b60f21b81526002017f226465736372697074696f6e223a2022416e79626f64792050726f626c656d2081527f2868747470733a2f2f616e79626f64792e747269666c652e6c69666529222c006020820152603f01691134b6b0b3b2911d101160b11b8152600a016106ff91610a8b565b61088b60f21b81526002016d1134b6b0b3b2afbab936111d101160911b8152600e0161072a91610a8b565b61088b60f21b81526002017f22686f6d655f75726c223a202268747470733a2f2f616e79626f64792e747269815269199b194b9b1a5999488b60b21b6020820152602a017f2265787465726e616c5f75726c223a202268747470733a2f2f616e79626f647981526d0b9d1c9a599b194b9b1a5999488b60921b6020820152602e016d01130ba3a3934b13aba32b9911d160951b8152600e016107cb91610a8b565b607d60f81b81526001010383810182526107e59082610b52565b6107ee90610daf565b81517f646174613a6170706c69636174696f6e2f6a736f6e3b6261736536342c000000602082015292908390603d820161082791610a8b565b0390810183526108379083610b52565b51610273819282610167565b6104a86104a2611a42565b610869913d8091833e6108618183610b52565b810190611188565b38610486565b6108776110de565b61047e565b90955061047294506108aa9193506000925060a03d81116108bb575b6108a28183610b52565b8101906110a7565b979096929591945090925090610451565b503d610898565b6108ca6110de565b610443565b503461000e576102736102676101ab36610120565b503461000e576102736102676108f936610120565b611338565b503461000e57602036600319011261000e5760043561091c816102a1565b610924610a33565b600180546001600160a01b0319166001600160a01b0392909216919091179055005b503461000e57602036600319011261000e5761027361026760043561197e565b503461000e57602036600319011261000e57600435610984816102a1565b61098c610a33565b6001600160a01b039081169081156109df57600080546001600160a01b031981168417825560405191939192167f8be0079c531659141344cd1fd0a4f28419497f9722a3daafe3b4186f6b6457e08484a3f35b60405162461bcd60e51b815260206004820152602660248201527f4f776e61626c653a206e6577206f776e657220697320746865207a65726f206160448201526564647265737360d01b6064820152608490fd5b6000546001600160a01b03163303610a4757565b606460405162461bcd60e51b815260206004820152602060248201527f4f776e61626c653a2063616c6c6572206973206e6f7420746865206f776e65726044820152fd5b90610a9e60209282815194859201610132565b0190565b50634e487b7160e01b600052604160045260246000fd5b60e0810190811067ffffffffffffffff821117610ad557604052565b610add610aa2565b604052565b60a0810190811067ffffffffffffffff821117610ad557604052565b6020810190811067ffffffffffffffff821117610ad557604052565b60c0810190811067ffffffffffffffff821117610ad557604052565b6040810190811067ffffffffffffffff821117610ad557604052565b90601f8019910116810190811067ffffffffffffffff821117610ad557604052565b60209067ffffffffffffffff8111610b92575b601f01601f19160190565b610b9a610aa2565b610b87565b60405190610bac82610afe565b60008252565b604051906060820182811067ffffffffffffffff821117610c23575b604052604082527f6768696a6b6c6d6e6f707172737475767778797a303132333435363738392b2f6040837f4142434445464748494a4b4c4d4e4f505152535455565758595a61626364656660208201520152565b610c2b610aa2565b610bce565b50634e487b7160e01b600052601160045260246000fd5b6001906001198111610c57570190565b610a9e610c30565b6002906002198111610c57570190565b6020906020198111610c57570190565b81198111610c57570190565b8115610c95570490565b634e487b7160e01b600052601260045260246000fd5b6001600160fe1b038111600116610cc3575b60021b90565b610ccb610c30565b610cbd565b806000190460041181151516610cc35760021b90565b7f028f5c28f5c28f5c28f5c28f5c28f5c28f5c28f5c28f5c28f5c28f5c28f5c28f8111600116610d17575b60640290565b610d1f610c30565b610d11565b8060001904821181151516610d37570290565b610d3f610c30565b0290565b604051906080820182811067ffffffffffffffff821117610d70575b604052604282526060366020840137565b610d78610aa2565b610d5f565b90610d8782610b74565b610d946040519182610b52565b8281528092610da5601f1991610b74565b0190602036910137565b805115610e8f57610dbe610bb2565b610dda610dd5610dce8451610c5f565b6003900490565b610cab565b91610dec610de784610c6f565b610d7d565b92835280815182019060208501935b828210610e3d57505050600390510680600114610e2c57600214610e1d575090565b603d60f81b6000199091015290565b50613d3d60f01b6001199091015290565b9091936004906003809401938451600190603f9082828260121c16880101518553828282600c1c16880101518386015382828260061c1688010151600286015316850101519082015301939190610dfb565b50610e98610b9f565b90565b610ea490611a83565b610e98602960405180936850726f626c656d202360b81b6020830152610ed38151809260208686019101610132565b8101036009810184520182610b52565b610e98610ff261105961108e9361104561102c610f08610f0284611338565b93610e9b565b6110266040519687957f3c3f786d6c2076657273696f6e3d22312e302220656e636f64696e673d22757460208801527f662d38223f3e3c73766720786d6c6e733d22687474703a2f2f7777772e77332e60408801527f6f72672f323030302f7376672220206865696768743d2231303025222077696460608801527f74683d2231303025222076696577426f783d223020302031303030203130303060808801527f22207374796c653d226261636b67726f756e642d636f6c6f723a677265793b2260a08801526f1f1e39ba3cb6329f1e17b9ba3cb6329f60811b60c088015260d0870190610a8b565b7f3c7465787420783d2235302220793d223535302220636c6173733d226e616d65815261111f60f11b602082015260220190565b90610a8b565b6c1e17ba32bc3a1f1e17b9bb339f60991b8152600d0190565b0391610216601f1993848101835282610b52565b6040517f646174613a696d6167652f7376672b786d6c3b6261736536342c0000000000006020820152938491603a8301611026565b03908101835282610b52565b5190811515820361000e57565b908160a091031261000e5780516110bd816102a1565b916110ca6020830161109a565b916040810151916080606083015192015190565b506040513d6000823e3d90fd5b9080601f8301121561000e5760409182519261110684610b1a565b839261054083019281841161000e57935b83851061112657505050505090565b60e08583031261000e57825160e09161113e82610ab9565b8651825260209182880151838201528588015186820152606080890151908201526080808901519082015260a0808901519082015260c08089015190820152815201940193611117565b6020808284031261000e57815167ffffffffffffffff9283821161000e57019083601f8301121561000e57815192831161129f575b6040938451946111d2838660051b0187610b52565b84865282860191836106408097028601019481861161000e578401925b858410611200575050505050505090565b868483031261000e57825161121481610ae2565b61121d8561109a565b81528585015186820152838501518482015282607f8601121561000e57835161124581610ae2565b8061010087019185831161000e578a94928994928792606090818c01905b84821061128957505084015261127991906110eb565b60808201528152019301926111ef565b815181528f99508d988b96509182019101611263565b6112a7610aa2565b6111bd565b9081602091031261000e575190565b91906105608382031261000e576112d561054091846110eb565b92015190565b6001906000198114610c57570190565b50634e487b7160e01b600052603260045260246000fd5b906006811015611314575b60051b0190565b61131c6112eb565b61130d565b81811061132c570390565b611334610c30565b0390565b611340610b9f565b60015490919061135a9061040f906001600160a01b031681565b60408051632b99bd5f60e21b815260048101849052919260a09291908383602481885afa928315611971575b600093611946575b508151635e964aa960e11b8152600481019190915260008180602481015b0381885afa908115611939575b600091611920575b5051815190631da686ff60e31b825260209384836004818a5afa928315611913575b6000936118e4575b508351634dbe7f7360e01b81526004810191909152602481019190915294610560908190879060449082905afa9586156118d7575b60009182976118a3575b505094939291906000955b858710611446575050505050505090565b9091929394959682858961145a8186611302565b518981015161146890610cd0565b61147185610ce6565b61147a91610c7f565b6114848582610c8b565b61148d81611a83565b9561149791610d24565b6114a091611321565b6114a990611a83565b9083810191888351906114bb91610c8b565b92516114c78a85610d24565b6114d091611321565b926114da90611a83565b926114e490611a83565b928a519384918783016114f691610a8b565b601760f91b815260010161150991610a8b565b0395601f1996878101855261151e9085610b52565b8a8301928a84519061152f91610c8b565b935161153b8c86610d24565b61154491611321565b9361154e90611a83565b9361155890611a83565b938c5194859189830161156a91610a8b565b601760f91b815260010161157d91610a8b565b03888101855261158d9085610b52565b805161159890611a83565b908c5196878981016115c3906012907103a3930b739b337b93696b7b934b3b4b71d160751b81520190565b6115cd9089610a8b565b620383c160ed1b81526003016115e39088610a8b565b630383c1d960e51b8152600401038a810189526116009089610b52565b61160990611a83565b9060c001516116179061197e565b968d519a8b998a0161162891610a8b565b7f3c7374796c653e20406b65796672616d6573206d6f7665456c6c6970736500008152601e016116589084610a8b565b670103d901812903d960c51b81526008016116739082610a8b565b7f207472616e73666f726d3a20726f74617465283064656729207472616e736c6181527f7465283070782c2031307078293b207d2031303025207b20000000000000000060208201526038016116c891610a8b565b7f207472616e73666f726d3a20726f746174652833363064656729207472616e738152736c617465283070782c2031307078293b207d207d60601b60208201526034016a656c6c697073652369642d60a81b8152600b016117299083610a8b565b7f207b20616e696d6174696f6e3a206d6f7665456c6c697073650000000000000081526019016117599083610a8b565b7f20347320696e66696e697465206c696e6561723b20616e696d6174696f6e2d64815266656c61793a202d60c81b602082015260270161179891610a8b565b6b399d903e9e17b9ba3cb6329f60a11b8152600c016f3c656c6c697073652069643d2269642d60801b81526010016117cf91610a8b565b651110393c9e9160d11b81526006016117e89082610a8b565b601760f91b81526001016117fc9083610a8b565b651110393c1e9160d11b815260060161181491610a8b565b601760f91b815260010161182791610a8b565b65111031bc9e9160d11b815260060161183f91610a8b565b65111031bc1e9160d11b815260060161185791610a8b565b6711103334b6361e9160c11b815260080161187191610a8b565b631110179f60e11b815260040103908101825261188e9082610b52565b96611898906112db565b959493929190611435565b6118c793975080919250903d106118d0575b6118bf8183610b52565b8101906112bb565b9490388061142a565b503d6118b5565b6118df6110de565b611420565b611905919350853d871161190c575b6118fd8183610b52565b8101906112ac565b91386113eb565b503d6118f3565b61191b6110de565b6113e3565b611933913d8091833e6108618183610b52565b386113c1565b6119416110de565b6113b9565b6113ac919350611964600091863d88116108bb576108a28183610b52565b935050505093915061138e565b6119796110de565b611386565b610e98602591611a27611a1961ffff611026611a0b6119d060286119c9606482878b60201c16069683198811611a35575b6119be610168828d1606611a83565b9a60101c1606611a83565b9401611a83565b92604051988997630d0e6d8560e31b60208a01526119f881518092602060248d019101610132565b8801600b60fa1b60248201520190610a8b565b61094b60f21b815260020190565b61252960f01b815260020190565b03601f198101835282610b52565b611a3d610c30565b6119af565b60405190611a4f82610b36565b600582526466616c736560d81b6020830152565b60405190611a7082610b36565b60048252637472756560e01b6020830152565b806000917a184f03e93ff9f4daa797ed6e38ed64bf6a1f01000000000000000080821015611bb8575b506d04ee2d6d415b85acef810000000080831015611ba9575b50662386f26fc1000080831015611b9a575b506305f5e10080831015611b8b575b5061271080831015611b7c575b506064821015611b6c575b600a80921015611b62575b600190816021611b1a828701610d7d565b95860101905b611b2c575b5050505090565b600019019083906f181899199a1a9b1b9c1cb0b131b232b360811b8282061a835304918215611b5d57919082611b20565b611b25565b9160010191611b09565b9190606460029104910191611afe565b60049193920491019138611af3565b60089193920491019138611ae6565b60109193920491019138611ad7565b60209193920491019138611ac5565b604093508104915038611aac565b906020918051821015611bd857010190565b611be06112eb565b010190565b8015611bf3575b6000190190565b611bfb610c30565b611bec565b15611c0757565b606460405162461bcd60e51b815260206004820152602060248201527f537472696e67733a20686578206c656e67746820696e73756666696369656e746044820152fd5b611c53610d43565b90815115611ced575b603060208301538151600190811015611ce0575b90607860218401536041915b808311611c8f5750610e98915015611c00565b9080600f611ccc92166010811015611cd3575b6f181899199a1a9b1b9c1cb0b131b232b360811b901a611cc28587611bc6565b5360041c92611be5565b9190611c7c565b611cdb6112eb565b611ca2565b611ce86112eb565b611c70565b611cf56112eb565b611c5c56fea2646970667358221220bca4a98e884688ddddcd6e784d564c0e1ff8157630951acfacffaead61b4214064736f6c634300080f0033",
  "linkReferences": {},
  "deployedLinkReferences": {}
}