{
  "_format": "hh-sol-artifact-1",
  "contractName": "Groth16Verifier",
  "sourceName": "contracts/Game_8_50Verifier.sol",
  "abi": [
    {
      "inputs": [
        {
          "internalType": "uint256[2]",
          "name": "_pA",
          "type": "uint256[2]"
        },
        {
          "internalType": "uint256[2][2]",
          "name": "_pB",
          "type": "uint256[2][2]"
        },
        {
          "internalType": "uint256[2]",
          "name": "_pC",
          "type": "uint256[2]"
        },
        {
          "internalType": "uint256[92]",
          "name": "_pubSignals",
          "type": "uint256[92]"
        }
      ],
      "name": "verifyProof",
      "outputs": [
        {
          "internalType": "bool",
          "name": "",
          "type": "bool"
        }
      ],
      "stateMutability": "view",
      "type": "function"
    }
  ],
  "bytecode": "0x6080806040523461001657613e16908161001c8239f35b600080fdfe6080604052600436101561001257600080fd5b6000803560e01c63cf04a14f1461002857600080fd5b346104d857610c803660031901126104d857610043366104db565b3660c4116104d457610054366104ed565b90610c843681116104d057916104cc916104c76020959461040060405261007d610104356104fb565b610089610124356104fb565b610095610144356104fb565b6100a1610164356104fb565b6100ad610184356104fb565b6100b96101a4356104fb565b6100c56101c4356104fb565b6100d16101e4356104fb565b6100dd610204356104fb565b6100e9610224356104fb565b6100f5610244356104fb565b610101610264356104fb565b61010d610284356104fb565b6101196102a4356104fb565b6101256102c4356104fb565b6101316102e4356104fb565b61013d610304356104fb565b610149610324356104fb565b610155610344356104fb565b610161610364356104fb565b61016d610384356104fb565b6101796103a4356104fb565b6101856103c4356104fb565b6101916103e4356104fb565b61019d610404356104fb565b6101a9610424356104fb565b6101b5610444356104fb565b6101c1610464356104fb565b6101cd610484356104fb565b6101d96104a4356104fb565b6101e56104c4356104fb565b6101f16104e4356104fb565b6101fd610504356104fb565b610209610524356104fb565b610215610544356104fb565b610221610564356104fb565b61022d610584356104fb565b6102396105a4356104fb565b6102456105c4356104fb565b6102516105e4356104fb565b61025d610604356104fb565b610269610624356104fb565b610275610644356104fb565b610281610664356104fb565b61028d610684356104fb565b6102996106a4356104fb565b6102a56106c4356104fb565b6102b16106e4356104fb565b6102bd610704356104fb565b6102c9610724356104fb565b6102d5610744356104fb565b6102e1610764356104fb565b6102ed610784356104fb565b6102f96107a4356104fb565b6103056107c4356104fb565b6103116107e4356104fb565b61031d610804356104fb565b610329610824356104fb565b610335610844356104fb565b610341610864356104fb565b61034d610884356104fb565b6103596108a4356104fb565b6103656108c4356104fb565b6103716108e4356104fb565b61037d610904356104fb565b610389610924356104fb565b610395610944356104fb565b6103a1610964356104fb565b6103ad610984356104fb565b6103b96109a4356104fb565b6103c56109c4356104fb565b6103d16109e4356104fb565b6103dd610a04356104fb565b6103e9610a24356104fb565b6103f5610a44356104fb565b610401610a64356104fb565b61040d610a84356104fb565b610419610aa4356104fb565b610425610ac4356104fb565b610431610ae4356104fb565b61043d610b04356104fb565b610449610b24356104fb565b610455610b44356104fb565b610461610b64356104fb565b61046d610b84356104fb565b610479610ba4356104fb565b610485610bc4356104fb565b610491610be4356104fb565b61049d610c04356104fb565b6104a9610c24356104fb565b6104b5610c44356104fb565b6104c1610c64356104fb565b356104fb565b6136c0565b8152f35b8380fd5b5080fd5b80fd5b906004916044116104e857565b600080fd5b9060c491610104116104e857565b7f30644e72e131a029b85045b68181585d97816a916871ca8d3c208c16d87cfd47111561052457565b6000805260206000f35b604051907f024424f3dd48cef28bd9345903ea5897c7eed5433ecae5c4b333553070dc6eab82527f152ecece505d82d6ee4be680925754ce1fff7e0854ce0bab485b7111effaf2076020830152604082019081526107cf196040836060816007855a01fa156105245760409260066080939284938451905260a05160608401525a01fa1561052457565b604051907f05a4032f428ea5166205c287f4146ad314dc405858a124eb7b2a417d51223eec82527f045cadcbc64df7dbdfd773f5fdd390576de9d3eb3460f28b6a82e5854665b94c6020830152604082019081526107cf196040836060816007855a01fa156105245760409260066080939284938451905260a05160608401525a01fa1561052457565b604051907e721a9c2d3a3796457216808279498e35d4d15a17fd11ec12a2226d0fdcccab82527f14391e444d232a7e127ef95e59d99d2bba933f139436be265abc141e0d0dc3bc6020830152604082019081526107cf196040836060816007855a01fa156105245760409260066080939284938451905260a05160608401525a01fa1561052457565b604051907f2cd785660fe31e8690a404f619845a8b22e473bfa08c408ae811b327b634019782527f15045f1999d9c73a7e87230734c4158d78e77cc3246d7546e2952c6f75822c2f6020830152604082019081526107cf196040836060816007855a01fa156105245760409260066080939284938451905260a05160608401525a01fa1561052457565b604051907f2cea4f99fe3b27ceb3bbb698feb72991913e1dab1d19493fb9498fe08aae2c4d82527f1f3932e127662af31db1a915e1d346b634ac7ecb92d336ace70cf59f3f8b18ca6020830152604082019081526107cf196040836060816007855a01fa156105245760409260066080939284938451905260a05160608401525a01fa1561052457565b604051907f1331b0b0c2072fd7be132d0862b3db9e637b318f77c91ad9be3a98cf9cb09dff82527f1c43fc19324d1c027a494ffc5393269f85661d43cc9eb241aaf4ae9ec75be2f06020830152604082019081526107cf196040836060816007855a01fa156105245760409260066080939284938451905260a05160608401525a01fa1561052457565b604051907f0e31754d0614e5146ba696dc65777d4bf53c006fb4879d1f6ce58f6f3885561882527f021007e07cf37c52471c737022626b706a8d74ff3316cafdc721dd1fcce572b36020830152604082019081526107cf196040836060816007855a01fa156105245760409260066080939284938451905260a05160608401525a01fa1561052457565b604051907f2c25ea79c97d1a2e17ed7c8cbf995c1fc89821ddad5c580bed6667661a348d1282527f0c566911287b6673a272d30d29269fff589c6af4f503521603a729963221385e6020830152604082019081526107cf196040836060816007855a01fa156105245760409260066080939284938451905260a05160608401525a01fa1561052457565b604051907f1d0bdca50b6a7847e49ca1c00d0665d76a0fac4c76866e0c5110b5054c0fc25e82527f05846320450a71ab10557038f8ae51ac4d710760e6eb5e4c75166860c761561e6020830152604082019081526107cf196040836060816007855a01fa156105245760409260066080939284938451905260a05160608401525a01fa1561052457565b604051907f17e732a9ad32d12f1a7fad4763a1d2b3c9cd95b734d4937e861b5c92ecc10b8582527f101083fac504a6e959e8392c7037423057b27c7f1485674744a45239ee79b9376020830152604082019081526107cf196040836060816007855a01fa156105245760409260066080939284938451905260a05160608401525a01fa1561052457565b604051907f0e05a974fe83da18f9c0d7295f2a878ce19e685791bba0a41f4f5b0969852e0a82527f04b3ecafe8a5ca4dd6321c3f89191bd965099704b5be2caa671223a7bfc01c366020830152604082019081526107cf196040836060816007855a01fa156105245760409260066080939284938451905260a05160608401525a01fa1561052457565b604051907f2da0e1c8fc407ef5b92dc9eb01ce161507f82619ee9f28f82719447f6e98b14882527f1c33836609eace776f994d04609bdacb780314b2dbea46690372966fcb14ba696020830152604082019081526107cf196040836060816007855a01fa156105245760409260066080939284938451905260a05160608401525a01fa1561052457565b604051907f1b4f12f0892c6f3c7228c0135430d83898673da63021791526810ae2503e7d1682527f05666e91a99a855e3cf914878f40ea40ddcfd6988436f3bd55ab0df1609629a96020830152604082019081526107cf196040836060816007855a01fa156105245760409260066080939284938451905260a05160608401525a01fa1561052457565b604051907f06ad45f768576d458e79680b55f77b748e5c2d73623fd132f81c723b18e45f2d82527f028619c19b13d1b9b92af443d481b7a554b0c4dc5f86fd8122d0fed34f7d905c6020830152604082019081526107cf196040836060816007855a01fa156105245760409260066080939284938451905260a05160608401525a01fa1561052457565b604051907f03a41fad0e8982a42cd305bbef5334e0b9e44f3b04927439a673081f0777e9f282527f05add14dcf39a78fa0206a610a134422b410df5d226bb46616354f962a7e348a6020830152604082019081526107cf196040836060816007855a01fa156105245760409260066080939284938451905260a05160608401525a01fa1561052457565b604051907f0c3117371d2054e4248839de702cb6880b657c40d9b4ad12b2200bb9ec72929382527f10aab270fcaaf094934c19c6f06b120cf0b678e4c1ebe6203f349fc7c1b6f68a6020830152604082019081526107cf196040836060816007855a01fa156105245760409260066080939284938451905260a05160608401525a01fa1561052457565b604051907f0230338620721107719d9e6390bd2cc8125564214e382fe9f5876b3c7613e41182527f0eab2a64a5ecb8faa9c3eb9904a89e77b4483276a25b02da4304c3e04361d1956020830152604082019081526107cf196040836060816007855a01fa156105245760409260066080939284938451905260a05160608401525a01fa1561052457565b604051907f25649561cd076069811a3f0cbe8dc692d84cc34e0ba0bfcd13fb7b856337833582527f25b9930612621f767bd1aae81a6f8b9db5491c6e184435d89e734ebc5b9379a16020830152604082019081526107cf196040836060816007855a01fa156105245760409260066080939284938451905260a05160608401525a01fa1561052457565b604051907f2dbed2699a6f665aee1da931243784b6b0fcf4c3315d6528e532c84a0a079b5382527f2bb35d6ccd408ec0122fa04e5dda870003932f1aaad702bd2df837298bc7c1056020830152604082019081526107cf196040836060816007855a01fa156105245760409260066080939284938451905260a05160608401525a01fa1561052457565b604051907f19a46c53ae514f8550b5669db2ea7e3781e02cedeb97fee9d534ebc3f71e674c82527f2ce44f362a90d3d05748596ddbcea5a7db5926e46ece5d87beb23cc72a7949976020830152604082019081526107cf196040836060816007855a01fa156105245760409260066080939284938451905260a05160608401525a01fa1561052457565b604051907f2472292a103b32abebc2e75df3122d69b8dc9a43461349dffa2811fb80d1a70982527f140b72e1e02a851c6b48c8779be9f3115e150f86036ea38f4689c61271da652c6020830152604082019081526107cf196040836060816007855a01fa156105245760409260066080939284938451905260a05160608401525a01fa1561052457565b604051907f0e46d61b5d0d950d7b3718a101de2bb6e5561a43522d10815b3db912c3ead0a782527f1c9e099ab2fa80e7e12f8312f83916d1cd1033a60a7557d703a4faf59388adca6020830152604082019081526107cf196040836060816007855a01fa156105245760409260066080939284938451905260a05160608401525a01fa1561052457565b604051907f174a1458ef861ae9624880e7ed36f1c804190b140d9b6967280c6ac24a4fc08882527f1d2b3da1554ab5cbbb6453710ffe3da365ca0e430cfdc6ddae84beac1919d5f26020830152604082019081526107cf196040836060816007855a01fa156105245760409260066080939284938451905260a05160608401525a01fa1561052457565b604051907f022f4c93046a73a92c436bf4fe8c915a8b920e4bd1b512a8140926aa9c55833c82527f10c07c5fdb231b61b6f6bff5762d2763bac23ba0acb44889b6d1f767cc3effd96020830152604082019081526107cf196040836060816007855a01fa156105245760409260066080939284938451905260a05160608401525a01fa1561052457565b604051907f15c4b699554a928b55cae8794b42781f2d13cf035b4d7068910013ad250580f982527f192d82fe0366036a1324b27de3ccad0dfb63db79072853fb48fab95290616a706020830152604082019081526107cf196040836060816007855a01fa156105245760409260066080939284938451905260a05160608401525a01fa1561052457565b604051907f10d7e96d1e50d98696474a56699fdb7be6c5e6ee2f50a11e3a5cfd4ade0bd01a82527f173449c01941395030934f5a33466e66d6ffab2b9bdeb05ba95c09ed34925bf06020830152604082019081526107cf196040836060816007855a01fa156105245760409260066080939284938451905260a05160608401525a01fa1561052457565b604051907f021a0c6025f6773d2c9d7b8a8744bd8e59ec89d6b1e98280c5d3eff88f1c7e4e82527f0a6fd1224f9155c21901e040d23e0f60e5400f8841f005d5baa8085b85569e2d6020830152604082019081526107cf196040836060816007855a01fa156105245760409260066080939284938451905260a05160608401525a01fa1561052457565b604051907f2d7408907550b14ddfacf14fcba89c6ffa2a6b75685cc60dff1ed5e2f4152ffc82527f02416f95750b5936033cffd9ff1edc93902957bedccc5c643036f32fcdae2b3f6020830152604082019081526107cf196040836060816007855a01fa156105245760409260066080939284938451905260a05160608401525a01fa1561052457565b604051907f0c17177e0ae46f23349717e3568ba1143308682eb21c478b32200b8e6226f92d82527f1e735e75fd4eb678954f3045b9a1f9f4ce006c22ecba17ee62538c3cd107ec8d6020830152604082019081526107cf196040836060816007855a01fa156105245760409260066080939284938451905260a05160608401525a01fa1561052457565b604051907f06fc7bbdacc893dc458d938a79881c793841a5fe338e1c083e93f2e86470e0bd82527e7e576d575c89fa550761d8241619e2bc2a47cf3065a59af249038e170b1eb76020830152604082019081526107cf196040836060816007855a01fa156105245760409260066080939284938451905260a05160608401525a01fa1561052457565b604051907f18e478e59cff3669f66dc1592b795034a841ed9877c9f161c79f4b6675c616b182527f0c7675606f6989a6f98bf6e21bca9a6f8bee16a07d8dbf1a865da9a351b89f4f6020830152604082019081526107cf196040836060816007855a01fa156105245760409260066080939284938451905260a05160608401525a01fa1561052457565b604051907f0881ee3c0bb7a0fa0c8a7aaa93953422e7eaeb3970bd11509f37751830a28bdc82527f01702c441b703bcc3eba1fa1dd98724618a9818fca40ebb6aa1a4f4fccc74cc16020830152604082019081526107cf196040836060816007855a01fa156105245760409260066080939284938451905260a05160608401525a01fa1561052457565b604051907f02cac32349519876bb3f22343c9ee2937fd4722cc08569b01ced6609883d280a82527f0d27e5ea407bf6315cf6a5327d4bd5b396ac39dbb0bb04170ed0a5402e50608f6020830152604082019081526107cf196040836060816007855a01fa156105245760409260066080939284938451905260a05160608401525a01fa1561052457565b604051907f29786233a2cfaff17f84d85da8f68961d1d0f075dce4846fd7bb578e79aeea9b82527f29752b6e3287907e43a2333e23af9757b715daddb151a899ee9afbf26f6c9bcd6020830152604082019081526107cf196040836060816007855a01fa156105245760409260066080939284938451905260a05160608401525a01fa1561052457565b604051907f09363c0c51f65382609a08d958d8a27ea825c8d6c8821680494163b47fa0c00d82527f24443ebb4d50a78f0852eeee9d0f851b7ecbe9aa331e68268676da5b071a94bb6020830152604082019081526107cf196040836060816007855a01fa156105245760409260066080939284938451905260a05160608401525a01fa1561052457565b604051907f0a438f6766843315c237248b4102f6d8d087f2f2a26d4fd6ee72b7310908566182527f07bea82fbffda1ab747b19cc535ea872d62cc6268eb23bad0306fb0af4f510596020830152604082019081526107cf196040836060816007855a01fa156105245760409260066080939284938451905260a05160608401525a01fa1561052457565b604051907f194c13cf5dbed4afe3bd9ce9045caa19cced228ca337646ef42dc1112389867782527f17e25d06b0c8049e1e5b390d03c98e8dbf517c7de9d428706332b4c875be45616020830152604082019081526107cf196040836060816007855a01fa156105245760409260066080939284938451905260a05160608401525a01fa1561052457565b604051907f22db6bcc036b6cba73e43dd672b184e989e66a4cce0fab5030edf55d9007801e82527f0e3c621644435e9c87bd2de5fd83a0b468a689ad1a5b780597ecc7bd3cdbe1686020830152604082019081526107cf196040836060816007855a01fa156105245760409260066080939284938451905260a05160608401525a01fa1561052457565b604051907ea344eb22076c5aef53d635b29ceb0389259a9b145b66339ac8a38e86d7c83d82527f2e73e5476c000874439cdd32f42350cd0d3efa992588a3cf9a9f7be06c12ee846020830152604082019081526107cf196040836060816007855a01fa156105245760409260066080939284938451905260a05160608401525a01fa1561052457565b604051907f133c823c75ded118f9c86fce71087ebc3278108b06751728bae4d9efb91951e182527f2fdef6ae217eae6387e4ce62ebebc05bcf2fecc7451140b6ef72fcd33ee801f46020830152604082019081526107cf196040836060816007855a01fa156105245760409260066080939284938451905260a05160608401525a01fa1561052457565b604051907f29d351c1c43dbdae9204aa981ccb7485cf52ab9d82e247c094686c32653af2fe82527f1df4b245c88243bbf1590e72f5cafb5227f605b90be01f2570e6beab57632f0b6020830152604082019081526107cf196040836060816007855a01fa156105245760409260066080939284938451905260a05160608401525a01fa1561052457565b604051907f0c75781bf008dc497e0519047ffb34c6e181dd9dea973cb439f7201c5991ba0482527f05c8c5bf05259001567a2efdc45a2538bdc7271a863108a7a1609ac1952878bf6020830152604082019081526107cf196040836060816007855a01fa156105245760409260066080939284938451905260a05160608401525a01fa1561052457565b604051907f2ef56bf32d0b738e08a8b70b86582f154f0b1fa5f4afe7bf77dd3c7eabebb8de82527f08236f6e7ac31173b5e72f4b4d6a75b9fdd201f5429e5406d6f6c6ef99db691f6020830152604082019081526107cf196040836060816007855a01fa156105245760409260066080939284938451905260a05160608401525a01fa1561052457565b604051907f174c36ef2ede8bdcc82fbb938a04362a25e567bfd27719a42176bdf74814073f82527f0d69793e4d2e47067bffd5900e57b3a8289b792a3f715639fec5157a20bf828c6020830152604082019081526107cf196040836060816007855a01fa156105245760409260066080939284938451905260a05160608401525a01fa1561052457565b604051907ec7a05cbbb79d7941bd0b4fa2e96d4dc2d159d0458046ab68883bd03c4efa7982527f1cde84522e0ef69fcee92ca5f1bad84aea9dced0b69fa3c53339f37489de76476020830152604082019081526107cf196040836060816007855a01fa156105245760409260066080939284938451905260a05160608401525a01fa1561052457565b604051907f128e31320f2928b7f9dc47a811da807c7a509056e984b7b550d82dcfa34b74b882527f2ac4c94413c6e5ea907af3f0927cd4e0aaf58ed38a492ca5557a09a74284c3a36020830152604082019081526107cf196040836060816007855a01fa156105245760409260066080939284938451905260a05160608401525a01fa1561052457565b604051907f2dc39827dd55e573369e0669d9e52675cfc666f03ec0fd97b1cc2bdd568b571082527f13d12e7fbcbaac81dc38af324182cd5d8fd109590bb91939abf30423c8bf13c46020830152604082019081526107cf196040836060816007855a01fa156105245760409260066080939284938451905260a05160608401525a01fa1561052457565b604051907f0d06acc6f36196c04d242b758d8410db0148efea50cf7954e43cae551923453782527f2188463c1e5f8d6ee4d72c408f17bede1b5208f7c253fc569c13c1e912b5fe536020830152604082019081526107cf196040836060816007855a01fa156105245760409260066080939284938451905260a05160608401525a01fa1561052457565b604051907f09e4156349ef312dabe891b9df626e063aeee1ca457512e866dc5dcb3d05d4f582527f06dc4bd982b767b6537cd5ae577f5bc04206268ae90dd97715baeb1135da6d866020830152604082019081526107cf196040836060816007855a01fa156105245760409260066080939284938451905260a05160608401525a01fa1561052457565b604051907f200743929c5c4d29fb20c77796d2ce5e52835adb1017672657909d5bb62eba4382527f073b0b4663503038c2da0f4bb510d760ef28ff227bfc1d1ef4a23f907a1c35356020830152604082019081526107cf196040836060816007855a01fa156105245760409260066080939284938451905260a05160608401525a01fa1561052457565b604051907f0dff8561377159ee4452de104078825bb22efa8e3d6fd05c6484018869be93a582527f29fb2b7f290cf688f8c401d77e0992995d1e7f7e93ddbb8c783c65b818f135826020830152604082019081526107cf196040836060816007855a01fa156105245760409260066080939284938451905260a05160608401525a01fa1561052457565b604051907f17fab71368229dba1666625857ed7462530619f6a2e6fa5951461adebeaf31c482527f2d9caf7dcc45b21cd6fef47df55c48d52eb68734e9df5cd58d326c644de47b706020830152604082019081526107cf196040836060816007855a01fa156105245760409260066080939284938451905260a05160608401525a01fa1561052457565b604051907f0823aa7c33501e2b37e7c35e904d982ef8f74d718b8a6065a6edd85875e3399482527f2fabd246ac1dcb257be2704d20824e1bdd2964bc94d6e4e680477b4990090a9e6020830152604082019081526107cf196040836060816007855a01fa156105245760409260066080939284938451905260a05160608401525a01fa1561052457565b604051907f19d6353027f96c214f893e4a08cb64e7b2252fc6ec95c97b20b974ddf2976bc882527f1715279cd96890ac79cdf3cb48d9f1df59e66dcaf7a26173bebe02d39e6dd7c16020830152604082019081526107cf196040836060816007855a01fa156105245760409260066080939284938451905260a05160608401525a01fa1561052457565b604051907f146c16b11453600862f34a66fc45035bb972c66d30dc02fa61b3c04598168fd782527f0c70d833589a922eb7a3dfd560670f57f1123ed58eea41a700d16eaaa723353b6020830152604082019081526107cf196040836060816007855a01fa156105245760409260066080939284938451905260a05160608401525a01fa1561052457565b604051907f04b6c078433d769e441bf0c6dbd0b37e2443aa1fb64b0681b7071c1a103efe8082527f10f7f70cb3fbb31e2d13f16b4bc4332fb8c7b09aef6c6c358b43309b97a5f4426020830152604082019081526107cf196040836060816007855a01fa156105245760409260066080939284938451905260a05160608401525a01fa1561052457565b604051907f07238f60a853c872f6d53f8196b2c2c3c5c4207deadb2fb560b62b0265006d9982527f18924f23f16618d4743cb62763c98656ee3d191118246a2166e2398a57de34936020830152604082019081526107cf196040836060816007855a01fa156105245760409260066080939284938451905260a05160608401525a01fa1561052457565b604051907f259ceccb61f759653a6dc59a99afb7e90845e1c8c9773c0526c8ce29c408781982527f20d43bca358e93bf04522816b02dbca26515514999bbfec4e8f87752ae2781286020830152604082019081526107cf196040836060816007855a01fa156105245760409260066080939284938451905260a05160608401525a01fa1561052457565b604051907f29430563c8824638f1f0be5e6c45f2a994a42e9ec6c14a8015b065c3e9116c7c82527f18e356176f4e0211dd4394db5cc2c8112e85208036b037e7d0c21ab079569a4f6020830152604082019081526107cf196040836060816007855a01fa156105245760409260066080939284938451905260a05160608401525a01fa1561052457565b604051907f2cb089bd607744057f4d4175b15a9a6ecaf5a4d291b99ce6cb438fc004ea9a8d82527f1b6f29cd6a280fb25276f7d3ab0a6d32f97c5c90eec77ed195187b30cb9094526020830152604082019081526107cf196040836060816007855a01fa156105245760409260066080939284938451905260a05160608401525a01fa1561052457565b604051907f1b5e561deec443167eaf54ad6bf806cb1f7d64b962ec613f219cbc98fd83692582527f0b9168fa481f19ad033587406bcfc4d7c689a0409366d0017dc3190b187d27f36020830152604082019081526107cf196040836060816007855a01fa156105245760409260066080939284938451905260a05160608401525a01fa1561052457565b604051907f24345d4871d2f57c7376375cb38d1421217e3b32518825490bee1fcf3fa8670682527f0db88ec5f2058782c1b4042c7b8a04dd5a116baed5f1c99acbde50c77a4687f86020830152604082019081526107cf196040836060816007855a01fa156105245760409260066080939284938451905260a05160608401525a01fa1561052457565b604051907f19c04f45ddadcbbd0137e2c8b9fa65771cf41c0201726ef0e2711196dd82931482527f0f97b6048100071941498ec3fb1bda6b3afed0edaf7e4c24b184fc0e64d02a8b6020830152604082019081526107cf196040836060816007855a01fa156105245760409260066080939284938451905260a05160608401525a01fa1561052457565b604051907f29b8d7ac6359a0d0a3116e860049470884ec03017dfde3189d68d1d98e2d6e6482527f1f81cd573c5dcc4bea93cd8424cc7fbd5b29525894eb1f471eb23fbaee90e9a46020830152604082019081526107cf196040836060816007855a01fa156105245760409260066080939284938451905260a05160608401525a01fa1561052457565b604051907f27c9c0eeebe6e2168e04c36561b6baf38a8472675804ee00adb5b736bc08fad082527f0aaf574968b064e42b61ee43f68185af8d5081d44766641239d7f0eba39b0f2b6020830152604082019081526107cf196040836060816007855a01fa156105245760409260066080939284938451905260a05160608401525a01fa1561052457565b604051907f086727d868ea981ab17cff1f26a8636b5caf9f4c1c64f49a3a8c79e444103cf782527f2508d49bff6a80f2260acc569b804ac3eb18aa93247efb2c7d2e21e4a333b94a6020830152604082019081526107cf196040836060816007855a01fa156105245760409260066080939284938451905260a05160608401525a01fa1561052457565b604051907f1f83440d4c422fb3d9c2f653f398fcdde7db62401b93fc8c5ee8c5598765b44182527f1a7f222855799d285297c8424622be2c210236bf3a87a4d46a961ccef92636cb6020830152604082019081526107cf196040836060816007855a01fa156105245760409260066080939284938451905260a05160608401525a01fa1561052457565b604051907f2505349ec555b3c6837a711e142244e2445f15a59c4184df6fc6ebaea326096182527f17942983ea8ef663107996bb1218276e25d0cef3bc33721a59dc8091cba425866020830152604082019081526107cf196040836060816007855a01fa156105245760409260066080939284938451905260a05160608401525a01fa1561052457565b604051907f2c6225235df643fa334284dac76ac44decdd60ff9e4e13353f6f7793a8e883a682527f1f744deab4a138fb37586aeda50228086952ce0fde0f2cfa058d3505167015076020830152604082019081526107cf196040836060816007855a01fa156105245760409260066080939284938451905260a05160608401525a01fa1561052457565b604051907f2fdef44be7dac4e74fc76625f3cc9e028c35f5ad381842e669e2022af95cd36782527f0966d2ad632e2973aaf45399e0e17f00872f560e45628c12d71d9487b2f79a7b6020830152604082019081526107cf196040836060816007855a01fa156105245760409260066080939284938451905260a05160608401525a01fa1561052457565b604051907e15daac20b3dc721e22dfc8ec4d3e37e6876a78b10ae9b033f7c87080a2869782527f06c6ef6801464e478307da9a69f57daec9ce20ea1da85538d91627ec9b3e5fe16020830152604082019081526107cf196040836060816007855a01fa156105245760409260066080939284938451905260a05160608401525a01fa1561052457565b604051907f0cd6a7bd00e27f140b570766b067aed002476798a47b80491040aece2422376682527f0864ceab7a9955fa4e197d2b226b4cb63e2f1a5e5526772aa0b5ea4b08a2203e6020830152604082019081526107cf196040836060816007855a01fa156105245760409260066080939284938451905260a05160608401525a01fa1561052457565b604051907f17ad4adb0ac077638d7edb3b34a9f8b8badf016e1b66f4e09d6f533b633611e982527f227829bf8d2af32fa9b19fdcf069ab75da7c19d0e6d755bf80b460f4576848036020830152604082019081526107cf196040836060816007855a01fa156105245760409260066080939284938451905260a05160608401525a01fa1561052457565b604051907f21d559a65edc3c81898cc98527bfd58cfda3e60a8fb273e4b00ec84e34a7c85082527f0ba7dffbb393fa12c746ba402d84ff53b1193b2adc6a8fa8ae2b51561cd4dd246020830152604082019081526107cf196040836060816007855a01fa156105245760409260066080939284938451905260a05160608401525a01fa1561052457565b604051907f26f694c16e7ae5a71372710f970997d3639d7f9c2790bfcabbe0ff398c56c52382527f148d4431ac8788f6b0a3373c6baa31b59bfd53c6c24286ec6f4b813192af0bf86020830152604082019081526107cf196040836060816007855a01fa156105245760409260066080939284938451905260a05160608401525a01fa1561052457565b604051907f105ec7bbcddc2b663ed1dcdb8bc09cd5d2f4954f77e7f49d48db4a4eae9b56b482527f0ce483b0992799978d8aaf211b4808646813d76e6cb79a12a88d3d46e0c843356020830152604082019081526107cf196040836060816007855a01fa156105245760409260066080939284938451905260a05160608401525a01fa1561052457565b604051907f067385dbf92758d6a22153e13b9a5a767cd71b528e456dee3b5df0cc0c1ac80982527f0c8a85e20c7d14c23ad482250ea9ab8556c146dd7cf3f33c672ae641bd7b81df6020830152604082019081526107cf196040836060816007855a01fa156105245760409260066080939284938451905260a05160608401525a01fa1561052457565b604051907f27ade8b8a77426c21f4b191602e1c4a9a00d9355ffb13025c0f760b05215e93082527f1c6daf77f0969a931edc59a73ff4caab5e7ea759202e9ecf60f34402b68f15466020830152604082019081526107cf196040836060816007855a01fa156105245760409260066080939284938451905260a05160608401525a01fa1561052457565b604051907f24dda9d9127530671ab16651b74989f19efd29fcccfd34597977fe423b479d5582527f26eabc622655f2cab882e487fc023c44933848a4ad93b648f265657cb96f22136020830152604082019081526107cf196040836060816007855a01fa156105245760409260066080939284938451905260a05160608401525a01fa1561052457565b604051907f1311a74f3b8990d69dcec43ed04c83625231311de8ed71c046bc46f7e23dc28082527f06b5d727ed4ad58e4be255bd34485b028d3dab5c2d00536f89e856c5206f37796020830152604082019081526107cf196040836060816007855a01fa156105245760409260066080939284938451905260a05160608401525a01fa1561052457565b604051907f1b29971bc265781340e6bdefd62debad532ebbc3859091e3efcf55c76b85937c82527f10985c8896440473667ceff3ce4ef98a219d064ce423eeec3c76e17b625c88be6020830152604082019081526107cf196040836060816007855a01fa156105245760409260066080939284938451905260a05160608401525a01fa1561052457565b604051907f177373fcbb769d9d14c69aa6ffbb85d0e46cc574a8c52ada3fa126547c32bac682527e3c9db2892eac10638a8abe2bbbcadd5ec8d5539e490f179ba4994dcc5b6ce26020830152604082019081526107cf196040836060816007855a01fa156105245760409260066080939284938451905260a05160608401525a01fa1561052457565b604051907f0c8d4b7a95d137f605d5a494b65d03f9de27c83cab7f77db9ffce586041dcf7f82527f20d6709e06a5b793006feb9f3fa1f0ae8538e9d568545b494acd9563353390006020830152604082019081526107cf196040836060816007855a01fa156105245760409260066080939284938451905260a05160608401525a01fa1561052457565b604051907f071fbe9dfb1b7cb1447adc7ff6235e2833bddf067ff2c45776590c521360a8e982527f2ffa9e3015d45aca8fc646474fa92281c3415d982fd8fc3b4eb52d2ed871bb006020830152604082019081526107cf196040836060816007855a01fa156105245760409260066080939284938451905260a05160608401525a01fa1561052457565b604051907f28d1f5eae7e07462885fd9cc33385174d34f6303ebd9205affac50d9babc7d4d82527f0c0b706feaf5b3224f037140653d1906d5393efa57f7f63bb040dd6d844db3076020830152604082019081526107cf196040836060816007855a01fa156105245760409260066080939284938451905260a05160608401525a01fa1561052457565b604051907f2f3e86e876477fe5799c53516fa8205728ca2ae5aad237de78ec939bc474732a82527f08847aa5e98d8c13ab5e99b81fbd5aa11278ebda0f290b8ff6a0ab96a3108bb16020830152604082019081526107cf196040836060816007855a01fa156105245760409260066080939284938451905260a05160608401525a01fa1561052457565b604051907f1f4411e2baeb82bf4e3d8b5bd6df1720bf7ef71ed755a766a0a3fac41e21553482527f29d0ee5320f5590080ecc99f5e4d896c5c5d9b72bfc2d0d4d1d454de272cd8616020830152604082019081526107cf196040836060816007855a01fa156105245760409260066080939284938451905260a05160608401525a01fa1561052457565b604051907f0bfacffe28c34b8aa62794e9612e2ae33d933ce9a5e74baa77fb0cd3238a53cb82527f218d900a69914b04fe540c3ae1640f0c5ff5ab56f91039b97b974c12136d07a96020830152604082019081526107cf196040836060816007855a01fa156105245760409260066080939284938451905260a05160608401525a01fa1561052457565b604051907f0fc3278370375fbbf6baa9b144edf4b019ee91f9484781f5733e008508e9903c82527f19b63aaa78b1107a1843f989c5de2bd091c29ad5a3f24a551a0b5f1272d0a0b86020830152604082019081526107cf196040836060816007855a01fa156105245760409260066080939284938451905260a05160608401525a01fa1561052457565b604051907f1fe6cab60c651932363e5592edcade2db156b66e4688f995f786eb5430e495c982527f26ac8d093e10c634bf7bcad7ce2609eb7451efe683bc4f5fe7b290468c373a5c6020830152604082019081526107cf196040836060816007855a01fa156105245760409260066080939284938451905260a05160608401525a01fa1561052457565b604051907f2f3341d08e3b4f81442be3e6223cdfdce547b43d9bb2d933b2c6b98dbc7e5dac82527f269ef4224810c3375e6e6a2dc8eed98a88ba8aaf1fbd1d263c5a6be94bcc69706020830152604082019081526107cf196040836060816007855a01fa156105245760409260066080939284938451905260a05160608401525a01fa1561052457565b604051907f1639777a9a71758c8347c539d939dbc4bd4306b58b3a7f56a64a7cef5f38c41782527f200b81f87512148ed4a0155fa0d09567835afc6b9d762cb193b188ffcbe1d3c66020830152604082019081526107cf196040836060816007855a01fa156105245760409260066080939284938451905260a05160608401525a01fa1561052457565b6020907f128af060e6b34bece4580854086f790de995bc6c3b4e9e281167ee0a9fd50be66080527f16cf2ca1d98631fef83101e7166d03773c8a500459ca55eac9be71710699051860a0526137176101043561052e565b613723610124356105b8565b61372f61014435610642565b61373b610164356106cb565b61374761018435610755565b6137536101a4356107df565b61375f6101c435610869565b61376b6101e4356108f3565b6137776102043561097d565b61378361022435610a07565b61378f61024435610a91565b61379b61026435610b1b565b6137a761028435610ba5565b6137b36102a435610c2f565b6137bf6102c435610cb9565b6137cb6102e435610d43565b6137d761030435610dcd565b6137e361032435610e57565b6137ef61034435610ee1565b6137fb61036435610f6b565b61380761038435610ff5565b6138136103a43561107f565b61381f6103c435611109565b61382b6103e435611193565b6138376104043561121d565b613843610424356112a7565b61384f61044435611331565b61385b610464356113bb565b61386761048435611445565b6138736104a4356114cf565b61387f6104c435611558565b61388b6104e4356115e2565b6138976105043561166c565b6138a3610524356116f6565b6138af61054435611780565b6138bb6105643561180a565b6138c761058435611894565b6138d36105a43561191e565b6138df6105c4356119a8565b6138eb6105e435611a31565b6138f761060435611abb565b61390361062435611b45565b61390f61064435611bcf565b61391b61066435611c59565b61392761068435611ce3565b6139336106a435611d6c565b61393f6106c435611df6565b61394b6106e435611e80565b61395761070435611f0a565b61396361072435611f94565b61396f6107443561201e565b61397b610764356120a8565b61398761078435612132565b6139936107a4356121bc565b61399f6107c435612246565b6139ab6107e4356122d0565b6139b76108043561235a565b6139c3610824356123e4565b6139cf6108443561246e565b6139db610864356124f8565b6139e761088435612582565b6139f36108a43561260c565b6139ff6108c435612696565b613a0b6108e435612720565b613a17610904356127aa565b613a2361092435612834565b613a2f610944356128be565b613a3b61096435612948565b613a47610984356129d2565b613a536109a435612a5c565b613a5f6109c435612ae6565b613a6b6109e435612b6f565b613a77610a0435612bf9565b613a83610a2435612c83565b613a8f610a4435612d0d565b613a9b610a6435612d97565b613aa7610a8435612e21565b613ab3610aa435612eab565b613abf610ac435612f35565b613acb610ae435612fbf565b613ad7610b0435613049565b613ae3610b24356130d3565b613aef610b443561315c565b613afb610b64356131e6565b613b07610b8435613270565b613b13610ba4356132fa565b613b1f610bc435613384565b613b2b610be43561340e565b613b37610c0435613498565b613b43610c2435613522565b613b4f610c44356135ac565b613b5b610c6435613636565b61010092818492358352837f30644e72e131a029b85045b68181585d97816a916871ca8d3c208c16d87cfd479101358103066101205260443561014052606435610160526084356101805260a4356101a0527f2d4d9aa7e302d9df41749d5507949d05dbea33fbb16c643b22f599a2be6df2e26101c0527f14bedd503c37ceb061d8ec60209fe345ce89830a19230301f076caff004d19266101e0527f0967032fcbf776d1afc985f88877f182d38480a653f2decaa9794cbc3bf3060c610200527f0e187847ad4c798374d0d6732bf501847dd68bc0e071241e0213bc7fc13db7ab610220527f304cfbd1e08a704a99f5e847d93f8c3caafddec46b7a0d379da69a4d112346a7610240527f1739c1b1a457a8c7313123d24d2f9192f896b7c63eea05a9d57f06547ad0cec8610260526080516102805260a0516102a0527f198e9393920d483a7260bfb731fb5d25f1aa493335a9e71297e485b7aef312c26102c0527f1800deef121f1e76426a00665e5c4479674322d4f75edadd46debd5cd992f6ed6102e05282610300917f090689d0585ff075ec9e99ad690c3395bc4b313370b38ef355acdadcd122975b83527f12c85ea5db8c6deb4aab71808dcb408fe3d1e7690c43d37b4ce6cc0166fa7daa610320528035610340520135610360527f1fd97188827575f4bfa7b8a1cdac2645a1f1e77ce2c56b61bedb26d94be5d382610380527f13fd7597634baea8916a37ed62043220ba84e40c57601af090e9d6145e7ee0b06103a0527f1cdd3b38bb8edceb2683e64f4ffbeb1ab483914100d065f738020eeaf3cc99716103c0527f01a57b07ac659bb98a53ed8554ec46df62a01881742d49331a699c35916c7ee06103e0528160086107cf195a01fa9051169056fea264697066735822122052a8dd0606cb9ac4fe2b1c30aca7cf57142c3706e2b17530cc35cffdede2b12764736f6c634300080f0033",
  "linkReferences": {},
  "deployedLinkReferences": {}
}