{
  "_format": "hh-sol-artifact-1",
  "contractName": "Groth16Verifier",
  "sourceName": "contracts/Game_9_50Verifier.sol",
  "abi": [
    {
      "inputs": [
        {
          "internalType": "uint256[2]",
          "name": "_pA",
          "type": "uint256[2]"
        },
        {
          "internalType": "uint256[2][2]",
          "name": "_pB",
          "type": "uint256[2][2]"
        },
        {
          "internalType": "uint256[2]",
          "name": "_pC",
          "type": "uint256[2]"
        },
        {
          "internalType": "uint256[102]",
          "name": "_pubSignals",
          "type": "uint256[102]"
        }
      ],
      "name": "verifyProof",
      "outputs": [
        {
          "internalType": "bool",
          "name": "",
          "type": "bool"
        }
      ],
      "stateMutability": "view",
      "type": "function"
    }
  ],
  "bytecode": "0x608080604052346100165761446c908161001c8239f35b600080fdfe6080604052600436101561001257600080fd5b6000803560e01c63274182f81461002857600080fd5b3461055057610dc03660031901126105505761004336610553565b3660c41161054c5761005436610565565b90610dc436811161054857916105449161053f6020959461040060405261007d61010435610573565b61008961012435610573565b61009561014435610573565b6100a161016435610573565b6100ad61018435610573565b6100b96101a435610573565b6100c56101c435610573565b6100d16101e435610573565b6100dd61020435610573565b6100e961022435610573565b6100f561024435610573565b61010161026435610573565b61010d61028435610573565b6101196102a435610573565b6101256102c435610573565b6101316102e435610573565b61013d61030435610573565b61014961032435610573565b61015561034435610573565b61016161036435610573565b61016d61038435610573565b6101796103a435610573565b6101856103c435610573565b6101916103e435610573565b61019d61040435610573565b6101a961042435610573565b6101b561044435610573565b6101c161046435610573565b6101cd61048435610573565b6101d96104a435610573565b6101e56104c435610573565b6101f16104e435610573565b6101fd61050435610573565b61020961052435610573565b61021561054435610573565b61022161056435610573565b61022d61058435610573565b6102396105a435610573565b6102456105c435610573565b6102516105e435610573565b61025d61060435610573565b61026961062435610573565b61027561064435610573565b61028161066435610573565b61028d61068435610573565b6102996106a435610573565b6102a56106c435610573565b6102b16106e435610573565b6102bd61070435610573565b6102c961072435610573565b6102d561074435610573565b6102e161076435610573565b6102ed61078435610573565b6102f96107a435610573565b6103056107c435610573565b6103116107e435610573565b61031d61080435610573565b61032961082435610573565b61033561084435610573565b61034161086435610573565b61034d61088435610573565b6103596108a435610573565b6103656108c435610573565b6103716108e435610573565b61037d61090435610573565b61038961092435610573565b61039561094435610573565b6103a161096435610573565b6103ad61098435610573565b6103b96109a435610573565b6103c56109c435610573565b6103d16109e435610573565b6103dd610a0435610573565b6103e9610a2435610573565b6103f5610a4435610573565b610401610a6435610573565b61040d610a8435610573565b610419610aa435610573565b610425610ac435610573565b610431610ae435610573565b61043d610b0435610573565b610449610b2435610573565b610455610b4435610573565b610461610b6435610573565b61046d610b8435610573565b610479610ba435610573565b610485610bc435610573565b610491610be435610573565b61049d610c0435610573565b6104a9610c2435610573565b6104b5610c4435610573565b6104c1610c6435610573565b6104cd610c8435610573565b6104d9610ca435610573565b6104e5610cc435610573565b6104f1610ce435610573565b6104fd610d0435610573565b610509610d2435610573565b610515610d4435610573565b610521610d6435610573565b61052d610d8435610573565b610539610da435610573565b35610573565b613c9e565b8152f35b8380fd5b5080fd5b80fd5b9060049160441161056057565b600080fd5b9060c4916101041161056057565b7f30644e72e131a029b85045b68181585d97816a916871ca8d3c208c16d87cfd47111561059c57565b6000805260206000f35b604051907f1b39be0554bd68ad1d2cd9fdecc674f268de0f71260246f861ea9edb794ac30c82527f1b304cfebd8164f6f90ac2745c8fb3d26b05239fd54f98f38b36ac57886efc3b6020830152604082019081526107cf196040836060816007855a01fa1561059c5760409260066080939284938451905260a05160608401525a01fa1561059c57565b604051907f070804b7792b7e9d46bf6d9dac8046a30cc28f78866ab1a5c42047f2105a74fc82527f033eb0bf0dbf2a953b09208c47ceed0b5fbd5b734d1dd9e30e894f1a561f10fd6020830152604082019081526107cf196040836060816007855a01fa1561059c5760409260066080939284938451905260a05160608401525a01fa1561059c57565b604051907f246c750a8d66008cac227308ad3d012d01585e276378255a3ddf2973d940966e82527f0f5689f2bef22fc71044a0a1d47f85aae3351b6a624c04d5877df4bba7c4827d6020830152604082019081526107cf196040836060816007855a01fa1561059c5760409260066080939284938451905260a05160608401525a01fa1561059c57565b604051907f0feeea451da2d535d86d463a3f1ff68e8f6c1baec2076baee6a90d7dd88d4d6382527f2fd7ab05ff965cff26929b731b2db0d3b1f5c917ae277cc6ccfabf3292f9888a6020830152604082019081526107cf196040836060816007855a01fa1561059c5760409260066080939284938451905260a05160608401525a01fa1561059c57565b604051907f1127fa34db9620eba5cc9c88224a0416cd7c5f482883c063ab52d4f51741c15182527f02de75c416fe54f842d68d1ca0b9c16bde6a61d616d8435e93e655bc562efe4c6020830152604082019081526107cf196040836060816007855a01fa1561059c5760409260066080939284938451905260a05160608401525a01fa1561059c57565b604051907f20ca467ec3dbc33191b9c51f0d55f505fcfb30b93546ff07a351dff39ecbc2c682527f2af67fb85429912e96a1baa55a08cb142a5fcab3920c2e8e8d8f302bb2290b806020830152604082019081526107cf196040836060816007855a01fa1561059c5760409260066080939284938451905260a05160608401525a01fa1561059c57565b604051907f086ef5d4d7894c42afbe1499310b473967afa016551befec0a7f32a5759661b182527f27eb49de11e7ceb09a854c5859d335a165effc7423e719be5e3048de53d87e656020830152604082019081526107cf196040836060816007855a01fa1561059c5760409260066080939284938451905260a05160608401525a01fa1561059c57565b604051907f056a0f0d9b4d9b3c2882b2a95293b99401947f5623d6ac732a230780046a74f182527f0dc8ecd24cb842e0f38282b95eba443fb55f5aa7a5a5127d7a16acfc54e1baf86020830152604082019081526107cf196040836060816007855a01fa1561059c5760409260066080939284938451905260a05160608401525a01fa1561059c57565b604051907f0d1e235997825726480f7bc3c38e1e08e93db20f29cfd89897c4221eb5c6072182527f030ad9ff0e127d1374542a681e9548db944787762e609e8efc75a0efff4ee5e36020830152604082019081526107cf196040836060816007855a01fa1561059c5760409260066080939284938451905260a05160608401525a01fa1561059c57565b604051907f0ef625b21c590af80c9d43847d0482f3ab6b3cd9f6b91ffdfb23167e0e97a6cb82527f1b17a1297f6ae226c6cc0d35519df3c3684d27044b386e6558cd96885953f74f6020830152604082019081526107cf196040836060816007855a01fa1561059c5760409260066080939284938451905260a05160608401525a01fa1561059c57565b604051907f1dc57c65119b1d024ff6b5e0c537635208b9723d283a2350677793f738d04c1382527f267dea59974dcf358833c89199075c3a3bfee01490621d6eb4c3d3c7b9d308696020830152604082019081526107cf196040836060816007855a01fa1561059c5760409260066080939284938451905260a05160608401525a01fa1561059c57565b604051907f2abcfa176b7c13991da902c5611da55be59e92ab6fd8c2636e344bd22beee1bd82527f1b0dc85742403b3ad88a568a86aad5ec434d35b1d634637e7746e6ee4c6861b36020830152604082019081526107cf196040836060816007855a01fa1561059c5760409260066080939284938451905260a05160608401525a01fa1561059c57565b604051907ea0179bebc6534089ce13deef9b632715174803f955a18a613ae89c4c1d97cc82527f0c73ab89219546c6265187a00992b86c0599a5ca5ad13f541dcda71705bceaf26020830152604082019081526107cf196040836060816007855a01fa1561059c5760409260066080939284938451905260a05160608401525a01fa1561059c57565b604051907f14da8582d2562f149255beee6dfe349c15d1023cae778a39bb558b12c012284a82527f2baf552e7517cc9cd796998e447565f020bb6ff64c88149cd2331c3ec33332f26020830152604082019081526107cf196040836060816007855a01fa1561059c5760409260066080939284938451905260a05160608401525a01fa1561059c57565b604051907f270fd1be6aa8a658223b0a5b2c658b8072fdcc0f9b30fc80ca7cc4fe060a529482527f2d45a1c65c659d6b1f0829aee15fab94a9b545ba3061db45af7e65bbf3e56a106020830152604082019081526107cf196040836060816007855a01fa1561059c5760409260066080939284938451905260a05160608401525a01fa1561059c57565b604051907f2353166fd1fff5cbf867576c1fdc20776f08283d8202882631fcf7fcaa0d812b82527f30239f07ae9e1c2dd919d5c169c2cb6dfc2f8e5ee02bd95086e6bbabc18a10ac6020830152604082019081526107cf196040836060816007855a01fa1561059c5760409260066080939284938451905260a05160608401525a01fa1561059c57565b604051907f06b88e76330ebc52a483730adf720eac72788ecc73bf52ac5d868c773c32f0d982527f21da9638afb727eeafbd0c9fc3bb8fc5bb988d9e72e119547537bfb3be11df1c6020830152604082019081526107cf196040836060816007855a01fa1561059c5760409260066080939284938451905260a05160608401525a01fa1561059c57565b604051907ec956617ceaf3548f66ca93e56a486d26b25ced788605c7b2459e91b30db14782527f20c84b10bc3e164361e4b28b807a2dc9c2e971c86acb4afc1f814dd8cae285ac6020830152604082019081526107cf196040836060816007855a01fa1561059c5760409260066080939284938451905260a05160608401525a01fa1561059c57565b604051907f1b33efc854f4e7e8006479f777f9651e289f664a6727bd5750316c665845054a82527f26b95173de2725a861146e6527148d9eff4bfab636e843741982c5fc0c381a8d6020830152604082019081526107cf196040836060816007855a01fa1561059c5760409260066080939284938451905260a05160608401525a01fa1561059c57565b604051907f1fff1322bf2bef62f0a3f4704813103f2dd5326fe50d07b346483e832dc6376282527f2da50100565b4147426b680906d4f9e258b30e0a4e5fdb77d391b288e1ae23316020830152604082019081526107cf196040836060816007855a01fa1561059c5760409260066080939284938451905260a05160608401525a01fa1561059c57565b604051907f0f65f2c8246e8d9dc33d87d22d84b95ed19618a7b07eefa21cca77400ae1fa7182527f0fc410eff99f4e31fff81d1867004b32640abc467ad97cfe2b8aff2665aec3e76020830152604082019081526107cf196040836060816007855a01fa1561059c5760409260066080939284938451905260a05160608401525a01fa1561059c57565b604051907f114369c46593e8c8c9c4b6cef303ae5702a15859f886e006a7556395e71ea44982527f24ab04f150aa38d3bf9ef3c69727be5d71589ba0cf006969ff49da95be34bf616020830152604082019081526107cf196040836060816007855a01fa1561059c5760409260066080939284938451905260a05160608401525a01fa1561059c57565b604051907f27c8b934496eb80ed9a8ba2e205d0f780297ad88ad200344f138d7d4b5196c7382527f1c260e0db798439b7da5a509954e6c9b76e89ca9840769258245ea2b3523f1c76020830152604082019081526107cf196040836060816007855a01fa1561059c5760409260066080939284938451905260a05160608401525a01fa1561059c57565b604051907f1f1892d9827bec406c3ebbbb815f3c2e43ae85b9641bd04db92644a257466a9082527f2326504d9d88f1a63cb37e7a29a69744057528d049d2cf89985d72caefdc367f6020830152604082019081526107cf196040836060816007855a01fa1561059c5760409260066080939284938451905260a05160608401525a01fa1561059c57565b604051907f1a1fb0c2f2da7db4b6bc76e261799797755451838be8cb5038c461e1af1871ab82527f1e04523611119c14cd9ba4219b379202656fa46305b59ec8030f6ed672de9c596020830152604082019081526107cf196040836060816007855a01fa1561059c5760409260066080939284938451905260a05160608401525a01fa1561059c57565b604051907f0385406f137fd173064bd83df3aab70cbe165542ffc0145aa9bf9b32fe1a582382527f1303bb5ffa5cd2f2172ed618835ba83965dda121c1608cae1cf493554783fb3b6020830152604082019081526107cf196040836060816007855a01fa1561059c5760409260066080939284938451905260a05160608401525a01fa1561059c57565b604051907f1d5ca68cd83843af284d1dde1e1d5049038cbd6090fe7747d1e23f319ef7888882527f20b26cc232a1aa2d6fada4aab22db481a9659b5310b02a836a66c219ece44d246020830152604082019081526107cf196040836060816007855a01fa1561059c5760409260066080939284938451905260a05160608401525a01fa1561059c57565b604051907f1e1b621f55a1dc92693258b2dcecfdcf09709f7cbe0182679fc76f5b25ab468c82527f220aa49f043298ad7bf41e71f8d0ede69c11a8f0e9d3a031c3a9a8271d701c916020830152604082019081526107cf196040836060816007855a01fa1561059c5760409260066080939284938451905260a05160608401525a01fa1561059c57565b604051907f107af6a22ef3d1d484ba03ea53f99ea310351dc67e86c8d85bbcb8d72759afa482527f16b65eb2b08430186542879031945e25eace7be83b5026c7a95e2e9350d579926020830152604082019081526107cf196040836060816007855a01fa1561059c5760409260066080939284938451905260a05160608401525a01fa1561059c57565b604051907f17a9d8a7c28bb24a7abf05acfc385843bad9d13f574fea38c5d2e8b672f4fbee82527f2af51dfc4109559b2c657cc6fa6a1b691545991d69d585ea595e0241828cde9d6020830152604082019081526107cf196040836060816007855a01fa1561059c5760409260066080939284938451905260a05160608401525a01fa1561059c57565b604051907f11dda27f31d441aaff2b8224d639bf7cc07c4c5f62b5ce9d6ac9130638ab6b0282527f268d9151fb402c2b048172303af0520ce71ba65177b34d87ceaaf91a9a6acc146020830152604082019081526107cf196040836060816007855a01fa1561059c5760409260066080939284938451905260a05160608401525a01fa1561059c57565b604051907f1efddc80b17a3ffccbd68e9eb0b3cef8a82fb1ed429aac75f2e1383f54cb460782527f2bfdb1e1d84e4cb171e72b09f0f3eda1461a25779146ba6714cbb4d7e40aa28c6020830152604082019081526107cf196040836060816007855a01fa1561059c5760409260066080939284938451905260a05160608401525a01fa1561059c57565b604051907f173ba76152da8ac8b82712560e0573f2e2a4584cc3d58a7368e0fb29c8cd8b7d82527f2fa080f90e6a5e5b81eec6782b74f7ef5c001ba394761b5a928e50b8e25818a46020830152604082019081526107cf196040836060816007855a01fa1561059c5760409260066080939284938451905260a05160608401525a01fa1561059c57565b604051907f29edddef8939607497bc9aea1b2da0d3e0c0fdccfd5f98df47a55c842491650082527f11f02d522f809ee56b408fefb22b8e53f1b4b701697a3e6819cb1580d9784a476020830152604082019081526107cf196040836060816007855a01fa1561059c5760409260066080939284938451905260a05160608401525a01fa1561059c57565b604051907f2cc1f3fe2f11c41abfa51c1a860475b2520412971ac1de6f02a8ebb23fdb37fa82527f0e7470de83e3c70843be2e677c566473242a3473b571ee2423f3f3bf6206b6ac6020830152604082019081526107cf196040836060816007855a01fa1561059c5760409260066080939284938451905260a05160608401525a01fa1561059c57565b604051907f0b4c2343daafe5413e33082bfb5539e8d0cc14bde0f5482979827e277285531c82527f0ffa36d11cc19630504f6e95df6e3169182928a4ed7e21b7b37b92db79277cdb6020830152604082019081526107cf196040836060816007855a01fa1561059c5760409260066080939284938451905260a05160608401525a01fa1561059c57565b604051907f238063ca545b08a7825b0aef639e69308769f12e5901a2999632deb698ff4a1f82527f286082f91f46d2f214b59a7d4dc622ba353623cfc5967a03f23af4f57d58f2606020830152604082019081526107cf196040836060816007855a01fa1561059c5760409260066080939284938451905260a05160608401525a01fa1561059c57565b604051907f13227f7569bdcae9c886268424e4f64e6e9cab083b06f0c004d121f76337dc1d82527f101158e46d1d390ca1b4db72de03f0ba24a096da0838085c6fcd95aede01e8a06020830152604082019081526107cf196040836060816007855a01fa1561059c5760409260066080939284938451905260a05160608401525a01fa1561059c57565b604051907f13bcc548f55d2d1018fa23ec7c05ede05847c66cfefcb5785ae7d05d96e0778982527f16c14efd7ec48331e185d0d373e0a5ac825a211d26d7b47168f4a031249083c96020830152604082019081526107cf196040836060816007855a01fa1561059c5760409260066080939284938451905260a05160608401525a01fa1561059c57565b604051907f12b28136ff548ea664acacf20e1c796070e0698c05084846104b12a26d5a8bdb82527f2420fad22747bee52fb0f45f9bc96b195459864f45a19f99a3d77cda47e7ef196020830152604082019081526107cf196040836060816007855a01fa1561059c5760409260066080939284938451905260a05160608401525a01fa1561059c57565b604051907f0c20209a8b3bcb844fd72fe211cc0408504d8a162c12c51671a17acbc243fc0b82527f18035fdd927df09d84a1f4c9edd4b760227aa6754ab4464b6309c9d52c35e7d96020830152604082019081526107cf196040836060816007855a01fa1561059c5760409260066080939284938451905260a05160608401525a01fa1561059c57565b604051907f24308a7cea5e217ae73b41519404c90f5c1e6f8668657d8ae236e2f0f82c0c2d82527f0ca7c9f4e3b620897364c42cea6afcabdb8c4c7011d55714f21c65e3bec141066020830152604082019081526107cf196040836060816007855a01fa1561059c5760409260066080939284938451905260a05160608401525a01fa1561059c57565b604051907f089a3f0067d57b5224ae96c4da766a671127072c1cae7ef57b2d6e7665b300a682527f0d576b49b913fcc266ecd9ac480e033eb5daeab1c201ab7f3e93ef071abbd2256020830152604082019081526107cf196040836060816007855a01fa1561059c5760409260066080939284938451905260a05160608401525a01fa1561059c57565b604051907f2cb3890472cfb000e17fe7f7e14819d34fc9347dcdb09adbc95b3559e445bd0782527f070be6036a36361042f78581550989978db7557629be330fab3f16a923596bfd6020830152604082019081526107cf196040836060816007855a01fa1561059c5760409260066080939284938451905260a05160608401525a01fa1561059c57565b604051907f25550c08d77a4fed6093d16419ced240b989b8a73fa7b3d0e0f7162650b25aea82527f21ad58823c487e6faa6d80ac73745b1ad3c96890f4913bc37e787f5a23a69e666020830152604082019081526107cf196040836060816007855a01fa1561059c5760409260066080939284938451905260a05160608401525a01fa1561059c57565b604051907f2941369a514192f2ea99cf651378f39b2d4008fca05405b7c7a694a106b4cbf382527f04df4ea9017e8f55f368b051aa989cf889964ea41cd0d6fe66ffd7cc2dd3f1e26020830152604082019081526107cf196040836060816007855a01fa1561059c5760409260066080939284938451905260a05160608401525a01fa1561059c57565b604051907f0913f053b12c28622c7a7ccbdb80a014dd9c9bf7b64d340430f1eae86bc51f7382527f24170c5a0209376b2e89fe15ecf4f98ba088d87d869e3dec01f99e6450054d8c6020830152604082019081526107cf196040836060816007855a01fa1561059c5760409260066080939284938451905260a05160608401525a01fa1561059c57565b604051907f15aaec00bdab6f7cd79b9978452bdfc2463e0b18963cac3f6a93bd478ecbbd0582527f1705144e4bd35ea2f7abc193f0ea16f1d21af64716790d964a940058a0b957096020830152604082019081526107cf196040836060816007855a01fa1561059c5760409260066080939284938451905260a05160608401525a01fa1561059c57565b604051907f1c0e2fb1bfe767d2d25ee2ef68f8d202341f6432ec4f2c3290213e5ec137b98b82527f202b3c26225cee46ba31c49061715bd4eec6b0e182461cb0df41a5d18178365e6020830152604082019081526107cf196040836060816007855a01fa1561059c5760409260066080939284938451905260a05160608401525a01fa1561059c57565b604051907f14d2465e52a454d72c7d5157c7d35bf50457647eefe61e8b0f4df296be2716e582527f294680b4af6bd0935447426c35fd792156d855daa55304644ff19a67ce556abf6020830152604082019081526107cf196040836060816007855a01fa1561059c5760409260066080939284938451905260a05160608401525a01fa1561059c57565b604051907f186f30359cac1b87a18c118f08e99c347ac0211dbd26f3340d2f08ff908d3d4682527f26984c75098638c9219c539caa0724875e0651d8283fdad2b3d359719b0c27af6020830152604082019081526107cf196040836060816007855a01fa1561059c5760409260066080939284938451905260a05160608401525a01fa1561059c57565b604051907f15fbc0791493a96ad994f59ba3d18d577fc42bcc5f11ba9d3052009927f4125082527f0eab9ca266eb15003591fe1b5da1239187a92b8c1e1140f385419b98a19ebf136020830152604082019081526107cf196040836060816007855a01fa1561059c5760409260066080939284938451905260a05160608401525a01fa1561059c57565b604051907e43fc1fdf52410ec41b479046c753aaa99bc52af873e452083c4f6f9d79913f82527f089dee56233d1be549e84f4b881c076ea168baccdc4807b8634457c83eebcfd86020830152604082019081526107cf196040836060816007855a01fa1561059c5760409260066080939284938451905260a05160608401525a01fa1561059c57565b604051907f233c6aa0d419d98b57878f02ffce2e022e67ea180bf7408e139e25f79e7f206d82527f14596930a173b569a5af7a44aeef14120dfc00fe548442d744e5b7a38bb5ce006020830152604082019081526107cf196040836060816007855a01fa1561059c5760409260066080939284938451905260a05160608401525a01fa1561059c57565b604051907f0f17f8a46fcd59db95bf8048dadc1b4776575ce2fb188fac7890af5d3820c4ba82527f2a2a9c725b85f8ea8de0697cf28e4afe63549c0d3cf75458fd492d3405dca86f6020830152604082019081526107cf196040836060816007855a01fa1561059c5760409260066080939284938451905260a05160608401525a01fa1561059c57565b604051907f1a02d03d0a487bfb7574a9a7f5b52eabeb8aaf50b0c6f6eb266180171e6f18a882527f1b96717427f67373be4fac6a45457e942094096b956e2b836e1cc18aa495d0116020830152604082019081526107cf196040836060816007855a01fa1561059c5760409260066080939284938451905260a05160608401525a01fa1561059c57565b604051907f18a2527f33f37f90066ab4f45f02cd9263657f4cc2bbce589b18adbd115f1aae82527f0b6fb7b416b1450a5fceeed6e71028db97c86306ff3d245dd1bab31feba5c5896020830152604082019081526107cf196040836060816007855a01fa1561059c5760409260066080939284938451905260a05160608401525a01fa1561059c57565b604051907f26082bf9228fecf508d036cba21c10a692e7852282a91b1ba10bfba14f410dd082527f04d97ab63aa70158128c6239757380c560ae70587a51c2e7d4d8c841c8e614076020830152604082019081526107cf196040836060816007855a01fa1561059c5760409260066080939284938451905260a05160608401525a01fa1561059c57565b604051907f10bcc79a5e9d5039dbe2d7a8472e90d19dbf52581f46babb42e20415a676b7f282527f144bcfcb4bb266bacc6b57f6db7f8b72241f56b6418117089e57eac4e9c015cb6020830152604082019081526107cf196040836060816007855a01fa1561059c5760409260066080939284938451905260a05160608401525a01fa1561059c57565b604051907f0b51a9ef833b0871e4ad99422beec84674a71c04a19100202523ed8410debfc382527f2791283c83a4b590421c6f87f9fa62f0c6837fba7a5f86f030255b91423449cb6020830152604082019081526107cf196040836060816007855a01fa1561059c5760409260066080939284938451905260a05160608401525a01fa1561059c57565b604051907f298c737452f7ef17cd058f477fa980709cd34c7eb5754788fde0331ada58c58b82527f11306ff052acadb3a4728c15ae2902598398b28602e78ad7c52df4812df37d4e6020830152604082019081526107cf196040836060816007855a01fa1561059c5760409260066080939284938451905260a05160608401525a01fa1561059c57565b604051907f19dac65664a19033dd2fdeef2f61d5a38d17aee939cf092dbb6d52801b34a48f82527f1a28072d9e1ff9257eb62d14885a7f72f62107b808cd6db415d4b61528ccc8ba6020830152604082019081526107cf196040836060816007855a01fa1561059c5760409260066080939284938451905260a05160608401525a01fa1561059c57565b604051907f1bb30df182c00931cb7c6e5c6c25faed59821f0a3ecf5f2d5aba99c0aca353e782527f26f64b216c12519cad156638d3d119161494938d5d6c347b43ff65a2f9ce1ecc6020830152604082019081526107cf196040836060816007855a01fa1561059c5760409260066080939284938451905260a05160608401525a01fa1561059c57565b604051907f1b786df41186c0077d2d453b1b758e642e7d24fa4129682a180580c7c0e13f9b82527f28e4eba220a88fde85b1fa3a26d703617eb8081eea27c056527b3694304e86f46020830152604082019081526107cf196040836060816007855a01fa1561059c5760409260066080939284938451905260a05160608401525a01fa1561059c57565b604051907f22ae483ef69630d0adc7beab302093427a4546946d4a27b07ca520efc3ff72ca82527f19a245b28962432461df7cddce34dcd553be745eeaa944f35fcf1030dcd11e796020830152604082019081526107cf196040836060816007855a01fa1561059c5760409260066080939284938451905260a05160608401525a01fa1561059c57565b604051907f12f9cf5099f99cffc4ec671bf785a1e08b31ebad613f624de7574f9e6d15030882527f0a67ed0227395e4a7e461a57e8453a536985d8f89687ccb310cf195d583473cf6020830152604082019081526107cf196040836060816007855a01fa1561059c5760409260066080939284938451905260a05160608401525a01fa1561059c57565b604051907f2a674d900dfb95cdf7c71c182083630b41b83f89d45e9958b68979154bf6400982527f04fb557fb08b8742f55863af24557377653a886cdc2758201436af8e152f283f6020830152604082019081526107cf196040836060816007855a01fa1561059c5760409260066080939284938451905260a05160608401525a01fa1561059c57565b604051907f272808acd3ea462f2c8441da59daba9131ad68c95bcc5fc80dfc6d9b71a6222582527f10a007a59cc931d0a2037a71767170b8be4de32661b90c8d012ff0df84eac4196020830152604082019081526107cf196040836060816007855a01fa1561059c5760409260066080939284938451905260a05160608401525a01fa1561059c57565b604051907f0ba657da6efce9a7cdf136cafffae8579eb7295763b0fe12e291c221638b84ce82527f1c628d9e97fccee08473f09d0c7517761d78100c236a3c7f457b9dc108c793586020830152604082019081526107cf196040836060816007855a01fa1561059c5760409260066080939284938451905260a05160608401525a01fa1561059c57565b604051907f0e1d7a2bad37efb9ab0d1fd25654b36949691939f9f0fa8b22f929f1072bd70182527f12504040b92b1bd212c2c82cc2748ae044250c48a550e5fe9330002559c278836020830152604082019081526107cf196040836060816007855a01fa1561059c5760409260066080939284938451905260a05160608401525a01fa1561059c57565b604051907f12ada13ec93d9c7f3457b629246cd8238a37d6c3d0ebcbf30a2bc1b5058ec71682527f1e67db969f4d195d36c3fd103836b097f0004f62ac40d36dc6db30b97b2957176020830152604082019081526107cf196040836060816007855a01fa1561059c5760409260066080939284938451905260a05160608401525a01fa1561059c57565b604051907f0f9cb1d4fb9ece617ad5b1ab67faadc08cb72b2b494287414ce9a613adc550e582527f1bdfa1f249b3ee4fec7842928d5d0a3981b28771c361ff5dcdd60e1955c627e06020830152604082019081526107cf196040836060816007855a01fa1561059c5760409260066080939284938451905260a05160608401525a01fa1561059c57565b604051907f107d3cda9c732719eb9f6a0fb18272e3479acf3bec39fc657ae68092772917c382527f2f2a76a4b91334d43819441171249b9283430699691c626cf588b9035f42ae926020830152604082019081526107cf196040836060816007855a01fa1561059c5760409260066080939284938451905260a05160608401525a01fa1561059c57565b604051907f08f65833fb5280cdcc5455f931140d2b3d96a8df23ba8b0f59f4b014296a744482527f21918ffdc73e95a3a2fed5070538e292d2f013cecaeaa090dc8516c4964251e76020830152604082019081526107cf196040836060816007855a01fa1561059c5760409260066080939284938451905260a05160608401525a01fa1561059c57565b604051907f25eb4e16edeb101f6b5bcca110fa1a657401d5475e802ad911ced67b11be861282527f167ed0c70366eeb8398e597cf6932116bda72d5191d603aff1f447afc2f56fe66020830152604082019081526107cf196040836060816007855a01fa1561059c5760409260066080939284938451905260a05160608401525a01fa1561059c57565b604051907f0cbd99d554aceb70a7b4912235f4a5522eb122d97d35794a0d104f92e27ccab082527f1152cea6aaa5d67de0259b7d0805757b23a2de4723fe51a5ee22266f9ace21096020830152604082019081526107cf196040836060816007855a01fa1561059c5760409260066080939284938451905260a05160608401525a01fa1561059c57565b604051907f157f04f99eefc58fd82a8f9990df4debc3d2e0c1cdfcfeca65188433c8e0e9a582527f2146b6d662f3baa76f2c2689899058edaac295b773122467285e41574fa8e0b16020830152604082019081526107cf196040836060816007855a01fa1561059c5760409260066080939284938451905260a05160608401525a01fa1561059c57565b604051907f1c3c11a67fb0aee6fdae20095ba6a4eb258f5e17dc6262b6d7fc1496d3a72c4d82527f15e2b92f422c80d2f0319fd7772ac2d7bce5ce3542333becd3caac13ab2f235a6020830152604082019081526107cf196040836060816007855a01fa1561059c5760409260066080939284938451905260a05160608401525a01fa1561059c57565b604051907f24ffbdaeccd6ba88b47ae69ecb23c1a25ada79032c3570db6f9f8d8ecd327ab682527f12336b34bc2be9a3ba10fe197165ff74211ca22b1a1e070f504bd391585580f16020830152604082019081526107cf196040836060816007855a01fa1561059c5760409260066080939284938451905260a05160608401525a01fa1561059c57565b604051907f266bbb3532b16bf58269fbf03cb1ab19ca67eb473e95af0b928efc47eaf3441282527f25830305e790fc65f10c64d1675c6f230898c06ab5c259c59525c4190807d3c36020830152604082019081526107cf196040836060816007855a01fa1561059c5760409260066080939284938451905260a05160608401525a01fa1561059c57565b604051907f0c66b843c884730dad5970312626afead808d23145cb9b3c1a5bf246326fce7882527f2a74a8a6dd05f6c80e0a3a0b7bab00adac9ff1f3cfd8d7e9d87fc0a8e97766be6020830152604082019081526107cf196040836060816007855a01fa1561059c5760409260066080939284938451905260a05160608401525a01fa1561059c57565b604051907f246b7c9d06e474da62d49faa27eb734ebb0ab705faf7d8af609a9fff0c4afff582527f0fbc1221af953faa212f6c7ac7af87338ea2845cd7db0887002c3699737749a46020830152604082019081526107cf196040836060816007855a01fa1561059c5760409260066080939284938451905260a05160608401525a01fa1561059c57565b604051907f29e74f470b65501b573dc18bc64875dcfdc7c5e531ff57bf650a323661f1289282527f082e34f59e967d5dfd3c084b4e78ed8da959f1227c71229a9e21f1249d5dc29e6020830152604082019081526107cf196040836060816007855a01fa1561059c5760409260066080939284938451905260a05160608401525a01fa1561059c57565b604051907f1571b13fe312f1681f6b224df48e20e177b50595fb1bd7b3beb8027b2dfef9cf82527f24a08600f3cbe866d40855a8ebefde0cc804213e887a4d5395bb90e7bb6156856020830152604082019081526107cf196040836060816007855a01fa1561059c5760409260066080939284938451905260a05160608401525a01fa1561059c57565b604051907f25149586753386761b7eed81e5805df2b93aa0bbd82547a52551550d4e4dcae082527f2caa23a84199c286a67465d1822a69f809b419cd0dcdabbcce37c614f9073ffd6020830152604082019081526107cf196040836060816007855a01fa1561059c5760409260066080939284938451905260a05160608401525a01fa1561059c57565b604051907f2ead2e353a8dcbce52193b80f763e0fb80a463bb0ddbaa23eaaf8e34c801743a82527f1f45829761cf674988ef765974fa8dc01a5d0d125d3b99eae95db9bdd58d3f936020830152604082019081526107cf196040836060816007855a01fa1561059c5760409260066080939284938451905260a05160608401525a01fa1561059c57565b604051907f0ab097a0789ea7d9e5af718493b503ffdcf2b60daccd36167e7f33f58c30a0b482527f0978f1dd1863b865a9d764090a418db826e1f8b93cbd6e91841ef0922a896d326020830152604082019081526107cf196040836060816007855a01fa1561059c5760409260066080939284938451905260a05160608401525a01fa1561059c57565b604051907f2cec2d5f111c6e4e9d831c0e4e9a070ff077521a6ed9cfec1b0b162fa962fb1f82527f04e0286ab10efb4f6f45999f9566dd0f5359fbb9fdeebae4879a61bd3f4efdab6020830152604082019081526107cf196040836060816007855a01fa1561059c5760409260066080939284938451905260a05160608401525a01fa1561059c57565b604051907f01bbd1de0cb33e4aea80b1788feb94590b1a4ef4031b246d2096af674886953a82527f0c4f8a9282c8678b7825742bfb581b6d64d5577a10170f43a4fbf010735456076020830152604082019081526107cf196040836060816007855a01fa1561059c5760409260066080939284938451905260a05160608401525a01fa1561059c57565b604051907f19d68b6607253f1752d73ac0dcb9152f4d720b0b027df0302033ed83a063ade682527f231f723b5271d8330ae7dce5c4a7bcc91ffc25fccfaec8502d4f117294ca29a26020830152604082019081526107cf196040836060816007855a01fa1561059c5760409260066080939284938451905260a05160608401525a01fa1561059c57565b604051907f07c8904958bf55746a707b184b5bb765d05c4f8dc00da5cb956e2712dd54b65082527f056edbe1a0d6f10fdfb2ef726dc4cedc2c1d836cc95e0c77a43bc81322eecf796020830152604082019081526107cf196040836060816007855a01fa1561059c5760409260066080939284938451905260a05160608401525a01fa1561059c57565b604051907f1f1bff724d55065d17554ea6bd2f2f42fe76a6d6f0bd9e22253735ee33bd6ca582527f06b83ebbfa14a3f1b587221b35c36acba07fec9e3ed1bcb8d52bd4a251a88ab56020830152604082019081526107cf196040836060816007855a01fa1561059c5760409260066080939284938451905260a05160608401525a01fa1561059c57565b604051907f14e83897932111a6d73beae659c85cf80e0389087636a9002a903611dab9502582527f2a139e4304b4d56c864dc553c12f2e8e087e739ce995e9eccbeb89aad04d5af66020830152604082019081526107cf196040836060816007855a01fa1561059c5760409260066080939284938451905260a05160608401525a01fa1561059c57565b604051907f305c6960e7cc04226ee5deed5ac781bd3293cccac029078ca8134d2c94be04e582527f27951cddbaf689ab3a79dd11822482a3588fbf4be83ff99fb52714ee3df0f82e6020830152604082019081526107cf196040836060816007855a01fa1561059c5760409260066080939284938451905260a05160608401525a01fa1561059c57565b604051907f20b1fb6a2e3dc38a385f5dee5de37f7ff7863178761def79a8414829d1df153b82527f13e5a4aa71f14e822fe0e3e4f0a5e380bfaa4d7a5ac989cddaff7193dc0e062b6020830152604082019081526107cf196040836060816007855a01fa1561059c5760409260066080939284938451905260a05160608401525a01fa1561059c57565b604051907f1f36566074362bff0e8fa4c05c8d29a4e153bd79aac368a400020f2cca8b8cee82527f02aac017998d58a0afcb35e3c00a359dc0f51269262da163300ef3b8083d3ca36020830152604082019081526107cf196040836060816007855a01fa1561059c5760409260066080939284938451905260a05160608401525a01fa1561059c57565b604051907f253840cd70767dd3389253d56a245f72dddfdbe2ebd8096bbfcf15f1b3b0dc3282527e64e6d1431f6b8fbdfc71c859d13c104ebd334baef9166dba23e92f10c005cb6020830152604082019081526107cf196040836060816007855a01fa1561059c5760409260066080939284938451905260a05160608401525a01fa1561059c57565b604051907f1e563d3f44723cc10adcc1289d4d499645678211ff99923fda8ee68fc9b66d5b82527f08b776760b23aa5e1a4c3ce588a9fb2e5d9904767258b396e96f93c6adcd70386020830152604082019081526107cf196040836060816007855a01fa1561059c5760409260066080939284938451905260a05160608401525a01fa1561059c57565b604051907f26fbda353c371085471c50509981d3b7d7611a89a4a1f211ceb58838e7b09cd082527f2ceb8d49691f9378985ba77187f71d2f3c7e238d0af67b587d947030b0366cb46020830152604082019081526107cf196040836060816007855a01fa1561059c5760409260066080939284938451905260a05160608401525a01fa1561059c57565b604051907f2befd06a27912669498c66d00ea2a79e4c785bf79ecbb4afebb4fb174b380fef82527f189cb2f6d305e512aba95013c92c4f6486c0cc4fd0c06ce8a5dc97a18c8f3ecf6020830152604082019081526107cf196040836060816007855a01fa1561059c5760409260066080939284938451905260a05160608401525a01fa1561059c57565b604051907f0f12deb47162049391183a2359970b412a57c92d41e8ebd28422947d7eea4c6e82527f1596044dff783adef4e998dd757e619b3529312e1e1540e1d2c9623f892349826020830152604082019081526107cf196040836060816007855a01fa1561059c5760409260066080939284938451905260a05160608401525a01fa1561059c57565b604051907f207e29606444f0ce4d4d83743ec5fd2742f45baf0d9647909294246359748d4382527f1ca3de0698d94871b08783fbec67b61a97776be7415942d2493b881b6cca4c086020830152604082019081526107cf196040836060816007855a01fa1561059c5760409260066080939284938451905260a05160608401525a01fa1561059c57565b6020907f23eeecffc303f391288a42f8b5449c6995e7fb484603fc8ec856fb1613e89f246080527f05f6c6b1c733bb5af133bc70169c18a4b856b005966b3da5096b265789404b2f60a052613cf5610104356105a6565b613d0161012435610630565b613d0d610144356106ba565b613d1961016435610744565b613d25610184356107ce565b613d316101a435610858565b613d3d6101c4356108e2565b613d496101e43561096c565b613d55610204356109f6565b613d6161022435610a80565b613d6d61024435610b0a565b613d7961026435610b94565b613d8561028435610c1e565b613d916102a435610ca7565b613d9d6102c435610d31565b613da96102e435610dbb565b613db561030435610e45565b613dc161032435610ecf565b613dcd61034435610f58565b613dd961036435610fe2565b613de56103843561106c565b613df16103a4356110f6565b613dfd6103c435611180565b613e096103e43561120a565b613e1561040435611294565b613e216104243561131e565b613e2d610444356113a8565b613e3961046435611432565b613e45610484356114bc565b613e516104a435611546565b613e5d6104c4356115d0565b613e696104e43561165a565b613e75610504356116e4565b613e816105243561176e565b613e8d610544356117f8565b613e9961056435611882565b613ea56105843561190c565b613eb16105a435611996565b613ebd6105c435611a20565b613ec96105e435611aaa565b613ed561060435611b34565b613ee161062435611bbe565b613eed61064435611c48565b613ef961066435611cd2565b613f0561068435611d5c565b613f116106a435611de6565b613f1d6106c435611e70565b613f296106e435611efa565b613f3561070435611f84565b613f416107243561200e565b613f4d61074435612098565b613f5961076435612122565b613f65610784356121ac565b613f716107a435612235565b613f7d6107c4356122bf565b613f896107e435612349565b613f95610804356123d3565b613fa16108243561245d565b613fad610844356124e7565b613fb961086435612571565b613fc5610884356125fb565b613fd16108a435612685565b613fdd6108c43561270f565b613fe96108e435612799565b613ff561090435612823565b614001610924356128ad565b61400d61094435612937565b614019610964356129c1565b61402561098435612a4b565b6140316109a435612ad5565b61403d6109c435612b5f565b6140496109e435612be9565b614055610a0435612c73565b614061610a2435612cfd565b61406d610a4435612d87565b614079610a6435612e11565b614085610a8435612e9b565b614091610aa435612f25565b61409d610ac435612faf565b6140a9610ae435613039565b6140b5610b04356130c3565b6140c1610b243561314d565b6140cd610b44356131d7565b6140d9610b6435613261565b6140e5610b84356132eb565b6140f1610ba435613375565b6140fd610bc4356133ff565b614109610be435613489565b614115610c0435613513565b614121610c243561359d565b61412d610c4435613627565b614139610c64356136b1565b614145610c843561373b565b614151610ca4356137c5565b61415d610cc43561384f565b614169610ce4356138d9565b614175610d0435613963565b614181610d24356139ec565b61418d610d4435613a76565b614199610d6435613b00565b6141a5610d8435613b8a565b6141b1610da435613c14565b61010092818492358352837f30644e72e131a029b85045b68181585d97816a916871ca8d3c208c16d87cfd479101358103066101205260443561014052606435610160526084356101805260a4356101a0527f2d4d9aa7e302d9df41749d5507949d05dbea33fbb16c643b22f599a2be6df2e26101c0527f14bedd503c37ceb061d8ec60209fe345ce89830a19230301f076caff004d19266101e0527f0967032fcbf776d1afc985f88877f182d38480a653f2decaa9794cbc3bf3060c610200527f0e187847ad4c798374d0d6732bf501847dd68bc0e071241e0213bc7fc13db7ab610220527f304cfbd1e08a704a99f5e847d93f8c3caafddec46b7a0d379da69a4d112346a7610240527f1739c1b1a457a8c7313123d24d2f9192f896b7c63eea05a9d57f06547ad0cec8610260526080516102805260a0516102a0527f198e9393920d483a7260bfb731fb5d25f1aa493335a9e71297e485b7aef312c26102c0527f1800deef121f1e76426a00665e5c4479674322d4f75edadd46debd5cd992f6ed6102e05282610300917f090689d0585ff075ec9e99ad690c3395bc4b313370b38ef355acdadcd122975b83527f12c85ea5db8c6deb4aab71808dcb408fe3d1e7690c43d37b4ce6cc0166fa7daa610320528035610340520135610360527f1b6dd2d9e1f51bbaff4f61e1b8e578e79c24041a93057daa57034bb9859f2021610380527f0cf12c8f01162469cd71ff0efd4a18851d7a99e0b979c5e159cad2107e7baacf6103a0527f023163ba6c27dddecaa1fa9fa61d2dc84b42ea305d60da9637dd9640dea5cbe86103c0527f2f80be9351b9c5291ba92b41de6cab32c310f898fa53ace81ee23a4209a9ca1c6103e0528160086107cf195a01fa9051169056fea2646970667358221220a381b42b5db75cd54c62d8cd6780846047f69a8f9a06121df3850842bea4090964736f6c634300080f0033",
  "linkReferences": {},
  "deployedLinkReferences": {}
}