{
  "_format": "hh-sol-artifact-1",
  "contractName": "Groth16Verifier",
  "sourceName": "contracts/Game_7_100Verifier.sol",
  "abi": [
    {
      "inputs": [
        {
          "internalType": "uint256[2]",
          "name": "_pA",
          "type": "uint256[2]"
        },
        {
          "internalType": "uint256[2][2]",
          "name": "_pB",
          "type": "uint256[2][2]"
        },
        {
          "internalType": "uint256[2]",
          "name": "_pC",
          "type": "uint256[2]"
        },
        {
          "internalType": "uint256[82]",
          "name": "_pubSignals",
          "type": "uint256[82]"
        }
      ],
      "name": "verifyProof",
      "outputs": [
        {
          "internalType": "bool",
          "name": "",
          "type": "bool"
        }
      ],
      "stateMutability": "view",
      "type": "function"
    }
  ],
  "bytecode": "0x60808060405234610016576137c3908161001c8239f35b600080fdfe6080604052600436101561001257600080fd5b6000803560e01c631c02f62f1461002857600080fd5b3461046057610b403660031901126104605761004336610463565b3660c41161045c5761005436610475565b90610b4436811161045857916104549161044f6020959461040060405261007d61010435610483565b61008961012435610483565b61009561014435610483565b6100a161016435610483565b6100ad61018435610483565b6100b96101a435610483565b6100c56101c435610483565b6100d16101e435610483565b6100dd61020435610483565b6100e961022435610483565b6100f561024435610483565b61010161026435610483565b61010d61028435610483565b6101196102a435610483565b6101256102c435610483565b6101316102e435610483565b61013d61030435610483565b61014961032435610483565b61015561034435610483565b61016161036435610483565b61016d61038435610483565b6101796103a435610483565b6101856103c435610483565b6101916103e435610483565b61019d61040435610483565b6101a961042435610483565b6101b561044435610483565b6101c161046435610483565b6101cd61048435610483565b6101d96104a435610483565b6101e56104c435610483565b6101f16104e435610483565b6101fd61050435610483565b61020961052435610483565b61021561054435610483565b61022161056435610483565b61022d61058435610483565b6102396105a435610483565b6102456105c435610483565b6102516105e435610483565b61025d61060435610483565b61026961062435610483565b61027561064435610483565b61028161066435610483565b61028d61068435610483565b6102996106a435610483565b6102a56106c435610483565b6102b16106e435610483565b6102bd61070435610483565b6102c961072435610483565b6102d561074435610483565b6102e161076435610483565b6102ed61078435610483565b6102f96107a435610483565b6103056107c435610483565b6103116107e435610483565b61031d61080435610483565b61032961082435610483565b61033561084435610483565b61034161086435610483565b61034d61088435610483565b6103596108a435610483565b6103656108c435610483565b6103716108e435610483565b61037d61090435610483565b61038961092435610483565b61039561094435610483565b6103a161096435610483565b6103ad61098435610483565b6103b96109a435610483565b6103c56109c435610483565b6103d16109e435610483565b6103dd610a0435610483565b6103e9610a2435610483565b6103f5610a4435610483565b610401610a6435610483565b61040d610a8435610483565b610419610aa435610483565b610425610ac435610483565b610431610ae435610483565b61043d610b0435610483565b610449610b2435610483565b35610483565b6130e5565b8152f35b8380fd5b5080fd5b80fd5b9060049160441161047057565b600080fd5b9060c4916101041161047057565b7f30644e72e131a029b85045b68181585d97816a916871ca8d3c208c16d87cfd4711156104ac57565b6000805260206000f35b604051907f0b27107f531d4f0b7f78cbd5f37f5d00025cf4e18944e9ddf46cb0c3c664d63b82527f227e586959d9d7d72051bc42df3eb4c6e64580dc21ba270d9b1af4ce5169c6b16020830152604082019081526107cf196040836060816007855a01fa156104ac5760409260066080939284938451905260a05160608401525a01fa156104ac57565b604051907f0cf3872b002c8e26ad6676429bacfc645321bff5f4d5e69db9f0416e1d9fdc8a82527f220ca1f8c2b4893fcb4741df515724d8f1564b1411689253ecc20337d2f073ab6020830152604082019081526107cf196040836060816007855a01fa156104ac5760409260066080939284938451905260a05160608401525a01fa156104ac57565b604051907f1ad73b1a73507a893b57ce1186611a9dbb0cdbe99d9554eb72082284cd2475ff82527f2faa21f09e25f1fb10e671872f303322257c2c7e2d40fadb4053d7aa8ebd6f4f6020830152604082019081526107cf196040836060816007855a01fa156104ac5760409260066080939284938451905260a05160608401525a01fa156104ac57565b604051907f03f7bf8f835144f2e4b3fa83401fb764a05b2c5e976ac6d45bf9185fae043f0a82527f09f5ad44ce40b43088855299296f95fb5150b4e8a81385c67dec06cc4b832e8e6020830152604082019081526107cf196040836060816007855a01fa156104ac5760409260066080939284938451905260a05160608401525a01fa156104ac57565b604051907f1a8013eb16b620367676c91b8877b8106bffe9e61655c7fdd0be1cf62fc2235e82527f0ae1815d39bab6707a393d2778d307d7415b7603efb525fe28fd9ee29e4266ad6020830152604082019081526107cf196040836060816007855a01fa156104ac5760409260066080939284938451905260a05160608401525a01fa156104ac57565b604051907f21fc9c25a84446b068a0fe2a0d43e2cd735f563f8b318e3c19de2d59800431db82527f022d32b7796080d357786e715f06871af3e3105b090014877c9a966cf032bce66020830152604082019081526107cf196040836060816007855a01fa156104ac5760409260066080939284938451905260a05160608401525a01fa156104ac57565b604051907f012389df43a5a5320c180febc85d3c46262d3771cb950065793923934556ec1a82527f0a17646c5948a49fa29122d5b091062c378a7614974cf241564dc1f2ff51e46c6020830152604082019081526107cf196040836060816007855a01fa156104ac5760409260066080939284938451905260a05160608401525a01fa156104ac57565b604051907f151cad68980cd89aefc1fa0edbf4d1ad3a5b24492b82f40520d671e6ec6c51de82527f0b42dba1b917d7114c7a118a4fb7cdc382b84c45689e5e7ac46db2684c58c8346020830152604082019081526107cf196040836060816007855a01fa156104ac5760409260066080939284938451905260a05160608401525a01fa156104ac57565b604051907f08aaf3e909bd777ca962b35636ec0e3a58d58c86edb39cd1581494547d50ae2682527f1877d3da52cc9a600c76d6d874fecfeaf1b03d94cb75e420c128b6984812c0ed6020830152604082019081526107cf196040836060816007855a01fa156104ac5760409260066080939284938451905260a05160608401525a01fa156104ac57565b604051907f1fcf402f266882c48c37651aa520e6dac099734ab593f6670f334cd91c79763582527e0188aafb3472c17458a5910e46436e695a7e9ba2f8e8dfd82f122a5498d8656020830152604082019081526107cf196040836060816007855a01fa156104ac5760409260066080939284938451905260a05160608401525a01fa156104ac57565b604051907f0c83399c5e869ec1044d7a3c48fa16fa5ea83bfbe4743fb4edbde8716e69a99682527f2ef747f12875ab10995925ba59f7d322a0c2a7ba325c7aa47e0af9d3b1f961e76020830152604082019081526107cf196040836060816007855a01fa156104ac5760409260066080939284938451905260a05160608401525a01fa156104ac57565b604051907f23c3dfe45b68ea47f86ebbc1e684b1865d6e79daaad1038d894f6a20312831dc82527f12f0835a54432774122733eda9087dc5272a723b3623b212325e22454d22ccd76020830152604082019081526107cf196040836060816007855a01fa156104ac5760409260066080939284938451905260a05160608401525a01fa156104ac57565b604051907f2924dd4c571eebd85bf8c521eeff3246e2ff44ef76eff2af9c2e30a54d04414f82527f2ab3fe1045c9164284671449ccbd966482b6e93c6e3b43f3b680c44dc4ff696b6020830152604082019081526107cf196040836060816007855a01fa156104ac5760409260066080939284938451905260a05160608401525a01fa156104ac57565b604051907f03a095200f3021cef7719f782a372ff1cad8566d92a3cdabfea1e03b73619d0582527f10e135dc3f5ba07090fad44acc9b5ba96d78133249cb7e4dca2f87a56cb6a9406020830152604082019081526107cf196040836060816007855a01fa156104ac5760409260066080939284938451905260a05160608401525a01fa156104ac57565b604051907f2ea8420c0abab378c72961a9e27b8af171c4679eef9bcb5fed8c69fa3c9d654d82527f2c6ebaecbf0bb5fbc81f760354a5c02edf21372df3141c31cff03b839fe950a26020830152604082019081526107cf196040836060816007855a01fa156104ac5760409260066080939284938451905260a05160608401525a01fa156104ac57565b604051907f2cb0c05e1adbf480ec41ac7be0e9faa56b8d3403ff1dd2545f815b5e1471f85d82527f1ec27b21d596587192a26e7f9c4457b5d8f83c88871be564e8948bac74762e946020830152604082019081526107cf196040836060816007855a01fa156104ac5760409260066080939284938451905260a05160608401525a01fa156104ac57565b604051907f23ca58484872fd1f15a2c25ab892c84fdde3fda2c05407325a6f1e33aba3f4cf82527f03774a532d09e8a3a3decd84f8b7ab46fc8be73cfce410646c627843162230de6020830152604082019081526107cf196040836060816007855a01fa156104ac5760409260066080939284938451905260a05160608401525a01fa156104ac57565b604051907f1231b0ec9fab1a25887f2a6ad40c8297636c1e479b0c91523485c136ab4cbd5f82527f19ba1ebb6c76c563d4035f155497465f873f5ffd7f61ff82a3cc235c569e4e746020830152604082019081526107cf196040836060816007855a01fa156104ac5760409260066080939284938451905260a05160608401525a01fa156104ac57565b604051907f25826510c3533b4b9e624fd8c4237490432874e68d783522480bc70e7fd5bb1282527f04a190526bb9b1f39a15f9088258d0f925ef3832598f72e52ee7f1686f70a3516020830152604082019081526107cf196040836060816007855a01fa156104ac5760409260066080939284938451905260a05160608401525a01fa156104ac57565b604051907f2bd433fe617b98be7bccd661937120269afc3c9069beef68215dc59e50df217382527f1cf6ad6fc54ce0c79b92e44d7a3e522ce75139bff170550c50344448fa2d7f306020830152604082019081526107cf196040836060816007855a01fa156104ac5760409260066080939284938451905260a05160608401525a01fa156104ac57565b604051907f0aaf992d345f84dc167a07547b168a7cb8f10126d8e682d669bdf6ff82ef4c0b82527f1874aee6b78fb18537378d70b4e4c2f3549f2c66e44fc27a84d08e2e07b5cd636020830152604082019081526107cf196040836060816007855a01fa156104ac5760409260066080939284938451905260a05160608401525a01fa156104ac57565b604051907f27649617277af54d6dbf0b176d3a9df9cc76c15969b6cc2b2f5abb1a8030669682527f0e86ec58791f0fe38b9b0c52b9247ea5f9f921b8d2736e657ee7ac10fcfeed026020830152604082019081526107cf196040836060816007855a01fa156104ac5760409260066080939284938451905260a05160608401525a01fa156104ac57565b604051907f1465d33b72882e22ab17b2b8623b39fa5cd34be266782bd548da56caa73dd03982527f20f240624aea89b3861126f155b7f149b0d0078f6e5a4b36f106c7ba89c6597d6020830152604082019081526107cf196040836060816007855a01fa156104ac5760409260066080939284938451905260a05160608401525a01fa156104ac57565b604051907f296c88106a09cd2d816c80dc955c91c42674f220c4520ef1f28ab9f316c792ec82527f1b50df5d8c400498c5edd831ee2a6be4b346039be7408d42125dc862a73b4c396020830152604082019081526107cf196040836060816007855a01fa156104ac5760409260066080939284938451905260a05160608401525a01fa156104ac57565b604051907f010d00368633c2d9eab3317d25ae38486177432144637ba3d5b7fa7868d39b9c82527f23f845e6906e7c99713ca4156fbb1891123993ec9eb0f56cb40e8703438d89f36020830152604082019081526107cf196040836060816007855a01fa156104ac5760409260066080939284938451905260a05160608401525a01fa156104ac57565b604051907f16b9d49d1510487ff9e91a9ebefa40c0d7ca776f671f8028fbbfb1950c851fad82527f0f8b9fb28a34d42fd78e341098a88c7c6f9c9424e64ec94e245ea7086bf369316020830152604082019081526107cf196040836060816007855a01fa156104ac5760409260066080939284938451905260a05160608401525a01fa156104ac57565b604051907f06d11cd500be20db3b5528acf6f13ebc00f401547b0581a60c2b24d0c191355282527f0c511f13cb14cd2194b1d92694562a0a94d2303ebadce8a2045614220290f2a56020830152604082019081526107cf196040836060816007855a01fa156104ac5760409260066080939284938451905260a05160608401525a01fa156104ac57565b604051907f077f16e779b534d0da4970e9572e1b59aa3e60f04ce959543f62c5bf25d4754d82527f1884853c2dee39ef1ede4004bd91bf7ced828ac156b481f6efe63e8a968f000c6020830152604082019081526107cf196040836060816007855a01fa156104ac5760409260066080939284938451905260a05160608401525a01fa156104ac57565b604051907f0295c2d4af3119fd8d23331240a9f47cafa8929c01c77d358cc8c90f8359a4ed82527f20356485f0ab1fc07abfc8520ca319f5f537cd7492deb6ac1efd70ef1100ffd76020830152604082019081526107cf196040836060816007855a01fa156104ac5760409260066080939284938451905260a05160608401525a01fa156104ac57565b604051907e7d163122c713ee9aa30cb80dbf6c2cb7bfec645b97225a283af24eccf669fe82527f2586f4cbbb91a9f6c6ae7245e8fb481f1ab1b0a2b6ede4f629882f289b2f6dd56020830152604082019081526107cf196040836060816007855a01fa156104ac5760409260066080939284938451905260a05160608401525a01fa156104ac57565b604051907f1639b5803668f8b7456647213e5045823fbfd08fe28ac4b5a036aa42a900226c82527f081f8084bd112510599d1d4bf411e3a05625dc2dde6c8203325c1e1242a5d31e6020830152604082019081526107cf196040836060816007855a01fa156104ac5760409260066080939284938451905260a05160608401525a01fa156104ac57565b604051907f03bc4f1d58e0171838579944603b792429c362229c42acb31a75f7ae5e959db482527f192fa64a6936677462ce6d43f2650eb4f036abe4a31978966d83f22c3fbbe9be6020830152604082019081526107cf196040836060816007855a01fa156104ac5760409260066080939284938451905260a05160608401525a01fa156104ac57565b604051907f1bf0ce0d58e7c1f093ba47256a10a99a9b633ab037cc0152150863af60d1d15e82527f0f798f262a3f449e49ef3ae32bdefa4520f6b306b2f06a53d5502ffe015fca986020830152604082019081526107cf196040836060816007855a01fa156104ac5760409260066080939284938451905260a05160608401525a01fa156104ac57565b604051907f2e764a1ed225f8567623a013fa9551731f9aeb6e6ec7ed55befa6f92ee8de68482527f283778c0f92344781dd9a1d9df7f154b4e9c315aef72a7de13720cc8e39669ea6020830152604082019081526107cf196040836060816007855a01fa156104ac5760409260066080939284938451905260a05160608401525a01fa156104ac57565b604051907f1fc577ec31a6abdbfb47401f112c7dd2c1b244c553e77e141e4e9604be9b706782527f2e2296fd9b9b2dbbd3a7c7ecafd271e79f64b2fa9162b025690619d75188d6826020830152604082019081526107cf196040836060816007855a01fa156104ac5760409260066080939284938451905260a05160608401525a01fa156104ac57565b604051907f2ef811be92723e512957236b86dbfc33289d5bc8108c058ad90d6829cad63e7782527f235f1eff693513b62e6e1c1e30fa55f07aa288103c9ca5a0a8d170393419cd9b6020830152604082019081526107cf196040836060816007855a01fa156104ac5760409260066080939284938451905260a05160608401525a01fa156104ac57565b604051907f120be1f8c4e7f90a02f70190a56e34ad798ba028946148530c2e932497164fd082527f119ed63919c3e2c4a7d79954cfb7421c70e052fff9236f088220f1125d5596846020830152604082019081526107cf196040836060816007855a01fa156104ac5760409260066080939284938451905260a05160608401525a01fa156104ac57565b604051907f1e949d3220fa735eaf04729032f2f938b91f1009ef8ca3cc312d8a8d6093d07782527f03f429d9ab8db0ccfb9fe7df860eded7e9d0551d630770336487f0667ad36f9f6020830152604082019081526107cf196040836060816007855a01fa156104ac5760409260066080939284938451905260a05160608401525a01fa156104ac57565b604051907f0d7125f9346a4e45b48597ebdaf8234bc4bedda7c01f3358939d5a912fa1e5b882527f22279d337fe0a2ea8f88a37f04cace319ca546ae871d7ce5ad529f9057525c106020830152604082019081526107cf196040836060816007855a01fa156104ac5760409260066080939284938451905260a05160608401525a01fa156104ac57565b604051907f27948963fe6c511ecf2ed628dac16cc372986b5e71b8dc6a2e47efd01193b40182527f2d4008e470f6d6279acd35235e4b2f8eeb915367604abf159d31f48693efcb9a6020830152604082019081526107cf196040836060816007855a01fa156104ac5760409260066080939284938451905260a05160608401525a01fa156104ac57565b604051907f1e52b57d1a3793b18fb374dd9f4ce24842eacba4823dea5759e8262981c1c7ea82527f198a6894a07b6602bfe77a4611f9d65357a50f8cc3c5324dff30afe4f0bba4fc6020830152604082019081526107cf196040836060816007855a01fa156104ac5760409260066080939284938451905260a05160608401525a01fa156104ac57565b604051907f0da966c7bb621fc8d5ed46f2b0c149af2e3c0d449adfbedfc43fb6a67b60ceba82527f1650472c5168fc9a6173b23ab231ba9c2ba0abb247213c5404f5d25969e8dde56020830152604082019081526107cf196040836060816007855a01fa156104ac5760409260066080939284938451905260a05160608401525a01fa156104ac57565b604051907f118c7eecedd56e164e1a8a15df1bb6856bfe21999a116293a109b06b612a4abc82527f29642d5d8941ae1cb9e3c440c699de15010e24e50147ee372ca1dfb79ece966e6020830152604082019081526107cf196040836060816007855a01fa156104ac5760409260066080939284938451905260a05160608401525a01fa156104ac57565b604051907f1dd1d647ae3686fbbf75b54868387ba5059e981d37e01bc07019efbf095b1b5682527f20e06f35811065216ca5187e6a524ddea61cee9c9cf54bb73cbbce673f597ed76020830152604082019081526107cf196040836060816007855a01fa156104ac5760409260066080939284938451905260a05160608401525a01fa156104ac57565b604051907f2510ba983b45dec5973eb49c0abe7f289bdd2e8a4474877a5cbbf816e706715582527f1f258293a56da9d98bf7721b42ad8b373947426029d34d727db21cde546bda576020830152604082019081526107cf196040836060816007855a01fa156104ac5760409260066080939284938451905260a05160608401525a01fa156104ac57565b604051907f28ad22b212a21f76ca38d3233f120e07486e9f6eac39c9afbc6db3d0a441d7bd82527f2053443026b77424ef8c6a576ee452b9fc2230bf85a13b58de8d6aa89f04410c6020830152604082019081526107cf196040836060816007855a01fa156104ac5760409260066080939284938451905260a05160608401525a01fa156104ac57565b604051907f13c511eac8eb356678a5b298a634827d7dc839ec52d7c9f3077ce2f65a103cad82527f251306957447e6d12aa3d2dce9a26e3d218397b50829117d39b97e9682745ece6020830152604082019081526107cf196040836060816007855a01fa156104ac5760409260066080939284938451905260a05160608401525a01fa156104ac57565b604051907f10bcf9f5531c3f1236358cc94d3efd69ae826b444e25dbf1a8454cb1413fc43582527f10e503c453575c44bd77c9167ca0457bae1d2fdb173d4ca1bd4bed696c33da646020830152604082019081526107cf196040836060816007855a01fa156104ac5760409260066080939284938451905260a05160608401525a01fa156104ac57565b604051907f172da02afe15263fdb54706dbe21b21c9151bab325f93640ec8a9edce02e9a0982527f178bac97cc9e00541fbadd253f8c0b5d34e73489550b0c5e8c883eb9864939746020830152604082019081526107cf196040836060816007855a01fa156104ac5760409260066080939284938451905260a05160608401525a01fa156104ac57565b604051907f25dcb763b2a86efb61f2450bb1748933a29d88dc557f4780cb5076dd82a5c51382527f24f11ece298f36a3458748a478dceb39f343c28021c63adb6f160620f0da37ec6020830152604082019081526107cf196040836060816007855a01fa156104ac5760409260066080939284938451905260a05160608401525a01fa156104ac57565b604051907f161d52fc2d74099e04d6ea9a23c762e528bc0bb7f0ff192512b9a0e7a0ff389f82527f2b436063002db7976bc8d37311dc0b3a666056f6bdecf755e941c39a85dc1b956020830152604082019081526107cf196040836060816007855a01fa156104ac5760409260066080939284938451905260a05160608401525a01fa156104ac57565b604051907f1b1aaa9b7cdfffdb1825378b833f215210c936decacb24b72b5a9a88383fb11382527f01f1151e4f626c69f8daf7ffbe727da7795070af79d6d3f43547559e0e3783ad6020830152604082019081526107cf196040836060816007855a01fa156104ac5760409260066080939284938451905260a05160608401525a01fa156104ac57565b604051907f227701042d8de6839a65a58e1042a55d5d3f5967c099785e67cf62b9ec8b8c7a82527f1320ba0b921583a28c13ef8a7feff9b9e1920c9f001c4b45e2721beeb2338a736020830152604082019081526107cf196040836060816007855a01fa156104ac5760409260066080939284938451905260a05160608401525a01fa156104ac57565b604051907f2e2d1f20016bb201319d8c9adbe1535c00413d30f24610ce72228340d1fb777782527f2e830a27c6e4f3bf549042bbf099b6e9a78783c04eeeee2efa59fcda89c7badc6020830152604082019081526107cf196040836060816007855a01fa156104ac5760409260066080939284938451905260a05160608401525a01fa156104ac57565b604051907f11ff4665ddbe0e49a07b904cd22112881c305014b339ea19b16bcd26836440b282527f1b539b93d36555b93e680b133d8df6deec5f3eff224a86f5cad48de60622c5b26020830152604082019081526107cf196040836060816007855a01fa156104ac5760409260066080939284938451905260a05160608401525a01fa156104ac57565b604051907f0d3b5fcbadf2adba4ce375453d960c96197c43eb81c7cf57463b03d805b8873f82527f147d6f4cc75401ad24efd6825cedb39bd412cf676117ab69f7ac0a38cc5d1e8f6020830152604082019081526107cf196040836060816007855a01fa156104ac5760409260066080939284938451905260a05160608401525a01fa156104ac57565b604051907f11defc7263beefcb1a0111e90852047092a4bb7e576359687c1a347ac571e35482527f0a9c5013c5f0548918b39d04baac5ea1038f219a1c92f8335a67a0c96263cba16020830152604082019081526107cf196040836060816007855a01fa156104ac5760409260066080939284938451905260a05160608401525a01fa156104ac57565b604051907f25120e2caa135a3956ed3f8077289f2497cf12dee760a63215b290ee0bdbdc3882527f2401f8cd07dac05284723ca2d94c5fc158c28e320ed7510550efdb3ecc1a908a6020830152604082019081526107cf196040836060816007855a01fa156104ac5760409260066080939284938451905260a05160608401525a01fa156104ac57565b604051907f0349bee7bd1ec9e1817c5dbb4457fd4ff9564cd305d716d0302775601c840b3382527f1e1eb3551e30530fb52f49c2ae92880e172b792358fd4fbf23dc1c37069601546020830152604082019081526107cf196040836060816007855a01fa156104ac5760409260066080939284938451905260a05160608401525a01fa156104ac57565b604051907f01e92718e796c1edef7542af506b26bd96e7771a16e5d84cf693991135c9b39f82527f2f192ef79d6dff89267d45396b6c926f836dde5a653962cca3b657b24164f3556020830152604082019081526107cf196040836060816007855a01fa156104ac5760409260066080939284938451905260a05160608401525a01fa156104ac57565b604051907f14e350fd6172db49717d25d72fb83b9635ad27414e87567c3f5cc205fb85b50d82527f174af45b5dfac05cea07773c6811c5840197e49767eeb20f4c2fc3c6ec21eab86020830152604082019081526107cf196040836060816007855a01fa156104ac5760409260066080939284938451905260a05160608401525a01fa156104ac57565b604051907f12c68dfecda691c69301d0378de7d2c9a0ed0ae93ac225dc5fc6985a8ecedc1882527f201f2a8ea2fac2d4ca2882f2b1928a1f222a3aeae817ece28ae79c45fecdeb0d6020830152604082019081526107cf196040836060816007855a01fa156104ac5760409260066080939284938451905260a05160608401525a01fa156104ac57565b604051907f0c6c0ee385079a9afba0c9b692c5b9cb4498422829e1008b7a320bdba560cee182527f213598859fb96e757377ddd894a614aab62a2e186e121a2b025909104bed08ea6020830152604082019081526107cf196040836060816007855a01fa156104ac5760409260066080939284938451905260a05160608401525a01fa156104ac57565b604051907f2415ae162604ffb01e38ba8f3dbec932b89e30d368bf7ea4991b46c31f40fe7d82527f24263fdeaff4de1da68948658309a5f6c43ed50bdb65220b7364c7f74a4957266020830152604082019081526107cf196040836060816007855a01fa156104ac5760409260066080939284938451905260a05160608401525a01fa156104ac57565b604051907f04dad9c9d45ee11451d6677b5ab24f7e90a255db2a2a25fa9f2e5e3e7453619782527f10853f2d33fb70e46f63ce0d209a3a426e389f09b97b7046d9980d911071f0716020830152604082019081526107cf196040836060816007855a01fa156104ac5760409260066080939284938451905260a05160608401525a01fa156104ac57565b604051907f2edd7005aac2194b5c8b5f56385d5bc7851ab139bc4c8b4accc74c69c5855b6e82527f1b5b5dfdcf4fa12c0241b8617abbb18d3d80528095f0d1f6089752acab876d066020830152604082019081526107cf196040836060816007855a01fa156104ac5760409260066080939284938451905260a05160608401525a01fa156104ac57565b604051907f17cab3dece58dca53309894d3f0c7408d3fd8c35c51fd91fd871e37dea90319382527f06777113027e0ce33ddc00efe89161b5ab24edd498457131905330267975651a6020830152604082019081526107cf196040836060816007855a01fa156104ac5760409260066080939284938451905260a05160608401525a01fa156104ac57565b604051907f0588f05ee96380421fe1011d3dfbddf882ee951b23622493c38e4a621d6f2fb782527f276034364e73357813fd587c5a156111a21c262d898514fd61704c0abf8992d76020830152604082019081526107cf196040836060816007855a01fa156104ac5760409260066080939284938451905260a05160608401525a01fa156104ac57565b604051907f17f64e9e90309476976e093593b48e0f39546ede0aa65998f4374de905d04f6c82527f2b6a61540c7b35cfdad61e3e4b2ebaee0927bd09dde65f342cb36a5c5ea784ce6020830152604082019081526107cf196040836060816007855a01fa156104ac5760409260066080939284938451905260a05160608401525a01fa156104ac57565b604051907f23c22784eeaff002189072b9077b7cc9617653b7493e6496256de7bf133c796f82527f0d2401bbb99c34b657208dcb15d4805233b227a8ec3672ce4405d817bfea2a176020830152604082019081526107cf196040836060816007855a01fa156104ac5760409260066080939284938451905260a05160608401525a01fa156104ac57565b604051907f032d9606f789183d1691ce2ed897f2d1526c8817a3cb21bd42321a2623f9cf3e82527f18d378d96516895ac7568f16d6bcf847012d7ec484e42381333fa68a765864b16020830152604082019081526107cf196040836060816007855a01fa156104ac5760409260066080939284938451905260a05160608401525a01fa156104ac57565b604051907f0267b947bfee8c48f64566e00764b4d56130886c13774709187c4f58d4506c2882527e20acb12f36ed072c554b10083c1d673fa3158b880a73104073e8583ce873a26020830152604082019081526107cf196040836060816007855a01fa156104ac5760409260066080939284938451905260a05160608401525a01fa156104ac57565b604051907f1df7d43ac73a73154e6ed08f8605a8d5c82082e308a9e5325b5ccccc9fdc2e4c82527f1b6ac29271ac893d3039af36bc31efe7b76c635a6b8ba38a43bb656c1c93bc516020830152604082019081526107cf196040836060816007855a01fa156104ac5760409260066080939284938451905260a05160608401525a01fa156104ac57565b604051907f22a31b2ad8283421d3ea60d17e822a72e62ad91cb1ee61b08eb21d43a21ae3c982527f03c1a1c14e849c18029756c8b035f1db720da0840bb62c091a375cd39641320d6020830152604082019081526107cf196040836060816007855a01fa156104ac5760409260066080939284938451905260a05160608401525a01fa156104ac57565b604051907f01fb01fbcbb576187088fcc4f856da9ba8e270581248c0a0a5d44ca0ddce81a482527f242ff093db96b85cba9f84278c32a63f9f216e1e019f53989d42d4212c6ad8d06020830152604082019081526107cf196040836060816007855a01fa156104ac5760409260066080939284938451905260a05160608401525a01fa156104ac57565b604051907f012b3f59a33e99f1c17388512827bcf336f2f3112f45de1a5d0a2437509d8c4b82527f2fa84da1fdcef491da1b4be4945d5936ab9550138f762ce9ebf391be57c99e0d6020830152604082019081526107cf196040836060816007855a01fa156104ac5760409260066080939284938451905260a05160608401525a01fa156104ac57565b604051907f03651eac21f32dee2c64ad25a2f997a374d9291332e162d5179db1da6770e4e082527f1daf238a1c2a810f8b00d8a4a81556f2ce90d93f55fe78879461c0ca77e708986020830152604082019081526107cf196040836060816007855a01fa156104ac5760409260066080939284938451905260a05160608401525a01fa156104ac57565b604051907f0d5a90f75863aa24d40258686440b861342d97983320ac3cd75b37094231fee882527f1242876ee7bc60cf4b47d6fcea589f47adee2a4297f337bc24bf18c8e163c0e36020830152604082019081526107cf196040836060816007855a01fa156104ac5760409260066080939284938451905260a05160608401525a01fa156104ac57565b604051907e18d39c230149f89a34b1684f301ccc1c700f04683ea58ccf534c800da3ba0082527f09ab2202e533f20bd19c590b5dbe2a48db28c7dae6e8600247f4282627ad6b146020830152604082019081526107cf196040836060816007855a01fa156104ac5760409260066080939284938451905260a05160608401525a01fa156104ac57565b604051907f0e644f9da864ef8ba122c5230cdf403b50137f7e2a817e1d6cf07f115723593a82527efe6949f3af0fe86aa998060471a3f00fc4e2912bb04cafa9b913bea9e993d96020830152604082019081526107cf196040836060816007855a01fa156104ac5760409260066080939284938451905260a05160608401525a01fa156104ac57565b604051907f03d9e6319fac25db43da18f7f15f283a0fc341733fbfb193712f5d1c29b39fbf82527f19e2e19f6e0132be7869b4ec53fe3a53e88f884a247789698f62bd1aed2089316020830152604082019081526107cf196040836060816007855a01fa156104ac5760409260066080939284938451905260a05160608401525a01fa156104ac57565b604051907f1082aca2a216a4ba206149e3c44935a51c3e7f9528d3a92805ff9cf84a300eb882527f05e05d96d49c26557e9948eaabdb06368bf7e05a5e99bc84483dce572c6961d36020830152604082019081526107cf196040836060816007855a01fa156104ac5760409260066080939284938451905260a05160608401525a01fa156104ac57565b6020907f2173b1bded18ac6eebeb7c73113c24a25b5dea5ab61b8e650a251a3f993ea7d56080527f0a3f7b9794a6196356ab2cc8044af1e857d384839336870d8a202f8535de6a6660a05261313c610104356104b6565b61314861012435610540565b613154610144356105ca565b61316061016435610654565b61316c610184356106de565b6131786101a435610768565b6131846101c4356107f2565b6131906101e43561087c565b61319c61020435610906565b6131a861022435610990565b6131b461024435610a19565b6131c061026435610aa3565b6131cc61028435610b2d565b6131d86102a435610bb7565b6131e46102c435610c41565b6131f06102e435610ccb565b6131fc61030435610d55565b61320861032435610ddf565b61321461034435610e69565b61322061036435610ef3565b61322c61038435610f7d565b6132386103a435611007565b6132446103c435611091565b6132506103e43561111b565b61325c610404356111a5565b6132686104243561122f565b613274610444356112b9565b61328061046435611343565b61328c610484356113cd565b6132986104a435611457565b6132a46104c4356114e0565b6132b06104e43561156a565b6132bc610504356115f4565b6132c86105243561167e565b6132d461054435611708565b6132e061056435611792565b6132ec6105843561181c565b6132f86105a4356118a6565b6133046105c435611930565b6133106105e4356119ba565b61331c61060435611a44565b61332861062435611ace565b61333461064435611b58565b61334061066435611be2565b61334c61068435611c6c565b6133586106a435611cf6565b6133646106c435611d80565b6133706106e435611e0a565b61337c61070435611e94565b61338861072435611f1e565b61339461074435611fa8565b6133a061076435612032565b6133ac610784356120bc565b6133b86107a435612146565b6133c46107c4356121d0565b6133d06107e43561225a565b6133dc610804356122e4565b6133e86108243561236e565b6133f4610844356123f8565b61340061086435612482565b61340c6108843561250c565b6134186108a435612596565b6134246108c435612620565b6134306108e4356126aa565b61343c61090435612734565b613448610924356127be565b61345461094435612848565b613460610964356128d2565b61346c6109843561295c565b6134786109a4356129e6565b6134846109c435612a70565b6134906109e435612afa565b61349c610a0435612b83565b6134a8610a2435612c0d565b6134b4610a4435612c97565b6134c0610a6435612d21565b6134cc610a8435612dab565b6134d8610aa435612e35565b6134e4610ac435612ebf565b6134f0610ae435612f48565b6134fc610b0435612fd1565b613508610b243561305b565b61010092818492358352837f30644e72e131a029b85045b68181585d97816a916871ca8d3c208c16d87cfd479101358103066101205260443561014052606435610160526084356101805260a4356101a0527f2d4d9aa7e302d9df41749d5507949d05dbea33fbb16c643b22f599a2be6df2e26101c0527f14bedd503c37ceb061d8ec60209fe345ce89830a19230301f076caff004d19266101e0527f0967032fcbf776d1afc985f88877f182d38480a653f2decaa9794cbc3bf3060c610200527f0e187847ad4c798374d0d6732bf501847dd68bc0e071241e0213bc7fc13db7ab610220527f304cfbd1e08a704a99f5e847d93f8c3caafddec46b7a0d379da69a4d112346a7610240527f1739c1b1a457a8c7313123d24d2f9192f896b7c63eea05a9d57f06547ad0cec8610260526080516102805260a0516102a0527f198e9393920d483a7260bfb731fb5d25f1aa493335a9e71297e485b7aef312c26102c0527f1800deef121f1e76426a00665e5c4479674322d4f75edadd46debd5cd992f6ed6102e05282610300917f090689d0585ff075ec9e99ad690c3395bc4b313370b38ef355acdadcd122975b83527f12c85ea5db8c6deb4aab71808dcb408fe3d1e7690c43d37b4ce6cc0166fa7daa610320528035610340520135610360527f1fb6395f75812dc130eaefafce269bcdd9b07de35dd253304421c500f2b5b332610380527f0dff3039710da855bffc41305df21d4c1e2c14739408d1bb75ad08d7a2251f2c6103a0527f24e60e3be098538a91b53b71cf0e9d1c1e18677146d80d0df9ec08b44faea6136103c0527f05ca5b9e6f5a22a199dc52b828694f559dd8eaf5812c4206e4c25962d12f04646103e0528160086107cf195a01fa9051169056fea26469706673582212209b74e1104e559534434e07b73ab6534c071d7dd0af9a02b2a08e04eaca06209c64736f6c634300080f0033",
  "linkReferences": {},
  "deployedLinkReferences": {}
}