{
  "_format": "hh-sol-artifact-1",
  "contractName": "Groth16Verifier",
  "sourceName": "contracts/Game_5_100Verifier.sol",
  "abi": [
    {
      "inputs": [
        {
          "internalType": "uint256[2]",
          "name": "_pA",
          "type": "uint256[2]"
        },
        {
          "internalType": "uint256[2][2]",
          "name": "_pB",
          "type": "uint256[2][2]"
        },
        {
          "internalType": "uint256[2]",
          "name": "_pC",
          "type": "uint256[2]"
        },
        {
          "internalType": "uint256[62]",
          "name": "_pubSignals",
          "type": "uint256[62]"
        }
      ],
      "name": "verifyProof",
      "outputs": [
        {
          "internalType": "bool",
          "name": "",
          "type": "bool"
        }
      ],
      "stateMutability": "view",
      "type": "function"
    }
  ],
  "bytecode": "0x6080806040523461001657612b1f908161001c8239f35b600080fdfe6080604052600436101561001257600080fd5b6000803560e01c63ea59061d1461002857600080fd5b34610370576108c03660031901126103705761004336610373565b3660c41161036c5761005436610385565b906108c436811161036857916103649161035f6020959461040060405261007d61010435610393565b61008961012435610393565b61009561014435610393565b6100a161016435610393565b6100ad61018435610393565b6100b96101a435610393565b6100c56101c435610393565b6100d16101e435610393565b6100dd61020435610393565b6100e961022435610393565b6100f561024435610393565b61010161026435610393565b61010d61028435610393565b6101196102a435610393565b6101256102c435610393565b6101316102e435610393565b61013d61030435610393565b61014961032435610393565b61015561034435610393565b61016161036435610393565b61016d61038435610393565b6101796103a435610393565b6101856103c435610393565b6101916103e435610393565b61019d61040435610393565b6101a961042435610393565b6101b561044435610393565b6101c161046435610393565b6101cd61048435610393565b6101d96104a435610393565b6101e56104c435610393565b6101f16104e435610393565b6101fd61050435610393565b61020961052435610393565b61021561054435610393565b61022161056435610393565b61022d61058435610393565b6102396105a435610393565b6102456105c435610393565b6102516105e435610393565b61025d61060435610393565b61026961062435610393565b61027561064435610393565b61028161066435610393565b61028d61068435610393565b6102996106a435610393565b6102a56106c435610393565b6102b16106e435610393565b6102bd61070435610393565b6102c961072435610393565b6102d561074435610393565b6102e161076435610393565b6102ed61078435610393565b6102f96107a435610393565b6103056107c435610393565b6103116107e435610393565b61031d61080435610393565b61032961082435610393565b61033561084435610393565b61034161086435610393565b61034d61088435610393565b6103596108a435610393565b35610393565b612531565b8152f35b8380fd5b5080fd5b80fd5b9060049160441161038057565b600080fd5b9060c4916101041161038057565b7f30644e72e131a029b85045b68181585d97816a916871ca8d3c208c16d87cfd4711156103bc57565b6000805260206000f35b604051907f0e44788acb31adceb67b88a28127b899adeffaf8568bada12b99e2ef18f1171682527f231c22da221ffc842087a5197fac15bdf97b2ac51b1d672a527df42270e97bf76020830152604082019081526107cf196040836060816007855a01fa156103bc5760409260066080939284938451905260a05160608401525a01fa156103bc57565b604051907f1470a4128b6821d53b990e430645b3a08ecfcec16d0d4ec4fa2100173d1c134c82527f22e85484710158f9983e9f92ff085633b74cd6114282ee8e25965837fe8583136020830152604082019081526107cf196040836060816007855a01fa156103bc5760409260066080939284938451905260a05160608401525a01fa156103bc57565b604051907f1252784bba0db53eff83e6893fb734ee0e80c7f8b4d2c511dbfbe78a18dad79282527f01a46e52005846f61f079d6a8276e4bb6761accf04b1d425e187e8727474be036020830152604082019081526107cf196040836060816007855a01fa156103bc5760409260066080939284938451905260a05160608401525a01fa156103bc57565b604051907f16b6e255beaa0a64e935ed09fde23fb88b91d62f164bc918ebdafe7c72f0db5382527f10cdb31ff1fb7dc614cbb48415f0eea39f2a34103c27f6b69012e9bc137708b16020830152604082019081526107cf196040836060816007855a01fa156103bc5760409260066080939284938451905260a05160608401525a01fa156103bc57565b604051907f2612205a6d0aaca4a5a13a73637ede75d4d20bc1dac44156eba383ca62beba7682527f0bca49cb25e4817619523fc3c7773fe359542fff8c409442a6c49299979809e16020830152604082019081526107cf196040836060816007855a01fa156103bc5760409260066080939284938451905260a05160608401525a01fa156103bc57565b604051907eaec24ba18db20bb3f081cb927a6a81d2b79aa8431b7b359beb6215bef8ad1a82527f2fa141036f8597ec363195db611a864ccd6aca1a873f59a3b9b03f557ca2a5cf6020830152604082019081526107cf196040836060816007855a01fa156103bc5760409260066080939284938451905260a05160608401525a01fa156103bc57565b604051907f0af2dd091a05cdf0eb21b9102704a802f97042735b1d5cb62af671127ffa2c5782527f050525585958d107e31240d4cb6fee4a30cc8c177db5bd0ed628cca4c14a43e56020830152604082019081526107cf196040836060816007855a01fa156103bc5760409260066080939284938451905260a05160608401525a01fa156103bc57565b604051907f18a0068403f34d90174f66b1ebf8af85fa71d2da15180f96679e6f1dae3a396982527f07e87bb4a6075a540d7384f2abc2dfb78b65de0f961db840f8a542c0ad578bf96020830152604082019081526107cf196040836060816007855a01fa156103bc5760409260066080939284938451905260a05160608401525a01fa156103bc57565b604051907f2e91a8f11e62e5905e2190646ab35735a7c252399b7cd729a138c3d4049c616b82527f16d75f7cafb9992c16be7cd0ed859625a6098216389d6dd4f7fb917b071d056b6020830152604082019081526107cf196040836060816007855a01fa156103bc5760409260066080939284938451905260a05160608401525a01fa156103bc57565b604051907f26e7e7d704af63064a55a708cc2f857e5b1a9f19f7798d09b1ed1c9df4aceeab82527f0b3a85d20b342c9c57d6a141b2e357561fb604c76a237299e70e1af6cb8a559b6020830152604082019081526107cf196040836060816007855a01fa156103bc5760409260066080939284938451905260a05160608401525a01fa156103bc57565b604051907f208ce3b625e4c912a2a98eba0291a9f27f8b87805eda11c692cbf8a2b37a0f0f82527f17c851a6feb02aa2d52802c883f50270029982e1c8381f0cbbd3ba93ad079d336020830152604082019081526107cf196040836060816007855a01fa156103bc5760409260066080939284938451905260a05160608401525a01fa156103bc57565b604051907f1a538f45c6ae3fe26f07a6397d8a69210f0b5cb19477a3d61801f50615366a6882527f08694b77e6a27eb1fab2aed3660d2c18c667928ceb7d33526540aa11f4d92b5c6020830152604082019081526107cf196040836060816007855a01fa156103bc5760409260066080939284938451905260a05160608401525a01fa156103bc57565b604051907f13e1e3b0d523337b3f505abb6a88deec9ad8454f063c9cf16566c3f4ee04c70082527f23d871022a0435d9bf870e5c072103ad8c3be32bb9b794e0842b8b184f867be16020830152604082019081526107cf196040836060816007855a01fa156103bc5760409260066080939284938451905260a05160608401525a01fa156103bc57565b604051907f2aab667b226b14de95574738c1c9a02a0f2972171bf78c9c4403939428f46bfb82527f0b874ef95d83eac1827ac8e8089993023aa99cb1625cba6d0e52ede556d21b1b6020830152604082019081526107cf196040836060816007855a01fa156103bc5760409260066080939284938451905260a05160608401525a01fa156103bc57565b604051907f01b23bbe4292cacdd6647f98a9530a55aa3f9f9e13a94cd6023b75fc8a6aec9082527f1f15910b653e21c9a26a00090d71396bf295dacb4c74bfe9e355d5ca453f1ba56020830152604082019081526107cf196040836060816007855a01fa156103bc5760409260066080939284938451905260a05160608401525a01fa156103bc57565b604051907f23563da3adbce2e5b7d58fb7e16ec459e25d430fd9c09fc570ae0bd0dcf1bb7282527f04a2d14576d6021fc095dad998f23d0ec7eee03e5e44dc23d1791b15ff9aaf2f6020830152604082019081526107cf196040836060816007855a01fa156103bc5760409260066080939284938451905260a05160608401525a01fa156103bc57565b604051907f0c030592bc47c0dc70753b04ae082341265bf72a70415cb940bc518d213cd92d82527f225568f73b09b2017a67b865077c7576b66fec8ae544ebf547be0c062e5150056020830152604082019081526107cf196040836060816007855a01fa156103bc5760409260066080939284938451905260a05160608401525a01fa156103bc57565b604051907f147788007e99d476137c90577d59b0aa7629ba72bb4b988f73ada651d325d09c82527f20fa5ee7c01e95c34753f423886070febb9cf8b8c0760b73969b3e6ae6b771e66020830152604082019081526107cf196040836060816007855a01fa156103bc5760409260066080939284938451905260a05160608401525a01fa156103bc57565b604051907f1a41657c226ae87cfb338e57b6ae7f73162c9bd28bfe55fdd08902cb3d5e08da82527f1c4d84c21690ebc5dc63169f5dcc340e62b00cb9e6eaa4453b5b759f57a0da8b6020830152604082019081526107cf196040836060816007855a01fa156103bc5760409260066080939284938451905260a05160608401525a01fa156103bc57565b604051907f077951183f448033faff832a692f7da7dd6d0943e579e340f362e3932f3ab04882527f23f84cae7e3e68d2c8370c63671dba020c40ec9342e6991bdf4f3b464828ad926020830152604082019081526107cf196040836060816007855a01fa156103bc5760409260066080939284938451905260a05160608401525a01fa156103bc57565b604051907f05dd2f0361f7ca898f438ef53add8fcd3a964690d28ab29d0a16824a1d6b19bc82527f1d05b5f085d2cbc7063728b436069de2ab42e87093a9b6ca4b2fda503bc3c9876020830152604082019081526107cf196040836060816007855a01fa156103bc5760409260066080939284938451905260a05160608401525a01fa156103bc57565b604051907f1939612b8e6d2e28404b72f2b5f8d98a03b00e21f5a12bb7917c642e65245a2882527f10bb6cb51c46072cf693f35202c1825468de85b3f2806e8fe6bcd9a60ee9606d6020830152604082019081526107cf196040836060816007855a01fa156103bc5760409260066080939284938451905260a05160608401525a01fa156103bc57565b604051907f28f19154c0b98fd2dfe2a565ad2b03bf11801567904445de9d19c445db4cf4bd82527f21444675729291842ad815a44a6035631a37aa4f73aa3029c339e6d0f5012b736020830152604082019081526107cf196040836060816007855a01fa156103bc5760409260066080939284938451905260a05160608401525a01fa156103bc57565b604051907f0400e70ca0c63f451b2bc201c0cf1cce034dc1fcde93898598006bb2f26a162482527f1b2da8640f0e9e36eb96c3412b84b8239661198d0a1533944070ea401618da376020830152604082019081526107cf196040836060816007855a01fa156103bc5760409260066080939284938451905260a05160608401525a01fa156103bc57565b604051907f0d2850bb236fc58792e178e617c605eb9c79262f217573ee9ddc34e4ce0ef9c182527f23a7c34701472ad264f55129412e390ff3bfaecb3c8d73b9ce9579a3dfa09dd06020830152604082019081526107cf196040836060816007855a01fa156103bc5760409260066080939284938451905260a05160608401525a01fa156103bc57565b604051907f04e803464728bb891ef93b12eb2bd7ef182eac2a930b67b6c6357c9e9481890682527f122a96e92037570fa7621d7a677730690b12d62c350eb4c9378426dbe644fcfb6020830152604082019081526107cf196040836060816007855a01fa156103bc5760409260066080939284938451905260a05160608401525a01fa156103bc57565b604051907f0a0f5954ad0c2ed6620237ad4a992d85dfd0c8c8d38e85d28f551afbe39304b082527f160e80428a1458b2a122f52b91461f74ef2759c5f44a3fc60bfa4d8d5b1bce696020830152604082019081526107cf196040836060816007855a01fa156103bc5760409260066080939284938451905260a05160608401525a01fa156103bc57565b604051907f2153eb92c9b539a7fa85f7490a4f9a86953346b991e62e8a1d38d07cf2ed67df82527f20698b52a06f48c8f1028ddfc3c609912c0f26e7dc43d5b4068f8ea43a5706af6020830152604082019081526107cf196040836060816007855a01fa156103bc5760409260066080939284938451905260a05160608401525a01fa156103bc57565b604051907f02b266177dc041a444f5898a2204c61677395efef914dea64cca3a00a040584482527f07a0c31c765afd392bc578c025dbbe602275ae609cb4690fee2b679aa49985396020830152604082019081526107cf196040836060816007855a01fa156103bc5760409260066080939284938451905260a05160608401525a01fa156103bc57565b604051907f2b8dc0d0a19bbf621286a2379228b4ed850c758cbe2bcf6fb0a256053c7e0f4c82527f2bc4852b7ea65c3dc21141103de2a84bef2f2ec6dc204f6ba0cb418570c552cc6020830152604082019081526107cf196040836060816007855a01fa156103bc5760409260066080939284938451905260a05160608401525a01fa156103bc57565b604051907f2c67f9278d6503aaaac7c0deebd76d2a5d851ab213291a0da1897f96e75cafbe82527f1655a4b769c6d49eb61164482fcd36bd080a38abc27616e906c6533f46e465066020830152604082019081526107cf196040836060816007855a01fa156103bc5760409260066080939284938451905260a05160608401525a01fa156103bc57565b604051907f19db1f1b916df8e2c58d29a76936f2603d4d7d967a10a77c24e4f24f2c2dd12282527f1bf72afcc0e4c7ac39a5bb2bb8f3b045cca4825a4f6eb27b5eda5cb9000529736020830152604082019081526107cf196040836060816007855a01fa156103bc5760409260066080939284938451905260a05160608401525a01fa156103bc57565b604051907f0f5c7f9c2fd63a6a1a24bf063a3c6727f291ab5e067c4979f001280b43a9f32582527f1bb2cfc611a92228eefd76a7692f4c04777e251258ecd57e637b492011a43dce6020830152604082019081526107cf196040836060816007855a01fa156103bc5760409260066080939284938451905260a05160608401525a01fa156103bc57565b604051907f0f9643985dd1a27449751e4984e7b0680e7737d244ae429d6028e7a35569423b82527f1423fe56d18b2822387260f0b17242906e6b6111107f4350d350bde5455914396020830152604082019081526107cf196040836060816007855a01fa156103bc5760409260066080939284938451905260a05160608401525a01fa156103bc57565b604051907f01a3dd692422d322e0d1a372fda9ad72b628d140b0b2b941813c92bd7ad345f182527f2f21770fb00f2272da84b710907f37ca9de6ced6805206e10556a199bb79b50e6020830152604082019081526107cf196040836060816007855a01fa156103bc5760409260066080939284938451905260a05160608401525a01fa156103bc57565b604051907f232629a4a54952bb4099bcacc316600d79bc66d7dc5b97b86c67be900953e68982527f0a64a07b9cd9eeb1c82ab2950d555bc9f6763d8becb7b30b004da288a6d60a036020830152604082019081526107cf196040836060816007855a01fa156103bc5760409260066080939284938451905260a05160608401525a01fa156103bc57565b604051907f230fc3c28a66026bbb3c5c5406069396f6e435a8cd3d50175f53f3b0a39218c882527f1601dc1ae2d08d1dfe8d6c2958ad4e308a6bbebd41e4bea29216b4a685bf11356020830152604082019081526107cf196040836060816007855a01fa156103bc5760409260066080939284938451905260a05160608401525a01fa156103bc57565b604051907f1acbb31dbf89ea61e3eb304cb4ded7539d04ea407ea4845c2739fdd85bcca22b82527f022623aa0e7acc3f47ec985abd2466d7155a6a76830a7a30d897c48619760bbc6020830152604082019081526107cf196040836060816007855a01fa156103bc5760409260066080939284938451905260a05160608401525a01fa156103bc57565b604051907f05613e54f208082c0b840a3555037094551fda48e59301af5cf716f31fce23cb82527f09b72dbdacafae0e68b4ae23007e0f5b040a0d471c4d01b3898b701e1ede7e0d6020830152604082019081526107cf196040836060816007855a01fa156103bc5760409260066080939284938451905260a05160608401525a01fa156103bc57565b604051907f04fb5401f355cfa8090725dfd67de0700454f9b174e8c334fc8fbe406627247b82527f114cb1393b8c8cb780c62150bb56bd8af2a2617c7c1eaefd86e08410c7cde5c86020830152604082019081526107cf196040836060816007855a01fa156103bc5760409260066080939284938451905260a05160608401525a01fa156103bc57565b604051907f1f8bdb59695eba7476f73cf3aeba203a9e3047503520f427b6ac7dbcaefde34e82527f21a7b7a7993fe2549ae5fefb88b448478bc00b03b306c318cbf7879b60e9a85e6020830152604082019081526107cf196040836060816007855a01fa156103bc5760409260066080939284938451905260a05160608401525a01fa156103bc57565b604051907f101b5c3bc0b0898aa5aaf7986d85eefa30319a53773cd228f079272769e6661c82527f246cbbded99d5fe242e45709fbf22424412d76cdf49f959a1e4b7fd12addf2356020830152604082019081526107cf196040836060816007855a01fa156103bc5760409260066080939284938451905260a05160608401525a01fa156103bc57565b604051907f2ef2f0c62a55d62b365ebb8278210d043c41857b88702b0bd74551ad7bfba2d882527f09251065f99a00ae4545e1a39a1e661b942464247df3b0b669c3a1ee241bb7b76020830152604082019081526107cf196040836060816007855a01fa156103bc5760409260066080939284938451905260a05160608401525a01fa156103bc57565b604051907f1a9d9e7abd762d6976664c2f1e284d55e06b7eb90d42d12f124827a79937aad682527f24f53c21505f33de3e68c4da90f90c85d15f52b4e3084c256690a729e1b3e26e6020830152604082019081526107cf196040836060816007855a01fa156103bc5760409260066080939284938451905260a05160608401525a01fa156103bc57565b604051907f2a4c99f04205dc7d48e61941c6a747c1dbbef0ffb7a4b3a7660adab3418000a582527f12e3cd16cc8ebaa03fda83102cad8e10b7a643736da6c522a39a41b5ff04d9be6020830152604082019081526107cf196040836060816007855a01fa156103bc5760409260066080939284938451905260a05160608401525a01fa156103bc57565b604051907f162753433a654a83f354792a25db3e2f0fb4118bb4cadc33e26ba6d91257d1e482527f08522f7da77d1d531420e3a6dcbede6c1b16a15835a89c2231150843bffa71af6020830152604082019081526107cf196040836060816007855a01fa156103bc5760409260066080939284938451905260a05160608401525a01fa156103bc57565b604051907f057d5978dff67b61a124e2d544445e6080095ef0de0903bb4102685a4061c88182527f1d31ceb739f85150da033a6d6f3b4a64360ec4f9ac27bd12273f28ffaf8b6cbc6020830152604082019081526107cf196040836060816007855a01fa156103bc5760409260066080939284938451905260a05160608401525a01fa156103bc57565b604051907f2f2fbabceed5f5f05c259fd82c2c0a8b87b4f268ebc4d5e37b857e22dbdec66982527f143c6f785eee4da8654d523a5604673dd564e890234c3ff09027e9a660ee5c016020830152604082019081526107cf196040836060816007855a01fa156103bc5760409260066080939284938451905260a05160608401525a01fa156103bc57565b604051907f17166e57c6976dd20a07d495ace2f54dff143238754a7f1f2522c4bce9e30b0382527f0bc68257767f79468e45d2193bcab78b02cf541a7c01804ddcebd0ab62b154296020830152604082019081526107cf196040836060816007855a01fa156103bc5760409260066080939284938451905260a05160608401525a01fa156103bc57565b604051907f04521be6156ce64df1553d831d3e8c55784d7b79cc27ae9c005299c1b79278b082527f0e320039c755871184adb06603cfaea8179a0f4ca9c113dbe109b3da3b83b7956020830152604082019081526107cf196040836060816007855a01fa156103bc5760409260066080939284938451905260a05160608401525a01fa156103bc57565b604051907f165a1d4b342b2b1a23bbcecedc00da1b5532c0b0ac69ead4e74e75890229288b82527f2d4048879e7413f9adad2daed7525eb7dec1fa086d7d755f80b5882b2e30b53a6020830152604082019081526107cf196040836060816007855a01fa156103bc5760409260066080939284938451905260a05160608401525a01fa156103bc57565b604051907f0976d42b8f0de58c4d650ee6afe6593a109f99984e8b8c0c56dd92cd15f242fe82527f1fb706a0b4d7711d9f361ab2c7946027e03c8d3cccd686b2b06fa262a988b8e36020830152604082019081526107cf196040836060816007855a01fa156103bc5760409260066080939284938451905260a05160608401525a01fa156103bc57565b604051907f0848ee6cb6d23ecbb9bf3f9ba65c0ae221f5649a787fd7b71ad74ab2a74ec79c82527f1ca8aa048c078bef7c3b3dfe2abd6ae10f5f1d0c66871dcf4035f880a8e5cb396020830152604082019081526107cf196040836060816007855a01fa156103bc5760409260066080939284938451905260a05160608401525a01fa156103bc57565b604051907f0f298cdc9eee98e3eccee1d458d75b625cdd84f8cb4d462672228257955bc0cf82527f150518ada49312c0ff0a6f5d7cc1e0886ded5af5bccb41e16129969e74e315556020830152604082019081526107cf196040836060816007855a01fa156103bc5760409260066080939284938451905260a05160608401525a01fa156103bc57565b604051907f2d9f5c44141a536e7e2c91de7b57c63ff317f65cb59e3601557423b45aa74ffa82527f0af1a7da79fab548951f588491d296a0d5b955434b64cc174f42d4181d3534586020830152604082019081526107cf196040836060816007855a01fa156103bc5760409260066080939284938451905260a05160608401525a01fa156103bc57565b604051907f2c0ea00e4b13dca4a08d5f152b7ea36e1a0d66f829b19f128338bc563bce689c82527f26054fac4c99124e421c251d75337ed5a1628c313b312186a011c4ac5d0141ba6020830152604082019081526107cf196040836060816007855a01fa156103bc5760409260066080939284938451905260a05160608401525a01fa156103bc57565b604051907f2bf01bd0e841ac715290c07bf54e1a27022b391c411984f62fd2cf3f4481d5da82527f042df791431085490e89f3186886fd9224e077ed2e637ca72512ff25369eaeab6020830152604082019081526107cf196040836060816007855a01fa156103bc5760409260066080939284938451905260a05160608401525a01fa156103bc57565b604051907f22cc524e8a6caea440dca1bedcd1f28a3aa4e4a480ccad2829524f9c0d93dee982527f20ad0a28acf7af84e33bf49af2a97d2b80f921ebd9162607278f3112eb40f3fb6020830152604082019081526107cf196040836060816007855a01fa156103bc5760409260066080939284938451905260a05160608401525a01fa156103bc57565b604051907f08395e0d64c3bcb0b53b5aac2d3960d2624026b41516a9c3c87f28cf3702cfeb82527f0bae47224dd63bd13519ffe682578ab56e88df33fb74901a852592933ebd67ac6020830152604082019081526107cf196040836060816007855a01fa156103bc5760409260066080939284938451905260a05160608401525a01fa156103bc57565b604051907f2812760df7c713494266d093e8fbf4a7b5b133db49f2df312300e50f585a484a82527f1fbbb353d5e606a8796ae0830d0442acf85aace2f0e3ab9c0548855e498a96e26020830152604082019081526107cf196040836060816007855a01fa156103bc5760409260066080939284938451905260a05160608401525a01fa156103bc57565b604051907f249722c9eecbe9eedac47c831a9ba3f09c454d928e4cf677ca18f735e497fa7682527f015f1808d7af6b15d7f884eec3e6c7165143398dbab9919ef082447da439fde46020830152604082019081526107cf196040836060816007855a01fa156103bc5760409260066080939284938451905260a05160608401525a01fa156103bc57565b604051907f1a5cf448ab1c74de82ee3d750bf0a5a66a16fde2106d2fb90720abe23a836a4782527f17ca850e6dfffcc432025333e6d54b204ddf4e19a4f39914552bbf5c923ae8b06020830152604082019081526107cf196040836060816007855a01fa156103bc5760409260066080939284938451905260a05160608401525a01fa156103bc57565b6020907f1be93a8d329caf5f8f0bb1d27168b10fb74a2cf0cb58c4724f20e8788a4fcca26080527f18310a719bf640a70df47081a38de5da7aa853212029b24ee358e8166295d11360a052612588610104356103c6565b61259461012435610450565b6125a0610144356104da565b6125ac61016435610564565b6125b8610184356105ee565b6125c46101a435610678565b6125d06101c435610701565b6125dc6101e43561078b565b6125e861020435610815565b6125f46102243561089f565b61260061024435610929565b61260c610264356109b3565b61261861028435610a3d565b6126246102a435610ac7565b6126306102c435610b51565b61263c6102e435610bdb565b61264861030435610c65565b61265461032435610cef565b61266061034435610d79565b61266c61036435610e03565b61267861038435610e8d565b6126846103a435610f17565b6126906103c435610fa1565b61269c6103e43561102b565b6126a8610404356110b5565b6126b46104243561113f565b6126c0610444356111c9565b6126cc61046435611253565b6126d8610484356112dd565b6126e46104a435611367565b6126f06104c4356113f1565b6126fc6104e43561147b565b61270861050435611505565b6127146105243561158f565b61272061054435611619565b61272c610564356116a3565b6127386105843561172d565b6127446105a4356117b7565b6127506105c435611841565b61275c6105e4356118cb565b61276861060435611955565b612774610624356119df565b61278061064435611a69565b61278c61066435611af3565b61279861068435611b7d565b6127a46106a435611c07565b6127b06106c435611c91565b6127bc6106e435611d1b565b6127c861070435611da5565b6127d461072435611e2f565b6127e061074435611eb9565b6127ec61076435611f43565b6127f861078435611fcd565b6128046107a435612057565b6128106107c4356120e1565b61281c6107e43561216b565b612828610804356121f5565b6128346108243561227f565b61284061084435612309565b61284c61086435612393565b6128586108843561241d565b6128646108a4356124a7565b61010092818492358352837f30644e72e131a029b85045b68181585d97816a916871ca8d3c208c16d87cfd479101358103066101205260443561014052606435610160526084356101805260a4356101a0527f2d4d9aa7e302d9df41749d5507949d05dbea33fbb16c643b22f599a2be6df2e26101c0527f14bedd503c37ceb061d8ec60209fe345ce89830a19230301f076caff004d19266101e0527f0967032fcbf776d1afc985f88877f182d38480a653f2decaa9794cbc3bf3060c610200527f0e187847ad4c798374d0d6732bf501847dd68bc0e071241e0213bc7fc13db7ab610220527f304cfbd1e08a704a99f5e847d93f8c3caafddec46b7a0d379da69a4d112346a7610240527f1739c1b1a457a8c7313123d24d2f9192f896b7c63eea05a9d57f06547ad0cec8610260526080516102805260a0516102a0527f198e9393920d483a7260bfb731fb5d25f1aa493335a9e71297e485b7aef312c26102c0527f1800deef121f1e76426a00665e5c4479674322d4f75edadd46debd5cd992f6ed6102e05282610300917f090689d0585ff075ec9e99ad690c3395bc4b313370b38ef355acdadcd122975b83527f12c85ea5db8c6deb4aab71808dcb408fe3d1e7690c43d37b4ce6cc0166fa7daa610320528035610340520135610360527f0b09822a60eef1f91f874ba7e5227be403c2c62cc47f0c6079114b753b457f8c610380527f063dbaefa1fbcfab0cd563d93854d36f2dde28fca808d4dafcbfe02a87a35e2d6103a0527f109908f1fb1fbea4286a0b5165e32e527f19428872f2a516a432b3aad759ceec6103c0527f2a6df1d33920cc50967eed125844447a995dac238f62ff9a6ffee29fcc0dc20e6103e0528160086107cf195a01fa9051169056fea26469706673582212209f1e79e761a612375e2d8e0b021dbce3994efb4e4bc4016e4ecf813be3631fe464736f6c634300080f0033",
  "linkReferences": {},
  "deployedLinkReferences": {}
}