{
  "_format": "hh-sol-artifact-1",
  "contractName": "ExternalMetadata",
  "sourceName": "contracts/ExternalMetadata.sol",
  "abi": [
    {
      "inputs": [],
      "stateMutability": "nonpayable",
      "type": "constructor"
    },
    {
      "anonymous": false,
      "inputs": [
        {
          "indexed": true,
          "internalType": "address",
          "name": "previousOwner",
          "type": "address"
        },
        {
          "indexed": true,
          "internalType": "address",
          "name": "newOwner",
          "type": "address"
        }
      ],
      "name": "OwnershipTransferred",
      "type": "event"
    },
    {
      "inputs": [],
      "name": "anybodyProblem",
      "outputs": [
        {
          "internalType": "address payable",
          "name": "",
          "type": "address"
        }
      ],
      "stateMutability": "view",
      "type": "function"
    },
    {
      "inputs": [
        {
          "internalType": "uint256",
          "name": "date",
          "type": "uint256"
        }
      ],
      "name": "getHTML",
      "outputs": [
        {
          "internalType": "string",
          "name": "",
          "type": "string"
        }
      ],
      "stateMutability": "view",
      "type": "function"
    },
    {
      "inputs": [
        {
          "internalType": "uint256",
          "name": "date",
          "type": "uint256"
        }
      ],
      "name": "getMetadata",
      "outputs": [
        {
          "internalType": "string",
          "name": "",
          "type": "string"
        }
      ],
      "stateMutability": "view",
      "type": "function"
    },
    {
      "inputs": [
        {
          "internalType": "uint256",
          "name": "date",
          "type": "uint256"
        }
      ],
      "name": "getName",
      "outputs": [
        {
          "internalType": "string",
          "name": "",
          "type": "string"
        }
      ],
      "stateMutability": "pure",
      "type": "function"
    },
    {
      "inputs": [
        {
          "internalType": "uint256",
          "name": "date",
          "type": "uint256"
        }
      ],
      "name": "getPath",
      "outputs": [
        {
          "internalType": "string",
          "name": "",
          "type": "string"
        }
      ],
      "stateMutability": "view",
      "type": "function"
    },
    {
      "inputs": [
        {
          "internalType": "uint256",
          "name": "date",
          "type": "uint256"
        }
      ],
      "name": "getSVG",
      "outputs": [
        {
          "internalType": "string",
          "name": "",
          "type": "string"
        }
      ],
      "stateMutability": "view",
      "type": "function"
    },
    {
      "inputs": [],
      "name": "owner",
      "outputs": [
        {
          "internalType": "address",
          "name": "",
          "type": "address"
        }
      ],
      "stateMutability": "view",
      "type": "function"
    },
    {
      "inputs": [],
      "name": "renounceOwnership",
      "outputs": [],
      "stateMutability": "nonpayable",
      "type": "function"
    },
    {
      "inputs": [
        {
          "internalType": "bytes32",
          "name": "seed",
          "type": "bytes32"
        }
      ],
      "name": "seedToColor",
      "outputs": [
        {
          "internalType": "string",
          "name": "",
          "type": "string"
        }
      ],
      "stateMutability": "pure",
      "type": "function"
    },
    {
      "inputs": [],
      "name": "speedruns",
      "outputs": [
        {
          "internalType": "address payable",
          "name": "",
          "type": "address"
        }
      ],
      "stateMutability": "view",
      "type": "function"
    },
    {
      "inputs": [
        {
          "internalType": "address",
          "name": "newOwner",
          "type": "address"
        }
      ],
      "name": "transferOwnership",
      "outputs": [],
      "stateMutability": "nonpayable",
      "type": "function"
    },
    {
      "inputs": [
        {
          "internalType": "address payable",
          "name": "anybodyProblem_",
          "type": "address"
        }
      ],
      "name": "updateAnybodyProblemAddress",
      "outputs": [],
      "stateMutability": "nonpayable",
      "type": "function"
    },
    {
      "inputs": [
        {
          "internalType": "address payable",
          "name": "speedruns_",
          "type": "address"
        }
      ],
      "name": "updateSpeedrunsAddress",
      "outputs": [],
      "stateMutability": "nonpayable",
      "type": "function"
    }
  ],
  "bytecode": "0x6080806040523461005b5760008054336001600160a01b0319821681178355916001600160a01b03909116907f8be0079c531659141344cd1fd0a4f28419497f9722a3daafe3b4186f6b6457e09084a361233990816100618239f35b600080fdfe60806040526004361015610013575b600080fd5b60003560e01c8063102581d21461011757806319d4c3f91461010e5780635542437b146101055780636b8ff574146100fc578063715018a6146100f357806387b07780146100ea5780638da5cb5b146100e1578063a574cea4146100d8578063be985ac9146100cf578063e1765073146100c6578063e2ce81a5146100bd578063e82fedd7146100b45763f2fde38b146100ac57600080fd5b61000e610c39565b5061000e610c19565b5061000e610bd1565b5061000e610bb7565b5061000e610ba2565b5061000e6103ca565b5061000e6103a0565b5061000e610376565b5061000e610314565b5061000e6102fa565b5061000e6102b2565b5061000e610277565b5061000e610193565b602090600319011261000e5760043590565b918091926000905b82821061015257501161014b575050565b6000910152565b9150806020918301518186015201829161013a565b604091602082526101878151809281602086015260208686019101610132565b601f01601f1916010190565b503461000e5761027361021b6101b06101ab36610120565b611729565b61021660466040518093753c68746d6c3e3c626f64793e3c696d67207372633d2760501b60208301526101ed815180926020603686019101610132565b81016f139f1e17b137b23c9f1e17b43a36b61f60811b6036820152036026810184520182610e09565b610ffd565b610267603660405180937519185d184e9d195e1d0bda1d1b5b0ed8985cd94d8d0b60521b60208301526102578151809260208686019101610132565b8101036016810184520182610e09565b60405191829182610167565b0390f35b503461000e57600036600319011261000e576001546040516001600160a01b039091168152602090f35b6001600160a01b0381160361000e57565b503461000e57602036600319011261000e576004356102d0816102a1565b6102d8610d06565b600280546001600160a01b0319166001600160a01b0392909216919091179055005b503461000e5761027361026761030f36610120565b6110e9565b503461000e576000806003193601126103735761032f610d06565b80546001600160a01b0319811682556040519082906001600160a01b03167f8be0079c531659141344cd1fd0a4f28419497f9722a3daafe3b4186f6b6457e08284a3f35b80fd5b503461000e57600036600319011261000e576002546040516001600160a01b039091168152602090f35b503461000e57600036600319011261000e576000546040516001600160a01b039091168152602090f35b503461000e576103d936610120565b6103e2816110e9565b6103eb82611729565b6103f483611729565b906103fe8461117b565b6001546040805160016228c2c560e01b031980825260048083018c90526000602484015260209b939a9795968c968c966001600160a01b031695929487949093909290919089856044818b5afa928a8415996105309761055e9b610b95575b600096610b76575b50898951978089528a848a8061048b898783016020600191939293604081019481520152565b0381875afa998a15610b69575b60009a610b35575b505190815290810184815260026020820152610500939291908390829081906040015b0381855afa928315610b28575b600093610af9575b50508951632b99bd5f60e21b8082528c820198895260a09c91988d9586918b91829160200190565b0381865afa998a15610aec575b6000998a9b610ac3575b5085908d51809d81928583528683019190602083019252565b0381865afa9b8c15610ab6575b60009b8c9d610a8d575b50519d8e9485938493845283019190602083019252565b03915afa988915610a80575b600098899a610a45575b505061057f906120c3565b9a610589906120c3565b90610593906120c3565b9161059d906120c3565b926105a790612206565b936105b1906120c3565b946105bb90612206565b956105c5906120c3565b966105cf90612206565b976105d9906120c3565b9851605b60f81b9a81019a8b529a8b9a6001017f7b2274726169745f74797065223a2264617465222c2276616c7565223a2200008152601e0161061b91610d5e565b7f227d2c207b2274726169745f74797065223a22646179222c2276616c7565223a8152601160f91b602082015260210161065491610d5e565b7f227d2c207b2274726169745f74797065223a226d6f6e7468222c2276616c7565815262111d1160e91b602082015260230161068f91610d5e565b7f227d2c207b2274726169745f74797065223a2279656172222c2276616c7565228152611d1160f11b60208201526022016106c991610d5e565b7f227d2c207b2274726169745f74797065223a223173742d61646472657373222c815268113b30b63ab2911d1160b91b602082015260290161070a91610d5e565b7f227d2c207b2274726169745f74797065223a223173742d74696d65222c227661815265363ab2911d1160d11b602082015260260161074891610d5e565b7f227d2c207b2274726169745f74797065223a22326e642d61646472657373222c815268113b30b63ab2911d1160b91b602082015260290161078991610d5e565b7f227d2c207b2274726169745f74797065223a22326e642d74696d65222c227661815265363ab2911d1160d11b60208201526026016107c791610d5e565b7f227d2c207b2274726169745f74797065223a223372642d61646472657373222c815268113b30b63ab2911d1160b91b602082015260290161080891610d5e565b7f227d2c207b2274726169745f74797065223a223372642d74696d65222c227661815265363ab2911d1160d11b602082015260260161084691610d5e565b62227d5d60e81b81526003010393601f199485810183526108679083610e09565b8551683d913730b6b2911d1160b91b88820190815290948594909160090161088e91610d5e565b61088b60f21b81526002017f226465736372697074696f6e223a2022416e79626f64792050726f626c656d2081527f2868747470733a2f2f616e79626f64792e747269666c652e6c69666529222c006020820152603f01691134b6b0b3b2911d101160b11b8152600a0161090191610d5e565b61088b60f21b81526002016d1134b6b0b3b2afbab936111d101160911b8152600e0161092c91610d5e565b61088b60f21b81526002017f22686f6d655f75726c223a202268747470733a2f2f616e79626f64792e747269815269199b194b9b1a5999488b60b21b6020820152602a017f2265787465726e616c5f75726c223a202268747470733a2f2f616e79626f647981526d0b9d1c9a599b194b9b1a5999488b60921b6020820152602e016d01130ba3a3934b13aba32b9911d160951b8152600e016109cd91610d5e565b607d60f81b81526001010382810182526109e79082610e09565b6109f090610ffd565b82517f646174613a6170706c69636174696f6e2f6a736f6e3b6261736536342c00000094810194855293849190601d01610a2991610d5e565b039081018352610a399083610e09565b51610273819282610167565b610a6a929a5061057f9950803d10610a79575b610a628183610e09565b81019061208a565b50509891905097989038610574565b503d610a58565b610a886118ef565b61056a565b909c50610aa8919b50853d8711610a7957610a628183610e09565b50509b9190509a9b38610547565b610abe6118ef565b61053d565b610ade919b5086809b503d8811610a7957610a628183610e09565b50509a919050999a90610517565b610af46118ef565b61050d565b610b19929350803d10610b21575b610b118183610e09565b8101906118e0565b90388e6104d8565b503d610b07565b610b306118ef565b6104d0565b8594939085929b50926104c3610b5b8995610500993d8711610b2157610b118183610e09565b9c93505092509293946104a0565b610b716118ef565b610498565b610b8e919650823d8411610b2157610b118183610e09565b9438610465565b610b9d6118ef565b61045d565b503461000e576102736102676101ab36610120565b503461000e57610273610267610bcc36610120565b6119f6565b503461000e57602036600319011261000e57600435610bef816102a1565b610bf7610d06565b600180546001600160a01b0319166001600160a01b0392909216919091179055005b503461000e57602036600319011261000e57610273610267600435611fc6565b503461000e57602036600319011261000e57600435610c57816102a1565b610c5f610d06565b6001600160a01b03908116908115610cb257600080546001600160a01b031981168417825560405191939192167f8be0079c531659141344cd1fd0a4f28419497f9722a3daafe3b4186f6b6457e08484a3f35b60405162461bcd60e51b815260206004820152602660248201527f4f776e61626c653a206e6577206f776e657220697320746865207a65726f206160448201526564647265737360d01b6064820152608490fd5b6000546001600160a01b03163303610d1a57565b606460405162461bcd60e51b815260206004820152602060248201527f4f776e61626c653a2063616c6c6572206973206e6f7420746865206f776e65726044820152fd5b90610d7160209282815194859201610132565b0190565b50634e487b7160e01b600052604160045260246000fd5b60c0810190811067ffffffffffffffff821117610da857604052565b610db0610d75565b604052565b60e0810190811067ffffffffffffffff821117610da857604052565b6020810190811067ffffffffffffffff821117610da857604052565b6060810190811067ffffffffffffffff821117610da857604052565b90601f8019910116810190811067ffffffffffffffff821117610da857604052565b60209067ffffffffffffffff8111610e49575b601f01601f19160190565b610e51610d75565b610e3e565b60405190610e6382610dd1565b60008252565b60405190610e7682610ded565b604082527f6768696a6b6c6d6e6f707172737475767778797a303132333435363738392b2f6040837f4142434445464748494a4b4c4d4e4f505152535455565758595a61626364656660208201520152565b50634e487b7160e01b600052601160045260246000fd5b6002906002198111610eef570190565b610d71610ec8565b6020906020198111610eef570190565b81198111610eef570190565b8115610f1d570490565b634e487b7160e01b600052601260045260246000fd5b6001600160fe1b038111600116610f4b575b60021b90565b610f53610ec8565b610f45565b806000190460041181151516610f4b5760021b90565b7f028f5c28f5c28f5c28f5c28f5c28f5c28f5c28f5c28f5c28f5c28f5c28f5c28f8111600116610f9f575b60640290565b610fa7610ec8565b610f99565b8060001904821181151516610fbf570290565b610fc7610ec8565b0290565b90610fd582610e2b565b610fe26040519182610e09565b8281528092610ff3601f1991610e2b565b0190602036910137565b8051156110dd5761100c610e69565b61102861102361101c8451610edf565b6003900490565b610f33565b9161103a61103584610ef7565b610fcb565b92835280815182019060208501935b82821061108b5750505060039051068060011461107a5760021461106b575090565b603d60f81b6000199091015290565b50613d3d60f01b6001199091015290565b9091936004906003809401938451600190603f9082828260121c16880101518553828282600c1c16880101518386015382828260061c1688010151600286015316850101519082015301939190611049565b506110e6610e56565b90565b6110e6602261110a6111166111006111109561117b565b96919390936120c3565b926120c3565b946120c3565b604051948261112f879451809260208088019101610132565b830190602d60f81b91826020820152611152825180936020602185019101610132565b0190602182015261116c8251809360208785019101610132565b01036002810184520182610e09565b6111b99062010bd9906201518090046000811280156001600160ff1b0383900384131661129d575b600160ff1b829003831216611290575b016112aa565b6111f36111d16111c8836113d7565b62023ab1900590565b916111ed6111e66111e185611418565b6112e8565b6004900590565b906116e6565b9061128a61122c61122761121a61121161120c87611316565b611476565b62164b09900590565b946111ed6111e6876114d3565b611350565b61128561125a61124661123e84611530565b61098f900590565b926111ed6112538561159b565b6050900590565b9461128561128061127a611271600b87059661137e565b6111ed876115f8565b966116c0565b611663565b6113ac565b91909192565b611298610ec8565b6111b3565b6112a5610ec8565b6111a3565b62253d8c906000811280156001600160ff1b038390038413166112db575b600160ff1b829003831216610eef570190565b6112e3610ec8565b6112c8565b6003906000811280156001600160ff1b038390038413166112db57600160ff1b829003831216610eef570190565b6001906000811280156001600160ff1b03839003841316611343575b818360ff1b03831216610eef570190565b61134b610ec8565b611332565b601f906000811280156001600160ff1b038390038413166112db57600160ff1b829003831216610eef570190565b6002906000811280156001600160ff1b038390038413166112db57600160ff1b829003831216610eef570190565b6000811280156001600160ff1b038390038413166112db57600160ff1b829003831216610eef570190565b600081136001600160ff1b038290046004111660011661140b575b60008112600760fd1b821216600116610f4b5760021b90565b611413610ec8565b6113f2565b62023ab1600082136001600160ff1b03839004821116600116611469575b60017fffffc694f94337079d130ab45dff8e0f9ea161331bb1c93dea871de6fec83ce28312600084121616610fbf570290565b611471610ec8565b611436565b610fa0600082136001600160ff1b038390048211166001166114c6575b60017ffff7ced916872b020c49ba5e353f7ced916872b020c49ba5e353f7ced916872c8312600084121616610fbf570290565b6114ce610ec8565b611493565b6105b5600082136001600160ff1b03839004821116600116611523575b60017fffe9924f8d0dd7b2e6f174df9576f9de01c091c8faeb2605f522de8852b47aa88312600084121616610fbf570290565b61152b610ec8565b6114f0565b600081136001600160ff1b038290046050111660011661158e575b60017ffe666666666666666666666666666666666666666666666666666666666666678212600083121616611581575b60500290565b611589610ec8565b61157b565b611596610ec8565b61154b565b61098f600082136001600160ff1b038390048211166001166115eb575b60017ffff29be1739a4fb805dbcd5d6c7d1f7d6fd627208942391f124ee1c3f30702688312600084121616610fbf570290565b6115f3610ec8565b6115b8565b600081136001600160ff1b03829004600c1116600116611656575b60017ff5555555555555555555555555555555555555555555555555555555555555568212600083121616611649575b600c0290565b611651610ec8565b611643565b61165e610ec8565b611613565b600081136001600160ff1b03829004606411166001166116b3575b60017ffeb851eb851eb851eb851eb851eb851eb851eb851eb851eb851eb851eb851eb98212600083121616610f9f5760640290565b6116bb610ec8565b61167e565b6031600160ff1b0181126001166116d9575b6030190190565b6116e1610ec8565b6116d2565b600082128015600160ff1b840183121661171c575b6001600160ff1b038301821316611710570390565b611718610ec8565b0390565b611724610ec8565b6116fb565b6110e661183861189f6118d49361188b61187261174e611748846119f6565b936110e9565b61186c6040519687957f3c3f786d6c2076657273696f6e3d22312e302220656e636f64696e673d22757460208801527f662d38223f3e3c73766720786d6c6e733d22687474703a2f2f7777772e77332e60408801527f6f72672f323030302f7376672220206865696768743d2231303025222077696460608801527f74683d2231303025222076696577426f783d223020302031303030203130303060808801527f22207374796c653d226261636b67726f756e642d636f6c6f723a677265793b2260a08801526f1f1e39ba3cb6329f1e17b9ba3cb6329f60811b60c088015260d0870190610d5e565b7f3c7465787420783d2235302220793d223535302220636c6173733d226e616d65815261111f60f11b602082015260220190565b90610d5e565b6c1e17ba32bc3a1f1e17b9bb339f60991b8152600d0190565b0391610216601f1993848101835282610e09565b6040517f646174613a696d6167652f7376672b786d6c3b6261736536342c0000000000006020820152938491603a830161186c565b03908101835282610e09565b9081602091031261000e575190565b506040513d6000823e3d90fd5b91906105608382031261000e5780601f8401121561000e57604080519161192283610d8c565b829161054086019582871161000e57925b8684106119435750505050915190565b60e08484031261000e57815160e09161195b82610db5565b8551825260209182870151838201528487015185820152606080880151908201526080808801519082015260a0808801519082015260c08088015190820152815201930192611933565b6001906000198114610eef570190565b50634e487b7160e01b600052603260045260246000fd5b9060068110156119de575b60051b0190565b6119e66119b5565b6119d7565b818110611710570390565b6119fe610e56565b600154909190611a2490611a18906001600160a01b031681565b6001600160a01b031690565b60408051631da686ff60e31b81529192602091908284600481885afa938415611fb9575b600094611f9a575b5081516338ab6ea360e21b8152908382600481895afa918215611f8d575b600092611f6e575b508251634dbe7f7360e01b81526004810191909152602481019190915293610560908190869060449082905afa948515611f61575b6000918296611f2d575b5050939291906000945b848610611acf5750505050505090565b909192939495848488611ae281866119cc565b5160a0810151611af190610f58565b611afa85610f6e565b611b0391610f07565b611b0d8582610f13565b611b16816120c3565b95611b2091610fac565b611b29916119eb565b611b32906120c3565b90838101918a835190611b4491610f13565b9251611b508c85610fac565b611b59916119eb565b92611b63906120c3565b92611b6d906120c3565b928951938491878301611b7f91610d5e565b601760f91b8152600101611b9291610d5e565b0395601f19968781018552611ba79085610e09565b898301928c80855190611bb991610f13565b945190611bc69086610fac565b611bcf916119eb565b93611bd9906120c3565b93611be3906120c3565b938b51948591898301611bf591610d5e565b601760f91b8152600101611c0891610d5e565b038881018552611c189085610e09565b8051611c23906120c3565b908b519687898101611c4e906012907103a3930b739b337b93696b7b934b3b4b71d160751b81520190565b611c589089610d5e565b620383c160ed1b8152600301611c6e9088610d5e565b630383c1d960e51b8152600401038a81018952611c8b9089610e09565b611c94906120c3565b9060c00151611ca290611fc6565b968c519a8b998a01611cb391610d5e565b7f3c7374796c653e20406b65796672616d6573206d6f7665456c6c6970736500008152601e01611ce39084610d5e565b670103d901812903d960c51b8152600801611cfe9082610d5e565b7f207472616e73666f726d3a20726f74617465283064656729207472616e736c6181527f7465283070782c2031307078293b207d2031303025207b2000000000000000006020820152603801611d5391610d5e565b7f207472616e73666f726d3a20726f746174652833363064656729207472616e738152736c617465283070782c2031307078293b207d207d60601b60208201526034016a656c6c697073652369642d60a81b8152600b01611db49083610d5e565b7f207b20616e696d6174696f6e3a206d6f7665456c6c69707365000000000000008152601901611de49083610d5e565b7f20347320696e66696e697465206c696e6561723b20616e696d6174696f6e2d64815266656c61793a202d60c81b6020820152602701611e2391610d5e565b6b399d903e9e17b9ba3cb6329f60a11b8152600c016f3c656c6c697073652069643d2269642d60801b8152601001611e5a91610d5e565b651110393c9e9160d11b8152600601611e739082610d5e565b601760f91b8152600101611e879083610d5e565b651110393c1e9160d11b8152600601611e9f91610d5e565b601760f91b8152600101611eb291610d5e565b65111031bc9e9160d11b8152600601611eca91610d5e565b65111031bc1e9160d11b8152600601611ee291610d5e565b6711103334b6361e9160c11b8152600801611efc91610d5e565b631110179f60e11b8152600401039081018252611f199082610e09565b95611f23906119a5565b9493929190611abf565b611f5193965080919250903d10611f5a575b611f498183610e09565b8101906118fc565b93903880611ab5565b503d611f3f565b611f696118ef565b611aab565b611f86919250843d8611610b2157610b118183610e09565b9038611a76565b611f956118ef565b611a6e565b611fb2919450833d8511610b2157610b118183610e09565b9238611a50565b611fc16118ef565b611a48565b6110e660259161206f61206161ffff61186c6120536120186028612011606482878b60201c1606968319881161207d575b612006610168828d16066120c3565b9a60101c16066120c3565b94016120c3565b92604051988997630d0e6d8560e31b60208a015261204081518092602060248d019101610132565b8801600b60fa1b60248201520190610d5e565b61094b60f21b815260020190565b61252960f01b815260020190565b03601f198101835282610e09565b612085610ec8565b611ff7565b908160a091031261000e5780516120a0816102a1565b916020820151801515810361000e57916040810151916080606083015192015190565b806000917a184f03e93ff9f4daa797ed6e38ed64bf6a1f010000000000000000808210156121f8575b506d04ee2d6d415b85acef8100000000808310156121e9575b50662386f26fc10000808310156121da575b506305f5e100808310156121cb575b50612710808310156121bc575b5060648210156121ac575b600a809210156121a2575b60019081602161215a828701610fcb565b95860101905b61216c575b5050505090565b600019019083906f181899199a1a9b1b9c1cb0b131b232b360811b8282061a83530491821561219d57919082612160565b612165565b9160010191612149565b919060646002910491019161213e565b60049193920491019138612133565b60089193920491019138612126565b60109193920491019138612117565b60209193920491019138612105565b6040935081049150386120ec565b60018060a01b03169060405161221b81610ded565b602881526020926040368584013760275b600081121561224357506110e691929350156122b8565b90600f811660108110156122ab575b835183101561229e575b6f181899199a1a9b1b9c1cb0b131b232b360811b901a83830186015360041c90600160ff1b8114612291575b6000190161222c565b612299610ec8565b612288565b6122a66119b5565b61225c565b6122b36119b5565b612252565b156122bf57565b606460405162461bcd60e51b815260206004820152602060248201527f537472696e67733a20686578206c656e67746820696e73756666696369656e746044820152fdfea2646970667358221220802e09a63198ea2d7a198b927701be1f7f4088fdb7f3f8652fb0f86f805f387b64736f6c634300080f0033",
  "linkReferences": {},
  "deployedLinkReferences": {}
}