{
  "_format": "hh-sol-artifact-1",
  "contractName": "Solver",
  "sourceName": "contracts/Solver.sol",
  "abi": [
    {
      "inputs": [
        {
          "internalType": "address payable",
          "name": "problems_",
          "type": "address"
        }
      ],
      "stateMutability": "nonpayable",
      "type": "constructor"
    },
    {
      "anonymous": false,
      "inputs": [
        {
          "indexed": true,
          "internalType": "address",
          "name": "previousOwner",
          "type": "address"
        },
        {
          "indexed": true,
          "internalType": "address",
          "name": "newOwner",
          "type": "address"
        }
      ],
      "name": "OwnershipTransferred",
      "type": "event"
    },
    {
      "anonymous": false,
      "inputs": [
        {
          "indexed": true,
          "internalType": "address",
          "name": "solver",
          "type": "address"
        },
        {
          "indexed": true,
          "internalType": "uint256",
          "name": "problemId",
          "type": "uint256"
        },
        {
          "indexed": true,
          "internalType": "uint256",
          "name": "level",
          "type": "uint256"
        },
        {
          "indexed": false,
          "internalType": "uint256",
          "name": "ticksInThisMatch",
          "type": "uint256"
        },
        {
          "indexed": false,
          "internalType": "uint256",
          "name": "day",
          "type": "uint256"
        }
      ],
      "name": "Solved",
      "type": "event"
    },
    {
      "stateMutability": "nonpayable",
      "type": "fallback"
    },
    {
      "inputs": [
        {
          "internalType": "uint256",
          "name": "problemId",
          "type": "uint256"
        },
        {
          "internalType": "uint256",
          "name": "tickCount",
          "type": "uint256"
        },
        {
          "internalType": "uint256[2][]",
          "name": "a",
          "type": "uint256[2][]"
        },
        {
          "internalType": "uint256[2][2][]",
          "name": "b",
          "type": "uint256[2][2][]"
        },
        {
          "internalType": "uint256[2][]",
          "name": "c",
          "type": "uint256[2][]"
        },
        {
          "internalType": "uint256[][]",
          "name": "input",
          "type": "uint256[][]"
        }
      ],
      "name": "batchSolve",
      "outputs": [],
      "stateMutability": "nonpayable",
      "type": "function"
    },
    {
      "inputs": [],
      "name": "decimals",
      "outputs": [
        {
          "internalType": "uint256",
          "name": "",
          "type": "uint256"
        }
      ],
      "stateMutability": "view",
      "type": "function"
    },
    {
      "inputs": [
        {
          "internalType": "uint256",
          "name": "problemId",
          "type": "uint256"
        }
      ],
      "name": "deleteMatch",
      "outputs": [],
      "stateMutability": "nonpayable",
      "type": "function"
    },
    {
      "inputs": [
        {
          "internalType": "uint256",
          "name": "problemId",
          "type": "uint256"
        }
      ],
      "name": "inProgress",
      "outputs": [
        {
          "internalType": "bool",
          "name": "",
          "type": "bool"
        }
      ],
      "stateMutability": "view",
      "type": "function"
    },
    {
      "inputs": [
        {
          "internalType": "uint256",
          "name": "",
          "type": "uint256"
        }
      ],
      "name": "matches",
      "outputs": [
        {
          "internalType": "bool",
          "name": "inProgress",
          "type": "bool"
        },
        {
          "internalType": "uint256",
          "name": "problemId",
          "type": "uint256"
        },
        {
          "internalType": "uint256",
          "name": "startingTick",
          "type": "uint256"
        }
      ],
      "stateMutability": "view",
      "type": "function"
    },
    {
      "inputs": [],
      "name": "maxTick",
      "outputs": [
        {
          "internalType": "uint256",
          "name": "",
          "type": "uint256"
        }
      ],
      "stateMutability": "view",
      "type": "function"
    },
    {
      "inputs": [],
      "name": "owner",
      "outputs": [
        {
          "internalType": "address",
          "name": "",
          "type": "address"
        }
      ],
      "stateMutability": "view",
      "type": "function"
    },
    {
      "inputs": [],
      "name": "problems",
      "outputs": [
        {
          "internalType": "address payable",
          "name": "",
          "type": "address"
        }
      ],
      "stateMutability": "view",
      "type": "function"
    },
    {
      "inputs": [],
      "name": "renounceOwnership",
      "outputs": [],
      "stateMutability": "nonpayable",
      "type": "function"
    },
    {
      "inputs": [
        {
          "internalType": "uint256",
          "name": "problemId",
          "type": "uint256"
        },
        {
          "internalType": "uint256",
          "name": "tickCount",
          "type": "uint256"
        },
        {
          "internalType": "uint256[2]",
          "name": "a",
          "type": "uint256[2]"
        },
        {
          "internalType": "uint256[2][2]",
          "name": "b",
          "type": "uint256[2][2]"
        },
        {
          "internalType": "uint256[2]",
          "name": "c",
          "type": "uint256[2]"
        },
        {
          "internalType": "uint256[]",
          "name": "input",
          "type": "uint256[]"
        }
      ],
      "name": "solveProblem",
      "outputs": [],
      "stateMutability": "nonpayable",
      "type": "function"
    },
    {
      "inputs": [
        {
          "internalType": "address",
          "name": "newOwner",
          "type": "address"
        }
      ],
      "name": "transferOwnership",
      "outputs": [],
      "stateMutability": "nonpayable",
      "type": "function"
    },
    {
      "inputs": [
        {
          "internalType": "address payable",
          "name": "problems_",
          "type": "address"
        }
      ],
      "name": "updateProblemsAddress",
      "outputs": [],
      "stateMutability": "nonpayable",
      "type": "function"
    }
  ],
  "bytecode": "0x6080346100a757601f612aae38819003918201601f19168301916001600160401b038311848410176100ac578084926020946040528339810103126100a757516001600160a01b0390818116908190036100a75760005460018060a01b0319903382821617600055604051933391167f8be0079c531659141344cd1fd0a4f28419497f9722a3daafe3b4186f6b6457e0600086a360015416176001556129eb90816100c38239f35b600080fd5b634e487b7160e01b600052604160045260246000fdfe60806040526004361015610054575b3461004f5760405162461bcd60e51b81526020600482015260146024820152733737903330b6363130b1b590333ab731ba34b7b760611b6044820152606490fd5b600080fd5b60003560e01c8063087c32e61461252b578063130e5a87146115eb5780631db3b6dd146115ce578063313ce567146115ab5780634768d4ef146115635780634e26b0cd14611532578063715018a6146114d35780638da5cb5b146114aa5780639512ada214611385578063ab85f1f4146101d0578063f2fde38b146101065763f9df988f0361000e573461004f57600036600319011261004f576001546040516001600160a01b039091168152602090f35b3461004f57602036600319011261004f576004356001600160a01b038181169182900361004f57610135612768565b811561017c57600080546001600160a01b031981168417825560405191939192167f8be0079c531659141344cd1fd0a4f28419497f9722a3daafe3b4186f6b6457e08484a3f35b60405162461bcd60e51b815260206004820152602660248201527f4f776e61626c653a206e6577206f776e657220697320746865207a65726f206160448201526564647265737360d01b6064820152608490fd5b3461004f5761016036600319011261004f57366063121561004f576040516101f7816125ea565b3660841161004f576044905b60848210611375573660a3121561004f57604051610220816125ea565b366101041161004f576084905b610104821061135b5736610123121561004f5760405161024c816125ea565b366101441161004f57610104905b610144821061134b57610144356001600160401b03811161004f5761028390369060040161270a565b6001546040516331a9108f60e11b815260048035908201526001600160a01b039091169190602081602481865afa8015610846576102d49160009161132c575b506001600160a01b03163314612865565b6040516375d279b360e11b815260048035908201529160c083602481845afa8015610846576000916000926000956000936112d6575b506112a057604051635c9302c960e01b8152602081600481855afa801561084657849160009161126b575b50036112145761034c610347866128a1565b6128b7565b600119811161086157600119600182011161086157600519600282011161086157600519600782011161086157600c018451036111cf576040516343569ffb60e01b81528560048201526024356024820152602081604481855afa908115610846576000916111a0575b506001600160a01b031615611168576103ce856128a1565b80196005116108615760011960058201116108615733906001600160a01b03906103fb9060060187612832565b51160361113257600435600052600260205261041d6003604060002001612920565b6040519161042a8361256f565b61043b610436886128cd565b6128a1565b801960051161086157600219600582011161086157600761045d910187612832565b51835261046c610436886128cd565b801960051161086157600219600582011161086157600119600782011161086157600861049a910187612832565b5160208401526104ac610436886128cd565b80196005116108615760021960058201116108615760021960078201116108615760096104da910187612832565b5160408401526104ec610436886128cd565b801960051161086157600219600582011161086157600319600782011161086157600a61051a910187612832565b51606084015261052c610436886128cd565b801960051161086157600219600582011161086157600419600782011161086157600b61055a910187612832565b5180608085015280610fee575b505050506040516105778161256f565b610580846127cf565b51815261058c846127f2565b51602082015261059b84612802565b5160408201526105aa84612812565b5160608201526105b984612822565b51608082015260043560005260026020526003604060002001906000905b60058210610fd8575050506105eb846128a1565b8019600511610861576106019060050184612832565b5160028503610f4b575b600435600052600260205260406000209161065160036040519461062e866125a0565b60ff81541615158652600181015460208701526002810154604087015201612920565b60608401908152835115610edd575b5061067061067992604092612914565b92015182612965565b926105dc8411610ea4576001546040516310211ca160e21b81526004803590820152926001600160a01b039091169061014084602481855afa93841561084657600094610e29575b50813b1561004f576000916044839260405194859384926304b24e8560e01b8452600435600485015260248401525af1801561084657610e1a575b506000916000610100604051610711816125ce565b8281528260208201528260408201528260608201528260808201528260a08201528260c08201528260e0820152015260005b868110610877575050506001841061086157600019840114610762575b005b6001546001600160a01b0316803b1561004f5760008091604460405180948193635226dc9360e01b835260043560048401528860248401525af1801561084657610852575b506001546001600160a01b0316803b1561004f576000809160246040518094819363366cf14f60e11b835260043560048401525af1801561084657610837575b5060043560005260026020526108006040600020612981565b6040519182526020820152600435907f891b61a0d1978051cf0de05fd51588673823fb075284f28fbe7390ba4f3de04760403392a4005b610840906125bb565b836107e7565b6040513d6000823e3d90fd5b61085b906125bb565b836107a7565b634e487b7160e01b600052601160045260246000fd5b6001546001600160a01b031661088d8284612970565b516040519063618faeb560e11b82526004356004830152602482015261012081604481855afa90811561084657600091610d84575b5060608101516108d18a6128e4565b8019600511610861576108f0906108e7866128a1565b90600501612914565b6002198111610861576002610906910187612832565b5103610d4a57610915836128a1565b80196005116108615761092b9060050186612832565b516060820152608081015161093f8a6128e4565b801960051161086157610955906108e7866128a1565b6001198111610861576002196001820111610861576003610977910187612832565b5103610d1057610986836128a1565b80196005116108615760011960058201116108615760066109a8910186612832565b51608082015260a08101516109bc8a6128e4565b8019600511610861576109d2906108e7866128a1565b60021981116108615760021960028201116108615760046109f4910187612832565b5103610cd857610a03836128a1565b8019600511610861576002196005820111610861576007610a25910186612832565b5160a082015260c0810151610a398a6128e4565b801960051161086157610a4f906108e7866128a1565b6003198111610861576002196003820111610861576005610a71910187612832565b5103610ca057610a80836128a1565b8019600511610861576003196005820111610861576008610aa2910186612832565b5160c082015260e0810151610ab68a6128e4565b801960051161086157610acc906108e7866128a1565b6004198111610861576002196004820111610861576006610aee910187612832565b5103610c6a57610afd836128a1565b8019600511610861576004196005820111610861576009610b1f910186612832565b518060e08301528315610c0e575b50610b388385612970565b51823b1561004f576000926101648492604051958693849263e9d903b160e01b845260043560048501526024840152865160448401526020870151606484015260408701516084840152606087015160a4840152608087015160c484015260a087015160e484015260c087015161010484015260e08701516101248401526101008701516101448401525af19182156108465760e092610bff575b50015115610bea575b610be5906127c0565b610743565b92610bf7610be5916127c0565b939050610bdc565b610c08906125bb565b89610bd3565b15610c195789610b2d565b60405162461bcd60e51b8152602060048201526024808201527f596f752073686f742074686520626f647920796f752073686f756c642070726f6044820152631d1958dd60e21b6064820152608490fd5b60405162461bcd60e51b815260206004820152600e60248201526d496e76616c69642072616469757360901b6044820152606490fd5b60405162461bcd60e51b815260206004820152601060248201526f496e76616c696420766563746f72207960801b6044820152606490fd5b60405162461bcd60e51b815260206004820152601060248201526f092dcecc2d8d2c840eccac6e8dee440f60831b6044820152606490fd5b60405162461bcd60e51b8152602060048201526012602482015271496e76616c696420706f736974696f6e207960701b6044820152606490fd5b60405162461bcd60e51b8152602060048201526012602482015271092dcecc2d8d2c840e0dee6d2e8d2dedc40f60731b6044820152606490fd5b9050610120813d61012011610e12575b81610da26101209383612621565b8101031261004f5761010060405191610dba836125ce565b805183526020810151602084015260408101516040840152606081015160608401526080810151608084015260a081015160a084015260c081015160c084015260e081015160e08401520151610100820152896108c2565b3d9150610d94565b610e23906125bb565b856106fc565b9093506101403d61014011610e9d575b610e438183612621565b8101906101408183031261004f5781601f8201121561004f5760405191610e6983612605565b829061014083011161004f5781905b61014083018210610e8d5750505092876106c1565b8151815260209182019101610e78565b503d610e39565b60405162461bcd60e51b815260206004820152601160248201527013585e081d1a58dac8195e18d959591959607a1b6044820152606490fd5b60018452816040850152600435600052600260205260036040600020918551151560ff801985541691161783556020860151600184015560408601516002840155519101906000905b60058210610f35575050610660565b6001602082829351865501930191019091610f26565b60038503610f59575b61060b565b600485031561060b57600585031561060b57600685031561060b57600785031561060b576008850315610f54576009850315610f5457600a850315610f545760405162461bcd60e51b8152602060048201526018602482015277496e76616c6964206e756d626572206f6620626f6469657360401b6044820152606490fd5b60016020828293518655019301910190916105d7565b8251908451809214938461111f575b8461110c575b846110f9575b846110eb575b505015928361107e575b50508115611076575b50156110315784808080610567565b60405162461bcd60e51b815260206004820152601760248201527f496e76616c696420696e666c696768744d697373696c650000000000000000006044820152606490fd5b905085611022565b60209081015160405163f81c8ec360e01b815293945091839060049082905afa918215610846576000926110b7575b5014908680611019565b9091506020813d6020116110e3575b816110d360209383612621565b8101031261004f575190876110ad565b3d91506110c6565b60800151149250888061100f565b9350606084015160608601511493611009565b9350604084015160408601511493611003565b9350602084015160208601511493610ffd565b60405162461bcd60e51b815260206004820152600e60248201526d24b73b30b634b21039b7b63b32b960911b6044820152606490fd5b60405162461bcd60e51b815260206004820152601060248201526f24b73b30b634b2103b32b934b334b2b960811b6044820152606490fd5b6111c2915060203d6020116111c8575b6111ba8183612621565b810190612846565b866103b6565b503d6111b0565b60405162461bcd60e51b815260206004820152601a60248201527f496e76616c69642070726f6f6620696e707574206c656e6774680000000000006044820152606490fd5b60405162461bcd60e51b815260206004820152602960248201527f4e6f206c6f6e67657220616363657074696e67207375626d697373696f6e7320604482015268666f7220746f64617960b81b6064820152608490fd5b9150506020813d602011611298575b8161128760209383612621565b8101031261004f5783905187610335565b3d915061127a565b60405162461bcd60e51b815260206004820152600e60248201526d105b1c9958591e481cdbdb1d995960921b6044820152606490fd5b93505093505060c0813d60c011611324575b816112f560c09383612621565b8101031261004f57805192831515840361004f5760408201519060a0606084015193015194919294918661030a565b3d91506112e8565b611345915060203d6020116111c8576111ba8183612621565b846102c3565b813581526020918201910161025a565b602060409161136a3685612659565b81520191019061022d565b8135815260209182019101610203565b3461004f5760208060031936011261004f576001546040516331a9108f60e11b8152600480359082018190526001600160a01b0392831693929091908382602481885afa8015610846576113e49260009161148d575b50163314612865565b806000526002825260ff604060002054161561145057823b1561004f576000809360246040518096819363366cf14f60e11b83528660048401525af192831561084657600293611441575b50600052526107606040600020612981565b61144a906125bb565b8361142f565b60405162461bcd60e51b81526004810183905260156024820152744d61746368206e6f7420696e2070726f677265737360581b6044820152606490fd5b6114a49150853d87116111c8576111ba8183612621565b866113db565b3461004f57600036600319011261004f576000546040516001600160a01b039091168152602090f35b3461004f57600036600319011261004f576114ec612768565b600080546001600160a01b0319811682556040519082906001600160a01b03167f8be0079c531659141344cd1fd0a4f28419497f9722a3daafe3b4186f6b6457e08284a3f35b3461004f57602036600319011261004f576004356000526002602052602060ff604060002054166040519015158152f35b3461004f57602036600319011261004f5760043560005260026020526060604060002060ff815416906002600182015491015490604051921515835260208301526040820152f35b3461004f57600036600319011261004f576020604051670de0b6b3a76400008152f35b3461004f57600036600319011261004f5760206040516105dc8152f35b3461004f5760c036600319011261004f576044356001600160401b03811161004f5761161b90369060040161269e565b6001600160401b036064351161004f5736602360643501121561004f57606435600401359061164982612642565b916116576040519384612621565b80835260208301903660248260071b60643501011161004f57602460643501915b60248260071b606435010183106124cf575050506084356001600160401b03811161004f576116ab90369060040161269e565b6001600160401b0360a4351161004f5736602360a43501121561004f5760a435600401356116d881612642565b906116e66040519283612621565b80825260208201903660248260051b60a43501011161004f57602460a43501915b60248260051b60a4350101831061249c5750505060005b8151811015610760576117318185612832565b5061173c8186612832565b506117478184612832565b506117528183612832565b516001546040516331a9108f60e11b815260048035908201526001600160a01b03909116929190602081602481875afa8015610846576117a49160009161247d57506001600160a01b03163314612865565b6040516375d279b360e11b815260048035908201529060c082602481875afa801561084657600094600095600094600093612427575b506112a057604051635c9302c960e01b8152602081600481855afa80156108465787916000916123f2575b500361121457611817610347856128a1565b60011981116108615760011960018201116108615760051980600283011161086157600782011161086157600c018351036111cf576040516343569ffb60e01b81528460048201526024356024820152602081604481855afa908115610846576000916123d3575b506001600160a01b03161561116857611897846128a1565b80196005116108615760011960058201116108615733906001600160a01b03906118c49060060186612832565b5116036111325760043560005260026020526118e66003604060002001612920565b604051916118f38361256f565b6118ff610436876128cd565b8019600511610861576002196005820111610861576007611921910186612832565b518352611930610436876128cd565b801960051161086157600219600582011161086157600119600782011161086157600861195e910186612832565b516020840152611970610436876128cd565b801960051161086157600219600582011161086157600219600782011161086157600961199e910186612832565b5160408401526119b0610436876128cd565b801960051161086157600219600582011161086157600319600782011161086157600a6119de910186612832565b5160608401526119f0610436876128cd565b801960051161086157600219600582011161086157600419600782011161086157600b611a1e910186612832565b51806080850152806122d4575b50505050604051611a3b8161256f565b611a44836127cf565b518152611a50836127f2565b516020820152611a5f83612802565b516040820152611a6e83612812565b516060820152611a7d83612822565b516080820152600435600052600260205260036040600020016000915b600583106122be57505050611aae836128a1565b801960051161086157611ac49060050183612832565b5160028403612231575b6004356000526002602052604060002091611af160036040519461062e866125a0565b606084019081528351156121c4575b50610670611b1092604092612914565b916105dc8311610ea4576001546040516310211ca160e21b81526004803590820152926001600160a01b039091169061014084602481855afa93841561084657600094612144575b50813b1561004f576000916044839260405194859384926304b24e8560e01b8452600435600485015260248401525af1801561084657612135575b506000916000610100604051611ba8816125ce565b8281528260208201528260408201528260608201528260808201528260a08201528260c08201528260e0820152015260005b858110611d06575050506001831061086157600019830114611c08575b5050611c0391506127c0565b61171e565b6001546001600160a01b0316803b1561004f5760008091604460405180948193635226dc9360e01b835260043560048401528760248401525af1801561084657611cf7575b506001546001600160a01b031693843b1561004f576000809560246040518098819363366cf14f60e11b835260043560048401525af194851561084657611c0395611ce8575b506004356000526002602052611cac6040600020612981565b6040519182526020820152600435907f891b61a0d1978051cf0de05fd51588673823fb075284f28fbe7390ba4f3de04760403392a48680611bf7565b611cf1906125bb565b89611c93565b611d00906125bb565b88611c4d565b6001546001600160a01b0316611d1c8284612970565b516040519063618faeb560e11b82526004356004830152602482015261012081604481855afa9081156108465760009161209f575b506060810151611d60896128e4565b801960051161086157611d76906108e7866128a1565b6002198111610861576002611d8c910187612832565b5103610d4a57611d9b836128a1565b801960051161086157611db19060050186612832565b5160608201526080810151611dc5896128e4565b801960051161086157611ddb906108e7866128a1565b6001198111610861576002196001820111610861576003611dfd910187612832565b5103610d1057611e0c836128a1565b8019600511610861576001196005820111610861576006611e2e910186612832565b51608082015260a0810151611e42896128e4565b801960051161086157611e58906108e7866128a1565b6002198111610861576002196002820111610861576004611e7a910187612832565b5103610cd857611e89836128a1565b8019600511610861576002196005820111610861576007611eab910186612832565b5160a082015260c0810151611ebf896128e4565b801960051161086157611ed5906108e7866128a1565b6003198111610861576002196003820111610861576005611ef7910187612832565b5103610ca057611f06836128a1565b8019600511610861576003196005820111610861576008611f28910186612832565b5160c082015260e0810151611f3c896128e4565b801960051161086157611f52906108e7866128a1565b6004198111610861576002196004820111610861576006611f74910187612832565b5103610c6a57611f83836128a1565b8019600511610861576004196005820111610861576009611fa5910186612832565b518060e08301528315612094575b50611fbe8385612970565b51823b1561004f576000926101648492604051958693849263e9d903b160e01b845260043560048501526024840152865160448401526020870151606484015260408701516084840152606087015160a4840152608087015160c484015260a087015160e484015260c087015161010484015260e08701516101248401526101008701516101448401525af19182156108465760e092612085575b50015115612070575b61206b906127c0565b611bda565b9261207d61206b916127c0565b939050612062565b61208e906125bb565b8e612059565b15610c19578e611fb3565b9050610120813d6101201161212d575b816120bd6101209383612621565b8101031261004f57610100604051916120d5836125ce565b805183526020810151602084015260408101516040840152606081015160608401526080810151608084015260a081015160a084015260c081015160c084015260e081015160e084015201516101008201528e611d51565b3d91506120af565b61213e906125bb565b8a611b93565b909350610140903d610140116121bc575b61215f8282612621565b61014081838101031261004f57818101601f8201121561004f576040519161218683612605565b8290820161014083011161004f5781905b610140830182106121ac57505050928c611b58565b8151815260209182019101612197565b3d9150612155565b60018452816040850152600435600052600260205260036040600020918551151560ff8019855416911617835560208601516001840155604086015160028401555191016000915b6005831061221b575050611b00565b600160208282935185550192019201919061220c565b6003840361223f575b611ace565b6004840315611ace576005840315611ace576006840315611ace576007840315611ace57600884031561223a57600984031561223a57600a84031561223a5760405162461bcd60e51b8152602060048201526018602482015277496e76616c6964206e756d626572206f6620626f6469657360401b6044820152606490fd5b6001602082829351855501920192019190611a9a565b825190845180921493846123c0575b846123ad575b8461239a575b8461238c575b505015928361231f575b50508115612317575b50156110315789808080611a2b565b90508a612308565b60209081015160405163f81c8ec360e01b815293945091839060049082905afa91821561084657600092612358575b5014908b806122ff565b9091506020813d602011612384575b8161237460209383612621565b8101031261004f5751908c61234e565b3d9150612367565b608001511492508d806122f5565b93506060840151606086015114936122ef565b93506040840151604086015114936122e9565b93506020840151602086015114936122e3565b6123ec915060203d6020116111c8576111ba8183612621565b8b61187f565b9150506020813d60201161241f575b8161240e60209383612621565b8101031261004f578690518c611805565b3d9150612401565b96505092505060c0843d60c011612475575b8161244660c09383612621565b8101031261004f57835191821515830361004f5760408501519060a0606087015196015193919593918b6117da565b3d9150612439565b612496915060203d6020116111c8576111ba8183612621565b896102c3565b6001600160401b0383351161004f576020806024926124c23685883560a435010161270a565b8152019301929050611707565b36601f8401121561004f576040516124e6816125ea565b8036608086011161004f5784905b608086018210612511575050815260809290920191602001611678565b60206040916125203685612659565b8152019101906124f4565b3461004f57602036600319011261004f576004356001600160a01b0381169081900361004f57612559612768565b600180546001600160a01b031916919091179055005b60a081019081106001600160401b0382111761258a57604052565b634e487b7160e01b600052604160045260246000fd5b608081019081106001600160401b0382111761258a57604052565b6001600160401b03811161258a57604052565b61012081019081106001600160401b0382111761258a57604052565b604081019081106001600160401b0382111761258a57604052565b61014081019081106001600160401b0382111761258a57604052565b90601f801991011681019081106001600160401b0382111761258a57604052565b6001600160401b03811161258a5760051b60200190565b9080601f8301121561004f5760405191612672836125ea565b82906040810192831161004f57905b82821061268e5750505090565b8135815260209182019101612681565b81601f8201121561004f578035906126b582612642565b926040926126c584519586612621565b808552602091828087019260061b8501019381851161004f578301915b8483106126f25750505050505090565b8386916126ff8486612659565b8152019201916126e2565b81601f8201121561004f5780359161272183612642565b9261272f6040519485612621565b808452602092838086019260051b82010192831161004f578301905b828210612759575050505090565b8135815290830190830161274b565b6000546001600160a01b0316330361277c57565b606460405162461bcd60e51b815260206004820152602060248201527f4f776e61626c653a2063616c6c6572206973206e6f7420746865206f776e65726044820152fd5b60001981146108615760010190565b8051156127dc5760200190565b634e487b7160e01b600052603260045260246000fd5b8051600110156127dc5760400190565b8051600210156127dc5760600190565b8051600310156127dc5760800190565b8051600410156127dc5760a00190565b80518210156127dc5760209160051b010190565b9081602091031261004f57516001600160a01b038116810361004f5790565b1561286c57565b60405162461bcd60e51b815260206004820152600d60248201526c2737ba103a34329037bbb732b960991b6044820152606490fd5b8060001904600511811515166108615760050290565b8060001904600211811515166108615760011b90565b6001600160ff1b0381116001166108615760011b90565b7f333333333333333333333333333333333333333333333333333333333333333381116001166108615760050290565b81198111610861570190565b60405191906000835b6005821061294f5750505060a082018281106001600160401b0382111761258a57604052565b6001602081928554815201930191019091612929565b818110610861570390565b90600a8110156127dc5760051b0190565b600090818155600191808383015580600283015560036008830192015b8281106129ab5750505050565b818155830161299e56fea26469706673582212207ce56dd5079470260a2643f067bda6e2c0515df0c1c70957f63012f0ef64b86864736f6c634300080f0033",
  "linkReferences": {},
  "deployedLinkReferences": {}
}