{
  "_format": "hh-sol-artifact-1",
  "contractName": "Speedruns",
  "sourceName": "contracts/Speedruns.sol",
  "abi": [
    {
      "inputs": [],
      "stateMutability": "nonpayable",
      "type": "constructor"
    },
    {
      "anonymous": false,
      "inputs": [
        {
          "indexed": true,
          "internalType": "address",
          "name": "account",
          "type": "address"
        },
        {
          "indexed": true,
          "internalType": "address",
          "name": "operator",
          "type": "address"
        },
        {
          "indexed": false,
          "internalType": "bool",
          "name": "approved",
          "type": "bool"
        }
      ],
      "name": "ApprovalForAll",
      "type": "event"
    },
    {
      "anonymous": false,
      "inputs": [
        {
          "indexed": true,
          "internalType": "address",
          "name": "previousOwner",
          "type": "address"
        },
        {
          "indexed": true,
          "internalType": "address",
          "name": "newOwner",
          "type": "address"
        }
      ],
      "name": "OwnershipTransferred",
      "type": "event"
    },
    {
      "anonymous": false,
      "inputs": [
        {
          "indexed": true,
          "internalType": "address",
          "name": "operator",
          "type": "address"
        },
        {
          "indexed": true,
          "internalType": "address",
          "name": "from",
          "type": "address"
        },
        {
          "indexed": true,
          "internalType": "address",
          "name": "to",
          "type": "address"
        },
        {
          "indexed": false,
          "internalType": "uint256[]",
          "name": "ids",
          "type": "uint256[]"
        },
        {
          "indexed": false,
          "internalType": "uint256[]",
          "name": "values",
          "type": "uint256[]"
        }
      ],
      "name": "TransferBatch",
      "type": "event"
    },
    {
      "anonymous": false,
      "inputs": [
        {
          "indexed": true,
          "internalType": "address",
          "name": "operator",
          "type": "address"
        },
        {
          "indexed": true,
          "internalType": "address",
          "name": "from",
          "type": "address"
        },
        {
          "indexed": true,
          "internalType": "address",
          "name": "to",
          "type": "address"
        },
        {
          "indexed": false,
          "internalType": "uint256",
          "name": "id",
          "type": "uint256"
        },
        {
          "indexed": false,
          "internalType": "uint256",
          "name": "value",
          "type": "uint256"
        }
      ],
      "name": "TransferSingle",
      "type": "event"
    },
    {
      "anonymous": false,
      "inputs": [
        {
          "indexed": false,
          "internalType": "string",
          "name": "value",
          "type": "string"
        },
        {
          "indexed": true,
          "internalType": "uint256",
          "name": "id",
          "type": "uint256"
        }
      ],
      "name": "URI",
      "type": "event"
    },
    {
      "stateMutability": "nonpayable",
      "type": "fallback"
    },
    {
      "inputs": [
        {
          "internalType": "address",
          "name": "from",
          "type": "address"
        },
        {
          "internalType": "uint256",
          "name": "id",
          "type": "uint256"
        },
        {
          "internalType": "uint256",
          "name": "amount",
          "type": "uint256"
        }
      ],
      "name": "__burn",
      "outputs": [],
      "stateMutability": "nonpayable",
      "type": "function"
    },
    {
      "inputs": [
        {
          "internalType": "address",
          "name": "to",
          "type": "address"
        },
        {
          "internalType": "uint256",
          "name": "id",
          "type": "uint256"
        },
        {
          "internalType": "uint256",
          "name": "amount",
          "type": "uint256"
        },
        {
          "internalType": "bytes",
          "name": "data",
          "type": "bytes"
        }
      ],
      "name": "__mint",
      "outputs": [],
      "stateMutability": "nonpayable",
      "type": "function"
    },
    {
      "inputs": [
        {
          "internalType": "address",
          "name": "from",
          "type": "address"
        },
        {
          "internalType": "address",
          "name": "to",
          "type": "address"
        },
        {
          "internalType": "uint256",
          "name": "tokenId",
          "type": "uint256"
        },
        {
          "internalType": "uint256",
          "name": "amount",
          "type": "uint256"
        },
        {
          "internalType": "bytes",
          "name": "data",
          "type": "bytes"
        }
      ],
      "name": "__safeTransferFrom",
      "outputs": [],
      "stateMutability": "nonpayable",
      "type": "function"
    },
    {
      "inputs": [
        {
          "internalType": "address",
          "name": "owner",
          "type": "address"
        },
        {
          "internalType": "address",
          "name": "operator",
          "type": "address"
        },
        {
          "internalType": "bool",
          "name": "approved",
          "type": "bool"
        }
      ],
      "name": "__setApprovalForAll",
      "outputs": [],
      "stateMutability": "nonpayable",
      "type": "function"
    },
    {
      "inputs": [
        {
          "internalType": "address",
          "name": "account",
          "type": "address"
        },
        {
          "internalType": "uint256",
          "name": "id",
          "type": "uint256"
        }
      ],
      "name": "balanceOf",
      "outputs": [
        {
          "internalType": "uint256",
          "name": "",
          "type": "uint256"
        }
      ],
      "stateMutability": "view",
      "type": "function"
    },
    {
      "inputs": [
        {
          "internalType": "address[]",
          "name": "accounts",
          "type": "address[]"
        },
        {
          "internalType": "uint256[]",
          "name": "ids",
          "type": "uint256[]"
        }
      ],
      "name": "balanceOfBatch",
      "outputs": [
        {
          "internalType": "uint256[]",
          "name": "",
          "type": "uint256[]"
        }
      ],
      "stateMutability": "view",
      "type": "function"
    },
    {
      "inputs": [
        {
          "internalType": "bytes32[]",
          "name": "topics",
          "type": "bytes32[]"
        },
        {
          "internalType": "bytes",
          "name": "logData",
          "type": "bytes"
        }
      ],
      "name": "emitGenericEvent",
      "outputs": [],
      "stateMutability": "nonpayable",
      "type": "function"
    },
    {
      "inputs": [
        {
          "internalType": "address",
          "name": "account",
          "type": "address"
        },
        {
          "internalType": "address",
          "name": "operator",
          "type": "address"
        }
      ],
      "name": "isApprovedForAll",
      "outputs": [
        {
          "internalType": "bool",
          "name": "",
          "type": "bool"
        }
      ],
      "stateMutability": "view",
      "type": "function"
    },
    {
      "inputs": [],
      "name": "owner",
      "outputs": [
        {
          "internalType": "address",
          "name": "",
          "type": "address"
        }
      ],
      "stateMutability": "view",
      "type": "function"
    },
    {
      "inputs": [],
      "name": "renounceOwnership",
      "outputs": [],
      "stateMutability": "nonpayable",
      "type": "function"
    },
    {
      "inputs": [
        {
          "internalType": "address",
          "name": "from",
          "type": "address"
        },
        {
          "internalType": "address",
          "name": "to",
          "type": "address"
        },
        {
          "internalType": "uint256[]",
          "name": "ids",
          "type": "uint256[]"
        },
        {
          "internalType": "uint256[]",
          "name": "amounts",
          "type": "uint256[]"
        },
        {
          "internalType": "bytes",
          "name": "data",
          "type": "bytes"
        }
      ],
      "name": "safeBatchTransferFrom",
      "outputs": [],
      "stateMutability": "nonpayable",
      "type": "function"
    },
    {
      "inputs": [
        {
          "internalType": "address",
          "name": "from",
          "type": "address"
        },
        {
          "internalType": "address",
          "name": "to",
          "type": "address"
        },
        {
          "internalType": "uint256",
          "name": "tokenId",
          "type": "uint256"
        },
        {
          "internalType": "uint256",
          "name": "amount",
          "type": "uint256"
        },
        {
          "internalType": "bytes",
          "name": "data",
          "type": "bytes"
        }
      ],
      "name": "safeTransferFrom",
      "outputs": [],
      "stateMutability": "nonpayable",
      "type": "function"
    },
    {
      "inputs": [
        {
          "internalType": "address",
          "name": "operator",
          "type": "address"
        },
        {
          "internalType": "bool",
          "name": "approved",
          "type": "bool"
        }
      ],
      "name": "setApprovalForAll",
      "outputs": [],
      "stateMutability": "nonpayable",
      "type": "function"
    },
    {
      "inputs": [
        {
          "internalType": "bytes4",
          "name": "interfaceId",
          "type": "bytes4"
        }
      ],
      "name": "supportsInterface",
      "outputs": [
        {
          "internalType": "bool",
          "name": "",
          "type": "bool"
        }
      ],
      "stateMutability": "view",
      "type": "function"
    },
    {
      "inputs": [
        {
          "internalType": "address",
          "name": "newOwner",
          "type": "address"
        }
      ],
      "name": "transferOwnership",
      "outputs": [],
      "stateMutability": "nonpayable",
      "type": "function"
    },
    {
      "inputs": [
        {
          "internalType": "address payable",
          "name": "anybodyProblem_",
          "type": "address"
        }
      ],
      "name": "updateAnybodyProblemAddress",
      "outputs": [],
      "stateMutability": "nonpayable",
      "type": "function"
    },
    {
      "inputs": [
        {
          "internalType": "uint256",
          "name": "tokenId",
          "type": "uint256"
        }
      ],
      "name": "uri",
      "outputs": [
        {
          "internalType": "string",
          "name": "",
          "type": "string"
        }
      ],
      "stateMutability": "view",
      "type": "function"
    },
    {
      "stateMutability": "payable",
      "type": "receive"
    }
  ],
  "bytecode": "0x6080346200012657602081016001600160401b03811182821017620001105760405260008091526002546001908181811c9116801562000105575b6020821014620000f157601f8111620000a7575b600283905560038054336001600160a01b03198216811790925560405191906001600160a01b03167f8be0079c531659141344cd1fd0a4f28419497f9722a3daafe3b4186f6b6457e08684a36120d490816200012c8239f35b60028352601f0160051c7f405787fa12a823e0f2b7631cc41b3ba8828b3321ca811111fa75cd3aa3bb5ace908101905b818110620000e657506200004e565b8381558201620000d7565b634e487b7160e01b83526022600452602483fd5b90607f16906200003a565b634e487b7160e01b600052604160045260246000fd5b600080fdfe60806040526004361015610030575b3615610028573461002357610021611b93565b005b600080fd5b610021611b6b565b60003560e01c8062fdd58e1461018357806301ffc9a71461017a5780630e89341c146101715780632eb2c2d6146101685780634e1273f41461015f57806356d5f24b146101565780635abc08191461014d578063715018a6146101445780638da5cb5b1461013b57806393ccd31014610132578063a22cb46514610129578063b46f007114610120578063c12e5c6814610117578063e2ce81a51461010e578063e985e9c514610105578063f242432a146100fc5763f2fde38b0361000e576100f7610b90565b61000e565b506100f7610b75565b506100f7610b40565b506100f7610a88565b506100f7610945565b506100f76108d3565b506100f7610873565b506100f7610751565b506100f7610727565b506100f76106c2565b506100f7610692565b506100f76105f2565b506100f761052c565b506100f7610461565b506100f7610283565b506100f76101e3565b506100f761019d565b6001600160a01b0381160361002357565b50346100235760403660031901126100235760206101c96004356101c08161018c565b60243590610cbd565b604051908152f35b6001600160e01b031981160361002357565b503461002357602036600319011261002357602061020b600435610206816101d1565b611d88565b6040519015158152f35b918091926000905b82821061023557501161022e575050565b6000910152565b9150806020918301518186015201829161021d565b9060209161026381518092818552858086019101610215565b601f01601f1916010190565b90602061028092818152019061024a565b90565b5034610023576020366003190112610023576102b76102a3600435611c1d565b60405191829160208352602083019061024a565b0390f35b50634e487b7160e01b600052604160045260246000fd5b604081019081106001600160401b038211176102ed57604052565b6102f56102bb565b604052565b602081019081106001600160401b038211176102ed57604052565b606081019081106001600160401b038211176102ed57604052565b608081019081106001600160401b038211176102ed57604052565b90601f801991011681019081106001600160401b038211176102ed57604052565b6020906001600160401b038111610385575b60051b0190565b61038d6102bb565b61037e565b81601f82011215610023578035916103a98361036c565b926103b7604051948561034b565b808452602092838086019260051b820101928311610023578301905b8282106103e1575050505090565b813581529083019083016103d3565b6020906001600160401b03811161040d575b601f01601f19160190565b6104156102bb565b610402565b81601f8201121561002357803590610431826103f0565b9261043f604051948561034b565b8284526020838301011161002357816000926020809301838601378301015290565b50346100235760a03660031901126100235760043561047f8161018c565b6024359061048c8261018c565b6001600160401b0391604435838111610023576104ad903690600401610392565b606435848111610023576104c5903690600401610392565b91608435948511610023576104e161002195369060040161041a565b93610f12565b90815180825260208080930193019160005b828110610507575050505090565b8351855293810193928101926001016104f9565b9060206102809281815201906104e7565b5034610023576040366003190112610023576004356001600160401b0380821161002357366023830112156100235781600401356105698161036c565b92610577604051948561034b565b81845260209160248386019160051b8301019136831161002357602401905b8282106105cf5785602435868111610023576102b7916105bd6105c3923690600401610392565b90610de7565b6040519182918261051b565b83809183356105dd8161018c565b815201910190610596565b8015150361002357565b5034610023576060366003190112610023576100216004356106138161018c565b60243561061f8161018c565b6044359161062c836105e8565b61064160018060a01b03600454163314611456565b611a14565b60a06003198201126100235760043561065e8161018c565b9160243561066b8161018c565b916044359160643591608435906001600160401b038211610023576102809160040161041a565b5034610023576100216106a436610646565b936106bd60018060a09694961b03600454163314611456565b611821565b503461002357600080600319360112610724576106dd610c65565b600380546001600160a01b031981169091556040519082906001600160a01b03167f8be0079c531659141344cd1fd0a4f28419497f9722a3daafe3b4186f6b6457e08284a3f35b80fd5b5034610023576000366003190112610023576003546040516001600160a01b039091168152602090f35b50346100235760803660031901126100235760043561076f8161018c565b6024356044356064356001600160401b0381116100235761079490369060040161041a565b9160018060a01b036107ab81600454163314611456565b841693841561082457610021946107c183611791565b506107cb84611791565b506000838152602081815260408083206001600160a01b038616845290915290206107f785825461116a565b90556040805184815260208101869052600091339160008051602061207f8339815191529190a43361168b565b60405162461bcd60e51b815260206004820152602160248201527f455243313135353a206d696e7420746f20746865207a65726f206164647265736044820152607360f81b6064820152608490fd5b5034610023576040366003190112610023576100216004356108948161018c565b602435906108a1826105e8565b611eb7565b9181601f84011215610023578235916001600160401b038311610023576020838186019501011161002357565b5034610023576040366003190112610023576004356001600160401b03808211610023573660238301121561002357816004013591818311610023573660248460051b8301011161002357602435918211610023576100219261093c60249336906004016108a6565b93909201611faa565b5034610023576060366003190112610023576004356109638161018c565b6024356044359060018060a01b0361098081600454163314611456565b8316918215610a3757610a2c60008051602061207f833981519152916000956109a885611791565b506109b282611791565b506109bb6117b6565b50610a12826109ef836109d8896000526000602052604060002090565b9060018060a01b0316600052602052604060002090565b546109fc828210156117c9565b03916109d8876000526000602052604060002090565b556040805194855260208501919091523393918291820190565b0390a46100216117b6565b60405162461bcd60e51b815260206004820152602360248201527f455243313135353a206275726e2066726f6d20746865207a65726f206164647260448201526265737360e81b6064820152608490fd5b503461002357602036600319011261002357610021600460208135610aac8161018c565b610ab4610c65565b82546001600160a01b0319166001600160a01b03919091169081178355604051635c9302c960e01b815292839182905afa908115610b33575b600091610b05575b50610afe6117b6565b90336114a2565b610b26915060203d8111610b2c575b610b1e818361034b565b810190611ae0565b38610af5565b503d610b14565b610b3b6111fe565b610aed565b503461002357604036600319011261002357602061020b600435610b638161018c565b60243590610b708261018c565b611e28565b503461002357610021610b8736610646565b93929092611f17565b503461002357602036600319011261002357600435610bae8161018c565b610bb6610c65565b6001600160a01b03908116908115610c115760009160035491816bffffffffffffffffffffffff60a01b84161760035560405192167f8be0079c531659141344cd1fd0a4f28419497f9722a3daafe3b4186f6b6457e08484a3f35b60405162461bcd60e51b815260206004820152602660248201527f4f776e61626c653a206e6577206f776e657220697320746865207a65726f206160448201526564647265737360d01b6064820152608490fd5b6003546001600160a01b03163303610c7957565b606460405162461bcd60e51b815260206004820152602060248201527f4f776e61626c653a2063616c6c6572206973206e6f7420746865206f776e65726044820152fd5b6001600160a01b03811615610cf1576000918252602082815260408084206001600160a01b03909316845291905290205490565b60405162461bcd60e51b815260206004820152602a60248201527f455243313135353a2061646472657373207a65726f206973206e6f742061207660448201526930b634b21037bbb732b960b11b6064820152608490fd5b90610d538261036c565b610d60604051918261034b565b8281528092610d71601f199161036c565b0190602036910137565b50634e487b7160e01b600052601160045260246000fd5b6001906000198114610da2570190565b610daa610d7b565b0190565b50634e487b7160e01b600052603260045260246000fd5b6020918151811015610dda575b60051b010190565b610de2610dae565b610dd2565b9190918051835103610e5857610dfd8151610d49565b9060005b8151811015610e515780610e3c610e2b610e1e610e4c9486610dc5565b516001600160a01b031690565b610e358389610dc5565b5190610cbd565b610e468286610dc5565b52610d92565b610e01565b5090925050565b60405162461bcd60e51b815260206004820152602960248201527f455243313135353a206163636f756e747320616e6420696473206c656e677468604482015268040dad2e6dac2e8c6d60bb1b6064820152608490fd5b15610eb657565b60405162461bcd60e51b815260206004820152602e60248201527f455243313135353a2063616c6c6572206973206e6f7420746f6b656e206f776e60448201526d195c881bdc88185c1c1c9bdd995960921b6064820152608490fd5b6001600160a01b038082169691959294939290338814801561102f575b610f3890610eaf565b610f458451865114611044565b8516610f528115156110a1565b60005b8451811015610fe9578088610fdd610fd58a6109d88b610f8387610f7c610fe49a8f610dc5565b5192610dc5565b5195610fc487610fa1836109d8866000526000602052604060002090565b54610fae828210156110fb565b03916109d8846000526000602052604060002090565b556000526000602052604060002090565b91825461116a565b9055610d92565b610f55565b5061102d96919592976040517f4a39dc06d4c0dbc64b70af90fd698a233a518aa5d07e595d983b8c0526c8f7fb3391806110248a8a83611176565b0390a433611335565b565b50610f3861103d3389611e28565b9050610f2f565b1561104b57565b60405162461bcd60e51b815260206004820152602860248201527f455243313135353a2069647320616e6420616d6f756e7473206c656e677468206044820152670dad2e6dac2e8c6d60c31b6064820152608490fd5b156110a857565b60405162461bcd60e51b815260206004820152602560248201527f455243313135353a207472616e7366657220746f20746865207a65726f206164604482015264647265737360d81b6064820152608490fd5b1561110257565b60405162461bcd60e51b815260206004820152602a60248201527f455243313135353a20696e73756666696369656e742062616c616e636520666f60448201526939103a3930b739b332b960b11b6064820152608490fd5b6001906001198111610da2570190565b81198111610da2570190565b909161118d610280936040845260408401906104e7565b9160208184039101526104e7565b908160209103126100235751610280816101d1565b939061028095936111e2916111f09460018060a01b03809216885216602087015260a0604087015260a08601906104e7565b9084820360608601526104e7565b91608081840391015261024a565b506040513d6000823e3d90fd5b60809060208152602860208201527f455243313135353a204552433131353552656365697665722072656a656374656040820152676420746f6b656e7360c01b60608201520190565b60009060033d1161126157565b905060046000803e60005160e01c90565b600060443d1061028057604051600319913d83016004833e81516001600160401b03918282113d6024840111176112cf578184019485519384116112d7573d850101602084870101116112cf57506102809291016020019061034b565b949350505050565b50949350505050565b60809060208152603460208201527f455243313135353a207472616e7366657220746f206e6f6e2d455243313135356040820152732932b1b2b4bb32b91034b6b83632b6b2b73a32b960611b60608201520190565b9493919092813b611349575b505050505050565b60006020946113706040519788968795869463bc197c8160e01b9c8d8752600487016111b0565b03926001600160a01b03165af160009181611426575b506113fe5750506001611397611254565b6308c379a0146113cf575b6113b2575b388080808080611341565b60405162461bcd60e51b8152806113cb600482016112e0565b0390fd5b6113d7611272565b806113e257506113a2565b60405162461bcd60e51b81529081906113cb906004830161026f565b6001600160e01b031916146113a75760405162461bcd60e51b8152806113cb6004820161120b565b61144891925060203d811161144f575b611440818361034b565b81019061119b565b9038611386565b503d611436565b1561145d57565b60405162461bcd60e51b815260206004820152601d60248201527f4f6e6c7920416e79626f64792050726f626c656d2063616e2063616c6c0000006044820152606490fd5b6001600160a01b03811692919083156108245761102d936114c283611791565b506114cb61175f565b506000838152602081815260408083206001600160a01b038616845290915290206114f6815461115a565b90556040805184815260016020820152600091339160008051602061207f8339815191529190a4336115b8565b610280939260a092600180851b0316825260006020830152604082015260016060820152816080820152019061024a565b909260a0926102809594600180861b031683526000602084015260408301526060820152816080820152019061024a565b919261028095949160a094600180871b03809216855216602084015260408301526060820152816080820152019061024a565b92919091823b6115c9575b50505050565b6115f092602092600060405180968195829463f23a6e6160e01b9a8b855260048501611523565b03926001600160a01b03165af16000918161166b575b506116435750506001611617611254565b6308c379a014611630575b6113b2575b388080806115c3565b611638611272565b806113e25750611622565b6001600160e01b031916146116275760405162461bcd60e51b8152806113cb6004820161120b565b61168491925060203d811161144f57611440818361034b565b9038611606565b9390803b61169b575b5050505050565b6116c39360006020946040519687958694859363f23a6e6160e01b9b8c865260048601611554565b03926001600160a01b03165af16000918161173f575b5061171757505060016116ea611254565b6308c379a014611704575b6113b2575b3880808080611694565b61170c611272565b806113e257506116f5565b6001600160e01b031916146116fa5760405162461bcd60e51b8152806113cb6004820161120b565b61175891925060203d811161144f57611440818361034b565b90386116d9565b60405161176b816102d2565b600181526001602082016020368237825115611785575290565b61178d610dae565b5290565b6040519061179e826102d2565b60018252602082016020368237825115611785575290565b604051906117c3826102fa565b60008252565b156117d057565b60405162461bcd60e51b8152602060048201526024808201527f455243313135353a206275726e20616d6f756e7420657863656564732062616c604482015263616e636560e01b6064820152608490fd5b6001600160a01b03948583169491939192919061183f8615156110a1565b61184882611791565b5061185284611791565b5060009582875260209387855281604099876118828a8d8d209060018060a01b0316600052602052604060002090565b5461188f828210156110fb565b878c528b8952036118b48a8d8d209060018060a01b0316600052602052604060002090565b55858a528987528a8a206001600160a01b0384166000908152602091909152604090206118e289825461116a565b90558a518681526020810189905290891690339060008051602061207f83398151915290604090a43b61191a575b5050505050505050565b611940948785948a519788958694859363f23a6e6160e01b9c8d86523360048701611585565b03925af191829185936119f5575b50506119c7575050600190611961611254565b6308c379a014611997575b5061198057505b3880808080808080611910565b5162461bcd60e51b8152806113cb600482016112e0565b61199f611272565b90816119ab575061196c565b50825162461bcd60e51b81529081906113cb906004830161026f565b6001600160e01b0319160390506119de5750611973565b5162461bcd60e51b8152806113cb6004820161120b565b611a0c929350803d1061144f57611440818361034b565b90388061194e565b6001600160a01b03808316939082169290838514611a8957611a6f6020926109d87f17307eab39ab6107e8899845ad3d59bd9653f200f220920489ca2b5937696c319560018060a01b03166000526001602052604060002090565b9015159060ff1981541660ff8316179055604051908152a3565b60405162461bcd60e51b815260206004820152602960248201527f455243313135353a2073657474696e6720617070726f76616c20737461747573604482015268103337b91039b2b63360b91b6064820152608490fd5b90816020910312610023575190565b3d15611b1a573d90611b00826103f0565b91611b0e604051938461034b565b82523d6000602084013e565b606090565b15611b2657565b60405162461bcd60e51b815260206004820152601d60248201527f43616c6c20746f20616e79626f647950726f626c656d206661696c65640000006044820152606490fd5b61102d6000808060018060a01b03600454166040519034905af1611b8d611aef565b50611b1f565b61102d60008060018060a01b036004541660405136838237828136810182815203925af1611b8d611aef565b602081830312610023578051906001600160401b038211610023570181601f82011215610023578051611bf1816103f0565b92611bff604051948561034b565b81845260208284010111610023576102809160208085019101610215565b9060018060a01b0360045416916040519060209182810191631649ecf760e31b8352602482015260248152611c5181610315565b6000948592839251915afa90611c65611aef565b9115611c7e576102809293508082518301019101611bbf565b9050604051908360025460019281841c93808316928315611d69575b8286108414611d555797869798611cb78789989960209181520190565b94908115611d345750600114611cd8575b505050506102809250038261034b565b60026000527f405787fa12a823e0f2b7631cc41b3ba8828b3321ca811111fa75cd3aa3bb5ace9690945091905b828510611d1e5750505061028093500138808080611cc8565b8654858501529586019587955093810193611d05565b93505050506102809491925060ff19168252151560051b0138808080611cc8565b634e487b7160e01b89526022600452602489fd5b94607f1694611c9a565b908160209103126100235751610280816105e8565b60008060018060a01b0360045416604051936020850190637b7de1cd60e11b825263ffffffff60e01b169485602482015260248152611dc681610315565b51915afa611dd2611aef565b9015611dec57610280915060208082518301019101611d73565b50636cdb3d1360e11b8114908115611e17575b8115611e09575090565b6301ffc9a760e01b14919050565b6303a24d0760e21b81149150611dff565b9060008060018060a01b038060045416906040516020810191630bd1274f60e31b835280881660248301528616604482015260448152611e6781610330565b51915afa90611e74611aef565b9115611e8f5750610280915060208082518301019101611d73565b611eb291506109d860ff9360018060a01b03166000526001602052604060002090565b541690565b9060008060018060a01b0380600454169082604051602081019263ceab69ff60e01b845288166024820152861515604482015260448152611ef781610330565b51925af1611f03611aef565b5015611f0d575050565b61102d9133611a14565b92919060008060018060a01b03968682611f54611f628b60045416946040519283918c8c8c6020860199634a940b5f60e11b8b5260248701611585565b03601f19810183528261034b565b51925af193611f6f611aef565b9415611f7d57505050505050565b61102d95811633148015611f95575b6106bd90610eaf565b506106bd611fa33383611e28565b9050611f8c565b90929192611fc360018060a01b03600454163314611456565b6004811161204757826040519485378383016040528015612041578060011461203b578060021461202d57806003146120195760041461200257505050565b6060810135926040820135926020830135923591a4565b5090916040820135926020830135923591a3565b5091906020830135923591a2565b503591a1565b505090a0565b60405162461bcd60e51b815260206004820152600f60248201526e546f6f206d616e7920746f7069637360881b6044820152606490fdfec3d58168c5ae7397731d063d5bbf3d657854427343f4c083240f7aacaa2d0f62a26469706673582212203e9d58d5f520f8de80ea8a5d927b2f5fd21047fe74b8e97a9ccd090f9b144c8764736f6c634300080f0033",
  "linkReferences": {},
  "deployedLinkReferences": {}
}