{
  "_format": "hh-sol-artifact-1",
  "contractName": "Speedruns",
  "sourceName": "contracts/Speedruns.sol",
  "abi": [
    {
      "inputs": [],
      "stateMutability": "nonpayable",
      "type": "constructor"
    },
    {
      "anonymous": false,
      "inputs": [
        {
          "indexed": true,
          "internalType": "address",
          "name": "account",
          "type": "address"
        },
        {
          "indexed": true,
          "internalType": "address",
          "name": "operator",
          "type": "address"
        },
        {
          "indexed": false,
          "internalType": "bool",
          "name": "approved",
          "type": "bool"
        }
      ],
      "name": "ApprovalForAll",
      "type": "event"
    },
    {
      "anonymous": false,
      "inputs": [
        {
          "indexed": true,
          "internalType": "address",
          "name": "previousOwner",
          "type": "address"
        },
        {
          "indexed": true,
          "internalType": "address",
          "name": "newOwner",
          "type": "address"
        }
      ],
      "name": "OwnershipTransferred",
      "type": "event"
    },
    {
      "anonymous": false,
      "inputs": [
        {
          "indexed": true,
          "internalType": "address",
          "name": "operator",
          "type": "address"
        },
        {
          "indexed": true,
          "internalType": "address",
          "name": "from",
          "type": "address"
        },
        {
          "indexed": true,
          "internalType": "address",
          "name": "to",
          "type": "address"
        },
        {
          "indexed": false,
          "internalType": "uint256[]",
          "name": "ids",
          "type": "uint256[]"
        },
        {
          "indexed": false,
          "internalType": "uint256[]",
          "name": "values",
          "type": "uint256[]"
        }
      ],
      "name": "TransferBatch",
      "type": "event"
    },
    {
      "anonymous": false,
      "inputs": [
        {
          "indexed": true,
          "internalType": "address",
          "name": "operator",
          "type": "address"
        },
        {
          "indexed": true,
          "internalType": "address",
          "name": "from",
          "type": "address"
        },
        {
          "indexed": true,
          "internalType": "address",
          "name": "to",
          "type": "address"
        },
        {
          "indexed": false,
          "internalType": "uint256",
          "name": "id",
          "type": "uint256"
        },
        {
          "indexed": false,
          "internalType": "uint256",
          "name": "value",
          "type": "uint256"
        }
      ],
      "name": "TransferSingle",
      "type": "event"
    },
    {
      "anonymous": false,
      "inputs": [
        {
          "indexed": false,
          "internalType": "string",
          "name": "value",
          "type": "string"
        },
        {
          "indexed": true,
          "internalType": "uint256",
          "name": "id",
          "type": "uint256"
        }
      ],
      "name": "URI",
      "type": "event"
    },
    {
      "stateMutability": "nonpayable",
      "type": "fallback"
    },
    {
      "inputs": [
        {
          "internalType": "address",
          "name": "from",
          "type": "address"
        },
        {
          "internalType": "uint256",
          "name": "id",
          "type": "uint256"
        },
        {
          "internalType": "uint256",
          "name": "amount",
          "type": "uint256"
        }
      ],
      "name": "__burn",
      "outputs": [],
      "stateMutability": "nonpayable",
      "type": "function"
    },
    {
      "inputs": [
        {
          "internalType": "address",
          "name": "to",
          "type": "address"
        },
        {
          "internalType": "uint256",
          "name": "id",
          "type": "uint256"
        },
        {
          "internalType": "uint256",
          "name": "amount",
          "type": "uint256"
        },
        {
          "internalType": "bytes",
          "name": "data",
          "type": "bytes"
        }
      ],
      "name": "__mint",
      "outputs": [],
      "stateMutability": "nonpayable",
      "type": "function"
    },
    {
      "inputs": [
        {
          "internalType": "address",
          "name": "from",
          "type": "address"
        },
        {
          "internalType": "address",
          "name": "to",
          "type": "address"
        },
        {
          "internalType": "uint256",
          "name": "tokenId",
          "type": "uint256"
        },
        {
          "internalType": "uint256",
          "name": "amount",
          "type": "uint256"
        },
        {
          "internalType": "bytes",
          "name": "data",
          "type": "bytes"
        }
      ],
      "name": "__safeTransferFrom",
      "outputs": [],
      "stateMutability": "nonpayable",
      "type": "function"
    },
    {
      "inputs": [
        {
          "internalType": "address",
          "name": "owner",
          "type": "address"
        },
        {
          "internalType": "address",
          "name": "operator",
          "type": "address"
        },
        {
          "internalType": "bool",
          "name": "approved",
          "type": "bool"
        }
      ],
      "name": "__setApprovalForAll",
      "outputs": [],
      "stateMutability": "nonpayable",
      "type": "function"
    },
    {
      "inputs": [
        {
          "internalType": "address",
          "name": "account",
          "type": "address"
        },
        {
          "internalType": "uint256",
          "name": "id",
          "type": "uint256"
        }
      ],
      "name": "balanceOf",
      "outputs": [
        {
          "internalType": "uint256",
          "name": "",
          "type": "uint256"
        }
      ],
      "stateMutability": "view",
      "type": "function"
    },
    {
      "inputs": [
        {
          "internalType": "address[]",
          "name": "accounts",
          "type": "address[]"
        },
        {
          "internalType": "uint256[]",
          "name": "ids",
          "type": "uint256[]"
        }
      ],
      "name": "balanceOfBatch",
      "outputs": [
        {
          "internalType": "uint256[]",
          "name": "",
          "type": "uint256[]"
        }
      ],
      "stateMutability": "view",
      "type": "function"
    },
    {
      "inputs": [
        {
          "internalType": "bytes32[]",
          "name": "topics",
          "type": "bytes32[]"
        },
        {
          "internalType": "bytes",
          "name": "logData",
          "type": "bytes"
        }
      ],
      "name": "emitGenericEvent",
      "outputs": [],
      "stateMutability": "nonpayable",
      "type": "function"
    },
    {
      "inputs": [
        {
          "internalType": "address",
          "name": "account",
          "type": "address"
        },
        {
          "internalType": "address",
          "name": "operator",
          "type": "address"
        }
      ],
      "name": "isApprovedForAll",
      "outputs": [
        {
          "internalType": "bool",
          "name": "",
          "type": "bool"
        }
      ],
      "stateMutability": "view",
      "type": "function"
    },
    {
      "inputs": [],
      "name": "owner",
      "outputs": [
        {
          "internalType": "address",
          "name": "",
          "type": "address"
        }
      ],
      "stateMutability": "view",
      "type": "function"
    },
    {
      "inputs": [],
      "name": "renounceOwnership",
      "outputs": [],
      "stateMutability": "nonpayable",
      "type": "function"
    },
    {
      "inputs": [
        {
          "internalType": "address",
          "name": "from",
          "type": "address"
        },
        {
          "internalType": "address",
          "name": "to",
          "type": "address"
        },
        {
          "internalType": "uint256[]",
          "name": "ids",
          "type": "uint256[]"
        },
        {
          "internalType": "uint256[]",
          "name": "amounts",
          "type": "uint256[]"
        },
        {
          "internalType": "bytes",
          "name": "data",
          "type": "bytes"
        }
      ],
      "name": "safeBatchTransferFrom",
      "outputs": [],
      "stateMutability": "nonpayable",
      "type": "function"
    },
    {
      "inputs": [
        {
          "internalType": "address",
          "name": "from",
          "type": "address"
        },
        {
          "internalType": "address",
          "name": "to",
          "type": "address"
        },
        {
          "internalType": "uint256",
          "name": "tokenId",
          "type": "uint256"
        },
        {
          "internalType": "uint256",
          "name": "amount",
          "type": "uint256"
        },
        {
          "internalType": "bytes",
          "name": "data",
          "type": "bytes"
        }
      ],
      "name": "safeTransferFrom",
      "outputs": [],
      "stateMutability": "nonpayable",
      "type": "function"
    },
    {
      "inputs": [
        {
          "internalType": "address",
          "name": "operator",
          "type": "address"
        },
        {
          "internalType": "bool",
          "name": "approved",
          "type": "bool"
        }
      ],
      "name": "setApprovalForAll",
      "outputs": [],
      "stateMutability": "nonpayable",
      "type": "function"
    },
    {
      "inputs": [
        {
          "internalType": "bytes4",
          "name": "interfaceId",
          "type": "bytes4"
        }
      ],
      "name": "supportsInterface",
      "outputs": [
        {
          "internalType": "bool",
          "name": "",
          "type": "bool"
        }
      ],
      "stateMutability": "view",
      "type": "function"
    },
    {
      "inputs": [
        {
          "internalType": "address",
          "name": "newOwner",
          "type": "address"
        }
      ],
      "name": "transferOwnership",
      "outputs": [],
      "stateMutability": "nonpayable",
      "type": "function"
    },
    {
      "inputs": [
        {
          "internalType": "address payable",
          "name": "anybodyProblem_",
          "type": "address"
        }
      ],
      "name": "updateAnybodyProblemAddress",
      "outputs": [],
      "stateMutability": "nonpayable",
      "type": "function"
    },
    {
      "inputs": [
        {
          "internalType": "uint256",
          "name": "tokenId",
          "type": "uint256"
        }
      ],
      "name": "uri",
      "outputs": [
        {
          "internalType": "string",
          "name": "",
          "type": "string"
        }
      ],
      "stateMutability": "view",
      "type": "function"
    },
    {
      "stateMutability": "payable",
      "type": "receive"
    }
  ],
  "bytecode": "0x6080346200012657602081016001600160401b03811182821017620001105760405260008091526002546001908181811c9116801562000105575b6020821014620000f157601f8111620000a7575b600283905560038054336001600160a01b03198216811790925560405191906001600160a01b03167f8be0079c531659141344cd1fd0a4f28419497f9722a3daafe3b4186f6b6457e08684a3611ea190816200012c8239f35b60028352601f0160051c7f405787fa12a823e0f2b7631cc41b3ba8828b3321ca811111fa75cd3aa3bb5ace908101905b818110620000e657506200004e565b8381558201620000d7565b634e487b7160e01b83526022600452602483fd5b90607f16906200003a565b634e487b7160e01b600052604160045260246000fd5b600080fdfe60806040526004361015610030575b3615610028573461002357610021611980565b005b600080fd5b610021611958565b60003560e01c8062fdd58e1461018357806301ffc9a71461017a5780630e89341c146101715780632eb2c2d6146101685780634e1273f41461015f57806356d5f24b146101565780635abc08191461014d578063715018a6146101445780638da5cb5b1461013b57806393ccd31014610132578063a22cb46514610129578063b46f007114610120578063c12e5c6814610117578063e2ce81a51461010e578063e985e9c514610105578063f242432a146100fc5763f2fde38b0361000e576100f7610b06565b61000e565b506100f7610aeb565b506100f7610ab6565b506100f7610a6e565b506100f7610930565b506100f76108be565b506100f761085e565b506100f761071b565b506100f76106f1565b506100f761068c565b506100f761065c565b506100f76105bc565b506100f76104f6565b506100f761042b565b506100f7610283565b506100f76101e3565b506100f761019d565b6001600160a01b0381160361002357565b50346100235760403660031901126100235760206101c96004356101c08161018c565b60243590610c33565b604051908152f35b6001600160e01b031981160361002357565b503461002357602036600319011261002357602061020b600435610206816101d1565b611b75565b6040519015158152f35b918091926000905b82821061023557501161022e575050565b6000910152565b9150806020918301518186015201829161021d565b9060209161026381518092818552858086019101610215565b601f01601f1916010190565b90602061028092818152019061024a565b90565b5034610023576020366003190112610023576102b76102a3600435611a0a565b60405191829160208352602083019061024a565b0390f35b50634e487b7160e01b600052604160045260246000fd5b606081019081106001600160401b038211176102ed57604052565b6102f56102bb565b604052565b608081019081106001600160401b038211176102ed57604052565b90601f801991011681019081106001600160401b038211176102ed57604052565b6020906001600160401b03811161034f575b60051b0190565b6103576102bb565b610348565b81601f820112156100235780359161037383610336565b926103816040519485610315565b808452602092838086019260051b820101928311610023578301905b8282106103ab575050505090565b8135815290830190830161039d565b6020906001600160401b0381116103d7575b601f01601f19160190565b6103df6102bb565b6103cc565b81601f82011215610023578035906103fb826103ba565b926104096040519485610315565b8284526020838301011161002357816000926020809301838601378301015290565b50346100235760a0366003190112610023576004356104498161018c565b602435906104568261018c565b6001600160401b03916044358381116100235761047790369060040161035c565b6064358481116100235761048f90369060040161035c565b91608435948511610023576104ab6100219536906004016103e4565b93610e88565b90815180825260208080930193019160005b8281106104d1575050505090565b8351855293810193928101926001016104c3565b9060206102809281815201906104b1565b5034610023576040366003190112610023576004356001600160401b03808211610023573660238301121561002357816004013561053381610336565b926105416040519485610315565b81845260209160248386019160051b8301019136831161002357602401905b8282106105995785602435868111610023576102b79161058761058d92369060040161035c565b90610d5d565b604051918291826104e5565b83809183356105a78161018c565b815201910190610560565b8015150361002357565b5034610023576060366003190112610023576100216004356105dd8161018c565b6024356105e98161018c565b604435916105f6836105b2565b61060b60018060a01b036004541633146113af565b611810565b60a0600319820112610023576004356106288161018c565b916024356106358161018c565b916044359160643591608435906001600160401b03821161002357610280916004016103e4565b50346100235761002161066e36610610565b9361068760018060a09694961b036004541633146113af565b61160b565b5034610023576000806003193601126106ee576106a7610bdb565b600380546001600160a01b031981169091556040519082906001600160a01b03167f8be0079c531659141344cd1fd0a4f28419497f9722a3daafe3b4186f6b6457e08284a3f35b80fd5b5034610023576000366003190112610023576003546040516001600160a01b039091168152602090f35b5034610023576080366003190112610023576004356107398161018c565b6024356044356064356001600160401b0381116100235761075e9036906004016103e4565b9160018060a01b03610775816004541633146113af565b841693841561080f576100219461078b83611533565b5061079584611533565b506107c5826107ae856000526000602052604060002090565b9060018060a01b0316600052602052604060002090565b6107d08582546110d0565b9055604080518481526020810186905260009133917fc3d58168c5ae7397731d063d5bbf3d657854427343f4c083240f7aacaa2d0f629190a43361145f565b60405162461bcd60e51b815260206004820152602160248201527f455243313135353a206d696e7420746f20746865207a65726f206164647265736044820152607360f81b6064820152608490fd5b50346100235760403660031901126100235761002160043561087f8161018c565b6024359061088c826105b2565b611ca4565b9181601f84011215610023578235916001600160401b038311610023576020838186019501011161002357565b5034610023576040366003190112610023576004356001600160401b03808211610023573660238301121561002357816004013591818311610023573660248460051b830101116100235760243591821161002357610021926109276024933690600401610891565b93909201611d97565b50346100235760603660031901126100235760043561094e8161018c565b6024356044359060018060a01b0361096b816004541633146113af565b8316918215610a1d57610a127fc3d58168c5ae7397731d063d5bbf3d657854427343f4c083240f7aacaa2d0f62916000956109a585611533565b506109af82611533565b506109b8611582565b506109f8826109d5836107ae896000526000602052604060002090565b546109e2828210156115b3565b03916107ae876000526000602052604060002090565b556040805194855260208501919091523393918291820190565b0390a4610021611582565b60405162461bcd60e51b815260206004820152602360248201527f455243313135353a206275726e2066726f6d20746865207a65726f206164647260448201526265737360e81b6064820152608490fd5b503461002357602036600319011261002357600435610a8c8161018c565b610a94610bdb565b600480546001600160a01b0319166001600160a01b0392909216919091179055005b503461002357604036600319011261002357602061020b600435610ad98161018c565b60243590610ae68261018c565b611c15565b503461002357610021610afd36610610565b93929092611d04565b503461002357602036600319011261002357600435610b248161018c565b610b2c610bdb565b6001600160a01b03908116908115610b875760009160035491816bffffffffffffffffffffffff60a01b84161760035560405192167f8be0079c531659141344cd1fd0a4f28419497f9722a3daafe3b4186f6b6457e08484a3f35b60405162461bcd60e51b815260206004820152602660248201527f4f776e61626c653a206e6577206f776e657220697320746865207a65726f206160448201526564647265737360d01b6064820152608490fd5b6003546001600160a01b03163303610bef57565b606460405162461bcd60e51b815260206004820152602060248201527f4f776e61626c653a2063616c6c6572206973206e6f7420746865206f776e65726044820152fd5b6001600160a01b03811615610c67576000918252602082815260408084206001600160a01b03909316845291905290205490565b60405162461bcd60e51b815260206004820152602a60248201527f455243313135353a2061646472657373207a65726f206973206e6f742061207660448201526930b634b21037bbb732b960b11b6064820152608490fd5b90610cc982610336565b610cd66040519182610315565b8281528092610ce7601f1991610336565b0190602036910137565b50634e487b7160e01b600052601160045260246000fd5b6001906000198114610d18570190565b610d20610cf1565b0190565b50634e487b7160e01b600052603260045260246000fd5b6020918151811015610d50575b60051b010190565b610d58610d24565b610d48565b9190918051835103610dce57610d738151610cbf565b9060005b8151811015610dc75780610db2610da1610d94610dc29486610d3b565b516001600160a01b031690565b610dab8389610d3b565b5190610c33565b610dbc8286610d3b565b52610d08565b610d77565b5090925050565b60405162461bcd60e51b815260206004820152602960248201527f455243313135353a206163636f756e747320616e6420696473206c656e677468604482015268040dad2e6dac2e8c6d60bb1b6064820152608490fd5b15610e2c57565b60405162461bcd60e51b815260206004820152602e60248201527f455243313135353a2063616c6c6572206973206e6f7420746f6b656e206f776e60448201526d195c881bdc88185c1c1c9bdd995960921b6064820152608490fd5b6001600160a01b0380821696919592949392903388148015610fa5575b610eae90610e25565b610ebb8451865114610fba565b8516610ec8811515611017565b60005b8451811015610f5f578088610f53610f4b8a6107ae8b610ef987610ef2610f5a9a8f610d3b565b5192610d3b565b5195610f3a87610f17836107ae866000526000602052604060002090565b54610f2482821015611071565b03916107ae846000526000602052604060002090565b556000526000602052604060002090565b9182546110d0565b9055610d08565b610ecb565b50610fa396919592976040517f4a39dc06d4c0dbc64b70af90fd698a233a518aa5d07e595d983b8c0526c8f7fb339180610f9a8a8a836110dc565b0390a43361128e565b565b50610eae610fb33389611c15565b9050610ea5565b15610fc157565b60405162461bcd60e51b815260206004820152602860248201527f455243313135353a2069647320616e6420616d6f756e7473206c656e677468206044820152670dad2e6dac2e8c6d60c31b6064820152608490fd5b1561101e57565b60405162461bcd60e51b815260206004820152602560248201527f455243313135353a207472616e7366657220746f20746865207a65726f206164604482015264647265737360d81b6064820152608490fd5b1561107857565b60405162461bcd60e51b815260206004820152602a60248201527f455243313135353a20696e73756666696369656e742062616c616e636520666f60448201526939103a3930b739b332b960b11b6064820152608490fd5b81198111610d18570190565b90916110f3610280936040845260408401906104b1565b9160208184039101526104b1565b908160209103126100235751610280816101d1565b93906102809593611148916111569460018060a01b03809216885216602087015260a0604087015260a08601906104b1565b9084820360608601526104b1565b91608081840391015261024a565b60809060208152602860208201527f455243313135353a204552433131353552656365697665722072656a656374656040820152676420746f6b656e7360c01b60608201520190565b60009060033d116111ba57565b905060046000803e60005160e01c90565b600060443d1061028057604051600319913d83016004833e81516001600160401b03918282113d60248401111761122857818401948551938411611230573d85010160208487010111611228575061028092910160200190610315565b949350505050565b50949350505050565b60809060208152603460208201527f455243313135353a207472616e7366657220746f206e6f6e2d455243313135356040820152732932b1b2b4bb32b91034b6b83632b6b2b73a32b960611b60608201520190565b9493919092813b6112a2575b505050505050565b60006020946112c96040519788968795869463bc197c8160e01b9c8d875260048701611116565b03926001600160a01b03165af16000918161137f575b5061135757505060016112f06111ad565b6308c379a014611328575b61130b575b38808080808061129a565b60405162461bcd60e51b81528061132460048201611239565b0390fd5b6113306111cb565b8061133b57506112fb565b60405162461bcd60e51b8152908190611324906004830161026f565b6001600160e01b031916146113005760405162461bcd60e51b81528061132460048201611164565b6113a191925060203d81116113a8575b6113998183610315565b810190611101565b90386112df565b503d61138f565b156113b657565b60405162461bcd60e51b815260206004820152601d60248201527f4f6e6c7920416e79626f64792050726f626c656d2063616e2063616c6c0000006044820152606490fd5b909260a0926102809594600180861b031683526000602084015260408301526060820152816080820152019061024a565b919261028095949160a094600180871b03809216855216602084015260408301526060820152816080820152019061024a565b9390803b61146f575b5050505050565b6114979360006020946040519687958694859363f23a6e6160e01b9b8c8652600486016113fb565b03926001600160a01b03165af160009181611513575b506114eb57505060016114be6111ad565b6308c379a0146114d8575b61130b575b3880808080611468565b6114e06111cb565b8061133b57506114c9565b6001600160e01b031916146114ce5760405162461bcd60e51b81528061132460048201611164565b61152c91925060203d81116113a8576113998183610315565b90386114ad565b60405190604082018281106001600160401b03821117611575575b60405260018252602082016020368237825115611569575290565b611571610d24565b5290565b61157d6102bb565b61154e565b60405190602082018281106001600160401b038211176115a6575b60405260008252565b6115ae6102bb565b61159d565b156115ba57565b60405162461bcd60e51b8152602060048201526024808201527f455243313135353a206275726e20616d6f756e7420657863656564732062616c604482015263616e636560e01b6064820152608490fd5b6001600160a01b039485831694919391929190611629861515611017565b61163282611533565b5061163c84611533565b50600095828752602093878552816040998761166c8a8d8d209060018060a01b0316600052602052604060002090565b5461167982821015611071565b878c528b89520361169e8a8d8d209060018060a01b0316600052602052604060002090565b55858a528987528a8a206001600160a01b0384166000908152602091909152604090206116cc8982546110d0565b90558a51868152602081018990529089169033907fc3d58168c5ae7397731d063d5bbf3d657854427343f4c083240f7aacaa2d0f6290604090a43b611716575b5050505050505050565b61173c948785948a519788958694859363f23a6e6160e01b9c8d8652336004870161142c565b03925af191829185936117f1575b50506117c357505060019061175d6111ad565b6308c379a014611793575b5061177c57505b388080808080808061170c565b5162461bcd60e51b81528061132460048201611239565b61179b6111cb565b90816117a75750611768565b50825162461bcd60e51b8152908190611324906004830161026f565b6001600160e01b0319160390506117da575061176f565b5162461bcd60e51b81528061132460048201611164565b611808929350803d106113a8576113998183610315565b90388061174a565b6001600160a01b038083169390821692908385146118855761186b6020926107ae7f17307eab39ab6107e8899845ad3d59bd9653f200f220920489ca2b5937696c319560018060a01b03166000526001602052604060002090565b9015159060ff1981541660ff8316179055604051908152a3565b60405162461bcd60e51b815260206004820152602960248201527f455243313135353a2073657474696e6720617070726f76616c20737461747573604482015268103337b91039b2b63360b91b6064820152608490fd5b3d15611907573d906118ed826103ba565b916118fb6040519384610315565b82523d6000602084013e565b606090565b1561191357565b60405162461bcd60e51b815260206004820152601d60248201527f43616c6c20746f20616e79626f647950726f626c656d206661696c65640000006044820152606490fd5b610fa36000808060018060a01b03600454166040519034905af161197a6118dc565b5061190c565b610fa360008060018060a01b036004541660405136838237828136810182815203925af161197a6118dc565b602081830312610023578051906001600160401b038211610023570181601f820112156100235780516119de816103ba565b926119ec6040519485610315565b81845260208284010111610023576102809160208085019101610215565b9060018060a01b0360045416916040519060209182810191631649ecf760e31b8352602482015260248152611a3e816102d2565b6000948592839251915afa90611a526118dc565b9115611a6b5761028092935080825183010191016119ac565b9050604051908360025460019281841c93808316928315611b56575b8286108414611b425797869798611aa48789989960209181520190565b94908115611b215750600114611ac5575b5050505061028092500382610315565b60026000527f405787fa12a823e0f2b7631cc41b3ba8828b3321ca811111fa75cd3aa3bb5ace9690945091905b828510611b0b5750505061028093500138808080611ab5565b8654858501529586019587955093810193611af2565b93505050506102809491925060ff19168252151560051b0138808080611ab5565b634e487b7160e01b89526022600452602489fd5b94607f1694611a87565b908160209103126100235751610280816105b2565b60008060018060a01b0360045416604051936020850190637b7de1cd60e11b825263ffffffff60e01b169485602482015260248152611bb3816102d2565b51915afa611bbf6118dc565b9015611bd957610280915060208082518301019101611b60565b50636cdb3d1360e11b8114908115611c04575b8115611bf6575090565b6301ffc9a760e01b14919050565b6303a24d0760e21b81149150611bec565b9060008060018060a01b038060045416906040516020810191630bd1274f60e31b835280881660248301528616604482015260448152611c54816102fa565b51915afa90611c616118dc565b9115611c7c5750610280915060208082518301019101611b60565b611c9f91506107ae60ff9360018060a01b03166000526001602052604060002090565b541690565b9060008060018060a01b0380600454169082604051602081019263ceab69ff60e01b845288166024820152861515604482015260448152611ce4816102fa565b51925af1611cf06118dc565b5015611cfa575050565b610fa39133611810565b92919060008060018060a01b03968682611d41611d4f8b60045416946040519283918c8c8c6020860199634a940b5f60e11b8b526024870161142c565b03601f198101835282610315565b51925af193611d5c6118dc565b9415611d6a57505050505050565b610fa395811633148015611d82575b61068790610e25565b50610687611d903383611c15565b9050611d79565b90929192611db060018060a01b036004541633146113af565b60048111611e3457826040519485378383016040528015611e2e5780600114611e285780600214611e1a5780600314611e0657600414611def57505050565b6060810135926040820135926020830135923591a4565b5090916040820135926020830135923591a3565b5091906020830135923591a2565b503591a1565b505090a0565b60405162461bcd60e51b815260206004820152600f60248201526e546f6f206d616e7920746f7069637360881b6044820152606490fdfea2646970667358221220d814fe27a2bf0c974d7ad146c323a11ec25d4e5fcf969db0e3037e9193a6368064736f6c634300080f0033",
  "linkReferences": {},
  "deployedLinkReferences": {}
}