{
  "_format": "hh-sol-artifact-1",
  "contractName": "Problems",
  "sourceName": "contracts/Problems.sol",
  "abi": [
    {
      "inputs": [
        {
          "internalType": "address",
          "name": "problemMetadata_",
          "type": "address"
        },
        {
          "internalType": "address[]",
          "name": "verifiers_",
          "type": "address[]"
        },
        {
          "internalType": "uint256[]",
          "name": "verifiersTicks",
          "type": "uint256[]"
        },
        {
          "internalType": "uint256[]",
          "name": "verifiersBodies",
          "type": "uint256[]"
        }
      ],
      "stateMutability": "nonpayable",
      "type": "constructor"
    },
    {
      "anonymous": false,
      "inputs": [
        {
          "indexed": true,
          "internalType": "address",
          "name": "owner",
          "type": "address"
        },
        {
          "indexed": true,
          "internalType": "address",
          "name": "approved",
          "type": "address"
        },
        {
          "indexed": true,
          "internalType": "uint256",
          "name": "tokenId",
          "type": "uint256"
        }
      ],
      "name": "Approval",
      "type": "event"
    },
    {
      "anonymous": false,
      "inputs": [
        {
          "indexed": true,
          "internalType": "address",
          "name": "owner",
          "type": "address"
        },
        {
          "indexed": true,
          "internalType": "address",
          "name": "operator",
          "type": "address"
        },
        {
          "indexed": false,
          "internalType": "bool",
          "name": "approved",
          "type": "bool"
        }
      ],
      "name": "ApprovalForAll",
      "type": "event"
    },
    {
      "anonymous": false,
      "inputs": [
        {
          "indexed": true,
          "internalType": "address",
          "name": "to",
          "type": "address"
        },
        {
          "indexed": true,
          "internalType": "bool",
          "name": "success",
          "type": "bool"
        },
        {
          "indexed": false,
          "internalType": "bytes",
          "name": "returnData",
          "type": "bytes"
        },
        {
          "indexed": false,
          "internalType": "uint256",
          "name": "amount",
          "type": "uint256"
        }
      ],
      "name": "EthMoved",
      "type": "event"
    },
    {
      "anonymous": false,
      "inputs": [
        {
          "indexed": true,
          "internalType": "address",
          "name": "previousOwner",
          "type": "address"
        },
        {
          "indexed": true,
          "internalType": "address",
          "name": "newOwner",
          "type": "address"
        }
      ],
      "name": "OwnershipTransferred",
      "type": "event"
    },
    {
      "anonymous": false,
      "inputs": [
        {
          "indexed": true,
          "internalType": "address",
          "name": "from",
          "type": "address"
        },
        {
          "indexed": true,
          "internalType": "address",
          "name": "to",
          "type": "address"
        },
        {
          "indexed": true,
          "internalType": "uint256",
          "name": "tokenId",
          "type": "uint256"
        }
      ],
      "name": "Transfer",
      "type": "event"
    },
    {
      "anonymous": false,
      "inputs": [
        {
          "indexed": false,
          "internalType": "uint256",
          "name": "problemId",
          "type": "uint256"
        },
        {
          "indexed": false,
          "internalType": "uint256",
          "name": "bodyId",
          "type": "uint256"
        },
        {
          "indexed": false,
          "internalType": "uint256",
          "name": "mintedBodyIndex",
          "type": "uint256"
        },
        {
          "indexed": false,
          "internalType": "uint256",
          "name": "tick",
          "type": "uint256"
        },
        {
          "indexed": false,
          "internalType": "uint256",
          "name": "px",
          "type": "uint256"
        },
        {
          "indexed": false,
          "internalType": "uint256",
          "name": "py",
          "type": "uint256"
        },
        {
          "indexed": false,
          "internalType": "uint256",
          "name": "radius",
          "type": "uint256"
        },
        {
          "indexed": false,
          "internalType": "bytes32",
          "name": "seed",
          "type": "bytes32"
        }
      ],
      "name": "bodyAdded",
      "type": "event"
    },
    {
      "anonymous": false,
      "inputs": [
        {
          "indexed": false,
          "internalType": "uint256",
          "name": "problemId",
          "type": "uint256"
        },
        {
          "indexed": false,
          "internalType": "uint256",
          "name": "tick",
          "type": "uint256"
        },
        {
          "indexed": false,
          "internalType": "uint256",
          "name": "bodyId",
          "type": "uint256"
        },
        {
          "indexed": false,
          "internalType": "bytes32",
          "name": "seed",
          "type": "bytes32"
        }
      ],
      "name": "bodyRemoved",
      "type": "event"
    },
    {
      "anonymous": false,
      "inputs": [
        {
          "indexed": false,
          "internalType": "uint256",
          "name": "problemId",
          "type": "uint256"
        },
        {
          "indexed": false,
          "internalType": "uint256",
          "name": "day",
          "type": "uint256"
        },
        {
          "indexed": false,
          "internalType": "bytes32",
          "name": "seed",
          "type": "bytes32"
        }
      ],
      "name": "problemCreated",
      "type": "event"
    },
    {
      "inputs": [],
      "name": "MAX_BODY_COUNT",
      "outputs": [
        {
          "internalType": "uint256",
          "name": "",
          "type": "uint256"
        }
      ],
      "stateMutability": "view",
      "type": "function"
    },
    {
      "inputs": [],
      "name": "SECONDS_IN_A_DAY",
      "outputs": [
        {
          "internalType": "uint256",
          "name": "",
          "type": "uint256"
        }
      ],
      "stateMutability": "view",
      "type": "function"
    },
    {
      "inputs": [
        {
          "internalType": "address",
          "name": "recipient",
          "type": "address"
        }
      ],
      "name": "adminMint",
      "outputs": [],
      "stateMutability": "nonpayable",
      "type": "function"
    },
    {
      "inputs": [
        {
          "internalType": "address",
          "name": "to",
          "type": "address"
        },
        {
          "internalType": "uint256",
          "name": "tokenId",
          "type": "uint256"
        }
      ],
      "name": "approve",
      "outputs": [],
      "stateMutability": "nonpayable",
      "type": "function"
    },
    {
      "inputs": [
        {
          "internalType": "address",
          "name": "owner",
          "type": "address"
        }
      ],
      "name": "balanceOf",
      "outputs": [
        {
          "internalType": "uint256",
          "name": "",
          "type": "uint256"
        }
      ],
      "stateMutability": "view",
      "type": "function"
    },
    {
      "inputs": [],
      "name": "bodies",
      "outputs": [
        {
          "internalType": "address",
          "name": "",
          "type": "address"
        }
      ],
      "stateMutability": "view",
      "type": "function"
    },
    {
      "inputs": [],
      "name": "currentDay",
      "outputs": [
        {
          "internalType": "uint256",
          "name": "",
          "type": "uint256"
        }
      ],
      "stateMutability": "view",
      "type": "function"
    },
    {
      "inputs": [
        {
          "internalType": "bytes32",
          "name": "seed",
          "type": "bytes32"
        }
      ],
      "name": "genRadius",
      "outputs": [
        {
          "internalType": "uint256",
          "name": "",
          "type": "uint256"
        }
      ],
      "stateMutability": "pure",
      "type": "function"
    },
    {
      "inputs": [
        {
          "internalType": "uint256",
          "name": "tokenId",
          "type": "uint256"
        }
      ],
      "name": "getApproved",
      "outputs": [
        {
          "internalType": "address",
          "name": "",
          "type": "address"
        }
      ],
      "stateMutability": "view",
      "type": "function"
    },
    {
      "inputs": [
        {
          "internalType": "uint256",
          "name": "day",
          "type": "uint256"
        },
        {
          "internalType": "uint256",
          "name": "mintedBodiesIndex",
          "type": "uint256"
        },
        {
          "internalType": "uint256",
          "name": "bodyIndex",
          "type": "uint256"
        }
      ],
      "name": "getLevelSeed",
      "outputs": [
        {
          "internalType": "bytes32",
          "name": "",
          "type": "bytes32"
        }
      ],
      "stateMutability": "pure",
      "type": "function"
    },
    {
      "inputs": [
        {
          "internalType": "uint256",
          "name": "problemId",
          "type": "uint256"
        },
        {
          "internalType": "uint256",
          "name": "bodyId",
          "type": "uint256"
        }
      ],
      "name": "getProblemBodyData",
      "outputs": [
        {
          "components": [
            {
              "internalType": "uint256",
              "name": "bodyId",
              "type": "uint256"
            },
            {
              "internalType": "uint256",
              "name": "mintedBodyIndex",
              "type": "uint256"
            },
            {
              "internalType": "uint256",
              "name": "bodyIndex",
              "type": "uint256"
            },
            {
              "internalType": "uint256",
              "name": "px",
              "type": "uint256"
            },
            {
              "internalType": "uint256",
              "name": "py",
              "type": "uint256"
            },
            {
              "internalType": "uint256",
              "name": "vx",
              "type": "uint256"
            },
            {
              "internalType": "uint256",
              "name": "vy",
              "type": "uint256"
            },
            {
              "internalType": "uint256",
              "name": "radius",
              "type": "uint256"
            },
            {
              "internalType": "bytes32",
              "name": "seed",
              "type": "bytes32"
            }
          ],
          "internalType": "struct Problems.Body",
          "name": "",
          "type": "tuple"
        }
      ],
      "stateMutability": "view",
      "type": "function"
    },
    {
      "inputs": [
        {
          "internalType": "uint256",
          "name": "problemId",
          "type": "uint256"
        }
      ],
      "name": "getProblemBodyIds",
      "outputs": [
        {
          "internalType": "uint256[10]",
          "name": "",
          "type": "uint256[10]"
        }
      ],
      "stateMutability": "view",
      "type": "function"
    },
    {
      "inputs": [
        {
          "internalType": "uint256",
          "name": "problemId",
          "type": "uint256"
        }
      ],
      "name": "getProblemMintedBodiesIndex",
      "outputs": [
        {
          "internalType": "uint256",
          "name": "",
          "type": "uint256"
        }
      ],
      "stateMutability": "view",
      "type": "function"
    },
    {
      "inputs": [
        {
          "internalType": "uint256",
          "name": "problemId",
          "type": "uint256"
        }
      ],
      "name": "getProblemTimes",
      "outputs": [
        {
          "internalType": "uint256[10]",
          "name": "",
          "type": "uint256[10]"
        }
      ],
      "stateMutability": "view",
      "type": "function"
    },
    {
      "inputs": [
        {
          "internalType": "bytes32",
          "name": "rand",
          "type": "bytes32"
        },
        {
          "internalType": "bytes32",
          "name": "bodyIndexRand",
          "type": "bytes32"
        }
      ],
      "name": "getRandomValues",
      "outputs": [
        {
          "components": [
            {
              "internalType": "uint256",
              "name": "bodyId",
              "type": "uint256"
            },
            {
              "internalType": "uint256",
              "name": "mintedBodyIndex",
              "type": "uint256"
            },
            {
              "internalType": "uint256",
              "name": "bodyIndex",
              "type": "uint256"
            },
            {
              "internalType": "uint256",
              "name": "px",
              "type": "uint256"
            },
            {
              "internalType": "uint256",
              "name": "py",
              "type": "uint256"
            },
            {
              "internalType": "uint256",
              "name": "vx",
              "type": "uint256"
            },
            {
              "internalType": "uint256",
              "name": "vy",
              "type": "uint256"
            },
            {
              "internalType": "uint256",
              "name": "radius",
              "type": "uint256"
            },
            {
              "internalType": "bytes32",
              "name": "seed",
              "type": "bytes32"
            }
          ],
          "internalType": "struct Problems.Body",
          "name": "",
          "type": "tuple"
        }
      ],
      "stateMutability": "pure",
      "type": "function"
    },
    {
      "inputs": [
        {
          "internalType": "address",
          "name": "owner",
          "type": "address"
        },
        {
          "internalType": "address",
          "name": "operator",
          "type": "address"
        }
      ],
      "name": "isApprovedForAll",
      "outputs": [
        {
          "internalType": "bool",
          "name": "",
          "type": "bool"
        }
      ],
      "stateMutability": "view",
      "type": "function"
    },
    {
      "inputs": [
        {
          "internalType": "uint256",
          "name": "problemId",
          "type": "uint256"
        },
        {
          "internalType": "uint256",
          "name": "time",
          "type": "uint256"
        }
      ],
      "name": "levelUp",
      "outputs": [],
      "stateMutability": "nonpayable",
      "type": "function"
    },
    {
      "inputs": [],
      "name": "maxVector",
      "outputs": [
        {
          "internalType": "uint256",
          "name": "",
          "type": "uint256"
        }
      ],
      "stateMutability": "view",
      "type": "function"
    },
    {
      "inputs": [],
      "name": "mint",
      "outputs": [],
      "stateMutability": "payable",
      "type": "function"
    },
    {
      "inputs": [
        {
          "internalType": "address",
          "name": "recipient",
          "type": "address"
        },
        {
          "internalType": "uint256",
          "name": "quantity",
          "type": "uint256"
        }
      ],
      "name": "mint",
      "outputs": [],
      "stateMutability": "payable",
      "type": "function"
    },
    {
      "inputs": [
        {
          "internalType": "address",
          "name": "recipient",
          "type": "address"
        }
      ],
      "name": "mint",
      "outputs": [],
      "stateMutability": "payable",
      "type": "function"
    },
    {
      "inputs": [],
      "name": "name",
      "outputs": [
        {
          "internalType": "string",
          "name": "",
          "type": "string"
        }
      ],
      "stateMutability": "view",
      "type": "function"
    },
    {
      "inputs": [],
      "name": "owner",
      "outputs": [
        {
          "internalType": "address",
          "name": "",
          "type": "address"
        }
      ],
      "stateMutability": "view",
      "type": "function"
    },
    {
      "inputs": [
        {
          "internalType": "uint256",
          "name": "tokenId",
          "type": "uint256"
        }
      ],
      "name": "ownerOf",
      "outputs": [
        {
          "internalType": "address",
          "name": "",
          "type": "address"
        }
      ],
      "stateMutability": "view",
      "type": "function"
    },
    {
      "inputs": [],
      "name": "paused",
      "outputs": [
        {
          "internalType": "bool",
          "name": "",
          "type": "bool"
        }
      ],
      "stateMutability": "view",
      "type": "function"
    },
    {
      "inputs": [],
      "name": "price",
      "outputs": [
        {
          "internalType": "uint256",
          "name": "",
          "type": "uint256"
        }
      ],
      "stateMutability": "view",
      "type": "function"
    },
    {
      "inputs": [],
      "name": "problemMetadata",
      "outputs": [
        {
          "internalType": "address",
          "name": "",
          "type": "address"
        }
      ],
      "stateMutability": "view",
      "type": "function"
    },
    {
      "inputs": [],
      "name": "problemSupply",
      "outputs": [
        {
          "internalType": "uint256",
          "name": "",
          "type": "uint256"
        }
      ],
      "stateMutability": "view",
      "type": "function"
    },
    {
      "inputs": [
        {
          "internalType": "uint256",
          "name": "",
          "type": "uint256"
        }
      ],
      "name": "problems",
      "outputs": [
        {
          "internalType": "bool",
          "name": "solved",
          "type": "bool"
        },
        {
          "internalType": "bytes32",
          "name": "seed",
          "type": "bytes32"
        },
        {
          "internalType": "uint256",
          "name": "day",
          "type": "uint256"
        },
        {
          "internalType": "uint256",
          "name": "bodyCount",
          "type": "uint256"
        },
        {
          "internalType": "uint256",
          "name": "mintedBodiesIndex",
          "type": "uint256"
        },
        {
          "internalType": "uint256",
          "name": "tickCount",
          "type": "uint256"
        }
      ],
      "stateMutability": "view",
      "type": "function"
    },
    {
      "inputs": [],
      "name": "proceedRecipient",
      "outputs": [
        {
          "internalType": "address",
          "name": "",
          "type": "address"
        }
      ],
      "stateMutability": "view",
      "type": "function"
    },
    {
      "inputs": [
        {
          "internalType": "address payable",
          "name": "_to",
          "type": "address"
        }
      ],
      "name": "recoverUnsuccessfulMintPayment",
      "outputs": [],
      "stateMutability": "nonpayable",
      "type": "function"
    },
    {
      "inputs": [],
      "name": "renounceOwnership",
      "outputs": [],
      "stateMutability": "nonpayable",
      "type": "function"
    },
    {
      "inputs": [
        {
          "internalType": "uint256",
          "name": "problemId",
          "type": "uint256"
        }
      ],
      "name": "restoreValues",
      "outputs": [],
      "stateMutability": "nonpayable",
      "type": "function"
    },
    {
      "inputs": [
        {
          "internalType": "address",
          "name": "from",
          "type": "address"
        },
        {
          "internalType": "address",
          "name": "to",
          "type": "address"
        },
        {
          "internalType": "uint256",
          "name": "tokenId",
          "type": "uint256"
        }
      ],
      "name": "safeTransferFrom",
      "outputs": [],
      "stateMutability": "nonpayable",
      "type": "function"
    },
    {
      "inputs": [
        {
          "internalType": "address",
          "name": "from",
          "type": "address"
        },
        {
          "internalType": "address",
          "name": "to",
          "type": "address"
        },
        {
          "internalType": "uint256",
          "name": "tokenId",
          "type": "uint256"
        },
        {
          "internalType": "bytes",
          "name": "data",
          "type": "bytes"
        }
      ],
      "name": "safeTransferFrom",
      "outputs": [],
      "stateMutability": "nonpayable",
      "type": "function"
    },
    {
      "inputs": [],
      "name": "scalingFactor",
      "outputs": [
        {
          "internalType": "uint256",
          "name": "",
          "type": "uint256"
        }
      ],
      "stateMutability": "view",
      "type": "function"
    },
    {
      "inputs": [
        {
          "internalType": "address",
          "name": "operator",
          "type": "address"
        },
        {
          "internalType": "bool",
          "name": "approved",
          "type": "bool"
        }
      ],
      "name": "setApprovalForAll",
      "outputs": [],
      "stateMutability": "nonpayable",
      "type": "function"
    },
    {
      "inputs": [],
      "name": "solver",
      "outputs": [
        {
          "internalType": "address",
          "name": "",
          "type": "address"
        }
      ],
      "stateMutability": "view",
      "type": "function"
    },
    {
      "inputs": [],
      "name": "startDate",
      "outputs": [
        {
          "internalType": "uint256",
          "name": "",
          "type": "uint256"
        }
      ],
      "stateMutability": "view",
      "type": "function"
    },
    {
      "inputs": [],
      "name": "startingRadius",
      "outputs": [
        {
          "internalType": "uint256",
          "name": "",
          "type": "uint256"
        }
      ],
      "stateMutability": "view",
      "type": "function"
    },
    {
      "inputs": [
        {
          "internalType": "bytes4",
          "name": "interfaceId",
          "type": "bytes4"
        }
      ],
      "name": "supportsInterface",
      "outputs": [
        {
          "internalType": "bool",
          "name": "",
          "type": "bool"
        }
      ],
      "stateMutability": "view",
      "type": "function"
    },
    {
      "inputs": [],
      "name": "symbol",
      "outputs": [
        {
          "internalType": "string",
          "name": "",
          "type": "string"
        }
      ],
      "stateMutability": "view",
      "type": "function"
    },
    {
      "inputs": [
        {
          "internalType": "uint256",
          "name": "id",
          "type": "uint256"
        }
      ],
      "name": "tokenURI",
      "outputs": [
        {
          "internalType": "string",
          "name": "",
          "type": "string"
        }
      ],
      "stateMutability": "view",
      "type": "function"
    },
    {
      "inputs": [
        {
          "internalType": "address",
          "name": "from",
          "type": "address"
        },
        {
          "internalType": "address",
          "name": "to",
          "type": "address"
        },
        {
          "internalType": "uint256",
          "name": "tokenId",
          "type": "uint256"
        }
      ],
      "name": "transferFrom",
      "outputs": [],
      "stateMutability": "nonpayable",
      "type": "function"
    },
    {
      "inputs": [
        {
          "internalType": "address",
          "name": "newOwner",
          "type": "address"
        }
      ],
      "name": "transferOwnership",
      "outputs": [],
      "stateMutability": "nonpayable",
      "type": "function"
    },
    {
      "inputs": [
        {
          "internalType": "address",
          "name": "bodies_",
          "type": "address"
        }
      ],
      "name": "updateBodiesAddress",
      "outputs": [],
      "stateMutability": "nonpayable",
      "type": "function"
    },
    {
      "inputs": [
        {
          "internalType": "bool",
          "name": "paused_",
          "type": "bool"
        }
      ],
      "name": "updatePaused",
      "outputs": [],
      "stateMutability": "nonpayable",
      "type": "function"
    },
    {
      "inputs": [
        {
          "internalType": "uint256",
          "name": "price_",
          "type": "uint256"
        }
      ],
      "name": "updatePrice",
      "outputs": [],
      "stateMutability": "nonpayable",
      "type": "function"
    },
    {
      "inputs": [
        {
          "internalType": "uint256",
          "name": "problemId",
          "type": "uint256"
        },
        {
          "internalType": "uint256",
          "name": "bodyId",
          "type": "uint256"
        },
        {
          "components": [
            {
              "internalType": "uint256",
              "name": "bodyId",
              "type": "uint256"
            },
            {
              "internalType": "uint256",
              "name": "mintedBodyIndex",
              "type": "uint256"
            },
            {
              "internalType": "uint256",
              "name": "bodyIndex",
              "type": "uint256"
            },
            {
              "internalType": "uint256",
              "name": "px",
              "type": "uint256"
            },
            {
              "internalType": "uint256",
              "name": "py",
              "type": "uint256"
            },
            {
              "internalType": "uint256",
              "name": "vx",
              "type": "uint256"
            },
            {
              "internalType": "uint256",
              "name": "vy",
              "type": "uint256"
            },
            {
              "internalType": "uint256",
              "name": "radius",
              "type": "uint256"
            },
            {
              "internalType": "bytes32",
              "name": "seed",
              "type": "bytes32"
            }
          ],
          "internalType": "struct Problems.Body",
          "name": "body",
          "type": "tuple"
        }
      ],
      "name": "updateProblemBody",
      "outputs": [],
      "stateMutability": "nonpayable",
      "type": "function"
    },
    {
      "inputs": [
        {
          "internalType": "uint256",
          "name": "problemId",
          "type": "uint256"
        },
        {
          "internalType": "uint256",
          "name": "bodyCount",
          "type": "uint256"
        }
      ],
      "name": "updateProblemBodyCount",
      "outputs": [],
      "stateMutability": "nonpayable",
      "type": "function"
    },
    {
      "inputs": [
        {
          "internalType": "uint256",
          "name": "problemId",
          "type": "uint256"
        },
        {
          "internalType": "uint256[10]",
          "name": "bodyIds",
          "type": "uint256[10]"
        }
      ],
      "name": "updateProblemBodyIds",
      "outputs": [],
      "stateMutability": "nonpayable",
      "type": "function"
    },
    {
      "inputs": [
        {
          "internalType": "address",
          "name": "problemMetadata_",
          "type": "address"
        }
      ],
      "name": "updateProblemMetadataAddress",
      "outputs": [],
      "stateMutability": "nonpayable",
      "type": "function"
    },
    {
      "inputs": [
        {
          "internalType": "uint256",
          "name": "problemId",
          "type": "uint256"
        },
        {
          "internalType": "uint256",
          "name": "tickCount",
          "type": "uint256"
        }
      ],
      "name": "updateProblemTickCount",
      "outputs": [],
      "stateMutability": "nonpayable",
      "type": "function"
    },
    {
      "inputs": [
        {
          "internalType": "address",
          "name": "proceedRecipient_",
          "type": "address"
        }
      ],
      "name": "updateProceedRecipientAddress",
      "outputs": [],
      "stateMutability": "nonpayable",
      "type": "function"
    },
    {
      "inputs": [
        {
          "internalType": "address",
          "name": "solver_",
          "type": "address"
        }
      ],
      "name": "updateSolverAddress",
      "outputs": [],
      "stateMutability": "nonpayable",
      "type": "function"
    },
    {
      "inputs": [
        {
          "internalType": "uint256",
          "name": "startDate_",
          "type": "uint256"
        }
      ],
      "name": "updateStartDate",
      "outputs": [],
      "stateMutability": "nonpayable",
      "type": "function"
    },
    {
      "inputs": [
        {
          "internalType": "address",
          "name": "verifier_",
          "type": "address"
        },
        {
          "internalType": "uint256",
          "name": "verifierBodies",
          "type": "uint256"
        },
        {
          "internalType": "uint256",
          "name": "verifierTicks",
          "type": "uint256"
        }
      ],
      "name": "updateVerifier",
      "outputs": [],
      "stateMutability": "nonpayable",
      "type": "function"
    },
    {
      "inputs": [
        {
          "internalType": "uint256",
          "name": "",
          "type": "uint256"
        },
        {
          "internalType": "uint256",
          "name": "",
          "type": "uint256"
        }
      ],
      "name": "verifiers",
      "outputs": [
        {
          "internalType": "address",
          "name": "",
          "type": "address"
        }
      ],
      "stateMutability": "view",
      "type": "function"
    },
    {
      "inputs": [],
      "name": "windowWidth",
      "outputs": [
        {
          "internalType": "uint256",
          "name": "",
          "type": "uint256"
        }
      ],
      "stateMutability": "view",
      "type": "function"
    },
    {
      "stateMutability": "payable",
      "type": "receive"
    }
  ],
  "bytecode": "0x6040608081523462000550576200344c90813803806200001f8162000590565b938439820160808382031262000550576200003a83620005b6565b92602091828201519260018060401b03938481116200055057830191601f9381858501121562000550578351936200007c6200007686620005cb565b62000590565b94848087838152019160051b83010191848311620005505785809101915b83831062000555575050505086810151868111620005505782620000c0918301620005e3565b9160608201518781116200055057620000da9201620005e3565b91620000e562000570565b95600f908188526e416e79626f64792050726f626c656d60881b838901526200010d62000570565b966003885262414e5960e81b848901528851978289116200053a5760009889549a60019b8c81811c911680156200052f575b888210146200051b57908185849311620004c8575b5087908583116001146200045b578c926200044f575b5050600019600383901b1c1916908b1b1789555b80519283116200043b5789548a81811c9116801562000430575b868210146200041c5790818385949311620003c7575b50859183116001146200036357899262000357575b5050600019600383901b1c191690881b1787555b6006549860018060a01b03199533878c161760065589519a60018060a01b039283918d7f8be0079c531659141344cd1fd0a4f28419497f9722a3daafe3b4186f6b6457e08c8533941692a389600755662386f26fc10000600d55169a8b15620003155750889a3388600c541617600c5587600b541617600b55879a5b62000268575b8951612da09081620006ac8239f35b80518b10156200030f576200028b620002828c8762000640565b5115156200066b565b620002a6826200029c8d8462000640565b511615156200066b565b81620002b38c8362000640565b5116620002c18c8862000640565b5189528385528a8920620002d68d8862000640565b518a5285528a892090888254161790556000198b14620002fb57998801998862000253565b634e487b7160e01b88526011600452602488fd5b62000259565b62461bcd60e51b815260048101859052601760248201527f496e76616c69642070726f626c656d4d657461646174610000000000000000006044820152606490fd5b015190503880620001c3565b8a8a52858a208b94509190601f1984168b5b88828210620003b0575050841162000396575b505050811b018755620001d7565b015160001960f88460031b161c1916905538808062000388565b8385015186558e9790950194938401930162000375565b909192508a8a52858a208380860160051c82019288871062000412575b9186958e929594930160051c01915b82811062000403575050620001ae565b8c81558695508d9101620003f3565b92508192620003e4565b634e487b7160e01b8a52602260045260248afd5b90607f169062000198565b634e487b7160e01b89526041600452602489fd5b0151905038806200016a565b8c8052888d208e94509190601f1984168e5b8b828210620004a857505084116200048e575b505050811b0189556200017e565b015160001960f88460031b161c1916905538808062000480565b91929395968291958786015181550195019301908f95949392916200046d565b9091508b8052878c208580850160051c8201928a861062000511575b918f91869594930160051c01915b8281106200050257505062000154565b8e81558594508f9101620004f2565b92508192620004e4565b634e487b7160e01b8c52602260045260248cfd5b90607f16906200013f565b634e487b7160e01b600052604160045260246000fd5b600080fd5b81906200056284620005b6565b81520191019085906200009a565b60408051919082016001600160401b038111838210176200053a57604052565b6040519190601f01601f191682016001600160401b038111838210176200053a57604052565b51906001600160a01b03821682036200055057565b6001600160401b0381116200053a5760051b60200190565b9080601f830112156200055057815190620006026200007683620005cb565b9182938184526020808095019260051b82010192831162000550578301905b82821062000630575050505090565b8151815290830190830162000621565b8051821015620006555760209160051b010190565b634e487b7160e01b600052603260045260246000fd5b156200067357565b60405162461bcd60e51b815260206004820152601060248201526f24b73b30b634b2103b32b934b334b2b960811b6044820152606490fdfe60406080815260049081361015610028575b5050361561001e57600080fd5b6100266125aa565b005b600091823560e01c908163010fdfd514611df357816301ffc9a714611d8557816304b24e8514611d4e57816305ee7fa014611d0d57816306fdde0314611c42578163081812fc14611c2257816308cdc2a814611bdc578163095ea7b314611a6d5781630b27ce3f14611a445781630b97bc8614611a255781630bdaaaca14611a055781631249c58b146119f057816318d94793146119ce57816320a286d0146119af57816323b872dd146119845781632b057afa1461192c578163306da04f1461190357816334e5e492146118da5781633ef2570b146118b2578163408472841461184b57816340c10f191461169f57816342842e0e1461165057816343569ffb14611619578163497f0094146115ea57816349a7a26d146115c15781634b9862d9146115a55781635226dc931461118f57816353e52f09146111735781635c9302c91461114f5781635c975abb146111285781636282eff5146110e75781636352211e146110b65781636a62784214610f465781636cd9e29e14610db957816370a0823114610d23578163715018a614610cc35781637696d9ff14610c82578163872d7e4814610c4b5781638d6cc56d14610c295781638da5cb5b14610c00578163934317b114610bd757816395d89b4114610ac15781639769dc0e14610a50578163a035b1fe14610a31578163a22cb46514610961578163b88d4fde146108d5578163b9737437146108b9578163c09fd8ef14610845578163c31f5d6a146107aa578163c87b56dd146106ba578163dbfbb02e14610642578163de4318fc146105a3578163e985e9c514610555578163e9d903b114610442578163eba4f366146103df578163ed3437f8146103c2578163f2fde38b146102f757508063f81c8ec3146102da5763f9cfa06f0361001157346102d657816003193601126102d65760209051620151808152f35b5080fd5b50346102d657816003193601126102d65760209051620f42408152f35b9050346103be5760203660031901126103be57610312611e34565b61031a61207a565b6001600160a01b0390811691821561036c575060065492826001600160601b0360a01b8516176006555192167f8be0079c531659141344cd1fd0a4f28419497f9722a3daafe3b4186f6b6457e08484a3f35b608490602085519162461bcd60e51b8352820152602660248201527f4f776e61626c653a206e6577206f776e657220697320746865207a65726f206160448201526564647265737360d01b6064820152fd5b8280fd5b5050346102d657816003193601126102d657602090516103e88152f35b919050346103be5760203660031901126103be578060c09383358152600e6020522060ff81541692600182015492600283015490601a600385015493850154940154948151961515875260208701528501526060840152608083015260a0820152f35b9050346103be576101603660031901126103be57610120908160431936011261055157825191820182811067ffffffffffffffff82111761053e5760089185918552604435845260208401906064358252858501906084358252606086019060a43582526080870160c435815260a088019260e435845260c089019461010435865260e08a019661012435885260058c6101008d019a610144358c526104f360018060a01b03600a54163314612d07565b87358152600e60205220018d60243590526020528b8d209a518b555160018b01555160028a015551600389015551908701555160058601555160068501555160078401555191015551f35b634e487b7160e01b855260418252602485fd5b8380fd5b5050346102d657806003193601126102d65760ff81602093610575611e34565b61057d611e4f565b6001600160a01b0391821683526005875283832091168252855220549151911615158152f35b9050346103be576101603660031901126103be5736604312156103be5781516105cb81611fcb565b6101648136821161063e576024905b82821061062e57505050600a916105fb60018060a01b038454163314612d07565b3584526020600e815260068486200185925b84841061061957868651f35b6001838282935185550192019301929061060d565b81358152602091820191016105da565b8580fd5b905082346106b757602091826003193601126102d657610140845161066681611fcb565b369037358152600e8252601083822001835192839192915b600a83106106a25761069e858761069482611fcb565b5191829182611f0a565b0390f35b6001828192865481520194019201919261067e565b80fd5b919050346103be576020918260031936011261055157600b5482516351a35b5560e01b81528235928101929092528490829060249082906001600160a01b03165afa93841561079f57809461071f575b505061069e9051928284938452830190611eb0565b909193503d8082843e610732818461203c565b82019183818403126102d65780519067ffffffffffffffff82116103be570182601f820112156102d6578051916107688361205e565b936107758751958661203c565b8385528584840101116106b75750829161079791858061069e96019101611e7b565b92903861070a565b8251903d90823e3d90fd5b919050346103be5760088161069e946107c236611e65565b906107cb612c15565b508252600e602052600583832001908252602052208251936107ec85611f98565b8154855260018201546020860152600282015484860152600382015460608601528101546080850152600581015460a0850152600681015460c0850152600781015460e085015201546101008301525191829182611f39565b9050346103be5760203660031901126103be57356001600160a01b038116908190036103be5761087361207a565b4790600080516020612d4b8339815191526108aa858080875187875af161089861245a565b90865192839288845288840190611eb0565b9560208301521515940390a351f35b5050346102d657816003193601126102d6576020905160038152f35b9050346103be5760803660031901126103be576108f0611e34565b906108f9611e4f565b916064359167ffffffffffffffff831161063e573660238401121561063e5782013592856109268561205e565b936109338751958661203c565b85855236602487830101116102d6578561095e966024602093018388013785010152604435916121e4565b51f35b9050346103be57816003193601126103be5761097b611e34565b60243590811515809203610a2d576001600160a01b0316913383146109ea5750338452600560205282842082855260205282842060ff1981541660ff831617905582519081527f17307eab39ab6107e8899845ad3d59bd9653f200f220920489ca2b5937696c3160203392a351f35b606490602085519162461bcd60e51b8352820152601960248201527f4552433732313a20617070726f766520746f2063616c6c6572000000000000006044820152fd5b8480fd5b5050346102d657816003193601126102d657602090600d549051908152f35b5050346102d65760203660031901126102d65761095e610a6e611e34565b600a54610ab4906001600160a01b0390610a8b90821615156126ec565b610a9a816009541615156126ec565b610aa981600b541615156126ec565b600c541615156126ec565b610abc61207a565b612784565b8284346106b757806003193601126106b7578151918160019283549384811c91818616958615610bcd575b6020968785108114610bba578899509688969785829a529182600014610b93575050600114610b38575b50505061069e9291610b2991038561203c565b51928284938452830190611eb0565b91908693508083527fb10e2d527612073b26eecdfd717e6a320cf44b4afac2b0732d9fcbe2b7fa0cf65b828410610b7b5750505082010181610b2961069e610b16565b8054848a018601528895508794909301928101610b62565b60ff19168782015293151560051b86019093019350849250610b29915061069e9050610b16565b634e487b7160e01b835260228a52602483fd5b92607f1692610aec565b5050346102d657816003193601126102d657600b5490516001600160a01b039091168152602090f35b5050346102d657816003193601126102d65760065490516001600160a01b039091168152602090f35b9050346103be5760203660031901126103be57610c4461207a565b35600d5551f35b5050346102d657610c5b36611e65565b90610c7160018060a01b03600a54163314612d07565b8352600e6020526003828420015551f35b5050346102d65760203660031901126102d657610c9d611e34565b610ca561207a565b60018060a01b03166001600160601b0360a01b600a541617600a5551f35b5050346102d657816003193601126102d657610cdd61207a565b600680546001600160a01b0319811690915590519082906001600160a01b03167f8be0079c531659141344cd1fd0a4f28419497f9722a3daafe3b4186f6b6457e08284a3f35b839150346102d65760203660031901126102d6576001600160a01b03610d47611e34565b16908115610d645760208480858581526003845220549051908152f35b608490602085519162461bcd60e51b8352820152602960248201527f4552433732313a2061646472657373207a65726f206973206e6f7420612076616044820152683634b21037bbb732b960b91b6064820152fd5b9050346103be576020908160031936011261055157803590610de660018060a01b03600a54163314612d07565b818552600e9283815260038080878920015414600014610f1b5780945b875b868110610e1157888851f35b610f1690868a52828552838a60e0888a8d600690610e33888383892001612bab565b905490881b1c958381528a8d528c610e8a8c6002610e5d8d8288882001548b898920015490612b82565b918886528452858520015485518481019182528d87820152868152610e8181611fe8565b51902090612c5a565b9560608701518684528d835260059a8b868620018b8652845285852001556080870151918684528d81528a85852001908a85525283832001558c8b60a087015191868452528d8984842001908984525288838320015560c08501519381528a8d5287828220018782528d52200155015191898d528588528b8d2001908c52865260078a8c20015561275f565b610e05565b80868820015460018110610f33576000190194610e03565b634e487b7160e01b885260118452602488fd5b905060203660031901126103be57610f5c611e34565b600a5490916001600160a01b03918216151590610f78826126ec565b610fbd8360095416151592610f8c846126ec565b610fb885600b54161515610f9f816126ec565b610fb887600c541696610fb888151595610fb8876126ec565b6126ec565b610fcf60ff60065460a01c161561272a565b600754421061108557600d54340361105257508480809286519034905af190600080516020612d4b83398151915261101f61100861245a565b92600c541692865191829188835288830190611eb0565b943460208301521515940390a3825b6001811061103b57505051f35b61104d9061104883612784565b61275f565b61102e565b606490602086519162461bcd60e51b8352820152600d60248201526c496e76616c696420707269636560981b6044820152fd5b606490602086519162461bcd60e51b8352820152600b60248201526a139bdd081cdd185c9d195960aa1b6044820152fd5b8284346106b75760203660031901126106b757506110d66020923561211e565b90516001600160a01b039091168152f35b5050346102d65760203660031901126102d657611102611e34565b61110a61207a565b60018060a01b03166001600160601b0360a01b600c541617600c5551f35b5050346102d657816003193601126102d65760209060ff60065460a01c1690519015158152f35b5050346102d657816003193601126102d65760209061116c612582565b9051908152f35b5050346102d657816003193601126102d6576020905160028152f35b9050346103be5761119f36611e65565b9060018060a01b036111b681600a54163314612d07565b8186526003602093600e85526111f682888a200154916111db8360108b8d2001612bab565b90919082549060031b600019811b9283911b16911916179055565b036112e257818652600e8352848620805460ff19166001179055855b6003811061122257505050505051f35b828752600e8452611238816006888a2001612bab565b90549060031b1c8783600954169161124f8661211e565b92803b156103be578951637fd9d57b60e01b81526001600160a01b03909416848a01908152602081019290925260408201879052839182908490829060600103925af180156112d8576112ac575b506112a79061275f565b611212565b67ffffffffffffffff81116112c55786526112a761129d565b634e487b7160e01b885260418652602488fd5b87513d8a823e3d90fd5b9190926112f760ff60065460a01c161561272a565b838652600e825280858720015492600384101561156457858461135992878a61131f8261211e565b92600954169285519687958694859363d395cb1360e01b85528b8501604091949392606082019560018060a01b0316825260208201520152565b03925af193841561155a5787918895611529575b50858852600e845286882060030154908789206002015482858a8c20015461139492612b82565b878a52600e8652888a20600201548951878101918252848b8201528a81526113bb81611fe8565b5190206113c791612c5a565b9261010084019487865281855281878601948486528c8c808901918383528d8152600e8c528181206005018582528c52209688518855516001880155516002870155606087019586516003820155608088019788518583015560a0810151600583015560c0810151600683015560e00198895160078301555190600801558a8d52600e89528b8d206006019061145c91612bab565b611479929082549060031b600019811b9283911b16911916179055565b888b52600e8752898b2060030180546114919061275f565b9055888b52600e8752898b20810180549091600119821161151657506001019055878a52600e8652888a20601a0154925193519451895198895295880152868801526060860152608085015260a084015260c083015260e08201527f26c34af247e1ccf098f0cc4e380568ece925088468fc831769e1f757fa3ea02a9061010090a151f35b634e487b7160e01b8d526011905260248cfd5b90945061154c9150863d8811611553575b611544818361203c565b81019061276e565b933861136d565b503d61153a565b86513d89823e3d90fd5b508160649286519262461bcd60e51b845283015260248201527f50726f626c656d20616c7265616479206d696e74656420313020626f646965736044820152fd5b5050346102d657816003193601126102d65760209051600a8152f35b5050346102d657816003193601126102d657600a5490516001600160a01b039091168152602090f35b8284346106b757816003193601126106b7575061160e61069e926024359035612c5a565b905191829182611f39565b5050346102d65760209161162c36611e65565b908252600f845282822090825283528190205490516001600160a01b039091168152f35b8383346102d65761166036611ed5565b908351926020840184811067ffffffffffffffff82111761168c578561095e96979850528684526121e4565b634e487b7160e01b875260418852602487fd5b9050816003193601126103be576116b4611e34565b600a54602435926001600160a01b03916116d190831615156126ec565b6116e0826009541615156126ec565b6116ef82600b541615156126ec565b81600c5416906117008215156126ec565b600585116118205761171a60ff60065460a01c161561272a565b60075442106117ef57600d5485600019048111861515166117dc57850234036117a957508580809287519034905af190600080516020612d4b83398151915261177b61176461245a565b92600c541692875191829189835289830190611eb0565b943460208301521515940390a3835b8281106117975750505051f35b6117a49061104883612784565b61178a565b606490602087519162461bcd60e51b8352820152600d60248201526c496e76616c696420707269636560981b6044820152fd5b634e487b7160e01b885260118252602488fd5b606490602087519162461bcd60e51b8352820152600b60248201526a139bdd081cdd185c9d195960aa1b6044820152fd5b606490602087519162461bcd60e51b835282015260056024820152644d6178203560d81b6044820152fd5b905082346106b757602091826003193601126102d657610140845161186f81611fcb565b369037358152600e8252600683822001835192839192915b600a831061189d5761069e858761069482611fcb565b60018281928654815201940192019192611887565b8284346106b75760603660031901126106b7575061116c602092604435906024359035612b82565b9050346103be5760203660031901126103be578160209382358152600e85522001549051908152f35b5050346102d657816003193601126102d65760095490516001600160a01b039091168152602090f35b5050346102d65760603660031901126102d657611947611e34565b61194f61207a565b6024358352600f60205281832060443584526020528183209060018060a01b03166001600160601b0360a01b82541617905551f35b5050346102d65761095e61199736611ed5565b916119aa6119a5843361227f565b612182565b612347565b5050346102d657816003193601126102d6576020906008549051908152f35b9050346103be5760203660031901126103be576119e961207a565b3560075551f35b5050816003193601126102d65761095e6125aa565b8284346106b75760203660031901126106b7575061116c60209235612bd1565b5050346102d657816003193601126102d6576020906007549051908152f35b5050346102d657816003193601126102d657600c5490516001600160a01b039091168152602090f35b9050346103be57816003193601126103be57611a87611e34565b602435916001600160a01b03908180611a9f8661211e565b16931692808414611b8f57803314908115611b70575b5015611b075783865260205283852080546001600160a01b03191683179055611add8361211e565b169251927f8c5be1e5ebec7d5bd14f71427d1e84f3dd0314c0f7b2291e5b200ac8c7c3b9258585a4f35b608490602086519162461bcd60e51b8352820152603d60248201527f4552433732313a20617070726f76652063616c6c6572206973206e6f7420746f60448201527f6b656e206f776e6572206f7220617070726f76656420666f7220616c6c0000006064820152fd5b90508652600560205284862033875260205260ff858720541638611ab5565b855162461bcd60e51b8152602081840152602160248201527f4552433732313a20617070726f76616c20746f2063757272656e74206f776e656044820152603960f91b6064820152608490fd5b9050346103be5760203660031901126103be57358015158091036103be57611c0261207a565b6006805460ff60a01b191660a09290921b60ff60a01b1691909117905551f35b8284346106b75760203660031901126106b757506110d660209235612144565b8284346106b757806003193601126106b75781519181825492600184811c91818616958615611d03575b6020968785108114610bba578899509688969785829a529182600014610b93575050600114611ca85750505061069e9291610b2991038561203c565b91908693508280527f290decd9548b62a8d60345a988386fc84ba6bc95484008f6362f93160ef3e5635b828410611ceb5750505082010181610b2961069e610b16565b8054848a018601528895508794909301928101611cd2565b92607f1692611c6c565b5050346102d65760203660031901126102d657611d28611e34565b611d3061207a565b60018060a01b03166001600160601b0360a01b600b541617600b5551f35b5050346102d657611d5e36611e65565b90611d7460018060a01b03600a54163314612d07565b8352600e602052601a828420015551f35b9050346103be5760203660031901126103be57359063ffffffff60e01b82168092036103be57602092506380ac58cd60e01b8214918215611de2575b8215611dd1575b50519015158152f35b6301ffc9a760e01b14915038611dc8565b635b5e139f60e01b81149250611dc1565b5050346102d65760203660031901126102d657611e0e611e34565b611e1661207a565b60018060a01b03166001600160601b0360a01b600954161760095551f35b600435906001600160a01b0382168203611e4a57565b600080fd5b602435906001600160a01b0382168203611e4a57565b6040906003190112611e4a576004359060243590565b918091926000905b828210611e9b575011611e94575050565b6000910152565b91508060209183015181860152018291611e83565b90602091611ec981518092818552858086019101611e7b565b601f01601f1916010190565b6060906003190112611e4a576001600160a01b03906004358281168103611e4a57916024359081168103611e4a579060443590565b610140810192916000915b600a8310611f2257505050565b600190825181526020809101920192019190611f15565b919091610120810192805182526020810151602083015260408101516040830152606081015160608301526080810151608083015260a081015160a083015260c081015160c083015260e081015160e083015261010080910151910152565b610120810190811067ffffffffffffffff821117611fb557604052565b634e487b7160e01b600052604160045260246000fd5b610140810190811067ffffffffffffffff821117611fb557604052565b6060810190811067ffffffffffffffff821117611fb557604052565b6080810190811067ffffffffffffffff821117611fb557604052565b6040810190811067ffffffffffffffff821117611fb557604052565b90601f8019910116810190811067ffffffffffffffff821117611fb557604052565b67ffffffffffffffff8111611fb557601f01601f191660200190565b6006546001600160a01b0316330361208e57565b606460405162461bcd60e51b815260206004820152602060248201527f4f776e61626c653a2063616c6c6572206973206e6f7420746865206f776e65726044820152fd5b156120d957565b60405162461bcd60e51b815260206004820152601860248201527f4552433732313a20696e76616c696420746f6b656e20494400000000000000006044820152606490fd5b6000908152600260205260409020546001600160a01b03166121418115156120d2565b90565b600081815260026020526040902054612167906001600160a01b031615156120d2565b6000908152600460205260409020546001600160a01b031690565b1561218957565b60405162461bcd60e51b815260206004820152602d60248201527f4552433732313a2063616c6c6572206973206e6f7420746f6b656e206f776e6560448201526c1c881bdc88185c1c1c9bdd9959609a1b6064820152608490fd5b906122089392916121f86119a5843361227f565b612203838383612347565b61248a565b1561220f57565b60405162461bcd60e51b8152806122286004820161222c565b0390fd5b60809060208152603260208201527f4552433732313a207472616e7366657220746f206e6f6e20455243373231526560408201527131b2b4bb32b91034b6b83632b6b2b73a32b960711b60608201520190565b906001600160a01b0380806122938461211e565b169316918383149384156122c6575b5083156122b0575b50505090565b6122bc91929350612144565b16143880806122aa565b909350600052600560205260406000208260005260205260ff6040600020541692386122a2565b156122f457565b60405162461bcd60e51b815260206004820152602560248201527f4552433732313a207472616e736665722066726f6d20696e636f72726563742060448201526437bbb732b960d91b6064820152608490fd5b9061236f916123558461211e565b6001600160a01b03939184169284929091831684146122ed565b16918215612409578161238c916123858661211e565b16146122ed565b7fddf252ad1be2c89b69c2b068fc378daa952ba7f163c4a11628f55a4df523b3ef60008481526004602052604081206001600160601b0360a01b90818154169055838252600360205260408220600019815401905584825260408220600181540190558582526002602052846040832091825416179055604051a4565b60405162461bcd60e51b8152602060048201526024808201527f4552433732313a207472616e7366657220746f20746865207a65726f206164646044820152637265737360e01b6064820152608490fd5b3d15612485573d9061246b8261205e565b91612479604051938461203c565b82523d6000602084013e565b606090565b91926000929190813b15612578576020916124e09185604051958680958194630a85bd0160e11b9b8c845233600485015260018060a01b0380951660248501526044840152608060648401526084830190611eb0565b0393165af190829082612530575b5050612522576124fc61245a565b8051908161251d5760405162461bcd60e51b8152806122286004820161222c565b602001fd5b6001600160e01b0319161490565b909192506020813d8211612570575b8161254c6020938361203c565b810103126102d65751906001600160e01b0319821682036106b757509038806124ee565b3d915061253f565b5050505050600190565b62015180420680421061259457420390565b634e487b7160e01b600052601160045260246000fd5b600a546001600160a01b03906125c390821615156126ec565b6125d2816009541615156126ec565b6125e181600b541615156126ec565b80600c54166125f18115156126ec565b61260360ff60065460a01c161561272a565b60075442106126b957600d5434036126845760008080926040519034905af190600080516020612d4b83398151915261265761263d61245a565b92600c541692604051918291604083526040830190611eb0565b943460208301521515940390a360005b600181106126725750565b61267f9061104833612784565b612667565b60405162461bcd60e51b815260206004820152600d60248201526c496e76616c696420707269636560981b6044820152606490fd5b60405162461bcd60e51b815260206004820152600b60248201526a139bdd081cdd185c9d195960aa1b6044820152606490fd5b156126f357565b60405162461bcd60e51b815260206004820152600f60248201526e139bdd081a5b9a5d1a585b1a5e9959608a1b6044820152606490fd5b1561273157565b60405162461bcd60e51b815260206004820152600660248201526514185d5cd95960d21b6044820152606490fd5b60001981146125945760010190565b9190826040910312611e4a576020825192015190565b90600891612792835461275f565b8084556001600160a01b03918216908115612af2576000818152600260205260409020546127cc906001600160a01b031615155b15612b36565b6000818152600260205260409020546127ef906001600160a01b031615156127c6565b6000908282526020906003825260409384842097600198898154019055828552600292838552868620836001600160601b0360a01b82541617905582867fddf252ad1be2c89b69c2b068fc378daa952ba7f163c4a11628f55a4df523b3ef818a51a4612859612582565b9681548652600e9788865284888820015581548a4310612ade57606488928c928451898101908282526000194301408782015286815261289881611fe8565b519020908a528b895283858b2001557f20fb1b7fbd9e0f1e0f3fe320cc812502c980b318bc3818cc985a75b70c279bc56060865494858c5289878d20015490878d2001548751918783528c83015287820152a16009541694888451968794859363d395cb1360e01b8552600485015260248401528160448401525af1948515612ad35780928196612aae575b5081549687825288865261298685828420015460048385200154835190898201928352848201528460608201526060815261295e81612004565b5190208984528a885286838520015483518981019182528585820152848152610e8181611fe8565b93610100998c8b8701978a895283885289880191868352858901908782528d8852848c526005878920018689528c52868820938a5185555190840155519082015560608701958651600383015560e060808901988951600485015560a0810151600585015560c08101516006850155019889516007840155519101558984528088528160068486200155600383852001612a20815461275f565b905589845280885260048385200180549d8e60011910612a9a577f26c34af247e1ccf098f0cc4e380568ece925088468fc831769e1f757fa3ea02a9d9e0190558984528752601a8284200154935194519551968251998a528901528701526060860152608085015260a084015260c083015260e0820152a1565b634e487b7160e01b86526011600452602486fd5b909550612ac9919250863d881161155357611544818361203c565b9190919438612924565b8651903d90823e3d90fd5b634e487b7160e01b87526011600452602487fd5b606460405162461bcd60e51b815260206004820152602060248201527f4552433732313a206d696e7420746f20746865207a65726f20616464726573736044820152fd5b15612b3d57565b60405162461bcd60e51b815260206004820152601c60248201527f4552433732313a20746f6b656e20616c7265616479206d696e746564000000006044820152606490fd5b9160405191602083019384526040830152606082015260608152612ba581612004565b51902090565b600a821015612bbb570190600090565b634e487b7160e01b600052603260045260246000fd5b600116801960011161259457600019906001018015158183046005111661259457600502600219811161259457600201806103e89204821181151516612594570290565b60405190612c2282611f98565b816101006000918281528260208201528260408201528260608201528260808201528260a08201528260c08201528260e08201520152565b612c62612c15565b50612c74612c6e612c15565b92612bd1565b60e083015260405190602091828101918252828152612c9281612020565b519020620f4240908181066060850152604051838101918252838152612cb781612020565b5190209081066080840152604051828101918252828152612cd781612020565b5190206127109182820660a0850152604051908082019283528152612cfb81612020565b5190200660c082015290565b15612d0e57565b60405162461bcd60e51b815260206004820152601460248201527313db9b1e4814dbdb1d995c8818d85b8818d85b1b60621b6044820152606490fdfeb08889abce443443404b2caf69aa3ccfb9ebfdf1ad2a634d06e11e24c1067938a2646970667358221220dc5a19c9d4d2d58585f45a588e75ca7dee131913727fd68a31290105c1c039fa64736f6c634300080f0033",
  "linkReferences": {},
  "deployedLinkReferences": {}
}