{
  "_format": "hh-sol-artifact-1",
  "contractName": "AnybodyProblem",
  "sourceName": "contracts/AnybodyProblem.sol",
  "abi": [
    {
      "inputs": [
        {
          "internalType": "address payable",
          "name": "proceedRecipient_",
          "type": "address"
        },
        {
          "internalType": "address payable",
          "name": "speedruns_",
          "type": "address"
        },
        {
          "internalType": "address",
          "name": "externalMetadata_",
          "type": "address"
        },
        {
          "internalType": "address[]",
          "name": "verifiers_",
          "type": "address[]"
        },
        {
          "internalType": "uint256[]",
          "name": "verifiersTicks",
          "type": "uint256[]"
        },
        {
          "internalType": "uint256[]",
          "name": "verifiersBodies",
          "type": "uint256[]"
        }
      ],
      "stateMutability": "nonpayable",
      "type": "constructor"
    },
    {
      "anonymous": false,
      "inputs": [
        {
          "indexed": true,
          "internalType": "address",
          "name": "to",
          "type": "address"
        },
        {
          "indexed": true,
          "internalType": "bool",
          "name": "success",
          "type": "bool"
        },
        {
          "indexed": false,
          "internalType": "bytes",
          "name": "returnData",
          "type": "bytes"
        },
        {
          "indexed": false,
          "internalType": "uint256",
          "name": "amount",
          "type": "uint256"
        }
      ],
      "name": "EthMoved",
      "type": "event"
    },
    {
      "anonymous": false,
      "inputs": [
        {
          "indexed": false,
          "internalType": "uint256",
          "name": "runId",
          "type": "uint256"
        },
        {
          "indexed": false,
          "internalType": "uint256",
          "name": "level",
          "type": "uint256"
        },
        {
          "indexed": false,
          "internalType": "bytes32",
          "name": "seed",
          "type": "bytes32"
        },
        {
          "indexed": false,
          "internalType": "uint256",
          "name": "day",
          "type": "uint256"
        }
      ],
      "name": "LevelCreated",
      "type": "event"
    },
    {
      "anonymous": false,
      "inputs": [
        {
          "indexed": true,
          "internalType": "address",
          "name": "player",
          "type": "address"
        },
        {
          "indexed": true,
          "internalType": "uint256",
          "name": "runId",
          "type": "uint256"
        },
        {
          "indexed": true,
          "internalType": "uint256",
          "name": "level",
          "type": "uint256"
        },
        {
          "indexed": false,
          "internalType": "uint256",
          "name": "time",
          "type": "uint256"
        },
        {
          "indexed": false,
          "internalType": "uint256",
          "name": "day",
          "type": "uint256"
        }
      ],
      "name": "LevelSolved",
      "type": "event"
    },
    {
      "anonymous": false,
      "inputs": [
        {
          "indexed": true,
          "internalType": "address",
          "name": "previousOwner",
          "type": "address"
        },
        {
          "indexed": true,
          "internalType": "address",
          "name": "newOwner",
          "type": "address"
        }
      ],
      "name": "OwnershipTransferred",
      "type": "event"
    },
    {
      "anonymous": false,
      "inputs": [
        {
          "indexed": false,
          "internalType": "uint256",
          "name": "runId",
          "type": "uint256"
        },
        {
          "indexed": false,
          "internalType": "uint256",
          "name": "day",
          "type": "uint256"
        },
        {
          "indexed": false,
          "internalType": "bytes32",
          "name": "seed",
          "type": "bytes32"
        }
      ],
      "name": "RunCreated",
      "type": "event"
    },
    {
      "anonymous": false,
      "inputs": [
        {
          "indexed": true,
          "internalType": "address",
          "name": "player",
          "type": "address"
        },
        {
          "indexed": true,
          "internalType": "uint256",
          "name": "runId",
          "type": "uint256"
        },
        {
          "indexed": false,
          "internalType": "uint256",
          "name": "accumulativeTime",
          "type": "uint256"
        },
        {
          "indexed": false,
          "internalType": "uint256",
          "name": "day",
          "type": "uint256"
        }
      ],
      "name": "RunSolved",
      "type": "event"
    },
    {
      "stateMutability": "nonpayable",
      "type": "fallback"
    },
    {
      "inputs": [],
      "name": "FIRST_SUNDAY_AT_6_PM_UTC",
      "outputs": [
        {
          "internalType": "uint256",
          "name": "",
          "type": "uint256"
        }
      ],
      "stateMutability": "view",
      "type": "function"
    },
    {
      "inputs": [],
      "name": "LEVELS",
      "outputs": [
        {
          "internalType": "uint256",
          "name": "",
          "type": "uint256"
        }
      ],
      "stateMutability": "view",
      "type": "function"
    },
    {
      "inputs": [],
      "name": "SECONDS_IN_A_DAY",
      "outputs": [
        {
          "internalType": "uint256",
          "name": "",
          "type": "uint256"
        }
      ],
      "stateMutability": "view",
      "type": "function"
    },
    {
      "inputs": [],
      "name": "SECONDS_IN_A_WEEK",
      "outputs": [
        {
          "internalType": "uint256",
          "name": "",
          "type": "uint256"
        }
      ],
      "stateMutability": "view",
      "type": "function"
    },
    {
      "inputs": [
        {
          "internalType": "uint256",
          "name": "runId",
          "type": "uint256"
        },
        {
          "internalType": "uint256[]",
          "name": "tickCounts",
          "type": "uint256[]"
        },
        {
          "internalType": "uint256[2][]",
          "name": "a",
          "type": "uint256[2][]"
        },
        {
          "internalType": "uint256[2][2][]",
          "name": "b",
          "type": "uint256[2][2][]"
        },
        {
          "internalType": "uint256[2][]",
          "name": "c",
          "type": "uint256[2][]"
        },
        {
          "internalType": "uint256[][]",
          "name": "input",
          "type": "uint256[][]"
        }
      ],
      "name": "batchSolve",
      "outputs": [],
      "stateMutability": "payable",
      "type": "function"
    },
    {
      "inputs": [
        {
          "internalType": "uint256[]",
          "name": "input",
          "type": "uint256[]"
        }
      ],
      "name": "convertTo102",
      "outputs": [
        {
          "internalType": "uint256[102]",
          "name": "",
          "type": "uint256[102]"
        }
      ],
      "stateMutability": "pure",
      "type": "function"
    },
    {
      "inputs": [
        {
          "internalType": "uint256[]",
          "name": "input",
          "type": "uint256[]"
        }
      ],
      "name": "convertTo112",
      "outputs": [
        {
          "internalType": "uint256[112]",
          "name": "",
          "type": "uint256[112]"
        }
      ],
      "stateMutability": "pure",
      "type": "function"
    },
    {
      "inputs": [
        {
          "internalType": "uint256[]",
          "name": "input",
          "type": "uint256[]"
        }
      ],
      "name": "convertTo22",
      "outputs": [
        {
          "internalType": "uint256[22]",
          "name": "",
          "type": "uint256[22]"
        }
      ],
      "stateMutability": "pure",
      "type": "function"
    },
    {
      "inputs": [
        {
          "internalType": "uint256[]",
          "name": "input",
          "type": "uint256[]"
        }
      ],
      "name": "convertTo32",
      "outputs": [
        {
          "internalType": "uint256[32]",
          "name": "",
          "type": "uint256[32]"
        }
      ],
      "stateMutability": "pure",
      "type": "function"
    },
    {
      "inputs": [
        {
          "internalType": "uint256[]",
          "name": "input",
          "type": "uint256[]"
        }
      ],
      "name": "convertTo42",
      "outputs": [
        {
          "internalType": "uint256[42]",
          "name": "",
          "type": "uint256[42]"
        }
      ],
      "stateMutability": "pure",
      "type": "function"
    },
    {
      "inputs": [
        {
          "internalType": "uint256[]",
          "name": "input",
          "type": "uint256[]"
        }
      ],
      "name": "convertTo52",
      "outputs": [
        {
          "internalType": "uint256[52]",
          "name": "",
          "type": "uint256[52]"
        }
      ],
      "stateMutability": "pure",
      "type": "function"
    },
    {
      "inputs": [
        {
          "internalType": "uint256[]",
          "name": "input",
          "type": "uint256[]"
        }
      ],
      "name": "convertTo62",
      "outputs": [
        {
          "internalType": "uint256[62]",
          "name": "",
          "type": "uint256[62]"
        }
      ],
      "stateMutability": "pure",
      "type": "function"
    },
    {
      "inputs": [
        {
          "internalType": "uint256[]",
          "name": "input",
          "type": "uint256[]"
        }
      ],
      "name": "convertTo72",
      "outputs": [
        {
          "internalType": "uint256[72]",
          "name": "",
          "type": "uint256[72]"
        }
      ],
      "stateMutability": "pure",
      "type": "function"
    },
    {
      "inputs": [
        {
          "internalType": "uint256[]",
          "name": "input",
          "type": "uint256[]"
        }
      ],
      "name": "convertTo82",
      "outputs": [
        {
          "internalType": "uint256[82]",
          "name": "",
          "type": "uint256[82]"
        }
      ],
      "stateMutability": "pure",
      "type": "function"
    },
    {
      "inputs": [
        {
          "internalType": "uint256[]",
          "name": "input",
          "type": "uint256[]"
        }
      ],
      "name": "convertTo92",
      "outputs": [
        {
          "internalType": "uint256[92]",
          "name": "",
          "type": "uint256[92]"
        }
      ],
      "stateMutability": "pure",
      "type": "function"
    },
    {
      "inputs": [],
      "name": "currentDay",
      "outputs": [
        {
          "internalType": "uint256",
          "name": "",
          "type": "uint256"
        }
      ],
      "stateMutability": "view",
      "type": "function"
    },
    {
      "inputs": [
        {
          "internalType": "uint256",
          "name": "runId",
          "type": "uint256"
        }
      ],
      "name": "currentLevel",
      "outputs": [
        {
          "internalType": "uint256",
          "name": "",
          "type": "uint256"
        }
      ],
      "stateMutability": "view",
      "type": "function"
    },
    {
      "inputs": [],
      "name": "currentWeek",
      "outputs": [
        {
          "internalType": "uint256",
          "name": "",
          "type": "uint256"
        }
      ],
      "stateMutability": "view",
      "type": "function"
    },
    {
      "inputs": [],
      "name": "externalMetadata",
      "outputs": [
        {
          "internalType": "address",
          "name": "",
          "type": "address"
        }
      ],
      "stateMutability": "view",
      "type": "function"
    },
    {
      "inputs": [
        {
          "components": [
            {
              "internalType": "uint256",
              "name": "bodyIndex",
              "type": "uint256"
            },
            {
              "internalType": "uint256",
              "name": "px",
              "type": "uint256"
            },
            {
              "internalType": "uint256",
              "name": "py",
              "type": "uint256"
            },
            {
              "internalType": "uint256",
              "name": "vx",
              "type": "uint256"
            },
            {
              "internalType": "uint256",
              "name": "vy",
              "type": "uint256"
            },
            {
              "internalType": "uint256",
              "name": "radius",
              "type": "uint256"
            },
            {
              "internalType": "bytes32",
              "name": "seed",
              "type": "bytes32"
            }
          ],
          "internalType": "struct AnybodyProblem.Body",
          "name": "bodyData",
          "type": "tuple"
        },
        {
          "internalType": "uint256[]",
          "name": "input",
          "type": "uint256[]"
        },
        {
          "internalType": "uint256",
          "name": "i",
          "type": "uint256"
        }
      ],
      "name": "extractBodyData",
      "outputs": [
        {
          "components": [
            {
              "internalType": "uint256",
              "name": "bodyIndex",
              "type": "uint256"
            },
            {
              "internalType": "uint256",
              "name": "px",
              "type": "uint256"
            },
            {
              "internalType": "uint256",
              "name": "py",
              "type": "uint256"
            },
            {
              "internalType": "uint256",
              "name": "vx",
              "type": "uint256"
            },
            {
              "internalType": "uint256",
              "name": "vy",
              "type": "uint256"
            },
            {
              "internalType": "uint256",
              "name": "radius",
              "type": "uint256"
            },
            {
              "internalType": "bytes32",
              "name": "seed",
              "type": "bytes32"
            }
          ],
          "internalType": "struct AnybodyProblem.Body",
          "name": "",
          "type": "tuple"
        }
      ],
      "stateMutability": "pure",
      "type": "function"
    },
    {
      "inputs": [
        {
          "internalType": "uint256",
          "name": "",
          "type": "uint256"
        },
        {
          "internalType": "uint256",
          "name": "",
          "type": "uint256"
        }
      ],
      "name": "fastestByDay",
      "outputs": [
        {
          "internalType": "uint256",
          "name": "",
          "type": "uint256"
        }
      ],
      "stateMutability": "view",
      "type": "function"
    },
    {
      "inputs": [
        {
          "internalType": "uint256",
          "name": "",
          "type": "uint256"
        },
        {
          "internalType": "uint256",
          "name": "",
          "type": "uint256"
        }
      ],
      "name": "fastestByWeek",
      "outputs": [
        {
          "internalType": "address",
          "name": "",
          "type": "address"
        }
      ],
      "stateMutability": "view",
      "type": "function"
    },
    {
      "inputs": [
        {
          "internalType": "address",
          "name": "",
          "type": "address"
        }
      ],
      "name": "gamesPlayed",
      "outputs": [
        {
          "internalType": "uint256",
          "name": "total",
          "type": "uint256"
        },
        {
          "internalType": "uint256",
          "name": "lastPlayed",
          "type": "uint256"
        },
        {
          "internalType": "uint256",
          "name": "streak",
          "type": "uint256"
        }
      ],
      "stateMutability": "view",
      "type": "function"
    },
    {
      "inputs": [
        {
          "internalType": "uint256",
          "name": "index",
          "type": "uint256"
        }
      ],
      "name": "genRadius",
      "outputs": [
        {
          "internalType": "uint256",
          "name": "",
          "type": "uint256"
        }
      ],
      "stateMutability": "pure",
      "type": "function"
    },
    {
      "inputs": [
        {
          "internalType": "uint256",
          "name": "day",
          "type": "uint256"
        },
        {
          "internalType": "uint256",
          "name": "level",
          "type": "uint256"
        }
      ],
      "name": "generateLevelData",
      "outputs": [
        {
          "components": [
            {
              "internalType": "uint256",
              "name": "bodyIndex",
              "type": "uint256"
            },
            {
              "internalType": "uint256",
              "name": "px",
              "type": "uint256"
            },
            {
              "internalType": "uint256",
              "name": "py",
              "type": "uint256"
            },
            {
              "internalType": "uint256",
              "name": "vx",
              "type": "uint256"
            },
            {
              "internalType": "uint256",
              "name": "vy",
              "type": "uint256"
            },
            {
              "internalType": "uint256",
              "name": "radius",
              "type": "uint256"
            },
            {
              "internalType": "bytes32",
              "name": "seed",
              "type": "bytes32"
            }
          ],
          "internalType": "struct AnybodyProblem.Body[6]",
          "name": "bodyData",
          "type": "tuple[6]"
        },
        {
          "internalType": "uint256",
          "name": "bodyCount",
          "type": "uint256"
        }
      ],
      "stateMutability": "view",
      "type": "function"
    },
    {
      "inputs": [
        {
          "internalType": "uint256",
          "name": "id",
          "type": "uint256"
        },
        {
          "internalType": "uint256",
          "name": "index",
          "type": "uint256"
        }
      ],
      "name": "generateSeed",
      "outputs": [
        {
          "internalType": "bytes32",
          "name": "",
          "type": "bytes32"
        }
      ],
      "stateMutability": "view",
      "type": "function"
    },
    {
      "inputs": [
        {
          "internalType": "uint256",
          "name": "inputLength",
          "type": "uint256"
        }
      ],
      "name": "getLevelFromInputs",
      "outputs": [
        {
          "internalType": "uint256",
          "name": "",
          "type": "uint256"
        }
      ],
      "stateMutability": "pure",
      "type": "function"
    },
    {
      "inputs": [
        {
          "internalType": "uint256",
          "name": "day",
          "type": "uint256"
        },
        {
          "internalType": "uint256",
          "name": "level",
          "type": "uint256"
        },
        {
          "internalType": "uint256",
          "name": "bodyIndex",
          "type": "uint256"
        }
      ],
      "name": "getLevelSeed",
      "outputs": [
        {
          "internalType": "bytes32",
          "name": "",
          "type": "bytes32"
        }
      ],
      "stateMutability": "pure",
      "type": "function"
    },
    {
      "inputs": [
        {
          "internalType": "uint256",
          "name": "runId",
          "type": "uint256"
        }
      ],
      "name": "getLevelsData",
      "outputs": [
        {
          "components": [
            {
              "internalType": "bool",
              "name": "solved",
              "type": "bool"
            },
            {
              "internalType": "uint256",
              "name": "time",
              "type": "uint256"
            },
            {
              "internalType": "bytes32",
              "name": "seed",
              "type": "bytes32"
            },
            {
              "internalType": "uint256[5]",
              "name": "tmpInflightMissile",
              "type": "uint256[5]"
            },
            {
              "components": [
                {
                  "internalType": "uint256",
                  "name": "bodyIndex",
                  "type": "uint256"
                },
                {
                  "internalType": "uint256",
                  "name": "px",
                  "type": "uint256"
                },
                {
                  "internalType": "uint256",
                  "name": "py",
                  "type": "uint256"
                },
                {
                  "internalType": "uint256",
                  "name": "vx",
                  "type": "uint256"
                },
                {
                  "internalType": "uint256",
                  "name": "vy",
                  "type": "uint256"
                },
                {
                  "internalType": "uint256",
                  "name": "radius",
                  "type": "uint256"
                },
                {
                  "internalType": "bytes32",
                  "name": "seed",
                  "type": "bytes32"
                }
              ],
              "internalType": "struct AnybodyProblem.Body[6]",
              "name": "tmpBodyData",
              "type": "tuple[6]"
            }
          ],
          "internalType": "struct AnybodyProblem.Level[]",
          "name": "levels",
          "type": "tuple[]"
        }
      ],
      "stateMutability": "view",
      "type": "function"
    },
    {
      "inputs": [
        {
          "internalType": "bytes32",
          "name": "dayLevelIndexSeed",
          "type": "bytes32"
        },
        {
          "internalType": "uint256",
          "name": "index",
          "type": "uint256"
        }
      ],
      "name": "getRandomValues",
      "outputs": [
        {
          "components": [
            {
              "internalType": "uint256",
              "name": "bodyIndex",
              "type": "uint256"
            },
            {
              "internalType": "uint256",
              "name": "px",
              "type": "uint256"
            },
            {
              "internalType": "uint256",
              "name": "py",
              "type": "uint256"
            },
            {
              "internalType": "uint256",
              "name": "vx",
              "type": "uint256"
            },
            {
              "internalType": "uint256",
              "name": "vy",
              "type": "uint256"
            },
            {
              "internalType": "uint256",
              "name": "radius",
              "type": "uint256"
            },
            {
              "internalType": "bytes32",
              "name": "seed",
              "type": "bytes32"
            }
          ],
          "internalType": "struct AnybodyProblem.Body",
          "name": "",
          "type": "tuple"
        }
      ],
      "stateMutability": "pure",
      "type": "function"
    },
    {
      "inputs": [
        {
          "internalType": "uint256",
          "name": "",
          "type": "uint256"
        }
      ],
      "name": "longestStreak",
      "outputs": [
        {
          "internalType": "address",
          "name": "",
          "type": "address"
        }
      ],
      "stateMutability": "view",
      "type": "function"
    },
    {
      "inputs": [
        {
          "internalType": "uint256",
          "name": "",
          "type": "uint256"
        }
      ],
      "name": "maxTicksByLevelIndex",
      "outputs": [
        {
          "internalType": "uint256",
          "name": "",
          "type": "uint256"
        }
      ],
      "stateMutability": "view",
      "type": "function"
    },
    {
      "inputs": [],
      "name": "maxVector",
      "outputs": [
        {
          "internalType": "uint256",
          "name": "",
          "type": "uint256"
        }
      ],
      "stateMutability": "view",
      "type": "function"
    },
    {
      "inputs": [],
      "name": "maxVectorScaled",
      "outputs": [
        {
          "internalType": "uint256",
          "name": "",
          "type": "uint256"
        }
      ],
      "stateMutability": "view",
      "type": "function"
    },
    {
      "inputs": [
        {
          "internalType": "uint256",
          "name": "",
          "type": "uint256"
        }
      ],
      "name": "mostGames",
      "outputs": [
        {
          "internalType": "address",
          "name": "",
          "type": "address"
        }
      ],
      "stateMutability": "view",
      "type": "function"
    },
    {
      "inputs": [],
      "name": "owner",
      "outputs": [
        {
          "internalType": "address",
          "name": "",
          "type": "address"
        }
      ],
      "stateMutability": "view",
      "type": "function"
    },
    {
      "inputs": [],
      "name": "paused",
      "outputs": [
        {
          "internalType": "bool",
          "name": "",
          "type": "bool"
        }
      ],
      "stateMutability": "view",
      "type": "function"
    },
    {
      "inputs": [],
      "name": "price",
      "outputs": [
        {
          "internalType": "uint256",
          "name": "",
          "type": "uint256"
        }
      ],
      "stateMutability": "view",
      "type": "function"
    },
    {
      "inputs": [],
      "name": "proceedRecipient",
      "outputs": [
        {
          "internalType": "address payable",
          "name": "",
          "type": "address"
        }
      ],
      "stateMutability": "view",
      "type": "function"
    },
    {
      "inputs": [
        {
          "internalType": "uint256",
          "name": "min",
          "type": "uint256"
        },
        {
          "internalType": "uint256",
          "name": "max",
          "type": "uint256"
        },
        {
          "internalType": "bytes32",
          "name": "rand",
          "type": "bytes32"
        }
      ],
      "name": "randomRange",
      "outputs": [
        {
          "internalType": "uint256",
          "name": "",
          "type": "uint256"
        }
      ],
      "stateMutability": "pure",
      "type": "function"
    },
    {
      "inputs": [
        {
          "internalType": "address payable",
          "name": "_to",
          "type": "address"
        }
      ],
      "name": "recoverUnsuccessfulPayment",
      "outputs": [],
      "stateMutability": "nonpayable",
      "type": "function"
    },
    {
      "inputs": [],
      "name": "renounceOwnership",
      "outputs": [],
      "stateMutability": "nonpayable",
      "type": "function"
    },
    {
      "inputs": [
        {
          "internalType": "uint256",
          "name": "tokenId",
          "type": "uint256"
        },
        {
          "internalType": "uint256",
          "name": "salePrice",
          "type": "uint256"
        }
      ],
      "name": "royaltyInfo",
      "outputs": [
        {
          "internalType": "address",
          "name": "",
          "type": "address"
        },
        {
          "internalType": "uint256",
          "name": "",
          "type": "uint256"
        }
      ],
      "stateMutability": "view",
      "type": "function"
    },
    {
      "inputs": [],
      "name": "runCount",
      "outputs": [
        {
          "internalType": "uint256",
          "name": "",
          "type": "uint256"
        }
      ],
      "stateMutability": "view",
      "type": "function"
    },
    {
      "inputs": [
        {
          "internalType": "uint256",
          "name": "",
          "type": "uint256"
        }
      ],
      "name": "runs",
      "outputs": [
        {
          "internalType": "address",
          "name": "owner",
          "type": "address"
        },
        {
          "internalType": "bool",
          "name": "solved",
          "type": "bool"
        },
        {
          "internalType": "uint256",
          "name": "accumulativeTime",
          "type": "uint256"
        },
        {
          "internalType": "bytes32",
          "name": "seed",
          "type": "bytes32"
        },
        {
          "internalType": "uint256",
          "name": "day",
          "type": "uint256"
        }
      ],
      "stateMutability": "view",
      "type": "function"
    },
    {
      "inputs": [],
      "name": "scalingFactor",
      "outputs": [
        {
          "internalType": "uint256",
          "name": "",
          "type": "uint256"
        }
      ],
      "stateMutability": "view",
      "type": "function"
    },
    {
      "inputs": [],
      "name": "speedFactor",
      "outputs": [
        {
          "internalType": "uint256",
          "name": "",
          "type": "uint256"
        }
      ],
      "stateMutability": "view",
      "type": "function"
    },
    {
      "inputs": [],
      "name": "speedruns",
      "outputs": [
        {
          "internalType": "address payable",
          "name": "",
          "type": "address"
        }
      ],
      "stateMutability": "view",
      "type": "function"
    },
    {
      "inputs": [
        {
          "internalType": "bytes4",
          "name": "interfaceId",
          "type": "bytes4"
        }
      ],
      "name": "speedrunsSupportsInterface",
      "outputs": [
        {
          "internalType": "bool",
          "name": "",
          "type": "bool"
        }
      ],
      "stateMutability": "pure",
      "type": "function"
    },
    {
      "inputs": [
        {
          "internalType": "uint256",
          "name": "id",
          "type": "uint256"
        }
      ],
      "name": "speedrunsTokenURI",
      "outputs": [
        {
          "internalType": "string",
          "name": "",
          "type": "string"
        }
      ],
      "stateMutability": "view",
      "type": "function"
    },
    {
      "inputs": [],
      "name": "startingRadius",
      "outputs": [
        {
          "internalType": "uint256",
          "name": "",
          "type": "uint256"
        }
      ],
      "stateMutability": "view",
      "type": "function"
    },
    {
      "inputs": [
        {
          "internalType": "bytes4",
          "name": "interfaceId",
          "type": "bytes4"
        }
      ],
      "name": "supportsInterface",
      "outputs": [
        {
          "internalType": "bool",
          "name": "",
          "type": "bool"
        }
      ],
      "stateMutability": "view",
      "type": "function"
    },
    {
      "inputs": [],
      "name": "timeUntilEndOfWeek",
      "outputs": [
        {
          "internalType": "uint256",
          "name": "",
          "type": "uint256"
        }
      ],
      "stateMutability": "view",
      "type": "function"
    },
    {
      "inputs": [
        {
          "internalType": "address",
          "name": "newOwner",
          "type": "address"
        }
      ],
      "name": "transferOwnership",
      "outputs": [],
      "stateMutability": "nonpayable",
      "type": "function"
    },
    {
      "inputs": [
        {
          "internalType": "address",
          "name": "externalMetadata_",
          "type": "address"
        }
      ],
      "name": "updateExternalMetadata",
      "outputs": [],
      "stateMutability": "nonpayable",
      "type": "function"
    },
    {
      "inputs": [
        {
          "internalType": "bool",
          "name": "paused_",
          "type": "bool"
        }
      ],
      "name": "updatePaused",
      "outputs": [],
      "stateMutability": "nonpayable",
      "type": "function"
    },
    {
      "inputs": [
        {
          "internalType": "uint256",
          "name": "price_",
          "type": "uint256"
        }
      ],
      "name": "updatePrice",
      "outputs": [],
      "stateMutability": "nonpayable",
      "type": "function"
    },
    {
      "inputs": [
        {
          "internalType": "address payable",
          "name": "proceedRecipient_",
          "type": "address"
        }
      ],
      "name": "updateProceedRecipient",
      "outputs": [],
      "stateMutability": "nonpayable",
      "type": "function"
    },
    {
      "inputs": [
        {
          "internalType": "address payable",
          "name": "speedruns_",
          "type": "address"
        }
      ],
      "name": "updateSpeedrunsAddress",
      "outputs": [],
      "stateMutability": "nonpayable",
      "type": "function"
    },
    {
      "inputs": [
        {
          "internalType": "address",
          "name": "verifier_",
          "type": "address"
        },
        {
          "internalType": "uint256",
          "name": "verifierBodies",
          "type": "uint256"
        },
        {
          "internalType": "uint256",
          "name": "verifierTicks",
          "type": "uint256"
        }
      ],
      "name": "updateVerifier",
      "outputs": [],
      "stateMutability": "nonpayable",
      "type": "function"
    },
    {
      "inputs": [
        {
          "internalType": "uint256",
          "name": "",
          "type": "uint256"
        },
        {
          "internalType": "uint256",
          "name": "",
          "type": "uint256"
        }
      ],
      "name": "verifiers",
      "outputs": [
        {
          "internalType": "address",
          "name": "",
          "type": "address"
        }
      ],
      "stateMutability": "view",
      "type": "function"
    },
    {
      "inputs": [
        {
          "components": [
            {
              "internalType": "uint256",
              "name": "bodyIndex",
              "type": "uint256"
            },
            {
              "internalType": "uint256",
              "name": "px",
              "type": "uint256"
            },
            {
              "internalType": "uint256",
              "name": "py",
              "type": "uint256"
            },
            {
              "internalType": "uint256",
              "name": "vx",
              "type": "uint256"
            },
            {
              "internalType": "uint256",
              "name": "vy",
              "type": "uint256"
            },
            {
              "internalType": "uint256",
              "name": "radius",
              "type": "uint256"
            },
            {
              "internalType": "bytes32",
              "name": "seed",
              "type": "bytes32"
            }
          ],
          "internalType": "struct AnybodyProblem.Body",
          "name": "bodyData",
          "type": "tuple"
        },
        {
          "internalType": "uint256[]",
          "name": "input",
          "type": "uint256[]"
        },
        {
          "internalType": "uint256",
          "name": "bodyCount",
          "type": "uint256"
        },
        {
          "internalType": "uint256",
          "name": "i",
          "type": "uint256"
        }
      ],
      "name": "verifyBodyDataMatches",
      "outputs": [],
      "stateMutability": "pure",
      "type": "function"
    },
    {
      "inputs": [
        {
          "internalType": "uint256",
          "name": "bodyCount",
          "type": "uint256"
        },
        {
          "internalType": "address",
          "name": "verifier",
          "type": "address"
        },
        {
          "internalType": "uint256[2]",
          "name": "a",
          "type": "uint256[2]"
        },
        {
          "internalType": "uint256[2][2]",
          "name": "b",
          "type": "uint256[2][2]"
        },
        {
          "internalType": "uint256[2]",
          "name": "c",
          "type": "uint256[2]"
        },
        {
          "internalType": "uint256[]",
          "name": "input",
          "type": "uint256[]"
        }
      ],
      "name": "verifyProof",
      "outputs": [],
      "stateMutability": "view",
      "type": "function"
    },
    {
      "inputs": [
        {
          "internalType": "address",
          "name": "",
          "type": "address"
        },
        {
          "internalType": "uint256",
          "name": "",
          "type": "uint256"
        },
        {
          "internalType": "uint256",
          "name": "",
          "type": "uint256"
        }
      ],
      "name": "weeklyRecords",
      "outputs": [
        {
          "internalType": "uint256",
          "name": "",
          "type": "uint256"
        }
      ],
      "stateMutability": "view",
      "type": "function"
    },
    {
      "inputs": [],
      "name": "windowWidth",
      "outputs": [
        {
          "internalType": "uint256",
          "name": "",
          "type": "uint256"
        }
      ],
      "stateMutability": "view",
      "type": "function"
    },
    {
      "stateMutability": "payable",
      "type": "receive"
    }
  ],
  "bytecode": "0x610120604052346200071d5762004db2803803806200001e816200073d565b928339810160c0828203126200071d57620000398262000763565b90620000486020840162000763565b620000566040850162000763565b60e05260608401516001600160401b0381116200071d5784019382601f860112156200071d57845194620000946200008e8762000778565b6200073d565b9560208088838152019160051b830101918583116200071d57602001905b828210620007225750505060808101516001600160401b0381116200071d5783620000df91830162000790565b60a08201519093906001600160401b0381116200071d5762000102920162000790565b60008054336001600160a01b03198216811783556040519396939290916001600160a01b0316907f8be0079c531659141344cd1fd0a4f28419497f9722a3daafe3b4186f6b6457e09084a36003805460ff191690556608e1bc9bf040006004556001600160401b0360a0820190811190821117620005bd5760a0810160405260fa81526101f460208201526102ee60408201526103e860608201526104e260808201526008906000905b600582106200070257505060408051915081018082116001600160401b0390911117620005bd57604081016040526001815260005b60208110620006a95750805190680100000000000000008211620005bd5760175482601755808310620005d3575b506017600090815260008051602062004d9283398151915292916020015b8282106200039257505050506200024362000911565b60e051600680546001600160a01b0319166001600160a01b03929092169190911790556200027062000911565b600580546001600160a01b0319166001600160a01b03929092169190911790556200029a62000911565b600780546001600160a01b0319166001600160a01b039290921691909117905560005b83518110156200038257620002e0620002d78284620008a6565b511515620008d1565b620003026001600160a01b03620002f88387620008a6565b51161515620008d1565b6001600160a01b03620003168286620008a6565b5116620003248285620008a6565b51600052601860205260406000206200033e8385620008a6565b5160005260205260406000209060018060a01b031982541617905560001981146200036c57600101620002bd565b634e487b7160e01b600052601160045260246000fd5b60405161442790816200096b8239f35b60a08151600180831b0381511686549060ff841b60208401511515851b169160018060a81b031916171786556040810151600187015560608101516002870155608081015160038701550151805190680100000000000000008211620005bd57600486015482600488015580831062000547575b50602001906004860160005260206000206000915b8083106200043b575050505060056020600192019401910190926200022d565b969593949a91989b929990978a518051151560ff80198c54169116178a55602081015160018b0155604081015160028b0155606081015160805260038a0160c05260005b6005811062000526575060800151610100526008890160a05260005b60068110156200050557600190600761010051602081519160c083519360a051948555838101518886015560408101516002860155606081015160038601556080810151600486015560a081015160058601550151600684015501610100520160a052016200049b565b5097929b989099603260206001929d97969899949d0194019101916200041b565b60019081608051602081519160c051928355016080520160c052016200047f565b62000552906200081e565b6200055d836200081e565b906004880160005260206000209182015b81830181106200058057505062000406565b806000603292556000600182015560006002820155620005b660088201620005ac81600385016200084f565b8383019062000868565b016200056e565b634e487b7160e01b600052604160045260246000fd5b620005de90620007ed565b620005e983620007ed565b601760005260008051602062004d92833981519152919082015b8183018110620006155750506200020f565b60008155600060018201556000600282015560006003820155600481015460006004830155806200064b575b5060050162000603565b62000656906200081e565b600482016000526020600020908101905b81811062000676575062000641565b806000603292556000600182015560006002820155620006a260088201620005ac81600385016200084f565b0162000667565b604051906001600160401b0360c0830190811190831117620005bd578160c06020930160405260008152600083820152600060408201526000606082015260006080820152606060a082015282828501015201620001e1565b600160208261ffff83945116865501930191019091620001ac565b600080fd5b60208091620007318462000763565b815201910190620000b2565b6040519190601f01601f191682016001600160401b03811183821017620005bd57604052565b51906001600160a01b03821682036200071d57565b6001600160401b038111620005bd5760051b60200190565b9080601f830112156200071d57815190620007af6200008e8362000778565b9182938184526020808095019260051b8201019283116200071d578301905b828210620007dd575050505090565b81518152908301908301620007ce565b7f333333333333333333333333333333333333333333333333333333333333333381116001166200036c5760050290565b7f051eb851eb851eb851eb851eb851eb851eb851eb851eb851eb851eb851eb851e81116001166200036c5760320290565b8181106200085b575050565b600081556001016200084f565b81811062000874575050565b600790600080825580600183015580600283015580600383015580600483015580600583015560068201550162000868565b8051821015620008bb5760209160051b010190565b634e487b7160e01b600052603260045260246000fd5b15620008d957565b60405162461bcd60e51b815260206004820152601060248201526f24b73b30b634b2103b32b934b334b2b960811b6044820152606490fd5b6000546001600160a01b031633036200092657565b606460405162461bcd60e51b815260206004820152602060248201527f4f776e61626c653a2063616c6c6572206973206e6f7420746865206f776e65726044820152fdfe60806040526004361015610097575b361561005b57346100565760405162461bcd60e51b81526020600482015260156024820152746e6f2066616c6c6261636b207468616e6b20796f7560581b6044820152606490fd5b600080fd5b60405162461bcd60e51b81526020600482015260146024820152736e6f2072656365697665207468616e6b20796f7560601b6044820152606490fd5b60003560e01c8063010520a114612bb8578063014a30d214612b7057806301ffc9a714612b1b578063041df08214612b0257806306575c8914612ae757806308cdc2a814612aac578063098b5e9314612a0b5780630b27ce3f146129e257806310d80a55146129b8578063132d5ed91461299a578063158b38b6146129575780632a55205a146128b45780632b057afa146128665780632e93a49214612830578063355f7407146125f357806335d6f0cc1461280f5780633bdbdb71146127f15780633ef2570b146127cd57806343569ffb146127925780634b9862d9146127765780634caa028b1461272e5780634dbe7f73146126ff5780635103d6ea1461266c5780635120a2611461264f578063530ab7dc1461260157806353e52f09146125f35780635542437b146125af5780635bd6b2ea146125675780635c9302c9146125455780635c975abb146125225780636498c128146124ec5780636ef24f2d1461244b57806370180bc1146123fa578063715018a61461239b57806371b8ccb014612351578063770c5da11461231b5780637a19b1901461227a578063861f75561461216a57806387b07780146121415780638cc52cf3146121235780638d6cc56d146121025780638da5cb5b146120d9578063907311b1146120385780639196b7001461200d5780639654c1f714611fe15780639691f1ab14611fbb57806398a6a64114611f745780639bc4961714611f4b578063a035b1fe14611f2d578063ac4a604714611ee5578063adcbb85b14611e5b578063ae66f57c14611d74578063b24f67b814611c93578063bd2c955214611bc6578063c8b90ebb14611b18578063cc80b8ea14611ad4578063d8531e6e14611a8a578063de89d1c114610582578063e2adba8c14610566578063ed3437f814610549578063f2fde38b14610481578063f6fbc39a146103e3578063f81c8ec3146103c5578063f9cfa06f146103a75763ffd73d3b0361000e57346100565761037536612e94565b90600052600d6020526040600020600382101561005657602091610398916130b1565b90549060031b1c604051908152f35b34610056576000366003190112610056576020604051620151808152f35b34610056576000366003190112610056576020604051620f42408152f35b346100565760203660031901126100565760043563ffffffff60e01b8116809103610056576020906301ffc9a760e01b8114908115610470575b811561045f575b811561044e575b811561043d575b506040519015158152f35b632483248360e11b14905082610432565b63152a902d60e11b8114915061042b565b6303a24d0760e21b81149150610424565b636cdb3d1360e11b8114915061041d565b346100565760203660031901126100565761049a612f37565b6104a2613257565b6001600160a01b039081169081156104f557600080546001600160a01b031981168417825560405191939192167f8be0079c531659141344cd1fd0a4f28419497f9722a3daafe3b4186f6b6457e08484a3f35b60405162461bcd60e51b815260206004820152602660248201527f4f776e61626c653a206e6577206f776e657220697320746865207a65726f206160448201526564647265737360d01b6064820152608490fd5b346100565760003660031901126100565760206040516103e88152f35b3461005657600036600319011261005657602060405160058152f35b60c0366003190112610056576024356001600160401b038111610056576105ad903690600401612e0a565b6044356001600160401b038111610056576105cc9036906004016131eb565b6064356001600160401b0381116100565736602382011215610056578060040135906105f782612df3565b916106056040519384612dd2565b80835260208301913660248360071b830101116100565760248101925b60248360071b8301018410611a2e57505050506084356001600160401b038111610056576106549036906004016131eb565b916001600160401b0360a435116100565736602360a4350112156100565761068160a43560040135612df3565b61068e6040519182612dd2565b60a4356004013581526020810136602460a4356004013560051b60a43501011161005657602460a43501905b602460a4356004013560051b60a435010182106119fe5750506004359360ff600354166119c4576106f0620151804206426132df565b93851561165b575b6107018661312e565b50546001600160a01b031633036116075760ff61071d8761312e565b505460a01c166115cd5760036107328761312e565b50015485036115795760005b83518110156115775786610752828a6132cb565b5161075d83886132cb565b519061076984866132cb565b519161077585886132cb565b5192610781868a6132cb565b51926004610798610792865161425d565b9761312e565b500154809603611532576001861061105c5760ff6107c76107b88f61312e565b506000198901906004016136e4565b5054166114f657600119861161105c5760018601600052601860205260406000209060005260205260018060a01b03604060002054169384156114be5761081060018701612eda565b801960051161105c57600119600582011161105c5733906001600160a01b039061083d90600601876132cb565b51160361146b5761086c60036108658f6108569061312e565b506000198a01906004016136e4565b50016132ea565b6040519061087982612c20565b61088d61088860018a01612ef0565b612eda565b801960051161105c57600219600582011161105c5760076108af9101876132cb565b5182526108c161088860018a01612ef0565b801960051161105c57600219600582011161105c57600119600782011161105c5760086108ef9101876132cb565b51602083015261090461088860018a01612ef0565b801960051161105c57600219600582011161105c57600219600782011161105c5760096109329101876132cb565b51604083015261094761088860018a01612ef0565b801960051161105c57600219600582011161105c57600319600782011161105c57600a6109759101876132cb565b51606083015261098a61088860018a01612ef0565b801960051161105c57600219600582011161105c57600419600782011161105c57600b6109b89101876132cb565b5180608084015280611385575b5050506040516109d481612c20565b6109dd856132be565b518152845160011015611046576040850151602082015284516002101561104657606085015160408201528451600310156110465760808501516060820152845160041015611046576003610a3f8f6108569060a0890151608086015261312e565b50016000915b6005831061136f57505050610a5c60018701612eda565b91821960051161105c57610a8393610a788694600501856132cb565b519660018901613de8565b610ab5610aaa610aa4610a958d61312e565b506000198701906004016136e4565b5061332f565b9260208401516134e1565b80602084015260056000198501101561104657600784015410611334578290828b600092610ae1613457565b5060005b60018601811061124c57505090610b10610b01610b169361312e565b506000198601906004016136e4565b90613700565b14610b2c575b5050610b27906132af565b61073e565b906020600592610b57610b488c9b989c9d99969d9a979a61312e565b506000198501906004016136e4565b50600160ff19825416179055828a8383015160405190815289858201527f416328325568dd8681e48de39e8d89a80ddf01a688fbcb49c28c621071c9333b60403392a40151610bb46001610baa8b61312e565b50019182546134e1565b90550361123257610bc48661312e565b50805460ff60a01b1916600160a01b17905560045434036111f9576005546040516000918291829134906001600160a01b03165af1610c016138f3565b6007546001600160a01b0316803b15610056576000809160a46040518094819363093ccd3160e41b83523360048401528b602484015260016044840152608060648401528160848401525af18015611146576111ea575b507fb08889abce443443404b2caf69aa3ccfb9ebfdf1ad2a634d06e11e24c1067938610c9d60018060a01b03600554169260405191829160408352604083019061319e565b943460208301521515940390a3856001610cb68261312e565b5001546040519081528460208201527f7f05a2f6290fe88fe25ed1665c50706361d709c5003e3067340b9053916fd70760403392a33360005260146020526040600020610d0381546132af565b9055610d17610d118761312e565b50613930565b9660005b6080890151600052600d60205260038110156111db576080890151600052610d59610d11610d4d8360406000206130b1565b90549060031b1c61312e565b6040808b01519101518091109081156111d2575b50610d8057610d7b906132af565b610d1b565b96889194976080829a9b94979b9895980151600052600d60205260025b81811161116e575090610ddf610dc68493608080960151600052600d60205260406000206130b1565b819391549060031b600019811b9283911b169119161790565b9055015160405190602082015260208152610df981612c69565b604051610e0581612c69565b60018152602036818301377ff8e1a15aba9398e019f0b49df1a4fde98ee17ae345cb5f6b5e2c27f5033e8ce7610e3a826132be565b526007546001600160a01b031690813b15610056579160405192839163b46f007160e01b8352604483016040600485015282518091526020606485019301906000905b80821061115257505050600083610ea3829694829460031984830301602485015261319e565b03925af1801561114657611137575b505b6003610ebf8861312e565b50015433600052601460205260406000209060405191610ede83612c4e565b805483526002600182015491826020860152015460408401526201518019811161105c576201518001811461112057600160408301525b6020820152336000526014602052604060002081518155602082015160018201556002604083015191015560005b60038110611072575b50503360005260146020526040600020600260405191610f6b83612c4e565b80548352600181015460208401520154604082015260005b60038110610f9a575b5050610b27905b9089610b1c565b8151600e8201546001600160a01b031660009081526014602052604090205410610fcc57610fc7906132af565b610f83565b905060025b818111610ff55750600e0180546001600160a01b03191633179055610b2789610f8c565b6001811061105c5760036000198201101561104657600d8101546001600160a01b0316906003811015611046576110419181600e01906001600160601b0360a01b825416179055613923565b610fd1565b634e487b7160e01b600052603260045260246000fd5b634e487b7160e01b600052601160045260246000fd5b604082015160018060a01b038260110154166000526014602052600260406000200154106110a8576110a3906132af565b610f43565b905060025b8181116110cf575060110180546001600160a01b031916331790558880610f4c565b6001811061105c576003600019820110156110465760108101546001600160a01b03169060038110156110465761111b9181601101906001600160601b0360a01b825416179055613923565b6110ad565b61112d60408301516132af565b6040830152610f15565b61114090612c3b565b88610eb2565b6040513d6000823e3d90fd5b8251855287955060209485019490920191600190910190610e7d565b9091506080830151600052600d6020526040600020906001811061105c5761119e6111ca926000198301906130b1565b90549060031b1c6080850151600052600d6020526111c3610dc68360406000206130b1565b9055613923565b908991610d9d565b9050158b610d6d565b50929596509296939093610eb4565b6111f390612c3b565b8a610c58565b60405162461bcd60e51b8152602060048201526011602482015270125b98dbdc9c9958dd081c185e5b595b9d607a1b6044820152606490fd5b9296610b2790611247879894979693966137e3565b610f93565b928194955061127b925090611266846080819401516134c1565b516112768360018b018484613a79565b613987565b81156112da575b60a0810151156112bd575b906112ac816112b2936080880151906112a683836134c1565b526134c1565b506132af565b8b8593928592610ae5565b92906112ac816112cf6112b2946132af565b95925092505061128d565b60a08101516112825760405162461bcd60e51b8152602060048201526024808201527f596f752073686f742074686520626f647920796f752073686f756c642070726f6044820152631d1958dd60e21b6064820152608490fd5b60405162461bcd60e51b8152602060048201526013602482015272151a5b59481b1a5b5a5d08195e18d959591959606a1b6044820152606490fd5b6001602082829351855501920192019190610a45565b81519083518092149283611458575b83611445575b83611432575b83611424575b5050159182611413575b50811561140b575b50156113c6578e80806109c5565b60405162461bcd60e51b815260206004820152601760248201527f496e76616c696420696e666c696768744d697373696c650000000000000000006044820152606490fd5b90508f6113b8565b60200151620f4240149150386113b0565b6080015114915038806113a6565b92506060830151606085015114926113a0565b925060408301516040850151149261139a565b9250602083015160208501511492611394565b60405162461bcd60e51b815260206004820152602560248201527f4f776e6572206f6620746869732070726f6f66206973206e6f7420746865207360448201526432b73232b960d91b6064820152608490fd5b60405162461bcd60e51b815260206004820152601060248201526f24b73b30b634b2103b32b934b334b2b960811b6044820152606490fd5b60405162461bcd60e51b815260206004820152601460248201527313195d995b08185b1c9958591e481cdbdb1d995960621b6044820152606490fd5b60405162461bcd60e51b815260206004820152601f60248201527f50726576696f7573206c6576656c206e6f742079657420636f6d706c657465006044820152606490fd5b005b60405162461bcd60e51b815260206004820152602660248201527f43616e206f6e6c7920736f6c76652072756e73206f6e207468652063757272656044820152656e742064617960d01b6064820152608490fd5b60405162461bcd60e51b8152602060048201526012602482015271149d5b88185b1c9958591e481cdbdb1d995960721b6044820152606490fd5b60405162461bcd60e51b815260206004820152602660248201527f4f6e6c7920746865206f776e6572206f66207468652072756e2063616e20736f6044820152651b1d99481a5d60d21b6064820152608490fd5b94506017549460405161166d81612c05565b60006020820152600060408201526000606082015260006080820152606060a08201523381526001431061105c57604051876020820152600060408201526000194301406060820152606081528060808101106001600160401b036080830111176119985760808101604052602081519101206060820152856080820152600160401b87101561199857600187016017556117078761312e565b6119ae578151815460208401516001600160a81b03199091166001600160a01b03929092169190911790151560a090811b60ff60a01b16919091178255604083015160018301556060830151600283015560808301516003830155820151805190600160401b82116119985760048301548260048501558083106118e8575b50602060049101920160005260206000206000905b8282106117ee57505050506060807fbe33ae7a5df03243155e17a5896a63473638d0a5042d1504b59ea59ff0f2b0a5920151604051908982528860208301526040820152a16117e9866137e3565b6106f8565b95839a939b94959892999b9791975161181681511515899060ff801983541691151516179055565b60208101516001890155604081015160028901556060810151600389016000915b600583106118d2575050506080015198600888019660009a5b60068c10156118b157600760208260c0600194518d815190558d86858301519101558d600260408301519101558d600360608301519101558d600460808301519101558d600560a0830151910155015160068d01550199019b019a97611850565b50959c9a92989399509550959299603260206001920194019201909161179b565b8051825560019283019290910190602001611837565b6118f190612eaa565b6118fa83612eaa565b906004850160005260206000209182015b818301811061191b575050611786565b600081556000600182015560006002820155600381015b60088201811061198c5750600881015b603282018110611955575060320161190b565b8060006007925560006001820155600060028201556000600382015560006004820155600060058201556000600682015501611942565b60008155600101611932565b634e487b7160e01b600052604160045260246000fd5b634e487b7160e01b600052600060045260246000fd5b60405162461bcd60e51b815260206004820152601260248201527110dbdb9d1c9858dd081a5cc81c185d5cd95960721b6044820152606490fd5b6001600160401b038235116100565760208091611a23366024863560a4350101612e0a565b8152019101906106ba565b36601f8501121561005657604051611a4581612c69565b803660808701116100565785905b608087018210611a70575050815260809390930192602001610622565b6020604091611a7f36856130c1565b815201910190611a53565b34610056576020366003190112610056576004356001600160401b03811161005657611ac5611ac0610680923690600401612e0a565b614319565b611ad260405180926131c3565bf35b34610056576020366003190112610056576004356001600160a01b0381169081900361005657611b02613257565b600580546001600160a01b031916919091179055005b3461005657602080600319360112610056576004356001600160401b03811161005657611b49903690600401612e0a565b9060405191611b5783612d0f565b610a40809336903760405190611b6c82612d0f565b8336833760005b60528110611ba6575050604051916000835b60528210611b91578585f35b82806001928651815201940191019092611b85565b80611bb4611bc192846132cb565b518160051b8501526132af565b611b73565b346100565760208060031936011261005657611bee6004611be7813561312e565b5001613401565b906040519181839283018184528251809152816040850193019160005b828110611c1a57505050500390f35b919390838194965051805115158352818101518284015260408101516040840152606080820151908401906000915b60058310611c7d57505050600192611c6d6080610640930151610100830190612fbc565b0195019101918594939192611c0b565b8151815287946001909301929182019101611c49565b34610056576020806003193601126100565760065460405163295d33a960e21b815260048035908201529190600090839060249082906001600160a01b03165afa91821561114657600092611cfc575b50611cf860405192828493845283019061319e565b0390f35b9091503d806000833e611d0f8183612dd2565b8101908281830312610056578051906001600160401b038211610056570181601f82011215610056578051611d43816138d8565b92611d516040519485612dd2565b81845284828401011161005657611d6d91848085019101613169565b9082611ce3565b346100565760203660031901126100565760043560175481101561005657600560a091601760005202807fc624b66cc0138b8fabc209247f72d758e1cf3343756d543badbf24212bed8c150154907fc624b66cc0138b8fabc209247f72d758e1cf3343756d543badbf24212bed8c16810154907fc624b66cc0138b8fabc209247f72d758e1cf3343756d543badbf24212bed8c187fc624b66cc0138b8fabc209247f72d758e1cf3343756d543badbf24212bed8c178201549101549160ff60405194600180881b0381168652861c1615156020850152604084015260608301526080820152f35b34610056576020366003190112610056576004356001600160a01b0381169081900361005657611e89613257565b47907fb08889abce443443404b2caf69aa3ccfb9ebfdf1ad2a634d06e11e24c1067938611ed76000808060405187875af1611ec26138f3565b9060405192839260408452604084019061319e565b9560208301521515940390a3005b34610056576020366003190112610056576004356001600160401b03811161005657611f20611f1b6107c0923690600401612e0a565b614361565b611ad26040518092613106565b34610056576000366003190112610056576020600454604051908152f35b34610056576000366003190112610056576006546040516001600160a01b039091168152602090f35b3461005657611f8236612f4d565b9160018060a01b031660005260156020526040600020906000526020526040600020906007811015610056576020910154604051908152f35b34610056576020366003190112610056576020611fd9600435613635565b604051908152f35b346100565760203660031901126100565760043560058110156100565760209060080154604051908152f35b34610056576000366003190112610056576017546001811061105c5760209060405190600019018152f35b3461005657602080600319360112610056576004356001600160401b03811161005657612069903690600401612e0a565b906040519161207783612cf3565b610b8080933690376040519061208c82612cf3565b8336833760005b605c81106120c6575050604051916000835b605c82106120b1578585f35b828060019286518152019401910190926120a5565b80611bb46120d492846132cb565b612093565b34610056576000366003190112610056576000546040516001600160a01b039091168152602090f35b346100565760203660031901126100565761211b613257565b600480359055005b346100565760003660031901126100565760206040516204f1a08152f35b34610056576000366003190112610056576007546040516001600160a01b039091168152602090f35b3461005657610160366003190112610056576024356001600160a01b038116810361005657366063121561005657604051906121a582612c69565b608482368211610056576044905b82821061226a5750503660a31215610056576040516121d181612c69565b806101049236841161005657905b83821061225057505036610123121561005657604051916121ff83612c69565b826101449136831161005657905b82821061224057505035936001600160401b03851161005657612237611577953690600401612e0a565b93600435613de8565b813581526020918201910161220d565b602060409161225f36856130c1565b8152019101906121df565b81358152602091820191016121b3565b3461005657602080600319360112610056576004356001600160401b038111610056576122ab903690600401612e0a565b90604051916122b983612cd7565b6102c08093369037604051906122ce82612cd7565b8336833760005b60168110612308575050604051916000835b601682106122f3578585f35b828060019286518152019401910190926122e7565b80611bb461231692846132cb565b6122d5565b3461005657602036600319011261005657600435600381101561005657600e01546040516001600160a01b039091168152602090f35b346100565761235f36612e94565b9060005260166020526040600020600382101561005657602091612382916130b1565b905460405160039290921b1c6001600160a01b03168152f35b34610056576000366003190112610056576123b4613257565b600080546001600160a01b0319811682556040519082906001600160a01b03167f8be0079c531659141344cd1fd0a4f28419497f9722a3daafe3b4186f6b6457e08284a3f35b34610056576020366003190112610056576001600160a01b0361241b612f37565b16600052601460205260606040600020805490600260018201549101549060405192835260208301526040820152f35b3461005657602080600319360112610056576004356001600160401b0381116100565761247c903690600401612e0a565b906040519161248a83612cbb565b610cc080933690376040519061249f82612cbb565b8336833760005b606681106124d9575050604051916000835b606682106124c4578585f35b828060019286518152019401910190926124b8565b80611bb46124e792846132cb565b6124a6565b3461005657602036600319011261005657600435600381101561005657601101546040516001600160a01b039091168152602090f35b3461005657600036600319011261005657602060ff600354166040519015158152f35b34610056576000366003190112610056576020611fd9620151804206426132df565b34610056576020366003190112610056576004356001600160401b038111610056576125a261259d610900923690600401612e0a565b6143a9565b611ad26040518092613089565b34610056576020366003190112610056576004356001600160a01b03811690819003610056576125dd613257565b600780546001600160a01b031916919091179055005b506125fc612f77565b61000e565b34610056576101403660031901126100565761261c36613028565b60e435906001600160401b0382116100565761263f611577923690600401612e0a565b9061012435916101043591613a79565b34610056576000366003190112610056576020604051614e208152f35b34610056576101203660031901126100565761268736613028565b60e4356001600160401b0381116100565760e0916126ac6126b6923690600401612e0a565b6101043591613987565b611ad2604051809260c08091805184526020810151602085015260408101516040850152606081015160608501526080810151608085015260a081015160a08501520151910152565b346100565761056061271961271336612e94565b906134ed565b6127266040518093612fbc565b610540820152f35b34610056576020366003190112610056576004356001600160401b03811161005657612769612764610540923690600401612e0a565b6142d1565b611ad26040518092612f94565b3461005657600036600319011261005657602060405160148152f35b34610056576127a036612e94565b906000526018602052604060002090600052602052602060018060a01b0360406000205416604051908152f35b34610056576060366003190112610056576020611fd9604435602435600435613546565b34610056576020366003190112610056576020611fd960043561425d565b346100565760403660031901126100565760e06126b660243560043561356f565b34610056576000366003190112610056576128496136c2565b62093a8019811161105c57611fd960209162093a804291016132df565b346100565761287436612f4d565b9061287d613257565b60009081526018602090815260408083209383529290522080546001600160a01b0319166001600160a01b03909216919091179055005b34610056576128c236612e94565b906000526002602052604060002090604051916128de83612c69565b546001600160a01b0380821680855260a09290921c6020850152929015612935575b6001600160601b03602082015116826000190481118315151661105c5760409361271092511692845193845202046020820152f35b5060405161294281612c69565b600154838116825260a01c6020820152612900565b3461005657602036600319011261005657612970612f37565b612978613257565b600680546001600160a01b0319166001600160a01b0392909216919091179055005b3461005657600036600319011261005657602060405162093a808152f35b3461005657602036600319011261005657602060046129d7813561312e565b500154604051908152f35b34610056576000366003190112610056576005546040516001600160a01b039091168152602090f35b3461005657602080600319360112610056576004356001600160401b03811161005657612a3c903690600401612e0a565b9060405191612a4a83612c9f565b610e00809336903760405190612a5f82612c9f565b8336833760005b60708110612a99575050604051916000835b60708210612a84578585f35b82806001928651815201940191019092612a78565b80611bb4612aa792846132cb565b612a66565b346100565760203660031901126100565760043580151580910361005657612ad2613257565b60ff8019600354169116176003556000604051f35b34610056576000366003190112610056576020611fd96136c2565b34610056576020611fd9612b1536612e94565b90613691565b346100565760203660031901126100565760043563ffffffff60e01b81168091036100565760209063152a902d60e11b8114908115612b5f57506040519015158152f35b6301ffc9a760e01b14905082610432565b34610056576020366003190112610056576004356001600160401b03811161005657612bab612ba6610400923690600401612e0a565b61427c565b611ad26040518092612e68565b3461005657606036600319011261005657600435612bd8816024356132df565b8015612bef57602091611fd99160443506906134e1565b634e487b7160e01b600052601260045260246000fd5b60c081019081106001600160401b0382111761199857604052565b60a081019081106001600160401b0382111761199857604052565b6001600160401b03811161199857604052565b606081019081106001600160401b0382111761199857604052565b604081019081106001600160401b0382111761199857604052565b60e081019081106001600160401b0382111761199857604052565b610e0081019081106001600160401b0382111761199857604052565b610cc081019081106001600160401b0382111761199857604052565b6102c081019081106001600160401b0382111761199857604052565b610b8081019081106001600160401b0382111761199857604052565b610a4081019081106001600160401b0382111761199857604052565b608081019081106001600160401b0382111761199857604052565b61040081019081106001600160401b0382111761199857604052565b61054081019081106001600160401b0382111761199857604052565b61068081019081106001600160401b0382111761199857604052565b6107c081019081106001600160401b0382111761199857604052565b61090081019081106001600160401b0382111761199857604052565b90601f801991011681019081106001600160401b0382111761199857604052565b6001600160401b0381116119985760051b60200190565b81601f8201121561005657803591612e2183612df3565b92612e2f6040519485612dd2565b808452602092838086019260051b820101928311610056578301905b828210612e59575050505090565b81358152908301908301612e4b565b916000915b60209081841015612e8d5790806001928651815201940192019192612e6d565b5050915050565b6040906003190112610056576004359060243590565b7f051eb851eb851eb851eb851eb851eb851eb851eb851eb851eb851eb851eb851e811160011661105c5760320290565b80600019046005118115151661105c5760050290565b6001600160ff1b03811160011661105c5760011b90565b7f3333333333333333333333333333333333333333333333333333333333333333811160011661105c5760050290565b600435906001600160a01b038216820361005657565b6060906003190112610056576004356001600160a01b038116810361005657906024359060443590565b503461005657600036600319011261005657602060405160028152f35b6000915b602a8310612fa557505050565b600190825181526020809101920192019190612f98565b906000905b60068210612fce57505050565b602060e08261301c600194875160c08091805184526020810151602085015260408101516040850152606081015160608501526080810151608085015260a081015160a08501520151910152565b01930191019091612fc1565b60e0906003190112610056576040519060e082018281106001600160401b0382111761199857604052816004358152602435602082015260443560408201526064356060820152608435608082015260a43560a082015260c060c435910152565b6000915b6048831061309a57505050565b60019082518152602080910192019201919061308d565b6003821015611046570190600090565b9080601f8301121561005657604051916130da83612c69565b82906040810192831161005657905b8282106130f65750505090565b81358152602091820191016130e9565b6000915b603e831061311757505050565b60019082518152602080910192019201919061310a565b601754811015611046576005906017600052027fc624b66cc0138b8fabc209247f72d758e1cf3343756d543badbf24212bed8c150190600090565b918091926000905b828210613189575011613182575050565b6000910152565b91508060209183015181860152018291613171565b906020916131b781518092818552858086019101613169565b601f01601f1916010190565b6000915b603483106131d457505050565b6001908251815260208091019201920191906131c7565b81601f820112156100565780359061320282612df3565b9260409261321284519586612dd2565b808552602091828087019260061b85010193818511610056578301915b84831061323f5750505050505090565b83869161324c84866130c1565b81520192019161322f565b6000546001600160a01b0316330361326b57565b606460405162461bcd60e51b815260206004820152602060248201527f4f776e61626c653a2063616c6c6572206973206e6f7420746865206f776e65726044820152fd5b600019811461105c5760010190565b8051156110465760200190565b80518210156110465760209160051b010190565b81811061105c570390565b60405191906000835b600582106133195750505060a082018281106001600160401b0382111761199857604052565b60016020819285548152019301910190916132f3565b90604080519261333e84612c20565b8360ff825416151581526001938483015491602092838201526002908185015486820152600361336f8187016132ea565b906060918284015287519761338389612c05565b60009760080195895b6006808b10156133ee57898d926007928651906133a882612c84565b8c548252858d0154848301528b8d015488830152888d01548a83015260048d0154608083015260058d015460a08301528c015460c082015281520198019901989661338c565b5050995050505092505050608091500152565b90815461340d81612df3565b9261341b6040519485612dd2565b818452600090815260208082208186015b84841061343a575050505050565b6032836001926134498561332f565b81520192019301929061342c565b6040519061346482612c84565b8160c06000918281528260208201528260408201528260608201528260808201528260a08201520152565b6040519061349c82612c05565b8160005b60c081106134ac575050565b6020906134b7613457565b81840152016134a0565b9060068110156110465760051b0190565b6127108119811161105c570190565b8119811161105c570190565b91906134f761348f565b9260005b82811115613514575050600119811161105c5760010190565b8061352c81613527613541948787613546565b61356f565b61353682886134c1565b526112ac81876134c1565b6134fb565b916040519160208301938452604083015260608201526060815261356981612d2b565b51902090565b61362d9061357b613457565b50613596613587613457565b938085528260c0860152613635565b60a0840152604051906020918281019182528281526135b481612c69565b519020620f424090818106838601526040518381019182528381526135d881612c69565b51902090810660408501526040518281019182528281526135f881612c69565b519020614e209161360a8383066134d2565b606086015260405190808201928352815261362481612c69565b519020066134d2565b608082015290565b61367860ff9160066040519161364a83612c05565b60248352601b60208401526016604084015260116060840152600c6080840152600760a084015206906134c1565b51166103e890806000190482118115151661105c570290565b906001431061105c576040519060208201928352604082015260001943014060608201526060815261356981612d2b565b6204f1a0421061105c576136e162093a806204f19f19420106426132df565b90565b8054821015611046576000526032602060002091020190600090565b92906119ae57613721829392511515839060ff801983541691151516179055565b6020918284015192600193848301556040948581015193600294858501556060918281015160039081870190896000915b600583106137cf575050505060086080809301519601936000965b6006808910156137c157815180518855888101518c8901558c8101518b890155838101518589015585810151600489015560a0810151600589015560c001519087015596890196600790950194860161376d565b505050505095505050505050565b80518455928101929101908a908801613752565b60036137ee8261312e565b5001549060046137fd8261312e565b500154600119811161105c57600101906040519261381a84612c20565b600084526000602085015260408401926000845260405161383a81612c20565b60a036823760608601526080850161385061348f565b815261385c8285613691565b855261386882846134ed565b50905260046138768461312e565b5001938454600160401b811015611998577f70f3b6a85b7a5047df9e61440f8b6480a7cd8a96f849a4092d0a22303a5dbb0f96610b108260809860016138be950181556136e4565b5190604051938452602084015260408301526060820152a1565b6001600160401b03811161199857601f01601f191660200190565b3d1561391e573d90613904826138d8565b916139126040519384612dd2565b82523d6000602084013e565b606090565b801561105c576000190190565b9060405161393d81612c05565b60a06139826004839560ff8154600180871b0381168752851c161515602086015260018101546040860152600281015460608601526003810154608086015201613401565b910152565b9190613991613457565b5061399b82612eda565b916005928019841161105c576139b3908401836132cb565b5160208501526139c281612eda565b8019841161105c576001198482011161105c5760066139e29101836132cb565b5160408501526139f181612eda565b8019841161105c576002198482011161105c576007613a119101836132cb565b516060850152613a2081612eda565b908119841161105c576003198483011161105c57613a446008613a4f9301846132cb565b516080860152612eda565b918219811161105c576004199083011161105c576009613a709201906132cb565b5160a082015290565b9291906020928385015190613a8d84612f07565b906005918019831161105c57613aae90613aa683612eda565b9084016134e1565b600219939084811161105c576002613ac79101866132cb565b5103613d3e576040870151613adb86612f07565b8019841161105c57613af890613af084612eda565b9085016134e1565b600119811161105c5784600182011161105c576003613b189101866132cb565b5103613d0457606087015196613b2d86612f07565b8019841161105c57613b4290613af084612eda565b9784891161105c578460028a011161105c57613b626004809a01876132cb565b5103613ccd576080810151613b7687612f07565b80198511613cb857613b9390613b8b85612eda565b9086016134e1565b6003198111613cb857856003820111613cb85784613bb29101876132cb565b5103613c815760a0613bc691015195612f07565b9081198311613c6c5790613bdd613be49392612eda565b91016134e1565b906004198211613c575785820111613c4257906006613c049201906132cb565b5103613c0e575050565b60405162461bcd60e51b815291820152600e60248201526d496e76616c69642072616469757360901b604482015260649150fd5b601185634e487b7160e01b6000525260246000fd5b601186634e487b7160e01b6000525260246000fd5b601188634e487b7160e01b6000525260246000fd5b60405162461bcd60e51b8152808901889052601060248201526f496e76616c696420766563746f72207960801b6044820152606490fd5b60118a634e487b7160e01b6000525260246000fd5b60405162461bcd60e51b8152808901889052601060248201526f092dcecc2d8d2c840eccac6e8dee440f60831b6044820152606490fd5b60405162461bcd60e51b8152600481018790526012602482015271496e76616c696420706f736974696f6e207960701b6044820152606490fd5b60405162461bcd60e51b8152600481018790526012602482015271092dcecc2d8d2c840e0dee6d2e8d2dedc40f60731b6044820152606490fd5b90816020910312610056575180151581036100565790565b6000915b60028310613da157505050565b600190825181526020809101920192019190613d94565b906000905b60028210613dca57505050565b6020604082613ddc6001948751613d90565b01930191019091613dbd565b939091929360028114600014613edf57509161050491613e53613e3494613e48613e146020989961427c565b91613e3e6040519a8b998a98630f3022c960e21b8a5260048a0190613d90565b6044880190613db8565b60c4860190613d90565b610104840190612e68565b6001600160a01b03165afa90811561114657600091613eb1575b5015613e7557565b60405162461bcd60e51b815260206004820152601460248201527324b73b30b634b21019103137b23c90383937b7b360611b6044820152606490fd5b613ed2915060203d8111613ed8575b613eca8183612dd2565b810190613d78565b38613e6d565b503d613ec0565b60038103613faa57509161064491613f2e613e3494613f23613f03602098996142d1565b91613e3e6040519a8b998a986371dd4db160e11b8a5260048a0190613d90565b610104840190612f94565b6001600160a01b03165afa90811561114657600091613f8c575b5015613f5057565b60405162461bcd60e51b815260206004820152601460248201527324b73b30b634b21019903137b23c90383937b7b360611b6044820152606490fd5b613fa4915060203d8111613ed857613eca8183612dd2565b38613f48565b929390600495848780961460001461407e57509261400261078493613ff760209794613e3e613fdc613e349b99614319565b936040519b8c9a8b99632a6d5ed560e01b8b528a0190613d90565b6101048401906131c3565b6001600160a01b03165afa90811561114657600091614060575b50156140255750565b60649060206040519162461bcd60e51b8352820152601460248201527324b73b30b634b2101a103137b23c90383937b7b360611b6044820152fd5b614078915060203d8111613ed857613eca8183612dd2565b3861401c565b600581036141485750926140cc6108c4936140c160209794613e3e6140a6613e349b99614361565b936040519b8c9a8b9963ea59061d60e01b8b528a0190613d90565b610104840190613106565b6001600160a01b03165afa9081156111465760009161412a575b50156140ef5750565b60649060206040519162461bcd60e51b8352820152601460248201527324b73b30b634b2101a903137b23c90383937b7b360611b6044820152fd5b614142915060203d8111613ed857613eca8183612dd2565b386140e6565b6006919293949550146000146142195760209361419d613e349694614192610a0495613e3e6141778c976143a9565b936040519b8c9a8b996311b5352360e01b8b528a0190613d90565b610104840190613089565b6001600160a01b03165afa908115611146576000916141fb575b50156141c05750565b60649060206040519162461bcd60e51b8352820152601460248201527324b73b30b634b2101b103137b23c90383937b7b360611b6044820152fd5b614213915060203d8111613ed857613eca8183612dd2565b386141b7565b60405162461bcd60e51b8152602081880152601860248201527f496e76616c6964206e756d626572206f6620626f6469657300000000000000006044820152606490fd5b600c811061105c57600a90600b1901046001811061105c576000190190565b9060405161428981612d46565b61040080913690376040519061429e82612d46565b36823760005b602081106142b157509150565b806142bf6142cc92866132cb565b518160051b8401526132af565b6142a4565b906040516142de81612d62565b6105408091369037604051906142f382612d62565b36823760005b602a811061430657509150565b806142bf61431492866132cb565b6142f9565b9060405161432681612d7e565b61068080913690376040519061433b82612d7e565b36823760005b6034811061434e57509150565b806142bf61435c92866132cb565b614341565b9060405161436e81612d9a565b6107c080913690376040519061438382612d9a565b36823760005b603e811061439657509150565b806142bf6143a492866132cb565b614389565b906040516143b681612db6565b6109008091369037604051906143cb82612db6565b36823760005b604881106143de57509150565b806142bf6143ec92866132cb565b6143d156fea26469706673582212204001863979e4f4694fa1b36381823478399113603bc7a804f72698f9616d617964736f6c634300080f0033c624b66cc0138b8fabc209247f72d758e1cf3343756d543badbf24212bed8c15",
  "linkReferences": {},
  "deployedLinkReferences": {}
}