{
  "_format": "hh-sol-artifact-1",
  "contractName": "Groth16Verifier",
  "sourceName": "contracts/Game_10_50Verifier.sol",
  "abi": [
    {
      "inputs": [
        {
          "internalType": "uint256[2]",
          "name": "_pA",
          "type": "uint256[2]"
        },
        {
          "internalType": "uint256[2][2]",
          "name": "_pB",
          "type": "uint256[2][2]"
        },
        {
          "internalType": "uint256[2]",
          "name": "_pC",
          "type": "uint256[2]"
        },
        {
          "internalType": "uint256[101]",
          "name": "_pubSignals",
          "type": "uint256[101]"
        }
      ],
      "name": "verifyProof",
      "outputs": [
        {
          "internalType": "bool",
          "name": "",
          "type": "bool"
        }
      ],
      "stateMutability": "view",
      "type": "function"
    }
  ],
  "bytecode": "0x60808060405234610016576143ce908161001c8239f35b600080fdfe6080604052600436101561001257600080fd5b6000803560e01c63abc84df51461002857600080fd5b3461054457610da03660031901126105445761004336610547565b3660c4116105405761005436610559565b90610da436811161053c5791610538916105336020959461040060405261007d61010435610567565b61008961012435610567565b61009561014435610567565b6100a161016435610567565b6100ad61018435610567565b6100b96101a435610567565b6100c56101c435610567565b6100d16101e435610567565b6100dd61020435610567565b6100e961022435610567565b6100f561024435610567565b61010161026435610567565b61010d61028435610567565b6101196102a435610567565b6101256102c435610567565b6101316102e435610567565b61013d61030435610567565b61014961032435610567565b61015561034435610567565b61016161036435610567565b61016d61038435610567565b6101796103a435610567565b6101856103c435610567565b6101916103e435610567565b61019d61040435610567565b6101a961042435610567565b6101b561044435610567565b6101c161046435610567565b6101cd61048435610567565b6101d96104a435610567565b6101e56104c435610567565b6101f16104e435610567565b6101fd61050435610567565b61020961052435610567565b61021561054435610567565b61022161056435610567565b61022d61058435610567565b6102396105a435610567565b6102456105c435610567565b6102516105e435610567565b61025d61060435610567565b61026961062435610567565b61027561064435610567565b61028161066435610567565b61028d61068435610567565b6102996106a435610567565b6102a56106c435610567565b6102b16106e435610567565b6102bd61070435610567565b6102c961072435610567565b6102d561074435610567565b6102e161076435610567565b6102ed61078435610567565b6102f96107a435610567565b6103056107c435610567565b6103116107e435610567565b61031d61080435610567565b61032961082435610567565b61033561084435610567565b61034161086435610567565b61034d61088435610567565b6103596108a435610567565b6103656108c435610567565b6103716108e435610567565b61037d61090435610567565b61038961092435610567565b61039561094435610567565b6103a161096435610567565b6103ad61098435610567565b6103b96109a435610567565b6103c56109c435610567565b6103d16109e435610567565b6103dd610a0435610567565b6103e9610a2435610567565b6103f5610a4435610567565b610401610a6435610567565b61040d610a8435610567565b610419610aa435610567565b610425610ac435610567565b610431610ae435610567565b61043d610b0435610567565b610449610b2435610567565b610455610b4435610567565b610461610b6435610567565b61046d610b8435610567565b610479610ba435610567565b610485610bc435610567565b610491610be435610567565b61049d610c0435610567565b6104a9610c2435610567565b6104b5610c4435610567565b6104c1610c6435610567565b6104cd610c8435610567565b6104d9610ca435610567565b6104e5610cc435610567565b6104f1610ce435610567565b6104fd610d0435610567565b610509610d2435610567565b610515610d4435610567565b610521610d6435610567565b61052d610d8435610567565b35610567565b613c0c565b8152f35b8380fd5b5080fd5b80fd5b9060049160441161055457565b600080fd5b9060c4916101041161055457565b7f30644e72e131a029b85045b68181585d97816a916871ca8d3c208c16d87cfd47111561059057565b6000805260206000f35b604051907f073411722d4a20ca35935593939720a28ef5d14f236e0bca017285ad8daa97d482527f1628427836c8cf0e5ad2d4e8928022148f4864304ce0bcb9bac0e951af28194b6020830152604082019081526107cf196040836060816007855a01fa156105905760409260066080939284938451905260a05160608401525a01fa1561059057565b604051907f022a5e31d7d18700ec2229f4cf7189555c6c2f46a4ce6df3671352030a27e6e082527f090156d84c5ab64da4b7978aa8c75ad26bf030c3c24cb5ab7a8928436c4ce0436020830152604082019081526107cf196040836060816007855a01fa156105905760409260066080939284938451905260a05160608401525a01fa1561059057565b604051907f02b6be555ef6aa20b01eb3fcb468608bfb1de9149e613002e942ea33c96531c282527f08452ce03d71c7b54e7229096567afeb5a3b806a2b1576a5e387ad92fd4a05476020830152604082019081526107cf196040836060816007855a01fa156105905760409260066080939284938451905260a05160608401525a01fa1561059057565b604051907f0a1cd06dbf16468db962e4421dd97782f31115d5364d315440a73c8572d758b182527f2cc491a397e15526de22389d57aee9dc5838d7f2a9164810792a7aa6f57568a36020830152604082019081526107cf196040836060816007855a01fa156105905760409260066080939284938451905260a05160608401525a01fa1561059057565b604051907f1a69dbed8d61b539f40d1ebf829c709e727f045eb018ec25cbf15395975be9c782527f04ad55ae643bd764c8da7a5e5db7b0bddb3cd5c5c9bf2e25647ae47f20dde5336020830152604082019081526107cf196040836060816007855a01fa156105905760409260066080939284938451905260a05160608401525a01fa1561059057565b604051907f1fb2d085a8ee02678c0e008a73a1553a377b277322619b8374c64984b7e476d082527f237c0a9d2acb230c3cfa15fec3ab318d4a437184e23b6a841db21b96c5cef7f16020830152604082019081526107cf196040836060816007855a01fa156105905760409260066080939284938451905260a05160608401525a01fa1561059057565b604051907f29ad904da0c3745f67607539ed895ff44dfbf1b59917c43f2a962edfb2a8417182527f03522f90c470ec6705c017e86b1d4cff21b876089cfe18db02804daaa434b9d26020830152604082019081526107cf196040836060816007855a01fa156105905760409260066080939284938451905260a05160608401525a01fa1561059057565b604051907f10853f79d751b888e6843085839dbb96bfa4569d3b3514c7c607df6fc1a9b47482527f227c2d32ae44b3342d4d51660c95a5258718b0b0c6a57fcd3b0cd2f6507d75756020830152604082019081526107cf196040836060816007855a01fa156105905760409260066080939284938451905260a05160608401525a01fa1561059057565b604051907f0588d5fd5b641beb123dc32349ffcdda3212d7d47cd1ca28d602689dce67f5af82527f1a5d7be2558696b59c1a28929e18bf9da2c03a08b11112ae04b2bb082e472feb6020830152604082019081526107cf196040836060816007855a01fa156105905760409260066080939284938451905260a05160608401525a01fa1561059057565b604051907f271c69b49e31ac0e15363c5cb550861bc3810ea3224f3646464d2a3d8d0dc22b82527f1aef6512781e93e4ed69375b0b83470035d103d12d38c066d96ad8d316a2a5606020830152604082019081526107cf196040836060816007855a01fa156105905760409260066080939284938451905260a05160608401525a01fa1561059057565b604051907f1aebb3689917de590417e3898c2303ce3fbba0cf5072d2303f04a47b6abca6ab82527f2d60b5fd099b1b0c406d752f79d0e97864425121725c19fee05ff113cc7a89896020830152604082019081526107cf196040836060816007855a01fa156105905760409260066080939284938451905260a05160608401525a01fa1561059057565b604051907f1eced2a0269c1ee63ac3f85e93ec48c16c116a53d3bf6133873251f60cd5a7e882527f1139830b8b4bf1b3128c44566fb97aa5ef53c1d287da19a06808a61f70ff0ac86020830152604082019081526107cf196040836060816007855a01fa156105905760409260066080939284938451905260a05160608401525a01fa1561059057565b604051907f249263c1015e42a8ee4d4632c21019b489fd1ba4a671efde7d8f7fc89c93081082527f1174c39e789859c64c84da80152da3cb4ccf468d325ba3f46dec8aaa199a09a56020830152604082019081526107cf196040836060816007855a01fa156105905760409260066080939284938451905260a05160608401525a01fa1561059057565b604051907f0aa680fc30f792c8d77f159d059d9e9ae1361d5eea36ec04ff21bb620ee868fa82527f23f2126f32ababf72a3cc745e4794957c3b8c892a9bbb6f413e8e08b71d612d96020830152604082019081526107cf196040836060816007855a01fa156105905760409260066080939284938451905260a05160608401525a01fa1561059057565b604051907f1a807a679f8a809ff6ef27a68c59d2ecc2d3df0321f8ac7f531a9c370f5de00282527f2c3b4b53ea15a90e61c5d68eada4503ac5b6e2d230fa7e70bb9c7a178e2394966020830152604082019081526107cf196040836060816007855a01fa156105905760409260066080939284938451905260a05160608401525a01fa1561059057565b604051907f13596ac6c356c425fd17450d9f460221d9fed28e6bc36d170b680d9f8311054682527f12c352fbf2ee47a0e783080f4c219f925eeef4b3c6c3b125cd193106c6f3ddee6020830152604082019081526107cf196040836060816007855a01fa156105905760409260066080939284938451905260a05160608401525a01fa1561059057565b604051907f14b80c113ae44bc8e262b62ebc3850b451beb664624e4388950c85cd73bb87ca82527f012e2ebdf59a115c422d3c614bf9419803244f457c7bb7757cf08e67892025a16020830152604082019081526107cf196040836060816007855a01fa156105905760409260066080939284938451905260a05160608401525a01fa1561059057565b604051907f253380d8d094bd78a1321fa940f09d62fd8b6589a4993bd2ca2dc4dfd20e86f082527f2805d3127131343c5290ab0f0733fed54e3b9196164d2d0f6e1425b723250a766020830152604082019081526107cf196040836060816007855a01fa156105905760409260066080939284938451905260a05160608401525a01fa1561059057565b604051907f1fb2dff88f7caa436aa9edb5e31d1af9e4feedff8e76f37d844dd553807c501682527f154718e1f2f45e2afbdb55d470a04563b8f46cb6a628be5c03453c3efa11fe396020830152604082019081526107cf196040836060816007855a01fa156105905760409260066080939284938451905260a05160608401525a01fa1561059057565b604051907f06f7a87f16d2e8d398ee50409320237fd7008755398c95cb79ac2848e0e9e78882527f15ea46514d2c5316e6e4b8b51dcf5a6418cf37a91a0af2d76456a4c6cf147ade6020830152604082019081526107cf196040836060816007855a01fa156105905760409260066080939284938451905260a05160608401525a01fa1561059057565b604051907f0174258cc86825f9905798d67505ec4ed4ca96ebc8486d8459b30482e236a4b382527f2aaf9723e1531da6bf80023cadd196de4afe528ce27b990b74e66a84f0051be36020830152604082019081526107cf196040836060816007855a01fa156105905760409260066080939284938451905260a05160608401525a01fa1561059057565b604051907f247cf0c81c119b9a51ea4aa565f60dd83f157f527c161ab7c49cb8998bcefdbe82527f104e9c0c86f4865c292189ab9c31edbc68e1fdfb8ed720249af8dec95063a4406020830152604082019081526107cf196040836060816007855a01fa156105905760409260066080939284938451905260a05160608401525a01fa1561059057565b604051907f020917da4512d3a532c7270045cd4ea6beec7f05cc3b3936578d5b0b3176cc0182527f182737c949e3726ba71d558091e9ef05e869655afa0f5227002a25c99220318f6020830152604082019081526107cf196040836060816007855a01fa156105905760409260066080939284938451905260a05160608401525a01fa1561059057565b604051907f162fab4b9e1ae4cea8733eb4521fccb74ae3ab0a6155dbabb714763dbb0132ed82527f19507524e7c1c1134e1f23359453922a32fd6fc2337d7c14916f89605045880a6020830152604082019081526107cf196040836060816007855a01fa156105905760409260066080939284938451905260a05160608401525a01fa1561059057565b604051907f19859ccc7c88ff619823a58acaa44277339bebaa5d14d27e6a24ce9385f6d5a482527f03dd29ed5437fbb8de02889e420103b01809470b2ac5d584be2421282d535ccb6020830152604082019081526107cf196040836060816007855a01fa156105905760409260066080939284938451905260a05160608401525a01fa1561059057565b604051907f1871abd4208a6afe1dd44ec9320c921c8cb92355424b208937eb5fb06564405982527f0cac3332ff9100c1ac962ad60b05ae7ce78fac6cf431a0385c2f7dcca2415f1b6020830152604082019081526107cf196040836060816007855a01fa156105905760409260066080939284938451905260a05160608401525a01fa1561059057565b604051907f02adc277bc9ae85e358ad2ac19955abae97ac9b294062d4ad8e9a67b075b354582527f1cd2f10dcc7d08bef3413aff46040b08f4c60ae193d0cc137dc89792acea68106020830152604082019081526107cf196040836060816007855a01fa156105905760409260066080939284938451905260a05160608401525a01fa1561059057565b604051907f220950ba3b24e6ff913db6d93cdd8a1bc1f68cbb435f489cb986ee63c27c49c682527f067a3cf2ec4b2e2a59f1065df744e6fda1e46c67ba00c046068a3a5dba1267e76020830152604082019081526107cf196040836060816007855a01fa156105905760409260066080939284938451905260a05160608401525a01fa1561059057565b604051907f0b508e3a4704d29c97824270f486596e3d781cd1acc75211327b6bebf510bebe82527f25411f50b4a0b6c199ebfd4ed86581736804fc8080d2132d73a59bbff76866d06020830152604082019081526107cf196040836060816007855a01fa156105905760409260066080939284938451905260a05160608401525a01fa1561059057565b604051907f0a2cc358b95840719878b396032a21ddb76d23f3f5a6348ec9eb8d2604b46e7082527f0c8a3d5c47119eeff54e06ccd75c6e5296ff3157d1fa9d65f4b400bc90de847c6020830152604082019081526107cf196040836060816007855a01fa156105905760409260066080939284938451905260a05160608401525a01fa1561059057565b604051907f2873b52b260fb524af45cc927c871ad5b338e9dae4b93faf28ba25ea4e2e251282527f0587bc75590219097fa72f88a5e8aa1c8a886b128ce38207b402f55c5234fab56020830152604082019081526107cf196040836060816007855a01fa156105905760409260066080939284938451905260a05160608401525a01fa1561059057565b604051907f0a786b291d1332ce4e78aba9b7b56b34ee1775cb305d15bfbf581c873b24ce0182527f0ea483253851740327be572f4d94cd111bcfa7435b436fbf207f5f99ae58df426020830152604082019081526107cf196040836060816007855a01fa156105905760409260066080939284938451905260a05160608401525a01fa1561059057565b604051907f0c2f329de9750fe1918a0d115f1f8e9949a2400fa4fa093c782e76a7843d14f282527f0a1634969bb7b0a0fb6778859e280359addc9770f42addf4e3476ed697c8f0bd6020830152604082019081526107cf196040836060816007855a01fa156105905760409260066080939284938451905260a05160608401525a01fa1561059057565b604051907f04c2401aa15fc76661297cafeb600740084ba2c6780a7dfb7c3e1c6c1c3cd3cc82527f1b974b07cd550f625c714902650be61c0081c8e291de6ad584380a02402ad2b96020830152604082019081526107cf196040836060816007855a01fa156105905760409260066080939284938451905260a05160608401525a01fa1561059057565b604051907f1d3aef957d9cab692824808e1f2959a26a2621260376d83490dd2fe20803829282527f0f1fbb3126aa93cc0f2485f023e6c62ef4159a404358942b28c3902c0bc6efbd6020830152604082019081526107cf196040836060816007855a01fa156105905760409260066080939284938451905260a05160608401525a01fa1561059057565b604051907f183f1149ca4716aa1e48f8786ba94ed4c6a910f295d18ec8b3daf38294e350d182527f23290f78dcec17eb08b615042e21dac504566cd483e4141bfaff21d959984bdb6020830152604082019081526107cf196040836060816007855a01fa156105905760409260066080939284938451905260a05160608401525a01fa1561059057565b604051907f1ead0937356c43bac7795fab9fd862b1b4a1fb18c71a980aa290c06fc436e59382527f23a410e3115d5fe8b2a82cc4bd6821d9f23efb8784b25790f752fa4dea249b6f6020830152604082019081526107cf196040836060816007855a01fa156105905760409260066080939284938451905260a05160608401525a01fa1561059057565b604051907f2447c995383e176a109e9484a97250d1ba9b81aff53466f45b5b7a83238a3bcd82527f12c16d70a845dc0b1c07a1d7db4b200d66e737b88171037e0801185b8fb130a36020830152604082019081526107cf196040836060816007855a01fa156105905760409260066080939284938451905260a05160608401525a01fa1561059057565b604051907f0bcf46e67660dcdafc84f85c66262e6fdbab72a1a370513369534d9284faadd382527f2463e124046178b63935bf80223a741cc87ef4922fa142a3116ecd04c04b7bad6020830152604082019081526107cf196040836060816007855a01fa156105905760409260066080939284938451905260a05160608401525a01fa1561059057565b604051907f300272f4ac42d7307494f8ca0ac6f00158d6aaaeaa97e5882af7eb87ca159fe682527f2ef94e8b5d3a18d68065be4a5b3226963c6a370edb445d7d1cdf444eda3306cf6020830152604082019081526107cf196040836060816007855a01fa156105905760409260066080939284938451905260a05160608401525a01fa1561059057565b604051907f17ad6b045b7e936d0a9445bb1a6a8cdf7cc0b872e79a20aef66b3db670e0bfd082527f06ca6a3089ca4af74b2035163b6674c2b466c5c83208bc733c43dd08981a457b6020830152604082019081526107cf196040836060816007855a01fa156105905760409260066080939284938451905260a05160608401525a01fa1561059057565b604051907f2465ebbc0e38d2472dae687dbfed74da333597dfdc91c4a5fc0b1d7a692347df82527f1eabfe5fdc762d078c33242020a35d8b835f2cb4d77034aef983cff21138a8fc6020830152604082019081526107cf196040836060816007855a01fa156105905760409260066080939284938451905260a05160608401525a01fa1561059057565b604051907f2c1e1ed83705e7c99c81fa2e7838aa24f15861fc327de40150fd9a30cd505d4f82527f28a99e32767ab9ebec17343aa90d09777e1f7845a6b7fef6b8f1f0799071fa5c6020830152604082019081526107cf196040836060816007855a01fa156105905760409260066080939284938451905260a05160608401525a01fa1561059057565b604051907f24fc92a4b26c9cc7fc4f81af32f8d42f9aea582d098afe3f9399a8d16619de7982527f019043fecdb559d9b0d9145644429061b17967a31e9687262fd633756d74f62e6020830152604082019081526107cf196040836060816007855a01fa156105905760409260066080939284938451905260a05160608401525a01fa1561059057565b604051907f2c6c9e99727d94713656ec7d395005e3d0de140931d001311e1d52ab58e5733282527f20cc0dc78fb3d0eeec426caa6d37b848b93386aa12cd50b7bee6dfe302dcf05a6020830152604082019081526107cf196040836060816007855a01fa156105905760409260066080939284938451905260a05160608401525a01fa1561059057565b604051907f1db53b176cb265357978d52b1317c773ee15dd30cc1b4f1742bdb8ddc37657d482527f1920004553172294715f841f8abc803ef1f259a56d089709f4ddd44b4a09e2b16020830152604082019081526107cf196040836060816007855a01fa156105905760409260066080939284938451905260a05160608401525a01fa1561059057565b604051907f1d4e10927b06dac125013910946ceed1371867bc7f0d56c32af231ca97a72ef882527f2b8943b681190a79ff1c1dba6f2e7d5813341d9d56239b5309a0fe8b3248b1016020830152604082019081526107cf196040836060816007855a01fa156105905760409260066080939284938451905260a05160608401525a01fa1561059057565b604051907f0502d2c15d408c09aefc6f2f425f189bbc8f39629f0c3d187963c5739de6a90582527f11b653e9edf447552d23fec03b8ba649916033e95904c6ed840e52c1834f55676020830152604082019081526107cf196040836060816007855a01fa156105905760409260066080939284938451905260a05160608401525a01fa1561059057565b604051907f25ffa3541c30c35f767625275ea324d4c73045d747439104a6eba402e861b92682527f12d8952cfece1325c5be343db82b005696a7662f43879e219447ffc0bfe866496020830152604082019081526107cf196040836060816007855a01fa156105905760409260066080939284938451905260a05160608401525a01fa1561059057565b604051907f138e815e10532d8c9b9760b2d47ad418263266e60afe2280d4e8bed1d38319fc82527f223dcc793b58f2d17eee918268a9e95761f8842dc49d76a2c1a09c7ebac343a06020830152604082019081526107cf196040836060816007855a01fa156105905760409260066080939284938451905260a05160608401525a01fa1561059057565b604051907f2b8d3cc66df22a444c8d2b1e71abbf7f2c4ac4170370bd31bd8d34ed8a57428782527f02d77f9a5c3bbe2c2cf0338bc739010030f494689b2c825c9213a1be841c31ec6020830152604082019081526107cf196040836060816007855a01fa156105905760409260066080939284938451905260a05160608401525a01fa1561059057565b604051907f1b8924f392f02b02f5e6080a965cbb4660b69518cc028a5c1c1c0311ecb7051482527f1982f7334abffbaad74bb0fdfe277b5d2004c35d0abaa25a9e26fc23d14f88a56020830152604082019081526107cf196040836060816007855a01fa156105905760409260066080939284938451905260a05160608401525a01fa1561059057565b604051907f1e213666836b603d1f58ba6b96f9fb3dc0d4be226831fc43132c08856e93be6a82527f2546205064fbeff320d0419b64bccd6873d912b553a513bc88a30305599fd95d6020830152604082019081526107cf196040836060816007855a01fa156105905760409260066080939284938451905260a05160608401525a01fa1561059057565b604051907f211d58e2bb6b60e601c5dfeb5c31c103f8084c23b3ebbbd848e7562223e62b3d82527f27a5b9bd22d21f2a4910d7e6df92a48ef903cdcde596c295f546ddfab0ac9a856020830152604082019081526107cf196040836060816007855a01fa156105905760409260066080939284938451905260a05160608401525a01fa1561059057565b604051907f1ed3d2ca19825a194f30d3edffdea175bcb73d89de22dfab207f7fd5b57519c082527f01dd432deab5f55134ecb20e59a6075cd328706529d6a731864ffbb3436ca06a6020830152604082019081526107cf196040836060816007855a01fa156105905760409260066080939284938451905260a05160608401525a01fa1561059057565b604051907f1be6e859e907b3f55a5dbaba7dab1d47996009a3bad71cddfd63303ad345690182527f0d811899c065fc51277b2adbcff319b34cafb677f898e88761bbf7448b570e216020830152604082019081526107cf196040836060816007855a01fa156105905760409260066080939284938451905260a05160608401525a01fa1561059057565b604051907f15170a98516f7855f44e63b4c06b20cd679ef88c606767fb7e85c7fd00772c7882527f1b5ed9e98bd5a34365dcd20e83ad8b10f85295bb4c62b5988a758c6c3e04d8a16020830152604082019081526107cf196040836060816007855a01fa156105905760409260066080939284938451905260a05160608401525a01fa1561059057565b604051907f106241f2604f1ce2b67684c1e92abf4413f7986555de286d62f17d1555fa958c82527f0e03779938b6844faba36940bfbb5842f0c1b83a2d60c451d218053e53dcdcff6020830152604082019081526107cf196040836060816007855a01fa156105905760409260066080939284938451905260a05160608401525a01fa1561059057565b604051907f21cb21339f489481e19c4f4ef5608a9893970dc2d673db9356a11d9c8f99ba7582527f2791c51448adc6f9a544e593a98afa6c1fc2dade036ba64c5a7a72c678f505836020830152604082019081526107cf196040836060816007855a01fa156105905760409260066080939284938451905260a05160608401525a01fa1561059057565b604051907f2c2bd47d93730101e1099f1ef9e58c00569cd0dbc58937aaaad8498df2772d5d82527f1ebf75c0f50e6bb7ec2e2b3d8c95d50976f4d374a2f84ed1b090f289e9fd45386020830152604082019081526107cf196040836060816007855a01fa156105905760409260066080939284938451905260a05160608401525a01fa1561059057565b604051907f0b875b282517156c8f9a495410c39232a08595519c702ae3b985f1c8ae57aea382527f0d1d3c5e1d8aa192c253ed48d00880b55f006f9a2395773a164ecfa0d8e0cfbd6020830152604082019081526107cf196040836060816007855a01fa156105905760409260066080939284938451905260a05160608401525a01fa1561059057565b604051907f26bc740e4631def2510b32cd53906f7ac0377c8d94a3f632cb5e7212b9e2b47282527f2a63596d6c8aeaeeba012298f8cfc85641988b7ff2d21555260a457ed91ed14c6020830152604082019081526107cf196040836060816007855a01fa156105905760409260066080939284938451905260a05160608401525a01fa1561059057565b604051907f144389b54280a6ee49498bfd250ea9afbfe0a510ffb03ed13d99b852cd4dd5d382527f26501523cdef04c16af5370f6b6527cf349e6647d9ed02fbeb93e4506dfd24056020830152604082019081526107cf196040836060816007855a01fa156105905760409260066080939284938451905260a05160608401525a01fa1561059057565b604051907f2058dd6e15c791f3d92fb494f8ced0f40cbca520a5b1e7e4a95587a0c7a8d91e82527f03832ec1023bc36e5cae26d54912fecb2520fbce43af53f369a36b5c260fb87c6020830152604082019081526107cf196040836060816007855a01fa156105905760409260066080939284938451905260a05160608401525a01fa1561059057565b604051907f10ebf3b85162fc6cb0703af32d53481198d5f5e3d02689968efab762b0a7a42582527f19f2eb88065116784eefd70078b378e168c51977b9178d0071cf15a4197595506020830152604082019081526107cf196040836060816007855a01fa156105905760409260066080939284938451905260a05160608401525a01fa1561059057565b604051907f0a067cd38b4b4c756028494e741e434ee208a4567fb8b78e5ad8585c7751b4e582527f018189ec4398e4e13dfd65e586f2c7273e08f7060277bc46995f0d66ede4c2746020830152604082019081526107cf196040836060816007855a01fa156105905760409260066080939284938451905260a05160608401525a01fa1561059057565b604051907f264a30d83fec275b485ae9a3d8c3c49dc7657c7d3c2b6879ed2d0b13a0a1a7d982527f127d678f5914a356a9e0295c333d4707a7120dfda3202fe2f556dbf602895bd76020830152604082019081526107cf196040836060816007855a01fa156105905760409260066080939284938451905260a05160608401525a01fa1561059057565b604051907f12190c25aaff499618ecd73b977e213fb32934ca69221a6270c8ff10cf8cc8f582527f05d10781abe72bea5fc4c5df9be0dc4a307911dd06c9b9e31106cc851dfcfc1a6020830152604082019081526107cf196040836060816007855a01fa156105905760409260066080939284938451905260a05160608401525a01fa1561059057565b604051907f18e0da812b48fe242a08e6bb1147ec1b62f9dca3a74168b1f51843a0fb01a2a382527f2ef4ddb647247790ddc581a7d9b127c63d339f631c94fee34208974a5e18a87c6020830152604082019081526107cf196040836060816007855a01fa156105905760409260066080939284938451905260a05160608401525a01fa1561059057565b604051907f20b5663b0612229cc689958645b0f983230d5eaf0fd0113563ea8bb4cee30f1782527f081d6163ee4bdc237bd81ba332746bebca4c395dc206452d470d83d31aa8969e6020830152604082019081526107cf196040836060816007855a01fa156105905760409260066080939284938451905260a05160608401525a01fa1561059057565b604051907f0c628cd38873999b889b686f0d668062a317552ae610a61bda13cffadc279e8b82527f0876a8308113249abd227e571462d9917d3f5559527fa06a2bf78ca7e62a7ddd6020830152604082019081526107cf196040836060816007855a01fa156105905760409260066080939284938451905260a05160608401525a01fa1561059057565b604051907f02906ff0991e85abac1731494001195ed854f8362905851acdb134d71170e8bd82527f0685421573f02700405fefd5496e26cac6f039ab17934e08ad34258bfa20f5146020830152604082019081526107cf196040836060816007855a01fa156105905760409260066080939284938451905260a05160608401525a01fa1561059057565b604051907f1675940648639bf2f1b1b6011c267ed6eccaae304d8119e91b3ef312695e3b9382527f082f4deb02b2e475df88c18a1e5e80b88f86a0dd96d333139105021040562dc76020830152604082019081526107cf196040836060816007855a01fa156105905760409260066080939284938451905260a05160608401525a01fa1561059057565b604051907f1f9a10976556eda1795eafb4f67f951d88425fe5fe2f06879c810d9883dec28182527f20accc151e663018baa90bd1aa6b3164b90d3e231392a35b4aeb5f00d1792a466020830152604082019081526107cf196040836060816007855a01fa156105905760409260066080939284938451905260a05160608401525a01fa1561059057565b604051907f24d6098e10ac5082381b9241171fdb24fc3c17c4d120785701e6586d41492a4d82527f2209af96601d1b18bb2bd61b9e4b8b468c7a316ad26f908d8faef8e6d220eb876020830152604082019081526107cf196040836060816007855a01fa156105905760409260066080939284938451905260a05160608401525a01fa1561059057565b604051907f091bb9b14d5fabfc4a8b478bb96781665c4041029275b62597bdb9b417dae31382527f25606205f61f66027b02f02f2f7bc29a0fe58ad268bd361a0bf0d47b6c93c7ed6020830152604082019081526107cf196040836060816007855a01fa156105905760409260066080939284938451905260a05160608401525a01fa1561059057565b604051907f0b16d7c8abf7e912e5f84c10760ac12c963fff1eac0ea2350d61c7fce0be78d482527f1809f92305e7c9a5724f7488c795a82100476e87c5d3399625cec64b4d3d28576020830152604082019081526107cf196040836060816007855a01fa156105905760409260066080939284938451905260a05160608401525a01fa1561059057565b604051907f213336b51535e4f0814d56db24e1a654e65237762dcd97559fe6067310470a5d82527f0c7bc1d03a7dfce1392eae85d4147b608003f422b82203190d1133a6ac509acc6020830152604082019081526107cf196040836060816007855a01fa156105905760409260066080939284938451905260a05160608401525a01fa1561059057565b604051907f1e0a52a9d888b24cac4a3b79486c2b63847ee92cb6b14b921ddf3ce888fcf7fc82527f1612722f5ee16c6d0cec44251ba49fb2e688c71374116f4fe0470f41c715bc1d6020830152604082019081526107cf196040836060816007855a01fa156105905760409260066080939284938451905260a05160608401525a01fa1561059057565b604051907f0f0bdb3a90211bc2d02efdba0b5b970e57ea77b78660fdcfe79dd6463c1d65b182527f12877c4386339f830e4f1d97c539733666a44d727c0c78e3345b9f1bd4dbd8566020830152604082019081526107cf196040836060816007855a01fa156105905760409260066080939284938451905260a05160608401525a01fa1561059057565b604051907f2b74f1e5d0ba543421729a0d8af01738ce4f17a59fe17f1d1a9c27e6aedf34bf82527f12a3a3911f3ffcf3d59a5b70446603edc43e958eadbe3e28b7a00df521bf9b1f6020830152604082019081526107cf196040836060816007855a01fa156105905760409260066080939284938451905260a05160608401525a01fa1561059057565b604051907f19f4ba90c2f2b175e7bf7342528e48fb4a5a224e8fa888246b7912b38dd93bc082527f05aacfdaa26e44b75968b29ff980ce1dea40388443ca10f6681a93ba88f55c446020830152604082019081526107cf196040836060816007855a01fa156105905760409260066080939284938451905260a05160608401525a01fa1561059057565b604051907f2dd571af16e163ef5d6a973b99b554827ee5128d37797149a4bddb1e3bcd5d3282527f303d3879c4bacd9d499d6a5c18900e8816136372490112db49359ab4100b14c66020830152604082019081526107cf196040836060816007855a01fa156105905760409260066080939284938451905260a05160608401525a01fa1561059057565b604051907f28770cc76edeb59027934b6ee0d082ecf0828e14c79f832800268bdf6cadb89f82527f27093a5c2e54331223f65bbe8c98d09c412eaace06309d4251b2d6cbfe9f14666020830152604082019081526107cf196040836060816007855a01fa156105905760409260066080939284938451905260a05160608401525a01fa1561059057565b604051907f26b7b13435bd1518f3ef24f24fa95026259d0f07604c69efd74ec80bbf57cbe782527f0d814deca2afaf8388c024d0d70eaa9bb37ede73d33ca48b6a4082e059bca5f46020830152604082019081526107cf196040836060816007855a01fa156105905760409260066080939284938451905260a05160608401525a01fa1561059057565b604051907f222b3bc0698258dcda7238ce583826320e511ba4d30df1645688638a2797c6ba82527f2016d6eff6d39b2a37f4dbbe8e7e4e53f83be1482b2970383b6daf735d963b276020830152604082019081526107cf196040836060816007855a01fa156105905760409260066080939284938451905260a05160608401525a01fa1561059057565b604051907f038354c7f651f46143305d5ea03f494ac5833ee1cbc538da395db2f00bd7a82082527f1c279aae93ee1c53a4ccb4b9154d0716fa9c363deb58092a418d6d3616f086c56020830152604082019081526107cf196040836060816007855a01fa156105905760409260066080939284938451905260a05160608401525a01fa1561059057565b604051907f298ede7f6f909ba29dba1b2e3bc8c9e17ba2ab41c059c408203d0213e1dc44ef82527f04ec500412924f2666731ae52c7f4efbb242aa39ce173aced2b170729820e8b76020830152604082019081526107cf196040836060816007855a01fa156105905760409260066080939284938451905260a05160608401525a01fa1561059057565b604051907f2f991fcdcc8cf73f7d19b6fc16ea37cf5701c6e710e58037be2e4d5d05c2881482527f0708df46e850f1008575759954ed475f141d0af9dd0f84905cbb0b6db7b753be6020830152604082019081526107cf196040836060816007855a01fa156105905760409260066080939284938451905260a05160608401525a01fa1561059057565b604051907f2252fa4f8226c97cc25ceea53bad8bb9e32cfcea9443dc1f885b862841fbd23882527f2ff05071208cb545b006b4f0af08134cf9da20faac459445e24874ff7b6e99e36020830152604082019081526107cf196040836060816007855a01fa156105905760409260066080939284938451905260a05160608401525a01fa1561059057565b604051907f02793be89b9ba53a48108f736b56309791004e6ee552dd04cb49baaa35767d1982527f0ac4139c957ea4f99191c25c1a163bfffccedc993a972d623d92503849c5ff636020830152604082019081526107cf196040836060816007855a01fa156105905760409260066080939284938451905260a05160608401525a01fa1561059057565b604051907f22cbc4c5e771a88d3b3b3ad0be460252f142d4ed77485cdbf84db1c4e69576cf82527f05831a568fbd72991dc0c66fb20fd96ad93258db91661de9eaca7857f82fe9e16020830152604082019081526107cf196040836060816007855a01fa156105905760409260066080939284938451905260a05160608401525a01fa1561059057565b604051907f236f16505bdc33d3ed741d78b1f9ef71c28a66603948842999bb3c0c5044aa8f82527f2011c90c4c3d608ff0b40161d65c47593ac285cf3c894d036c7c33f6d422c0966020830152604082019081526107cf196040836060816007855a01fa156105905760409260066080939284938451905260a05160608401525a01fa1561059057565b604051907f24caff94d6058bdfe98452b46c22a31f8a19618504edf3f9f8c85309d2a730cf82527f0e14388ccbec3e1f7541301ae0d87cd0b64484ab12b0dc6ac0c2b1ead699cc3f6020830152604082019081526107cf196040836060816007855a01fa156105905760409260066080939284938451905260a05160608401525a01fa1561059057565b604051907f09cfb9abff2acf8b610cbf8f0fb5d1a346d1de3dda9a3c5085cd88c69e9265c282527f1d8515a81551d327cb809d001e6b0fdf4ef2088a9019e4943d9ce203d8ae71986020830152604082019081526107cf196040836060816007855a01fa156105905760409260066080939284938451905260a05160608401525a01fa1561059057565b604051907f14752b4d6e325c1f2c1e2fbfdfc279c2c599c1802e939c92119beb3be2dc600c82527f06898e6ded5ec64c605f1f9c8e99c7bc41e0f2af850c019db6ce6f029f0b2b536020830152604082019081526107cf196040836060816007855a01fa156105905760409260066080939284938451905260a05160608401525a01fa1561059057565b604051907f1a13d2364e7da18535d2aba4e91d33dbc980f0674ef6cd93070ca40feced197682527f202be523a71a5cf1edaf7cd6fa6649449c6ff9510c70535acd2614962746f63e6020830152604082019081526107cf196040836060816007855a01fa156105905760409260066080939284938451905260a05160608401525a01fa1561059057565b604051907f2cdafaa9a8ea3e42d9298dee82ec7ed54de62ffef4ea4b5c603bbbd3867d17a882527f25da2e3cfd6cbae8d1a40e3fd5487b28578e4e92c2b5c067c58f41da50057b826020830152604082019081526107cf196040836060816007855a01fa156105905760409260066080939284938451905260a05160608401525a01fa1561059057565b604051907f0258e93adfabbca734ee996cd07cbccc2e3f9759c9154576964eee67d03cf67782527f17eb350bca2c2f7be16b2abdbaff12059f7156f20a2012c478aa30258ebc7b686020830152604082019081526107cf196040836060816007855a01fa156105905760409260066080939284938451905260a05160608401525a01fa1561059057565b604051907f0d2bcc0790cc69e0f0ece340efd582366f42fdbc08f8a2ce4ffd31a8522a208682527f2c9624c5936dc20a6042ff817d68161c6e73297c447cdb6cb51d18d017155ae76020830152604082019081526107cf196040836060816007855a01fa156105905760409260066080939284938451905260a05160608401525a01fa1561059057565b604051907f2f9b5b6df7a558cc2d14660abae2dd819c747ece7dd11e1ed5ecd087140549f082527f0ce17d4c42450253ffa176c9476fa51893e8058b91bdc4efb2416e347aad5e826020830152604082019081526107cf196040836060816007855a01fa156105905760409260066080939284938451905260a05160608401525a01fa1561059057565b6020907f07b9758bcfa4259556833a47798f10361dbb29c8791d3c312f4601a1c36aa6246080527f1cf494f27882ee4201695257e0767659ed57925d603f6798d4415a5b2e10bca660a052613c636101043561059a565b613c6f61012435610624565b613c7b610144356106ae565b613c8761016435610738565b613c93610184356107c2565b613c9f6101a43561084c565b613cab6101c4356108d6565b613cb76101e435610960565b613cc3610204356109ea565b613ccf61022435610a74565b613cdb61024435610afe565b613ce761026435610b88565b613cf361028435610c12565b613cff6102a435610c9c565b613d0b6102c435610d26565b613d176102e435610db0565b613d2361030435610e3a565b613d2f61032435610ec4565b613d3b61034435610f4e565b613d4761036435610fd8565b613d5361038435611062565b613d5f6103a4356110ec565b613d6b6103c435611176565b613d776103e435611200565b613d836104043561128a565b613d8f61042435611314565b613d9b6104443561139e565b613da761046435611428565b613db3610484356114b2565b613dbf6104a43561153c565b613dcb6104c4356115c6565b613dd76104e435611650565b613de3610504356116da565b613def61052435611764565b613dfb610544356117ee565b613e0761056435611878565b613e1361058435611902565b613e1f6105a43561198c565b613e2b6105c435611a16565b613e376105e435611aa0565b613e4361060435611b2a565b613e4f61062435611bb4565b613e5b61064435611c3e565b613e6761066435611cc8565b613e7361068435611d52565b613e7f6106a435611ddc565b613e8b6106c435611e66565b613e976106e435611ef0565b613ea361070435611f7a565b613eaf61072435612004565b613ebb6107443561208e565b613ec761076435612118565b613ed3610784356121a2565b613edf6107a43561222c565b613eeb6107c4356122b6565b613ef76107e435612340565b613f03610804356123ca565b613f0f61082435612454565b613f1b610844356124de565b613f2761086435612568565b613f33610884356125f2565b613f3f6108a43561267c565b613f4b6108c435612706565b613f576108e435612790565b613f636109043561281a565b613f6f610924356128a4565b613f7b6109443561292e565b613f87610964356129b8565b613f9361098435612a42565b613f9f6109a435612acc565b613fab6109c435612b56565b613fb76109e435612be0565b613fc3610a0435612c6a565b613fcf610a2435612cf4565b613fdb610a4435612d7e565b613fe7610a6435612e08565b613ff3610a8435612e92565b613fff610aa435612f1c565b61400b610ac435612fa6565b614017610ae435613030565b614023610b04356130ba565b61402f610b2435613144565b61403b610b44356131ce565b614047610b6435613258565b614053610b84356132e2565b61405f610ba43561336c565b61406b610bc4356133f6565b614077610be435613480565b614083610c043561350a565b61408f610c2435613594565b61409b610c443561361e565b6140a7610c64356136a8565b6140b3610c8435613732565b6140bf610ca4356137bc565b6140cb610cc435613846565b6140d7610ce4356138d0565b6140e3610d043561395a565b6140ef610d24356139e4565b6140fb610d4435613a6e565b614107610d6435613af8565b614113610d8435613b82565b61010092818492358352837f30644e72e131a029b85045b68181585d97816a916871ca8d3c208c16d87cfd479101358103066101205260443561014052606435610160526084356101805260a4356101a0527f2d4d9aa7e302d9df41749d5507949d05dbea33fbb16c643b22f599a2be6df2e26101c0527f14bedd503c37ceb061d8ec60209fe345ce89830a19230301f076caff004d19266101e0527f0967032fcbf776d1afc985f88877f182d38480a653f2decaa9794cbc3bf3060c610200527f0e187847ad4c798374d0d6732bf501847dd68bc0e071241e0213bc7fc13db7ab610220527f304cfbd1e08a704a99f5e847d93f8c3caafddec46b7a0d379da69a4d112346a7610240527f1739c1b1a457a8c7313123d24d2f9192f896b7c63eea05a9d57f06547ad0cec8610260526080516102805260a0516102a0527f198e9393920d483a7260bfb731fb5d25f1aa493335a9e71297e485b7aef312c26102c0527f1800deef121f1e76426a00665e5c4479674322d4f75edadd46debd5cd992f6ed6102e05282610300917f090689d0585ff075ec9e99ad690c3395bc4b313370b38ef355acdadcd122975b83527f12c85ea5db8c6deb4aab71808dcb408fe3d1e7690c43d37b4ce6cc0166fa7daa610320528035610340520135610360527f0cedc0aa9c243c7f4a36ba30730d805cd63c95ea74757605de410b96fc1523a0610380527f1b7f0104e87283b72e21de6689f6774cb3efc88187e54eb7a771f943d7c0767a6103a0527f1c7a0c09173e68ac7586cc406a9d8308c29ae2f41ab1502bc5f65af6abbc452a6103c0527f2304a52777b9898a45096aab4071a96606591600538b8cb35c398fbd5147bb9a6103e0528160086107cf195a01fa9051169056fea26469706673582212208ff54ebb4fbbdec4b3b7570adb1ac3ebee32d7d99e24a8a6291f5fa19acba68664736f6c634300080f0033",
  "linkReferences": {},
  "deployedLinkReferences": {}
}