{
  "_format": "hh-sol-artifact-1",
  "contractName": "AnybodyProblem",
  "sourceName": "contracts/AnybodyProblem.sol",
  "abi": [
    {
      "inputs": [
        {
          "internalType": "address payable",
          "name": "proceedRecipient_",
          "type": "address"
        },
        {
          "internalType": "address payable",
          "name": "speedruns_",
          "type": "address"
        },
        {
          "internalType": "address",
          "name": "externalMetadata_",
          "type": "address"
        },
        {
          "internalType": "address[]",
          "name": "verifiers_",
          "type": "address[]"
        },
        {
          "internalType": "uint256[]",
          "name": "verifiersTicks",
          "type": "uint256[]"
        },
        {
          "internalType": "uint256[]",
          "name": "verifiersBodies",
          "type": "uint256[]"
        }
      ],
      "stateMutability": "nonpayable",
      "type": "constructor"
    },
    {
      "anonymous": false,
      "inputs": [
        {
          "indexed": true,
          "internalType": "address",
          "name": "to",
          "type": "address"
        },
        {
          "indexed": true,
          "internalType": "bool",
          "name": "success",
          "type": "bool"
        },
        {
          "indexed": false,
          "internalType": "bytes",
          "name": "returnData",
          "type": "bytes"
        },
        {
          "indexed": false,
          "internalType": "uint256",
          "name": "amount",
          "type": "uint256"
        }
      ],
      "name": "EthMoved",
      "type": "event"
    },
    {
      "anonymous": false,
      "inputs": [
        {
          "indexed": false,
          "internalType": "uint256",
          "name": "runId",
          "type": "uint256"
        },
        {
          "indexed": false,
          "internalType": "uint256",
          "name": "level",
          "type": "uint256"
        },
        {
          "indexed": false,
          "internalType": "bytes32",
          "name": "seed",
          "type": "bytes32"
        },
        {
          "indexed": false,
          "internalType": "uint256",
          "name": "day",
          "type": "uint256"
        }
      ],
      "name": "LevelCreated",
      "type": "event"
    },
    {
      "anonymous": false,
      "inputs": [
        {
          "indexed": true,
          "internalType": "address",
          "name": "player",
          "type": "address"
        },
        {
          "indexed": true,
          "internalType": "uint256",
          "name": "runId",
          "type": "uint256"
        },
        {
          "indexed": true,
          "internalType": "uint256",
          "name": "level",
          "type": "uint256"
        },
        {
          "indexed": false,
          "internalType": "uint256",
          "name": "time",
          "type": "uint256"
        },
        {
          "indexed": false,
          "internalType": "uint256",
          "name": "day",
          "type": "uint256"
        }
      ],
      "name": "LevelSolved",
      "type": "event"
    },
    {
      "anonymous": false,
      "inputs": [
        {
          "indexed": true,
          "internalType": "address",
          "name": "previousOwner",
          "type": "address"
        },
        {
          "indexed": true,
          "internalType": "address",
          "name": "newOwner",
          "type": "address"
        }
      ],
      "name": "OwnershipTransferred",
      "type": "event"
    },
    {
      "anonymous": false,
      "inputs": [
        {
          "indexed": false,
          "internalType": "uint256",
          "name": "runId",
          "type": "uint256"
        },
        {
          "indexed": false,
          "internalType": "uint256",
          "name": "day",
          "type": "uint256"
        },
        {
          "indexed": false,
          "internalType": "bytes32",
          "name": "seed",
          "type": "bytes32"
        }
      ],
      "name": "RunCreated",
      "type": "event"
    },
    {
      "anonymous": false,
      "inputs": [
        {
          "indexed": true,
          "internalType": "address",
          "name": "player",
          "type": "address"
        },
        {
          "indexed": true,
          "internalType": "uint256",
          "name": "runId",
          "type": "uint256"
        },
        {
          "indexed": false,
          "internalType": "uint256",
          "name": "accumulativeTime",
          "type": "uint256"
        },
        {
          "indexed": false,
          "internalType": "uint256",
          "name": "day",
          "type": "uint256"
        }
      ],
      "name": "RunSolved",
      "type": "event"
    },
    {
      "stateMutability": "nonpayable",
      "type": "fallback"
    },
    {
      "inputs": [],
      "name": "FIRST_SUNDAY_AT_6_PM_UTC",
      "outputs": [
        {
          "internalType": "uint256",
          "name": "",
          "type": "uint256"
        }
      ],
      "stateMutability": "view",
      "type": "function"
    },
    {
      "inputs": [],
      "name": "LEVELS",
      "outputs": [
        {
          "internalType": "uint256",
          "name": "",
          "type": "uint256"
        }
      ],
      "stateMutability": "view",
      "type": "function"
    },
    {
      "inputs": [],
      "name": "SECONDS_IN_A_DAY",
      "outputs": [
        {
          "internalType": "uint256",
          "name": "",
          "type": "uint256"
        }
      ],
      "stateMutability": "view",
      "type": "function"
    },
    {
      "inputs": [],
      "name": "SECONDS_IN_A_WEEK",
      "outputs": [
        {
          "internalType": "uint256",
          "name": "",
          "type": "uint256"
        }
      ],
      "stateMutability": "view",
      "type": "function"
    },
    {
      "inputs": [
        {
          "internalType": "uint256",
          "name": "runId",
          "type": "uint256"
        },
        {
          "internalType": "uint256[]",
          "name": "tickCounts",
          "type": "uint256[]"
        },
        {
          "internalType": "uint256[2][]",
          "name": "a",
          "type": "uint256[2][]"
        },
        {
          "internalType": "uint256[2][2][]",
          "name": "b",
          "type": "uint256[2][2][]"
        },
        {
          "internalType": "uint256[2][]",
          "name": "c",
          "type": "uint256[2][]"
        },
        {
          "internalType": "uint256[][]",
          "name": "input",
          "type": "uint256[][]"
        }
      ],
      "name": "batchSolve",
      "outputs": [],
      "stateMutability": "payable",
      "type": "function"
    },
    {
      "inputs": [
        {
          "internalType": "uint256[]",
          "name": "input",
          "type": "uint256[]"
        }
      ],
      "name": "convertTo102",
      "outputs": [
        {
          "internalType": "uint256[102]",
          "name": "",
          "type": "uint256[102]"
        }
      ],
      "stateMutability": "pure",
      "type": "function"
    },
    {
      "inputs": [
        {
          "internalType": "uint256[]",
          "name": "input",
          "type": "uint256[]"
        }
      ],
      "name": "convertTo112",
      "outputs": [
        {
          "internalType": "uint256[112]",
          "name": "",
          "type": "uint256[112]"
        }
      ],
      "stateMutability": "pure",
      "type": "function"
    },
    {
      "inputs": [
        {
          "internalType": "uint256[]",
          "name": "input",
          "type": "uint256[]"
        }
      ],
      "name": "convertTo22",
      "outputs": [
        {
          "internalType": "uint256[22]",
          "name": "",
          "type": "uint256[22]"
        }
      ],
      "stateMutability": "pure",
      "type": "function"
    },
    {
      "inputs": [
        {
          "internalType": "uint256[]",
          "name": "input",
          "type": "uint256[]"
        }
      ],
      "name": "convertTo32",
      "outputs": [
        {
          "internalType": "uint256[32]",
          "name": "",
          "type": "uint256[32]"
        }
      ],
      "stateMutability": "pure",
      "type": "function"
    },
    {
      "inputs": [
        {
          "internalType": "uint256[]",
          "name": "input",
          "type": "uint256[]"
        }
      ],
      "name": "convertTo42",
      "outputs": [
        {
          "internalType": "uint256[42]",
          "name": "",
          "type": "uint256[42]"
        }
      ],
      "stateMutability": "pure",
      "type": "function"
    },
    {
      "inputs": [
        {
          "internalType": "uint256[]",
          "name": "input",
          "type": "uint256[]"
        }
      ],
      "name": "convertTo52",
      "outputs": [
        {
          "internalType": "uint256[52]",
          "name": "",
          "type": "uint256[52]"
        }
      ],
      "stateMutability": "pure",
      "type": "function"
    },
    {
      "inputs": [
        {
          "internalType": "uint256[]",
          "name": "input",
          "type": "uint256[]"
        }
      ],
      "name": "convertTo62",
      "outputs": [
        {
          "internalType": "uint256[62]",
          "name": "",
          "type": "uint256[62]"
        }
      ],
      "stateMutability": "pure",
      "type": "function"
    },
    {
      "inputs": [
        {
          "internalType": "uint256[]",
          "name": "input",
          "type": "uint256[]"
        }
      ],
      "name": "convertTo72",
      "outputs": [
        {
          "internalType": "uint256[72]",
          "name": "",
          "type": "uint256[72]"
        }
      ],
      "stateMutability": "pure",
      "type": "function"
    },
    {
      "inputs": [
        {
          "internalType": "uint256[]",
          "name": "input",
          "type": "uint256[]"
        }
      ],
      "name": "convertTo82",
      "outputs": [
        {
          "internalType": "uint256[82]",
          "name": "",
          "type": "uint256[82]"
        }
      ],
      "stateMutability": "pure",
      "type": "function"
    },
    {
      "inputs": [
        {
          "internalType": "uint256[]",
          "name": "input",
          "type": "uint256[]"
        }
      ],
      "name": "convertTo92",
      "outputs": [
        {
          "internalType": "uint256[92]",
          "name": "",
          "type": "uint256[92]"
        }
      ],
      "stateMutability": "pure",
      "type": "function"
    },
    {
      "inputs": [],
      "name": "currentDay",
      "outputs": [
        {
          "internalType": "uint256",
          "name": "",
          "type": "uint256"
        }
      ],
      "stateMutability": "view",
      "type": "function"
    },
    {
      "inputs": [
        {
          "internalType": "uint256",
          "name": "runId",
          "type": "uint256"
        }
      ],
      "name": "currentLevel",
      "outputs": [
        {
          "internalType": "uint256",
          "name": "",
          "type": "uint256"
        }
      ],
      "stateMutability": "view",
      "type": "function"
    },
    {
      "inputs": [],
      "name": "currentWeek",
      "outputs": [
        {
          "internalType": "uint256",
          "name": "",
          "type": "uint256"
        }
      ],
      "stateMutability": "view",
      "type": "function"
    },
    {
      "inputs": [
        {
          "internalType": "uint256",
          "name": "_fromTokenId",
          "type": "uint256"
        },
        {
          "internalType": "uint256",
          "name": "_toTokenId",
          "type": "uint256"
        }
      ],
      "name": "emitBatchMetadataUpdate",
      "outputs": [],
      "stateMutability": "nonpayable",
      "type": "function"
    },
    {
      "inputs": [
        {
          "internalType": "uint256",
          "name": "tokenId",
          "type": "uint256"
        }
      ],
      "name": "emitMetadataUpdate",
      "outputs": [],
      "stateMutability": "nonpayable",
      "type": "function"
    },
    {
      "inputs": [
        {
          "internalType": "uint256",
          "name": "_fromTokenId",
          "type": "uint256"
        },
        {
          "internalType": "uint256",
          "name": "_toTokenId",
          "type": "uint256"
        },
        {
          "internalType": "address",
          "name": "who",
          "type": "address"
        }
      ],
      "name": "exampleEmitMultipleIndexEvent",
      "outputs": [],
      "stateMutability": "nonpayable",
      "type": "function"
    },
    {
      "inputs": [],
      "name": "externalMetadata",
      "outputs": [
        {
          "internalType": "address",
          "name": "",
          "type": "address"
        }
      ],
      "stateMutability": "view",
      "type": "function"
    },
    {
      "inputs": [
        {
          "components": [
            {
              "internalType": "uint256",
              "name": "bodyIndex",
              "type": "uint256"
            },
            {
              "internalType": "uint256",
              "name": "px",
              "type": "uint256"
            },
            {
              "internalType": "uint256",
              "name": "py",
              "type": "uint256"
            },
            {
              "internalType": "uint256",
              "name": "vx",
              "type": "uint256"
            },
            {
              "internalType": "uint256",
              "name": "vy",
              "type": "uint256"
            },
            {
              "internalType": "uint256",
              "name": "radius",
              "type": "uint256"
            },
            {
              "internalType": "bytes32",
              "name": "seed",
              "type": "bytes32"
            }
          ],
          "internalType": "struct AnybodyProblem.Body",
          "name": "bodyData",
          "type": "tuple"
        },
        {
          "internalType": "uint256[]",
          "name": "input",
          "type": "uint256[]"
        },
        {
          "internalType": "uint256",
          "name": "i",
          "type": "uint256"
        }
      ],
      "name": "extractBodyData",
      "outputs": [
        {
          "components": [
            {
              "internalType": "uint256",
              "name": "bodyIndex",
              "type": "uint256"
            },
            {
              "internalType": "uint256",
              "name": "px",
              "type": "uint256"
            },
            {
              "internalType": "uint256",
              "name": "py",
              "type": "uint256"
            },
            {
              "internalType": "uint256",
              "name": "vx",
              "type": "uint256"
            },
            {
              "internalType": "uint256",
              "name": "vy",
              "type": "uint256"
            },
            {
              "internalType": "uint256",
              "name": "radius",
              "type": "uint256"
            },
            {
              "internalType": "bytes32",
              "name": "seed",
              "type": "bytes32"
            }
          ],
          "internalType": "struct AnybodyProblem.Body",
          "name": "",
          "type": "tuple"
        }
      ],
      "stateMutability": "pure",
      "type": "function"
    },
    {
      "inputs": [
        {
          "internalType": "uint256",
          "name": "",
          "type": "uint256"
        },
        {
          "internalType": "uint256",
          "name": "",
          "type": "uint256"
        }
      ],
      "name": "fastestByDay",
      "outputs": [
        {
          "internalType": "uint256",
          "name": "",
          "type": "uint256"
        }
      ],
      "stateMutability": "view",
      "type": "function"
    },
    {
      "inputs": [
        {
          "internalType": "uint256",
          "name": "",
          "type": "uint256"
        },
        {
          "internalType": "uint256",
          "name": "",
          "type": "uint256"
        }
      ],
      "name": "fastestByWeek",
      "outputs": [
        {
          "internalType": "address",
          "name": "",
          "type": "address"
        }
      ],
      "stateMutability": "view",
      "type": "function"
    },
    {
      "inputs": [
        {
          "internalType": "address",
          "name": "",
          "type": "address"
        }
      ],
      "name": "gamesPlayed",
      "outputs": [
        {
          "internalType": "uint256",
          "name": "total",
          "type": "uint256"
        },
        {
          "internalType": "uint256",
          "name": "lastPlayed",
          "type": "uint256"
        },
        {
          "internalType": "uint256",
          "name": "streak",
          "type": "uint256"
        }
      ],
      "stateMutability": "view",
      "type": "function"
    },
    {
      "inputs": [
        {
          "internalType": "uint256",
          "name": "index",
          "type": "uint256"
        }
      ],
      "name": "genRadius",
      "outputs": [
        {
          "internalType": "uint256",
          "name": "",
          "type": "uint256"
        }
      ],
      "stateMutability": "pure",
      "type": "function"
    },
    {
      "inputs": [
        {
          "internalType": "uint256",
          "name": "day",
          "type": "uint256"
        },
        {
          "internalType": "uint256",
          "name": "level",
          "type": "uint256"
        }
      ],
      "name": "generateLevelData",
      "outputs": [
        {
          "components": [
            {
              "internalType": "uint256",
              "name": "bodyIndex",
              "type": "uint256"
            },
            {
              "internalType": "uint256",
              "name": "px",
              "type": "uint256"
            },
            {
              "internalType": "uint256",
              "name": "py",
              "type": "uint256"
            },
            {
              "internalType": "uint256",
              "name": "vx",
              "type": "uint256"
            },
            {
              "internalType": "uint256",
              "name": "vy",
              "type": "uint256"
            },
            {
              "internalType": "uint256",
              "name": "radius",
              "type": "uint256"
            },
            {
              "internalType": "bytes32",
              "name": "seed",
              "type": "bytes32"
            }
          ],
          "internalType": "struct AnybodyProblem.Body[6]",
          "name": "bodyData",
          "type": "tuple[6]"
        },
        {
          "internalType": "uint256",
          "name": "bodyCount",
          "type": "uint256"
        }
      ],
      "stateMutability": "view",
      "type": "function"
    },
    {
      "inputs": [
        {
          "internalType": "uint256",
          "name": "id",
          "type": "uint256"
        },
        {
          "internalType": "uint256",
          "name": "index",
          "type": "uint256"
        }
      ],
      "name": "generateSeed",
      "outputs": [
        {
          "internalType": "bytes32",
          "name": "",
          "type": "bytes32"
        }
      ],
      "stateMutability": "view",
      "type": "function"
    },
    {
      "inputs": [
        {
          "internalType": "uint256",
          "name": "inputLength",
          "type": "uint256"
        }
      ],
      "name": "getLevelFromInputs",
      "outputs": [
        {
          "internalType": "uint256",
          "name": "",
          "type": "uint256"
        }
      ],
      "stateMutability": "pure",
      "type": "function"
    },
    {
      "inputs": [
        {
          "internalType": "uint256",
          "name": "day",
          "type": "uint256"
        },
        {
          "internalType": "uint256",
          "name": "level",
          "type": "uint256"
        },
        {
          "internalType": "uint256",
          "name": "bodyIndex",
          "type": "uint256"
        }
      ],
      "name": "getLevelSeed",
      "outputs": [
        {
          "internalType": "bytes32",
          "name": "",
          "type": "bytes32"
        }
      ],
      "stateMutability": "pure",
      "type": "function"
    },
    {
      "inputs": [
        {
          "internalType": "uint256",
          "name": "runId",
          "type": "uint256"
        }
      ],
      "name": "getLevelsData",
      "outputs": [
        {
          "components": [
            {
              "internalType": "bool",
              "name": "solved",
              "type": "bool"
            },
            {
              "internalType": "uint256",
              "name": "time",
              "type": "uint256"
            },
            {
              "internalType": "bytes32",
              "name": "seed",
              "type": "bytes32"
            },
            {
              "internalType": "uint256[5]",
              "name": "tmpInflightMissile",
              "type": "uint256[5]"
            },
            {
              "components": [
                {
                  "internalType": "uint256",
                  "name": "bodyIndex",
                  "type": "uint256"
                },
                {
                  "internalType": "uint256",
                  "name": "px",
                  "type": "uint256"
                },
                {
                  "internalType": "uint256",
                  "name": "py",
                  "type": "uint256"
                },
                {
                  "internalType": "uint256",
                  "name": "vx",
                  "type": "uint256"
                },
                {
                  "internalType": "uint256",
                  "name": "vy",
                  "type": "uint256"
                },
                {
                  "internalType": "uint256",
                  "name": "radius",
                  "type": "uint256"
                },
                {
                  "internalType": "bytes32",
                  "name": "seed",
                  "type": "bytes32"
                }
              ],
              "internalType": "struct AnybodyProblem.Body[6]",
              "name": "tmpBodyData",
              "type": "tuple[6]"
            }
          ],
          "internalType": "struct AnybodyProblem.Level[]",
          "name": "levels",
          "type": "tuple[]"
        }
      ],
      "stateMutability": "view",
      "type": "function"
    },
    {
      "inputs": [
        {
          "internalType": "bytes32",
          "name": "dayLevelIndexSeed",
          "type": "bytes32"
        },
        {
          "internalType": "uint256",
          "name": "index",
          "type": "uint256"
        }
      ],
      "name": "getRandomValues",
      "outputs": [
        {
          "components": [
            {
              "internalType": "uint256",
              "name": "bodyIndex",
              "type": "uint256"
            },
            {
              "internalType": "uint256",
              "name": "px",
              "type": "uint256"
            },
            {
              "internalType": "uint256",
              "name": "py",
              "type": "uint256"
            },
            {
              "internalType": "uint256",
              "name": "vx",
              "type": "uint256"
            },
            {
              "internalType": "uint256",
              "name": "vy",
              "type": "uint256"
            },
            {
              "internalType": "uint256",
              "name": "radius",
              "type": "uint256"
            },
            {
              "internalType": "bytes32",
              "name": "seed",
              "type": "bytes32"
            }
          ],
          "internalType": "struct AnybodyProblem.Body",
          "name": "",
          "type": "tuple"
        }
      ],
      "stateMutability": "pure",
      "type": "function"
    },
    {
      "inputs": [
        {
          "internalType": "uint256",
          "name": "",
          "type": "uint256"
        }
      ],
      "name": "longestStreak",
      "outputs": [
        {
          "internalType": "address",
          "name": "",
          "type": "address"
        }
      ],
      "stateMutability": "view",
      "type": "function"
    },
    {
      "inputs": [
        {
          "internalType": "uint256",
          "name": "",
          "type": "uint256"
        }
      ],
      "name": "maxTicksByLevelIndex",
      "outputs": [
        {
          "internalType": "uint256",
          "name": "",
          "type": "uint256"
        }
      ],
      "stateMutability": "view",
      "type": "function"
    },
    {
      "inputs": [],
      "name": "maxVector",
      "outputs": [
        {
          "internalType": "uint256",
          "name": "",
          "type": "uint256"
        }
      ],
      "stateMutability": "view",
      "type": "function"
    },
    {
      "inputs": [],
      "name": "maxVectorScaled",
      "outputs": [
        {
          "internalType": "uint256",
          "name": "",
          "type": "uint256"
        }
      ],
      "stateMutability": "view",
      "type": "function"
    },
    {
      "inputs": [
        {
          "internalType": "uint256",
          "name": "",
          "type": "uint256"
        }
      ],
      "name": "mostGames",
      "outputs": [
        {
          "internalType": "address",
          "name": "",
          "type": "address"
        }
      ],
      "stateMutability": "view",
      "type": "function"
    },
    {
      "inputs": [],
      "name": "owner",
      "outputs": [
        {
          "internalType": "address",
          "name": "",
          "type": "address"
        }
      ],
      "stateMutability": "view",
      "type": "function"
    },
    {
      "inputs": [],
      "name": "paused",
      "outputs": [
        {
          "internalType": "bool",
          "name": "",
          "type": "bool"
        }
      ],
      "stateMutability": "view",
      "type": "function"
    },
    {
      "inputs": [],
      "name": "price",
      "outputs": [
        {
          "internalType": "uint256",
          "name": "",
          "type": "uint256"
        }
      ],
      "stateMutability": "view",
      "type": "function"
    },
    {
      "inputs": [],
      "name": "proceedRecipient",
      "outputs": [
        {
          "internalType": "address payable",
          "name": "",
          "type": "address"
        }
      ],
      "stateMutability": "view",
      "type": "function"
    },
    {
      "inputs": [
        {
          "internalType": "uint256",
          "name": "min",
          "type": "uint256"
        },
        {
          "internalType": "uint256",
          "name": "max",
          "type": "uint256"
        },
        {
          "internalType": "bytes32",
          "name": "rand",
          "type": "bytes32"
        }
      ],
      "name": "randomRange",
      "outputs": [
        {
          "internalType": "uint256",
          "name": "",
          "type": "uint256"
        }
      ],
      "stateMutability": "pure",
      "type": "function"
    },
    {
      "inputs": [
        {
          "internalType": "address payable",
          "name": "_to",
          "type": "address"
        }
      ],
      "name": "recoverUnsuccessfulPayment",
      "outputs": [],
      "stateMutability": "nonpayable",
      "type": "function"
    },
    {
      "inputs": [],
      "name": "renounceOwnership",
      "outputs": [],
      "stateMutability": "nonpayable",
      "type": "function"
    },
    {
      "inputs": [
        {
          "internalType": "uint256",
          "name": "tokenId",
          "type": "uint256"
        },
        {
          "internalType": "uint256",
          "name": "salePrice",
          "type": "uint256"
        }
      ],
      "name": "royaltyInfo",
      "outputs": [
        {
          "internalType": "address",
          "name": "",
          "type": "address"
        },
        {
          "internalType": "uint256",
          "name": "",
          "type": "uint256"
        }
      ],
      "stateMutability": "view",
      "type": "function"
    },
    {
      "inputs": [],
      "name": "runCount",
      "outputs": [
        {
          "internalType": "uint256",
          "name": "",
          "type": "uint256"
        }
      ],
      "stateMutability": "view",
      "type": "function"
    },
    {
      "inputs": [
        {
          "internalType": "uint256",
          "name": "",
          "type": "uint256"
        }
      ],
      "name": "runs",
      "outputs": [
        {
          "internalType": "address",
          "name": "owner",
          "type": "address"
        },
        {
          "internalType": "bool",
          "name": "solved",
          "type": "bool"
        },
        {
          "internalType": "uint256",
          "name": "accumulativeTime",
          "type": "uint256"
        },
        {
          "internalType": "bytes32",
          "name": "seed",
          "type": "bytes32"
        },
        {
          "internalType": "uint256",
          "name": "day",
          "type": "uint256"
        }
      ],
      "stateMutability": "view",
      "type": "function"
    },
    {
      "inputs": [],
      "name": "scalingFactor",
      "outputs": [
        {
          "internalType": "uint256",
          "name": "",
          "type": "uint256"
        }
      ],
      "stateMutability": "view",
      "type": "function"
    },
    {
      "inputs": [],
      "name": "speedFactor",
      "outputs": [
        {
          "internalType": "uint256",
          "name": "",
          "type": "uint256"
        }
      ],
      "stateMutability": "view",
      "type": "function"
    },
    {
      "inputs": [],
      "name": "speedruns",
      "outputs": [
        {
          "internalType": "address payable",
          "name": "",
          "type": "address"
        }
      ],
      "stateMutability": "view",
      "type": "function"
    },
    {
      "inputs": [
        {
          "internalType": "bytes4",
          "name": "interfaceId",
          "type": "bytes4"
        }
      ],
      "name": "speedrunsSupportsInterface",
      "outputs": [
        {
          "internalType": "bool",
          "name": "",
          "type": "bool"
        }
      ],
      "stateMutability": "pure",
      "type": "function"
    },
    {
      "inputs": [
        {
          "internalType": "uint256",
          "name": "id",
          "type": "uint256"
        }
      ],
      "name": "speedrunsTokenURI",
      "outputs": [
        {
          "internalType": "string",
          "name": "",
          "type": "string"
        }
      ],
      "stateMutability": "view",
      "type": "function"
    },
    {
      "inputs": [],
      "name": "startingRadius",
      "outputs": [
        {
          "internalType": "uint256",
          "name": "",
          "type": "uint256"
        }
      ],
      "stateMutability": "view",
      "type": "function"
    },
    {
      "inputs": [
        {
          "internalType": "bytes4",
          "name": "interfaceId",
          "type": "bytes4"
        }
      ],
      "name": "supportsInterface",
      "outputs": [
        {
          "internalType": "bool",
          "name": "",
          "type": "bool"
        }
      ],
      "stateMutability": "view",
      "type": "function"
    },
    {
      "inputs": [],
      "name": "timeUntilEndOfWeek",
      "outputs": [
        {
          "internalType": "uint256",
          "name": "",
          "type": "uint256"
        }
      ],
      "stateMutability": "view",
      "type": "function"
    },
    {
      "inputs": [
        {
          "internalType": "address",
          "name": "newOwner",
          "type": "address"
        }
      ],
      "name": "transferOwnership",
      "outputs": [],
      "stateMutability": "nonpayable",
      "type": "function"
    },
    {
      "inputs": [
        {
          "internalType": "address",
          "name": "externalMetadata_",
          "type": "address"
        }
      ],
      "name": "updateExternalMetadata",
      "outputs": [],
      "stateMutability": "nonpayable",
      "type": "function"
    },
    {
      "inputs": [
        {
          "internalType": "bool",
          "name": "paused_",
          "type": "bool"
        }
      ],
      "name": "updatePaused",
      "outputs": [],
      "stateMutability": "nonpayable",
      "type": "function"
    },
    {
      "inputs": [
        {
          "internalType": "uint256",
          "name": "price_",
          "type": "uint256"
        }
      ],
      "name": "updatePrice",
      "outputs": [],
      "stateMutability": "nonpayable",
      "type": "function"
    },
    {
      "inputs": [
        {
          "internalType": "address payable",
          "name": "proceedRecipient_",
          "type": "address"
        }
      ],
      "name": "updateProceedRecipient",
      "outputs": [],
      "stateMutability": "nonpayable",
      "type": "function"
    },
    {
      "inputs": [
        {
          "internalType": "address payable",
          "name": "speedruns_",
          "type": "address"
        }
      ],
      "name": "updateSpeedrunsAddress",
      "outputs": [],
      "stateMutability": "nonpayable",
      "type": "function"
    },
    {
      "inputs": [
        {
          "internalType": "address",
          "name": "verifier_",
          "type": "address"
        },
        {
          "internalType": "uint256",
          "name": "verifierBodies",
          "type": "uint256"
        },
        {
          "internalType": "uint256",
          "name": "verifierTicks",
          "type": "uint256"
        }
      ],
      "name": "updateVerifier",
      "outputs": [],
      "stateMutability": "nonpayable",
      "type": "function"
    },
    {
      "inputs": [
        {
          "internalType": "uint256",
          "name": "",
          "type": "uint256"
        },
        {
          "internalType": "uint256",
          "name": "",
          "type": "uint256"
        }
      ],
      "name": "verifiers",
      "outputs": [
        {
          "internalType": "address",
          "name": "",
          "type": "address"
        }
      ],
      "stateMutability": "view",
      "type": "function"
    },
    {
      "inputs": [
        {
          "components": [
            {
              "internalType": "uint256",
              "name": "bodyIndex",
              "type": "uint256"
            },
            {
              "internalType": "uint256",
              "name": "px",
              "type": "uint256"
            },
            {
              "internalType": "uint256",
              "name": "py",
              "type": "uint256"
            },
            {
              "internalType": "uint256",
              "name": "vx",
              "type": "uint256"
            },
            {
              "internalType": "uint256",
              "name": "vy",
              "type": "uint256"
            },
            {
              "internalType": "uint256",
              "name": "radius",
              "type": "uint256"
            },
            {
              "internalType": "bytes32",
              "name": "seed",
              "type": "bytes32"
            }
          ],
          "internalType": "struct AnybodyProblem.Body",
          "name": "bodyData",
          "type": "tuple"
        },
        {
          "internalType": "uint256[]",
          "name": "input",
          "type": "uint256[]"
        },
        {
          "internalType": "uint256",
          "name": "bodyCount",
          "type": "uint256"
        },
        {
          "internalType": "uint256",
          "name": "i",
          "type": "uint256"
        }
      ],
      "name": "verifyBodyDataMatches",
      "outputs": [],
      "stateMutability": "pure",
      "type": "function"
    },
    {
      "inputs": [
        {
          "internalType": "uint256",
          "name": "bodyCount",
          "type": "uint256"
        },
        {
          "internalType": "address",
          "name": "verifier",
          "type": "address"
        },
        {
          "internalType": "uint256[2]",
          "name": "a",
          "type": "uint256[2]"
        },
        {
          "internalType": "uint256[2][2]",
          "name": "b",
          "type": "uint256[2][2]"
        },
        {
          "internalType": "uint256[2]",
          "name": "c",
          "type": "uint256[2]"
        },
        {
          "internalType": "uint256[]",
          "name": "input",
          "type": "uint256[]"
        }
      ],
      "name": "verifyProof",
      "outputs": [],
      "stateMutability": "view",
      "type": "function"
    },
    {
      "inputs": [
        {
          "internalType": "address",
          "name": "",
          "type": "address"
        },
        {
          "internalType": "uint256",
          "name": "",
          "type": "uint256"
        },
        {
          "internalType": "uint256",
          "name": "",
          "type": "uint256"
        }
      ],
      "name": "weeklyRecords",
      "outputs": [
        {
          "internalType": "uint256",
          "name": "",
          "type": "uint256"
        }
      ],
      "stateMutability": "view",
      "type": "function"
    },
    {
      "inputs": [],
      "name": "windowWidth",
      "outputs": [
        {
          "internalType": "uint256",
          "name": "",
          "type": "uint256"
        }
      ],
      "stateMutability": "view",
      "type": "function"
    },
    {
      "stateMutability": "payable",
      "type": "receive"
    }
  ],
  "bytecode": "0x610120604052346200071d576200525a803803806200001e816200073d565b928339810160c0828203126200071d57620000398262000763565b90620000486020840162000763565b620000566040850162000763565b60e05260608401516001600160401b0381116200071d5784019382601f860112156200071d57845194620000946200008e8762000778565b6200073d565b9560208088838152019160051b830101918583116200071d57602001905b828210620007225750505060808101516001600160401b0381116200071d5783620000df91830162000790565b60a08201519093906001600160401b0381116200071d5762000102920162000790565b60008054336001600160a01b03198216811783556040519396939290916001600160a01b0316907f8be0079c531659141344cd1fd0a4f28419497f9722a3daafe3b4186f6b6457e09084a36003805460ff191690556608e1bc9bf040006004556001600160401b0360a0820190811190821117620005bd5760a0810160405260fa81526101f460208201526102ee60408201526103e860608201526104e260808201526008906000905b600582106200070257505060408051915081018082116001600160401b0390911117620005bd57604081016040526001815260005b60208110620006a95750805190680100000000000000008211620005bd5760175482601755808310620005d3575b50601760009081526000805160206200523a83398151915292916020015b8282106200039257505050506200024362000911565b60e051600680546001600160a01b0319166001600160a01b03929092169190911790556200027062000911565b600580546001600160a01b0319166001600160a01b03929092169190911790556200029a62000911565b600780546001600160a01b0319166001600160a01b039290921691909117905560005b83518110156200038257620002e0620002d78284620008a6565b511515620008d1565b620003026001600160a01b03620002f88387620008a6565b51161515620008d1565b6001600160a01b03620003168286620008a6565b5116620003248285620008a6565b51600052601860205260406000206200033e8385620008a6565b5160005260205260406000209060018060a01b031982541617905560001981146200036c57600101620002bd565b634e487b7160e01b600052601160045260246000fd5b6040516148cf90816200096b8239f35b60a08151600180831b0381511686549060ff841b60208401511515851b169160018060a81b031916171786556040810151600187015560608101516002870155608081015160038701550151805190680100000000000000008211620005bd57600486015482600488015580831062000547575b50602001906004860160005260206000206000915b8083106200043b575050505060056020600192019401910190926200022d565b969593949a91989b929990978a518051151560ff80198c54169116178a55602081015160018b0155604081015160028b0155606081015160805260038a0160c05260005b6005811062000526575060800151610100526008890160a05260005b60068110156200050557600190600761010051602081519160c083519360a051948555838101518886015560408101516002860155606081015160038601556080810151600486015560a081015160058601550151600684015501610100520160a052016200049b565b5097929b989099603260206001929d97969899949d0194019101916200041b565b60019081608051602081519160c051928355016080520160c052016200047f565b62000552906200081e565b6200055d836200081e565b906004880160005260206000209182015b81830181106200058057505062000406565b806000603292556000600182015560006002820155620005b660088201620005ac81600385016200084f565b8383019062000868565b016200056e565b634e487b7160e01b600052604160045260246000fd5b620005de90620007ed565b620005e983620007ed565b60176000526000805160206200523a833981519152919082015b8183018110620006155750506200020f565b60008155600060018201556000600282015560006003820155600481015460006004830155806200064b575b5060050162000603565b62000656906200081e565b600482016000526020600020908101905b81811062000676575062000641565b806000603292556000600182015560006002820155620006a260088201620005ac81600385016200084f565b0162000667565b604051906001600160401b0360c0830190811190831117620005bd578160c06020930160405260008152600083820152600060408201526000606082015260006080820152606060a082015282828501015201620001e1565b600160208261ffff83945116865501930191019091620001ac565b600080fd5b60208091620007318462000763565b815201910190620000b2565b6040519190601f01601f191682016001600160401b03811183821017620005bd57604052565b51906001600160a01b03821682036200071d57565b6001600160401b038111620005bd5760051b60200190565b9080601f830112156200071d57815190620007af6200008e8362000778565b9182938184526020808095019260051b8201019283116200071d578301905b828210620007dd575050505090565b81518152908301908301620007ce565b7f333333333333333333333333333333333333333333333333333333333333333381116001166200036c5760050290565b7f051eb851eb851eb851eb851eb851eb851eb851eb851eb851eb851eb851eb851e81116001166200036c5760320290565b8181106200085b575050565b600081556001016200084f565b81811062000874575050565b600790600080825580600183015580600283015580600383015580600483015580600583015560068201550162000868565b8051821015620008bb5760209160051b010190565b634e487b7160e01b600052603260045260246000fd5b15620008d957565b60405162461bcd60e51b815260206004820152601060248201526f24b73b30b634b2103b32b934b334b2b960811b6044820152606490fd5b6000546001600160a01b031633036200092657565b606460405162461bcd60e51b815260206004820152602060248201527f4f776e61626c653a2063616c6c6572206973206e6f7420746865206f776e65726044820152fdfe6101006040526004361015610098575b361561005c57346100575760405162461bcd60e51b81526020600482015260156024820152746e6f2066616c6c6261636b207468616e6b20796f7560581b6044820152606490fd5b600080fd5b60405162461bcd60e51b81526020600482015260146024820152736e6f2072656365697665207468616e6b20796f7560601b6044820152606490fd5b6000803560e01c8063010520a114612fad578063014a30d214612f6457806301ffc9a714612f0e578063041df08214612ef457806306575c8914612ed957806308cdc2a814612e9f578063098b5e9314612df85780630b27ce3f14612dcf57806310d80a5514612da4578063132d5ed914612d86578063158b38b614612d445780632a55205a14612ca05780632b057afa14612c545780632e93a49214612c1e5780633190b9ea14612b51578063355f74071461290e57806335d6f0cc14612b2f5780633bdbdb7114612b105780633ef2570b14612aeb57806343569ffb14612ab45780634b9862d914612a985780634caa028b14612a4f5780634dbe7f7314612a1f5780635103d6ea1461298a5780635120a2611461296d578063530ab7dc1461291e57806353e52f091461290e5780635542437b146128c75780635bd6b2ea1461287e5780635c9302c91461285c5780635c975abb146128395780636498c128146128025780636ef24f2d1461275b57806370180bc11461270a578063715018a6146126ac57806371b8ccb014612661578063770c5da11461262a5780637a19b19014612583578063861f75561461246957806387b07780146124405780638cc52cf3146124225780638d6cc56d146123fd5780638da5cb5b146123d6578063907311b11461232f5780639196b700146122ef5780639654c1f7146122c25780639691f1ab1461229b57806398a6a641146122575780639bc496171461222e578063a035b1fe14612210578063a483011414612164578063ac4a60471461211b578063adcbb85b1461208e578063ae66f57c14611fa5578063b24f67b814611eb5578063bd2c955214611df4578063c4b9d59f14611cbe578063c8b90ebb14611c0a578063cc80b8ea14611bc3578063d8531e6e14611b78578063de89d1c1146105b2578063e2adba8c14610596578063ed3437f814610579578063f2fde38b146104b3578063f6fbc39a14610410578063f81c8ec3146103f2578063f9cfa06f146103d45763ffd73d3b14610391575b5061000f565b346103d15761039f3661328a565b91908152600d602052604081209060038310156103d15760206103c284846134a7565b90549060031b1c604051908152f35b80fd5b50346103d157806003193601126103d1576020604051620151808152f35b50346103d157806003193601126103d1576020604051620f42408152f35b50346103d15760203660031901126103d15760043563ffffffff60e01b81168091036104af576020906301ffc9a760e01b811490811561049e575b811561048d575b811561047c575b811561046b575b506040519015158152f35b632483248360e11b14905082610460565b63152a902d60e11b81149150610459565b6303a24d0760e21b81149150610452565b636cdb3d1360e11b8114915061044b565b5080fd5b50346103d15760203660031901126103d1576104cd61332d565b6104d561364d565b6001600160a01b03908116801561052557600080546001600160a01b03198116831782556040519316907f8be0079c531659141344cd1fd0a4f28419497f9722a3daafe3b4186f6b6457e09084a3f35b60405162461bcd60e51b815260206004820152602660248201527f4f776e61626c653a206e6577206f776e657220697320746865207a65726f206160448201526564647265737360d01b6064820152608490fd5b50346103d157806003193601126103d15760206040516103e88152f35b50346103d157806003193601126103d157602060405160058152f35b5060c03660031901126103d1576024356001600160401b0381116104af576105de903690600401613200565b6044356001600160401b038111611b74576105fd9036906004016135e1565b6064356001600160401b038111611160573660238201121561116057806004013590610628826131e9565b9161063660405193846131c8565b80835260208301913660248360071b83010111611b705760248101925b60248360071b8301018410611b1457505050506084356001600160401b038111611b10576106859036906004016135e1565b916001600160401b0360a43511611b105736602360a435011215611b105760a43560040135916106b4836131e9565b926106c260405194856131c8565b80845260208401903660248260051b60a435010111611b0c57602460a43501915b60248260051b60a43501018310611ad9575050506004359360ff60035416611a9f57610714620151804206426136f5565b9385156116e2575b61072586613524565b50546001600160a01b0316330361168e5760ff61074187613524565b505460a01c1661165457600361075687613524565b500154850361160057875b81518110156115fa5786610775828a6136e1565b5161078083886136e1565b519061078c84886136e1565b5161079785886136e1565b51906107a386886136e1565b519260046107ba6107b48651614695565b97613524565b5001548096036115b557600186106115655760ff6107e96107da8f613524565b50600019890190600401613afa565b505416611579576001198611611565578e9060018701825260186020526040822091526020528d604060018060a01b039120541693841561152d57610830600187016132d0565b801960051161139c57600119600582011161139c5733906001600160a01b039061085d90600601876136e1565b5116036114da5761088c60036108858f61087690613524565b506000198a0190600401613afa565b5001613700565b6040519061089982613029565b6108ad6108a860018a016132e6565b6132d0565b80196005116114c35760021960058201116114c35760076108cf9101876136e1565b5182526108e16108a860018a016132e6565b80196005116114c35760021960058201116114c35760011960078201116114c357600861090f9101876136e1565b5160208301526109246108a860018a016132e6565b80196005116114c35760021960058201116114c35760021960078201116114c35760096109529101876136e1565b5160408301526109676108a860018a016132e6565b80196005116114c35760021960058201116114c35760031960078201116114c357600a6109959101876136e1565b5160608301526109aa6108a860018a016132e6565b80196005116114c35760021960058201116114c35760041960078201116114c357600b6109d89101876136e1565b51806080840152806113dd575b5050506040516109f481613029565b6109fd856136b4565b518152610a09856136c1565b516020820152610a18856136d1565b5160408201528451600310156113c757608085015160608201528451600410156113c7578f60038f610a56610a659160a08a01516080870152613524565b506000198b0190600401613afa565b500190915b600583106113b157505050610a81600187016132d0565b801960051161139c5791610aa99391610a9e8694600501856136e1565b519660018901614214565b610adb610ad0610aca610abb8d613524565b50600019870190600401613afa565b50613745565b9260208401516138f7565b8060208401526005600019850110156113885760078401541061134d578b828b859383610b0661386d565b505b60018601811061126557505090610b33610b24610b3993613524565b50600019860190600401613afa565b90613b16565b14610b4f575b5050610b4a906136a5565b610761565b906020600592610b79610b6a8c9b989d99969c9a979a613524565b50600019850190600401613afa565b50600160ff19825416179055828a8383015160405190815289858201527f416328325568dd8681e48de39e8d89a80ddf01a688fbcb49c28c621071c9333b60403392a40151610bd66001610bcc8b613524565b50019182546138f7565b90550361124b57610be686613524565b50805460ff60a01b1916600160a01b1790556004543403611212576005546040518a918291829134906001600160a01b03165af1610c22613d1f565b6007548b906001600160a01b0316803b156104af5781809160a46040518094819363093ccd3160e41b83523360048401528c602484015260016044840152608060648401528160848401525af18015611155576111fa575b50507fb08889abce443443404b2caf69aa3ccfb9ebfdf1ad2a634d06e11e24c1067938610cc060018060a01b036005541692604051918291604083526040830190613594565b943460208301521515940390a3856001610cd982613524565b5001546040519081528460208201527f7f05a2f6290fe88fe25ed1665c50706361d709c5003e3067340b9053916fd70760403392a3338952601460205260408920610d2481546136a5565b9055610d38610d3287613524565b50613d5c565b97895b60808a01518b52600d60205260038110156111ea5760808a01518b528a610d77610d32610d6b84604085206134a7565b90549060031b1c613524565b6040808d01519101518091109081156111e1575b50610d9f5750610d9a906136a5565b610d3b565b909194979892959960808198959801518252600d6020528960025b8481116111645750610df9610de060809495858501518752600d602052604087206134a7565b819391549060031b600019811b9283911b169119161790565b90550151610e0561364d565b60405190602082015260208152610e1b8161305f565b604051610e278161305f565b60018152602036818301377ff8e1a15aba9398e019f0b49df1a4fde98ee17ae345cb5f6b5e2c27f5033e8ce7610e5c826136b4565b526007546001600160a01b031691823b1561116057610e949284928360405180968195829463b46f007160e01b845260048401614829565b03925af180156111555761113d575b50505b6003610eb188613524565b500154338a52601460205260408a209060405191610ece83613044565b8054835260026001820154918260208601520154604084015262015180198111611129576201518001811461111257600160408301525b6020820152338a52601460205260408a20815181556020820151600182015560026040830151910155895b60038110611067575b5050338952601460205260408920600260405191610f5683613044565b805483526001810154602084015201546040820152895b60038110610f84575b5050610b4a905b9038610b3f565b8151600e8201546001600160a01b03168c52601460205260408c205410610fb357610fae906136a5565b610f6d565b905060025b818111610fdc5750600e0180546001600160a01b03191633179055610b4a38610f76565b600181106110535760036000198201101561103f57600d8101546001600160a01b0316600382101561102b57600e820180546001600160a01b031916909117905561102690613d4f565b610fb8565b634e487b7160e01b8c52603260045260248cfd5b634e487b7160e01b8b52603260045260248bfd5b634e487b7160e01b8b52601160045260248bfd5b60408281015160118301546001600160a01b03168d526014602052908c20600201541061109c57611097906136a5565b610f30565b905060025b8181116110c3575060110180546001600160a01b031916331790553880610f39565b600181106110535760036000198201101561103f5760108101546001600160a01b0316600382101561102b576011820180546001600160a01b031916909117905561110d90613d4f565b6110a1565b61111f60408301516136a5565b6040830152610f05565b634e487b7160e01b8c52601160045260248cfd5b61114690612ffb565b611151578838610ea3565b8880fd5b6040513d84823e3d90fd5b8380fd5b91809493506080915001518c52600d60205260408c20600182106111cd578c9392916111986111c2926000198301906134a7565b90549060031b1c60808501518652600d6020526111bb610de083604089206134a7565b9055613d4f565b8a9093929193610dba565b634e487b7160e01b8d52601160045260248dfd5b90501538610d8b565b5092959690939750939093610ea6565b61120390612ffb565b61120e578a38610c7a565b8a80fd5b60405162461bcd60e51b8152602060048201526011602482015270125b98dbdc9c9958dd081c185e5b595b9d607a1b6044820152606490fd5b9296919495610b4a9061126088969396613c0f565b610f7d565b928194955061129492509061127f846080819401516138d7565b5161128f8360018b018484613ea5565b613db3565b81156112f3575b60a0810151156112d6575b906112c5816112cb936080880151906112bf83836138d7565b526138d7565b506136a5565b8b8593928592610b08565b92906112c5816112e86112cb946136a5565b9592509250506112a6565b60a081015161129b5760405162461bcd60e51b8152602060048201526024808201527f596f752073686f742074686520626f647920796f752073686f756c642070726f6044820152631d1958dd60e21b6064820152608490fd5b60405162461bcd60e51b8152602060048201526013602482015272151a5b59481b1a5b5a5d08195e18d959591959606a1b6044820152606490fd5b634e487b7160e01b8d52603260045260248dfd5b50634e487b7160e01b8f52601160045260248ffd5b6001602082829351855501920192019190610a6a565b634e487b7160e01b600052603260045260246000fd5b815190835180921492836114b0575b8361149d575b8361148a575b8361147c575b505015918261146b575b508115611463575b501561141e573880806109e5565b60405162461bcd60e51b815260206004820152601760248201527f496e76616c696420696e666c696768744d697373696c650000000000000000006044820152606490fd5b905038611410565b60200151620f424014915038611408565b6080015114915038806113fe565b92506060830151606085015114926113f8565b92506040830151604085015114926113f2565b92506020830151602085015114926113ec565b50505060248f634e487b7160e01b81526011600452fd5b60405162461bcd60e51b815260206004820152602560248201527f4f776e6572206f6620746869732070726f6f66206973206e6f7420746865207360448201526432b73232b960d91b6064820152608490fd5b60405162461bcd60e51b815260206004820152601060248201526f24b73b30b634b2103b32b934b334b2b960811b6044820152606490fd5b634e487b7160e01b8f52601160045260248ffd5b60405162461bcd60e51b815260206004820152601460248201527313195d995b08185b1c9958591e481cdbdb1d995960621b6044820152606490fd5b60405162461bcd60e51b815260206004820152601f60248201527f50726576696f7573206c6576656c206e6f742079657420636f6d706c657465006044820152606490fd5b88604051f35b60405162461bcd60e51b815260206004820152602660248201527f43616e206f6e6c7920736f6c76652072756e73206f6e207468652063757272656044820152656e742064617960d01b6064820152608490fd5b60405162461bcd60e51b8152602060048201526012602482015271149d5b88185b1c9958591e481cdbdb1d995960721b6044820152606490fd5b60405162461bcd60e51b815260206004820152602660248201527f4f6e6c7920746865206f776e6572206f66207468652072756e2063616e20736f6044820152651b1d99481a5d60d21b6064820152608490fd5b94506017549460405160a0526116f960a05161300e565b87602060a051015287604060a051015287606060a051015287608060a0510152606060a0805101523360a0515260014310611a8957604051866020820152600060408201526000194301406060820152606081528060808101106001600160401b03608083011117611a73576080810160405260208151910120606060a051015284608060a0510152600160401b861015611a5f576001860160175561179e86613524565b611a4b5760a0805180518354602083015160ff60a01b901515851b166001600160a01b039092166001600160a81b0319909116171783556040810151600184015560608101516002840155608081015160038401550151805190600160401b8211611a3757600483015482600485015580831061198a575b5060206004910192018a5260208a208a905b82821061187d57505050507fbe33ae7a5df03243155e17a5896a63473638d0a5042d1504b59ea59ff0f2b0a560608060a0510151604051908982528860208301526040820152a161187886613c0f565b61071c565b95839a939b94959892999b979197516118a581511515899060ff801983541691151516179055565b60208101516001890155604081015160028901556060810151600389016080526000905b600582106119635750506080015198600888019660009a5b60068c101561194257600760208260c0600194518d815190558d86858301519101558d600260408301519101558d600360608301519101558d600460808301519101558d600560a0830151910155015160068d01550199019b019a976118e1565b50959c9a929893995095509592996032602060019201940192019091611828565b805160e08190526080805160c08190529182556001918201905291909101906020016118c9565b611993906132a0565b61199c836132a0565b90600485018d5260208d209182015b81830181106119bb575050611816565b8d81556000600182015560006002820155600381015b600882018110611a2b5750600881015b6032820181106119f457506032016119ab565b80600060079255600060018201556000600282015560006003820155600060048201556000600582015560006006820155016119e1565b600081556001016119d1565b634e487b7160e01b8b52604160045260248bfd5b634e487b7160e01b89526004899052602489fd5b634e487b7160e01b88526041600452602488fd5b634e487b7160e01b600052604160045260246000fd5b634e487b7160e01b600052601160045260246000fd5b60405162461bcd60e51b815260206004820152601260248201527110dbdb9d1c9858dd081a5cc81c185d5cd95960721b6044820152606490fd5b6001600160401b0383351161115157602080602492611aff3685883560a4350101613200565b81520193019290506106e3565b8780fd5b8480fd5b36601f8501121561005757604051611b2b8161305f565b803660808701116100575785905b608087018210611b56575050815260809390930192602001610653565b6020604091611b6536856134b7565b815201910190611b39565b8680fd5b8280fd5b50346103d15760203660031901126103d157600435906001600160401b0382116103d157610680611bb4611baf3660048601613200565b614751565b611bc160405180926135b9565bf35b50346103d15760203660031901126103d1576004356001600160a01b038116908190036104af57611bf261364d565b6001600160601b0360a01b6005541617600555604051f35b50346103d157602090816003193601126103d1576004356001600160401b0381116104af57611c3d903690600401613200565b9060405192611c4b84613120565b610a40809436903760405192611c6084613120565b84368537825b60528110611c985750506040519291835b60528210611c83578585f35b82806001928651815201940191019092611c77565b80611ca9611cb692849796976136e1565b518160051b8601526136a5565b939293611c66565b50346103d15760603660031901126103d1576001600160a01b0360443581811690819003610057578291611cf061364d565b60405190611d1260209260043584820152838152611d0d8161305f565b614876565b611d2b60405160243585820152848152611d0d8161305f565b906040519484860152838552611d408561305f565b606060405194611d4f86613105565b6003865236908601377f04d76c509b8f988dc8955b929b113410ea0e0897373914a00b48ea522da64173611d82856136b4565b52611d8c846136c1565b52611d96836136d1565b526007541691823b15611def57611dc69284928360405180968195829463b46f007160e01b845260048401614829565b03925af1801561115557611ddb575b50604051f35b611de490612ffb565b6103d1578038611dd5565b505050fd5b50346103d1576020806003193601126104af57611e1d6004611e168135613524565b5001613817565b6040519180830181845282518091528160408501930191855b828110611e435785850386f35b90919293828551805115158352818101518284015260408101516040840152606080820151908401908a915b60058310611e9f57505050600192611e9360806106409301516101008301906133b2565b01950193929101611e36565b8151815287946001909301929182019101611e6f565b50346103d1576020806003193601126104af5760065460405163295d33a960e21b81526004803590820152908390829060249082906001600160a01b03165afa928315611f99578093611f1d575b5050611f19604051928284938452830190613594565b0390f35b909192503d8082843e611f3081846131c8565b82019183818403126104af578051906001600160401b038211611b74570182601f820112156104af57805191611f6583613d04565b93611f7360405195866131c8565b8385528584840101116103d1575090611f919184808501910161355f565b903880611f03565b604051903d90823e3d90fd5b50346103d15760203660031901126103d157600435906017548210156103d15760a0600583601760005202807fc624b66cc0138b8fabc209247f72d758e1cf3343756d543badbf24212bed8c150154907fc624b66cc0138b8fabc209247f72d758e1cf3343756d543badbf24212bed8c16810154907fc624b66cc0138b8fabc209247f72d758e1cf3343756d543badbf24212bed8c187fc624b66cc0138b8fabc209247f72d758e1cf3343756d543badbf24212bed8c178201549101549160ff60405194600180881b0381168652861c1615156020850152604084015260608301526080820152f35b50346103d15760203660031901126103d1576004356001600160a01b038116908190036104af576120bd61364d565b47907fb08889abce443443404b2caf69aa3ccfb9ebfdf1ad2a634d06e11e24c106793861210a84808060405187875af16120f5613d1f565b90604051928392604084526040840190613594565b9560208301521515940390a3604051f35b50346103d15760203660031901126103d157600435906001600160401b0382116103d1576107c06121576121523660048601613200565b614799565b611bc160405180926134fc565b50346103d157806121743661328a565b61217c61364d565b60405191602083015260408201526040815261219781613044565b6040516121a38161305f565b60018152602036818301377f6bd5c950a8d8df17f772f5af37cb3655737899cbf903264b9795592da439661c6121d8826136b4565b526007546001600160a01b031691823b15611def57611dc69284928360405180968195829463b46f007160e01b845260048401614829565b50346103d157806003193601126103d1576020600454604051908152f35b50346103d157806003193601126103d1576006546040516001600160a01b039091168152602090f35b50346103d15761226636613343565b9160018060a01b03168352601560205260408320908352602052604082206007821015611b7457602092500154604051908152f35b50346103d15760203660031901126103d15760206122ba600435613a4b565b604051908152f35b50346103d15760203660031901126103d15760043560058110156104af5760209060080154604051908152f35b50346103d157806003193601126103d157601754906001821061231b5760405160001983018152602090f35b634e487b7160e01b81526011600452602490fd5b50346103d157602090816003193601126103d1576004356001600160401b0381116104af57612362903690600401613200565b9060405192612370846130e9565b610b80809436903760405192612385846130e9565b84368537825b605c81106123bd5750506040519291835b605c82106123a8578585f35b8280600192865181520194019101909261239c565b80611ca96123ce92849796976136e1565b93929361238b565b50346103d157806003193601126103d157546040516001600160a01b039091168152602090f35b50346103d15760203660031901126103d15761241761364d565b600435600455604051f35b50346103d157806003193601126103d15760206040516204f1a08152f35b50346103d157806003193601126103d1576007546040516001600160a01b039091168152602090f35b50346103d1576101603660031901126103d1576024356001600160a01b038116810361005757366063121561005757604051906124a58261305f565b608482368211610057576044905b8282106125735750503660a31215610057576040516124d18161305f565b806101049236841161005757905b83821061255957505036610123121561005757604051916124ff8361305f565b826101449136831161005757905b82821061254957505035936001600160401b03851161254557612537612540953690600401613200565b93600435614214565b604051f35b8580fd5b813581526020918201910161250d565b602060409161256836856134b7565b8152019101906124df565b81358152602091820191016124b3565b50346103d157602090816003193601126103d1576004356001600160401b0381116104af576125b6903690600401613200565b90604051926125c4846130cd565b6102c08094369037604051926125d9846130cd565b84368537825b601681106126115750506040519291835b601682106125fc578585f35b828060019286518152019401910190926125f0565b80611ca961262292849796976136e1565b9392936125df565b50346103d15760203660031901126103d15760043560038110156104af57600e01546040516001600160a01b039091168152602090f35b50346103d1576126703661328a565b919081526016602052604081209060038310156103d157602061269384846134a7565b905460405160039290921b1c6001600160a01b03168152f35b50346103d157806003193601126103d1576126c561364d565b600080546001600160a01b03198116825560405191906001600160a01b03167f8be0079c531659141344cd1fd0a4f28419497f9722a3daafe3b4186f6b6457e08284a3f35b50346103d15760203660031901126103d1576060906040906001600160a01b0361273261332d565b168152601460205220805490600260018201549101549060405192835260208301526040820152f35b50346103d157602090816003193601126103d1576004356001600160401b0381116104af5761278e903690600401613200565b906040519261279c846130b1565b610cc08094369037604051926127b1846130b1565b84368537825b606681106127e95750506040519291835b606682106127d4578585f35b828060019286518152019401910190926127c8565b80611ca96127fa92849796976136e1565b9392936127b7565b50346103d15760203660031901126103d15760043560038110156104af57601101546040516001600160a01b039091168152602090f35b50346103d157806003193601126103d157602060ff600354166040519015158152f35b50346103d157806003193601126103d15760206122ba620151804206426136f5565b50346103d15760203660031901126103d157600435906001600160401b0382116103d1576109006128ba6128b53660048601613200565b6147e1565b611bc1604051809261347f565b50346103d15760203660031901126103d1576004356001600160a01b038116908190036104af576128f661364d565b6001600160601b0360a01b6007541617600755604051f35b505061291861336d565b3861038b565b50346103d1576101403660031901126103d15761293a3661341e565b60e435906001600160401b038211611b745761295d612540923690600401613200565b9061012435916101043591613ea5565b50346103d157806003193601126103d1576020604051614e208152f35b50346103d1576101203660031901126103d1576129a63661341e565b9060e435906001600160401b0382116103d15760e06129d6846129cc3660048701613200565b6101043591613db3565b611bc1604051809260c08091805184526020810151602085015260408101516040850152606081015160608501526080810151608085015260a081015160a08501520151910152565b50346103d157610560612a3a612a343661328a565b90613903565b612a4760405180936133b2565b610540820152f35b50346103d15760203660031901126103d157600435906001600160401b0382116103d157610540612a8b612a863660048601613200565b614709565b611bc1604051809261338a565b50346103d157806003193601126103d157602060405160148152f35b50346103d157602090612ac63661328a565b90825260188352604082209082528252604060018060a01b0391205416604051908152f35b50346103d15760603660031901126103d15760206122ba60443560243560043561395c565b50346103d15760203660031901126103d15760206122ba600435614695565b50346103d15760403660031901126103d15760e06129d6602435600435613985565b50346103d15760203660031901126103d157612b6b61364d565b604051600435602082015260208152612b838161305f565b8160405191612b918361305f565b60018352602036818501377ff8e1a15aba9398e019f0b49df1a4fde98ee17ae345cb5f6b5e2c27f5033e8ce7612bc6846136b4565b526007546001600160a01b0316803b15611b7457612bfb938360405180968195829463b46f007160e01b845260048401614829565b03925af1801561115557612c0f5750604051f35b612c1890612ffb565b38611dd5565b50346103d157806003193601126103d157612c37613ad8565b9062093a8019821161231b5760206122ba4262093a8085016136f5565b50346103d157612c6336613343565b90612c6c61364d565b8352601860205260408320908352602052604082209060018060a01b03166001600160601b0360a01b825416179055604051f35b50346103d157612caf3661328a565b90825260026020526040822060405190612cc88261305f565b546001600160a01b0380821680845260a09290921c6020840152919015612d22575b6001600160601b0360208201511693836000190485118415151661231b57509261271091604094511692845193845202046020820152f35b50604051612d2f8161305f565b600154828116825260a01c6020820152612cea565b50346103d15760203660031901126103d157612d5e61332d565b612d6661364d565b60018060a01b03166001600160601b0360a01b6006541617600655604051f35b50346103d157806003193601126103d157602060405162093a808152f35b50346103d15760203660031901126103d15760206004612dc48135613524565b500154604051908152f35b50346103d157806003193601126103d1576005546040516001600160a01b039091168152602090f35b50346103d157602090816003193601126103d1576004356001600160401b0381116104af57612e2b903690600401613200565b9060405192612e3984613095565b610e00809436903760405192612e4e84613095565b84368537825b60708110612e865750506040519291835b60708210612e71578585f35b82806001928651815201940191019092612e65565b80611ca9612e9792849796976136e1565b939293612e54565b50346103d15760203660031901126103d1576004358015158091036104af57612ec661364d565b60ff801960035416911617600355604051f35b50346103d157806003193601126103d15760206122ba613ad8565b50346103d15760206122ba612f083661328a565b90613aa7565b50346103d15760203660031901126103d15760043563ffffffff60e01b81168091036104af5760209063152a902d60e11b8114908115612f5357506040519015158152f35b6301ffc9a760e01b14905082610460565b50346103d15760203660031901126103d157600435906001600160401b0382116103d157610400612fa0612f9b3660048601613200565b6146b4565b611bc1604051809261325e565b50346103d15760603660031901126103d15760043590612fcf826024356136f5565b908115612fe75760206122ba848460443506906138f7565b634e487b7160e01b81526012600452602490fd5b6001600160401b038111611a7357604052565b60c081019081106001600160401b03821117611a7357604052565b60a081019081106001600160401b03821117611a7357604052565b606081019081106001600160401b03821117611a7357604052565b604081019081106001600160401b03821117611a7357604052565b60e081019081106001600160401b03821117611a7357604052565b610e0081019081106001600160401b03821117611a7357604052565b610cc081019081106001600160401b03821117611a7357604052565b6102c081019081106001600160401b03821117611a7357604052565b610b8081019081106001600160401b03821117611a7357604052565b608081019081106001600160401b03821117611a7357604052565b610a4081019081106001600160401b03821117611a7357604052565b61040081019081106001600160401b03821117611a7357604052565b61054081019081106001600160401b03821117611a7357604052565b61068081019081106001600160401b03821117611a7357604052565b6107c081019081106001600160401b03821117611a7357604052565b61090081019081106001600160401b03821117611a7357604052565b90601f801991011681019081106001600160401b03821117611a7357604052565b6001600160401b038111611a735760051b60200190565b81601f8201121561005757803591613217836131e9565b9261322560405194856131c8565b808452602092838086019260051b820101928311610057578301905b82821061324f575050505090565b81358152908301908301613241565b916000915b602090818410156132835790806001928651815201940192019192613263565b5050915050565b6040906003190112610057576004359060243590565b7f051eb851eb851eb851eb851eb851eb851eb851eb851eb851eb851eb851eb851e8111600116611a895760320290565b806000190460051181151516611a895760050290565b6001600160ff1b038111600116611a895760011b90565b7f33333333333333333333333333333333333333333333333333333333333333338111600116611a895760050290565b600435906001600160a01b038216820361005757565b6060906003190112610057576004356001600160a01b038116810361005757906024359060443590565b503461005757600036600319011261005757602060405160028152f35b6000915b602a831061339b57505050565b60019082518152602080910192019201919061338e565b906000905b600682106133c457505050565b602060e082613412600194875160c08091805184526020810151602085015260408101516040850152606081015160608501526080810151608085015260a081015160a08501520151910152565b019301910190916133b7565b60e0906003190112610057576040519060e082018281106001600160401b03821117611a7357604052816004358152602435602082015260443560408201526064356060820152608435608082015260a43560a082015260c060c435910152565b6000915b6048831061349057505050565b600190825181526020809101920192019190613483565b60038210156113c7570190600090565b9080601f8301121561005757604051916134d08361305f565b82906040810192831161005757905b8282106134ec5750505090565b81358152602091820191016134df565b6000915b603e831061350d57505050565b600190825181526020809101920192019190613500565b6017548110156113c7576005906017600052027fc624b66cc0138b8fabc209247f72d758e1cf3343756d543badbf24212bed8c150190600090565b918091926000905b82821061357f575011613578575050565b6000910152565b91508060209183015181860152018291613567565b906020916135ad8151809281855285808601910161355f565b601f01601f1916010190565b6000915b603483106135ca57505050565b6001908251815260208091019201920191906135bd565b81601f82011215610057578035906135f8826131e9565b92604092613608845195866131c8565b808552602091828087019260061b85010193818511610057578301915b8483106136355750505050505090565b83869161364284866134b7565b815201920191613625565b6000546001600160a01b0316330361366157565b606460405162461bcd60e51b815260206004820152602060248201527f4f776e61626c653a2063616c6c6572206973206e6f7420746865206f776e65726044820152fd5b6000198114611a895760010190565b8051156113c75760200190565b8051600110156113c75760400190565b8051600210156113c75760600190565b80518210156113c75760209160051b010190565b818110611a89570390565b60405191906000835b6005821061372f5750505060a082018281106001600160401b03821117611a7357604052565b6001602081928554815201930191019091613709565b90604080519261375484613029565b8360ff8254161515815260019384830154916020928382015260029081850154868201526003613785818701613700565b90606091828401528751976137998961300e565b60009760080195895b6006808b101561380457898d926007928651906137be8261307a565b8c548252858d0154848301528b8d015488830152888d01548a83015260048d0154608083015260058d015460a08301528c015460c08201528152019801990198966137a2565b5050995050505092505050608091500152565b908154613823816131e9565b9261383160405194856131c8565b818452600090815260208082208186015b848410613850575050505050565b60328360019261385f85613745565b815201920193019290613842565b6040519061387a8261307a565b8160c06000918281528260208201528260408201528260608201528260808201528260a08201520152565b604051906138b28261300e565b8160005b60c081106138c2575050565b6020906138cd61386d565b81840152016138b6565b9060068110156113c75760051b0190565b61271081198111611a89570190565b81198111611a89570190565b919061390d6138a5565b9260005b8281111561392a5750506001198111611a895760010190565b806139428161393d61395794878761395c565b613985565b61394c82886138d7565b526112c581876138d7565b613911565b916040519160208301938452604083015260608201526060815261397f81613105565b51902090565b613a439061399161386d565b506139ac61399d61386d565b938085528260c0860152613a4b565b60a0840152604051906020918281019182528281526139ca8161305f565b519020620f424090818106838601526040518381019182528381526139ee8161305f565b5190209081066040850152604051828101918252828152613a0e8161305f565b519020614e2091613a208383066138e8565b6060860152604051908082019283528152613a3a8161305f565b519020066138e8565b608082015290565b613a8e60ff91600660405191613a608361300e565b60248352601b60208401526016604084015260116060840152600c6080840152600760a084015206906138d7565b51166103e8908060001904821181151516611a89570290565b9060014310611a89576040519060208201928352604082015260001943014060608201526060815261397f81613105565b6204f1a04210611a8957613af762093a806204f19f19420106426136f5565b90565b80548210156113c7576000526032602060002091020190600090565b9290613bf957613b37829392511515839060ff801983541691151516179055565b6020918284015192600193848301556040948581015193600294858501556060918281015160039081870190896000915b60058310613be5575050505060086080809301519601936000965b600680891015613bd757815180518855888101518c8901558c8101518b890155838101518589015585810151600489015560a0810151600589015560c0015190870155968901966007909501948601613b83565b505050505095505050505050565b80518455928101929101908a908801613b68565b634e487b7160e01b600052600060045260246000fd5b6003613c1a82613524565b500154906004613c2982613524565b5001546001198111611a89576001019060405192613c4684613029565b6000845260006020850152604084019260008452604051613c6681613029565b60a0368237606086015260808501613c7c6138a5565b8152613c888285613aa7565b8552613c948284613903565b5090526004613ca284613524565b5001938454600160401b811015611a73577f70f3b6a85b7a5047df9e61440f8b6480a7cd8a96f849a4092d0a22303a5dbb0f96610b33826080986001613cea95018155613afa565b5190604051938452602084015260408301526060820152a1565b6001600160401b038111611a7357601f01601f191660200190565b3d15613d4a573d90613d3082613d04565b91613d3e60405193846131c8565b82523d6000602084013e565b606090565b8015611a89576000190190565b90604051613d698161300e565b60a0613dae6004839560ff8154600180871b0381168752851c161515602086015260018101546040860152600281015460608601526003810154608086015201613817565b910152565b9190613dbd61386d565b50613dc7826132d0565b9160059280198411611a8957613ddf908401836136e1565b516020850152613dee816132d0565b80198411611a895760011984820111611a89576006613e0e9101836136e1565b516040850152613e1d816132d0565b80198411611a895760021984820111611a89576007613e3d9101836136e1565b516060850152613e4c816132d0565b9081198411611a895760031984830111611a8957613e706008613e7b9301846136e1565b5160808601526132d0565b9182198111611a895760041990830111611a89576009613e9c9201906136e1565b5160a082015290565b9291906020928385015190613eb9846132fd565b9060059180198311611a8957613eda90613ed2836132d0565b9084016138f7565b6002199390848111611a89576002613ef39101866136e1565b510361416a576040870151613f07866132fd565b80198411611a8957613f2490613f1c846132d0565b9085016138f7565b6001198111611a8957846001820111611a89576003613f449101866136e1565b510361413057606087015196613f59866132fd565b80198411611a8957613f6e90613f1c846132d0565b97848911611a89578460028a0111611a8957613f8e6004809a01876136e1565b51036140f9576080810151613fa2876132fd565b801985116140e457613fbf90613fb7856132d0565b9086016138f7565b60031981116140e4578560038201116140e45784613fde9101876136e1565b51036140ad5760a0613ff2910151956132fd565b9081198311614098579061400961401093926132d0565b91016138f7565b906004198211614083578582011161406e579060066140309201906136e1565b510361403a575050565b60405162461bcd60e51b815291820152600e60248201526d496e76616c69642072616469757360901b604482015260649150fd5b601185634e487b7160e01b6000525260246000fd5b601186634e487b7160e01b6000525260246000fd5b601188634e487b7160e01b6000525260246000fd5b60405162461bcd60e51b8152808901889052601060248201526f496e76616c696420766563746f72207960801b6044820152606490fd5b60118a634e487b7160e01b6000525260246000fd5b60405162461bcd60e51b8152808901889052601060248201526f092dcecc2d8d2c840eccac6e8dee440f60831b6044820152606490fd5b60405162461bcd60e51b8152600481018790526012602482015271496e76616c696420706f736974696f6e207960701b6044820152606490fd5b60405162461bcd60e51b8152600481018790526012602482015271092dcecc2d8d2c840e0dee6d2e8d2dedc40f60731b6044820152606490fd5b90816020910312610057575180151581036100575790565b6000915b600283106141cd57505050565b6001908251815260208091019201920191906141c0565b906000905b600282106141f657505050565b602060408261420860019487516141bc565b019301910190916141e9565b9390919293600281146000146143175750916105049161427f61426094614274614240602098996146b4565b9161426a6040519a8b998a98630f3022c960e21b8a5260048a01906141bc565b60448801906141e4565b60c48601906141bc565b61010484019061325e565b6001600160a01b03165afa90811561430b576000916142dd575b50156142a157565b60405162461bcd60e51b815260206004820152601460248201527324b73b30b634b21019103137b23c90383937b7b360611b6044820152606490fd5b6142fe915060203d8111614304575b6142f681836131c8565b8101906141a4565b38614299565b503d6142ec565b6040513d6000823e3d90fd5b600381036143e2575091610644916143666142609461435b61433b60209899614709565b9161426a6040519a8b998a986371dd4db160e11b8a5260048a01906141bc565b61010484019061338a565b6001600160a01b03165afa90811561430b576000916143c4575b501561438857565b60405162461bcd60e51b815260206004820152601460248201527324b73b30b634b21019903137b23c90383937b7b360611b6044820152606490fd5b6143dc915060203d8111614304576142f681836131c8565b38614380565b92939060049584878096146000146144b657509261443a6107849361442f6020979461426a6144146142609b99614751565b936040519b8c9a8b99632a6d5ed560e01b8b528a01906141bc565b6101048401906135b9565b6001600160a01b03165afa90811561430b57600091614498575b501561445d5750565b60649060206040519162461bcd60e51b8352820152601460248201527324b73b30b634b2101a103137b23c90383937b7b360611b6044820152fd5b6144b0915060203d8111614304576142f681836131c8565b38614454565b600581036145805750926145046108c4936144f96020979461426a6144de6142609b99614799565b936040519b8c9a8b9963ea59061d60e01b8b528a01906141bc565b6101048401906134fc565b6001600160a01b03165afa90811561430b57600091614562575b50156145275750565b60649060206040519162461bcd60e51b8352820152601460248201527324b73b30b634b2101a903137b23c90383937b7b360611b6044820152fd5b61457a915060203d8111614304576142f681836131c8565b3861451e565b600691929394955014600014614651576020936145d561426096946145ca610a049561426a6145af8c976147e1565b936040519b8c9a8b996311b5352360e01b8b528a01906141bc565b61010484019061347f565b6001600160a01b03165afa90811561430b57600091614633575b50156145f85750565b60649060206040519162461bcd60e51b8352820152601460248201527324b73b30b634b2101b103137b23c90383937b7b360611b6044820152fd5b61464b915060203d8111614304576142f681836131c8565b386145ef565b60405162461bcd60e51b8152602081880152601860248201527f496e76616c6964206e756d626572206f6620626f6469657300000000000000006044820152606490fd5b600c8110611a8957600a90600b19010460018110611a89576000190190565b906040516146c18161313c565b6104008091369037604051906146d68261313c565b36823760005b602081106146e957509150565b806146f761470492866136e1565b518160051b8401526136a5565b6146dc565b9060405161471681613158565b61054080913690376040519061472b82613158565b36823760005b602a811061473e57509150565b806146f761474c92866136e1565b614731565b9060405161475e81613174565b61068080913690376040519061477382613174565b36823760005b6034811061478657509150565b806146f761479492866136e1565b614779565b906040516147a681613190565b6107c08091369037604051906147bb82613190565b36823760005b603e81106147ce57509150565b806146f76147dc92866136e1565b6147c1565b906040516147ee816131ac565b610900809136903760405190614803826131ac565b36823760005b6048811061481657509150565b806146f761482492866136e1565b614809565b9092916040820191604081528451809352606081019260208096019060005b81811061486257505050613af79394818403910152613594565b825186529487019491870191600101614848565b60208151910151906020811061488a575090565b6000199060200360031b1b169056fea2646970667358221220245a6e885575f2812c88c4a6499ae1cdb565a4f53dc8473532376df2bca155d964736f6c634300080f0033c624b66cc0138b8fabc209247f72d758e1cf3343756d543badbf24212bed8c15",
  "linkReferences": {},
  "deployedLinkReferences": {}
}