{
  "_format": "hh-sol-artifact-1",
  "contractName": "Groth16Verifier",
  "sourceName": "contracts/Game_5_20Verifier.sol",
  "abi": [
    {
      "inputs": [
        {
          "internalType": "uint256[2]",
          "name": "_pA",
          "type": "uint256[2]"
        },
        {
          "internalType": "uint256[2][2]",
          "name": "_pB",
          "type": "uint256[2][2]"
        },
        {
          "internalType": "uint256[2]",
          "name": "_pC",
          "type": "uint256[2]"
        },
        {
          "internalType": "uint256[62]",
          "name": "_pubSignals",
          "type": "uint256[62]"
        }
      ],
      "name": "verifyProof",
      "outputs": [
        {
          "internalType": "bool",
          "name": "",
          "type": "bool"
        }
      ],
      "stateMutability": "view",
      "type": "function"
    }
  ],
  "bytecode": "0x6080806040523461001657612b1c908161001c8239f35b600080fdfe6080604052600436101561001257600080fd5b6000803560e01c63ea59061d1461002857600080fd5b34610370576108c03660031901126103705761004336610373565b3660c41161036c5761005436610385565b906108c436811161036857916103649161035f6020959461040060405261007d61010435610393565b61008961012435610393565b61009561014435610393565b6100a161016435610393565b6100ad61018435610393565b6100b96101a435610393565b6100c56101c435610393565b6100d16101e435610393565b6100dd61020435610393565b6100e961022435610393565b6100f561024435610393565b61010161026435610393565b61010d61028435610393565b6101196102a435610393565b6101256102c435610393565b6101316102e435610393565b61013d61030435610393565b61014961032435610393565b61015561034435610393565b61016161036435610393565b61016d61038435610393565b6101796103a435610393565b6101856103c435610393565b6101916103e435610393565b61019d61040435610393565b6101a961042435610393565b6101b561044435610393565b6101c161046435610393565b6101cd61048435610393565b6101d96104a435610393565b6101e56104c435610393565b6101f16104e435610393565b6101fd61050435610393565b61020961052435610393565b61021561054435610393565b61022161056435610393565b61022d61058435610393565b6102396105a435610393565b6102456105c435610393565b6102516105e435610393565b61025d61060435610393565b61026961062435610393565b61027561064435610393565b61028161066435610393565b61028d61068435610393565b6102996106a435610393565b6102a56106c435610393565b6102b16106e435610393565b6102bd61070435610393565b6102c961072435610393565b6102d561074435610393565b6102e161076435610393565b6102ed61078435610393565b6102f96107a435610393565b6103056107c435610393565b6103116107e435610393565b61031d61080435610393565b61032961082435610393565b61033561084435610393565b61034161086435610393565b61034d61088435610393565b6103596108a435610393565b35610393565b61252e565b8152f35b8380fd5b5080fd5b80fd5b9060049160441161038057565b600080fd5b9060c4916101041161038057565b7f30644e72e131a029b85045b68181585d2833e84879b9709143e1f593f000000111156103bc57565b6000805260206000f35b604051907f279af27793de0304982f6e555637150f90ff985699b0b0d2190faa762321230382527f04a4ad179e2b5bbbb1d3428e29a8cd1415dae5a581f3b74664473fade43a1e046020830152604082019081526107cf196040836060816007855a01fa156103bc5760409260066080939284938451905260a05160608401525a01fa156103bc57565b604051907f2cbb58c571eff84217359a6dfb6308462b56e79dbe994fb6de934793a62c46f482527f2453861ea2ea4e1494fffdd9de293def7176880d7b045ddaa7705ae134d6bd226020830152604082019081526107cf196040836060816007855a01fa156103bc5760409260066080939284938451905260a05160608401525a01fa156103bc57565b604051907f0217e1b97ad61297f835e96f8bf557e4091504622148ee220f66bee1d2da9dd282527f1e0a0b973927168903c943f7f18304426496fe8af17c604e94236f9c077aefa96020830152604082019081526107cf196040836060816007855a01fa156103bc5760409260066080939284938451905260a05160608401525a01fa156103bc57565b604051907ee277731f710e4909f050ebcc185f9385b3002370fb44cb1fbbaedda896e7b282527f16b02811c5c7e88fe95ed8c31a0f2aa4c03194a2d0f5978a87343da6cd08035b6020830152604082019081526107cf196040836060816007855a01fa156103bc5760409260066080939284938451905260a05160608401525a01fa156103bc57565b604051907f1ee59be6b44c73ee123c218b772a089554f775e5467f39fde86d523b1fc022c582527f243334c7ff85553af4c6583d9b260934658557a709a29e818f807a6fb83dbfba6020830152604082019081526107cf196040836060816007855a01fa156103bc5760409260066080939284938451905260a05160608401525a01fa156103bc57565b604051907f17fbed8168c40975965dee338a43d718766f2bba087c4b00c08bee7b3431066782527f21a02ad0e26b8dd44c20db794eca8d694803059e91f7c9902210f05f00c558ee6020830152604082019081526107cf196040836060816007855a01fa156103bc5760409260066080939284938451905260a05160608401525a01fa156103bc57565b604051907f1e1e98a0736b6218528cd31973e6565621ee764d7202871d48c5ba249c09c6fa82527f1f4d37f6f10cfcc548f31401d12a494c479d7f1c3a65d2fe036cdf50be0b8bd76020830152604082019081526107cf196040836060816007855a01fa156103bc5760409260066080939284938451905260a05160608401525a01fa156103bc57565b604051907f21d485b4518ada1b2b4f4f1396e1235805f1e5e22c9fd618e340a68917b00df282527f16ad1dbc144080c6e6b667b8d49b607dd889ec21da975b787829441c2a71386c6020830152604082019081526107cf196040836060816007855a01fa156103bc5760409260066080939284938451905260a05160608401525a01fa156103bc57565b604051907f1ac35d3cc80265304d2b7cc9fbb28d8f608ba5f31b75be0c1f1a122c3c1e8bcd82527f08f040e62b33da679d3a8523392913b4cd1c5d9fc0536b7d06d9bc06d48e4e096020830152604082019081526107cf196040836060816007855a01fa156103bc5760409260066080939284938451905260a05160608401525a01fa156103bc57565b604051907f018d03f3c078a588da7ac0cb49ed3c7459216b67210463fcd4d92ca0ae7801f382527f16cfd7c221132f5c30e131d111e6bc80a3930d6b736d26dd07aa6122216992636020830152604082019081526107cf196040836060816007855a01fa156103bc5760409260066080939284938451905260a05160608401525a01fa156103bc57565b604051907f20e1a2858ac22020d9a9652b3e7574c27ad9978120fea13ee4905bd30fc80bfa82527f0a5c24559138fdd6071cd584c2d162e4c7acf3286508d03505277eafc076dc906020830152604082019081526107cf196040836060816007855a01fa156103bc5760409260066080939284938451905260a05160608401525a01fa156103bc57565b604051907f0e3dfc79d1df8e7b04a52528b41dd6f513712283e6b3ae763424781f3b132f8482527f2d2bfdf79f6e4c8ef996e28a631f0a6d91532208b04418f1dea9c3f0876e3ae96020830152604082019081526107cf196040836060816007855a01fa156103bc5760409260066080939284938451905260a05160608401525a01fa156103bc57565b604051907f0da504d3eb6a103e5db43a2a714bbe35746a15d55b9a39d1f497d1f86d35b73682527f24c8b118549c8c9a66305f15523aba2a69e7e92c8df6b7afe1b31a1ced8dc4046020830152604082019081526107cf196040836060816007855a01fa156103bc5760409260066080939284938451905260a05160608401525a01fa156103bc57565b604051907f07b005bec402d89e61b4f6a4259fe3507431c3f8507116ab07a3b3ffb6df6ce282527f17f34a099bf4fced29ba1a2de7ee75dc6de3e1582a7e22762abefd2d80a454d06020830152604082019081526107cf196040836060816007855a01fa156103bc5760409260066080939284938451905260a05160608401525a01fa156103bc57565b604051907f12817b8447a9e570b2c780b933458cf54652918fb2a5010191fed4fab278ebc482527f11ecf671d1d6e1f410a9d82ba790e3d5db6d28e9eb53e93131134e21f399e3086020830152604082019081526107cf196040836060816007855a01fa156103bc5760409260066080939284938451905260a05160608401525a01fa156103bc57565b604051907f2dfdd22b5815792469e3b6c6764268ac5c2a2c45eb0b27adb4bfb7dc44a0815782527f22eb163aeb97d151e9bf10133d5ae4c3d2a4edc2c8b32ca270eb37c8493968056020830152604082019081526107cf196040836060816007855a01fa156103bc5760409260066080939284938451905260a05160608401525a01fa156103bc57565b604051907f09cddf219da9e4d439649b3b3a096ff36e97c15fa1aebcdbe9cf6750c2ca097082527f205c4ac17c4447d73488aef980e53f095bdb236321ce230b9589068683d73b676020830152604082019081526107cf196040836060816007855a01fa156103bc5760409260066080939284938451905260a05160608401525a01fa156103bc57565b604051907f065835c4f84a3007db0e60b6d1842b5664ba69fcbede9a956126648290ee161882527f22e0d4db18be5ece6d2b7f4f3afba6d3b4a465d3e4245692fcae9376580ab5f96020830152604082019081526107cf196040836060816007855a01fa156103bc5760409260066080939284938451905260a05160608401525a01fa156103bc57565b604051907f0d2a98ee0a21d84370ba3a52777376e16b1534ada34e731f602bdeebd3cd10ef82527f191a877213934f8fe30895e856b8c651cbfef471f8393de590214def466930896020830152604082019081526107cf196040836060816007855a01fa156103bc5760409260066080939284938451905260a05160608401525a01fa156103bc57565b604051907f116935ece0aa17bc29eb5c8dc96835722fe625962865237dd35debc86ac3786382527f143117c915f7078097c4e3a5ad35cc5c3266230a2baf073f98e4a68077949e1d6020830152604082019081526107cf196040836060816007855a01fa156103bc5760409260066080939284938451905260a05160608401525a01fa156103bc57565b604051907f1a990e8505a01252a15903279e6aa0062d435d680cb89f0d5f73d748a8a0577f82527f149a8232eb8375f03168bdc541d9663a674bc34b5f95a779167fe5991d669ded6020830152604082019081526107cf196040836060816007855a01fa156103bc5760409260066080939284938451905260a05160608401525a01fa156103bc57565b604051907f2dd1056f144ec7f185829a7aebf769359825c978581fb3e3968fe66cf9306e7682527f20bbe24057118244eea963e6ec7120f4ca477e4c828ef64021d07703e410d60e6020830152604082019081526107cf196040836060816007855a01fa156103bc5760409260066080939284938451905260a05160608401525a01fa156103bc57565b604051907f2fffbc2a06a2205dfa005d1f97879a37a09eea2ad27ccbd3fe1d6c96f1e9f0e082527f240d34e807ffa97bd2fe9fa4b874994d14a12b4c7d5e41b8e8b044b858da80b96020830152604082019081526107cf196040836060816007855a01fa156103bc5760409260066080939284938451905260a05160608401525a01fa156103bc57565b604051907f27fc5c4136391e168cceeb674d99c5f8ede8d9ef79d1e775b7f1e886c18c3f1d82527f2c1b0e23775e0f2dbf11ed1720c9cf00ebcb833597ae88defb2cecca6855fba56020830152604082019081526107cf196040836060816007855a01fa156103bc5760409260066080939284938451905260a05160608401525a01fa156103bc57565b604051907f2c35efce9235c3bc3c5a5ef1f6434a14aef781139dd308a205895d9d39e4c0de82527f15004f9c9764f29e439d206a74b2178077feae50671ff19d2ec8f1fe4ba6458b6020830152604082019081526107cf196040836060816007855a01fa156103bc5760409260066080939284938451905260a05160608401525a01fa156103bc57565b604051907ec4ab702f187c217d44e28dc4940aa66395c9a4243245107600b67184c69cf982527f2bad381fb7fbc2fa3cf814cccc96e008cf6ba9042270f1aafd176f9f6ce20da96020830152604082019081526107cf196040836060816007855a01fa156103bc5760409260066080939284938451905260a05160608401525a01fa156103bc57565b604051907f1797ad93d76d20f9cc149fdeb31032b51ec154a1c50147c89224b572b9e5fd8f82527f2712a42e031e9f3d19da53c2efc6f05ac5b18a593debf31f9dce7d7074429f9f6020830152604082019081526107cf196040836060816007855a01fa156103bc5760409260066080939284938451905260a05160608401525a01fa156103bc57565b604051907f25d42ab306a23ae5c76fc91b9054725faf35a8bd6c0a50aa32618576a8bc28e182527f0cbb4e3d7671beff235ecbd203558581d3077612efe81ba26ef233a7b51ba9946020830152604082019081526107cf196040836060816007855a01fa156103bc5760409260066080939284938451905260a05160608401525a01fa156103bc57565b604051907f10c81a91171829465e823c64bac08c6c154d50c33e2971eb9795df5f210ef16b82527f2fb63ba410d7fbe6e1e5d3820b482ee9b515e99285bcb55d306414222bacde426020830152604082019081526107cf196040836060816007855a01fa156103bc5760409260066080939284938451905260a05160608401525a01fa156103bc57565b604051907f0bc999a8bdc808205d4470a887879da3ebced97c889bdecf8148d9a54f97fa6b82527f15b8b037a08121c19753ea80186632574760d33b7556bf98e715ba014db105a06020830152604082019081526107cf196040836060816007855a01fa156103bc5760409260066080939284938451905260a05160608401525a01fa156103bc57565b604051907f22363622f64df699fb9f2f8eec1b377290bc28a89a2c79c9624a2239994844b282527f1f031d27756757e70bc7d019f15da47f01a0d7c1cac814b61da979266763dc676020830152604082019081526107cf196040836060816007855a01fa156103bc5760409260066080939284938451905260a05160608401525a01fa156103bc57565b604051907f247df86fee0c07eba997fdf300284bf9270441ce11bfc1c89bbb700dd613c9ae82527f2f02e14fbd801f85dc25457320cba14e0c524f47925f04003b4df300ab886c096020830152604082019081526107cf196040836060816007855a01fa156103bc5760409260066080939284938451905260a05160608401525a01fa156103bc57565b604051907f058c177e1c78a47982bf44e903c6c58a3ca263678700661cc110070eea1bee3e82527f08651f106185323295d35940f1785e2341a47f0676079cf1fdc1d7626e6a8a2b6020830152604082019081526107cf196040836060816007855a01fa156103bc5760409260066080939284938451905260a05160608401525a01fa156103bc57565b604051907f30174dac2a47b4899d69aa7f3d10d3cc08e159d91405ae89d2e1884066d7600582527f2b19e83e4028639add786d8a763b82b23b634f56d624f420dacfd407167152d46020830152604082019081526107cf196040836060816007855a01fa156103bc5760409260066080939284938451905260a05160608401525a01fa156103bc57565b604051907f01828e8d6859e3ac27ac24a441004ecb256d03169b578c620586fcd294aedf8382527f1490727344036eb3e4c584dcc2a6d00c1af5a4d052d4c9e922cf3740ddc42f666020830152604082019081526107cf196040836060816007855a01fa156103bc5760409260066080939284938451905260a05160608401525a01fa156103bc57565b604051907f1bf1e527f889fbe68039c2a103e195d408a816c7c06d5e0c23b21f523590263582527f164e823b0d843f58e6fdc677634e74fce6307bc4410b2cfd916cfc6cc9d868ac6020830152604082019081526107cf196040836060816007855a01fa156103bc5760409260066080939284938451905260a05160608401525a01fa156103bc57565b604051907f03af8ceae39e64cd7989cd33238da279729c2d6f08d42c4f2acc449e5c7cc3f382527f0d11e0783fb5dfdf25f6c9052047e0fbcd4fd4697736d8f9c83442acf6c84d806020830152604082019081526107cf196040836060816007855a01fa156103bc5760409260066080939284938451905260a05160608401525a01fa156103bc57565b604051907f06c7b4420e4c19c474ffa81de88a5be2cc297a12e48b234ca79d8a33bcd15c9f82527f179fa3bce8122b53d18eaf4cdead64eb0c8b4d695c1e243bab056dbf86575f546020830152604082019081526107cf196040836060816007855a01fa156103bc5760409260066080939284938451905260a05160608401525a01fa156103bc57565b604051907f2345478aadb4b01891938fdbd2bd30e83f065a1b5d29b8e284e9248d11ff35e282527f2c2619ba090eb1df5ac2478735da010d07c9c73bd87ba1c3b624e59f976610426020830152604082019081526107cf196040836060816007855a01fa156103bc5760409260066080939284938451905260a05160608401525a01fa156103bc57565b604051907f01d4c5c003e304fdcc43731c602e44c475df98a16d891f83cda03c3c2889106b82527f1cd04cd9c8a5e12f10e662bf5fdc489bb48e39f807970d9dabc9e2e6bfb210496020830152604082019081526107cf196040836060816007855a01fa156103bc5760409260066080939284938451905260a05160608401525a01fa156103bc57565b604051907f21ff6115db3c28d56f93eaf7128a22c162604515b6e74b57ef83040f67b76c5882527f2f22bd08741ed6886bee539caad35ffa1af6abc1d692157d8a580d5f5cdb536d6020830152604082019081526107cf196040836060816007855a01fa156103bc5760409260066080939284938451905260a05160608401525a01fa156103bc57565b604051907f2b667d76abc4f522a1ca177a9386158c03cdb406b57f622dab285edc280cacdf82527f2f394dcd24eb52c2f4fd84781d81f98f6bc920cc81a32d0a4b7dcd003484c0a86020830152604082019081526107cf196040836060816007855a01fa156103bc5760409260066080939284938451905260a05160608401525a01fa156103bc57565b604051907f0fd3b7f48b024a9ec5e967303da7db7e05dbda7c5724e67e7e81ef6b43f3e80f82527f28a615c050effd5f7879a18378e81fcb5de09f1287d1797bab799d51c7b107296020830152604082019081526107cf196040836060816007855a01fa156103bc5760409260066080939284938451905260a05160608401525a01fa156103bc57565b604051907f0f2444f34206d11764ffe81be29a28232ea58ebae9f9aa2efc3ca318045d387182527f03ea7f756a4a257ed5b73e756e47a9d20c3038663f31ab0509def4ab2629eb4f6020830152604082019081526107cf196040836060816007855a01fa156103bc5760409260066080939284938451905260a05160608401525a01fa156103bc57565b604051907f06a2f44295e9d8ba17e96c0a2a4dbb3f35dd83c8fa5293a6154399ded214f0be82527f1834b12797fd58300beec3e779207a5526777c9d2fb8403839ce1dd5c85a07d36020830152604082019081526107cf196040836060816007855a01fa156103bc5760409260066080939284938451905260a05160608401525a01fa156103bc57565b604051907f2c7901c1982bbfcef39adb379eb785767ba19f7b277fe0d8232d1d5d1347ead582527ea7a8c38fea1620b00bdeeb936a49c1b8e5494f324c1a55e7d5af4e7574d6f36020830152604082019081526107cf196040836060816007855a01fa156103bc5760409260066080939284938451905260a05160608401525a01fa156103bc57565b604051907f2dd6b47621a72a702c03b9c790959ce6bfea400da79b0f02391663996e285abe82527f0448a57283b99eb2a03a20fc2436a0369712265e18a214c065b1369d8fd885b46020830152604082019081526107cf196040836060816007855a01fa156103bc5760409260066080939284938451905260a05160608401525a01fa156103bc57565b604051907f076f695325b9abbeb3d6f90e13646ff423c5eb1fdcf0fd1a986f17b46041be4582527f01f0c371a908e5b59203e03238a92333ca09066bbf179a393cf9cef3a1f594626020830152604082019081526107cf196040836060816007855a01fa156103bc5760409260066080939284938451905260a05160608401525a01fa156103bc57565b604051907f22ad69cd848628249073e862707c3fa901b71a973418d8b6a6469bb633dc058282527f1348b822c6e04c109ee2f6400562827c147418f73fffcc39eca28f9757bdb2826020830152604082019081526107cf196040836060816007855a01fa156103bc5760409260066080939284938451905260a05160608401525a01fa156103bc57565b604051907f267f1d59568ab3dee25c5581b437b453de4a98f960f19af3b20061a3d333e1ca82527f1065615f9896ac8a1c49cd37ca5d70043db37bc05f86f852565a75d21e9bbc6c6020830152604082019081526107cf196040836060816007855a01fa156103bc5760409260066080939284938451905260a05160608401525a01fa156103bc57565b604051907f1d9dddaffaa158f1a1dce69fa9a37567c95a4852bf924b2f1b0ed23bb2fab1be82527f293e8a4dad0633e9ed50cb6a78fce878cdb92e977842800638ee1b6a0e03be486020830152604082019081526107cf196040836060816007855a01fa156103bc5760409260066080939284938451905260a05160608401525a01fa156103bc57565b604051907f2f7aa7e6dc3689af749797bf928bfc9f5344bca95f26397413209f9864df8c3f82527f18e9bea9e69a321b2b6fc407648e940e4201c72bdd98bb5c86d243cd0e03449c6020830152604082019081526107cf196040836060816007855a01fa156103bc5760409260066080939284938451905260a05160608401525a01fa156103bc57565b604051907f23dc23059c8f6823a86d2c4e1174b15f03874337986cfd583d08afc753f1a4a282527f0c1f3d192d7901b5894fb0915e25208df9b718240ea45202f10c1533b28772d36020830152604082019081526107cf196040836060816007855a01fa156103bc5760409260066080939284938451905260a05160608401525a01fa156103bc57565b604051907f1f1d8315e28151500f3303b9a24e5ed684a7307d1f2f51af46251fb0a7be662682527f0ce56f587f83fd6ddb61f9034cd8412f9eb8fdd46e2f11c7e51cf1ebdf3cfac86020830152604082019081526107cf196040836060816007855a01fa156103bc5760409260066080939284938451905260a05160608401525a01fa156103bc57565b604051907f26e6c8022e1d1915c8dbce1ad25c9bb5596c01af39b690d31e213e5ce06ed02a82527f12fd343ab8ba82139096bb9fb6c9413bba953dc1f5511a5afa283e1824eb69d56020830152604082019081526107cf196040836060816007855a01fa156103bc5760409260066080939284938451905260a05160608401525a01fa156103bc57565b604051907f0949cc632720781cb56715fdc7c0796239d247cfc51a9259aaf6c249cf26599582527f09f0c9af573acde0e5826129c4285ac2b7030181e2d8eaed05961748d9bd3d1c6020830152604082019081526107cf196040836060816007855a01fa156103bc5760409260066080939284938451905260a05160608401525a01fa156103bc57565b604051907f112ea3ac18131cf19679cf962d23a16cb2f4f4fd144f064174c0c8e85726894682527f2ea3d8d99e58d81a90993c25f7221131e487c0ef5a0dde8175ab181da2d8f8416020830152604082019081526107cf196040836060816007855a01fa156103bc5760409260066080939284938451905260a05160608401525a01fa156103bc57565b604051907edcf4152093dcedc31a8b621dabcad4a96c5ccb09b43c8f1110b743a1f87d6482527f2676ef7a58b8d4652328f6896ca9de8e31f575ed827fd49d4fdb2af2ee9cea6a6020830152604082019081526107cf196040836060816007855a01fa156103bc5760409260066080939284938451905260a05160608401525a01fa156103bc57565b604051907f2603875b21c492b30a7e994aa834ac8e499870430fc24085b409ae8ccc0d850182527f2de16a954d11f2d4baae433137f1784e60f66958ec0000b8b4e32296159b15476020830152604082019081526107cf196040836060816007855a01fa156103bc5760409260066080939284938451905260a05160608401525a01fa156103bc57565b604051907f171321178d66aa5beba4936fddd6bc39c9e8866d657d5694a86a9b31c3d4d0d082527f020bc4439bab9035a18731067d5d12fbe4a640851c186041d9e8be0effe9b7326020830152604082019081526107cf196040836060816007855a01fa156103bc5760409260066080939284938451905260a05160608401525a01fa156103bc57565b604051907f19fb71a2218a26014bc296cfb19826be8997ecdde8b35b5aaee0097ec137cd4682527f1da70fd657a807a1902844e8fca5127cd2c520e162a2e34db6628a7adece259e6020830152604082019081526107cf196040836060816007855a01fa156103bc5760409260066080939284938451905260a05160608401525a01fa156103bc57565b604051907f116d9434a4132ab2cfa95892c4e2fd0917e80f2764565971b7e52950a7d4297282527f01d4e4e0f1e5bc57d83bd749ba9249f899d7d9a8630b9b4eb0b47acc6c1f580e6020830152604082019081526107cf196040836060816007855a01fa156103bc5760409260066080939284938451905260a05160608401525a01fa156103bc57565b6020907f019cd0b1759ea165c96d484aada630a4ef0c46f551ea23ca64c57c570d48d82d6080527f27671811c53f9c9e03d05342b4cd1faf4fbc5dac84c1fd01147dcb7283fbe7cc60a052612585610104356103c6565b61259161012435610450565b61259d610144356104da565b6125a961016435610564565b6125b5610184356105ed565b6125c16101a435610677565b6125cd6101c435610701565b6125d96101e43561078b565b6125e561020435610815565b6125f16102243561089f565b6125fd61024435610929565b612609610264356109b3565b61261561028435610a3d565b6126216102a435610ac7565b61262d6102c435610b51565b6126396102e435610bdb565b61264561030435610c65565b61265161032435610cef565b61265d61034435610d79565b61266961036435610e03565b61267561038435610e8d565b6126816103a435610f17565b61268d6103c435610fa1565b6126996103e43561102b565b6126a5610404356110b5565b6126b16104243561113f565b6126bd610444356111c8565b6126c961046435611252565b6126d5610484356112dc565b6126e16104a435611366565b6126ed6104c4356113f0565b6126f96104e43561147a565b61270561050435611504565b6127116105243561158e565b61271d61054435611618565b612729610564356116a2565b6127356105843561172c565b6127416105a4356117b6565b61274d6105c435611840565b6127596105e4356118ca565b61276561060435611954565b612771610624356119de565b61277d61064435611a68565b61278961066435611af2565b61279561068435611b7c565b6127a16106a435611c06565b6127ad6106c435611c8f565b6127b96106e435611d19565b6127c561070435611da3565b6127d161072435611e2d565b6127dd61074435611eb7565b6127e961076435611f41565b6127f561078435611fcb565b6128016107a435612055565b61280d6107c4356120df565b6128196107e435612169565b612825610804356121f3565b6128316108243561227d565b61283d61084435612306565b61284961086435612390565b6128556108843561241a565b6128616108a4356124a4565b61010092818492358352837f30644e72e131a029b85045b68181585d97816a916871ca8d3c208c16d87cfd479101358103066101205260443561014052606435610160526084356101805260a4356101a0527f2d4d9aa7e302d9df41749d5507949d05dbea33fbb16c643b22f599a2be6df2e26101c0527f14bedd503c37ceb061d8ec60209fe345ce89830a19230301f076caff004d19266101e0527f0967032fcbf776d1afc985f88877f182d38480a653f2decaa9794cbc3bf3060c610200527f0e187847ad4c798374d0d6732bf501847dd68bc0e071241e0213bc7fc13db7ab610220527f304cfbd1e08a704a99f5e847d93f8c3caafddec46b7a0d379da69a4d112346a7610240527f1739c1b1a457a8c7313123d24d2f9192f896b7c63eea05a9d57f06547ad0cec8610260526080516102805260a0516102a0527f198e9393920d483a7260bfb731fb5d25f1aa493335a9e71297e485b7aef312c26102c0527f1800deef121f1e76426a00665e5c4479674322d4f75edadd46debd5cd992f6ed6102e05282610300917f090689d0585ff075ec9e99ad690c3395bc4b313370b38ef355acdadcd122975b83527f12c85ea5db8c6deb4aab71808dcb408fe3d1e7690c43d37b4ce6cc0166fa7daa610320528035610340520135610360527f0f57ce45f46d2c401e116173c62b3742620dcac6db62c4b0974700395e645c6a610380527f28316a4ede8c00366bd51dc616a7108d32c2fcb8d7e0bc4834392f4eb5b1b5ef6103a0527f234eb84fda2a4ba4151a8d1021c41eb253fa65ff362dd65f87138b0716b4e3066103c0527f03aa70258e4b25b700cd7afe47e56629a774cbc4801863f3e9dd7318b99e4eeb6103e0528160086107cf195a01fa9051169056fea2646970667358221220780ce50c2769d7d92c1473a33700ee2affff632a30155690a1cf61c4b2cc054f64736f6c634300080f0033",
  "linkReferences": {},
  "deployedLinkReferences": {}
}