{
  "_format": "hh-sol-artifact-1",
  "contractName": "Groth16Verifier",
  "sourceName": "contracts/Game_7_100Verifier.sol",
  "abi": [
    {
      "inputs": [
        {
          "internalType": "uint256[2]",
          "name": "_pA",
          "type": "uint256[2]"
        },
        {
          "internalType": "uint256[2][2]",
          "name": "_pB",
          "type": "uint256[2][2]"
        },
        {
          "internalType": "uint256[2]",
          "name": "_pC",
          "type": "uint256[2]"
        },
        {
          "internalType": "uint256[71]",
          "name": "_pubSignals",
          "type": "uint256[71]"
        }
      ],
      "name": "verifyProof",
      "outputs": [
        {
          "internalType": "bool",
          "name": "",
          "type": "bool"
        }
      ],
      "stateMutability": "view",
      "type": "function"
    }
  ],
  "bytecode": "0x60808060405234610016576130cf908161001c8239f35b600080fdfe6080604052600436101561001257600080fd5b6000803560e01c637940f8ec1461002857600080fd5b346103dc576109e03660031901126103dc57610043366103df565b3660c4116103d857610054366103f1565b906109e43681116103d457916103d0916103cb6020959461040060405261007d610104356103ff565b610089610124356103ff565b610095610144356103ff565b6100a1610164356103ff565b6100ad610184356103ff565b6100b96101a4356103ff565b6100c56101c4356103ff565b6100d16101e4356103ff565b6100dd610204356103ff565b6100e9610224356103ff565b6100f5610244356103ff565b610101610264356103ff565b61010d610284356103ff565b6101196102a4356103ff565b6101256102c4356103ff565b6101316102e4356103ff565b61013d610304356103ff565b610149610324356103ff565b610155610344356103ff565b610161610364356103ff565b61016d610384356103ff565b6101796103a4356103ff565b6101856103c4356103ff565b6101916103e4356103ff565b61019d610404356103ff565b6101a9610424356103ff565b6101b5610444356103ff565b6101c1610464356103ff565b6101cd610484356103ff565b6101d96104a4356103ff565b6101e56104c4356103ff565b6101f16104e4356103ff565b6101fd610504356103ff565b610209610524356103ff565b610215610544356103ff565b610221610564356103ff565b61022d610584356103ff565b6102396105a4356103ff565b6102456105c4356103ff565b6102516105e4356103ff565b61025d610604356103ff565b610269610624356103ff565b610275610644356103ff565b610281610664356103ff565b61028d610684356103ff565b6102996106a4356103ff565b6102a56106c4356103ff565b6102b16106e4356103ff565b6102bd610704356103ff565b6102c9610724356103ff565b6102d5610744356103ff565b6102e1610764356103ff565b6102ed610784356103ff565b6102f96107a4356103ff565b6103056107c4356103ff565b6103116107e4356103ff565b61031d610804356103ff565b610329610824356103ff565b610335610844356103ff565b610341610864356103ff565b61034d610884356103ff565b6103596108a4356103ff565b6103656108c4356103ff565b6103716108e4356103ff565b61037d610904356103ff565b610389610924356103ff565b610395610944356103ff565b6103a1610964356103ff565b6103ad610984356103ff565b6103b96109a4356103ff565b6103c56109c4356103ff565b356103ff565b612a75565b8152f35b8380fd5b5080fd5b80fd5b906004916044116103ec57565b600080fd5b9060c491610104116103ec57565b7f30644e72e131a029b85045b68181585d97816a916871ca8d3c208c16d87cfd47111561042857565b6000805260206000f35b604051907f1e0d434ee95d6a1d81918b607eac4626732a48c07e79ab97dc7e2d934680d33282527f17083387ef0a0ae59134cc703ce8b9c4d422848ca157fff521a284f64b74f6ad6020830152604082019081526107cf196040836060816007855a01fa156104285760409260066080939284938451905260a05160608401525a01fa1561042857565b604051907f28eb6c7909e7ce37964a223ff06a0cb6df98403d4cf2ce570ca038d3b8ba1ed182527f145b00f99456ce3be16f4b7b27c91c1a5bc151efd57c23752e4560883254e3126020830152604082019081526107cf196040836060816007855a01fa156104285760409260066080939284938451905260a05160608401525a01fa1561042857565b604051907f19cb06562f86dcae41ba82d7c767e2264b34834df244d32edd798164f1ab5fc782527f1d0e78b91395efe02dba692bfed74b7e73e52143c30694d79f32f4088ea8c65c6020830152604082019081526107cf196040836060816007855a01fa156104285760409260066080939284938451905260a05160608401525a01fa1561042857565b604051907f1f16d2a63a9e17f71b052ccadc4560a35c16068e0e1222045cbe97060fa2900882527f245e31218001fb5b497011d0affab377289982b5e5f85baf84cea89f1888788e6020830152604082019081526107cf196040836060816007855a01fa156104285760409260066080939284938451905260a05160608401525a01fa1561042857565b604051907f09f257600df1a50fa7c969f9475be81e0344a60f0a34b1a98b6c457878164caa82527f2f65fd0f5d1f0f0c23708abdf5bd6d062c4e0ae263704c5feebad0db47e015896020830152604082019081526107cf196040836060816007855a01fa156104285760409260066080939284938451905260a05160608401525a01fa1561042857565b604051907f13b70ec35d6f8c6db9ff2883d8ade44f58aaed50fffd30cd36930708e64fd7a482527f213d3fdbf25e990e13fee1de3ace18dcd0efd052baf5216ae7af5bbc89e2f7146020830152604082019081526107cf196040836060816007855a01fa156104285760409260066080939284938451905260a05160608401525a01fa1561042857565b604051907f18bb11d0bc211cbef2b4a8280e7a8871468716848f9a5823dc792d69bebbf34882527f02babac7dcedfdda13c8d386cde56d539b0c071e8afc5ef6ab8426a58f363cdc6020830152604082019081526107cf196040836060816007855a01fa156104285760409260066080939284938451905260a05160608401525a01fa1561042857565b604051907f2914d3bd2298a992e94a8e0c6780071c736c51543296e60b705bdbec8237f0e082527f2a83337d4740bd2142d9a436caf7ddf1238cef88e8d92c2720e9e18a805d2c716020830152604082019081526107cf196040836060816007855a01fa156104285760409260066080939284938451905260a05160608401525a01fa1561042857565b604051907f2e8c4241c9a0f5bc059d56d7d6102a3d604c8909676cb5fdda5f8ef01b8449ea82527f11078b1914d46b5239a06f120bc6de223d2a59726d9a812298b56409cd2a656a6020830152604082019081526107cf196040836060816007855a01fa156104285760409260066080939284938451905260a05160608401525a01fa1561042857565b604051907f2acae1636fa108fb8692fdcb1b916d71a183e2aa0a624df087e75ac6e7d4aad482527ef946406efbd61428541984113c8297ac9e00c27fbe781def229a75765231b06020830152604082019081526107cf196040836060816007855a01fa156104285760409260066080939284938451905260a05160608401525a01fa1561042857565b604051907f229d94a6a3a7737df9155408ca43ebd070c7a3c49fbd844a8b860235a01dd27882527f0e4bef286c3e58956cb78b3ad4e68aa49471564290103483155fcb0012a9cf906020830152604082019081526107cf196040836060816007855a01fa156104285760409260066080939284938451905260a05160608401525a01fa1561042857565b604051907f13a686fe618f3e442edeb89be2cec401a0cdae3121cbdfce0b5c1f7b5b8fc69a82527f0fac177ca4b64c656149a6f2055f38e9a3f460156cc3efc672f8e914b15a04476020830152604082019081526107cf196040836060816007855a01fa156104285760409260066080939284938451905260a05160608401525a01fa1561042857565b604051907f2f0499b2e4a80aba7bbf51b63a86835ee9dc2ec22308588bcdadc7fa5f69832a82527f0c68c439f5a0cec9aaf2eb81fc118f57d4ca1c95566aedccc004f4628bc2a85b6020830152604082019081526107cf196040836060816007855a01fa156104285760409260066080939284938451905260a05160608401525a01fa1561042857565b604051907f03bba9bbaae98e55ebd7571fc0027c5fa6968d114835214c880c33f1261c6a7282527f18382d595696b522a429ac95d9d21116550298d122c86ab90faffe4e89ec35216020830152604082019081526107cf196040836060816007855a01fa156104285760409260066080939284938451905260a05160608401525a01fa1561042857565b604051907f026571686293a127343eca132cb401863a9a3bfcc91bfb7cf2a5a85157bc4a2a82527f1a07bd0813ed80d7ca84185ecd7391e2cc20bb5daf2da69bb1a3a2345fad60946020830152604082019081526107cf196040836060816007855a01fa156104285760409260066080939284938451905260a05160608401525a01fa1561042857565b604051907f017f0092a5cb2eb6a76e92ce45a0732581ddd5e767792aef0ff0d18c57d13ef482527f091d9ebe1863c0fd1bfd14aacc144f6d56fd1daf56da99a45c369b11836ee79b6020830152604082019081526107cf196040836060816007855a01fa156104285760409260066080939284938451905260a05160608401525a01fa1561042857565b604051907f08a1b236d2ad88f2098951c5526f2f8d2e3d70e7420394ee5344d97bc72b706e82527f1937c7113ee0f96fbf7b0662802b130bff62bc936f1794955b98e5cef95dd7876020830152604082019081526107cf196040836060816007855a01fa156104285760409260066080939284938451905260a05160608401525a01fa1561042857565b604051907f23a725061131524335314bb50c2996b29b139e08e118de7535a9d450f4600f4c82527f2c52508d46131a727140a0d4fca8157bb591ca38ba3e97faded838c9892060ce6020830152604082019081526107cf196040836060816007855a01fa156104285760409260066080939284938451905260a05160608401525a01fa1561042857565b604051907f02d05037355b9ec78da99b3d2032a0ce87996c06ff9058af0786506d90fb3eb082527f23c5b2b0f87c71e1b1af02a9e1322cc71f9e69a58f4509fb4ae488dbfbc32c7c6020830152604082019081526107cf196040836060816007855a01fa156104285760409260066080939284938451905260a05160608401525a01fa1561042857565b604051907f14e6c8e659abdd76372927842cc3ec1caca6249f4fe3307fe6b4a8ea470e3afd82527f0e41fd77516ce481c15c07fc4964183411204a78cd49498982077be4d4f9f1156020830152604082019081526107cf196040836060816007855a01fa156104285760409260066080939284938451905260a05160608401525a01fa1561042857565b604051907f1a1ebb85db70b03332ec856e2faed8b3dbf1ea18fbea4ee5858267ada166f56a82527f08802c775b874079021978e004f03fd225f3f492b61ff7d916d8c38c09edf4896020830152604082019081526107cf196040836060816007855a01fa156104285760409260066080939284938451905260a05160608401525a01fa1561042857565b604051907f25ab3c250d6e6823f07a27f881163c1e87d90ae1ca46ca68ce244efbc0f1b85682527f060b8511aca1e648ca3ab96a7a4db2ac5caa30e67560f71818d08262c99b00fa6020830152604082019081526107cf196040836060816007855a01fa156104285760409260066080939284938451905260a05160608401525a01fa1561042857565b604051907f2d0532f9b079c059725c4dccf0cd71c1421e536ae5b2aebef3561bca0cc832ba82527f1cc814f41461cb7600530b17698c993dc8e4874dc1602c64ad390ea540503b2e6020830152604082019081526107cf196040836060816007855a01fa156104285760409260066080939284938451905260a05160608401525a01fa1561042857565b604051907f146cfe857758069d6e855d7fe0e60d759ed747577df3a26cee7770a0f34317f582527f2ccde2a5035b4bb509af5cb6ddd5cc00c43b15535c7c411934792ab4c9f3f5826020830152604082019081526107cf196040836060816007855a01fa156104285760409260066080939284938451905260a05160608401525a01fa1561042857565b604051907f1c10ac8da59ba4ac283472a9b4d569505605d06a2156494e4ef86f136ce64a0582527f0e481fcec1e4362a65bd2dd752206ce07768bcb42f62f1d0dde3265626846a806020830152604082019081526107cf196040836060816007855a01fa156104285760409260066080939284938451905260a05160608401525a01fa1561042857565b604051907f20d0e4f0b4633d9f477f1ebf9ede169b80bef6bdf8ffc15d6e34dd483e2360b182527f29bb582af9a9a65e6aee4ef5310bfb4dc8ee4e9b06dc15d9f4fd462151c2b00e6020830152604082019081526107cf196040836060816007855a01fa156104285760409260066080939284938451905260a05160608401525a01fa1561042857565b604051907f020f69063f9ae25150ea0184fcfa5068681e447d7e48705f57d5e5b829bad8aa82527f222570a7169b302cb98ede1f18f3766ec4252f7f2548a5ed995eb8f6cee769df6020830152604082019081526107cf196040836060816007855a01fa156104285760409260066080939284938451905260a05160608401525a01fa1561042857565b604051907f025bdce8747aa884052f14cfb47816d3f47725f9f5a4293e1ab3beffd406d97282527f272251a02871b587999e3a9d174a25c66ffee3b6813ac621385a22680ec132cd6020830152604082019081526107cf196040836060816007855a01fa156104285760409260066080939284938451905260a05160608401525a01fa1561042857565b604051907f2179a9645b204a7d2cb7a778e0b7b435fe1b6534aa2b2fd11ee01750f642790c82527f1d12a5c86d6465a035ffdb117f3bf737110ff55ef7f2f70dba1405c7c43752ee6020830152604082019081526107cf196040836060816007855a01fa156104285760409260066080939284938451905260a05160608401525a01fa1561042857565b604051907f0752f916c9572ffa859547bce006f2590db82e0ef9b36af01f4de0afd777ca8682527f1faa2a1ac146f36ae8c06a513dd0dee4b2caf2efb1e3fdafc6621fd8608ccae36020830152604082019081526107cf196040836060816007855a01fa156104285760409260066080939284938451905260a05160608401525a01fa1561042857565b604051907f224090eb353be4acb469e0264cdc0bdbdf7ec87b9b1ddace593dc069b5bbd96182527f09d4fb40595734b1d6889602832b7f0a1f785cd1adf767cca295591c46a082c96020830152604082019081526107cf196040836060816007855a01fa156104285760409260066080939284938451905260a05160608401525a01fa1561042857565b604051907f0c675e6758b14072c7a6de3b60236af65b0803c9b1371c06e798e7f1bdc9235d82527f0d8e7964d44af036fec8f15c4abe6efe8b374f2a088b616d73e6fb230bf104b46020830152604082019081526107cf196040836060816007855a01fa156104285760409260066080939284938451905260a05160608401525a01fa1561042857565b604051907f29645c800c54c8bbf3530b06c3c411de846cab0d45f0faf19d2424fbeb9c26be82527f07bdb6f11cce9b05760ec252ca1463cd770bc3d646d9d5d790b95de120cf6da36020830152604082019081526107cf196040836060816007855a01fa156104285760409260066080939284938451905260a05160608401525a01fa1561042857565b604051907f1e183d81f9578065bb5584736192a2e3314e49fde32727e801b6901c942a697682527f139c65216fb48271d3062d6635be171b0cc119e20c6e2e3e43c7311528bd94236020830152604082019081526107cf196040836060816007855a01fa156104285760409260066080939284938451905260a05160608401525a01fa1561042857565b604051907f2e227f24f458c9f2aee3355f5983f1fd6a5c682cd9a040d82623498ac507105482527f19b65bc6d051ce3765f633209d4a5a99749818f0055d4543183a90a7b60b74a66020830152604082019081526107cf196040836060816007855a01fa156104285760409260066080939284938451905260a05160608401525a01fa1561042857565b604051907f037272a1bef142188f31e4c93bb1beef8833720bfe19bad03d1738e669bd108282527f2caa539c7b8b4b3c1d71d5a176ba3d95c41ceab7f1a4e45ca56903be4dcbcfce6020830152604082019081526107cf196040836060816007855a01fa156104285760409260066080939284938451905260a05160608401525a01fa1561042857565b604051907f0c98ec3894ca4978745f702cf737130a497df8465f14cdd75ff76b22aadd1f2e82527f103668ca7e4a6e277740e978b9ba7699cf66fb5cbb109afd17085ba4bd966caa6020830152604082019081526107cf196040836060816007855a01fa156104285760409260066080939284938451905260a05160608401525a01fa1561042857565b604051907f1169b13d223026367fd226c28416b24a8c0641adc9bd97f160ce78fc929a047782527f04d7e073f015f6aa9dcf08128b392447e6476eb053fb0e5b91cddb4bd2194d7c6020830152604082019081526107cf196040836060816007855a01fa156104285760409260066080939284938451905260a05160608401525a01fa1561042857565b604051907f2f1fbcca2d63e922f34587b01ce6145030ccf3ac841b23119c0f2db0ec7fc6c482527f03498a9db6400882771516322ee9f4c4a21b26b344d2a527a70c33bfd58c34416020830152604082019081526107cf196040836060816007855a01fa156104285760409260066080939284938451905260a05160608401525a01fa1561042857565b604051907f2356fcef05fdaf8b1983f81620008b7921fa0ffb45487929d36ebe756db0c4de82527f2aba88eaa0c9b9787c4e5f330a2841abb8a0cd5bd847495ece7cd36ef68980456020830152604082019081526107cf196040836060816007855a01fa156104285760409260066080939284938451905260a05160608401525a01fa1561042857565b604051907f0e48300d5b973472df4aa25420aa5c377a8f04707e51b57eb674ccb5ce9e2fe382527f078744beb5610b4fc1b4c3bf6450c569c877e8906cea8bad7a8d4f7ae8f5473f6020830152604082019081526107cf196040836060816007855a01fa156104285760409260066080939284938451905260a05160608401525a01fa1561042857565b604051907f072d524ddf1292ef1c9d15cd2eef98d909f51563b4ef43fa3ec58c35f61795c082527f2f5f5638c67dcf08ea83aadc673079a1b045b0d8420f181eabd8c8fb736c29156020830152604082019081526107cf196040836060816007855a01fa156104285760409260066080939284938451905260a05160608401525a01fa1561042857565b604051907f1f9363289602890ef88ca006cc14795f87a5bc21f87cd78e81435144b657b58a82527f1dce0341740a3bac184e4940b9dba04c6fe4a7042a560434d77c3ef29b9cda296020830152604082019081526107cf196040836060816007855a01fa156104285760409260066080939284938451905260a05160608401525a01fa1561042857565b604051907f2df7988e7f649132718c64a4d3083f9d3dd92e3856406972568a61b61b3d82d082527f10a87f9f5b9fecda20ebc053a8d3d0eb4bb11b5f0a3f6017b39fc30fa6f042436020830152604082019081526107cf196040836060816007855a01fa156104285760409260066080939284938451905260a05160608401525a01fa1561042857565b604051907f14125c8246d3faedf319be34ec8825175dac41b7375c1ff341611b67a9aa8b1182527f2e48316afad41560b5d5bcd4591f5b0e750c0b5d610174d94bc73e6d0ce13a1d6020830152604082019081526107cf196040836060816007855a01fa156104285760409260066080939284938451905260a05160608401525a01fa1561042857565b604051907f255a2098e146e0f607ea709e2ab438446423ac3cef2ce1c7fe6040381588cf2b82527f09dfa9573825f30d6889d35e582c31f8e71b317f0ad346afac698684b763a4ee6020830152604082019081526107cf196040836060816007855a01fa156104285760409260066080939284938451905260a05160608401525a01fa1561042857565b604051907f03600c8e8b0ac77b03f19616cc60abe996e5c0ed12f5b45f7137de2f00e728ce82527f22468d3682415feb5ae96713c24eef756aefe4db83e2efaa6c5111ee24005e9c6020830152604082019081526107cf196040836060816007855a01fa156104285760409260066080939284938451905260a05160608401525a01fa1561042857565b604051907f26fa6704555a4093f2e3ca2bf76bd9f932372248bf7fdc8b7ebb20613edf009a82527edd1b39916e72dcceae632b2b018e22bb764e372161798b76ced61f3a1c4cf86020830152604082019081526107cf196040836060816007855a01fa156104285760409260066080939284938451905260a05160608401525a01fa1561042857565b604051907f16a8612260fba480974721580e4590bf0551f0d36b865e522431d7bfe9258e6b82527f07af5708f8595607e03b908cc2aaaf9b0fae83eab81cc2bf4cde80f532d71f6a6020830152604082019081526107cf196040836060816007855a01fa156104285760409260066080939284938451905260a05160608401525a01fa1561042857565b604051907f10603d5a0a3c1cae09d9da7274116f7730d2dd891b9905cac7cb82cb9f2d21ff82527f077eed3cbc7dd0a60a09d64dcef3b2bd16898d6906155463e15cdc1901d29df26020830152604082019081526107cf196040836060816007855a01fa156104285760409260066080939284938451905260a05160608401525a01fa1561042857565b604051907f12b83230294e2b385bccddb0ace449057f7aa29243c883a01260cdac3ae71c7a82527f034668041e6d00a22918c8397521c361bac3bbc2a515099b9140a5e55a11c9b06020830152604082019081526107cf196040836060816007855a01fa156104285760409260066080939284938451905260a05160608401525a01fa1561042857565b604051907f1cb66cf36725e2954ce736c83f1ede03b4393472933875176e1187d8286ffbcd82527f048aa6d0ff9a059f00fc840161e4fc0040832fa7f52f54dc7ad01e14a549a2f46020830152604082019081526107cf196040836060816007855a01fa156104285760409260066080939284938451905260a05160608401525a01fa1561042857565b604051907f199e15fd0d4532ac56e27b47fc2db4c78c991ebd04fc8d0927635e03dcff5a6682527f19de4dc631f583c09f2325e50572877b73941bdb00139e7bd85f6f06c76c5a216020830152604082019081526107cf196040836060816007855a01fa156104285760409260066080939284938451905260a05160608401525a01fa1561042857565b604051907f0dcdcb6e93812809b2739e7d1d9772b6472e0236590541838e3feb84f498b22782527f03e0353c90a37ca8527aeb6b95de6625e854ab8441d6972553cf9082fb411e8c6020830152604082019081526107cf196040836060816007855a01fa156104285760409260066080939284938451905260a05160608401525a01fa1561042857565b604051907f1427ca24f37c9624100972b53f97470ee30efefd136cbe37e83e274ca5b4db5882527f06f31108d949c3a32a0051a52d22dd1be28590ade64f428d6748687d627355786020830152604082019081526107cf196040836060816007855a01fa156104285760409260066080939284938451905260a05160608401525a01fa1561042857565b604051907e47a05baa9b729c44b2d0567b887ef432865d57f0e381aa2859d8a6ac370ca582527f199acce95877249f429d3935ef0afb12bab16e3425a8f9128649529d7f4084316020830152604082019081526107cf196040836060816007855a01fa156104285760409260066080939284938451905260a05160608401525a01fa1561042857565b604051907f03ff32bf10a2776a271dc521482b3d1cb52d9c9c2de12a1505f8fe7ec5549b3382527f168d03d6e8037eb06998459d679a9dbdd24d69b601f8f5a466fb7338183048bd6020830152604082019081526107cf196040836060816007855a01fa156104285760409260066080939284938451905260a05160608401525a01fa1561042857565b604051907f2975a94061c9199727ea615fe3dc7443ea30dbf0ed12461dfea957532d2e71ba82527f15687c7db7831725ce45b7d8ee898510facc382764ce8b7c4521db10369398816020830152604082019081526107cf196040836060816007855a01fa156104285760409260066080939284938451905260a05160608401525a01fa1561042857565b604051907f2f1febf459d4fda3c67127195420f425d8b332e88e6a5c4d6cc890b1f2e7c7fc82527f2df82822c8d7e367fe939a3a0f37ae9879512dfe24fb3615b3a34fa9210d09a46020830152604082019081526107cf196040836060816007855a01fa156104285760409260066080939284938451905260a05160608401525a01fa1561042857565b604051907f180725f0317909e2e7d62077ec6325e0a48a7045f039fe6528328c0347fd588f82527f0ce8b3b470ce2ad152de6357f050f976d82337b3d368a460b2ecabac7f7d82b86020830152604082019081526107cf196040836060816007855a01fa156104285760409260066080939284938451905260a05160608401525a01fa1561042857565b604051907f236737a8df8da2faa0441eabd928b9340dc8b020e2a810571231fdeab1c4ba1582527f1b33add34227bb4212b21820e89364b6d71ebd82ea0978c3c999b345d60509fb6020830152604082019081526107cf196040836060816007855a01fa156104285760409260066080939284938451905260a05160608401525a01fa1561042857565b604051907f21154137a3092c66c9b3e2e1a22b24c62e7286136db78417bd65fc6bebbd5d5482527f2f46c27b64900d829d8bdafaca2dab8ebc7e7253637c207baf2f22bcad0a57db6020830152604082019081526107cf196040836060816007855a01fa156104285760409260066080939284938451905260a05160608401525a01fa1561042857565b604051907f2c2666155718b97437f8c593d740ac3b721395b1f35e76c6462f2c21a798f8ea82527f0db6ad47d4a730daeefc2ecad2aa5ed506954b5e07dfffd16c4eb36f52a9e4f96020830152604082019081526107cf196040836060816007855a01fa156104285760409260066080939284938451905260a05160608401525a01fa1561042857565b604051907f1ed55f88c19765a697b24f52b20f2aefd804373d98818f59799fd1a74b5ac8d882527f1c289b6aab52dabc75ce0fe0154d7daad1d6b60709196eb7c01dbbacaf731b5a6020830152604082019081526107cf196040836060816007855a01fa156104285760409260066080939284938451905260a05160608401525a01fa1561042857565b604051907f15e7cdf86c6e5d27f70c7322418bbfd8c8882b2a3e0ec9df0e5eeb1a6b5c9cab82527f183801a153a28961d8bfdc7f4d499b00745784a0758d5982a8b07cbb04cf1e6c6020830152604082019081526107cf196040836060816007855a01fa156104285760409260066080939284938451905260a05160608401525a01fa1561042857565b604051907f220f2d96fa1a1647893864938d25b70bb76eec7ac26532de102636215508432682527f12d001006c4a471a48d391a9c82c06e0d7dfdb4c1ded9a53b9ad3c45ed2de8ab6020830152604082019081526107cf196040836060816007855a01fa156104285760409260066080939284938451905260a05160608401525a01fa1561042857565b604051907f24f0d05f7533dee10101bcac648cff5cd0e1e9e810368d76993037ca042fc17182527f09a6ddd54f63b9f9e122e517f432117ff2969afb93fc9e3e02b906153434c2996020830152604082019081526107cf196040836060816007855a01fa156104285760409260066080939284938451905260a05160608401525a01fa1561042857565b604051907f22f7656f212d9ea1ea39499cbeb61f7fd53e5ea1598865c43fb565c860b15bda82527f23bbd1211a7ada924bc56b1f473681515be8ffd85a4952cbd5cb72d6e92540636020830152604082019081526107cf196040836060816007855a01fa156104285760409260066080939284938451905260a05160608401525a01fa1561042857565b604051907f23f51ae97c55ceaa4eb5a19eb783dd8b05dade5ac32b689b31fa504d120546b982527f2cfc9f24b37b628d72a660df18042d312494b26b9b6c11d2a0636b35e34f98586020830152604082019081526107cf196040836060816007855a01fa156104285760409260066080939284938451905260a05160608401525a01fa1561042857565b604051907f08211043fdd07e45f1f131274c282980852d0f4e6a7b56752d75302ff4bbd37482527f2e44abcce48d404cb054bcaae32cfbff200320c04b64bdfc990a01882fe0f24c6020830152604082019081526107cf196040836060816007855a01fa156104285760409260066080939284938451905260a05160608401525a01fa1561042857565b604051907f2793e32279bed9d6b778fe766bdb25097354175ceba822c49560fa2c5e4d958f82527f1e7b0443b7338798f0c7d173ffcde4eabe6efc62e62b1d4d8eca048c57999b716020830152604082019081526107cf196040836060816007855a01fa156104285760409260066080939284938451905260a05160608401525a01fa1561042857565b6020907f11b92260b5ddb6cd9d0c123a09aa3c87c82b4fed3b2fd060e058a50d44b898576080527f283da2d87b7e8d508510143f1a06770d47acfe220f570a889c63a83fb43058c960a052612acc61010435610432565b612ad8610124356104bc565b612ae461014435610546565b612af0610164356105d0565b612afc6101843561065a565b612b086101a4356106e4565b612b146101c43561076e565b612b206101e4356107f8565b612b2c61020435610882565b612b386102243561090c565b612b4461024435610995565b612b5061026435610a1f565b612b5c61028435610aa9565b612b686102a435610b33565b612b746102c435610bbd565b612b806102e435610c47565b612b8c61030435610cd1565b612b9861032435610d5b565b612ba461034435610de5565b612bb061036435610e6f565b612bbc61038435610ef9565b612bc86103a435610f83565b612bd46103c43561100d565b612be06103e435611097565b612bec61040435611121565b612bf8610424356111ab565b612c0461044435611235565b612c10610464356112bf565b612c1c61048435611349565b612c286104a4356113d3565b612c346104c43561145d565b612c406104e4356114e7565b612c4c61050435611571565b612c58610524356115fb565b612c6461054435611685565b612c706105643561170f565b612c7c61058435611799565b612c886105a435611823565b612c946105c4356118ad565b612ca06105e435611937565b612cac610604356119c1565b612cb861062435611a4b565b612cc461064435611ad5565b612cd061066435611b5f565b612cdc61068435611be9565b612ce86106a435611c73565b612cf46106c435611cfd565b612d006106e435611d87565b612d0c61070435611e10565b612d1861072435611e9a565b612d2461074435611f24565b612d3061076435611fae565b612d3c61078435612038565b612d486107a4356120c2565b612d546107c43561214c565b612d606107e4356121d6565b612d6c6108043561225f565b612d78610824356122e9565b612d8461084435612373565b612d90610864356123fd565b612d9c61088435612487565b612da86108a435612511565b612db46108c43561259b565b612dc06108e435612625565b612dcc610904356126af565b612dd861092435612739565b612de4610944356127c3565b612df06109643561284d565b612dfc610984356128d7565b612e086109a435612961565b612e146109c4356129eb565b61010092818492358352837f30644e72e131a029b85045b68181585d97816a916871ca8d3c208c16d87cfd479101358103066101205260443561014052606435610160526084356101805260a4356101a0527f2d4d9aa7e302d9df41749d5507949d05dbea33fbb16c643b22f599a2be6df2e26101c0527f14bedd503c37ceb061d8ec60209fe345ce89830a19230301f076caff004d19266101e0527f0967032fcbf776d1afc985f88877f182d38480a653f2decaa9794cbc3bf3060c610200527f0e187847ad4c798374d0d6732bf501847dd68bc0e071241e0213bc7fc13db7ab610220527f304cfbd1e08a704a99f5e847d93f8c3caafddec46b7a0d379da69a4d112346a7610240527f1739c1b1a457a8c7313123d24d2f9192f896b7c63eea05a9d57f06547ad0cec8610260526080516102805260a0516102a0527f198e9393920d483a7260bfb731fb5d25f1aa493335a9e71297e485b7aef312c26102c0527f1800deef121f1e76426a00665e5c4479674322d4f75edadd46debd5cd992f6ed6102e05282610300917f090689d0585ff075ec9e99ad690c3395bc4b313370b38ef355acdadcd122975b83527f12c85ea5db8c6deb4aab71808dcb408fe3d1e7690c43d37b4ce6cc0166fa7daa610320528035610340520135610360527f054851ce066f01b3611b28fc10d4c5f515a3b982bf553090b9a6755dc174c6a6610380527f12ed9b3205ebb2b2db568aca62854591b79bc05d1cbf427b3f4a6902b1e54eeb6103a0527f29c95095b26dcb3ee9a11c4a88084a469be9b1c98c525c28a85b908dee6a8c496103c0527f1fbf356c41caf349a74b26b8a7c717d2b06fc67d18ccffe5794802169c739a5e6103e0528160086107cf195a01fa9051169056fea2646970667358221220253b277147a8bb93b2e40ca57fc6aabcf3e98f5eb3179b02641b65f895c673e964736f6c634300080f0033",
  "linkReferences": {},
  "deployedLinkReferences": {}
}