{
  "_format": "hh-sol-artifact-1",
  "contractName": "Groth16Verifier",
  "sourceName": "contracts/Game_6_100Verifier.sol",
  "abi": [
    {
      "inputs": [
        {
          "internalType": "uint256[2]",
          "name": "_pA",
          "type": "uint256[2]"
        },
        {
          "internalType": "uint256[2][2]",
          "name": "_pB",
          "type": "uint256[2][2]"
        },
        {
          "internalType": "uint256[2]",
          "name": "_pC",
          "type": "uint256[2]"
        },
        {
          "internalType": "uint256[61]",
          "name": "_pubSignals",
          "type": "uint256[61]"
        }
      ],
      "name": "verifyProof",
      "outputs": [
        {
          "internalType": "bool",
          "name": "",
          "type": "bool"
        }
      ],
      "stateMutability": "view",
      "type": "function"
    }
  ],
  "bytecode": "0x6080806040523461001657612a7b908161001c8239f35b600080fdfe6080604052600436101561001257600080fd5b6000803560e01c63d2decc841461002857600080fd5b34610364576108a03660031901126103645761004336610367565b3660c4116103605761005436610379565b906108a436811161035c5791610358916103536020959461040060405261007d61010435610387565b61008961012435610387565b61009561014435610387565b6100a161016435610387565b6100ad61018435610387565b6100b96101a435610387565b6100c56101c435610387565b6100d16101e435610387565b6100dd61020435610387565b6100e961022435610387565b6100f561024435610387565b61010161026435610387565b61010d61028435610387565b6101196102a435610387565b6101256102c435610387565b6101316102e435610387565b61013d61030435610387565b61014961032435610387565b61015561034435610387565b61016161036435610387565b61016d61038435610387565b6101796103a435610387565b6101856103c435610387565b6101916103e435610387565b61019d61040435610387565b6101a961042435610387565b6101b561044435610387565b6101c161046435610387565b6101cd61048435610387565b6101d96104a435610387565b6101e56104c435610387565b6101f16104e435610387565b6101fd61050435610387565b61020961052435610387565b61021561054435610387565b61022161056435610387565b61022d61058435610387565b6102396105a435610387565b6102456105c435610387565b6102516105e435610387565b61025d61060435610387565b61026961062435610387565b61027561064435610387565b61028161066435610387565b61028d61068435610387565b6102996106a435610387565b6102a56106c435610387565b6102b16106e435610387565b6102bd61070435610387565b6102c961072435610387565b6102d561074435610387565b6102e161076435610387565b6102ed61078435610387565b6102f96107a435610387565b6103056107c435610387565b6103116107e435610387565b61031d61080435610387565b61032961082435610387565b61033561084435610387565b61034161086435610387565b61034d61088435610387565b35610387565b612499565b8152f35b8380fd5b5080fd5b80fd5b9060049160441161037457565b600080fd5b9060c4916101041161037457565b7f30644e72e131a029b85045b68181585d97816a916871ca8d3c208c16d87cfd4711156103b057565b6000805260206000f35b604051907f302cadc5a64feb08201498b9f715be94b661c60e6801e8ae386191950079afd882527f06f852180c7c874962e37ad3a24b62005f3536fd330c939719a5f068e4e18bff6020830152604082019081526107cf196040836060816007855a01fa156103b05760409260066080939284938451905260a05160608401525a01fa156103b057565b604051907f274fac50a5ad1bc0c59751abebd2b859cbb4858a4385812046e66d5ff8e7876282527f13f80b97f3a9e17108db37a742564839e2ac3259831a8bb224b14fdd630056e06020830152604082019081526107cf196040836060816007855a01fa156103b05760409260066080939284938451905260a05160608401525a01fa156103b057565b604051907f0a6d577217f98738c21c71f82f4e50528125fb85557be0bb0c1188662c57abb982527f0c4790e2ba3d190225523b3eb066feb9aa141157cce1f567615e626965b39ab26020830152604082019081526107cf196040836060816007855a01fa156103b05760409260066080939284938451905260a05160608401525a01fa156103b057565b604051907f2a816dc95674727569a7713bf00b4b9fbfa0046f43939af027ab333bd4333b2982527f1f78777632f399faa4cd814f3b11f071be40ade5c4954c03b18e631bbd81b01b6020830152604082019081526107cf196040836060816007855a01fa156103b05760409260066080939284938451905260a05160608401525a01fa156103b057565b604051907f0e2877ad477ffb004eeb10f9aa7b513647cfa31e9d4093425e67bb6ca0ee307282527f11f52854f45e2dcf96884357223cd08a8e1b419863798b7301c0c404e2f430a36020830152604082019081526107cf196040836060816007855a01fa156103b05760409260066080939284938451905260a05160608401525a01fa156103b057565b604051907f13aa8b84ad41c84deec788ad455527e43ef8368db05e802807f06b49753c4f1782527f19e9a14a2f8b63d38c19bbd58925454e3ac326b77785e5684eedd37a459d93126020830152604082019081526107cf196040836060816007855a01fa156103b05760409260066080939284938451905260a05160608401525a01fa156103b057565b604051907f2e830ce17e9f457cc3d86d56721799f1cc0218451798ca84a34e1aad96a6904a82527f2713d7a952c413733897abd0ac18107b34c083d5c36a251ae7028662e13c15226020830152604082019081526107cf196040836060816007855a01fa156103b05760409260066080939284938451905260a05160608401525a01fa156103b057565b604051907f2aa5f3a74f00ec53e9e0cb7892fd3aa15ca299c0f56b6a3ef0604b7da0d96b0282527f097092c4d449c19b48d91cdb87555685e74548ec1cdb33cdbbf06b2d5754424c6020830152604082019081526107cf196040836060816007855a01fa156103b05760409260066080939284938451905260a05160608401525a01fa156103b057565b604051907f01f5729c15af6f95de4be6598cf08cbcfb970da512a30340c345de056560844982527f242261f58c8e15321e99fdd6bec4894c793d57624003bfb71898dc14d3e8eacd6020830152604082019081526107cf196040836060816007855a01fa156103b05760409260066080939284938451905260a05160608401525a01fa156103b057565b604051907f2fd78b951424a65586f777dcd759dc839d788c127ec5e862ddff0096462fcb9a82527f1dd325d3c6c4128cd2271e94dd1f503cb1f707a239882aa2f5f890af7c6ec2046020830152604082019081526107cf196040836060816007855a01fa156103b05760409260066080939284938451905260a05160608401525a01fa156103b057565b604051907f08fa491e503310a2e46e41c7677e9b0265899ab0fd3771d0b64e3152eb36bce182527f2c421ff3d71c0a2b3dfbe728fb04467dbfef2fac7c5253449219b3a4bf16695c6020830152604082019081526107cf196040836060816007855a01fa156103b05760409260066080939284938451905260a05160608401525a01fa156103b057565b604051907f013e30975d5619185c67ed637d8ed76d7c3e17734a2b669e3d7b0142050f6f0882527f1ad515e0d21b623853a2f6a0cd8a56abecebde0025cc85cfa5dcbd662311a6b66020830152604082019081526107cf196040836060816007855a01fa156103b05760409260066080939284938451905260a05160608401525a01fa156103b057565b604051907f103f51fdcc721578b88606c7d327f595d6794f91682b189a84ffb5275130ea9c82527f1738153064c1b16f808b729544959a698c80a973edf74fdce2df289c9dc671ba6020830152604082019081526107cf196040836060816007855a01fa156103b05760409260066080939284938451905260a05160608401525a01fa156103b057565b604051907f12fe2027efd5379d125516d7d75435662d5c3d6e47b92a1d81f22c892990d3ff82527f2f9ac3fb1ce03fe888bf84983a42f69df19a9819f5fe72dbc07bac5ae89ebc9e6020830152604082019081526107cf196040836060816007855a01fa156103b05760409260066080939284938451905260a05160608401525a01fa156103b057565b604051907f01a52ff4a648e726742e8900928c93d56ff05c4bf451bec779adc7fb5c8def9782527f0bd9b727da3d842a5c57280b078a42b360567f05ce8ca8ad8d6996286cb9e2ec6020830152604082019081526107cf196040836060816007855a01fa156103b05760409260066080939284938451905260a05160608401525a01fa156103b057565b604051907f0ad4d35302e8cc131f826edc483fcdde982f91d496632d74619ade3a8b82cc9582527f279d5623cee982fee5d3c46ee652174883d9001edd75b8300efab03bac60db4a6020830152604082019081526107cf196040836060816007855a01fa156103b05760409260066080939284938451905260a05160608401525a01fa156103b057565b604051907f237c00b4e3a6e51b2df4e06ab660c26264f589abb36cbb875ff5bf71d086b51b82527f22e0cfa60cc0584154a3a6976e32c6293d41bdc03aadcdc3736aa81ee3698c966020830152604082019081526107cf196040836060816007855a01fa156103b05760409260066080939284938451905260a05160608401525a01fa156103b057565b604051907f1a62d278fe85d4b5e9964dab67f2d5ad59bd1f72ceeafb200e40bcd2aba998ad82527f215c09970698788cec026d0a37a5d448ed0c94b404b2f9e6e242db1ef6ef71066020830152604082019081526107cf196040836060816007855a01fa156103b05760409260066080939284938451905260a05160608401525a01fa156103b057565b604051907f22e454af9aa90f3f4ec6d1247c3b07fd5e6ca939b59e394f05fcbaf4dae2306682527f1639dc631faff11942129d48c7bf107d7158cc66d42075d07f8748d718335ac06020830152604082019081526107cf196040836060816007855a01fa156103b05760409260066080939284938451905260a05160608401525a01fa156103b057565b604051907f2b25d031d921d4f4e34664566f492d8732287938919c02bf5adf8f7539f9b36f82527f090827a9ef63cf1a246bd4b8c88f03d9498457e1bc6c2a54a9cfd3cfcb2dcbd46020830152604082019081526107cf196040836060816007855a01fa156103b05760409260066080939284938451905260a05160608401525a01fa156103b057565b604051907f20faa3746ea7734116276c90a6d2ccbc2802ab93c64399418381d90263cc237e82527f20ee812a23806b61da7de05a9dd1e346323ea8f9b852ccd5698e158a9e9bac2c6020830152604082019081526107cf196040836060816007855a01fa156103b05760409260066080939284938451905260a05160608401525a01fa156103b057565b604051907f09fa1abebcbff5db3da717f620c22c552bf496133aa4c3cdadbae1f273103b9582527f23a042a6a4492c8f43688ba4f82a1fc5f60eb3cb7f47d36a37f4d3936b96c1976020830152604082019081526107cf196040836060816007855a01fa156103b05760409260066080939284938451905260a05160608401525a01fa156103b057565b604051907f1fa8247d7fb419221f6c52ded3c888543f112bad10990f846dc3b6d0d51b468b82527f18f132e6291b6ddee02c1f667ec8f8e611cc8079c8331d398b3a07001f6d0a4b6020830152604082019081526107cf196040836060816007855a01fa156103b05760409260066080939284938451905260a05160608401525a01fa156103b057565b604051907f0d3de5b145ae2c63d768522616b40d9180fad001dd249049470841e24e328b2a82527f02fd1bae1e19a708fa0898a7af4d4e5d5b5384892f73cb3c7684e45ac6d429916020830152604082019081526107cf196040836060816007855a01fa156103b05760409260066080939284938451905260a05160608401525a01fa156103b057565b604051907f0f5a9b177bfba0d3afeedbb9d3b598963bc10a6d275ca7d479729573237ea45e82527f21eae5d4e184deaec465413c52c54d421d590b8fb9a74f5f24cb507c60d034b66020830152604082019081526107cf196040836060816007855a01fa156103b05760409260066080939284938451905260a05160608401525a01fa156103b057565b604051907e86aad92225f59e76431df69dccaa9770c9a7250ac47ee5643ff2a7f1d320cf82527f2e544615ec059c4b1ecba97810ffcb3c090063d309b1b218a7f141c2f784e40c6020830152604082019081526107cf196040836060816007855a01fa156103b05760409260066080939284938451905260a05160608401525a01fa156103b057565b604051907f0148be0313eeed15ad54d07b6cc986122d657ce27c47e3e22c1133117420325682527f1f138423a148c7cb0b86699221348cefcfb7eabc2dba1fbd7aa3a5fab4c0cff76020830152604082019081526107cf196040836060816007855a01fa156103b05760409260066080939284938451905260a05160608401525a01fa156103b057565b604051907f078e4f70542eb00912a19f5c9d4a0df60b86238957e07d023fdcd87faa87ee8e82527f2c15f52f4263295ed1023719557f838b165c27f5d8809965b19d93639b8f9ef66020830152604082019081526107cf196040836060816007855a01fa156103b05760409260066080939284938451905260a05160608401525a01fa156103b057565b604051907f19f8a1bc1c0bde5562057c5df9d42b07be50c9089bc0aac56c0d03b75eef1eaf82527f1e98f11d978ca84093369ca63f051d4052d83e3db37c8bc1bc13a78ce8a09e536020830152604082019081526107cf196040836060816007855a01fa156103b05760409260066080939284938451905260a05160608401525a01fa156103b057565b604051907f1878b65833ff2a6ba350d74662e04749ebc2ae6fd0a6c14629c86516ac673b2b82527f2b3918aaff94619de6c5de32eaaa9d389324bcdcb1c74e754f3f2e21c349dcd66020830152604082019081526107cf196040836060816007855a01fa156103b05760409260066080939284938451905260a05160608401525a01fa156103b057565b604051907f1930c94eefc09eef4901949538972c7db49427ae6b898e1ec34053f59530e22682527f2dd152ad89b9267e2ebd1751de113f75e3b3d0e5c1da6297f349d897f68e38ff6020830152604082019081526107cf196040836060816007855a01fa156103b05760409260066080939284938451905260a05160608401525a01fa156103b057565b604051907f2b88298da4735f17bd63006a0d83f67023b7a444cdbe661b92c54fa29adb9abe82527f0c0eb94bfadfed84f30dc7027d2e439e7f3483b7b0de9731c48c48875287e6366020830152604082019081526107cf196040836060816007855a01fa156103b05760409260066080939284938451905260a05160608401525a01fa156103b057565b604051907f2f39b606fbb26fa38432188d4ede89523bd22c42243d58f933b7409e50996d4082527f03c21517f64760c86b13706f607a1462131dd93f6a9404af7eb95597328ae3306020830152604082019081526107cf196040836060816007855a01fa156103b05760409260066080939284938451905260a05160608401525a01fa156103b057565b604051907ef980ee6014771bf5b73570cc1365283c28f5cb207dc732966b04323cfecb4982527f0f474a128ba882f57cac8d556f27c950a51d02cbd00f994569c384fd9079b6f36020830152604082019081526107cf196040836060816007855a01fa156103b05760409260066080939284938451905260a05160608401525a01fa156103b057565b604051907f19be38988de5d23861dce25ee0d98190af589f173dc3f8216c21e2e0e146008d82527f2e0c3d2cc052325f1ecd69b1dd974b13634a420ea0fe969a383a2e501ede3b2c6020830152604082019081526107cf196040836060816007855a01fa156103b05760409260066080939284938451905260a05160608401525a01fa156103b057565b604051907f2f4b40a135828cd05832e4fdab8af5eb955bc85a4326f25142f7359431eaf49782527f1e9286743993c1ee1a947453c924f00c4d2978facee00ee70b1d24fc09fb43526020830152604082019081526107cf196040836060816007855a01fa156103b05760409260066080939284938451905260a05160608401525a01fa156103b057565b604051907f1d395c15c2eee2f18019a4f8309bbf635e707c869b1c52e8a0294768589f75cf82527f1821fe8e77413efd216e74b82be610744bc13ac67dbe520aeeb03abc35c664f66020830152604082019081526107cf196040836060816007855a01fa156103b05760409260066080939284938451905260a05160608401525a01fa156103b057565b604051907f26b96df691639e2c29d7c1266dec5eac72f1a85eadf6a338970e0cadb454856582527f060cc3a3cb14fe4d4a6774beddfde61acb4cb975015a7f1f73f00c06c3cacebf6020830152604082019081526107cf196040836060816007855a01fa156103b05760409260066080939284938451905260a05160608401525a01fa156103b057565b604051907f05d09fde0d963f6463fb993a452e409e5dddd047194e3c0d86783b33608568a182527f0288621954188aa3f8085fc3c1e91093980bcbf9bae652efaf38f57adbd2cb466020830152604082019081526107cf196040836060816007855a01fa156103b05760409260066080939284938451905260a05160608401525a01fa156103b057565b604051907f16bfd9b2bd8ce260b4adf612500e696360bcdec012f1546a091acb57fafd3d6a82527f0a00726cd95fdd3af9dc7c9d765e10cf9c5b466911848f92905f1a0d1b9e245c6020830152604082019081526107cf196040836060816007855a01fa156103b05760409260066080939284938451905260a05160608401525a01fa156103b057565b604051907f25c8b62805a691495090c8a298bdf75c3e4e542833d67e112c4c758549c7abfc82527f1d619ceccbd241c50ab882b49d9d79f4fba2260f4855ead3fef13e9743ecc95b6020830152604082019081526107cf196040836060816007855a01fa156103b05760409260066080939284938451905260a05160608401525a01fa156103b057565b604051907f0c31c4630877b0d5915f623cd458e80302533e44ce1c34f8cdbedcb9cd3ecde882527f245cbc7e17e5893c6a8549577fa6a4f3b16f4c819a42b3e95039351a30256cc26020830152604082019081526107cf196040836060816007855a01fa156103b05760409260066080939284938451905260a05160608401525a01fa156103b057565b604051907f192fc9d71140e26279306f730cde8141b90b479b12fcb26e5bea200e28adc32182527f1a7a709f15e148fc55a684f8f17560073f22d07dcb95a0d0231a14ff8c657cd06020830152604082019081526107cf196040836060816007855a01fa156103b05760409260066080939284938451905260a05160608401525a01fa156103b057565b604051907f22dd53b0cf85f4120bdc0638a770098653a69dc49516015f330597bf21946ad482527f04ae91270df717dd1b5dd426c5a749a1234cbb46305468d20aa317fe61988ef26020830152604082019081526107cf196040836060816007855a01fa156103b05760409260066080939284938451905260a05160608401525a01fa156103b057565b604051907f2e4a936dd6e771230a9a6cc8a6fa40c98a72b3f9d0cd2d179f3f63a4bc63893982527f1d8fce6957e59b581cbfbdec09f6cee4a204f655fcbd932763451d4ef0fcce6c6020830152604082019081526107cf196040836060816007855a01fa156103b05760409260066080939284938451905260a05160608401525a01fa156103b057565b604051907f1da35e81a33afd5e233fd10401ef138af6b5b8143b771b117352d13bbe134d3582527f2fd0d6b40fd1fb90b0b437905c7c20944c44a5ed012ca3a0a7b0c488f6d947f36020830152604082019081526107cf196040836060816007855a01fa156103b05760409260066080939284938451905260a05160608401525a01fa156103b057565b604051907f17408c4942a9fdbe03c5b0325f6dfe76321f052da599606ede9aa80d2c7c86f882527f1ba6f20799b93ccdd51839fe38048f53736057992f249728d24d112c65fe5c206020830152604082019081526107cf196040836060816007855a01fa156103b05760409260066080939284938451905260a05160608401525a01fa156103b057565b604051907f26ad268d126653a98e64e9c7bef84b9e11883f0045fd20e18798b407f498d08082527eb80eaefed5eb5a3b8a4b4d3befd705b257f7125d71b91d1d9966b127172f466020830152604082019081526107cf196040836060816007855a01fa156103b05760409260066080939284938451905260a05160608401525a01fa156103b057565b604051907f2aa734414479d058e0aaca162138c6fc7499ff5d391dd751e11a7f8cc598b4ad82527f115a53968b95f1a9ab187a5e85b0e9200fc3d482173722443ace2625d9be52d06020830152604082019081526107cf196040836060816007855a01fa156103b05760409260066080939284938451905260a05160608401525a01fa156103b057565b604051907f14d8028e3ba504d8ad346f56d24935a1c837e071afeddb3fb67113fe3dfb576782527f0c843d15dd1b3ee88db5fac703ce1c3932a46377dfad960bda34b27a761bbfef6020830152604082019081526107cf196040836060816007855a01fa156103b05760409260066080939284938451905260a05160608401525a01fa156103b057565b604051907f15e613b53c99c437ac457ee91cd447340cf78fd7c65d16b19e12c63de15e33e582527f20188bb2110e168620d9524f3c900ccbdb10d03f8f2fce2f8c19691b917f4fb36020830152604082019081526107cf196040836060816007855a01fa156103b05760409260066080939284938451905260a05160608401525a01fa156103b057565b604051907f22558923447429361a1ee3d3ab1da9afdf5cdbfcbe29267894416c8faa93871c82527f1c52322abcd17b99a7429271cbc8f57bb58a1bf2a1eac96c2cf35a5e05de51646020830152604082019081526107cf196040836060816007855a01fa156103b05760409260066080939284938451905260a05160608401525a01fa156103b057565b604051907f17d14dd920bcf87a18fa365986a29d2687f3e5c0c7afb63dd5b8f925e33f2e6982527f2a17b5d951f604f4e6691d11ff3836f0079a6301af3b14ac41887687afd9508c6020830152604082019081526107cf196040836060816007855a01fa156103b05760409260066080939284938451905260a05160608401525a01fa156103b057565b604051907f1aab309dbc46adab6926efcd6ec0cde36c68ebb0cc983158a7278a520095f1d482527f15049ccea8941e049137cc0676619d6a0cffc554ecc09ef73900f8985292e8626020830152604082019081526107cf196040836060816007855a01fa156103b05760409260066080939284938451905260a05160608401525a01fa156103b057565b604051907f0aded790f4a6fb216704bbde500dedfba5c10532688f22e05614634fd50aa50d82527f2d5a0bd9ef2d663a75a64ce442de99d56d833d601a4a5b4d42465d20835f5bb06020830152604082019081526107cf196040836060816007855a01fa156103b05760409260066080939284938451905260a05160608401525a01fa156103b057565b604051907f259f6510f2d260a15e8a6fb82b1220dec202a6a9e095c2a82741a8e6f66d875c82527f094c153b81b83a899f7ce470c16f423033e9747eeb66f4311583b469e7890ad46020830152604082019081526107cf196040836060816007855a01fa156103b05760409260066080939284938451905260a05160608401525a01fa156103b057565b604051907f167f7afacbd1f0e721b7039914082b9e9460bc9084984247b4fd35862982e2ae82527f1f644bf1dde725918dbddc421be4fd3cc53007406235d28f7d82cfebec18bea86020830152604082019081526107cf196040836060816007855a01fa156103b05760409260066080939284938451905260a05160608401525a01fa156103b057565b604051907f015af9f55569c836b2b15e24e0316aecdb18984bc8f855bd7b88c98ccc2c461082527f2447c188a7f492a908bc2a26b0a1c341a0b99ed55d3d34c9cd0e41d97cdc130e6020830152604082019081526107cf196040836060816007855a01fa156103b05760409260066080939284938451905260a05160608401525a01fa156103b057565b604051907f06ed7da178de2bbd066c33795d5a104fe98802a5adb57f3d096fb8191110a13782527f088a5c19799e18881e210d94988b37848c917e42070b7d70e134359ec34b69bf6020830152604082019081526107cf196040836060816007855a01fa156103b05760409260066080939284938451905260a05160608401525a01fa156103b057565b604051907f0a72ea9ef04415db26bd9ec945256a4f25139dd79d0cd806a0df9ff6b29f734e82527f30561d9eb0030e5804a0c50678cdc31a5e10d0751fbc1aff27188bce48b7de226020830152604082019081526107cf196040836060816007855a01fa156103b05760409260066080939284938451905260a05160608401525a01fa156103b057565b604051907f24b6fa0bf39d920f82d6a19216d9a31bc5c85d88b8d31b1ada4fe6beca24f27982527f03ace0fa2a64c3442ee7c92293210c2b6732f097b403d2ccdf173427e1c9457f6020830152604082019081526107cf196040836060816007855a01fa156103b05760409260066080939284938451905260a05160608401525a01fa156103b057565b6020907f1c164c4ed0408e4363245a1abe3ec0b6ead23c851b4b98c9add472fc12766ac26080527f2dddce936fee68e3b08d1d1965c41c5d61c67cfa68122d4035889b6881a6be1c60a0526124f0610104356103ba565b6124fc61012435610444565b612508610144356104ce565b61251461016435610558565b612520610184356105e2565b61252c6101a43561066c565b6125386101c4356106f6565b6125446101e435610780565b6125506102043561080a565b61255c61022435610894565b6125686102443561091e565b612574610264356109a8565b61258061028435610a32565b61258c6102a435610abc565b6125986102c435610b46565b6125a46102e435610bd0565b6125b061030435610c5a565b6125bc61032435610ce4565b6125c861034435610d6e565b6125d461036435610df8565b6125e061038435610e82565b6125ec6103a435610f0c565b6125f86103c435610f96565b6126046103e435611020565b612610610404356110aa565b61261c61042435611134565b612628610444356111bd565b61263461046435611247565b612640610484356112d1565b61264c6104a43561135b565b6126586104c4356113e5565b6126646104e43561146f565b612670610504356114f9565b61267c61052435611583565b6126886105443561160c565b61269461056435611696565b6126a061058435611720565b6126ac6105a4356117aa565b6126b86105c435611834565b6126c46105e4356118be565b6126d061060435611948565b6126dc610624356119d2565b6126e861064435611a5c565b6126f461066435611ae6565b61270061068435611b70565b61270c6106a435611bfa565b6127186106c435611c84565b6127246106e435611d0e565b61273061070435611d97565b61273c61072435611e21565b61274861074435611eab565b61275461076435611f35565b61276061078435611fbf565b61276c6107a435612049565b6127786107c4356120d3565b6127846107e43561215d565b612790610804356121e7565b61279c61082435612271565b6127a8610844356122fb565b6127b461086435612385565b6127c06108843561240f565b61010092818492358352837f30644e72e131a029b85045b68181585d97816a916871ca8d3c208c16d87cfd479101358103066101205260443561014052606435610160526084356101805260a4356101a0527f2d4d9aa7e302d9df41749d5507949d05dbea33fbb16c643b22f599a2be6df2e26101c0527f14bedd503c37ceb061d8ec60209fe345ce89830a19230301f076caff004d19266101e0527f0967032fcbf776d1afc985f88877f182d38480a653f2decaa9794cbc3bf3060c610200527f0e187847ad4c798374d0d6732bf501847dd68bc0e071241e0213bc7fc13db7ab610220527f304cfbd1e08a704a99f5e847d93f8c3caafddec46b7a0d379da69a4d112346a7610240527f1739c1b1a457a8c7313123d24d2f9192f896b7c63eea05a9d57f06547ad0cec8610260526080516102805260a0516102a0527f198e9393920d483a7260bfb731fb5d25f1aa493335a9e71297e485b7aef312c26102c0527f1800deef121f1e76426a00665e5c4479674322d4f75edadd46debd5cd992f6ed6102e05282610300917f090689d0585ff075ec9e99ad690c3395bc4b313370b38ef355acdadcd122975b83527f12c85ea5db8c6deb4aab71808dcb408fe3d1e7690c43d37b4ce6cc0166fa7daa610320528035610340520135610360527f26ea17a01db5be8cf63a54b44ea18a783391e86faf58a91bee2bbd91760341ed610380527f2d3a4747c24c8fede16a98c56a79d8eba513f28ef942148708ff6d9ae24b27f66103a0527f269283f556cbe2ebd27d962cb6c38f43c7aa13c3f3f8aac0218e270a9ffe52fc6103c0527f02152fcfc14b7fcdbbad0a188c06a390fa125c2e3dfe85db0fb245bf04f765e96103e0528160086107cf195a01fa9051169056fea2646970667358221220c7102d4410555d572f647002537e69d5f6f2ed91e51bca0387e8b9bd1f7fcb4564736f6c634300080f0033",
  "linkReferences": {},
  "deployedLinkReferences": {}
}