{
  "_format": "hh-sol-artifact-1",
  "contractName": "Groth16Verifier",
  "sourceName": "contracts/Game_5_100Verifier.sol",
  "abi": [
    {
      "inputs": [
        {
          "internalType": "uint256[2]",
          "name": "_pA",
          "type": "uint256[2]"
        },
        {
          "internalType": "uint256[2][2]",
          "name": "_pB",
          "type": "uint256[2][2]"
        },
        {
          "internalType": "uint256[2]",
          "name": "_pC",
          "type": "uint256[2]"
        },
        {
          "internalType": "uint256[51]",
          "name": "_pubSignals",
          "type": "uint256[51]"
        }
      ],
      "name": "verifyProof",
      "outputs": [
        {
          "internalType": "bool",
          "name": "",
          "type": "bool"
        }
      ],
      "stateMutability": "view",
      "type": "function"
    }
  ],
  "bytecode": "0x6080806040523461001657612429908161001c8239f35b600080fdfe6080604052600436101561001257600080fd5b6000803560e01c63433dce161461002857600080fd5b346102ec576107603660031901126102ec57610043366102ef565b3660c4116102e85761005436610301565b906107643681116102e457916102e0916102db6020959461040060405261007d6101043561030f565b6100896101243561030f565b6100956101443561030f565b6100a16101643561030f565b6100ad6101843561030f565b6100b96101a43561030f565b6100c56101c43561030f565b6100d16101e43561030f565b6100dd6102043561030f565b6100e96102243561030f565b6100f56102443561030f565b6101016102643561030f565b61010d6102843561030f565b6101196102a43561030f565b6101256102c43561030f565b6101316102e43561030f565b61013d6103043561030f565b6101496103243561030f565b6101556103443561030f565b6101616103643561030f565b61016d6103843561030f565b6101796103a43561030f565b6101856103c43561030f565b6101916103e43561030f565b61019d6104043561030f565b6101a96104243561030f565b6101b56104443561030f565b6101c16104643561030f565b6101cd6104843561030f565b6101d96104a43561030f565b6101e56104c43561030f565b6101f16104e43561030f565b6101fd6105043561030f565b6102096105243561030f565b6102156105443561030f565b6102216105643561030f565b61022d6105843561030f565b6102396105a43561030f565b6102456105c43561030f565b6102516105e43561030f565b61025d6106043561030f565b6102696106243561030f565b6102756106443561030f565b6102816106643561030f565b61028d6106843561030f565b6102996106a43561030f565b6102a56106c43561030f565b6102b16106e43561030f565b6102bd6107043561030f565b6102c96107243561030f565b6102d56107443561030f565b3561030f565b611ebf565b8152f35b8380fd5b5080fd5b80fd5b906004916044116102fc57565b600080fd5b9060c491610104116102fc57565b7f30644e72e131a029b85045b68181585d97816a916871ca8d3c208c16d87cfd47111561033857565b6000805260206000f35b604051907f201f723a0afd7d9f51bd08d3f68077d41b6eed48c822aec255f8d5317fa42a4482527f2e95008f9bde7a19b50eea5bd41c7fb1e621e1e99f7934af5be7f2f5a494a0ef6020830152604082019081526107cf196040836060816007855a01fa156103385760409260066080939284938451905260a05160608401525a01fa1561033857565b604051907f061bca1c98713f7c633a66454967dd12a76184bfbe395c1cbd3e2bcefe48b13182527f093ded1ee4edeccdbca2a0daea2e8796c8d07b0f6e2032f67fab5c3b3bcee6146020830152604082019081526107cf196040836060816007855a01fa156103385760409260066080939284938451905260a05160608401525a01fa1561033857565b604051907f0e2f5cb6cc31930e8155e68bf384464ea01967faa08fe2c7c098436fc0bb265d82527f15d4ba614b2b54ecd03f3daeee50c15ffcdd1f48eff66cb66a69325341d9bda06020830152604082019081526107cf196040836060816007855a01fa156103385760409260066080939284938451905260a05160608401525a01fa1561033857565b604051907f0796587da2dbfaa119014dbbc2cb9cd1a047af9d57339f0f71b2bc00e008d2eb82527f08521bb01d1271875e8c7f47f7c381805085ed16499103f189686985b6d849386020830152604082019081526107cf196040836060816007855a01fa156103385760409260066080939284938451905260a05160608401525a01fa1561033857565b604051907f28f50ae399da58aecbe9238c3bb36f14025d70bd43d4b5bf2a85986b7b8781e982527f02bcff2a6922016712839f304916d81faad3d835517bfb3c0f710dd6215d5e3e6020830152604082019081526107cf196040836060816007855a01fa156103385760409260066080939284938451905260a05160608401525a01fa1561033857565b604051907f0ed5162e44f995baad22d49a9a4d269c2441b613795b5c5a31b70442b8e5811182527f2ef806eccdedc0defcb7f8537153182b4e2d89deb7387a9da74f030a811ca13d6020830152604082019081526107cf196040836060816007855a01fa156103385760409260066080939284938451905260a05160608401525a01fa1561033857565b604051907f20bc6306723542be00eb716785f4fa6a6d5ffb822dae6ebec9c3594215dce5f282527f2d265c26e487e72ba9f0ce996eef8f718ac04faec161b221b6d4b963740748236020830152604082019081526107cf196040836060816007855a01fa156103385760409260066080939284938451905260a05160608401525a01fa1561033857565b604051907f267ea282ac278edb4dfee245f7408ff41d47e8326e3e48889e45af4361a913a882527f06c9924de0de4f30f674ab899d29af5be3680547b6bdcd0673c153ca5ca5216b6020830152604082019081526107cf196040836060816007855a01fa156103385760409260066080939284938451905260a05160608401525a01fa1561033857565b604051907f1522c26f4678981bad8b2ca6620390ab85e915d2c05ba2303466ad8f959847bd82527f12c1b2bdcbb3b1abd41bd886b6c95493aa322a9b9a059ab6bd23897e43b9d6796020830152604082019081526107cf196040836060816007855a01fa156103385760409260066080939284938451905260a05160608401525a01fa1561033857565b604051907f2353035b8c7405e0ee7857e6e8849d16d4b9e07d267c961971a61f4ce640eb6782527f12dd3c77458fec14a84c126ba526764b8f572955089bacb208e6c093c44a69456020830152604082019081526107cf196040836060816007855a01fa156103385760409260066080939284938451905260a05160608401525a01fa1561033857565b604051907f189adf057ee92633c528ea6328d1356d5f3b8506fbd31911068e724d2fb28ff682527f1f1b0a040ecb4c760697355f85a20364ad2e70201e9d9fb256c11e79d82dca816020830152604082019081526107cf196040836060816007855a01fa156103385760409260066080939284938451905260a05160608401525a01fa1561033857565b604051907f06660a788388303f9f29dc2dd443d30e2bcbea68ade58c0705b9adffac34df3382527f02bc90bc0d22d3607615854544b78a19d040fd655dd84ba5abd62c7741c1e6c46020830152604082019081526107cf196040836060816007855a01fa156103385760409260066080939284938451905260a05160608401525a01fa1561033857565b604051907f1dab780105f8bad736adca087eb189bee16099c322aef1d70e57dd9ff2e968a882527f17000a38b97dcec278dbf388d9014babbd3deb3a0b45b1fdc67bbfee98a240536020830152604082019081526107cf196040836060816007855a01fa156103385760409260066080939284938451905260a05160608401525a01fa1561033857565b604051907f0b2f963277a5287b89e8abc330de3a3c7dbc196c0ea413fbff577f8866e539be82527f201062fe51c815969e8ee1de36a3bde1f88373bd03e2c04b15661d7fdac581676020830152604082019081526107cf196040836060816007855a01fa156103385760409260066080939284938451905260a05160608401525a01fa1561033857565b604051907f250f323eb1c787057a9b87944178956c3d81f19118658b05b25c5d40dd94207f82527f133e44f0e03f2d2682a7a68a257b0100e86f4e7e256a556480954a4f5d5ffe8e6020830152604082019081526107cf196040836060816007855a01fa156103385760409260066080939284938451905260a05160608401525a01fa1561033857565b604051907f19a9745db08b5557adbb1fd3b7e9e64ad34a0c77e4dee29e72a0da8bf54ee46c82527f225db4847d044e21a4d73daf476d97620cd84c0ad25ad54248e80b9e57c20e836020830152604082019081526107cf196040836060816007855a01fa156103385760409260066080939284938451905260a05160608401525a01fa1561033857565b604051907f03f399bc9282efab43d4c3e8589284d4a5e721f7840e0330d8f2b0c088f42f0182527f25469a6c50d7d5717c310381254f11c33d2964f8866a43d657a331b6ada7f7a46020830152604082019081526107cf196040836060816007855a01fa156103385760409260066080939284938451905260a05160608401525a01fa1561033857565b604051907f01d03046bf3c7900b095f56b9433882d0242191576d921ea5ac16da475a649e882527f17a8b7ffba07b24ed46132e8b1c1b9c65e704e8758b5e7c5e4d468621c0be3726020830152604082019081526107cf196040836060816007855a01fa156103385760409260066080939284938451905260a05160608401525a01fa1561033857565b604051907f14bc64ae2b18870ce28b76e7b8ba8e6c51f1dcb3ae94f2468e72cf887ffdb7c982527f0e56589cd6eedbe2874cc0a57a275b3213753b9c6442e45592e521dbd4cb53c16020830152604082019081526107cf196040836060816007855a01fa156103385760409260066080939284938451905260a05160608401525a01fa1561033857565b604051907f08a01ef35a50a015774471277a2339f570d7ce906b190f5977aeec3d748fda9e82527f01d597c24e6cdcd8262a3c5a2cab0c103120d2da567912abf3366e8ff63ede606020830152604082019081526107cf196040836060816007855a01fa156103385760409260066080939284938451905260a05160608401525a01fa1561033857565b604051907f0107d890adae2501118b4b50b626b4256aa8de2b62c187ba182ea6e255fb6c0282527f0c3829af2602a4ef2be8fb77b9825d532b99af75ba5b3926483094feafadb4386020830152604082019081526107cf196040836060816007855a01fa156103385760409260066080939284938451905260a05160608401525a01fa1561033857565b604051907f0792eace3c85e43d6bfb7f5c531fbbf5fc542f16cb54bd5d514440677629b7bc82527f198cb4e72e223399b71f87268a595f74604b77ec78759fae46a78d89c4e795936020830152604082019081526107cf196040836060816007855a01fa156103385760409260066080939284938451905260a05160608401525a01fa1561033857565b604051907f1ada76f9e04692c248863212725ecad09c78fceecad41f83e5a00f7f9d91e67682527f25dad49dec2c25e0f24facdc8bd7544dee2bd3c9502f2ade1713ba782a207ff46020830152604082019081526107cf196040836060816007855a01fa156103385760409260066080939284938451905260a05160608401525a01fa1561033857565b604051907f255dbc508c08a601e9ad629c30e5a1d8ce299aa7276dab319629198643ccc29c82527f1845534954fa473694d345804ad30db4e46d80e37d470cc9e53d5b57e53887256020830152604082019081526107cf196040836060816007855a01fa156103385760409260066080939284938451905260a05160608401525a01fa1561033857565b604051907f0cd253f82c2001419dc887a585cbc134e31434805340349cd65efc6f3e13943582527e1d9dde563670879a52267146b93bd14e608b5dd9de2da6a3a318780113006a6020830152604082019081526107cf196040836060816007855a01fa156103385760409260066080939284938451905260a05160608401525a01fa1561033857565b604051907f172f42fa2cbd2ddbefd88f5b51d4ca73fac3b8583e1d53b6a0003f323374dd6c82527f04c189df08e0f52c368a09b687b17032966fa3911301a7076673e01f195b0d436020830152604082019081526107cf196040836060816007855a01fa156103385760409260066080939284938451905260a05160608401525a01fa1561033857565b604051907f2108a6caa12cb7b5afb8c73136f53e6c1a85f08ff517fe8d2752e0fb8d1df9b682527f28b8a71949012f9928aa72b51b8f83307a601dabc4a47d2d103feda0f1cf06686020830152604082019081526107cf196040836060816007855a01fa156103385760409260066080939284938451905260a05160608401525a01fa1561033857565b604051907f244e8c55b7a3924b95ef60678b23fba04a20b800e4de0053fb6cac5801bd2ee682527f01ce0324ce889987d8e3c065e5d936ee586a59a962077354888abbbc18c5242b6020830152604082019081526107cf196040836060816007855a01fa156103385760409260066080939284938451905260a05160608401525a01fa1561033857565b604051907f0edf91ea923bd5c2f293cafe9e43c6aea2d23ff25ab2464d6d91c530286e026282527f025c77487a341193e5970d408c72d8e8624eb1dc846e48a79887704b6e0b3fc46020830152604082019081526107cf196040836060816007855a01fa156103385760409260066080939284938451905260a05160608401525a01fa1561033857565b604051907f1c9e49b02d86ea185f3ce52abf650be981d521531761a43d0df9be23986e305982527f1017768cc29006815bbb0cb3de8fc130b6f2004b9f52543a41b8fa0d1ffaf4306020830152604082019081526107cf196040836060816007855a01fa156103385760409260066080939284938451905260a05160608401525a01fa1561033857565b604051907f2aa7345e30e579a4f4ccda4fd2de0d80a6c5eca7c13a2bc44b00d750ece6ca3982527f2d52d4cd39c63c5d8b4d3991b93ab9e95b72c268b683c6af3876c028341f01ef6020830152604082019081526107cf196040836060816007855a01fa156103385760409260066080939284938451905260a05160608401525a01fa1561033857565b604051907f26c511aaee9d619241dd8c995ee4344bf86f7ed13f408b6576a1b6dc781cedac82527f12fdb406edb7effa51da6251c6c1f8b49b248deb8348f8b06a236d1277ea1c146020830152604082019081526107cf196040836060816007855a01fa156103385760409260066080939284938451905260a05160608401525a01fa1561033857565b604051907f1a8b04a7891c65c1b761bd448232a4e2f46e50b6a9127eeaafd5b6a9b726891382527f2741d493b062910fdf490c5d3a4ace728f4f30d8cd347c7563e84c58344f1ed26020830152604082019081526107cf196040836060816007855a01fa156103385760409260066080939284938451905260a05160608401525a01fa1561033857565b604051907f2513792f1d8969846b182df6e102941d882112fee117313ee84f4c769636773a82527f27f46ada97df826359515bed06d6a55d29f9be17a3ddbe7dcdf68aebe640115f6020830152604082019081526107cf196040836060816007855a01fa156103385760409260066080939284938451905260a05160608401525a01fa1561033857565b604051907f0d5ba998f9b9c1f9d2517dd8c8af3a8ab5d0d93a43deaea180ab9fc1407ac66882527f25561263538b35257c8fea1189955e1ae25cf971a17470473caa58632d0e55346020830152604082019081526107cf196040836060816007855a01fa156103385760409260066080939284938451905260a05160608401525a01fa1561033857565b604051907f083321be7c033edb93aedbb1cbba898e05e05cd1d079d3bc05625f03427bbd7b82527f15e96b92dd962dc5a64a8cecf4e14b17cd49d7dbcc9a38743620341fcfcdf3d36020830152604082019081526107cf196040836060816007855a01fa156103385760409260066080939284938451905260a05160608401525a01fa1561033857565b604051907f10b10d084cd6e90a5682a1be46328d14161e750cd459a02a0f4a015dc1fb9cc782527f218820f311f523981f59d19c624185a749ca961a7a30028a4b976a71cfe69b696020830152604082019081526107cf196040836060816007855a01fa156103385760409260066080939284938451905260a05160608401525a01fa1561033857565b604051907f1f5292506a189e57c25955920527977331dcd602b8ac37eeb5dbad1624db4c6882527f24cfb95aca89b7a76ef5ce5a328db0ddd16788daa1488537993569252d6f20856020830152604082019081526107cf196040836060816007855a01fa156103385760409260066080939284938451905260a05160608401525a01fa1561033857565b604051907f10a06005d326c59ee1e413e3b2eb01c0555f6e8126d6863ad2907c7381b76b0e82527f2f8bec5aaebd58b525a37bb17ef613477a95e35c45b1718635c8bca2c40b5e396020830152604082019081526107cf196040836060816007855a01fa156103385760409260066080939284938451905260a05160608401525a01fa1561033857565b604051907f052f518a09f53896f6834af2c800d969bbed85dd72770fba8ee85e443b36e87c82527f05e04b1a42413eb421f9c608739fb1fd728a8d2e5d3e6d7fc0bd853a4de308526020830152604082019081526107cf196040836060816007855a01fa156103385760409260066080939284938451905260a05160608401525a01fa1561033857565b604051907f2d936f806af1295d7141031372181ae5e84e5916c455515d5ab924b7b496523582527f2c4bc3c9a19d16f21c2e604df2296f07adfebe25651a0ec26920968575dae3d86020830152604082019081526107cf196040836060816007855a01fa156103385760409260066080939284938451905260a05160608401525a01fa1561033857565b604051907f12522c360387ce8d99316d979658d3e27a3585fb8bde5aeeb6d5deced3dd742682527f0cdf40926c5aab8bdc4078751dd488f9d5aceae174a382e74acf2559f31c0b146020830152604082019081526107cf196040836060816007855a01fa156103385760409260066080939284938451905260a05160608401525a01fa1561033857565b604051907f2421c8f4b6b415b50278f02bffe1a3b8616c787af02667ffc668303ca18cfbec82527f2b5730fa1d0a0ddfbe06bfc1495a759bfd87486e3ca19f112d495d3839aa04176020830152604082019081526107cf196040836060816007855a01fa156103385760409260066080939284938451905260a05160608401525a01fa1561033857565b604051907f1491b5ef1c4feccb1ba7dc606e9548785f4bbce01b17d7359ba7bf9ca62da93182527f293457161b399ada806dfb172c42549c57b39f1a4e31e2e67c11db7759706a216020830152604082019081526107cf196040836060816007855a01fa156103385760409260066080939284938451905260a05160608401525a01fa1561033857565b604051907f2240bc779f811c7c89a241edc7ddd7f94d9088cb6f400f3b5273b963d3a2963682527f05bc5af2f9d06dfb5d4dd593f76ee425f269817c4b6ea2f93e37cfd05e82e5ad6020830152604082019081526107cf196040836060816007855a01fa156103385760409260066080939284938451905260a05160608401525a01fa1561033857565b604051907f0ea43d94461661aab029531dba85c82d6aa0835a462380332b1a96b661178d6382527f0345a2c1184802f3bdaceabe286aaa94c001f1d52a026bc02dd4414e7a4e733c6020830152604082019081526107cf196040836060816007855a01fa156103385760409260066080939284938451905260a05160608401525a01fa1561033857565b604051907f29849d2f54c91ae96f12bc241e95506c5a3ce0fb2c2a80a460eb4737f78e119f82527f09d3f6ec64a5b1599e3f9260b9cc20b64071f9b7bc62707cd7c558f6b64686066020830152604082019081526107cf196040836060816007855a01fa156103385760409260066080939284938451905260a05160608401525a01fa1561033857565b604051907f1918c4450ee103a10275af7c1164c80226334fd2bf7a85889629fb8b473d16ec82527f2242df980a73c11e1949c5ff3a52eaed88b46939b0ca7f0063fff0de703712ee6020830152604082019081526107cf196040836060816007855a01fa156103385760409260066080939284938451905260a05160608401525a01fa1561033857565b604051907f1bc1a40ba83832f525c043b07f83729d7311ec5c98a7bc8dd958065b31282d1282527f258c82d065d515c8bf2a870a3c3df86f42ea7d4ae4c64dadf6054fb16832b3776020830152604082019081526107cf196040836060816007855a01fa156103385760409260066080939284938451905260a05160608401525a01fa1561033857565b604051907f1a590b9b2370465d1a22961201584d1e27430cc2d4be3232be40d6ed407d0d9282527f207748dd146572863b556e1ab4d6aa97e2214b819fb16fd43b4d75a7b04b12646020830152604082019081526107cf196040836060816007855a01fa156103385760409260066080939284938451905260a05160608401525a01fa1561033857565b604051907f24a8792aac04576ed95bd499ec64b02050175288e027b5abad6c0331847eb51382527f09e7d5ca5a25399f99e1bfe192e5fd09836500725dd15ff975bdbcc449e06ba76020830152604082019081526107cf196040836060816007855a01fa156103385760409260066080939284938451905260a05160608401525a01fa1561033857565b6020907f083c597a8279f5cf0791f544f0d80691c1b3a60487c78fd64423fe0329c83afe6080527f10783b01e38fcbe1cfea8eb4328fb842b7a5843ed1f8ddb275888771283329a260a052611f1661010435610342565b611f22610124356103cc565b611f2e61014435610456565b611f3a610164356104e0565b611f466101843561056a565b611f526101a4356105f4565b611f5e6101c43561067e565b611f6a6101e435610708565b611f7661020435610792565b611f826102243561081c565b611f8e610244356108a6565b611f9a61026435610930565b611fa6610284356109ba565b611fb26102a435610a44565b611fbe6102c435610ace565b611fca6102e435610b58565b611fd661030435610be2565b611fe261032435610c6c565b611fee61034435610cf6565b611ffa61036435610d80565b61200661038435610e0a565b6120126103a435610e94565b61201e6103c435610f1e565b61202a6103e435610fa8565b61203661040435611032565b612042610424356110bb565b61204e61044435611145565b61205a610464356111cf565b61206661048435611259565b6120726104a4356112e3565b61207e6104c43561136d565b61208a6104e4356113f7565b61209661050435611481565b6120a26105243561150b565b6120ae61054435611595565b6120ba6105643561161f565b6120c6610584356116a9565b6120d26105a435611733565b6120de6105c4356117bd565b6120ea6105e435611847565b6120f6610604356118d1565b6121026106243561195b565b61210e610644356119e5565b61211a61066435611a6f565b61212661068435611af9565b6121326106a435611b83565b61213e6106c435611c0d565b61214a6106e435611c97565b61215661070435611d21565b61216261072435611dab565b61216e61074435611e35565b61010092818492358352837f30644e72e131a029b85045b68181585d97816a916871ca8d3c208c16d87cfd479101358103066101205260443561014052606435610160526084356101805260a4356101a0527f2d4d9aa7e302d9df41749d5507949d05dbea33fbb16c643b22f599a2be6df2e26101c0527f14bedd503c37ceb061d8ec60209fe345ce89830a19230301f076caff004d19266101e0527f0967032fcbf776d1afc985f88877f182d38480a653f2decaa9794cbc3bf3060c610200527f0e187847ad4c798374d0d6732bf501847dd68bc0e071241e0213bc7fc13db7ab610220527f304cfbd1e08a704a99f5e847d93f8c3caafddec46b7a0d379da69a4d112346a7610240527f1739c1b1a457a8c7313123d24d2f9192f896b7c63eea05a9d57f06547ad0cec8610260526080516102805260a0516102a0527f198e9393920d483a7260bfb731fb5d25f1aa493335a9e71297e485b7aef312c26102c0527f1800deef121f1e76426a00665e5c4479674322d4f75edadd46debd5cd992f6ed6102e05282610300917f090689d0585ff075ec9e99ad690c3395bc4b313370b38ef355acdadcd122975b83527f12c85ea5db8c6deb4aab71808dcb408fe3d1e7690c43d37b4ce6cc0166fa7daa610320528035610340520135610360527f01dd24bb75ed429ac1b9b2f3acfd3484387729688ca0e63f4f53d1e82d8527d2610380527f19d761fd34b6204b8387969021274e8d9d8dc02ae0269c5003ca77917afe0a896103a0527f29ebf548814300c672480194c7c92148d9f2c3586cc5cbd64f8c3049bd80b62f6103c0527f2a52325eef57fe3d5eff8306d5df725372e7e8a94f8e4a7a1af5be6ef79814876103e0528160086107cf195a01fa9051169056fea264697066735822122086dba2a2c468a833bf34e343526443f9945335475e91f428cedf6eb09828103064736f6c634300080f0033",
  "linkReferences": {},
  "deployedLinkReferences": {}
}