{
  "_format": "hh-sol-artifact-1",
  "contractName": "Problems",
  "sourceName": "contracts/Problems.sol",
  "abi": [
    {
      "inputs": [
        {
          "internalType": "address",
          "name": "problemMetadata_",
          "type": "address"
        },
        {
          "internalType": "address[]",
          "name": "verifiers_",
          "type": "address[]"
        },
        {
          "internalType": "uint256[]",
          "name": "verifiersTicks",
          "type": "uint256[]"
        },
        {
          "internalType": "uint256[]",
          "name": "verifiersBodies",
          "type": "uint256[]"
        }
      ],
      "stateMutability": "nonpayable",
      "type": "constructor"
    },
    {
      "anonymous": false,
      "inputs": [
        {
          "indexed": true,
          "internalType": "address",
          "name": "owner",
          "type": "address"
        },
        {
          "indexed": true,
          "internalType": "address",
          "name": "approved",
          "type": "address"
        },
        {
          "indexed": true,
          "internalType": "uint256",
          "name": "tokenId",
          "type": "uint256"
        }
      ],
      "name": "Approval",
      "type": "event"
    },
    {
      "anonymous": false,
      "inputs": [
        {
          "indexed": true,
          "internalType": "address",
          "name": "owner",
          "type": "address"
        },
        {
          "indexed": true,
          "internalType": "address",
          "name": "operator",
          "type": "address"
        },
        {
          "indexed": false,
          "internalType": "bool",
          "name": "approved",
          "type": "bool"
        }
      ],
      "name": "ApprovalForAll",
      "type": "event"
    },
    {
      "anonymous": false,
      "inputs": [
        {
          "indexed": true,
          "internalType": "address",
          "name": "to",
          "type": "address"
        },
        {
          "indexed": true,
          "internalType": "bool",
          "name": "success",
          "type": "bool"
        },
        {
          "indexed": false,
          "internalType": "bytes",
          "name": "returnData",
          "type": "bytes"
        },
        {
          "indexed": false,
          "internalType": "uint256",
          "name": "amount",
          "type": "uint256"
        }
      ],
      "name": "EthMoved",
      "type": "event"
    },
    {
      "anonymous": false,
      "inputs": [
        {
          "indexed": true,
          "internalType": "address",
          "name": "previousOwner",
          "type": "address"
        },
        {
          "indexed": true,
          "internalType": "address",
          "name": "newOwner",
          "type": "address"
        }
      ],
      "name": "OwnershipTransferred",
      "type": "event"
    },
    {
      "anonymous": false,
      "inputs": [
        {
          "indexed": true,
          "internalType": "address",
          "name": "from",
          "type": "address"
        },
        {
          "indexed": true,
          "internalType": "address",
          "name": "to",
          "type": "address"
        },
        {
          "indexed": true,
          "internalType": "uint256",
          "name": "tokenId",
          "type": "uint256"
        }
      ],
      "name": "Transfer",
      "type": "event"
    },
    {
      "anonymous": false,
      "inputs": [
        {
          "indexed": false,
          "internalType": "uint256",
          "name": "problemId",
          "type": "uint256"
        },
        {
          "indexed": false,
          "internalType": "uint256",
          "name": "bodyId",
          "type": "uint256"
        },
        {
          "indexed": false,
          "internalType": "uint256",
          "name": "mintedBodyIndex",
          "type": "uint256"
        },
        {
          "indexed": false,
          "internalType": "uint256",
          "name": "tick",
          "type": "uint256"
        },
        {
          "indexed": false,
          "internalType": "uint256",
          "name": "px",
          "type": "uint256"
        },
        {
          "indexed": false,
          "internalType": "uint256",
          "name": "py",
          "type": "uint256"
        },
        {
          "indexed": false,
          "internalType": "uint256",
          "name": "radius",
          "type": "uint256"
        },
        {
          "indexed": false,
          "internalType": "uint256",
          "name": "starLvl",
          "type": "uint256"
        },
        {
          "indexed": false,
          "internalType": "uint256",
          "name": "maxStarLvl",
          "type": "uint256"
        },
        {
          "indexed": false,
          "internalType": "bytes32",
          "name": "seed",
          "type": "bytes32"
        }
      ],
      "name": "bodyAdded",
      "type": "event"
    },
    {
      "anonymous": false,
      "inputs": [
        {
          "indexed": false,
          "internalType": "uint256",
          "name": "problemId",
          "type": "uint256"
        },
        {
          "indexed": false,
          "internalType": "uint256",
          "name": "tick",
          "type": "uint256"
        },
        {
          "indexed": false,
          "internalType": "uint256",
          "name": "bodyId",
          "type": "uint256"
        },
        {
          "indexed": false,
          "internalType": "uint256",
          "name": "starLvl",
          "type": "uint256"
        },
        {
          "indexed": false,
          "internalType": "uint256",
          "name": "maxStarLvl",
          "type": "uint256"
        },
        {
          "indexed": false,
          "internalType": "bytes32",
          "name": "seed",
          "type": "bytes32"
        }
      ],
      "name": "bodyRemoved",
      "type": "event"
    },
    {
      "inputs": [
        {
          "internalType": "uint256",
          "name": "problemId",
          "type": "uint256"
        },
        {
          "internalType": "uint256",
          "name": "bodyId",
          "type": "uint256"
        }
      ],
      "name": "addExistingBody",
      "outputs": [],
      "stateMutability": "nonpayable",
      "type": "function"
    },
    {
      "inputs": [
        {
          "internalType": "address",
          "name": "recipient",
          "type": "address"
        }
      ],
      "name": "adminMint",
      "outputs": [],
      "stateMutability": "nonpayable",
      "type": "function"
    },
    {
      "inputs": [
        {
          "internalType": "address",
          "name": "to",
          "type": "address"
        },
        {
          "internalType": "uint256",
          "name": "tokenId",
          "type": "uint256"
        }
      ],
      "name": "approve",
      "outputs": [],
      "stateMutability": "nonpayable",
      "type": "function"
    },
    {
      "inputs": [
        {
          "internalType": "address",
          "name": "owner",
          "type": "address"
        }
      ],
      "name": "balanceOf",
      "outputs": [
        {
          "internalType": "uint256",
          "name": "",
          "type": "uint256"
        }
      ],
      "stateMutability": "view",
      "type": "function"
    },
    {
      "inputs": [],
      "name": "bodies",
      "outputs": [
        {
          "internalType": "address",
          "name": "",
          "type": "address"
        }
      ],
      "stateMutability": "view",
      "type": "function"
    },
    {
      "inputs": [
        {
          "internalType": "uint256",
          "name": "problemId",
          "type": "uint256"
        }
      ],
      "name": "convertBodiesToStars",
      "outputs": [],
      "stateMutability": "nonpayable",
      "type": "function"
    },
    {
      "inputs": [
        {
          "internalType": "bytes32",
          "name": "seed",
          "type": "bytes32"
        }
      ],
      "name": "genRadius",
      "outputs": [
        {
          "internalType": "uint256",
          "name": "",
          "type": "uint256"
        }
      ],
      "stateMutability": "pure",
      "type": "function"
    },
    {
      "inputs": [
        {
          "internalType": "uint256",
          "name": "tokenId",
          "type": "uint256"
        }
      ],
      "name": "getApproved",
      "outputs": [
        {
          "internalType": "address",
          "name": "",
          "type": "address"
        }
      ],
      "stateMutability": "view",
      "type": "function"
    },
    {
      "inputs": [
        {
          "internalType": "uint256",
          "name": "problemId",
          "type": "uint256"
        },
        {
          "internalType": "uint256",
          "name": "bodyId",
          "type": "uint256"
        }
      ],
      "name": "getProblemBodyData",
      "outputs": [
        {
          "components": [
            {
              "internalType": "uint256",
              "name": "bodyId",
              "type": "uint256"
            },
            {
              "internalType": "uint256",
              "name": "mintedBodyIndex",
              "type": "uint256"
            },
            {
              "internalType": "uint256",
              "name": "bodyIndex",
              "type": "uint256"
            },
            {
              "internalType": "uint256",
              "name": "px",
              "type": "uint256"
            },
            {
              "internalType": "uint256",
              "name": "py",
              "type": "uint256"
            },
            {
              "internalType": "uint256",
              "name": "vx",
              "type": "uint256"
            },
            {
              "internalType": "uint256",
              "name": "vy",
              "type": "uint256"
            },
            {
              "internalType": "uint256",
              "name": "radius",
              "type": "uint256"
            },
            {
              "internalType": "uint256",
              "name": "starLvl",
              "type": "uint256"
            },
            {
              "internalType": "uint256",
              "name": "maxStarLvl",
              "type": "uint256"
            },
            {
              "internalType": "bytes32",
              "name": "seed",
              "type": "bytes32"
            }
          ],
          "internalType": "struct Problems.Body",
          "name": "",
          "type": "tuple"
        }
      ],
      "stateMutability": "view",
      "type": "function"
    },
    {
      "inputs": [
        {
          "internalType": "uint256",
          "name": "problemId",
          "type": "uint256"
        }
      ],
      "name": "getProblemBodyIds",
      "outputs": [
        {
          "internalType": "uint256[10]",
          "name": "",
          "type": "uint256[10]"
        }
      ],
      "stateMutability": "view",
      "type": "function"
    },
    {
      "inputs": [
        {
          "internalType": "uint256",
          "name": "problemId",
          "type": "uint256"
        }
      ],
      "name": "getProblemMintedBodiesIndex",
      "outputs": [
        {
          "internalType": "uint256",
          "name": "",
          "type": "uint256"
        }
      ],
      "stateMutability": "view",
      "type": "function"
    },
    {
      "inputs": [
        {
          "internalType": "uint256",
          "name": "problemId",
          "type": "uint256"
        }
      ],
      "name": "getProblemStarCount",
      "outputs": [
        {
          "internalType": "uint256",
          "name": "starCount",
          "type": "uint256"
        }
      ],
      "stateMutability": "view",
      "type": "function"
    },
    {
      "inputs": [
        {
          "internalType": "uint256",
          "name": "problemId",
          "type": "uint256"
        }
      ],
      "name": "getProblemStarData",
      "outputs": [
        {
          "components": [
            {
              "internalType": "uint256",
              "name": "bodyId",
              "type": "uint256"
            },
            {
              "internalType": "uint256",
              "name": "mintedBodyIndex",
              "type": "uint256"
            },
            {
              "internalType": "uint256",
              "name": "bodyIndex",
              "type": "uint256"
            },
            {
              "internalType": "uint256",
              "name": "px",
              "type": "uint256"
            },
            {
              "internalType": "uint256",
              "name": "py",
              "type": "uint256"
            },
            {
              "internalType": "uint256",
              "name": "vx",
              "type": "uint256"
            },
            {
              "internalType": "uint256",
              "name": "vy",
              "type": "uint256"
            },
            {
              "internalType": "uint256",
              "name": "radius",
              "type": "uint256"
            },
            {
              "internalType": "uint256",
              "name": "starLvl",
              "type": "uint256"
            },
            {
              "internalType": "uint256",
              "name": "maxStarLvl",
              "type": "uint256"
            },
            {
              "internalType": "bytes32",
              "name": "seed",
              "type": "bytes32"
            }
          ],
          "internalType": "struct Problems.Body[]",
          "name": "",
          "type": "tuple[]"
        }
      ],
      "stateMutability": "view",
      "type": "function"
    },
    {
      "inputs": [
        {
          "internalType": "bytes32",
          "name": "seed",
          "type": "bytes32"
        }
      ],
      "name": "getRandomValues",
      "outputs": [
        {
          "components": [
            {
              "internalType": "uint256",
              "name": "bodyId",
              "type": "uint256"
            },
            {
              "internalType": "uint256",
              "name": "mintedBodyIndex",
              "type": "uint256"
            },
            {
              "internalType": "uint256",
              "name": "bodyIndex",
              "type": "uint256"
            },
            {
              "internalType": "uint256",
              "name": "px",
              "type": "uint256"
            },
            {
              "internalType": "uint256",
              "name": "py",
              "type": "uint256"
            },
            {
              "internalType": "uint256",
              "name": "vx",
              "type": "uint256"
            },
            {
              "internalType": "uint256",
              "name": "vy",
              "type": "uint256"
            },
            {
              "internalType": "uint256",
              "name": "radius",
              "type": "uint256"
            },
            {
              "internalType": "uint256",
              "name": "starLvl",
              "type": "uint256"
            },
            {
              "internalType": "uint256",
              "name": "maxStarLvl",
              "type": "uint256"
            },
            {
              "internalType": "bytes32",
              "name": "seed",
              "type": "bytes32"
            }
          ],
          "internalType": "struct Problems.Body",
          "name": "",
          "type": "tuple"
        }
      ],
      "stateMutability": "view",
      "type": "function"
    },
    {
      "inputs": [
        {
          "internalType": "address",
          "name": "owner",
          "type": "address"
        },
        {
          "internalType": "address",
          "name": "operator",
          "type": "address"
        }
      ],
      "name": "isApprovedForAll",
      "outputs": [
        {
          "internalType": "bool",
          "name": "",
          "type": "bool"
        }
      ],
      "stateMutability": "view",
      "type": "function"
    },
    {
      "inputs": [
        {
          "internalType": "uint256",
          "name": "problemId",
          "type": "uint256"
        }
      ],
      "name": "levelUp",
      "outputs": [],
      "stateMutability": "nonpayable",
      "type": "function"
    },
    {
      "inputs": [],
      "name": "maxVector",
      "outputs": [
        {
          "internalType": "uint256",
          "name": "",
          "type": "uint256"
        }
      ],
      "stateMutability": "view",
      "type": "function"
    },
    {
      "inputs": [],
      "name": "mint",
      "outputs": [],
      "stateMutability": "payable",
      "type": "function"
    },
    {
      "inputs": [
        {
          "internalType": "address",
          "name": "recipient",
          "type": "address"
        },
        {
          "internalType": "uint256",
          "name": "quantity",
          "type": "uint256"
        }
      ],
      "name": "mint",
      "outputs": [],
      "stateMutability": "payable",
      "type": "function"
    },
    {
      "inputs": [
        {
          "internalType": "address",
          "name": "recipient",
          "type": "address"
        }
      ],
      "name": "mint",
      "outputs": [],
      "stateMutability": "payable",
      "type": "function"
    },
    {
      "inputs": [
        {
          "internalType": "uint256",
          "name": "problemId",
          "type": "uint256"
        }
      ],
      "name": "mintBodyOutsideProblem",
      "outputs": [],
      "stateMutability": "nonpayable",
      "type": "function"
    },
    {
      "inputs": [
        {
          "internalType": "uint256",
          "name": "problemId",
          "type": "uint256"
        }
      ],
      "name": "mintBodyToProblem",
      "outputs": [],
      "stateMutability": "nonpayable",
      "type": "function"
    },
    {
      "inputs": [],
      "name": "name",
      "outputs": [
        {
          "internalType": "string",
          "name": "",
          "type": "string"
        }
      ],
      "stateMutability": "view",
      "type": "function"
    },
    {
      "inputs": [],
      "name": "owner",
      "outputs": [
        {
          "internalType": "address",
          "name": "",
          "type": "address"
        }
      ],
      "stateMutability": "view",
      "type": "function"
    },
    {
      "inputs": [
        {
          "internalType": "uint256",
          "name": "tokenId",
          "type": "uint256"
        }
      ],
      "name": "ownerOf",
      "outputs": [
        {
          "internalType": "address",
          "name": "",
          "type": "address"
        }
      ],
      "stateMutability": "view",
      "type": "function"
    },
    {
      "inputs": [],
      "name": "paused",
      "outputs": [
        {
          "internalType": "bool",
          "name": "",
          "type": "bool"
        }
      ],
      "stateMutability": "view",
      "type": "function"
    },
    {
      "inputs": [],
      "name": "price",
      "outputs": [
        {
          "internalType": "uint256",
          "name": "",
          "type": "uint256"
        }
      ],
      "stateMutability": "view",
      "type": "function"
    },
    {
      "inputs": [],
      "name": "problemMetadata",
      "outputs": [
        {
          "internalType": "address",
          "name": "",
          "type": "address"
        }
      ],
      "stateMutability": "view",
      "type": "function"
    },
    {
      "inputs": [],
      "name": "problemSupply",
      "outputs": [
        {
          "internalType": "uint256",
          "name": "",
          "type": "uint256"
        }
      ],
      "stateMutability": "view",
      "type": "function"
    },
    {
      "inputs": [
        {
          "internalType": "uint256",
          "name": "",
          "type": "uint256"
        }
      ],
      "name": "problems",
      "outputs": [
        {
          "internalType": "bytes32",
          "name": "seed",
          "type": "bytes32"
        },
        {
          "internalType": "uint256",
          "name": "bodyCount",
          "type": "uint256"
        },
        {
          "internalType": "uint256",
          "name": "mintedBodiesIndex",
          "type": "uint256"
        },
        {
          "internalType": "uint256",
          "name": "tickCount",
          "type": "uint256"
        }
      ],
      "stateMutability": "view",
      "type": "function"
    },
    {
      "inputs": [],
      "name": "proceedRecipient",
      "outputs": [
        {
          "internalType": "address",
          "name": "",
          "type": "address"
        }
      ],
      "stateMutability": "view",
      "type": "function"
    },
    {
      "inputs": [
        {
          "internalType": "address payable",
          "name": "_to",
          "type": "address"
        }
      ],
      "name": "recoverUnsuccessfulMintPayment",
      "outputs": [],
      "stateMutability": "nonpayable",
      "type": "function"
    },
    {
      "inputs": [
        {
          "internalType": "uint256",
          "name": "problemId",
          "type": "uint256"
        },
        {
          "internalType": "uint256",
          "name": "bodyId",
          "type": "uint256"
        }
      ],
      "name": "removeBody",
      "outputs": [],
      "stateMutability": "nonpayable",
      "type": "function"
    },
    {
      "inputs": [],
      "name": "renounceOwnership",
      "outputs": [],
      "stateMutability": "nonpayable",
      "type": "function"
    },
    {
      "inputs": [
        {
          "internalType": "uint256",
          "name": "problemId",
          "type": "uint256"
        }
      ],
      "name": "restoreRadius",
      "outputs": [],
      "stateMutability": "nonpayable",
      "type": "function"
    },
    {
      "inputs": [
        {
          "internalType": "address",
          "name": "from",
          "type": "address"
        },
        {
          "internalType": "address",
          "name": "to",
          "type": "address"
        },
        {
          "internalType": "uint256",
          "name": "tokenId",
          "type": "uint256"
        }
      ],
      "name": "safeTransferFrom",
      "outputs": [],
      "stateMutability": "nonpayable",
      "type": "function"
    },
    {
      "inputs": [
        {
          "internalType": "address",
          "name": "from",
          "type": "address"
        },
        {
          "internalType": "address",
          "name": "to",
          "type": "address"
        },
        {
          "internalType": "uint256",
          "name": "tokenId",
          "type": "uint256"
        },
        {
          "internalType": "bytes",
          "name": "data",
          "type": "bytes"
        }
      ],
      "name": "safeTransferFrom",
      "outputs": [],
      "stateMutability": "nonpayable",
      "type": "function"
    },
    {
      "inputs": [],
      "name": "scalingFactor",
      "outputs": [
        {
          "internalType": "uint256",
          "name": "",
          "type": "uint256"
        }
      ],
      "stateMutability": "view",
      "type": "function"
    },
    {
      "inputs": [
        {
          "internalType": "address",
          "name": "operator",
          "type": "address"
        },
        {
          "internalType": "bool",
          "name": "approved",
          "type": "bool"
        }
      ],
      "name": "setApprovalForAll",
      "outputs": [],
      "stateMutability": "nonpayable",
      "type": "function"
    },
    {
      "inputs": [],
      "name": "solver",
      "outputs": [
        {
          "internalType": "address",
          "name": "",
          "type": "address"
        }
      ],
      "stateMutability": "view",
      "type": "function"
    },
    {
      "inputs": [],
      "name": "startDate",
      "outputs": [
        {
          "internalType": "uint256",
          "name": "",
          "type": "uint256"
        }
      ],
      "stateMutability": "view",
      "type": "function"
    },
    {
      "inputs": [],
      "name": "startingRadius",
      "outputs": [
        {
          "internalType": "uint256",
          "name": "",
          "type": "uint256"
        }
      ],
      "stateMutability": "view",
      "type": "function"
    },
    {
      "inputs": [
        {
          "internalType": "bytes4",
          "name": "interfaceId",
          "type": "bytes4"
        }
      ],
      "name": "supportsInterface",
      "outputs": [
        {
          "internalType": "bool",
          "name": "",
          "type": "bool"
        }
      ],
      "stateMutability": "view",
      "type": "function"
    },
    {
      "inputs": [],
      "name": "symbol",
      "outputs": [
        {
          "internalType": "string",
          "name": "",
          "type": "string"
        }
      ],
      "stateMutability": "view",
      "type": "function"
    },
    {
      "inputs": [
        {
          "internalType": "uint256",
          "name": "id",
          "type": "uint256"
        }
      ],
      "name": "tokenURI",
      "outputs": [
        {
          "internalType": "string",
          "name": "",
          "type": "string"
        }
      ],
      "stateMutability": "view",
      "type": "function"
    },
    {
      "inputs": [
        {
          "internalType": "address",
          "name": "from",
          "type": "address"
        },
        {
          "internalType": "address",
          "name": "to",
          "type": "address"
        },
        {
          "internalType": "uint256",
          "name": "tokenId",
          "type": "uint256"
        }
      ],
      "name": "transferFrom",
      "outputs": [],
      "stateMutability": "nonpayable",
      "type": "function"
    },
    {
      "inputs": [
        {
          "internalType": "address",
          "name": "newOwner",
          "type": "address"
        }
      ],
      "name": "transferOwnership",
      "outputs": [],
      "stateMutability": "nonpayable",
      "type": "function"
    },
    {
      "inputs": [
        {
          "internalType": "address",
          "name": "bodies_",
          "type": "address"
        }
      ],
      "name": "updateBodiesAddress",
      "outputs": [],
      "stateMutability": "nonpayable",
      "type": "function"
    },
    {
      "inputs": [
        {
          "internalType": "bool",
          "name": "paused_",
          "type": "bool"
        }
      ],
      "name": "updatePaused",
      "outputs": [],
      "stateMutability": "nonpayable",
      "type": "function"
    },
    {
      "inputs": [
        {
          "internalType": "uint256",
          "name": "price_",
          "type": "uint256"
        }
      ],
      "name": "updatePrice",
      "outputs": [],
      "stateMutability": "nonpayable",
      "type": "function"
    },
    {
      "inputs": [
        {
          "internalType": "uint256",
          "name": "problemId",
          "type": "uint256"
        },
        {
          "internalType": "uint256",
          "name": "bodyId",
          "type": "uint256"
        },
        {
          "components": [
            {
              "internalType": "uint256",
              "name": "bodyId",
              "type": "uint256"
            },
            {
              "internalType": "uint256",
              "name": "mintedBodyIndex",
              "type": "uint256"
            },
            {
              "internalType": "uint256",
              "name": "bodyIndex",
              "type": "uint256"
            },
            {
              "internalType": "uint256",
              "name": "px",
              "type": "uint256"
            },
            {
              "internalType": "uint256",
              "name": "py",
              "type": "uint256"
            },
            {
              "internalType": "uint256",
              "name": "vx",
              "type": "uint256"
            },
            {
              "internalType": "uint256",
              "name": "vy",
              "type": "uint256"
            },
            {
              "internalType": "uint256",
              "name": "radius",
              "type": "uint256"
            },
            {
              "internalType": "uint256",
              "name": "starLvl",
              "type": "uint256"
            },
            {
              "internalType": "uint256",
              "name": "maxStarLvl",
              "type": "uint256"
            },
            {
              "internalType": "bytes32",
              "name": "seed",
              "type": "bytes32"
            }
          ],
          "internalType": "struct Problems.Body",
          "name": "body",
          "type": "tuple"
        }
      ],
      "name": "updateProblemBody",
      "outputs": [],
      "stateMutability": "nonpayable",
      "type": "function"
    },
    {
      "inputs": [
        {
          "internalType": "uint256",
          "name": "problemId",
          "type": "uint256"
        },
        {
          "internalType": "uint256",
          "name": "bodyCount",
          "type": "uint256"
        }
      ],
      "name": "updateProblemBodyCount",
      "outputs": [],
      "stateMutability": "nonpayable",
      "type": "function"
    },
    {
      "inputs": [
        {
          "internalType": "uint256",
          "name": "problemId",
          "type": "uint256"
        },
        {
          "internalType": "uint256[10]",
          "name": "bodyIds",
          "type": "uint256[10]"
        }
      ],
      "name": "updateProblemBodyIds",
      "outputs": [],
      "stateMutability": "nonpayable",
      "type": "function"
    },
    {
      "inputs": [
        {
          "internalType": "address",
          "name": "problemMetadata_",
          "type": "address"
        }
      ],
      "name": "updateProblemMetadataAddress",
      "outputs": [],
      "stateMutability": "nonpayable",
      "type": "function"
    },
    {
      "inputs": [
        {
          "internalType": "uint256",
          "name": "problemId",
          "type": "uint256"
        },
        {
          "internalType": "uint256",
          "name": "tickCount",
          "type": "uint256"
        }
      ],
      "name": "updateProblemTickCount",
      "outputs": [],
      "stateMutability": "nonpayable",
      "type": "function"
    },
    {
      "inputs": [
        {
          "internalType": "address",
          "name": "proceedRecipient_",
          "type": "address"
        }
      ],
      "name": "updateProceedRecipientAddress",
      "outputs": [],
      "stateMutability": "nonpayable",
      "type": "function"
    },
    {
      "inputs": [
        {
          "internalType": "address",
          "name": "solver_",
          "type": "address"
        }
      ],
      "name": "updateSolverAddress",
      "outputs": [],
      "stateMutability": "nonpayable",
      "type": "function"
    },
    {
      "inputs": [
        {
          "internalType": "uint256",
          "name": "startDate_",
          "type": "uint256"
        }
      ],
      "name": "updateStartDate",
      "outputs": [],
      "stateMutability": "nonpayable",
      "type": "function"
    },
    {
      "inputs": [
        {
          "internalType": "address",
          "name": "verifier_",
          "type": "address"
        },
        {
          "internalType": "uint256",
          "name": "verifierBodies",
          "type": "uint256"
        },
        {
          "internalType": "uint256",
          "name": "verifierTicks",
          "type": "uint256"
        }
      ],
      "name": "updateVerifier",
      "outputs": [],
      "stateMutability": "nonpayable",
      "type": "function"
    },
    {
      "inputs": [
        {
          "internalType": "uint256",
          "name": "",
          "type": "uint256"
        },
        {
          "internalType": "uint256",
          "name": "",
          "type": "uint256"
        }
      ],
      "name": "verifiers",
      "outputs": [
        {
          "internalType": "address",
          "name": "",
          "type": "address"
        }
      ],
      "stateMutability": "view",
      "type": "function"
    },
    {
      "inputs": [],
      "name": "windowWidth",
      "outputs": [
        {
          "internalType": "uint256",
          "name": "",
          "type": "uint256"
        }
      ],
      "stateMutability": "view",
      "type": "function"
    },
    {
      "stateMutability": "payable",
      "type": "receive"
    }
  ],
  "bytecode": "0x60406080815234620005bf5762003cdc90813803806200001f81620005ff565b9384398201608083820312620005bf576200003a8362000625565b92602091828201519260018060401b0393848111620005bf57830191601f93818585011215620005bf578351936200007c62000076866200063a565b620005ff565b94848087838152019160051b83010191848311620005bf5785809101915b838310620005c4575050505086810151868111620005bf5782620000c091830162000652565b916060820151878111620005bf57620000da920162000652565b91620000e5620005df565b95600f908188526e416e79626f64792050726f626c656d60881b838901526200010d620005df565b966003885262414e5960e81b84890152885197828911620005a95760009889549a60019b8c81811c911680156200059e575b888210146200058a5790818584931162000537575b508790858311600114620004ca578c92620004be575b5050600019600383901b1c1916908b1b1789555b8051928311620004aa5789548a81811c911680156200049f575b868210146200048b579081838594931162000436575b5085918311600114620003d2578992620003c6575b5050600019600383901b1c191690881b1787555b6006549860018060a01b03199533878c161760065589519a60018060a01b039283918d7f8be0079c531659141344cd1fd0a4f28419497f9722a3daafe3b4186f6b6457e08c8533941692a389600755662386f26fc10000600d55169a8b15620003845750889a3388600c541617600c5587600b541617600b55879a5b62000268575b89516136019081620006db8239f35b80518b10156200037e576200027e8b86620006af565b51156200033a5781620002928c83620006af565b511615620003035781620002a78c83620006af565b5116620002b58c88620006af565b5189528385528a8920620002ca8d88620006af565b518a5285528a892090888254161790556000198b14620002ef57998801998862000253565b634e487b7160e01b88526011600452602488fd5b895162461bcd60e51b815260048101859052601060248201526f24b73b30b634b2103b32b934b334b2b960811b6044820152606490fd5b895162461bcd60e51b815260048101859052601560248201527f496e76616c6964207665726966696572206475737400000000000000000000006044820152606490fd5b62000259565b62461bcd60e51b815260048101859052601760248201527f496e76616c69642070726f626c656d4d657461646174610000000000000000006044820152606490fd5b015190503880620001c3565b8a8a52858a208b94509190601f1984168b5b888282106200041f575050841162000405575b505050811b018755620001d7565b015160001960f88460031b161c19169055388080620003f7565b8385015186558e97909501949384019301620003e4565b909192508a8a52858a208380860160051c82019288871062000481575b9186958e929594930160051c01915b82811062000472575050620001ae565b8c81558695508d910162000462565b9250819262000453565b634e487b7160e01b8a52602260045260248afd5b90607f169062000198565b634e487b7160e01b89526041600452602489fd5b0151905038806200016a565b8c8052888d208e94509190601f1984168e5b8b828210620005175750508411620004fd575b505050811b0189556200017e565b015160001960f88460031b161c19169055388080620004ef565b91929395968291958786015181550195019301908f9594939291620004dc565b9091508b8052878c208580850160051c8201928a861062000580575b918f91869594930160051c01915b8281106200057157505062000154565b8e81558594508f910162000561565b9250819262000553565b634e487b7160e01b8c52602260045260248cfd5b90607f16906200013f565b634e487b7160e01b600052604160045260246000fd5b600080fd5b8190620005d18462000625565b81520191019085906200009a565b60408051919082016001600160401b03811183821017620005a957604052565b6040519190601f01601f191682016001600160401b03811183821017620005a957604052565b51906001600160a01b0382168203620005bf57565b6001600160401b038111620005a95760051b60200190565b9080601f83011215620005bf578151906200067162000076836200063a565b9182938184526020808095019260051b820101928311620005bf578301905b8282106200069f575050505090565b8151815290830190830162000690565b8051821015620006c45760209160051b010190565b634e487b7160e01b600052603260045260246000fdfe60806040526004361015610023575b361561001957600080fd5b610021612953565b005b6000803560e01c8063010fdfd51461221f57806301ffc9a7146121b057806304b24e851461217757806305ee7fa01461213557806306fdde0314612075578063081812fc146120565780630825ea8d14611faa57806308cdc2a814611f61578063095ea7b314611de95780630b27ce3f14611dc05780630b97bc8614611da25780630bdaaaca14611d7b5780630ce90ec214611c475780631249c58b14611c3357806318d9479314611c0e57806320a286d014611bf057806321dbbbdf14611aae57806323b872dd14611a845780632b057afa14611a295780632d6059331461193f578063306da04f1461191657806334e5e492146118e95780633ecb6f88146116de5780633f29ad1d14611415578063408472841461138057806340c10f191461124c57806342842e0e146111fa57806343569ffb146111c357806349a7a26d1461119a5780634b9862d91461117e57806353e52f09146111625780635c975abb1461113c578063609e00a41461111c5780636282eff5146110da5780636352211e146110a95780636a62784214610f3557806370a0823114610e9f578063715018a614610e3f5780637696d9ff14610dfd578063872d7e4814610dc45780638d6cc56d14610d9f5780638da5cb5b14610d76578063934317b114610d4d57806395d89b4114610c415780639769dc0e14610bd1578063a035b1fe14610bb3578063a22cb46514610ae1578063afcb1af0146109ef578063b88d4fde14610965578063beffa3b814610938578063bf82e9de146107c5578063c09fd8ef1461074a578063c31f5d6a14610700578063c87b56dd1461060b578063d35c3f9414610516578063de4318fc14610473578063e985e9c51461041f578063eba4f366146103d2578063ed3437f8146103b5578063f2fde38b146102ee5763f81c8ec3146102ce575061000e565b346102eb57806003193601126102eb576020604051620f42408152f35b80fd5b50346102eb5760203660031901126102eb57610308612261565b61031061244b565b6001600160a01b03908116801561036157600680546001600160a01b03198116831790915560405192167f8be0079c531659141344cd1fd0a4f28419497f9722a3daafe3b4186f6b6457e0600084a3f35b60405162461bcd60e51b815260206004820152602660248201527f4f776e61626c653a206e6577206f776e657220697320746865207a65726f206160448201526564647265737360d01b6064820152608490fd5b50346102eb57806003193601126102eb5760206040516103e88152f35b50346102eb5760203660031901126102eb5760406080916004358152600e60205220805490600181015490600f600282015491015491604051938452602084015260408301526060820152f35b50346102eb5760403660031901126102eb57610439612261565b604061044361227c565b9260018060a01b0380931681526005602052209116600052602052602060ff604060002054166040519015158152f35b50346102eb576101603660031901126102eb5736604312156102eb5760405161049b816123d4565b61016481368211610512576024905b82821061050257505050600a906104cb60018060a01b038354163314613568565b60043583526020600e81526005604085200184925b8484106104ed5785604051f35b600183828293518555019201930192906104e0565b81358152602091820191016104aa565b8380fd5b50346102eb576101a03660031901126102eb5761016080604319360112610607576040519081019080821067ffffffffffffffff8311176105f1576105ec9160405260443581526064356020820152608435604082015260a435606082015260c435608082015260e43560a08201526101043560c08201526101243560e08201526101443561010082015261016435610120820152610184356101408201526105ca60018060a01b03600a54163314613568565b6004358352600e6020526004604084200160243584526020526040832061304b565b604051f35b634e487b7160e01b600052604160045260246000fd5b5080fd5b50346102eb5760208060031936011261060757600b546040516351a35b5560e01b81526004803590820152908390829060249082906001600160a01b03165afa9283156106f4578093610673575b505061066f6040519282849384528301906122dd565b0390f35b909192503d8082843e610686818461240d565b82019183818403126106075780519067ffffffffffffffff82116106f0570182601f82011215610607578051916106bc8361242f565b936106ca604051958661240d565b8385528584840101116102eb5750906106e8918480850191016122a8565b903880610659565b8280fd5b604051903d90823e3d90fd5b50346102eb5761073b60406101609261071836612292565b90610721613471565b508252600e60205260048383200190825260205220612fd0565b6107486040518092612337565bf35b50346102eb5760203660031901126102eb576004356001600160a01b038116908190036106075761077961244b565b47906000805160206135ac8339815191526107b484808060405187875af161079f61282b565b906040519283926040845260408401906122dd565b9560208301521515940390a3604051f35b50346102eb57602090816003193601126102eb576004359160018060a01b0360248282600a541660405192838092634e26b0cd60e01b82528960048301525afa90811561092d579061081f918591610900575b5015612e87565b61083160ff60065460a01c1615612a51565b61084661083d856124ef565b82163314612ed3565b838352600e8252610860600a600160408620015410612f13565b838352600e825260026040842001549061087c600a8310612f5f565b6009541690813b1561051257604051630ab714fb60e11b81523360048201526024810186905260448101919091529083908290606490829084905af180156108f5576108e3575b508192600e925252600260408220016108dc8154612a86565b9055604051f35b916108ef600e936123a3565b916108c3565b6040513d85823e3d90fd5b6109209150843d8611610926575b610918818361240d565b810190612e6f565b38610818565b503d61090e565b6040513d86823e3d90fd5b50346102eb5760203660031901126102eb57600360406020926004358152600e8452200154604051908152f35b50346102eb5760803660031901126102eb5761097f612261565b61098761227c565b906064359067ffffffffffffffff8211610512573660238301121561051257816004013592846109b68561242f565b936109c4604051958661240d565b858552366024878301011161060757856105ec966024602093018388013785010152604435916125b5565b50346102eb576109fe36612292565b600a54604051634e26b0cd60e01b8152600481018490526001600160a01b0393916020908290602490829088165afa8015610ad657610a44918691610abe575015612e87565b808452600e602052600360016040862001541115610a7957610a746105ec93610a6c836124ef565b163314612ed3565b6130f3565b60405162461bcd60e51b815260206004820152601e60248201527f43616e6e6f742068617665206c657373207468616e203320626f6469657300006044820152606490fd5b610920915060203d811161092657610918818361240d565b6040513d87823e3d90fd5b50346102eb5760403660031901126102eb57610afb612261565b602435908115158092036106f0576001600160a01b031690338214610b6e573383526005602052604083208284526020526040832060ff1981541660ff83161790556040519081527f17307eab39ab6107e8899845ad3d59bd9653f200f220920489ca2b5937696c3160203392a3604051f35b60405162461bcd60e51b815260206004820152601960248201527f4552433732313a20617070726f766520746f2063616c6c6572000000000000006044820152606490fd5b50346102eb57806003193601126102eb576020600d54604051908152f35b50346102eb5760203660031901126102eb576105ec610bee612261565b600a54610c34906001600160a01b0390610c0b9082161515612a13565b610c1a81600954161515612a13565b610c2981600b54161515612a13565b600c54161515612a13565b610c3c61244b565b612ac6565b50346102eb57806003193601126102eb57604051908060019182549283811c92818516948515610d43575b6020958686108114610d2f57858852879493929187908215610d0d575050600114610cb4575b5050610ca09250038361240d565b61066f6040519282849384528301906122dd565b908592508082527fb10e2d527612073b26eecdfd717e6a320cf44b4afac2b0732d9fcbe2b7fa0cf65b858310610cf5575050610ca093508201013880610c92565b80548389018501528794508693909201918101610cdd565b9250935050610ca094915060ff191682840152151560051b8201013880610c92565b634e487b7160e01b83526022600452602483fd5b93607f1693610c6c565b50346102eb57806003193601126102eb57600b546040516001600160a01b039091168152602090f35b50346102eb57806003193601126102eb576006546040516001600160a01b039091168152602090f35b50346102eb5760203660031901126102eb57610db961244b565b600435600d55604051f35b50346102eb57610dd336612292565b90610de960018060a01b03600a54163314613568565b8252600e6020526001604083200155604051f35b50346102eb5760203660031901126102eb57610e17612261565b610e1f61244b565b60018060a01b03166001600160601b0360a01b600a541617600a55604051f35b50346102eb57806003193601126102eb57610e5861244b565b600680546001600160a01b031981169091556040519082906001600160a01b03167f8be0079c531659141344cd1fd0a4f28419497f9722a3daafe3b4186f6b6457e08284a3f35b50346102eb5760203660031901126102eb576001600160a01b03610ec1612261565b168015610ede578160409160209352600383522054604051908152f35b60405162461bcd60e51b815260206004820152602960248201527f4552433732313a2061646472657373207a65726f206973206e6f7420612076616044820152683634b21037bbb732b960b91b6064820152608490fd5b5060203660031901126102eb57610f4a612261565b600a546001600160a01b039081161515610f6381612a13565b610fa88260095416151591610f7783612a13565b610fa384600b54161515610f8a81612a13565b610fa386600c541695610fa387151595610fa387612a13565b612a13565b610fba60ff60065460a01c1615612a51565b600754421061107657600d54340361104157838080926040519034905af1906000805160206135ac83398151915261100d610ff361282b565b92600c5416926040519182916040835260408301906122dd565b943460208301521515940390a3815b6001811061102a5782604051f35b61103c9061103783612ac6565b612a86565b61101c565b60405162461bcd60e51b815260206004820152600d60248201526c496e76616c696420707269636560981b6044820152606490fd5b60405162461bcd60e51b815260206004820152600b60248201526a139bdd081cdd185c9d195960aa1b6044820152606490fd5b50346102eb5760203660031901126102eb5760206110c86004356124ef565b6040516001600160a01b039091168152f35b50346102eb5760203660031901126102eb576110f4612261565b6110fc61244b565b60018060a01b03166001600160601b0360a01b600c541617600c55604051f35b50346102eb5760203660031901126102eb5761016061073b6004356134c4565b50346102eb57806003193601126102eb57602060ff60065460a01c166040519015158152f35b50346102eb57806003193601126102eb57602060405160028152f35b50346102eb57806003193601126102eb576020604051600a8152f35b50346102eb57806003193601126102eb57600a546040516001600160a01b039091168152602090f35b50346102eb576020906111d536612292565b908252600f8352604082209082528252604060018060a01b0391205416604051908152f35b50346102eb5761120936612302565b60409392935191602083019483861067ffffffffffffffff871117611238576105ec94956040528584526125b5565b634e487b7160e01b85526041600452602485fd5b5060403660031901126102eb57611261612261565b600a5460243591906001600160a01b039061127f9082161515612a13565b61128e81600954161515612a13565b61129d81600b54161515612a13565b80600c54166112ad811515612a13565b60058411611353576112c760ff60065460a01c1615612a51565b600754421061107657600d54846000190481118515151661133f578402340361104157848080926040519034905af1906000805160206135ac833981519152611311610ff361282b565b943460208301521515940390a3825b82811061132d5783604051f35b61133a9061103783612ac6565b611320565b634e487b7160e01b86526011600452602486fd5b60405162461bcd60e51b81526020600482015260056024820152644d6178203560d81b6044820152606490fd5b50346102eb57602090816003193601126102eb5790604051916113a2836123d4565b61014080933690376004358152600e82526005604082200191604051928383905b600a82106113ff575050506113d7836123d4565b6040519291835b600a82106113ea578585f35b828060019286518152019401910190926113de565b82548152600192830192919091019083016113c3565b50346102eb5760203660031901126102eb57600a54604051634e26b0cd60e01b815260048035908201526001600160a01b03916020908290602490829086165afa80156108f55761146d9184916116c5575015612e87565b61147f60ff60065460a01c1615612a51565b61148d61083d6004356124ef565b6004358252600e6020526114aa600a600160408520015410612f13565b6004358252600e6020526002604083200154906114c9600a8310612f5f565b60095460405163d395cb1360e01b815233600480830191909152356024820152604481018490529291606091849160649183918891165af19081156108f557839284908593611690575b506004358552600e6020526001604086200154846115a861158f611536876134c4565b938385528660208601528961010086015261012085019586528060408601526004358a52600e602052600460408b2001848b526020526115798560408c2061304b565b6004358a52600e602052600560408b2001612faa565b819391549060031b600019811b9283911b169119161790565b90556004358652600e602052600160408720016115c58154612a86565b90556004358652600e602052604086206002018054600119811161167c579161014095939160017fe40053ac8eef7fe7edc42668d8edfd183596014bf82e00bd7e938851ae1321479896940190556004358852600e602052600f604089200154606082015160808301519161010060e0850151940151945195604051986004358a5260208a015260408901526060880152608087015260a086015260c085015260e0840152610100830152610120820152a1604051f35b634e487b7160e01b88526011600452602488fd5b919350506116b5915060603d81116116be575b6116ad818361240d565b810190612aab565b91929038611513565b503d6116a3565b610920915060203d60201161092657610918818361240d565b50346102eb57806116ee36612292565b61170060ff60065460a01c1615612a51565b608061170b836124ef565b6001600160a01b03906117219082163314612ed3565b838552600e60205261173c600a600160408820015410612f13565b60095416606460405180968193636f21292560e01b83528660048401523360248401528760448401525af192831561092d57849085809281928297611897575b509181869593610140977fe40053ac8eef7fe7edc42668d8edfd183596014bf82e00bd7e938851ae13214799969452600e6020528461181a61158f6001604086200154600560406117cc8c6134c4565b978689528760208a01526101009a8b8a01526101208901998a5283828a01528d8152600e60205260048282200187825260205261180b8983832061304b565b8d8152600e6020522001612faa565b9055868a52600e602052600160408b20016118358154612a86565b9055868a52600e602052600f60408b2001546060830151906080840151928660e08601519501519551976040519a8b5260208b015260408a01526060890152608088015260a087015260c086015260e0850152830152610120820152a1604051f35b965050505050906080833d6080116118e1575b816118b76080938361240d565b8101031261051257825160208401516040850151606090950151949293929091869061014061177c565b3d91506118aa565b50346102eb5760203660031901126102eb57600260406020926004358152600e8452200154604051908152f35b50346102eb57806003193601126102eb576009546040516001600160a01b039091168152602090f35b50346102eb57602090816003193601126102eb576004358152600e8252600360408220019182549067ffffffffffffffff8211611a15579192906040519061198c848260051b018361240d565b8082528382018093865284862086915b8383106119ee57505050506040519280840191818552518092526040840192945b8281106119ca5784840385f35b90919282610160826119df6001948a51612337565b019601910194929190946119bd565b600b87600192611a02859b9a98999b612fd0565b815201920192019190969493959661199c565b634e487b7160e01b83526041600452602483fd5b50346102eb5760603660031901126102eb57611a43612261565b611a4b61244b565b6024358252600f602052604082206044358352602052604082209060018060a01b03166001600160601b0360a01b825416179055604051f35b50346102eb576105ec611a9636612302565b91611aa9611aa48433612650565b612553565b612718565b50346102eb576020806003193601126106075760043590602460018060a01b038281600a541660405193848092634e26b0cd60e01b82528860048301525afa918215610ad657611b1292611b09918791611bd9575015612e87565b610a6c846124ef565b825b828452600e908183526001604086200154811015611bd357611b8b91611b408260056040892001612faa565b9054600391821b1c908688528286526004604089200182895286526008604089200154878952838752600460408a2001838a528752600960408a20015414611b90575b505050612a86565b611b14565b611bcb92878952808752600460408a2001838a528752611bbc611bb560408b20612fd0565b93896130f3565b878952865260408820016130b9565b388080611b83565b84604051f35b6109209150853d871161092657610918818361240d565b50346102eb57806003193601126102eb576020600854604051908152f35b50346102eb5760203660031901126102eb57611c2861244b565b600435600755604051f35b50806003193601126102eb576105ec612953565b50346102eb5760208060031936011261060757600435611c7260018060a01b03600a54163314613568565b808352600e8083526040842060010154929084805b858210611c945786604051f35b8487528284526005604088200181831061167c57611cb59082840390612faa565b929054600393841b1c868952848652600460408a2001818a528652886008806040832001611ce38154612a86565b9055888252868852600460408320018383528852604082200154888252868852600460408320018383528852600960408320015414611d30575b5050611d2a919250612a86565b90611c87565b90611d62611d2a94611037611d5b6040868d611d7398528b8d526004828220018782528d5220612fd0565b938b6130f3565b94888b5286885260408b20016130b9565b829188611d1d565b50346102eb5760203660031901126102eb576020611d9a60043561342d565b604051908152f35b50346102eb57806003193601126102eb576020600754604051908152f35b50346102eb57806003193601126102eb57600c546040516001600160a01b039091168152602090f35b50346102eb5760403660031901126102eb57611e03612261565b6024356001600160a01b038080611e19846124ef565b16931692808414611f1257803314908115611ef1575b5015611e865781845260046020526040842080546001600160a01b03191684179055611e5a826124ef565b1691604051927f8c5be1e5ebec7d5bd14f71427d1e84f3dd0314c0f7b2291e5b200ac8c7c3b9258585a4f35b60405162461bcd60e51b815260206004820152603d60248201527f4552433732313a20617070726f76652063616c6c6572206973206e6f7420746f60448201527f6b656e206f776e6572206f7220617070726f76656420666f7220616c6c0000006064820152608490fd5b9050845260056020526040842033855260205260ff60408520541638611e2f565b60405162461bcd60e51b815260206004820152602160248201527f4552433732313a20617070726f76616c20746f2063757272656e74206f776e656044820152603960f91b6064820152608490fd5b50346102eb5760203660031901126102eb5760043580151580910361060757611f8861244b565b6006805460ff60a01b191660a09290921b60ff60a01b16919091179055604051f35b50346102eb5760208060031936011261060757600435600a611fd660018060a01b038254163314613568565b835b828552600e9081855260016040872001548110156120505761204b9161200482600560408a2001612faa565b90549060031b1c85885281875260046040892001818952875261202c8560408a20015461342d565b9186895287526004604089200190885286526007604088200155612a86565b611fd8565b85604051f35b50346102eb5760203660031901126102eb5760206110c8600435612515565b50346102eb57806003193601126102eb576040519080805491600183811c9281851694851561212b575b6020958686108114610d2f57858852879493929187908215610d0d5750506001146120d2575050610ca09250038361240d565b908592508180527f290decd9548b62a8d60345a988386fc84ba6bc95484008f6362f93160ef3e5635b858310612113575050610ca093508201013880610c92565b805483890185015287945086939092019181016120fb565b93607f169361209f565b50346102eb5760203660031901126102eb5761214f612261565b61215761244b565b60018060a01b03166001600160601b0360a01b600b541617600b55604051f35b50346102eb5761218636612292565b9061219c60018060a01b03600a54163314613568565b8252600e602052600f604083200155604051f35b50346102eb5760203660031901126102eb5760043563ffffffff60e01b8116809103610607576020906380ac58cd60e01b811490811561220e575b81156121fd575b506040519015158152f35b6301ffc9a760e01b149050826121f2565b635b5e139f60e01b811491506121eb565b50346102eb5760203660031901126102eb57612239612261565b61224161244b565b60018060a01b03166001600160601b0360a01b6009541617600955604051f35b600435906001600160a01b038216820361227757565b600080fd5b602435906001600160a01b038216820361227757565b6040906003190112612277576004359060243590565b918091926000905b8282106122c85750116122c1575050565b6000910152565b915080602091830151818601520182916122b0565b906020916122f6815180928185528580860191016122a8565b601f01601f1916010190565b6060906003190112612277576001600160a01b0390600435828116810361227757916024359081168103612277579060443590565b805182526020810151602083015260408101516040830152606081015160608301526080810151608083015260a081015160a083015260c081015160c083015260e081015160e08301526101008082015190830152610120808201519083015261014080910151910152565b67ffffffffffffffff81116105f157604052565b610160810190811067ffffffffffffffff8211176105f157604052565b610140810190811067ffffffffffffffff8211176105f157604052565b6060810190811067ffffffffffffffff8211176105f157604052565b90601f8019910116810190811067ffffffffffffffff8211176105f157604052565b67ffffffffffffffff81116105f157601f01601f191660200190565b6006546001600160a01b0316330361245f57565b606460405162461bcd60e51b815260206004820152602060248201527f4f776e61626c653a2063616c6c6572206973206e6f7420746865206f776e65726044820152fd5b156124aa57565b60405162461bcd60e51b815260206004820152601860248201527f4552433732313a20696e76616c696420746f6b656e20494400000000000000006044820152606490fd5b6000908152600260205260409020546001600160a01b03166125128115156124a3565b90565b600081815260026020526040902054612538906001600160a01b031615156124a3565b6000908152600460205260409020546001600160a01b031690565b1561255a57565b60405162461bcd60e51b815260206004820152602d60248201527f4552433732313a2063616c6c6572206973206e6f7420746f6b656e206f776e6560448201526c1c881bdc88185c1c1c9bdd9959609a1b6064820152608490fd5b906125d99392916125c9611aa48433612650565b6125d4838383612718565b61285b565b156125e057565b60405162461bcd60e51b8152806125f9600482016125fd565b0390fd5b60809060208152603260208201527f4552433732313a207472616e7366657220746f206e6f6e20455243373231526560408201527131b2b4bb32b91034b6b83632b6b2b73a32b960711b60608201520190565b906001600160a01b038080612664846124ef565b16931691838314938415612697575b508315612681575b50505090565b61268d91929350612515565b161438808061267b565b909350600052600560205260406000208260005260205260ff604060002054169238612673565b156126c557565b60405162461bcd60e51b815260206004820152602560248201527f4552433732313a207472616e736665722066726f6d20696e636f72726563742060448201526437bbb732b960d91b6064820152608490fd5b9061274091612726846124ef565b6001600160a01b03939184169284929091831684146126be565b169182156127da578161275d91612756866124ef565b16146126be565b7fddf252ad1be2c89b69c2b068fc378daa952ba7f163c4a11628f55a4df523b3ef60008481526004602052604081206001600160601b0360a01b90818154169055838252600360205260408220600019815401905584825260408220600181540190558582526002602052846040832091825416179055604051a4565b60405162461bcd60e51b8152602060048201526024808201527f4552433732313a207472616e7366657220746f20746865207a65726f206164646044820152637265737360e01b6064820152608490fd5b3d15612856573d9061283c8261242f565b9161284a604051938461240d565b82523d6000602084013e565b606090565b91926000929190813b15612949576020916128b19185604051958680958194630a85bd0160e11b9b8c845233600485015260018060a01b03809516602485015260448401526080606484015260848301906122dd565b0393165af190829082612901575b50506128f3576128cd61282b565b805190816128ee5760405162461bcd60e51b8152806125f9600482016125fd565b602001fd5b6001600160e01b0319161490565b909192506020813d8211612941575b8161291d6020938361240d565b810103126106075751906001600160e01b0319821682036102eb57509038806128bf565b3d9150612910565b5050505050600190565b600a546001600160a01b039061296c9082161515612a13565b61297b81600954161515612a13565b61298a81600b54161515612a13565b80600c541661299a811515612a13565b6129ac60ff60065460a01c1615612a51565b600754421061107657600d5434036110415760008080926040519034905af1906000805160206135ac8339815191526129e6610ff361282b565b943460208301521515940390a360005b60018110612a015750565b612a0e9061103733612ac6565b6129f6565b15612a1a57565b60405162461bcd60e51b815260206004820152600f60248201526e139bdd081a5b9a5d1a585b1a5e9959608a1b6044820152606490fd5b15612a5857565b60405162461bcd60e51b815260206004820152600660248201526514185d5cd95960d21b6044820152606490fd5b6000198114612a955760010190565b634e487b7160e01b600052601160045260246000fd5b90816060910312612277578051916040602083015192015190565b612ad1600854612a86565b60088190556001600160a01b03821691908215612ddf57600081815260026020526040902054612b0d906001600160a01b031615155b15612e23565b600081815260026020526040902054612b30906001600160a01b03161515612b07565b82600052600392836020526040600020600181540190558160005260026020526040600020816001600160601b0360a01b82541617905560007fddf252ad1be2c89b69c2b068fc378daa952ba7f163c4a11628f55a4df523b3ef81604051a460005b828110612bea57505060085460014310612a9557604080516020810183815243600019014082840152918152612bc7816123f1565b51902090600052600e602052604060002055600854600052600160406000200155565b60095460085460405163d395cb1360e01b81526001600160a01b038581166004808401919091526024830193909352604482018590529192909160609183916064918391600091165af1908115612dd357600090600090600093612daf575b5060085493612c57846134c4565b91838352866020840152600061010084015261012083015285604083015284600052600e6020528060406000200183600052602052612c9a82604060002061304b565b84600052600e60205282612cb861158f886005604060002001612faa565b905584600052600e6020526001604060002001612cd58154612a86565b905584600052600e6020526002604060002001908154906001198211612d9a575092612d959695927fe40053ac8eef7fe7edc42668d8edfd183596014bf82e00bd7e938851ae132147959260016101409601905583600052600e602052600f60406000200154606082015160808301519060e0840151926101206101008601519501519560405198895260208901528a60408901526060880152608087015260a086015260c085015260e0840152610100830152610120820152a1612a86565b612b92565b601190634e487b7160e01b6000525260246000fd5b915050612dcb915060603d6060116116be576116ad818361240d565b919038612c49565b6040513d6000823e3d90fd5b606460405162461bcd60e51b815260206004820152602060248201527f4552433732313a206d696e7420746f20746865207a65726f20616464726573736044820152fd5b15612e2a57565b60405162461bcd60e51b815260206004820152601c60248201527f4552433732313a20746f6b656e20616c7265616479206d696e746564000000006044820152606490fd5b90816020910312612277575180151581036122775790565b15612e8e57565b60405162461bcd60e51b815260206004820152601960248201527f50726f626c656d2063757272656e746c7920696e20706c6179000000000000006044820152606490fd5b15612eda57565b60405162461bcd60e51b81526020600482015260116024820152702737ba10383937b13632b69037bbb732b960791b6044820152606490fd5b15612f1a57565b60405162461bcd60e51b815260206004820152601f60248201527f43616e6e6f742068617665206d6f7265207468616e20313020626f64696573006044820152606490fd5b15612f6657565b606460405162461bcd60e51b815260206004820152602060248201527f50726f626c656d20616c7265616479206d696e74656420313020626f646965736044820152fd5b600a821015612fba570190600090565b634e487b7160e01b600052603260045260246000fd5b90604051612fdd816123b7565b610140600a82948054845260018101546020850152600281015460408501526003810154606085015260048101546080850152600581015460a0850152600681015460c0850152600781015460e0850152600881015461010085015260098101546101208501520154910152565b90610140600a91805184556020810151600185015560408101516002850155606081015160038501556080810151600485015560a0810151600585015560c0810151600685015560e08101516007850155610100810151600885015561012081015160098501550151910155565b908154680100000000000000008110156105f15760018101808455811015612fba576130f192600052600b602060002091020161304b565b565b906006549061310a60ff60009360a01c1615612a51565b828252600e6020526004604083200181835260205261312b60408320612fd0565b818151036133e157600954610100820180519092916001600160a01b031690813b156133dd578591608483926040519485938492633c43b50b60e01b84523360048501528a60248501528c604485015260648401525af18015610ad6576133a5575b507f6ad4359fe8e6d536b246aab3e16451ad6a5336cf0f7e9ec2fd6a544d5c5ba7649160c091868652600e602052610120600f60408820015492519101516040872054916040519389855260208501528660408501526060840152608083015260a0820152a1828252600e602052600460408320018183526020526002938460408420015491848452600e602052600160408520018054801561133f57600019019055848452600e602052604080852090519060050185825b600a821061338f5750505061325a816123d4565b610140604051613269816123d4565b369037835b6009811061335f575084610120820152858552600e602052600560408620019085905b600a82106133495750505060046040852001908452602052604083209160008355600060018401556000868401556000600a600394828682015582600482015582600582015582600682015582600782015582600882015582600982015501555b848452600e60205260016040852001548110156133415761333c90600460408620016133248260056040892001612faa565b905490861b1c86526020528087604087200155612a86565b6132f2565b509350505050565b6001602082829351865501930191019091613291565b600119811161133f5780613379600161338a93018461341c565b51613384828561341c565b52612a86565b61326e565b6001602081928554815201930191019091613246565b9160c091946133d47f6ad4359fe8e6d536b246aab3e16451ad6a5336cf0f7e9ec2fd6a544d5c5ba764946123a3565b9491509161318d565b8580fd5b60405162461bcd60e51b8152602060048201526013602482015272426f6479206e6f7420696e2070726f626c656d60681b6044820152606490fd5b90600a811015612fba5760051b0190565b6001168019600111612a95576000199060010180151581830460051116612a95576005026002198111612a9557600201806103e89204821181151516612a95570290565b6040519061347e826123b7565b816101406000918281528260208201528260408201528260608201528260808201528260a08201528260c08201528260e082015282610100820152826101208201520152565b6134cc613471565b506134d5613471565b90806101408301526134e68161342d565b9060014310612a955760409081516020810191825260001943014083820152828152613511816123f1565b5190209080516020810191838352602082528082019082821067ffffffffffffffff8311176105f15752620f4240918291519020069106606084015260808301526127108060a084015260c083015260e082015290565b1561356f57565b60405162461bcd60e51b815260206004820152601460248201527313db9b1e4814dbdb1d995c8818d85b8818d85b1b60621b6044820152606490fdfeb08889abce443443404b2caf69aa3ccfb9ebfdf1ad2a634d06e11e24c1067938a26469706673582212207573d1c4c91e578acc442841d07e8815a4a37ee1f5dd85a554df1b913e96c70d64736f6c634300080f0033",
  "linkReferences": {},
  "deployedLinkReferences": {}
}