{
  "_format": "hh-sol-artifact-1",
  "contractName": "Groth16Verifier",
  "sourceName": "contracts/Game_8_50Verifier.sol",
  "abi": [
    {
      "inputs": [
        {
          "internalType": "uint256[2]",
          "name": "_pA",
          "type": "uint256[2]"
        },
        {
          "internalType": "uint256[2][2]",
          "name": "_pB",
          "type": "uint256[2][2]"
        },
        {
          "internalType": "uint256[2]",
          "name": "_pC",
          "type": "uint256[2]"
        },
        {
          "internalType": "uint256[81]",
          "name": "_pubSignals",
          "type": "uint256[81]"
        }
      ],
      "name": "verifyProof",
      "outputs": [
        {
          "internalType": "bool",
          "name": "",
          "type": "bool"
        }
      ],
      "stateMutability": "view",
      "type": "function"
    }
  ],
  "bytecode": "0x6080806040523461001657613720908161001c8239f35b600080fdfe6080604052600436101561001257600080fd5b6000803560e01c63e235ad2a1461002857600080fd5b3461045457610b203660031901126104545761004336610457565b3660c4116104505761005436610469565b90610b2436811161044c5791610448916104436020959461040060405261007d61010435610477565b61008961012435610477565b61009561014435610477565b6100a161016435610477565b6100ad61018435610477565b6100b96101a435610477565b6100c56101c435610477565b6100d16101e435610477565b6100dd61020435610477565b6100e961022435610477565b6100f561024435610477565b61010161026435610477565b61010d61028435610477565b6101196102a435610477565b6101256102c435610477565b6101316102e435610477565b61013d61030435610477565b61014961032435610477565b61015561034435610477565b61016161036435610477565b61016d61038435610477565b6101796103a435610477565b6101856103c435610477565b6101916103e435610477565b61019d61040435610477565b6101a961042435610477565b6101b561044435610477565b6101c161046435610477565b6101cd61048435610477565b6101d96104a435610477565b6101e56104c435610477565b6101f16104e435610477565b6101fd61050435610477565b61020961052435610477565b61021561054435610477565b61022161056435610477565b61022d61058435610477565b6102396105a435610477565b6102456105c435610477565b6102516105e435610477565b61025d61060435610477565b61026961062435610477565b61027561064435610477565b61028161066435610477565b61028d61068435610477565b6102996106a435610477565b6102a56106c435610477565b6102b16106e435610477565b6102bd61070435610477565b6102c961072435610477565b6102d561074435610477565b6102e161076435610477565b6102ed61078435610477565b6102f96107a435610477565b6103056107c435610477565b6103116107e435610477565b61031d61080435610477565b61032961082435610477565b61033561084435610477565b61034161086435610477565b61034d61088435610477565b6103596108a435610477565b6103656108c435610477565b6103716108e435610477565b61037d61090435610477565b61038961092435610477565b61039561094435610477565b6103a161096435610477565b6103ad61098435610477565b6103b96109a435610477565b6103c56109c435610477565b6103d16109e435610477565b6103dd610a0435610477565b6103e9610a2435610477565b6103f5610a4435610477565b610401610a6435610477565b61040d610a8435610477565b610419610aa435610477565b610425610ac435610477565b610431610ae435610477565b61043d610b0435610477565b35610477565b61304e565b8152f35b8380fd5b5080fd5b80fd5b9060049160441161046457565b600080fd5b9060c4916101041161046457565b7f30644e72e131a029b85045b68181585d97816a916871ca8d3c208c16d87cfd4711156104a057565b6000805260206000f35b604051907f1421f573b0462c466fd849b7f982cd810ed372d05144e75516b5bb30cb99204582527f27143d36a72526ae66c57ae404a58c0da1819464a9b18bde23ce852524d8d34d6020830152604082019081526107cf196040836060816007855a01fa156104a05760409260066080939284938451905260a05160608401525a01fa156104a057565b604051907f256730e4f15ab43678604a2ae3d6df408916710272479d75948eb3ebc402b3f482527f152982e30e340f8695f66a5efffe4f58c37ea00291cd931e5fd67154035ff8b46020830152604082019081526107cf196040836060816007855a01fa156104a05760409260066080939284938451905260a05160608401525a01fa156104a057565b604051907f1d3983c597b54707b294cd38701ba6e51b6e8b75a55dfe8d3f1238f5133a5a0f82527f1356e2938df7f2a82ed0dbd76e17c908a79245cc67662805e23b6e8aedc218d36020830152604082019081526107cf196040836060816007855a01fa156104a05760409260066080939284938451905260a05160608401525a01fa156104a057565b604051907f112468be20c84decb15578c3a753a7956c17e5d3118e22f0c2dcd0fe72e52a1282527f1d7b6dcc4f71967c0a547fd2657c15ec7997a02bc4913ba8245f752c24de55856020830152604082019081526107cf196040836060816007855a01fa156104a05760409260066080939284938451905260a05160608401525a01fa156104a057565b604051907f0230478cb64c36b77f7ce2c4c3291b002f3cb4929665af653c098cc42acf6b1d82527f26b697740f986cdaa34d73a2499174d2497922c4df2684b5c82ca008b35f37896020830152604082019081526107cf196040836060816007855a01fa156104a05760409260066080939284938451905260a05160608401525a01fa156104a057565b604051907f02a04b4adcbe96e5003fe341f441799b13c1fc18930fdb6d1945ab2440b00faa82527f088d28d04acca0b1303def9abf198faeee18b380179ac3eab7ed80327b1ac42c6020830152604082019081526107cf196040836060816007855a01fa156104a05760409260066080939284938451905260a05160608401525a01fa156104a057565b604051907f2f7d50a309aff15a584ca42bc0e908b1db452d410d6996c0c79e133a6116f6d582527f124cdece1d6751a7dbc4bfb5ad63ad69e2b3e1cfb6b986f6a6085e47c0579f796020830152604082019081526107cf196040836060816007855a01fa156104a05760409260066080939284938451905260a05160608401525a01fa156104a057565b604051907f1e16048a7a4a3cd41c722bb646978252bc353cd4558679dec912bce0986962d782527f2b56b88c951bab450e522ee2805ca6dec505466c85cab58600be4146053379696020830152604082019081526107cf196040836060816007855a01fa156104a05760409260066080939284938451905260a05160608401525a01fa156104a057565b604051907f18180c8908dce38bda89b59b7d9342725ce5e9347b992ec625e4e11e6ed0137082527f2926c440fab44149fb74771fb2df77b4ec1b50b784299ef15c070297dc8c06056020830152604082019081526107cf196040836060816007855a01fa156104a05760409260066080939284938451905260a05160608401525a01fa156104a057565b604051907f03832e0ec1939c0633639a7d09b6ae372dbdea1882ca3763409cefb9b47c43d682527f0e210a21c0de94de7a77cb0034b3eb1a07b55a8de751076669535c3c36b3fef46020830152604082019081526107cf196040836060816007855a01fa156104a05760409260066080939284938451905260a05160608401525a01fa156104a057565b604051907f0ba4bc68b7e6b7caf7fdae75e929c8643bdfb2c91688d7b2f805769054ce4f1382527f0cc7f0a0db647b2d254ae1ed5d7e2bd8bd39258b0fc31320e97c8fed424bdf0c6020830152604082019081526107cf196040836060816007855a01fa156104a05760409260066080939284938451905260a05160608401525a01fa156104a057565b604051907f27315ad1105396e096ce5e3c2b243703f30c7a3d6e1fc9356c667b79b8f1905c82527f0d8efc217b7381c927681948790972a4e9d0bdcd8c69ba92aef508c9042f7bf96020830152604082019081526107cf196040836060816007855a01fa156104a05760409260066080939284938451905260a05160608401525a01fa156104a057565b604051907f10d178101e1cef96cc592ea32421836943d9831bf9c5c241aff44351ed23a11c82527f2fff8e2f8d34b1b18de8417bf61269584d79a688620e8e9f9824c51f583965676020830152604082019081526107cf196040836060816007855a01fa156104a05760409260066080939284938451905260a05160608401525a01fa156104a057565b604051907f2d5ca537838f19d3ba92b1b4528de65710f41b46ffe203d04df6942ceeb04c6a82527f04af27efcc4d556e1af0c7ef2c55b514f465fa61bc7bfb56759db51621cfc7656020830152604082019081526107cf196040836060816007855a01fa156104a05760409260066080939284938451905260a05160608401525a01fa156104a057565b604051907f1e3df2f521e9ff516a1cd2b6cfed08736c80473f3994530e35e03bad1589d45782527f10ef9b16c107b099d63a6483fd59918720f1c93838bc1d19529902a9b01aa6fb6020830152604082019081526107cf196040836060816007855a01fa156104a05760409260066080939284938451905260a05160608401525a01fa156104a057565b604051907f0c57f45f78b52dcfabba14778acf404351544ec4121ca48c83738df311ee52d082527f1c2eec76c00dca015cf85114cbedd7eb9ae239d8798510a2ccb391c95f48b4376020830152604082019081526107cf196040836060816007855a01fa156104a05760409260066080939284938451905260a05160608401525a01fa156104a057565b604051907f1a27a5626ac3a49ee880cab2523742971b0215cb429299905345a6f7906276ba82527f296fa4c56a00996fdae30cc92531131ea57fa0e90158d74547494c061ac3dd1e6020830152604082019081526107cf196040836060816007855a01fa156104a05760409260066080939284938451905260a05160608401525a01fa156104a057565b604051907f01e080760c8d1b51651c2dc8ee26faea7b48e2b62cb3c50bed97a884ed10788482527f265935f1eec5fe6848f949df4b5a061a88a89ac999a2db1934be7547095a325d6020830152604082019081526107cf196040836060816007855a01fa156104a05760409260066080939284938451905260a05160608401525a01fa156104a057565b604051907f164f02de913be672cd2c7d9f33d90669cc34d0e28ce43ee8b3c4b34277ea003582527f303f25671ef3d7764ff7ed4a671b4137871163c1e4b0680ce937a973453dfd786020830152604082019081526107cf196040836060816007855a01fa156104a05760409260066080939284938451905260a05160608401525a01fa156104a057565b604051907f2845b95615ebdc1091206ebe22e82f0148aa62478b4c087ca194337e080c4dbe82527f2220d38c4ff767d28404bbccff8d7699d3af42920a789cb6bf67a361851f71e86020830152604082019081526107cf196040836060816007855a01fa156104a05760409260066080939284938451905260a05160608401525a01fa156104a057565b604051907f0ffaef0668af726dbf26df7c5d26a1da404b4c22383d3b0f79a4de887891885a82527e986d235c7bd0d6fe220e803a9ac0343bdd64d14f65735b8110ffa6bb1838d36020830152604082019081526107cf196040836060816007855a01fa156104a05760409260066080939284938451905260a05160608401525a01fa156104a057565b604051907f066d2e7d723dd6881ea0d4cec2c07050a4ad0998f269d85d708b1f57f817e9ac82527f17d8597d4af76a577d2713029bd9a375926861640e15541fb293ec1b09dfabf66020830152604082019081526107cf196040836060816007855a01fa156104a05760409260066080939284938451905260a05160608401525a01fa156104a057565b604051907f232a9124c59033bb429b7fc43ea8bbf88868fee728f362c8a9a204673e62e1e682527f1db35a80ebbb12b9d10d167ff0c050adb69b4fbeb54894abda4b15748b7e98fa6020830152604082019081526107cf196040836060816007855a01fa156104a05760409260066080939284938451905260a05160608401525a01fa156104a057565b604051907f1d1aaa690a032f3a9600c1b773d6a264990cf9a7fee37940117940aa839e8d9582527f2138bd4e19030d78a26533740614a8de4d96817ddc2cc11aac1496fe47497e496020830152604082019081526107cf196040836060816007855a01fa156104a05760409260066080939284938451905260a05160608401525a01fa156104a057565b604051907f1a10e9b4db439ab2c8afabe39dad17bb5b874da39af7fe4dcf6a91e1ec8b90cb82527f04af5e5972eada8e2574889446b17a55633893856d899fc8f14cf6509ff8f8656020830152604082019081526107cf196040836060816007855a01fa156104a05760409260066080939284938451905260a05160608401525a01fa156104a057565b604051907f1cfe496e83c2b7ca76898508e7689a11a77e2412f6ba831cc31043e72ce6f05782527f0d6c380dd65e4f20bce1fdf987664851cd03d747749f6cc67a7aee6b60376e826020830152604082019081526107cf196040836060816007855a01fa156104a05760409260066080939284938451905260a05160608401525a01fa156104a057565b604051907f2819c3a8ea6415b134715b17cfc11395c748921f1860452e63e247a390d76c5b82527f1eeddc8020546757c23989a77ef4a679c79fd5bbd009934b4dfff7be630729766020830152604082019081526107cf196040836060816007855a01fa156104a05760409260066080939284938451905260a05160608401525a01fa156104a057565b604051907f044e3dd4a033c360a883a4be948a5fb7c6f9ab8ec901314c00289f44e500ab9e82527f21d2cccc9774fb5204639b869d790e31f741f14dc745e62646941d873f5423636020830152604082019081526107cf196040836060816007855a01fa156104a05760409260066080939284938451905260a05160608401525a01fa156104a057565b604051907f016190614fc35d761d41a670c1cb678719f4d85a36cb3a9504ef6b74fa36c6db82527f10d9dba2ec83228c87c6ef29621607c76beeaa7e7c025d7f317e245d968b62726020830152604082019081526107cf196040836060816007855a01fa156104a05760409260066080939284938451905260a05160608401525a01fa156104a057565b604051907f259844f44fbf0df8a0ae88f9770d85921b63526aa35e297e19639ba234e9fe1582527f1edde37be379b64748818bcdc2ef7d914f96c0193e924c9e6036d80ae50a76216020830152604082019081526107cf196040836060816007855a01fa156104a05760409260066080939284938451905260a05160608401525a01fa156104a057565b604051907f01367a98f00c3306be06142f2e81a3348aae72048a605e40a5b2b1f2bcfc554682527eb68d75a75d5eaf0e217b5b8a190284110e296330be7e676925f54483250e596020830152604082019081526107cf196040836060816007855a01fa156104a05760409260066080939284938451905260a05160608401525a01fa156104a057565b604051907f23a2bb60c426023e09d2db273c13e710b5bbc50d4a5065312d67df40d594bde882527f2d96f5f4a6ecc8e14094e38dc8135d9b69a3794a14691a9aacecf767ef7ca4076020830152604082019081526107cf196040836060816007855a01fa156104a05760409260066080939284938451905260a05160608401525a01fa156104a057565b604051907f0f5bbfc066dbd6ea76f083b8f788fc441f88ef93439ddc478b22ebc8d9993c4c82527f1eaa7872c3a96b7b6cee737773a0d5543e25715e1a0a66eaff9c5a84a096eea56020830152604082019081526107cf196040836060816007855a01fa156104a05760409260066080939284938451905260a05160608401525a01fa156104a057565b604051907f2a4f15ed36a8f6cd4cd2f55ee00783ac7a04493139e532cf6f56d514aca1a54382527f0ce144d47f7c5a98730a2017d5246f801d47a7735000ae4207e05c1de16430c06020830152604082019081526107cf196040836060816007855a01fa156104a05760409260066080939284938451905260a05160608401525a01fa156104a057565b604051907f10d27c206ba215140600e2adb53a5690f7e4e84290e28b7d9bb4a8dd4c123e6d82527f298783b5361b6a260ae895b1929a9745d887b31081909f46e6e637fdd52d57c66020830152604082019081526107cf196040836060816007855a01fa156104a05760409260066080939284938451905260a05160608401525a01fa156104a057565b604051907f266709f2aac360c6516bbbd6ea8917d0b979ed97f55047ef48d7a74ff640dbf182527f020f9fed0c998f122ed53eb4fd97960cbed49347884b36d1cc74efc23966f4786020830152604082019081526107cf196040836060816007855a01fa156104a05760409260066080939284938451905260a05160608401525a01fa156104a057565b604051907f02fb4276da774788b11f10da32092ae51f50ba7014d4393d15862ee2c9c9800a82527ea3587081540aed2d04ae81da35d1edd5ecd4df9313947a896a1c0f1eadd3026020830152604082019081526107cf196040836060816007855a01fa156104a05760409260066080939284938451905260a05160608401525a01fa156104a057565b604051907f113f7680e5b0a282547b03a0f205c9c07fc1c78d426e40edc03fe8f22433304182527f12ea4a983b9115eb10d6ec239415f1f179dce6b277783f9b06c2d4aabd9d8aa06020830152604082019081526107cf196040836060816007855a01fa156104a05760409260066080939284938451905260a05160608401525a01fa156104a057565b604051907f11ce530923dbef873dd38f9bde8dce8bfe75c656ecd69d5570458d713770c17682527f1a3300c0782bdb2e91ac37e1041e467976500dae3a5dac76e63a989a0785f50b6020830152604082019081526107cf196040836060816007855a01fa156104a05760409260066080939284938451905260a05160608401525a01fa156104a057565b604051907f08100030e4c1bfa7a31311de0c7fa3d7fa979be880a7e8cd90d7cc4cdd9c539a82527f20827f21c690d8751628eb6312cf2fdcb1c65f5bcde6e308d29621593daf73096020830152604082019081526107cf196040836060816007855a01fa156104a05760409260066080939284938451905260a05160608401525a01fa156104a057565b604051907f0c097b8fff8a3fd4cd66168ccec2a6f1d2e8a94d03499e65349c2aa48bab1dde82527f23bfd60f488dbb32e7a52761be3486a54b4aa71ac0883d2dd9aac71613b0ee2e6020830152604082019081526107cf196040836060816007855a01fa156104a05760409260066080939284938451905260a05160608401525a01fa156104a057565b604051907f295ecc962f7c4f09337e8099b3a8a6145f74f6af717cf98ceb170b8033be207d82527f11a70a50888204a9844f6fb30e7fdfcc1f012d89dfe0621ee780d1b7e09002576020830152604082019081526107cf196040836060816007855a01fa156104a05760409260066080939284938451905260a05160608401525a01fa156104a057565b604051907f203a7f669efd1b69128759bc57ecbdfc52efcb77cecd306d3c4553096a76fcaa82527f1891b709b153bd2daa5ab20f7fe1f59574d0b93ad022c04937d83eadd54d14ad6020830152604082019081526107cf196040836060816007855a01fa156104a05760409260066080939284938451905260a05160608401525a01fa156104a057565b604051907f14ba375b2fd11b536f6ca5d41d7ae2333cf506c7bf15c3d696f8ecc2068fca0a82527f16c558adabab840c0aa2dc1a0d1276b11e388259bc23e0155aa965b668e988566020830152604082019081526107cf196040836060816007855a01fa156104a05760409260066080939284938451905260a05160608401525a01fa156104a057565b604051907f2249a5b3a11f8cc8e499a9f29d98affb97e7e38b20c833a19c86afcef779127382527ec1b49b1f1c25054340d35ea19596694e7a96377c1c808cf43bd81da755d0e46020830152604082019081526107cf196040836060816007855a01fa156104a05760409260066080939284938451905260a05160608401525a01fa156104a057565b604051907f1cf97e3f8fec73b96d6c726f6d39b9fa9a8c070c4108e598308d02243548677982527f224f2eb06b4f9fea1c70b69f4afc2972bebb41d4dd1c586006f739e10515c37e6020830152604082019081526107cf196040836060816007855a01fa156104a05760409260066080939284938451905260a05160608401525a01fa156104a057565b604051907f264a91760cec31ddbea3a7bb61807ff33f7bb88d7c58d6e46ea7ac861faa9ebc82527f28276f34dd8110aa47a1ee697b592b0d340246c9276510e3fc6f3d8d610cad6a6020830152604082019081526107cf196040836060816007855a01fa156104a05760409260066080939284938451905260a05160608401525a01fa156104a057565b604051907f16b4b2bb15b8e37618410d5f990eb9406dfc00fc5d05f6cdbb90f6998c1d3ebb82527f052f3dcc4bfaedac30d3ff8193d25fbb13a57b292952a8ab17ade485d3772a616020830152604082019081526107cf196040836060816007855a01fa156104a05760409260066080939284938451905260a05160608401525a01fa156104a057565b604051907f2cd33626530a66298f9d3868a2e1d9c1a741c8d3ce352594f9b0ac863d02a97282527f29bf3ffc1e0b961ae59226e0ab4c378c39ee48d7612f28b7643abb7c58a31e0b6020830152604082019081526107cf196040836060816007855a01fa156104a05760409260066080939284938451905260a05160608401525a01fa156104a057565b604051907f1c47909169d8e5866c7877587513b1e722d494b4cd8ef2a76eec1df44707d53282527f25b161d604539c8e346cfbb4596fd343f444b6775e21c388ecaeb0044c5b0db46020830152604082019081526107cf196040836060816007855a01fa156104a05760409260066080939284938451905260a05160608401525a01fa156104a057565b604051907f2183334099a3b4867986dab491d474f4dd22e794c95ef2939c1c9a20603bf1f282527f03f2d34b5f9c45c82ace2e4da3d1921b610a79e5a93854c379facfda965d43b16020830152604082019081526107cf196040836060816007855a01fa156104a05760409260066080939284938451905260a05160608401525a01fa156104a057565b604051907f29261626384d704dda088004db80dbbee6c07d33aee06a354208a29eb664c6fc82527f115960a2cd60970a6cfc3b0da1b4c9198a6cd4ce216a180a9c27c16ca78566596020830152604082019081526107cf196040836060816007855a01fa156104a05760409260066080939284938451905260a05160608401525a01fa156104a057565b604051907f04d3da82f6ff7bce1ef47b5d38e1bf546d71c2c300f7faf63c4775e052d45d2882527f0f253ba547497f20bb84a8901d17a3a37e92a75c6151947e5250cbb724cbe5f06020830152604082019081526107cf196040836060816007855a01fa156104a05760409260066080939284938451905260a05160608401525a01fa156104a057565b604051907f1cb6d87cd5c3c3eadd8802be253657ab914ea6826e6207e4bdeb329c4cbe14ea82527f21ff79ae1369783ee3954246584d61e2c4b51983810397a05822f313c21da1106020830152604082019081526107cf196040836060816007855a01fa156104a05760409260066080939284938451905260a05160608401525a01fa156104a057565b604051907f1384249bc7d7e05e145720b04c499c0fd88301a54a6aab72c44dec7be5ae604282527f0de325638e3961b6d98b8101bc79f7427d4ec88c0b4fa10be10893047f5b3e076020830152604082019081526107cf196040836060816007855a01fa156104a05760409260066080939284938451905260a05160608401525a01fa156104a057565b604051907f2d84caaf541d823352871a2289eb8fd9ad1e300653dac0300d6f739854ec035982527f2c008143027a484344665126a0f9f309c6835630b53db0d09e58a199fbbb961f6020830152604082019081526107cf196040836060816007855a01fa156104a05760409260066080939284938451905260a05160608401525a01fa156104a057565b604051907edb1b6b6283d684ae266358adbe1d761442ff0f6443605ca70ad397d336f89982527f012bff3bef6713ab47b6d23260b56166f96b950674f551eefbccb455ae63e4e16020830152604082019081526107cf196040836060816007855a01fa156104a05760409260066080939284938451905260a05160608401525a01fa156104a057565b604051907f19c9b9fcf47e4ef25f8a6ec45fc6e6c7ecf75758ec60036ac102378b6dbf4d2f82527f03ef1558c2495a0f075456a9aaf14cdd2d2cb00658ea1b7e928cc1f44de3aa046020830152604082019081526107cf196040836060816007855a01fa156104a05760409260066080939284938451905260a05160608401525a01fa156104a057565b604051907f069171528b870d570e1fd1de4616fdbf1dbdfece6a01b70e3f4e87ed97039ccf82527f0358cf61569c26683c4dc40ff66ca078760818148e2c147741bf31ad66547d426020830152604082019081526107cf196040836060816007855a01fa156104a05760409260066080939284938451905260a05160608401525a01fa156104a057565b604051907f1b306748a1d45e6aee300e56c5113368ba0b8ebff16d98880f25dcbc799ba00c82527f2bc2eb1ccb7e17510237f544aa009ba6376ce7441be9137ca78287fe0409c3e76020830152604082019081526107cf196040836060816007855a01fa156104a05760409260066080939284938451905260a05160608401525a01fa156104a057565b604051907f034040b4ed95b0e5a16930afac03c4bfa8eca561bc2737b8fefc95d58265b5d082527f2f8d76a2a8e66eec018ecb48bdf7c8b709aecd9c1bf112bf723ac66e031a81606020830152604082019081526107cf196040836060816007855a01fa156104a05760409260066080939284938451905260a05160608401525a01fa156104a057565b604051907f177841f7b920db5e4dd3f661b594a72f347cf8ce2ac1cfd056c9ab3006ffa90382527f2a97ea03b43d8bcdab9b2dc377f68898cda90e2d2d3e23d67652eee4aa3a37bc6020830152604082019081526107cf196040836060816007855a01fa156104a05760409260066080939284938451905260a05160608401525a01fa156104a057565b604051907f10677f1f6bf4e6604ec943fcdc11bebc6fc81eb8ef5b03318ca2cfe410b1505782527f171aaa6004d920e5a10032428f9c52f9a0dfcb13eecc3325678c0f62bc0f924c6020830152604082019081526107cf196040836060816007855a01fa156104a05760409260066080939284938451905260a05160608401525a01fa156104a057565b604051907f1f311cb5c704dc491f137a104dc7639938ad5c1676cd820a9289496fd30b5e0482527f1f48d6d3d8aae5700bf94cc4b7b8405b9bbbc96f9d840e6911092b93310896ef6020830152604082019081526107cf196040836060816007855a01fa156104a05760409260066080939284938451905260a05160608401525a01fa156104a057565b604051907f26de048e12629a76e9a995fc5209e44af3893dacf3c7a9da009f850c1161a06e82527f22674201b9828df8bb83160f1499be5e61ba1075f888390271f0efec8c2807b56020830152604082019081526107cf196040836060816007855a01fa156104a05760409260066080939284938451905260a05160608401525a01fa156104a057565b604051907f1e78df641e8cb989577502238be4c74c242b662a4a571142f211b04ef49e323d82527f0fd7fd9dcf969976527ec8cb6f0d93c1cc8310c438b615eeaa6781b36588b4ad6020830152604082019081526107cf196040836060816007855a01fa156104a05760409260066080939284938451905260a05160608401525a01fa156104a057565b604051907f037fb1ba9c1483953ac237f46eb74fa939c7d501d19a8e2071b4bf7c507fbc4082527f0c5e285ed9a3721d4e79ba630cc0ba70166e5451315922d6ad4cb0c93b3ac0316020830152604082019081526107cf196040836060816007855a01fa156104a05760409260066080939284938451905260a05160608401525a01fa156104a057565b604051907f2367676179782f24a95a2a43fc525c26fd2bea736f0f60c0cc1d37983a6f9d1482527f0db05dea63a6f84c748676671df899fff6b35616b1f5dfab088678d2a77c8fe06020830152604082019081526107cf196040836060816007855a01fa156104a05760409260066080939284938451905260a05160608401525a01fa156104a057565b604051907f2fa759a26538beac1812a600e85736e01c4eeb3b54007a90057f1b90e1d1e4b382527f2ffb72655c9dedf7fbaae43679761e1c06ca8c3371529dc03596b579e044cc596020830152604082019081526107cf196040836060816007855a01fa156104a05760409260066080939284938451905260a05160608401525a01fa156104a057565b604051907f0d20cbb2d96089ecb332b74c0085dc62f8cfd82bf8d4980e010eb00517e4a9fd82527f06a01b70a3ef0fd09e68739d853034c475cd1300356a65f367363d092fdab1ac6020830152604082019081526107cf196040836060816007855a01fa156104a05760409260066080939284938451905260a05160608401525a01fa156104a057565b604051907f2cc664816f8435ca27f32a22ddcf8da62dc606513595cf8ea4932097fee2762482527f083c46a7c1373fea8d84f616d012d063b5d7491dfae11914b19069485bdd82766020830152604082019081526107cf196040836060816007855a01fa156104a05760409260066080939284938451905260a05160608401525a01fa156104a057565b604051907f2f385881fd977d171f609258583a0940a75701fafeb0bf5cd6e5f228a3375b1282527f1580256641c03fed94e69c24d70cedc1eb72f9f23205bce148966785af6852be6020830152604082019081526107cf196040836060816007855a01fa156104a05760409260066080939284938451905260a05160608401525a01fa156104a057565b604051907e40487fde7b2e377f419efe52a5965d5d927babf53aa740b5a48a55b6c7f0a582527f0e6136a5bcfdbff1f811d8ae31285ed58b7db3f2830fe76090e286da25c7c3ab6020830152604082019081526107cf196040836060816007855a01fa156104a05760409260066080939284938451905260a05160608401525a01fa156104a057565b604051907f11a9bfff8e525333570bac68983ec5f31dcab83ee4eae46d1be742305233780582527f18e0dc046abb3b42c7656a3d6cd197550cb321774b3d30877125183a59e3cf886020830152604082019081526107cf196040836060816007855a01fa156104a05760409260066080939284938451905260a05160608401525a01fa156104a057565b604051907f1c3300e8ce0bd3ab6f529331fc00c6505702f7e508f407390aacaf12097b21fc82527f17218e339219ccd37a7a9e4c731a3afdcc0d9a428f1c4838c4c91f80f815cc906020830152604082019081526107cf196040836060816007855a01fa156104a05760409260066080939284938451905260a05160608401525a01fa156104a057565b604051907f1464973671686ad8fe91bf9cc81a9a086ff1db4bcc9b1619cff9f3d9f1b84ca482527f048c96f3557f872155139b9df210fccd5656be29922560775682039bab62db396020830152604082019081526107cf196040836060816007855a01fa156104a05760409260066080939284938451905260a05160608401525a01fa156104a057565b604051907f2ee1649a2b7d2f8e1ab985001a0f72607f2c6d009a0f9559b3b39207e92701e882527f049b49df8edfdafdf5a83424324d1aa4d6830d697d943b8131f9748aa3d35b9c6020830152604082019081526107cf196040836060816007855a01fa156104a05760409260066080939284938451905260a05160608401525a01fa156104a057565b604051907f105771491bd4bf09fed0ba998a4725f68f42851def3f38e09d3c8e3c85c3e63f82527f284ee8cdefe6e1722e1ddbc4ec6ae585341a6a5692e0e631583ff08ba52b12646020830152604082019081526107cf196040836060816007855a01fa156104a05760409260066080939284938451905260a05160608401525a01fa156104a057565b604051907f261cab4cc869aa6aa0ec12c1f8f386bef12d064f02e82b445001f0e390d8233e82527f161407d202865a24b13e398a375c96181603d6646db03ee389abcec8e1a909d16020830152604082019081526107cf196040836060816007855a01fa156104a05760409260066080939284938451905260a05160608401525a01fa156104a057565b604051907f1ed2ca94b01445c6512a56c0c371133ae352f59470d36931ffd757265945c98182527f132717078a8c6d668120745b7ad92c5aac9e7d108d40f2c9ca8f8cb8d1506ce56020830152604082019081526107cf196040836060816007855a01fa156104a05760409260066080939284938451905260a05160608401525a01fa156104a057565b604051907f191314df01b761614e2d531ae1bfd86baf84f63756bce1f212e81f2905a2534382527f1362fe01385e6a21d0216aae06737a56d49159707742e07bb4182451f922e93e6020830152604082019081526107cf196040836060816007855a01fa156104a05760409260066080939284938451905260a05160608401525a01fa156104a057565b6020907f23bc38183881f3a98b2fc35b9b9bd5ec210f9455fea64a012e1433f49e4411e16080527f17963394b9c6ad7103ce70a198f95db16e6e4dcc1dc7cc65cf032729555d04cb60a0526130a5610104356104aa565b6130b161012435610534565b6130bd610144356105be565b6130c961016435610648565b6130d5610184356106d2565b6130e16101a43561075c565b6130ed6101c4356107e6565b6130f96101e435610870565b613105610204356108fa565b61311161022435610984565b61311d61024435610a0e565b61312961026435610a98565b61313561028435610b22565b6131416102a435610bac565b61314d6102c435610c36565b6131596102e435610cc0565b61316561030435610d4a565b61317161032435610dd4565b61317d61034435610e5e565b61318961036435610ee8565b61319561038435610f72565b6131a16103a435610ffb565b6131ad6103c435611085565b6131b96103e43561110f565b6131c561040435611199565b6131d161042435611223565b6131dd610444356112ad565b6131e961046435611337565b6131f5610484356113c1565b6132016104a43561144b565b61320d6104c4356114d5565b6132196104e43561155e565b613225610504356115e8565b61323161052435611672565b61323d610544356116fc565b61324961056435611786565b61325561058435611810565b6132616105a435611899565b61326d6105c435611923565b6132796105e4356119ad565b61328561060435611a37565b61329161062435611ac1565b61329d61064435611b4b565b6132a961066435611bd5565b6132b561068435611c5f565b6132c16106a435611ce8565b6132cd6106c435611d72565b6132d96106e435611dfc565b6132e561070435611e86565b6132f161072435611f10565b6132fd61074435611f9a565b61330961076435612024565b613315610784356120ae565b6133216107a435612138565b61332d6107c4356121c2565b6133396107e43561224c565b613345610804356122d6565b6133516108243561235f565b61335d610844356123e9565b61336961086435612473565b613375610884356124fd565b6133816108a435612587565b61338d6108c435612611565b6133996108e43561269b565b6133a561090435612725565b6133b1610924356127af565b6133bd61094435612839565b6133c9610964356128c3565b6133d56109843561294d565b6133e16109a4356129d7565b6133ed6109c435612a61565b6133f96109e435612aeb565b613405610a0435612b75565b613411610a2435612bfe565b61341d610a4435612c88565b613429610a6435612d12565b613435610a8435612d9c565b613441610aa435612e26565b61344d610ac435612eb0565b613459610ae435612f3a565b613465610b0435612fc4565b61010092818492358352837f30644e72e131a029b85045b68181585d97816a916871ca8d3c208c16d87cfd479101358103066101205260443561014052606435610160526084356101805260a4356101a0527f2d4d9aa7e302d9df41749d5507949d05dbea33fbb16c643b22f599a2be6df2e26101c0527f14bedd503c37ceb061d8ec60209fe345ce89830a19230301f076caff004d19266101e0527f0967032fcbf776d1afc985f88877f182d38480a653f2decaa9794cbc3bf3060c610200527f0e187847ad4c798374d0d6732bf501847dd68bc0e071241e0213bc7fc13db7ab610220527f304cfbd1e08a704a99f5e847d93f8c3caafddec46b7a0d379da69a4d112346a7610240527f1739c1b1a457a8c7313123d24d2f9192f896b7c63eea05a9d57f06547ad0cec8610260526080516102805260a0516102a0527f198e9393920d483a7260bfb731fb5d25f1aa493335a9e71297e485b7aef312c26102c0527f1800deef121f1e76426a00665e5c4479674322d4f75edadd46debd5cd992f6ed6102e05282610300917f090689d0585ff075ec9e99ad690c3395bc4b313370b38ef355acdadcd122975b83527f12c85ea5db8c6deb4aab71808dcb408fe3d1e7690c43d37b4ce6cc0166fa7daa610320528035610340520135610360527f064e0fa659bf16586238a7403029d3cf59ec5d3ea6fe2827aeb04b2fc0e57c1d610380527f106e51553fb6248efacb8e35be6ce825a016db86c616a73b1da4ce4af5a885b36103a0527f288505d220680266b5c5511abd0a339ba7d3f3d49dd047e99ba9b952efb0c2136103c0527f1ec1d14f1e9df9fb3f760b22bed19d33dac41c3a6c62ad4028b762e55cf287256103e0528160086107cf195a01fa9051169056fea2646970667358221220b0f3261d4de58d87a56623e006fcac497dceec23680e31736d50b801630694fb64736f6c634300080f0033",
  "linkReferences": {},
  "deployedLinkReferences": {}
}