{
  "_format": "hh-sol-artifact-1",
  "contractName": "ExternalMetadata",
  "sourceName": "contracts/ExternalMetadata.sol",
  "abi": [
    {
      "inputs": [],
      "stateMutability": "nonpayable",
      "type": "constructor"
    },
    {
      "anonymous": false,
      "inputs": [
        {
          "indexed": true,
          "internalType": "address",
          "name": "previousOwner",
          "type": "address"
        },
        {
          "indexed": true,
          "internalType": "address",
          "name": "newOwner",
          "type": "address"
        }
      ],
      "name": "OwnershipTransferred",
      "type": "event"
    },
    {
      "inputs": [],
      "name": "anybodyProblem",
      "outputs": [
        {
          "internalType": "address payable",
          "name": "",
          "type": "address"
        }
      ],
      "stateMutability": "view",
      "type": "function"
    },
    {
      "inputs": [
        {
          "internalType": "uint256",
          "name": "id",
          "type": "uint256"
        }
      ],
      "name": "exists",
      "outputs": [
        {
          "internalType": "bool",
          "name": "",
          "type": "bool"
        }
      ],
      "stateMutability": "view",
      "type": "function"
    },
    {
      "inputs": [
        {
          "internalType": "uint256",
          "name": "tokenId",
          "type": "uint256"
        }
      ],
      "name": "getHTML",
      "outputs": [
        {
          "internalType": "string",
          "name": "",
          "type": "string"
        }
      ],
      "stateMutability": "view",
      "type": "function"
    },
    {
      "inputs": [
        {
          "internalType": "uint256",
          "name": "tokenId",
          "type": "uint256"
        }
      ],
      "name": "getMetadata",
      "outputs": [
        {
          "internalType": "string",
          "name": "",
          "type": "string"
        }
      ],
      "stateMutability": "view",
      "type": "function"
    },
    {
      "inputs": [
        {
          "internalType": "uint256",
          "name": "tokenId",
          "type": "uint256"
        }
      ],
      "name": "getName",
      "outputs": [
        {
          "internalType": "string",
          "name": "",
          "type": "string"
        }
      ],
      "stateMutability": "pure",
      "type": "function"
    },
    {
      "inputs": [
        {
          "internalType": "uint256",
          "name": "tokenId",
          "type": "uint256"
        }
      ],
      "name": "getPath",
      "outputs": [
        {
          "internalType": "string",
          "name": "",
          "type": "string"
        }
      ],
      "stateMutability": "view",
      "type": "function"
    },
    {
      "inputs": [
        {
          "internalType": "uint256",
          "name": "tokenId",
          "type": "uint256"
        }
      ],
      "name": "getSVG",
      "outputs": [
        {
          "internalType": "string",
          "name": "",
          "type": "string"
        }
      ],
      "stateMutability": "view",
      "type": "function"
    },
    {
      "inputs": [],
      "name": "owner",
      "outputs": [
        {
          "internalType": "address",
          "name": "",
          "type": "address"
        }
      ],
      "stateMutability": "view",
      "type": "function"
    },
    {
      "inputs": [],
      "name": "renounceOwnership",
      "outputs": [],
      "stateMutability": "nonpayable",
      "type": "function"
    },
    {
      "inputs": [
        {
          "internalType": "bytes32",
          "name": "seed",
          "type": "bytes32"
        }
      ],
      "name": "seedToColor",
      "outputs": [
        {
          "internalType": "string",
          "name": "",
          "type": "string"
        }
      ],
      "stateMutability": "pure",
      "type": "function"
    },
    {
      "inputs": [],
      "name": "speedruns",
      "outputs": [
        {
          "internalType": "address payable",
          "name": "",
          "type": "address"
        }
      ],
      "stateMutability": "view",
      "type": "function"
    },
    {
      "inputs": [
        {
          "internalType": "address",
          "name": "newOwner",
          "type": "address"
        }
      ],
      "name": "transferOwnership",
      "outputs": [],
      "stateMutability": "nonpayable",
      "type": "function"
    },
    {
      "inputs": [
        {
          "internalType": "address payable",
          "name": "anybodyProblem_",
          "type": "address"
        }
      ],
      "name": "updateAnybodyProblemAddress",
      "outputs": [],
      "stateMutability": "nonpayable",
      "type": "function"
    },
    {
      "inputs": [
        {
          "internalType": "address payable",
          "name": "speedruns_",
          "type": "address"
        }
      ],
      "name": "updateSpeedrunsAddress",
      "outputs": [],
      "stateMutability": "nonpayable",
      "type": "function"
    }
  ],
  "bytecode": "0x6080806040523461005b5760008054336001600160a01b0319821681178355916001600160a01b03909116907f8be0079c531659141344cd1fd0a4f28419497f9722a3daafe3b4186f6b6457e09084a3611e4f90816100618239f35b600080fdfe60806040526004361015610013575b600080fd5b60003560e01c8063102581d21461012b57806319d4c3f9146101225780634f558e79146101195780635542437b146101105780636b8ff57414610107578063715018a6146100fe57806387b07780146100f55780638da5cb5b146100ec578063a574cea4146100e3578063be985ac9146100da578063e1765073146100d1578063e2ce81a5146100c8578063e82fedd7146100bf5763f2fde38b146100b757600080fd5b61000e6109ae565b5061000e61098e565b5061000e610946565b5061000e61092c565b5061000e610917565b5061000e610401565b5061000e6103d7565b5061000e6103ad565b5061000e61034b565b5061000e610331565b5061000e6102e9565b5061000e6102b5565b5061000e61028b565b5061000e6101a7565b602090600319011261000e5760043590565b918091926000905b82821061016657501161015f575050565b6000910152565b9150806020918301518186015201829161014e565b6040916020825261019b8151809281602086015260208686019101610146565b601f01601f1916010190565b503461000e5761028761022f6101c46101bf36610134565b611003565b61022a60466040518093753c68746d6c3e3c626f64793e3c696d67207372633d2760501b6020830152610201815180926020603686019101610146565b81016f139f1e17b137b23c9f1e17b43a36b61f60811b6036820152036026810184520182610b83565b610ecf565b61027b603660405180937519185d184e9d195e1d0bda1d1b5b0ed8985cd94d8d0b60521b602083015261026b8151809260208686019101610146565b8101036016810184520182610b83565b6040519182918261017b565b0390f35b503461000e57600036600319011261000e576001546040516001600160a01b039091168152602090f35b503461000e5760206102ce6102c936610134565b610bb2565b6040519015158152f35b6001600160a01b0381160361000e57565b503461000e57602036600319011261000e57600435610307816102d8565b61030f610a7b565b600280546001600160a01b0319166001600160a01b0392909216919091179055005b503461000e5761028761027b61034636610134565b610fbb565b503461000e576000806003193601126103aa57610366610a7b565b80546001600160a01b0319811682556040519082906001600160a01b03167f8be0079c531659141344cd1fd0a4f28419497f9722a3daafe3b4186f6b6457e08284a3f35b80fd5b503461000e57600036600319011261000e576002546040516001600160a01b039091168152602090f35b503461000e57600036600319011261000e576000546040516001600160a01b039091168152602090f35b503461000e5761041036610134565b61042161041c82610bb2565b610c40565b61042a81610fbb565b9061043481611003565b61043d82611003565b60015490939061046390610457906001600160a01b031681565b6001600160a01b031690565b60408051632b99bd5f60e21b815260048101869052909460a082602481865afa92831561090a575b6000918291839484966108c4575b508851635e964aa960e11b8152600481019290925260009082908180602481015b03915afa9081156108b7575b600091610896575b50516104d981610d67565b921561088b576104f06104ea611b82565b94611d6a565b946104fa90611ba2565b9261050490611ba2565b9061050e90611ba2565b9161051890611ba2565b8851605b60f81b6020820152958695919491602187017f7b2274726169745f74797065223a22736f6c766564222c2276616c7565223a008152601f0161055d91610c7d565b7f7d2c207b2274726169745f74797065223a2273656564222c2276616c7565223a8152601160f91b602082015260210161059691610c7d565b7f227d2c207b2274726169745f74797065223a22646179222c2276616c7565223a8152601160f91b60208201526021016105cf91610c7d565b7f227d2c207b2274726169745f74797065223a22626f6479436f756e74222c227681526630b63ab2911d1160c91b602082015260270161060e91610c7d565b7f227d2c207b2274726169745f74797065223a226c6576656c222c2276616c7565815262111d1160e91b602082015260230161064991610c7d565b7f227d2c207b2274726169745f74797065223a22616363756d756c61746976655481526d34b6b29116113b30b63ab2911d1160911b6020820152602e0161068f91610c7d565b62227d5d60e81b81526003010394601f199586810183526106b09083610b83565b8451683d913730b6b2911d1160b91b6020820152938493602985016106d491610c7d565b61088b60f21b81526002017f226465736372697074696f6e223a2022416e79626f64792050726f626c656d2081527f2868747470733a2f2f616e79626f64792e747269666c652e6c69666529222c006020820152603f01691134b6b0b3b2911d101160b11b8152600a0161074791610c7d565b61088b60f21b81526002016d1134b6b0b3b2afbab936111d101160911b8152600e0161077291610c7d565b61088b60f21b81526002017f22686f6d655f75726c223a202268747470733a2f2f616e79626f64792e747269815269199b194b9b1a5999488b60b21b6020820152602a017f2265787465726e616c5f75726c223a202268747470733a2f2f616e79626f647981526d0b9d1c9a599b194b9b1a5999488b60921b6020820152602e016d01130ba3a3934b13aba32b9911d160951b8152600e0161081391610c7d565b607d60f81b815260010103838101825261082d9082610b83565b61083690610ecf565b81517f646174613a6170706c69636174696f6e2f6a736f6e3b6261736536342c000000602082015292908390603d820161086f91610c7d565b03908101835261087f9083610b83565b5161028781928261017b565b6104f06104ea611b61565b6108b1913d8091833e6108a98183610b83565b8101906112a7565b386104ce565b6108bf610ba5565b6104c6565b9095506104ba94506108f29193506000925060a03d8111610903575b6108ea8183610b83565b8101906111d3565b979096929591945090925090610499565b503d6108e0565b610912610ba5565b61048b565b503461000e5761028761027b6101bf36610134565b503461000e5761028761027b61094136610134565b611457565b503461000e57602036600319011261000e57600435610964816102d8565b61096c610a7b565b600180546001600160a01b0319166001600160a01b0392909216919091179055005b503461000e57602036600319011261000e5761028761027b600435611a9d565b503461000e57602036600319011261000e576004356109cc816102d8565b6109d4610a7b565b6001600160a01b03908116908115610a2757600080546001600160a01b031981168417825560405191939192167f8be0079c531659141344cd1fd0a4f28419497f9722a3daafe3b4186f6b6457e08484a3f35b60405162461bcd60e51b815260206004820152602660248201527f4f776e61626c653a206e6577206f776e657220697320746865207a65726f206160448201526564647265737360d01b6064820152608490fd5b6000546001600160a01b03163303610a8f57565b606460405162461bcd60e51b815260206004820152602060248201527f4f776e61626c653a2063616c6c6572206973206e6f7420746865206f776e65726044820152fd5b50634e487b7160e01b600052604160045260246000fd5b60e0810190811067ffffffffffffffff821117610b0657604052565b610b0e610ad3565b604052565b60a0810190811067ffffffffffffffff821117610b0657604052565b6020810190811067ffffffffffffffff821117610b0657604052565b60c0810190811067ffffffffffffffff821117610b0657604052565b6040810190811067ffffffffffffffff821117610b0657604052565b90601f8019910116810190811067ffffffffffffffff821117610b0657604052565b506040513d6000823e3d90fd5b6002546040516331a9108f60e11b815260048101929092526001600160a01b0391906020908290602490829086165afa908115610c33575b600091610bf9575b5016151590565b906020823d8211610c2b575b81610c1260209383610b83565b810103126103aa575051610c25816102d8565b38610bf2565b3d9150610c05565b610c3b610ba5565b610bea565b15610c4757565b60405162461bcd60e51b815260206004820152600e60248201526d1113d154c81393d50811561254d560921b6044820152606490fd5b90610c9060209282815194859201610146565b0190565b60209067ffffffffffffffff8111610cb2575b601f01601f19160190565b610cba610ad3565b610ca7565b60405190610ccc82610b2f565b60008252565b604051906060820182811067ffffffffffffffff821117610d43575b604052604082527f6768696a6b6c6d6e6f707172737475767778797a303132333435363738392b2f6040837f4142434445464748494a4b4c4d4e4f505152535455565758595a61626364656660208201520152565b610d4b610ad3565b610cee565b50634e487b7160e01b600052601160045260246000fd5b6001906001198111610d77570190565b610c90610d50565b6002906002198111610d77570190565b6020906020198111610d77570190565b81198111610d77570190565b8115610db5570490565b634e487b7160e01b600052601260045260246000fd5b6001600160fe1b038111600116610de3575b60021b90565b610deb610d50565b610ddd565b806000190460041181151516610de35760021b90565b7f028f5c28f5c28f5c28f5c28f5c28f5c28f5c28f5c28f5c28f5c28f5c28f5c28f8111600116610e37575b60640290565b610e3f610d50565b610e31565b8060001904821181151516610e57570290565b610e5f610d50565b0290565b604051906080820182811067ffffffffffffffff821117610e90575b604052604282526060366020840137565b610e98610ad3565b610e7f565b90610ea782610c94565b610eb46040519182610b83565b8281528092610ec5601f1991610c94565b0190602036910137565b805115610faf57610ede610cd2565b610efa610ef5610eee8451610d7f565b6003900490565b610dcb565b91610f0c610f0784610d8f565b610e9d565b92835280815182019060208501935b828210610f5d57505050600390510680600114610f4c57600214610f3d575090565b603d60f81b6000199091015290565b50613d3d60f01b6001199091015290565b9091936004906003809401938451600190603f9082828260121c16880101518553828282600c1c16880101518386015382828260061c1688010151600286015316850101519082015301939190610f1b565b50610fb8610cbf565b90565b610fc490611ba2565b610fb8602960405180936850726f626c656d202360b81b6020830152610ff38151809260208686019101610146565b8101036009810184520182610b83565b610fb861111e6111856111ba9361101c61041c82610bb2565b61117161115861103461102e84611457565b93610fbb565b6111526040519687957f3c3f786d6c2076657273696f6e3d22312e302220656e636f64696e673d22757460208801527f662d38223f3e3c73766720786d6c6e733d22687474703a2f2f7777772e77332e60408801527f6f72672f323030302f7376672220206865696768743d2231303025222077696460608801527f74683d2231303025222076696577426f783d223020302031303030203130303060808801527f22207374796c653d226261636b67726f756e642d636f6c6f723a677265793b2260a08801526f1f1e39ba3cb6329f1e17b9ba3cb6329f60811b60c088015260d0870190610c7d565b7f3c7465787420783d2235302220793d223535302220636c6173733d226e616d65815261111f60f11b602082015260220190565b90610c7d565b6c1e17ba32bc3a1f1e17b9bb339f60991b8152600d0190565b039161022a601f1993848101835282610b83565b6040517f646174613a696d6167652f7376672b786d6c3b6261736536342c0000000000006020820152938491603a8301611152565b03908101835282610b83565b5190811515820361000e57565b908160a091031261000e5780516111e9816102d8565b916111f6602083016111c6565b916040810151916080606083015192015190565b9080601f8301121561000e5760409182519261122584610b4b565b839261054083019281841161000e57935b83851061124557505050505090565b60e08583031261000e57825160e09161125d82610aea565b8651825260209182880151838201528588015186820152606080890151908201526080808901519082015260a0808901519082015260c08089015190820152815201940193611236565b6020808284031261000e57815167ffffffffffffffff9283821161000e57019083601f8301121561000e5781519283116113be575b6040938451946112f1838660051b0187610b83565b84865282860191836106408097028601019481861161000e578401925b85841061131f575050505050505090565b868483031261000e57825161133381610b13565b61133c856111c6565b81528585015186820152838501518482015282607f8601121561000e57835161136481610b13565b8061010087019185831161000e578a94928994928792606090818c01905b8482106113a8575050840152611398919061120a565b608082015281520193019261130e565b815181528f99508d988b96509182019101611382565b6113c6610ad3565b6112dc565b9081602091031261000e575190565b91906105608382031261000e576113f4610540918461120a565b92015190565b6001906000198114610d77570190565b50634e487b7160e01b600052603260045260246000fd5b906006811015611433575b60051b0190565b61143b61140a565b61142c565b81811061144b570390565b611453610d50565b0390565b61145f610cbf565b60015490919061147990610457906001600160a01b031681565b60408051632b99bd5f60e21b815260048101849052919260a09291908383602481885afa928315611a90575b600093611a65575b508151635e964aa960e11b8152600481019190915260008180602481015b0381885afa908115611a58575b600091611a3f575b5051815190631da686ff60e31b825260209384836004818a5afa928315611a32575b600093611a03575b508351634dbe7f7360e01b81526004810191909152602481019190915294610560908190879060449082905afa9586156119f6575b60009182976119c2575b505094939291906000955b858710611565575050505050505090565b909192939495968285896115798186611421565b518981015161158790610df0565b61159085610e06565b61159991610d9f565b6115a38582610dab565b6115ac81611ba2565b956115b691610e44565b6115bf91611440565b6115c890611ba2565b9083810191888351906115da91610dab565b92516115e68a85610e44565b6115ef91611440565b926115f990611ba2565b9261160390611ba2565b928a5193849187830161161591610c7d565b601760f91b815260010161162891610c7d565b0395601f1996878101855261163d9085610b83565b8a8301928a84519061164e91610dab565b935161165a8c86610e44565b61166391611440565b9361166d90611ba2565b9361167790611ba2565b938c5194859189830161168991610c7d565b601760f91b815260010161169c91610c7d565b0388810185526116ac9085610b83565b80516116b790611ba2565b908c5196878981016116e2906012907103a3930b739b337b93696b7b934b3b4b71d160751b81520190565b6116ec9089610c7d565b620383c160ed1b81526003016117029088610c7d565b630383c1d960e51b8152600401038a8101895261171f9089610b83565b61172890611ba2565b9060c0015161173690611a9d565b968d519a8b998a0161174791610c7d565b7f3c7374796c653e20406b65796672616d6573206d6f7665456c6c6970736500008152601e016117779084610c7d565b670103d901812903d960c51b81526008016117929082610c7d565b7f207472616e73666f726d3a20726f74617465283064656729207472616e736c6181527f7465283070782c2031307078293b207d2031303025207b20000000000000000060208201526038016117e791610c7d565b7f207472616e73666f726d3a20726f746174652833363064656729207472616e738152736c617465283070782c2031307078293b207d207d60601b60208201526034016a656c6c697073652369642d60a81b8152600b016118489083610c7d565b7f207b20616e696d6174696f6e3a206d6f7665456c6c697073650000000000000081526019016118789083610c7d565b7f20347320696e66696e697465206c696e6561723b20616e696d6174696f6e2d64815266656c61793a202d60c81b60208201526027016118b791610c7d565b6b399d903e9e17b9ba3cb6329f60a11b8152600c016f3c656c6c697073652069643d2269642d60801b81526010016118ee91610c7d565b651110393c9e9160d11b81526006016119079082610c7d565b601760f91b815260010161191b9083610c7d565b651110393c1e9160d11b815260060161193391610c7d565b601760f91b815260010161194691610c7d565b65111031bc9e9160d11b815260060161195e91610c7d565b65111031bc1e9160d11b815260060161197691610c7d565b6711103334b6361e9160c11b815260080161199091610c7d565b631110179f60e11b81526004010390810182526119ad9082610b83565b966119b7906113fa565b959493929190611554565b6119e693975080919250903d106119ef575b6119de8183610b83565b8101906113da565b94903880611549565b503d6119d4565b6119fe610ba5565b61153f565b611a24919350853d8711611a2b575b611a1c8183610b83565b8101906113cb565b913861150a565b503d611a12565b611a3a610ba5565b611502565b611a52913d8091833e6108a98183610b83565b386114e0565b611a60610ba5565b6114d8565b6114cb919350611a83600091863d8811610903576108ea8183610b83565b93505050509391506114ad565b611a98610ba5565b6114a5565b610fb8602591611b46611b3861ffff611152611b2a611aef6028611ae8606482878b60201c16069683198811611b54575b611add610168828d1606611ba2565b9a60101c1606611ba2565b9401611ba2565b92604051988997630d0e6d8560e31b60208a0152611b1781518092602060248d019101610146565b8801600b60fa1b60248201520190610c7d565b61094b60f21b815260020190565b61252960f01b815260020190565b03601f198101835282610b83565b611b5c610d50565b611ace565b60405190611b6e82610b67565b600582526466616c736560d81b6020830152565b60405190611b8f82610b67565b60048252637472756560e01b6020830152565b806000917a184f03e93ff9f4daa797ed6e38ed64bf6a1f01000000000000000080821015611cd7575b506d04ee2d6d415b85acef810000000080831015611cc8575b50662386f26fc1000080831015611cb9575b506305f5e10080831015611caa575b5061271080831015611c9b575b506064821015611c8b575b600a80921015611c81575b600190816021611c39828701610e9d565b95860101905b611c4b575b5050505090565b600019019083906f181899199a1a9b1b9c1cb0b131b232b360811b8282061a835304918215611c7c57919082611c3f565b611c44565b9160010191611c28565b9190606460029104910191611c1d565b60049193920491019138611c12565b60089193920491019138611c05565b60109193920491019138611bf6565b60209193920491019138611be4565b604093508104915038611bcb565b906020918051821015611cf757010190565b611cff61140a565b010190565b8015611d12575b6000190190565b611d1a610d50565b611d0b565b15611d2657565b606460405162461bcd60e51b815260206004820152602060248201527f537472696e67733a20686578206c656e67746820696e73756666696369656e746044820152fd5b611d72610e63565b90815115611e0c575b603060208301538151600190811015611dff575b90607860218401536041915b808311611dae5750610fb8915015611d1f565b9080600f611deb92166010811015611df2575b6f181899199a1a9b1b9c1cb0b131b232b360811b901a611de18587611ce5565b5360041c92611d04565b9190611d9b565b611dfa61140a565b611dc1565b611e0761140a565b611d8f565b611e1461140a565b611d7b56fea26469706673582212208136df11b21fc6be482a740836835a3ffcfdd367d020cff09bec6b1f9592349764736f6c634300080f0033",
  "linkReferences": {},
  "deployedLinkReferences": {}
}