{
  "_format": "hh-sol-artifact-1",
  "contractName": "Speedruns",
  "sourceName": "contracts/Speedruns.sol",
  "abi": [
    {
      "inputs": [],
      "stateMutability": "nonpayable",
      "type": "constructor"
    },
    {
      "anonymous": false,
      "inputs": [
        {
          "indexed": true,
          "internalType": "address",
          "name": "owner",
          "type": "address"
        },
        {
          "indexed": true,
          "internalType": "address",
          "name": "approved",
          "type": "address"
        },
        {
          "indexed": true,
          "internalType": "uint256",
          "name": "tokenId",
          "type": "uint256"
        }
      ],
      "name": "Approval",
      "type": "event"
    },
    {
      "anonymous": false,
      "inputs": [
        {
          "indexed": true,
          "internalType": "address",
          "name": "owner",
          "type": "address"
        },
        {
          "indexed": true,
          "internalType": "address",
          "name": "operator",
          "type": "address"
        },
        {
          "indexed": false,
          "internalType": "bool",
          "name": "approved",
          "type": "bool"
        }
      ],
      "name": "ApprovalForAll",
      "type": "event"
    },
    {
      "anonymous": false,
      "inputs": [
        {
          "indexed": true,
          "internalType": "address",
          "name": "previousOwner",
          "type": "address"
        },
        {
          "indexed": true,
          "internalType": "address",
          "name": "newOwner",
          "type": "address"
        }
      ],
      "name": "OwnershipTransferred",
      "type": "event"
    },
    {
      "anonymous": false,
      "inputs": [
        {
          "indexed": true,
          "internalType": "address",
          "name": "from",
          "type": "address"
        },
        {
          "indexed": true,
          "internalType": "address",
          "name": "to",
          "type": "address"
        },
        {
          "indexed": true,
          "internalType": "uint256",
          "name": "tokenId",
          "type": "uint256"
        }
      ],
      "name": "Transfer",
      "type": "event"
    },
    {
      "stateMutability": "nonpayable",
      "type": "fallback"
    },
    {
      "inputs": [
        {
          "internalType": "address",
          "name": "to",
          "type": "address"
        },
        {
          "internalType": "uint256",
          "name": "tokenId",
          "type": "uint256"
        }
      ],
      "name": "__approve",
      "outputs": [],
      "stateMutability": "nonpayable",
      "type": "function"
    },
    {
      "inputs": [
        {
          "internalType": "uint256",
          "name": "tokenId",
          "type": "uint256"
        }
      ],
      "name": "__burn",
      "outputs": [],
      "stateMutability": "nonpayable",
      "type": "function"
    },
    {
      "inputs": [
        {
          "internalType": "uint256",
          "name": "tokenId",
          "type": "uint256"
        },
        {
          "internalType": "address",
          "name": "to",
          "type": "address"
        }
      ],
      "name": "__mint",
      "outputs": [],
      "stateMutability": "nonpayable",
      "type": "function"
    },
    {
      "inputs": [
        {
          "internalType": "address",
          "name": "from",
          "type": "address"
        },
        {
          "internalType": "address",
          "name": "to",
          "type": "address"
        },
        {
          "internalType": "uint256",
          "name": "tokenId",
          "type": "uint256"
        }
      ],
      "name": "__transfer",
      "outputs": [],
      "stateMutability": "nonpayable",
      "type": "function"
    },
    {
      "inputs": [
        {
          "internalType": "address",
          "name": "to",
          "type": "address"
        },
        {
          "internalType": "uint256",
          "name": "tokenId",
          "type": "uint256"
        }
      ],
      "name": "approve",
      "outputs": [],
      "stateMutability": "nonpayable",
      "type": "function"
    },
    {
      "inputs": [
        {
          "internalType": "address",
          "name": "owner",
          "type": "address"
        }
      ],
      "name": "balanceOf",
      "outputs": [
        {
          "internalType": "uint256",
          "name": "",
          "type": "uint256"
        }
      ],
      "stateMutability": "view",
      "type": "function"
    },
    {
      "inputs": [
        {
          "internalType": "bytes32[]",
          "name": "topics",
          "type": "bytes32[]"
        },
        {
          "internalType": "bytes",
          "name": "logData",
          "type": "bytes"
        }
      ],
      "name": "emitGenericEvent",
      "outputs": [],
      "stateMutability": "nonpayable",
      "type": "function"
    },
    {
      "inputs": [
        {
          "internalType": "uint256",
          "name": "tokenId",
          "type": "uint256"
        }
      ],
      "name": "getApproved",
      "outputs": [
        {
          "internalType": "address",
          "name": "",
          "type": "address"
        }
      ],
      "stateMutability": "view",
      "type": "function"
    },
    {
      "inputs": [
        {
          "internalType": "address",
          "name": "owner",
          "type": "address"
        },
        {
          "internalType": "address",
          "name": "operator",
          "type": "address"
        }
      ],
      "name": "isApprovedForAll",
      "outputs": [
        {
          "internalType": "bool",
          "name": "",
          "type": "bool"
        }
      ],
      "stateMutability": "view",
      "type": "function"
    },
    {
      "inputs": [],
      "name": "name",
      "outputs": [
        {
          "internalType": "string",
          "name": "",
          "type": "string"
        }
      ],
      "stateMutability": "view",
      "type": "function"
    },
    {
      "inputs": [],
      "name": "owner",
      "outputs": [
        {
          "internalType": "address",
          "name": "",
          "type": "address"
        }
      ],
      "stateMutability": "view",
      "type": "function"
    },
    {
      "inputs": [
        {
          "internalType": "uint256",
          "name": "tokenId",
          "type": "uint256"
        }
      ],
      "name": "ownerOf",
      "outputs": [
        {
          "internalType": "address",
          "name": "",
          "type": "address"
        }
      ],
      "stateMutability": "view",
      "type": "function"
    },
    {
      "inputs": [],
      "name": "renounceOwnership",
      "outputs": [],
      "stateMutability": "nonpayable",
      "type": "function"
    },
    {
      "inputs": [
        {
          "internalType": "address",
          "name": "from",
          "type": "address"
        },
        {
          "internalType": "address",
          "name": "to",
          "type": "address"
        },
        {
          "internalType": "uint256",
          "name": "tokenId",
          "type": "uint256"
        }
      ],
      "name": "safeTransferFrom",
      "outputs": [],
      "stateMutability": "nonpayable",
      "type": "function"
    },
    {
      "inputs": [
        {
          "internalType": "address",
          "name": "from",
          "type": "address"
        },
        {
          "internalType": "address",
          "name": "to",
          "type": "address"
        },
        {
          "internalType": "uint256",
          "name": "tokenId",
          "type": "uint256"
        },
        {
          "internalType": "bytes",
          "name": "_data",
          "type": "bytes"
        }
      ],
      "name": "safeTransferFrom",
      "outputs": [],
      "stateMutability": "nonpayable",
      "type": "function"
    },
    {
      "inputs": [
        {
          "internalType": "address",
          "name": "operator",
          "type": "address"
        },
        {
          "internalType": "bool",
          "name": "approved",
          "type": "bool"
        }
      ],
      "name": "setApprovalForAll",
      "outputs": [],
      "stateMutability": "nonpayable",
      "type": "function"
    },
    {
      "inputs": [
        {
          "internalType": "bytes4",
          "name": "interfaceId",
          "type": "bytes4"
        }
      ],
      "name": "supportsInterface",
      "outputs": [
        {
          "internalType": "bool",
          "name": "",
          "type": "bool"
        }
      ],
      "stateMutability": "view",
      "type": "function"
    },
    {
      "inputs": [],
      "name": "symbol",
      "outputs": [
        {
          "internalType": "string",
          "name": "",
          "type": "string"
        }
      ],
      "stateMutability": "view",
      "type": "function"
    },
    {
      "inputs": [
        {
          "internalType": "uint256",
          "name": "tokenId",
          "type": "uint256"
        }
      ],
      "name": "tokenURI",
      "outputs": [
        {
          "internalType": "string",
          "name": "",
          "type": "string"
        }
      ],
      "stateMutability": "view",
      "type": "function"
    },
    {
      "inputs": [
        {
          "internalType": "address",
          "name": "from",
          "type": "address"
        },
        {
          "internalType": "address",
          "name": "to",
          "type": "address"
        },
        {
          "internalType": "uint256",
          "name": "tokenId",
          "type": "uint256"
        }
      ],
      "name": "transferFrom",
      "outputs": [],
      "stateMutability": "nonpayable",
      "type": "function"
    },
    {
      "inputs": [
        {
          "internalType": "address",
          "name": "newOwner",
          "type": "address"
        }
      ],
      "name": "transferOwnership",
      "outputs": [],
      "stateMutability": "nonpayable",
      "type": "function"
    },
    {
      "inputs": [
        {
          "internalType": "address payable",
          "name": "anybodyProblem_",
          "type": "address"
        }
      ],
      "name": "updateAnybodyProblemAddress",
      "outputs": [],
      "stateMutability": "nonpayable",
      "type": "function"
    },
    {
      "stateMutability": "payable",
      "type": "receive"
    }
  ],
  "bytecode": "0x608034620004645760406001600160401b03828201818111848210176200044e5782526019835260207f416e79626f64792050726f626c656d20537065656472756e730000000000000081850152825193838501858110848211176200044e5784526003928386526241505360e81b8387015281518181116200044e576000968754916001948584811c9416801562000443575b878510146200042f578190601f94858111620003dc575b50879085831160011462000379578b926200036d575b505060001982891b1c191690851b1788555b8051928311620003595783548481811c911680156200034e575b868210146200033a5790818385949311620002e5575b50859183116001146200028257889262000276575b505060001982861b1c191690821b1781555b60068054336001600160a01b031980831682179093558651929592916001600160a01b03167f8be0079c531659141344cd1fd0a4f28419497f9722a3daafe3b4186f6b6457e08984a330156200023657506000805260026020819052600080516020620020b0833981519152549093929190620001b3906001600160a01b031615155b1562000469565b600080526002602052600080516020620020b083398151915254620001e3906001600160a01b03161515620001ac565b308752825284862090815401905584805252818320903090825416179055519030817fddf252ad1be2c89b69c2b068fc378daa952ba7f163c4a11628f55a4df523b3ef8185a4611bf99081620004b78239f35b6064908462461bcd60e51b825280600483015260248201527f4552433732313a206d696e7420746f20746865207a65726f20616464726573736044820152fd5b01519050388062000117565b8489528589208594509190601f1984168a5b88828210620002ce5750508411620002b5575b505050811b01815562000129565b015160001983881b60f8161c19169055388080620002a7565b838501518655889790950194938401930162000294565b909192508489528589208380860160051c82019288871062000330575b91869588929594930160051c01915b8281106200032157505062000102565b8b815586955087910162000311565b9250819262000302565b634e487b7160e01b89526022600452602489fd5b90607f1690620000ec565b634e487b7160e01b88526041600452602488fd5b015190503880620000c0565b8b8052888c208894509190601f1984168d5b8b828210620003c55750508411620003ac575b505050811b018855620000d2565b0151600019838b1b60f8161c191690553880806200039e565b8385015186558b979095019493840193016200038b565b9091508a8052878b208580850160051c8201928a861062000425575b918991869594930160051c01915b82811062000416575050620000aa565b8d815585945089910162000406565b92508192620003f8565b634e487b7160e01b8a52602260045260248afd5b93607f169362000093565b634e487b7160e01b600052604160045260246000fd5b600080fd5b156200047157565b60405162461bcd60e51b815260206004820152601c60248201527f4552433732313a20746f6b656e20616c7265616479206d696e746564000000006044820152606490fdfe60806040526004361015610030575b3615610028573461002357610021610f4d565b005b600080fd5b610021610f23565b60003560e01c806301ffc9a7146101e857806306fdde03146101df578063081812fc146101d6578063095ea7b3146101cd57806323b872dd146101c4578063338bc15e146101bb57806342842e0e146101b25780636352211e146101a957806370a08231146101a0578063715018a6146101975780638da5cb5b1461018e57806395d89b411461018557806397478f1d1461017c578063a22cb46514610173578063b46f00711461016a578063b88d4fde14610161578063c87b56dd14610158578063d1a015201461014f578063d1e3134614610146578063e2ce81a51461013d578063e985e9c5146101345763f2fde38b0361000e5761012f610a74565b61000e565b5061012f610a3f565b5061012f6109f7565b5061012f6109ca565b5061012f6108fb565b5061012f6108db565b5061012f610849565b5061012f6106f5565b5061012f610694565b5061012f61053c565b5061012f61051f565b5061012f6104f5565b5061012f610490565b5061012f6103ea565b5061012f6103cb565b5061012f6103b3565b5061012f610374565b5061012f61035c565b5061012f610306565b5061012f6102c4565b5061012f61028f565b5061012f610203565b6001600160e01b031981160361002357565b503461002357602036600319011261002357602061022b600435610226816101f1565b61108c565b6040519015158152f35b918091926000905b82821061025557501161024e575050565b6000910152565b9150806020918301518186015201829161023d565b9060209161028381518092818552858086019101610235565b601f01601f1916010190565b5034610023576000366003190112610023576102c06102ac61112c565b60405191829160208352602083019061026a565b0390f35b50346100235760203660031901126100235760206102e360043561139a565b6040516001600160a01b039091168152f35b6001600160a01b0381160361002357565b503461002357604036600319011261002357610021600435610327816102f5565b602435906114d8565b606090600319011261002357600435610348816102f5565b90602435610355816102f5565b9060443590565b50346100235761002161036e36610330565b91611740565b503461002357604036600319011261002357610021600435610395816102f5565b6103aa60018060a01b03600754163314610c13565b60243590610e41565b5034610023576100216103c536610330565b9161187f565b50346100235760203660031901126100235760206102e3600435610bed565b503461002357602036600319011261002357600435610408816102f5565b6001600160a01b031680156104395760005260036020526102c0604060002054604051918291829190602083019252565b60405162461bcd60e51b815260206004820152602960248201527f4552433732313a2061646472657373207a65726f206973206e6f7420612076616044820152683634b21037bbb732b960b91b6064820152608490fd5b5034610023576000806003193601126104f2576104ab610b49565b600680546001600160a01b031981169091556040519082906001600160a01b03167f8be0079c531659141344cd1fd0a4f28419497f9722a3daafe3b4186f6b6457e08284a3f35b80fd5b5034610023576000366003190112610023576006546040516001600160a01b039091168152602090f35b5034610023576000366003190112610023576102c06102ac61127d565b50346100235760403660031901126100235760243560043561055d826102f5565b6007546001600160a01b03906105769082163314610c13565b821690811561064657600081815260026020526040812054909361061b916105a7906001600160a01b031615610c5f565b6000838152600260205260409020546105c9906001600160a01b031615610c5f565b6001600160a01b0381166000908152600360205260409020600181540190556105fc836000526002602052604060002090565b80546001600160a01b0319166001600160a01b03909216919091179055565b60405191837fddf252ad1be2c89b69c2b068fc378daa952ba7f163c4a11628f55a4df523b3ef8185a4f35b606460405162461bcd60e51b815260206004820152602060248201527f4552433732313a206d696e7420746f20746865207a65726f20616464726573736044820152fd5b8015150361002357565b5034610023576040366003190112610023576100216004356106b5816102f5565b602435906106c28261068a565b611628565b9181601f840112156100235782359167ffffffffffffffff8311610023576020838186019501011161002357565b50346100235760403660031901126100235760043567ffffffffffffffff808211610023573660238301121561002357816004013591818311610023573660248460051b8301011161002357602435918211610023576100219261075f60249336906004016106c7565b93909201611aef565b50634e487b7160e01b600052604160045260246000fd5b6060810190811067ffffffffffffffff82111761079b57604052565b6107a3610768565b604052565b6020810190811067ffffffffffffffff82111761079b57604052565b6040810190811067ffffffffffffffff82111761079b57604052565b6080810190811067ffffffffffffffff82111761079b57604052565b90601f8019910116810190811067ffffffffffffffff82111761079b57604052565b60209067ffffffffffffffff811161083c575b601f01601f19160190565b610844610768565b610831565b503461002357608036600319011261002357600435610867816102f5565b602435610873816102f5565b6064359167ffffffffffffffff83116100235736602384011215610023578260040135916108a08361081e565b926108ae60405194856107fc565b80845236602482870101116100235760208160009260246100219801838801378501015260443591611930565b5034610023576020366003190112610023576102c06102ac600435610fd8565b5034610023576020366003190112610023576007546001600160a01b03906004359061092a9083163314610c13565b61093381610bed565b5061093d81610bed565b916000928284526004602052604084206bffffffffffffffffffffffff60a01b81541690551690818352600360205260408320600019815401905561099f61098f826000526002602052604060002090565b80546001600160a01b0319169055565b82604051927fddf252ad1be2c89b69c2b068fc378daa952ba7f163c4a11628f55a4df523b3ef8285a4f35b5034610023576100216109dc36610330565b916109f260018060a01b03600754163314610c13565b610d05565b503461002357602036600319011261002357600435610a15816102f5565b610a1d610b49565b600780546001600160a01b0319166001600160a01b0392909216919091179055005b503461002357604036600319011261002357602061022b600435610a62816102f5565b60243590610a6f826102f5565b61143e565b503461002357602036600319011261002357600435610a92816102f5565b610a9a610b49565b6001600160a01b03908116908115610af55760009160065491816bffffffffffffffffffffffff60a01b84161760065560405192167f8be0079c531659141344cd1fd0a4f28419497f9722a3daafe3b4186f6b6457e08484a3f35b60405162461bcd60e51b815260206004820152602660248201527f4f776e61626c653a206e6577206f776e657220697320746865207a65726f206160448201526564647265737360d01b6064820152608490fd5b6006546001600160a01b03163303610b5d57565b606460405162461bcd60e51b815260206004820152602060248201527f4f776e61626c653a2063616c6c6572206973206e6f7420746865206f776e65726044820152fd5b15610ba857565b60405162461bcd60e51b815260206004820152601860248201527f4552433732313a20696e76616c696420746f6b656e20494400000000000000006044820152606490fd5b6000908152600260205260409020546001600160a01b0316610c10811515610ba1565b90565b15610c1a57565b60405162461bcd60e51b815260206004820152601d60248201527f4f6e6c7920416e79626f64792050726f626c656d2063616e2063616c6c0000006044820152606490fd5b15610c6657565b60405162461bcd60e51b815260206004820152601c60248201527f4552433732313a20746f6b656e20616c7265616479206d696e746564000000006044820152606490fd5b15610cb257565b60405162461bcd60e51b815260206004820152602560248201527f4552433732313a207472616e736665722066726f6d20696e636f72726563742060448201526437bbb732b960d91b6064820152608490fd5b610d2990610d1284610bed565b6001600160a01b0382811693909182168414610cab565b8316928315610df057610d8c610dc792610d5b85610d55610d498a610bed565b6001600160a01b031690565b14610cab565b610d7261098f886000526004602052604060002090565b6001600160a01b0316600090815260036020526040902090565b80546000190190556001600160a01b0381166000908152600360205260409020600181540190556105fc856000526002602052604060002090565b7fddf252ad1be2c89b69c2b068fc378daa952ba7f163c4a11628f55a4df523b3ef6000604051a4565b60405162461bcd60e51b8152602060048201526024808201527f4552433732313a207472616e7366657220746f20746865207a65726f206164646044820152637265737360e01b6064820152608490fd5b600082815260046020526040902080546001600160a01b0319166001600160a01b0383161790556001600160a01b0380610e7a84610bed565b169116907f8c5be1e5ebec7d5bd14f71427d1e84f3dd0314c0f7b2291e5b200ac8c7c3b9256000604051a4565b3d15610ed2573d90610eb88261081e565b91610ec660405193846107fc565b82523d6000602084013e565b606090565b15610ede57565b60405162461bcd60e51b815260206004820152601d60248201527f43616c6c20746f20616e79626f647950726f626c656d206661696c65640000006044820152606490fd5b610f4b6000808060018060a01b03600754166040519034905af1610f45610ea7565b50610ed7565b565b610f4b60008060018060a01b036007541660405136838237828136810182815203925af1610f45610ea7565b6020818303126100235780519067ffffffffffffffff8211610023570181601f82011215610023578051610fac8161081e565b92610fba60405194856107fc565b8184526020828401011161002357610c109160208085019101610235565b60008060018060a01b03600754166040516020810190631649ecf760e31b82528560248201526024815261100b8161077f565b51915afa611017610ea7565b901561103157610c10915060208082518301019101610f79565b50600090815260026020526040902054611055906001600160a01b03161515610ba1565b6000604051611063816107a8565b52604051611070816107a8565b6000815290565b908160209103126100235751610c108161068a565b60008060018060a01b0360075416604051936020850190637b7de1cd60e11b825263ffffffff60e01b1694856024820152602481526110ca8161077f565b51915afa6110d6610ea7565b90156110f057610c10915060208082518301019101611077565b506380ac58cd60e01b811490811561111b575b811561110d575090565b6301ffc9a760e01b14919050565b635b5e139f60e01b81149150611103565b6007546040516341b05ccf60e01b6020808301918252600483526001600160a01b0390931693929161115d816107c4565b6000948592839251915afa90611171610ea7565b911561118a57610c109293508082518301019101610f79565b90506040519083845460019281841c93808316928315611273575b828610841461125f57978697986111c28789989960209181520190565b9490811561123e57506001146111e3575b50505050610c10925003826107fc565b600080527f290decd9548b62a8d60345a988386fc84ba6bc95484008f6362f93160ef3e5639690945091905b82851061122857505050610c10935001388080806111d3565b865485850152958601958795509381019361120f565b9350505050610c109491925060ff19168252151560051b01388080806111d3565b634e487b7160e01b89526022600452602489fd5b94607f16946111a5565b60075460405163523e8c0d60e11b6020808301918252600483526001600160a01b039093169392916112ae816107c4565b6000948592839251915afa906112c2610ea7565b91156112db57610c109293508082518301019101610f79565b9050604051908360019182549081841c93808316928315611390575b828610841461125f57978697986113148789989960209181520190565b9490811561123e57506001146113345750505050610c10925003826107fc565b60016000527fb10e2d527612073b26eecdfd717e6a320cf44b4afac2b0732d9fcbe2b7fa0cf69690945091905b82851061137a57505050610c10935001388080806111d3565b8654858501529586019587955093810193611361565b94607f16946112f7565b60075460405163ce7a48a360e01b60208201908152602480830185905282526001600160a01b0393928416916113cf8161077f565b6000928392839251915afa916113e3610ea7565b921561140957506020828051810103126104f2575060200151611405816102f5565b1690565b6000818152600260205260409081902054909350611431906001600160a01b03161515610ba1565b8152600460205220541690565b9060008060018060a01b0393846007541690604051866020820192630bd1274f60e31b84521696876024830152861660448201526044815261147f816107e0565b51915afa9061148c610ea7565b91156114a75750610c10915060208082518301019101611077565b6114d3915060ff92600052600560205260406000209060018060a01b0316600052602052604060002090565b541690565b9060018060a01b0380600754166000806040519260208401637e4de84360e01b8152828689169586602482015288604482015260448152611518816107e0565b51925af1611524610ea7565b50156115305750505050565b61153983610bed565b9182168091146115d95733149081156115c7575b501561155c57610f4b91610e41565b60405162461bcd60e51b815260206004820152603d60248201527f4552433732313a20617070726f76652063616c6c6572206973206e6f7420746f60448201527f6b656e206f776e6572206f7220617070726f76656420666f7220616c6c0000006064820152608490fd5b6115d39150339061143e565b3861154d565b60405162461bcd60e51b815260206004820152602160248201527f4552433732313a20617070726f76616c20746f2063757272656e74206f776e656044820152603960f91b6064820152608490fd5b9060018060a01b039182600754169060008060405193602085019663ceab69ff60e01b885284169687602487015282871515968760448201526044815261166e816107e0565b51925af161167a610ea7565b50156116865750505050565b8333146116fb573360009081526005602090815260408083206001600160a01b039094168352929052209060ff801983541691161790557f17307eab39ab6107e8899845ad3d59bd9653f200f220920489ca2b5937696c31604051806116f6339482919091602081019215159052565b0390a3565b60405162461bcd60e51b815260206004820152601960248201527f4552433732313a20617070726f766520746f2063616c6c6572000000000000006044820152606490fd5b60075460405163fe3b75d360e01b602082019081526001600160a01b03808516602484015280861660448401526064830187905293959493600093849391169190839061179a81608481015b03601f1981018352826107fc565b51925af16117a6610ea7565b50156117b157505050565b610f4b926109f26117c28433611824565b156117c957565b60405162461bcd60e51b815260206004820152602d60248201527f4552433732313a2063616c6c6572206973206e6f7420746f6b656e206f776e6560448201526c1c881bdc88185c1c1c9bdd9959609a1b6064820152608490fd5b61182d82610bed565b9160018060a01b039081831692828516841494851561186c575b50508315611856575b50505090565b6118629192935061139a565b1614388080611850565b61187792955061143e565b923880611847565b60075460405162540a7d60e61b602082019081526001600160a01b0380851660248401528086166044840152606483018790529495939460009384939116919083906118ce816084810161178c565b51925af16118da610ea7565b50156118e557505050565b610f4b92604051926118f6846107a8565b60008452611930565b6001600160a01b039182168152911660208201526040810191909152608060608201819052610c109291019061026a565b92919060008060018060a01b036007541686826040516119678161178c8b8b8b602085019862540a7d60e61b8a52602486016118ff565b51925af1611973610ea7565b501561197f5750505050565b6119a0936119906117c28433611824565b61199b838383610d05565b611a2c565b156119a757565b60405162461bcd60e51b8152806119c0600482016119c4565b0390fd5b60809060208152603260208201527f4552433732313a207472616e7366657220746f206e6f6e20455243373231526560408201527131b2b4bb32b91034b6b83632b6b2b73a32b960711b60608201520190565b908160209103126100235751610c10816101f1565b92909190823b15611ae657611a5f926020926000604051809681958294630a85bd0160e11b9a8b855233600486016118ff565b03926001600160a01b03165af160009181611ab6575b50611aa857611a82610ea7565b80519081611aa35760405162461bcd60e51b8152806119c0600482016119c4565b602001fd5b6001600160e01b0319161490565b611ad891925060203d8111611adf575b611ad081836107fc565b810190611a17565b9038611a75565b503d611ac6565b50505050600190565b90929192611b0860018060a01b03600754163314610c13565b60048111611b8c57826040519485378383016040528015611b865780600114611b805780600214611b725780600314611b5e57600414611b4757505050565b6060810135926040820135926020830135923591a4565b5090916040820135926020830135923591a3565b5091906020830135923591a2565b503591a1565b505090a0565b60405162461bcd60e51b815260206004820152600f60248201526e546f6f206d616e7920746f7069637360881b6044820152606490fdfea2646970667358221220b270864dd3c9c605d3d8a3169000eaf145dde72b971bc42001f8b7e5e3f1194464736f6c634300080f0033ac33ff75c19e70fe83507db0d683fd3465c996598dc972688b7ace676c89077b",
  "linkReferences": {},
  "deployedLinkReferences": {}
}