{
  "_format": "hh-sol-artifact-1",
  "contractName": "Groth16Verifier",
  "sourceName": "contracts/Game_8_75Verifier.sol",
  "abi": [
    {
      "inputs": [
        {
          "internalType": "uint256[2]",
          "name": "_pA",
          "type": "uint256[2]"
        },
        {
          "internalType": "uint256[2][2]",
          "name": "_pB",
          "type": "uint256[2][2]"
        },
        {
          "internalType": "uint256[2]",
          "name": "_pC",
          "type": "uint256[2]"
        },
        {
          "internalType": "uint256[92]",
          "name": "_pubSignals",
          "type": "uint256[92]"
        }
      ],
      "name": "verifyProof",
      "outputs": [
        {
          "internalType": "bool",
          "name": "",
          "type": "bool"
        }
      ],
      "stateMutability": "view",
      "type": "function"
    }
  ],
  "bytecode": "0x6080806040523461001657613e17908161001c8239f35b600080fdfe6080604052600436101561001257600080fd5b6000803560e01c63cf04a14f1461002857600080fd5b346104d857610c803660031901126104d857610043366104db565b3660c4116104d457610054366104ed565b90610c843681116104d057916104cc916104c76020959461040060405261007d610104356104fb565b610089610124356104fb565b610095610144356104fb565b6100a1610164356104fb565b6100ad610184356104fb565b6100b96101a4356104fb565b6100c56101c4356104fb565b6100d16101e4356104fb565b6100dd610204356104fb565b6100e9610224356104fb565b6100f5610244356104fb565b610101610264356104fb565b61010d610284356104fb565b6101196102a4356104fb565b6101256102c4356104fb565b6101316102e4356104fb565b61013d610304356104fb565b610149610324356104fb565b610155610344356104fb565b610161610364356104fb565b61016d610384356104fb565b6101796103a4356104fb565b6101856103c4356104fb565b6101916103e4356104fb565b61019d610404356104fb565b6101a9610424356104fb565b6101b5610444356104fb565b6101c1610464356104fb565b6101cd610484356104fb565b6101d96104a4356104fb565b6101e56104c4356104fb565b6101f16104e4356104fb565b6101fd610504356104fb565b610209610524356104fb565b610215610544356104fb565b610221610564356104fb565b61022d610584356104fb565b6102396105a4356104fb565b6102456105c4356104fb565b6102516105e4356104fb565b61025d610604356104fb565b610269610624356104fb565b610275610644356104fb565b610281610664356104fb565b61028d610684356104fb565b6102996106a4356104fb565b6102a56106c4356104fb565b6102b16106e4356104fb565b6102bd610704356104fb565b6102c9610724356104fb565b6102d5610744356104fb565b6102e1610764356104fb565b6102ed610784356104fb565b6102f96107a4356104fb565b6103056107c4356104fb565b6103116107e4356104fb565b61031d610804356104fb565b610329610824356104fb565b610335610844356104fb565b610341610864356104fb565b61034d610884356104fb565b6103596108a4356104fb565b6103656108c4356104fb565b6103716108e4356104fb565b61037d610904356104fb565b610389610924356104fb565b610395610944356104fb565b6103a1610964356104fb565b6103ad610984356104fb565b6103b96109a4356104fb565b6103c56109c4356104fb565b6103d16109e4356104fb565b6103dd610a04356104fb565b6103e9610a24356104fb565b6103f5610a44356104fb565b610401610a64356104fb565b61040d610a84356104fb565b610419610aa4356104fb565b610425610ac4356104fb565b610431610ae4356104fb565b61043d610b04356104fb565b610449610b24356104fb565b610455610b44356104fb565b610461610b64356104fb565b61046d610b84356104fb565b610479610ba4356104fb565b610485610bc4356104fb565b610491610be4356104fb565b61049d610c04356104fb565b6104a9610c24356104fb565b6104b5610c44356104fb565b6104c1610c64356104fb565b356104fb565b6136c1565b8152f35b8380fd5b5080fd5b80fd5b906004916044116104e857565b600080fd5b9060c491610104116104e857565b7f30644e72e131a029b85045b68181585d97816a916871ca8d3c208c16d87cfd47111561052457565b6000805260206000f35b604051907f08ec560edc38d45be31a4c69bcf0f6787c6ff78b43d5237e953803c552bd428382527f1a0df73ca4739f8266f38c67eb7a12c338e8b280656836e2307f6e26e73fdd5a6020830152604082019081526107cf196040836060816007855a01fa156105245760409260066080939284938451905260a05160608401525a01fa1561052457565b604051907f1b3d2b220f3f2c72b1660f5fa3cd0d8787730674c07d38aee36587a46658999f82527f032463c0549a5c3e94a570bb2646ee96cd0d51918f90cceca1ccefa6fc4d68e16020830152604082019081526107cf196040836060816007855a01fa156105245760409260066080939284938451905260a05160608401525a01fa1561052457565b604051907e9f8a10d2c70e7a80d51c0e8bbfb9ca14f3f8f802110fc938f5ee7b71d81f9182527f216ba22f0ca7b7bc78d83394cdd1502d2bfa55d2f09cf1c33f03bd3e565ce08c6020830152604082019081526107cf196040836060816007855a01fa156105245760409260066080939284938451905260a05160608401525a01fa1561052457565b604051907f263f68223102628b787fcd6be119b44de0cc3a8bfa21ad85ad21add7d05feef782527f25de80232eed7697e86ec5d435185d4c468cb3fe87da0438363dac84c4cac1bf6020830152604082019081526107cf196040836060816007855a01fa156105245760409260066080939284938451905260a05160608401525a01fa1561052457565b604051907f1a77a2cd3530662b906a41cffd26e63ccf38cf4b990b71f886c812fd65fb997882527f2eab5e2d84214d1f309963885c5d46bf7ea127a76b6ef204e5258155106058406020830152604082019081526107cf196040836060816007855a01fa156105245760409260066080939284938451905260a05160608401525a01fa1561052457565b604051907f0db03ade1cf4686fdcabf529856e7f50b61b722bd20f6ddb19af1b19e02c01b782527f29ccaa52528e36f252e5181243500a87afa1619e795ae733fd8a7047ce93bb146020830152604082019081526107cf196040836060816007855a01fa156105245760409260066080939284938451905260a05160608401525a01fa1561052457565b604051907e13b09f3365d738d1e01754eaaeae2b3a54aff7007be1a3730a2a90c52032a382527f2886c14b613bde14bc7e58d54032d3272658b5ec2ec0b986f1ab72831696c5156020830152604082019081526107cf196040836060816007855a01fa156105245760409260066080939284938451905260a05160608401525a01fa1561052457565b604051907f02d328fd0583439e8821ec486aa22f15f27f56f4d6559f315d535720839ed72f82527f23270e31caa3147afc56f87291cefe0fee924c21a677e92f3d48aa40596505ba6020830152604082019081526107cf196040836060816007855a01fa156105245760409260066080939284938451905260a05160608401525a01fa1561052457565b604051907f0a46f03676bcc8cd19696531f68647d731d96bc733bc7f490b1386d742d4336482527f074a5539f1c944daa3ac18766dba37febddfc428b74a4e70d90239d3dbf622566020830152604082019081526107cf196040836060816007855a01fa156105245760409260066080939284938451905260a05160608401525a01fa1561052457565b604051907f081449b104561a1079ac78db5898781b728f887af13a09248d45ac44918c3a0b82527f13a4791a16357ff86699271a018fa9962ef8bbc2c28ccc65536c8b01693d19116020830152604082019081526107cf196040836060816007855a01fa156105245760409260066080939284938451905260a05160608401525a01fa1561052457565b604051907f25b04dd7ce5fabce2f61af3ea4009ed47634d9bd640bf30b35f1d55a65eb3d5282527f1ce0956dd81fe664b88e0cc7105af82b502c8b5befa62cf374d0b907cc12f3dc6020830152604082019081526107cf196040836060816007855a01fa156105245760409260066080939284938451905260a05160608401525a01fa1561052457565b604051907f1785fbe2b13f2cf969cd06ce6431adbffc7599b1afb38fadc9eb6233a8ce9e8c82527f0efe100c150209fe64a9d142d5cbd1d01cde9e7a669a7356218741647be104946020830152604082019081526107cf196040836060816007855a01fa156105245760409260066080939284938451905260a05160608401525a01fa1561052457565b604051907f2c68182c19d9d1a64cf706097f93856e74b41cd5b689beb06631f1bad578372382527f1e91b7fef4a7f1d62407fb3e40baa594933292f09cbab237c6fb83175db190af6020830152604082019081526107cf196040836060816007855a01fa156105245760409260066080939284938451905260a05160608401525a01fa1561052457565b604051907f15b164ab5d6f9c3ea0dc833685b24dbbc88df8e9dff67d4e37295ad349a0378882527f298e2254e1f27e43cbf74cc6e2363561f6009e916aa5cab74ae1bd3f777f78826020830152604082019081526107cf196040836060816007855a01fa156105245760409260066080939284938451905260a05160608401525a01fa1561052457565b604051907f0b7357bdc27c42e2c609a0a9d786dbfd033731e98ad96564cbb00f810226bf6d82527f2cdb651103ae9875f82f5379f151a2af805f434ebcb4ec88272f22edb0ab82286020830152604082019081526107cf196040836060816007855a01fa156105245760409260066080939284938451905260a05160608401525a01fa1561052457565b604051907f01c786b6a259da547d4c26a2a94ac9d895f4acff2b77283f518720174c8c861082527f1e1fd406f5c92a01d88db2ab0fe7777b2ad10e7f53f0d6ec94a3675c04f3c5176020830152604082019081526107cf196040836060816007855a01fa156105245760409260066080939284938451905260a05160608401525a01fa1561052457565b604051907f2aa334709f01178c6e2f707ced8bebbcdc4b58a30c4b36f03480897b419ea4de82527f200b542d8b0910ec21742865810b4c6e32b84a917b3e162646c210b52539cfd26020830152604082019081526107cf196040836060816007855a01fa156105245760409260066080939284938451905260a05160608401525a01fa1561052457565b604051907f2316422bdb8b7f1f4c167eabb243567a18c296111be477061d94f4f46939933982527f015816b30f44af3c79c04407d9e7a8dedc412ad3e3199e47b38474850430764b6020830152604082019081526107cf196040836060816007855a01fa156105245760409260066080939284938451905260a05160608401525a01fa1561052457565b604051907f0e91f546748c41bf16ee1b04a5930721673ba64ca8cec57965333809c902bf3482527f2c059900e6c7c11d0a64d8447b93bac167ddc4ec53fd84935d1f65fd38cdd0536020830152604082019081526107cf196040836060816007855a01fa156105245760409260066080939284938451905260a05160608401525a01fa1561052457565b604051907f066d3e64f4acbb3020e9f5cbf694f2ba5c6469f4bfe57eb9d5d99e22e216807a82527f17a1c04dd12fd554de3e52a11d5b511cefc6f7d32ccd50c55f30ebc72aec16c46020830152604082019081526107cf196040836060816007855a01fa156105245760409260066080939284938451905260a05160608401525a01fa1561052457565b604051907f2e555276deee9dba15b8da2319e17cf5dd10d0332b98bd9571eb88666b83c09782527f28d0b245b0ba00cac5508a1f317bd2f93b5e7c530831ff724d1f72004af9a7bd6020830152604082019081526107cf196040836060816007855a01fa156105245760409260066080939284938451905260a05160608401525a01fa1561052457565b604051907f2a6ae4d586d9c2784cdee2c0b8771d25f2dea440c1f915d9111df9b12f08933582527f1ec06e418f147f192b77dfd94a425492a6ff49603ad317d2bd9998b6a32c496f6020830152604082019081526107cf196040836060816007855a01fa156105245760409260066080939284938451905260a05160608401525a01fa1561052457565b604051907f2c74bc327d6856eeaab094efe35ea0fd12c8cf7db06e7ef78f00f8bb9cb7349082527f1960619765448ff5353fc441d8af868deb3e50473dc1f426d053cdf1c1c11cdd6020830152604082019081526107cf196040836060816007855a01fa156105245760409260066080939284938451905260a05160608401525a01fa1561052457565b604051907f050a376c0462a92f31357b5be0d918b9e462c960d3964b8738dddcb2d4fd2e7382527ec09031947c9a40a1f67840c66aa0f19c572e579300d63722fc51847c1a34986020830152604082019081526107cf196040836060816007855a01fa156105245760409260066080939284938451905260a05160608401525a01fa1561052457565b604051907f06cc380332726f23871d1dbd12dc37a2bf06fd8da1a673836edc625a7fead45082527f29f259f6c65b26ba05f890a9e0a06cf69646c49111e40a8ecaf70d31a42157d46020830152604082019081526107cf196040836060816007855a01fa156105245760409260066080939284938451905260a05160608401525a01fa1561052457565b604051907f19c04f5a1a8ae9e31a46481b1a6a8eab5688d7cb6e139c323c8c819b0598a6dc82527f120624cc4a205cfbc10602309c8d70196f9a0b252239ceb58e53dd248ea9237a6020830152604082019081526107cf196040836060816007855a01fa156105245760409260066080939284938451905260a05160608401525a01fa1561052457565b604051907f261aa9817b1e28c391b54522cc4d6fffef16532fe785b67b3e773b22d7eba0bc82527f27cbf903e1173f694acc5330ea8a243b49c20ce15d25445ab6c2ecaa9fbde7f26020830152604082019081526107cf196040836060816007855a01fa156105245760409260066080939284938451905260a05160608401525a01fa1561052457565b604051907f029c14870cdc38a3b5bd9350613c288f1e84ecd6e5cded018fd92f691afc9e9582527f130d6007a76c2928e814649dd739eb85c473315fb6fe1e1f1aaf7acfa340e2c66020830152604082019081526107cf196040836060816007855a01fa156105245760409260066080939284938451905260a05160608401525a01fa1561052457565b604051907f0a729825496889ea3f47b6924ee17fa10d4c70437255b8554cebd4d214afcfe982527f0c095ee43a6b4542cd1f955d7a71659fb65a7804ba75db42ccca461c58383aba6020830152604082019081526107cf196040836060816007855a01fa156105245760409260066080939284938451905260a05160608401525a01fa1561052457565b604051907f1b9aee7771268c0a24702853389a362b8656ab9a9e55464b5c3c8fe0446d944082527f1b9ba9bfb5c3d5185790d303e53f1a38a6aa4d30dba8ddbeaa2dfe994f38d2316020830152604082019081526107cf196040836060816007855a01fa156105245760409260066080939284938451905260a05160608401525a01fa1561052457565b604051907f06dd25be536a15b2226933ff0fc8aa7c59a77565a452924783428b9df782a0ea82527f15c6b83cc1227f46387713595c4e19d43932b94000d1f702907829737e3b26e16020830152604082019081526107cf196040836060816007855a01fa156105245760409260066080939284938451905260a05160608401525a01fa1561052457565b604051907f030998c32a95b8f0c0f57f336f631931114ca88e12bcf645b5acc431a5b24c3882527f1c40d675771a8ba3fad8e0795639e6395661e997293a74c150951a62c34f50546020830152604082019081526107cf196040836060816007855a01fa156105245760409260066080939284938451905260a05160608401525a01fa1561052457565b604051907f2aa022bb189cd172abc40a43e7dc34a9d41a611fc37830e71648ffff8c1db19582527f13d6ea6d431195eda1c58edd95b6f3f6ed5533c91dadc6e79940b6eabc8584bc6020830152604082019081526107cf196040836060816007855a01fa156105245760409260066080939284938451905260a05160608401525a01fa1561052457565b604051907f29290d78a7dc9ee6b5750038ae80cd7df9e0ef733a80702d032d687bf3c2c61f82527f1b7f7143b31f67c2165746fb31f1629c48cf4c6f378339b5980dcc4bb46929046020830152604082019081526107cf196040836060816007855a01fa156105245760409260066080939284938451905260a05160608401525a01fa1561052457565b604051907f2cdf9d2c68fba933b1555583eac71e66a88cce7a018ea514d86be2bfbb26124882527f104320355b99a08c7f2936a254b70fcc214370e8215c7899d00dc9bc898c8b7f6020830152604082019081526107cf196040836060816007855a01fa156105245760409260066080939284938451905260a05160608401525a01fa1561052457565b604051907f13f6a54ea577a0b2c178fcd20e0961fba58698a2859c95ea5a57d679cda56a5482527f2ca7dd3037b9a6900c130fb634db63bce838e8292d1d32940d2b123e2abedcc96020830152604082019081526107cf196040836060816007855a01fa156105245760409260066080939284938451905260a05160608401525a01fa1561052457565b604051907f1c6c8f9775bcd3b11f181338bf8c7b2caff3efce005e6fb34393b71ae170e41782527f1d2cd02524009e92c73da00b6b854975119321b6df6863f5c1e001897bcc22bf6020830152604082019081526107cf196040836060816007855a01fa156105245760409260066080939284938451905260a05160608401525a01fa1561052457565b604051907f2077f1d34b5ddf08c62267c07a4247d3924fb5213d9f508940142a0f70e2318682527f02aa8bf8ef6604f95d4280998091525da3b2766a1ac5ce29477f137266ca8b5f6020830152604082019081526107cf196040836060816007855a01fa156105245760409260066080939284938451905260a05160608401525a01fa1561052457565b604051907f1c25e29077e5bc2a88a60265a45b91192fc1bb5c66e67a8aeda408909bad2e0782527f2e9f8c5fbb87b79168762b4521a7676171705ba6d5f9ba368da6330554ee8c456020830152604082019081526107cf196040836060816007855a01fa156105245760409260066080939284938451905260a05160608401525a01fa1561052457565b604051907f1bba1f7443b03238b804608bc46a87af14d02ff39522e8a8b77a68e5e0152e4882527e3871a156436bc5a8c1bf59e8eb1c4525b6bc9d7cf5e523ba85fac4390f01ae6020830152604082019081526107cf196040836060816007855a01fa156105245760409260066080939284938451905260a05160608401525a01fa1561052457565b604051907f247ee7d806dd3f98a96043eaa15d6dd2f6695b9beec4601799eced4fb94c0c4382527f252c7f05f3ba33c7e75a70c2dae4d33760eefaaeaf132574cf54cd9e63744f176020830152604082019081526107cf196040836060816007855a01fa156105245760409260066080939284938451905260a05160608401525a01fa1561052457565b604051907f20edd4550f93628575b2abe3d7bae7cfdc81e6bf9673bcd72ca7a1490f0d8bdf82527f1ab3d797070522520d9d2aba7c48db74ca68fbb6154592831daa2ef1884a64496020830152604082019081526107cf196040836060816007855a01fa156105245760409260066080939284938451905260a05160608401525a01fa1561052457565b604051907f2a1b801daad6533f87924b26a488976b16c45228bbf0b34107bf4a85599b08e682527f1e1bb306bf785d1a9101ced8f5c3bbc81e42fe8b5c0597c0b4cb3a51907fe0d26020830152604082019081526107cf196040836060816007855a01fa156105245760409260066080939284938451905260a05160608401525a01fa1561052457565b604051907f0295595ca40bae993e2f009fc8df8d0f8beac9c3f5bf67e97958feea57dce56582527f086a4a4a15cdcae4b1eefadcf1eb378d791b3b0b1476bec1f1f7d2ab6a5fcea76020830152604082019081526107cf196040836060816007855a01fa156105245760409260066080939284938451905260a05160608401525a01fa1561052457565b604051907f11980a525da459fb3e9ffd4a22fb1d66c0f08b8a928510b7b80e8efaec98277782527f3031aeb2408640da3d0e5ac8e87095f066666e5ae7968034542370ed36082bb26020830152604082019081526107cf196040836060816007855a01fa156105245760409260066080939284938451905260a05160608401525a01fa1561052457565b604051907f2c84966564c5c35bc44536b999df36603478221dd6b2bfb2f93271a0b49a449082527f19a92e39c147f848ad2a6db12094e39299bc64e08058053fdd022dad8d9615fd6020830152604082019081526107cf196040836060816007855a01fa156105245760409260066080939284938451905260a05160608401525a01fa1561052457565b604051907f124332f5e14187e138a1a5f97559091faa2ee5b0f068e14eaa898670df29c1aa82527f279e591670aa0553453f748d3145ef42f790d72f4d74cf57777347ccf256236a6020830152604082019081526107cf196040836060816007855a01fa156105245760409260066080939284938451905260a05160608401525a01fa1561052457565b604051907f24f0762c24e03e40c698c2e3d5873b0bde91ac575424bc403af47b7a7c9c03f982527f28995e978bc86e2621a3f00413513ededd671b7e6afe60ed2b62838c4c2803be6020830152604082019081526107cf196040836060816007855a01fa156105245760409260066080939284938451905260a05160608401525a01fa1561052457565b604051907f1f6cb9cd6a5a3a4d7035f40efd2bc1285d19a7d88ed4ca059bad3921151a4b2982527f0ab3460b2d618c78531e4a94acfe83ac52567813f923c8ecc1a7175bdcf0a6356020830152604082019081526107cf196040836060816007855a01fa156105245760409260066080939284938451905260a05160608401525a01fa1561052457565b604051907f022dda0ec62fd1ef37588afc5ed2a80389bf33ed9c75d8ed5adfce3e8c3280c882527f2a225a709fedf1fb78b98d8720ec81abb9b8f229dcef0edfae8edd3f9c1078516020830152604082019081526107cf196040836060816007855a01fa156105245760409260066080939284938451905260a05160608401525a01fa1561052457565b604051907f20e9c14dbfcea6507f120c63073d27997c2a98d306033a705f5aa95438223ecd82527f2ba58e7632d12b116798ae0faee2e1cc7ce3ee13ccaefb4742c6f16c65058f106020830152604082019081526107cf196040836060816007855a01fa156105245760409260066080939284938451905260a05160608401525a01fa1561052457565b604051907f18b6e6c642cd09af2980193aa467fa56861a7e7a51215242af66fd01ccb5e27282527f0f0a6c02350f3268d4e0afe3ba68517d7a5e617e5e12e7211f81cfca1854a9166020830152604082019081526107cf196040836060816007855a01fa156105245760409260066080939284938451905260a05160608401525a01fa1561052457565b604051907f219a1efe2873ac75c5f67a6e98ddbda3f9314445f1039460f89a559e924064ca82527f14a47af3d4608398c91424bf5ecd190e253a8a4d8489fb1fd7e7ed26dfe7c1ae6020830152604082019081526107cf196040836060816007855a01fa156105245760409260066080939284938451905260a05160608401525a01fa1561052457565b604051907f04e66d3f0b88a14fc9ba3d4f6470bd860c94c769e599aae835aaef859723152982527f17b2ce2642b6fdca0a4a8e0335e7c75f6eecc6420eb25060d0ccfc2ecb781f0c6020830152604082019081526107cf196040836060816007855a01fa156105245760409260066080939284938451905260a05160608401525a01fa1561052457565b604051907f09e3962c54ea28f0462f63270675eb2068cf42b94f59964ab19e7b62737d071182527f0d1bf2fb1c2ac2e39c67c53c6cd4d33e05655474593d5f4dd09205e3c19b2c266020830152604082019081526107cf196040836060816007855a01fa156105245760409260066080939284938451905260a05160608401525a01fa1561052457565b604051907f22e0fd16d3c89df9d9b1ddb2d4446e639a37614b42c324885b02dcfdab763f3482527f0f75968776bb0a54e6d11c6fcf50f2ffffb40db39a9f8fee569dd9084b3a3f826020830152604082019081526107cf196040836060816007855a01fa156105245760409260066080939284938451905260a05160608401525a01fa1561052457565b604051907f190dcd178dac7ee31a1886a397b9a8a13666b4c7ce01a044bcf8d4f761ad864182527f04a5c67898ddd7b40fd79cdd5c51766043bb90c8c75a1d0cd15e49490a1972036020830152604082019081526107cf196040836060816007855a01fa156105245760409260066080939284938451905260a05160608401525a01fa1561052457565b604051907f25846b838f663eae5b7a367f7570191efd742ee83795112699aed97471b7d59e82527f2d2cf2632871dc872ffa79fb77461213fa9d1553a09b85cced095776ad358d276020830152604082019081526107cf196040836060816007855a01fa156105245760409260066080939284938451905260a05160608401525a01fa1561052457565b604051907f296cd778baccd1f95d8c4b09550c64ea197acadf48ff892e9e595a491625e9d582527f1032159cd3f065398f410ce6e277fa6cc070cab7b4a74fb317d5c8c2ff8910e16020830152604082019081526107cf196040836060816007855a01fa156105245760409260066080939284938451905260a05160608401525a01fa1561052457565b604051907f21f9604c5376db31838354d429fc33e389fca11c0919d789b98a550a2587e2cd82527f1eb8dfd193caf25395b1092af0502f8a3cca62ca51ea214c581b41729f778e046020830152604082019081526107cf196040836060816007855a01fa156105245760409260066080939284938451905260a05160608401525a01fa1561052457565b604051907f096b03a93cfa5fe99d336931eb71c8efeeb85c970303c50b35d1c91a39aac7cf82527f1e3a6f9982e90f63c88260df23e3be9e2efd84613f8deb5a7d51346c3cfa2f806020830152604082019081526107cf196040836060816007855a01fa156105245760409260066080939284938451905260a05160608401525a01fa1561052457565b604051907f09f7905bd31c2dd4c9dd2bd343201e33a65a2b83ca83152bba74a8793b7880d282527f094957073fdf36fa09e42fb8b6103f3ee47ed178b0242faa380e08ba3fd08d666020830152604082019081526107cf196040836060816007855a01fa156105245760409260066080939284938451905260a05160608401525a01fa1561052457565b604051907f1b227022cb275157a129e40bc7cc14a1c56c0ab8debfd1ab9db1b82df8b65c1e82527f1c1a41fd6cc42a0cdb1729ec6f5ff65d9a1a9d282e3f080345e86bf6926ebc906020830152604082019081526107cf196040836060816007855a01fa156105245760409260066080939284938451905260a05160608401525a01fa1561052457565b604051907f1f16a59e768b6849fc3ce30f6b3184e3c6a53eed1add5c2bfd15eea8bbdfa47782527f03723f59d62427b83745e980c924dc1ba73f1e84038f5e3ac2961e7d46aa2b746020830152604082019081526107cf196040836060816007855a01fa156105245760409260066080939284938451905260a05160608401525a01fa1561052457565b604051907f1f6b95f383eed0f04db98437d6f75285dfa6735842957d6fbf19a3d4828480e782527f0197578f72072f55a7ad62828eac2d7df056c5e45d5dc2552254d346a859b5266020830152604082019081526107cf196040836060816007855a01fa156105245760409260066080939284938451905260a05160608401525a01fa1561052457565b604051907f28cb6f2eb52347fdc68857f974ed792bd74c6db75a069ec215f385c9f8dbfa7182527f2bad053fc136d938e3ee2363b8f599052f9a8bb47b440c97e851e5ae666f51916020830152604082019081526107cf196040836060816007855a01fa156105245760409260066080939284938451905260a05160608401525a01fa1561052457565b604051907f30284a9f8bda86f5e32fb250c95afc6857bcadbf7e624a286dc60e0586b5ef3182527f3062b0cf58f7904067f76719cf3b333705db79a378df64a030617cbb99e58fa06020830152604082019081526107cf196040836060816007855a01fa156105245760409260066080939284938451905260a05160608401525a01fa1561052457565b604051907f03d506b1ee1af45f528fc36217062a266b6944f83cfc40f8b5855a5af9a2d81c82527f1ecf1e04fbea9e75266403174eb913f22258ce5bfef764fbc7b6068c84d1f7966020830152604082019081526107cf196040836060816007855a01fa156105245760409260066080939284938451905260a05160608401525a01fa1561052457565b604051907f0654cdb143f11083bbd3beaac5db08857cfa92eb918a4c1b729b22f3e172ae3e82527f1bd5078a897f53da3f201cad7246d6317a6a9dd0feb1120131070ea66d056ac06020830152604082019081526107cf196040836060816007855a01fa156105245760409260066080939284938451905260a05160608401525a01fa1561052457565b604051907f08d4ac748ffb1352c4a1f5968f7de4f637c5bdc63ca5535463b96a2f59cff79b82527f10b4f060971e9b41b532c6280f510ea813e01a2fc7c33f3106c653a095a42ecf6020830152604082019081526107cf196040836060816007855a01fa156105245760409260066080939284938451905260a05160608401525a01fa1561052457565b604051907f22daf1ac596ec0200fa41e2e7255fe1845feac434070530a0adb59e3cb98893882527f18c26e4c3c1224788646fb6ac1b9e11db1214ceef9222ecfb43df12c66c2fb556020830152604082019081526107cf196040836060816007855a01fa156105245760409260066080939284938451905260a05160608401525a01fa1561052457565b604051907f2d9116e42b6f9356cffd420bd55d04e7a2f925a21ab51210b7edb9a9d0af353682527f1d012103c830aafca1e118e84d7452682af9af0720ba23fe73f8cc5156fb196e6020830152604082019081526107cf196040836060816007855a01fa156105245760409260066080939284938451905260a05160608401525a01fa1561052457565b604051907e0ee6b2dc1b3fc4476d566e4d66f7ce95fbd14298be5abeea51b0c11bd26b5882527f0462f75adce08c313fb5f5954e729e888752a0a5c7e84553a31bfacf40101bc46020830152604082019081526107cf196040836060816007855a01fa156105245760409260066080939284938451905260a05160608401525a01fa1561052457565b604051907f0a749c388f13f3b5bd3441a27ad03d7deb52ccf092234e0546089ad5d2b4d4cb82527f21d2c0c73f0bb7e054bd868d7982f75dccad4e26d5ca35209a162759949d4bf56020830152604082019081526107cf196040836060816007855a01fa156105245760409260066080939284938451905260a05160608401525a01fa1561052457565b604051907f03cc845ffad61e4dbd98158758b5071cba097015680c07f83f5bcdb8e4b1767c82527f22ef4091d0cc2f8f693a2b303cb43b2d61b86ee79fb6cf3e1395485147abcf106020830152604082019081526107cf196040836060816007855a01fa156105245760409260066080939284938451905260a05160608401525a01fa1561052457565b604051907f142879adf6d657746c510f3991d657b93c7e09be8809a0372ce23353fae6721582527f1e84c537f0f6b0434a8efd35ec2c89d386c0059a38a55cbf58a7e1be0cc7f7cc6020830152604082019081526107cf196040836060816007855a01fa156105245760409260066080939284938451905260a05160608401525a01fa1561052457565b604051907f2ca27968782e98126b2557c69a787d31ed83f5f573ea7645892e4532d039759782527f014d473f94487f31aa4201fc99f929ccc7954fc3f5f9f8fefd210cca433663df6020830152604082019081526107cf196040836060816007855a01fa156105245760409260066080939284938451905260a05160608401525a01fa1561052457565b604051907f0d37b9c9db3dae9835f70ad7be9b4bdd052f78c0ad3df9031653c6c62ea4fe8c82527f20941adece7b87e632a7f9340e87f854defd11822c8b0bb2aa0e7efadaa2ee276020830152604082019081526107cf196040836060816007855a01fa156105245760409260066080939284938451905260a05160608401525a01fa1561052457565b604051907f19f3ac014b1fd51c755fbf35e6d60f78cadc85eebec38b78cf0207e4905b3dae82527f2fefc737e7de643aaabce121a7e0795b83e44954dbe33967b0faa84b5c731efe6020830152604082019081526107cf196040836060816007855a01fa156105245760409260066080939284938451905260a05160608401525a01fa1561052457565b604051907f10b4a6f0c28b406a525d514ab843852512865ed916babefc6ea2c3507404198582527f0cafb1d015ac3d8fab3558eabc176cb7107e71773feb652223df943ff92b81ff6020830152604082019081526107cf196040836060816007855a01fa156105245760409260066080939284938451905260a05160608401525a01fa1561052457565b604051907f258d52a0e807947f5dc1aa719e5f28c92262efa1a332a5e629384a35532863f582527f187613fc786609a3b3ce38a26263d54c4b724bb96331a2e456a5078f9651af396020830152604082019081526107cf196040836060816007855a01fa156105245760409260066080939284938451905260a05160608401525a01fa1561052457565b604051907f1e98b7303519de6b5edc4edf8858f58a9c5a7264ffcee6375aaa1a6a6492306682527f04448d4538acc5c27a699d70cd7060619c34ee43d9de3527b8b2d92ad751bc416020830152604082019081526107cf196040836060816007855a01fa156105245760409260066080939284938451905260a05160608401525a01fa1561052457565b604051907f2c96f4dd67761a9b940d7933a7d33b057902e37ab5ec5359f15cc19f517850fb82527f2c1a0757c9f9bc4299b1c0d3db78239f381842f70736d933143dfd7a693e2fd86020830152604082019081526107cf196040836060816007855a01fa156105245760409260066080939284938451905260a05160608401525a01fa1561052457565b604051907f0738db31a081bbeb46a01eb6a20f169b8a1cc320968bc7e29d9649cd4c8848fd82527f11883d6584c104a976d5a9598f62d958aba812bb36429bd3e95fd45f3d2dd30f6020830152604082019081526107cf196040836060816007855a01fa156105245760409260066080939284938451905260a05160608401525a01fa1561052457565b604051907f11a4e2c5d6e20e31a45b3c6ba1ca3cb4bb97b93ba2d235190758b1ffd9b5058682527f13623efb01f0e5af6e03be6153927a249903fa17523361be1e2dbef4f3dc64106020830152604082019081526107cf196040836060816007855a01fa156105245760409260066080939284938451905260a05160608401525a01fa1561052457565b604051907f1703168af3fa11174eafb7afedc2ec72faefac591a66d49d62b2d7d9ee10999282527f0e784b36cf4b4d033d01c5573fcff88c9920a9b7b9fc9ede455055fc5c22e2706020830152604082019081526107cf196040836060816007855a01fa156105245760409260066080939284938451905260a05160608401525a01fa1561052457565b604051907f10a7724c29d3ff5b850cb3df65d3319a31764945d32d27873a2efc9e660e61c382527f1209452c82ebe288f304e415b42ae024f1d7bbf4f5e231a3f575be2cd66ac42a6020830152604082019081526107cf196040836060816007855a01fa156105245760409260066080939284938451905260a05160608401525a01fa1561052457565b604051907f109cada52430be8875bd73a2a9a28b455c6b99216bed72a36ad06aa634e3b82482527f0c018e14b494bd648b2a0b9d03f3aad6ec5efe359d0de4d24520294e5301f5656020830152604082019081526107cf196040836060816007855a01fa156105245760409260066080939284938451905260a05160608401525a01fa1561052457565b604051907f125211e8731bae4ed15e1d554c65059378eb85bd4e9955ab8e232f466213556082527f2ea80e208bd5347fcc3fa4fa2d6eed696b09695fb5f14bad0d2c4d14658a0bc46020830152604082019081526107cf196040836060816007855a01fa156105245760409260066080939284938451905260a05160608401525a01fa1561052457565b604051907f28ac81ea8ed0fe32ca5af366b50c80f74d8d17e0d60fc0902c4a2d167235043482527f0b4180f953b991d5359d223e5bf550ce040b432efbc0ffc68e872dcd8ea0e3306020830152604082019081526107cf196040836060816007855a01fa156105245760409260066080939284938451905260a05160608401525a01fa1561052457565b604051907f26e6129a719de44b4536feb421e94a607ebb7ae1b157637483cc78b77904e0fd82527f0d4247cf0e7a07cfa35885f1af6b6a60320147f3a78cb21fdf225c1e10b87cf36020830152604082019081526107cf196040836060816007855a01fa156105245760409260066080939284938451905260a05160608401525a01fa1561052457565b604051907f2bb85e71ba513a16edf46bc2cbe752e67fdb974af99082e34083dc46887a68a282527f10ac4c5a22cd74a6b3c238d3eaed057732d548f3bac6e52f4bcddc69e779da056020830152604082019081526107cf196040836060816007855a01fa156105245760409260066080939284938451905260a05160608401525a01fa1561052457565b6020907f12f3bd5b4db3782c4417f92361c00ada77e439809a107f0230776d15ab09c0f36080527f0faef76ef3ddb49e5cffad36cfd06927fe16627b6d698e8d41e759ddd38b36df60a0526137186101043561052e565b613724610124356105b8565b61373061014435610642565b61373c610164356106cb565b61374861018435610755565b6137546101a4356107df565b6137606101c435610869565b61376c6101e4356108f2565b6137786102043561097c565b61378461022435610a06565b61379061024435610a90565b61379c61026435610b1a565b6137a861028435610ba4565b6137b46102a435610c2e565b6137c06102c435610cb8565b6137cc6102e435610d42565b6137d861030435610dcc565b6137e461032435610e56565b6137f061034435610ee0565b6137fc61036435610f6a565b61380861038435610ff4565b6138146103a43561107e565b6138206103c435611108565b61382c6103e435611192565b6138386104043561121b565b613844610424356112a5565b6138506104443561132f565b61385c610464356113b9565b61386861048435611443565b6138746104a4356114cd565b6138806104c435611557565b61388c6104e4356115e1565b6138986105043561166b565b6138a4610524356116f5565b6138b06105443561177f565b6138bc61056435611809565b6138c861058435611893565b6138d46105a43561191d565b6138e06105c4356119a7565b6138ec6105e435611a31565b6138f861060435611aba565b61390461062435611b44565b61391061064435611bce565b61391c61066435611c58565b61392861068435611ce2565b6139346106a435611d6c565b6139406106c435611df6565b61394c6106e435611e80565b61395861070435611f0a565b61396461072435611f94565b6139706107443561201e565b61397c610764356120a8565b61398861078435612132565b6139946107a4356121bc565b6139a06107c435612246565b6139ac6107e4356122d0565b6139b86108043561235a565b6139c4610824356123e4565b6139d06108443561246e565b6139dc610864356124f8565b6139e861088435612582565b6139f46108a43561260c565b613a006108c435612696565b613a0c6108e435612720565b613a18610904356127aa565b613a2461092435612834565b613a30610944356128be565b613a3c61096435612948565b613a48610984356129d2565b613a546109a435612a5c565b613a606109c435612ae6565b613a6c6109e435612b70565b613a78610a0435612bfa565b613a84610a2435612c83565b613a90610a4435612d0d565b613a9c610a6435612d97565b613aa8610a8435612e21565b613ab4610aa435612eab565b613ac0610ac435612f35565b613acc610ae435612fbf565b613ad8610b0435613049565b613ae4610b24356130d3565b613af0610b443561315d565b613afc610b64356131e7565b613b08610b8435613271565b613b14610ba4356132fb565b613b20610bc435613385565b613b2c610be43561340f565b613b38610c0435613499565b613b44610c2435613523565b613b50610c44356135ad565b613b5c610c6435613637565b61010092818492358352837f30644e72e131a029b85045b68181585d97816a916871ca8d3c208c16d87cfd479101358103066101205260443561014052606435610160526084356101805260a4356101a0527f2d4d9aa7e302d9df41749d5507949d05dbea33fbb16c643b22f599a2be6df2e26101c0527f14bedd503c37ceb061d8ec60209fe345ce89830a19230301f076caff004d19266101e0527f0967032fcbf776d1afc985f88877f182d38480a653f2decaa9794cbc3bf3060c610200527f0e187847ad4c798374d0d6732bf501847dd68bc0e071241e0213bc7fc13db7ab610220527f304cfbd1e08a704a99f5e847d93f8c3caafddec46b7a0d379da69a4d112346a7610240527f1739c1b1a457a8c7313123d24d2f9192f896b7c63eea05a9d57f06547ad0cec8610260526080516102805260a0516102a0527f198e9393920d483a7260bfb731fb5d25f1aa493335a9e71297e485b7aef312c26102c0527f1800deef121f1e76426a00665e5c4479674322d4f75edadd46debd5cd992f6ed6102e05282610300917f090689d0585ff075ec9e99ad690c3395bc4b313370b38ef355acdadcd122975b83527f12c85ea5db8c6deb4aab71808dcb408fe3d1e7690c43d37b4ce6cc0166fa7daa610320528035610340520135610360527f0ad9ad9e6c8e1aebafdf9373d41b428df321e321731b01cbc93e90a7a17faca2610380527f075bff9a3dc282bc828b200b40baa7f439361a137e314326b462fb4a2d151e2c6103a0527f12f5669cb47942edfd59f2af7e8c2622e15eab3fd6ecd0ba1bcc1ef0286162e66103c0527f1b3597004bc4edf7afc9d79e5a9982fd1ba56f8f4801b8e09e3e35d0e05b83e66103e0528160086107cf195a01fa9051169056fea264697066735822122035b75060a0dd9771226b2c5922f2f09167866cbf3e87c7c8266ba98ae04c885f64736f6c634300080f0033",
  "linkReferences": {},
  "deployedLinkReferences": {}
}