{
  "_format": "hh-sol-artifact-1",
  "contractName": "Groth16Verifier",
  "sourceName": "contracts/Game_1_2000Verifier.sol",
  "abi": [
    {
      "inputs": [
        {
          "internalType": "uint256[2]",
          "name": "_pA",
          "type": "uint256[2]"
        },
        {
          "internalType": "uint256[2][2]",
          "name": "_pB",
          "type": "uint256[2][2]"
        },
        {
          "internalType": "uint256[2]",
          "name": "_pC",
          "type": "uint256[2]"
        },
        {
          "internalType": "uint256[10]",
          "name": "_pubSignals",
          "type": "uint256[10]"
        }
      ],
      "name": "verifyProof",
      "outputs": [
        {
          "internalType": "bool",
          "name": "",
          "type": "bool"
        }
      ],
      "stateMutability": "view",
      "type": "function"
    }
  ],
  "bytecode": "0x6080806040523461001657610a38908161001c8239f35b600080fdfe6080604052600436101561001257600080fd5b6000803560e01c63f3bb70f61461002857600080fd5b34610100576102403660031901126101005761004336610103565b3660c4116100fc5761005436610115565b906102443681116100f857916100f4916100ef6020959461040060405261007d61010435610123565b61008961012435610123565b61009561014435610123565b6100a161016435610123565b6100ad61018435610123565b6100b96101a435610123565b6100c56101c435610123565b6100d16101e435610123565b6100dd61020435610123565b6100e961022435610123565b35610123565b6106ba565b8152f35b8380fd5b5080fd5b80fd5b9060049160441161011057565b600080fd5b9060c4916101041161011057565b7f30644e72e131a029b85045b68181585d97816a916871ca8d3c208c16d87cfd47111561014c57565b6000805260206000f35b604051907f22776861c03df4c800c1ce47001bfe3ba262be687cb32e76835ad5bce6a6eff282527f013a6021fa7c7baa874a9fbefc7c4d90eb8dcee348e7e815312aa0a7f4eb81266020830152604082019081526107cf196040836060816007855a01fa1561014c5760409260066080939284938451905260a05160608401525a01fa1561014c57565b604051907f1c3e140668a55d8d4780e7be306f2db48ffe02cb016b4b758f51dad660a3302b82527f12fd8a9b8316dee8913a5d65fc2b4154a046ca7f94f441ed1c6a0a5b989cba556020830152604082019081526107cf196040836060816007855a01fa1561014c5760409260066080939284938451905260a05160608401525a01fa1561014c57565b604051907f2e42914967331599b7b4bace9509a29c8a6b299da8c085c5a214eecaaadf396382527f0b3ab81bb702f4ff44b1e4fc22231f71a6e82a94c39bd7e1b02838addeebeebc6020830152604082019081526107cf196040836060816007855a01fa1561014c5760409260066080939284938451905260a05160608401525a01fa1561014c57565b604051907f28b1cea5b4a976f292d9d67e374e6e8599a63162c892aa75a2d22a4c8ac34ba482527f10c4da4a6408f751b411f9edbca37cda1bad2e735d5e56e72988716ff8a8306d6020830152604082019081526107cf196040836060816007855a01fa1561014c5760409260066080939284938451905260a05160608401525a01fa1561014c57565b604051907f2976023fc424495c458e809bce0cf6422762b9b10cde12df7e7d4aa31017a08182527f22ccf55cd80a8cad86a504d62d4cd3e25674cf2897cf81325cdc375b8763ec066020830152604082019081526107cf196040836060816007855a01fa1561014c5760409260066080939284938451905260a05160608401525a01fa1561014c57565b604051907f2e3527d0504ca67d185627d3c08a406b6f4e3491ee4e644117fea232331cb89a82527f2304cd585a2a4445c92fde2c09df59eaae6962e258f14ede42e8a80eeff76fc16020830152604082019081526107cf196040836060816007855a01fa1561014c5760409260066080939284938451905260a05160608401525a01fa1561014c57565b604051907f09e91ab482b55089f483191f61c9c22577924fd78e1336c13aa4dc656a52cea782527f0faf7adf66a5301684999e86fc4145d72f80b4a824476c1f9d229ff0bbf758596020830152604082019081526107cf196040836060816007855a01fa1561014c5760409260066080939284938451905260a05160608401525a01fa1561014c57565b604051907f2ec3a325b447206439a25815a6c0de84286b89067189cd2b2bc4c84d806d2ed582527f16ae74dcfaacc21bb118bcaa1e473ecdb94547959191925dd26cbf4fab1088b56020830152604082019081526107cf196040836060816007855a01fa1561014c5760409260066080939284938451905260a05160608401525a01fa1561014c57565b604051907f2e9a2bdf72ac14f6ec493749d3c49b42f0e7d53ec04601a14f1293844418670f82527f28f9c5150024fe66cd0efe7c85abc548366e55d594b9d6236619fa6c692977476020830152604082019081526107cf196040836060816007855a01fa1561014c5760409260066080939284938451905260a05160608401525a01fa1561014c57565b604051907f301da74a78aea8e66b36da8144717391719f0ca2e67b88824b51d6792d89053182527f221c45d5efde877161230dea703e378c78cacaab06cb050096652b5ada66e51d6020830152604082019081526107cf196040836060816007855a01fa1561014c5760409260066080939284938451905260a05160608401525a01fa1561014c57565b6020907f0c0f600d36a6c7b715486e2dc3bf3a997cdbba774e826537070edefdca76a3626080527f1edcbc14cb3011dcfdc6e42c9baf74c56eff9b7f5b9130e41eac386b03405bc960a05261071161010435610156565b61071d610124356101e0565b6107296101443561026a565b610735610164356102f4565b6107416101843561037e565b61074d6101a435610408565b6107596101c435610492565b6107656101e43561051c565b610771610204356105a6565b61077d61022435610630565b61010092818492358352837f30644e72e131a029b85045b68181585d97816a916871ca8d3c208c16d87cfd479101358103066101205260443561014052606435610160526084356101805260a4356101a0527f2d4d9aa7e302d9df41749d5507949d05dbea33fbb16c643b22f599a2be6df2e26101c0527f14bedd503c37ceb061d8ec60209fe345ce89830a19230301f076caff004d19266101e0527f0967032fcbf776d1afc985f88877f182d38480a653f2decaa9794cbc3bf3060c610200527f0e187847ad4c798374d0d6732bf501847dd68bc0e071241e0213bc7fc13db7ab610220527f304cfbd1e08a704a99f5e847d93f8c3caafddec46b7a0d379da69a4d112346a7610240527f1739c1b1a457a8c7313123d24d2f9192f896b7c63eea05a9d57f06547ad0cec8610260526080516102805260a0516102a0527f198e9393920d483a7260bfb731fb5d25f1aa493335a9e71297e485b7aef312c26102c0527f1800deef121f1e76426a00665e5c4479674322d4f75edadd46debd5cd992f6ed6102e05282610300917f090689d0585ff075ec9e99ad690c3395bc4b313370b38ef355acdadcd122975b83527f12c85ea5db8c6deb4aab71808dcb408fe3d1e7690c43d37b4ce6cc0166fa7daa610320528035610340520135610360527f2bcfd799306452da1905883feff2b255d9bb3c152108223a495e4aa35d500ca6610380527f070446392cfa8a5210cb814803265b2fc3fcce98a7546894f448f3ab9f8733826103a0527f0bbb29a132d23e9f0cd9ceb874793c2b2be0ad14d9094ccc1a3ef48c0fe285a56103c0527f113385767cc47fd3e32d25799c90ed9be921c8abd3d0daa3bc625b2d078ad6546103e0528160086107cf195a01fa9051169056fea26469706673582212207ed28e888760dfac8cd8d33b3753b9f74e289af1e5920634d526d59d191092d564736f6c634300080f0033",
  "linkReferences": {},
  "deployedLinkReferences": {}
}