{
  "_format": "hh-sol-artifact-1",
  "contractName": "Groth16Verifier",
  "sourceName": "contracts/Nft_5_100Verifier.sol",
  "abi": [
    {
      "inputs": [
        {
          "internalType": "uint256[2]",
          "name": "_pA",
          "type": "uint256[2]"
        },
        {
          "internalType": "uint256[2][2]",
          "name": "_pB",
          "type": "uint256[2][2]"
        },
        {
          "internalType": "uint256[2]",
          "name": "_pC",
          "type": "uint256[2]"
        },
        {
          "internalType": "uint256[50]",
          "name": "_pubSignals",
          "type": "uint256[50]"
        }
      ],
      "name": "verifyProof",
      "outputs": [
        {
          "internalType": "bool",
          "name": "",
          "type": "bool"
        }
      ],
      "stateMutability": "view",
      "type": "function"
    }
  ],
  "bytecode": "0x6080806040523461001657612385908161001c8239f35b600080fdfe6080604052600436101561001257600080fd5b6000803560e01c63a63bed371461002857600080fd5b346102e0576107403660031901126102e057610043366102e3565b3660c4116102dc57610054366102f5565b906107443681116102d857916102d4916102cf6020959461040060405261007d61010435610303565b61008961012435610303565b61009561014435610303565b6100a161016435610303565b6100ad61018435610303565b6100b96101a435610303565b6100c56101c435610303565b6100d16101e435610303565b6100dd61020435610303565b6100e961022435610303565b6100f561024435610303565b61010161026435610303565b61010d61028435610303565b6101196102a435610303565b6101256102c435610303565b6101316102e435610303565b61013d61030435610303565b61014961032435610303565b61015561034435610303565b61016161036435610303565b61016d61038435610303565b6101796103a435610303565b6101856103c435610303565b6101916103e435610303565b61019d61040435610303565b6101a961042435610303565b6101b561044435610303565b6101c161046435610303565b6101cd61048435610303565b6101d96104a435610303565b6101e56104c435610303565b6101f16104e435610303565b6101fd61050435610303565b61020961052435610303565b61021561054435610303565b61022161056435610303565b61022d61058435610303565b6102396105a435610303565b6102456105c435610303565b6102516105e435610303565b61025d61060435610303565b61026961062435610303565b61027561064435610303565b61028161066435610303565b61028d61068435610303565b6102996106a435610303565b6102a56106c435610303565b6102b16106e435610303565b6102bd61070435610303565b6102c961072435610303565b35610303565b611e27565b8152f35b8380fd5b5080fd5b80fd5b906004916044116102f057565b600080fd5b9060c491610104116102f057565b7f30644e72e131a029b85045b68181585d97816a916871ca8d3c208c16d87cfd47111561032c57565b6000805260206000f35b604051907f225ef1363fe2b865ceda1cb67dddd86c6e7cafeb76a210cb2c86ff5ebe520dee82527f1b8922be2a85821615bf2ecc5aaf9a805a6d3a72e498eeaf181fd802004cd7ef6020830152604082019081526107cf196040836060816007855a01fa1561032c5760409260066080939284938451905260a05160608401525a01fa1561032c57565b604051907f141992ad809a994dcc876bc1219cc7560d63ed3349305a9be13320bb8c948d0682527f0c83b4028021f65ceee2e292b1bf0b9b409bb05611c193927fd02b3027be55e86020830152604082019081526107cf196040836060816007855a01fa1561032c5760409260066080939284938451905260a05160608401525a01fa1561032c57565b604051907f114accd10240b1170f119d9c88ba052e9ab20a5a1990c86d81fbccfcb0900cc082527f1c5f706da82bf73f9be84150a94d735c32e9580ee52dca47120d2f28117384036020830152604082019081526107cf196040836060816007855a01fa1561032c5760409260066080939284938451905260a05160608401525a01fa1561032c57565b604051907f1d7268f19e05ece1cfe076fe06449c38d6bdea79daac485db02d8a1c5b39ea1582527f079d21ebfcd54f99f4942b29392737fc910b51292ec8977823d0b1518e892ba46020830152604082019081526107cf196040836060816007855a01fa1561032c5760409260066080939284938451905260a05160608401525a01fa1561032c57565b604051907f0d1ccbe97a022393669f016bfa792970f6be93c579c19d1b357bad57af6ae7be82527f294718804158a0eb71de05f170a1fd116e3b1c0c98e31ad2ac5f1ca331ab6ce26020830152604082019081526107cf196040836060816007855a01fa1561032c5760409260066080939284938451905260a05160608401525a01fa1561032c57565b604051907f1ccb23371f942e557811a838def04f181db6b6867c777ee52e81fb37497a100c82527f100376f9082dc176cb75429f61d1a9abefa06fe204ba207611dc6fc0d7dd15b96020830152604082019081526107cf196040836060816007855a01fa1561032c5760409260066080939284938451905260a05160608401525a01fa1561032c57565b604051907f0f73f27e6ac3da63de7b17ded920ccf75c3db0fe2d3a2c235fd420eebe0cf64982527f2c7aa878c1a7432ea3887769958576110f9ca66ae1a72e6c98a96569034e3ca66020830152604082019081526107cf196040836060816007855a01fa1561032c5760409260066080939284938451905260a05160608401525a01fa1561032c57565b604051907f28bf214032daff666e237fd709511b6808687253b97c084373a3de0487f7587482527f0e64f82ae1aea300c094e6a23c9727c7f69bf7405e30cc57bc7ef259e53e51df6020830152604082019081526107cf196040836060816007855a01fa1561032c5760409260066080939284938451905260a05160608401525a01fa1561032c57565b604051907f0b9f9cdfd25f6a60a620a8294485f6bd020e9c1d2b5b2384709d31c83da90b5282527f11ec85a9b1580d3d35f8b938ddc4345305e2264d12cfd3b906640f6667bbf1896020830152604082019081526107cf196040836060816007855a01fa1561032c5760409260066080939284938451905260a05160608401525a01fa1561032c57565b604051907f21e716f76d580b2aacc886f4028154bd7e80c7dbcfa57e902c2d677031a3c57982527f0c6aa6fd578f326a9fb4ddb3f94f71ad6b6f805b445ab2be80008d0a53dcfa846020830152604082019081526107cf196040836060816007855a01fa1561032c5760409260066080939284938451905260a05160608401525a01fa1561032c57565b604051907f1acd9b8877c00c9110125df27ad61e7b7ab1d6ca65f9f05350fdb2f893335cbe82527f2d5739d254401fe7f080e2e6e7818c442ec3194fc8022ac1c9c6addd0db041f06020830152604082019081526107cf196040836060816007855a01fa1561032c5760409260066080939284938451905260a05160608401525a01fa1561032c57565b604051907f139299df27ba0d6cce1ba7b8f27037c43db8ae2821434592fb49b4750be3ba9f82527f29e33e75eefa50d6f7444b83d1c24802826f5aa8d80586896fd4ebbf59682b576020830152604082019081526107cf196040836060816007855a01fa1561032c5760409260066080939284938451905260a05160608401525a01fa1561032c57565b604051907f1a12686416fb972fee045e67fefe88a6b784f55838f34db2dc4950c4728882cd82527f2d9b69e52668692b8a130b8c0e2ca6a67ffdd8785446c29701bef41fc5d8bbb46020830152604082019081526107cf196040836060816007855a01fa1561032c5760409260066080939284938451905260a05160608401525a01fa1561032c57565b604051907f1e7a6081281da71792210ed7cbc26db544e834f6d90914ac4bb382c377be500182527f10ea118167029dda8350727187316a8d1c0fc9ecab19eb5f416e50107430cef06020830152604082019081526107cf196040836060816007855a01fa1561032c5760409260066080939284938451905260a05160608401525a01fa1561032c57565b604051907f235a22ae0616b04c99e7c1a6030c57706429a0d300275248a1bea9379f2569f982527f3020fcbebd80c8842f916a81134e4d4459e19083fd8265cd7aefb007d407d9db6020830152604082019081526107cf196040836060816007855a01fa1561032c5760409260066080939284938451905260a05160608401525a01fa1561032c57565b604051907f1ffbdf19ca204134a60fa4161eafc4afd3de290dee6c085106684415b787b96682527f170f1807efe17d0569d35ca56c1e2ed4cfaf51db8817615376f2e0f594a6d68c6020830152604082019081526107cf196040836060816007855a01fa1561032c5760409260066080939284938451905260a05160608401525a01fa1561032c57565b604051907f15afffa1f885881fc671787aa8abacce0fa8c2cabfb44e395dc7fbbf9c22d1f782527f136008fb12ce5ce8d439eff9673f45ef7397e6f434c1117a6b96d07204c99f9c6020830152604082019081526107cf196040836060816007855a01fa1561032c5760409260066080939284938451905260a05160608401525a01fa1561032c57565b604051907f125875a5af161704a44a7e2bbb9aff005574c34f70d8f861ee1de6175fc76c9782527f0f95db61e67d62ee66cd37d0f1680ec7281de82e8fe3a72f71db3661f3efa1dc6020830152604082019081526107cf196040836060816007855a01fa1561032c5760409260066080939284938451905260a05160608401525a01fa1561032c57565b604051907f2b4d91909ab6d38853ba8f3f851f97d8205f2bec067764d5a8f7c78896629df182527f29acf6d2c39eb881458fc601f3711511985b2a8719ecd5e500a7369cff50cafc6020830152604082019081526107cf196040836060816007855a01fa1561032c5760409260066080939284938451905260a05160608401525a01fa1561032c57565b604051907f2044d7b083b11644cb2b92fe651e1a2cbfd7bdde199ba5e36168f33d1faf935882527f2a348ebee2f020c54fe01b05a70df232e05158dedaf65dece86e5216f3135d726020830152604082019081526107cf196040836060816007855a01fa1561032c5760409260066080939284938451905260a05160608401525a01fa1561032c57565b604051907f2adb9968fedfc6c374b7f02f2b14604ee9fc34dfaeeba4d2ee5d0a06c00c869b82527f13ee2c29adf028dbe8e7bbbed1956885a2482e98a48ef8bf0656067de3fde9526020830152604082019081526107cf196040836060816007855a01fa1561032c5760409260066080939284938451905260a05160608401525a01fa1561032c57565b604051907f140a13e39be37e01ac2a2aaff2eae426dac72abaee4988fde2962ef81ca7e8cb82527e46d10a8ba2e716f777bdeac1df637dbfda4fc338ee2d7753bf26935a3157b86020830152604082019081526107cf196040836060816007855a01fa1561032c5760409260066080939284938451905260a05160608401525a01fa1561032c57565b604051907f20bf1e4f8417dd81971ea86feb63dfce905384e197c42c6765a6c90107aeb30582527f0bd66537219917460c8aa9bf22765f5261d57f331511ad7d4e7ef5fd0b8368e76020830152604082019081526107cf196040836060816007855a01fa1561032c5760409260066080939284938451905260a05160608401525a01fa1561032c57565b604051907f0662f286e8e9f1423849f5fab0422e304166014ac04944c25acffebf8dc1e0d582527f0bb397d10117d9e6426b81bc5f257130c406401423bf47defcfa836d51021e9b6020830152604082019081526107cf196040836060816007855a01fa1561032c5760409260066080939284938451905260a05160608401525a01fa1561032c57565b604051907f22ee5b968bf8d2f9ca49a9d679c28cb16a3f62515c5ad229494dc403d014294182527f2dc0f27981d356cab2548a8033312d3e8afa5bffca6c405bbfd8c5fdf8e475fa6020830152604082019081526107cf196040836060816007855a01fa1561032c5760409260066080939284938451905260a05160608401525a01fa1561032c57565b604051907f2c5b9393567e72dea5139b57d27264e95c3d107a5e0040ed958632636774776f82527f1362c183167339e70afeaaacfaaa0b4cc96769401fb61e0aa9b908579f9105536020830152604082019081526107cf196040836060816007855a01fa1561032c5760409260066080939284938451905260a05160608401525a01fa1561032c57565b604051907f1d035f6151fbc295392ae0c0f951b82931bbd430e28a1ee38df3dba7214e40dd82527f16b67345c42c7bee44757c2c2d6ac393200167d77dc219e1680ababa8019f38d6020830152604082019081526107cf196040836060816007855a01fa1561032c5760409260066080939284938451905260a05160608401525a01fa1561032c57565b604051907f24db3936398d2b10fcc0ee8032e56c2b6d9b3b3129915d6dc90a83bc1664c27d82527f0f8cda6affdf2b6a0aff1df958edd1d167bb8a53d2b015afa9cc0ba9fa2455316020830152604082019081526107cf196040836060816007855a01fa1561032c5760409260066080939284938451905260a05160608401525a01fa1561032c57565b604051907f1766d7cdf0dd53cde38c43b95552681e428c58edd6bc7c65edddcfcdde06df5c82527f1027ce704b02180bbd6222d6cd0f1b1d5e43508f0412a1efa4d3f3ce0c965c6a6020830152604082019081526107cf196040836060816007855a01fa1561032c5760409260066080939284938451905260a05160608401525a01fa1561032c57565b604051907e20f70bae4a6cd099fb6344ffbab60cb5395cfcc890a80cf4f160423056996782527f2b1f8774716340beb0057b66c002760e690637a1c08d251a645e782af8a9e07a6020830152604082019081526107cf196040836060816007855a01fa1561032c5760409260066080939284938451905260a05160608401525a01fa1561032c57565b604051907f180a25da2a73f272f5600f6ef83e2f89c5303d97421a6f29dfd8ff9f441292b082527f0742bf181c3a9cc4ba37f48c6402011e852249cffd22f482ce45a4a6397bbfff6020830152604082019081526107cf196040836060816007855a01fa1561032c5760409260066080939284938451905260a05160608401525a01fa1561032c57565b604051907f29d26630ddaeee21d65a835183b9ffe1ca7b689993b430c87fa1962a18e5f67e82527f02f24e55f59a3a4a0efe46911a320434eb1531c1f2a27e6045715f4664bfb70a6020830152604082019081526107cf196040836060816007855a01fa1561032c5760409260066080939284938451905260a05160608401525a01fa1561032c57565b604051907f1722e65acb6d928a5cad893bf3565187a74e9126ccb313cebe441fd12e1ceef182527f145efa42dda40bb84c27199985db1b00923f0906d6223a134e5226f8e8013b0e6020830152604082019081526107cf196040836060816007855a01fa1561032c5760409260066080939284938451905260a05160608401525a01fa1561032c57565b604051907f265c012c14cdc0b823d33978fcc1d53a26f40464ef6e97124f697cfe3e127e5482527f01053459d4c600a39a4db22b2a7d75aa5b57941c4965bd21f8d888aeab94f0bc6020830152604082019081526107cf196040836060816007855a01fa1561032c5760409260066080939284938451905260a05160608401525a01fa1561032c57565b604051907f0950cdc52f450d6e48ba3d9f2eb1e4585322fc32025c567b48970708d09b352082527f09ce8f24401c037627d3636c59382ac388bf3825c0983f5123626145f852b9836020830152604082019081526107cf196040836060816007855a01fa1561032c5760409260066080939284938451905260a05160608401525a01fa1561032c57565b604051907f2a6c8f27de413a052e3c96e84cf78f924814f3f60e8a4041322bc703a3d4dfed82527f16c8ec0586c61a31f0be2978815293c7f68bf202f3bfef112d99c029d091f86a6020830152604082019081526107cf196040836060816007855a01fa1561032c5760409260066080939284938451905260a05160608401525a01fa1561032c57565b604051907f1b26981d762eceb1b74a197ed12a9824c8597616dd8641028d4ab8ea158c025882527f1a7636eba47a6e351bf36a1349f5afcd6fd7bfd309cc5bd70a31c4f89a677ad16020830152604082019081526107cf196040836060816007855a01fa1561032c5760409260066080939284938451905260a05160608401525a01fa1561032c57565b604051907f1030d2873dfa6752ca0727b58f47a313fc3b9a4612e8a3eb20ca5476e11274cf82527f08f93d7c362b5bf0d4c05b8f2eb2ae0568e20963b21e95e769ba7d814e5c3e666020830152604082019081526107cf196040836060816007855a01fa1561032c5760409260066080939284938451905260a05160608401525a01fa1561032c57565b604051907f26dd9af8a81d0a35583e012254966026c3cfba906887afd2c3aafd9504ee0da982527f0d1a404599506a1364b12871342a21b207597e331f34dc899d5cec2860366af96020830152604082019081526107cf196040836060816007855a01fa1561032c5760409260066080939284938451905260a05160608401525a01fa1561032c57565b604051907f09a642acf6a5d40cc63f0df7a9291cc265d42b6587e05a5ac549031ab15aa21482527f17c6dd1600da2b142329e12455d17906061629f880ec895ec140eed8f81630bb6020830152604082019081526107cf196040836060816007855a01fa1561032c5760409260066080939284938451905260a05160608401525a01fa1561032c57565b604051907f048da26f02464a98d272526c23dacf41a83a16359f67b20cd73da7d35262341e82527f1d50fd8a18a48fb5d7513592b68f5175eb40ed495f8682fa34654eca558870406020830152604082019081526107cf196040836060816007855a01fa1561032c5760409260066080939284938451905260a05160608401525a01fa1561032c57565b604051907f30554a83365d3d79dcb2ee938cd29c9e893eb162eb93bc2639b88c9748f47b2082527f1fb24226e44140a0220a403caf2767c65b9e9074e1fbb835b7ed1c582489882a6020830152604082019081526107cf196040836060816007855a01fa1561032c5760409260066080939284938451905260a05160608401525a01fa1561032c57565b604051907f20a84933566763fe28ec8b9fcec9a2d9419b3bd97f7e89955043ca4e91a9e62382527f19e6355afcc39334408950ee8b2fac4cc12cd9328b59c8e54e4e40b3fd4f49656020830152604082019081526107cf196040836060816007855a01fa1561032c5760409260066080939284938451905260a05160608401525a01fa1561032c57565b604051907f17b3e79b1dfc615af8ed8b5b51fa4608edddf301589186e5be836aab01bcd3da82527f0a5007df021403408d35ab07603fbf2c832e8a7e34dfede384fb45e34dda08c36020830152604082019081526107cf196040836060816007855a01fa1561032c5760409260066080939284938451905260a05160608401525a01fa1561032c57565b604051907f2a0c1c40eaa11dd726bef465c6bf9a7bc6d1a57a4e9fa7a3c4b41df2abad1b4c82527f1924f5ae7f4db9ce9ac8b0360dece17dfe37836b527b0355d65961945f8fead56020830152604082019081526107cf196040836060816007855a01fa1561032c5760409260066080939284938451905260a05160608401525a01fa1561032c57565b604051907f2128d16a136abcd1c405ebf774764131a180e7d4ead23ec4799438506ba6646a82527f23e2d62598f164be2172dac7ccd5383aed5ec38ee55d2c0049e29233c84c40b06020830152604082019081526107cf196040836060816007855a01fa1561032c5760409260066080939284938451905260a05160608401525a01fa1561032c57565b604051907f2ad7bbc256ec559d4a613dff69e88956d3bfe28cfa647b3578f5a3a1a5d31b0e82527f2f66b772bde537af61eb76895a69f42f8f53ce1bafeba77c7d4256b82b99ea5f6020830152604082019081526107cf196040836060816007855a01fa1561032c5760409260066080939284938451905260a05160608401525a01fa1561032c57565b604051907e94e17b3b1a765da8b5eb4fda931004b732472a813c581adbf00bccdce8202e82527f1ad3a8ee4261cd2df138a35a00960467f7aa7eeda8ef0c55501d5dc5c4033a896020830152604082019081526107cf196040836060816007855a01fa1561032c5760409260066080939284938451905260a05160608401525a01fa1561032c57565b604051907f28e90d766c809642529a3b085a4f077fed41949a186315bbeec7a4f2c89908e482527f27f5b4322c4b35382d250efd600047d9fed1e61c694612dbb39cf0ff4d9c61e36020830152604082019081526107cf196040836060816007855a01fa1561032c5760409260066080939284938451905260a05160608401525a01fa1561032c57565b604051907f09d85e9fd844a9547ce32f448e7cfa33b706d740da10e7a2d1ba56bfefe64aac82527f1adb2647bac6db7abfbe5733673e4a0c47e7cedf75995db5f27e8b02fe7fa41d6020830152604082019081526107cf196040836060816007855a01fa1561032c5760409260066080939284938451905260a05160608401525a01fa1561032c57565b6020907f0159c037ca11f26eb90cd84ac9240088419c6aec883120695dd54ae380d6ab456080527f288de41e9b202923ee9301389ca47319ab523a890a1e6d4e5d837534aa707e6c60a052611e7e61010435610336565b611e8a610124356103c0565b611e966101443561044a565b611ea2610164356104d4565b611eae6101843561055e565b611eba6101a4356105e8565b611ec66101c435610672565b611ed26101e4356106fc565b611ede61020435610786565b611eea61022435610810565b611ef66102443561089a565b611f0261026435610924565b611f0e610284356109ae565b611f1a6102a435610a38565b611f266102c435610ac2565b611f326102e435610b4c565b611f3e61030435610bd6565b611f4a61032435610c60565b611f5661034435610cea565b611f6261036435610d74565b611f6e61038435610dfe565b611f7a6103a435610e88565b611f866103c435610f11565b611f926103e435610f9b565b611f9e61040435611025565b611faa610424356110af565b611fb661044435611139565b611fc2610464356111c3565b611fce6104843561124d565b611fda6104a4356112d7565b611fe66104c435611360565b611ff26104e4356113ea565b611ffe61050435611474565b61200a610524356114fe565b61201661054435611588565b61202261056435611612565b61202e6105843561169c565b61203a6105a435611726565b6120466105c4356117b0565b6120526105e43561183a565b61205e610604356118c4565b61206a6106243561194e565b612076610644356119d8565b61208261066435611a62565b61208e61068435611aec565b61209a6106a435611b76565b6120a66106c435611c00565b6120b26106e435611c8a565b6120be61070435611d13565b6120ca61072435611d9d565b61010092818492358352837f30644e72e131a029b85045b68181585d97816a916871ca8d3c208c16d87cfd479101358103066101205260443561014052606435610160526084356101805260a4356101a0527f2d4d9aa7e302d9df41749d5507949d05dbea33fbb16c643b22f599a2be6df2e26101c0527f14bedd503c37ceb061d8ec60209fe345ce89830a19230301f076caff004d19266101e0527f0967032fcbf776d1afc985f88877f182d38480a653f2decaa9794cbc3bf3060c610200527f0e187847ad4c798374d0d6732bf501847dd68bc0e071241e0213bc7fc13db7ab610220527f304cfbd1e08a704a99f5e847d93f8c3caafddec46b7a0d379da69a4d112346a7610240527f1739c1b1a457a8c7313123d24d2f9192f896b7c63eea05a9d57f06547ad0cec8610260526080516102805260a0516102a0527f198e9393920d483a7260bfb731fb5d25f1aa493335a9e71297e485b7aef312c26102c0527f1800deef121f1e76426a00665e5c4479674322d4f75edadd46debd5cd992f6ed6102e05282610300917f090689d0585ff075ec9e99ad690c3395bc4b313370b38ef355acdadcd122975b83527f12c85ea5db8c6deb4aab71808dcb408fe3d1e7690c43d37b4ce6cc0166fa7daa610320528035610340520135610360527f127494e20a8d8ae2cfbf8aca1bbf4f8a4d161155a831672c2b21598537d84b82610380527f17ddd49ef6b9d266ad3d67fb7aaffed07e9d169048854f82118deaada0048c5e6103a0527f172a7ff8da262bba37eae338b08d02b74eefe37036dcf1ced00eb9b302d287126103c0527f22c08d954f5040edc8e5299a390079b5e9715ebe38bf9815d624922cc9ed21df6103e0528160086107cf195a01fa9051169056fea264697066735822122068e9387a68343865b36e074811afc7eeb52f9053e0d1f056c7961c360f7a73dc64736f6c634300080f0033",
  "linkReferences": {},
  "deployedLinkReferences": {}
}