{
  "_format": "hh-sol-artifact-1",
  "contractName": "Groth16Verifier",
  "sourceName": "contracts/Game_5_20Verifier.sol",
  "abi": [
    {
      "inputs": [
        {
          "internalType": "uint256[2]",
          "name": "_pA",
          "type": "uint256[2]"
        },
        {
          "internalType": "uint256[2][2]",
          "name": "_pB",
          "type": "uint256[2][2]"
        },
        {
          "internalType": "uint256[2]",
          "name": "_pC",
          "type": "uint256[2]"
        },
        {
          "internalType": "uint256[50]",
          "name": "_pubSignals",
          "type": "uint256[50]"
        }
      ],
      "name": "verifyProof",
      "outputs": [
        {
          "internalType": "bool",
          "name": "",
          "type": "bool"
        }
      ],
      "stateMutability": "view",
      "type": "function"
    }
  ],
  "bytecode": "0x6080806040523461001657612386908161001c8239f35b600080fdfe6080604052600436101561001257600080fd5b6000803560e01c63a63bed371461002857600080fd5b346102e0576107403660031901126102e057610043366102e3565b3660c4116102dc57610054366102f5565b906107443681116102d857916102d4916102cf6020959461040060405261007d61010435610303565b61008961012435610303565b61009561014435610303565b6100a161016435610303565b6100ad61018435610303565b6100b96101a435610303565b6100c56101c435610303565b6100d16101e435610303565b6100dd61020435610303565b6100e961022435610303565b6100f561024435610303565b61010161026435610303565b61010d61028435610303565b6101196102a435610303565b6101256102c435610303565b6101316102e435610303565b61013d61030435610303565b61014961032435610303565b61015561034435610303565b61016161036435610303565b61016d61038435610303565b6101796103a435610303565b6101856103c435610303565b6101916103e435610303565b61019d61040435610303565b6101a961042435610303565b6101b561044435610303565b6101c161046435610303565b6101cd61048435610303565b6101d96104a435610303565b6101e56104c435610303565b6101f16104e435610303565b6101fd61050435610303565b61020961052435610303565b61021561054435610303565b61022161056435610303565b61022d61058435610303565b6102396105a435610303565b6102456105c435610303565b6102516105e435610303565b61025d61060435610303565b61026961062435610303565b61027561064435610303565b61028161066435610303565b61028d61068435610303565b6102996106a435610303565b6102a56106c435610303565b6102b16106e435610303565b6102bd61070435610303565b6102c961072435610303565b35610303565b611e28565b8152f35b8380fd5b5080fd5b80fd5b906004916044116102f057565b600080fd5b9060c491610104116102f057565b7f30644e72e131a029b85045b68181585d97816a916871ca8d3c208c16d87cfd47111561032c57565b6000805260206000f35b604051907f0af28ec04d1b07a64e9ceedc554539317854de69d747fe7ba8490ab218c6b8e782527f26f8e6a76de558e3370f106448c3ae9a0385cdf931b0b60d0586a3f5f0fc15ea6020830152604082019081526107cf196040836060816007855a01fa1561032c5760409260066080939284938451905260a05160608401525a01fa1561032c57565b604051907f1ee962ca7b31089a27a0f9971e744a8042178e621758ffa8483753c1d4abc22e82527f195efd8b2494d9d1f45420ae880236b0d9669f6d3d476b7107763d6d736accc06020830152604082019081526107cf196040836060816007855a01fa1561032c5760409260066080939284938451905260a05160608401525a01fa1561032c57565b604051907f080e78db33c900f818a3bb592fb12851a885b6c4e7cd043079ba15ba9696647182527f165cc7bba739f41532305136abe7da59ea2dcd9cb29af0b69791012935b41fbc6020830152604082019081526107cf196040836060816007855a01fa1561032c5760409260066080939284938451905260a05160608401525a01fa1561032c57565b604051907f0683e046e44249b823ddb1b4dff9721764f331f60cb8c90621563f2062f40e3282527f0a0890622039a7dfcec7b38a008c5aa2cf9925e4c0121d16158199c4503ca1a76020830152604082019081526107cf196040836060816007855a01fa1561032c5760409260066080939284938451905260a05160608401525a01fa1561032c57565b604051907f2e3e3c46f05551cd76b93e1c966e3c75d33bbce0f7cf65283bdb60986700685882527f2f883538f04eabad36f0c885524e8016716ad8046ffc297314b74f1ff71bf5ff6020830152604082019081526107cf196040836060816007855a01fa1561032c5760409260066080939284938451905260a05160608401525a01fa1561032c57565b604051907f2fd76f81f1647debb4a3c1e611afab6bf6d4f80b3d92b919967040cd013a44c382527f214915276747fc0290944ae2193b46811c98b8cca940b1a21fcb0f528a810c4c6020830152604082019081526107cf196040836060816007855a01fa1561032c5760409260066080939284938451905260a05160608401525a01fa1561032c57565b604051907f1c137417ad7bf4a6ade30ce52e85fff3c7cb0155bdca74af11d5f828e98ea42082527f28352546ef4c9169054fcd9adacfab452795263d815de81475dff504e43b49486020830152604082019081526107cf196040836060816007855a01fa1561032c5760409260066080939284938451905260a05160608401525a01fa1561032c57565b604051907f2fb1b2807bf88eb5ed7bb75eeff2fb5912f4c182d1381869b0a4c9a3f7515c2782527f1df934a2ccdf15eef33f590f77c90040e4a463b74ae677c376cfd1f2f67c5ae36020830152604082019081526107cf196040836060816007855a01fa1561032c5760409260066080939284938451905260a05160608401525a01fa1561032c57565b604051907f059fdd74e00845594b22fb307f1cabe7458ab106b81e4df6d1272a9aca681e0982527f027ffee0ab6ea93106763a4b8e45c07f95529716c6fb32e1da45de478d5140656020830152604082019081526107cf196040836060816007855a01fa1561032c5760409260066080939284938451905260a05160608401525a01fa1561032c57565b604051907f2adf848192a1599703293e3f450b079423b302c3c4d07885c209859213498adc82527e9e1119e14aaf2b6220aee36b4883dced4816f7bfa4bd61f7bc546ae941c7fd6020830152604082019081526107cf196040836060816007855a01fa1561032c5760409260066080939284938451905260a05160608401525a01fa1561032c57565b604051907f21b98bdcf41a88a1aee9dd300d9c614aabcac7d8b064a6ea578ff49573f7b17e82527f2111fc0d489e4f324adbea3391239785aa7416b5d381f809c9de783eba8670c96020830152604082019081526107cf196040836060816007855a01fa1561032c5760409260066080939284938451905260a05160608401525a01fa1561032c57565b604051907f2ab13f61d73d42537406f3759d0100750d115e824f44b164b525df994c55177a82527f2d51c7446073f0d86274f7b7e4d705f60fc16c48ac3a71fa466a86362c5193dd6020830152604082019081526107cf196040836060816007855a01fa1561032c5760409260066080939284938451905260a05160608401525a01fa1561032c57565b604051907f076739e2d743d3ab75e5251b4b622ef8de24b71f67d05962dd7431afd799409b82527f0d2fdf7d78a4a71a0a391634cdcc1df875f1fc15c8fb37d93379a9137eaa57066020830152604082019081526107cf196040836060816007855a01fa1561032c5760409260066080939284938451905260a05160608401525a01fa1561032c57565b604051907f25146c1004ec106d476bf8f5f658722d50e2c20eb2296a5b09a8aa0375faefa282527f2427dd0f5f9d1ae8e69da7f995169325db63b0f866c7e2ddc780160c942c55ed6020830152604082019081526107cf196040836060816007855a01fa1561032c5760409260066080939284938451905260a05160608401525a01fa1561032c57565b604051907f02a9175691508d74fc008f224a914e7fc23d8c22c3a0687fa3e80bcf6145063682527f12555cb819a2bc694bfccb17e4021d8ed4766b461d07e53636a98e9a89af2af66020830152604082019081526107cf196040836060816007855a01fa1561032c5760409260066080939284938451905260a05160608401525a01fa1561032c57565b604051907f25693b76cb8fffc5081e71e6d07dd00d634d05b9f6f32c7fc2100b0d18f9a4b182527f1cc6e7e47d970ebd5807e972aebea025be765674022070cbd2ae0d316e4163646020830152604082019081526107cf196040836060816007855a01fa1561032c5760409260066080939284938451905260a05160608401525a01fa1561032c57565b604051907f2e66a21ba1dd57ba8aa05635005724463f83a0511738e055cc823ae54c19858f82527f267b29fb966a4fe30f3b20f7f4f1fcbecd8ac2580c5ce5c4d8c5c1bc473c016a6020830152604082019081526107cf196040836060816007855a01fa1561032c5760409260066080939284938451905260a05160608401525a01fa1561032c57565b604051907f11244c5cdf644b737259cf7438d1d26148b348ee7f569a793a587a0e860f5d0282527f288d645603674c7241fe3db5b9c77a5186802184f63431158d77526041a755ea6020830152604082019081526107cf196040836060816007855a01fa1561032c5760409260066080939284938451905260a05160608401525a01fa1561032c57565b604051907f092d45c54b8b50e860ecbeb0bb46dc6f99809c5c5b336d525eb2e443c23fc74882527f1cdfcc8aba8016cd705167c00b8cb68c4c65baf9274f152f21f995ea2d39e7276020830152604082019081526107cf196040836060816007855a01fa1561032c5760409260066080939284938451905260a05160608401525a01fa1561032c57565b604051907f0d11e73a3dd3caedd4e9de8a3850b21984e129bb6840e1cba16df8007e2c271282527f19fbc12ebc42aa63959b2b5a0b7b7b1a58e8adc58589b59fa0481ada0b756ae16020830152604082019081526107cf196040836060816007855a01fa1561032c5760409260066080939284938451905260a05160608401525a01fa1561032c57565b604051907f28dcc457784448153e73b2a289cd2cbdf7824c27975ffbde04d91119201899bc82527f08ef070add80fd3635c90e5f19dad50ab25f80a982cc86a22e23d12cdd16ef306020830152604082019081526107cf196040836060816007855a01fa1561032c5760409260066080939284938451905260a05160608401525a01fa1561032c57565b604051907f1a6650a0d45a59e1de3c6123f6e72fa367d5451c4569cad29113168a0a0f9c1d82527f039ff89f9201010957d0e95fedaece66352c6d9a5a177c553610f291620082546020830152604082019081526107cf196040836060816007855a01fa1561032c5760409260066080939284938451905260a05160608401525a01fa1561032c57565b604051907f0ac90f58a409fca16eab32c508f94ef979e7d564428dd7bdac9d6f04584e641482527f2ed79ae9d6fac906609b145043ebde6af7525bc3a4e59b32adf543d18eed281f6020830152604082019081526107cf196040836060816007855a01fa1561032c5760409260066080939284938451905260a05160608401525a01fa1561032c57565b604051907f20983337269522d107e86161bafd539127a87757c8897094901d6267e14a8dc782527f2eac61b0dc1b4fa384acce405c624be2d0b86d9af50436e577047af7e5b1ce216020830152604082019081526107cf196040836060816007855a01fa1561032c5760409260066080939284938451905260a05160608401525a01fa1561032c57565b604051907f18687b518a1813833f22b82138f72dd08d42340a71b8d26de33b22a02f7d0dd582527f1811da0afb1c2e1206ea3c0e4021368c59939fccf6a9fb5afbd1c95920bc9e1f6020830152604082019081526107cf196040836060816007855a01fa1561032c5760409260066080939284938451905260a05160608401525a01fa1561032c57565b604051907f0430118b33154766eee501df79e70154184634dbe88501654ece94828eb5ac9882527f048d76cbf80215d0f3cad2c4041d175aff8d2d0191a2cc31356f1a4706bba3a06020830152604082019081526107cf196040836060816007855a01fa1561032c5760409260066080939284938451905260a05160608401525a01fa1561032c57565b604051907f1b7e478d83c555a027323a7e202ae7b90d25fe7dbeceaf18e1e5ed612985ffea82527f232b3279344b79a4c65ac412b1b2fc5cd36427fbafc48d67b61b68955119b2f26020830152604082019081526107cf196040836060816007855a01fa1561032c5760409260066080939284938451905260a05160608401525a01fa1561032c57565b604051907f24c5a78b6047c560184bbd2cf0f034dad30ba0a2e11b19c52ae3b30a1fe4710f82527f05f996815dfcb31ce5c864fbae74283ea539c06330bde836b5e678ed433c22806020830152604082019081526107cf196040836060816007855a01fa1561032c5760409260066080939284938451905260a05160608401525a01fa1561032c57565b604051907f19cef8051ffb1ae95a9ee73677c9c6f76296fe461db01e87555a0c417dfa0c2a82527f1ec6011b22658ce5d9cef73a30fb89213848bca9b783c1120f49fa7f8e2895e46020830152604082019081526107cf196040836060816007855a01fa1561032c5760409260066080939284938451905260a05160608401525a01fa1561032c57565b604051907f24a7f8002e27d09f66c739b82f0f686c664f41cbcf1b998ba41b844d7add9d8782527f296c270663543ae7921d790eeb5804a00922aeb0fde24d483f8457d2e46993a36020830152604082019081526107cf196040836060816007855a01fa1561032c5760409260066080939284938451905260a05160608401525a01fa1561032c57565b604051907f0eeeb6b7ebb92d83750f5340034aee5042a9735fae8273e8290b0621d7fd069f82527f0ae00ee218f47b40d0410c46f0a82e6022fe87b2ca90636ca40827180113fd3e6020830152604082019081526107cf196040836060816007855a01fa1561032c5760409260066080939284938451905260a05160608401525a01fa1561032c57565b604051907f0449bc88fbbf8b0e9c8313b17321a0ed999e7351e0535d07ea8dea4d9e2746d682527f05f82e52a288edf9f6b97374aa956ac026879efff8d399abec401e6bf201e49c6020830152604082019081526107cf196040836060816007855a01fa1561032c5760409260066080939284938451905260a05160608401525a01fa1561032c57565b604051907f27939730e7ba06e66ceda7d2ed0656bee8a6aa2dfaea684ca6aa0460c04f141382527f020567431f8b3d53e8e23f6dd06aaf149825a34960c8ffa3f94c2c2aaa409b086020830152604082019081526107cf196040836060816007855a01fa1561032c5760409260066080939284938451905260a05160608401525a01fa1561032c57565b604051907f2423c37ef3ab9bf7caf4a9a1b3fbabb9578bc40bf9c59f67a336777130bd514382527f1414486148e22a7a085aceb630e67d70580f216f14097ea72b8d7dcaff717c4a6020830152604082019081526107cf196040836060816007855a01fa1561032c5760409260066080939284938451905260a05160608401525a01fa1561032c57565b604051907f2c1be6970046f682f3711e0ef9f97a5f09ef8cbab61399f1f7ab93dc5251d10f82527f2b9d31514d55a70d94f5f11f349438a80c8d80ee3269e1179a934f74e9e57fb26020830152604082019081526107cf196040836060816007855a01fa1561032c5760409260066080939284938451905260a05160608401525a01fa1561032c57565b604051907f1dd3f696ee7217fe0ab07b31eab5757f78ac15ba5a9a7d937e0846d21cf6aaad82527f101dd01cc17cc18b5b4e0c3dc39bf1c9dc3a46f582e5d320116890cdbd0c4aba6020830152604082019081526107cf196040836060816007855a01fa1561032c5760409260066080939284938451905260a05160608401525a01fa1561032c57565b604051907f02837e628edc2c5b7ddfc0ad315e40b8563d3f1d670368951c08255865cbadd982527f2ce85bdcd61641468a65020c959565e6d09c03e383f0911ebc6927ad283024216020830152604082019081526107cf196040836060816007855a01fa1561032c5760409260066080939284938451905260a05160608401525a01fa1561032c57565b604051907f1b00599cf9f29e00b8aaa7f8d0f24dfbca98c1856d5d1b27891990fd06c405c282527f0714f002a1fdfecfe72b2ba70bfc386098d6a67bea9a6075433cd59059444a7f6020830152604082019081526107cf196040836060816007855a01fa1561032c5760409260066080939284938451905260a05160608401525a01fa1561032c57565b604051907f16eae03fbef85d4065c404fa25104e25180aa33248c1f49f3a43469ad9d4942f82527f059be083eb4561862582c67e1b568a3939d2d0c903beefcebf462c20684746246020830152604082019081526107cf196040836060816007855a01fa1561032c5760409260066080939284938451905260a05160608401525a01fa1561032c57565b604051907f22f0e5f53796e0bd660b712f64d58288df059fbc94fba7fa6eb6b6ba162870fb82527f2e7eb2bcb5c9a848c0f24f67dd2d91faf77b96743abe5fa5ef89f86d84c46b786020830152604082019081526107cf196040836060816007855a01fa1561032c5760409260066080939284938451905260a05160608401525a01fa1561032c57565b604051907f1b49d961d8d02ff3ca25c63a91875e2fce087ae5e1bc78a39f117be47d31600182527f0ba103dc885cfad95f7e613c93c899e659f1a3d17abe91b7519ad07b317d48726020830152604082019081526107cf196040836060816007855a01fa1561032c5760409260066080939284938451905260a05160608401525a01fa1561032c57565b604051907f140bb0e662f1813d535d4c2473956140ca30341c8f72c40d9dc5ab045168cf5282527f26829020d42bac5935a263f3f5f302adcf93029aa0413f447124d124d9308feb6020830152604082019081526107cf196040836060816007855a01fa1561032c5760409260066080939284938451905260a05160608401525a01fa1561032c57565b604051907f2ab694a28287ed7d435dbe21b81de58a9b58e2960feb6efde0ec30d771af2c2282527f1a32089a3f44ab938327844bc1bf820c35514d4f7d14d7273e1bbffe308456106020830152604082019081526107cf196040836060816007855a01fa1561032c5760409260066080939284938451905260a05160608401525a01fa1561032c57565b604051907f03380bed44331abcf35e87ade911c6a11c8531e0f214e92e38fbbb5b90ec2c4082527f15da0e22ca0f42704240434e5be8d709bc00bff10757a40dea05096d367b3ce86020830152604082019081526107cf196040836060816007855a01fa1561032c5760409260066080939284938451905260a05160608401525a01fa1561032c57565b604051907f169bcec33371c6fb7307b6dc74de73dca9cf0494324d8ce6d8a51db409de685882527f01481ab3bae97a0e7dac38bd71aa782f7f8beb9ba11951130b5954eb3a40320c6020830152604082019081526107cf196040836060816007855a01fa1561032c5760409260066080939284938451905260a05160608401525a01fa1561032c57565b604051907f10458be86a8b910b3b384008c2e4033520724f3d9ca6659d2c78e74777cbed2b82527f0b609564e6e90cca132abf4ebb48f8642b23603a8b3a7ecf51b4c7cacdd6e9086020830152604082019081526107cf196040836060816007855a01fa1561032c5760409260066080939284938451905260a05160608401525a01fa1561032c57565b604051907f08c5581d904a90105f47e9f40083b145b2bd02799d287cfeb86f580dfa91387082527f24740b5831a45f314365a2aa1b335d28ab9eee232af8f08089ea7eb23725418d6020830152604082019081526107cf196040836060816007855a01fa1561032c5760409260066080939284938451905260a05160608401525a01fa1561032c57565b604051907f2831acd7e85e8950ca32bf7e8cfda3a04c2d83fd9f8319e24de2c18f22a56daa82527f2b1fa5bb2047efe11609cf25a86b6dc8f12593e4430a93da2458e2083842fbf16020830152604082019081526107cf196040836060816007855a01fa1561032c5760409260066080939284938451905260a05160608401525a01fa1561032c57565b604051907f01103f01aba31bb093437199f3d1b9de5304c09a8a7a5c7f3db1d83883067d2c82527eef39487b2943d2f60c32fa8b3ba51b7ef89cfd1154731b8bd7d43f4dd1f8406020830152604082019081526107cf196040836060816007855a01fa1561032c5760409260066080939284938451905260a05160608401525a01fa1561032c57565b604051907f2a7784c1fb99b8a8fedb5e3d60e979789a7aa5ea6f6ca7cb9b8f4ac49d44889982527f0b8cf53e21fd323bf91d4c7dfc0af7c230f0bcba803913aa4b64fc97652e40206020830152604082019081526107cf196040836060816007855a01fa1561032c5760409260066080939284938451905260a05160608401525a01fa1561032c57565b6020907f25f8352bd783f0c5b8a8227a03d1844fd7997fbfaa52d263bdbecc9f339945c76080527f2fd71a5119e139840036acdd65141b0c096945f0003848605b6e581acedabbbe60a052611e7f61010435610336565b611e8b610124356103c0565b611e976101443561044a565b611ea3610164356104d4565b611eaf6101843561055e565b611ebb6101a4356105e8565b611ec76101c435610672565b611ed36101e4356106fc565b611edf61020435610786565b611eeb61022435610810565b611ef761024435610899565b611f0361026435610923565b611f0f610284356109ad565b611f1b6102a435610a37565b611f276102c435610ac1565b611f336102e435610b4b565b611f3f61030435610bd5565b611f4b61032435610c5f565b611f5761034435610ce9565b611f6361036435610d73565b611f6f61038435610dfd565b611f7b6103a435610e87565b611f876103c435610f11565b611f936103e435610f9b565b611f9f61040435611025565b611fab610424356110af565b611fb761044435611139565b611fc3610464356111c3565b611fcf6104843561124d565b611fdb6104a4356112d7565b611fe76104c435611361565b611ff36104e4356113eb565b611fff61050435611475565b61200b610524356114ff565b61201761054435611589565b61202361056435611613565b61202f6105843561169d565b61203b6105a435611727565b6120476105c4356117b1565b6120536105e43561183b565b61205f610604356118c5565b61206b6106243561194f565b612077610644356119d9565b61208361066435611a63565b61208f61068435611aed565b61209b6106a435611b77565b6120a76106c435611c01565b6120b36106e435611c8b565b6120bf61070435611d15565b6120cb61072435611d9e565b61010092818492358352837f30644e72e131a029b85045b68181585d97816a916871ca8d3c208c16d87cfd479101358103066101205260443561014052606435610160526084356101805260a4356101a0527f2d4d9aa7e302d9df41749d5507949d05dbea33fbb16c643b22f599a2be6df2e26101c0527f14bedd503c37ceb061d8ec60209fe345ce89830a19230301f076caff004d19266101e0527f0967032fcbf776d1afc985f88877f182d38480a653f2decaa9794cbc3bf3060c610200527f0e187847ad4c798374d0d6732bf501847dd68bc0e071241e0213bc7fc13db7ab610220527f304cfbd1e08a704a99f5e847d93f8c3caafddec46b7a0d379da69a4d112346a7610240527f1739c1b1a457a8c7313123d24d2f9192f896b7c63eea05a9d57f06547ad0cec8610260526080516102805260a0516102a0527f198e9393920d483a7260bfb731fb5d25f1aa493335a9e71297e485b7aef312c26102c0527f1800deef121f1e76426a00665e5c4479674322d4f75edadd46debd5cd992f6ed6102e05282610300917f090689d0585ff075ec9e99ad690c3395bc4b313370b38ef355acdadcd122975b83527f12c85ea5db8c6deb4aab71808dcb408fe3d1e7690c43d37b4ce6cc0166fa7daa610320528035610340520135610360527f1fc757c200e44c452966ff6e1f137ff260b71d55f5d6a32a3e8a8433bb4fcd10610380527f247edd6742a928090efdc54c2521b0fff8977439050e34aeb9e42e10f0c9f2376103a0527f056fa72dee6883a6f7ceea3b743cb25cdf160fc0e776ae652359f189445981146103c0527f18ffcbb6e67b6c0c04d82bd2744b80c3b1726e810778f385b9724088b8ea38506103e0528160086107cf195a01fa9051169056fea2646970667358221220072e414a62c8cc84239de5ae1fd3779f6e1628782f8f5534784584dfd0d4265c64736f6c634300080f0033",
  "linkReferences": {},
  "deployedLinkReferences": {}
}