{
  "_format": "hh-sol-artifact-1",
  "contractName": "Groth16Verifier",
  "sourceName": "contracts/Game_10_50Verifier.sol",
  "abi": [
    {
      "inputs": [
        {
          "internalType": "uint256[2]",
          "name": "_pA",
          "type": "uint256[2]"
        },
        {
          "internalType": "uint256[2][2]",
          "name": "_pB",
          "type": "uint256[2][2]"
        },
        {
          "internalType": "uint256[2]",
          "name": "_pC",
          "type": "uint256[2]"
        },
        {
          "internalType": "uint256[112]",
          "name": "_pubSignals",
          "type": "uint256[112]"
        }
      ],
      "name": "verifyProof",
      "outputs": [
        {
          "internalType": "bool",
          "name": "",
          "type": "bool"
        }
      ],
      "stateMutability": "view",
      "type": "function"
    }
  ],
  "bytecode": "0x6080806040523461001657614abf908161001c8239f35b600080fdfe6080604052600436101561001257600080fd5b6000803560e01c632f8bd27a1461002857600080fd5b346105c857610f003660031901126105c857610043366105cb565b3660c4116105c457610054366105dd565b90610f043681116105c057916105bc916105b76020959461040060405261007d610104356105eb565b610089610124356105eb565b610095610144356105eb565b6100a1610164356105eb565b6100ad610184356105eb565b6100b96101a4356105eb565b6100c56101c4356105eb565b6100d16101e4356105eb565b6100dd610204356105eb565b6100e9610224356105eb565b6100f5610244356105eb565b610101610264356105eb565b61010d610284356105eb565b6101196102a4356105eb565b6101256102c4356105eb565b6101316102e4356105eb565b61013d610304356105eb565b610149610324356105eb565b610155610344356105eb565b610161610364356105eb565b61016d610384356105eb565b6101796103a4356105eb565b6101856103c4356105eb565b6101916103e4356105eb565b61019d610404356105eb565b6101a9610424356105eb565b6101b5610444356105eb565b6101c1610464356105eb565b6101cd610484356105eb565b6101d96104a4356105eb565b6101e56104c4356105eb565b6101f16104e4356105eb565b6101fd610504356105eb565b610209610524356105eb565b610215610544356105eb565b610221610564356105eb565b61022d610584356105eb565b6102396105a4356105eb565b6102456105c4356105eb565b6102516105e4356105eb565b61025d610604356105eb565b610269610624356105eb565b610275610644356105eb565b610281610664356105eb565b61028d610684356105eb565b6102996106a4356105eb565b6102a56106c4356105eb565b6102b16106e4356105eb565b6102bd610704356105eb565b6102c9610724356105eb565b6102d5610744356105eb565b6102e1610764356105eb565b6102ed610784356105eb565b6102f96107a4356105eb565b6103056107c4356105eb565b6103116107e4356105eb565b61031d610804356105eb565b610329610824356105eb565b610335610844356105eb565b610341610864356105eb565b61034d610884356105eb565b6103596108a4356105eb565b6103656108c4356105eb565b6103716108e4356105eb565b61037d610904356105eb565b610389610924356105eb565b610395610944356105eb565b6103a1610964356105eb565b6103ad610984356105eb565b6103b96109a4356105eb565b6103c56109c4356105eb565b6103d16109e4356105eb565b6103dd610a04356105eb565b6103e9610a24356105eb565b6103f5610a44356105eb565b610401610a64356105eb565b61040d610a84356105eb565b610419610aa4356105eb565b610425610ac4356105eb565b610431610ae4356105eb565b61043d610b04356105eb565b610449610b24356105eb565b610455610b44356105eb565b610461610b64356105eb565b61046d610b84356105eb565b610479610ba4356105eb565b610485610bc4356105eb565b610491610be4356105eb565b61049d610c04356105eb565b6104a9610c24356105eb565b6104b5610c44356105eb565b6104c1610c64356105eb565b6104cd610c84356105eb565b6104d9610ca4356105eb565b6104e5610cc4356105eb565b6104f1610ce4356105eb565b6104fd610d04356105eb565b610509610d24356105eb565b610515610d44356105eb565b610521610d64356105eb565b61052d610d84356105eb565b610539610da4356105eb565b610545610dc4356105eb565b610551610de4356105eb565b61055d610e04356105eb565b610569610e24356105eb565b610575610e44356105eb565b610581610e64356105eb565b61058d610e84356105eb565b610599610ea4356105eb565b6105a5610ec4356105eb565b6105b1610ee4356105eb565b356105eb565b614279565b8152f35b8380fd5b5080fd5b80fd5b906004916044116105d857565b600080fd5b9060c491610104116105d857565b7f30644e72e131a029b85045b68181585d97816a916871ca8d3c208c16d87cfd47111561061457565b6000805260206000f35b604051907f1868de7230e74e56c2a6b639c878511e30e1a5fca2385268be06cf69c356e63382527f20b6f1f1666384d32784210d846cb7e31534c7523a1d5080d9d643ba15e4274d6020830152604082019081526107cf196040836060816007855a01fa156106145760409260066080939284938451905260a05160608401525a01fa1561061457565b604051907f277b4850bee9c4e3fc8d8fe276e993e98f27e2b36337cb0f5874b604680bc68382527f02ad0f4a8cd1fcc890696918acf1486525700c4bed91ba2762338e5f0875f55f6020830152604082019081526107cf196040836060816007855a01fa156106145760409260066080939284938451905260a05160608401525a01fa1561061457565b604051907f19e36c616562fb430e1e6eb3bd1386a648b9e1fb707be3927e53c691c9b05ca382527f28d8b48bc566440d467d76d7e055be890d598295a50c6c6549ac4e870395b45a6020830152604082019081526107cf196040836060816007855a01fa156106145760409260066080939284938451905260a05160608401525a01fa1561061457565b604051907f11f4b1a13c22ba5a6e13d9441ae4b4249986f4dc8b67fee6503bf9ac21a0a89c82527f2e6ee82231a8d1bec2517371890f6640ef6fd81facea1bb381f0824a86ed5a6d6020830152604082019081526107cf196040836060816007855a01fa156106145760409260066080939284938451905260a05160608401525a01fa1561061457565b604051907f2d15af21bdafb740527103836bcf02f9f28245500cffe4adae64bd6bc792978d82527f18354da22e97f936a4e3e72cabb615c370ff070ec87c01f47e3235403c9b78946020830152604082019081526107cf196040836060816007855a01fa156106145760409260066080939284938451905260a05160608401525a01fa1561061457565b604051907f049a132193016ed0e5759e80f9a4c0d3aa40a73bc705e664804aacbbca29d0ca82527f1977084163b7604105fb54979d721cfe000016587f418c038963082ad90683b76020830152604082019081526107cf196040836060816007855a01fa156106145760409260066080939284938451905260a05160608401525a01fa1561061457565b604051907f062450c4af5338578db1e0a87e24c7ab01eb05a308261a006a7dd6336f23442f82527f138b8b4237781ebfe30af6978341e660be7defafc872e2370addb70ddb19a31c6020830152604082019081526107cf196040836060816007855a01fa156106145760409260066080939284938451905260a05160608401525a01fa1561061457565b604051907f3030b53022af43d88a4358f831faecc6926ad9dcd3980417437da2455b8b175d82527f107e6c6ac5fbb88fb3e0e93b51675111344ffd150242973de6ffcee5b173b3796020830152604082019081526107cf196040836060816007855a01fa156106145760409260066080939284938451905260a05160608401525a01fa1561061457565b604051907f156532a83b052c390ff9624adfdd14e8c67d184796783ef566af2bb9dc62c45982527f12dd3a39651d0bfe90ca22ac06431d7f585d9c675f59bae7a22fc4a23495967f6020830152604082019081526107cf196040836060816007855a01fa156106145760409260066080939284938451905260a05160608401525a01fa1561061457565b604051907f2ea7b8941b35cea3cff7a873eb4bdfa3807d226f812983dc428fa32f94a6db6f82527f0eb1c9224b6a1379eeeb90467cac02698224efe0455ef68d96acea10091f0e396020830152604082019081526107cf196040836060816007855a01fa156106145760409260066080939284938451905260a05160608401525a01fa1561061457565b604051907f2e7f131badfef7695a3acd2c3cdc1f95c0fe74f04fc011eeeb76d570ca3fed9982527f2c4d2a4ba55cf131be8b88e5488ec451da7243aa3a55307a61202181c0220d636020830152604082019081526107cf196040836060816007855a01fa156106145760409260066080939284938451905260a05160608401525a01fa1561061457565b604051907f2b278da5518786e3edfaf297b5963fd587807819f2402e4ac66b8d5018b24a9382527f06a30ca1fcb108365c28806f5013764f6e27cc329f5478f2678cf6cfb18d2e446020830152604082019081526107cf196040836060816007855a01fa156106145760409260066080939284938451905260a05160608401525a01fa1561061457565b604051907f0ab43a0cf4fdbf96fa8df95fb516d97835110dfeefb2b359bfbd10b1353b9a1d82527f1f68af7d496ed990b8b3eeeb2ef53be46bbc1b5c5881e573a62c59ad653199006020830152604082019081526107cf196040836060816007855a01fa156106145760409260066080939284938451905260a05160608401525a01fa1561061457565b604051907f290961173d7c656bef22b35799393522cb27f1bc039b95c703464bacdebed4e382527f15d6c3d2945ce7e508c742a0ce13eddd8baffffa562d726a31d7f58521f63f5d6020830152604082019081526107cf196040836060816007855a01fa156106145760409260066080939284938451905260a05160608401525a01fa1561061457565b604051907f21f102a04dc287d9224395b16ba7b47fe69ce84620eb22e70761ce9b91fef83982527f2c5f2a17132980e9b7f0c06a5106add335aef08750f367fb457626e74c9986966020830152604082019081526107cf196040836060816007855a01fa156106145760409260066080939284938451905260a05160608401525a01fa1561061457565b604051907f2c5978689dcba00bb9830fcc5fd6ff69383e0641bb65520f549a622956dc680582527f27e45a3adbcd050211304efa4e9e53818dbca9cbcb9e34ba4414c1dcc3703e626020830152604082019081526107cf196040836060816007855a01fa156106145760409260066080939284938451905260a05160608401525a01fa1561061457565b604051907f22bee9759dc115b1dc2b91716584fa6ee4d178de113e9473ab3e8a5e34cde50382527f15a192e2ce8b085a8862bdba75993d07bb7209b84d26ba9f1c70d1776f47a4ad6020830152604082019081526107cf196040836060816007855a01fa156106145760409260066080939284938451905260a05160608401525a01fa1561061457565b604051907f1d9dbb803b354e1ec8ab86e166848bbc6a789f6091b210e55ad31b8002944cfa82527f1553abad2cdb296fbe00e7857b124c6f293330bd98b691930b4da28c75a0d7f86020830152604082019081526107cf196040836060816007855a01fa156106145760409260066080939284938451905260a05160608401525a01fa1561061457565b604051907f188fd872f48c7e0a6574dae70e3ff7611c421d3128fab8fc6333c5c64a486e3682527f21b007e237c462b401f9fc9b4d28d32fcbb36b1ab2529d9d65d31e6a3167483b6020830152604082019081526107cf196040836060816007855a01fa156106145760409260066080939284938451905260a05160608401525a01fa1561061457565b604051907f12abf9735e2ffafb627e3fa41de9da3cef8ce487bece938a5f2f42cdfdcd185482527f0a5c64d266e9adf77cda6f05ba80e113f0e05d9415792849681923c4e8aa8d0d6020830152604082019081526107cf196040836060816007855a01fa156106145760409260066080939284938451905260a05160608401525a01fa1561061457565b604051907f2fe0a6a2835a737ae1b1c2922903ee143fa06508e58c184009981c3dec14fdc782527f234b7b2f29dae2a37f9635643f334402f17c861fa23283ad3a0a43de53dfbaa36020830152604082019081526107cf196040836060816007855a01fa156106145760409260066080939284938451905260a05160608401525a01fa1561061457565b604051907f181ad4ba43d00a998b714a840d75a4297f0e541326d1185ddcea68eebb50e5b182527f1916bd057fa0b9ec05f03e31cf49850d6ca72fdfda087c28fa402809d21ed7676020830152604082019081526107cf196040836060816007855a01fa156106145760409260066080939284938451905260a05160608401525a01fa1561061457565b604051907f29d617fe4b9e06d6f926accc6acabeeb631a94f18698cf14abc42a76dc84f2b482527f2eb40e8f23485f1adec37268d2f576f996a790f7cf1fc00f66210df48e51112b6020830152604082019081526107cf196040836060816007855a01fa156106145760409260066080939284938451905260a05160608401525a01fa1561061457565b604051907f284911ea399bfe5f76ed7011aead3c3a3ca5b07bf715b84102f5027e439dd0fa82527f1aba9de69776bca1c8b8cc6f5491f5eb33783e798a69d7d27d93ac5883354e7a6020830152604082019081526107cf196040836060816007855a01fa156106145760409260066080939284938451905260a05160608401525a01fa1561061457565b604051907f290524242e8e39127b1c80c932e2f676ca04472876c66602c2329ccfd0fc005082527f1720cd4ad836ba9937774ce695320841bab79256fd9b48f4f83432cf3d63d55d6020830152604082019081526107cf196040836060816007855a01fa156106145760409260066080939284938451905260a05160608401525a01fa1561061457565b604051907f281dc14d71890bc4da1330391772d3e8fecc058ee5262292575cdca98cf6967982527f1760c6b436bc09e5d8b552590c761c94facaba0846f0981d39056ff0105088616020830152604082019081526107cf196040836060816007855a01fa156106145760409260066080939284938451905260a05160608401525a01fa1561061457565b604051907f083dbb7e60d9288d3f93e743f921a21018764769dc492efcd9164df5b25639a082527f194b959f4cf7baea9ad3f26efe07955dfc39a4ac3b7f3dff45a3a8e45591dcf06020830152604082019081526107cf196040836060816007855a01fa156106145760409260066080939284938451905260a05160608401525a01fa1561061457565b604051907f1f3c1f98dc0a951f47ace7bb52c28f83f3266e8ac752aa2fe68d18e7a682501c82527f0a0f360c212d98a48b86995bca0a0aad61d9e5f56c1cb72c1c33381f1cfa02316020830152604082019081526107cf196040836060816007855a01fa156106145760409260066080939284938451905260a05160608401525a01fa1561061457565b604051907f15786d5f2ba092aba4b20cfee4d7ed2e9a8912f96d7c6047e1dc5768832d5da482527f1325e337a28cecb4f2916e59b440c50b54c243182ec7c0a302130d71835d43936020830152604082019081526107cf196040836060816007855a01fa156106145760409260066080939284938451905260a05160608401525a01fa1561061457565b604051907f269fe16230104316edfa50f747f78b2184c2e74ceefd6e5b75af021f2337928382527f2890366c25695219f48face4c233083b071d46eb28f9cb1c9db02d659aff9afe6020830152604082019081526107cf196040836060816007855a01fa156106145760409260066080939284938451905260a05160608401525a01fa1561061457565b604051907f2ace1a890f96b57f0b068b752f6dfa3bbab7dcc4ef86c631ae52e125bfed5f3182527f1bfe819525bd104550f6cddbd1b6df4ade170d7a65932b1fadb081ed01195e4e6020830152604082019081526107cf196040836060816007855a01fa156106145760409260066080939284938451905260a05160608401525a01fa1561061457565b604051907f277cd4fc09962afb1152de86a7bb0e2cbf3aa7ffb9019bfb36feab1a7018910882527f1c963d9fe09032f1fb1a4972e151f328f1ce6bbf5bf59950117b7922d39dbf106020830152604082019081526107cf196040836060816007855a01fa156106145760409260066080939284938451905260a05160608401525a01fa1561061457565b604051907f1fe60ee6125bd1f38fee7117b72d1749360c5d5709f64da406275a0cb7ee4a0182527f2bab9853c1c9e5247094593be353797d7fe359cecae7b61c046702cda07241336020830152604082019081526107cf196040836060816007855a01fa156106145760409260066080939284938451905260a05160608401525a01fa1561061457565b604051907f1ade8188788e13b6a51f2cb38d89cebd6830de71916a0951b9f34375911c259782527f0207c52578de47c1b2b7758034d30a63b0f84c85a3f2fed53bcff6561b332d776020830152604082019081526107cf196040836060816007855a01fa156106145760409260066080939284938451905260a05160608401525a01fa1561061457565b604051907f054badc4971ad2379da2a4d2cc3852e3231f8d10def4850f105e8d49c5c9648582527f21df205ee132476a5d1cb35f619631c9670d125d755ced543b1333364f9c1fea6020830152604082019081526107cf196040836060816007855a01fa156106145760409260066080939284938451905260a05160608401525a01fa1561061457565b604051907f16c3a81e824e03707fc21eba49022cb785843086f5c27870e61547817408212d82527f0c886ef924724442b4496de0c9bbf6d4c1e64319578b4c6b403f7e70eef3750a6020830152604082019081526107cf196040836060816007855a01fa156106145760409260066080939284938451905260a05160608401525a01fa1561061457565b604051907f29c671942f5c3689d1d037b9defa137ced833ad3db05876f3e79aa65a4c0c68b82527f0a9a1ee036d60c5646839fcd3aab6c59501fc785cc219b5117078f40a438af7f6020830152604082019081526107cf196040836060816007855a01fa156106145760409260066080939284938451905260a05160608401525a01fa1561061457565b604051907f0b7f3deb62d02d4bf4db49a05748a78de56b978077f68d5dac116510b8bc387182527f04240b3f060485dfba5b5e0a29c40d634085118dac67792eef804f901e94f2956020830152604082019081526107cf196040836060816007855a01fa156106145760409260066080939284938451905260a05160608401525a01fa1561061457565b604051907ee19404deea58fb32ae959eeed8e03709f3ad9f03f1bec4ec7ae5e64cf9c56f82527f1f573b9416ddee6e8840181ce44b7fe66b67c94073aafc3020e6c17434f96d616020830152604082019081526107cf196040836060816007855a01fa156106145760409260066080939284938451905260a05160608401525a01fa1561061457565b604051907f1c3febe1fe30f567349d27ab07ebf89abf24f40bf45525150086606bc7a8de0b82527f2844565573d7defe0479643edff598f705bbab37cbe97ba9cab45c192110f0256020830152604082019081526107cf196040836060816007855a01fa156106145760409260066080939284938451905260a05160608401525a01fa1561061457565b604051907f10ce7fa9823a3f10ca8b8f74e0ca91f9742822074a080d3be60dbe46c01e814482527f25a5d2fca61adfb6189d644fa6092b81fc6b24d99b9c3cead4389e2f93a333586020830152604082019081526107cf196040836060816007855a01fa156106145760409260066080939284938451905260a05160608401525a01fa1561061457565b604051907f162070b3c072fab28108817e2d3d1b16097839cbb1892295f86f6a7a581dc57682527f2d6f74690e4391233cd3f3c16792834f322c719948bdb16c6cadd65f9d45a4b76020830152604082019081526107cf196040836060816007855a01fa156106145760409260066080939284938451905260a05160608401525a01fa1561061457565b604051907f25ccbc23ef9e2ff9e3b69c0ae9521da31b60de8f4f7af4d8b3bdd659d000f8bc82527f2a861c7a8957f2734eef47d974d3021dbd45745059b9820a6a85667417d74f556020830152604082019081526107cf196040836060816007855a01fa156106145760409260066080939284938451905260a05160608401525a01fa1561061457565b604051907f1a56a514de2933d0e57e116606daa349a6fccb95dc8f6e4b32218f093923f19e82527f0b9a1d89b2ace55bf54f4e578970f2614df9ad8a2e3ea47800e4e0374914f0536020830152604082019081526107cf196040836060816007855a01fa156106145760409260066080939284938451905260a05160608401525a01fa1561061457565b604051907f164ed84b4fd6ce07a7310ec70f2d55d9b16bec491394e051ea908820763d6d2682527f2d8c5af2b054e558ac475509fdfdd6ded97f8a41fdb1fa9e3290403f2c9d92ca6020830152604082019081526107cf196040836060816007855a01fa156106145760409260066080939284938451905260a05160608401525a01fa1561061457565b604051907f041546211ca2bc8d269cb07407f49d630e8ecfa709515898cb542aaa690ed30482527ed23f76ffbf1a917092f496c8bc10480c48a48b45800cf0a89b5ae4080e7c366020830152604082019081526107cf196040836060816007855a01fa156106145760409260066080939284938451905260a05160608401525a01fa1561061457565b604051907f144d78ef2ce69eb51fa5c941237355850ccc8d24ee396a69cb4fd84f55554e0d82527f22ff489edf0c662e73090b282dcb174ab069ecbbd2098d56d232eebebeb15ecf6020830152604082019081526107cf196040836060816007855a01fa156106145760409260066080939284938451905260a05160608401525a01fa1561061457565b604051907f0ab03b4d6ef660c04febcc74004043a87db0388b0d9fe55dbcd22373bd806c3782527f021dc26c504ead20018be061c9035013b9d7997287cfb5803a99bcb2fdec9bcd6020830152604082019081526107cf196040836060816007855a01fa156106145760409260066080939284938451905260a05160608401525a01fa1561061457565b604051907f22931b96652c5e458e14cdb936ad81425ca5edbc034b486f4843d74c8c67214182527f0938fe8d1688bfb7c6db9c84c8f9fb83d600aad52c551441043748f37f47f8836020830152604082019081526107cf196040836060816007855a01fa156106145760409260066080939284938451905260a05160608401525a01fa1561061457565b604051907f2f608314f0b22061f462924d0446119784d3a852f2f404f372ba01b78f243a4682527f2d51d5039856411f9f6a0b910ea29526f6fd76c4af0d2549ff1b8b650eabc3a26020830152604082019081526107cf196040836060816007855a01fa156106145760409260066080939284938451905260a05160608401525a01fa1561061457565b604051907f1352c9ec97368cbcf9699f2e853f939d194cdaea48803da58972ff1850e0cef182527f225d5292c50aef1f24fb82cdbd0e4f39143cbdef594f36378fdb5d85b410941d6020830152604082019081526107cf196040836060816007855a01fa156106145760409260066080939284938451905260a05160608401525a01fa1561061457565b604051907f27baff5bc5eac57bace217690508b5e966a54d52e7c684adeba89d6a6997eff882527f07edca5b4f18c35ba4198c3307deaf22da04eca31190f48268dd7ca1a76699586020830152604082019081526107cf196040836060816007855a01fa156106145760409260066080939284938451905260a05160608401525a01fa1561061457565b604051907f2cf1fba63ec4738d986513f2061f0f8e90c746f3527a475b82387c4818d7465382527f253793b6b711283e4c72298d2089bb98795b00195b6a30b1fd00e93819dfe16b6020830152604082019081526107cf196040836060816007855a01fa156106145760409260066080939284938451905260a05160608401525a01fa1561061457565b604051907f0c19ace7ebdbc644a7b8c4d64d0999b4270820e6da76290167f5ccc223947d8382527f1b1f849e41dd6e97e49dc5b3c54b28cba047212a4b687cefa0152e533ebc74796020830152604082019081526107cf196040836060816007855a01fa156106145760409260066080939284938451905260a05160608401525a01fa1561061457565b604051907f2881e8519a06556ecdd808b8967740954a15a0712118b32c7f402c1e5f9fb25982527f2015e4051bd60b8f78c1814eb35725507560cdf6301d2571add7fbc1617f00ba6020830152604082019081526107cf196040836060816007855a01fa156106145760409260066080939284938451905260a05160608401525a01fa1561061457565b604051907f231e555999edcbd4b5abdde6b09accba3601cc3b9398bc9b2e912514a7c9c01282527f22f9fd674904bd0d02161be5a7904d72f961eafca9a84ef7f64029d85d68e3b76020830152604082019081526107cf196040836060816007855a01fa156106145760409260066080939284938451905260a05160608401525a01fa1561061457565b604051907f244051c73781679962c0c45a3b27031c7e219efc715c22c60e39ea98f54779f982527f059767d1069b48b71b03b4155a5700ba8f861f79095616710f891f19e7ddf5dd6020830152604082019081526107cf196040836060816007855a01fa156106145760409260066080939284938451905260a05160608401525a01fa1561061457565b604051907f1176503a66c1ef5e74901fb272db47b5226bad05cbd0e5c8de00ea54c4ad640d82527f030ec15225f7e2d90a5acbbfb031005086fdd3f5d0c24d604339937ca8d0611f6020830152604082019081526107cf196040836060816007855a01fa156106145760409260066080939284938451905260a05160608401525a01fa1561061457565b604051907f2649c85fd08c57db561792e25329abfe309f6fcd38503f515ae5cc95c12018fd82527f0853d3b4250da8a1708aa5d37f3f988fc96ae7d2f6b1a379c8353448d43520746020830152604082019081526107cf196040836060816007855a01fa156106145760409260066080939284938451905260a05160608401525a01fa1561061457565b604051907f1ef34fb6553b04e7e13630febe3cb1705dc8d41bdce65644a368a2722cbe4d3582527f03549270aae9f3c119b04e335f8c67e8f77d27b3f45576b282d3a1ee7ff35a8f6020830152604082019081526107cf196040836060816007855a01fa156106145760409260066080939284938451905260a05160608401525a01fa1561061457565b604051907f21448cda0e9c9d1ac4e378e05cb8746fd695597585785f9a7642a22cfde3a85482527f191c6b7b8fce754929149374ef4ac20e2e7fa8dd51ad807d0d1906cfa6c7f54b6020830152604082019081526107cf196040836060816007855a01fa156106145760409260066080939284938451905260a05160608401525a01fa1561061457565b604051907f091148bad8a2bfab4837885275d1c06804b303d83da610e4c332cde6d2be20e182527f1f5d6a9cc9d050b8b2bc4cd735a782bacbdc4faab0120ac536d3817e1014b45b6020830152604082019081526107cf196040836060816007855a01fa156106145760409260066080939284938451905260a05160608401525a01fa1561061457565b604051907f174b317ef01fd20687209fba2c26bbc3f1cc401d6bd25bcdbe927be10d66db5b82527f228dd7d017b8670d86dd05a71a3700152ad36975d2f2bdbfbd38c7fb0efe05ee6020830152604082019081526107cf196040836060816007855a01fa156106145760409260066080939284938451905260a05160608401525a01fa1561061457565b604051907f08d20061fa67a74eb91a7fb8daee23d4a5f0ed36c38dce4082aa5f1addf2ee2382527f082e0faf9b105d930abfe010bbfa60cf7682a1fa58d5a337dc04feb2b9cb43dd6020830152604082019081526107cf196040836060816007855a01fa156106145760409260066080939284938451905260a05160608401525a01fa1561061457565b604051907f1eba8f10c837a7faa8ca2d732353becba7f41a0fd49066c0fa603abcaca7d1e782527f2afb8dc873e48be7b1dbbcb3ef27ab97c79387f2063da8170c620122cb1b63266020830152604082019081526107cf196040836060816007855a01fa156106145760409260066080939284938451905260a05160608401525a01fa1561061457565b604051907f10dd56a71c7756efc5a106b1d1aaf542bd6a7671b707c0f5523888d82271d56282527f1d5c84d71e3bf64d5886eb4939a6f9330f49d81d3950c6b6d5566e0d7b40ca8c6020830152604082019081526107cf196040836060816007855a01fa156106145760409260066080939284938451905260a05160608401525a01fa1561061457565b604051907f2818fe3d854fdc2021d8c6f94a9dd229f5a415735609c4096199ae651c39483282527f17d83b3f450a26ed1f8633fec1f69c9541367be63235b0abe69fa2e4b35f94b36020830152604082019081526107cf196040836060816007855a01fa156106145760409260066080939284938451905260a05160608401525a01fa1561061457565b604051907f2b1cbba550df51ae99df1353814e62eb01c95e789bf8b3517bfc7f87dea175de82527f15069fcef042796fbf1be08293f97b205c44e1a4245340a2d0006e0a846e28006020830152604082019081526107cf196040836060816007855a01fa156106145760409260066080939284938451905260a05160608401525a01fa1561061457565b604051907f01ed380055df1da0e403f812bcc2e8dcf719c2a7035ce9df8733079925d55f9582527f2af6b00cafc9415d1e9532377f28ded68bca02476d17141f3bc768ed65ef08336020830152604082019081526107cf196040836060816007855a01fa156106145760409260066080939284938451905260a05160608401525a01fa1561061457565b604051907f015d72bc08532fa852bfc4725eadb28e14e06f78fb032efa7b65482dac8ea70982527f1e2a1c04e41947b85ea7361cb0815a1d1c75fa003a163d8beb38b02f0fe4051b6020830152604082019081526107cf196040836060816007855a01fa156106145760409260066080939284938451905260a05160608401525a01fa1561061457565b604051907f22289b14c548bd60ebcafd22d4171558ea3847ca393ea920f98c876719ab2a3582527f175966eeb0f77002f053d8a32333dd1f908cf7e95447b4122cc9a09a6c94a89a6020830152604082019081526107cf196040836060816007855a01fa156106145760409260066080939284938451905260a05160608401525a01fa1561061457565b604051907f0c408cb6c5712117e68c42784a4f51f8ef7b460ac539657b3e1b24cf80e4812b82527f1a0c8f13bb0a811db85aa8055d2fbb9742664649d0fe87ea918f9d375df5828c6020830152604082019081526107cf196040836060816007855a01fa156106145760409260066080939284938451905260a05160608401525a01fa1561061457565b604051907f0381c1c3425a18ef9d9aac08ecd8a8d70701afe7bbf7e0accc5356dc8e58d30c82527f2f20036bbe0ff229eb24b2c0cd3f5b62d055406b96ea132cbcfb51f16a1d2ed16020830152604082019081526107cf196040836060816007855a01fa156106145760409260066080939284938451905260a05160608401525a01fa1561061457565b604051907f2665f4362588aaca7fcfbfa789ca4d459bb89e0c987c94793d2d72417d3cdd4182527f25c47723e5e35a5842a72c4902d41534e96a31bfccd751cf5f870a5d7e84cd6b6020830152604082019081526107cf196040836060816007855a01fa156106145760409260066080939284938451905260a05160608401525a01fa1561061457565b604051907f2c75e25d27bde72cd54971813c00afacb29b3789f6ceb560f20b50656e79eaf482527f2ac0647ca2bc82d7b425c8d8e7bfec014077bb034b49598f5717c6026b017de86020830152604082019081526107cf196040836060816007855a01fa156106145760409260066080939284938451905260a05160608401525a01fa1561061457565b604051907f2cfe2707c650735178231200f10f60ef29b7606f83a8289e3c850979ef9b339482527f200ee49a2b38df4f530aad9a16b571abf97d2f78a78c4ec3db97b740dec49da56020830152604082019081526107cf196040836060816007855a01fa156106145760409260066080939284938451905260a05160608401525a01fa1561061457565b604051907f1c22036cfd6e84143f574f4d77a186583bd8f9dc68d4445a29fb4d3dc70044eb82527f2be891ad4bc176daed385a2cbb748e5bcb6c43f183129cbe98c01b44d6dde43e6020830152604082019081526107cf196040836060816007855a01fa156106145760409260066080939284938451905260a05160608401525a01fa1561061457565b604051907f09b8d3193f3289f2542dc2cc81e5af964239498ae5a50f12a340c281be68831982527f2ce9a660c984e29a301edf582b914dfe8c989ee372cf4a316e0a22fbaa85d5ce6020830152604082019081526107cf196040836060816007855a01fa156106145760409260066080939284938451905260a05160608401525a01fa1561061457565b604051907f29a2f4d6cf353c652223ba4ce34d24fac6758e41e7550f67c9e2787ab1dc9d5282527f173e98188a6828ff4616bab89a9a08f866675155bd1fb1a1bca17589f9998f306020830152604082019081526107cf196040836060816007855a01fa156106145760409260066080939284938451905260a05160608401525a01fa1561061457565b604051907f0a64b34074700a88d58ef44ce720c69556bfd30c1cb47915fa964598b4b5c73682527f01e186f7e93508f9fb57477d9921e4ee86add0d2611335822fb106dbf06c05f86020830152604082019081526107cf196040836060816007855a01fa156106145760409260066080939284938451905260a05160608401525a01fa1561061457565b604051907f1bc84aa974345933ae81bee19a9ee370a58b9168dd900d488e42ee0274da693282527f2f85fa73dfc15c4fb450931cfdffd5bfbaa97f4ceb57f68975d3cd80e8fb56c26020830152604082019081526107cf196040836060816007855a01fa156106145760409260066080939284938451905260a05160608401525a01fa1561061457565b604051907f1c8997d40b16d8aacff6666b8e787abdf0ac5c3ec0fbc86fd0e6bfdcecc9d49e82527f227508e8fcb380f652a5aa5c4a715b179d782b104183ae2e80f86b247b2276fa6020830152604082019081526107cf196040836060816007855a01fa156106145760409260066080939284938451905260a05160608401525a01fa1561061457565b604051907f0567d39fa54a61b0883b2c2b803e289a9d69fff01c84f6ccf8e9c1a148429adb82527f13b29b5ab6d702eef63f3ecd0580677adc8a7f1eef844bbc27dc4204a9603b0c6020830152604082019081526107cf196040836060816007855a01fa156106145760409260066080939284938451905260a05160608401525a01fa1561061457565b604051907f13d4a2b3654810202e2a404b0492901d9bb12df94d8463c7c8342b886dcdaecb82527f1989f8271f1266de1d83b31d84691d897bf579bc677f9dcb4b812fcab345a2536020830152604082019081526107cf196040836060816007855a01fa156106145760409260066080939284938451905260a05160608401525a01fa1561061457565b604051907f2a4b54780e37929807e4089829dc26377467f23b6e7bb0bb697c15cdf53c814382527e5a42c2424816fa4b32358c2dad7dcd2a8fbd55a9a018880f64e3e1f5ccd69e6020830152604082019081526107cf196040836060816007855a01fa156106145760409260066080939284938451905260a05160608401525a01fa1561061457565b604051907f292099167d6c24e3d36f48fe7bcd774e526d0e06f764880a41401e0679adfa3382527f1f6ab2da023f59d0c1ed4abab2ce377026b122a9022e502962c5dee258499bf46020830152604082019081526107cf196040836060816007855a01fa156106145760409260066080939284938451905260a05160608401525a01fa1561061457565b604051907f0c980ae76e87db42549b152458dd2f9d14e2a5f6ea126319560775b9fae1362f82527f08d17a9d2575ac810bae599e6217f1c50da8f39046d071957ca48e564ec9924f6020830152604082019081526107cf196040836060816007855a01fa156106145760409260066080939284938451905260a05160608401525a01fa1561061457565b604051907f17f3309dcb4f1089176f860f020a1fe98ce9c0cfef49979e385400f907a9ae1b82527f2d05b0bdec11782d03b050a3adb31af8318baae6b23eb87c3c0938e972a804326020830152604082019081526107cf196040836060816007855a01fa156106145760409260066080939284938451905260a05160608401525a01fa1561061457565b604051907f05ceff78c925eaa680ff26f211d7a9bb300c062a13d003df8c14e528fc1d7a3d82527f2f13e8121b5f0670dfd866041d8db6902a2beedc38e70b4735615364d52f5e176020830152604082019081526107cf196040836060816007855a01fa156106145760409260066080939284938451905260a05160608401525a01fa1561061457565b604051907f01c9663c315c013a8a60df636826ca721c81d4840e7d13e1d84d785667b7150682527f17c56240e4f714e36e0a6954ed58f9f12bf0667892f4d82d41042ed7ccad73506020830152604082019081526107cf196040836060816007855a01fa156106145760409260066080939284938451905260a05160608401525a01fa1561061457565b604051907f043dd321a43b902dc7ada64ebd6bdb16a283167d79286e7ca69015615a1ee34782527f041a3b6403388d0713ce88a4200e22eb6ab9d04cd7894b1d77581b946e20e7f26020830152604082019081526107cf196040836060816007855a01fa156106145760409260066080939284938451905260a05160608401525a01fa1561061457565b604051907f1afc839bd572f1fc04ec582fe5516b25b06ad7375d4064a3542350307165751882527f3050f30ef8ad7935e57ffe62d6641ba2a135a1227877610856f2e15d6d4214626020830152604082019081526107cf196040836060816007855a01fa156106145760409260066080939284938451905260a05160608401525a01fa1561061457565b604051907f107005c4fd9dab030c735b262e886da774af0adf7ea7254e4ce1bf87ffded39e82527f0ea7a41acf9d00e5b16c30a9bef9c05c92f39b99032f7a1e858b83f7e7d86e026020830152604082019081526107cf196040836060816007855a01fa156106145760409260066080939284938451905260a05160608401525a01fa1561061457565b604051907f06dd1909cfd1b10ec409fda35d736f71a88a65c4a52a34a04aa67a4b789c48b082527f1ea13825701362011a044fecd7269c25cbf2b7bfa680131a2872399b97324d6e6020830152604082019081526107cf196040836060816007855a01fa156106145760409260066080939284938451905260a05160608401525a01fa1561061457565b604051907f2ad65f59c5293a4592f4fa1073e0f20e5902e819c68b2f86eddedef2bae3fdcc82527f09ddbefdcb02420ab914729b3300a1cccb936ef768d1f09fa6dc9138fdb1b4996020830152604082019081526107cf196040836060816007855a01fa156106145760409260066080939284938451905260a05160608401525a01fa1561061457565b604051907f0690d64d188cdc1e77b9fff1fcd574fb5ac6faaa9170c048058fdbbe4d74d4a082527f175ac6fc9d4b28f9a0d71a43a6c17047d34033083fad1a043f8176cc18f8991f6020830152604082019081526107cf196040836060816007855a01fa156106145760409260066080939284938451905260a05160608401525a01fa1561061457565b604051907f2daa3b2027dd22aac2045a8f5ebaee38718117ab679a9bbe654b8ca0cf5f83d182527f2404fe1c527964f6ed58bac75759bdf4b3170c618f7e509459b4f33c867d12396020830152604082019081526107cf196040836060816007855a01fa156106145760409260066080939284938451905260a05160608401525a01fa1561061457565b604051907f0f02c87c94ddb1f0cc11b76609a0cd98952b43fc766ada3b432e6b115b61d1f782527f2eb7bc61ff6f2a8ab74bda67a11433e3a6e86d674057d19c7f4fbdf39857d0a76020830152604082019081526107cf196040836060816007855a01fa156106145760409260066080939284938451905260a05160608401525a01fa1561061457565b604051907f0c501143d3b1ac207a864cdd4533bd75b0cff364eb5e72adad1d41382b58f25c82527f0d5abef313d4e774498b92972ce0811bc3100298017326edc85183e929bbf3216020830152604082019081526107cf196040836060816007855a01fa156106145760409260066080939284938451905260a05160608401525a01fa1561061457565b604051907f02e16a941b367714ef1ad55dc5c5836786e9e3ebfea818ff339cac9a76bffdb582527f0bf54544fd13c177c09904f1d907dd44bb3b88d250a0c147fb777e6cc67031896020830152604082019081526107cf196040836060816007855a01fa156106145760409260066080939284938451905260a05160608401525a01fa1561061457565b604051907f095dc06ce4e6326e266341a382de4c783edad1b1af0d706a4f0fcc024fd2a40282527f2bbe74d4bd39e50f857efbc0ba9290f56126192145fb4235f59e4f86c948f64e6020830152604082019081526107cf196040836060816007855a01fa156106145760409260066080939284938451905260a05160608401525a01fa1561061457565b604051907f11716bb1fabf2e3063c67f069851226ca2144141db04000cea03576d16b1b6bc82527f21b41ef9b9b6ab9f738ad3bc73230b5d928ece128f89d053cbdc309c8dae80396020830152604082019081526107cf196040836060816007855a01fa156106145760409260066080939284938451905260a05160608401525a01fa1561061457565b604051907f240a311b64141e55cfdbdb5598f3b1e8c7d28d50afc5b69f0af40cbf92ced8ca82527f240759920f59f0c33507a804f1bbc0158c80c254a51bfd97472c2b7f45a9cd466020830152604082019081526107cf196040836060816007855a01fa156106145760409260066080939284938451905260a05160608401525a01fa1561061457565b604051907f0bcac12c1609ed783b3f5b1e874bddcc92afd4724380fb423da19dfae6a48b1882527f10d1452cf2537cfc6895615f687af211bd646f81a3a1c0dd1e2b1db261b148896020830152604082019081526107cf196040836060816007855a01fa156106145760409260066080939284938451905260a05160608401525a01fa1561061457565b604051907f189921537bd2ad48d7d4e2cf5ba290ae6f395879e5d7acc92ccba781f2179fab82527f0937468c1e586a112c8fb59051ef5f4ec67f44895316e62c08e2cbdab840b8036020830152604082019081526107cf196040836060816007855a01fa156106145760409260066080939284938451905260a05160608401525a01fa1561061457565b604051907f2e69154038c2bc2f792be038da4832024e760e5e627232355598c33401c52dad82527f1303330c189d06d0e771cfd7a8429ec06f98a70508626e15aea3745c75bdecf56020830152604082019081526107cf196040836060816007855a01fa156106145760409260066080939284938451905260a05160608401525a01fa1561061457565b604051907f1a06b0a8e465b84f98c908cd3d79d4562394de2b9312ddd616842eeae282d90a82527f0b7abfe03df926b38b04f7642f3d47e9d95bb1695c8fce807a7c845ba6b6ca696020830152604082019081526107cf196040836060816007855a01fa156106145760409260066080939284938451905260a05160608401525a01fa1561061457565b604051907f15440c5bcd58b1320e5c809bd3618ec6c99ff7cb5b9b7f62bfbcfea1c6e6a21482527f1574f7b32919aafafcc69da4d4bb22f39b0646807d36f3a5442e6c44ca0c1fe96020830152604082019081526107cf196040836060816007855a01fa156106145760409260066080939284938451905260a05160608401525a01fa1561061457565b604051907f286c9beeb0f3ef8e95fd216d9907b37f7623b01b029151a071741a0b0772ddc182527f11256da76ebf037021199559f3c50a0779980ac135b80cb1225b6039560c23046020830152604082019081526107cf196040836060816007855a01fa156106145760409260066080939284938451905260a05160608401525a01fa1561061457565b604051907f1a1db432bbc93aa6469e8270109f4c76c895807fa77ce03c1d86cea294f4732082527e7ac1bd1adcd5675d95c1aeea963e05de110ba903aaf7c7c9a44da82967e0e06020830152604082019081526107cf196040836060816007855a01fa156106145760409260066080939284938451905260a05160608401525a01fa1561061457565b604051907f0835dc31fdb3ef9fff4a82c3b201dd38177b1e11c3c44e339d2a3163a621519b82527f21a754d972d83850ab5ddf235b84f5e8d1a1111236bbea5aae72cb339275b35e6020830152604082019081526107cf196040836060816007855a01fa156106145760409260066080939284938451905260a05160608401525a01fa1561061457565b604051907e5ec84b96dc36c734798bbd2925728b674202483d1ed430edbc835e56fdb02382527f2426b0d24beef47ec5c8459af5642d518cc5e2f17f2e26d24c561851a32b5f376020830152604082019081526107cf196040836060816007855a01fa156106145760409260066080939284938451905260a05160608401525a01fa1561061457565b6020907f2269a01f5076a61a6f39fb6a9fda879fd3599dc05933d77ec8211fd8940dfffa6080527f1fe25103144fc18662e2e1d08260d1fb3eafa81544f094317885e80321d3a0b260a0526142d06101043561061e565b6142dc610124356106a8565b6142e861014435610732565b6142f4610164356107bc565b61430061018435610846565b61430c6101a4356108d0565b6143186101c43561095a565b6143246101e4356109e4565b61433061020435610a6e565b61433c61022435610af8565b61434861024435610b82565b61435461026435610c0c565b61436061028435610c96565b61436c6102a435610d20565b6143786102c435610daa565b6143846102e435610e34565b61439061030435610ebe565b61439c61032435610f48565b6143a861034435610fd2565b6143b46103643561105c565b6143c0610384356110e6565b6143cc6103a435611170565b6143d86103c4356111fa565b6143e46103e435611284565b6143f06104043561130e565b6143fc61042435611398565b61440861044435611422565b614414610464356114ac565b61442061048435611536565b61442c6104a4356115c0565b6144386104c43561164a565b6144446104e4356116d4565b6144506105043561175e565b61445c610524356117e8565b61446861054435611872565b614474610564356118fc565b61448061058435611986565b61448c6105a435611a10565b6144986105c435611a9a565b6144a46105e435611b23565b6144b061060435611bad565b6144bc61062435611c37565b6144c861064435611cc1565b6144d461066435611d4b565b6144e061068435611dd5565b6144ec6106a435611e5f565b6144f86106c435611ee8565b6145046106e435611f72565b61451061070435611ffc565b61451c61072435612086565b61452861074435612110565b6145346107643561219a565b61454061078435612224565b61454c6107a4356122ae565b6145586107c435612338565b6145646107e4356123c2565b6145706108043561244c565b61457c610824356124d6565b61458861084435612560565b614594610864356125ea565b6145a061088435612674565b6145ac6108a4356126fe565b6145b86108c435612788565b6145c46108e435612812565b6145d06109043561289c565b6145dc61092435612926565b6145e8610944356129b0565b6145f461096435612a3a565b61460061098435612ac4565b61460c6109a435612b4e565b6146186109c435612bd8565b6146246109e435612c62565b614630610a0435612cec565b61463c610a2435612d76565b614648610a4435612e00565b614654610a6435612e8a565b614660610a8435612f14565b61466c610aa435612f9e565b614678610ac435613028565b614684610ae4356130b2565b614690610b043561313c565b61469c610b24356131c6565b6146a8610b4435613250565b6146b4610b64356132da565b6146c0610b8435613364565b6146cc610ba4356133ed565b6146d8610bc435613477565b6146e4610be435613501565b6146f0610c043561358b565b6146fc610c2435613615565b614708610c443561369f565b614714610c6435613729565b614720610c84356137b3565b61472c610ca43561383d565b614738610cc4356138c7565b614744610ce435613951565b614750610d04356139db565b61475c610d2435613a65565b614768610d4435613aef565b614774610d6435613b79565b614780610d8435613c03565b61478c610da435613c8d565b614798610dc435613d17565b6147a4610de435613da1565b6147b0610e0435613e2b565b6147bc610e2435613eb5565b6147c8610e4435613f3f565b6147d4610e6435613fc9565b6147e0610e8435614053565b6147ec610ea4356140dd565b6147f8610ec435614166565b614804610ee4356141f0565b61010092818492358352837f30644e72e131a029b85045b68181585d97816a916871ca8d3c208c16d87cfd479101358103066101205260443561014052606435610160526084356101805260a4356101a0527f2d4d9aa7e302d9df41749d5507949d05dbea33fbb16c643b22f599a2be6df2e26101c0527f14bedd503c37ceb061d8ec60209fe345ce89830a19230301f076caff004d19266101e0527f0967032fcbf776d1afc985f88877f182d38480a653f2decaa9794cbc3bf3060c610200527f0e187847ad4c798374d0d6732bf501847dd68bc0e071241e0213bc7fc13db7ab610220527f304cfbd1e08a704a99f5e847d93f8c3caafddec46b7a0d379da69a4d112346a7610240527f1739c1b1a457a8c7313123d24d2f9192f896b7c63eea05a9d57f06547ad0cec8610260526080516102805260a0516102a0527f198e9393920d483a7260bfb731fb5d25f1aa493335a9e71297e485b7aef312c26102c0527f1800deef121f1e76426a00665e5c4479674322d4f75edadd46debd5cd992f6ed6102e05282610300917f090689d0585ff075ec9e99ad690c3395bc4b313370b38ef355acdadcd122975b83527f12c85ea5db8c6deb4aab71808dcb408fe3d1e7690c43d37b4ce6cc0166fa7daa610320528035610340520135610360527f2cfdb0494e8fdb8e830373a35277dfad0595d72cb748828fcc7afe213db029b3610380527f1aa3fbb4303dc6e7a17873303792ce6408956da69d2f4605e8c00daec5c9e19d6103a0527f242974fbe7d5f5c07ede8abb4f14ddeaa5410a58a41a08a88d116f4bc377d2a86103c0527f07864a5b3bce6945f04ff20792fc50d2745dd10a4f6e4df896cc90482f630d836103e0528160086107cf195a01fa9051169056fea2646970667358221220210c06795e03adde2cc16c6b16ed64c7ded5e5fe6fe3c78f550db4d8a3ab843664736f6c634300080f0033",
  "linkReferences": {},
  "deployedLinkReferences": {}
}