{
  "_format": "hh-sol-artifact-1",
  "contractName": "Groth16Verifier",
  "sourceName": "contracts/Game_10_50Verifier.sol",
  "abi": [
    {
      "inputs": [
        {
          "internalType": "uint256[2]",
          "name": "_pA",
          "type": "uint256[2]"
        },
        {
          "internalType": "uint256[2][2]",
          "name": "_pB",
          "type": "uint256[2][2]"
        },
        {
          "internalType": "uint256[2]",
          "name": "_pC",
          "type": "uint256[2]"
        },
        {
          "internalType": "uint256[112]",
          "name": "_pubSignals",
          "type": "uint256[112]"
        }
      ],
      "name": "verifyProof",
      "outputs": [
        {
          "internalType": "bool",
          "name": "",
          "type": "bool"
        }
      ],
      "stateMutability": "view",
      "type": "function"
    }
  ],
  "bytecode": "0x6080806040523461001657614ac1908161001c8239f35b600080fdfe6080604052600436101561001257600080fd5b6000803560e01c632f8bd27a1461002857600080fd5b346105c857610f003660031901126105c857610043366105cb565b3660c4116105c457610054366105dd565b90610f043681116105c057916105bc916105b76020959461040060405261007d610104356105eb565b610089610124356105eb565b610095610144356105eb565b6100a1610164356105eb565b6100ad610184356105eb565b6100b96101a4356105eb565b6100c56101c4356105eb565b6100d16101e4356105eb565b6100dd610204356105eb565b6100e9610224356105eb565b6100f5610244356105eb565b610101610264356105eb565b61010d610284356105eb565b6101196102a4356105eb565b6101256102c4356105eb565b6101316102e4356105eb565b61013d610304356105eb565b610149610324356105eb565b610155610344356105eb565b610161610364356105eb565b61016d610384356105eb565b6101796103a4356105eb565b6101856103c4356105eb565b6101916103e4356105eb565b61019d610404356105eb565b6101a9610424356105eb565b6101b5610444356105eb565b6101c1610464356105eb565b6101cd610484356105eb565b6101d96104a4356105eb565b6101e56104c4356105eb565b6101f16104e4356105eb565b6101fd610504356105eb565b610209610524356105eb565b610215610544356105eb565b610221610564356105eb565b61022d610584356105eb565b6102396105a4356105eb565b6102456105c4356105eb565b6102516105e4356105eb565b61025d610604356105eb565b610269610624356105eb565b610275610644356105eb565b610281610664356105eb565b61028d610684356105eb565b6102996106a4356105eb565b6102a56106c4356105eb565b6102b16106e4356105eb565b6102bd610704356105eb565b6102c9610724356105eb565b6102d5610744356105eb565b6102e1610764356105eb565b6102ed610784356105eb565b6102f96107a4356105eb565b6103056107c4356105eb565b6103116107e4356105eb565b61031d610804356105eb565b610329610824356105eb565b610335610844356105eb565b610341610864356105eb565b61034d610884356105eb565b6103596108a4356105eb565b6103656108c4356105eb565b6103716108e4356105eb565b61037d610904356105eb565b610389610924356105eb565b610395610944356105eb565b6103a1610964356105eb565b6103ad610984356105eb565b6103b96109a4356105eb565b6103c56109c4356105eb565b6103d16109e4356105eb565b6103dd610a04356105eb565b6103e9610a24356105eb565b6103f5610a44356105eb565b610401610a64356105eb565b61040d610a84356105eb565b610419610aa4356105eb565b610425610ac4356105eb565b610431610ae4356105eb565b61043d610b04356105eb565b610449610b24356105eb565b610455610b44356105eb565b610461610b64356105eb565b61046d610b84356105eb565b610479610ba4356105eb565b610485610bc4356105eb565b610491610be4356105eb565b61049d610c04356105eb565b6104a9610c24356105eb565b6104b5610c44356105eb565b6104c1610c64356105eb565b6104cd610c84356105eb565b6104d9610ca4356105eb565b6104e5610cc4356105eb565b6104f1610ce4356105eb565b6104fd610d04356105eb565b610509610d24356105eb565b610515610d44356105eb565b610521610d64356105eb565b61052d610d84356105eb565b610539610da4356105eb565b610545610dc4356105eb565b610551610de4356105eb565b61055d610e04356105eb565b610569610e24356105eb565b610575610e44356105eb565b610581610e64356105eb565b61058d610e84356105eb565b610599610ea4356105eb565b6105a5610ec4356105eb565b6105b1610ee4356105eb565b356105eb565b61427b565b8152f35b8380fd5b5080fd5b80fd5b906004916044116105d857565b600080fd5b9060c491610104116105d857565b7f30644e72e131a029b85045b68181585d97816a916871ca8d3c208c16d87cfd47111561061457565b6000805260206000f35b604051907f023d513adb8898b7963883016576b1c8ac7bf63d7669d19dbdfa01aa3101de3182527f08af989c7ee37cfc8a4b796fa3730f23f14dfb72e441487896e10ed45fcf0a596020830152604082019081526107cf196040836060816007855a01fa156106145760409260066080939284938451905260a05160608401525a01fa1561061457565b604051907f0cf47eec53771a27e773610412321dc4927fadd715a855b904773e6dfce86a1b82527f038df4d4674627b9fcf8951f4a59690900c992c7c7b03cadf6e152ca38096a176020830152604082019081526107cf196040836060816007855a01fa156106145760409260066080939284938451905260a05160608401525a01fa1561061457565b604051907f09344a3c42e7426b8128a684711e338412566c92a1f0c317c0079588159a2cca82527f15df0c6c157f56ddeb8d44f0cf34fe327e668cc66b88f0bbd0590f8d06f73d2b6020830152604082019081526107cf196040836060816007855a01fa156106145760409260066080939284938451905260a05160608401525a01fa1561061457565b604051907f251d784739d8d32a9c62d17b1f5ae8c29794c0bd9a4097e4e755cf9ee90cc2f382527f10805f4b8df591a8cd7f13f7a6b22a609829b5da51aaeee988b7983d1af2e90a6020830152604082019081526107cf196040836060816007855a01fa156106145760409260066080939284938451905260a05160608401525a01fa1561061457565b604051907f2686bc6b2a8f7de88ea098603e9806d2c815efa2f6815e6f4e6ae9c4fc7f0fe882527f2f06f82f7a1f59f3a2e3896e7e4731ec481d3c4ad356ce572aa59e187381f02a6020830152604082019081526107cf196040836060816007855a01fa156106145760409260066080939284938451905260a05160608401525a01fa1561061457565b604051907f2e57a574eaebb876f723ffe73818b8ea9363e7b7a1f445964aad81a0a6d72a4b82527f1e36546f172235e647eaa0a03ef6c11804425875fd05784b87d7307f0bd17a036020830152604082019081526107cf196040836060816007855a01fa156106145760409260066080939284938451905260a05160608401525a01fa1561061457565b604051907f1a1f5b502e4267ec9f58944f84559c35b74cd1266359952ef4ec1f9ede8eeedb82527f051c7252f420e23d6ba41de66bcbc4a7dc162dd6265c66acaa7be209e111a5106020830152604082019081526107cf196040836060816007855a01fa156106145760409260066080939284938451905260a05160608401525a01fa1561061457565b604051907f0e3a974edfb93e2adbe9134aadec5a91410e6f77e0cca6d1f735757edeb9169982527f092c94ea7126ab87355a2113c351fc3ec73283139aac38199f33370bbdbf67e56020830152604082019081526107cf196040836060816007855a01fa156106145760409260066080939284938451905260a05160608401525a01fa1561061457565b604051907f05bff6bde4583d0d82f080420ad7e4d5e0e658f4233ee1bfa8e53a9042ac440382527f2ccb01afcc1ffdb33ec92f159f8e5520061bece5a3de2413a7e6cfecbda1e96d6020830152604082019081526107cf196040836060816007855a01fa156106145760409260066080939284938451905260a05160608401525a01fa1561061457565b604051907f094397d23bab8b42e95e7c41dcd1b419ae5d01ea0d62f96a48257044f60585a582527f0284bd22eb2d208fa00f5e2f0b9b2e0a9184df0ebc075d8ee63be5adaa71e0086020830152604082019081526107cf196040836060816007855a01fa156106145760409260066080939284938451905260a05160608401525a01fa1561061457565b604051907f14f78fec54ad0fd5c3d878dcb86ace789f284577951fdf9c950289dc27ba26fa82527f2d8cf773150039e77721718e0de0f656ed6819864c66d6e376a4c3a835aa78b76020830152604082019081526107cf196040836060816007855a01fa156106145760409260066080939284938451905260a05160608401525a01fa1561061457565b604051907f1274005e1dae2a16ce27a90cc65f1539c5e384abecc6a1c3c84333c1a5ab773e82527f07ef2de5789bb034b565f4eb59c2faa5c2e52149765f44f53fd98c472ddfc3566020830152604082019081526107cf196040836060816007855a01fa156106145760409260066080939284938451905260a05160608401525a01fa1561061457565b604051907f120976a0e803a1d8ec787bf0f343162e1b2ade12e03cca81922adce89ece7d6b82527f0ee813950e58cfb5df33a9f3c33e8e9d3867f4983a92999854aceb9c42e42d096020830152604082019081526107cf196040836060816007855a01fa156106145760409260066080939284938451905260a05160608401525a01fa1561061457565b604051907f08abee853c156be54e530e4082e18d49b1592cc67fb7ebcf598676500178a6d782527f09a8d502a800387f43777488dbd5edfba8691941451b3c135d7c51f421edf5ee6020830152604082019081526107cf196040836060816007855a01fa156106145760409260066080939284938451905260a05160608401525a01fa1561061457565b604051907f2cb85ef7c3059b944a2984eaa48bb111637b2c82201a5c3ca97d6e52176d294d82527f2cd98aa33a86d161670a2d0cd153f015f0f3a342b5440db390353b81128cdc406020830152604082019081526107cf196040836060816007855a01fa156106145760409260066080939284938451905260a05160608401525a01fa1561061457565b604051907f0ff21595a420daefc4e371266e1cb1bff10971a6d30c154577daad67043c4d6182527f23c097818b48a860c2a084c5996ae2360316dd5d0e89266c7fd01d49d32d603c6020830152604082019081526107cf196040836060816007855a01fa156106145760409260066080939284938451905260a05160608401525a01fa1561061457565b604051907f2660424a946eba636aed51391c69ab835f02024826de5e55988b39f6234b7cb182527f16e771d6b8ba8a276f804439d6c32e9638d2041f1c2de96f95e01007af38b0fb6020830152604082019081526107cf196040836060816007855a01fa156106145760409260066080939284938451905260a05160608401525a01fa1561061457565b604051907f26bf3b5637c780915ef5de6d0dfb8e5743fe6f83ffb2598512ef9734ef9be68482527f232720e906a47bc38ee72a68f7a159cdb31bcc238b13819a8f24cad5152ac79e6020830152604082019081526107cf196040836060816007855a01fa156106145760409260066080939284938451905260a05160608401525a01fa1561061457565b604051907f2f85ca836149814f756a52dce13c3d605a6965c7b980eb08cf2bd4c935f8986f82527f01afe6a70e75ecf7e5bf67a02c5d7c0fb391177cee282bd917c5308245af6e146020830152604082019081526107cf196040836060816007855a01fa156106145760409260066080939284938451905260a05160608401525a01fa1561061457565b604051907f27bb59bdbf7fe820bdbe06eb77f5ddb5d869d21f82d87fc1291c006122c40ff382527f07dca37dd05efb9ff0db3775b001179e36f8e67a0dc6b2569d3cbf956746b3526020830152604082019081526107cf196040836060816007855a01fa156106145760409260066080939284938451905260a05160608401525a01fa1561061457565b604051907f1abc9b5e8401805df825d404edf6514a39c038362401f5bc19fc7260669af01782527f10dbc0816616e90b0adcb157725e3523e23f636b3bad7ab4d6a9ac2a994770596020830152604082019081526107cf196040836060816007855a01fa156106145760409260066080939284938451905260a05160608401525a01fa1561061457565b604051907f01d64d1b6563ae438105326daaad2acdeab7ac1e81449b3f755bfbe4714fea8682527f14537c69776b63ab2b62f35a6ec7d5646d80ce29c1314466c728a6e75daf8ee26020830152604082019081526107cf196040836060816007855a01fa156106145760409260066080939284938451905260a05160608401525a01fa1561061457565b604051907f2da52c6589283b646ae7454b42c38795096575b33a28815e4fa9c055d48b79a182527f2ef2fccfab8d7e755995569a6042e6bdcdc2ae5c25f682c633bcd187a37c89796020830152604082019081526107cf196040836060816007855a01fa156106145760409260066080939284938451905260a05160608401525a01fa1561061457565b604051907f026e8d4233d72d60787b5f65c0f9c0bc972cc002c2c92a6163ba5fb340a5ba9582527f2d5fc67e5dc28255ad88538e72278807b3a0b97a2c4ee2b2b2854c5cb56ccc276020830152604082019081526107cf196040836060816007855a01fa156106145760409260066080939284938451905260a05160608401525a01fa1561061457565b604051907f2ef68e72b34d1fe975814e4b319269fb64ea88285087041030d405cc13be59fa82527e189977a01db6133386ad807fe95a7275ae0caa72e4d6b7dd1a5f9a5af1e0f96020830152604082019081526107cf196040836060816007855a01fa156106145760409260066080939284938451905260a05160608401525a01fa1561061457565b604051907f05f1a385209cd966bb0730be4e63af468a4d5118503ecc35007e45399af81ce682527f129697cf183e4c6bc106b8e392ae1b912de7c206ce1ac67b11508a200c2b79566020830152604082019081526107cf196040836060816007855a01fa156106145760409260066080939284938451905260a05160608401525a01fa1561061457565b604051907f27a0edea2a4c225f7971afcd99f48aac2fb9a0a415de2a142314cc31bff5840482527f1ea55bd70c3f0be8a72bd3d960dddca5f95ffb8ca9ecda2b7d7efe0d130eaa8f6020830152604082019081526107cf196040836060816007855a01fa156106145760409260066080939284938451905260a05160608401525a01fa1561061457565b604051907f1da595cd2a6ef6937cfcd2a51fca4e6100859c14d258894ea0d8a987a5ea316382527f0963424a5277252472adce3d40f347931d80c2d191a4f845694694e0369128656020830152604082019081526107cf196040836060816007855a01fa156106145760409260066080939284938451905260a05160608401525a01fa1561061457565b604051907f0fdc33a57ad7cf111989d42d4bcc1a3954248095c645d0e3e7a78843dd6f494782527f0519b57b3b5bd30e293d5454e0ede422c139db385041aed09c845dd9a3568e546020830152604082019081526107cf196040836060816007855a01fa156106145760409260066080939284938451905260a05160608401525a01fa1561061457565b604051907f199d6a34c66b945fd9cabbe83193cd51ff58e95a7bff3ca95947ff62d99065e582527f225880280b2aab85a6c2c0901cd74cbc6259dcd97976d874aa8d811cbd29b3136020830152604082019081526107cf196040836060816007855a01fa156106145760409260066080939284938451905260a05160608401525a01fa1561061457565b604051907f28f08713ae9b42de2263b7aa08dc6881ec1f9620005981d7eb35cae3bf0bd76882527f1b4efc78cc44cc2007643716ef2f2058855a6272fd956728cd801ea14a3e40e86020830152604082019081526107cf196040836060816007855a01fa156106145760409260066080939284938451905260a05160608401525a01fa1561061457565b604051907f2147867f0747952b5ae03d5695111ee0061e654bb2ae2358203df102d42ea05182527f1bb525be98c3fcf943b277b7c4796a259231b764094786b55e6319b969328e016020830152604082019081526107cf196040836060816007855a01fa156106145760409260066080939284938451905260a05160608401525a01fa1561061457565b604051907f304dd1ed0b0aef613980aa5a80ce90ac683daa82c8c32f2d226a8cd95dd545b882527f059fa5de303afccce352cf69122d4e3a85680bb4e7442602d1d32da857c571df6020830152604082019081526107cf196040836060816007855a01fa156106145760409260066080939284938451905260a05160608401525a01fa1561061457565b604051907f24c9c58c5a681a6c5206c8e8d1168c5b1e1028048d49e51ed87ee374ec3ddffc82527f02dcf83162eb16648d5ac8ad2300f251651f6187649e4cba11e524fcae5abac36020830152604082019081526107cf196040836060816007855a01fa156106145760409260066080939284938451905260a05160608401525a01fa1561061457565b604051907f097ea168fd1657e397a46d1977d9669a7b55a222cdd6592495954fa2d4869e6082527f036966b6d8157d08a6fd9a73872f73d3692398cd56130444c2463e6fa2b0d8d36020830152604082019081526107cf196040836060816007855a01fa156106145760409260066080939284938451905260a05160608401525a01fa1561061457565b604051907f241db9b9a2205ab2d8024eddb79d751751ddfc482ee46efbeaa29a576c57003682527f0bcbd522f19e88145115a0606236b3dd7b063b4f608368cba56abf0f629757416020830152604082019081526107cf196040836060816007855a01fa156106145760409260066080939284938451905260a05160608401525a01fa1561061457565b604051907f1ff0593eaee85c9a66082597c4ac56a60e3468826dc2e73b666aa8a5cdb20d9482527f154dbe522dbbe0c743c4c47653b4c708b18ffdf87d1a696ec0c54d9347d84d6b6020830152604082019081526107cf196040836060816007855a01fa156106145760409260066080939284938451905260a05160608401525a01fa1561061457565b604051907f247ffc950079de7be2e3084b42f3a9372e40f387d47de931c1ad36c98b53172482527f1d937d9dda075a6bd2886666b084210dc2814908af98577bd4e52553091849db6020830152604082019081526107cf196040836060816007855a01fa156106145760409260066080939284938451905260a05160608401525a01fa1561061457565b604051907f02cdfba94a6761d78c780605f136049fb18f6bfa04b3717f8a129ff6c9fc770f82527f1eaacf1a77e91953f3272377ef96ed26819daf81745e9e69a007254e5ab646c16020830152604082019081526107cf196040836060816007855a01fa156106145760409260066080939284938451905260a05160608401525a01fa1561061457565b604051907f2d2e48f54077ec82658a19b26b57dc30937d195334914ef4c6147a655cc98f5e82527f0ce6f010f4eb4ce97c21ae64098e00f238c844d18145f8b910509656b63715216020830152604082019081526107cf196040836060816007855a01fa156106145760409260066080939284938451905260a05160608401525a01fa1561061457565b604051907eb2e212cd950241d806e1d3d06f17843b1c96e6b8c0b5edabad343bbfd7fea382527f20f5e91308f0658935e5d795332db44d1c14820d332503fd1933681d4cb312036020830152604082019081526107cf196040836060816007855a01fa156106145760409260066080939284938451905260a05160608401525a01fa1561061457565b604051907f02d2dbb18d1a99b683679c503663c47df80a77dbe069f83a683cfc2818021a9682527f22f9a35b26be41f0ae3ec6a7287eb0d1c99ecb9e9da332edf9395178c75fb0086020830152604082019081526107cf196040836060816007855a01fa156106145760409260066080939284938451905260a05160608401525a01fa1561061457565b604051907f04a5f60227350861da323da3bfa4e670af2efa049fd54e71f531637b074640b982527f0a1dd68bf61eb908d0132b019277a6f8baf3aa8f16146ecf5399364112f117af6020830152604082019081526107cf196040836060816007855a01fa156106145760409260066080939284938451905260a05160608401525a01fa1561061457565b604051907f2bf7fdee15cc8fc0da46983148f866326d838f5e56416fade129d056a1b599df82527f2650e5245364d117de4b4c6da47306f08bab6f0fd5d6c78133c01276d4a808356020830152604082019081526107cf196040836060816007855a01fa156106145760409260066080939284938451905260a05160608401525a01fa1561061457565b604051907f2100035b3244141189d1c86a2ed7d009b4d297f6fb65017dbe99eb3cc67c829482527f0104d36587867d13342f6fd532711e481165a002e70823260f979881f4b31ec76020830152604082019081526107cf196040836060816007855a01fa156106145760409260066080939284938451905260a05160608401525a01fa1561061457565b604051907f01066cd6c558d92ce3bf3f3d5ae8e22fe314c39f2c52dd823790dc9f9bdcb1c782527f2a52c451a77071259c4ee031124354ac9f5b1945b7b84b14676a0d72fd6d15696020830152604082019081526107cf196040836060816007855a01fa156106145760409260066080939284938451905260a05160608401525a01fa1561061457565b604051907f1bf7b6dd2f9508d4a9fd3d1f51fb2933a36446b8ec697e87d09f82665e7ecc7882527f268184a2387563ae3b0476920003bd8a3b778532eb95bce987105c5762b23b8b6020830152604082019081526107cf196040836060816007855a01fa156106145760409260066080939284938451905260a05160608401525a01fa1561061457565b604051907f2ade51cc7639b754118286c3187d595b2499dfea5e78bfa9a2509e8eb023686c82527f135a47dfed7163ac4392ea819afabfcb2f0afbf060a33d0bc742e07bfe3ee0d26020830152604082019081526107cf196040836060816007855a01fa156106145760409260066080939284938451905260a05160608401525a01fa1561061457565b604051907f2d104e64b5505145d719ab2beb6874a27a75f3ebfc7064b5a04e297f8c5908af82527f088ff6eb1a4aa931ac1f7d971f286b0d1b7386e9160e6b9e23ae668faa755bd56020830152604082019081526107cf196040836060816007855a01fa156106145760409260066080939284938451905260a05160608401525a01fa1561061457565b604051907f2be306969036e6237722cdf64fffb66bdb860f9d76c1561564e9540a3a0ad8cb82527f165097ed53d2120557eaf29b03e25e85326be7b5f030649d68934d0ac2a1ecc96020830152604082019081526107cf196040836060816007855a01fa156106145760409260066080939284938451905260a05160608401525a01fa1561061457565b604051907f1218df9c6604c8ea9b4e3d433b72f20e6b4dff08909daa91e4c5448230e48fc682527f0c6388fe9a063c709eb127509f8a4958306bfec7b9cb8c232f07d4fbabd815996020830152604082019081526107cf196040836060816007855a01fa156106145760409260066080939284938451905260a05160608401525a01fa1561061457565b604051907f270fb46b4e5b3db26cdbf07b04d5ff8a7eae8cbdef6f6505f77ae2401b0c182982527f2b3a2a8456421361a4095c340671747884551814ccbe4c8e10c734e98959842b6020830152604082019081526107cf196040836060816007855a01fa156106145760409260066080939284938451905260a05160608401525a01fa1561061457565b604051907f05763055a5e492ac70f920774b8e1860306a2567a9a11d0b456d5cb1280144b282527f03d67d1e9ae876b6ac191029af5be271ca1787eab0b30b620c8a241283819f086020830152604082019081526107cf196040836060816007855a01fa156106145760409260066080939284938451905260a05160608401525a01fa1561061457565b604051907f1b1ab3e4f2134414e785162303c2735af9092a778708e012ef51d6b5fc3ee02982527f0f5690f0a4ae2fc0bd347a712ba80f2968af2b52cdb173f7ae91bc0ec35707b36020830152604082019081526107cf196040836060816007855a01fa156106145760409260066080939284938451905260a05160608401525a01fa1561061457565b604051907f2f741b1ab463a65305690fcd1632dde068bda765b46527c929ccbff0811f494582527f189302987b41f78befd87f6e3dcb79c7ed3c88cf6caf9db54edac523915508ec6020830152604082019081526107cf196040836060816007855a01fa156106145760409260066080939284938451905260a05160608401525a01fa1561061457565b604051907f2f86d6b6e5444b53345f4234c6527c1cfeb0e4539da0f53aa0c8c135d01c775582527f285865dc6ebebafc137beb760c2cd17a7544e388144e2c495816701c2ce00f4f6020830152604082019081526107cf196040836060816007855a01fa156106145760409260066080939284938451905260a05160608401525a01fa1561061457565b604051907f1d5376693c60198db1a2c9acd7f31917a4fc978b88e2fca882f69e2bf6dfee1782527f26cb1d03ee4d583bc579e238a706037ff57febc602188f7fff26b0640369aba36020830152604082019081526107cf196040836060816007855a01fa156106145760409260066080939284938451905260a05160608401525a01fa1561061457565b604051907f27c377197d7fbec80cb00ea24ecc4a14948249fb89c7fa35536ae9614d33cd9382527f0db6e12cd84da27cf2ed65d28f4334b7a14e7a1ca9f3f866cf3ce240a3925b9c6020830152604082019081526107cf196040836060816007855a01fa156106145760409260066080939284938451905260a05160608401525a01fa1561061457565b604051907f0d6908f900c21f88a976f97c5e121ecc6f1f829594d6b2964bbb703b8b6b967d82527f2649f571079224a49243be09d4c05fcf677a3fe8341cf7afe51283b5e01b50e36020830152604082019081526107cf196040836060816007855a01fa156106145760409260066080939284938451905260a05160608401525a01fa1561061457565b604051907f044723f1e81b999335740d579fb07ff0f18f5b55aadcb99474bdf4f4a7ffd94082527f169e5beae2ec8e584b5a3456d2ac91e7ecd4fbbc9feb0d924ded5b0ef63044386020830152604082019081526107cf196040836060816007855a01fa156106145760409260066080939284938451905260a05160608401525a01fa1561061457565b604051907f1c91a3e3cf09f6196e6701f5a0ddba9ac13e7d9994ebe2d6fb92fc8e19dde26582527f10ae9f14fc898a010b70c0629a0dbf360daa39db75b5016223e351e0f3d634026020830152604082019081526107cf196040836060816007855a01fa156106145760409260066080939284938451905260a05160608401525a01fa1561061457565b604051907f2b1f2f88a5fa3f0a93677c1c81c104f48b0b1ab80c31b0088a8561992837d9e582527f229d696ac03b13b0b1c2a78175819c74a4f6e99f5cc73a24b975b0c4b782e71b6020830152604082019081526107cf196040836060816007855a01fa156106145760409260066080939284938451905260a05160608401525a01fa1561061457565b604051907f1a548240af6242497eef0baca1ed0fe872e683e4ac631397281c85c16df8498482527f06e19431db31c87d2a9229ec298f762768df47926bf5de0020acd4a7f918228a6020830152604082019081526107cf196040836060816007855a01fa156106145760409260066080939284938451905260a05160608401525a01fa1561061457565b604051907f10c91693dde098635153b49559d3ed996e5f61391861bcfb663204856aeed49282527f1f1854e4c3f751951bf9dc351a7690f2e4b06b3314714ebf80df7d655d6583236020830152604082019081526107cf196040836060816007855a01fa156106145760409260066080939284938451905260a05160608401525a01fa1561061457565b604051907f0842417213e9f269de96707270f407f16907d7ef583da4bec619ebd2985b030982527f1e012585abcc79c59ecf3d0c3bae41b9c52d01def26b4d766859b5bbdc4475606020830152604082019081526107cf196040836060816007855a01fa156106145760409260066080939284938451905260a05160608401525a01fa1561061457565b604051907f2dc89b911d375407965447e3d110364f63716090e45a2a75318e068742a93eff82527f28a30d7d5e8b351daaa78a88f28ab15e5b9e94864b23145250a0e9356723076e6020830152604082019081526107cf196040836060816007855a01fa156106145760409260066080939284938451905260a05160608401525a01fa1561061457565b604051907f239c82700fe2e0281da11cc642757879bf0be9060f52dfc05502b761643a3ddc82527f07a280b3ecc8c0e00057b82f9fbcf127290edbdf9f1f74cbe381fa7e539ed7086020830152604082019081526107cf196040836060816007855a01fa156106145760409260066080939284938451905260a05160608401525a01fa1561061457565b604051907f2221eb8c2dfbbcc0122394c5d9c2394d6252e3ba24d906fbaa3904f65bdc7eac82527f13bf76442010b9177f59476353467361e6d823ee6364e2471c570bb5ebf957446020830152604082019081526107cf196040836060816007855a01fa156106145760409260066080939284938451905260a05160608401525a01fa1561061457565b604051907f17d7b6bcbea2cc9f820e25538d99d1a2ba0c592e3db506768bf876e51b5b166882527f1006d96016bf90e81009c3c3e934126825d9fbf5dac52d1c44be7f6b541bc2726020830152604082019081526107cf196040836060816007855a01fa156106145760409260066080939284938451905260a05160608401525a01fa1561061457565b604051907f2b4e299b630517ee58c1efaf494ed84704c44f07a2c1d8c5df18590ded27730182527f109529fd081ad2ae9a8390d04eb2a5c6c459f82dc8dc4ba3f4f47ecdfc82a6f36020830152604082019081526107cf196040836060816007855a01fa156106145760409260066080939284938451905260a05160608401525a01fa1561061457565b604051907f0ee6af974f0e101735c0e2ad1c8154cb76360c8f8d6871069fa4caedc230150482527f2932388cced394175e16497d82e6663928395d832aa3238891cdb8bf590883c36020830152604082019081526107cf196040836060816007855a01fa156106145760409260066080939284938451905260a05160608401525a01fa1561061457565b604051907f2f0de7502e28264c8946f432514df135b7b4477254a4fda680b9b95bb3dce15882527f1e7c334f1d76394934eca877fcdf7965350ba6695d45fe781927ea266dae77f16020830152604082019081526107cf196040836060816007855a01fa156106145760409260066080939284938451905260a05160608401525a01fa1561061457565b604051907f02955788e4920ef039dba422eea496511c298dbb563b914f9a8ed84f9466f89a82527f2e63edaa8b83437fc10364ee15134a83f6d5c30361e3cd2fe527bd3d9107c5486020830152604082019081526107cf196040836060816007855a01fa156106145760409260066080939284938451905260a05160608401525a01fa1561061457565b604051907f0b3697080466b33bae7deca56b808d722fad758ab82545e3e6deffe03c748b3082527f01dbd2ef48e36b45b3a469ebcbcff94efa032931adde2ad0f759f05f7ff4ebd86020830152604082019081526107cf196040836060816007855a01fa156106145760409260066080939284938451905260a05160608401525a01fa1561061457565b604051907f17a6c315ac53249df7f49f7c05308eac98a34f86c0aecb574736e2886d567ec782527f1c52bad65a42c6815cf399c128a7c4da29e44059192280599a5825ec6d5604796020830152604082019081526107cf196040836060816007855a01fa156106145760409260066080939284938451905260a05160608401525a01fa1561061457565b604051907f0b79ccbcaf027c764046652f723330700c379cb257b54f6bc0c184534e4e52a182527f2c45f6300e25514a9dffa599ca8c89bdaf1a32931c323cece838e88cdcbd77c26020830152604082019081526107cf196040836060816007855a01fa156106145760409260066080939284938451905260a05160608401525a01fa1561061457565b604051907f2a1a2d52e0dedb188044268de063c068f754cb28cb4c5bc47527791e8925e77682527f171cab8d60578c136fac9f76eaee884b3d152a80b84636acfcde0954e314c9a56020830152604082019081526107cf196040836060816007855a01fa156106145760409260066080939284938451905260a05160608401525a01fa1561061457565b604051907f112cf6541eed33879a2d21c4cfd25c65e59eb8fef9dfd8d62e8f26f13ab4ee0a82527f03eea301d3a2b0ebb5385006d585324c4ac95af84ae90309a4bcbbe91beab4026020830152604082019081526107cf196040836060816007855a01fa156106145760409260066080939284938451905260a05160608401525a01fa1561061457565b604051907f08bdb4ca5e71ec6b50fc74f982be260856be3ff15b275571b168b03973e634d982527f0b7b17060b0164b2dbb9d596af5fb5c67f4b751d7b4221b58dc799fca980546f6020830152604082019081526107cf196040836060816007855a01fa156106145760409260066080939284938451905260a05160608401525a01fa1561061457565b604051907f0ac6b3597a6a148a39a2b6e27f1b25b8243e27829d1aff60856632f8ffbc6d6f82527f1216e5c1c34a824838f6d34038aa4642a0f5c70cc0ab7e9d22705e5164a93b456020830152604082019081526107cf196040836060816007855a01fa156106145760409260066080939284938451905260a05160608401525a01fa1561061457565b604051907f0338f0f8619773b486e9f8fd56c18fadcc55970b6f171c9624010ae56741cd4182527f0ba73e86d402f3c30ef858bee775bafad8739e5318f867bf6fa229f9a0da0a1a6020830152604082019081526107cf196040836060816007855a01fa156106145760409260066080939284938451905260a05160608401525a01fa1561061457565b604051907f2315db78c2e81c7bf1a3777ed0047c1a30152c2204867b5b4a85e0c8ceed057582527f055078540252324eaee331f15556d2d3e35534ce9f34b9e4365981ef315c18346020830152604082019081526107cf196040836060816007855a01fa156106145760409260066080939284938451905260a05160608401525a01fa1561061457565b604051907f301d48a0a929d69277adb85168b4b1debfbeeec48c70c6da55cae81a7ca9443882527f0723deffeba35bcae01f8853c025faec9cc1ab6c426fb79948dc6690b120c1b26020830152604082019081526107cf196040836060816007855a01fa156106145760409260066080939284938451905260a05160608401525a01fa1561061457565b604051907f087d24d180915cc9d31b170ca4da94309c9961a13d7307a392f0257ecf9b5ebe82527f13b3f365eb083c4503159698f34dfd74913bcda4a91edfa6dac1f244ab7683d56020830152604082019081526107cf196040836060816007855a01fa156106145760409260066080939284938451905260a05160608401525a01fa1561061457565b604051907f29492733e20788d60448db35e84987d7d686d364d76a6787455847710a18525582527f228ecb3de1d2aef271a61c998c686f0f23281dec4603be6aec5fc9064e72ab586020830152604082019081526107cf196040836060816007855a01fa156106145760409260066080939284938451905260a05160608401525a01fa1561061457565b604051907f2d40024d9a971c598641b23615a50646a187fd737fa63661cfa9abf0545ed36d82527f23e025a79e7426ec6dee261098353727879c61113b9c635b74075731da8e69996020830152604082019081526107cf196040836060816007855a01fa156106145760409260066080939284938451905260a05160608401525a01fa1561061457565b604051907f05d267b17d1cc8c765d5aab611a2b0dcbd4cca1ae199f7878c8c2d0f1c36997382527f284247ac393912c27209d0e8a8cb6923e069a3b3c6e552252ca1771c69644a056020830152604082019081526107cf196040836060816007855a01fa156106145760409260066080939284938451905260a05160608401525a01fa1561061457565b604051907f0d017717b96c332c13f56af7da13e12a5b3b52b3f3bab03ae86930d6cd86777582527f1335de970d054e211916999b3ef8070229b2644bb6a8928e3e7c341c3162c6536020830152604082019081526107cf196040836060816007855a01fa156106145760409260066080939284938451905260a05160608401525a01fa1561061457565b604051907f2ed8c96925627f42fc98e389f466f01434c6e822d437521b9f45f9f14d4d26d182527f268c63b92872fd1f75feea8a3a6b9459af7235e2dc4495fc2adf9138f585cfde6020830152604082019081526107cf196040836060816007855a01fa156106145760409260066080939284938451905260a05160608401525a01fa1561061457565b604051907f1b568b17bd0f0ed36724b6b18e647b10a7f52729d3d40e357e7ccf866339ecb682527f1ae3f8fa6ad9c5fa67b10c21074b1e11f5b69e10c34c3b2857188e47ba9c3e516020830152604082019081526107cf196040836060816007855a01fa156106145760409260066080939284938451905260a05160608401525a01fa1561061457565b604051907f19311f9b180c61d7a18da965095edc2bee300c7ec021931b51214087145fda8a82527f1cf8977cff9ba99eb562ce739c42a2e77873344e9d64ab7706d3a78a45cc1ac56020830152604082019081526107cf196040836060816007855a01fa156106145760409260066080939284938451905260a05160608401525a01fa1561061457565b604051907f04c45db9d2ce7a46a7d4fbef5db407ef848f276d4041f3d8954168f379e8a20d82527f178ba1f359c4a2bc8a4513567869aa13a14d84bb192049ee5ba31ce303a5f3296020830152604082019081526107cf196040836060816007855a01fa156106145760409260066080939284938451905260a05160608401525a01fa1561061457565b604051907f13151e3249cf0b7d9a862fdcf96410275aec093bd8eeefb68233978bea06bcc082527f217e55e8dd8a0434fd1a11f81a19c0fcbfd14cb3faa0730c6ab14c7fb998ecb86020830152604082019081526107cf196040836060816007855a01fa156106145760409260066080939284938451905260a05160608401525a01fa1561061457565b604051907f1a79be32d9fb6cd2608bbd663c664df35c829a2e2e7662566e036f2b0b43734c82527f1d1906054c6a016be5d988242090cddf14c78266235d4c723dbb2c632867e6c26020830152604082019081526107cf196040836060816007855a01fa156106145760409260066080939284938451905260a05160608401525a01fa1561061457565b604051907f02aa2723e45162ce4771e9cd441a0fdcaf91fd6d941d554f57827b1d5553966482527f0432d39a43dce16e637abaf2a0a531df7542df9b5e4c125c5d39b6833e8055f86020830152604082019081526107cf196040836060816007855a01fa156106145760409260066080939284938451905260a05160608401525a01fa1561061457565b604051907f1f83b9db4d9d6773609387d34318efe6859084fe49fb7e66b42c60a711e8e94682527f113dbe3567dc7d9b0f5a1609a698868a7d30be90cde167ae09df848fd4f4d2f86020830152604082019081526107cf196040836060816007855a01fa156106145760409260066080939284938451905260a05160608401525a01fa1561061457565b604051907f11a459eeec87e28ef5ccb0f0683d1ba941b262acb42264a08bad99e12a38d83782527e6dcd6da69cc7fb853432229e67ee22dfbfd40ecf90c45641c1ff6000fc4fd66020830152604082019081526107cf196040836060816007855a01fa156106145760409260066080939284938451905260a05160608401525a01fa1561061457565b604051907f0da5b4eba7fa2bf0c6a3b2afb7ebd1625e8e7d82ae8e70c646ab696e08b62a0482527f02a1653decf77b2d17e5e74b29b81a6ff2dc3f2bcf0e5a23c4f65aa5c34a77386020830152604082019081526107cf196040836060816007855a01fa156106145760409260066080939284938451905260a05160608401525a01fa1561061457565b604051907f290fcca51493261dabc3a05c1b27f3bb73f7b82d38d322897d45f100cd3accba82527f27df8fffc6bf3e122fc3f0994ac7db1e274be3a30b92406bf5af6204191646a06020830152604082019081526107cf196040836060816007855a01fa156106145760409260066080939284938451905260a05160608401525a01fa1561061457565b604051907f172c40f34bae71366d54a6390e994b12522dc2c6f772baad356b84e6f3a63fb882527f22b76839a5392b5d0540b673235bdcbc3241d7567954c013155e2b6349e67f2c6020830152604082019081526107cf196040836060816007855a01fa156106145760409260066080939284938451905260a05160608401525a01fa1561061457565b604051907f2110c47e9a65c8bec776ca7dda4eb9cf87b183c41f5015ca511a56a11558d2f482527f2ffd4ad068a445931fa57615465601d7b07e99d516afa6119e93ff062d8085716020830152604082019081526107cf196040836060816007855a01fa156106145760409260066080939284938451905260a05160608401525a01fa1561061457565b604051907f1a38dacd5457bc94083f4d66e9ae685d4144fd21254789fe171c19f6845ad52d82527f1de3fa5702f361f0156646ddbb74b786cf1202907b941eae28747420f2c8ae696020830152604082019081526107cf196040836060816007855a01fa156106145760409260066080939284938451905260a05160608401525a01fa1561061457565b604051907f1d6a43282bc70f50e1a670fe11f8309de71dfb0e811db7cb2e9631486d865eb982527f16f719ca5f083c315091df768869f049e9090d50b19f2b1c8a31a682531df0366020830152604082019081526107cf196040836060816007855a01fa156106145760409260066080939284938451905260a05160608401525a01fa1561061457565b604051907f1c0c5946ab44564efc33f4f73cb7df8ce5ef6521efa0b93713c69275a92b56e282527f176fd6ed1642b3b0634eb0107eb2a27c9886dc99f526afd255b8988e38ea97056020830152604082019081526107cf196040836060816007855a01fa156106145760409260066080939284938451905260a05160608401525a01fa1561061457565b604051907f0289c78bdb18a5d5ffd9729ae75e535128b91d1269a8c1d10d170f4dcc7355d282527f0cd617e399ab43771826034c1be33b99593205f26265268f6b8169d6b7865a466020830152604082019081526107cf196040836060816007855a01fa156106145760409260066080939284938451905260a05160608401525a01fa1561061457565b604051907f0a135e6db8299b49bfff8851db529efd12502fc0df3ac64ceb371c9f19aa54f582527f05c8bed17ebc6db9a1f31c02d184d288b8bb6bfee52d8ead4dd56bd4f999884a6020830152604082019081526107cf196040836060816007855a01fa156106145760409260066080939284938451905260a05160608401525a01fa1561061457565b604051907f169ef0c9603547578d2ee6e6129b79bae949f1397e57ac29c7b0a8975ede5bda82527f03d8cbf48b5117b64f2629ef11bee1bc033a88d4ee00564ea4509d304d18e7b96020830152604082019081526107cf196040836060816007855a01fa156106145760409260066080939284938451905260a05160608401525a01fa1561061457565b604051907f040e4a036a50ca6eb473a06f4bba0b5f93f9d8efb3c72a6c261e1b6b0e94592682527f1bbb93cf8e220461c6e2064b15d2656de481a520f2b9dd055e3e4211c3cee4d96020830152604082019081526107cf196040836060816007855a01fa156106145760409260066080939284938451905260a05160608401525a01fa1561061457565b604051907f25a3eb343642b80d6cbb8388b20d747d3ce9491b96229c515cbffdf23ef3a47482527f0cee004a0dae49cbe65bc61dab1d17e3f874d33cfcacdd06f2970df8110694046020830152604082019081526107cf196040836060816007855a01fa156106145760409260066080939284938451905260a05160608401525a01fa1561061457565b604051907f29891605d8abfc84557e48a8b49fe23a07b3882a995f73e3199d2c932c705c1782527f1f13925a4a9d9f17409c58e833e889dec7bbfdc90b9df12a7c43e3971700e45c6020830152604082019081526107cf196040836060816007855a01fa156106145760409260066080939284938451905260a05160608401525a01fa1561061457565b604051907f2b4ceb162a87f8c25a4eabb1b6f25d528964b1fbc4eeb6cae164378c7928700a82527f284a3ae0c443c114b26bf819a305b2b539d049d096db495ed0d140bb1b1e6b3d6020830152604082019081526107cf196040836060816007855a01fa156106145760409260066080939284938451905260a05160608401525a01fa1561061457565b604051907f049e4d3ec6176b905f70a705c9d3a8535ef1821d740dc8935239f522002cf7a882527f1e9c9a2a3fd14fe95286d560bcfe27a14651e6ccf19934f0c82e6a6fd2cd22a56020830152604082019081526107cf196040836060816007855a01fa156106145760409260066080939284938451905260a05160608401525a01fa1561061457565b6020907f20e41d05807c589cba815291a00c073b38b5360ed7b03db86e01f3b608015e3b6080527f233242d4ad1b99637346fe18a2b182b493f912ce1fa349041c60d0d8ce34e18160a0526142d26101043561061e565b6142de610124356106a8565b6142ea61014435610732565b6142f6610164356107bc565b61430261018435610846565b61430e6101a4356108d0565b61431a6101c43561095a565b6143266101e4356109e4565b61433261020435610a6e565b61433e61022435610af8565b61434a61024435610b82565b61435661026435610c0c565b61436261028435610c96565b61436e6102a435610d20565b61437a6102c435610daa565b6143866102e435610e34565b61439261030435610ebe565b61439e61032435610f48565b6143aa61034435610fd2565b6143b66103643561105c565b6143c2610384356110e6565b6143ce6103a435611170565b6143da6103c4356111fa565b6143e66103e435611284565b6143f26104043561130e565b6143fe61042435611397565b61440a61044435611421565b614416610464356114ab565b61442261048435611535565b61442e6104a4356115bf565b61443a6104c435611649565b6144466104e4356116d3565b6144526105043561175d565b61445e610524356117e7565b61446a61054435611871565b614476610564356118fb565b61448261058435611985565b61448e6105a435611a0f565b61449a6105c435611a99565b6144a66105e435611b23565b6144b261060435611bad565b6144be61062435611c36565b6144ca61064435611cc0565b6144d661066435611d4a565b6144e261068435611dd4565b6144ee6106a435611e5e565b6144fa6106c435611ee8565b6145066106e435611f72565b61451261070435611ffc565b61451e61072435612086565b61452a61074435612110565b6145366107643561219a565b61454261078435612224565b61454e6107a4356122ae565b61455a6107c435612338565b6145666107e4356123c2565b6145726108043561244c565b61457e610824356124d6565b61458a61084435612560565b614596610864356125ea565b6145a261088435612674565b6145ae6108a4356126fe565b6145ba6108c435612788565b6145c66108e435612812565b6145d26109043561289c565b6145de61092435612926565b6145ea610944356129b0565b6145f661096435612a3a565b61460261098435612ac4565b61460e6109a435612b4e565b61461a6109c435612bd8565b6146266109e435612c62565b614632610a0435612cec565b61463e610a2435612d76565b61464a610a4435612e00565b614656610a6435612e8a565b614662610a8435612f14565b61466e610aa435612f9e565b61467a610ac435613028565b614686610ae4356130b2565b614692610b043561313c565b61469e610b24356131c6565b6146aa610b4435613250565b6146b6610b64356132da565b6146c2610b8435613364565b6146ce610ba4356133ee565b6146da610bc435613478565b6146e6610be435613502565b6146f2610c043561358c565b6146fe610c2435613616565b61470a610c44356136a0565b614716610c643561372a565b614722610c84356137b4565b61472e610ca43561383e565b61473a610cc4356138c8565b614746610ce435613952565b614752610d04356139dc565b61475e610d2435613a65565b61476a610d4435613aef565b614776610d6435613b79565b614782610d8435613c03565b61478e610da435613c8d565b61479a610dc435613d17565b6147a6610de435613da1565b6147b2610e0435613e2b565b6147be610e2435613eb5565b6147ca610e4435613f3f565b6147d6610e6435613fc9565b6147e2610e8435614053565b6147ee610ea4356140dd565b6147fa610ec435614167565b614806610ee4356141f1565b61010092818492358352837f30644e72e131a029b85045b68181585d97816a916871ca8d3c208c16d87cfd479101358103066101205260443561014052606435610160526084356101805260a4356101a0527f2d4d9aa7e302d9df41749d5507949d05dbea33fbb16c643b22f599a2be6df2e26101c0527f14bedd503c37ceb061d8ec60209fe345ce89830a19230301f076caff004d19266101e0527f0967032fcbf776d1afc985f88877f182d38480a653f2decaa9794cbc3bf3060c610200527f0e187847ad4c798374d0d6732bf501847dd68bc0e071241e0213bc7fc13db7ab610220527f304cfbd1e08a704a99f5e847d93f8c3caafddec46b7a0d379da69a4d112346a7610240527f1739c1b1a457a8c7313123d24d2f9192f896b7c63eea05a9d57f06547ad0cec8610260526080516102805260a0516102a0527f198e9393920d483a7260bfb731fb5d25f1aa493335a9e71297e485b7aef312c26102c0527f1800deef121f1e76426a00665e5c4479674322d4f75edadd46debd5cd992f6ed6102e05282610300917f090689d0585ff075ec9e99ad690c3395bc4b313370b38ef355acdadcd122975b83527f12c85ea5db8c6deb4aab71808dcb408fe3d1e7690c43d37b4ce6cc0166fa7daa610320528035610340520135610360527f03605d9f566a7489bdaac9e69d24cb6f1ea6a1537753161c67012e1f1e6043f9610380527f05e78defc8cd81673ebb98206721bc91012f1dc955ebfe1efae89c3a884cdcab6103a0527f14fedc3cb3dd034aa1d09bc2a1283b4b13aa2dca3ec770bf061491aaf7b960d66103c0527f1c8562a8a04167744cdd52622a036815c1c7c58d0c06467f0ad730169b8696206103e0528160086107cf195a01fa9051169056fea264697066735822122036bba0545bf61b344f8b4c562ef18b4f4d6cf858596c9e429320163c2c23ee0b64736f6c634300080f0033",
  "linkReferences": {},
  "deployedLinkReferences": {}
}