{
  "_format": "hh-sol-artifact-1",
  "contractName": "Groth16Verifier",
  "sourceName": "contracts/Game_9_50Verifier.sol",
  "abi": [
    {
      "inputs": [
        {
          "internalType": "uint256[2]",
          "name": "_pA",
          "type": "uint256[2]"
        },
        {
          "internalType": "uint256[2][2]",
          "name": "_pB",
          "type": "uint256[2][2]"
        },
        {
          "internalType": "uint256[2]",
          "name": "_pC",
          "type": "uint256[2]"
        },
        {
          "internalType": "uint256[102]",
          "name": "_pubSignals",
          "type": "uint256[102]"
        }
      ],
      "name": "verifyProof",
      "outputs": [
        {
          "internalType": "bool",
          "name": "",
          "type": "bool"
        }
      ],
      "stateMutability": "view",
      "type": "function"
    }
  ],
  "bytecode": "0x608080604052346100165761446d908161001c8239f35b600080fdfe6080604052600436101561001257600080fd5b6000803560e01c63274182f81461002857600080fd5b3461055057610dc03660031901126105505761004336610553565b3660c41161054c5761005436610565565b90610dc436811161054857916105449161053f6020959461040060405261007d61010435610573565b61008961012435610573565b61009561014435610573565b6100a161016435610573565b6100ad61018435610573565b6100b96101a435610573565b6100c56101c435610573565b6100d16101e435610573565b6100dd61020435610573565b6100e961022435610573565b6100f561024435610573565b61010161026435610573565b61010d61028435610573565b6101196102a435610573565b6101256102c435610573565b6101316102e435610573565b61013d61030435610573565b61014961032435610573565b61015561034435610573565b61016161036435610573565b61016d61038435610573565b6101796103a435610573565b6101856103c435610573565b6101916103e435610573565b61019d61040435610573565b6101a961042435610573565b6101b561044435610573565b6101c161046435610573565b6101cd61048435610573565b6101d96104a435610573565b6101e56104c435610573565b6101f16104e435610573565b6101fd61050435610573565b61020961052435610573565b61021561054435610573565b61022161056435610573565b61022d61058435610573565b6102396105a435610573565b6102456105c435610573565b6102516105e435610573565b61025d61060435610573565b61026961062435610573565b61027561064435610573565b61028161066435610573565b61028d61068435610573565b6102996106a435610573565b6102a56106c435610573565b6102b16106e435610573565b6102bd61070435610573565b6102c961072435610573565b6102d561074435610573565b6102e161076435610573565b6102ed61078435610573565b6102f96107a435610573565b6103056107c435610573565b6103116107e435610573565b61031d61080435610573565b61032961082435610573565b61033561084435610573565b61034161086435610573565b61034d61088435610573565b6103596108a435610573565b6103656108c435610573565b6103716108e435610573565b61037d61090435610573565b61038961092435610573565b61039561094435610573565b6103a161096435610573565b6103ad61098435610573565b6103b96109a435610573565b6103c56109c435610573565b6103d16109e435610573565b6103dd610a0435610573565b6103e9610a2435610573565b6103f5610a4435610573565b610401610a6435610573565b61040d610a8435610573565b610419610aa435610573565b610425610ac435610573565b610431610ae435610573565b61043d610b0435610573565b610449610b2435610573565b610455610b4435610573565b610461610b6435610573565b61046d610b8435610573565b610479610ba435610573565b610485610bc435610573565b610491610be435610573565b61049d610c0435610573565b6104a9610c2435610573565b6104b5610c4435610573565b6104c1610c6435610573565b6104cd610c8435610573565b6104d9610ca435610573565b6104e5610cc435610573565b6104f1610ce435610573565b6104fd610d0435610573565b610509610d2435610573565b610515610d4435610573565b610521610d6435610573565b61052d610d8435610573565b610539610da435610573565b35610573565b613c9f565b8152f35b8380fd5b5080fd5b80fd5b9060049160441161056057565b600080fd5b9060c4916101041161056057565b7f30644e72e131a029b85045b68181585d97816a916871ca8d3c208c16d87cfd47111561059c57565b6000805260206000f35b604051907f221126799e4e34084161c92322deab70a0848521ab1d7fcd4e97390f1bdc09cb82527f07d4cd47472fbe1eabfd254e29b8b0a36f857892d6186f1443f2d2988722accc6020830152604082019081526107cf196040836060816007855a01fa1561059c5760409260066080939284938451905260a05160608401525a01fa1561059c57565b604051907f16a8f94d1fbbc7cefc6f4864dd419e62ea94b493c5ef6465c6ae173517cf622182527f2539f41b588acb5836cb812ef4e8d10cf04c43e3a89eca8ba267dfc924b100106020830152604082019081526107cf196040836060816007855a01fa1561059c5760409260066080939284938451905260a05160608401525a01fa1561059c57565b604051907f0db4eb5ff587d4dbaaf060ab1bf7f618c0e27295582d3135a33109f291ef444d82527f0b4dc5e71aaa7d675d89df8b73f537154b6a0a625447723e153606e6a73d847c6020830152604082019081526107cf196040836060816007855a01fa1561059c5760409260066080939284938451905260a05160608401525a01fa1561059c57565b604051907f027248e24954c34113e22bf7ea1872e2f8d63414e1aa0bc446b92bc095dec89382527f0bab4dfe2eba37f23f72001e19000b31538a06799fc5f1134234fa1fbaa3340b6020830152604082019081526107cf196040836060816007855a01fa1561059c5760409260066080939284938451905260a05160608401525a01fa1561059c57565b604051907f2ec1a13c60cf4f08fb391519838992d1a2ed22b53f4249dd2aea15e410f68b7482527f0395c1af0068953d2cd4a84293469ac88fe5e8dd3262fbd793d7ecb8b2b5cc916020830152604082019081526107cf196040836060816007855a01fa1561059c5760409260066080939284938451905260a05160608401525a01fa1561059c57565b604051907f1ef961ee10c52bef38fe7d447491262ece84275551666ea37a93e3208701bbed82527f1bf5a1681f218163dd716b6655b01657ae6e1dd30240d17b1a42c7ae734407466020830152604082019081526107cf196040836060816007855a01fa1561059c5760409260066080939284938451905260a05160608401525a01fa1561059c57565b604051907f03f56bdbd0a71a51bab492af92445487b4beccd130d1596035d2a4bc899b22f682527f2adcda57a0dec95c7e3045b1a2158d489e582820f85444a9672866d916bc777e6020830152604082019081526107cf196040836060816007855a01fa1561059c5760409260066080939284938451905260a05160608401525a01fa1561059c57565b604051907f21dfe8632d19082b8f8f6b16ed80640216538c872cb0a7bbe1139f9eaf09401982527f2cfa173cf31d323067985b4659cb929bdf7f6e77a7742cfd3cf0615e3053cc2e6020830152604082019081526107cf196040836060816007855a01fa1561059c5760409260066080939284938451905260a05160608401525a01fa1561059c57565b604051907f2d5e2ba23bb2296188ecfdc94252d5a7aae6fb89619f3935287b4417f188bdec82527f086b75f35fb3679685b924a05949190b346a52211a072c5e716fa1d0483622a86020830152604082019081526107cf196040836060816007855a01fa1561059c5760409260066080939284938451905260a05160608401525a01fa1561059c57565b604051907f2fa9e900078f55fcc8d6ef3d8c5868f145286eaa60fc19c3cfeb0ddde45c85bf82527f06ac3f033a80d6ebc5e2fba46bae4681159f54f4d909789f845f545cbcc849fb6020830152604082019081526107cf196040836060816007855a01fa1561059c5760409260066080939284938451905260a05160608401525a01fa1561059c57565b604051907f06b7e7c7592cab48725a73f86cd508bb9275affe5a8ba8e2654284d655aac40482527f2726072d960c6af9ccce76b6b6f0ed9328c3047efce480649a7a67a9a049d8946020830152604082019081526107cf196040836060816007855a01fa1561059c5760409260066080939284938451905260a05160608401525a01fa1561059c57565b604051907f1a4bf40bbcbe61348492c2103da9cdf03e291d8fb7ef3f0540e9c5a4e1309fc282527f2c35b836f52f9e20aa78fff952cf29f9436de52b5e0f73671883e83f655987546020830152604082019081526107cf196040836060816007855a01fa1561059c5760409260066080939284938451905260a05160608401525a01fa1561059c57565b604051907f0a24e323c77ddf00a1c240e2552fa599788b04d2b3cc39cd63a5b1b46db893ca82527f19221457ec2253ded08e9f9db600d24f9a5176c87d5224a5e4c0b235e9e816176020830152604082019081526107cf196040836060816007855a01fa1561059c5760409260066080939284938451905260a05160608401525a01fa1561059c57565b604051907f2b52a20dda9727e2eef48b37f0c163b566de42e714232ad77611ebeb0fdf8c6c82527f231da21078d6a9496a51fb882ffe464cdd9ed2275f64a07b443b31e52b34542f6020830152604082019081526107cf196040836060816007855a01fa1561059c5760409260066080939284938451905260a05160608401525a01fa1561059c57565b604051907f1d36f096e1958216acb2a6ee8ca65d9ee768f6a9bfe8aff5025cf8f569a11bfe82527f2fbc08346de9238889380679e60e569240cdff9d06332f681c5479d730a698bf6020830152604082019081526107cf196040836060816007855a01fa1561059c5760409260066080939284938451905260a05160608401525a01fa1561059c57565b604051907f12b30c36d2ac87f2d553e900083644ca910624f77b8ef5c7e039301ae7f3363882527f2587e566a4a812e04c680daade902ee5132c7450f0a06281729fadb957e86ca16020830152604082019081526107cf196040836060816007855a01fa1561059c5760409260066080939284938451905260a05160608401525a01fa1561059c57565b604051907f02be1a2994ae60638d0da36deb4a281262c850cdda95599e0e769ed6c20f453782527f13ddac5c90b723d5ddced8084006e2213e2072eeddd446dc1602e8e6319b82e36020830152604082019081526107cf196040836060816007855a01fa1561059c5760409260066080939284938451905260a05160608401525a01fa1561059c57565b604051907f09ea19d99664a59d7287dd9d1ea14ba5953ef4e43c8adfb36b20b686e75e7aa382527f276fcb37f8caa9c36920571ea9eeb92da770471cafec7844de31a5423cf2df146020830152604082019081526107cf196040836060816007855a01fa1561059c5760409260066080939284938451905260a05160608401525a01fa1561059c57565b604051907f19225a30255ed268a8813d3ec31e8a0e35df347ecafcd4914fff8bdc1ebeb27882527f2bcf3bd8ab0d4a331930cf8ddfe95c3286b6428af283e5f36c10e6d7b312f9ab6020830152604082019081526107cf196040836060816007855a01fa1561059c5760409260066080939284938451905260a05160608401525a01fa1561059c57565b604051907f0ab022fae6d731ef1ff4247497d2fa0becb31fe59aac86e0aa48d9a3c2ee0d8382527f0ed1de45e7ae24bbeade199c0152f7c015c941f4980d79e7abff61ee5faad37e6020830152604082019081526107cf196040836060816007855a01fa1561059c5760409260066080939284938451905260a05160608401525a01fa1561059c57565b604051907f2326b8ef90f6b37f15f6991d28363cdf4d6f3d767df9017787e303a30fe2be8982527f1f2ad7f1c5e4bbb25b3820a22b81a6be5919c5827784fe1f5bcbbbab0c701ff46020830152604082019081526107cf196040836060816007855a01fa1561059c5760409260066080939284938451905260a05160608401525a01fa1561059c57565b604051907f20679f4bbea26b9705e270a4adfa7bfff623fc1f6589cf71d9548a531ef3d42382527f22e6225293080af18f8d98a5472c9964b967088c9b9c4b997d9b03a5f16e73126020830152604082019081526107cf196040836060816007855a01fa1561059c5760409260066080939284938451905260a05160608401525a01fa1561059c57565b604051907f0c7e6e367ae8bd76361873f368d7357c06916d022e27115061931aec37070fc782527f1601c60a60e50f5d13d1c46fcde2c69f49825ad9e1c43d2f994330c694d473e36020830152604082019081526107cf196040836060816007855a01fa1561059c5760409260066080939284938451905260a05160608401525a01fa1561059c57565b604051907f0e45002955e980e51ad1c80f34ae9f0b0427bd9c2c8559618e0423a168dc2a5282527f1ad3a76b2206a62d09d56d51efd569ed63e2b8042fd53e12cc9b243f292c6cd76020830152604082019081526107cf196040836060816007855a01fa1561059c5760409260066080939284938451905260a05160608401525a01fa1561059c57565b604051907f0e6e0b2aa880e613373a8e6349596c71cbd8fcaed716248ac8f5e91a023faac982527f14881e0f82a6a3058e4aae66330d5f4ca5e23abfa7d05bd668a438372949c5cf6020830152604082019081526107cf196040836060816007855a01fa1561059c5760409260066080939284938451905260a05160608401525a01fa1561059c57565b604051907f1f755df783dec1716744a36e6eaa47483000eba37a6a268426c720123a61ca1b82527f2ef4dae6013c4cb0189e0976df48e8c734a02c91c92682590647f1d6c5560fbe6020830152604082019081526107cf196040836060816007855a01fa1561059c5760409260066080939284938451905260a05160608401525a01fa1561059c57565b604051907f163257830598591f85e5e857702bf673976d8f667a0960a2169c31246567527982527f2a9439ea54c437861b04637e013ec5aac5f975f6a4bc26eea45bd1ee8ac6b23c6020830152604082019081526107cf196040836060816007855a01fa1561059c5760409260066080939284938451905260a05160608401525a01fa1561059c57565b604051907f22f5b187b883c8d84dfdc00ca2797b68b2f119a5d5b6200dae9b8568e5d7294182527f07ff7042ab63964e947dc6945cf82811739243db9f9955810dedefb3405e673e6020830152604082019081526107cf196040836060816007855a01fa1561059c5760409260066080939284938451905260a05160608401525a01fa1561059c57565b604051907f0afb1d2cdca3e6eaeecbbe2f7d6ba73194b0e2659d0c54c1256ec842f843a06d82527f0ba35b67e0a1c26cb406c18bb715bfca95103b6615771462450e72c8edc8ac2d6020830152604082019081526107cf196040836060816007855a01fa1561059c5760409260066080939284938451905260a05160608401525a01fa1561059c57565b604051907f263185aee1e1e68e4bca065e3a7c7ef22161c7e7534c351b2aeac562ce241ae782527f0d4a17cea0e68413eb608606571b30fc9dcdd152b7ff12d0c8d1c63d77d7a2ea6020830152604082019081526107cf196040836060816007855a01fa1561059c5760409260066080939284938451905260a05160608401525a01fa1561059c57565b604051907f2925993927e737a5d2c918a5661e06e4944a6142c05f7945ab45d68e00d34b1382527f1467982ef2acbe89bf97e30a29c2194b81a3af714c562c85aa88ff403dfcfc7e6020830152604082019081526107cf196040836060816007855a01fa1561059c5760409260066080939284938451905260a05160608401525a01fa1561059c57565b604051907f1b83d9194a6e544881807f64fe8388227416a92b4d44f07417e6233ccdca5a8c82527f224b1ab990d938e84b635c1fdc4c60bcf4aceec925be0f99c8d3b19c732838066020830152604082019081526107cf196040836060816007855a01fa1561059c5760409260066080939284938451905260a05160608401525a01fa1561059c57565b604051907e342a007a4462084609e7fc6874b27d8d317312de6513603d3444be0fb1667982527f195159ae93e9f7a5b70535c2443ebd1d9330d65d2efebe32318d6e5e4f4924976020830152604082019081526107cf196040836060816007855a01fa1561059c5760409260066080939284938451905260a05160608401525a01fa1561059c57565b604051907f0d61172887c52dbf01a888634cfcb22fd1ff523a67ec67169ce7492b208f40ff82527f0d392542f741978ade09d6dfd82c35806759080f1f596c2d7d74d9d6613dc6f46020830152604082019081526107cf196040836060816007855a01fa1561059c5760409260066080939284938451905260a05160608401525a01fa1561059c57565b604051907f043129788264db998b61ff6d81554f803bb56635a4edfa0f05d54ce21108fb5b82527f05dd7afc3fecfb602ff8d0affe4e691ff13dce8ea01ed4fd2a9bd6ea6be259476020830152604082019081526107cf196040836060816007855a01fa1561059c5760409260066080939284938451905260a05160608401525a01fa1561059c57565b604051907f0c3ecac4ec81643f67de3d6d3b4703eb99d546d34acbd13fd2fe67ab2ce4e1b782527f0b9d0b5cf43dd754cc03c3fc1179093a98d8b27954e75c608d2ca282e1fd194a6020830152604082019081526107cf196040836060816007855a01fa1561059c5760409260066080939284938451905260a05160608401525a01fa1561059c57565b604051907f1b2cd7b836d32b53365fdd4f378a83044a66d165c0d145aa52026e7d76bb789582527f12d1f8083317ef8011f726a1d3492de0ca07020aa79a74789ef498a498d8e0af6020830152604082019081526107cf196040836060816007855a01fa1561059c5760409260066080939284938451905260a05160608401525a01fa1561059c57565b604051907f2789f9e62e60057652f08279f2e8bc71260c321b1e126f46dee572719743c1dc82527f238471c11e37fccafaf06a4161918d7df7354b33dc723490c32414cf797a9a3d6020830152604082019081526107cf196040836060816007855a01fa1561059c5760409260066080939284938451905260a05160608401525a01fa1561059c57565b604051907f2d72478aee5eb713fbdfa3bef84d2fa5f2513d20289363d62f7b51a3a2c69ab982527f235de79dc9768edf8bbeef602a4be536790e12fd5aceaccae92d2f66f8e2e7766020830152604082019081526107cf196040836060816007855a01fa1561059c5760409260066080939284938451905260a05160608401525a01fa1561059c57565b604051907f209dc0c6f6a24f673621864ad87a1c4bbf4de35c752d7a2f98c18569d67e0b2482527f22a4a084c3eec87a370711f460a6c26a8783b08330fba17df9ed05f58c2c73936020830152604082019081526107cf196040836060816007855a01fa1561059c5760409260066080939284938451905260a05160608401525a01fa1561059c57565b604051907f0c2f0897517b32eac3ebb5c581c0af00039afde5ce0d46d260aefed5d1c08e3f82527f041bfc01ee437d40d5f699474233f90f10fcfbee75db45d08b62c0eb1c613c826020830152604082019081526107cf196040836060816007855a01fa1561059c5760409260066080939284938451905260a05160608401525a01fa1561059c57565b604051907f2bb46dba6e7ea10e93080762f4e6128ba446ed277ecbaaa5a74ca1eca23a887d82527f27d66949600b862fdb86e0f29554cb0dc789ff31b328cb9bda938181b0a0c4766020830152604082019081526107cf196040836060816007855a01fa1561059c5760409260066080939284938451905260a05160608401525a01fa1561059c57565b604051907f1f92b38fee96f92bc1a30f3785ec9370002c67bdc2e84fdb3c71d6b3620e2b9f82527f10f8d17d2dfabcfb264c37becb2a00ed86766f0b6e7ce05ad8811c032fd6905a6020830152604082019081526107cf196040836060816007855a01fa1561059c5760409260066080939284938451905260a05160608401525a01fa1561059c57565b604051907f0f0f0ac918610f1627aa3310b3ab7d09ab9c578e82f1cd5823d904481de16d9782527f1b4d1e0aea1ecae27d7628b0b690616cfd6dbeb715063bae7d6cba65a1e6cc246020830152604082019081526107cf196040836060816007855a01fa1561059c5760409260066080939284938451905260a05160608401525a01fa1561059c57565b604051907f0c7e11e8e9fab901b38058aa0ed300b577124381fcbdc31d8e05db3c49dd7cb882527f1d43b1ca199da8915205de1774dabc0a2c547ac38f01f8381652e0c2061f6f356020830152604082019081526107cf196040836060816007855a01fa1561059c5760409260066080939284938451905260a05160608401525a01fa1561059c57565b604051907f2dbd31ea46936a8ad3b7bddce8f8801ab8c910947f06ac080a30e9f6557f58ac82527f065f3212a592788c7e05fa94426fdd720084f8a9e8770faa7b6a78221f1279796020830152604082019081526107cf196040836060816007855a01fa1561059c5760409260066080939284938451905260a05160608401525a01fa1561059c57565b604051907f301e71e799271acc4aaf35759827fd4839897140052292bb79dd458b790337e882527f2c6632c2396b590681a8178eba01f8b1fa4b561ae2b8a2c2caafa9ea3b0e15416020830152604082019081526107cf196040836060816007855a01fa1561059c5760409260066080939284938451905260a05160608401525a01fa1561059c57565b604051907f19b10cf0b90d89749e98d2684b59873bacbc5dc7483af4753bf1f2b9ddcdabfc82527f1b372eedda14e315afb14a8120a301a103bd8a8e9e7f28fe7588d2a1c388cbea6020830152604082019081526107cf196040836060816007855a01fa1561059c5760409260066080939284938451905260a05160608401525a01fa1561059c57565b604051907f170ad0ca0ee5e1256602740e016b5d9019f5cac372d71631deff878d91a2005d82527f221c998bc4979fd6132d5399cb420472db0aa6eaeb4d2787648012ba4113f1bb6020830152604082019081526107cf196040836060816007855a01fa1561059c5760409260066080939284938451905260a05160608401525a01fa1561059c57565b604051907f301f51321358789e9cbc6d8e8528f55d640480e50c233402b7180f34eab8850582527f11b93e9c253859205ad39d32ba27f6d36cdc694daecd7333f33b6e7598921b766020830152604082019081526107cf196040836060816007855a01fa1561059c5760409260066080939284938451905260a05160608401525a01fa1561059c57565b604051907f2b2aed2946f6af2698141f50199e7f2dcda344c74db1d6df658ff71cfb47a01482527f2fdebe6e41dd085d8f8533dee194812c56ba1b69465edc1f0c172549a9a266a66020830152604082019081526107cf196040836060816007855a01fa1561059c5760409260066080939284938451905260a05160608401525a01fa1561059c57565b604051907f2df438d616e6e46df834c2ccbc4301f846d36fd4221618588b139047b3ec181c82527f25ade4867ea15a59995ba4fe92b4b950598529eb185d632821ec5ae3614ef0916020830152604082019081526107cf196040836060816007855a01fa1561059c5760409260066080939284938451905260a05160608401525a01fa1561059c57565b604051907f01fd6629f14aa3eb9fa4f700a248cbbf4f39834489e67e5ba6c2d9993ee0e42a82527f01477a04ff16adbcda759c1b67c771bbe9238f90cbda39ce9fb74e21391bef256020830152604082019081526107cf196040836060816007855a01fa1561059c5760409260066080939284938451905260a05160608401525a01fa1561059c57565b604051907f0f7893617b33892123f87c3c1ecc8d4bc709cc7435bad0748131d738ca61936482527f026ede06b146d1a1847be7ee93277c49e15883772aef016f3dc9ea8d220dc9b46020830152604082019081526107cf196040836060816007855a01fa1561059c5760409260066080939284938451905260a05160608401525a01fa1561059c57565b604051907f0dbc12dece081ddc704dc3dde8ebdb32145cac83fecbbeb68add3d7ae7bb013b82527f0f640e050a15da5bdae332263ac11986227e82f85ca6081b0ae370b34ad508fe6020830152604082019081526107cf196040836060816007855a01fa1561059c5760409260066080939284938451905260a05160608401525a01fa1561059c57565b604051907f0b5f3959b8e9435624e608d810d17f2c2d92f53372a14409a407179f0fef9e1c82527f2a0b33b12332ce3bd7a32bf808a0517786f517c43c47711457357bf0e84fd6d66020830152604082019081526107cf196040836060816007855a01fa1561059c5760409260066080939284938451905260a05160608401525a01fa1561059c57565b604051907f08197fef3cc0c7d340080ba54caf4443e0958b1b78990a353e53ba16d9fea17f82527f16d42af962b02a866c5b9a01a73dac997ad66471a4bbd81d7ddc4ff0965699776020830152604082019081526107cf196040836060816007855a01fa1561059c5760409260066080939284938451905260a05160608401525a01fa1561059c57565b604051907f2e5a46ee774fb25934473acb64678a89e252199c9e9ce510bf75156fc1d8bb4482527f2c345539db7c4b9f1863b48053dfd504971e9b74f79f7b6e5e9024bad1dd1fa46020830152604082019081526107cf196040836060816007855a01fa1561059c5760409260066080939284938451905260a05160608401525a01fa1561059c57565b604051907f099756967c048d6a6359e06ead77a2a12534bba8e93e54dc802bf7684c31663582527f0e5e617d48d10881993be0969d9e70577a8580f8f9e4941173406a75fc7278b96020830152604082019081526107cf196040836060816007855a01fa1561059c5760409260066080939284938451905260a05160608401525a01fa1561059c57565b604051907f17480e056f52cd143a5cf19361c66e166fe089daa1b092659735d78a9b0be31082527f07052b1d6dfdbdbf185d8ec004440df82f631ffa63b695a44d96db2b0be826726020830152604082019081526107cf196040836060816007855a01fa1561059c5760409260066080939284938451905260a05160608401525a01fa1561059c57565b604051907f0f9321a6159322bea29ce5c77fdc266b6a1433a684ecd02ac8fbba6b025acce282527f06343e4123bd2e92c435db2e183a03d81dfc1760e78495b92ae17a25fda55a146020830152604082019081526107cf196040836060816007855a01fa1561059c5760409260066080939284938451905260a05160608401525a01fa1561059c57565b604051907f1622939926506d931c7407d81f4215cb195623458d86a18d975df47064b220de82527f0e1a6c4e6e6c84543d046b197852ac55a2dc3f445d1519daba6a3e03fab128606020830152604082019081526107cf196040836060816007855a01fa1561059c5760409260066080939284938451905260a05160608401525a01fa1561059c57565b604051907f233b0c71a48259b43ea5c8a746518efdb0304b9c783921c54283aca9bcb00c7882527f133ac5ca3e4a8c17296970104414f6f1014a5a4aa4f2fdcbffb5aafc8554638c6020830152604082019081526107cf196040836060816007855a01fa1561059c5760409260066080939284938451905260a05160608401525a01fa1561059c57565b604051907f24d886dd1ff157d7b648a7aab9d34c56603aad64e6b10b50ce4dbd905ffc17d082527f1bd0f40d1dedd8cb88bf840d495c868d52169304a6dd341d291f1b32f3b9426f6020830152604082019081526107cf196040836060816007855a01fa1561059c5760409260066080939284938451905260a05160608401525a01fa1561059c57565b604051907f2e430e688413330700fdd5de0f6f905362be04ce0b56409296dbe070a2abdd0c82527f0bef3b88f46f29a7d9b754e9f74efd3a653414b8a5fa2ff43ebb9bb913743ba86020830152604082019081526107cf196040836060816007855a01fa1561059c5760409260066080939284938451905260a05160608401525a01fa1561059c57565b604051907f2abaeb48202a6000fdb0d608b42ca5ef7b87fc9aa1501ac7a0155bac747766cd82527f2041ae8f67e3867f4e5ba21bb328efd5c836270e970bc3bd3f2e746a7f5a8ed36020830152604082019081526107cf196040836060816007855a01fa1561059c5760409260066080939284938451905260a05160608401525a01fa1561059c57565b604051907f1ce0ecc9e9d343b087bb5bc6fb3ea37e6357eb0c4a56d7ed452a41ee9d0dd4af82527f05ff295657e7fe15abdcd6a445325c49cbd81a784fcff93fb07afb75d635a3196020830152604082019081526107cf196040836060816007855a01fa1561059c5760409260066080939284938451905260a05160608401525a01fa1561059c57565b604051907f1fab2ad27f7a1890a49b6ab46706d827e5308fc746487bb580095c66c937cf6e82527f24cb5f8411a91f261e79de07b48bcdcdadbe11daf5eed3afeeeaf070f54be6876020830152604082019081526107cf196040836060816007855a01fa1561059c5760409260066080939284938451905260a05160608401525a01fa1561059c57565b604051907f0423dcdea6ebea3bb849d7fe6aa2a02a893d65c7300b80ec0c9286870e89712682527f11b518d77d0f092bcfc5e0be8d45d5dfc4ca37021185a29f8eda264ee6bfbd906020830152604082019081526107cf196040836060816007855a01fa1561059c5760409260066080939284938451905260a05160608401525a01fa1561059c57565b604051907f2d26f3a27ddc57fe1f2a07bc665132f47ef5f9220a95f3a2161d9d17ebc474dd82527f23bda5de388a6cb3565814fbdd18e410d3545441aace0d74d2924d5bf93b77b06020830152604082019081526107cf196040836060816007855a01fa1561059c5760409260066080939284938451905260a05160608401525a01fa1561059c57565b604051907f041fbf6bcc7afed74e3618b2763521c61533050f1d153216d9c2885f424d6d9b82527f220afe24cd9d53f95e408c2a989d0e8b799ef6951ab8b121d75185688454ce5b6020830152604082019081526107cf196040836060816007855a01fa1561059c5760409260066080939284938451905260a05160608401525a01fa1561059c57565b604051907f04d5f435be9c83b9a99621452f16ee2b955221de9686cf62e8609bf504d8439582527f09ac077d9609d2271ad7a4ec0102387d2e0e6ef50047c9f11755a95ccf78d8da6020830152604082019081526107cf196040836060816007855a01fa1561059c5760409260066080939284938451905260a05160608401525a01fa1561059c57565b604051907f2d1375514139a5f5d60a8fc68b75f32eea005db82024a49ae445b9b83c0bdc5e82527f1a08c9710f80aefb214fdb37e69bca5b5cb095fa8bd951c08de255cd6432b0a06020830152604082019081526107cf196040836060816007855a01fa1561059c5760409260066080939284938451905260a05160608401525a01fa1561059c57565b604051907f14bbcfcec4646cdddb4d3022ff243dd2a6ad9765c357695ac0f4ac61a309a00a82527f101e976be57d8d734d5d7730c45485888df42ef34f8737af33fc32c8009bb1256020830152604082019081526107cf196040836060816007855a01fa1561059c5760409260066080939284938451905260a05160608401525a01fa1561059c57565b604051907f03d58797a056055e42d4272960fdf1ef18baf0250954730dce15f6d1262f2e8982527f1bfe63e14e737839e113728e419edf7cecb06a8bead3de4713bd463b45b1b0466020830152604082019081526107cf196040836060816007855a01fa1561059c5760409260066080939284938451905260a05160608401525a01fa1561059c57565b604051907f032357506c4ecf05dfaa42a8d08b5f80dd2df058842c61653796fa334d4d8a2a82527f193993b328e1ab343991e5ee09940b8fc368edb049d9a5405cacf3637eef9c196020830152604082019081526107cf196040836060816007855a01fa1561059c5760409260066080939284938451905260a05160608401525a01fa1561059c57565b604051907f089343f21d025fd2f5d7ed13caf228cf50840508ec4cc42c044d05d11543427082527f0aacf848983c00c62734f52b37309c94b439e7178ef8372df753221c7e0867736020830152604082019081526107cf196040836060816007855a01fa1561059c5760409260066080939284938451905260a05160608401525a01fa1561059c57565b604051907f1088e1db6e01822fa79ea7f0175054e935a4a746d9bc163bf8b8a6686e3a51bc82527f28ade522168afc960007771d26eaf83a54db9b42a194566c5f9515ea1b4dcf9b6020830152604082019081526107cf196040836060816007855a01fa1561059c5760409260066080939284938451905260a05160608401525a01fa1561059c57565b604051907f0b8672a0730104a22753be3dbb9437ae49bac6a0c41cbe50037bdc589fdc396182527f2b21ff38325e8cc12b9029b58cc7e5ac07d96ef2674183534c5c61006d6a533a6020830152604082019081526107cf196040836060816007855a01fa1561059c5760409260066080939284938451905260a05160608401525a01fa1561059c57565b604051907ebe78042516dbd9a6bb193d54b408cd830dfef2ea3a7c7779272fdd0339bd8a82527f293a96adcfcc1f586c4e472139591910bd9ea7d46d7c1ac3c24d4917945245f26020830152604082019081526107cf196040836060816007855a01fa1561059c5760409260066080939284938451905260a05160608401525a01fa1561059c57565b604051907f1d76cf0fed527a310655d6c1811da96ce7862d673f6de3d08a5fdc8d57d925b382527f16531273fa14360aebc341cc0662899a3c34638b2acde8ea512e2a4d0962a95b6020830152604082019081526107cf196040836060816007855a01fa1561059c5760409260066080939284938451905260a05160608401525a01fa1561059c57565b604051907f05ae1642c0701fb97d1aa8740f3c7170910bcea1407db3980835e160d06f547d82527f066aa0e32f9df819f49c7572bee088b82a768ccc0d1653f004dd7b8fd16e3bd36020830152604082019081526107cf196040836060816007855a01fa1561059c5760409260066080939284938451905260a05160608401525a01fa1561059c57565b604051907f04b072e081978cbce75de4287b3dad4f3374b22699fff8ee09152340f6caaadd82527f07321bf1abfd801a4579f462148fd29d8ee86066cf5a250a37990718a51426e96020830152604082019081526107cf196040836060816007855a01fa1561059c5760409260066080939284938451905260a05160608401525a01fa1561059c57565b604051907f292f2be404a2ddb216ddeba5a168556c0ebc42d694b9a51d2d31e74c47d23de282527f17de82b6a2442ba9e51ef5b53084f120351790ff3f4be82cb8fab420a82dd44a6020830152604082019081526107cf196040836060816007855a01fa1561059c5760409260066080939284938451905260a05160608401525a01fa1561059c57565b604051907f1723e370de6398e98090ddac3fde2c75a361bf0e663a4f218dbc37f076eb050d82527f19508c94ffafa8073c17188b9a9a7bc24bde21055ef2a50e2c775fb741e65b9d6020830152604082019081526107cf196040836060816007855a01fa1561059c5760409260066080939284938451905260a05160608401525a01fa1561059c57565b604051907f127f6a3735d48becee8996f81b9a9ec8aa633f3f04956c738599a446e9949e4282527f076cf4a528adc7064dff41f56678a1fb2dd0c78dfbce4add0bd4d673729b689f6020830152604082019081526107cf196040836060816007855a01fa1561059c5760409260066080939284938451905260a05160608401525a01fa1561059c57565b604051907f29546b1889d02ae168e6c0abc5d24d39fd011aebc57a14fa5d9f1807bc97220582527f09c49379e56deb076d4e3eeba026c48867a0d164bd7e70796580e0f82782a4c26020830152604082019081526107cf196040836060816007855a01fa1561059c5760409260066080939284938451905260a05160608401525a01fa1561059c57565b604051907e15b5108617b954d44245aa493e76ab9e74c485e2860172857c8f05a0e8c85982527f07bcfba3f8c4881dc2871f0d3691b4b810f1e8ba4aa9d31a25919f91618b8ceb6020830152604082019081526107cf196040836060816007855a01fa1561059c5760409260066080939284938451905260a05160608401525a01fa1561059c57565b604051907f1c1159b9633f3b77e5d870a479225a7b0a03147c43bef7fbeef7796d97220b1b82527f1e1f157955ed659d5da1870b02e5fe1435202565b968a1d01aea895751f35e996020830152604082019081526107cf196040836060816007855a01fa1561059c5760409260066080939284938451905260a05160608401525a01fa1561059c57565b604051907f11a4d7613cb2f3c79c5af050b6eec39d776071770b8ee02db55c9241168a8e1982527f01f232512f317006a7d49ba4cf1463ca3d2a747574ab8e386d162a73e92d8f626020830152604082019081526107cf196040836060816007855a01fa1561059c5760409260066080939284938451905260a05160608401525a01fa1561059c57565b604051907f20d55c599c765a48036d576338d9f722f7bcc1f644452a27aa80695e610d6a6b82527f0d1bbce7b42ac7c2a0c74385caf13ae070f5878f956dd0ce825430faaecb22236020830152604082019081526107cf196040836060816007855a01fa1561059c5760409260066080939284938451905260a05160608401525a01fa1561059c57565b604051907f209dd66706c7ef24925a3265c09752a3c2b0bfd372244d6d4153efeae7340f8782527f079fa5dc44acce7fc5075ba30e55b82cf3ba23744d5cc16969d7e84c4652569e6020830152604082019081526107cf196040836060816007855a01fa1561059c5760409260066080939284938451905260a05160608401525a01fa1561059c57565b604051907f12fceadde8ef708be594a13bd3ebf7dd72423e7c0dcbd329ef18f9c794f53ed582527f1cbe773dd0d0d58553c8295eef5b609e8b5d5063422f2bf77537f288a4c3a8456020830152604082019081526107cf196040836060816007855a01fa1561059c5760409260066080939284938451905260a05160608401525a01fa1561059c57565b604051907f128dcb2e25577d9fb9663c7ba12bee8a2a0cdf721711c5d483379fa9b0b8a84682527f06bdb6c4d2402cf146c206c9808d8f9f34075620973629aa355ba09455fa20176020830152604082019081526107cf196040836060816007855a01fa1561059c5760409260066080939284938451905260a05160608401525a01fa1561059c57565b604051907f019c6db220d8add0e2b06e6464d6fba565da7c28a3d791e5df34182f66f7d50682527f0efe2a46743132a2851f1a78f1db681bfe5082c5b96a7f08b28a77ea49521e866020830152604082019081526107cf196040836060816007855a01fa1561059c5760409260066080939284938451905260a05160608401525a01fa1561059c57565b604051907f144699517c36dccb82651007934c07602f4b89a1834d8945846a98f4e46670c682527f2695da0d98fed5d540151f63d248e430383386f0e1865161851ecd04341c40a46020830152604082019081526107cf196040836060816007855a01fa1561059c5760409260066080939284938451905260a05160608401525a01fa1561059c57565b604051907f25812665fc1eb62cdba8521634554c9e806ebdc2247d7442ddad226ab3acc5fc82527f1845e2b467646992f81dcda90cc62caf7b0976a606fdb22388538cafb0e080166020830152604082019081526107cf196040836060816007855a01fa1561059c5760409260066080939284938451905260a05160608401525a01fa1561059c57565b604051907f2455fdab7c9507d4b1a8ef8892015ba314570676056be6203c4a46225bda146d82527f0420b63879bdbddf76486eab4c6719de040c0d5f6163ff35b330aea7ed10c5196020830152604082019081526107cf196040836060816007855a01fa1561059c5760409260066080939284938451905260a05160608401525a01fa1561059c57565b604051907f2e1e1a5204dd9f5318fee46c0ce3af96a6075948230ee6cb3f1ef04bd74a046d82527f12bf651208f5e4dbfb9b2b9d7301dc28b03c7f1fbb59725aebdee41ff21f12b26020830152604082019081526107cf196040836060816007855a01fa1561059c5760409260066080939284938451905260a05160608401525a01fa1561059c57565b604051907f1f736296a1a3f8bdcd4e6b0600bf05a919e7ee5e12f3197ba19e0ad97c3a8cb282527f2a074db936200a798a9e10ea7fbd0c18519ed07464612bce898d7e8e13ff1bbc6020830152604082019081526107cf196040836060816007855a01fa1561059c5760409260066080939284938451905260a05160608401525a01fa1561059c57565b604051907f04d3a05ce76625508b9e3906001eda46dd41c9bfab14352993d7588c4b0fdbe982527f15e6c4a90fe8f6be2a6c65502fbf0c0ae58365141e50235764f474104e573cd36020830152604082019081526107cf196040836060816007855a01fa1561059c5760409260066080939284938451905260a05160608401525a01fa1561059c57565b604051907f02ce6156ea992c85dbdbcd93d81bd46cfbd56ab70134a50049127db615c9c01c82527f0c1f1bbea22b91f2de5606514279c84f78f2521ffb5ee73787251b34a90bfca46020830152604082019081526107cf196040836060816007855a01fa1561059c5760409260066080939284938451905260a05160608401525a01fa1561059c57565b6020907f11fc4ae7bcd2535db41f5dedec12720d636a914599eff229a17f098f1a8fec906080527f1a62f31566cce1318332c6cca5bd3367a3355712daec0aa83e9b8d949f22469860a052613cf6610104356105a6565b613d0261012435610630565b613d0e610144356106ba565b613d1a61016435610744565b613d26610184356107ce565b613d326101a435610858565b613d3e6101c4356108e2565b613d4a6101e43561096c565b613d56610204356109f6565b613d6261022435610a80565b613d6e61024435610b0a565b613d7a61026435610b94565b613d8661028435610c1e565b613d926102a435610ca8565b613d9e6102c435610d32565b613daa6102e435610dbc565b613db661030435610e46565b613dc261032435610ed0565b613dce61034435610f5a565b613dda61036435610fe4565b613de66103843561106e565b613df26103a4356110f8565b613dfe6103c435611182565b613e0a6103e43561120c565b613e1661040435611296565b613e2261042435611320565b613e2e610444356113aa565b613e3a61046435611434565b613e46610484356114be565b613e526104a435611548565b613e5e6104c4356115d2565b613e6a6104e43561165c565b613e76610504356116e6565b613e826105243561176f565b613e8e610544356117f9565b613e9a61056435611883565b613ea66105843561190d565b613eb26105a435611997565b613ebe6105c435611a21565b613eca6105e435611aab565b613ed661060435611b35565b613ee261062435611bbf565b613eee61064435611c49565b613efa61066435611cd3565b613f0661068435611d5d565b613f126106a435611de7565b613f1e6106c435611e71565b613f2a6106e435611efb565b613f3661070435611f85565b613f426107243561200f565b613f4e61074435612099565b613f5a61076435612123565b613f66610784356121ad565b613f726107a435612237565b613f7e6107c4356122c1565b613f8a6107e43561234b565b613f96610804356123d5565b613fa26108243561245f565b613fae610844356124e9565b613fba61086435612573565b613fc6610884356125fd565b613fd26108a435612687565b613fde6108c435612711565b613fea6108e43561279b565b613ff661090435612825565b614002610924356128af565b61400e61094435612939565b61401a610964356129c3565b61402661098435612a4d565b6140326109a435612ad7565b61403e6109c435612b61565b61404a6109e435612beb565b614056610a0435612c75565b614062610a2435612cff565b61406e610a4435612d89565b61407a610a6435612e13565b614086610a8435612e9d565b614092610aa435612f27565b61409e610ac435612fb1565b6140aa610ae43561303b565b6140b6610b04356130c4565b6140c2610b243561314e565b6140ce610b44356131d8565b6140da610b6435613262565b6140e6610b84356132ec565b6140f2610ba435613376565b6140fe610bc435613400565b61410a610be43561348a565b614116610c0435613513565b614122610c243561359d565b61412e610c4435613627565b61413a610c64356136b1565b614146610c843561373b565b614152610ca4356137c5565b61415e610cc43561384f565b61416a610ce4356138d9565b614176610d0435613963565b614182610d24356139ed565b61418e610d4435613a77565b61419a610d6435613b01565b6141a6610d8435613b8b565b6141b2610da435613c15565b61010092818492358352837f30644e72e131a029b85045b68181585d97816a916871ca8d3c208c16d87cfd479101358103066101205260443561014052606435610160526084356101805260a4356101a0527f2d4d9aa7e302d9df41749d5507949d05dbea33fbb16c643b22f599a2be6df2e26101c0527f14bedd503c37ceb061d8ec60209fe345ce89830a19230301f076caff004d19266101e0527f0967032fcbf776d1afc985f88877f182d38480a653f2decaa9794cbc3bf3060c610200527f0e187847ad4c798374d0d6732bf501847dd68bc0e071241e0213bc7fc13db7ab610220527f304cfbd1e08a704a99f5e847d93f8c3caafddec46b7a0d379da69a4d112346a7610240527f1739c1b1a457a8c7313123d24d2f9192f896b7c63eea05a9d57f06547ad0cec8610260526080516102805260a0516102a0527f198e9393920d483a7260bfb731fb5d25f1aa493335a9e71297e485b7aef312c26102c0527f1800deef121f1e76426a00665e5c4479674322d4f75edadd46debd5cd992f6ed6102e05282610300917f090689d0585ff075ec9e99ad690c3395bc4b313370b38ef355acdadcd122975b83527f12c85ea5db8c6deb4aab71808dcb408fe3d1e7690c43d37b4ce6cc0166fa7daa610320528035610340520135610360527f1e2a29b875a9d198bb6d02b3d0bf59171cbf287d15bbdfc0b468bdf60f0bc51d610380527f063d9cb2775744babe1ce567bc5ccd6b7338befba44dcca9fdc8bcefa93a2fb96103a0527f03df37741721feb49a4f4333ec212656cc04066588d016cc76b4af80cf5f6fe76103c0527f1796f0a94b889f6336a19e70f78e77e879f7fd96f4f70da31c6393d4001b0aa96103e0528160086107cf195a01fa9051169056fea2646970667358221220ab6982648e918f34ba003fb54561cc0e178f1aa7ce12999925281bbc110af04564736f6c634300080f0033",
  "linkReferences": {},
  "deployedLinkReferences": {}
}