{
  "_format": "hh-sol-artifact-1",
  "contractName": "Groth16Verifier",
  "sourceName": "contracts/Nft_8_20Verifier.sol",
  "abi": [
    {
      "inputs": [
        {
          "internalType": "uint256[2]",
          "name": "_pA",
          "type": "uint256[2]"
        },
        {
          "internalType": "uint256[2][2]",
          "name": "_pB",
          "type": "uint256[2][2]"
        },
        {
          "internalType": "uint256[2]",
          "name": "_pC",
          "type": "uint256[2]"
        },
        {
          "internalType": "uint256[80]",
          "name": "_pubSignals",
          "type": "uint256[80]"
        }
      ],
      "name": "verifyProof",
      "outputs": [
        {
          "internalType": "bool",
          "name": "",
          "type": "bool"
        }
      ],
      "stateMutability": "view",
      "type": "function"
    }
  ],
  "bytecode": "0x6080806040523461001657613680908161001c8239f35b600080fdfe6080604052600436101561001257600080fd5b6000803560e01c63c3fa27f21461002857600080fd5b3461044857610b00366003190112610448576100433661044b565b3660c411610444576100543661045d565b90610b04368111610440579161043c916104376020959461040060405261007d6101043561046b565b6100896101243561046b565b6100956101443561046b565b6100a16101643561046b565b6100ad6101843561046b565b6100b96101a43561046b565b6100c56101c43561046b565b6100d16101e43561046b565b6100dd6102043561046b565b6100e96102243561046b565b6100f56102443561046b565b6101016102643561046b565b61010d6102843561046b565b6101196102a43561046b565b6101256102c43561046b565b6101316102e43561046b565b61013d6103043561046b565b6101496103243561046b565b6101556103443561046b565b6101616103643561046b565b61016d6103843561046b565b6101796103a43561046b565b6101856103c43561046b565b6101916103e43561046b565b61019d6104043561046b565b6101a96104243561046b565b6101b56104443561046b565b6101c16104643561046b565b6101cd6104843561046b565b6101d96104a43561046b565b6101e56104c43561046b565b6101f16104e43561046b565b6101fd6105043561046b565b6102096105243561046b565b6102156105443561046b565b6102216105643561046b565b61022d6105843561046b565b6102396105a43561046b565b6102456105c43561046b565b6102516105e43561046b565b61025d6106043561046b565b6102696106243561046b565b6102756106443561046b565b6102816106643561046b565b61028d6106843561046b565b6102996106a43561046b565b6102a56106c43561046b565b6102b16106e43561046b565b6102bd6107043561046b565b6102c96107243561046b565b6102d56107443561046b565b6102e16107643561046b565b6102ed6107843561046b565b6102f96107a43561046b565b6103056107c43561046b565b6103116107e43561046b565b61031d6108043561046b565b6103296108243561046b565b6103356108443561046b565b6103416108643561046b565b61034d6108843561046b565b6103596108a43561046b565b6103656108c43561046b565b6103716108e43561046b565b61037d6109043561046b565b6103896109243561046b565b6103956109443561046b565b6103a16109643561046b565b6103ad6109843561046b565b6103b96109a43561046b565b6103c56109c43561046b565b6103d16109e43561046b565b6103dd610a043561046b565b6103e9610a243561046b565b6103f5610a443561046b565b610401610a643561046b565b61040d610a843561046b565b610419610aa43561046b565b610425610ac43561046b565b610431610ae43561046b565b3561046b565b612fba565b8152f35b8380fd5b5080fd5b80fd5b9060049160441161045857565b600080fd5b9060c4916101041161045857565b7f30644e72e131a029b85045b68181585d97816a916871ca8d3c208c16d87cfd47111561049457565b6000805260206000f35b604051907f03d24c08aefd4aecedfc6cac900377c9b0bf900348853d6527b23409fb5a3c8982527f10de3ebadc83ab27d1b25ba21418358e22af540bdd40156cb473cbd9ae7ae4d66020830152604082019081526107cf196040836060816007855a01fa156104945760409260066080939284938451905260a05160608401525a01fa1561049457565b604051907f2f402db081cf93ca72ebf72a333a99b2bff91ad2de64426691d8a172f24d6e5582527f14aac6c12d987cf28530799a383a7024dafc53b1a1f15b9d4f7aaffb8f26dcae6020830152604082019081526107cf196040836060816007855a01fa156104945760409260066080939284938451905260a05160608401525a01fa1561049457565b604051907f1e1bd5cc4b786cb18e0c7981a1e9ad438c1364cceed915e36396ef86edaae51582527f244507c81465033446529697df588785331aac73dc81844fecee849ebe44918e6020830152604082019081526107cf196040836060816007855a01fa156104945760409260066080939284938451905260a05160608401525a01fa1561049457565b604051907f3012f534206e13f8c92b6de657988dfc6b8f1c5d28fca18196e5e9bcdb6d0cc882527f0e155797db22fbca0e54efb2f447e7b2553363935bda8f15af0dc52d0d429fda6020830152604082019081526107cf196040836060816007855a01fa156104945760409260066080939284938451905260a05160608401525a01fa1561049457565b604051907f24bf83be433ddd891f1389bf75c5ff503abdad131e3b4947c2a46a7b01ead2cd82527f02db35e43b1e899117c1e5b07891a8ec1e098634db627fae85a94b2e18cdd6f86020830152604082019081526107cf196040836060816007855a01fa156104945760409260066080939284938451905260a05160608401525a01fa1561049457565b604051907f2ad37a22c3428028721e5041347d110d0830a5c169fb62d60398eae6e3b710ef82527f2baecc0fbf33fb9f61cdbb95aae3a8cb58ed9670e9596edd7bfba0b38e9a14576020830152604082019081526107cf196040836060816007855a01fa156104945760409260066080939284938451905260a05160608401525a01fa1561049457565b604051907f2b8442204667b203a281b70b22629edb1c3d1962f09d6353842bc94b6881fd3182527f25f9ab04fc3c2e81ced45dbc6535f783f77aa7353f0d2b4a6df3f475854d90c56020830152604082019081526107cf196040836060816007855a01fa156104945760409260066080939284938451905260a05160608401525a01fa1561049457565b604051907f038c7d2ce959c4f25410221ac9ddb271d2b86b1ea96f5cd7b144047a07ce0e0382527f21a5f78b3475bf71ae908e58ec817b9cd65dd66bd3844c0fcc1192593e233a9a6020830152604082019081526107cf196040836060816007855a01fa156104945760409260066080939284938451905260a05160608401525a01fa1561049457565b604051907f21ac5cb1821eef11d6af911d8742634856d2536a74704113477b0b70b54e0ec182527ef5131d7493831a576626206f7372e9467fe4e59af0fca546b3e62c9f9f58026020830152604082019081526107cf196040836060816007855a01fa156104945760409260066080939284938451905260a05160608401525a01fa1561049457565b604051907f020364cb8a5ddb3b4f690dce8b54773760ea1f50007c784650b9ec4389918b2082527f1cd76c5c0b5fd0a4e7ec2785f0e30f906737a7d39b5df262248848248a2d41b66020830152604082019081526107cf196040836060816007855a01fa156104945760409260066080939284938451905260a05160608401525a01fa1561049457565b604051907f0796988f9cf93e89e978dffce57a657365c1f09abd5b700bcea2323e9f6afd6282527f2613bb47129da58cf96557441d97b0fd9b24f9b3826993fc07385d456740b93f6020830152604082019081526107cf196040836060816007855a01fa156104945760409260066080939284938451905260a05160608401525a01fa1561049457565b604051907e5ab7a2e7dde3c88ba8ba49045a61a400982f3005c08e88a28088d18a8b53a682527f2dc31092879859a70f0c7c399623ac9550b4731c0466572c893b850d01c012b56020830152604082019081526107cf196040836060816007855a01fa156104945760409260066080939284938451905260a05160608401525a01fa1561049457565b604051907f0ceef1f226b26a4f8181da7b53628f6b4dba14dd81b1731b653dd0f6700e078882527f11939329fabbbad2c0fa7dc2d3309c8d761ade5c59fd0717234a01a8e0e8a2b96020830152604082019081526107cf196040836060816007855a01fa156104945760409260066080939284938451905260a05160608401525a01fa1561049457565b604051907f257eed59d2ab5555e1e5661205362f52e816e66aa17bf318e69aea04c9c9d44582527f0d1ac5c97ea5d001d90b679da985c00deeea108439e4db160159c55f97112e886020830152604082019081526107cf196040836060816007855a01fa156104945760409260066080939284938451905260a05160608401525a01fa1561049457565b604051907f08ca34aa7d2dc228d3fffc1e4e38519929f91a298039f26558cf71adc3a15ea782527f12b5000f5aecc7e2a15f9dc898f591c48efd52ad659c94b4836c3e5d5fe147046020830152604082019081526107cf196040836060816007855a01fa156104945760409260066080939284938451905260a05160608401525a01fa1561049457565b604051907f1900f08b21d339dee14b05bde6cb03d78412fb739ef9a972199f8ff341a327ff82527f1fcb5fba8f2bd0af063bb87175f5d678fe17ed82165c4051d4c444e0463f2e9a6020830152604082019081526107cf196040836060816007855a01fa156104945760409260066080939284938451905260a05160608401525a01fa1561049457565b604051907f09c8f82e6f034d980f9bdd65a491a39c07da0c7c3b116abb9ea10f85d5dba9c382527f1dc97ab6bef668fe3af5dea17d3a8d2395415034bb915e78506ab3fd7eafeee16020830152604082019081526107cf196040836060816007855a01fa156104945760409260066080939284938451905260a05160608401525a01fa1561049457565b604051907f2e336950c6fd22184f0c0c72367318350a90c114144b509c7979aa587bc7ac3e82527f27e019788d844011c6a652a5ce7d9e3bf24e22500b4bdc372b158367ce9e3e146020830152604082019081526107cf196040836060816007855a01fa156104945760409260066080939284938451905260a05160608401525a01fa1561049457565b604051907f27800214d2a96a31667b36f73d3b1410b80cadc8efb42e425110a921be440fb182527f1d6e62919bd711cc38b422e46c3873ef60c6522c6310503e9cd5ff14024ba7fb6020830152604082019081526107cf196040836060816007855a01fa156104945760409260066080939284938451905260a05160608401525a01fa1561049457565b604051907f0e7d834266bc02e5289dd768d111bb761659df5cca33e6de0f298c5305d7daa382527f1bc1d3538ad3a57d870d9c7c12b7f9f453fddff0bc1737c2975c6d39a2cc0da76020830152604082019081526107cf196040836060816007855a01fa156104945760409260066080939284938451905260a05160608401525a01fa1561049457565b604051907f0570b9ce8d173c53ccd6f862c69a844fcab6e59a99a3bc14ddd670aa602ab6cb82527f1f1da60e94a75aa4d1869bcbe3ac3aac9fc67de33f61959498fb507154932cb86020830152604082019081526107cf196040836060816007855a01fa156104945760409260066080939284938451905260a05160608401525a01fa1561049457565b604051907f081f1c65805e8305f0b6e02519589736e8b539e1708808df1c9346d7b965025482527f2f87378ca0030268e0635a3fa7bd4c2247f090e3bb821a3e322518526fe024856020830152604082019081526107cf196040836060816007855a01fa156104945760409260066080939284938451905260a05160608401525a01fa1561049457565b604051907f1edfc2fbbe92847f50f5d750661831b95e5d859126ccef3578dc15f081d5be0b82527f0c0a152e1ca094dcd72e8e589ecf49e2bdd398d3eae39c99c8083412b38bcd1b6020830152604082019081526107cf196040836060816007855a01fa156104945760409260066080939284938451905260a05160608401525a01fa1561049457565b604051907f0d92236d1787b3cf82ca23b29afe2c198e034f2954e52b6940a00f13296f772782527f251701282e112344b0acaaa54461eb3e0df228114aed12d1c5b91c5432ecbd886020830152604082019081526107cf196040836060816007855a01fa156104945760409260066080939284938451905260a05160608401525a01fa1561049457565b604051907ea0d2b291036eee62061e1f4e8676a4becfb6e7f52fc17edfdc13019d637e1582527f1ff04f207b200b6998158236b9272066422f12f51d27fd50b38884de85aea2036020830152604082019081526107cf196040836060816007855a01fa156104945760409260066080939284938451905260a05160608401525a01fa1561049457565b604051907f01a1ac8575b32b6e58f9bdb8eae1aec322943c3bebe4ea392992d8b18f7c0e5882527f17b23d216c8ae6ca2189dce9c30fdfeec43d100f5cdc4357c3403e1f3e7a592d6020830152604082019081526107cf196040836060816007855a01fa156104945760409260066080939284938451905260a05160608401525a01fa1561049457565b604051907f2aa70faef09933ac8eee75d950c4f6215019876643cef957417cbcc4833d457c82527f13cfb42a85fd7939f9cc85399db82fd5482ec4dc18804b2932db5f0d369a6c1d6020830152604082019081526107cf196040836060816007855a01fa156104945760409260066080939284938451905260a05160608401525a01fa1561049457565b604051907f1b41d686945c118495faca3b1127b16771f434b464fa710943619b8c107b5da982527f285b1ffa1ffe1a42a7b416d2452ef61da337b5dfa472c9a903cdc123628c00596020830152604082019081526107cf196040836060816007855a01fa156104945760409260066080939284938451905260a05160608401525a01fa1561049457565b604051907f2187ae34e4f4473d47700402c05de55d1d6d147f68f2beaa73efca413683213d82527f26840a4b467947412ebb4ec74f1f858f9d33990aa9ee6838cb8f5cfbff0e762b6020830152604082019081526107cf196040836060816007855a01fa156104945760409260066080939284938451905260a05160608401525a01fa1561049457565b604051907f11ed208c096076156f5daaa15eb94037c714a1b6c169408bf316408e4feab82082527f2b319e2cfd33907b090d2e940d24fce3a318d05210d209dfd2ef4b1be0ea41f96020830152604082019081526107cf196040836060816007855a01fa156104945760409260066080939284938451905260a05160608401525a01fa1561049457565b604051907f25ed9bae6ef273598bb91a11243875717708da90fee58ddd07ef3f32b64e62ae82527f18d6f006013fcce593566ba71c329a7fdad662fdfc2ea6322dd7b91de0f208096020830152604082019081526107cf196040836060816007855a01fa156104945760409260066080939284938451905260a05160608401525a01fa1561049457565b604051907f1eab521904cc821bf2e8c4cd993240c25d1ca15eaae12a67d5486444c392d48e82527f1102771e389426df851dfdf64e696c276d4de6b1d8c159f3dfac5c7895f5932c6020830152604082019081526107cf196040836060816007855a01fa156104945760409260066080939284938451905260a05160608401525a01fa1561049457565b604051907f07c3d67da45ff5515849d9282c17ed03abdc6747c7602bf6e79c552ff27d951982527f2d0b9b6c6a14b7701729f268ec0d076b76914fa7bcc2a6f4893b35ce6f1125586020830152604082019081526107cf196040836060816007855a01fa156104945760409260066080939284938451905260a05160608401525a01fa1561049457565b604051907f242ae9b9636f4b68cad3dc91787f8db330de6b3229ef3e196ae27152a9eeedb682527f023c156ff5acfc198092e509f508c0acfa9861021f40d456481a2f3804a7b8176020830152604082019081526107cf196040836060816007855a01fa156104945760409260066080939284938451905260a05160608401525a01fa1561049457565b604051907f1b1b9c81fc5fbc309af8267b3b693d1aa891f5531d802788de61fe7a3ac45ea482527f240170a26433821aa6a924b6bd4a7c7760da5048b04934e0f0709b968dad3e9c6020830152604082019081526107cf196040836060816007855a01fa156104945760409260066080939284938451905260a05160608401525a01fa1561049457565b604051907f128501190e400e6d9bd7629326fed53b81178d845e58d16724361e5ca181d32682527e2a484b733deb2a65ca2ec430ca55f0de9530957ee3856fa18331cee78e3d1d6020830152604082019081526107cf196040836060816007855a01fa156104945760409260066080939284938451905260a05160608401525a01fa1561049457565b604051907f2c578f7eff6ee5f70472ae75a8a41bb56ec32f5afa59ddd03b3fd77b72bcd55382527f2b0198044be0d5f63a0e8550c16b9cfb9c75a86eabe1777d09308e730d5b32c36020830152604082019081526107cf196040836060816007855a01fa156104945760409260066080939284938451905260a05160608401525a01fa1561049457565b604051907f2f207f8c0de737a6b864c8481c6a30b21bdb8f42b69a1f6af6afa70e1d13380982527f304a5421ea4861070a5278c321d7abdb89084a7152c9ed7c447e4759d04d41b96020830152604082019081526107cf196040836060816007855a01fa156104945760409260066080939284938451905260a05160608401525a01fa1561049457565b604051907f1465658b4dbe9aae759f441d2fcf45631ac71c9a154165e93901489bc67f399582527f0fd05bd493635f870ceaac9ba40a50c782eeba8f31c7a8fa572e6295e92f6d6f6020830152604082019081526107cf196040836060816007855a01fa156104945760409260066080939284938451905260a05160608401525a01fa1561049457565b604051907f21d735f5557db0f8009bc827c7f8e11480caafc08f5fe28f901d09806799fbc982527f2c9f354d8fc0a78862fc4f710379ffd39b6de083ed92ee2ea274bc4035e281eb6020830152604082019081526107cf196040836060816007855a01fa156104945760409260066080939284938451905260a05160608401525a01fa1561049457565b604051907f1e42cab90c1a22a1a89bbf4cef8068c7bf3ebf1efda9a67c95cf12323cb3787282527f1d8cea15b8c2ff4404e7c92159ad32656bdd417c933c4715d57e1f669de51b096020830152604082019081526107cf196040836060816007855a01fa156104945760409260066080939284938451905260a05160608401525a01fa1561049457565b604051907f054c9c3cf0f9f197414cd1be6e791a4896f9c8bc00227ea665fb260111d0fa2e82527f1693cb5938c414e8c68b485eb081724b13d8a73297043b14aa794af8426a9ca06020830152604082019081526107cf196040836060816007855a01fa156104945760409260066080939284938451905260a05160608401525a01fa1561049457565b604051907f12e85ae703dc7963071a5304de742914de2649159e34e353d612b734a0fc951382527f123c782fdc13fabd1a2da44b4c7a54de36939be4db0cd7d89dc2297c15e333de6020830152604082019081526107cf196040836060816007855a01fa156104945760409260066080939284938451905260a05160608401525a01fa1561049457565b604051907f10008fe36b8204ef6759b8170db8fe2ec115b2f787eb1aaa5bf93cfa7b29fff782527f11ddd4aae35018171e9c5f3c6f2d33e2ad60ae50a58a0f32b79831c713b6277f6020830152604082019081526107cf196040836060816007855a01fa156104945760409260066080939284938451905260a05160608401525a01fa1561049457565b604051907f0b6941a9795221abfbfb8f97b4e1f236330a592d7a1ccf3c9e3b32d28761e93a82527f240af76b2c266c0eae58a05ad137a83665a521f1b49b792fcbe4fd52ca0008f66020830152604082019081526107cf196040836060816007855a01fa156104945760409260066080939284938451905260a05160608401525a01fa1561049457565b604051907f04eba2e56ec4e0306cfe8d5016159fd20df1a377f636cdf4c7de280aed53dbf482527f2a038a3293d0d3ecaaac254f11b291feaf5892e47e692308e1a5498565ed99aa6020830152604082019081526107cf196040836060816007855a01fa156104945760409260066080939284938451905260a05160608401525a01fa1561049457565b604051907f0700e413833f29aee7a96beee6ea675631e47b11b393164d388b69280ad0e79582527f09923fa284732c93f37973d7f57e4ebc4d88c0d2d249ad63f74f1b906d8781b06020830152604082019081526107cf196040836060816007855a01fa156104945760409260066080939284938451905260a05160608401525a01fa1561049457565b604051907f203a2f3d95f9fc565ff47f3aead3cf5a1dbb613176b9d98d541f818a33bf9d7982527f0f69252dfdc9dd9f90461d82935c30ffd095e5210e46710c15afa61cda1158d36020830152604082019081526107cf196040836060816007855a01fa156104945760409260066080939284938451905260a05160608401525a01fa1561049457565b604051907f2d42399bcba21f7107c0c98b4be55413de2b3d6da14773fd0261f3656b09811182527f204cb22275a3fb453fc66a90b9ddbced76f1b097352cf8df5fcb4c5f916f57c96020830152604082019081526107cf196040836060816007855a01fa156104945760409260066080939284938451905260a05160608401525a01fa1561049457565b604051907f24e48d1b5ac9fe7acbc917447782b784ee629901adb0484b200689eed41119e882527f0bd44e93b09ff9751f901c96a0f67d2c2366c5f615cbe8ad7124f7a99eeeab926020830152604082019081526107cf196040836060816007855a01fa156104945760409260066080939284938451905260a05160608401525a01fa1561049457565b604051907f2e88f1c2235c429c82364e363b90d2ad7f44b82ce16cddecd07c841d66e8f1c182527f26cb26b78715a04c528ab7687d88d36f53375cd6872c39f1ebeb1d65d49c7ccd6020830152604082019081526107cf196040836060816007855a01fa156104945760409260066080939284938451905260a05160608401525a01fa1561049457565b604051907f23728e6095af2b2aa406884414b12925533c4ab49f7da5cbe40173919abebe2b82527f05116e2b667c159b612dd3497e6c54163617336c5dd1b7a7d9ef676796ce1bb76020830152604082019081526107cf196040836060816007855a01fa156104945760409260066080939284938451905260a05160608401525a01fa1561049457565b604051907f2b23c1b3d5f302ed842daba7d920e58cecdd239b269a8fa1bd5e6b4a25e510ba82527f032d37c3dbe4f295be5749f4f53d13437bff6c0f46e02f9e840949bf49cbbf596020830152604082019081526107cf196040836060816007855a01fa156104945760409260066080939284938451905260a05160608401525a01fa1561049457565b604051907f22e8764489fef88ffe5530e81eee12ca0eb2e3a484f8ee6fd2422e201a5d456182527f08e4fee226f55473955d4b5a55f0abfe42787e0df2d19853e2e08346d321b79c6020830152604082019081526107cf196040836060816007855a01fa156104945760409260066080939284938451905260a05160608401525a01fa1561049457565b604051907f1ee95db4041533f959cbc24a222f2b1285a716d4d747ce9ee570fbd752b48a7982527f2a7436ad43ba771f0f6a6c887a1892486adad658ba4db7130fc69e45a1acba646020830152604082019081526107cf196040836060816007855a01fa156104945760409260066080939284938451905260a05160608401525a01fa1561049457565b604051907f03d6d0a3f4494548b1dfa18260fe91bb3a2fe32feaf8a261d5196b2334ab7acb82527f1a8315dc37627e9ab97d4f9594db994dce12ad65c04adcf48f0cb0140c00030d6020830152604082019081526107cf196040836060816007855a01fa156104945760409260066080939284938451905260a05160608401525a01fa1561049457565b604051907f044b1866188747cd6429cf927fc4f8fa3cf2da39f234ca1789b857f560dff76882527f251308ce47bf4fa0432f3f746531f56cd97fa1d8d2aa16d1654d2a48c5ac5c066020830152604082019081526107cf196040836060816007855a01fa156104945760409260066080939284938451905260a05160608401525a01fa1561049457565b604051907f0526df864a9d7e024607e06e06046c7b428132f6c95d0e7c46ff8986a56dc50482527f1c902421fa1a327efc2eb5905532dbc7bf4e80ab60bc93a388a637681c1f4aea6020830152604082019081526107cf196040836060816007855a01fa156104945760409260066080939284938451905260a05160608401525a01fa1561049457565b604051907f22f2cff24bbdb574a55e9319a2f0e4a919af0a4843b68cdb6308f3b16c401a0782527f29ac8118db3be12a8c30e6fd19f0c06fc56dcf6b0c28d6a537170bb66cdce63d6020830152604082019081526107cf196040836060816007855a01fa156104945760409260066080939284938451905260a05160608401525a01fa1561049457565b604051907f11cabea1b7c18be720f46cb68c8df9484360802b90036894d7ef2df4c94aa6cc82527f0cbe9e9934d646e7e2e168be44482eae043b5135ce63091a0edb17efcf20f6166020830152604082019081526107cf196040836060816007855a01fa156104945760409260066080939284938451905260a05160608401525a01fa1561049457565b604051907f2ab5501a300ddbb6a57a5530f309788dcd0637590e6e08ceed8b78c94f9a63aa82527f1b34d50d16e7877fcd0b5ac9449bfcd0b6eef9eccdbce4c8fd97b65a77e7b21a6020830152604082019081526107cf196040836060816007855a01fa156104945760409260066080939284938451905260a05160608401525a01fa1561049457565b604051907f154204812d2cdd1ee658a4d1c027d47d34f20968d212e4e53ce30f8b06fad54782527f11c322636b9c5d0676ccbfb6b45ead8ad0114f51e5dabd038a69c80f3ac7e23c6020830152604082019081526107cf196040836060816007855a01fa156104945760409260066080939284938451905260a05160608401525a01fa1561049457565b604051907f123605c43765b6e6a1fa869a93ddd0661abcf8da3a9363f6ae9fe90f5ce6482f82527f1969f3ce5840a28673791d90033b41d3071c70df39b3107ec1f4d6c270c6b8016020830152604082019081526107cf196040836060816007855a01fa156104945760409260066080939284938451905260a05160608401525a01fa1561049457565b604051907f2e728d172fd6a50d5dc0fbf0bed11ef9ba68cb23c8c09135ae12bd7ce0d18c6c82527f14169ac3f852206bddc0fec1ee1334227cf05a40d94b007e7173a688e700a5c66020830152604082019081526107cf196040836060816007855a01fa156104945760409260066080939284938451905260a05160608401525a01fa1561049457565b604051907f19394fd3895149fe58733735946192011cb44868caccd07d28462bb7a9532f3d82527f13b3849aafae4916be93b42ddf29da03cdb340e3a994990420d721751c3160e96020830152604082019081526107cf196040836060816007855a01fa156104945760409260066080939284938451905260a05160608401525a01fa1561049457565b604051907f0502d144633c315601d7dfc80a27966da0a7e66a1d0af5f8a47ff89625bcd1c682527f294d53850483b312cfc6fb14c6fbd72c7468d180f711870f1bc59478c4f7c2916020830152604082019081526107cf196040836060816007855a01fa156104945760409260066080939284938451905260a05160608401525a01fa1561049457565b604051907f1cf9b50e804fd9d70720b3096c711f4b8a2a9c553c7dd68924fff68dfd8af71e82527f14d0f1cec83db3908205fa43eb3aedc4f519674a4e56d739a47b202a34f270726020830152604082019081526107cf196040836060816007855a01fa156104945760409260066080939284938451905260a05160608401525a01fa1561049457565b604051907f05559e2003f04f86a6be43904268ec4c5a5d7c8d8713662cadb546d2b61f3fb382527f2aa7502ed8df48b76e980b3b7a60a0bf3fd962e2a7b0a8bcdbc382539bc27ee56020830152604082019081526107cf196040836060816007855a01fa156104945760409260066080939284938451905260a05160608401525a01fa1561049457565b604051907f28d7e94ad718bd4cc88eff9f4243acb16128aa8acfb9e729e6a47440bbd2470282527f3017910bd0ab64b609d6c5a300c9d24e248b464cde2c277e55547722798c26416020830152604082019081526107cf196040836060816007855a01fa156104945760409260066080939284938451905260a05160608401525a01fa1561049457565b604051907f08592a08227cb91566e0095d2f8671b0b72e2ac9310e3efedb2a68cd4407736f82527f2eab4cb00a6dbdfadc3aa93ac5ea81a0a611c1506bda0e1f0ab6aa109092dddd6020830152604082019081526107cf196040836060816007855a01fa156104945760409260066080939284938451905260a05160608401525a01fa1561049457565b604051907f16f935e11984c13ac2849a6051e544fcf21f16855c9659ef5111ce7829b2630c82527f27644ed0e61bdb252e87fa134789f77110aa2e9b17ba936bb59cefd5541c49af6020830152604082019081526107cf196040836060816007855a01fa156104945760409260066080939284938451905260a05160608401525a01fa1561049457565b604051907f28815bbda311d3fbd9c68176f7c3b38fea2a28209add3dd2b54599884a09cba482527f0dc4f5593c523af7e231a25f5705830e7a126ded76c9eb47254a64988fbe2a356020830152604082019081526107cf196040836060816007855a01fa156104945760409260066080939284938451905260a05160608401525a01fa1561049457565b604051907f1ce9ecfd4446221efc24ff93bd96c52253e30b21b9c511bb115e92b07bdc929682527f0db8805328a20c228b3cffe6bc49a484ef5106697b6f5e2dc9db32b567099de76020830152604082019081526107cf196040836060816007855a01fa156104945760409260066080939284938451905260a05160608401525a01fa1561049457565b604051907f1b916767982fc362c5d1957fcbf73041a1076fc0406c32d0cc237bfcc129066782527f013b055b887ceb53395f79d43f25670441ee9895966c7b6da3611fc429493cb26020830152604082019081526107cf196040836060816007855a01fa156104945760409260066080939284938451905260a05160608401525a01fa1561049457565b604051907f223460e9aa116347a015a635a1d85346acd9e914d39ab87e144f1196f60d6ce382527f02f5e7c1a27036c9c996b2b6c1413056d24303ffea2709023344605ab79326576020830152604082019081526107cf196040836060816007855a01fa156104945760409260066080939284938451905260a05160608401525a01fa1561049457565b604051907f11b75fd519b6fad7467d91ced614dd11a677a4f78a394de77b161365d701d82082527f20e7fafedada12887310f6c43895369d8df12c62e624869807579f68186232396020830152604082019081526107cf196040836060816007855a01fa156104945760409260066080939284938451905260a05160608401525a01fa1561049457565b604051907f021232538ed92bd807c649a9e7de9dce36a9e95ef0a4ebad4e006ff983d99cc382527f214266d881395bb7610ef63de5d49f41748c4d6a4f354727a1131d189e01f3c96020830152604082019081526107cf196040836060816007855a01fa156104945760409260066080939284938451905260a05160608401525a01fa1561049457565b604051907f1832c114bf80d818e578af5ab684b88066f9871aae7bfb922f80e05390c28efa82527f0ec06d0016fbc5d7097cbf2baa56cf0b28f729cff5514eecf9cc3bf32ceb2f566020830152604082019081526107cf196040836060816007855a01fa156104945760409260066080939284938451905260a05160608401525a01fa1561049457565b604051907f23ba8ba67546570e8f8f7749f620d97465d5e592aacdabeec3ee5c9ff4392f5d82527f2b767a054617984ae217f233e5aa65ff5bbbaa60065de37260c81a4c35d68f066020830152604082019081526107cf196040836060816007855a01fa156104945760409260066080939284938451905260a05160608401525a01fa1561049457565b604051907f2c8936c9a59fc2002c0db581d86b6e25c48f89681580113658231b88a7690e6a82527f25dde3422d1bece834913c0a5be5cab56d61b2263bdd064b3f1f0d6ad64811fb6020830152604082019081526107cf196040836060816007855a01fa156104945760409260066080939284938451905260a05160608401525a01fa1561049457565b6020907f1ab0c1d706bd03adc11821cfc6a1aa4b49e7cceecaebfa4fb8fdd0e7846844356080527f2da9d4b6f5f20d55c8e4fee064c9a394736b39b1157545d794fecda842807e0960a0526130116101043561049e565b61301d61012435610528565b613029610144356105b2565b6130356101643561063c565b613041610184356106c6565b61304d6101a435610750565b6130596101c4356107da565b6130656101e435610864565b613071610204356108ee565b61307d61022435610977565b61308961024435610a01565b61309561026435610a8b565b6130a161028435610b14565b6130ad6102a435610b9e565b6130b96102c435610c28565b6130c56102e435610cb2565b6130d161030435610d3c565b6130dd61032435610dc6565b6130e961034435610e50565b6130f561036435610eda565b61310161038435610f64565b61310d6103a435610fee565b6131196103c435611078565b6131256103e435611102565b6131316104043561118c565b61313d61042435611215565b6131496104443561129f565b61315561046435611329565b613161610484356113b3565b61316d6104a43561143d565b6131796104c4356114c7565b6131856104e435611551565b613191610504356115db565b61319d61052435611665565b6131a9610544356116ef565b6131b561056435611779565b6131c161058435611802565b6131cd6105a43561188c565b6131d96105c435611916565b6131e56105e4356119a0565b6131f161060435611a2a565b6131fd61062435611ab4565b61320961064435611b3e565b61321561066435611bc8565b61322161068435611c52565b61322d6106a435611cdc565b6132396106c435611d66565b6132456106e435611df0565b61325161070435611e7a565b61325d61072435611f04565b61326961074435611f8e565b61327561076435612018565b613281610784356120a2565b61328d6107a43561212c565b6132996107c4356121b6565b6132a56107e435612240565b6132b1610804356122ca565b6132bd61082435612354565b6132c9610844356123de565b6132d561086435612468565b6132e1610884356124f2565b6132ed6108a43561257c565b6132f96108c435612606565b6133056108e435612690565b6133116109043561271a565b61331d610924356127a4565b6133296109443561282e565b613335610964356128b8565b61334161098435612942565b61334d6109a4356129cc565b6133596109c435612a56565b6133656109e435612ae0565b613371610a0435612b6a565b61337d610a2435612bf4565b613389610a4435612c7e565b613395610a6435612d08565b6133a1610a8435612d92565b6133ad610aa435612e1c565b6133b9610ac435612ea6565b6133c5610ae435612f30565b61010092818492358352837f30644e72e131a029b85045b68181585d97816a916871ca8d3c208c16d87cfd479101358103066101205260443561014052606435610160526084356101805260a4356101a0527f2d4d9aa7e302d9df41749d5507949d05dbea33fbb16c643b22f599a2be6df2e26101c0527f14bedd503c37ceb061d8ec60209fe345ce89830a19230301f076caff004d19266101e0527f0967032fcbf776d1afc985f88877f182d38480a653f2decaa9794cbc3bf3060c610200527f0e187847ad4c798374d0d6732bf501847dd68bc0e071241e0213bc7fc13db7ab610220527f304cfbd1e08a704a99f5e847d93f8c3caafddec46b7a0d379da69a4d112346a7610240527f1739c1b1a457a8c7313123d24d2f9192f896b7c63eea05a9d57f06547ad0cec8610260526080516102805260a0516102a0527f198e9393920d483a7260bfb731fb5d25f1aa493335a9e71297e485b7aef312c26102c0527f1800deef121f1e76426a00665e5c4479674322d4f75edadd46debd5cd992f6ed6102e05282610300917f090689d0585ff075ec9e99ad690c3395bc4b313370b38ef355acdadcd122975b83527f12c85ea5db8c6deb4aab71808dcb408fe3d1e7690c43d37b4ce6cc0166fa7daa610320528035610340520135610360527f222c845853e67963000e5951c0b7e00304b110398b87114da09d6f107d6ebbfd610380527f21ed56bc602a15a3982f55be8ced8eb4baccc045f5a9b8ce9908e1d8265e81f16103a0527f12b205fb37f1db1f7468e5f60096ba21d24601b9e32a8e66ee18e9363ca6069f6103c0527f13bdc514c3e2ee0c52bd7bb9df753ed1dca719e3b5d585a19aaf0af936e909e76103e0528160086107cf195a01fa9051169056fea26469706673582212206090b3cb6f269860ab325d00d307ec8b8229be5f96233c300a4cb4b7e1f5295a64736f6c634300080f0033",
  "linkReferences": {},
  "deployedLinkReferences": {}
}