{
  "_format": "hh-sol-artifact-1",
  "contractName": "Bodies",
  "sourceName": "contracts/Bodies.sol",
  "abi": [
    {
      "inputs": [
        {
          "internalType": "address",
          "name": "bodyMetadata_",
          "type": "address"
        },
        {
          "internalType": "address payable",
          "name": "problems_",
          "type": "address"
        }
      ],
      "stateMutability": "nonpayable",
      "type": "constructor"
    },
    {
      "anonymous": false,
      "inputs": [
        {
          "indexed": true,
          "internalType": "address",
          "name": "owner",
          "type": "address"
        },
        {
          "indexed": true,
          "internalType": "address",
          "name": "approved",
          "type": "address"
        },
        {
          "indexed": true,
          "internalType": "uint256",
          "name": "tokenId",
          "type": "uint256"
        }
      ],
      "name": "Approval",
      "type": "event"
    },
    {
      "anonymous": false,
      "inputs": [
        {
          "indexed": true,
          "internalType": "address",
          "name": "owner",
          "type": "address"
        },
        {
          "indexed": true,
          "internalType": "address",
          "name": "operator",
          "type": "address"
        },
        {
          "indexed": false,
          "internalType": "bool",
          "name": "approved",
          "type": "bool"
        }
      ],
      "name": "ApprovalForAll",
      "type": "event"
    },
    {
      "anonymous": false,
      "inputs": [
        {
          "indexed": true,
          "internalType": "address",
          "name": "previousOwner",
          "type": "address"
        },
        {
          "indexed": true,
          "internalType": "address",
          "name": "newOwner",
          "type": "address"
        }
      ],
      "name": "OwnershipTransferred",
      "type": "event"
    },
    {
      "anonymous": false,
      "inputs": [
        {
          "indexed": true,
          "internalType": "address",
          "name": "from",
          "type": "address"
        },
        {
          "indexed": true,
          "internalType": "address",
          "name": "to",
          "type": "address"
        },
        {
          "indexed": true,
          "internalType": "uint256",
          "name": "tokenId",
          "type": "uint256"
        }
      ],
      "name": "Transfer",
      "type": "event"
    },
    {
      "anonymous": false,
      "inputs": [
        {
          "indexed": true,
          "internalType": "uint256",
          "name": "bodyId",
          "type": "uint256"
        },
        {
          "indexed": true,
          "internalType": "uint256",
          "name": "problemId",
          "type": "uint256"
        },
        {
          "indexed": true,
          "internalType": "uint256",
          "name": "mintedBodyIndex",
          "type": "uint256"
        },
        {
          "indexed": false,
          "internalType": "bytes32",
          "name": "seed",
          "type": "bytes32"
        },
        {
          "indexed": false,
          "internalType": "bool",
          "name": "addedToProblem",
          "type": "bool"
        }
      ],
      "name": "bodyBorn",
      "type": "event"
    },
    {
      "stateMutability": "nonpayable",
      "type": "fallback"
    },
    {
      "inputs": [
        {
          "internalType": "address",
          "name": "to",
          "type": "address"
        },
        {
          "internalType": "uint256",
          "name": "tokenId",
          "type": "uint256"
        }
      ],
      "name": "approve",
      "outputs": [],
      "stateMutability": "nonpayable",
      "type": "function"
    },
    {
      "inputs": [
        {
          "internalType": "address",
          "name": "owner",
          "type": "address"
        }
      ],
      "name": "balanceOf",
      "outputs": [
        {
          "internalType": "uint256",
          "name": "",
          "type": "uint256"
        }
      ],
      "stateMutability": "view",
      "type": "function"
    },
    {
      "inputs": [
        {
          "internalType": "uint256",
          "name": "",
          "type": "uint256"
        }
      ],
      "name": "bodies",
      "outputs": [
        {
          "internalType": "uint256",
          "name": "problemId",
          "type": "uint256"
        },
        {
          "internalType": "uint256",
          "name": "mintedBodyIndex",
          "type": "uint256"
        },
        {
          "internalType": "bytes32",
          "name": "seed",
          "type": "bytes32"
        }
      ],
      "stateMutability": "view",
      "type": "function"
    },
    {
      "inputs": [],
      "name": "bodyMetadata",
      "outputs": [
        {
          "internalType": "address",
          "name": "",
          "type": "address"
        }
      ],
      "stateMutability": "view",
      "type": "function"
    },
    {
      "inputs": [
        {
          "internalType": "uint256",
          "name": "bodyID",
          "type": "uint256"
        }
      ],
      "name": "burn",
      "outputs": [],
      "stateMutability": "nonpayable",
      "type": "function"
    },
    {
      "inputs": [],
      "name": "counter",
      "outputs": [
        {
          "internalType": "uint256",
          "name": "",
          "type": "uint256"
        }
      ],
      "stateMutability": "view",
      "type": "function"
    },
    {
      "inputs": [],
      "name": "decimals",
      "outputs": [
        {
          "internalType": "uint256",
          "name": "",
          "type": "uint256"
        }
      ],
      "stateMutability": "view",
      "type": "function"
    },
    {
      "inputs": [
        {
          "internalType": "uint256",
          "name": "tokenId",
          "type": "uint256"
        }
      ],
      "name": "generateSeed",
      "outputs": [
        {
          "internalType": "bytes32",
          "name": "",
          "type": "bytes32"
        }
      ],
      "stateMutability": "view",
      "type": "function"
    },
    {
      "inputs": [
        {
          "internalType": "uint256",
          "name": "tokenId",
          "type": "uint256"
        }
      ],
      "name": "getApproved",
      "outputs": [
        {
          "internalType": "address",
          "name": "",
          "type": "address"
        }
      ],
      "stateMutability": "view",
      "type": "function"
    },
    {
      "inputs": [
        {
          "internalType": "address",
          "name": "owner",
          "type": "address"
        },
        {
          "internalType": "address",
          "name": "operator",
          "type": "address"
        }
      ],
      "name": "isApprovedForAll",
      "outputs": [
        {
          "internalType": "bool",
          "name": "",
          "type": "bool"
        }
      ],
      "stateMutability": "view",
      "type": "function"
    },
    {
      "inputs": [
        {
          "internalType": "address",
          "name": "owner",
          "type": "address"
        },
        {
          "internalType": "uint256",
          "name": "problemId",
          "type": "uint256"
        },
        {
          "internalType": "uint256",
          "name": "mintedBodyIndex",
          "type": "uint256"
        }
      ],
      "name": "mintAndAddToProblem",
      "outputs": [
        {
          "internalType": "uint256",
          "name": "bodyId",
          "type": "uint256"
        },
        {
          "internalType": "bytes32",
          "name": "seed",
          "type": "bytes32"
        }
      ],
      "stateMutability": "nonpayable",
      "type": "function"
    },
    {
      "inputs": [
        {
          "internalType": "address",
          "name": "owner",
          "type": "address"
        },
        {
          "internalType": "uint256",
          "name": "bodyId",
          "type": "uint256"
        },
        {
          "internalType": "uint256",
          "name": "problemId",
          "type": "uint256"
        }
      ],
      "name": "moveBodyFromProblem",
      "outputs": [],
      "stateMutability": "nonpayable",
      "type": "function"
    },
    {
      "inputs": [],
      "name": "name",
      "outputs": [
        {
          "internalType": "string",
          "name": "",
          "type": "string"
        }
      ],
      "stateMutability": "view",
      "type": "function"
    },
    {
      "inputs": [],
      "name": "owner",
      "outputs": [
        {
          "internalType": "address",
          "name": "",
          "type": "address"
        }
      ],
      "stateMutability": "view",
      "type": "function"
    },
    {
      "inputs": [
        {
          "internalType": "uint256",
          "name": "tokenId",
          "type": "uint256"
        }
      ],
      "name": "ownerOf",
      "outputs": [
        {
          "internalType": "address",
          "name": "",
          "type": "address"
        }
      ],
      "stateMutability": "view",
      "type": "function"
    },
    {
      "inputs": [
        {
          "internalType": "address",
          "name": "owner",
          "type": "address"
        },
        {
          "internalType": "uint256",
          "name": "bodyId",
          "type": "uint256"
        }
      ],
      "name": "problemMint",
      "outputs": [],
      "stateMutability": "nonpayable",
      "type": "function"
    },
    {
      "inputs": [],
      "name": "problems",
      "outputs": [
        {
          "internalType": "address payable",
          "name": "",
          "type": "address"
        }
      ],
      "stateMutability": "view",
      "type": "function"
    },
    {
      "inputs": [],
      "name": "renounceOwnership",
      "outputs": [],
      "stateMutability": "nonpayable",
      "type": "function"
    },
    {
      "inputs": [
        {
          "internalType": "address",
          "name": "from",
          "type": "address"
        },
        {
          "internalType": "address",
          "name": "to",
          "type": "address"
        },
        {
          "internalType": "uint256",
          "name": "tokenId",
          "type": "uint256"
        }
      ],
      "name": "safeTransferFrom",
      "outputs": [],
      "stateMutability": "nonpayable",
      "type": "function"
    },
    {
      "inputs": [
        {
          "internalType": "address",
          "name": "from",
          "type": "address"
        },
        {
          "internalType": "address",
          "name": "to",
          "type": "address"
        },
        {
          "internalType": "uint256",
          "name": "tokenId",
          "type": "uint256"
        },
        {
          "internalType": "bytes",
          "name": "data",
          "type": "bytes"
        }
      ],
      "name": "safeTransferFrom",
      "outputs": [],
      "stateMutability": "nonpayable",
      "type": "function"
    },
    {
      "inputs": [
        {
          "internalType": "address",
          "name": "operator",
          "type": "address"
        },
        {
          "internalType": "bool",
          "name": "approved",
          "type": "bool"
        }
      ],
      "name": "setApprovalForAll",
      "outputs": [],
      "stateMutability": "nonpayable",
      "type": "function"
    },
    {
      "inputs": [
        {
          "internalType": "bytes4",
          "name": "interfaceId",
          "type": "bytes4"
        }
      ],
      "name": "supportsInterface",
      "outputs": [
        {
          "internalType": "bool",
          "name": "",
          "type": "bool"
        }
      ],
      "stateMutability": "view",
      "type": "function"
    },
    {
      "inputs": [],
      "name": "symbol",
      "outputs": [
        {
          "internalType": "string",
          "name": "",
          "type": "string"
        }
      ],
      "stateMutability": "view",
      "type": "function"
    },
    {
      "inputs": [
        {
          "internalType": "uint256",
          "name": "id",
          "type": "uint256"
        }
      ],
      "name": "tokenURI",
      "outputs": [
        {
          "internalType": "string",
          "name": "",
          "type": "string"
        }
      ],
      "stateMutability": "view",
      "type": "function"
    },
    {
      "inputs": [
        {
          "internalType": "address",
          "name": "from",
          "type": "address"
        },
        {
          "internalType": "address",
          "name": "to",
          "type": "address"
        },
        {
          "internalType": "uint256",
          "name": "tokenId",
          "type": "uint256"
        }
      ],
      "name": "transferFrom",
      "outputs": [],
      "stateMutability": "nonpayable",
      "type": "function"
    },
    {
      "inputs": [
        {
          "internalType": "address",
          "name": "newOwner",
          "type": "address"
        }
      ],
      "name": "transferOwnership",
      "outputs": [],
      "stateMutability": "nonpayable",
      "type": "function"
    },
    {
      "inputs": [
        {
          "internalType": "address",
          "name": "bodyMetadata_",
          "type": "address"
        }
      ],
      "name": "updateBodyMetadataAddress",
      "outputs": [],
      "stateMutability": "nonpayable",
      "type": "function"
    },
    {
      "inputs": [
        {
          "internalType": "address payable",
          "name": "problems_",
          "type": "address"
        }
      ],
      "name": "updateProblemsAddress",
      "outputs": [],
      "stateMutability": "nonpayable",
      "type": "function"
    }
  ],
  "bytecode": "0x608034620003ca57601f906001600160401b0390601f1962001b973881900385810183168401919085831185841017620003b4578085926040948552833981010312620003ca5781516001600160a01b03938482169391849003620003ca5760208092015195858716809703620003ca576200007a620003cf565b926006845265426f6469657360d01b8185015262000097620003cf565b9060038252621093d160ea1b81830152845195848711620003b4576000968754966001978881811c91168015620003a9575b85821014620003955790818784931162000342575b508490878311600114620002e1578a92620002d5575b5050600019600383901b1c191690871b1787555b8251948511620002c15785548681811c91168015620002b6575b83821014620002a25790818587969594931162000249575b5081938511600114620001e45750508592620001d8575b5050600019600383901b1c191690821b1790555b600654907f8be0079c531659141344cd1fd0a4f28419497f9722a3daafe3b4186f6b6457e060018060a01b031994338685161760065533931691604051a3620001ad620003ef565b816008541617600855620001c0620003ef565b600754161760075560405161174e9081620004498239f35b01519050388062000151565b869593929193168588528388209388905b8282106200022f575050841162000215575b505050811b01905562000165565b015160001960f88460031b161c1916905538808062000207565b8484015186558897909501949384019390810190620001f5565b9091929394508688528288208580880160051c82019285891062000298575b9188978a9297969594930160051c01915b828110620002895750506200013a565b8a815588975089910162000279565b9250819262000268565b634e487b7160e01b88526022600452602488fd5b90607f169062000122565b634e487b7160e01b87526041600452602487fd5b015190503880620000f4565b90848a9416918b8052868c20928c5b888282106200032b575050841162000311575b505050811b01875562000108565b015160001960f88460031b161c1916905538808062000303565b8385015186558d97909501949384019301620002f0565b909150898052848a208780850160051c8201928786106200038b575b918b91869594930160051c01915b8281106200037c575050620000de565b8c81558594508b91016200036c565b925081926200035e565b634e487b7160e01b8a52602260045260248afd5b90607f1690620000c9565b634e487b7160e01b600052604160045260246000fd5b600080fd5b60408051919082016001600160401b03811183821017620003b457604052565b6006546001600160a01b031633036200040457565b606460405162461bcd60e51b815260206004820152602060248201527f4f776e61626c653a2063616c6c6572206973206e6f7420746865206f776e65726044820152fdfe608060409080825260049081361015610057575b5034610052576020606492519162461bcd60e51b835282015260146024820152733737903330b6363130b1b590333ab731ba34b7b760611b6044820152fd5b600080fd5b600090813560e01c90816301ffc9a714610e945750806306fdde0314610dc8578063081812fc14610da7578063087c32e614610d62578063095ea7b314610bf257806323b872dd14610bc7578063313ce56714610ba457806331d988b214610b69578063424611c314610b4157806342842e0e14610af257806342966c6814610a4757806344cee73c14610a0857806361bc221a146109e95780636352211e146109b757806370a0823114610922578063715018a6146108c25780637fd9d57b146107f25780638da5cb5b146107c957806395d89b41146106b2578063a22cb465146105e1578063a85e1cfe146105b8578063b88d4fde14610527578063c87b56dd14610430578063d395cb131461031b578063d5f35666146102da578063e985e9c51461028c578063f2fde38b146101c05763f9df988f036100135782346101bc57816003193601126101bc5760075490516001600160a01b039091168152602090f35b5080fd5b50919034610288576020366003190112610288576101dc610f5a565b6101e4611039565b6001600160a01b03908116918215610236575060065492826001600160601b0360a01b8516176006555192167f8be0079c531659141344cd1fd0a4f28419497f9722a3daafe3b4186f6b6457e08484a3f35b608490602085519162461bcd60e51b8352820152602660248201527f4f776e61626c653a206e6577206f776e657220697320746865207a65726f206160448201526564647265737360d01b6064820152fd5b8280fd5b5082346101bc57806003193601126101bc5760ff816020936102ac610f5a565b6102b4610f70565b6001600160a01b0391821683526005875283832091168252855220549151911615158152f35b5082346101bc5760203660031901126101bc576102f5610f5a565b6102fd611039565b60018060a01b03166001600160601b0360a01b600854161760085551f35b503461042d5761032a36610fbb565b91909361034260018060a01b03600754163314611591565b600a54600019811461041a5760010180600a5561035e8161153a565b94875192606084019084821067ffffffffffffffff8311176104075750916002916103c79594938a52888452896020850191888352818601938a8552815260096020522093518455516001840155519101556103bc600a5482611622565b600a54903090611306565b600a5492837f56ddbb3aec71853d67d04e34f3c4314343eaa399863c8424210e8c96a74b1dc186805186815260016020820152a482519182526020820152f35b634e487b7160e01b835260419052602482fd5b634e487b7160e01b855260118252602485fd5b80fd5b50913461028857602091826003193601126105235760085482516308cffccf60e01b81528235928101929092528490829060249082906001600160a01b03165afa938415610518578094610498575b50506104949051928284938452830190610f35565b0390f35b909193503d8082843e6104ab8184610fe5565b82019183818403126101bc5780519067ffffffffffffffff8211610288570182601f820112156101bc578051916104e18361101d565b936104ee87519586610fe5565b83855285848401011161042d5750829161051091858061049496019101610f00565b92903861047f565b8251903d90823e3d90fd5b8380fd5b5091903461028857608036600319011261028857610543610f5a565b9061054c610f70565b916064359167ffffffffffffffff83116105b457366023840112156105b45782013592856105798561101d565b9361058687519586610fe5565b85855236602487830101116101bc57856105b1966024602093018388013785010152604435916111a3565b51f35b8580fd5b5082346101bc57816003193601126101bc5760085490516001600160a01b039091168152602090f35b509190346102885781600319360112610288576105fc610f5a565b602435908115158092036106ae576001600160a01b03169133831461066b5750338452600560205282842082855260205282842060ff1981541660ff831617905582519081527f17307eab39ab6107e8899845ad3d59bd9653f200f220920489ca2b5937696c3160203392a351f35b606490602085519162461bcd60e51b8352820152601960248201527f4552433732313a20617070726f766520746f2063616c6c6572000000000000006044820152fd5b8480fd5b5082903461042d578060031936011261042d578151918160019283549384811c918186169586156107bf575b60209687851081146107ac578899509688969785829a52918260001461078557505060011461072a575b505050610494929161071b910385610fe5565b51928284938452830190610f35565b91908693508083527fb10e2d527612073b26eecdfd717e6a320cf44b4afac2b0732d9fcbe2b7fa0cf65b82841061076d575050508201018161071b610494610708565b8054848a018601528895508794909301928101610754565b60ff19168782015293151560051b8601909301935084925061071b91506104949050610708565b634e487b7160e01b835260228a52602483fd5b92607f16926106de565b5082346101bc57816003193601126101bc5760065490516001600160a01b039091168152602090f35b509190346102885761080336610fbb565b6007549193916001600160a01b039061081f9082163314611591565b610828856110dd565b3091160361088e578386526009602052848620540361085a5750906105b1918185526009602052848481205530611306565b606490602085519162461bcd60e51b8352820152600e60248201526d4e6f7420696e2070726f626c656d60901b6044820152fd5b845162461bcd60e51b8152602081840152600e60248201526d2737ba103137b23c9037bbb732b960911b6044820152606490fd5b5082346101bc57816003193601126101bc576108dc611039565b600680546001600160a01b0319811690915590519082906001600160a01b03167f8be0079c531659141344cd1fd0a4f28419497f9722a3daafe3b4186f6b6457e08284a3f35b5090346101bc5760203660031901126101bc576001600160a01b03610945610f5a565b169081156109625760208480858581526003845220549051908152f35b608490602085519162461bcd60e51b8352820152602960248201527f4552433732313a2061646472657373207a65726f206973206e6f7420612076616044820152683634b21037bbb732b960b91b6064820152fd5b5082903461042d57602036600319011261042d57506109d8602092356110dd565b90516001600160a01b039091168152f35b5082346101bc57816003193601126101bc57602090600a549051908152f35b50919034610288576020366003190112610288576060928291358152600960205220805491600260018301549201549181519384526020840152820152f35b509134610288576020366003190112610288578282359160018060a01b03610a7481600754163314611591565b610a7d846110dd565b50610a87846110dd565b94848452602052818320946001600160601b0360a01b95868154169055169384835260036020528183206000198154019055838352600260205281832090815416905551927fddf252ad1be2c89b69c2b068fc378daa952ba7f163c4a11628f55a4df523b3ef8285a4f35b5082346101bc57610b0236610f86565b908351926020840184811067ffffffffffffffff821117610b2e57856105b196979850528684526111a3565b634e487b7160e01b875260418852602487fd5b5082903461042d57602036600319011261042d5750610b626020923561153a565b9051908152f35b5082346101bc57806003193601126101bc576105b1610b86610f5a565b610b9b60018060a01b03600754163314611591565b60243590611622565b5082346101bc57816003193601126101bc5760209051670de0b6b3a76400008152f35b5082346101bc576105b1610bda36610f86565b91610bed610be8843361123e565b611141565b611306565b50919034610288578160031936011261028857610c0d610f5a565b602435916001600160a01b03908180610c25866110dd565b16931692808414610d1557803314908115610cf6575b5015610c8d5783865260205283852080546001600160a01b03191683179055610c63836110dd565b169251927f8c5be1e5ebec7d5bd14f71427d1e84f3dd0314c0f7b2291e5b200ac8c7c3b9258585a4f35b608490602086519162461bcd60e51b8352820152603d60248201527f4552433732313a20617070726f76652063616c6c6572206973206e6f7420746f60448201527f6b656e206f776e6572206f7220617070726f76656420666f7220616c6c0000006064820152fd5b90508652600560205284862033875260205260ff858720541638610c3b565b855162461bcd60e51b8152602081840152602160248201527f4552433732313a20617070726f76616c20746f2063757272656e74206f776e656044820152603960f91b6064820152608490fd5b5091903461028857602036600319011261028857356001600160a01b0381169081900361028857610d91611039565b6001600160601b0360a01b600754161760075551f35b5082903461042d57602036600319011261042d57506109d860209235611103565b5082903461042d578060031936011261042d5781519181825492600184811c91818616958615610e8a575b60209687851081146107ac578899509688969785829a529182600014610785575050600114610e2f57505050610494929161071b910385610fe5565b91908693508280527f290decd9548b62a8d60345a988386fc84ba6bc95484008f6362f93160ef3e5635b828410610e72575050508201018161071b610494610708565b8054848a018601528895508794909301928101610e59565b92607f1692610df3565b90508234610288576020366003190112610288573563ffffffff60e01b811680910361028857602092506380ac58cd60e01b8114908115610eef575b8115610ede575b5015158152f35b6301ffc9a760e01b14905083610ed7565b635b5e139f60e01b81149150610ed0565b918091926000905b828210610f20575011610f19575050565b6000910152565b91508060209183015181860152018291610f08565b90602091610f4e81518092818552858086019101610f00565b601f01601f1916010190565b600435906001600160a01b038216820361005257565b602435906001600160a01b038216820361005257565b6060906003190112610052576001600160a01b0390600435828116810361005257916024359081168103610052579060443590565b6060906003190112610052576004356001600160a01b038116810361005257906024359060443590565b90601f8019910116810190811067ffffffffffffffff82111761100757604052565b634e487b7160e01b600052604160045260246000fd5b67ffffffffffffffff811161100757601f01601f191660200190565b6006546001600160a01b0316330361104d57565b606460405162461bcd60e51b815260206004820152602060248201527f4f776e61626c653a2063616c6c6572206973206e6f7420746865206f776e65726044820152fd5b1561109857565b60405162461bcd60e51b815260206004820152601860248201527f4552433732313a20696e76616c696420746f6b656e20494400000000000000006044820152606490fd5b6000908152600260205260409020546001600160a01b0316611100811515611091565b90565b600081815260026020526040902054611126906001600160a01b03161515611091565b6000908152600460205260409020546001600160a01b031690565b1561114857565b60405162461bcd60e51b815260206004820152602d60248201527f4552433732313a2063616c6c6572206973206e6f7420746f6b656e206f776e6560448201526c1c881bdc88185c1c1c9bdd9959609a1b6064820152608490fd5b906111c79392916111b7610be8843361123e565b6111c2838383611306565b611419565b156111ce57565b60405162461bcd60e51b8152806111e7600482016111eb565b0390fd5b60809060208152603260208201527f4552433732313a207472616e7366657220746f206e6f6e20455243373231526560408201527131b2b4bb32b91034b6b83632b6b2b73a32b960711b60608201520190565b906001600160a01b038080611252846110dd565b16931691838314938415611285575b50831561126f575b50505090565b61127b91929350611103565b1614388080611269565b909350600052600560205260406000208260005260205260ff604060002054169238611261565b156112b357565b60405162461bcd60e51b815260206004820152602560248201527f4552433732313a207472616e736665722066726f6d20696e636f72726563742060448201526437bbb732b960d91b6064820152608490fd5b9061132e91611314846110dd565b6001600160a01b03939184169284929091831684146112ac565b169182156113c8578161134b91611344866110dd565b16146112ac565b7fddf252ad1be2c89b69c2b068fc378daa952ba7f163c4a11628f55a4df523b3ef60008481526004602052604081206001600160601b0360a01b90818154169055838252600360205260408220600019815401905584825260408220600181540190558582526002602052846040832091825416179055604051a4565b60405162461bcd60e51b8152602060048201526024808201527f4552433732313a207472616e7366657220746f20746865207a65726f206164646044820152637265737360e01b6064820152608490fd5b9293600093909291803b1561152f579484916114739660405180948193630a85bd0160e11b9788845233600485015260018060a01b0380921660248501526044840152608060648401528260209b8c976084830190610f35565b0393165af18491816114ef575b506114de575050503d6000146114d6573d61149a8161101d565b906114a86040519283610fe5565b81528091833d92013e5b805191826114d35760405162461bcd60e51b8152806111e7600482016111eb565b01fd5b5060606114b2565b6001600160e01b0319161492509050565b9091508581813d8311611528575b6115078183610fe5565b810103126106ae57516001600160e01b0319811681036106ae579038611480565b503d6114fd565b505050915050600190565b6001431061157b57604051602081019182526000194301406040820152604081526060810181811067ffffffffffffffff8211176110075760405251902090565b634e487b7160e01b600052601160045260246000fd5b1561159857565b60405162461bcd60e51b815260206004820152601660248201527513db9b1e48141c9bd89b195b5cc818d85b8818d85b1b60521b6044820152606490fd5b156115dd57565b60405162461bcd60e51b815260206004820152601c60248201527f4552433732313a20746f6b656e20616c7265616479206d696e746564000000006044820152606490fd5b6001600160a01b031680156116d457600082815260026020526040902054611656906001600160a01b031615155b156115d6565b600082815260026020526040902054611679906001600160a01b03161515611650565b600081815260036020526040812060018154019055828152600260205260408120826001600160601b0360a01b8254161790557fddf252ad1be2c89b69c2b068fc378daa952ba7f163c4a11628f55a4df523b3ef81604051a4565b606460405162461bcd60e51b815260206004820152602060248201527f4552433732313a206d696e7420746f20746865207a65726f20616464726573736044820152fdfea2646970667358221220d2244392896aabe431fb03e9f4ca298360af266b35c48acfc38bce80adbc296964736f6c634300080f0033",
  "linkReferences": {},
  "deployedLinkReferences": {}
}