{
  "_format": "hh-sol-artifact-1",
  "contractName": "Problems",
  "sourceName": "contracts/Problems.sol",
  "abi": [
    {
      "inputs": [
        {
          "internalType": "address",
          "name": "problemMetadata_",
          "type": "address"
        },
        {
          "internalType": "address[]",
          "name": "verifiers_",
          "type": "address[]"
        },
        {
          "internalType": "uint256[]",
          "name": "verifiersTicks",
          "type": "uint256[]"
        },
        {
          "internalType": "uint256[]",
          "name": "verifiersBodies",
          "type": "uint256[]"
        }
      ],
      "stateMutability": "nonpayable",
      "type": "constructor"
    },
    {
      "anonymous": false,
      "inputs": [
        {
          "indexed": true,
          "internalType": "address",
          "name": "owner",
          "type": "address"
        },
        {
          "indexed": true,
          "internalType": "address",
          "name": "approved",
          "type": "address"
        },
        {
          "indexed": true,
          "internalType": "uint256",
          "name": "tokenId",
          "type": "uint256"
        }
      ],
      "name": "Approval",
      "type": "event"
    },
    {
      "anonymous": false,
      "inputs": [
        {
          "indexed": true,
          "internalType": "address",
          "name": "owner",
          "type": "address"
        },
        {
          "indexed": true,
          "internalType": "address",
          "name": "operator",
          "type": "address"
        },
        {
          "indexed": false,
          "internalType": "bool",
          "name": "approved",
          "type": "bool"
        }
      ],
      "name": "ApprovalForAll",
      "type": "event"
    },
    {
      "anonymous": false,
      "inputs": [
        {
          "indexed": true,
          "internalType": "address",
          "name": "to",
          "type": "address"
        },
        {
          "indexed": true,
          "internalType": "bool",
          "name": "success",
          "type": "bool"
        },
        {
          "indexed": false,
          "internalType": "bytes",
          "name": "returnData",
          "type": "bytes"
        },
        {
          "indexed": false,
          "internalType": "uint256",
          "name": "amount",
          "type": "uint256"
        }
      ],
      "name": "EthMoved",
      "type": "event"
    },
    {
      "anonymous": false,
      "inputs": [
        {
          "indexed": true,
          "internalType": "address",
          "name": "previousOwner",
          "type": "address"
        },
        {
          "indexed": true,
          "internalType": "address",
          "name": "newOwner",
          "type": "address"
        }
      ],
      "name": "OwnershipTransferred",
      "type": "event"
    },
    {
      "anonymous": false,
      "inputs": [
        {
          "indexed": true,
          "internalType": "address",
          "name": "from",
          "type": "address"
        },
        {
          "indexed": true,
          "internalType": "address",
          "name": "to",
          "type": "address"
        },
        {
          "indexed": true,
          "internalType": "uint256",
          "name": "tokenId",
          "type": "uint256"
        }
      ],
      "name": "Transfer",
      "type": "event"
    },
    {
      "anonymous": false,
      "inputs": [
        {
          "indexed": false,
          "internalType": "uint256",
          "name": "problemId",
          "type": "uint256"
        },
        {
          "indexed": false,
          "internalType": "uint256",
          "name": "bodyId",
          "type": "uint256"
        },
        {
          "indexed": false,
          "internalType": "uint256",
          "name": "mintedBodyIndex",
          "type": "uint256"
        },
        {
          "indexed": false,
          "internalType": "uint256",
          "name": "tick",
          "type": "uint256"
        },
        {
          "indexed": false,
          "internalType": "uint256",
          "name": "px",
          "type": "uint256"
        },
        {
          "indexed": false,
          "internalType": "uint256",
          "name": "py",
          "type": "uint256"
        },
        {
          "indexed": false,
          "internalType": "uint256",
          "name": "radius",
          "type": "uint256"
        },
        {
          "indexed": false,
          "internalType": "bytes32",
          "name": "seed",
          "type": "bytes32"
        }
      ],
      "name": "bodyAdded",
      "type": "event"
    },
    {
      "anonymous": false,
      "inputs": [
        {
          "indexed": false,
          "internalType": "uint256",
          "name": "problemId",
          "type": "uint256"
        },
        {
          "indexed": false,
          "internalType": "uint256",
          "name": "tick",
          "type": "uint256"
        },
        {
          "indexed": false,
          "internalType": "uint256",
          "name": "bodyId",
          "type": "uint256"
        },
        {
          "indexed": false,
          "internalType": "bytes32",
          "name": "seed",
          "type": "bytes32"
        }
      ],
      "name": "bodyRemoved",
      "type": "event"
    },
    {
      "anonymous": false,
      "inputs": [
        {
          "indexed": false,
          "internalType": "uint256",
          "name": "problemId",
          "type": "uint256"
        },
        {
          "indexed": false,
          "internalType": "uint256",
          "name": "day",
          "type": "uint256"
        },
        {
          "indexed": false,
          "internalType": "bytes32",
          "name": "seed",
          "type": "bytes32"
        }
      ],
      "name": "problemCreated",
      "type": "event"
    },
    {
      "inputs": [],
      "name": "MAX_BODY_COUNT",
      "outputs": [
        {
          "internalType": "uint256",
          "name": "",
          "type": "uint256"
        }
      ],
      "stateMutability": "view",
      "type": "function"
    },
    {
      "inputs": [],
      "name": "SECONDS_IN_A_DAY",
      "outputs": [
        {
          "internalType": "uint256",
          "name": "",
          "type": "uint256"
        }
      ],
      "stateMutability": "view",
      "type": "function"
    },
    {
      "inputs": [
        {
          "internalType": "address",
          "name": "recipient",
          "type": "address"
        }
      ],
      "name": "adminMint",
      "outputs": [],
      "stateMutability": "nonpayable",
      "type": "function"
    },
    {
      "inputs": [
        {
          "internalType": "address",
          "name": "to",
          "type": "address"
        },
        {
          "internalType": "uint256",
          "name": "tokenId",
          "type": "uint256"
        }
      ],
      "name": "approve",
      "outputs": [],
      "stateMutability": "nonpayable",
      "type": "function"
    },
    {
      "inputs": [
        {
          "internalType": "address",
          "name": "owner",
          "type": "address"
        }
      ],
      "name": "balanceOf",
      "outputs": [
        {
          "internalType": "uint256",
          "name": "",
          "type": "uint256"
        }
      ],
      "stateMutability": "view",
      "type": "function"
    },
    {
      "inputs": [],
      "name": "bodies",
      "outputs": [
        {
          "internalType": "address",
          "name": "",
          "type": "address"
        }
      ],
      "stateMutability": "view",
      "type": "function"
    },
    {
      "inputs": [],
      "name": "currentDay",
      "outputs": [
        {
          "internalType": "uint256",
          "name": "",
          "type": "uint256"
        }
      ],
      "stateMutability": "view",
      "type": "function"
    },
    {
      "inputs": [
        {
          "internalType": "bytes32",
          "name": "seed",
          "type": "bytes32"
        },
        {
          "internalType": "uint256",
          "name": "index",
          "type": "uint256"
        }
      ],
      "name": "genRadius",
      "outputs": [
        {
          "internalType": "uint256",
          "name": "",
          "type": "uint256"
        }
      ],
      "stateMutability": "pure",
      "type": "function"
    },
    {
      "inputs": [
        {
          "internalType": "uint256",
          "name": "tokenId",
          "type": "uint256"
        }
      ],
      "name": "getApproved",
      "outputs": [
        {
          "internalType": "address",
          "name": "",
          "type": "address"
        }
      ],
      "stateMutability": "view",
      "type": "function"
    },
    {
      "inputs": [
        {
          "internalType": "uint256",
          "name": "day",
          "type": "uint256"
        },
        {
          "internalType": "uint256",
          "name": "mintedBodiesIndex",
          "type": "uint256"
        },
        {
          "internalType": "uint256",
          "name": "bodyIndex",
          "type": "uint256"
        }
      ],
      "name": "getLevelSeed",
      "outputs": [
        {
          "internalType": "bytes32",
          "name": "",
          "type": "bytes32"
        }
      ],
      "stateMutability": "pure",
      "type": "function"
    },
    {
      "inputs": [
        {
          "internalType": "uint256",
          "name": "problemId",
          "type": "uint256"
        },
        {
          "internalType": "uint256",
          "name": "bodyId",
          "type": "uint256"
        }
      ],
      "name": "getProblemBodyData",
      "outputs": [
        {
          "components": [
            {
              "internalType": "uint256",
              "name": "bodyId",
              "type": "uint256"
            },
            {
              "internalType": "uint256",
              "name": "mintedBodyIndex",
              "type": "uint256"
            },
            {
              "internalType": "uint256",
              "name": "bodyIndex",
              "type": "uint256"
            },
            {
              "internalType": "uint256",
              "name": "px",
              "type": "uint256"
            },
            {
              "internalType": "uint256",
              "name": "py",
              "type": "uint256"
            },
            {
              "internalType": "uint256",
              "name": "vx",
              "type": "uint256"
            },
            {
              "internalType": "uint256",
              "name": "vy",
              "type": "uint256"
            },
            {
              "internalType": "uint256",
              "name": "radius",
              "type": "uint256"
            },
            {
              "internalType": "bytes32",
              "name": "seed",
              "type": "bytes32"
            }
          ],
          "internalType": "struct Problems.Body",
          "name": "",
          "type": "tuple"
        }
      ],
      "stateMutability": "view",
      "type": "function"
    },
    {
      "inputs": [
        {
          "internalType": "uint256",
          "name": "problemId",
          "type": "uint256"
        }
      ],
      "name": "getProblemBodyIds",
      "outputs": [
        {
          "internalType": "uint256[10]",
          "name": "",
          "type": "uint256[10]"
        }
      ],
      "stateMutability": "view",
      "type": "function"
    },
    {
      "inputs": [
        {
          "internalType": "uint256",
          "name": "day",
          "type": "uint256"
        },
        {
          "internalType": "uint256",
          "name": "bodyCount",
          "type": "uint256"
        }
      ],
      "name": "getProblemDataByDay",
      "outputs": [
        {
          "components": [
            {
              "internalType": "uint256",
              "name": "bodyId",
              "type": "uint256"
            },
            {
              "internalType": "uint256",
              "name": "mintedBodyIndex",
              "type": "uint256"
            },
            {
              "internalType": "uint256",
              "name": "bodyIndex",
              "type": "uint256"
            },
            {
              "internalType": "uint256",
              "name": "px",
              "type": "uint256"
            },
            {
              "internalType": "uint256",
              "name": "py",
              "type": "uint256"
            },
            {
              "internalType": "uint256",
              "name": "vx",
              "type": "uint256"
            },
            {
              "internalType": "uint256",
              "name": "vy",
              "type": "uint256"
            },
            {
              "internalType": "uint256",
              "name": "radius",
              "type": "uint256"
            },
            {
              "internalType": "bytes32",
              "name": "seed",
              "type": "bytes32"
            }
          ],
          "internalType": "struct Problems.Body[10]",
          "name": "bodyData",
          "type": "tuple[10]"
        }
      ],
      "stateMutability": "pure",
      "type": "function"
    },
    {
      "inputs": [
        {
          "internalType": "uint256",
          "name": "problemId",
          "type": "uint256"
        }
      ],
      "name": "getProblemMintedBodiesIndex",
      "outputs": [
        {
          "internalType": "uint256",
          "name": "",
          "type": "uint256"
        }
      ],
      "stateMutability": "view",
      "type": "function"
    },
    {
      "inputs": [
        {
          "internalType": "uint256",
          "name": "problemId",
          "type": "uint256"
        }
      ],
      "name": "getProblemTimes",
      "outputs": [
        {
          "internalType": "uint256[10]",
          "name": "",
          "type": "uint256[10]"
        }
      ],
      "stateMutability": "view",
      "type": "function"
    },
    {
      "inputs": [
        {
          "internalType": "bytes32",
          "name": "rand",
          "type": "bytes32"
        },
        {
          "internalType": "bytes32",
          "name": "bodyIndexRand",
          "type": "bytes32"
        },
        {
          "internalType": "uint256",
          "name": "index",
          "type": "uint256"
        }
      ],
      "name": "getRandomValues",
      "outputs": [
        {
          "components": [
            {
              "internalType": "uint256",
              "name": "bodyId",
              "type": "uint256"
            },
            {
              "internalType": "uint256",
              "name": "mintedBodyIndex",
              "type": "uint256"
            },
            {
              "internalType": "uint256",
              "name": "bodyIndex",
              "type": "uint256"
            },
            {
              "internalType": "uint256",
              "name": "px",
              "type": "uint256"
            },
            {
              "internalType": "uint256",
              "name": "py",
              "type": "uint256"
            },
            {
              "internalType": "uint256",
              "name": "vx",
              "type": "uint256"
            },
            {
              "internalType": "uint256",
              "name": "vy",
              "type": "uint256"
            },
            {
              "internalType": "uint256",
              "name": "radius",
              "type": "uint256"
            },
            {
              "internalType": "bytes32",
              "name": "seed",
              "type": "bytes32"
            }
          ],
          "internalType": "struct Problems.Body",
          "name": "",
          "type": "tuple"
        }
      ],
      "stateMutability": "pure",
      "type": "function"
    },
    {
      "inputs": [
        {
          "internalType": "address",
          "name": "owner",
          "type": "address"
        },
        {
          "internalType": "address",
          "name": "operator",
          "type": "address"
        }
      ],
      "name": "isApprovedForAll",
      "outputs": [
        {
          "internalType": "bool",
          "name": "",
          "type": "bool"
        }
      ],
      "stateMutability": "view",
      "type": "function"
    },
    {
      "inputs": [
        {
          "internalType": "uint256",
          "name": "problemId",
          "type": "uint256"
        },
        {
          "internalType": "uint256",
          "name": "time",
          "type": "uint256"
        }
      ],
      "name": "levelUp",
      "outputs": [],
      "stateMutability": "nonpayable",
      "type": "function"
    },
    {
      "inputs": [],
      "name": "maxVector",
      "outputs": [
        {
          "internalType": "uint256",
          "name": "",
          "type": "uint256"
        }
      ],
      "stateMutability": "view",
      "type": "function"
    },
    {
      "inputs": [],
      "name": "maxVectorScaled",
      "outputs": [
        {
          "internalType": "uint256",
          "name": "",
          "type": "uint256"
        }
      ],
      "stateMutability": "view",
      "type": "function"
    },
    {
      "inputs": [],
      "name": "mint",
      "outputs": [],
      "stateMutability": "payable",
      "type": "function"
    },
    {
      "inputs": [
        {
          "internalType": "address",
          "name": "recipient",
          "type": "address"
        },
        {
          "internalType": "uint256",
          "name": "quantity",
          "type": "uint256"
        }
      ],
      "name": "mint",
      "outputs": [],
      "stateMutability": "payable",
      "type": "function"
    },
    {
      "inputs": [
        {
          "internalType": "address",
          "name": "recipient",
          "type": "address"
        }
      ],
      "name": "mint",
      "outputs": [],
      "stateMutability": "payable",
      "type": "function"
    },
    {
      "inputs": [],
      "name": "name",
      "outputs": [
        {
          "internalType": "string",
          "name": "",
          "type": "string"
        }
      ],
      "stateMutability": "view",
      "type": "function"
    },
    {
      "inputs": [],
      "name": "owner",
      "outputs": [
        {
          "internalType": "address",
          "name": "",
          "type": "address"
        }
      ],
      "stateMutability": "view",
      "type": "function"
    },
    {
      "inputs": [
        {
          "internalType": "uint256",
          "name": "tokenId",
          "type": "uint256"
        }
      ],
      "name": "ownerOf",
      "outputs": [
        {
          "internalType": "address",
          "name": "",
          "type": "address"
        }
      ],
      "stateMutability": "view",
      "type": "function"
    },
    {
      "inputs": [],
      "name": "paused",
      "outputs": [
        {
          "internalType": "bool",
          "name": "",
          "type": "bool"
        }
      ],
      "stateMutability": "view",
      "type": "function"
    },
    {
      "inputs": [],
      "name": "price",
      "outputs": [
        {
          "internalType": "uint256",
          "name": "",
          "type": "uint256"
        }
      ],
      "stateMutability": "view",
      "type": "function"
    },
    {
      "inputs": [],
      "name": "problemMetadata",
      "outputs": [
        {
          "internalType": "address",
          "name": "",
          "type": "address"
        }
      ],
      "stateMutability": "view",
      "type": "function"
    },
    {
      "inputs": [],
      "name": "problemSupply",
      "outputs": [
        {
          "internalType": "uint256",
          "name": "",
          "type": "uint256"
        }
      ],
      "stateMutability": "view",
      "type": "function"
    },
    {
      "inputs": [
        {
          "internalType": "uint256",
          "name": "",
          "type": "uint256"
        }
      ],
      "name": "problems",
      "outputs": [
        {
          "internalType": "bool",
          "name": "solved",
          "type": "bool"
        },
        {
          "internalType": "bytes32",
          "name": "seed",
          "type": "bytes32"
        },
        {
          "internalType": "uint256",
          "name": "day",
          "type": "uint256"
        },
        {
          "internalType": "uint256",
          "name": "bodyCount",
          "type": "uint256"
        },
        {
          "internalType": "uint256",
          "name": "mintedBodiesIndex",
          "type": "uint256"
        },
        {
          "internalType": "uint256",
          "name": "tickCount",
          "type": "uint256"
        }
      ],
      "stateMutability": "view",
      "type": "function"
    },
    {
      "inputs": [],
      "name": "proceedRecipient",
      "outputs": [
        {
          "internalType": "address",
          "name": "",
          "type": "address"
        }
      ],
      "stateMutability": "view",
      "type": "function"
    },
    {
      "inputs": [
        {
          "internalType": "address payable",
          "name": "_to",
          "type": "address"
        }
      ],
      "name": "recoverUnsuccessfulMintPayment",
      "outputs": [],
      "stateMutability": "nonpayable",
      "type": "function"
    },
    {
      "inputs": [],
      "name": "renounceOwnership",
      "outputs": [],
      "stateMutability": "nonpayable",
      "type": "function"
    },
    {
      "inputs": [
        {
          "internalType": "uint256",
          "name": "problemId",
          "type": "uint256"
        }
      ],
      "name": "restoreValues",
      "outputs": [],
      "stateMutability": "nonpayable",
      "type": "function"
    },
    {
      "inputs": [
        {
          "internalType": "address",
          "name": "from",
          "type": "address"
        },
        {
          "internalType": "address",
          "name": "to",
          "type": "address"
        },
        {
          "internalType": "uint256",
          "name": "tokenId",
          "type": "uint256"
        }
      ],
      "name": "safeTransferFrom",
      "outputs": [],
      "stateMutability": "nonpayable",
      "type": "function"
    },
    {
      "inputs": [
        {
          "internalType": "address",
          "name": "from",
          "type": "address"
        },
        {
          "internalType": "address",
          "name": "to",
          "type": "address"
        },
        {
          "internalType": "uint256",
          "name": "tokenId",
          "type": "uint256"
        },
        {
          "internalType": "bytes",
          "name": "data",
          "type": "bytes"
        }
      ],
      "name": "safeTransferFrom",
      "outputs": [],
      "stateMutability": "nonpayable",
      "type": "function"
    },
    {
      "inputs": [],
      "name": "scalingFactor",
      "outputs": [
        {
          "internalType": "uint256",
          "name": "",
          "type": "uint256"
        }
      ],
      "stateMutability": "view",
      "type": "function"
    },
    {
      "inputs": [
        {
          "internalType": "address",
          "name": "operator",
          "type": "address"
        },
        {
          "internalType": "bool",
          "name": "approved",
          "type": "bool"
        }
      ],
      "name": "setApprovalForAll",
      "outputs": [],
      "stateMutability": "nonpayable",
      "type": "function"
    },
    {
      "inputs": [],
      "name": "solver",
      "outputs": [
        {
          "internalType": "address",
          "name": "",
          "type": "address"
        }
      ],
      "stateMutability": "view",
      "type": "function"
    },
    {
      "inputs": [],
      "name": "speedFactor",
      "outputs": [
        {
          "internalType": "uint256",
          "name": "",
          "type": "uint256"
        }
      ],
      "stateMutability": "view",
      "type": "function"
    },
    {
      "inputs": [],
      "name": "startDate",
      "outputs": [
        {
          "internalType": "uint256",
          "name": "",
          "type": "uint256"
        }
      ],
      "stateMutability": "view",
      "type": "function"
    },
    {
      "inputs": [],
      "name": "startingRadius",
      "outputs": [
        {
          "internalType": "uint256",
          "name": "",
          "type": "uint256"
        }
      ],
      "stateMutability": "view",
      "type": "function"
    },
    {
      "inputs": [
        {
          "internalType": "bytes4",
          "name": "interfaceId",
          "type": "bytes4"
        }
      ],
      "name": "supportsInterface",
      "outputs": [
        {
          "internalType": "bool",
          "name": "",
          "type": "bool"
        }
      ],
      "stateMutability": "view",
      "type": "function"
    },
    {
      "inputs": [],
      "name": "symbol",
      "outputs": [
        {
          "internalType": "string",
          "name": "",
          "type": "string"
        }
      ],
      "stateMutability": "view",
      "type": "function"
    },
    {
      "inputs": [
        {
          "internalType": "uint256",
          "name": "id",
          "type": "uint256"
        }
      ],
      "name": "tokenURI",
      "outputs": [
        {
          "internalType": "string",
          "name": "",
          "type": "string"
        }
      ],
      "stateMutability": "view",
      "type": "function"
    },
    {
      "inputs": [
        {
          "internalType": "address",
          "name": "from",
          "type": "address"
        },
        {
          "internalType": "address",
          "name": "to",
          "type": "address"
        },
        {
          "internalType": "uint256",
          "name": "tokenId",
          "type": "uint256"
        }
      ],
      "name": "transferFrom",
      "outputs": [],
      "stateMutability": "nonpayable",
      "type": "function"
    },
    {
      "inputs": [
        {
          "internalType": "address",
          "name": "newOwner",
          "type": "address"
        }
      ],
      "name": "transferOwnership",
      "outputs": [],
      "stateMutability": "nonpayable",
      "type": "function"
    },
    {
      "inputs": [
        {
          "internalType": "address",
          "name": "bodies_",
          "type": "address"
        }
      ],
      "name": "updateBodiesAddress",
      "outputs": [],
      "stateMutability": "nonpayable",
      "type": "function"
    },
    {
      "inputs": [
        {
          "internalType": "bool",
          "name": "paused_",
          "type": "bool"
        }
      ],
      "name": "updatePaused",
      "outputs": [],
      "stateMutability": "nonpayable",
      "type": "function"
    },
    {
      "inputs": [
        {
          "internalType": "uint256",
          "name": "price_",
          "type": "uint256"
        }
      ],
      "name": "updatePrice",
      "outputs": [],
      "stateMutability": "nonpayable",
      "type": "function"
    },
    {
      "inputs": [
        {
          "internalType": "uint256",
          "name": "problemId",
          "type": "uint256"
        },
        {
          "internalType": "uint256",
          "name": "bodyId",
          "type": "uint256"
        },
        {
          "components": [
            {
              "internalType": "uint256",
              "name": "bodyId",
              "type": "uint256"
            },
            {
              "internalType": "uint256",
              "name": "mintedBodyIndex",
              "type": "uint256"
            },
            {
              "internalType": "uint256",
              "name": "bodyIndex",
              "type": "uint256"
            },
            {
              "internalType": "uint256",
              "name": "px",
              "type": "uint256"
            },
            {
              "internalType": "uint256",
              "name": "py",
              "type": "uint256"
            },
            {
              "internalType": "uint256",
              "name": "vx",
              "type": "uint256"
            },
            {
              "internalType": "uint256",
              "name": "vy",
              "type": "uint256"
            },
            {
              "internalType": "uint256",
              "name": "radius",
              "type": "uint256"
            },
            {
              "internalType": "bytes32",
              "name": "seed",
              "type": "bytes32"
            }
          ],
          "internalType": "struct Problems.Body",
          "name": "body",
          "type": "tuple"
        }
      ],
      "name": "updateProblemBody",
      "outputs": [],
      "stateMutability": "nonpayable",
      "type": "function"
    },
    {
      "inputs": [
        {
          "internalType": "uint256",
          "name": "problemId",
          "type": "uint256"
        },
        {
          "internalType": "uint256",
          "name": "bodyCount",
          "type": "uint256"
        }
      ],
      "name": "updateProblemBodyCount",
      "outputs": [],
      "stateMutability": "nonpayable",
      "type": "function"
    },
    {
      "inputs": [
        {
          "internalType": "uint256",
          "name": "problemId",
          "type": "uint256"
        },
        {
          "internalType": "uint256[10]",
          "name": "bodyIds",
          "type": "uint256[10]"
        }
      ],
      "name": "updateProblemBodyIds",
      "outputs": [],
      "stateMutability": "nonpayable",
      "type": "function"
    },
    {
      "inputs": [
        {
          "internalType": "address",
          "name": "problemMetadata_",
          "type": "address"
        }
      ],
      "name": "updateProblemMetadataAddress",
      "outputs": [],
      "stateMutability": "nonpayable",
      "type": "function"
    },
    {
      "inputs": [
        {
          "internalType": "uint256",
          "name": "problemId",
          "type": "uint256"
        },
        {
          "internalType": "uint256",
          "name": "tickCount",
          "type": "uint256"
        }
      ],
      "name": "updateProblemTickCount",
      "outputs": [],
      "stateMutability": "nonpayable",
      "type": "function"
    },
    {
      "inputs": [
        {
          "internalType": "address",
          "name": "proceedRecipient_",
          "type": "address"
        }
      ],
      "name": "updateProceedRecipientAddress",
      "outputs": [],
      "stateMutability": "nonpayable",
      "type": "function"
    },
    {
      "inputs": [
        {
          "internalType": "address",
          "name": "solver_",
          "type": "address"
        }
      ],
      "name": "updateSolverAddress",
      "outputs": [],
      "stateMutability": "nonpayable",
      "type": "function"
    },
    {
      "inputs": [
        {
          "internalType": "uint256",
          "name": "startDate_",
          "type": "uint256"
        }
      ],
      "name": "updateStartDate",
      "outputs": [],
      "stateMutability": "nonpayable",
      "type": "function"
    },
    {
      "inputs": [
        {
          "internalType": "address",
          "name": "verifier_",
          "type": "address"
        },
        {
          "internalType": "uint256",
          "name": "verifierBodies",
          "type": "uint256"
        },
        {
          "internalType": "uint256",
          "name": "verifierTicks",
          "type": "uint256"
        }
      ],
      "name": "updateVerifier",
      "outputs": [],
      "stateMutability": "nonpayable",
      "type": "function"
    },
    {
      "inputs": [
        {
          "internalType": "uint256",
          "name": "",
          "type": "uint256"
        },
        {
          "internalType": "uint256",
          "name": "",
          "type": "uint256"
        }
      ],
      "name": "verifiers",
      "outputs": [
        {
          "internalType": "address",
          "name": "",
          "type": "address"
        }
      ],
      "stateMutability": "view",
      "type": "function"
    },
    {
      "inputs": [],
      "name": "windowWidth",
      "outputs": [
        {
          "internalType": "uint256",
          "name": "",
          "type": "uint256"
        }
      ],
      "stateMutability": "view",
      "type": "function"
    },
    {
      "stateMutability": "payable",
      "type": "receive"
    }
  ],
  "bytecode": "0x6040608081523462000550576200342e90813803806200001f8162000590565b938439820160808382031262000550576200003a83620005b6565b92602091828201519260018060401b03938481116200055057830191601f9381858501121562000550578351936200007c6200007686620005cb565b62000590565b94848087838152019160051b83010191848311620005505785809101915b83831062000555575050505086810151868111620005505782620000c0918301620005e3565b9160608201518781116200055057620000da9201620005e3565b91620000e562000570565b95600f908188526e416e79626f64792050726f626c656d60881b838901526200010d62000570565b966003885262414e5960e81b848901528851978289116200053a5760009889549a60019b8c81811c911680156200052f575b888210146200051b57908185849311620004c8575b5087908583116001146200045b578c926200044f575b5050600019600383901b1c1916908b1b1789555b80519283116200043b5789548a81811c9116801562000430575b868210146200041c5790818385949311620003c7575b50859183116001146200036357899262000357575b5050600019600383901b1c191690881b1787555b6006549860018060a01b03199533878c161760065589519a60018060a01b039283918d7f8be0079c531659141344cd1fd0a4f28419497f9722a3daafe3b4186f6b6457e08c8533941692a389600755662386f26fc10000600d55169a8b15620003155750889a3388600c541617600c5587600b541617600b55879a5b62000268575b8951612d829081620006ac8239f35b80518b10156200030f576200028b620002828c8762000640565b5115156200066b565b620002a6826200029c8d8462000640565b511615156200066b565b81620002b38c8362000640565b5116620002c18c8862000640565b5189528385528a8920620002d68d8862000640565b518a5285528a892090888254161790556000198b14620002fb57998801998862000253565b634e487b7160e01b88526011600452602488fd5b62000259565b62461bcd60e51b815260048101859052601760248201527f496e76616c69642070726f626c656d4d657461646174610000000000000000006044820152606490fd5b015190503880620001c3565b8a8a52858a208b94509190601f1984168b5b88828210620003b0575050841162000396575b505050811b018755620001d7565b015160001960f88460031b161c1916905538808062000388565b8385015186558e9790950194938401930162000375565b909192508a8a52858a208380860160051c82019288871062000412575b9186958e929594930160051c01915b82811062000403575050620001ae565b8c81558695508d9101620003f3565b92508192620003e4565b634e487b7160e01b8a52602260045260248afd5b90607f169062000198565b634e487b7160e01b89526041600452602489fd5b0151905038806200016a565b8c8052888d208e94509190601f1984168e5b8b828210620004a857505084116200048e575b505050811b0189556200017e565b015160001960f88460031b161c1916905538808062000480565b91929395968291958786015181550195019301908f95949392916200046d565b9091508b8052878c208580850160051c8201928a861062000511575b918f91869594930160051c01915b8281106200050257505062000154565b8e81558594508f9101620004f2565b92508192620004e4565b634e487b7160e01b8c52602260045260248cfd5b90607f16906200013f565b634e487b7160e01b600052604160045260246000fd5b600080fd5b81906200056284620005b6565b81520191019085906200009a565b60408051919082016001600160401b038111838210176200053a57604052565b6040519190601f01601f191682016001600160401b038111838210176200053a57604052565b51906001600160a01b03821682036200055057565b6001600160401b0381116200053a5760051b60200190565b9080601f830112156200055057815190620006026200007683620005cb565b9182938184526020808095019260051b82010192831162000550578301905b82821062000630575050505090565b8151815290830190830162000621565b8051821015620006555760209160051b010190565b634e487b7160e01b600052603260045260246000fd5b156200067357565b60405162461bcd60e51b815260206004820152601060248201526f24b73b30b634b2103b32b934b334b2b960811b6044820152606490fdfe60406080815260049081361015610028575b5050361561001e57600080fd5b6100266124ab565b005b60009160e0908335821c918263010fdfd514611c8757826301ffc9a714611c1857826304b24e8514611be057826305ee7fa014611b9e57826306fdde0314611ad2578263081812fc14611ab157826308cdc2a814611a6a578263095ea7b3146118fa5782630b27ce3f146118d05782630b97bc86146118b05782631249c58b1461189a57826318d947931461187757826320a286d01461185757826323b872dd1461182b5782632b057afa146117d2578263306da04f146117a857826334e5e4921461177e578263355f74071461129e5782633ef2570b1461175557826340847284146116ee57826340c10f191461154157826342842e0e146114f157826343569ffb146114b957826349a7a26d1461148f5782634b9862d9146114725782634b9a48a81461143c5782635120a2611461141e5782635226dc93146112b257826353e52f091461129e5782635c9302c9146112795782635c975abb146112515782636282eff51461120f5782636352211e146111dd5782636a6278421461106c5782636cd9e29e14610f2057826370a0823114610e8a578263715018a614610e295782637696d9ff14610de7578263872d7e4814610daf5782638d6cc56d14610d8c5782638da5cb5b14610d62578263934317b114610d3857826395d89b4114610c2157826396c03fa514610b1d5782639769dc0e14610aab578263a035b1fe14610a8b578263a22cb465146109be578263b88d4fde14610931578263b973743714610914578263c09fd8ef1461089f578263c31f5d6a146107fe578263c87b56dd1461070e578263da60598a146106e3578263dbfbb02e1461066b578263de4318fc146105cb578263e985e9c51461057c578263e9d903b11461046657508163eba4f36614610403578163ed3437f8146103e6578163f2fde38b1461031b57508063f81c8ec3146102fe5763f9cfa06f0361001157346102fa57816003193601126102fa5760209051620151808152f35b5080fd5b50346102fa57816003193601126102fa5760209051620f42408152f35b9050346103e25760203660031901126103e257610336611cc9565b61033e611f07565b6001600160a01b03908116918215610390575060065492826001600160601b0360a01b8516176006555192167f8be0079c531659141344cd1fd0a4f28419497f9722a3daafe3b4186f6b6457e08484a3f35b608490602085519162461bcd60e51b8352820152602660248201527f4f776e61626c653a206e6577206f776e657220697320746865207a65726f206160448201526564647265737360d01b6064820152fd5b8280fd5b5050346102fa57816003193601126102fa57602090516103e88152f35b919050346103e25760203660031901126103e2578060c09383358152600e6020522060ff81541692600182015492600283015490601a600385015493850154940154948151961515875260208701528501526060840152608083015260a0820152f35b9150346105785761016036600319011261057857610120918260431936011261057457835192830183811067ffffffffffffffff8211176105615791859160089386526044358552602085019160643583528686019060843582526060870160a4358152608088019060c435825260a089019360e435855260c08a01956101043587528a019661012435885260058c6101008d019a610144358c5261051660018060a01b03600a54163314612ce9565b87358152600e60205220018d60243590526020528b8d209a518b555160018b01555160028a015551600389015551908701555160058601555160068501555160078401555191015551f35b634e487b7160e01b865260418352602486fd5b8480fd5b8380fd5b505050346102fa57806003193601126102fa5760ff8160209361059d611cc9565b6105a5611ce4565b6001600160a01b0391821683526005875283832091168252855220549151911615158152f35b509050346103e2576101603660031901126103e25736604312156103e25781516105f481611e74565b61016481368211610667576024905b82821061065757505050600a9161062460018060a01b038454163314612ce9565b3584526020600e815260068486200185925b84841061064257868651f35b60018382829351855501920193019290610636565b8135815260209182019101610603565b8580fd5b838286346106e057602091826003193601126102fa57610140845161068f81611e74565b369037358152600e8252601083822001835192839192915b600a83106106cb576106c785876106bd82611e74565b5191829182611dbc565b0390f35b600182819286548152019401920191926106a7565b80fd5b508284346106e057816003193601126106e057506107076020926024359035612ba6565b9051908152f35b848285346103e2576020918260031936011261057857600b5482516351a35b5560e01b81528235928101929092528490829060249082906001600160a01b03165afa9384156107f3578094610773575b50506106c79051928284938452830190611d45565b909193503d8082843e6107868184611ec9565b82019183818403126102fa5780519067ffffffffffffffff82116103e2570182601f820112156102fa578051916107bc83611eeb565b936107c987519586611ec9565b8385528584840101116106e0575082916107eb9185806106c796019101611d10565b92908461075e565b8251903d90823e3d90fd5b90929150346105785790600861089d92826101209661081c36611cfa565b9061082561240f565b508252600e602052600583832001908252602052209083519561084787611e41565b8254875260018301546020880152600283015485880152600383015460608801528201546080870152600582015460a0870152600682015460c08701526007820154908601520154610100840152518092611deb565bf35b509050346103e25760203660031901126103e257356001600160a01b038116908190036103e2576108ce611f07565b4790600080516020612d2d833981519152610905858080875187875af16108f36122e7565b90865192839288845288840190611d45565b9560208301521515940390a351f35b505050346102fa57816003193601126102fa576020905160088152f35b509050346103e25760803660031901126103e25761094d611cc9565b90610956611ce4565b916064359167ffffffffffffffff8311610667573660238401121561066757820135928561098385611eeb565b9361099087519586611ec9565b85855236602487830101116102fa57856109bb96602460209301838801378501015260443591612071565b51f35b509050346103e257816003193601126103e2576109d9611cc9565b60243590811515809203610574576001600160a01b031691338314610a485750338452600560205282842082855260205282842060ff1981541660ff831617905582519081527f17307eab39ab6107e8899845ad3d59bd9653f200f220920489ca2b5937696c3160203392a351f35b606490602085519162461bcd60e51b8352820152601960248201527f4552433732313a20617070726f766520746f2063616c6c6572000000000000006044820152fd5b505050346102fa57816003193601126102fa57602090600d549051908152f35b505050346102fa5760203660031901126102fa576109bb610aca611cc9565b600a54610b10906001600160a01b0390610ae790821615156125ed565b610af6816009541615156125ed565b610b0581600b541615156125ed565b600c541615156125ed565b610b18611f07565b612660565b848285346103e2578290610b3036611cfa565b82519491610b3d86611e74565b845b6101408110610c065750845b828110610b8a57505050505191829091905b600a8210610b6b57610b4084f35b602061012082610b7e6001948751611deb565b01930191019091610b5d565b60018397969710610bf357610beb90610bd081610bac81600019880187612b4d565b88516020810190878252838b8201528a8152610bc781611e91565b51902090612c2a565b610bda8289612484565b52610be58188612484565b50612454565b959495610b4b565b634e487b7160e01b875260118452602487fd5b602090610c1497969761240f565b8188015201959495610b3f565b508284346106e057806003193601126106e0578151918160019283549384811c91818616958615610d2e575b6020968785108114610d1b578899509688969785829a529182600014610cf4575050600114610c99575b5050506106c79291610c8a910385611ec9565b51928284938452830190611d45565b91908693508083527fb10e2d527612073b26eecdfd717e6a320cf44b4afac2b0732d9fcbe2b7fa0cf65b828410610cdc5750505082010181610c8a6106c7610c77565b8054848a018601528895508794909301928101610cc3565b60ff19168782015293151560051b86019093019350849250610c8a91506106c79050610c77565b634e487b7160e01b835260228a52602483fd5b92607f1692610c4d565b505050346102fa57816003193601126102fa57600b5490516001600160a01b039091168152602090f35b505050346102fa57816003193601126102fa5760065490516001600160a01b039091168152602090f35b509050346103e25760203660031901126103e257610da8611f07565b35600d5551f35b505050346102fa57610dc036611cfa565b90610dd660018060a01b03600a54163314612ce9565b8352600e6020526003828420015551f35b505050346102fa5760203660031901126102fa57610e03611cc9565b610e0b611f07565b60018060a01b03166001600160601b0360a01b600a541617600a5551f35b505050346102fa57816003193601126102fa57610e44611f07565b600680546001600160a01b0319811690915590519082906001600160a01b03167f8be0079c531659141344cd1fd0a4f28419497f9722a3daafe3b4186f6b6457e08284a3f35b838583346102fa5760203660031901126102fa576001600160a01b03610eae611cc9565b16908115610ecb5760208480858581526003845220549051908152f35b608490602085519162461bcd60e51b8352820152602960248201527f4552433732313a2061646472657373207a65726f206973206e6f7420612076616044820152683634b21037bbb732b960b91b6064820152fd5b915034610578576020908160031936011261057457803591610f4d60018060a01b03600a54163314612ce9565b828652600e80825260039081878920015495885b878110610f6d57898951f35b61106790878b528386528a86868c868b8d60068b610f8f8a83888c2001612b87565b905490881b1c97838a52818152610fdd8b8b60028a610fba848383862001548c848720015490612b4d565b928981528787522001548a51858101918252838c8201528b8152610bc781611e91565b946060860151858c528383526005998c8c8c8c83200191528452898d200155608086015190858c5283835289898d20018b8d528352888c20015560a0850151848b5282825288888c20018a8c52825288888c20015560c0850151938a52528d86868a200190888a525284882001550151938c8152888b522001908d52875260078b8d200155612454565b610f61565b50905060203660031901126103e257611083611cc9565b600a5490916001600160a01b0391821615159061109f826125ed565b6110e483600954161515926110b3846125ed565b6110df85600b541615156110c6816125ed565b6110df87600c5416966110df881515956110df876125ed565b6125ed565b6110f660ff60065460a01c161561262b565b60075442106111ac57600d54340361117957508480809286519034905af190600080516020612d2d83398151915261114661112f6122e7565b92600c541692865191829188835288830190611d45565b943460208301521515940390a3825b6001811061116257505051f35b6111749061116f83612660565b612454565b611155565b606490602086519162461bcd60e51b8352820152600d60248201526c496e76616c696420707269636560981b6044820152fd5b606490602086519162461bcd60e51b8352820152600b60248201526a139bdd081cdd185c9d195960aa1b6044820152fd5b508284346106e05760203660031901126106e057506111fe60209235611fab565b90516001600160a01b039091168152f35b505050346102fa5760203660031901126102fa5761122b611cc9565b611233611f07565b60018060a01b03166001600160601b0360a01b600c541617600c5551f35b505050346102fa57816003193601126102fa5760209060ff60065460a01c1690519015158152f35b505050346102fa57816003193601126102fa5760209061070762015180420642612479565b50505050506112ab611d9f565b3880610011565b509050346103e257816112c436611cfa565b600a546001600160a01b0391906112de9083163314612ce9565b828752600e602081815261131f6003936113048b6010878b832001549a8b922001612b87565b90919082549060031b600019811b9283911b16911916179055565b600895860361140e57848952818152878920805460ff19166001179055885b86811061135057505050505050505051f35b858a528282526113658160068b8d2001612b87565b905490851b1c8a86600954169161137b89611fab565b92803b156103e2578c51637fd9d57b60e01b81526001600160a01b03909416848d019081526020810192909252604082018a9052839182908490829060600103925af18015611404576113d8575b506113d390612454565b61133e565b67ffffffffffffffff81116113f15789526113d36113c9565b634e487b7160e01b8b526041895260248bfd5b8a513d8d823e3d90fd5b5050505090506109bb915061287d565b505050346102fa57816003193601126102fa5760209051614e208152f35b508284346106e05760603660031901126106e0575061089d61146961012093604435906024359035612c2a565b91518092611deb565b505050346102fa57816003193601126102fa576020905160148152f35b505050346102fa57816003193601126102fa57600a5490516001600160a01b039091168152602090f35b505050346102fa576020916114cd36611cfa565b908252600f845282822090825283528190205490516001600160a01b039091168152f35b508383346102fa5761150236611d6a565b908351926020840184811067ffffffffffffffff82111761152e57856109bb9697985052868452612071565b634e487b7160e01b875260418852602487fd5b509050816003193601126103e257611557611cc9565b600a54602435926001600160a01b039161157490831615156125ed565b611583826009541615156125ed565b61159282600b541615156125ed565b81600c5416906115a38215156125ed565b600585116116c3576115bd60ff60065460a01c161561262b565b600754421061169257600d54856000190481118615151661167f578502340361164c57508580809287519034905af190600080516020612d2d83398151915261161e6116076122e7565b92600c541692875191829189835289830190611d45565b943460208301521515940390a3835b82811061163a5750505051f35b6116479061116f83612660565b61162d565b606490602087519162461bcd60e51b8352820152600d60248201526c496e76616c696420707269636560981b6044820152fd5b634e487b7160e01b885260118252602488fd5b606490602087519162461bcd60e51b8352820152600b60248201526a139bdd081cdd185c9d195960aa1b6044820152fd5b606490602087519162461bcd60e51b835282015260056024820152644d6178203560d81b6044820152fd5b838286346106e057602091826003193601126102fa57610140845161171281611e74565b369037358152600e8252600683822001835192839192915b600a8310611740576106c785876106bd82611e74565b6001828192865481520194019201919261172a565b508284346106e05760603660031901126106e05750610707602092604435906024359035612b4d565b509050346103e25760203660031901126103e2578160209382358152600e85522001549051908152f35b505050346102fa57816003193601126102fa5760095490516001600160a01b039091168152602090f35b505050346102fa5760603660031901126102fa576117ee611cc9565b6117f6611f07565b6024358352600f60205281832060443584526020528183209060018060a01b03166001600160601b0360a01b82541617905551f35b505050346102fa576109bb61183f36611d6a565b9161185261184d843361210c565b61200f565b6121d4565b505050346102fa57816003193601126102fa576020906008549051908152f35b509050346103e25760203660031901126103e257611893611f07565b3560075551f35b505050816003193601126102fa576109bb6124ab565b505050346102fa57816003193601126102fa576020906007549051908152f35b505050346102fa57816003193601126102fa57600c5490516001600160a01b039091168152602090f35b509050346103e257816003193601126103e257611915611cc9565b602435916001600160a01b0390818061192d86611fab565b16931692808414611a1d578033149081156119fe575b50156119955783865260205283852080546001600160a01b0319168317905561196b83611fab565b169251927f8c5be1e5ebec7d5bd14f71427d1e84f3dd0314c0f7b2291e5b200ac8c7c3b9258585a4f35b608490602086519162461bcd60e51b8352820152603d60248201527f4552433732313a20617070726f76652063616c6c6572206973206e6f7420746f60448201527f6b656e206f776e6572206f7220617070726f76656420666f7220616c6c0000006064820152fd5b90508652600560205284862033875260205260ff858720541638611943565b855162461bcd60e51b8152602081840152602160248201527f4552433732313a20617070726f76616c20746f2063757272656e74206f776e656044820152603960f91b6064820152608490fd5b509050346103e25760203660031901126103e257358015158091036103e257611a91611f07565b6006805460ff60a01b191660a09290921b60ff60a01b1691909117905551f35b508284346106e05760203660031901126106e057506111fe60209235611fd1565b508284346106e057806003193601126106e05781519181825492600184811c91818616958615611b94575b6020968785108114610d1b578899509688969785829a529182600014610cf4575050600114611b39575050506106c79291610c8a910385611ec9565b91908693508280527f290decd9548b62a8d60345a988386fc84ba6bc95484008f6362f93160ef3e5635b828410611b7c5750505082010181610c8a6106c7610c77565b8054848a018601528895508794909301928101611b63565b92607f1692611afd565b505050346102fa5760203660031901126102fa57611bba611cc9565b611bc2611f07565b60018060a01b03166001600160601b0360a01b600b541617600b5551f35b505050346102fa57611bf136611cfa565b90611c0760018060a01b03600a54163314612ce9565b8352600e602052601a828420015551f35b509050346103e25760203660031901126103e257359063ffffffff60e01b82168092036103e257602092506380ac58cd60e01b8214918215611c76575b8215611c65575b50519015158152f35b6301ffc9a760e01b14915038611c5c565b635b5e139f60e01b81149250611c55565b505050346102fa5760203660031901126102fa57611ca3611cc9565b611cab611f07565b60018060a01b03166001600160601b0360a01b600954161760095551f35b600435906001600160a01b0382168203611cdf57565b600080fd5b602435906001600160a01b0382168203611cdf57565b6040906003190112611cdf576004359060243590565b918091926000905b828210611d30575011611d29575050565b6000910152565b91508060209183015181860152018291611d18565b90602091611d5e81518092818552858086019101611d10565b601f01601f1916010190565b6060906003190112611cdf576001600160a01b03906004358281168103611cdf57916024359081168103611cdf579060443590565b5034611cdf576000366003190112611cdf57602060405160028152f35b610140810192916000915b600a8310611dd457505050565b600190825181526020809101920192019190611dc7565b805182526020810151602083015260408101516040830152606081015160608301526080810151608083015260a081015160a083015260c081015160c083015260e081015160e083015261010080910151910152565b610120810190811067ffffffffffffffff821117611e5e57604052565b634e487b7160e01b600052604160045260246000fd5b610140810190811067ffffffffffffffff821117611e5e57604052565b6060810190811067ffffffffffffffff821117611e5e57604052565b6040810190811067ffffffffffffffff821117611e5e57604052565b90601f8019910116810190811067ffffffffffffffff821117611e5e57604052565b67ffffffffffffffff8111611e5e57601f01601f191660200190565b6006546001600160a01b03163303611f1b57565b606460405162461bcd60e51b815260206004820152602060248201527f4f776e61626c653a2063616c6c6572206973206e6f7420746865206f776e65726044820152fd5b15611f6657565b60405162461bcd60e51b815260206004820152601860248201527f4552433732313a20696e76616c696420746f6b656e20494400000000000000006044820152606490fd5b6000908152600260205260409020546001600160a01b0316611fce811515611f5f565b90565b600081815260026020526040902054611ff4906001600160a01b03161515611f5f565b6000908152600460205260409020546001600160a01b031690565b1561201657565b60405162461bcd60e51b815260206004820152602d60248201527f4552433732313a2063616c6c6572206973206e6f7420746f6b656e206f776e6560448201526c1c881bdc88185c1c1c9bdd9959609a1b6064820152608490fd5b9061209593929161208561184d843361210c565b6120908383836121d4565b612317565b1561209c57565b60405162461bcd60e51b8152806120b5600482016120b9565b0390fd5b60809060208152603260208201527f4552433732313a207472616e7366657220746f206e6f6e20455243373231526560408201527131b2b4bb32b91034b6b83632b6b2b73a32b960711b60608201520190565b906001600160a01b03808061212084611fab565b16931691838314938415612153575b50831561213d575b50505090565b61214991929350611fd1565b1614388080612137565b909350600052600560205260406000208260005260205260ff60406000205416923861212f565b1561218157565b60405162461bcd60e51b815260206004820152602560248201527f4552433732313a207472616e736665722066726f6d20696e636f72726563742060448201526437bbb732b960d91b6064820152608490fd5b906121fc916121e284611fab565b6001600160a01b039391841692849290918316841461217a565b1691821561229657816122199161221286611fab565b161461217a565b7fddf252ad1be2c89b69c2b068fc378daa952ba7f163c4a11628f55a4df523b3ef60008481526004602052604081206001600160601b0360a01b90818154169055838252600360205260408220600019815401905584825260408220600181540190558582526002602052846040832091825416179055604051a4565b60405162461bcd60e51b8152602060048201526024808201527f4552433732313a207472616e7366657220746f20746865207a65726f206164646044820152637265737360e01b6064820152608490fd5b3d15612312573d906122f882611eeb565b916123066040519384611ec9565b82523d6000602084013e565b606090565b91926000929190813b156124055760209161236d9185604051958680958194630a85bd0160e11b9b8c845233600485015260018060a01b0380951660248501526044840152608060648401526084830190611d45565b0393165af1908290826123bd575b50506123af576123896122e7565b805190816123aa5760405162461bcd60e51b8152806120b5600482016120b9565b602001fd5b6001600160e01b0319161490565b909192506020813d82116123fd575b816123d960209383611ec9565b810103126102fa5751906001600160e01b0319821682036106e0575090388061237b565b3d91506123cc565b5050505050600190565b6040519061241c82611e41565b816101006000918281528260208201528260408201528260608201528260808201528260a08201528260c08201528260e08201520152565b60001981146124635760010190565b634e487b7160e01b600052601160045260246000fd5b818110612463570390565b90600a8110156124955760051b0190565b634e487b7160e01b600052603260045260246000fd5b600a546001600160a01b03906124c490821615156125ed565b6124d3816009541615156125ed565b6124e281600b541615156125ed565b80600c54166124f28115156125ed565b61250460ff60065460a01c161561262b565b60075442106125ba57600d5434036125855760008080926040519034905af190600080516020612d2d83398151915261255861253e6122e7565b92600c541692604051918291604083526040830190611d45565b943460208301521515940390a360005b600181106125735750565b6125809061116f33612660565b612568565b60405162461bcd60e51b815260206004820152600d60248201526c496e76616c696420707269636560981b6044820152606490fd5b60405162461bcd60e51b815260206004820152600b60248201526a139bdd081cdd185c9d195960aa1b6044820152606490fd5b156125f457565b60405162461bcd60e51b815260206004820152600f60248201526e139bdd081a5b9a5d1a585b1a5e9959608a1b6044820152606490fd5b1561263257565b60405162461bcd60e51b815260206004820152600660248201526514185d5cd95960d21b6044820152606490fd5b90600861266d8154612454565b808255926001600160a01b031680156127ed576000848152600260205260409020546126a5906001600160a01b031615155b15612831565b6000848152600260205260409020546126c8906001600160a01b0316151561269f565b600093818552602090600382526040928387206001815401905581875260028352838720816001600160601b0360a01b825416179055867fddf252ad1be2c89b69c2b068fc378daa952ba7f163c4a11628f55a4df523b3ef818651a461273362015180420642612479565b83548652600e8252600283872001558254600143106127d957606083926127d796977f20fb1b7fbd9e0f1e0f3fe320cc812502c980b318bc3818cc985a75b70c279bc5936127d19651838101908282526000194301408882015287815261279981611e91565b519020908252600e835260018683200155865494858252600181600281852001549320015491815193878552840152820152a161287d565b5461287d565b565b634e487b7160e01b86526011600452602486fd5b606460405162461bcd60e51b815260206004820152602060248201527f4552433732313a206d696e7420746f20746865207a65726f20616464726573736044820152fd5b1561283857565b60405162461bcd60e51b815260206004820152601c60248201527f4552433732313a20746f6b656e20616c7265616479206d696e746564000000006044820152606490fd5b9061289060ff60065460a01c161561262b565b600091808352600e90602093828552600494604091868382200154906008821015612b0c578184866128c181611fab565b600954835163d395cb1360e01b81526001600160a01b039283168e82019081526020810194909452604084019790975286928390036060019183918791165af1948515612b01579082918a93948397612ac6575b508783528886528083206003015494818420600201548686848720015461293b92612b4d565b8985528a8852868386206002015484518a8101918252828682015285815261296281611e91565b51902061296e92612c2a565b936101009a828c8701988b8a528188528a88018781528d878a01908382528652848d528786206005018487528d52878620918a518355516001830155516002820155606089019889516003830155608081019a8b519083015560a0810151600583015560c0810151600683015560e0019a8b5160078301555190600801558c8452828b5285842060060190612a0291612b87565b612a1f929082549060031b600019811b9283911b16911916179055565b8a82528089528382206003018054612a3690612454565b90558a82528089528382208e0180546001198111612ab25760010190558a82528852829020601a01549351945195518251998a52968901528701526060860152608085015260a084015260c083015260e08201529192507f26c34af247e1ccf098f0cc4e380568ece925088468fc831769e1f757fa3ea02a91a1565b8f846011602492634e487b7160e01b835252fd5b945095509091508483813d8311612afa575b612ae28183611ec9565b810103126102fa579088918484519401519538612915565b503d612ad8565b51913d9150823e3d90fd5b606488848087519262461bcd60e51b845283015260248201527f50726f626c656d20616c7265616479206d696e74656420313020626f646965736044820152fd5b91604051916020830193845260408301526060820152606081526080810181811067ffffffffffffffff821117611e5e5760405251902090565b600a821015612495570190600090565b61271081198111612463570190565b60011680196001116124635760010160009115600014612bdc57505060245b6103e8908060001904821181151516612463570290565b806000190460051181151516612c1657600502906002198211612c025750600201612bc5565b634e487b7160e01b81526011600452602490fd5b634e487b7160e01b82526011600452602482fd5b612c49612ce19293612c3a61240f565b50612c4361240f565b94612ba6565b60e084015260405190602091828101918252828152612c6781611ead565b519020620f4240908181066060860152604051838101918252838152612c8c81611ead565b5190209081066080850152604051828101918252828152612cac81611ead565b519020614e2091612cbe838306612b97565b60a0860152604051908082019283528152612cd881611ead565b51902006612b97565b60c082015290565b15612cf057565b60405162461bcd60e51b815260206004820152601460248201527313db9b1e4814dbdb1d995c8818d85b8818d85b1b60621b6044820152606490fdfeb08889abce443443404b2caf69aa3ccfb9ebfdf1ad2a634d06e11e24c1067938a2646970667358221220390c05eb2e3ddf7487ddca773f7d12e3340788ce0547bd134bfc855ef721b8a364736f6c634300080f0033",
  "linkReferences": {},
  "deployedLinkReferences": {}
}