{
  "_format": "hh-sol-artifact-1",
  "contractName": "Solver",
  "sourceName": "contracts/Solver.sol",
  "abi": [
    {
      "inputs": [
        {
          "internalType": "address payable",
          "name": "problems_",
          "type": "address"
        }
      ],
      "stateMutability": "nonpayable",
      "type": "constructor"
    },
    {
      "anonymous": false,
      "inputs": [
        {
          "indexed": true,
          "internalType": "address",
          "name": "previousOwner",
          "type": "address"
        },
        {
          "indexed": true,
          "internalType": "address",
          "name": "newOwner",
          "type": "address"
        }
      ],
      "name": "OwnershipTransferred",
      "type": "event"
    },
    {
      "anonymous": false,
      "inputs": [
        {
          "indexed": true,
          "internalType": "address",
          "name": "solver",
          "type": "address"
        },
        {
          "indexed": true,
          "internalType": "uint256",
          "name": "problemId",
          "type": "uint256"
        },
        {
          "indexed": true,
          "internalType": "uint256",
          "name": "level",
          "type": "uint256"
        },
        {
          "indexed": false,
          "internalType": "uint256",
          "name": "ticksInThisMatch",
          "type": "uint256"
        },
        {
          "indexed": false,
          "internalType": "uint256",
          "name": "day",
          "type": "uint256"
        }
      ],
      "name": "Solved",
      "type": "event"
    },
    {
      "stateMutability": "nonpayable",
      "type": "fallback"
    },
    {
      "inputs": [
        {
          "internalType": "uint256",
          "name": "problemId",
          "type": "uint256"
        },
        {
          "internalType": "uint256",
          "name": "tickCount",
          "type": "uint256"
        },
        {
          "internalType": "uint256[2][]",
          "name": "a",
          "type": "uint256[2][]"
        },
        {
          "internalType": "uint256[2][2][]",
          "name": "b",
          "type": "uint256[2][2][]"
        },
        {
          "internalType": "uint256[2][]",
          "name": "c",
          "type": "uint256[2][]"
        },
        {
          "internalType": "uint256[][]",
          "name": "input",
          "type": "uint256[][]"
        }
      ],
      "name": "batchSolve",
      "outputs": [],
      "stateMutability": "nonpayable",
      "type": "function"
    },
    {
      "inputs": [
        {
          "internalType": "uint256",
          "name": "",
          "type": "uint256"
        }
      ],
      "name": "bodyBoost",
      "outputs": [
        {
          "internalType": "uint256",
          "name": "",
          "type": "uint256"
        }
      ],
      "stateMutability": "view",
      "type": "function"
    },
    {
      "inputs": [],
      "name": "decimals",
      "outputs": [
        {
          "internalType": "uint256",
          "name": "",
          "type": "uint256"
        }
      ],
      "stateMutability": "view",
      "type": "function"
    },
    {
      "inputs": [
        {
          "internalType": "uint256",
          "name": "problemId",
          "type": "uint256"
        }
      ],
      "name": "deleteMatch",
      "outputs": [],
      "stateMutability": "nonpayable",
      "type": "function"
    },
    {
      "inputs": [
        {
          "internalType": "uint256",
          "name": "problemId",
          "type": "uint256"
        }
      ],
      "name": "inProgress",
      "outputs": [
        {
          "internalType": "bool",
          "name": "",
          "type": "bool"
        }
      ],
      "stateMutability": "view",
      "type": "function"
    },
    {
      "inputs": [
        {
          "internalType": "uint256",
          "name": "",
          "type": "uint256"
        }
      ],
      "name": "matches",
      "outputs": [
        {
          "internalType": "bool",
          "name": "inProgress",
          "type": "bool"
        },
        {
          "internalType": "uint256",
          "name": "problemId",
          "type": "uint256"
        },
        {
          "internalType": "uint256",
          "name": "startingTick",
          "type": "uint256"
        }
      ],
      "stateMutability": "view",
      "type": "function"
    },
    {
      "inputs": [],
      "name": "maxTick",
      "outputs": [
        {
          "internalType": "uint256",
          "name": "",
          "type": "uint256"
        }
      ],
      "stateMutability": "view",
      "type": "function"
    },
    {
      "inputs": [],
      "name": "owner",
      "outputs": [
        {
          "internalType": "address",
          "name": "",
          "type": "address"
        }
      ],
      "stateMutability": "view",
      "type": "function"
    },
    {
      "inputs": [],
      "name": "problems",
      "outputs": [
        {
          "internalType": "address payable",
          "name": "",
          "type": "address"
        }
      ],
      "stateMutability": "view",
      "type": "function"
    },
    {
      "inputs": [],
      "name": "renounceOwnership",
      "outputs": [],
      "stateMutability": "nonpayable",
      "type": "function"
    },
    {
      "inputs": [
        {
          "internalType": "uint256",
          "name": "problemId",
          "type": "uint256"
        },
        {
          "internalType": "uint256",
          "name": "tickCount",
          "type": "uint256"
        },
        {
          "internalType": "uint256[2]",
          "name": "a",
          "type": "uint256[2]"
        },
        {
          "internalType": "uint256[2][2]",
          "name": "b",
          "type": "uint256[2][2]"
        },
        {
          "internalType": "uint256[2]",
          "name": "c",
          "type": "uint256[2]"
        },
        {
          "internalType": "uint256[]",
          "name": "input",
          "type": "uint256[]"
        }
      ],
      "name": "solveProblem",
      "outputs": [],
      "stateMutability": "nonpayable",
      "type": "function"
    },
    {
      "inputs": [
        {
          "internalType": "address",
          "name": "newOwner",
          "type": "address"
        }
      ],
      "name": "transferOwnership",
      "outputs": [],
      "stateMutability": "nonpayable",
      "type": "function"
    },
    {
      "inputs": [
        {
          "internalType": "address payable",
          "name": "problems_",
          "type": "address"
        }
      ],
      "name": "updateProblemsAddress",
      "outputs": [],
      "stateMutability": "nonpayable",
      "type": "function"
    }
  ],
  "bytecode": "0x60803461014c57601f6200215c38819003918201601f1916830192916001600160401b03919082851184861017610151578084926040968752833960209384918101031261014c57516001600160a01b0392838216929183900361014c5760008054336001600160a01b031980831682178455885197909592167f8be0079c531659141344cd1fd0a4f28419497f9722a3daafe3b4186f6b6457e08489a36101608601908111868210176101385786929192528185528181860152818686015260019485606082015260026080820152600460a0820152600860c0820152601060e0820152816101008201528661012082015260806101408201529085600293925b600b8410610121575092505050541617905551611ff49081620001688239f35b805160ff1685559381019392019186908201610101565b634e487b7160e01b82526041600452602482fd5b600080fd5b634e487b7160e01b600052604160045260246000fdfe60806040526004361015610054575b3461004f5760405162461bcd60e51b81526020600482015260146024820152733737903330b6363130b1b590333ab731ba34b7b760611b6044820152606490fd5b600080fd5b60003560e01c8063087c32e614611c37578063130e5a87146111205780631db3b6dd14611103578063313ce567146110e05780634768d4ef146110985780634e26b0cd14611067578063715018a6146110085780638da5cb5b14610fdf5780639512ada214610ead578063ab85f1f414610207578063cd190a92146101db578063f2fde38b146101115763f9df988f0361000e573461004f57600036600319011261004f576001546040516001600160a01b039091168152602090f35b3461004f57602036600319011261004f576004356001600160a01b038181169182900361004f57610140611e59565b811561018757600080546001600160a01b031981168417825560405191939192167f8be0079c531659141344cd1fd0a4f28419497f9722a3daafe3b4186f6b6457e08484a3f35b60405162461bcd60e51b815260206004820152602660248201527f4f776e61626c653a206e6577206f776e657220697320746865207a65726f206160448201526564647265737360d01b6064820152608490fd5b3461004f57602036600319011261004f57600435600b81101561004f5760209060020154604051908152f35b3461004f5761016036600319011261004f57366063121561004f5760405161022e81611cdb565b3660841161004f576044905b60848210610e9d573660a3121561004f5760405161025781611cdb565b366101041161004f576084905b6101048210610e835736610123121561004f5760405161028381611cdb565b366101441161004f57610104905b6101448210610e7357610144356001600160401b03811161004f576102ba903690600401611dfb565b6001546040516331a9108f60e11b815260048035908201526001600160a01b039091169190602081602481865afa80156106145761030b91600091610e54575b506001600160a01b03163314611f09565b6040516375d279b360e11b815260048035908201529160c083602481845afa91821561061457600091600092600095600095610dfd575b50610dc757604051635c9302c960e01b8152602081600481855afa8015610614578491600091610d92575b5003610d3b5761038461037f86611f45565b611f5b565b600119811161093457600101825103610cff576020604491604051928380926343569ffb60e01b825289600483015260243560248301525afa90811561061457600091610cd0575b506001600160a01b031615610c98576103ed6103e785611f45565b82611ec0565b5160018503610c02575b61043f604091600435600052600d602052826000209583519661041988611c7b565b600260ff825416159182158a52600181015460208b0152015485890152610bc257611fa1565b9301519081841061093457610bb882850311610b89576001546040516310211ca160e21b8152600480359082015291906001600160a01b031661014083602481845afa92831561061457600093610b09575b50803b1561004f57600080916044604051809481936304b24e8560e01b835260043560048401528b60248401525af1801561061457610afa575b5090859160009160006101006040516104e381611cbf565b8281528260208201528260408201528260608201528260808201528260a08201528260c08201528260e0820152015260005b84811061062f5750505014610527575b005b6001546001600160a01b0316803b1561004f5760008091604460405180948193635226dc9360e01b83526004356004840152878a0360248401525af1801561061457610620575b506001546001600160a01b0316803b1561004f576000809160246040518094819363366cf14f60e11b835260043560048401525af1801561061457610605575b50600435600052600d60205260006002604082208281558260018201550155604051920382526020820152600435907f891b61a0d1978051cf0de05fd51588673823fb075284f28fbe7390ba4f3de04760403392a4005b61060e90611cac565b846105ae565b6040513d6000823e3d90fd5b61062990611cac565b8461056e565b60015493945091929091906001600160a01b031661064d8284611fad565b516040519063618faeb560e11b82526004356004830152602482015261012081604481855afa90811561061457600091610a64575b5060608101516106a36106948c611f71565b61069d86611f45565b90611fa1565b60011981116109345760016106b9910187611ec0565b5103610a2a576106d16106cb84611f45565b86611ec0565b51606082015260808101516106e86106948c611f71565b600119811161093457600119600182011161093457600261070a910187611ec0565b51036109f05761071983611f45565b600119811161093457600161072f910186611ec0565b51608082015260a08101516107466106948c611f71565b6002198111610934576001196002820111610934576003610768910187611ec0565b51036109b85761077783611f45565b600219811161093457600261078d910186611ec0565b5160a082015260c08101516107a46106948c611f71565b60031981116109345760011960038201116109345760046107c6910187611ec0565b5103610980576107d583611f45565b60031981116109345760036107eb910186611ec0565b5160c082015260e08101516108026106948c611f71565b6004198111610934576001196004820111610934576005610824910187611ec0565b510361094a5761083383611f45565b6004198111610934576004610849910186611ec0565b5160e08201526108598385611fad565b51823b1561004f576000926101648492604051958693849263e9d903b160e01b845260043560048501526024840152865160448401526020870151606484015260408701516084840152606087015160a4840152608087015160c484015260a087015160e484015260c087015161010484015260e08701516101248401526101008701516101448401525af19182156106145760e092610925575b50015115610910575b61090690611eb1565b9087939291610515565b9261091d61090691611eb1565b9390506108fd565b61092e90611cac565b8a6108f4565b634e487b7160e01b600052601160045260246000fd5b60405162461bcd60e51b815260206004820152600e60248201526d496e76616c69642072616469757360901b6044820152606490fd5b60405162461bcd60e51b815260206004820152601060248201526f496e76616c696420766563746f72207960801b6044820152606490fd5b60405162461bcd60e51b815260206004820152601060248201526f092dcecc2d8d2c840eccac6e8dee440f60831b6044820152606490fd5b60405162461bcd60e51b8152602060048201526012602482015271496e76616c696420706f736974696f6e207960701b6044820152606490fd5b60405162461bcd60e51b8152602060048201526012602482015271092dcecc2d8d2c840e0dee6d2e8d2dedc40f60731b6044820152606490fd5b9050610120813d61012011610af2575b81610a826101209383611d12565b8101031261004f5761010060405191610a9a83611cbf565b805183526020810151602084015260408101516040840152606081015160608401526080810151608084015260a081015160a084015260c081015160c084015260e081015160e084015201516101008201528a610682565b3d9150610a74565b610b0390611cac565b866104cb565b909250610140903d61014011610b81575b610b248282611d12565b61014081838101031261004f57818101601f8201121561004f5760405191610b4b83611cf6565b8290820161014083011161004f5781905b61014083018210610b71575050509187610491565b8151815260209182019101610b5c565b3d9150610b1a565b60405162461bcd60e51b815260206004820152601160248201527013585e081d1a58dac8195e18d959591959607a1b6044820152606490fd5b600187528084880152600435600052600d602052836000208751151560ff8019835416911617815560208801516001820155600285890151910155611fa1565b60028503610c10575b6103f7565b60038503156103f75760048503156103f75760058503156103f75760068503156103f7576007850315610c0b5760088503156103f7576009850315610c0b57600a850315610c0b5760405162461bcd60e51b8152602060048201526018602482015277496e76616c6964206e756d626572206f6620626f6469657360401b6044820152606490fd5b60405162461bcd60e51b815260206004820152601060248201526f24b73b30b634b2103b32b934b334b2b960811b6044820152606490fd5b610cf2915060203d602011610cf8575b610cea8183611d12565b810190611eea565b856103cc565b503d610ce0565b60405162461bcd60e51b8152602060048201526014602482015273092dcecc2d8d2c840d2dce0eae840d8cadccee8d60631b6044820152606490fd5b60405162461bcd60e51b815260206004820152602960248201527f4e6f206c6f6e67657220616363657074696e67207375626d697373696f6e7320604482015268666f7220746f64617960b81b6064820152608490fd5b9150506020813d602011610dbf575b81610dae60209383611d12565b8101031261004f578390518761036d565b3d9150610da1565b60405162461bcd60e51b815260206004820152600e60248201526d105b1c9958591e481cdbdb1d995960921b6044820152606490fd5b9350509250925060c0813d60c011610e4c575b81610e1d60c09383611d12565b8101031261004f57805192831515840361004f5760408201519260a06060840151930151949392949386610342565b3d9150610e10565b610e6d915060203d602011610cf857610cea8183611d12565b846102fa565b8135815260209182019101610291565b6020604091610e923685611d4a565b815201910190610264565b813581526020918201910161023a565b3461004f5760208060031936011261004f576001546040516331a9108f60e11b8152600480359082018190526001600160a01b0392831693929091908382602481885afa801561061457610f0c92600091610fc2575b50163314611f09565b80600052600d825260ff6040600020541615610f8557823b1561004f576000809360246040518096819363366cf14f60e11b83528660048401525af192831561061457600d93610f76575b5060005252600060026040822082815582600182015501556000604051f35b610f7f90611cac565b83610f57565b60405162461bcd60e51b81526004810183905260156024820152744d61746368206e6f7420696e2070726f677265737360581b6044820152606490fd5b610fd99150853d8711610cf857610cea8183611d12565b86610f03565b3461004f57600036600319011261004f576000546040516001600160a01b039091168152602090f35b3461004f57600036600319011261004f57611021611e59565b600080546001600160a01b0319811682556040519082906001600160a01b03167f8be0079c531659141344cd1fd0a4f28419497f9722a3daafe3b4186f6b6457e08284a3f35b3461004f57602036600319011261004f57600435600052600d602052602060ff604060002054166040519015158152f35b3461004f57602036600319011261004f57600435600052600d6020526060604060002060ff815416906002600182015491015490604051921515835260208301526040820152f35b3461004f57600036600319011261004f576020604051670de0b6b3a76400008152f35b3461004f57600036600319011261004f576020604051610bb88152f35b3461004f5760c036600319011261004f576044356001600160401b03811161004f57611150903690600401611d8f565b606435906001600160401b03821161004f573660238301121561004f5781600401359161117c83611d33565b9261118a6040519485611d12565b80845260208401913660248360071b8301011161004f5760248101925b60248360071b8301018410611bdb5785856084356001600160401b03811161004f576111d7903690600401611d8f565b6001600160401b0360a4351161004f5736602360a43501121561004f5760a4356004013561120481611d33565b906112126040519283611d12565b80825260208201903660248260051b60a43501011161004f57602460a43501915b60248260051b60a43501018310611ba85750505060005b81518110156105255761125d8185611ec0565b506112688186611ec0565b506112738184611ec0565b5061127e8183611ec0565b519060018060a01b03600154166040516331a9108f60e11b81526004356004820152602081602481855afa8015610614576112cb91600091611b8957506001600160a01b03163314611f09565b6040516375d279b360e11b815260048035908201529060c082602481845afa90811561061457600090600091600094600094611b33575b50610dc757604051635c9302c960e01b8152602081600481855afa8015610614578391600091611afe575b5003610d3b5761133f61037f85611f45565b600119811161093457600101865103610cff576020604491604051928380926343569ffb60e01b825288600483015260243560248301525afa90811561061457600091611adf575b506001600160a01b031615610c98576113a26106cb84611f45565b5160018403611a49575b6113f4604091600435600052600d60205282600020948351956113ce87611c7b565b600260ff825416159182158952600181015460208a0152015485880152611a0957611fa1565b9201519485831061093457610bb886840311610b89576001546040516310211ca160e21b8152600480359082015291906001600160a01b031661014083602481845afa92831561061457600093611989575b50803b1561004f57600080916044604051809481936304b24e8560e01b835260043560048401528a60248401525af180156106145761197a575b50908491600091600061010060405161149881611cbf565b8281528260208201528260408201528260608201528260808201528260a08201528260c08201528260e0820152015260005b8481106115f457505050146114ec575b5050506114e79150611eb1565b61124a565b6001546001600160a01b0316803b1561004f5760008091604460405180948193635226dc9360e01b835260043560048401528b890360248401525af18015610614576115e5575b506001546001600160a01b031694853b1561004f576000809660246040518099819363366cf14f60e11b835260043560048401525af1958615610614576114e7966115d6575b50600435600052600d60205260006002604082208281558260018201550155604051920382526020820152600435907f891b61a0d1978051cf0de05fd51588673823fb075284f28fbe7390ba4f3de04760403392a48680806114da565b6115df90611cac565b8a611579565b6115ee90611cac565b89611533565b60015493945091929091906001600160a01b03166116128284611fad565b516040519063618faeb560e11b82526004356004830152602482015261012081604481855afa908115610614576000916118e4575b5060608101516116596106948b611f71565b600119811161093457600161166f910187611ec0565b5103610a2a576116816106cb84611f45565b51606082015260808101516116986106948b611f71565b60011981116109345760011960018201116109345760026116ba910187611ec0565b51036109f0576116c983611f45565b60011981116109345760016116df910186611ec0565b51608082015260a08101516116f66106948b611f71565b6002198111610934576001196002820111610934576003611718910187611ec0565b51036109b85761172783611f45565b600219811161093457600261173d910186611ec0565b5160a082015260c08101516117546106948b611f71565b6003198111610934576001196003820111610934576004611776910187611ec0565b51036109805761178583611f45565b600319811161093457600361179b910186611ec0565b5160c082015260e08101516117b26106948b611f71565b60041981116109345760011960048201116109345760056117d4910187611ec0565b510361094a576117e383611f45565b60041981116109345760046117f9910186611ec0565b5160e08201526118098385611fad565b51823b1561004f576000926101648492604051958693849263e9d903b160e01b845260043560048501526024840152865160448401526020870151606484015260408701516084840152606087015160a4840152608087015160c484015260a087015160e484015260c087015161010484015260e08701516101248401526101008701516101448401525af19182156106145760e0926118d5575b500151156118c0575b6118b690611eb1565b90869392916114ca565b926118cd6118b691611eb1565b9390506118ad565b6118de90611cac565b8f6118a4565b9050610120813d61012011611972575b816119026101209383611d12565b8101031261004f576101006040519161191a83611cbf565b805183526020810151602084015260408101516040840152606081015160608401526080810151608084015260a081015160a084015260c081015160c084015260e081015160e084015201516101008201528f611647565b3d91506118f4565b61198390611cac565b8b611480565b909250610140903d61014011611a01575b6119a48282611d12565b61014081838101031261004f57818101601f8201121561004f57604051916119cb83611cf6565b8290820161014083011161004f5781905b610140830182106119f157505050918c611446565b81518152602091820191016119dc565b3d915061199a565b600186528084870152600435600052600d602052836000208651151560ff8019835416911617815560208701516001820155600285880151910155611fa1565b60028403611a57575b6113ac565b60038403156113ac5760048403156113ac5760058403156113ac5760068403156113ac576007840315611a525760088403156113ac576009840315611a5257600a840315611a525760405162461bcd60e51b8152602060048201526018602482015277496e76616c6964206e756d626572206f6620626f6469657360401b6044820152606490fd5b611af8915060203d602011610cf857610cea8183611d12565b8a611387565b9150506020813d602011611b2b575b81611b1a60209383611d12565b8101031261004f578290518c61132d565b3d9150611b0d565b94505091505060c0823d60c011611b81575b81611b5260c09383611d12565b8101031261004f57815191821515830361004f5760408101519160a0606083015192015193929193928b611302565b3d9150611b45565b611ba2915060203d602011610cf857610cea8183611d12565b896102fa565b6001600160401b0383351161004f57602080602492611bce3685883560a4350101611dfb565b8152019301929050611233565b36601f8501121561004f57604051611bf281611cdb565b8036608087011161004f5785905b608087018210611c1d5750508152608093909301926020016111a7565b6020604091611c2c3685611d4a565b815201910190611c00565b3461004f57602036600319011261004f576004356001600160a01b0381169081900361004f57611c65611e59565b600180546001600160a01b031916919091179055005b606081019081106001600160401b03821117611c9657604052565b634e487b7160e01b600052604160045260246000fd5b6001600160401b038111611c9657604052565b61012081019081106001600160401b03821117611c9657604052565b604081019081106001600160401b03821117611c9657604052565b61014081019081106001600160401b03821117611c9657604052565b90601f801991011681019081106001600160401b03821117611c9657604052565b6001600160401b038111611c965760051b60200190565b9080601f8301121561004f5760405191611d6383611cdb565b82906040810192831161004f57905b828210611d7f5750505090565b8135815260209182019101611d72565b81601f8201121561004f57803590611da682611d33565b92604092611db684519586611d12565b808552602091828087019260061b8501019381851161004f578301915b848310611de35750505050505090565b838691611df08486611d4a565b815201920191611dd3565b81601f8201121561004f57803591611e1283611d33565b92611e206040519485611d12565b808452602092838086019260051b82010192831161004f578301905b828210611e4a575050505090565b81358152908301908301611e3c565b6000546001600160a01b03163303611e6d57565b606460405162461bcd60e51b815260206004820152602060248201527f4f776e61626c653a2063616c6c6572206973206e6f7420746865206f776e65726044820152fd5b60001981146109345760010190565b8051821015611ed45760209160051b010190565b634e487b7160e01b600052603260045260246000fd5b9081602091031261004f57516001600160a01b038116810361004f5790565b15611f1057565b60405162461bcd60e51b815260206004820152600d60248201526c2737ba103a34329037bbb732b960991b6044820152606490fd5b8060001904600511811515166109345760050290565b8060001904600211811515166109345760011b90565b7f333333333333333333333333333333333333333333333333333333333333333381116001166109345760050290565b81198111610934570190565b90600a811015611ed45760051b019056fea2646970667358221220d78a46266176f1c4d2bbd7ed8fd325fdad10b1561a1487690b5679c3765923ac64736f6c634300080f0033",
  "linkReferences": {},
  "deployedLinkReferences": {}
}