{
  "_format": "hh-sol-artifact-1",
  "contractName": "Groth16Verifier",
  "sourceName": "contracts/Game_4_250Verifier.sol",
  "abi": [
    {
      "inputs": [
        {
          "internalType": "uint256[2]",
          "name": "_pA",
          "type": "uint256[2]"
        },
        {
          "internalType": "uint256[2][2]",
          "name": "_pB",
          "type": "uint256[2][2]"
        },
        {
          "internalType": "uint256[2]",
          "name": "_pC",
          "type": "uint256[2]"
        },
        {
          "internalType": "uint256[52]",
          "name": "_pubSignals",
          "type": "uint256[52]"
        }
      ],
      "name": "verifyProof",
      "outputs": [
        {
          "internalType": "bool",
          "name": "",
          "type": "bool"
        }
      ],
      "stateMutability": "view",
      "type": "function"
    }
  ],
  "bytecode": "0x60808060405234610016576124c7908161001c8239f35b600080fdfe6080604052600436101561001257600080fd5b6000803560e01c632a6d5ed51461002857600080fd5b346102f8576107803660031901126102f857610043366102fb565b3660c4116102f4576100543661030d565b906107843681116102f057916102ec916102e76020959461040060405261007d6101043561031b565b6100896101243561031b565b6100956101443561031b565b6100a16101643561031b565b6100ad6101843561031b565b6100b96101a43561031b565b6100c56101c43561031b565b6100d16101e43561031b565b6100dd6102043561031b565b6100e96102243561031b565b6100f56102443561031b565b6101016102643561031b565b61010d6102843561031b565b6101196102a43561031b565b6101256102c43561031b565b6101316102e43561031b565b61013d6103043561031b565b6101496103243561031b565b6101556103443561031b565b6101616103643561031b565b61016d6103843561031b565b6101796103a43561031b565b6101856103c43561031b565b6101916103e43561031b565b61019d6104043561031b565b6101a96104243561031b565b6101b56104443561031b565b6101c16104643561031b565b6101cd6104843561031b565b6101d96104a43561031b565b6101e56104c43561031b565b6101f16104e43561031b565b6101fd6105043561031b565b6102096105243561031b565b6102156105443561031b565b6102216105643561031b565b61022d6105843561031b565b6102396105a43561031b565b6102456105c43561031b565b6102516105e43561031b565b61025d6106043561031b565b6102696106243561031b565b6102756106443561031b565b6102816106643561031b565b61028d6106843561031b565b6102996106a43561031b565b6102a56106c43561031b565b6102b16106e43561031b565b6102bd6107043561031b565b6102c96107243561031b565b6102d56107443561031b565b6102e16107643561031b565b3561031b565b611f51565b8152f35b8380fd5b5080fd5b80fd5b9060049160441161030857565b600080fd5b9060c4916101041161030857565b7f30644e72e131a029b85045b68181585d2833e84879b9709143e1f593f0000001111561034457565b6000805260206000f35b604051907f177181926f081a0897f854653a436881cf898193d26cbb0b335a247a8043dbc782527f1b8ed84e6de658a78148695edc727c8d4e15eea5694381b96daa0b4b8be713c86020830152604082019081526107cf196040836060816007855a01fa156103445760409260066080939284938451905260a05160608401525a01fa1561034457565b604051907f068d434ded93fabfdca56d074c1e3aae80fdd47883e18ac4da01e0013684f85282527f20a2412c43a8c05904fb3511b95c82ece02cd7aa566eb5c25835e96515f072226020830152604082019081526107cf196040836060816007855a01fa156103445760409260066080939284938451905260a05160608401525a01fa1561034457565b604051907f175a63f8d3a281be1cd5e109daa0d668e12d2a8c4accf3d2d369cd2088e18dd782527f0b660052b3bf3a6a2c3ec46b83d8edf557ae9338a4a39552d355a4b5babbdee96020830152604082019081526107cf196040836060816007855a01fa156103445760409260066080939284938451905260a05160608401525a01fa1561034457565b604051907f1a6c7ae4cb3b1e6a2c495da5b14fbb601619bda8415e0643435e8e167bc58d0682527f144bee4ba0735917eb46ea719ff0b9192c5e0a650356616a7d7d7a1ef4663a7a6020830152604082019081526107cf196040836060816007855a01fa156103445760409260066080939284938451905260a05160608401525a01fa1561034457565b604051907f14fda8b03723bbe06c4c914753ba8c782c5417eeff9d3e8f0d1d1945c695054982527f0e4bfe6ecfbd712ba9d79a9d7d62e864982c44e7b874b408fe0b04800bedfb396020830152604082019081526107cf196040836060816007855a01fa156103445760409260066080939284938451905260a05160608401525a01fa1561034457565b604051907f1c882110610639d78817f52ff15ece50843fee0d8f112edb257d176de1345e9f82527f256a19592f95891371a73ff516dc5c1739b2ef285a8d530ff5eea9a2df6fb2ef6020830152604082019081526107cf196040836060816007855a01fa156103445760409260066080939284938451905260a05160608401525a01fa1561034457565b604051907f180d3fd4cac164a8b1fa552809918b1f38c87513240c8f9df9b33d9b587e136082527f08e192b890f3cb501b3167fc1cf749c23448ec5d88be422476c3989e119e7af46020830152604082019081526107cf196040836060816007855a01fa156103445760409260066080939284938451905260a05160608401525a01fa1561034457565b604051907f1a863661d72d101cbfc5be04ea5ddf2db8d644d81758c3ea785df07d1085bb1682527f0e0912216f3b4d4e7f65a326a70c20a536db07db402f4c00f3b4013fac81b5f26020830152604082019081526107cf196040836060816007855a01fa156103445760409260066080939284938451905260a05160608401525a01fa1561034457565b604051907f2d49d0cf5dadc7bb67079b7aa54c02b6fbfecd5abea63a7afd8554609956be4582527f23814fac3ab3ec051b0ee3a63cd3bdca451eadcf14f7e81851e4da2776eb03cd6020830152604082019081526107cf196040836060816007855a01fa156103445760409260066080939284938451905260a05160608401525a01fa1561034457565b604051907f1435ab74d7d46cdc923d724e51a0055883665341a2c49fbd3d1eb861652d560a82527f103c4ddc42eb852758c1613c7fc9aed117fceebb8cf3e6f2f473e2cce4f90f8f6020830152604082019081526107cf196040836060816007855a01fa156103445760409260066080939284938451905260a05160608401525a01fa1561034457565b604051907f172affd65032624bb22b377724a558be816c051e6680a27fad04292d381958c782527f098cceb33a815e9c359778c4db4fdb5a6d4e78569cef22c0492ec94e230383d96020830152604082019081526107cf196040836060816007855a01fa156103445760409260066080939284938451905260a05160608401525a01fa1561034457565b604051907f1cc1b6ab0475cd40dfca7c8e83b7b13a456ff31dff95eb8b0883608c1a1a0a4982527f249212c28bb61a941bcaf2def129c41c3702d0706a4531a5767efc90fe71e5df6020830152604082019081526107cf196040836060816007855a01fa156103445760409260066080939284938451905260a05160608401525a01fa1561034457565b604051907f1e096ae33565d129901287eaf2bba7e16a024d4b8dfd3f3428af4288c90b8a1782527f1e29e108aab8a5de715c74c867453e77c3440c14ebb46eb1416d9d3364b8d5f86020830152604082019081526107cf196040836060816007855a01fa156103445760409260066080939284938451905260a05160608401525a01fa1561034457565b604051907f022cc51e39003d3d0c5c0db590d1addffccd2ebd648dcd42584703a2d9fbc64782527f0e20862c1be5933a11e17896cb0ccdb8d16f4c80069174adfdcb3ee0b20c43716020830152604082019081526107cf196040836060816007855a01fa156103445760409260066080939284938451905260a05160608401525a01fa1561034457565b604051907f16b7ba595270197d958a57ec17ce9963ff366e9eff6729bf09b50b2b0184fbf282527f26dee615ab4adf141c4d7e32569882332f34f7315b4d61bd9a8882ef1bf5f1f66020830152604082019081526107cf196040836060816007855a01fa156103445760409260066080939284938451905260a05160608401525a01fa1561034457565b604051907f11b8921500242976fdea4119cd9cff55a9e5ced39e29248e5b5b1d14db07ea5682527f296c653fc2c137bbde497001befb0e0b4902a371732b14c96979ba36b333722c6020830152604082019081526107cf196040836060816007855a01fa156103445760409260066080939284938451905260a05160608401525a01fa1561034457565b604051907f1e82eab0b6f63a0a5de8b464cce59917244744018cdefa828186c1c8d315c93082527e542e1231e131173c9f02f15a4decb5c815a5d82ac20d4bee850141edf023916020830152604082019081526107cf196040836060816007855a01fa156103445760409260066080939284938451905260a05160608401525a01fa1561034457565b604051907f052d77ba450144a346a4b26ba64068a1d39f3c50b93162414a468b1c2b31e34e82527f0b8f17d07c2d5ef59cbf212c8d19af1adb66a9c6843576da5f1809128b545bc96020830152604082019081526107cf196040836060816007855a01fa156103445760409260066080939284938451905260a05160608401525a01fa1561034457565b604051907f2166b15015da4b550bf435f543d53d657edd3186543d112be1a5f92609b475a082527f2513b1d167dfa78c364868b4e5cecde39c9ee0c6ec29ed8be2fd8cee2573a62e6020830152604082019081526107cf196040836060816007855a01fa156103445760409260066080939284938451905260a05160608401525a01fa1561034457565b604051907f2e6188dfd5642d8e9510bde19fed26e13349e75dcef85c7faf2da2782dc5f39482527f05041ea85bd11e6f29338c6274c58998620730ff367e92a3c040df702e99d5006020830152604082019081526107cf196040836060816007855a01fa156103445760409260066080939284938451905260a05160608401525a01fa1561034457565b604051907f2277b483e6d2690dcf783cd6531636f32721dd86b318eb694d1c6319398d915882527f14831f7ab9350a1c2f1c115c0d54d98de97a88e0fdd91badddf6c855cd1d0f836020830152604082019081526107cf196040836060816007855a01fa156103445760409260066080939284938451905260a05160608401525a01fa1561034457565b604051907f205aa04c7690a07455454975392062b71ba448df3ea1199263185226b52ca11d82527f29a7d296e60fa3702d0855bc674602e17edb5da8f893f5f61ce92ed19c572c9d6020830152604082019081526107cf196040836060816007855a01fa156103445760409260066080939284938451905260a05160608401525a01fa1561034457565b604051907f09fc69d6b71a4a379d617991c21d55ebc73b668391b41455bf147a1311a4d8d982527f24a814c1c339eb2bef951814151cf4fb60ee03871189a9ae51b44a6ed964b7b06020830152604082019081526107cf196040836060816007855a01fa156103445760409260066080939284938451905260a05160608401525a01fa1561034457565b604051907f2a8ad27bb605d1a939e7bccbc7e67d9034a75d547c5e50faa2bde1be3953c1fd82527f27a7286387a5383fdb52eeec61e2ad34c422dde605f4cf55971eda939d802e956020830152604082019081526107cf196040836060816007855a01fa156103445760409260066080939284938451905260a05160608401525a01fa1561034457565b604051907e2136e6552ef72d23ba5b5f80c2617f964cfbd4cd2a73ffa99620f0e0a8cc8d82527f07f8de72849f272218fe11c0b23096b32c2cb78cb7ef23e39418be37156cb8466020830152604082019081526107cf196040836060816007855a01fa156103445760409260066080939284938451905260a05160608401525a01fa1561034457565b604051907f062015ed313b164ec054eb16169e96988bf3d2709b49d32e96b49886b631557482527f2b4ca4061e48bdb49fcdd955c8097af01ad7b8e4d0e6c45a38d7b1f18ecba1236020830152604082019081526107cf196040836060816007855a01fa156103445760409260066080939284938451905260a05160608401525a01fa1561034457565b604051907f2cb3b113800df71643115d4cf6ddf70282a2b8e7d36a54543e9a3e7f55224abc82527f08cd768a06b14ff83c888208de5b95adce7e8a83c4da30b3bcbd2b200a9b34d16020830152604082019081526107cf196040836060816007855a01fa156103445760409260066080939284938451905260a05160608401525a01fa1561034457565b604051907f07750d06f91ff86ecd7d3da36b187105239adabdd148872eafb755927fe2285682527f0709cd72e4e396195a17ef8457f2e90131dcbdb30a937c52be942759c8d38e6f6020830152604082019081526107cf196040836060816007855a01fa156103445760409260066080939284938451905260a05160608401525a01fa1561034457565b604051907f014e71f0237474629919e0fe9e8d094d89b468c79dcdbb67f1ab8a9aa809374482527eae7771c6ba5a98d5b77c1b62cc6025d8345afd9d14a2336083d5f5112070486020830152604082019081526107cf196040836060816007855a01fa156103445760409260066080939284938451905260a05160608401525a01fa1561034457565b604051907f2ba8ce796635a3db798757c1d27b1f8195df6f06193162b425806c0d63c057d082527f2eb1e98f689d93cd0caf671c762f28649d2cd5f49d06e58cc205c138797c66d86020830152604082019081526107cf196040836060816007855a01fa156103445760409260066080939284938451905260a05160608401525a01fa1561034457565b604051907f2f01319acfeb26cf19be0b141d1cda812ad0f7a69230090d1cdeab9d88f7755b82527f130d14d300fe71657b7d540e40bb42d5533378bd019132092dc922dcb26cbad06020830152604082019081526107cf196040836060816007855a01fa156103445760409260066080939284938451905260a05160608401525a01fa1561034457565b604051907f272dabb85e2229451cc79deade6b88148fe211f2e745923d7d089038169e97a382527f06de1eeb77a74c29e24f197875b233768a883989c749a3e423989be9886bd2af6020830152604082019081526107cf196040836060816007855a01fa156103445760409260066080939284938451905260a05160608401525a01fa1561034457565b604051907e4917d066b1e7fd618eadec6f37c880f83e585b9aa16cb3fbb8f1edf263e87e82527f035c8d6b334b094f63e5f7a3bff7f7647235e865e0544509bfab866c2350fce26020830152604082019081526107cf196040836060816007855a01fa156103445760409260066080939284938451905260a05160608401525a01fa1561034457565b604051907f2d6778a02262885552dc3d641230441424659af90847d7fdd5487eb54fa8cea482527f1ad3c75162368856407454cfa7a90d831966a70594e43f68c1f2182431373a226020830152604082019081526107cf196040836060816007855a01fa156103445760409260066080939284938451905260a05160608401525a01fa1561034457565b604051907f08d580ad6249faa30d62ed9deb91ce10f1a4daf29e56468af69f06d4af84626782527e600eb64d4e27d840e947170f21f1ed53db84d9809f2e80a6e74fbf0ffa025b6020830152604082019081526107cf196040836060816007855a01fa156103445760409260066080939284938451905260a05160608401525a01fa1561034457565b604051907f2813a7f2ab3024f5412599119cb350c658102e17676a1dc6b43799bb7c40447f82527f01661e5b7812268f11fce49c7c43f8acf345e2180e857918674e614cf23770056020830152604082019081526107cf196040836060816007855a01fa156103445760409260066080939284938451905260a05160608401525a01fa1561034457565b604051907f1d12fe023470a2783352e06c795874ae54b2bf167394eea5e504d1a2efd22cea82527f20429f9c684e62b407f8e355f719cf564b70781610302f101fa6822d348bd6376020830152604082019081526107cf196040836060816007855a01fa156103445760409260066080939284938451905260a05160608401525a01fa1561034457565b604051907f2adea84dd677144ed486a5a1b5b60f3d21a4e84033bebfc38c468f88f93ebbfa82527f0963f643a97899444abdcf81500e799b3749e6c2eb38c5b45c21d9c68a3175c56020830152604082019081526107cf196040836060816007855a01fa156103445760409260066080939284938451905260a05160608401525a01fa1561034457565b604051907f1e5e51b519c9ee2ed5ae8c291f5cda11fe7e84ef8ff0edb627e094aade03714882527f019fbcc72499ea06dbce1c2c094f3c0957e90a9e6936b0336dd3d98723d5740b6020830152604082019081526107cf196040836060816007855a01fa156103445760409260066080939284938451905260a05160608401525a01fa1561034457565b604051907f0a6d1a942dfcd4a225b7719c96325a54386f14febdf192da3967a41dc8bf9b5a82527f29abc80c963b03cfc1223b1c365e48645da0d9c6a49bb5a6fdcc38236405f2916020830152604082019081526107cf196040836060816007855a01fa156103445760409260066080939284938451905260a05160608401525a01fa1561034457565b604051907f21844d7fd911ed5175f7b28cfbca7d53132e319ae4c7879e80ea4131d2dbc19382527f0138f0a48c0ac70b6fc14b7019b419d9b0dbb50805df15969ca919f3ee2974396020830152604082019081526107cf196040836060816007855a01fa156103445760409260066080939284938451905260a05160608401525a01fa1561034457565b604051907f07ed3be21eef34de495ef8c173ceb6ad0d2420edd9704ea1c95a163353c93f6182527f04e9fe28ab273f161cbed96f33e3d8d3e214a68217403dc126f8f29d57bee0486020830152604082019081526107cf196040836060816007855a01fa156103445760409260066080939284938451905260a05160608401525a01fa1561034457565b604051907f0280fcc9dce7fb3c6f09281b62aa422b101e308af4a90aeb14cbc24c2407314482527f17dfaa2e388d4060426b0c111d5a38f793f84533b29c4fb4367d7631149c6a846020830152604082019081526107cf196040836060816007855a01fa156103445760409260066080939284938451905260a05160608401525a01fa1561034457565b604051907f16ff88bc770df6acbc1aab5bee8f4546e69f520da519d5c2fb17ab2620e896b282527f2c2b2b1bd660dc32bfe8d5835c22b72e7ca5974f76abbded54ef81e467da67246020830152604082019081526107cf196040836060816007855a01fa156103445760409260066080939284938451905260a05160608401525a01fa1561034457565b604051907f08c691b4ac45db866561e20190d2486f02ddc9b480a32ab4b5879cc7a36ecd7c82527f2a10f1fb4bc9d930dacbd28a7c07651a151a6ccf9fd9f4d7d70ca9781cd202636020830152604082019081526107cf196040836060816007855a01fa156103445760409260066080939284938451905260a05160608401525a01fa1561034457565b604051907f1bba05bad8b9f05cb281bb4e6cbd7eec61732eada42dbb69d0c252a6cfb3c1a082527f1f1be87dd69ce57324403d3e2cd765b4e09b3015cb23330698b394a7ef3bc33d6020830152604082019081526107cf196040836060816007855a01fa156103445760409260066080939284938451905260a05160608401525a01fa1561034457565b604051907f1ab542aaac57476b448301e3e907df085cc134e2f29e0906869a273edfa893d782527f229e367d02132b80be1a82ad2817155a1a3c976c52f0722c082ac62cc6ca97506020830152604082019081526107cf196040836060816007855a01fa156103445760409260066080939284938451905260a05160608401525a01fa1561034457565b604051907f114ab363df9755872eceb6fef5925cda36284101f55d2d75833a26f38d193fca82527f02566ddba2e156c85763abdd2789391a35099f6a9d71b7e44825735a9d4ee0b76020830152604082019081526107cf196040836060816007855a01fa156103445760409260066080939284938451905260a05160608401525a01fa1561034457565b604051907f2b58ba53e4d727cf0a9f12b9c4cf0049e4f8f7e903abe708171f3668aff3210e82527f275c1800d6ad13d177c7c11c17a6902e9781caaef751d3882d994359892098636020830152604082019081526107cf196040836060816007855a01fa156103445760409260066080939284938451905260a05160608401525a01fa1561034457565b604051907f11ac5f8bfc2d8521c3fd2bd4e86465be3dba000320b16dffb01d102e3a1002bb82527f2863a67d282e404439688868bc7caf372091a9fa9375903fd500b91b22d979fa6020830152604082019081526107cf196040836060816007855a01fa156103445760409260066080939284938451905260a05160608401525a01fa1561034457565b604051907f041d5e53f5ab2ec58839feb757db5d46244910c1c5ddc8cc97eef4c69b6b0bcf82527f267e284cdcda7b5ec3e9aafaf0628b85b70f9fd46bf659407d9b81b30ea2fe3a6020830152604082019081526107cf196040836060816007855a01fa156103445760409260066080939284938451905260a05160608401525a01fa1561034457565b604051907f2cc1ed525b7c702f86f4c58559ddf9343bfe5165f92eb991ee1c559300272ee782527f098b773c68d5dc8232ef27f24838aa042e27430f4901bc31111ec036311bf4506020830152604082019081526107cf196040836060816007855a01fa156103445760409260066080939284938451905260a05160608401525a01fa1561034457565b6020907f2e7d389ef317f244ae6ef9a0516990b501ed110053bfb518837584f46375cce26080527f0d96136e2fc38b932be5685d005ada8840572e3a1f1df2488e0c43699649b8ce60a052611fa86101043561034e565b611fb4610124356103d8565b611fc061014435610462565b611fcc610164356104ec565b611fd861018435610576565b611fe46101a435610600565b611ff06101c43561068a565b611ffc6101e435610714565b6120086102043561079e565b61201461022435610828565b612020610244356108b2565b61202c6102643561093c565b612038610284356109c6565b6120446102a435610a50565b6120506102c435610ada565b61205c6102e435610b64565b61206861030435610bee565b61207461032435610c77565b61208061034435610d01565b61208c61036435610d8b565b61209861038435610e15565b6120a46103a435610e9f565b6120b06103c435610f29565b6120bc6103e435610fb3565b6120c86104043561103d565b6120d4610424356110c6565b6120e061044435611150565b6120ec610464356111da565b6120f861048435611264565b6121046104a4356112ed565b6121106104c435611377565b61211c6104e435611401565b6121286105043561148b565b61213461052435611514565b6121406105443561159e565b61214c61056435611627565b612158610584356116b1565b6121646105a43561173b565b6121706105c4356117c5565b61217c6105e43561184f565b612188610604356118d9565b61219461062435611963565b6121a0610644356119ed565b6121ac61066435611a77565b6121b861068435611b01565b6121c46106a435611b8b565b6121d06106c435611c15565b6121dc6106e435611c9f565b6121e861070435611d29565b6121f461072435611db3565b61220061074435611e3d565b61220c61076435611ec7565b61010092818492358352837f30644e72e131a029b85045b68181585d97816a916871ca8d3c208c16d87cfd479101358103066101205260443561014052606435610160526084356101805260a4356101a0527f2d4d9aa7e302d9df41749d5507949d05dbea33fbb16c643b22f599a2be6df2e26101c0527f14bedd503c37ceb061d8ec60209fe345ce89830a19230301f076caff004d19266101e0527f0967032fcbf776d1afc985f88877f182d38480a653f2decaa9794cbc3bf3060c610200527f0e187847ad4c798374d0d6732bf501847dd68bc0e071241e0213bc7fc13db7ab610220527f304cfbd1e08a704a99f5e847d93f8c3caafddec46b7a0d379da69a4d112346a7610240527f1739c1b1a457a8c7313123d24d2f9192f896b7c63eea05a9d57f06547ad0cec8610260526080516102805260a0516102a0527f198e9393920d483a7260bfb731fb5d25f1aa493335a9e71297e485b7aef312c26102c0527f1800deef121f1e76426a00665e5c4479674322d4f75edadd46debd5cd992f6ed6102e05282610300917f090689d0585ff075ec9e99ad690c3395bc4b313370b38ef355acdadcd122975b83527f12c85ea5db8c6deb4aab71808dcb408fe3d1e7690c43d37b4ce6cc0166fa7daa610320528035610340520135610360527f0e56b7550dc4161423a5633f553aa7f107a00661979f233e9c5ef5956955f16a610380527f1340509a93c5cf6953828975bee1b5cea31b9369f6379c1484d1521e652a9a636103a0527f072759b754bb637b93cdd42dbc9abd92d61f7bc9f07b319d428bebaba85462776103c0527f269769c58ebbeb07e2e9ac7c07190734ab96fde6af74e37899bf9dce65a2ae4d6103e0528160086107cf195a01fa9051169056fea26469706673582212206e00745ab3b244c5cae051e9bc7233681605a779961d75eee105a7ee5ab5aba564736f6c634300080f0033",
  "linkReferences": {},
  "deployedLinkReferences": {}
}