{
  "_format": "hh-sol-artifact-1",
  "contractName": "Groth16Verifier",
  "sourceName": "contracts/Game_9_20Verifier.sol",
  "abi": [
    {
      "inputs": [
        {
          "internalType": "uint256[2]",
          "name": "_pA",
          "type": "uint256[2]"
        },
        {
          "internalType": "uint256[2][2]",
          "name": "_pB",
          "type": "uint256[2][2]"
        },
        {
          "internalType": "uint256[2]",
          "name": "_pC",
          "type": "uint256[2]"
        },
        {
          "internalType": "uint256[90]",
          "name": "_pubSignals",
          "type": "uint256[90]"
        }
      ],
      "name": "verifyProof",
      "outputs": [
        {
          "internalType": "bool",
          "name": "",
          "type": "bool"
        }
      ],
      "stateMutability": "view",
      "type": "function"
    }
  ],
  "bytecode": "0x6080806040523461001657613cd4908161001c8239f35b600080fdfe6080604052600436101561001257600080fd5b6000803560e01c634456e8b31461002857600080fd5b346104c057610c403660031901126104c057610043366104c3565b3660c4116104bc57610054366104d5565b90610c443681116104b857916104b4916104af6020959461040060405261007d610104356104e3565b610089610124356104e3565b610095610144356104e3565b6100a1610164356104e3565b6100ad610184356104e3565b6100b96101a4356104e3565b6100c56101c4356104e3565b6100d16101e4356104e3565b6100dd610204356104e3565b6100e9610224356104e3565b6100f5610244356104e3565b610101610264356104e3565b61010d610284356104e3565b6101196102a4356104e3565b6101256102c4356104e3565b6101316102e4356104e3565b61013d610304356104e3565b610149610324356104e3565b610155610344356104e3565b610161610364356104e3565b61016d610384356104e3565b6101796103a4356104e3565b6101856103c4356104e3565b6101916103e4356104e3565b61019d610404356104e3565b6101a9610424356104e3565b6101b5610444356104e3565b6101c1610464356104e3565b6101cd610484356104e3565b6101d96104a4356104e3565b6101e56104c4356104e3565b6101f16104e4356104e3565b6101fd610504356104e3565b610209610524356104e3565b610215610544356104e3565b610221610564356104e3565b61022d610584356104e3565b6102396105a4356104e3565b6102456105c4356104e3565b6102516105e4356104e3565b61025d610604356104e3565b610269610624356104e3565b610275610644356104e3565b610281610664356104e3565b61028d610684356104e3565b6102996106a4356104e3565b6102a56106c4356104e3565b6102b16106e4356104e3565b6102bd610704356104e3565b6102c9610724356104e3565b6102d5610744356104e3565b6102e1610764356104e3565b6102ed610784356104e3565b6102f96107a4356104e3565b6103056107c4356104e3565b6103116107e4356104e3565b61031d610804356104e3565b610329610824356104e3565b610335610844356104e3565b610341610864356104e3565b61034d610884356104e3565b6103596108a4356104e3565b6103656108c4356104e3565b6103716108e4356104e3565b61037d610904356104e3565b610389610924356104e3565b610395610944356104e3565b6103a1610964356104e3565b6103ad610984356104e3565b6103b96109a4356104e3565b6103c56109c4356104e3565b6103d16109e4356104e3565b6103dd610a04356104e3565b6103e9610a24356104e3565b6103f5610a44356104e3565b610401610a64356104e3565b61040d610a84356104e3565b610419610aa4356104e3565b610425610ac4356104e3565b610431610ae4356104e3565b61043d610b04356104e3565b610449610b24356104e3565b610455610b44356104e3565b610461610b64356104e3565b61046d610b84356104e3565b610479610ba4356104e3565b610485610bc4356104e3565b610491610be4356104e3565b61049d610c04356104e3565b6104a9610c24356104e3565b356104e3565b613596565b8152f35b8380fd5b5080fd5b80fd5b906004916044116104d057565b600080fd5b9060c491610104116104d057565b7f30644e72e131a029b85045b68181585d97816a916871ca8d3c208c16d87cfd47111561050c57565b6000805260206000f35b604051907f028b96cfd49b3cd07a6f95166bfc1c0f0c32a681215d20f5e103e668d484c1d882527f02e94a480a90469b848ccc09559e77d4f08fe0f605e74a9403893fa81a46bb6f6020830152604082019081526107cf196040836060816007855a01fa1561050c5760409260066080939284938451905260a05160608401525a01fa1561050c57565b604051907f0d433c84acb96a214ccf1705e8d13900966b9e68e1528341e65e4acb899255f382527f0257c1ef6b9546d43935bd38cf65a56529141a5430e58490ad0ddbed1df2b9af6020830152604082019081526107cf196040836060816007855a01fa1561050c5760409260066080939284938451905260a05160608401525a01fa1561050c57565b604051907f2029080ac6560acdfe32fdd03208535582a6f3118de5e423b4e78740eda96b6882527f1b312569b2f71681386c85891e4776c55b9ee286f725b6c8ffe13a38cfca51e16020830152604082019081526107cf196040836060816007855a01fa1561050c5760409260066080939284938451905260a05160608401525a01fa1561050c57565b604051907f0b714bdc16104de083d532615e13efdd2cc51bf78d610aa9c45eb64c6508a5b382527f286c65295d27dd65fe7cd2ed355c5ae158d40916bc4df56dea9337268b6eba216020830152604082019081526107cf196040836060816007855a01fa1561050c5760409260066080939284938451905260a05160608401525a01fa1561050c57565b604051907f06f40160f6dbc9664ea3d53b2feee6e23691f1c948877033916af8864e29d03482527f23ef14f881174ffa6c005f923ce7ac889d913e475d096a2c6730f69d82743fe56020830152604082019081526107cf196040836060816007855a01fa1561050c5760409260066080939284938451905260a05160608401525a01fa1561050c57565b604051907f08addd09917a5b49361f94a8968d2fac2c6790ca4de8861e103bb92b6dff8eb282527f10d098b59a53003e80f61aea53b44ee3561b5bd5785176d1e72f88f974a6e2596020830152604082019081526107cf196040836060816007855a01fa1561050c5760409260066080939284938451905260a05160608401525a01fa1561050c57565b604051907f11323fde12a7789e661770657ab748f105077387cc71086d3548d143fe9f08ac82527f06e11cd9201d647ffa57afea93be0bc3bedf8eb4d49ce4dfb5111f0c3266e3586020830152604082019081526107cf196040836060816007855a01fa1561050c5760409260066080939284938451905260a05160608401525a01fa1561050c57565b604051907f249804cda256df246896b69c4634a00123233a9c87929fae2f9c6b75deabd78182527f0e6d10de4283f8dd034db088edf57668058fb64b531a73714e0857647790ef736020830152604082019081526107cf196040836060816007855a01fa1561050c5760409260066080939284938451905260a05160608401525a01fa1561050c57565b604051907f041ad3861fd87e514dc49320677850913fda03ad3b0ee0f28dcbc8a1d0006c6c82527f199d35a052ba3ead3e2b419667cee000a57db39b4f0d5e3361631aaaad620a7e6020830152604082019081526107cf196040836060816007855a01fa1561050c5760409260066080939284938451905260a05160608401525a01fa1561050c57565b604051907f1f0dcd5306a155d883a71d1388a687baa2b6764673957697d387a4a43837cd2582527f180a883e49418cd131fa6ee34c72bc3946cf2bd6c59bc12cde00fdab49f9f85f6020830152604082019081526107cf196040836060816007855a01fa1561050c5760409260066080939284938451905260a05160608401525a01fa1561050c57565b604051907f160c427d66823de1abd5abc3ad149c027bc5b7273f4c655646293b45c3e4ce0e82527f157bfd30ebd3d5405691b68072aa63fa8ecff32a34bf435f3832f99edef0f1c06020830152604082019081526107cf196040836060816007855a01fa1561050c5760409260066080939284938451905260a05160608401525a01fa1561050c57565b604051907f1fdde7f37c346d1e5ca7df48587640e1bb9ddab0c9bfa954766eaa347e1c4c3a82527f10699af38729797295999f8af8daa5ae6cf0c8b4bae0e25e29243b94e4d6182a6020830152604082019081526107cf196040836060816007855a01fa1561050c5760409260066080939284938451905260a05160608401525a01fa1561050c57565b604051907f28dfc2ed27ecb2dee4b54bf5e579d8ae06a431ded25116d96b6a8042e761169082527f2e0842f459dd67f20323dedb06dc059894bacc093b93f1137610a8fea4c26b8b6020830152604082019081526107cf196040836060816007855a01fa1561050c5760409260066080939284938451905260a05160608401525a01fa1561050c57565b604051907f1275826549e72580befbd669bacb01aa4294c518d764b92ad4432d4126d9b73082527f22018e7441e2bf655496b8efa33fac2fd8557fc25a40591919611d9db58080dd6020830152604082019081526107cf196040836060816007855a01fa1561050c5760409260066080939284938451905260a05160608401525a01fa1561050c57565b604051907f2b883eb8072f45a3893b75028edd8b9b6f98389e8f10ef7d826b4fd379700ad682527f2c2b8978f5bf79e8e2c9e3c36d8a1593cf5970537d7f64659c7da82ad6b61ac16020830152604082019081526107cf196040836060816007855a01fa1561050c5760409260066080939284938451905260a05160608401525a01fa1561050c57565b604051907f2fa956385551e39676877d04918bbd60b45034b18ad724c501e3625cc8ca9fd482527f24ea769d3a82995e767b5b9d185ea30e5d339a8ee7bf5fdc50a1e2d988d10f676020830152604082019081526107cf196040836060816007855a01fa1561050c5760409260066080939284938451905260a05160608401525a01fa1561050c57565b604051907f0b940ec11724772f6ec95e727e500690a79fcd20140079bb9612dff6d516c76982527f1477b00380834adb94e2283c7d781f992ad0a9930829540a14486e720cf176206020830152604082019081526107cf196040836060816007855a01fa1561050c5760409260066080939284938451905260a05160608401525a01fa1561050c57565b604051907f2bdd6dd21f098a5b0239f55496a36ad9ee7228cf347be3d2d178d273de4a34e182527f2a16f984c9f5f69b4b821deeeb4900e4c8746a44ba444d71c016520e7b5f28136020830152604082019081526107cf196040836060816007855a01fa1561050c5760409260066080939284938451905260a05160608401525a01fa1561050c57565b604051907f21c56b262833e00cb4e75beb5f6b66ab35853ccc51e3eaa59068b0e71484175882527f1fd3b232bcd9e5f3c484857848c07b4d30e9eb438ca64e1b711430b76585c7ba6020830152604082019081526107cf196040836060816007855a01fa1561050c5760409260066080939284938451905260a05160608401525a01fa1561050c57565b604051907f10fa9bdde426449f8c0cc483eac5e06fc69b69d87f1b6f01582562fa70d0071a82527f11edeb86b61e90a6d881c2ff52617c356aced32c4124045aa6128fdc65873c526020830152604082019081526107cf196040836060816007855a01fa1561050c5760409260066080939284938451905260a05160608401525a01fa1561050c57565b604051907f2a7a2869cf28504db17da929cf16236601c9e36f9d69040016483e2d00da206482527f20fe24f22a455f4134772d5cc18b70b833a06fcfc6cb47e1fd54400ec6b5babf6020830152604082019081526107cf196040836060816007855a01fa1561050c5760409260066080939284938451905260a05160608401525a01fa1561050c57565b604051907f204cedd308ec5db70bbe56b2b8ef8431ef57c01ec02fc74051ddc07d3f26569782527ede22bb84b9ebc79b4b34ee1b34a7db9e1290e50e2ff15d26bf57f3ce9c67b26020830152604082019081526107cf196040836060816007855a01fa1561050c5760409260066080939284938451905260a05160608401525a01fa1561050c57565b604051907f102d678fa98ad47c10d780cc869ab797d066c23be3d18d2e78ed2346916bea4c82527f090d3625ab8106ff53d63382b466d323163f2acfb1eaaf7fd2b8410d18e9216a6020830152604082019081526107cf196040836060816007855a01fa1561050c5760409260066080939284938451905260a05160608401525a01fa1561050c57565b604051907f14aeeb66ee090ead1aee8871d6ec1ea7542dfa2fd781de15b39bdb0ad5318da982527f29141a863ae58a4a65a54e36ed6e13a89f368c72efe6cc87eb3b11843a04956d6020830152604082019081526107cf196040836060816007855a01fa1561050c5760409260066080939284938451905260a05160608401525a01fa1561050c57565b604051907f071248287894338e210046351fe86b19f8982fc7e68b7ea5a54d0034330b419382527f23e69a5234dad53f077460db7baef03feb5713f256fd25f97879d3107c7135ad6020830152604082019081526107cf196040836060816007855a01fa1561050c5760409260066080939284938451905260a05160608401525a01fa1561050c57565b604051907f0afaf972afcafc22c3b80d3959922a128cfed98261935efce393c0fa5435425482527f2d52836cfbe32549f21432c787b47f21859d6bab85328dc59c89362e544b7b556020830152604082019081526107cf196040836060816007855a01fa1561050c5760409260066080939284938451905260a05160608401525a01fa1561050c57565b604051907f22e6750009e6bc64f42c12aa4fd4ff5d34e64acb961b85e097db3338143699b082527e3a4b78634c64bcb426c3094144eff6a978bb499f393f0acd195d9bf3f3a57b6020830152604082019081526107cf196040836060816007855a01fa1561050c5760409260066080939284938451905260a05160608401525a01fa1561050c57565b604051907f2de628a5dd1580ead6a9cbf5f081ebed1e924011242c1185a9d14aa48f5e1c1682527f21fff3efd6198680250bddef29780b692107f5b7f4dcfbd8740c35072f1707776020830152604082019081526107cf196040836060816007855a01fa1561050c5760409260066080939284938451905260a05160608401525a01fa1561050c57565b604051907f2ce9d02a5fd4a38ffc9a4be50a3ee8955c11f3ab9a2d29f7e30919e103e5e96e82527f070690e0834dbd469bbc6586f449a21c1583b651df0feaf121b7951b06e13f5a6020830152604082019081526107cf196040836060816007855a01fa1561050c5760409260066080939284938451905260a05160608401525a01fa1561050c57565b604051907f2ede33901705b0cb07526880c8e5b2a3b02b276480ade38db5c3f57c9fdfe35282527f10f39f7ea9a25602b25212cc8997de790eef4be30e389f68d991de02741fd5d96020830152604082019081526107cf196040836060816007855a01fa1561050c5760409260066080939284938451905260a05160608401525a01fa1561050c57565b604051907f212c42b7c3fe6be419e67353e1529ceb6d5960c67046d041ce2f63de1589b7b082527f1c472be44df0f014437445c20db425fb2a11fa1109079f760c108d10c91f0b8c6020830152604082019081526107cf196040836060816007855a01fa1561050c5760409260066080939284938451905260a05160608401525a01fa1561050c57565b604051907f1b1567199c92fbddc816a7189a5c87001ecc70ce7872448f96f3355ec548c2f882527f16b1abdea69e4d9aad445b263911895c51623739c3632ce6ef33ab6a7bbb72ac6020830152604082019081526107cf196040836060816007855a01fa1561050c5760409260066080939284938451905260a05160608401525a01fa1561050c57565b604051907f18f6e3fb7d0ec7bf7ba58aa9b2c4b515abcce978922d6da721b4711b3ca84ce382527f2c9843b1c4b3d47829cc679607bc8d35b746905b17378c515628b4263b48dbd26020830152604082019081526107cf196040836060816007855a01fa1561050c5760409260066080939284938451905260a05160608401525a01fa1561050c57565b604051907f22dc0b8c751110912a5815fce96087fff00f03496dd5dbff674b9476960bf4ee82527f1d47f2841aa09ef4ec3c198e896d89860e8e4805842e9a2d2b77d668db7850d56020830152604082019081526107cf196040836060816007855a01fa1561050c5760409260066080939284938451905260a05160608401525a01fa1561050c57565b604051907f0eb848214008ce84715e310b6ce6621c52148d8e4d1a59e6a0082d319f7d70a782527f1f9aee99b70b897e9f164da24a9a2448b2af07108edb260aafc534af6d68c1786020830152604082019081526107cf196040836060816007855a01fa1561050c5760409260066080939284938451905260a05160608401525a01fa1561050c57565b604051907f08349fbb04cd1e3aa49b2c694039c7ecfe8dc877842584f279bbda30013cd18282527f0f06d6fbe7b9e3a613ebd20e7816c35e1cd7a179c631829915d5942384d9f7d16020830152604082019081526107cf196040836060816007855a01fa1561050c5760409260066080939284938451905260a05160608401525a01fa1561050c57565b604051907f113f1d70034220491ca4e0963ea55171c50c804b695105734d644fab755b9ddb82527f1282acfb45d4e52e0eb57bd0e4f14687b3bb52c031cf4e78b6c1454812d4ad486020830152604082019081526107cf196040836060816007855a01fa1561050c5760409260066080939284938451905260a05160608401525a01fa1561050c57565b604051907f2a3bedd5c0ac403eec88910cf7a7d341ef4c8d9f2fa0919cfce3107ca4f90a9682527f1161c8be476db61f146c71875e50449d00deb2f6848da4490222b25bdc4cd4226020830152604082019081526107cf196040836060816007855a01fa1561050c5760409260066080939284938451905260a05160608401525a01fa1561050c57565b604051907f281abeacaba4ca6061e14b7cae39065bd56305c434cf07cac054a42afc9e6aa382527f2c1e8d36b4d45297ce8f0fa01e27b10d0c9500371b32838b81e339011e188fa66020830152604082019081526107cf196040836060816007855a01fa1561050c5760409260066080939284938451905260a05160608401525a01fa1561050c57565b604051907f244198c73bf3bcdcbdd79b287cfb5f6430c73a81139b5277334651f3a1d75e5c82527f29383f3fff0882114469677b4ed9a934e424b546a1070405e1c494c8932936636020830152604082019081526107cf196040836060816007855a01fa1561050c5760409260066080939284938451905260a05160608401525a01fa1561050c57565b604051907f2372c00db8ab32cb0081c525e651dce6195413aa08a2375253e40f29f064d2e582527f1913d06b535fc46ebb5f8d65c448e6887c40354c821248486851fb192e1fe9526020830152604082019081526107cf196040836060816007855a01fa1561050c5760409260066080939284938451905260a05160608401525a01fa1561050c57565b604051907f285e81913a9802f3a475338aac7c454bd7a65a0e65f1346bb5149c5acc43bbc182527f03db6853cc896283b246a1f74f9b8180cdb406faeb1ad56acbfdc337e90c9a2c6020830152604082019081526107cf196040836060816007855a01fa1561050c5760409260066080939284938451905260a05160608401525a01fa1561050c57565b604051907f0e3bc6ef6854b533bce9bdd0aedcbbdd1b0344318e92513c4478631825ce1b0082527f1ed2329412e25653db08cb6d53ddc3a4201489f2850db5414cb11ad6377fccc26020830152604082019081526107cf196040836060816007855a01fa1561050c5760409260066080939284938451905260a05160608401525a01fa1561050c57565b604051907f09991b7c2595049d7536d42b3df7a6c5e8940ff869d8a83ed0896bc903fc078582527f29409a0f2015a2ee104fbd6ad83f642a37b26e43cc542356b5b6f4a68b7196b66020830152604082019081526107cf196040836060816007855a01fa1561050c5760409260066080939284938451905260a05160608401525a01fa1561050c57565b604051907f105ced4cddfffc167e0640b14af05e50f6565492229f2fe4033c128c90e18a8a82527f2e2f8582c1d8a63a4cafc8bac0848f780490c5cb001b6a0b4b886e95485c64936020830152604082019081526107cf196040836060816007855a01fa1561050c5760409260066080939284938451905260a05160608401525a01fa1561050c57565b604051907f23f41295ba6184b9344b6aacfd0ec8af6a215ae2f3809bc95c0b2b7833525c3f82527f1ced5549f5bea0bd9dbe80931df99d83736df5804cbc37cc2daa5012016d667c6020830152604082019081526107cf196040836060816007855a01fa1561050c5760409260066080939284938451905260a05160608401525a01fa1561050c57565b604051907f19343e2053d1397ac236dd5ba0fbd5d59e7b3da22d91e1f4c20624268a36bd2782527f1d2bc83fcfd56faaf68bc21c80db5be9e2cdf3d5047df06625925161038269d16020830152604082019081526107cf196040836060816007855a01fa1561050c5760409260066080939284938451905260a05160608401525a01fa1561050c57565b604051907f198e5639ff7cfd9c57279492193eeeae1b61504eb2828010194569ecfa2a2ead82527f1d3fb440e72e4667b5e7c2e19589fa8f0f9f5330b6c262ab8b0531f99cb2d6f06020830152604082019081526107cf196040836060816007855a01fa1561050c5760409260066080939284938451905260a05160608401525a01fa1561050c57565b604051907f2715c9c9bad0d267b5615f44a77ed35a9813563f0515f8b33d1711d36dbb9d9182527f08f5afadec7525ab1a671a70d47ee7c5007388c5380d130713015d12295647cf6020830152604082019081526107cf196040836060816007855a01fa1561050c5760409260066080939284938451905260a05160608401525a01fa1561050c57565b604051907f14c30c9ecc0d3ab517568bdd5af9d6380f8e0d0d39e9e5822a968f1311c7445182527f2c9a6adc78083ad99140716404d210b4c71d1d27960799cb2c1b083a9139a5986020830152604082019081526107cf196040836060816007855a01fa1561050c5760409260066080939284938451905260a05160608401525a01fa1561050c57565b604051907f0724db4c396f0aa7128c55a2f9dfd606e473868b2eca776f0e1f49d244c3ef8982527f2e8110df9519d7d87c5073c8c8e452af492ffdb1250e17989e240b1e7dc7c5566020830152604082019081526107cf196040836060816007855a01fa1561050c5760409260066080939284938451905260a05160608401525a01fa1561050c57565b604051907f2dcf297574b7e5f82c4ca81bb328c02cc2214006c8972b9826237059de8cfce082527f299702f1824d05b59ea9684ea623b694860666d53048e265420544983993d8b76020830152604082019081526107cf196040836060816007855a01fa1561050c5760409260066080939284938451905260a05160608401525a01fa1561050c57565b604051907f018969e387a882c5a255fd37310e46fab607d433d00be65872a3d170f59df07982527f03f420b40c793c43a6b3f5a8f025eaf29dee1d61496d9a332558fd1cc0965c756020830152604082019081526107cf196040836060816007855a01fa1561050c5760409260066080939284938451905260a05160608401525a01fa1561050c57565b604051907f10e27e94cc7eedd50ca765aaf2c0c47e0ff80baf7e6729f1c29e2ec018c13b3282527f0d6740f53a7f4df3e6ab4c046c3d3afe02426b926a23357786f0e18e883e2c7c6020830152604082019081526107cf196040836060816007855a01fa1561050c5760409260066080939284938451905260a05160608401525a01fa1561050c57565b604051907f025b65da00a1545fe3572db43b58b442831f7dd543062a8502022ced0980c66b82527f151f7bf956edad99141cb77867e3019c283cd31cbd28e196f7dc8298018328026020830152604082019081526107cf196040836060816007855a01fa1561050c5760409260066080939284938451905260a05160608401525a01fa1561050c57565b604051907f29abb2abf7ad950d3ecf2a141564f26bae4e7bb17ce92cefde01137797f880af82527f2c42216d6e5ead9d3fce11acbf012405195867ef767f2a39b79e2b70810d40676020830152604082019081526107cf196040836060816007855a01fa1561050c5760409260066080939284938451905260a05160608401525a01fa1561050c57565b604051907f0f5a63e60705890d17b8b96cf6951466bd19c68f3cf96896a0ff159272a0a03082527f0926052a7d2213b17e357c53440e2c95864c8c7d534f4249b901e6f1dd5344926020830152604082019081526107cf196040836060816007855a01fa1561050c5760409260066080939284938451905260a05160608401525a01fa1561050c57565b604051907f13a621046e5d7618eb52d2e7e376c44ed13f10090cccc5fb6553ea85661e67f882527f290165e8f8fa20cd90224e645a673909fef8e7b3040ebeeaa3dea62d512f687a6020830152604082019081526107cf196040836060816007855a01fa1561050c5760409260066080939284938451905260a05160608401525a01fa1561050c57565b604051907f12b9b045e73ee29450522effe08eb26675281ea8bed4fbb49e1cb022fc6986b282527f2b10506524719ea5f37fedb4d27294aa040b6f6805af6d71c3093ea2bc927ffe6020830152604082019081526107cf196040836060816007855a01fa1561050c5760409260066080939284938451905260a05160608401525a01fa1561050c57565b604051907f04c83d8d744945fff2d6361dca1d970aaf1a0fea4a82437b3c437b145083079482527f2617e81f136a1dc8ee7a4d5c2be440b89c63fa43f960d66ed02f43044b32018f6020830152604082019081526107cf196040836060816007855a01fa1561050c5760409260066080939284938451905260a05160608401525a01fa1561050c57565b604051907f0ec43e2a2f1c03f26905622243498264de7ea45d7a27b723558b7659ca28f4df82527f056d25fbb3ec0c87b8a8e589f0f6dd89ab0b8aff297d3d5af532d287c04387b36020830152604082019081526107cf196040836060816007855a01fa1561050c5760409260066080939284938451905260a05160608401525a01fa1561050c57565b604051907f066dee5d0e6ca428617db9f03d50ffc30d91e8517b261e2ad7e337283179545d82527f1ca676da45765e69992c5bc9d9f9cd000fe64545e3423b2e4bfb554d7adc91e26020830152604082019081526107cf196040836060816007855a01fa1561050c5760409260066080939284938451905260a05160608401525a01fa1561050c57565b604051907f128e5b05d5c9b90bebdd88614dbd3fd49304e29490e848628e9a2bbe4e900fb482527f29d6c01a892f2dbe6b3ee542f5480961033b13760306da686a77f5506a8a1a666020830152604082019081526107cf196040836060816007855a01fa1561050c5760409260066080939284938451905260a05160608401525a01fa1561050c57565b604051907f1641bf3dd92224f34b6c2baf00feff3de8931dfe6279a724d588ed5307b51fc882527f27fd3d113d2b364bd3c1f9eb1228fd440aff20908cffb8866a49f7a7a6423dd46020830152604082019081526107cf196040836060816007855a01fa1561050c5760409260066080939284938451905260a05160608401525a01fa1561050c57565b604051907f04df990fb785908771d1721911dc4c01dc7284caf23c8b4206aaeaf4721ce22682527f1307b9c851fc93e4830ea05f8d8a6ebdba0c01504dc43c8d3500b256af0a8c166020830152604082019081526107cf196040836060816007855a01fa1561050c5760409260066080939284938451905260a05160608401525a01fa1561050c57565b604051907f0cba752b147d1b766efc44b20cfb213a94d37ecc17998fe3cf7997bb586eb57582527f267dc475539ab891ced00ab06b1ee598927aa82fe2b89b5e5d2e60b1b3568ad56020830152604082019081526107cf196040836060816007855a01fa1561050c5760409260066080939284938451905260a05160608401525a01fa1561050c57565b604051907f0ec9654f506389bbc58d279d5a0026550deb5336fed9851c430b2d9b88bbb65582527f0fb282f9ceacb41440372f00131d5f4c1075595066816d3a71641baab5424a976020830152604082019081526107cf196040836060816007855a01fa1561050c5760409260066080939284938451905260a05160608401525a01fa1561050c57565b604051907f2fbd1511e5eed2cf25872690a4ad34701ec7724606068126985ce38ccd04e46682527f04d79eb92197e098a174adf2d84fb13637376653fed39965e4e39b5147e9c1136020830152604082019081526107cf196040836060816007855a01fa1561050c5760409260066080939284938451905260a05160608401525a01fa1561050c57565b604051907f2fafc5509d956463f40c6f45442121adf34bc4b3306a495fa35dd45f82f1eacc82527f1eccf6e2664569d75f9d8b26ae0067ba6dc8f3ee463a5952fd5b4b3ea46a963d6020830152604082019081526107cf196040836060816007855a01fa1561050c5760409260066080939284938451905260a05160608401525a01fa1561050c57565b604051907e2bf212902f301f791295d2931cb0d1a13b8d5fa7f871194cf171877ec83c1182527f10cd197f5bd42f70ac47aef43e04a52a42f38a9dcc0647f464e551d5fbe3983c6020830152604082019081526107cf196040836060816007855a01fa1561050c5760409260066080939284938451905260a05160608401525a01fa1561050c57565b604051907f18f69d1c6c36c1f5eed389cf3a7a09fb7d8470feaaea281181ff736f16f1241a82527f19e70e09907bc48517312f7300488aedf6434bac79e9e67f00df25aa29eb74546020830152604082019081526107cf196040836060816007855a01fa1561050c5760409260066080939284938451905260a05160608401525a01fa1561050c57565b604051907f17a8e37f755d73eb0d015104b5f7213158fbb07a72f7afde8cb5323564dede0a82527f29db9dbd684e61df77569592be36ed1ce937d9e68c2077a46dfbdad147bd5dc86020830152604082019081526107cf196040836060816007855a01fa1561050c5760409260066080939284938451905260a05160608401525a01fa1561050c57565b604051907f17a2efe9fe7e19491dd197ddf8ea3d12d37db04233d09485371c4a745b2ec71782527f12dd9dc557cf0b0b85ccf884cbfd6ce461efe07673a3083b90e07666c8992b3a6020830152604082019081526107cf196040836060816007855a01fa1561050c5760409260066080939284938451905260a05160608401525a01fa1561050c57565b604051907f06b5eecb231235ac31942c9933cd882ea3d154faf97bef0da40924d5507ea3e582527f1764654253a5886323a61d2c7c680986fe72ed328cb61ea7e36e4029f3ec4ccf6020830152604082019081526107cf196040836060816007855a01fa1561050c5760409260066080939284938451905260a05160608401525a01fa1561050c57565b604051907f24adc3040d7bde4f2fa745102369e63c214d9fed98ca65cf567625481463d54f82527f1e3977638928cf21bc867474638a4a0a881fafdc9b803516cf1f6161952f6d096020830152604082019081526107cf196040836060816007855a01fa1561050c5760409260066080939284938451905260a05160608401525a01fa1561050c57565b604051907f0a631742eb6d8b48c035b2115e4cfddf5a4f4af6fb7c96293b918848b35aa09482527f169c02ca484a88706ac742d7defd83c44ef779fde0d3a95b63f68131aa49cd6d6020830152604082019081526107cf196040836060816007855a01fa1561050c5760409260066080939284938451905260a05160608401525a01fa1561050c57565b604051907f169db3d232f4e7ee1522fc4229f2afa902a0cceb23bf8ebdb14cdc7d545b575e82527f11b6ab9a8a21df69bd6d003745052994cfbf50bd35da0a3ece0b786d24f86a296020830152604082019081526107cf196040836060816007855a01fa1561050c5760409260066080939284938451905260a05160608401525a01fa1561050c57565b604051907f26cc42020e57715211f2cc4bfb311d888bb5889a99075750bf7c32c51bfd304282527f16b70f0b87b33982b8374e69f392dcfb7baa89a3dd485bb752ced1a2d6558b896020830152604082019081526107cf196040836060816007855a01fa1561050c5760409260066080939284938451905260a05160608401525a01fa1561050c57565b604051907f22082301b34214819be2e40fc9e9c050cebcc2e757110087fd6b4dc979880e6682527f1395c57fe3a8481bac4850a3d72330c27e98c7f7eaa999e6d2ed215f9092ef476020830152604082019081526107cf196040836060816007855a01fa1561050c5760409260066080939284938451905260a05160608401525a01fa1561050c57565b604051907f10b0dbad499802ce5716d84f1afff430d0cfb946888dce6896ef4c7371d04b2b82527f2cba1c25d5df61d67f90d60c57806adc8ad6d60d53260a5077506932fa533a1b6020830152604082019081526107cf196040836060816007855a01fa1561050c5760409260066080939284938451905260a05160608401525a01fa1561050c57565b604051907f2db2cd4237183a88090aedfa9be85b37451a3716f6a160558f144e46b9a6588382527f0482753e409ff0beb53fde2a57cf31b8ee7af70d7df2f2d22aa507ba335003796020830152604082019081526107cf196040836060816007855a01fa1561050c5760409260066080939284938451905260a05160608401525a01fa1561050c57565b604051907f25a1aa540a0f8d3d39e8b841be42d9f0745b8ec540403eb95fcb17851f15870182527f0e8fb7f0dacdda63c3e8fed86dd97b2e44871e0d675845862d6fc72c5bd12e8d6020830152604082019081526107cf196040836060816007855a01fa1561050c5760409260066080939284938451905260a05160608401525a01fa1561050c57565b604051907f11308ebca2526fc61bbd5d09295f85ed3c09f17516e1d6ec10176500e95ea9bf82527f0bfd4d24be44ce6ea5d81b0b08c07a36826a687c5f626735c18f8bbe8321acc26020830152604082019081526107cf196040836060816007855a01fa1561050c5760409260066080939284938451905260a05160608401525a01fa1561050c57565b604051907f2a20ce525e5196f098e21419569a8a4df5afd3f87f5b3eb4c96cb71fa2cc2bdf82527f1e2147cb0f11320d1addd1b24d82d66708d3972c9796fed1d87a1ee6ea116dd06020830152604082019081526107cf196040836060816007855a01fa1561050c5760409260066080939284938451905260a05160608401525a01fa1561050c57565b604051907f24318a0368a94bf26f11a0732e83e2027fa4658e0d4b0ca98cdb4cc7bf30e5d882527f2657119c2a9bd0edb5244f863842f0e78344fd6563890f8142c9416f4b2f45926020830152604082019081526107cf196040836060816007855a01fa1561050c5760409260066080939284938451905260a05160608401525a01fa1561050c57565b604051907e7197b9570d3e702e1e234356b93e04b1959a9926f7b7b8ed4c16a18af99c3c82527f1d5957fb7178de52291b86b62f21bcbbfdb92ad6601bc80683e83cd7847dc3ec6020830152604082019081526107cf196040836060816007855a01fa1561050c5760409260066080939284938451905260a05160608401525a01fa1561050c57565b604051907f15e786cc80b07cf0400a395574b234e7ff2c98ce18e0b3d4b9e40bc5b563727282527f27317c65d61b87cc251952ba6cffa143b900b6daf10a1b91d1c68be903337d066020830152604082019081526107cf196040836060816007855a01fa1561050c5760409260066080939284938451905260a05160608401525a01fa1561050c57565b604051907f1312484bc68fc853252c902bc1a38ec6be963d9a2ce7b4839da739138eacd6c782527f2eb0c76ae81777cdc6e9cd56ba7606ca8eea8dd213ce099accc57ef4e1586c456020830152604082019081526107cf196040836060816007855a01fa1561050c5760409260066080939284938451905260a05160608401525a01fa1561050c57565b604051907f2c8d5c6a094bbd5e1e8233e29ebcc6f6ed0004f4c9c24c3cb794a869dade4b3582527f071c27465131fe810ba7afda37b8c878072fe838948410b15fe8049bc3881bd36020830152604082019081526107cf196040836060816007855a01fa1561050c5760409260066080939284938451905260a05160608401525a01fa1561050c57565b604051907f26ced75b671c39969c7e930dd4a43e57c40adb5eb49a16030601fceb256edf4282527f1d6a60a5bc93bc6b1f8fcc98d42937d9f057579f3a6c0183cc48b9b0f8f9619a6020830152604082019081526107cf196040836060816007855a01fa1561050c5760409260066080939284938451905260a05160608401525a01fa1561050c57565b6020907f27011d7f656f6082db382bb6c14c4c1d9b26df68d97ac3f05acf5a64e5e105a36080527f221bcff785ee05bcf72c0fbf33a79f22aa95d107d20c4e78acb8693b324df53b60a0526135ed61010435610516565b6135f9610124356105a0565b6136056101443561062a565b613611610164356106b4565b61361d6101843561073e565b6136296101a4356107c8565b6136356101c435610852565b6136416101e4356108dc565b61364d61020435610966565b613659610224356109f0565b61366561024435610a7a565b61367161026435610b04565b61367d61028435610b8e565b6136896102a435610c18565b6136956102c435610ca2565b6136a16102e435610d2c565b6136ad61030435610db6565b6136b961032435610e40565b6136c561034435610eca565b6136d161036435610f54565b6136dd61038435610fde565b6136e96103a435611068565b6136f56103c4356110f1565b6137016103e43561117b565b61370d61040435611205565b6137196104243561128f565b61372561044435611319565b613731610464356113a2565b61373d6104843561142c565b6137496104a4356114b6565b6137556104c435611540565b6137616104e4356115ca565b61376d61050435611654565b613779610524356116de565b61378561054435611768565b613791610564356117f2565b61379d6105843561187c565b6137a96105a435611906565b6137b56105c435611990565b6137c16105e435611a1a565b6137cd61060435611aa4565b6137d961062435611b2e565b6137e561064435611bb8565b6137f161066435611c42565b6137fd61068435611ccc565b6138096106a435611d56565b6138156106c435611de0565b6138216106e435611e6a565b61382d61070435611ef4565b61383961072435611f7e565b61384561074435612008565b61385161076435612092565b61385d6107843561211c565b6138696107a4356121a6565b6138756107c435612230565b6138816107e4356122ba565b61388d61080435612344565b613899610824356123ce565b6138a561084435612458565b6138b1610864356124e2565b6138bd6108843561256c565b6138c96108a4356125f6565b6138d56108c435612680565b6138e16108e43561270a565b6138ed61090435612794565b6138f96109243561281e565b613905610944356128a8565b61391161096435612932565b61391d610984356129bc565b6139296109a435612a46565b6139356109c435612acf565b6139416109e435612b59565b61394d610a0435612be3565b613959610a2435612c6d565b613965610a4435612cf7565b613971610a6435612d81565b61397d610a8435612e0b565b613989610aa435612e95565b613995610ac435612f1f565b6139a1610ae435612fa9565b6139ad610b0435613033565b6139b9610b24356130bd565b6139c5610b4435613147565b6139d1610b64356131d1565b6139dd610b843561325b565b6139e9610ba4356132e5565b6139f5610bc43561336e565b613a01610be4356133f8565b613a0d610c0435613482565b613a19610c243561350c565b61010092818492358352837f30644e72e131a029b85045b68181585d97816a916871ca8d3c208c16d87cfd479101358103066101205260443561014052606435610160526084356101805260a4356101a0527f2d4d9aa7e302d9df41749d5507949d05dbea33fbb16c643b22f599a2be6df2e26101c0527f14bedd503c37ceb061d8ec60209fe345ce89830a19230301f076caff004d19266101e0527f0967032fcbf776d1afc985f88877f182d38480a653f2decaa9794cbc3bf3060c610200527f0e187847ad4c798374d0d6732bf501847dd68bc0e071241e0213bc7fc13db7ab610220527f304cfbd1e08a704a99f5e847d93f8c3caafddec46b7a0d379da69a4d112346a7610240527f1739c1b1a457a8c7313123d24d2f9192f896b7c63eea05a9d57f06547ad0cec8610260526080516102805260a0516102a0527f198e9393920d483a7260bfb731fb5d25f1aa493335a9e71297e485b7aef312c26102c0527f1800deef121f1e76426a00665e5c4479674322d4f75edadd46debd5cd992f6ed6102e05282610300917f090689d0585ff075ec9e99ad690c3395bc4b313370b38ef355acdadcd122975b83527f12c85ea5db8c6deb4aab71808dcb408fe3d1e7690c43d37b4ce6cc0166fa7daa610320528035610340520135610360527f2a7d37c54ad398257e2f7553268bf2b0de8e6b196bcc0ed0845398732acde281610380527f2ca806936175f5d00df109b3259eb0d37b0c8ee4803c36b824e49ef6cd80b7c96103a0527f1f5616ad294af9f74520b2c4a54e2ff3d856924e21dc4386bbdb6dff2c10d1836103c0527f198195e33b895f75935c67a80d271749865f670b75fef0924653a2fc4a7478256103e0528160086107cf195a01fa9051169056fea26469706673582212208544d20706cd9d78939124bdc644fe7801237c90ed3e9a308df2d01ab055dd4f64736f6c634300080f0033",
  "linkReferences": {},
  "deployedLinkReferences": {}
}