{
  "_format": "hh-sol-artifact-1",
  "contractName": "AnybodyProblem",
  "sourceName": "contracts/AnybodyProblem.sol",
  "abi": [
    {
      "inputs": [
        {
          "internalType": "address payable",
          "name": "proceedRecipient_",
          "type": "address"
        },
        {
          "internalType": "address payable",
          "name": "speedruns_",
          "type": "address"
        },
        {
          "internalType": "address",
          "name": "externalMetadata_",
          "type": "address"
        },
        {
          "internalType": "address[]",
          "name": "verifiers_",
          "type": "address[]"
        },
        {
          "internalType": "uint256[]",
          "name": "verifiersTicks",
          "type": "uint256[]"
        },
        {
          "internalType": "uint256[]",
          "name": "verifiersBodies",
          "type": "uint256[]"
        }
      ],
      "stateMutability": "nonpayable",
      "type": "constructor"
    },
    {
      "anonymous": false,
      "inputs": [
        {
          "indexed": true,
          "internalType": "address",
          "name": "to",
          "type": "address"
        },
        {
          "indexed": true,
          "internalType": "bool",
          "name": "success",
          "type": "bool"
        },
        {
          "indexed": false,
          "internalType": "bytes",
          "name": "returnData",
          "type": "bytes"
        },
        {
          "indexed": false,
          "internalType": "uint256",
          "name": "amount",
          "type": "uint256"
        }
      ],
      "name": "EthMoved",
      "type": "event"
    },
    {
      "anonymous": false,
      "inputs": [
        {
          "indexed": false,
          "internalType": "uint256",
          "name": "runId",
          "type": "uint256"
        },
        {
          "indexed": false,
          "internalType": "uint256",
          "name": "level",
          "type": "uint256"
        },
        {
          "indexed": false,
          "internalType": "bytes32",
          "name": "seed",
          "type": "bytes32"
        },
        {
          "indexed": false,
          "internalType": "uint256",
          "name": "day",
          "type": "uint256"
        }
      ],
      "name": "LevelCreated",
      "type": "event"
    },
    {
      "anonymous": false,
      "inputs": [
        {
          "indexed": true,
          "internalType": "address",
          "name": "player",
          "type": "address"
        },
        {
          "indexed": true,
          "internalType": "uint256",
          "name": "runId",
          "type": "uint256"
        },
        {
          "indexed": true,
          "internalType": "uint256",
          "name": "level",
          "type": "uint256"
        },
        {
          "indexed": false,
          "internalType": "uint256",
          "name": "time",
          "type": "uint256"
        },
        {
          "indexed": false,
          "internalType": "uint256",
          "name": "day",
          "type": "uint256"
        }
      ],
      "name": "LevelSolved",
      "type": "event"
    },
    {
      "anonymous": false,
      "inputs": [
        {
          "indexed": true,
          "internalType": "address",
          "name": "previousOwner",
          "type": "address"
        },
        {
          "indexed": true,
          "internalType": "address",
          "name": "newOwner",
          "type": "address"
        }
      ],
      "name": "OwnershipTransferred",
      "type": "event"
    },
    {
      "anonymous": false,
      "inputs": [
        {
          "indexed": false,
          "internalType": "uint256",
          "name": "runId",
          "type": "uint256"
        },
        {
          "indexed": false,
          "internalType": "uint256",
          "name": "day",
          "type": "uint256"
        },
        {
          "indexed": false,
          "internalType": "bytes32",
          "name": "seed",
          "type": "bytes32"
        }
      ],
      "name": "RunCreated",
      "type": "event"
    },
    {
      "anonymous": false,
      "inputs": [
        {
          "indexed": true,
          "internalType": "address",
          "name": "player",
          "type": "address"
        },
        {
          "indexed": true,
          "internalType": "uint256",
          "name": "runId",
          "type": "uint256"
        },
        {
          "indexed": false,
          "internalType": "uint256",
          "name": "accumulativeTime",
          "type": "uint256"
        },
        {
          "indexed": false,
          "internalType": "uint256",
          "name": "day",
          "type": "uint256"
        }
      ],
      "name": "RunSolved",
      "type": "event"
    },
    {
      "stateMutability": "nonpayable",
      "type": "fallback"
    },
    {
      "inputs": [],
      "name": "FIRST_SUNDAY_AT_6_PM_UTC",
      "outputs": [
        {
          "internalType": "uint256",
          "name": "",
          "type": "uint256"
        }
      ],
      "stateMutability": "view",
      "type": "function"
    },
    {
      "inputs": [],
      "name": "LEVELS",
      "outputs": [
        {
          "internalType": "uint256",
          "name": "",
          "type": "uint256"
        }
      ],
      "stateMutability": "view",
      "type": "function"
    },
    {
      "inputs": [],
      "name": "SECONDS_IN_A_DAY",
      "outputs": [
        {
          "internalType": "uint256",
          "name": "",
          "type": "uint256"
        }
      ],
      "stateMutability": "view",
      "type": "function"
    },
    {
      "inputs": [],
      "name": "SECONDS_IN_A_WEEK",
      "outputs": [
        {
          "internalType": "uint256",
          "name": "",
          "type": "uint256"
        }
      ],
      "stateMutability": "view",
      "type": "function"
    },
    {
      "inputs": [
        {
          "internalType": "uint256",
          "name": "runId",
          "type": "uint256"
        },
        {
          "internalType": "uint256[]",
          "name": "tickCounts",
          "type": "uint256[]"
        },
        {
          "internalType": "uint256[2][]",
          "name": "a",
          "type": "uint256[2][]"
        },
        {
          "internalType": "uint256[2][2][]",
          "name": "b",
          "type": "uint256[2][2][]"
        },
        {
          "internalType": "uint256[2][]",
          "name": "c",
          "type": "uint256[2][]"
        },
        {
          "internalType": "uint256[][]",
          "name": "input",
          "type": "uint256[][]"
        }
      ],
      "name": "batchSolve",
      "outputs": [],
      "stateMutability": "payable",
      "type": "function"
    },
    {
      "inputs": [
        {
          "internalType": "uint256[]",
          "name": "input",
          "type": "uint256[]"
        }
      ],
      "name": "convertTo102",
      "outputs": [
        {
          "internalType": "uint256[102]",
          "name": "",
          "type": "uint256[102]"
        }
      ],
      "stateMutability": "pure",
      "type": "function"
    },
    {
      "inputs": [
        {
          "internalType": "uint256[]",
          "name": "input",
          "type": "uint256[]"
        }
      ],
      "name": "convertTo112",
      "outputs": [
        {
          "internalType": "uint256[112]",
          "name": "",
          "type": "uint256[112]"
        }
      ],
      "stateMutability": "pure",
      "type": "function"
    },
    {
      "inputs": [
        {
          "internalType": "uint256[]",
          "name": "input",
          "type": "uint256[]"
        }
      ],
      "name": "convertTo22",
      "outputs": [
        {
          "internalType": "uint256[22]",
          "name": "",
          "type": "uint256[22]"
        }
      ],
      "stateMutability": "pure",
      "type": "function"
    },
    {
      "inputs": [
        {
          "internalType": "uint256[]",
          "name": "input",
          "type": "uint256[]"
        }
      ],
      "name": "convertTo32",
      "outputs": [
        {
          "internalType": "uint256[32]",
          "name": "",
          "type": "uint256[32]"
        }
      ],
      "stateMutability": "pure",
      "type": "function"
    },
    {
      "inputs": [
        {
          "internalType": "uint256[]",
          "name": "input",
          "type": "uint256[]"
        }
      ],
      "name": "convertTo42",
      "outputs": [
        {
          "internalType": "uint256[42]",
          "name": "",
          "type": "uint256[42]"
        }
      ],
      "stateMutability": "pure",
      "type": "function"
    },
    {
      "inputs": [
        {
          "internalType": "uint256[]",
          "name": "input",
          "type": "uint256[]"
        }
      ],
      "name": "convertTo52",
      "outputs": [
        {
          "internalType": "uint256[52]",
          "name": "",
          "type": "uint256[52]"
        }
      ],
      "stateMutability": "pure",
      "type": "function"
    },
    {
      "inputs": [
        {
          "internalType": "uint256[]",
          "name": "input",
          "type": "uint256[]"
        }
      ],
      "name": "convertTo62",
      "outputs": [
        {
          "internalType": "uint256[62]",
          "name": "",
          "type": "uint256[62]"
        }
      ],
      "stateMutability": "pure",
      "type": "function"
    },
    {
      "inputs": [
        {
          "internalType": "uint256[]",
          "name": "input",
          "type": "uint256[]"
        }
      ],
      "name": "convertTo72",
      "outputs": [
        {
          "internalType": "uint256[72]",
          "name": "",
          "type": "uint256[72]"
        }
      ],
      "stateMutability": "pure",
      "type": "function"
    },
    {
      "inputs": [
        {
          "internalType": "uint256[]",
          "name": "input",
          "type": "uint256[]"
        }
      ],
      "name": "convertTo82",
      "outputs": [
        {
          "internalType": "uint256[82]",
          "name": "",
          "type": "uint256[82]"
        }
      ],
      "stateMutability": "pure",
      "type": "function"
    },
    {
      "inputs": [
        {
          "internalType": "uint256[]",
          "name": "input",
          "type": "uint256[]"
        }
      ],
      "name": "convertTo92",
      "outputs": [
        {
          "internalType": "uint256[92]",
          "name": "",
          "type": "uint256[92]"
        }
      ],
      "stateMutability": "pure",
      "type": "function"
    },
    {
      "inputs": [],
      "name": "currentDay",
      "outputs": [
        {
          "internalType": "uint256",
          "name": "",
          "type": "uint256"
        }
      ],
      "stateMutability": "view",
      "type": "function"
    },
    {
      "inputs": [
        {
          "internalType": "uint256",
          "name": "runId",
          "type": "uint256"
        }
      ],
      "name": "currentLevel",
      "outputs": [
        {
          "internalType": "uint256",
          "name": "",
          "type": "uint256"
        }
      ],
      "stateMutability": "view",
      "type": "function"
    },
    {
      "inputs": [],
      "name": "currentWeek",
      "outputs": [
        {
          "internalType": "uint256",
          "name": "",
          "type": "uint256"
        }
      ],
      "stateMutability": "view",
      "type": "function"
    },
    {
      "inputs": [],
      "name": "externalMetadata",
      "outputs": [
        {
          "internalType": "address",
          "name": "",
          "type": "address"
        }
      ],
      "stateMutability": "view",
      "type": "function"
    },
    {
      "inputs": [
        {
          "components": [
            {
              "internalType": "uint256",
              "name": "bodyIndex",
              "type": "uint256"
            },
            {
              "internalType": "uint256",
              "name": "px",
              "type": "uint256"
            },
            {
              "internalType": "uint256",
              "name": "py",
              "type": "uint256"
            },
            {
              "internalType": "uint256",
              "name": "vx",
              "type": "uint256"
            },
            {
              "internalType": "uint256",
              "name": "vy",
              "type": "uint256"
            },
            {
              "internalType": "uint256",
              "name": "radius",
              "type": "uint256"
            },
            {
              "internalType": "bytes32",
              "name": "seed",
              "type": "bytes32"
            }
          ],
          "internalType": "struct AnybodyProblem.Body",
          "name": "bodyData",
          "type": "tuple"
        },
        {
          "internalType": "uint256[]",
          "name": "input",
          "type": "uint256[]"
        },
        {
          "internalType": "uint256",
          "name": "i",
          "type": "uint256"
        }
      ],
      "name": "extractBodyData",
      "outputs": [
        {
          "components": [
            {
              "internalType": "uint256",
              "name": "bodyIndex",
              "type": "uint256"
            },
            {
              "internalType": "uint256",
              "name": "px",
              "type": "uint256"
            },
            {
              "internalType": "uint256",
              "name": "py",
              "type": "uint256"
            },
            {
              "internalType": "uint256",
              "name": "vx",
              "type": "uint256"
            },
            {
              "internalType": "uint256",
              "name": "vy",
              "type": "uint256"
            },
            {
              "internalType": "uint256",
              "name": "radius",
              "type": "uint256"
            },
            {
              "internalType": "bytes32",
              "name": "seed",
              "type": "bytes32"
            }
          ],
          "internalType": "struct AnybodyProblem.Body",
          "name": "",
          "type": "tuple"
        }
      ],
      "stateMutability": "pure",
      "type": "function"
    },
    {
      "inputs": [
        {
          "internalType": "uint256",
          "name": "",
          "type": "uint256"
        },
        {
          "internalType": "uint256",
          "name": "",
          "type": "uint256"
        }
      ],
      "name": "fastestByDay",
      "outputs": [
        {
          "internalType": "uint256",
          "name": "",
          "type": "uint256"
        }
      ],
      "stateMutability": "view",
      "type": "function"
    },
    {
      "inputs": [
        {
          "internalType": "uint256",
          "name": "",
          "type": "uint256"
        },
        {
          "internalType": "uint256",
          "name": "",
          "type": "uint256"
        }
      ],
      "name": "fastestByWeek",
      "outputs": [
        {
          "internalType": "address",
          "name": "",
          "type": "address"
        }
      ],
      "stateMutability": "view",
      "type": "function"
    },
    {
      "inputs": [
        {
          "internalType": "address",
          "name": "",
          "type": "address"
        }
      ],
      "name": "gamesPlayed",
      "outputs": [
        {
          "internalType": "uint256",
          "name": "total",
          "type": "uint256"
        },
        {
          "internalType": "uint256",
          "name": "lastPlayed",
          "type": "uint256"
        },
        {
          "internalType": "uint256",
          "name": "streak",
          "type": "uint256"
        }
      ],
      "stateMutability": "view",
      "type": "function"
    },
    {
      "inputs": [
        {
          "internalType": "uint256",
          "name": "index",
          "type": "uint256"
        }
      ],
      "name": "genRadius",
      "outputs": [
        {
          "internalType": "uint256",
          "name": "",
          "type": "uint256"
        }
      ],
      "stateMutability": "pure",
      "type": "function"
    },
    {
      "inputs": [
        {
          "internalType": "uint256",
          "name": "day",
          "type": "uint256"
        },
        {
          "internalType": "uint256",
          "name": "level",
          "type": "uint256"
        }
      ],
      "name": "generateLevelData",
      "outputs": [
        {
          "components": [
            {
              "internalType": "uint256",
              "name": "bodyIndex",
              "type": "uint256"
            },
            {
              "internalType": "uint256",
              "name": "px",
              "type": "uint256"
            },
            {
              "internalType": "uint256",
              "name": "py",
              "type": "uint256"
            },
            {
              "internalType": "uint256",
              "name": "vx",
              "type": "uint256"
            },
            {
              "internalType": "uint256",
              "name": "vy",
              "type": "uint256"
            },
            {
              "internalType": "uint256",
              "name": "radius",
              "type": "uint256"
            },
            {
              "internalType": "bytes32",
              "name": "seed",
              "type": "bytes32"
            }
          ],
          "internalType": "struct AnybodyProblem.Body[6]",
          "name": "bodyData",
          "type": "tuple[6]"
        },
        {
          "internalType": "uint256",
          "name": "bodyCount",
          "type": "uint256"
        }
      ],
      "stateMutability": "view",
      "type": "function"
    },
    {
      "inputs": [
        {
          "internalType": "uint256",
          "name": "id",
          "type": "uint256"
        },
        {
          "internalType": "uint256",
          "name": "index",
          "type": "uint256"
        }
      ],
      "name": "generateSeed",
      "outputs": [
        {
          "internalType": "bytes32",
          "name": "",
          "type": "bytes32"
        }
      ],
      "stateMutability": "view",
      "type": "function"
    },
    {
      "inputs": [
        {
          "internalType": "uint256[]",
          "name": "input",
          "type": "uint256[]"
        }
      ],
      "name": "getLevelFromInputs",
      "outputs": [
        {
          "internalType": "uint256",
          "name": "bodyCount",
          "type": "uint256"
        },
        {
          "internalType": "uint256",
          "name": "dummyCount",
          "type": "uint256"
        }
      ],
      "stateMutability": "pure",
      "type": "function"
    },
    {
      "inputs": [
        {
          "internalType": "uint256",
          "name": "day",
          "type": "uint256"
        },
        {
          "internalType": "uint256",
          "name": "level",
          "type": "uint256"
        },
        {
          "internalType": "uint256",
          "name": "bodyIndex",
          "type": "uint256"
        }
      ],
      "name": "getLevelSeed",
      "outputs": [
        {
          "internalType": "bytes32",
          "name": "",
          "type": "bytes32"
        }
      ],
      "stateMutability": "pure",
      "type": "function"
    },
    {
      "inputs": [
        {
          "internalType": "uint256",
          "name": "runId",
          "type": "uint256"
        }
      ],
      "name": "getLevelsData",
      "outputs": [
        {
          "components": [
            {
              "internalType": "bool",
              "name": "solved",
              "type": "bool"
            },
            {
              "internalType": "uint256",
              "name": "time",
              "type": "uint256"
            },
            {
              "internalType": "bytes32",
              "name": "seed",
              "type": "bytes32"
            },
            {
              "internalType": "uint256[5]",
              "name": "tmpInflightMissile",
              "type": "uint256[5]"
            },
            {
              "components": [
                {
                  "internalType": "uint256",
                  "name": "bodyIndex",
                  "type": "uint256"
                },
                {
                  "internalType": "uint256",
                  "name": "px",
                  "type": "uint256"
                },
                {
                  "internalType": "uint256",
                  "name": "py",
                  "type": "uint256"
                },
                {
                  "internalType": "uint256",
                  "name": "vx",
                  "type": "uint256"
                },
                {
                  "internalType": "uint256",
                  "name": "vy",
                  "type": "uint256"
                },
                {
                  "internalType": "uint256",
                  "name": "radius",
                  "type": "uint256"
                },
                {
                  "internalType": "bytes32",
                  "name": "seed",
                  "type": "bytes32"
                }
              ],
              "internalType": "struct AnybodyProblem.Body[6]",
              "name": "tmpBodyData",
              "type": "tuple[6]"
            }
          ],
          "internalType": "struct AnybodyProblem.Level[]",
          "name": "levels",
          "type": "tuple[]"
        }
      ],
      "stateMutability": "view",
      "type": "function"
    },
    {
      "inputs": [
        {
          "internalType": "bytes32",
          "name": "dayLevelIndexSeed",
          "type": "bytes32"
        },
        {
          "internalType": "uint256",
          "name": "index",
          "type": "uint256"
        }
      ],
      "name": "getRandomValues",
      "outputs": [
        {
          "components": [
            {
              "internalType": "uint256",
              "name": "bodyIndex",
              "type": "uint256"
            },
            {
              "internalType": "uint256",
              "name": "px",
              "type": "uint256"
            },
            {
              "internalType": "uint256",
              "name": "py",
              "type": "uint256"
            },
            {
              "internalType": "uint256",
              "name": "vx",
              "type": "uint256"
            },
            {
              "internalType": "uint256",
              "name": "vy",
              "type": "uint256"
            },
            {
              "internalType": "uint256",
              "name": "radius",
              "type": "uint256"
            },
            {
              "internalType": "bytes32",
              "name": "seed",
              "type": "bytes32"
            }
          ],
          "internalType": "struct AnybodyProblem.Body",
          "name": "",
          "type": "tuple"
        }
      ],
      "stateMutability": "pure",
      "type": "function"
    },
    {
      "inputs": [
        {
          "internalType": "uint256",
          "name": "",
          "type": "uint256"
        }
      ],
      "name": "longestStreak",
      "outputs": [
        {
          "internalType": "address",
          "name": "",
          "type": "address"
        }
      ],
      "stateMutability": "view",
      "type": "function"
    },
    {
      "inputs": [
        {
          "internalType": "uint256",
          "name": "",
          "type": "uint256"
        }
      ],
      "name": "maxTicksByLevelIndex",
      "outputs": [
        {
          "internalType": "uint256",
          "name": "",
          "type": "uint256"
        }
      ],
      "stateMutability": "view",
      "type": "function"
    },
    {
      "inputs": [],
      "name": "maxVector",
      "outputs": [
        {
          "internalType": "uint256",
          "name": "",
          "type": "uint256"
        }
      ],
      "stateMutability": "view",
      "type": "function"
    },
    {
      "inputs": [],
      "name": "maxVectorScaled",
      "outputs": [
        {
          "internalType": "uint256",
          "name": "",
          "type": "uint256"
        }
      ],
      "stateMutability": "view",
      "type": "function"
    },
    {
      "inputs": [
        {
          "internalType": "uint256",
          "name": "",
          "type": "uint256"
        }
      ],
      "name": "mostGames",
      "outputs": [
        {
          "internalType": "address",
          "name": "",
          "type": "address"
        }
      ],
      "stateMutability": "view",
      "type": "function"
    },
    {
      "inputs": [],
      "name": "owner",
      "outputs": [
        {
          "internalType": "address",
          "name": "",
          "type": "address"
        }
      ],
      "stateMutability": "view",
      "type": "function"
    },
    {
      "inputs": [],
      "name": "paused",
      "outputs": [
        {
          "internalType": "bool",
          "name": "",
          "type": "bool"
        }
      ],
      "stateMutability": "view",
      "type": "function"
    },
    {
      "inputs": [],
      "name": "price",
      "outputs": [
        {
          "internalType": "uint256",
          "name": "",
          "type": "uint256"
        }
      ],
      "stateMutability": "view",
      "type": "function"
    },
    {
      "inputs": [],
      "name": "proceedRecipient",
      "outputs": [
        {
          "internalType": "address payable",
          "name": "",
          "type": "address"
        }
      ],
      "stateMutability": "view",
      "type": "function"
    },
    {
      "inputs": [
        {
          "internalType": "uint256",
          "name": "min",
          "type": "uint256"
        },
        {
          "internalType": "uint256",
          "name": "max",
          "type": "uint256"
        },
        {
          "internalType": "bytes32",
          "name": "rand",
          "type": "bytes32"
        }
      ],
      "name": "randomRange",
      "outputs": [
        {
          "internalType": "uint256",
          "name": "",
          "type": "uint256"
        }
      ],
      "stateMutability": "pure",
      "type": "function"
    },
    {
      "inputs": [
        {
          "internalType": "address payable",
          "name": "_to",
          "type": "address"
        }
      ],
      "name": "recoverUnsuccessfulPayment",
      "outputs": [],
      "stateMutability": "nonpayable",
      "type": "function"
    },
    {
      "inputs": [],
      "name": "renounceOwnership",
      "outputs": [],
      "stateMutability": "nonpayable",
      "type": "function"
    },
    {
      "inputs": [
        {
          "internalType": "uint256",
          "name": "tokenId",
          "type": "uint256"
        },
        {
          "internalType": "uint256",
          "name": "salePrice",
          "type": "uint256"
        }
      ],
      "name": "royaltyInfo",
      "outputs": [
        {
          "internalType": "address",
          "name": "",
          "type": "address"
        },
        {
          "internalType": "uint256",
          "name": "",
          "type": "uint256"
        }
      ],
      "stateMutability": "view",
      "type": "function"
    },
    {
      "inputs": [],
      "name": "runCount",
      "outputs": [
        {
          "internalType": "uint256",
          "name": "",
          "type": "uint256"
        }
      ],
      "stateMutability": "view",
      "type": "function"
    },
    {
      "inputs": [
        {
          "internalType": "uint256",
          "name": "",
          "type": "uint256"
        }
      ],
      "name": "runs",
      "outputs": [
        {
          "internalType": "address",
          "name": "owner",
          "type": "address"
        },
        {
          "internalType": "bool",
          "name": "solved",
          "type": "bool"
        },
        {
          "internalType": "uint256",
          "name": "accumulativeTime",
          "type": "uint256"
        },
        {
          "internalType": "bytes32",
          "name": "seed",
          "type": "bytes32"
        },
        {
          "internalType": "uint256",
          "name": "day",
          "type": "uint256"
        }
      ],
      "stateMutability": "view",
      "type": "function"
    },
    {
      "inputs": [],
      "name": "scalingFactor",
      "outputs": [
        {
          "internalType": "uint256",
          "name": "",
          "type": "uint256"
        }
      ],
      "stateMutability": "view",
      "type": "function"
    },
    {
      "inputs": [],
      "name": "speedFactor",
      "outputs": [
        {
          "internalType": "uint256",
          "name": "",
          "type": "uint256"
        }
      ],
      "stateMutability": "view",
      "type": "function"
    },
    {
      "inputs": [],
      "name": "speedruns",
      "outputs": [
        {
          "internalType": "address payable",
          "name": "",
          "type": "address"
        }
      ],
      "stateMutability": "view",
      "type": "function"
    },
    {
      "inputs": [
        {
          "internalType": "bytes4",
          "name": "interfaceId",
          "type": "bytes4"
        }
      ],
      "name": "speedrunsSupportsInterface",
      "outputs": [
        {
          "internalType": "bool",
          "name": "",
          "type": "bool"
        }
      ],
      "stateMutability": "pure",
      "type": "function"
    },
    {
      "inputs": [
        {
          "internalType": "uint256",
          "name": "id",
          "type": "uint256"
        }
      ],
      "name": "speedrunsTokenURI",
      "outputs": [
        {
          "internalType": "string",
          "name": "",
          "type": "string"
        }
      ],
      "stateMutability": "view",
      "type": "function"
    },
    {
      "inputs": [],
      "name": "startingRadius",
      "outputs": [
        {
          "internalType": "uint256",
          "name": "",
          "type": "uint256"
        }
      ],
      "stateMutability": "view",
      "type": "function"
    },
    {
      "inputs": [
        {
          "internalType": "bytes4",
          "name": "interfaceId",
          "type": "bytes4"
        }
      ],
      "name": "supportsInterface",
      "outputs": [
        {
          "internalType": "bool",
          "name": "",
          "type": "bool"
        }
      ],
      "stateMutability": "view",
      "type": "function"
    },
    {
      "inputs": [],
      "name": "timeUntilEndOfWeek",
      "outputs": [
        {
          "internalType": "uint256",
          "name": "",
          "type": "uint256"
        }
      ],
      "stateMutability": "view",
      "type": "function"
    },
    {
      "inputs": [
        {
          "internalType": "address",
          "name": "newOwner",
          "type": "address"
        }
      ],
      "name": "transferOwnership",
      "outputs": [],
      "stateMutability": "nonpayable",
      "type": "function"
    },
    {
      "inputs": [
        {
          "internalType": "address",
          "name": "externalMetadata_",
          "type": "address"
        }
      ],
      "name": "updateExternalMetadata",
      "outputs": [],
      "stateMutability": "nonpayable",
      "type": "function"
    },
    {
      "inputs": [
        {
          "internalType": "bool",
          "name": "paused_",
          "type": "bool"
        }
      ],
      "name": "updatePaused",
      "outputs": [],
      "stateMutability": "nonpayable",
      "type": "function"
    },
    {
      "inputs": [
        {
          "internalType": "uint256",
          "name": "price_",
          "type": "uint256"
        }
      ],
      "name": "updatePrice",
      "outputs": [],
      "stateMutability": "nonpayable",
      "type": "function"
    },
    {
      "inputs": [
        {
          "internalType": "address payable",
          "name": "proceedRecipient_",
          "type": "address"
        }
      ],
      "name": "updateProceedRecipient",
      "outputs": [],
      "stateMutability": "nonpayable",
      "type": "function"
    },
    {
      "inputs": [
        {
          "internalType": "address payable",
          "name": "speedruns_",
          "type": "address"
        }
      ],
      "name": "updateSpeedrunsAddress",
      "outputs": [],
      "stateMutability": "nonpayable",
      "type": "function"
    },
    {
      "inputs": [
        {
          "internalType": "address",
          "name": "verifier_",
          "type": "address"
        },
        {
          "internalType": "uint256",
          "name": "verifierBodies",
          "type": "uint256"
        },
        {
          "internalType": "uint256",
          "name": "verifierTicks",
          "type": "uint256"
        }
      ],
      "name": "updateVerifier",
      "outputs": [],
      "stateMutability": "nonpayable",
      "type": "function"
    },
    {
      "inputs": [
        {
          "internalType": "uint256",
          "name": "",
          "type": "uint256"
        },
        {
          "internalType": "uint256",
          "name": "",
          "type": "uint256"
        }
      ],
      "name": "verifiers",
      "outputs": [
        {
          "internalType": "address",
          "name": "",
          "type": "address"
        }
      ],
      "stateMutability": "view",
      "type": "function"
    },
    {
      "inputs": [
        {
          "components": [
            {
              "internalType": "uint256",
              "name": "bodyIndex",
              "type": "uint256"
            },
            {
              "internalType": "uint256",
              "name": "px",
              "type": "uint256"
            },
            {
              "internalType": "uint256",
              "name": "py",
              "type": "uint256"
            },
            {
              "internalType": "uint256",
              "name": "vx",
              "type": "uint256"
            },
            {
              "internalType": "uint256",
              "name": "vy",
              "type": "uint256"
            },
            {
              "internalType": "uint256",
              "name": "radius",
              "type": "uint256"
            },
            {
              "internalType": "bytes32",
              "name": "seed",
              "type": "bytes32"
            }
          ],
          "internalType": "struct AnybodyProblem.Body",
          "name": "bodyData",
          "type": "tuple"
        },
        {
          "internalType": "uint256[]",
          "name": "input",
          "type": "uint256[]"
        },
        {
          "internalType": "uint256",
          "name": "bodyCount",
          "type": "uint256"
        },
        {
          "internalType": "uint256",
          "name": "i",
          "type": "uint256"
        }
      ],
      "name": "verifyBodyDataMatches",
      "outputs": [],
      "stateMutability": "pure",
      "type": "function"
    },
    {
      "inputs": [
        {
          "internalType": "uint256",
          "name": "bodyCount",
          "type": "uint256"
        },
        {
          "internalType": "address",
          "name": "verifier",
          "type": "address"
        },
        {
          "internalType": "uint256[2]",
          "name": "a",
          "type": "uint256[2]"
        },
        {
          "internalType": "uint256[2][2]",
          "name": "b",
          "type": "uint256[2][2]"
        },
        {
          "internalType": "uint256[2]",
          "name": "c",
          "type": "uint256[2]"
        },
        {
          "internalType": "uint256[]",
          "name": "input",
          "type": "uint256[]"
        }
      ],
      "name": "verifyProof",
      "outputs": [],
      "stateMutability": "view",
      "type": "function"
    },
    {
      "inputs": [
        {
          "internalType": "address",
          "name": "",
          "type": "address"
        },
        {
          "internalType": "uint256",
          "name": "",
          "type": "uint256"
        },
        {
          "internalType": "uint256",
          "name": "",
          "type": "uint256"
        }
      ],
      "name": "weeklyRecords",
      "outputs": [
        {
          "internalType": "uint256",
          "name": "",
          "type": "uint256"
        }
      ],
      "stateMutability": "view",
      "type": "function"
    },
    {
      "inputs": [],
      "name": "windowWidth",
      "outputs": [
        {
          "internalType": "uint256",
          "name": "",
          "type": "uint256"
        }
      ],
      "stateMutability": "view",
      "type": "function"
    },
    {
      "stateMutability": "payable",
      "type": "receive"
    }
  ],
  "bytecode": "0x610120604052346200071d57620050fc803803806200001e816200073d565b928339810160c0828203126200071d57620000398262000763565b90620000486020840162000763565b620000566040850162000763565b60e05260608401516001600160401b0381116200071d5784019382601f860112156200071d57845194620000946200008e8762000778565b6200073d565b9560208088838152019160051b830101918583116200071d57602001905b828210620007225750505060808101516001600160401b0381116200071d5783620000df91830162000790565b60a08201519093906001600160401b0381116200071d5762000102920162000790565b60008054336001600160a01b03198216811783556040519396939290916001600160a01b0316907f8be0079c531659141344cd1fd0a4f28419497f9722a3daafe3b4186f6b6457e09084a36003805460ff191690556608e1bc9bf040006004556001600160401b0360a0820190811190821117620005bd5760a0810160405260fa81526101f460208201526102ee60408201526103e860608201526104e260808201526008906000905b600582106200070257505060408051915081018082116001600160401b0390911117620005bd57604081016040526001815260005b60208110620006a95750805190680100000000000000008211620005bd5760175482601755808310620005d3575b5060176000908152600080516020620050dc83398151915292916020015b8282106200039257505050506200024362000911565b60e051600680546001600160a01b0319166001600160a01b03929092169190911790556200027062000911565b600580546001600160a01b0319166001600160a01b03929092169190911790556200029a62000911565b600780546001600160a01b0319166001600160a01b039290921691909117905560005b83518110156200038257620002e0620002d78284620008a6565b511515620008d1565b620003026001600160a01b03620002f88387620008a6565b51161515620008d1565b6001600160a01b03620003168286620008a6565b5116620003248285620008a6565b51600052601860205260406000206200033e8385620008a6565b5160005260205260406000209060018060a01b031982541617905560001981146200036c57600101620002bd565b634e487b7160e01b600052601160045260246000fd5b60405161477190816200096b8239f35b60a08151600180831b0381511686549060ff841b60208401511515851b169160018060a81b031916171786556040810151600187015560608101516002870155608081015160038701550151805190680100000000000000008211620005bd57600486015482600488015580831062000547575b50602001906004860160005260206000206000915b8083106200043b575050505060056020600192019401910190926200022d565b969593949a91989b929990978a518051151560ff80198c54169116178a55602081015160018b0155604081015160028b0155606081015160805260038a0160c05260005b6005811062000526575060800151610100526008890160a05260005b60068110156200050557600190600761010051602081519160c083519360a051948555838101518886015560408101516002860155606081015160038601556080810151600486015560a081015160058601550151600684015501610100520160a052016200049b565b5097929b989099603260206001929d97969899949d0194019101916200041b565b60019081608051602081519160c051928355016080520160c052016200047f565b62000552906200081e565b6200055d836200081e565b906004880160005260206000209182015b81830181106200058057505062000406565b806000603292556000600182015560006002820155620005b660088201620005ac81600385016200084f565b8383019062000868565b016200056e565b634e487b7160e01b600052604160045260246000fd5b620005de90620007ed565b620005e983620007ed565b6017600052600080516020620050dc833981519152919082015b8183018110620006155750506200020f565b60008155600060018201556000600282015560006003820155600481015460006004830155806200064b575b5060050162000603565b62000656906200081e565b600482016000526020600020908101905b81811062000676575062000641565b806000603292556000600182015560006002820155620006a260088201620005ac81600385016200084f565b0162000667565b604051906001600160401b0360c0830190811190831117620005bd578160c06020930160405260008152600083820152600060408201526000606082015260006080820152606060a082015282828501015201620001e1565b600160208261ffff83945116865501930191019091620001ac565b600080fd5b60208091620007318462000763565b815201910190620000b2565b6040519190601f01601f191682016001600160401b03811183821017620005bd57604052565b51906001600160a01b03821682036200071d57565b6001600160401b038111620005bd5760051b60200190565b9080601f830112156200071d57815190620007af6200008e8362000778565b9182938184526020808095019260051b8201019283116200071d578301905b828210620007dd575050505090565b81518152908301908301620007ce565b7f333333333333333333333333333333333333333333333333333333333333333381116001166200036c5760050290565b7f051eb851eb851eb851eb851eb851eb851eb851eb851eb851eb851eb851eb851e81116001166200036c5760320290565b8181106200085b575050565b600081556001016200084f565b81811062000874575050565b600790600080825580600183015580600283015580600383015580600483015580600583015560068201550162000868565b8051821015620008bb5760209160051b010190565b634e487b7160e01b600052603260045260246000fd5b15620008d957565b60405162461bcd60e51b815260206004820152601060248201526f24b73b30b634b2103b32b934b334b2b960811b6044820152606490fd5b6000546001600160a01b031633036200092657565b606460405162461bcd60e51b815260206004820152602060248201527f4f776e61626c653a2063616c6c6572206973206e6f7420746865206f776e65726044820152fdfe60806040526004361015610097575b361561005b57346100565760405162461bcd60e51b81526020600482015260156024820152746e6f2066616c6c6261636b207468616e6b20796f7560581b6044820152606490fd5b600080fd5b60405162461bcd60e51b81526020600482015260146024820152736e6f2072656365697665207468616e6b20796f7560601b6044820152606490fd5b60003560e01c8063010520a114612cc5578063014a30d214612c7d57806301ffc9a714612c28578063041df08214612c0f57806306575c8914612bf457806308cdc2a814612bb9578063098b5e9314612b185780630b27ce3f14612aef57806310d80a5514612ac5578063132d5ed914612aa7578063158b38b614612a64578063159f82b114612a1e5780632a55205a1461297b5780632b057afa1461292d5780632e93a492146128f7578063355f7407146126d857806335d6f0cc146128d65780633ef2570b146128b257806343569ffb146128775780634b9862d91461285b5780634caa028b146128135780634dbe7f73146127e45780635103d6ea146127515780635120a26114612734578063530ab7dc146126e657806353e52f09146126d85780635542437b146126945780635bd6b2ea1461264c5780635c9302c91461262a5780635c975abb146126075780636498c128146125d15780636ef24f2d1461253057806370180bc1146124df578063715018a61461248057806371b8ccb014612436578063770c5da1146124005780637a19b1901461235f578063861f75561461224f57806387b07780146122265780638cc52cf3146122085780638d6cc56d146121e75780638da5cb5b146121be578063907311b11461211d5780639196b700146120f25780639654c1f7146120c65780639691f1ab146120a057806398a6a641146120595780639bc4961714612030578063a035b1fe14612012578063ac4a604714611fca578063adcbb85b14611f40578063ae66f57c14611e59578063b24f67b814611d78578063bd2c955214611cab578063c8b90ebb14611bfd578063cc80b8ea14611bb9578063d8531e6e14611b6f578063de89d1c114610582578063e2adba8c14610566578063ed3437f814610549578063f2fde38b14610481578063f6fbc39a146103e3578063f81c8ec3146103c5578063f9cfa06f146103a75763ffd73d3b0361000e57346100565761037536612fa1565b90600052600d6020526040600020600382101561005657602091610398916131be565b90549060031b1c604051908152f35b34610056576000366003190112610056576020604051620151808152f35b34610056576000366003190112610056576020604051620f42408152f35b346100565760203660031901126100565760043563ffffffff60e01b8116809103610056576020906301ffc9a760e01b8114908115610470575b811561045f575b811561044e575b811561043d575b506040519015158152f35b632483248360e11b14905082610432565b63152a902d60e11b8114915061042b565b6303a24d0760e21b81149150610424565b636cdb3d1360e11b8114915061041d565b346100565760203660031901126100565761049a613044565b6104a2613364565b6001600160a01b039081169081156104f557600080546001600160a01b031981168417825560405191939192167f8be0079c531659141344cd1fd0a4f28419497f9722a3daafe3b4186f6b6457e08484a3f35b60405162461bcd60e51b815260206004820152602660248201527f4f776e61626c653a206e6577206f776e657220697320746865207a65726f206160448201526564647265737360d01b6064820152608490fd5b346100565760003660031901126100565760206040516103e88152f35b3461005657600036600319011261005657602060405160058152f35b60c0366003190112610056576024356001600160401b038111610056576105ad903690600401612f17565b6044356001600160401b038111610056576105cc9036906004016132f8565b606435906001600160401b0382116100565736602383011215610056578160040135916105f883612f00565b926106066040519485612edf565b80845260208401913660248360071b830101116100565760248101925b60248360071b8301018410611b1357505050506084356001600160401b038111610056576106559036906004016132f8565b906001600160401b0360a435116100565736602360a4350112156100565760a4356004013561068381612f00565b906106916040519283612edf565b80825260208201903660248260051b60a43501011161005657602460a43501915b60248260051b60a43501018310611ae0575050506004359360ff60035416611aa6576106e3620151804206426133ec565b93851561173d575b6106f48661323b565b50546001600160a01b031633036116e95760ff6107108761323b565b505460a01c166116af5760036107258761323b565b500154850361165b5760005b83518110156116595786610745828a6133d8565b5161075083886133d8565b519061080161075f85886133d8565b5161076a86886133d8565b5190610776878b6133d8565b519360046107838661436a565b9590986107b760405161079581612d76565b601081526f7665726966794c6576656c4368756e6b60801b60208201526146ff565b6107c08a6146c4565b6107c9876146c4565b6107f36040516107d881612d76565b60098152681d1a58dad0dbdd5b9d60ba1b60208201526146ff565b6107fc846146c4565b61323b565b50015480970361161457600187106111355760ff6108318f6108229061323b565b506000198a01906004016137f1565b5054166115d85760011987116111355761084e84600189016135ee565b600052601860205260406000209060005260205260018060a01b03604060002054169182156115a05761088c6108878560018a016135ee565b612fe7565b80196005116111355760011960058201116111355733906001600160a01b03906108b990600601886133d8565b51160361154d576108e860038f6108d26108e19161323b565b506000198b01906004016137f1565b50016133f7565b604051906108f582612d2d565b61090d6108876109088860018d016135ee565b612ffd565b801960051161113557600219600582011161113557600761092f9101886133d8565b5182526109456108876109088860018d016135ee565b80196005116111355760021960058201116111355760011960078201116111355760086109739101886133d8565b51602083015261098c6108876109088860018d016135ee565b80196005116111355760021960058201116111355760021960078201116111355760096109ba9101886133d8565b5160408301526109d36108876109088860018d016135ee565b801960051161113557600219600582011161113557600319600782011161113557600a610a019101886133d8565b516060830152610a1a6108876109088860018d016135ee565b801960051161113557600219600582011161113557600419600782011161113557600b610a489101886133d8565b5180608084015280611467575b505050604051610a6481612d2d565b610a6d866133cb565b51815285516001101561111f576040860151602082015285516002101561111f576060860151604082015285516003101561111f576080860151606082015285516004101561111f5760038f6108d2610acf9160a08a0151608086015261323b565b50016000915b6005831061145157505050610af06108878560018a016135ee565b918219600511611135578592600501610b0990846133d8565b5196610b188660018b016135ee565b94610b2295613ef5565b610b2b8b61323b565b50610b3e906000198601906004016137f1565b50610b489061343c565b92602084015190610b58916135ee565b80602085015260001985016005111561111f576007850154106114165790828b8593600093610b85613564565b5060005b6001870181106113255750505090610bb5610ba6610bbb9361323b565b506000198601906004016137f1565b9061380d565b610be6604051610bca81612d76565b600a815269626f64696573476f6e6560b01b60208201526146ff565b610bef816146c4565b14610c05575b5050610c00906133bc565b610731565b906020600592610c30610c218c9b989c9d99969d9a979a61323b565b506000198501906004016137f1565b50600160ff19825416179055828a8383015160405190815289858201527f416328325568dd8681e48de39e8d89a80ddf01a688fbcb49c28c621071c9333b60403392a40151610c8d6001610c838b61323b565b50019182546135ee565b90550361130b57610c9d8661323b565b50805460ff60a01b1916600160a01b17905560045434036112d2576005546040516000918291829134906001600160a01b03165af1610cda613a00565b6007546001600160a01b0316803b15610056576000809160a46040518094819363093ccd3160e41b83523360048401528b602484015260016044840152608060648401528160848401525af1801561121f576112c3575b507fb08889abce443443404b2caf69aa3ccfb9ebfdf1ad2a634d06e11e24c1067938610d7660018060a01b0360055416926040519182916040835260408301906132ab565b943460208301521515940390a3856001610d8f8261323b565b5001546040519081528460208201527f7f05a2f6290fe88fe25ed1665c50706361d709c5003e3067340b9053916fd70760403392a33360005260146020526040600020610ddc81546133bc565b9055610df0610dea8761323b565b50613a3d565b9660005b6080890151600052600d60205260038110156112b4576080890151600052610e32610dea610e268360406000206131be565b90549060031b1c61323b565b6040808b01519101518091109081156112ab575b50610e5957610e54906133bc565b610df4565b96889194976080829a9b94979b9895980151600052600d60205260025b818111611247575090610eb8610e9f8493608080960151600052600d60205260406000206131be565b819391549060031b600019811b9283911b169119161790565b9055015160405190602082015260208152610ed281612d76565b604051610ede81612d76565b60018152602036818301377ff8e1a15aba9398e019f0b49df1a4fde98ee17ae345cb5f6b5e2c27f5033e8ce7610f13826133cb565b526007546001600160a01b031690813b15610056579160405192839163b46f007160e01b8352604483016040600485015282518091526020606485019301906000905b80821061122b57505050600083610f7c82969482946003198483030160248501526132ab565b03925af1801561121f57611210575b505b6003610f988861323b565b50015433600052601460205260406000209060405191610fb783612d5b565b805483526002600182015491826020860152015460408401526201518019811161113557620151800181146111f957600160408301525b6020820152336000526014602052604060002081518155602082015160018201556002604083015191015560005b6003811061114b575b5050336000526014602052604060002060026040519161104483612d5b565b80548352600181015460208401520154604082015260005b60038110611073575b5050610c00905b9089610bf5565b8151600e8201546001600160a01b0316600090815260146020526040902054106110a5576110a0906133bc565b61105c565b905060025b8181116110ce5750600e0180546001600160a01b03191633179055610c0089611065565b600181106111355760036000198201101561111f57600d8101546001600160a01b031690600381101561111f5761111a9181600e01906001600160601b0360a01b825416179055613a30565b6110aa565b634e487b7160e01b600052603260045260246000fd5b634e487b7160e01b600052601160045260246000fd5b604082015160018060a01b038260110154166000526014602052600260406000200154106111815761117c906133bc565b61101c565b905060025b8181116111a8575060110180546001600160a01b031916331790558880611025565b600181106111355760036000198201101561111f5760108101546001600160a01b031690600381101561111f576111f49181601101906001600160601b0360a01b825416179055613a30565b611186565b61120660408301516133bc565b6040830152610fee565b61121990612d48565b88610f8b565b6040513d6000823e3d90fd5b8251855287955060209485019490920191600190910190610f56565b9091506080830151600052600d60205260406000209060018110611135576112776112a3926000198301906131be565b90549060031b1c6080850151600052600d60205261129c610e9f8360406000206131be565b9055613a30565b908991610e76565b9050158b610e46565b50929596509296939093610f8d565b6112cc90612d48565b8a610d31565b60405162461bcd60e51b8152602060048201526011602482015270125b98dbdc9c9958dd081c185e5b595b9d607a1b6044820152606490fd5b9296610c0090611320879894979693966138f0565b61106c565b925092838295966113578561135061135c966001611348846080819a01516135ce565b5195016135ee565b8484613b86565b613a94565b81156113bc575b60a08101511561139f575b9061138d816113939360808901519061138783836135ce565b526135ce565b506133bc565b85939285928e92610b89565b939061138d816113b1611393946133bc565b96925092505061136e565b60a08101516113635760405162461bcd60e51b8152602060048201526024808201527f596f752073686f742074686520626f647920796f752073686f756c642070726f6044820152631d1958dd60e21b6064820152608490fd5b60405162461bcd60e51b8152602060048201526013602482015272151a5b59481b1a5b5a5d08195e18d959591959606a1b6044820152606490fd5b6001602082829351855501920192019190610ad5565b8151908351809214928361153a575b83611527575b83611514575b83611506575b50501591826114f5575b5081156114ed575b50156114a8578f8080610a55565b60405162461bcd60e51b815260206004820152601760248201527f496e76616c696420696e666c696768744d697373696c650000000000000000006044820152606490fd5b90503861149a565b60200151620f424014915038611492565b608001511491503880611488565b9250606083015160608501511492611482565b925060408301516040850151149261147c565b9250602083015160208501511492611476565b60405162461bcd60e51b815260206004820152602560248201527f4f776e6572206f6620746869732070726f6f66206973206e6f7420746865207360448201526432b73232b960d91b6064820152608490fd5b60405162461bcd60e51b815260206004820152601060248201526f24b73b30b634b2103b32b934b334b2b960811b6044820152606490fd5b60405162461bcd60e51b815260206004820152601460248201527313195d995b08185b1c9958591e481cdbdb1d995960621b6044820152606490fd5b60405162461bcd60e51b815260206004820152601f60248201527f50726576696f7573206c6576656c206e6f742079657420636f6d706c657465006044820152606490fd5b005b60405162461bcd60e51b815260206004820152602660248201527f43616e206f6e6c7920736f6c76652072756e73206f6e207468652063757272656044820152656e742064617960d01b6064820152608490fd5b60405162461bcd60e51b8152602060048201526012602482015271149d5b88185b1c9958591e481cdbdb1d995960721b6044820152606490fd5b60405162461bcd60e51b815260206004820152602660248201527f4f6e6c7920746865206f776e6572206f66207468652072756e2063616e20736f6044820152651b1d99481a5d60d21b6064820152608490fd5b94506017549460405161174f81612d12565b60006020820152600060408201526000606082015260006080820152606060a08201523381526001431061113557604051876020820152600060408201526000194301406060820152606081528060808101106001600160401b03608083011117611a7a5760808101604052602081519101206060820152856080820152600160401b871015611a7a57600187016017556117e98761323b565b611a90578151815460208401516001600160a81b03199091166001600160a01b03929092169190911790151560a090811b60ff60a01b16919091178255604083015160018301556060830151600283015560808301516003830155820151805190600160401b8211611a7a5760048301548260048501558083106119ca575b50602060049101920160005260206000206000905b8282106118d057505050506060807fbe33ae7a5df03243155e17a5896a63473638d0a5042d1504b59ea59ff0f2b0a5920151604051908982528860208301526040820152a16118cb866138f0565b6106eb565b95839a939b94959892999b979197516118f881511515899060ff801983541691151516179055565b60208101516001890155604081015160028901556060810151600389016000915b600583106119b4575050506080015198600888019660009a5b60068c101561199357600760208260c0600194518d815190558d86858301519101558d600260408301519101558d600360608301519101558d600460808301519101558d600560a0830151910155015160068d01550199019b019a97611932565b50959c9a92989399509550959299603260206001920194019201909161187d565b8051825560019283019290910190602001611919565b6119d390612fb7565b6119dc83612fb7565b906004850160005260206000209182015b81830181106119fd575050611868565b600081556000600182015560006002820155600381015b600882018110611a6e5750600881015b603282018110611a3757506032016119ed565b8060006007925560006001820155600060028201556000600382015560006004820155600060058201556000600682015501611a24565b60008155600101611a14565b634e487b7160e01b600052604160045260246000fd5b634e487b7160e01b600052600060045260246000fd5b60405162461bcd60e51b815260206004820152601260248201527110dbdb9d1c9858dd081a5cc81c185d5cd95960721b6044820152606490fd5b6001600160401b0383351161005657602080602492611b063685883560a4350101612f17565b81520193019290506106b2565b36601f8501121561005657604051611b2a81612d76565b803660808701116100565785905b608087018210611b55575050815260809390930192602001610623565b6020604091611b6436856131ce565b815201910190611b38565b34610056576020366003190112610056576004356001600160401b03811161005657611baa611ba5610680923690600401612f17565b6145ec565b611bb760405180926132d0565bf35b34610056576020366003190112610056576004356001600160a01b0381169081900361005657611be7613364565b600580546001600160a01b031916919091179055005b3461005657602080600319360112610056576004356001600160401b03811161005657611c2e903690600401612f17565b9060405191611c3c83612e1c565b610a40809336903760405190611c5182612e1c565b8336833760005b60528110611c8b575050604051916000835b60528210611c76578585f35b82806001928651815201940191019092611c6a565b80611c99611ca692846133d8565b518160051b8501526133bc565b611c58565b346100565760208060031936011261005657611cd36004611ccc813561323b565b500161350e565b906040519181839283018184528251809152816040850193019160005b828110611cff57505050500390f35b919390838194965051805115158352818101518284015260408101516040840152606080820151908401906000915b60058310611d6257505050600192611d5260806106409301516101008301906130c9565b0195019101918594939192611cf0565b8151815287946001909301929182019101611d2e565b34610056576020806003193601126100565760065460405163295d33a960e21b815260048035908201529190600090839060249082906001600160a01b03165afa91821561121f57600092611de1575b50611ddd6040519282849384528301906132ab565b0390f35b9091503d806000833e611df48183612edf565b8101908281830312610056578051906001600160401b038211610056570181601f82011215610056578051611e28816139e5565b92611e366040519485612edf565b81845284828401011161005657611e5291848085019101613276565b9082611dc8565b346100565760203660031901126100565760043560175481101561005657600560a091601760005202807fc624b66cc0138b8fabc209247f72d758e1cf3343756d543badbf24212bed8c150154907fc624b66cc0138b8fabc209247f72d758e1cf3343756d543badbf24212bed8c16810154907fc624b66cc0138b8fabc209247f72d758e1cf3343756d543badbf24212bed8c187fc624b66cc0138b8fabc209247f72d758e1cf3343756d543badbf24212bed8c178201549101549160ff60405194600180881b0381168652861c1615156020850152604084015260608301526080820152f35b34610056576020366003190112610056576004356001600160a01b0381169081900361005657611f6e613364565b47907fb08889abce443443404b2caf69aa3ccfb9ebfdf1ad2a634d06e11e24c1067938611fbc6000808060405187875af1611fa7613a00565b906040519283926040845260408401906132ab565b9560208301521515940390a3005b34610056576020366003190112610056576004356001600160401b038111610056576120056120006107c0923690600401612f17565b614634565b611bb76040518092613213565b34610056576000366003190112610056576020600454604051908152f35b34610056576000366003190112610056576006546040516001600160a01b039091168152602090f35b34610056576120673661305a565b9160018060a01b031660005260156020526040600020906000526020526040600020906007811015610056576020910154604051908152f35b346100565760203660031901126100565760206120be600435613742565b604051908152f35b346100565760203660031901126100565760043560058110156100565760209060080154604051908152f35b3461005657600036600319011261005657601754600181106111355760209060405190600019018152f35b3461005657602080600319360112610056576004356001600160401b0381116100565761214e903690600401612f17565b906040519161215c83612e00565b610b8080933690376040519061217182612e00565b8336833760005b605c81106121ab575050604051916000835b605c8210612196578585f35b8280600192865181520194019101909261218a565b80611c996121b992846133d8565b612178565b34610056576000366003190112610056576000546040516001600160a01b039091168152602090f35b3461005657602036600319011261005657612200613364565b600480359055005b346100565760003660031901126100565760206040516204f1a08152f35b34610056576000366003190112610056576007546040516001600160a01b039091168152602090f35b3461005657610160366003190112610056576024356001600160a01b0381168103610056573660631215610056576040519061228a82612d76565b608482368211610056576044905b82821061234f5750503660a31215610056576040516122b681612d76565b806101049236841161005657905b83821061233557505036610123121561005657604051916122e483612d76565b826101449136831161005657905b82821061232557505035936001600160401b0385116100565761231c611659953690600401612f17565b93600435613ef5565b81358152602091820191016122f2565b602060409161234436856131ce565b8152019101906122c4565b8135815260209182019101612298565b3461005657602080600319360112610056576004356001600160401b03811161005657612390903690600401612f17565b906040519161239e83612de4565b6102c08093369037604051906123b382612de4565b8336833760005b601681106123ed575050604051916000835b601682106123d8578585f35b828060019286518152019401910190926123cc565b80611c996123fb92846133d8565b6123ba565b3461005657602036600319011261005657600435600381101561005657600e01546040516001600160a01b039091168152602090f35b346100565761244436612fa1565b9060005260166020526040600020600382101561005657602091612467916131be565b905460405160039290921b1c6001600160a01b03168152f35b3461005657600036600319011261005657612499613364565b600080546001600160a01b0319811682556040519082906001600160a01b03167f8be0079c531659141344cd1fd0a4f28419497f9722a3daafe3b4186f6b6457e08284a3f35b34610056576020366003190112610056576001600160a01b03612500613044565b16600052601460205260606040600020805490600260018201549101549060405192835260208301526040820152f35b3461005657602080600319360112610056576004356001600160401b03811161005657612561903690600401612f17565b906040519161256f83612dc8565b610cc080933690376040519061258482612dc8565b8336833760005b606681106125be575050604051916000835b606682106125a9578585f35b8280600192865181520194019101909261259d565b80611c996125cc92846133d8565b61258b565b3461005657602036600319011261005657600435600381101561005657601101546040516001600160a01b039091168152602090f35b3461005657600036600319011261005657602060ff600354166040519015158152f35b346100565760003660031901126100565760206120be620151804206426133ec565b34610056576020366003190112610056576004356001600160401b03811161005657612687612682610900923690600401612f17565b61467c565b611bb76040518092613196565b34610056576020366003190112610056576004356001600160a01b03811690819003610056576126c2613364565b600780546001600160a01b031916919091179055005b506126e1613084565b61000e565b34610056576101403660031901126100565761270136613135565b60e435906001600160401b03821161005657612724611659923690600401612f17565b9061012435916101043591613b86565b34610056576000366003190112610056576020604051614e208152f35b34610056576101203660031901126100565761276c36613135565b60e4356001600160401b0381116100565760e09161279161279b923690600401612f17565b6101043591613a94565b611bb7604051809260c08091805184526020810151602085015260408101516040850152606081015160608501526080810151608085015260a081015160a08501520151910152565b34610056576105606127fe6127f836612fa1565b906135fa565b61280b60405180936130c9565b610540820152f35b34610056576020366003190112610056576004356001600160401b0381116100565761284e612849610540923690600401612f17565b6145a4565b611bb760405180926130a1565b3461005657600036600319011261005657602060405160148152f35b346100565761288536612fa1565b906000526018602052604060002090600052602052602060018060a01b0360406000205416604051908152f35b346100565760603660031901126100565760206120be604435602435600435613653565b346100565760403660031901126100565760e061279b60243560043561367c565b34610056576000366003190112610056576129106137cf565b62093a80198111611135576120be60209162093a804291016133ec565b346100565761293b3661305a565b90612944613364565b60009081526018602090815260408083209383529290522080546001600160a01b0319166001600160a01b03909216919091179055005b346100565761298936612fa1565b906000526002602052604060002090604051916129a583612d76565b546001600160a01b0380821680855260a09290921c60208501529290156129fc575b6001600160601b0360208201511682600019048111831515166111355760409361271092511692845193845202046020820152f35b50604051612a0981612d76565b600154838116825260a01c60208201526129c7565b34610056576020366003190112610056576004356001600160401b03811161005657612a58612a536040923690600401612f17565b61436a565b82519182526020820152f35b3461005657602036600319011261005657612a7d613044565b612a85613364565b600680546001600160a01b0319166001600160a01b0392909216919091179055005b3461005657600036600319011261005657602060405162093a808152f35b346100565760203660031901126100565760206004612ae4813561323b565b500154604051908152f35b34610056576000366003190112610056576005546040516001600160a01b039091168152602090f35b3461005657602080600319360112610056576004356001600160401b03811161005657612b49903690600401612f17565b9060405191612b5783612dac565b610e00809336903760405190612b6c82612dac565b8336833760005b60708110612ba6575050604051916000835b60708210612b91578585f35b82806001928651815201940191019092612b85565b80611c99612bb492846133d8565b612b73565b346100565760203660031901126100565760043580151580910361005657612bdf613364565b60ff8019600354169116176003556000604051f35b346100565760003660031901126100565760206120be6137cf565b346100565760206120be612c2236612fa1565b9061379e565b346100565760203660031901126100565760043563ffffffff60e01b81168091036100565760209063152a902d60e11b8114908115612c6c57506040519015158152f35b6301ffc9a760e01b14905082610432565b34610056576020366003190112610056576004356001600160401b03811161005657612cb8612cb3610400923690600401612f17565b61454f565b611bb76040518092612f75565b3461005657606036600319011261005657600435612ce5816024356133ec565b8015612cfc576020916120be9160443506906135ee565b634e487b7160e01b600052601260045260246000fd5b60c081019081106001600160401b03821117611a7a57604052565b60a081019081106001600160401b03821117611a7a57604052565b6001600160401b038111611a7a57604052565b606081019081106001600160401b03821117611a7a57604052565b604081019081106001600160401b03821117611a7a57604052565b60e081019081106001600160401b03821117611a7a57604052565b610e0081019081106001600160401b03821117611a7a57604052565b610cc081019081106001600160401b03821117611a7a57604052565b6102c081019081106001600160401b03821117611a7a57604052565b610b8081019081106001600160401b03821117611a7a57604052565b610a4081019081106001600160401b03821117611a7a57604052565b608081019081106001600160401b03821117611a7a57604052565b61040081019081106001600160401b03821117611a7a57604052565b61054081019081106001600160401b03821117611a7a57604052565b61068081019081106001600160401b03821117611a7a57604052565b6107c081019081106001600160401b03821117611a7a57604052565b61090081019081106001600160401b03821117611a7a57604052565b90601f801991011681019081106001600160401b03821117611a7a57604052565b6001600160401b038111611a7a5760051b60200190565b81601f8201121561005657803591612f2e83612f00565b92612f3c6040519485612edf565b808452602092838086019260051b820101928311610056578301905b828210612f66575050505090565b81358152908301908301612f58565b916000915b60209081841015612f9a5790806001928651815201940192019192612f7a565b5050915050565b6040906003190112610056576004359060243590565b7f051eb851eb851eb851eb851eb851eb851eb851eb851eb851eb851eb851eb851e81116001166111355760320290565b8060001904600511811515166111355760050290565b6001600160ff1b0381116001166111355760011b90565b7f333333333333333333333333333333333333333333333333333333333333333381116001166111355760050290565b600435906001600160a01b038216820361005657565b6060906003190112610056576004356001600160a01b038116810361005657906024359060443590565b503461005657600036600319011261005657602060405160028152f35b6000915b602a83106130b257505050565b6001908251815260208091019201920191906130a5565b906000905b600682106130db57505050565b602060e082613129600194875160c08091805184526020810151602085015260408101516040850152606081015160608501526080810151608085015260a081015160a08501520151910152565b019301910190916130ce565b60e0906003190112610056576040519060e082018281106001600160401b03821117611a7a57604052816004358152602435602082015260443560408201526064356060820152608435608082015260a43560a082015260c060c435910152565b6000915b604883106131a757505050565b60019082518152602080910192019201919061319a565b600382101561111f570190600090565b9080601f8301121561005657604051916131e783612d76565b82906040810192831161005657905b8282106132035750505090565b81358152602091820191016131f6565b6000915b603e831061322457505050565b600190825181526020809101920192019190613217565b60175481101561111f576005906017600052027fc624b66cc0138b8fabc209247f72d758e1cf3343756d543badbf24212bed8c150190600090565b918091926000905b82821061329657501161328f575050565b6000910152565b9150806020918301518186015201829161327e565b906020916132c481518092818552858086019101613276565b601f01601f1916010190565b6000915b603483106132e157505050565b6001908251815260208091019201920191906132d4565b81601f820112156100565780359061330f82612f00565b9260409261331f84519586612edf565b808552602091828087019260061b85010193818511610056578301915b84831061334c5750505050505090565b83869161335984866131ce565b81520192019161333c565b6000546001600160a01b0316330361337857565b606460405162461bcd60e51b815260206004820152602060248201527f4f776e61626c653a2063616c6c6572206973206e6f7420746865206f776e65726044820152fd5b60001981146111355760010190565b80511561111f5760200190565b805182101561111f5760209160051b010190565b818110611135570390565b60405191906000835b600582106134265750505060a082018281106001600160401b03821117611a7a57604052565b6001602081928554815201930191019091613400565b90604080519261344b84612d2d565b8360ff825416151581526001938483015491602092838201526002908185015486820152600361347c8187016133f7565b906060918284015287519761349089612d12565b60009760080195895b6006808b10156134fb57898d926007928651906134b582612d91565b8c548252858d0154848301528b8d015488830152888d01548a83015260048d0154608083015260058d015460a08301528c015460c0820152815201980199019896613499565b5050995050505092505050608091500152565b90815461351a81612f00565b926135286040519485612edf565b818452600090815260208082208186015b848410613547575050505050565b6032836001926135568561343c565b815201920193019290613539565b6040519061357182612d91565b8160c06000918281528260208201528260408201528260608201528260808201528260a08201520152565b604051906135a982612d12565b8160005b60c081106135b9575050565b6020906135c4613564565b81840152016135ad565b90600681101561111f5760051b0190565b61271081198111611135570190565b81198111611135570190565b919061360461359c565b9260005b8281111561362157505060011981116111355760010190565b806136398161363461364e948787613653565b61367c565b61364382886135ce565b5261138d81876135ce565b613608565b916040519160208301938452604083015260608201526060815261367681612e38565b51902090565b61373a90613688613564565b506136a3613694613564565b938085528260c0860152613742565b60a0840152604051906020918281019182528281526136c181612d76565b519020620f424090818106838601526040518381019182528381526136e581612d76565b519020908106604085015260405182810191825282815261370581612d76565b519020614e20916137178383066135df565b606086015260405190808201928352815261373181612d76565b519020066135df565b608082015290565b61378560ff9160066040519161375783612d12565b60248352601b60208401526016604084015260116060840152600c6080840152600760a084015206906135ce565b51166103e8908060001904821181151516611135570290565b9060014310611135576040519060208201928352604082015260001943014060608201526060815261367681612e38565b6204f1a04210611135576137ee62093a806204f19f19420106426133ec565b90565b805482101561111f576000526032602060002091020190600090565b9290611a905761382e829392511515839060ff801983541691151516179055565b6020918284015192600193848301556040948581015193600294858501556060918281015160039081870190896000915b600583106138dc575050505060086080809301519601936000965b6006808910156138ce57815180518855888101518c8901558c8101518b890155838101518589015585810151600489015560a0810151600589015560c001519087015596890196600790950194860161387a565b505050505095505050505050565b80518455928101929101908a90880161385f565b60036138fb8261323b565b50015490600461390a8261323b565b500154600119811161113557600101906040519261392784612d2d565b600084526000602085015260408401926000845260405161394781612d2d565b60a036823760608601526080850161395d61359c565b8152613969828561379e565b855261397582846135fa565b50905260046139838461323b565b5001938454600160401b811015611a7a577f70f3b6a85b7a5047df9e61440f8b6480a7cd8a96f849a4092d0a22303a5dbb0f96610bb58260809860016139cb950181556137f1565b5190604051938452602084015260408301526060820152a1565b6001600160401b038111611a7a57601f01601f191660200190565b3d15613a2b573d90613a11826139e5565b91613a1f6040519384612edf565b82523d6000602084013e565b606090565b8015611135576000190190565b90604051613a4a81612d12565b60a0613a8f6004839560ff8154600180871b0381168752851c16151560208601526001810154604086015260028101546060860152600381015460808601520161350e565b910152565b9190613a9e613564565b50613aa882612fe7565b916005928019841161113557613ac0908401836133d8565b516020850152613acf81612fe7565b801984116111355760011984820111611135576006613aef9101836133d8565b516040850152613afe81612fe7565b801984116111355760021984820111611135576007613b1e9101836133d8565b516060850152613b2d81612fe7565b9081198411611135576003198483011161113557613b516008613b5c9301846133d8565b516080860152612fe7565b91821981116111355760041990830111611135576009613b7d9201906133d8565b5160a082015290565b9291906020928385015190613b9a84613014565b906005918019831161113557613bbb90613bb383612fe7565b9084016135ee565b6002199390848111611135576002613bd49101866133d8565b5103613e4b576040870151613be886613014565b8019841161113557613c0590613bfd84612fe7565b9085016135ee565b600119811161113557846001820111611135576003613c259101866133d8565b5103613e1157606087015196613c3a86613014565b8019841161113557613c4f90613bfd84612fe7565b97848911611135578460028a011161113557613c6f6004809a01876133d8565b5103613dda576080810151613c8387613014565b80198511613dc557613ca090613c9885612fe7565b9086016135ee565b6003198111613dc557856003820111613dc55784613cbf9101876133d8565b5103613d8e5760a0613cd391015195613014565b9081198311613d795790613cea613cf19392612fe7565b91016135ee565b906004198211613d645785820111613d4f57906006613d119201906133d8565b5103613d1b575050565b60405162461bcd60e51b815291820152600e60248201526d496e76616c69642072616469757360901b604482015260649150fd5b601185634e487b7160e01b6000525260246000fd5b601186634e487b7160e01b6000525260246000fd5b601188634e487b7160e01b6000525260246000fd5b60405162461bcd60e51b8152808901889052601060248201526f496e76616c696420766563746f72207960801b6044820152606490fd5b60118a634e487b7160e01b6000525260246000fd5b60405162461bcd60e51b8152808901889052601060248201526f092dcecc2d8d2c840eccac6e8dee440f60831b6044820152606490fd5b60405162461bcd60e51b8152600481018790526012602482015271496e76616c696420706f736974696f6e207960701b6044820152606490fd5b60405162461bcd60e51b8152600481018790526012602482015271092dcecc2d8d2c840e0dee6d2e8d2dedc40f60731b6044820152606490fd5b90816020910312610056575180151581036100565790565b6000915b60028310613eae57505050565b600190825181526020809101920192019190613ea1565b906000905b60028210613ed757505050565b6020604082613ee96001948751613e9d565b01930191019091613eca565b939091929360028114600014613fec57509161050491613f60613f4194613f55613f216020989961454f565b91613f4b6040519a8b998a98630f3022c960e21b8a5260048a0190613e9d565b6044880190613ec5565b60c4860190613e9d565b610104840190612f75565b6001600160a01b03165afa90811561121f57600091613fbe575b5015613f8257565b60405162461bcd60e51b815260206004820152601460248201527324b73b30b634b21019103137b23c90383937b7b360611b6044820152606490fd5b613fdf915060203d8111613fe5575b613fd78183612edf565b810190613e85565b38613f7a565b503d613fcd565b600381036140b75750916106449161403b613f4194614030614010602098996145a4565b91613f4b6040519a8b998a986371dd4db160e11b8a5260048a0190613e9d565b6101048401906130a1565b6001600160a01b03165afa90811561121f57600091614099575b501561405d57565b60405162461bcd60e51b815260206004820152601460248201527324b73b30b634b21019903137b23c90383937b7b360611b6044820152606490fd5b6140b1915060203d8111613fe557613fd78183612edf565b38614055565b929390600495848780961460001461418b57509261410f6107849361410460209794613f4b6140e9613f419b996145ec565b936040519b8c9a8b99632a6d5ed560e01b8b528a0190613e9d565b6101048401906132d0565b6001600160a01b03165afa90811561121f5760009161416d575b50156141325750565b60649060206040519162461bcd60e51b8352820152601460248201527324b73b30b634b2101a103137b23c90383937b7b360611b6044820152fd5b614185915060203d8111613fe557613fd78183612edf565b38614129565b600581036142555750926141d96108c4936141ce60209794613f4b6141b3613f419b99614634565b936040519b8c9a8b9963ea59061d60e01b8b528a0190613e9d565b610104840190613213565b6001600160a01b03165afa90811561121f57600091614237575b50156141fc5750565b60649060206040519162461bcd60e51b8352820152601460248201527324b73b30b634b2101a903137b23c90383937b7b360611b6044820152fd5b61424f915060203d8111613fe557613fd78183612edf565b386141f3565b600691929394955014600014614326576020936142aa613f41969461429f610a0495613f4b6142848c9761467c565b936040519b8c9a8b996311b5352360e01b8b528a0190613e9d565b610104840190613196565b6001600160a01b03165afa90811561121f57600091614308575b50156142cd5750565b60649060206040519162461bcd60e51b8352820152601460248201527324b73b30b634b2101b103137b23c90383937b7b360611b6044820152fd5b614320915060203d8111613fe557613fd78183612edf565b386142c4565b60405162461bcd60e51b8152602081880152601860248201527f496e76616c6964206e756d626572206f6620626f6469657300000000000000006044820152606490fd5b908151600c811061113557600a90600b19010460019081811061113557600019809101916143b860405161439d81612d76565b6009815268189bd91e50dbdd5b9d60ba1b60208201526146ff565b6143c1836146c4565b6000948592815183811061453b57600590818382011061452757908896958594939260051901955b614402575b505050505050906143fe916133ec565b9190565b8351851c86111561452257849596975081810615614437575b61442761442d916133bc565b96613a30565b94958997966143e9565b909192935061444686856133d8565b511580614504575b806144e3575b806144c5575b80614490575b61446f575b908493929161441b565b979061442d614427614483879695946133bc565b9a92939495505050614465565b5060048087106144b057506144a96003198701856133d8565b5115614460565b601190634e487b7160e01b6000525260246000fd5b5060038610611135576144dc6002198701856133d8565b511561445a565b506002861061113557614e206144fd6001198801866133d8565b5114614454565b5084861061113557614e2061451b848801866133d8565b511461444e565b6143ee565b634e487b7160e01b89526011600452602489fd5b634e487b7160e01b88526011600452602488fd5b9060405161455c81612e53565b61040080913690376040519061457182612e53565b36823760005b6020811061458457509150565b8061459261459f92866133d8565b518160051b8401526133bc565b614577565b906040516145b181612e6f565b6105408091369037604051906145c682612e6f565b36823760005b602a81106145d957509150565b806145926145e792866133d8565b6145cc565b906040516145f981612e8b565b61068080913690376040519061460e82612e8b565b36823760005b6034811061462157509150565b8061459261462f92866133d8565b614614565b9060405161464181612ea7565b6107c080913690376040519061465682612ea7565b36823760005b603e811061466957509150565b8061459261467792866133d8565b61465c565b9060405161468981612ec3565b61090080913690376040519061469e82612ec3565b36823760005b604881106146b157509150565b806145926146bf92866133d8565b6146a4565b60008091604051602081019163f82c50f160e01b83526024820152602481526146ec81612d5b565b51906a636f6e736f6c652e6c6f675afa50565b600080916040516146ec8161472d602082019463104c13eb60e21b86526020602484015260448301906132ab565b03601f198101835282612edf56fea26469706673582212201d1e534cd54c747258bc0370ad60097334da8ed5670c570fe6940368a54195ef64736f6c634300080f0033c624b66cc0138b8fabc209247f72d758e1cf3343756d543badbf24212bed8c15",
  "linkReferences": {},
  "deployedLinkReferences": {}
}