{
  "_format": "hh-sol-artifact-1",
  "contractName": "Groth16Verifier",
  "sourceName": "contracts/Game_3_20Verifier.sol",
  "abi": [
    {
      "inputs": [
        {
          "internalType": "uint256[2]",
          "name": "_pA",
          "type": "uint256[2]"
        },
        {
          "internalType": "uint256[2][2]",
          "name": "_pB",
          "type": "uint256[2][2]"
        },
        {
          "internalType": "uint256[2]",
          "name": "_pC",
          "type": "uint256[2]"
        },
        {
          "internalType": "uint256[30]",
          "name": "_pubSignals",
          "type": "uint256[30]"
        }
      ],
      "name": "verifyProof",
      "outputs": [
        {
          "internalType": "bool",
          "name": "",
          "type": "bool"
        }
      ],
      "stateMutability": "view",
      "type": "function"
    }
  ],
  "bytecode": "0x60808060405234610016576116e0908161001c8239f35b600080fdfe6080604052600436101561001257600080fd5b6000803560e01c630e9464081461002857600080fd5b346101f0576104c03660031901126101f057610043366101f3565b3660c4116101ec5761005436610205565b906104c43681116101e857916101e4916101df6020959461040060405261007d61010435610213565b61008961012435610213565b61009561014435610213565b6100a161016435610213565b6100ad61018435610213565b6100b96101a435610213565b6100c56101c435610213565b6100d16101e435610213565b6100dd61020435610213565b6100e961022435610213565b6100f561024435610213565b61010161026435610213565b61010d61028435610213565b6101196102a435610213565b6101256102c435610213565b6101316102e435610213565b61013d61030435610213565b61014961032435610213565b61015561034435610213565b61016161036435610213565b61016d61038435610213565b6101796103a435610213565b6101856103c435610213565b6101916103e435610213565b61019d61040435610213565b6101a961042435610213565b6101b561044435610213565b6101c161046435610213565b6101cd61048435610213565b6101d96104a435610213565b35610213565b611272565b8152f35b8380fd5b5080fd5b80fd5b9060049160441161020057565b600080fd5b9060c4916101041161020057565b7f30644e72e131a029b85045b68181585d97816a916871ca8d3c208c16d87cfd47111561023c57565b6000805260206000f35b604051907f147334838266e40524782de60f744782f5cc3eb08f28c43689272e7234200e4282527f113f5eac82f08b3b6b51473d27bf5d8e8c6a21a4d7a74ca5769464c9e69454d86020830152604082019081526107cf196040836060816007855a01fa1561023c5760409260066080939284938451905260a05160608401525a01fa1561023c57565b604051907f2006ae964182228642bc1c3b1e155d2456aaa48eebf7fbcabe038f67b6c94d6182527f17d4a3477bc87c2bbc1ecc7c2a362bd229ab4dfe7d4806a6f8e510a01016ad2e6020830152604082019081526107cf196040836060816007855a01fa1561023c5760409260066080939284938451905260a05160608401525a01fa1561023c57565b604051907f2b654c0f6fb40140989f796c82a5b1463a25e2e446ba190be23008b69d720a9182527f1b07151afaa50e335ffdfd7bfcf09e414c2d53770c66b884e313deeaa6240de46020830152604082019081526107cf196040836060816007855a01fa1561023c5760409260066080939284938451905260a05160608401525a01fa1561023c57565b604051907f0745fdebddf701603982fb3fc7745e8689a018e4f1af67bce2805b3c8c5f238f82527f0eb20d86796b9030f4fb482a03159b5379f5013c1d87049d96e062095cca75926020830152604082019081526107cf196040836060816007855a01fa1561023c5760409260066080939284938451905260a05160608401525a01fa1561023c57565b604051907f2fa8c1153b2423b905814001ff2bdc1eae92e5f93c06aca828f76602b45108e782527f09b147647c97aa26709ee65330ad59f4d08e0c2d62a79f46d46a50e0112d14bf6020830152604082019081526107cf196040836060816007855a01fa1561023c5760409260066080939284938451905260a05160608401525a01fa1561023c57565b604051907f26436ceec77605c25d5582aac6db522146c02c61bc5425e7047aee06109c2a6982527f2c1cdd4a0c6e109f667b9d9127204d448958418d683586636cf772906302732e6020830152604082019081526107cf196040836060816007855a01fa1561023c5760409260066080939284938451905260a05160608401525a01fa1561023c57565b604051907f245c245cee2338a64d09c30322d053b8c75b8c4ea94b66bce6386c369919ea3182527f2bf996de19be7ad369b0f2c71deb1826a29c22e59fa457c518f1ed31ea4ce38f6020830152604082019081526107cf196040836060816007855a01fa1561023c5760409260066080939284938451905260a05160608401525a01fa1561023c57565b604051907f13f087045e788edaceadc1c6ce5ee25d7137ef6357a77ba44a57bd840642271782527f2645c682bac016083bbd8bcf68d9f2d4bf8ad8cd1e969d24376774a14cf8d0906020830152604082019081526107cf196040836060816007855a01fa1561023c5760409260066080939284938451905260a05160608401525a01fa1561023c57565b604051907f0a0730278cf41ec3cd56cf31012dd6a413a50320dba91da3880206ad07ade87882527f21aef7556bfe2944fb8aaba937e91a39e11526626266063d119432a099fac4fd6020830152604082019081526107cf196040836060816007855a01fa1561023c5760409260066080939284938451905260a05160608401525a01fa1561023c57565b604051907f1c6d4dbf14b7273c59f2e73b530ee3150d7f442c79d4da63d05f44312ea308cf82527f237c6abf19859a7e4c40f397084b2ffe2a5068535ca6c4153203012f720f10296020830152604082019081526107cf196040836060816007855a01fa1561023c5760409260066080939284938451905260a05160608401525a01fa1561023c57565b604051907f293d549869d24d6193acfbfac51cec4e4db71eedf6947cc02d93af34b51d1f2b82527f29c2163a89520c2809dd2487bf7d26aab034d5d890f29c340f443f101f1678406020830152604082019081526107cf196040836060816007855a01fa1561023c5760409260066080939284938451905260a05160608401525a01fa1561023c57565b604051907f06079dccc07f67aafdd4261e6ca9b2a07775dd01e00213d6eb44478b87fd717382527f06e76f9e198bbfbe01581f8125fa2ca7a78c6b473a7f55e4ed7a41679b6875816020830152604082019081526107cf196040836060816007855a01fa1561023c5760409260066080939284938451905260a05160608401525a01fa1561023c57565b604051907f2fc16b0d9cff276f181d0dca1153ea0e0f82750c2a40f428176b4813dc7f3dce82527f2b91188690e1f50852eb48b58cbc41235f1b52276418943583b512bc0f0ab60c6020830152604082019081526107cf196040836060816007855a01fa1561023c5760409260066080939284938451905260a05160608401525a01fa1561023c57565b604051907f26c33794912ab5cd19720ae5e7ec0b4380909c14bf0144711a21c735e4727b4082527f234ff8e2008574d3de0546849293135feb890687c5da9d003cb36e688a63a8f66020830152604082019081526107cf196040836060816007855a01fa1561023c5760409260066080939284938451905260a05160608401525a01fa1561023c57565b604051907f0e65ef976f048e949ed9fe556da174c4f6c13235ff6d73df5f8f3a3c050e25f982527f261a66caa9706412161bc0bd5dc7849e0293a3f2b513005efb2aa2283fa5914e6020830152604082019081526107cf196040836060816007855a01fa1561023c5760409260066080939284938451905260a05160608401525a01fa1561023c57565b604051907f1e268daaaa65c71e5224f57fb1a7f54b95dd6b1da875da00112af1fa01cc2f2282527f134b577fc9309178408cc537da5e8c9c4388851cef8b4edb235e302aa27b2d4b6020830152604082019081526107cf196040836060816007855a01fa1561023c5760409260066080939284938451905260a05160608401525a01fa1561023c57565b604051907f0a56f866ab60cc2de7046ce28221ba208a87a67f22782ca55b5247177945749e82527f05a38a8c6737e3d5b22a5cb239f157adebb38f8b89400b39079109c29b510d226020830152604082019081526107cf196040836060816007855a01fa1561023c5760409260066080939284938451905260a05160608401525a01fa1561023c57565b604051907f1c71b13c344d6769ce1f1c7e566f95d339238994746eae6fd25bad214fa5f0aa82527f05575a45285d41ea5321f0de26f7059d2613b65b6e86f40029c4045c7ea70a016020830152604082019081526107cf196040836060816007855a01fa1561023c5760409260066080939284938451905260a05160608401525a01fa1561023c57565b604051907f035385c1a1f265c954aadfbd9875b180cd45958d410cce22a4ea414d15cfca4382527f2298dc5fa338d456391aa7a0aa0ec28da8dcf70f04f9c67379f41fc2aab3da406020830152604082019081526107cf196040836060816007855a01fa1561023c5760409260066080939284938451905260a05160608401525a01fa1561023c57565b604051907f1293a5c2fd9ba1e003fb4da3442320be6613907b4873d968ff144fd39879dfe182527f12351564de611731da32e2dd56055320ed85effdc9e0c1991d0884c395f219566020830152604082019081526107cf196040836060816007855a01fa1561023c5760409260066080939284938451905260a05160608401525a01fa1561023c57565b604051907f06c2b4af66a65748d6204299ef69c11dc5614085aaa68cb252cbe86ca6656ca982527f19b8aec4a1edb4c14baabd1381f439ccadd00fd2b14b5a00c5976ae4c99c51466020830152604082019081526107cf196040836060816007855a01fa1561023c5760409260066080939284938451905260a05160608401525a01fa1561023c57565b604051907f10d7ba436a85ac5a4c0ca5b0494f4f4a9508648c2d0eed7814bbb8c4e7ac4c3682527f1fc2f7e71522d54f9f6c2db2db75e746781d922600ff780ded580362c846e3d16020830152604082019081526107cf196040836060816007855a01fa1561023c5760409260066080939284938451905260a05160608401525a01fa1561023c57565b604051907f045ac57c97680ea9f79e4dd7768be6cacadd652ad357a3d8f57ed856c323f56c82527f13cec11cde7691abd4a747febc0f238047c39646b2eee47870f72088c1770b606020830152604082019081526107cf196040836060816007855a01fa1561023c5760409260066080939284938451905260a05160608401525a01fa1561023c57565b604051907f2d19e85ed9eec1e19112b4da04e22323e990e7a1bc8b83b7a7cd8bbc51a4d5b882527f0f8d6fa16d8ba1e3e7ec068099701b9d4f134d87d25764cbf44bc9b97a3a02a06020830152604082019081526107cf196040836060816007855a01fa1561023c5760409260066080939284938451905260a05160608401525a01fa1561023c57565b604051907f125f7833ef20686a220b9de7c13790108ccfb367524137b8a36dcf490be8ddfd82527f0bda1cc2ed06324099cf9b2491c67e56fc6ff6f0c4aace02dedcfefd170a0d3b6020830152604082019081526107cf196040836060816007855a01fa1561023c5760409260066080939284938451905260a05160608401525a01fa1561023c57565b604051907f198f079289e47bc7b48e01a3702dc6b0f22818eeefc9be04b5aec049cbd77ba682527f2f5e0e6355c87e2fe5beb0310d16dabfbe85efe52d39d4390260e94b93e7fcb86020830152604082019081526107cf196040836060816007855a01fa1561023c5760409260066080939284938451905260a05160608401525a01fa1561023c57565b604051907f057de54fa5f23b604f7c77ed585c286690a8d9125cc1aded3928a86ad9a86abc82527f0b6556bc5150ecf25e3fe038831b1480bdf8c2f053aa569cde1a6549331c6f496020830152604082019081526107cf196040836060816007855a01fa1561023c5760409260066080939284938451905260a05160608401525a01fa1561023c57565b604051907f24ff1746210b59037f856f824255a377e88622d50707f5a4664e6b1933b0619082527f19f03f78a51fc9d326bfe86317de1c13164f5c3c2d7b6857229adc86cc14fa7d6020830152604082019081526107cf196040836060816007855a01fa1561023c5760409260066080939284938451905260a05160608401525a01fa1561023c57565b604051907f1d1cc59ff5cff19640903473115735598573fab1b53f7e9b73241122d7e4766982527f14c84be478ceb1e65fc4c7cbd3d5ca60d3577e93ecdb617a91ed188e2c91a70a6020830152604082019081526107cf196040836060816007855a01fa1561023c5760409260066080939284938451905260a05160608401525a01fa1561023c57565b604051907f19c2e9027ef8b50ea2dd2b6b906d5c73a066f1c93b38348d54740d0e3ea7e60a82527f128c97f0c70de4f440ad06d94d27475978f286e26867ab3091020f71f252d28a6020830152604082019081526107cf196040836060816007855a01fa1561023c5760409260066080939284938451905260a05160608401525a01fa1561023c57565b6020907f23998cbdb4075b8e84679818576e3102512a6aa552fdf15c49db759ec8d8c3016080527f0d9016cd634e507a79104af548ebe657437c15d0b3c2379bfacfa525aad516eb60a0526112c961010435610246565b6112d5610124356102d0565b6112e16101443561035a565b6112ed610164356103e4565b6112f96101843561046e565b6113056101a4356104f8565b6113116101c435610582565b61131d6101e43561060c565b61132961020435610696565b61133561022435610720565b611341610244356107aa565b61134d61026435610834565b611359610284356108be565b6113656102a435610948565b6113716102c4356109d2565b61137d6102e435610a5c565b61138961030435610ae6565b61139561032435610b70565b6113a161034435610bfa565b6113ad61036435610c84565b6113b961038435610d0e565b6113c56103a435610d98565b6113d16103c435610e22565b6113dd6103e435610eac565b6113e961040435610f36565b6113f561042435610fc0565b6114016104443561104a565b61140d610464356110d4565b6114196104843561115e565b6114256104a4356111e8565b61010092818492358352837f30644e72e131a029b85045b68181585d97816a916871ca8d3c208c16d87cfd479101358103066101205260443561014052606435610160526084356101805260a4356101a0527f2d4d9aa7e302d9df41749d5507949d05dbea33fbb16c643b22f599a2be6df2e26101c0527f14bedd503c37ceb061d8ec60209fe345ce89830a19230301f076caff004d19266101e0527f0967032fcbf776d1afc985f88877f182d38480a653f2decaa9794cbc3bf3060c610200527f0e187847ad4c798374d0d6732bf501847dd68bc0e071241e0213bc7fc13db7ab610220527f304cfbd1e08a704a99f5e847d93f8c3caafddec46b7a0d379da69a4d112346a7610240527f1739c1b1a457a8c7313123d24d2f9192f896b7c63eea05a9d57f06547ad0cec8610260526080516102805260a0516102a0527f198e9393920d483a7260bfb731fb5d25f1aa493335a9e71297e485b7aef312c26102c0527f1800deef121f1e76426a00665e5c4479674322d4f75edadd46debd5cd992f6ed6102e05282610300917f090689d0585ff075ec9e99ad690c3395bc4b313370b38ef355acdadcd122975b83527f12c85ea5db8c6deb4aab71808dcb408fe3d1e7690c43d37b4ce6cc0166fa7daa610320528035610340520135610360527f28fba8e150a9750977fb4dac77cfcf1fd5e0d6a27c05586222e1f6cc02634658610380527f0c135d5d53ff34ca2049e8bde97845411c02398ec38d406682d3fa302e32ad026103a0527f0ba5fceb536e06039b17235c77aa6a4acfe82f8e262212ff5dcfe4bfb28884d56103c0527f12eed3f32dd034dcc9f6f7e7c681b0b42dcdce500597c843639dbfa867a9563a6103e0528160086107cf195a01fa9051169056fea2646970667358221220ef9966fbe6af798db7064228f53c256fac073e28cad72074cb9b3f72ae35627664736f6c634300080f0033",
  "linkReferences": {},
  "deployedLinkReferences": {}
}