{
  "_format": "hh-sol-artifact-1",
  "contractName": "Groth16Verifier",
  "sourceName": "contracts/Game_3_300Verifier.sol",
  "abi": [
    {
      "inputs": [
        {
          "internalType": "uint256[2]",
          "name": "_pA",
          "type": "uint256[2]"
        },
        {
          "internalType": "uint256[2][2]",
          "name": "_pB",
          "type": "uint256[2][2]"
        },
        {
          "internalType": "uint256[2]",
          "name": "_pC",
          "type": "uint256[2]"
        },
        {
          "internalType": "uint256[31]",
          "name": "_pubSignals",
          "type": "uint256[31]"
        }
      ],
      "name": "verifyProof",
      "outputs": [
        {
          "internalType": "bool",
          "name": "",
          "type": "bool"
        }
      ],
      "stateMutability": "view",
      "type": "function"
    }
  ],
  "bytecode": "0x6080806040523461001657611782908161001c8239f35b600080fdfe6080604052600436101561001257600080fd5b6000803560e01c6344a173dd1461002857600080fd5b346101fc576104e03660031901126101fc57610043366101ff565b3660c4116101f85761005436610211565b906104e43681116101f457916101f0916101eb6020959461040060405261007d6101043561021f565b6100896101243561021f565b6100956101443561021f565b6100a16101643561021f565b6100ad6101843561021f565b6100b96101a43561021f565b6100c56101c43561021f565b6100d16101e43561021f565b6100dd6102043561021f565b6100e96102243561021f565b6100f56102443561021f565b6101016102643561021f565b61010d6102843561021f565b6101196102a43561021f565b6101256102c43561021f565b6101316102e43561021f565b61013d6103043561021f565b6101496103243561021f565b6101556103443561021f565b6101616103643561021f565b61016d6103843561021f565b6101796103a43561021f565b6101856103c43561021f565b6101916103e43561021f565b61019d6104043561021f565b6101a96104243561021f565b6101b56104443561021f565b6101c16104643561021f565b6101cd6104843561021f565b6101d96104a43561021f565b6101e56104c43561021f565b3561021f565b611308565b8152f35b8380fd5b5080fd5b80fd5b9060049160441161020c57565b600080fd5b9060c4916101041161020c57565b7f30644e72e131a029b85045b68181585d97816a916871ca8d3c208c16d87cfd47111561024857565b6000805260206000f35b604051907f247280662653f5ab07ff505a42bedeed95779bc5b755be1eac36ccbd73b2ab7782527f0c7fda6030141869e064ede5ed2929a68de0555fd1300a002db0597d1d4809156020830152604082019081526107cf196040836060816007855a01fa156102485760409260066080939284938451905260a05160608401525a01fa1561024857565b604051907f21a0e3406cd1aa2e2f4c002480275fadaa024a1c49347a8676349c8e1544b7fb82527f141b1be800423133186d3c42a056a56fafdd9c3c7d9a518d0d6b0dd8d10865746020830152604082019081526107cf196040836060816007855a01fa156102485760409260066080939284938451905260a05160608401525a01fa1561024857565b604051907f1bfb45f99b0130f46eead37f32a356215e7b297af0b200a04804f23cf88d780e82527f2460c06bb73ccbb52ebad0dfee8f89f9c28badfb12277e6cc7034f69e581b4d76020830152604082019081526107cf196040836060816007855a01fa156102485760409260066080939284938451905260a05160608401525a01fa1561024857565b604051907f1a3201cb9f10a2b3718b1753f78c0337bee3a24d0ab584e640e6206a5388081782527f2526a4428f586c1ba3b18a0c194c6ba176f73c1bed0c77a57c4f6f457d2a6f766020830152604082019081526107cf196040836060816007855a01fa156102485760409260066080939284938451905260a05160608401525a01fa1561024857565b604051907f0757b903a05ad138558a5c6853d9dd58fc0a7b92c47f75e32a5c906e13bf401782527f1c9e147c85bb3c93326f777e30317d80113034a27f095e695da78b2f62c253d16020830152604082019081526107cf196040836060816007855a01fa156102485760409260066080939284938451905260a05160608401525a01fa1561024857565b604051907f2dfd38db7869ead9e82aa71e9f65feab9662430e54d1f6085aac32abbd3fe02282527f25522150e7864824ae24d9546f4e130b4338ea248d2a3fce1287b8a4fec7706a6020830152604082019081526107cf196040836060816007855a01fa156102485760409260066080939284938451905260a05160608401525a01fa1561024857565b604051907f1f26f2b4c9b71e99e530e1a96e9277b6658194e2d0284e1cfb369ad6410aa36182527f1dc0cdf6323f8186368ac0998ff024daf19f5eb7670ec7f7d4b622fc932072196020830152604082019081526107cf196040836060816007855a01fa156102485760409260066080939284938451905260a05160608401525a01fa1561024857565b604051907f0d682f5caaeccc7d41da7e5c0c0993f742f7b009f23a1f0baa3b4f67972b03c582527f2d09f797ca43429ce586f68bd04e7f2e2b53ef3b2d9a9a01149d08bdeff5c7446020830152604082019081526107cf196040836060816007855a01fa156102485760409260066080939284938451905260a05160608401525a01fa1561024857565b604051907f17a92a9c32321eda85a682936132df85609ff68d34b668843a743ec08c12a42082527f0dc632c6407f1f7a8c85f69f558dab2ff18d5273595ac9fd887524126ea2a4b66020830152604082019081526107cf196040836060816007855a01fa156102485760409260066080939284938451905260a05160608401525a01fa1561024857565b604051907f2b130e2bbc6f7bb0df30a61c69c55e829a79f2c4a2e80c3749396a94e383c43082527f062a6f86921c792333bb4e3df726df4330c4fb0abcace3862feac61caeb9cffc6020830152604082019081526107cf196040836060816007855a01fa156102485760409260066080939284938451905260a05160608401525a01fa1561024857565b604051907f051de5accf27661944984426eba677482e6b7d309a80a4c39f0d54cc4a3d691a82527f204f413d645d29a2e98307e73e891bdf6c57f6cdeb0aa066715c57f1a0aa8cef6020830152604082019081526107cf196040836060816007855a01fa156102485760409260066080939284938451905260a05160608401525a01fa1561024857565b604051907f0807a2f700b731c5e78770d3e7ed8e8523c62c45b96c60effc4ea4a940657c1282527f05ddbdb4b51d682a190a336ff591b641db7367213818859c15a81db5e61473636020830152604082019081526107cf196040836060816007855a01fa156102485760409260066080939284938451905260a05160608401525a01fa1561024857565b604051907f2138152cdf9b7c21db587d1039f04fed8d81d722e87af082fc4f191aa977e9fc82527f0f3c2c22cdbadf2437cc9e36c52fdd2ca3674696d8b88ebeb721f536ffb189e46020830152604082019081526107cf196040836060816007855a01fa156102485760409260066080939284938451905260a05160608401525a01fa1561024857565b604051907f1fdc5dcbe277987f6e6974795d70fee04efaadb168c98a616b6e6856fd0bf86682527f0f2db3e456662f8056adcf09b8e94e6224d39d3cd031f1b643b8ca5c72f2138a6020830152604082019081526107cf196040836060816007855a01fa156102485760409260066080939284938451905260a05160608401525a01fa1561024857565b604051907f22cf4e00de396d11a857dbb470b035637cb880701ff358f6401c1f0f330c170f82527f22340e26bf28d0a3896013ad6769bb8ba7bcdfb5335ef4cb91595d4677d77ac06020830152604082019081526107cf196040836060816007855a01fa156102485760409260066080939284938451905260a05160608401525a01fa1561024857565b604051907f01779db5bac40f897b75434361b1124f42f562578eb18b9a6f181319eeb9d32482527f02cc3b7509395947a6898a672d6a79a3d9ec4188a4c93d3fa38e950880f6d72c6020830152604082019081526107cf196040836060816007855a01fa156102485760409260066080939284938451905260a05160608401525a01fa1561024857565b604051907f032c367b60276c012044ee7d20a889e7dd3c1008b1bb3b557da26608162b16f382527f1ab8ec17f39c40aaeb3ed974a8fe0cd94e5631d48585a86dedd7dac9e4878e666020830152604082019081526107cf196040836060816007855a01fa156102485760409260066080939284938451905260a05160608401525a01fa1561024857565b604051907f11147446c3b781b4ff79eab4967b1756327e603446382e0aaf68f6aed0c2d20382527f23d46b08968929bd95a9daf44165b7231bff0175c91f222a9ac3fc27376a92566020830152604082019081526107cf196040836060816007855a01fa156102485760409260066080939284938451905260a05160608401525a01fa1561024857565b604051907f1d3f34a0a6503ba6c6b9c8a6c054b5c18c8122a44c0cc43670409a9efb790a5282527f21eddcfedc6ee112afaa3215a333ca3e1c0d26c37962d5156f0a5656f01887e16020830152604082019081526107cf196040836060816007855a01fa156102485760409260066080939284938451905260a05160608401525a01fa1561024857565b604051907f1646f0491aff9cd269bd17b96707aadaaaf290abb4bb15ffb594acdf88f52b1d82527f0b7b011c82a1ac1e18cab598a5152c90b98a38888cdee2c2a617f975195bb8726020830152604082019081526107cf196040836060816007855a01fa156102485760409260066080939284938451905260a05160608401525a01fa1561024857565b604051907f15a1396d9fb8aead0e5487aa57a0bf35408aff37562e13b130cc44e721bf9c0282527f2b6da0b30a5692f199a69494a60dfbe1b2b732629de0d20234048575c441f52d6020830152604082019081526107cf196040836060816007855a01fa156102485760409260066080939284938451905260a05160608401525a01fa1561024857565b604051907f2a0d9f637a37f612d05899320daaa4a03fb72a4a65922723bc7875fa7c1346c182527f22109b2bdcb27949608ac6b4244424f890c58f69cf6b094d2a51046d31ff3ced6020830152604082019081526107cf196040836060816007855a01fa156102485760409260066080939284938451905260a05160608401525a01fa1561024857565b604051907f0b0442a673d868b7e0909f99e32c08ecf398cb658b431503298b2c63a18e4c4982527f099ece66dc7c71c0608c17892a59fe302d4279c6a240a91421a31bfac4ff29686020830152604082019081526107cf196040836060816007855a01fa156102485760409260066080939284938451905260a05160608401525a01fa1561024857565b604051907f16d2b28494e5517d21bda28c276dc843e56dcfdff3302a0e24536d81adc374d782527f2e2645f7e4c2d3a52cdf07b90e2d69a8f15b0cf16cd8591796e524ca3fe1365e6020830152604082019081526107cf196040836060816007855a01fa156102485760409260066080939284938451905260a05160608401525a01fa1561024857565b604051907f241d6ef0b1bf078808b1fdcb3e20292195fe8b6d832b537753aeb96d8c1a1d0982527f1bad9ccb6fd5668a8836d19493cd3fcd2644d17e2ee439515a1e38cff0622fc76020830152604082019081526107cf196040836060816007855a01fa156102485760409260066080939284938451905260a05160608401525a01fa1561024857565b604051907f16341447cd50930a4bfa6b78606c1e490a5299864584edca66c1c236f21f33e082527f18c1540788914769eb7d158c7fadfc65623edba12598f6c8c8174a698d7438466020830152604082019081526107cf196040836060816007855a01fa156102485760409260066080939284938451905260a05160608401525a01fa1561024857565b604051907f02965ad7a31e61588b9d8aebe3098921a1e301db0106a017a79c7077cf46b5b682527f10b9a7c16f820c942ace7145d6668b322d5df5bcbf880174882caba7744603076020830152604082019081526107cf196040836060816007855a01fa156102485760409260066080939284938451905260a05160608401525a01fa1561024857565b604051907f0ecad83a53560d34b827a59bce2a35977905ee9ee28eec93f8915b21ff69db2e82527f2e43d04aa36bdf5a067bba981305fcd36e76848bf681571387860fe41fec34d26020830152604082019081526107cf196040836060816007855a01fa156102485760409260066080939284938451905260a05160608401525a01fa1561024857565b604051907f14ff20d8eef0c20954cac51712a904ccb1d6f1e2c950573cc7240a10246e837e82527f03dac9b25c9f2b3e1d4acce331e7f67c1dd06672a9308e8e28db402773c39efc6020830152604082019081526107cf196040836060816007855a01fa156102485760409260066080939284938451905260a05160608401525a01fa1561024857565b604051907f2dbb55ff0c2e95ece496cbde90a45c22c1fa0e01102c0b06fa618b6942ad4ba582527f084aa3aa2c2e47ffdb60d327d5c7ce1424fd58045dc097c533898203db0bb9e96020830152604082019081526107cf196040836060816007855a01fa156102485760409260066080939284938451905260a05160608401525a01fa1561024857565b604051907f218ecea34e6f82f6002ba7253c1efc5690c54e2c1b5c9094a5f9ea0ee77b82dd82527f04a2302a012b98ac1c30534e8a61c200098046a5312d0662a426d79816d8a0e16020830152604082019081526107cf196040836060816007855a01fa156102485760409260066080939284938451905260a05160608401525a01fa1561024857565b6020907f2326f25503cab1c2dc970d7331b617daa8d45426b16678bced92f52384adca2d6080527f125795a2ffd97068bcf20b59c7662d511e91259f44503779db2c118e70cb4ef260a05261135f61010435610252565b61136b610124356102dc565b61137761014435610366565b611383610164356103f0565b61138f6101843561047a565b61139b6101a435610504565b6113a76101c43561058e565b6113b36101e435610618565b6113bf610204356106a2565b6113cb6102243561072c565b6113d7610244356107b6565b6113e361026435610840565b6113ef610284356108ca565b6113fb6102a435610954565b6114076102c4356109de565b6114136102e435610a68565b61141f61030435610af2565b61142b61032435610b7c565b61143761034435610c06565b61144361036435610c90565b61144f61038435610d1a565b61145b6103a435610da4565b6114676103c435610e2e565b6114736103e435610eb8565b61147f61040435610f42565b61148b61042435610fcc565b61149761044435611056565b6114a3610464356110e0565b6114af6104843561116a565b6114bb6104a4356111f4565b6114c76104c43561127e565b61010092818492358352837f30644e72e131a029b85045b68181585d97816a916871ca8d3c208c16d87cfd479101358103066101205260443561014052606435610160526084356101805260a4356101a0527f2d4d9aa7e302d9df41749d5507949d05dbea33fbb16c643b22f599a2be6df2e26101c0527f14bedd503c37ceb061d8ec60209fe345ce89830a19230301f076caff004d19266101e0527f0967032fcbf776d1afc985f88877f182d38480a653f2decaa9794cbc3bf3060c610200527f0e187847ad4c798374d0d6732bf501847dd68bc0e071241e0213bc7fc13db7ab610220527f304cfbd1e08a704a99f5e847d93f8c3caafddec46b7a0d379da69a4d112346a7610240527f1739c1b1a457a8c7313123d24d2f9192f896b7c63eea05a9d57f06547ad0cec8610260526080516102805260a0516102a0527f198e9393920d483a7260bfb731fb5d25f1aa493335a9e71297e485b7aef312c26102c0527f1800deef121f1e76426a00665e5c4479674322d4f75edadd46debd5cd992f6ed6102e05282610300917f090689d0585ff075ec9e99ad690c3395bc4b313370b38ef355acdadcd122975b83527f12c85ea5db8c6deb4aab71808dcb408fe3d1e7690c43d37b4ce6cc0166fa7daa610320528035610340520135610360527f25868528be800ac36c142e58681a2d4b2261d96100500db0f6c8eb97b91dfb20610380527f0d3ade20d322f2d5f7d66717dc7fb1c485c5cc938d588ac4e1e6dae0860bb3aa6103a0527f28dc755c13defdf3f0387af0e22e042f14bebe0407705ebef7e8d09ee731dd3e6103c0527f0a08f98e4cadf402c7772740badc3f636fb5a4c3b92bfc52a2f44fc7e4260b2b6103e0528160086107cf195a01fa9051169056fea26469706673582212207e6cc2569040bd1e561b8c5263cf417dae049d2abf8a28d274f445c97f99c3b464736f6c634300080f0033",
  "linkReferences": {},
  "deployedLinkReferences": {}
}