{
  "_format": "hh-sol-artifact-1",
  "contractName": "Groth16Verifier",
  "sourceName": "contracts/Game_1_300Verifier.sol",
  "abi": [
    {
      "inputs": [
        {
          "internalType": "uint256[2]",
          "name": "_pA",
          "type": "uint256[2]"
        },
        {
          "internalType": "uint256[2][2]",
          "name": "_pB",
          "type": "uint256[2][2]"
        },
        {
          "internalType": "uint256[2]",
          "name": "_pC",
          "type": "uint256[2]"
        },
        {
          "internalType": "uint256[11]",
          "name": "_pubSignals",
          "type": "uint256[11]"
        }
      ],
      "name": "verifyProof",
      "outputs": [
        {
          "internalType": "bool",
          "name": "",
          "type": "bool"
        }
      ],
      "stateMutability": "view",
      "type": "function"
    }
  ],
  "bytecode": "0x6080806040523461001657610ad9908161001c8239f35b600080fdfe6080604052600436101561001257600080fd5b6000803560e01c63b9c6ea871461002857600080fd5b3461010c5761026036600319011261010c576100433661010f565b3660c4116101085761005436610121565b906102643681116101045791610100916100fb6020959461040060405261007d6101043561012f565b6100896101243561012f565b6100956101443561012f565b6100a16101643561012f565b6100ad6101843561012f565b6100b96101a43561012f565b6100c56101c43561012f565b6100d16101e43561012f565b6100dd6102043561012f565b6100e96102243561012f565b6100f56102443561012f565b3561012f565b61074f565b8152f35b8380fd5b5080fd5b80fd5b9060049160441161011c57565b600080fd5b9060c4916101041161011c57565b7f30644e72e131a029b85045b68181585d97816a916871ca8d3c208c16d87cfd47111561015857565b6000805260206000f35b604051907f1b5facc619a2f95bbbe65b7e350b8fc73c621ec28150a2b17002b6202e2c05ea82527f093d4c291567903ca6216240b4d5d5a51decec875be08119588361ae84e07bee6020830152604082019081526107cf196040836060816007855a01fa156101585760409260066080939284938451905260a05160608401525a01fa1561015857565b604051907f0edb6a1db6bbb070cb0225a05b283bec0687c0e732b5dfbf90a9ca971625271882527f165eefa2643d4d455623ef01a3ae942105bc3257ed7a2a87fa182d063db211da6020830152604082019081526107cf196040836060816007855a01fa156101585760409260066080939284938451905260a05160608401525a01fa1561015857565b604051907f18598f6fb84714fbbb4e5742e5d1c658a24cf784c277a2e00475b9bc5bc482f282527f1766d3c42a04cf2e91c6bb933046a38c543dd2451cdfe2e0cdddb37cdc050d136020830152604082019081526107cf196040836060816007855a01fa156101585760409260066080939284938451905260a05160608401525a01fa1561015857565b604051907f09ce109bbe6b2d0b6b4e6ff1eaa8c56abf4133583985a54766d1e65fa228afb982527e15f5db0eb2c05aa0ef060c079d9fae36b83524dbbe1cc736008f29e1d72a7e6020830152604082019081526107cf196040836060816007855a01fa156101585760409260066080939284938451905260a05160608401525a01fa1561015857565b604051907f0f3e496a2ea0b7b9f021806752b087239ebccf4406b6b91a29a96b3bd4701b9082527f293e9c72dfaf3c0b5288fc021a379262475350d3bcb5aa30d9a0429256effa9c6020830152604082019081526107cf196040836060816007855a01fa156101585760409260066080939284938451905260a05160608401525a01fa1561015857565b604051907f0305c8a630268ae4e958609b1d8b5f9374a321a62594fb19bf7e0705f9af6f9382527f2c16795b61a0b5669380018970a27989fddefd68c57ff43834adf47949868a0c6020830152604082019081526107cf196040836060816007855a01fa156101585760409260066080939284938451905260a05160608401525a01fa1561015857565b604051907f29c33051635b551d015a99e775c485e0ccedabe57b24b22b6674cbb426caf46f82527f0d849eb0adabb38f9d56628b4c455382631d3f460ae9182061ae4a0d001190be6020830152604082019081526107cf196040836060816007855a01fa156101585760409260066080939284938451905260a05160608401525a01fa1561015857565b604051907f20152b366ee96bb7c2346df4a897ee233eccdab9c838b36c8126082f8f35504982527f2f9919bd5ce1560c76dab1861677bedc67cd031c50507b2660460634e4217eff6020830152604082019081526107cf196040836060816007855a01fa156101585760409260066080939284938451905260a05160608401525a01fa1561015857565b604051907f15cca010b89b4f0e680bd657aef1c51775f05838211d39037634e274fb84cfcc82527f0da9edd82d1b1527a0309866ae11b30accab608f49b7d6b0d80a108256ebf9946020830152604082019081526107cf196040836060816007855a01fa156101585760409260066080939284938451905260a05160608401525a01fa1561015857565b604051907f1aeb82d0a8a4649a228074c72291c1013a4ff25822acdf02b23cae1358810f1282527f137789cec6c87b5025fa0a0efd165fa1b26622e6f153416f9d0cc1152f9c7dde6020830152604082019081526107cf196040836060816007855a01fa156101585760409260066080939284938451905260a05160608401525a01fa1561015857565b604051907f301d0564be4663e4ae8babbfb3d240648d96d1a48a12e67b88b8e756f7bddb8882527f077bb8e4b7a1daafcead88f675a72f52d8dbed2c0c12e7cb6e19108567373da66020830152604082019081526107cf196040836060816007855a01fa156101585760409260066080939284938451905260a05160608401525a01fa1561015857565b6020907f0b77798b4e0506aee92d98d9cd9b6274729833894b468cd171b8e403113c57256080527f2e2dff00fe31bbc57943a67a7a06324a510d0b5710c3cd6c365b93e4f15ca17060a0526107a661010435610162565b6107b2610124356101ec565b6107be61014435610276565b6107ca61016435610300565b6107d661018435610389565b6107e26101a435610413565b6107ee6101c43561049d565b6107fa6101e435610527565b610806610204356105b1565b6108126102243561063b565b61081e610244356106c5565b61010092818492358352837f30644e72e131a029b85045b68181585d97816a916871ca8d3c208c16d87cfd479101358103066101205260443561014052606435610160526084356101805260a4356101a0527f2d4d9aa7e302d9df41749d5507949d05dbea33fbb16c643b22f599a2be6df2e26101c0527f14bedd503c37ceb061d8ec60209fe345ce89830a19230301f076caff004d19266101e0527f0967032fcbf776d1afc985f88877f182d38480a653f2decaa9794cbc3bf3060c610200527f0e187847ad4c798374d0d6732bf501847dd68bc0e071241e0213bc7fc13db7ab610220527f304cfbd1e08a704a99f5e847d93f8c3caafddec46b7a0d379da69a4d112346a7610240527f1739c1b1a457a8c7313123d24d2f9192f896b7c63eea05a9d57f06547ad0cec8610260526080516102805260a0516102a0527f198e9393920d483a7260bfb731fb5d25f1aa493335a9e71297e485b7aef312c26102c0527f1800deef121f1e76426a00665e5c4479674322d4f75edadd46debd5cd992f6ed6102e05282610300917f090689d0585ff075ec9e99ad690c3395bc4b313370b38ef355acdadcd122975b83527f12c85ea5db8c6deb4aab71808dcb408fe3d1e7690c43d37b4ce6cc0166fa7daa610320528035610340520135610360527f05a2ade1d352010fde90162008fbd4bd3a3eb1d0cdfbc213d7808304529d9812610380527f0c6d39441bf2bac8868c11f7db76c6fd403acc0a229ae42a6f283533dcdc3bc76103a0527f2873b6f27583a9d2b17f8abaa3f9af65eb72b09313d49d970341637012f6766a6103c0527f186ef6b70e6a5d85ba5d54439633a39497f6a3930baebb307bb5ef7eab8741fc6103e0528160086107cf195a01fa9051169056fea264697066735822122087a96565f6571b78ff5fb13a65e0e82daf0f95152ef3c7c6774d8f35b56e09b464736f6c634300080f0033",
  "linkReferences": {},
  "deployedLinkReferences": {}
}