{
  "_format": "hh-sol-artifact-1",
  "contractName": "Groth16Verifier",
  "sourceName": "contracts/Game_2_250Verifier.sol",
  "abi": [
    {
      "inputs": [
        {
          "internalType": "uint256[2]",
          "name": "_pA",
          "type": "uint256[2]"
        },
        {
          "internalType": "uint256[2][2]",
          "name": "_pB",
          "type": "uint256[2][2]"
        },
        {
          "internalType": "uint256[2]",
          "name": "_pC",
          "type": "uint256[2]"
        },
        {
          "internalType": "uint256[32]",
          "name": "_pubSignals",
          "type": "uint256[32]"
        }
      ],
      "name": "verifyProof",
      "outputs": [
        {
          "internalType": "bool",
          "name": "",
          "type": "bool"
        }
      ],
      "stateMutability": "view",
      "type": "function"
    }
  ],
  "bytecode": "0x6080806040523461001657611821908161001c8239f35b600080fdfe6080604052600436101561001257600080fd5b6000803560e01c633cc08b241461002857600080fd5b3461020857610500366003190112610208576100433661020b565b3660c411610204576100543661021d565b9061050436811161020057916101fc916101f76020959461040060405261007d6101043561022b565b6100896101243561022b565b6100956101443561022b565b6100a16101643561022b565b6100ad6101843561022b565b6100b96101a43561022b565b6100c56101c43561022b565b6100d16101e43561022b565b6100dd6102043561022b565b6100e96102243561022b565b6100f56102443561022b565b6101016102643561022b565b61010d6102843561022b565b6101196102a43561022b565b6101256102c43561022b565b6101316102e43561022b565b61013d6103043561022b565b6101496103243561022b565b6101556103443561022b565b6101616103643561022b565b61016d6103843561022b565b6101796103a43561022b565b6101856103c43561022b565b6101916103e43561022b565b61019d6104043561022b565b6101a96104243561022b565b6101b56104443561022b565b6101c16104643561022b565b6101cd6104843561022b565b6101d96104a43561022b565b6101e56104c43561022b565b6101f16104e43561022b565b3561022b565b61139b565b8152f35b8380fd5b5080fd5b80fd5b9060049160441161021857565b600080fd5b9060c4916101041161021857565b7f30644e72e131a029b85045b68181585d2833e84879b9709143e1f593f0000001111561025457565b6000805260206000f35b604051907f22971ad1cef1c04465d0b69350cf3ae7d8806f1a0b1757422792d29d15d62ff882527f1f4d1aa061ebda1daf58fe72fbaf8a8fd81be8aa206e1518343e2eb1ff2a9a406020830152604082019081526107cf196040836060816007855a01fa156102545760409260066080939284938451905260a05160608401525a01fa1561025457565b604051907f0e3ecbb330bffedb4086045fc99d2e7cda7029598c8de43fe77402a4c083bd4282527f27f5688bede2bdcb560f33c3f40f0ab3261b8c70bf6430c052fc125925a1e8b96020830152604082019081526107cf196040836060816007855a01fa156102545760409260066080939284938451905260a05160608401525a01fa1561025457565b604051907f0a79ec3afb45440a43a7f28227534649d82d1a05115ede09f8a1e9148bb3aaba82527f0e2e39b3f31df8335fda7ef7fc0f2e2f23af97645331cade74e300e7fdc467036020830152604082019081526107cf196040836060816007855a01fa156102545760409260066080939284938451905260a05160608401525a01fa1561025457565b604051907f2f98b2ad3f0498dc0b6a0a29c8ec4424cb23df073bd358b7e6c14e48f6fb49db82527f27ebf7e6ede25b89af80f59376250d60844f18b328a7fd2eb4088aeb26e9b2b96020830152604082019081526107cf196040836060816007855a01fa156102545760409260066080939284938451905260a05160608401525a01fa1561025457565b604051907e326008dc80bf9c67e058ee5df9480dce295e8d22f353da3a469c717560766582527f29a652d5b0589993acf0b96f87a66ea029ae58bcf4086ecb75c600846e3d984d6020830152604082019081526107cf196040836060816007855a01fa156102545760409260066080939284938451905260a05160608401525a01fa1561025457565b604051907f15979351a6bed0626e97447c19b8b85af6c4a150c813bd5a255537cbba46e3ac82527f16bf863ba77cdfa9813dd51e1d2ca2e3daca865c0fb0a7af65b1571ff988fc626020830152604082019081526107cf196040836060816007855a01fa156102545760409260066080939284938451905260a05160608401525a01fa1561025457565b604051907f06a741d4b59751784223412b087fb911a771bb3b9feb3a759b2239e90b0110e882527f2671f61364e510c34b707814207215fd70d43f1ef47873ee7f9043be4ad026856020830152604082019081526107cf196040836060816007855a01fa156102545760409260066080939284938451905260a05160608401525a01fa1561025457565b604051907f13f24cd961211e2b5f05240e27042890eb3e06a78700a0a2cb1fc737ac0b280982527f189d3c2a40d29b9c04b1ab25e9c4637847fa750637658c9d53daa94b9691a98d6020830152604082019081526107cf196040836060816007855a01fa156102545760409260066080939284938451905260a05160608401525a01fa1561025457565b604051907f14857ad2b0ce5450bfcb560b6df60e2648705819dc49e82609c3d533ffb836eb82527f22e91081ca6ba0415fbd72bc76bbc9e0aa43a87d029099509afe1717a687391c6020830152604082019081526107cf196040836060816007855a01fa156102545760409260066080939284938451905260a05160608401525a01fa1561025457565b604051907f0793094ae7bf499907dd32fab08dea383f2a3b2521d660178db62e7efcd98a1182527f0ffafd4362cc54a1bd5f1ea7a0495b24c8d7241f74978e0a2c5823b565fd733b6020830152604082019081526107cf196040836060816007855a01fa156102545760409260066080939284938451905260a05160608401525a01fa1561025457565b604051907f2e6cd248c26c561c481c9869d7db5a3685beeeac69e61531c4c6061f5842f19682527f0a85dd594c0e5d0a28a376e58c00e943bf0078e49e990e82b116254f681ac2336020830152604082019081526107cf196040836060816007855a01fa156102545760409260066080939284938451905260a05160608401525a01fa1561025457565b604051907e8c6897b26d935a10e183efe5545d221f2d601ccafd89a6458383018cb9ff2982527f1d8717529032c12bb6876c199c288c26caffed3f623f41ed7a9a795446c02fb46020830152604082019081526107cf196040836060816007855a01fa156102545760409260066080939284938451905260a05160608401525a01fa1561025457565b604051907f2582644ee4396f9dc0b276e5bfd155e7d3545bb8ce425790104f856c9952a1a182527f076fbb0bdc2dcc8e0eb2ee1721d92dd620185c8c0d4444daa395991f1d9cca886020830152604082019081526107cf196040836060816007855a01fa156102545760409260066080939284938451905260a05160608401525a01fa1561025457565b604051907f28963a7f7c0e9f9d2821b667ae66a3a90636434e310fa58c6eeb5d1440c0be0e82527f0b366245f7493bf0f350e173d88c108c3e8ded9972c7b58e129a546583b9a67d6020830152604082019081526107cf196040836060816007855a01fa156102545760409260066080939284938451905260a05160608401525a01fa1561025457565b604051907f17c934c39cad13bdd613c64d90819f80837517e6e2aba734f569877138abdf1d82527f28e104d0eb368df78ce41c309501a9e0dae09875d29c733e63a458cf02d577f06020830152604082019081526107cf196040836060816007855a01fa156102545760409260066080939284938451905260a05160608401525a01fa1561025457565b604051907f17e41b8aa89659f8ca3d86d0aa2d4294e01fc9d3a4b93017c8c88c2cb3208a1a82527f0e677c294197dacdcc43ddfadfe353d0d200f63e2fffed2ca0aa6bf94747f0026020830152604082019081526107cf196040836060816007855a01fa156102545760409260066080939284938451905260a05160608401525a01fa1561025457565b604051907f0fc25b0ff62041971a4f2f7e8835346b152352e80fd1943bc410958dce19780482527f2e2ec691acac5e59b37a559433693b5de54ce4caf3423c5c3bd7b70bdb357d0d6020830152604082019081526107cf196040836060816007855a01fa156102545760409260066080939284938451905260a05160608401525a01fa1561025457565b604051907f2b44a272e6cacb9c99a9761b571b64325ae42d1a5fadcea98a1736350b9ecf2282527f11d472a6ba875d17a35fa184f795bb1c81df68cfe53232778e5dc22e704603f06020830152604082019081526107cf196040836060816007855a01fa156102545760409260066080939284938451905260a05160608401525a01fa1561025457565b604051907f2e3f61327a05a7d79a6566546209ed671faed6dec8fe58fbc8df31ea20f04c5d82527f1e344c026022cf89dd93ad136129e34ad4884406a64b32a142dd6a27ea6fc5eb6020830152604082019081526107cf196040836060816007855a01fa156102545760409260066080939284938451905260a05160608401525a01fa1561025457565b604051907f21b7716d9544338d3ab0351f254c05a870f1df688cec3d83a0eb36f427853cf182527f12a827f29ee2d785bbe51315ff21d96e4b97f89a7c9a99448eeffc2c657977896020830152604082019081526107cf196040836060816007855a01fa156102545760409260066080939284938451905260a05160608401525a01fa1561025457565b604051907f2f00b2bf3758202c4ebfeedbea41bcc292c032e6bd95f53eb5b91bc12569563382527f166e4d3a20c954c775547ad6bd48d7e696c92f344480d246c0114db882d3d21a6020830152604082019081526107cf196040836060816007855a01fa156102545760409260066080939284938451905260a05160608401525a01fa1561025457565b604051907f0813da823fb8ef1c3771f06755d87c06175eff3506c237731b2424610b6222e082527f26e377a627b2e8f45096ff1ffdb583c14efd7c8602ae0e58aa143e88fe58ac096020830152604082019081526107cf196040836060816007855a01fa156102545760409260066080939284938451905260a05160608401525a01fa1561025457565b604051907f2ed378cae88747ed7f678177fb10bc27b6f37fe2e7c3324fe7b116af94848ec582527f1382e3c0bee6de629f6f07b10d84dd3cdd1767a07e0b61005abb007304fe77696020830152604082019081526107cf196040836060816007855a01fa156102545760409260066080939284938451905260a05160608401525a01fa1561025457565b604051907f254c0f4ede6b42a94e3b7780183040cf1cebcdc834666dcaeed350b1d0f98f0882527f161435e63ef13b85a71be936c5e94353ed1d548d6edb7f529b7b8a81a46221526020830152604082019081526107cf196040836060816007855a01fa156102545760409260066080939284938451905260a05160608401525a01fa1561025457565b604051907f234a35694e33d65da6239fbf836f5b20d9a0779bf0fb781f0414772efdd307bb82527f23f9982e0e67f86955189f91c7f905249017a346f15a78be627a9017d42bb1376020830152604082019081526107cf196040836060816007855a01fa156102545760409260066080939284938451905260a05160608401525a01fa1561025457565b604051907f11219196c91fa4ffcf26287ef31e077a7becdfa6643e7cd5698754fd345a2f7582527f216539b0b525d2ed4489bf9f9617d535312103663513867de054bc461497fab36020830152604082019081526107cf196040836060816007855a01fa156102545760409260066080939284938451905260a05160608401525a01fa1561025457565b604051907f16b42ef5ba1c868f5ad84b88d7e1103cd208696733f98512bf39c5feae5c58fb82527ed34202517da685db9003d21e3e58d802e63fb403d05887e7fc5f9a74605aca6020830152604082019081526107cf196040836060816007855a01fa156102545760409260066080939284938451905260a05160608401525a01fa1561025457565b604051907f28702a6411df240785d13ba81085e5be343e2a19e72888a8d1f700ad9005c07582527f1ba1033f7badfff14b582e8efd7ed47f68107209f8a114b6b6fbb20efc2c207f6020830152604082019081526107cf196040836060816007855a01fa156102545760409260066080939284938451905260a05160608401525a01fa1561025457565b604051907f24a497c2a0bc7aa8917a4ce535a87ac483d07d961ae6360dacaa9f24ae723f7882527f2611072851fca57ae9007ee20a9cc92faa7d0103d8ede1d1f3243dba224f216a6020830152604082019081526107cf196040836060816007855a01fa156102545760409260066080939284938451905260a05160608401525a01fa1561025457565b604051907f22bf0a390549455e2a46ecceb031bec2f28057635f9ea05bb58a651ae9cf270e82527f02effbc8e261ef053df1c9a9f038ff4f83eb8fd34f7da3af04946125ceec75966020830152604082019081526107cf196040836060816007855a01fa156102545760409260066080939284938451905260a05160608401525a01fa1561025457565b604051907f252252f5efd0fd6f3f2311eed446016e6c032d71415bca5b238f72c569f1f11882527f2ed90f9b44607fe702f517eef0924791cc80ca26037c03204cf85948eb6e857a6020830152604082019081526107cf196040836060816007855a01fa156102545760409260066080939284938451905260a05160608401525a01fa1561025457565b604051907f0894d0f924a447e7e6e1798cbf56f0f736c9251721dd152fcf2d45e94f94e2b182527f090f67cb612da7d097464007f3bed41209a2215c092322e063ad8bfe081fa72f6020830152604082019081526107cf196040836060816007855a01fa156102545760409260066080939284938451905260a05160608401525a01fa1561025457565b6020907f0c4c3c8d3ab545061c6f95e17689ee085789e1c4ddf278af18a693d1271c0e486080527f2f368ec94323a6a11759a450aedbc47817a3e78769cfc05126a4863ae161629e60a0526113f26101043561025e565b6113fe610124356102e8565b61140a61014435610372565b611416610164356103fc565b61142261018435610486565b61142e6101a43561050f565b61143a6101c435610599565b6114466101e435610623565b611452610204356106ad565b61145e61022435610737565b61146a610244356107c1565b6114766102643561084b565b611482610284356108d4565b61148e6102a43561095e565b61149a6102c4356109e8565b6114a66102e435610a72565b6114b261030435610afc565b6114be61032435610b86565b6114ca61034435610c10565b6114d661036435610c9a565b6114e261038435610d24565b6114ee6103a435610dae565b6114fa6103c435610e38565b6115066103e435610ec2565b61151261040435610f4c565b61151e61042435610fd6565b61152a61044435611060565b611536610464356110e9565b61154261048435611173565b61154e6104a4356111fd565b61155a6104c435611287565b6115666104e435611311565b61010092818492358352837f30644e72e131a029b85045b68181585d97816a916871ca8d3c208c16d87cfd479101358103066101205260443561014052606435610160526084356101805260a4356101a0527f2d4d9aa7e302d9df41749d5507949d05dbea33fbb16c643b22f599a2be6df2e26101c0527f14bedd503c37ceb061d8ec60209fe345ce89830a19230301f076caff004d19266101e0527f0967032fcbf776d1afc985f88877f182d38480a653f2decaa9794cbc3bf3060c610200527f0e187847ad4c798374d0d6732bf501847dd68bc0e071241e0213bc7fc13db7ab610220527f304cfbd1e08a704a99f5e847d93f8c3caafddec46b7a0d379da69a4d112346a7610240527f1739c1b1a457a8c7313123d24d2f9192f896b7c63eea05a9d57f06547ad0cec8610260526080516102805260a0516102a0527f198e9393920d483a7260bfb731fb5d25f1aa493335a9e71297e485b7aef312c26102c0527f1800deef121f1e76426a00665e5c4479674322d4f75edadd46debd5cd992f6ed6102e05282610300917f090689d0585ff075ec9e99ad690c3395bc4b313370b38ef355acdadcd122975b83527f12c85ea5db8c6deb4aab71808dcb408fe3d1e7690c43d37b4ce6cc0166fa7daa610320528035610340520135610360527f1d14bae027c7810126a08c25991c4953e8911add7e256b27ebe4b2ec2487d918610380527f08f76f3297a0c6dd18f3b2a114080cbcf8f88f0bc0eb5ed5c58405410dc432166103a0527f1deea79e06d272a3c805a5d8ec6b39b0c5cc3c7d6ebb15d68ac9d31bc80141776103c0527f0ead632d9551bb4522c418f1fbe6fa05573d69abdd70e6d49200fde5e5c9d3736103e0528160086107cf195a01fa9051169056fea2646970667358221220d6cd2e1eb5fe14b0231a47e75d52fce7b98b47b393b73a4588a01dee4e7b290b64736f6c634300080f0033",
  "linkReferences": {},
  "deployedLinkReferences": {}
}