{
  "_format": "hh-sol-artifact-1",
  "contractName": "ExternalMetadata",
  "sourceName": "contracts/ExternalMetadata.sol",
  "abi": [
    {
      "inputs": [],
      "stateMutability": "nonpayable",
      "type": "constructor"
    },
    {
      "anonymous": false,
      "inputs": [
        {
          "indexed": true,
          "internalType": "address",
          "name": "previousOwner",
          "type": "address"
        },
        {
          "indexed": true,
          "internalType": "address",
          "name": "newOwner",
          "type": "address"
        }
      ],
      "name": "OwnershipTransferred",
      "type": "event"
    },
    {
      "inputs": [],
      "name": "anybodyProblem",
      "outputs": [
        {
          "internalType": "address payable",
          "name": "",
          "type": "address"
        }
      ],
      "stateMutability": "view",
      "type": "function"
    },
    {
      "inputs": [
        {
          "internalType": "uint256",
          "name": "day",
          "type": "uint256"
        },
        {
          "internalType": "uint256",
          "name": "bodyIndex",
          "type": "uint256"
        }
      ],
      "name": "getBodyColor",
      "outputs": [
        {
          "internalType": "uint256[3]",
          "name": "rgb",
          "type": "uint256[3]"
        }
      ],
      "stateMutability": "pure",
      "type": "function"
    },
    {
      "inputs": [
        {
          "internalType": "uint256",
          "name": "date",
          "type": "uint256"
        }
      ],
      "name": "getHTML",
      "outputs": [
        {
          "internalType": "string",
          "name": "",
          "type": "string"
        }
      ],
      "stateMutability": "view",
      "type": "function"
    },
    {
      "inputs": [
        {
          "internalType": "uint256",
          "name": "date",
          "type": "uint256"
        }
      ],
      "name": "getMetadata",
      "outputs": [
        {
          "internalType": "string",
          "name": "",
          "type": "string"
        }
      ],
      "stateMutability": "view",
      "type": "function"
    },
    {
      "inputs": [
        {
          "internalType": "uint256",
          "name": "date",
          "type": "uint256"
        }
      ],
      "name": "getName",
      "outputs": [
        {
          "internalType": "string",
          "name": "",
          "type": "string"
        }
      ],
      "stateMutability": "pure",
      "type": "function"
    },
    {
      "inputs": [
        {
          "internalType": "uint256",
          "name": "date",
          "type": "uint256"
        }
      ],
      "name": "getPath",
      "outputs": [
        {
          "internalType": "string",
          "name": "",
          "type": "string"
        }
      ],
      "stateMutability": "view",
      "type": "function"
    },
    {
      "inputs": [
        {
          "internalType": "uint256",
          "name": "date",
          "type": "uint256"
        }
      ],
      "name": "getSVG",
      "outputs": [
        {
          "internalType": "string",
          "name": "",
          "type": "string"
        }
      ],
      "stateMutability": "view",
      "type": "function"
    },
    {
      "inputs": [],
      "name": "owner",
      "outputs": [
        {
          "internalType": "address",
          "name": "",
          "type": "address"
        }
      ],
      "stateMutability": "view",
      "type": "function"
    },
    {
      "inputs": [],
      "name": "renounceOwnership",
      "outputs": [],
      "stateMutability": "nonpayable",
      "type": "function"
    },
    {
      "inputs": [
        {
          "internalType": "bytes32",
          "name": "seed",
          "type": "bytes32"
        }
      ],
      "name": "seedToColor",
      "outputs": [
        {
          "internalType": "string",
          "name": "",
          "type": "string"
        }
      ],
      "stateMutability": "pure",
      "type": "function"
    },
    {
      "inputs": [],
      "name": "speedruns",
      "outputs": [
        {
          "internalType": "address payable",
          "name": "",
          "type": "address"
        }
      ],
      "stateMutability": "view",
      "type": "function"
    },
    {
      "inputs": [
        {
          "internalType": "uint256",
          "name": "",
          "type": "uint256"
        }
      ],
      "name": "themes",
      "outputs": [
        {
          "internalType": "enum ExternalMetadata.ThemeNames",
          "name": "name",
          "type": "uint8"
        }
      ],
      "stateMutability": "view",
      "type": "function"
    },
    {
      "inputs": [
        {
          "internalType": "address",
          "name": "newOwner",
          "type": "address"
        }
      ],
      "name": "transferOwnership",
      "outputs": [],
      "stateMutability": "nonpayable",
      "type": "function"
    },
    {
      "inputs": [
        {
          "internalType": "address payable",
          "name": "anybodyProblem_",
          "type": "address"
        }
      ],
      "name": "updateAnybodyProblemAddress",
      "outputs": [],
      "stateMutability": "nonpayable",
      "type": "function"
    },
    {
      "inputs": [
        {
          "internalType": "address payable",
          "name": "speedruns_",
          "type": "address"
        }
      ],
      "name": "updateSpeedrunsAddress",
      "outputs": [],
      "stateMutability": "nonpayable",
      "type": "function"
    }
  ],
  "bytecode": "0x608060409080825234620004005760008054336001600160a01b031982168117835591926001600160a01b03909116907f8be0079c531659141344cd1fd0a4f28419497f9722a3daafe3b4186f6b6457e0908490a36200005e62000405565b8181528260209280848401526101689081838501526060808501605090526064908160809181838901528660a095868a01601290528a60c09a8b928684830152620000a86200043b565b91808352808484015285830152620000bf6200045b565b8181528184820193808552515260019283858251015152600296879151015152620000ea906200047b565b620000f462000405565b9a818c5281878d015281898d0152818b8d015281858d015281848d01528c8c01526200011f6200043b565b8b81528b848201528b8d820152848d620001386200045b565b92858452848785019180835251528981515101605090528a8c82515101528d81515101605590528281515101605f9052858782510151528a8a888351015101528a8c888351015101528d8782510151016037905282878251015101603c90528882825101515289828251015101604690528b828251015101605a90528d828251015101604390525101510160439052620001d2906200047b565b620001dc6200043b565b8b81528b848201528b8d820152848d620001f56200045b565b92888452848785019180835251528a8a82515101528a8c82515101528d81515101603c90528281515101603c9052858782510151528a8a888351015101528a8c888351015101528d878251015101605a905282878251015101605f9052888282510151528a8a838351015101528a8c838351015101528d8282510151016037905251015101603c905262000289906200047b565b620002936200043b565b8b81528b848201528b8d820152848d620002ac6200045b565b9260038452848785019180835251528981515101605090528a8c82515101528d8151510160129052828151510160199052858782510151528a8a888351015101528a8c888351015101528d8782510151016037905282878251015101603c90528882825101515289828251015101604690528b828251015101605a90528d82825101510160439052510151016043905262000347906200047b565b620003516200043b565b9a808c5280848d01528c8c0152620003686200045b565b9d8e60048152019a808c52515285858b5151015285878b51510152888a51510160129052828a51510160129052818a510151528484828b51015101528486828b510151015287818a51015101602d90528851015101602d90528787510151528686510151015284845101510152828251015101601e905251015101601e9052620003f2906200047b565b5161245b9081620005918239f35b600080fd5b6040519060e082016001600160401b038111838210176200042557604052565b634e487b7160e01b600052604160045260246000fd5b60405190606082016001600160401b038111838210176200042557604052565b60408051919082016001600160401b038111838210176200042557604052565b60038054906801000000000000000082101562000425576001918281018083558110156200057a576000908282526020906016828420910201855193600590818610156200056657825460ff96871660ff19918216178455978401519287019285905b828710620004f25750505050505050505050565b8051805184811015620005525786548c16908a16178655808701518a870155604081015160028701556060810151848701556080810151600487015560a08101518587015560c001516006860155958801956007909401938501620004de565b634e487b7160e01b84526021600452602484fd5b634e487b7160e01b85526021600452602485fd5b634e487b7160e01b600052603260045260246000fdfe60806040526004361015610013575b600080fd5b60003560e01c8063102581d21461013f57806319d4c3f9146101365780632350826b1461012d5780635542437b146101245780636b8ff5741461011b578063715018a61461011257806387b077801461010957806388ba08e6146101005780638da5cb5b146100f7578063a574cea4146100ee578063be985ac9146100e5578063e1765073146100dc578063e2ce81a5146100d3578063e82fedd7146100ca5763f2fde38b146100c257600080fd5b61000e610d3d565b5061000e610d1d565b5061000e610cd5565b5061000e610cb5565b5061000e610c95565b5061000e6104ca565b5061000e6104a0565b5061000e610450565b5061000e610426565b5061000e6103c4565b5061000e6103a4565b5061000e61035c565b5061000e6102d4565b5061000e610293565b5061000e6101a9565b918091926000905b828210610168575011610161575050565b6000910152565b91508060209183015181860152018291610150565b6040916020825261019d8151809281602086015260208686019101610148565b601f01601f1916010190565b503461000e57602036600319011261000e5761028f6102376101cc600435611837565b61023260466040518093753c68746d6c3e3c626f64793e3c696d67207372633d2760501b6020830152610209815180926020603686019101610148565b81016f139f1e17b137b23c9f1e17b43a36b61f60811b6036820152036026810184520182610f0d565b611111565b610283603660405180937519185d184e9d195e1d0bda1d1b5b0ed8985cd94d8d0b60521b60208301526102738151809260208686019101610148565b8101036016810184520182610f0d565b6040519182918261017d565b0390f35b503461000e57600036600319011261000e576001546040516001600160a01b039091168152602090f35b50634e487b7160e01b600052603260045260246000fd5b503461000e57602036600319011261000e5760043560035481101561000e57601660ff916003600052027fc2575a0e9e593c00f959f8c92f12db2869c3395a3b0502d05e2516446f71f85b0154166040516005821015610335576020918152f35b634e487b7160e01b600052602160045260246000fd5b6001600160a01b0381160361000e57565b503461000e57602036600319011261000e5760043561037a8161034b565b610382610e0a565b600280546001600160a01b0319166001600160a01b0392909216919091179055005b503461000e57602036600319011261000e5761028f6102836004356111fd565b503461000e57600080600319360112610423576103df610e0a565b80546001600160a01b0319811682556040519082906001600160a01b03167f8be0079c531659141344cd1fd0a4f28419497f9722a3daafe3b4186f6b6457e08284a3f35b80fd5b503461000e57600036600319011261000e576002546040516001600160a01b039091168152602090f35b503461000e57604036600319011261000e5760405161046e81610eb9565b606036823760405190600090825b6003831061048957606084f35b60019082518152602080910192019201919061047c565b503461000e57600036600319011261000e576000546040516001600160a01b039091168152602090f35b503461000e5760208060031936011261000e5761067660048035906104ee826111fd565b6104f783611837565b918561050285611837565b9461050c81611289565b50600154909891949061053590610529906001600160a01b031681565b6001600160a01b031690565b6040805160016228c2c560e01b031980825284820187815260006020820152929c8d9792938893908a908690819087010381895afa948515610c88575b600095610c67575b5061064794958a888651958087528287806105a5888683016020600191939293604081019481520152565b0381875afa968715610c5a575b600097610c2f575b5087519081529081018481526002602082015261061893919290839081906040010381845afa918215610c22575b600092610bf3575b508651998a96632b99bd5f60e21b809b818a528960a09e8f9889938783019190602083019252565b0381875afa998a15610be6575b6000998a9b610bb9575b50519081528281019182529985918b91829160200190565b0381855afa998a15610bac575b6000998a9b610b83575b508d519c8d9485938493845283019190602083019252565b03915afa978815610b76575b6000978899610b36575b505061069a6106a0916122c5565b9a6122c5565b60016106b36106ae846121ea565b610fe3565b03610b2b576106c96106c36121ae565b926122c5565b926106d390612328565b936106dd906122c5565b946106e790612328565b956106f1906122c5565b966106fb90612328565b97610705906122c5565b9851605b60f81b9a81019a8b529a8b9a6001017f7b2274726169745f74797065223a22446179222c2276616c7565223a220000008152601d0161074791610e62565b7f227d2c207b2274726169745f74797065223a22596561722d4d6f6e7468222c228152673b30b63ab2911d1160c11b602082015260280161078791610e62565b602d60f81b815260010161079a91610e62565b6107a391610e62565b7f227d2c207b2274726169745f74797065223a2231737420506c616365222c227681526630b63ab2911d1160c91b60208201526027016107e291610e62565b7f227d2c207b2274726169745f74797065223a2231737420506c6163652054696d81526b329116113b30b63ab2911d1160a11b6020820152602c0161082691610e62565b7f227d2c207b2274726169745f74797065223a22326e6420506c616365222c227681526630b63ab2911d1160c91b602082015260270161086591610e62565b7f227d2c207b2274726169745f74797065223a22326e6420506c6163652054696d81526b329116113b30b63ab2911d1160a11b6020820152602c016108a991610e62565b7f227d2c207b2274726169745f74797065223a2233726420506c616365222c227681526630b63ab2911d1160c91b60208201526027016108e891610e62565b7f227d2c207b2274726169745f74797065223a2233726420506c6163652054696d81526b329116113b30b63ab2911d1160a11b6020820152602c0161092c91610e62565b62227d5d60e81b81526003010393601f1994858101835261094d9083610f0d565b8551683d913730b6b2911d1160b91b88820190815290948594909160090161097491610e62565b61088b60f21b81526002017f226465736372697074696f6e223a2022416e79626f64792050726f626c656d2081527f2868747470733a2f2f616e79626f64792e747269666c652e6c69666529222c006020820152603f01691134b6b0b3b2911d101160b11b8152600a016109e791610e62565b61088b60f21b81526002016d1134b6b0b3b2afbab936111d101160911b8152600e01610a1291610e62565b61088b60f21b81526002017f22686f6d655f75726c223a202268747470733a2f2f616e79626f64792e747269815269199b194b9b1a5999488b60b21b6020820152602a017f2265787465726e616c5f75726c223a202268747470733a2f2f616e79626f647981526d0b9d1c9a599b194b9b1a5999488b60921b6020820152602e016d01130ba3a3934b13aba32b9911d160951b8152600e01610ab391610e62565b607d60f81b8152600101038281018252610acd9082610f0d565b610ad690611111565b82517f646174613a6170706c69636174696f6e2f6a736f6e3b6261736536342c00000094810194855293849190601d01610b0f91610e62565b039081018352610b1f9083610f0d565b5161028f81928261017d565b6106c96106c3610f5a565b6106a092995061069a98509081610b6192903d10610b6f575b610b598183610f0d565b810190612175565b50509891905097989161068c565b503d610b4f565b610b7e6119fd565b610682565b909a50610b9e919950843d8611610b6f57610b598183610f0d565b50509991905098993861065e565b610bb46119fd565b610654565b610bd6919b50878094939b503d8511610b6f57610b598183610f0d565b50509a919050999a90919261062f565b610bee6119fd565b610625565b610c149192508d803d10610c1b575b610c0c8183610f0d565b8101906119ee565b90386105f0565b503d610c02565b610c2a6119fd565b6105e8565b8391975091610c4f610618959387953d8511610c1b57610c0c8183610f0d565b9791935091936105ba565b610c626119fd565b6105b2565b6106479550610c82908b3d8d11610c1b57610c0c8183610f0d565b9461057a565b610c906119fd565b610572565b503461000e57602036600319011261000e5761028f610283600435611837565b503461000e57602036600319011261000e5761028f610283600435611aed565b503461000e57602036600319011261000e57600435610cf38161034b565b610cfb610e0a565b600180546001600160a01b0319166001600160a01b0392909216919091179055005b503461000e57602036600319011261000e5761028f6102836004356120b1565b503461000e57602036600319011261000e57600435610d5b8161034b565b610d63610e0a565b6001600160a01b03908116908115610db657600080546001600160a01b031981168417825560405191939192167f8be0079c531659141344cd1fd0a4f28419497f9722a3daafe3b4186f6b6457e08484a3f35b60405162461bcd60e51b815260206004820152602660248201527f4f776e61626c653a206e6577206f776e657220697320746865207a65726f206160448201526564647265737360d01b6064820152608490fd5b6000546001600160a01b03163303610e1e57565b606460405162461bcd60e51b815260206004820152602060248201527f4f776e61626c653a2063616c6c6572206973206e6f7420746865206f776e65726044820152fd5b90610e7560209282815194859201610148565b0190565b50634e487b7160e01b600052604160045260246000fd5b60e0810190811067ffffffffffffffff821117610eac57604052565b610eb4610e79565b604052565b6060810190811067ffffffffffffffff821117610eac57604052565b6020810190811067ffffffffffffffff821117610eac57604052565b60c0810190811067ffffffffffffffff821117610eac57604052565b90601f8019910116810190811067ffffffffffffffff821117610eac57604052565b60209067ffffffffffffffff8111610f4d575b601f01601f19160190565b610f55610e79565b610f42565b60405190610f6782610ed5565b60008252565b60405190610f7a82610eb9565b604082527f6768696a6b6c6d6e6f707172737475767778797a303132333435363738392b2f6040837f4142434445464748494a4b4c4d4e4f505152535455565758595a61626364656660208201520152565b50634e487b7160e01b600052601160045260246000fd5b6001906001198111610ff3570190565b610e75610fcc565b6002906002198111610ff3570190565b6020906020198111610ff3570190565b81198111610ff3570190565b8115611031570490565b634e487b7160e01b600052601260045260246000fd5b6001600160fe1b03811160011661105f575b60021b90565b611067610fcc565b611059565b80600019046004118115151661105f5760021b90565b7f028f5c28f5c28f5c28f5c28f5c28f5c28f5c28f5c28f5c28f5c28f5c28f5c28f81116001166110b3575b60640290565b6110bb610fcc565b6110ad565b80600019048211811515166110d3570290565b6110db610fcc565b0290565b906110e982610f2f565b6110f66040519182610f0d565b8281528092611107601f1991610f2f565b0190602036910137565b8051156111f157611120610f6d565b61113c6111376111308451610ffb565b6003900490565b611047565b9161114e6111498461100b565b6110df565b92835280815182019060208501935b82821061119f5750505060039051068060011461118e5760021461117f575090565b603d60f81b6000199091015290565b50613d3d60f01b6001199091015290565b9091936004906003809401938451600190603f9082828260121c16880101518553828282600c1c16880101518386015382828260061c168801015160028601531685010151908201530193919061115d565b506111fa610f5a565b90565b6111fa60226106c361122461121461121e95611289565b96919390936122c5565b946122c5565b604051948261123d879451809260208088019101610148565b830190602d60f81b91826020820152611260825180936020602185019101610148565b0190602182015261127a8251809360208785019101610148565b01036002810184520182610f0d565b6112c79062010bd9906201518090046000811280156001600160ff1b038390038413166113ab575b600160ff1b82900383121661139e575b016113b8565b6113016112df6112d6836114e5565b62023ab1900590565b916112fb6112f46112ef85611526565b6113f6565b6004900590565b906117f4565b9061139861133a61133561132861131f61131a87611424565b611584565b62164b09900590565b946112fb6112f4876115e1565b61145e565b61139361136861135461134c8461163e565b61098f900590565b926112fb611361856116a9565b6050900590565b9461139361138e61138861137f600b87059661148c565b6112fb87611706565b966117ce565b611771565b6114ba565b91909192565b6113a6610fcc565b6112c1565b6113b3610fcc565b6112b1565b62253d8c906000811280156001600160ff1b038390038413166113e9575b600160ff1b829003831216610ff3570190565b6113f1610fcc565b6113d6565b6003906000811280156001600160ff1b038390038413166113e957600160ff1b829003831216610ff3570190565b6001906000811280156001600160ff1b03839003841316611451575b818360ff1b03831216610ff3570190565b611459610fcc565b611440565b601f906000811280156001600160ff1b038390038413166113e957600160ff1b829003831216610ff3570190565b6002906000811280156001600160ff1b038390038413166113e957600160ff1b829003831216610ff3570190565b6000811280156001600160ff1b038390038413166113e957600160ff1b829003831216610ff3570190565b600081136001600160ff1b0382900460041116600116611519575b60008112600760fd1b82121660011661105f5760021b90565b611521610fcc565b611500565b62023ab1600082136001600160ff1b03839004821116600116611577575b60017fffffc694f94337079d130ab45dff8e0f9ea161331bb1c93dea871de6fec83ce283126000841216166110d3570290565b61157f610fcc565b611544565b610fa0600082136001600160ff1b038390048211166001166115d4575b60017ffff7ced916872b020c49ba5e353f7ced916872b020c49ba5e353f7ced916872c83126000841216166110d3570290565b6115dc610fcc565b6115a1565b6105b5600082136001600160ff1b03839004821116600116611631575b60017fffe9924f8d0dd7b2e6f174df9576f9de01c091c8faeb2605f522de8852b47aa883126000841216166110d3570290565b611639610fcc565b6115fe565b600081136001600160ff1b038290046050111660011661169c575b60017ffe66666666666666666666666666666666666666666666666666666666666667821260008312161661168f575b60500290565b611697610fcc565b611689565b6116a4610fcc565b611659565b61098f600082136001600160ff1b038390048211166001166116f9575b60017ffff29be1739a4fb805dbcd5d6c7d1f7d6fd627208942391f124ee1c3f307026883126000841216166110d3570290565b611701610fcc565b6116c6565b600081136001600160ff1b03829004600c1116600116611764575b60017ff5555555555555555555555555555555555555555555555555555555555555568212600083121616611757575b600c0290565b61175f610fcc565b611751565b61176c610fcc565b611721565b600081136001600160ff1b03829004606411166001166117c1575b60017ffeb851eb851eb851eb851eb851eb851eb851eb851eb851eb851eb851eb851eb982126000831216166110b35760640290565b6117c9610fcc565b61178c565b6031600160ff1b0181126001166117e7575b6030190190565b6117ef610fcc565b6117e0565b600082128015600160ff1b840183121661182a575b6001600160ff1b03830182131661181e570390565b611826610fcc565b0390565b611832610fcc565b611809565b6111fa6119466119ad6119e29361199961198061185c61185684611aed565b936111fd565b61197a6040519687957f3c3f786d6c2076657273696f6e3d22312e302220656e636f64696e673d22757460208801527f662d38223f3e3c73766720786d6c6e733d22687474703a2f2f7777772e77332e60408801527f6f72672f323030302f7376672220206865696768743d2231303025222077696460608801527f74683d2231303025222076696577426f783d223020302031303030203130303060808801527f22207374796c653d226261636b67726f756e642d636f6c6f723a677265793b2260a08801526f1f1e39ba3cb6329f1e17b9ba3cb6329f60811b60c088015260d0870190610e62565b7f3c7465787420783d2235302220793d223535302220636c6173733d226e616d65815261111f60f11b602082015260220190565b90610e62565b6c1e17ba32bc3a1f1e17b9bb339f60991b8152600d0190565b0391610232601f1993848101835282610f0d565b6040517f646174613a696d6167652f7376672b786d6c3b6261736536342c0000000000006020820152938491603a830161197a565b03908101835282610f0d565b9081602091031261000e575190565b506040513d6000823e3d90fd5b91906105608382031261000e5780601f8401121561000e576040805191611a3083610ef1565b829161054086019582871161000e57925b868410611a515750505050915190565b60e08484031261000e57815160e091611a6982610e90565b8551825260209182870151838201528487015185820152606080880151908201526080808801519082015260a0808801519082015260c08088015190820152815201930192611a41565b6001906000198114610ff3570190565b906006811015611ad5575b60051b0190565b611add6102bd565b611ace565b81811061181e570390565b611af5610f5a565b600154909190611b0f90610529906001600160a01b031681565b60408051631da686ff60e31b81529192602091908284600481885afa9384156120a4575b600094612085575b5081516338ab6ea360e21b8152908382600481895afa918215612078575b600092612059575b508251634dbe7f7360e01b81526004810191909152602481019190915293610560908190869060449082905afa94851561204c575b6000918296612018575b5050939291906000945b848610611bba5750505050505090565b909192939495848488611bcd8186611ac3565b5160a0810151611bdc9061106c565b611be585611082565b611bee9161101b565b611bf88582611027565b611c01816122c5565b95611c0b916110c0565b611c1491611ae2565b611c1d906122c5565b90838101918a835190611c2f91611027565b9251611c3b8c856110c0565b611c4491611ae2565b92611c4e906122c5565b92611c58906122c5565b928951938491878301611c6a91610e62565b601760f91b8152600101611c7d91610e62565b0395601f19968781018552611c929085610f0d565b898301928c80855190611ca491611027565b945190611cb190866110c0565b611cba91611ae2565b93611cc4906122c5565b93611cce906122c5565b938b51948591898301611ce091610e62565b601760f91b8152600101611cf391610e62565b038881018552611d039085610f0d565b8051611d0e906122c5565b908b519687898101611d39906012907103a3930b739b337b93696b7b934b3b4b71d160751b81520190565b611d439089610e62565b620383c160ed1b8152600301611d599088610e62565b630383c1d960e51b8152600401038a81018952611d769089610f0d565b611d7f906122c5565b9060c00151611d8d906120b1565b968c519a8b998a01611d9e91610e62565b7f3c7374796c653e20406b65796672616d6573206d6f7665456c6c6970736500008152601e01611dce9084610e62565b670103d901812903d960c51b8152600801611de99082610e62565b7f207472616e73666f726d3a20726f74617465283064656729207472616e736c6181527f7465283070782c2031307078293b207d2031303025207b2000000000000000006020820152603801611e3e91610e62565b7f207472616e73666f726d3a20726f746174652833363064656729207472616e738152736c617465283070782c2031307078293b207d207d60601b60208201526034016a656c6c697073652369642d60a81b8152600b01611e9f9083610e62565b7f207b20616e696d6174696f6e3a206d6f7665456c6c69707365000000000000008152601901611ecf9083610e62565b7f20347320696e66696e697465206c696e6561723b20616e696d6174696f6e2d64815266656c61793a202d60c81b6020820152602701611f0e91610e62565b6b399d903e9e17b9ba3cb6329f60a11b8152600c016f3c656c6c697073652069643d2269642d60801b8152601001611f4591610e62565b651110393c9e9160d11b8152600601611f5e9082610e62565b601760f91b8152600101611f729083610e62565b651110393c1e9160d11b8152600601611f8a91610e62565b601760f91b8152600101611f9d91610e62565b65111031bc9e9160d11b8152600601611fb591610e62565b65111031bc1e9160d11b8152600601611fcd91610e62565b6711103334b6361e9160c11b8152600801611fe791610e62565b631110179f60e11b81526004010390810182526120049082610f0d565b9561200e90611ab3565b9493929190611baa565b61203c93965080919250903d10612045575b6120348183610f0d565b810190611a0a565b93903880611ba0565b503d61202a565b6120546119fd565b611b96565b612071919250843d8611610c1b57610c0c8183610f0d565b9038611b61565b6120806119fd565b611b59565b61209d919450833d8511610c1b57610c0c8183610f0d565b9238611b3b565b6120ac6119fd565b611b33565b6111fa60259161215a61214c61ffff61197a61213e61210360286120fc606482878b60201c16069683198811612168575b6120f1610168828d16066122c5565b9a60101c16066122c5565b94016122c5565b92604051988997630d0e6d8560e31b60208a015261212b81518092602060248d019101610148565b8801600b60fa1b60248201520190610e62565b61094b60f21b815260020190565b61252960f01b815260020190565b03601f198101835282610f0d565b612170610fcc565b6120e2565b908160a091031261000e57805161218b8161034b565b916020820151801515810361000e57916040810151916080606083015192015190565b604051906040820182811067ffffffffffffffff8211176121dd575b60405260018252600360fc1b6020830152565b6121e5610e79565b6121ca565b6000907a184f03e93ff9f4daa797ed6e38ed64bf6a1f010000000000000000808210156122b8575b50600a906d04ee2d6d415b85acef8100000000808210156122ab575b50662386f26fc100008082101561229e575b506305f5e10080821015612291575b5061271080821015612284575b506064811015612276575b10156122705790565b60010190565b606460029104920191612267565b600491049201913861225c565b600891049201913861224f565b6010910492019138612240565b602091049201913861222e565b604092509004600a612212565b6122ce816121ea565b906001908160216122e08286016110df565b94850101905b6122f1575b50505090565b6000190190600a906f181899199a1a9b1b9c1cb0b131b232b360811b8282061a835304918215612323579190826122e6565b6122eb565b60018060a01b03169060405161233d81610eb9565b602881526020926040368584013760275b600081121561236557506111fa91929350156123da565b90600f811660108110156123cd575b83518310156123c0575b6f181899199a1a9b1b9c1cb0b131b232b360811b901a83830186015360041c90600160ff1b81146123b3575b6000190161234e565b6123bb610fcc565b6123aa565b6123c86102bd565b61237e565b6123d56102bd565b612374565b156123e157565b606460405162461bcd60e51b815260206004820152602060248201527f537472696e67733a20686578206c656e67746820696e73756666696369656e746044820152fdfea26469706673582212204faa90babae7d7f4b50a0cafd054229f2415a1d25071a9d6b75f527565fd146664736f6c634300080f0033",
  "linkReferences": {},
  "deployedLinkReferences": {}
}