{
  "_format": "hh-sol-artifact-1",
  "contractName": "Groth16Verifier",
  "sourceName": "contracts/Game_3_300Verifier.sol",
  "abi": [
    {
      "inputs": [
        {
          "internalType": "uint256[2]",
          "name": "_pA",
          "type": "uint256[2]"
        },
        {
          "internalType": "uint256[2][2]",
          "name": "_pB",
          "type": "uint256[2][2]"
        },
        {
          "internalType": "uint256[2]",
          "name": "_pC",
          "type": "uint256[2]"
        },
        {
          "internalType": "uint256[42]",
          "name": "_pubSignals",
          "type": "uint256[42]"
        }
      ],
      "name": "verifyProof",
      "outputs": [
        {
          "internalType": "bool",
          "name": "",
          "type": "bool"
        }
      ],
      "stateMutability": "view",
      "type": "function"
    }
  ],
  "bytecode": "0x6080806040523461001657611e76908161001c8239f35b600080fdfe6080604052600436101561001257600080fd5b6000803560e01c63e3ba9b621461002857600080fd5b34610280576106403660031901126102805761004336610283565b3660c41161027c5761005436610295565b9061064436811161027857916102749161026f6020959461040060405261007d610104356102a3565b610089610124356102a3565b610095610144356102a3565b6100a1610164356102a3565b6100ad610184356102a3565b6100b96101a4356102a3565b6100c56101c4356102a3565b6100d16101e4356102a3565b6100dd610204356102a3565b6100e9610224356102a3565b6100f5610244356102a3565b610101610264356102a3565b61010d610284356102a3565b6101196102a4356102a3565b6101256102c4356102a3565b6101316102e4356102a3565b61013d610304356102a3565b610149610324356102a3565b610155610344356102a3565b610161610364356102a3565b61016d610384356102a3565b6101796103a4356102a3565b6101856103c4356102a3565b6101916103e4356102a3565b61019d610404356102a3565b6101a9610424356102a3565b6101b5610444356102a3565b6101c1610464356102a3565b6101cd610484356102a3565b6101d96104a4356102a3565b6101e56104c4356102a3565b6101f16104e4356102a3565b6101fd610504356102a3565b610209610524356102a3565b610215610544356102a3565b610221610564356102a3565b61022d610584356102a3565b6102396105a4356102a3565b6102456105c4356102a3565b6102516105e4356102a3565b61025d610604356102a3565b610269610624356102a3565b356102a3565b611979565b8152f35b8380fd5b5080fd5b80fd5b9060049160441161029057565b600080fd5b9060c4916101041161029057565b7f30644e72e131a029b85045b68181585d97816a916871ca8d3c208c16d87cfd4711156102cc57565b6000805260206000f35b604051907f20d33227173316f8395da363dd650c7e664987fcc9d3853d38c3f584c738e11182527f16ece467225485c25053af147aeef595391dcd3a7fc7d4255abda81995b562ad6020830152604082019081526107cf196040836060816007855a01fa156102cc5760409260066080939284938451905260a05160608401525a01fa156102cc57565b604051907f23284ace99f75c7017b914921cd045db8b9649d6d5a735817b513d7ade3dc31682527f140c9ec086d73c583672d2e2f2e1b50fa5ca21e0131d713fefa3b0103b476d5c6020830152604082019081526107cf196040836060816007855a01fa156102cc5760409260066080939284938451905260a05160608401525a01fa156102cc57565b604051907f1fec984bee1a904d48ec3a0b7a36cc1d06081db877f64cbb0dd8c5aa7e92a7d382527f10a8a0e718a18ce679b18d92bb005f5a2016f4fb77521e89fe33f0d66a0c548a6020830152604082019081526107cf196040836060816007855a01fa156102cc5760409260066080939284938451905260a05160608401525a01fa156102cc57565b604051907f203963783cddf3767294878b43899c95d6dcac52d70fd16d0d553b4b9ba725e682527f160e62666e14b10c953b2f466d251c6a75c14290f2b878d83afa24a7511e40826020830152604082019081526107cf196040836060816007855a01fa156102cc5760409260066080939284938451905260a05160608401525a01fa156102cc57565b604051907f031e8315e7d0d359fa89499deae32b4bde2730e6cb7efb77daa551a6207c15ac82527f1905c0e5384cbfdc0d2291245ff4434459f3fce53fedfd8f749c16d91f11a9196020830152604082019081526107cf196040836060816007855a01fa156102cc5760409260066080939284938451905260a05160608401525a01fa156102cc57565b604051907f0b824a283d55e56a75801cbc1cae2acb5ab18c0aef289a8e82850241e4cc22dc82527f2c8a2b768c703c0877006a2c9c728cd88b8e5dfef42405003496b0afa31899036020830152604082019081526107cf196040836060816007855a01fa156102cc5760409260066080939284938451905260a05160608401525a01fa156102cc57565b604051907f2d2118a2248f9f7802170028c9956b033c8bc32afa0cf2e47e70adbf0a6442ab82527f2c1ae8614e6a3886fd58e5f804b4c3bc757b8d5e32d737faf41482ec84da86086020830152604082019081526107cf196040836060816007855a01fa156102cc5760409260066080939284938451905260a05160608401525a01fa156102cc57565b604051907f1fe0b9a87764027f060a24d87075812a6fc996a2a9421585b1cbb316bf01c27b82527f0ae43d198e1ed601f4e0984a1ac4752ae10ece6714730a7f74b279759a3517006020830152604082019081526107cf196040836060816007855a01fa156102cc5760409260066080939284938451905260a05160608401525a01fa156102cc57565b604051907f068398a34673f3e4cf667f6eb21e088e888d7afae9f14597e7ed3f2b3c4eccff82527f1af36b620eeae4581382c961b9d0bea1bfd067fecf1984a3cb0428ae051187a96020830152604082019081526107cf196040836060816007855a01fa156102cc5760409260066080939284938451905260a05160608401525a01fa156102cc57565b604051907f1e6de9e6b2a2e45d974cb3507eede5b33b647b8d685db3dd67a853db81f1e98282527f22265e08320a57f18b2576bc7ca243cd754f2c9a273e756336ac40ca25319bb46020830152604082019081526107cf196040836060816007855a01fa156102cc5760409260066080939284938451905260a05160608401525a01fa156102cc57565b604051907f2f593a6187324e70b16e06f3a941e2d2e7df858b0be82044ee587ec96307ae0b82527f154f78a26e9256ce6ea49451a5d75d48bd83763f682dccd6f4f85160ce7b5afc6020830152604082019081526107cf196040836060816007855a01fa156102cc5760409260066080939284938451905260a05160608401525a01fa156102cc57565b604051907f210de070313af3622d914fea055bc4a46f46f7fe7f3cb3a27df697c361d2ce8482527f1f944baaa2c891107901b9092dd368d1bd47c2c10590074cdf8babd7f986a0bf6020830152604082019081526107cf196040836060816007855a01fa156102cc5760409260066080939284938451905260a05160608401525a01fa156102cc57565b604051907f015af5c773acfce3ceee238f81e3c76d868ff940a2bfc4d451bb358e43bdb71782527f283f7e32ef1ecf74140a56e3110ed1de69c78514826c54b350158328393d385e6020830152604082019081526107cf196040836060816007855a01fa156102cc5760409260066080939284938451905260a05160608401525a01fa156102cc57565b604051907f023edea8e179d12669782915fa9252156841f8277145f989c412b4ecb7313d7a82527f2cd60027db2a2655017a168a05c1e961c22779ab30049c87ca40e30ddd650f386020830152604082019081526107cf196040836060816007855a01fa156102cc5760409260066080939284938451905260a05160608401525a01fa156102cc57565b604051907f259a0fd82ad812478e46d604ed9fe63c4734cb4308cb5a1164f8d4858e40044882527f0683afe2a128d67d349f6ef928195ce493a909b623048b18cbc4e62066931e6f6020830152604082019081526107cf196040836060816007855a01fa156102cc5760409260066080939284938451905260a05160608401525a01fa156102cc57565b604051907f03d3135b12d3f4cced3ab02142593c64f12d6696bd8b7008b066faf378bb537f82527f2725e7ad9aaa4d6c251bcd1408c852330587a93cf4b8345411af5a51424d3c1f6020830152604082019081526107cf196040836060816007855a01fa156102cc5760409260066080939284938451905260a05160608401525a01fa156102cc57565b604051907f2429a16333f965bb39a9c465ec46c1d9c205a02459810d8a95c23630eab9be4882527f15e33d5a1d524273f38e5ef7a3259ee61657124bbd33b7da6b13371fc06d35ea6020830152604082019081526107cf196040836060816007855a01fa156102cc5760409260066080939284938451905260a05160608401525a01fa156102cc57565b604051907f1b590c224166efefd9a96fc5e785d0978a33d677bd600bf14ef63abbbeddfe2782527f268a3c7402514b35beb2b9205f6fa30613c764110dfcc40d10c84b1c6950d2a96020830152604082019081526107cf196040836060816007855a01fa156102cc5760409260066080939284938451905260a05160608401525a01fa156102cc57565b604051907f10376355d8367394d8e410a96de259a3499e78cf2b73fbd7049257d037e4bcfb82527f146dfe2b44445159967d8f88e1284c5d5e7a53036fc3d17005d35cf0e3de53336020830152604082019081526107cf196040836060816007855a01fa156102cc5760409260066080939284938451905260a05160608401525a01fa156102cc57565b604051907f029e7909f0d575c0410e63c4325c5e4ebbb2a3f9e5f4b087faf3e51d1c2cda1382527f127b8c4effa55a4c5e298dcde3bc933d7fa321517facd78271e4eb7255737c646020830152604082019081526107cf196040836060816007855a01fa156102cc5760409260066080939284938451905260a05160608401525a01fa156102cc57565b604051907f1fe390ea9edf127b0e4195cff5bf95425ce6afa1d403868b2c892cb4dc57a3d382527f05ff8b0ee2462fa1ca14144384af6b17ea13f0124d91c0d35e73e82f112f667e6020830152604082019081526107cf196040836060816007855a01fa156102cc5760409260066080939284938451905260a05160608401525a01fa156102cc57565b604051907f11810a28e64b41de8e4e35bbbe5af4c6fde8480a69023f6ae67a5e57734636a982527f11a2013b3184f8a97096d786f034b1bc90d05969ec7baeffedaaeb483ca062a76020830152604082019081526107cf196040836060816007855a01fa156102cc5760409260066080939284938451905260a05160608401525a01fa156102cc57565b604051907f098e454004ce6ff69d0c4d05a1ac0ef020b7c83e6165659e5cccb35458cdba0e82527f17873d4393baa216e95ffb987a836644d00ab243be2d09aa2d635c6ebcd4a11c6020830152604082019081526107cf196040836060816007855a01fa156102cc5760409260066080939284938451905260a05160608401525a01fa156102cc57565b604051907f1e5b48c6a0d39c63b94d00f7d9806a60418a72bf4bc2add1d2901f90132b67e082527f1d5d9816c56a3b323b2d043cd85b80d91422e8414effa47f1d2e413054ddedbe6020830152604082019081526107cf196040836060816007855a01fa156102cc5760409260066080939284938451905260a05160608401525a01fa156102cc57565b604051907e32a9d8bf7ac468a5bb4b92d3ac5cbe8a0b77e717e69b01d4900efffa685b9a82527f1ca678ba6014f42c77d33e462517ca68d8ce2248f9520c5cbbc93f0aaf5998296020830152604082019081526107cf196040836060816007855a01fa156102cc5760409260066080939284938451905260a05160608401525a01fa156102cc57565b604051907f20197a48fe2068c5238cac6b5016d17e70250bdeba618a2e51c8bfe2ac795e5082527f1d21611f90d3f49835ecb8e4d2156744b995736fa43ea1e1ac57339247f19b976020830152604082019081526107cf196040836060816007855a01fa156102cc5760409260066080939284938451905260a05160608401525a01fa156102cc57565b604051907f03479629d6ffd5dfaa8c79ef3fc072d4eaa80118921772196090ea1b8ead199182527f171d031af7279045291b606fc16438afa519592280d2951e5c3db30705adfac46020830152604082019081526107cf196040836060816007855a01fa156102cc5760409260066080939284938451905260a05160608401525a01fa156102cc57565b604051907f1d47c91be052f992f7affee3f600f61f6815800d31809a21e2fc6e1af75183b482527f29908e2475237804a20f09c542f454cb417a3706f77654a5e68b73653c92fcb26020830152604082019081526107cf196040836060816007855a01fa156102cc5760409260066080939284938451905260a05160608401525a01fa156102cc57565b604051907f1998ac961293c4aa06e5ab508ea1b509180e8427d0f2e7923f8fd0d5ca1a534482527f1694aed5c461cb131a6d0a5a86b856d7df7de7e7c63d72eea3a9eb62ad71b06e6020830152604082019081526107cf196040836060816007855a01fa156102cc5760409260066080939284938451905260a05160608401525a01fa156102cc57565b604051907f1b0e8cc4b5191d9acdb0c450225876899e0c400e30c3609223e2d1983de04c8182527f2af16d8b973484a7fe58cceddd221d5b4ed00b4d0215d2416610cf8e283786196020830152604082019081526107cf196040836060816007855a01fa156102cc5760409260066080939284938451905260a05160608401525a01fa156102cc57565b604051907f012a427e98764f294498baf2d3db22216833e75146984345b117c1d5c53dc33a82527f1c1c13240dc7c825d0a66f29e5bf4444afc1ca3a160388811c666737e32f82346020830152604082019081526107cf196040836060816007855a01fa156102cc5760409260066080939284938451905260a05160608401525a01fa156102cc57565b604051907f21ec273ca6d3daeedaa1318e366b45fb0bcbf7cbd33cc4286184fc0ef209e09982527f1f97f832f94e228c78eff7126b544b4652ef17157da4ae43c7b8004ac8f9fcb26020830152604082019081526107cf196040836060816007855a01fa156102cc5760409260066080939284938451905260a05160608401525a01fa156102cc57565b604051907f09027ca8f74ee6ecec1a95fe10b8fa2f2648573e68ebdbfe5453750033290a0382527f04dae488ec433dbafe3013aaf3015f92393e443d3aed8c38fd0affe71bf81cde6020830152604082019081526107cf196040836060816007855a01fa156102cc5760409260066080939284938451905260a05160608401525a01fa156102cc57565b604051907f19a59d439db065a7c679b9954278568a7aac1149234b6abe03cbe4fefb92280b82527f2b89eb5b40a85c46a55ca1612106869d630be9a45842cb118ca81c0cb071487d6020830152604082019081526107cf196040836060816007855a01fa156102cc5760409260066080939284938451905260a05160608401525a01fa156102cc57565b604051907f295f43c0775d0c936f9fac76dce7d74300976edaf0a056390c8f63a517f7bdf282527f2696c14a9a922d5abd8a9c7961602043e87da2fa66bde25f65656b0296979d606020830152604082019081526107cf196040836060816007855a01fa156102cc5760409260066080939284938451905260a05160608401525a01fa156102cc57565b604051907f0f8e4685c59952671492df7cddd5d06005c9afa3a95687371a1b823eaa9e0afb82527f0a4243ad5dfcb9f8860d4d052313e21dacae29fe1a10d12ebc9cb4cb83365d8c6020830152604082019081526107cf196040836060816007855a01fa156102cc5760409260066080939284938451905260a05160608401525a01fa156102cc57565b604051907f2d6c4096fec10030db5ce82654326841e89c40fcda96d57bd026d9371ab4efd282527f1ec6fd160c58fa92e0ad7143f1bf0e1a8ab629bfad472598063ab5bacb7a907a6020830152604082019081526107cf196040836060816007855a01fa156102cc5760409260066080939284938451905260a05160608401525a01fa156102cc57565b604051907f286f63d99991edcaf7131052013a89dce8ea4fa75f98a9b123c31d42790ae89082527f21651dd5ae53e285bdeb82102fa8f97737254b133f85e7af805b4efa73c103866020830152604082019081526107cf196040836060816007855a01fa156102cc5760409260066080939284938451905260a05160608401525a01fa156102cc57565b604051907f04dbc633d764dad0ba3c019f86a484a26b0e6147a0aba0782eabe619254c0d6182527f25829bc455a6960cc3edad0b710085d475a89ee53bca42040074ea6ebdb1f99f6020830152604082019081526107cf196040836060816007855a01fa156102cc5760409260066080939284938451905260a05160608401525a01fa156102cc57565b604051907f2118787c1a138b6da39bf23e7c667a2f443e0c2a96a9cb6f6bb5bcd5d47fd73082527f25313c642784d057cf77f2d1c360e419024f3dc0e2d87131361504c585da03fa6020830152604082019081526107cf196040836060816007855a01fa156102cc5760409260066080939284938451905260a05160608401525a01fa156102cc57565b604051907f09a4cdec8989283a939a283a192c549b2d6519415234b206b771d42578a97c1482527f0519db472a86e7b224638b9dcc71d1585cd618676a8ecb676298c3337aa50a156020830152604082019081526107cf196040836060816007855a01fa156102cc5760409260066080939284938451905260a05160608401525a01fa156102cc57565b604051907f1df890af9e9ce94c8fd4b52a46a127dcac6e70f2912f98fb1156e16cefa5344882527f2dcc6b50338c6f5352653a1493ffffc5f01a2a7519532d413e7dbd593ef3a6746020830152604082019081526107cf196040836060816007855a01fa156102cc5760409260066080939284938451905260a05160608401525a01fa156102cc57565b6020907f17087c253abef4be24830fe0c0fb0ed0e5863cea1eda5ad0d6e31fcdc5874bb26080527f0259e4bd5e2ec13436e56bf5ba37a4286028ed8dd970700f9088dde923aa163e60a0526119d0610104356102d6565b6119dc61012435610360565b6119e8610144356103ea565b6119f461016435610474565b611a00610184356104fe565b611a0c6101a435610588565b611a186101c435610612565b611a246101e43561069c565b611a3061020435610726565b611a3c610224356107b0565b611a486102443561083a565b611a54610264356108c4565b611a606102843561094e565b611a6c6102a4356109d8565b611a786102c435610a62565b611a846102e435610aec565b611a9061030435610b76565b611a9c61032435610c00565b611aa861034435610c8a565b611ab461036435610d14565b611ac061038435610d9e565b611acc6103a435610e28565b611ad86103c435610eb2565b611ae46103e435610f3c565b611af061040435610fc6565b611afc6104243561104f565b611b08610444356110d9565b611b1461046435611163565b611b20610484356111ed565b611b2c6104a435611277565b611b386104c435611301565b611b446104e43561138b565b611b5061050435611415565b611b5c6105243561149f565b611b6861054435611529565b611b74610564356115b3565b611b806105843561163d565b611b8c6105a4356116c7565b611b986105c435611751565b611ba46105e4356117db565b611bb061060435611865565b611bbc610624356118ef565b61010092818492358352837f30644e72e131a029b85045b68181585d97816a916871ca8d3c208c16d87cfd479101358103066101205260443561014052606435610160526084356101805260a4356101a0527f2d4d9aa7e302d9df41749d5507949d05dbea33fbb16c643b22f599a2be6df2e26101c0527f14bedd503c37ceb061d8ec60209fe345ce89830a19230301f076caff004d19266101e0527f0967032fcbf776d1afc985f88877f182d38480a653f2decaa9794cbc3bf3060c610200527f0e187847ad4c798374d0d6732bf501847dd68bc0e071241e0213bc7fc13db7ab610220527f304cfbd1e08a704a99f5e847d93f8c3caafddec46b7a0d379da69a4d112346a7610240527f1739c1b1a457a8c7313123d24d2f9192f896b7c63eea05a9d57f06547ad0cec8610260526080516102805260a0516102a0527f198e9393920d483a7260bfb731fb5d25f1aa493335a9e71297e485b7aef312c26102c0527f1800deef121f1e76426a00665e5c4479674322d4f75edadd46debd5cd992f6ed6102e05282610300917f090689d0585ff075ec9e99ad690c3395bc4b313370b38ef355acdadcd122975b83527f12c85ea5db8c6deb4aab71808dcb408fe3d1e7690c43d37b4ce6cc0166fa7daa610320528035610340520135610360527f2d84bd0344842ef2052f9633d53e900bbbe3d1f649a6f862705a75f104d8a002610380527f061b39bff1a5c460d8d7c06548929d02faa56e89775440ae2db0877dacc7cf9c6103a0527ee984518bd2e3b91fb28f407201584716416c09776150796bb41f7695c863256103c0527f05c3e85759ae4d8daeb8f4197b68a58075c8a75c6cddf597da8eb39906d025796103e0528160086107cf195a01fa9051169056fea2646970667358221220da6cc9b836c5f70763d89e86b731c2563355bcc74efec2db3375e33d55e23ea464736f6c634300080f0033",
  "linkReferences": {},
  "deployedLinkReferences": {}
}