{
  "_format": "hh-sol-artifact-1",
  "contractName": "Groth16Verifier",
  "sourceName": "contracts/Game_3_300Verifier.sol",
  "abi": [
    {
      "inputs": [
        {
          "internalType": "uint256[2]",
          "name": "_pA",
          "type": "uint256[2]"
        },
        {
          "internalType": "uint256[2][2]",
          "name": "_pB",
          "type": "uint256[2][2]"
        },
        {
          "internalType": "uint256[2]",
          "name": "_pC",
          "type": "uint256[2]"
        },
        {
          "internalType": "uint256[42]",
          "name": "_pubSignals",
          "type": "uint256[42]"
        }
      ],
      "name": "verifyProof",
      "outputs": [
        {
          "internalType": "bool",
          "name": "",
          "type": "bool"
        }
      ],
      "stateMutability": "view",
      "type": "function"
    }
  ],
  "bytecode": "0x6080806040523461001657611e76908161001c8239f35b600080fdfe6080604052600436101561001257600080fd5b6000803560e01c63e3ba9b621461002857600080fd5b34610280576106403660031901126102805761004336610283565b3660c41161027c5761005436610295565b9061064436811161027857916102749161026f6020959461040060405261007d610104356102a3565b610089610124356102a3565b610095610144356102a3565b6100a1610164356102a3565b6100ad610184356102a3565b6100b96101a4356102a3565b6100c56101c4356102a3565b6100d16101e4356102a3565b6100dd610204356102a3565b6100e9610224356102a3565b6100f5610244356102a3565b610101610264356102a3565b61010d610284356102a3565b6101196102a4356102a3565b6101256102c4356102a3565b6101316102e4356102a3565b61013d610304356102a3565b610149610324356102a3565b610155610344356102a3565b610161610364356102a3565b61016d610384356102a3565b6101796103a4356102a3565b6101856103c4356102a3565b6101916103e4356102a3565b61019d610404356102a3565b6101a9610424356102a3565b6101b5610444356102a3565b6101c1610464356102a3565b6101cd610484356102a3565b6101d96104a4356102a3565b6101e56104c4356102a3565b6101f16104e4356102a3565b6101fd610504356102a3565b610209610524356102a3565b610215610544356102a3565b610221610564356102a3565b61022d610584356102a3565b6102396105a4356102a3565b6102456105c4356102a3565b6102516105e4356102a3565b61025d610604356102a3565b610269610624356102a3565b356102a3565b611978565b8152f35b8380fd5b5080fd5b80fd5b9060049160441161029057565b600080fd5b9060c4916101041161029057565b7f30644e72e131a029b85045b68181585d97816a916871ca8d3c208c16d87cfd4711156102cc57565b6000805260206000f35b604051907f2a939b186a0dcd4dfaa41862c9d797cfbf1c2f2ac9b2a27a6730fc6e12b4da9282527f17de79bea5b0d823d14860106ecd02776059221d93cc0329496589512c1193b06020830152604082019081526107cf196040836060816007855a01fa156102cc5760409260066080939284938451905260a05160608401525a01fa156102cc57565b604051907f288a5a3e3b6682a1298b14fea36b3a49a774c6dc4658516e1c3650088b06d0b882527f0533a3a3df8a68fe181d8b0f394d2eb7e1fa775fb13b54cc215b1238a6b746ee6020830152604082019081526107cf196040836060816007855a01fa156102cc5760409260066080939284938451905260a05160608401525a01fa156102cc57565b604051907f142841b8d2390472640afa63db7f0560cb86707e02089f45e3f7c26ca375846c82527f2c92383784fa159048a7d433534bdb0d89133f797ccb75d490307011085213e66020830152604082019081526107cf196040836060816007855a01fa156102cc5760409260066080939284938451905260a05160608401525a01fa156102cc57565b604051907f08a450f9b5c51e6a87eab345325350b6f18976532972697b5f3261475bf04b1482527f25c9fc238ef51d9f090b5c4671ecafac650735367e49482f7c927513b1c9976c6020830152604082019081526107cf196040836060816007855a01fa156102cc5760409260066080939284938451905260a05160608401525a01fa156102cc57565b604051907f1d705dc229b286be83131bd39fcf43051ee84686511bdcb4cb4fe43f6cce083082527f20c66a2b289b30139faae45dc6f58f73342b0fb9d41ccf2b78f4a95e742188d36020830152604082019081526107cf196040836060816007855a01fa156102cc5760409260066080939284938451905260a05160608401525a01fa156102cc57565b604051907f05d7a28dfbc7b8a6d7e212447fcd1f441fc3bf21aae8d602f20afe234fd6524882527f1bf8f2e97bfccde38207a003ea799ad82e0923c944ad86c34031de1c5caf29306020830152604082019081526107cf196040836060816007855a01fa156102cc5760409260066080939284938451905260a05160608401525a01fa156102cc57565b604051907f058e2346fbf256c4b1ed9d076d36f9217523ffd21aadf6d800d95ad7468b4d8d82527f0c93774b59c58b6268f944bb24eeb3e12e1c41e40aca43cceaa31e75a44956a26020830152604082019081526107cf196040836060816007855a01fa156102cc5760409260066080939284938451905260a05160608401525a01fa156102cc57565b604051907e79304e1a852f110d5dbd8759a70cae9504957c7f2c336df58908bbb020f23c82527f2c37528d2570394f62d919152f564bff9ddd0f23bb8c181e990a01951fc3b4636020830152604082019081526107cf196040836060816007855a01fa156102cc5760409260066080939284938451905260a05160608401525a01fa156102cc57565b604051907f134474f2d48f249ac481513773859d5fc77d9d0798958c62f39387483d5d135a82527f052e68e5bf866fa0d13a48ccd5fa89e933d3510504180babd9b0f1dd572725906020830152604082019081526107cf196040836060816007855a01fa156102cc5760409260066080939284938451905260a05160608401525a01fa156102cc57565b604051907ed34605436a113504ba14e0b5315ad60ea595969f00cd5b5c995420347ed04e82527f0d94876abd8aa6f9843034a014a245865c0d4a0a382008e8019554303061bb896020830152604082019081526107cf196040836060816007855a01fa156102cc5760409260066080939284938451905260a05160608401525a01fa156102cc57565b604051907f07c0d6ffdd4fb51608c1da9c1fb731a1e2f55e549d16c74d0c977ce8bb7749dc82527f0a61cbd77f0eebb7e3470c0b4926f6648e745dbd285c9e0523cbed3d0b8866ca6020830152604082019081526107cf196040836060816007855a01fa156102cc5760409260066080939284938451905260a05160608401525a01fa156102cc57565b604051907f2e8874780638eabd9131e38782d00ea031854151f1d60b7d8883c75ab7b1481d82527f1550834861edc989a55123da8a758c23a64141ee3bd10ac9b4302e9cf8d4991a6020830152604082019081526107cf196040836060816007855a01fa156102cc5760409260066080939284938451905260a05160608401525a01fa156102cc57565b604051907f04be4d242b200fca8c02e360c78490de33af7bc5fc0d8a5431e24a639358f1c682527f1cc531d960d4b30aab1274b614e9709c939b47513e79b702c143347f70f97a156020830152604082019081526107cf196040836060816007855a01fa156102cc5760409260066080939284938451905260a05160608401525a01fa156102cc57565b604051907f2bc1d31b92de7693dced3e17024743aa9f8afc373f8e07c824377790d4a9dada82527f0c201c68fe74415e156fd2beb613bafdf23ad2e45849480fb85ce580918e9a726020830152604082019081526107cf196040836060816007855a01fa156102cc5760409260066080939284938451905260a05160608401525a01fa156102cc57565b604051907f1e973cf2140b49d61193ca980315cd9c5149feeac5489918e520ffded3d4fbc882527f0980624ac52b36f51191732b31f23113c6f9dba12877ca55756d5bb580aeea676020830152604082019081526107cf196040836060816007855a01fa156102cc5760409260066080939284938451905260a05160608401525a01fa156102cc57565b604051907f2343ea7439d4745fda730af65c4b276ccd4cd3b9a63d85349aef4ba98b1ac19782527f019c99ec5233bb00978254151e22c3a539fbc9f2b49588fbbe490a4e922e4b3a6020830152604082019081526107cf196040836060816007855a01fa156102cc5760409260066080939284938451905260a05160608401525a01fa156102cc57565b604051907f2661118fa118d063fc184d82b0c852d9c5437fc2f4e3d9cb8e8545148d2dd6ab82527f148cd9a5d306455d2741d63b0fc75c0317e451a4cc36d74fa0170e453058bd7c6020830152604082019081526107cf196040836060816007855a01fa156102cc5760409260066080939284938451905260a05160608401525a01fa156102cc57565b604051907f25de2997c3efd2281ce94a13bc6df6778c33048e669c09dfba52c85e8e31a76082527f1c4186e494d252cd93a327071836f3e446d357935b2d66a6361996f67784c3d46020830152604082019081526107cf196040836060816007855a01fa156102cc5760409260066080939284938451905260a05160608401525a01fa156102cc57565b604051907f098880964933a5de24dae9c6c2e151fd8040089a30f7c128afd253957e9185c382527f10b61eabec0072be63eb8ade2b71434919e1b79597bd822d88a73529f57a19546020830152604082019081526107cf196040836060816007855a01fa156102cc5760409260066080939284938451905260a05160608401525a01fa156102cc57565b604051907f2bae8526a7f9494e1b0934d76e0a82ebba84575b195c4549311c721e99a5345d82527f2bfd3477f2a39e2001c96f4809bc272b71a0b55a6e6bb985f519775ff3adfd346020830152604082019081526107cf196040836060816007855a01fa156102cc5760409260066080939284938451905260a05160608401525a01fa156102cc57565b604051907f1ead38d299d763fb58de507d9d0866c51ee039149ff2662a3dd464b6e3ef4b6e82527f118677ad1de067ad13c35df4a3adfcd8c3c2b4e8ca42157d8d5a365ab30439af6020830152604082019081526107cf196040836060816007855a01fa156102cc5760409260066080939284938451905260a05160608401525a01fa156102cc57565b604051907f10494a1c5106dbabeb060af17186e1d17677f2d52ade81064101b7525e973f1a82527f077f2991f6084e5b56e598c80d86124e3863a8c2dec7d719cb014aca043b19586020830152604082019081526107cf196040836060816007855a01fa156102cc5760409260066080939284938451905260a05160608401525a01fa156102cc57565b604051907f2a79a299e653da7bbf3dd72763ca116d10de06c16096ec8c04d8c049f291a46f82527f2848b6e4c486dbfe750afe527ca2dbf5693386f01e1914e6d616a2c1e29627846020830152604082019081526107cf196040836060816007855a01fa156102cc5760409260066080939284938451905260a05160608401525a01fa156102cc57565b604051907f2fc372c1b316aa5d6afb4d3db69a4858073446477328516d8ff618b4ab6f25e282527f06b6235cb457c90224529256eaacecbae74615d350bb842612c9b24ce6b29c4b6020830152604082019081526107cf196040836060816007855a01fa156102cc5760409260066080939284938451905260a05160608401525a01fa156102cc57565b604051907f1263eda3411f5f7db97038cb934a23282ac7de300a215a980c4caa31476638cc82527f19fdef0ed192fd66034be7de7579aaefb2fa2632e32f948aae77b7846003480c6020830152604082019081526107cf196040836060816007855a01fa156102cc5760409260066080939284938451905260a05160608401525a01fa156102cc57565b604051907f17eb45c29af26cd9c22326cfc13dd676732fd65de0795105ecba81b267548fe082527f2682dca096b5d93f411482fc94585e04bd18b83ec89c270324ab5f17c01cad346020830152604082019081526107cf196040836060816007855a01fa156102cc5760409260066080939284938451905260a05160608401525a01fa156102cc57565b604051907f2dea9c67eb3fa90aaa16299bb07673992b816964d2f6db20a3f601848c5c6be782527f029533792ec8ae7081c1eb65c568f139f93ac550ec9a6448884fc6b727c4423a6020830152604082019081526107cf196040836060816007855a01fa156102cc5760409260066080939284938451905260a05160608401525a01fa156102cc57565b604051907f019d20bb3b7e15ebdb24fff68023b61b27e642c0d53a94f27401c77ac81c97fe82527f092e293f2144f9d6138ac147abf3428988c1e5dd00de3bb754284a5969f773976020830152604082019081526107cf196040836060816007855a01fa156102cc5760409260066080939284938451905260a05160608401525a01fa156102cc57565b604051907f1fcd2232284b07fecd1288a27512414927fb2339729427dcfc83a3a279a2b34c82527f0b84419b083ae56c6a04d95d7b0e69cfd46f939e1aa95174be1b0cc66667329a6020830152604082019081526107cf196040836060816007855a01fa156102cc5760409260066080939284938451905260a05160608401525a01fa156102cc57565b604051907f15a6d526e5756f2bcbe7641be6a850368d663356a01893ac5dffb9fd2898eb9682527f18efed499e41044b0eaf310a189d39d0f9f88a22692fb46219d3beeba0e546426020830152604082019081526107cf196040836060816007855a01fa156102cc5760409260066080939284938451905260a05160608401525a01fa156102cc57565b604051907f04dc9153b5956d9bc785b9c9683624def933eecf74160636a3952ca23f61feb582527f039fcadd80b27f6b42966343e76af2efc29084519ef6f43f493d78c8d5450acc6020830152604082019081526107cf196040836060816007855a01fa156102cc5760409260066080939284938451905260a05160608401525a01fa156102cc57565b604051907f25a016025b0e738f31798087890a7bdfb7f31ae2cadf44980a99ed21505dce3b82527f286b214c901fad34f9af4b66ebf326ba84a692e18c678cd4ba4b273ac60035606020830152604082019081526107cf196040836060816007855a01fa156102cc5760409260066080939284938451905260a05160608401525a01fa156102cc57565b604051907f03f3fa86e975f9cd1d2acc2ff7bb7b7f5a0d4df7ec06e6c1b491ffc4a418cb2082527f1340a2eb62a5c401ade58aa27b89be9827c7b7806ac44697df558b319e3d7d8c6020830152604082019081526107cf196040836060816007855a01fa156102cc5760409260066080939284938451905260a05160608401525a01fa156102cc57565b604051907f2a07ec9145b659dc0e1055b2ab00349236897d3255e3659e375e7b64e9eb3b8882527f1abff0812fd0d6911afa599342699fda42a3d236d890887e3a8c5628e2c5f4f66020830152604082019081526107cf196040836060816007855a01fa156102cc5760409260066080939284938451905260a05160608401525a01fa156102cc57565b604051907f22801bb4e36ad686d563bceea1a512ee74e12ac0a7d0020be5e3da5c304267a082527f0946faf74b568e4835ac7b50a3b7e580062f81a3f3286144017d4f32d41df6d86020830152604082019081526107cf196040836060816007855a01fa156102cc5760409260066080939284938451905260a05160608401525a01fa156102cc57565b604051907f2bad40b586d440a554ef5ccfe02de9ab7a006c87314e5fd73cca0a85760a89d782527f12a71776fa2ef63d6a970c13397291881a0fd075dd8c60c0e6ead184ae00e6b76020830152604082019081526107cf196040836060816007855a01fa156102cc5760409260066080939284938451905260a05160608401525a01fa156102cc57565b604051907f18664286e0ff92495d0f4de0da2cafb2dfff246710c6a83c0b9741ad097b4bfe82527f1e1d7e6adedf2d791f5f31bfc0e6c80d04d8a6d7f99c8af585da0d753130c6146020830152604082019081526107cf196040836060816007855a01fa156102cc5760409260066080939284938451905260a05160608401525a01fa156102cc57565b604051907f2d3136881975fd9ad3073acaa868e53139bc5bb9db60a13b1a59c6681dabeb0882527f2616c1151339e7ebd636d822478a4d19e4009d0af5e794774ea15b2837b9524c6020830152604082019081526107cf196040836060816007855a01fa156102cc5760409260066080939284938451905260a05160608401525a01fa156102cc57565b604051907f22c10a22d7969b7ed70b91b247f9ac2aca822831c030ed109a5ef6ec78b0161382527f2df320f67f4659bb4a8e686d0f816c22fa6a924f332d384427f465c6039eb6786020830152604082019081526107cf196040836060816007855a01fa156102cc5760409260066080939284938451905260a05160608401525a01fa156102cc57565b604051907f2ff96db265932267941b577620be50728cafe5a582faf4e1eecbb6f2c6a1ec1c82527f205ef57d984958de1f35d05906c231e8a7b7b1b89b8bc5fd4468ddd8fd06b11f6020830152604082019081526107cf196040836060816007855a01fa156102cc5760409260066080939284938451905260a05160608401525a01fa156102cc57565b604051907f13a7a8e5ce1322fc6c787a75521197fa69d0fc69c7542151bc553767fc9e442d82527f2c55015c8db7908ee07e6791471169ba8b3e39b6e50bb6bb61453938eb9c0e506020830152604082019081526107cf196040836060816007855a01fa156102cc5760409260066080939284938451905260a05160608401525a01fa156102cc57565b604051907f2ee0370d5dc8e15fb7a6d1e2152b2bd9db7189d5d1c79536d403052b44297a0682527f2d7b9f8f0042d512efc6e465e87449839b190cd7cc1ac80b84cef7f33fef9f676020830152604082019081526107cf196040836060816007855a01fa156102cc5760409260066080939284938451905260a05160608401525a01fa156102cc57565b6020907f123118d39c18b3e8d59140f31aaaf1570aca1ddbebe50af2e69635c2118a00166080527f0b82b5d92558d81822db34818322a6683c2e6e10d8e0b653192d2ddf4a2eaa2e60a0526119cf610104356102d6565b6119db61012435610360565b6119e7610144356103ea565b6119f361016435610474565b6119ff610184356104fe565b611a0b6101a435610588565b611a176101c435610612565b611a236101e43561069c565b611a2f61020435610725565b611a3b610224356107af565b611a4761024435610838565b611a53610264356108c2565b611a5f6102843561094c565b611a6b6102a4356109d6565b611a776102c435610a60565b611a836102e435610aea565b611a8f61030435610b74565b611a9b61032435610bfe565b611aa761034435610c88565b611ab361036435610d12565b611abf61038435610d9c565b611acb6103a435610e26565b611ad76103c435610eb0565b611ae36103e435610f3a565b611aef61040435610fc4565b611afb6104243561104e565b611b07610444356110d8565b611b1361046435611162565b611b1f610484356111ec565b611b2b6104a435611276565b611b376104c435611300565b611b436104e43561138a565b611b4f61050435611414565b611b5b6105243561149e565b611b6761054435611528565b611b73610564356115b2565b611b7f6105843561163c565b611b8b6105a4356116c6565b611b976105c435611750565b611ba36105e4356117da565b611baf61060435611864565b611bbb610624356118ee565b61010092818492358352837f30644e72e131a029b85045b68181585d97816a916871ca8d3c208c16d87cfd479101358103066101205260443561014052606435610160526084356101805260a4356101a0527f2d4d9aa7e302d9df41749d5507949d05dbea33fbb16c643b22f599a2be6df2e26101c0527f14bedd503c37ceb061d8ec60209fe345ce89830a19230301f076caff004d19266101e0527f0967032fcbf776d1afc985f88877f182d38480a653f2decaa9794cbc3bf3060c610200527f0e187847ad4c798374d0d6732bf501847dd68bc0e071241e0213bc7fc13db7ab610220527f304cfbd1e08a704a99f5e847d93f8c3caafddec46b7a0d379da69a4d112346a7610240527f1739c1b1a457a8c7313123d24d2f9192f896b7c63eea05a9d57f06547ad0cec8610260526080516102805260a0516102a0527f198e9393920d483a7260bfb731fb5d25f1aa493335a9e71297e485b7aef312c26102c0527f1800deef121f1e76426a00665e5c4479674322d4f75edadd46debd5cd992f6ed6102e05282610300917f090689d0585ff075ec9e99ad690c3395bc4b313370b38ef355acdadcd122975b83527f12c85ea5db8c6deb4aab71808dcb408fe3d1e7690c43d37b4ce6cc0166fa7daa610320528035610340520135610360527f2a07703c27f4c3a2e06970a973352baa4d2fef91d8a7f1a5beb7c754ea40f27e610380527f2cb6d108a0c15753d9c05ab20060355d4f11f4838f117826961d569a63caaa016103a0527f05911739b5cd5ca935e5ab156c2f1af031bddfd81cde80f45dbfa75491f440cd6103c0527f2a98c8b18be955c313303da1a9379e9e739235077ccdb00315db2adf508c22256103e0528160086107cf195a01fa9051169056fea264697066735822122011a665571b3a3bda512c5b0cb78d43f405e0d9de48e4803b1193327c39f36ec464736f6c634300080f0033",
  "linkReferences": {},
  "deployedLinkReferences": {}
}