{
  "_format": "hh-sol-artifact-1",
  "contractName": "Groth16Verifier",
  "sourceName": "contracts/Game_4_300Verifier.sol",
  "abi": [
    {
      "inputs": [
        {
          "internalType": "uint256[2]",
          "name": "_pA",
          "type": "uint256[2]"
        },
        {
          "internalType": "uint256[2][2]",
          "name": "_pB",
          "type": "uint256[2][2]"
        },
        {
          "internalType": "uint256[2]",
          "name": "_pC",
          "type": "uint256[2]"
        },
        {
          "internalType": "uint256[52]",
          "name": "_pubSignals",
          "type": "uint256[52]"
        }
      ],
      "name": "verifyProof",
      "outputs": [
        {
          "internalType": "bool",
          "name": "",
          "type": "bool"
        }
      ],
      "stateMutability": "view",
      "type": "function"
    }
  ],
  "bytecode": "0x60808060405234610016576124cb908161001c8239f35b600080fdfe6080604052600436101561001257600080fd5b6000803560e01c632a6d5ed51461002857600080fd5b346102f8576107803660031901126102f857610043366102fb565b3660c4116102f4576100543661030d565b906107843681116102f057916102ec916102e76020959461040060405261007d6101043561031b565b6100896101243561031b565b6100956101443561031b565b6100a16101643561031b565b6100ad6101843561031b565b6100b96101a43561031b565b6100c56101c43561031b565b6100d16101e43561031b565b6100dd6102043561031b565b6100e96102243561031b565b6100f56102443561031b565b6101016102643561031b565b61010d6102843561031b565b6101196102a43561031b565b6101256102c43561031b565b6101316102e43561031b565b61013d6103043561031b565b6101496103243561031b565b6101556103443561031b565b6101616103643561031b565b61016d6103843561031b565b6101796103a43561031b565b6101856103c43561031b565b6101916103e43561031b565b61019d6104043561031b565b6101a96104243561031b565b6101b56104443561031b565b6101c16104643561031b565b6101cd6104843561031b565b6101d96104a43561031b565b6101e56104c43561031b565b6101f16104e43561031b565b6101fd6105043561031b565b6102096105243561031b565b6102156105443561031b565b6102216105643561031b565b61022d6105843561031b565b6102396105a43561031b565b6102456105c43561031b565b6102516105e43561031b565b61025d6106043561031b565b6102696106243561031b565b6102756106443561031b565b6102816106643561031b565b61028d6106843561031b565b6102996106a43561031b565b6102a56106c43561031b565b6102b16106e43561031b565b6102bd6107043561031b565b6102c96107243561031b565b6102d56107443561031b565b6102e16107643561031b565b3561031b565b611f55565b8152f35b8380fd5b5080fd5b80fd5b9060049160441161030857565b600080fd5b9060c4916101041161030857565b7f30644e72e131a029b85045b68181585d2833e84879b9709143e1f593f0000001111561034457565b6000805260206000f35b604051907f2995371a579f320e5826d20052fd8d45bb7595d7cefbf032faaa1b3dc5cda48c82527f28e32349c79deb3be0923a5d689d2734f8d249cb334ecd21ff8e8a0dc6867bbe6020830152604082019081526107cf196040836060816007855a01fa156103445760409260066080939284938451905260a05160608401525a01fa1561034457565b604051907f0394da4db1ea44a67d7ef9ea867d0416dcc737d132e7400546643535b127a9b182527f1a204be012ea03d7b5a7840ff5154b4ed004dc54c5d98fbb6afbb19f8b66f48b6020830152604082019081526107cf196040836060816007855a01fa156103445760409260066080939284938451905260a05160608401525a01fa1561034457565b604051907f203809722bbb7617a0cc9b865da218a145f6ec510ce245a1b5e2282925848f8c82527f2217b558deae1f3ac0524457dd124294ada8fcc411f5bfca6bc39ec7afaa127f6020830152604082019081526107cf196040836060816007855a01fa156103445760409260066080939284938451905260a05160608401525a01fa1561034457565b604051907f0cc31f1b1625a445d1388f998a4590077d3db3b7f4b1ba166c191c5a1d7ab64e82527f1e05c414bde01436001c6d65f2ad7bb1e38a75823aceb9a4442537e2aa8679de6020830152604082019081526107cf196040836060816007855a01fa156103445760409260066080939284938451905260a05160608401525a01fa1561034457565b604051907f1c02e295825c6c71bef70dbad11dbe5faaf75a499f3c7122c4202edfc959628482527f11914b7f0908e0ec16d70bbfc71dcce8b4a9478de85eb588feddd93e8d726eee6020830152604082019081526107cf196040836060816007855a01fa156103445760409260066080939284938451905260a05160608401525a01fa1561034457565b604051907f148f5d9d2032fe95b696791507cb8e830cedbe1894fd2d54364fc7a1d44f832c82527f22d46b5c8c4a0e46277007e93640d93d1c0aab7af7769f36818fc696b29aca0d6020830152604082019081526107cf196040836060816007855a01fa156103445760409260066080939284938451905260a05160608401525a01fa1561034457565b604051907f03cdf9b40aeac7fefbb2bed01fc69a33a8920e43b5b187ea65d6d27ea4730e0882527f2f5ed024282ae31652f9004ff888f1067894b5bfe706f2a7253f52126d150ba56020830152604082019081526107cf196040836060816007855a01fa156103445760409260066080939284938451905260a05160608401525a01fa1561034457565b604051907f11dc4a7f1eb91d2ee769b99baec8d0f79c9eacae8520722f8aafc8822016876d82527f14e298ffd8bf61f941943b3b7d66f7cff6f040bf1ce8a26769f1563896ac55696020830152604082019081526107cf196040836060816007855a01fa156103445760409260066080939284938451905260a05160608401525a01fa1561034457565b604051907f0efd0d2f2411ff2bf57d37b13b9f096ba1870b081cd9f3df5dde386a1dc1203c82527f2c6f42bb934364275b0b02e2e028839b9c184da7a331b8dbe24a21806955ab3f6020830152604082019081526107cf196040836060816007855a01fa156103445760409260066080939284938451905260a05160608401525a01fa1561034457565b604051907f0e400603c72aeec9ba8b9e4af540fc2f7497f6cb32de647c925044d483e573e482527f2d11bce38ae11567c9d1e392301f4316e1cf80e0acf0c5791decd5623b4538cf6020830152604082019081526107cf196040836060816007855a01fa156103445760409260066080939284938451905260a05160608401525a01fa1561034457565b604051907f1d01b906d3594aaf68b3d847b65e32927e4393e204a202b6c244ae680618ffed82527f29cdce449096ce92983bdf886cdd335f5cdbe9c12c4aeac959da0824b10954156020830152604082019081526107cf196040836060816007855a01fa156103445760409260066080939284938451905260a05160608401525a01fa1561034457565b604051907f2343da3da57f5703fa03292259c8e44bfa0d7b7b91ae6b9f61e2667fbe5ea60782527f2ccebf8141ea06667e8e26f20177222e53de324dd53d6adf7bf7820eacdd131b6020830152604082019081526107cf196040836060816007855a01fa156103445760409260066080939284938451905260a05160608401525a01fa1561034457565b604051907f143c14531199df16f0b8a886f64dea1b3fe07f855f73cc8f71a7c63089a8d99b82527f2353c285093ac2479a1dee64defa4c3b75bc9caef3b24947934731cefd5f067c6020830152604082019081526107cf196040836060816007855a01fa156103445760409260066080939284938451905260a05160608401525a01fa1561034457565b604051907f2d8bf31db34aa61d927322a6cc7dde8675ba8ea0942e19001e2f55cd9b3e17fa82527f1945a869ca274e7e4842fbb23e61836b5dab6546e9369a2113ad91bba8b7c7f46020830152604082019081526107cf196040836060816007855a01fa156103445760409260066080939284938451905260a05160608401525a01fa1561034457565b604051907f2ac6300318d9c43c216dcaa3f7ce0458a3b82f99950890a00c4009c067129eab82527f2b9a5883405794416200e8c2dc82cc982533927a37df66352185b216c303cf2c6020830152604082019081526107cf196040836060816007855a01fa156103445760409260066080939284938451905260a05160608401525a01fa1561034457565b604051907f04edc55d514dc4fecc668bddc412778f19426f3964ef74b17b927a7638e65b3882527f2faf2b5c7f3db64e9ee97a1deb674779afdb94658114b27076e5b6f2431f3f256020830152604082019081526107cf196040836060816007855a01fa156103445760409260066080939284938451905260a05160608401525a01fa1561034457565b604051907f0d1b1a4161a16bf31974047720b11e7bf3ee44bd727f7ff781c32135ec73bd6b82527f16d284ac6333be2cd3edd8bb90d5ff6a4405884238e21e7587eb91644b6eb5026020830152604082019081526107cf196040836060816007855a01fa156103445760409260066080939284938451905260a05160608401525a01fa1561034457565b604051907f291c276cd284c230d56075bd0bd09f1ce1e8b45b67bad8b6b762264101da511382527f0498de8605aeb51c89ba369bf7dd57f95c4284f89afd4848c050201d197986f66020830152604082019081526107cf196040836060816007855a01fa156103445760409260066080939284938451905260a05160608401525a01fa1561034457565b604051907f01a17903b5cd7c6e1cf621dbc0832f07dda1e863db47bbb728787a2ee748d18d82527f07fd3c0e99f0f6026cae1fa1720e46142f4686ba5f31808b1dcf744949553f306020830152604082019081526107cf196040836060816007855a01fa156103445760409260066080939284938451905260a05160608401525a01fa1561034457565b604051907f122a05d2df7f096fd03ad9894a075f14901db612b3e0b8fa767581fd2cb6bf9382527f2d6f17584d03a57d24d8b46e4e7850ec94631425a53f32425ee078d31c0cc6546020830152604082019081526107cf196040836060816007855a01fa156103445760409260066080939284938451905260a05160608401525a01fa1561034457565b604051907f08dfd8b2782a70df655cd5f57191eadfafa67aabb4f0cce76318226cc4cf607a82527f137d60b4295ebf4c84a2014a0a3c23a40df9cfa93bbc803b98e8f1247503b2bd6020830152604082019081526107cf196040836060816007855a01fa156103445760409260066080939284938451905260a05160608401525a01fa1561034457565b604051907f2af1760ece11f82ee79468de9b3274c5161391224ff4dd0781fb29b78775dce482527f05738888358ecc075c921e0d162dc3cd04eccd1b589d33589354e917f22306dc6020830152604082019081526107cf196040836060816007855a01fa156103445760409260066080939284938451905260a05160608401525a01fa1561034457565b604051907f0b8d3a315c78d0df6f7f7d5f40d7ece0f448f3a4678f8ad341d828063ffb11ba82527e8921f415016b3923b69dd0f2c157dce886be084750ff4387429e610abd07016020830152604082019081526107cf196040836060816007855a01fa156103445760409260066080939284938451905260a05160608401525a01fa1561034457565b604051907f152d9f427c13c60d9807409cd21b69ef4e1e5559c9fbbda44d2fab130c18ac0582527f011bfcc181e48909f0ba9086ff0482e16ea98cafd44228781a08711ae00bf3246020830152604082019081526107cf196040836060816007855a01fa156103445760409260066080939284938451905260a05160608401525a01fa1561034457565b604051907f139c60915a4d1e0931d1c4e4763d24b6d24fba231e9da6c001da276dbe9e8dfc82527f1821b97cc168a94c81573291d9cc4446b388c51484da5945ce6f8636fb2e43f66020830152604082019081526107cf196040836060816007855a01fa156103445760409260066080939284938451905260a05160608401525a01fa1561034457565b604051907f1dbd9186037b92ba0690addb496f9f902fef5dc2d4ea393126b3c6c2aaae789082527f0d697db28cfeccfa4ce0e003c8f33cb5d9a9e2d554fe38d5c8d882d12944255f6020830152604082019081526107cf196040836060816007855a01fa156103445760409260066080939284938451905260a05160608401525a01fa1561034457565b604051907f174927391a94b30fde2261e47a60b0ea20fd97e89ed80eb6929ccefc9ce0175d82527f1900c21b70dccc94cb0a91bb57b1dfe263a8da250492e2552c0a554464be877e6020830152604082019081526107cf196040836060816007855a01fa156103445760409260066080939284938451905260a05160608401525a01fa1561034457565b604051907f0f04f6f87d80f0e7e0041f7bb42b807a77b8c9ff1ce94c62ef62da2de7b2930382527f2bf7d696177d4d3219f544dcf261660af1786343ab24868c4a63b2874054148f6020830152604082019081526107cf196040836060816007855a01fa156103445760409260066080939284938451905260a05160608401525a01fa1561034457565b604051907f16497bce969f814225f15cfd0907a5a96dba26e1cb8893e6518df1720a58406d82527f0afb193eecb4729d36787a10899d026f2f3ad575270dfd025b6b9c7df46fb8a76020830152604082019081526107cf196040836060816007855a01fa156103445760409260066080939284938451905260a05160608401525a01fa1561034457565b604051907f08e0a691655756624980b8d778edcea5f4ef380a365ffad8808ef0dbeff9a9a082527f07d18b0730ff6499b47e7430da6093d7f291af6221cb60f5509fb17842970bd26020830152604082019081526107cf196040836060816007855a01fa156103445760409260066080939284938451905260a05160608401525a01fa1561034457565b604051907f1edc58fd6206a950b35b06740b40250f41640ff9e0b5764f997249ad133d758282527f0ed2490d991fb07f44e0b2272381f899bdca00b620a435b9da8b17d72f056e636020830152604082019081526107cf196040836060816007855a01fa156103445760409260066080939284938451905260a05160608401525a01fa1561034457565b604051907f2215f1bfbfc0fd2b6d8a7601b93fbe9cf65391d5dfaa7d118c4c769c042a096682527f190fc31c641af67c48d073e401cdbdd099c1730e40f9ae11c9d2a96ab2d97f036020830152604082019081526107cf196040836060816007855a01fa156103445760409260066080939284938451905260a05160608401525a01fa1561034457565b604051907f098d27f3de386c83e403c8bc2ce5e202cd6b9b8a4ecec25fb28b5161a3f76ae282527f1ac7c56d8001b77d59b5d23852e02fd3d11cca7450dbd2f72b6e9f3547e80d836020830152604082019081526107cf196040836060816007855a01fa156103445760409260066080939284938451905260a05160608401525a01fa1561034457565b604051907f0aacb736b8900bf52cf162ec13434c1d085c013e56d75ff3dbe8c6df7946dce982527f19134ad145ff6f24d4bba7b1b6b6653f01d50d3d82f4c2314fe9fc94ad908dfe6020830152604082019081526107cf196040836060816007855a01fa156103445760409260066080939284938451905260a05160608401525a01fa1561034457565b604051907f1b832962c67e8c998b4ba2d53cb6a131be83ca5b09d7e829a1a3868d3232ecb082527f23a070198d7682294efaec4a10f82c4805f1f551c13d799d9dbc1759b67b798d6020830152604082019081526107cf196040836060816007855a01fa156103445760409260066080939284938451905260a05160608401525a01fa1561034457565b604051907f2736378cb0ecd4b40f8cfb444406a6a3781375aa7a083ac746069349c6f9440882527f069947c6eca6e7e7909495162326a0ddd0db71ab7a37432ef56ebb3aa8d2fb436020830152604082019081526107cf196040836060816007855a01fa156103445760409260066080939284938451905260a05160608401525a01fa1561034457565b604051907f01644e93605629d293c08468c950c787fd80ad344318d0a2896caecd23c3e6ff82527f3033391294c0e0fc776028db3672479d46b506428fac74f52ba30a1d1f4606d16020830152604082019081526107cf196040836060816007855a01fa156103445760409260066080939284938451905260a05160608401525a01fa1561034457565b604051907f09addf51143bba5af84e2a70835d2ca46f589efa3db2afe50c9847557d5f7b3882527f20e16cb3c315042354497721643dcc815b4ce7b6939ca7afef11248e240f94966020830152604082019081526107cf196040836060816007855a01fa156103445760409260066080939284938451905260a05160608401525a01fa1561034457565b604051907f270e51f03c63c75e3ce3829c63ac51c528e5e270447b83cacfd1185159829e3682527f0148441ea5f214e4df91531ae45aaa6b2f320f07c6242cd81a5996b2889322416020830152604082019081526107cf196040836060816007855a01fa156103445760409260066080939284938451905260a05160608401525a01fa1561034457565b604051907f08cfc077ad7c58be04e48bf0d6662159443f2a7b4e7180112ecaa6016f0ff58182527f25abdcb57b5fc501b944d2b917a34d349879d6210a546c473554347b92502cdb6020830152604082019081526107cf196040836060816007855a01fa156103445760409260066080939284938451905260a05160608401525a01fa1561034457565b604051907f219736b6c2dc06db3477f72dda7eef9b6eb54adf2484aa25e62ce5e2dad02a0482527f29645c599757f1fe5fafeb9cf44c661f16f9be8e305f7b8afc4db0909abd45e36020830152604082019081526107cf196040836060816007855a01fa156103445760409260066080939284938451905260a05160608401525a01fa1561034457565b604051907f27f45381c04b314161e08074d7f62250ef11767ca4b4ce5ff9c8f4e7e97eec2182527f04b8514ed4858ca96742bf9e4d9a4bc8bbafa9625a27ea2df91b16d2431e306e6020830152604082019081526107cf196040836060816007855a01fa156103445760409260066080939284938451905260a05160608401525a01fa1561034457565b604051907f0c2921756b3074e261535993ce061b09b51655d34b67d92f6aa376b4533f944e82527f0b6233b823a7460f904aa9c08ac0797c669d50f245f3864281d73db5937f933b6020830152604082019081526107cf196040836060816007855a01fa156103445760409260066080939284938451905260a05160608401525a01fa1561034457565b604051907f2be808dc00f27bf4181839b01bafa930d4a3f9bda046802f9d9d6f930a5b435482527f20a5443cc24701576d1f2f3bee928bd1aab1ad2e9b2ac67e3616ecb724c705bc6020830152604082019081526107cf196040836060816007855a01fa156103445760409260066080939284938451905260a05160608401525a01fa1561034457565b604051907f1595422868eae39d56a88d4f324a12acff8bf2f0958c6fa2832bcb2c387b8fc482527f05c635369eb75c0f983b533aebcebd095ef8e355540a618fcf9c929b64a40f9b6020830152604082019081526107cf196040836060816007855a01fa156103445760409260066080939284938451905260a05160608401525a01fa1561034457565b604051907f1d8d8dfe8a6ea61c8655e88eaf83752d58787f46fdf54e78fe984906bce7ca3482527f2fdf0f7cee326df3c20ff82aac04b782afc7df272d78e9a94025287d6da780c96020830152604082019081526107cf196040836060816007855a01fa156103445760409260066080939284938451905260a05160608401525a01fa1561034457565b604051907f0fbfa722da82c2e45ce38a0b14d550ac3bcbe16170823561b3ec2d548e3471f482527f2109921f8179ef1c60c6515b296ddcd2c52d1c65fd3621cb82ee2b0689d7ad0c6020830152604082019081526107cf196040836060816007855a01fa156103445760409260066080939284938451905260a05160608401525a01fa1561034457565b604051907f17f00bf58d063333a9a30c300097f946d40583b59a1c70c61358f2700a2910a582527f07e382b99e40073e3950a79aac3b30845069ea9c2e1ab5cecb15bf1400d9b8d46020830152604082019081526107cf196040836060816007855a01fa156103445760409260066080939284938451905260a05160608401525a01fa1561034457565b604051907f2b0051b411a2edd8b579c33cb79d93e2258f18b858df214e623c2a9fd1b7fa2a82527f21092c2e5bc113709d3bfa5dc269adf2d0840083d9c6c2b814bfb009da3ddf3e6020830152604082019081526107cf196040836060816007855a01fa156103445760409260066080939284938451905260a05160608401525a01fa1561034457565b604051907f18c769854890a9fa875adbbe3baa09d275d30d9d1dbd4d81ccb970e2ecf44af982527f055741beac3b1e3029ac220c7d0566744de02cc14e80818c7e57c9ef09ec06106020830152604082019081526107cf196040836060816007855a01fa156103445760409260066080939284938451905260a05160608401525a01fa1561034457565b604051907f09078575f22704b5701186c456e73fe55df339f014ab8310ae4ddf9418e22ec682527f2714f772414c50adf92170da40689540c55facdb402a2f24670efd3b650a548e6020830152604082019081526107cf196040836060816007855a01fa156103445760409260066080939284938451905260a05160608401525a01fa1561034457565b604051907f1cc05467e722cf099f215590beeac722ae5f1d37cca92bd59a2a65415cdc404c82527f0f2f0cf1939576983c4f0ba7c7c676d2970b729da368a9b9148a39b0f271ce556020830152604082019081526107cf196040836060816007855a01fa156103445760409260066080939284938451905260a05160608401525a01fa1561034457565b6020907f09a85c683a482a330abb6d5fb4769fc73df8348318fcff3d8dd75980a92029d46080527f28e7c8023dc6aaf4fd04473edf953565c088e9af7816e9d552ff884fde56268360a052611fac6101043561034e565b611fb8610124356103d8565b611fc461014435610462565b611fd0610164356104ec565b611fdc61018435610576565b611fe86101a435610600565b611ff46101c43561068a565b6120006101e435610714565b61200c6102043561079e565b61201861022435610828565b612024610244356108b2565b6120306102643561093c565b61203c610284356109c6565b6120486102a435610a50565b6120546102c435610ada565b6120606102e435610b64565b61206c61030435610bee565b61207861032435610c78565b61208461034435610d02565b61209061036435610d8c565b61209c61038435610e16565b6120a86103a435610ea0565b6120b46103c435610f2a565b6120c06103e435610fb3565b6120cc6104043561103d565b6120d8610424356110c7565b6120e461044435611151565b6120f0610464356111db565b6120fc61048435611265565b6121086104a4356112ef565b6121146104c435611379565b6121206104e435611403565b61212c6105043561148d565b61213861052435611517565b612144610544356115a1565b6121506105643561162b565b61215c610584356116b5565b6121686105a43561173f565b6121746105c4356117c9565b6121806105e435611853565b61218c610604356118dd565b61219861062435611967565b6121a4610644356119f1565b6121b061066435611a7b565b6121bc61068435611b05565b6121c86106a435611b8f565b6121d46106c435611c19565b6121e06106e435611ca3565b6121ec61070435611d2d565b6121f861072435611db7565b61220461074435611e41565b61221061076435611ecb565b61010092818492358352837f30644e72e131a029b85045b68181585d97816a916871ca8d3c208c16d87cfd479101358103066101205260443561014052606435610160526084356101805260a4356101a0527f2d4d9aa7e302d9df41749d5507949d05dbea33fbb16c643b22f599a2be6df2e26101c0527f14bedd503c37ceb061d8ec60209fe345ce89830a19230301f076caff004d19266101e0527f0967032fcbf776d1afc985f88877f182d38480a653f2decaa9794cbc3bf3060c610200527f0e187847ad4c798374d0d6732bf501847dd68bc0e071241e0213bc7fc13db7ab610220527f304cfbd1e08a704a99f5e847d93f8c3caafddec46b7a0d379da69a4d112346a7610240527f1739c1b1a457a8c7313123d24d2f9192f896b7c63eea05a9d57f06547ad0cec8610260526080516102805260a0516102a0527f198e9393920d483a7260bfb731fb5d25f1aa493335a9e71297e485b7aef312c26102c0527f1800deef121f1e76426a00665e5c4479674322d4f75edadd46debd5cd992f6ed6102e05282610300917f090689d0585ff075ec9e99ad690c3395bc4b313370b38ef355acdadcd122975b83527f12c85ea5db8c6deb4aab71808dcb408fe3d1e7690c43d37b4ce6cc0166fa7daa610320528035610340520135610360527f1f9c0abc65dc7168c46e1a4b25afebc6151d1415c26fff0a0f25146535647bac610380527f246ba7378a08af40c4cf0718e08ba46899e5411ee61d71e67ffcf3c7320601a96103a0527f0750c2b5341ab8989e71eead8ba280d3d30106180cc18a46ed61879cd97bb3a26103c0527f261fd833bf50c3ffcef24e1e15291f3cf6232b87947f5725e6c63753357c077f6103e0528160086107cf195a01fa9051169056fea2646970667358221220792d3990c8c5ec6bf54745f43c50c5f8b42c6c03edbf6454796ac62b9b7d5dfc64736f6c634300080f0033",
  "linkReferences": {},
  "deployedLinkReferences": {}
}