{
  "_format": "hh-sol-artifact-1",
  "contractName": "Groth16Verifier",
  "sourceName": "contracts/Game_6_100Verifier.sol",
  "abi": [
    {
      "inputs": [
        {
          "internalType": "uint256[2]",
          "name": "_pA",
          "type": "uint256[2]"
        },
        {
          "internalType": "uint256[2][2]",
          "name": "_pB",
          "type": "uint256[2][2]"
        },
        {
          "internalType": "uint256[2]",
          "name": "_pC",
          "type": "uint256[2]"
        },
        {
          "internalType": "uint256[72]",
          "name": "_pubSignals",
          "type": "uint256[72]"
        }
      ],
      "name": "verifyProof",
      "outputs": [
        {
          "internalType": "bool",
          "name": "",
          "type": "bool"
        }
      ],
      "stateMutability": "view",
      "type": "function"
    }
  ],
  "bytecode": "0x6080806040523461001657613172908161001c8239f35b600080fdfe6080604052600436101561001257600080fd5b6000803560e01c6311b535231461002857600080fd5b346103e857610a003660031901126103e857610043366103eb565b3660c4116103e457610054366103fd565b90610a043681116103e057916103dc916103d76020959461040060405261007d6101043561040b565b6100896101243561040b565b6100956101443561040b565b6100a16101643561040b565b6100ad6101843561040b565b6100b96101a43561040b565b6100c56101c43561040b565b6100d16101e43561040b565b6100dd6102043561040b565b6100e96102243561040b565b6100f56102443561040b565b6101016102643561040b565b61010d6102843561040b565b6101196102a43561040b565b6101256102c43561040b565b6101316102e43561040b565b61013d6103043561040b565b6101496103243561040b565b6101556103443561040b565b6101616103643561040b565b61016d6103843561040b565b6101796103a43561040b565b6101856103c43561040b565b6101916103e43561040b565b61019d6104043561040b565b6101a96104243561040b565b6101b56104443561040b565b6101c16104643561040b565b6101cd6104843561040b565b6101d96104a43561040b565b6101e56104c43561040b565b6101f16104e43561040b565b6101fd6105043561040b565b6102096105243561040b565b6102156105443561040b565b6102216105643561040b565b61022d6105843561040b565b6102396105a43561040b565b6102456105c43561040b565b6102516105e43561040b565b61025d6106043561040b565b6102696106243561040b565b6102756106443561040b565b6102816106643561040b565b61028d6106843561040b565b6102996106a43561040b565b6102a56106c43561040b565b6102b16106e43561040b565b6102bd6107043561040b565b6102c96107243561040b565b6102d56107443561040b565b6102e16107643561040b565b6102ed6107843561040b565b6102f96107a43561040b565b6103056107c43561040b565b6103116107e43561040b565b61031d6108043561040b565b6103296108243561040b565b6103356108443561040b565b6103416108643561040b565b61034d6108843561040b565b6103596108a43561040b565b6103656108c43561040b565b6103716108e43561040b565b61037d6109043561040b565b6103896109243561040b565b6103956109443561040b565b6103a16109643561040b565b6103ad6109843561040b565b6103b96109a43561040b565b6103c56109c43561040b565b6103d16109e43561040b565b3561040b565b612b0c565b8152f35b8380fd5b5080fd5b80fd5b906004916044116103f857565b600080fd5b9060c491610104116103f857565b7f30644e72e131a029b85045b68181585d2833e84879b9709143e1f593f0000001111561043457565b6000805260206000f35b604051907f2667c6dfa56c5351a20fc1041883ddbc5d085f934762897e112e8f133f21e58882527f2dcc3e39e1c83ad404a5bb8a1cd6e3c2217b8f3d65fc6927bf1e9de408e5b2d06020830152604082019081526107cf196040836060816007855a01fa156104345760409260066080939284938451905260a05160608401525a01fa1561043457565b604051907f07e01448d510e74aada7f72b0c9c34a8f03d2049c6a6e4cd2d4f48f8df28672682527f0c1550bde0c38f427faf5afcc0a818a20dc14ec5e081cc6ed0fe00e6ca310a236020830152604082019081526107cf196040836060816007855a01fa156104345760409260066080939284938451905260a05160608401525a01fa1561043457565b604051907f05621388da13de532115ffb15d8fa90138e608146f97d6492d5c2140a6980dac82527f277331b14401ade94e87bca731aa547e8f709f9982b40f46437065afd1d359616020830152604082019081526107cf196040836060816007855a01fa156104345760409260066080939284938451905260a05160608401525a01fa1561043457565b604051907f08d790dd808d61348b4e2e07f352f0e5df9d2c8d5cc2b9f62175f77797e9ad9c82527f166f5e9d004d41c8438c2a68d78a1b846d365663899de2a713deea73cbdffbda6020830152604082019081526107cf196040836060816007855a01fa156104345760409260066080939284938451905260a05160608401525a01fa1561043457565b604051907f16a90948422e4aa3f1ad057f6e67e8cb6deab751e711b512e205a272dcddb1c782527f0c67b4dfca36e06fb4725b82bbe84b282da5b826126e6199a0ada9aab6cafd1d6020830152604082019081526107cf196040836060816007855a01fa156104345760409260066080939284938451905260a05160608401525a01fa1561043457565b604051907f1b3f50784309df23139ea2d94c84b67fc8f157224b7fd43da1c807d64a89102982527f04d9bebfbdd814878bcab97acfc27040d71a6dacdc398b24366100f3b26127f46020830152604082019081526107cf196040836060816007855a01fa156104345760409260066080939284938451905260a05160608401525a01fa1561043457565b604051907f14b806b99560c0cd21c48e5b0b19dbe7d741ae4ec76e0b8f964fa6bc9fdff32d82527f19c4bece9dcce85f702d4ab77c3448acf5be373cfcc2ca00ae76b8401c139f976020830152604082019081526107cf196040836060816007855a01fa156104345760409260066080939284938451905260a05160608401525a01fa1561043457565b604051907f0bb3846cec6429c62046370e09a726f575627e439ea57f50893b3539c48287a182527f06e5dedee371b3eef34335ed648a0d86749ddca6092a19470aeaf4c9fa68110f6020830152604082019081526107cf196040836060816007855a01fa156104345760409260066080939284938451905260a05160608401525a01fa1561043457565b604051907f141c0f0c70fff47d4e969db4518eb900109ad27c5e730a6f000289df0a87217a82527f0b39812734df8dad5e77cea40c4583c346810c0bc239aac631a238c54377f35a6020830152604082019081526107cf196040836060816007855a01fa156104345760409260066080939284938451905260a05160608401525a01fa1561043457565b604051907f25b046bc9fe57c0403d3a686bec77903f50fa8cd3608720f2eb57177b73b38de82527f11b077216920535f9cb3f3fb4b7709de7f755c77057b691dd9eb7403fcf4b1316020830152604082019081526107cf196040836060816007855a01fa156104345760409260066080939284938451905260a05160608401525a01fa1561043457565b604051907f2a63a3db68ec05ddfcf74aa52e24d4be6aa87dd81cff5e09006d4983b725564d82527f0b7273f62ab097a1fd96354b483a70389174f419787641d5331e0b4e7bf274116020830152604082019081526107cf196040836060816007855a01fa156104345760409260066080939284938451905260a05160608401525a01fa1561043457565b604051907f08d3ce87799608dc1b6f1b27349e8a64f6c94f897d3f272d001e6c8cdc2cf38082527f177531b44869f0bdf51f9399793820a26a0bd63dc76e9ff035e4abafd859d7dd6020830152604082019081526107cf196040836060816007855a01fa156104345760409260066080939284938451905260a05160608401525a01fa1561043457565b604051907f282ea8352a08b62924e67e22496ba35c4bc2eedafeb7c70f0845319f5ca6aa9582527f2a691f6b27443f0726dff35c357b88a13fa1840acdec228f9d8bc9f143a6589a6020830152604082019081526107cf196040836060816007855a01fa156104345760409260066080939284938451905260a05160608401525a01fa1561043457565b604051907f1af065619fa5c535117efc489df319b52594aece34cbc68e863482fc04a2a13982527f1e0e749fcb43e3cb855773ac62071e537750e9daf3767e64211ca53191741dfe6020830152604082019081526107cf196040836060816007855a01fa156104345760409260066080939284938451905260a05160608401525a01fa1561043457565b604051907f0527668a66a1890c63d6322a9be967d9cda00dac06386d2a7a9308716851cff782527f295c32347fc2620a8049fee6555546dceac6c241ec9984a5e363487e7831706b6020830152604082019081526107cf196040836060816007855a01fa156104345760409260066080939284938451905260a05160608401525a01fa1561043457565b604051907f0f871eb52412052fb2032d4ec8a7d20c7de5cbca87b9e1ee5590099a7618a50282527f0d91e0bbc976228f082fc5e1d70ce54bb8b47e55f562fefe3110a816f811817f6020830152604082019081526107cf196040836060816007855a01fa156104345760409260066080939284938451905260a05160608401525a01fa1561043457565b604051907f08c18a334b593329974a1b30ee4d2e0d0556ed4fd5f7fd41e2ced7190b2774fd82527f1985bab7fb626b31b6c81c5d7981a73e9b819604177009b8698d7dc58437a4086020830152604082019081526107cf196040836060816007855a01fa156104345760409260066080939284938451905260a05160608401525a01fa1561043457565b604051907f0e680a790ba908782c20c5974c60995a35f6cc264d57d1393c7491373029d9a782527f1b9694bb7d02c117e473c22c9e12cac6aca036d264bc6933f89dee72d62588016020830152604082019081526107cf196040836060816007855a01fa156104345760409260066080939284938451905260a05160608401525a01fa1561043457565b604051907f16e7c9147321f93eeffdd924f19d6e83b3095374b40027484d30096e0d43eb3f82527f2073f40ee28c93e4611cfa3832d980d5bbe560ed2f918f265cb17ccbe5e014bb6020830152604082019081526107cf196040836060816007855a01fa156104345760409260066080939284938451905260a05160608401525a01fa1561043457565b604051907f05020ec98c8b10b774f39c9862cd3b6fb87290482a84db1c8599858e8f8ff90282527f2ab79bba78c5654d5eb20e499f9250f062707d387d05c201ab07e68017ba007f6020830152604082019081526107cf196040836060816007855a01fa156104345760409260066080939284938451905260a05160608401525a01fa1561043457565b604051907f259f06b9a512fbede32f8ebbb509301e1a35eb031a3c0e6497dbcebf1555384682527f2c456593a2de5011d3908c07e05d513af64d34ba0ffe08a88ecfe6a3a73e25de6020830152604082019081526107cf196040836060816007855a01fa156104345760409260066080939284938451905260a05160608401525a01fa1561043457565b604051907f297561f0c7ebfabb1c1206c8bc0129142113fe341ede93aa540b7f83c4dc26c282527f0c5a43ca5d30c6800e8d511e00f5939b05ccdd0b60f922764e1bd3d57881cbd86020830152604082019081526107cf196040836060816007855a01fa156104345760409260066080939284938451905260a05160608401525a01fa1561043457565b604051907f2487dd074f54aa1387a66ef3c92aa872848406eea246ba829b72ffbd945d5fc782527f051f255498933921171060fba5e35d04894643bcb6459fa35d779967378a9c6d6020830152604082019081526107cf196040836060816007855a01fa156104345760409260066080939284938451905260a05160608401525a01fa1561043457565b604051907f28a4f900b4fd9ba4ad443a835d47dca06fe6f0d1014026b48435902a375ed6f082527f02d56e1532c5eb907955225d45224cb70c7790c47088a02fc552290b9cdabebe6020830152604082019081526107cf196040836060816007855a01fa156104345760409260066080939284938451905260a05160608401525a01fa1561043457565b604051907f0c73bed1c3126b7b691d5cba9e16c8f67486da75fdfb1986115b82190966e71182527f13094c1182dca4d7ad70b23fb064efd819751a13428aae1def83cd30bf1a5af76020830152604082019081526107cf196040836060816007855a01fa156104345760409260066080939284938451905260a05160608401525a01fa1561043457565b604051907f24e02fc86da448ec69c9d451e0d83914a7fa5ebede5a913ada9fa415b04ca58c82527f2e145438c24e331bea14076dca648f7bb58d9fffcc8b5dfbe7d45205646841366020830152604082019081526107cf196040836060816007855a01fa156104345760409260066080939284938451905260a05160608401525a01fa1561043457565b604051907f226baca5fcd8854b703a44b225ab791894e762903fc9e24f6187438eff9c33d682527f1037a5b8386ffc8b332050a8dc6c24c09148b20f8c9e49b8f7f63af57c308d836020830152604082019081526107cf196040836060816007855a01fa156104345760409260066080939284938451905260a05160608401525a01fa1561043457565b604051907f165cf545bac73ca842892ee1739f57d9697aa60becaa36544e1231266aed598482527f06855e29ba610f2e0b0cdca28b35eda0fb465423620877265226469c453616876020830152604082019081526107cf196040836060816007855a01fa156104345760409260066080939284938451905260a05160608401525a01fa1561043457565b604051907f02f3fc288780a1a723a7c3b2ccabe4f2dc1d741cb138e34877db2943d5d643c582527f08535e06dc119b0170be8935649838008198519f3dec050e733f41865c337b596020830152604082019081526107cf196040836060816007855a01fa156104345760409260066080939284938451905260a05160608401525a01fa1561043457565b604051907f06e95d5619e82fa882772957b09f36a6074cf1d7580ce7b815a5ed5555422b4782527f02695b316800ac242ce0f92ed9bfb42da4750d7def764b1971489c24713593466020830152604082019081526107cf196040836060816007855a01fa156104345760409260066080939284938451905260a05160608401525a01fa1561043457565b604051907f02945f59c52c3a8d52edc8bfffbd06f52f302fe43c10153dc7f34012d1e796b082527f06dba0daae5858955a5163a67e6b66d9ce4204f2ed5f5569c3d45e82f83e55006020830152604082019081526107cf196040836060816007855a01fa156104345760409260066080939284938451905260a05160608401525a01fa1561043457565b604051907f19868908aa567255d3ad4d3c440571fb8cbeab0a1aeb2cc6fa1d2e752f520b8982527f0b9d1f62f055e8499d0e67f637a140f96064483c3cbfe60ff69d4b2910bfb4816020830152604082019081526107cf196040836060816007855a01fa156104345760409260066080939284938451905260a05160608401525a01fa1561043457565b604051907f0f249127ff95549d3eaab68992a61225362b741b1dbc749f6c8ad54872dd377082527f2850c6e6c715ee90a23499b39c50851c49a771cbfdca02eb742daf725a1e94e66020830152604082019081526107cf196040836060816007855a01fa156104345760409260066080939284938451905260a05160608401525a01fa1561043457565b604051907f20061bf91c9405a460fd864273684fd8a6d5570c374cdb58b574f15d7318e2d582527f01f0f113dd8ae894f5de00488aa9476b45134ce4397ca4bb61b75b9d2353f2ab6020830152604082019081526107cf196040836060816007855a01fa156104345760409260066080939284938451905260a05160608401525a01fa1561043457565b604051907f14debbebcc9f9dff6b278e3926615ea0b7e66d091ed18657c6b6cb892923ce8682527f0d7f04cd6c005011519d2ea0940c6ecf5ee6d63f049325ca3cf39fa005e9decf6020830152604082019081526107cf196040836060816007855a01fa156104345760409260066080939284938451905260a05160608401525a01fa1561043457565b604051907f29c1b95d8a0d74785367a706ed78d0f4a82c46239dd20aa58020e6744156a46a82527f12016d7cb4e17c648739c5172150aba0d29ffe69512f0ef3c45db6b31d4c95b36020830152604082019081526107cf196040836060816007855a01fa156104345760409260066080939284938451905260a05160608401525a01fa1561043457565b604051907f21667a636cf80a6e459de6a471a4e03929088d74a402514c3b143766d7edc8a382527f28addd8f9bf768d7c35e5ff361ebbf244e261362909d496b7df1178fa8edfb2d6020830152604082019081526107cf196040836060816007855a01fa156104345760409260066080939284938451905260a05160608401525a01fa1561043457565b604051907f1fb57fbe16258dc6624303c2532e90bd49f742cd1e9cc4a0d6e2ea6ba32bc91c82527f210cf6f505a80cb9fff44d2134752c0ef9b0847bd90cd608264076763820bbe36020830152604082019081526107cf196040836060816007855a01fa156104345760409260066080939284938451905260a05160608401525a01fa1561043457565b604051907f1b3de2f37175141db1aa3cd2e0af830e7e6bfdbfcfbbec301df56ce6d9095be482527f1221c24413c58354f23e599590becd79a45e773e57123f842a19e72da11f7f8f6020830152604082019081526107cf196040836060816007855a01fa156104345760409260066080939284938451905260a05160608401525a01fa1561043457565b604051907f028d9b44a298ea114ffd52688b295642de935a3f57fcc66365c2bbf2e5ca5f8182527f2c77bfb8d64f12ea20cf547d7f52ac14f3e0660e61c0b29edab5da23b4d8e4796020830152604082019081526107cf196040836060816007855a01fa156104345760409260066080939284938451905260a05160608401525a01fa1561043457565b604051907f0314367d179885abc2066e338125680ec85128392360df430b90fbe30379702382527f2d6d701c08b818191c58c4607c78119d746858993a8e8d3040ed10700ceffaed6020830152604082019081526107cf196040836060816007855a01fa156104345760409260066080939284938451905260a05160608401525a01fa1561043457565b604051907f07f99cdb2739e9971df32f6eb80bb03bd1755fd06fe3fbbcf325b0c35af75dfa82527f2be963b93b29c91620bf3d7c402d4259487ac16a696f08db392d7402074624756020830152604082019081526107cf196040836060816007855a01fa156104345760409260066080939284938451905260a05160608401525a01fa1561043457565b604051907f20635bc83d5713018f9573895d354b2b0c5cbdac8771e662e4a0b9590f10b53b82527f1e53a0b6d413359a1e83f6478003a9f1bc44b3d11159676fa7182580d006051a6020830152604082019081526107cf196040836060816007855a01fa156104345760409260066080939284938451905260a05160608401525a01fa1561043457565b604051907f015e8094fcb38b381812fe99fc31c09789882671852e74f3994c8eff0454744e82527f1ff895caeb26f6533366590ea624b9f042940af79232b2b698995c86a4c1ec0c6020830152604082019081526107cf196040836060816007855a01fa156104345760409260066080939284938451905260a05160608401525a01fa1561043457565b604051907f0655c7d02064c7b2139711154ece1168923a5b3f05724630808840b1742aa0c182527f0630d0efba1a3b23c281ae64f6546eddb79617de74e9311616f5faa43b94dcc16020830152604082019081526107cf196040836060816007855a01fa156104345760409260066080939284938451905260a05160608401525a01fa1561043457565b604051907f171c14b1030b2bc926fb5ca13f1fb34fbd8f2c83e48f7f00a33a4d5b22139a7e82527f16732259b36a700e7203cb22a71c7510593462d868843b2f2d7e3a2c0d1b568a6020830152604082019081526107cf196040836060816007855a01fa156104345760409260066080939284938451905260a05160608401525a01fa1561043457565b604051907f1f6ad1dca8279b886111d0ab368c79d64372d9addde900c12c7989eceb5f62aa82527f0af318085bc247ccf325b246a5fb615c076fcb8cf50e3c00f0ef2bb2e4e923196020830152604082019081526107cf196040836060816007855a01fa156104345760409260066080939284938451905260a05160608401525a01fa1561043457565b604051907f2ad8d08c8767ad16ad37bfc35c0b281988cf339280f54a2146e1e3936fba00cb82527f14a7dcccff4bd9ea411704e29c6b7e36b9ed61689bf85755ca4a7b6b817b724d6020830152604082019081526107cf196040836060816007855a01fa156104345760409260066080939284938451905260a05160608401525a01fa1561043457565b604051907f27535351b2980ef1f2bcb96614be01492d67e17e14dab5cbe15bbb155d6714f082527f1cf685f6bad22a51ca4648004cb3df158cd60dc13aeda2cd8542a3616f80e5946020830152604082019081526107cf196040836060816007855a01fa156104345760409260066080939284938451905260a05160608401525a01fa1561043457565b604051907f11f119d3c5ce56bed7c3e588674fdabf015ee39e33bcd1b4d14783b75cd07a3382527f2519fd96eab1094e4e3144620ccddb4979665656cf8f290d3895c8f0274d8d0e6020830152604082019081526107cf196040836060816007855a01fa156104345760409260066080939284938451905260a05160608401525a01fa1561043457565b604051907f1c2e086e9d42726d1f8e1b3187cfa3f6bfb261e103ceb28b264c94286d4619dc82527f09c04abb3f01e1b74978b12c1331e226b7a48ce05b86721c47c0752e793377466020830152604082019081526107cf196040836060816007855a01fa156104345760409260066080939284938451905260a05160608401525a01fa1561043457565b604051907f0df55a53a62074b2d5d2d5554a75bc873ebb99ee3c8024a4a2dc9c78f337132282527f085c8b18cfb164707a2f4ffa054fdcb4d84763f4ef1e4bbe1a87aafb979e02da6020830152604082019081526107cf196040836060816007855a01fa156104345760409260066080939284938451905260a05160608401525a01fa1561043457565b604051907f1f121eb72aef0226cfec7676c0f509cf1a440b91d50ccd341a5027812806a08f82527f046b8a5b21f06ff49097c94e65e05938fe8bf3f21c891bb4080f786aadba3d906020830152604082019081526107cf196040836060816007855a01fa156104345760409260066080939284938451905260a05160608401525a01fa1561043457565b604051907f013cb45ae26ef49d6379bd3ed1f74694d7590bde009c2741498c779392849f8b82527f0828b3d758af3ded87c6002cf45d1fefbf7890be65591fb7886806d6ee7f84f76020830152604082019081526107cf196040836060816007855a01fa156104345760409260066080939284938451905260a05160608401525a01fa1561043457565b604051907f2f28ad4c4ccdf8f3142965be563cd75b56aaa02e3218599e929c77fc823ace8d82527f0424f125822e41d347da0eab537a6217d32522a9b30993e7676a72e98b4bb48b6020830152604082019081526107cf196040836060816007855a01fa156104345760409260066080939284938451905260a05160608401525a01fa1561043457565b604051907f05b07e9d85f7a48381fb3b45efe8c91b8b1cc21e5e1ee0341fbdd8056b4d088f82527f19af979d003c601ecde38c02cbd6bfeb929a707e0f62f281b2137311e2040fa16020830152604082019081526107cf196040836060816007855a01fa156104345760409260066080939284938451905260a05160608401525a01fa1561043457565b604051907f2bccff22180250f58156e0b711ea11f15069ef61a4dba44936017f47e3f2aaa582527f2c86f952bb7e70905c1f80a73223c59a014f41d4d2fffb00019b9f4d152bd37c6020830152604082019081526107cf196040836060816007855a01fa156104345760409260066080939284938451905260a05160608401525a01fa1561043457565b604051907e517770a8463bedabfdad90f7a8fbce431c188149c8ab5274e52a430703071082527f12c90b4a4cfe067fa5a0f6d7f60bf63fd02d719cfd98c8b31e47d8fdf140f5cb6020830152604082019081526107cf196040836060816007855a01fa156104345760409260066080939284938451905260a05160608401525a01fa1561043457565b604051907f0170501fb7900ce62bc471ae271ffa2626ba30f1d6b4a5ae94ad4051e97d028b82527f11549361de6aae7e0fe3faf04675795953e90240d98975bc7113b51c852262406020830152604082019081526107cf196040836060816007855a01fa156104345760409260066080939284938451905260a05160608401525a01fa1561043457565b604051907f1890d1375e22f8444c8f3e94948fd64332e2bd732655d13540f7781cd95589c782527f14cbc930a368e2912d087a45c3608b6a49a8bca30e75dd4b41c79a5692f66c526020830152604082019081526107cf196040836060816007855a01fa156104345760409260066080939284938451905260a05160608401525a01fa1561043457565b604051907f0d4149b934d7f285a969be0fd6601e6a8aefd5686786741944f8c848fa2e8d1282527f04be70f03e9c740929dd747a1ba345be49d530ce1ab2df12d28ae30da2650a846020830152604082019081526107cf196040836060816007855a01fa156104345760409260066080939284938451905260a05160608401525a01fa1561043457565b604051907f188e202ca577ce865819b5449c629dadb34006dbe3b05362cd2c3ee565a59cae82527f01e4df435d4742d09bffe995ebf166ff6da77e9fbed2e85726c9dbc81f2f5bbb6020830152604082019081526107cf196040836060816007855a01fa156104345760409260066080939284938451905260a05160608401525a01fa1561043457565b604051907f07a2bfc13ec897224d2e1a011767dbaf600ccd46b856bb8b69a5c1c25d77770182527f0aa3663acee999a4ee08cf17ed3c993546a7407f23fae50b740c540f010580926020830152604082019081526107cf196040836060816007855a01fa156104345760409260066080939284938451905260a05160608401525a01fa1561043457565b604051907f082c356c8d25e06652c0a31117797073056389bdc1d8bbbe1e5f51dd2513e88982527f0551c46de5a2043e8df0b1d74da2a72bbb778851d0c2c0ae162ddeb3d8e7e4e36020830152604082019081526107cf196040836060816007855a01fa156104345760409260066080939284938451905260a05160608401525a01fa1561043457565b604051907f10b5746f0a58bca638de48e840b53499c02b0a8b80198a9a6e450ddcdeda356d82527f048910fae403931fdfbfc8196aaa22f572925dcc896f940df08d73ca487d509a6020830152604082019081526107cf196040836060816007855a01fa156104345760409260066080939284938451905260a05160608401525a01fa1561043457565b604051907f2863191eb26dd2961764b3c88104f42468b2c673205382a089a36f025b94f0e382527ed8c958950a649fcca8b459990426a5f681fd73ce8a61975bc519f94b53d8306020830152604082019081526107cf196040836060816007855a01fa156104345760409260066080939284938451905260a05160608401525a01fa1561043457565b604051907f095824df65d729fdb0c86cdad9d4901333e298b7533ff1dcc208d70a7b41fa5282527f24ee4327f24739e2486dd8b7f15646483a35f2387d160b921a5186fb0bd67ed96020830152604082019081526107cf196040836060816007855a01fa156104345760409260066080939284938451905260a05160608401525a01fa1561043457565b604051907f194985b6df75d4595acf5b8b2e57471d131c438fb246219f0d9b594f725f665082527f061eaa3af2c925286c839be3bd24709b63ecc599c1647b281dcb64b3bb6c3f746020830152604082019081526107cf196040836060816007855a01fa156104345760409260066080939284938451905260a05160608401525a01fa1561043457565b604051907f22e885059b452f950a5cb7fd87a32931323cc6d0cbe3c793a180dad9992858c882527f250feeeccfe27d81793ff978bb16ac84be5eeccda19a106bcd13fe796f7330206020830152604082019081526107cf196040836060816007855a01fa156104345760409260066080939284938451905260a05160608401525a01fa1561043457565b604051907f1b47e8906971309654bebdda18df3e6e2b03033c54741e1980b198c1d19c41ce82527f1cb25e625a232e879d7e9a78f8d9d56d14cd8d82ee538ef7a72f463826ea32e86020830152604082019081526107cf196040836060816007855a01fa156104345760409260066080939284938451905260a05160608401525a01fa1561043457565b604051907f12eeeafe87352fbd5834a2e765b05c4c2c0c1314190c5f7ffd72ff871b1af09a82527f14276bea31cd8c7b17ee826fa83e7b33787a03025b46d46b23c97acd006270f46020830152604082019081526107cf196040836060816007855a01fa156104345760409260066080939284938451905260a05160608401525a01fa1561043457565b604051907f2d7c29a9078d1de6e928bc4b3f8b7f24fb8f912958e0f06e2738cfc21cc8476382527f1bd7edbceb10a0d8e279bf59c8842ccd6ca9ea81d02186b1951ed2d5d0ecadf26020830152604082019081526107cf196040836060816007855a01fa156104345760409260066080939284938451905260a05160608401525a01fa1561043457565b6020907f0c8b97404062e198fe7d938e5200755cd45d303e40b323cb24302b425ab0468b6080527f1e1981d315545c97d964d046b83ddb6de081ae97410931e4ba54805e84e8f5b560a052612b636101043561043e565b612b6f610124356104c8565b612b7b61014435610552565b612b87610164356105dc565b612b9361018435610666565b612b9f6101a4356106f0565b612bab6101c43561077a565b612bb76101e435610804565b612bc36102043561088e565b612bcf61022435610918565b612bdb610244356109a2565b612be761026435610a2c565b612bf361028435610ab6565b612bff6102a435610b40565b612c0b6102c435610bca565b612c176102e435610c54565b612c2361030435610cde565b612c2f61032435610d68565b612c3b61034435610df2565b612c4761036435610e7c565b612c5361038435610f06565b612c5f6103a435610f90565b612c6b6103c43561101a565b612c776103e4356110a4565b612c836104043561112e565b612c8f610424356111b8565b612c9b61044435611242565b612ca7610464356112cc565b612cb361048435611356565b612cbf6104a4356113e0565b612ccb6104c43561146a565b612cd76104e4356114f4565b612ce36105043561157e565b612cef61052435611608565b612cfb61054435611692565b612d076105643561171c565b612d13610584356117a6565b612d1f6105a435611830565b612d2b6105c4356118ba565b612d376105e435611944565b612d43610604356119ce565b612d4f61062435611a58565b612d5b61064435611ae2565b612d6761066435611b6c565b612d7361068435611bf6565b612d7f6106a435611c80565b612d8b6106c435611d0a565b612d976106e435611d94565b612da361070435611e1e565b612daf61072435611ea8565b612dbb61074435611f32565b612dc761076435611fbc565b612dd361078435612046565b612ddf6107a4356120d0565b612deb6107c43561215a565b612df76107e4356121e4565b612e036108043561226e565b612e0f610824356122f8565b612e1b61084435612381565b612e276108643561240b565b612e3361088435612495565b612e3f6108a43561251f565b612e4b6108c4356125a9565b612e576108e435612633565b612e63610904356126bd565b612e6f61092435612747565b612e7b610944356127d0565b612e876109643561285a565b612e93610984356128e4565b612e9f6109a43561296e565b612eab6109c4356129f8565b612eb76109e435612a82565b61010092818492358352837f30644e72e131a029b85045b68181585d97816a916871ca8d3c208c16d87cfd479101358103066101205260443561014052606435610160526084356101805260a4356101a0527f2d4d9aa7e302d9df41749d5507949d05dbea33fbb16c643b22f599a2be6df2e26101c0527f14bedd503c37ceb061d8ec60209fe345ce89830a19230301f076caff004d19266101e0527f0967032fcbf776d1afc985f88877f182d38480a653f2decaa9794cbc3bf3060c610200527f0e187847ad4c798374d0d6732bf501847dd68bc0e071241e0213bc7fc13db7ab610220527f304cfbd1e08a704a99f5e847d93f8c3caafddec46b7a0d379da69a4d112346a7610240527f1739c1b1a457a8c7313123d24d2f9192f896b7c63eea05a9d57f06547ad0cec8610260526080516102805260a0516102a0527f198e9393920d483a7260bfb731fb5d25f1aa493335a9e71297e485b7aef312c26102c0527f1800deef121f1e76426a00665e5c4479674322d4f75edadd46debd5cd992f6ed6102e05282610300917f090689d0585ff075ec9e99ad690c3395bc4b313370b38ef355acdadcd122975b83527f12c85ea5db8c6deb4aab71808dcb408fe3d1e7690c43d37b4ce6cc0166fa7daa610320528035610340520135610360527f25fd39b01410af0ac1ab60c1372a6bb769d12512539550d11e3d0182b19e11f3610380527f0ac74c64bd381671a238e07a33c3ddb364286a3a07f8c50341ad43375e966f616103a0527f13050423f088bb414f63a53e988ce302b775eedb47574a03c2ac31fb77e879136103c0527f10cf97cf1a8c1ccf75401b4d02630839e9b6e17be56880eed7edebd0697cb1a16103e0528160086107cf195a01fa9051169056fea2646970667358221220710a117cf3cb4add64dc882ea20c4ee075df377ac965d3f74e4d75eb759a196464736f6c634300080f0033",
  "linkReferences": {},
  "deployedLinkReferences": {}
}