{
  "_format": "hh-sol-artifact-1",
  "contractName": "Solver",
  "sourceName": "contracts/Solver.sol",
  "abi": [
    {
      "inputs": [
        {
          "internalType": "address payable",
          "name": "problems_",
          "type": "address"
        }
      ],
      "stateMutability": "nonpayable",
      "type": "constructor"
    },
    {
      "anonymous": false,
      "inputs": [
        {
          "indexed": true,
          "internalType": "address",
          "name": "previousOwner",
          "type": "address"
        },
        {
          "indexed": true,
          "internalType": "address",
          "name": "newOwner",
          "type": "address"
        }
      ],
      "name": "OwnershipTransferred",
      "type": "event"
    },
    {
      "anonymous": false,
      "inputs": [
        {
          "indexed": true,
          "internalType": "address",
          "name": "solver",
          "type": "address"
        },
        {
          "indexed": true,
          "internalType": "uint256",
          "name": "problemId",
          "type": "uint256"
        },
        {
          "indexed": true,
          "internalType": "uint256",
          "name": "level",
          "type": "uint256"
        },
        {
          "indexed": false,
          "internalType": "uint256",
          "name": "ticksInThisMatch",
          "type": "uint256"
        },
        {
          "indexed": false,
          "internalType": "uint256",
          "name": "day",
          "type": "uint256"
        }
      ],
      "name": "Solved",
      "type": "event"
    },
    {
      "stateMutability": "nonpayable",
      "type": "fallback"
    },
    {
      "inputs": [
        {
          "internalType": "uint256",
          "name": "problemId",
          "type": "uint256"
        },
        {
          "internalType": "uint256",
          "name": "tickCount",
          "type": "uint256"
        },
        {
          "internalType": "uint256[2][]",
          "name": "a",
          "type": "uint256[2][]"
        },
        {
          "internalType": "uint256[2][2][]",
          "name": "b",
          "type": "uint256[2][2][]"
        },
        {
          "internalType": "uint256[2][]",
          "name": "c",
          "type": "uint256[2][]"
        },
        {
          "internalType": "uint256[][]",
          "name": "input",
          "type": "uint256[][]"
        }
      ],
      "name": "batchSolve",
      "outputs": [],
      "stateMutability": "nonpayable",
      "type": "function"
    },
    {
      "inputs": [],
      "name": "decimals",
      "outputs": [
        {
          "internalType": "uint256",
          "name": "",
          "type": "uint256"
        }
      ],
      "stateMutability": "view",
      "type": "function"
    },
    {
      "inputs": [
        {
          "internalType": "uint256",
          "name": "problemId",
          "type": "uint256"
        }
      ],
      "name": "deleteMatch",
      "outputs": [],
      "stateMutability": "nonpayable",
      "type": "function"
    },
    {
      "inputs": [
        {
          "internalType": "uint256",
          "name": "problemId",
          "type": "uint256"
        }
      ],
      "name": "inProgress",
      "outputs": [
        {
          "internalType": "bool",
          "name": "",
          "type": "bool"
        }
      ],
      "stateMutability": "view",
      "type": "function"
    },
    {
      "inputs": [
        {
          "internalType": "uint256",
          "name": "",
          "type": "uint256"
        }
      ],
      "name": "matches",
      "outputs": [
        {
          "internalType": "bool",
          "name": "inProgress",
          "type": "bool"
        },
        {
          "internalType": "uint256",
          "name": "problemId",
          "type": "uint256"
        },
        {
          "internalType": "uint256",
          "name": "startingTick",
          "type": "uint256"
        }
      ],
      "stateMutability": "view",
      "type": "function"
    },
    {
      "inputs": [],
      "name": "maxTick",
      "outputs": [
        {
          "internalType": "uint256",
          "name": "",
          "type": "uint256"
        }
      ],
      "stateMutability": "view",
      "type": "function"
    },
    {
      "inputs": [],
      "name": "owner",
      "outputs": [
        {
          "internalType": "address",
          "name": "",
          "type": "address"
        }
      ],
      "stateMutability": "view",
      "type": "function"
    },
    {
      "inputs": [],
      "name": "problems",
      "outputs": [
        {
          "internalType": "address payable",
          "name": "",
          "type": "address"
        }
      ],
      "stateMutability": "view",
      "type": "function"
    },
    {
      "inputs": [],
      "name": "renounceOwnership",
      "outputs": [],
      "stateMutability": "nonpayable",
      "type": "function"
    },
    {
      "inputs": [
        {
          "internalType": "uint256",
          "name": "problemId",
          "type": "uint256"
        },
        {
          "internalType": "uint256",
          "name": "tickCount",
          "type": "uint256"
        },
        {
          "internalType": "uint256[2]",
          "name": "a",
          "type": "uint256[2]"
        },
        {
          "internalType": "uint256[2][2]",
          "name": "b",
          "type": "uint256[2][2]"
        },
        {
          "internalType": "uint256[2]",
          "name": "c",
          "type": "uint256[2]"
        },
        {
          "internalType": "uint256[]",
          "name": "input",
          "type": "uint256[]"
        }
      ],
      "name": "solveProblem",
      "outputs": [],
      "stateMutability": "nonpayable",
      "type": "function"
    },
    {
      "inputs": [
        {
          "internalType": "address",
          "name": "newOwner",
          "type": "address"
        }
      ],
      "name": "transferOwnership",
      "outputs": [],
      "stateMutability": "nonpayable",
      "type": "function"
    },
    {
      "inputs": [
        {
          "internalType": "address payable",
          "name": "problems_",
          "type": "address"
        }
      ],
      "name": "updateProblemsAddress",
      "outputs": [],
      "stateMutability": "nonpayable",
      "type": "function"
    }
  ],
  "bytecode": "0x6080346100a757601f612a6838819003918201601f19168301916001600160401b038311848410176100ac578084926020946040528339810103126100a757516001600160a01b0390818116908190036100a75760005460018060a01b0319903382821617600055604051933391167f8be0079c531659141344cd1fd0a4f28419497f9722a3daafe3b4186f6b6457e0600086a360015416176001556129a590816100c38239f35b600080fd5b634e487b7160e01b600052604160045260246000fdfe60806040526004361015610054575b3461004f5760405162461bcd60e51b81526020600482015260146024820152733737903330b6363130b1b590333ab731ba34b7b760611b6044820152606490fd5b600080fd5b60003560e01c8063087c32e6146124e5578063130e5a87146115c75780631db3b6dd146115aa578063313ce567146115875780634768d4ef1461153f5780634e26b0cd1461150e578063715018a6146114af5780638da5cb5b146114865780639512ada214611361578063ab85f1f4146101d0578063f2fde38b146101065763f9df988f0361000e573461004f57600036600319011261004f576001546040516001600160a01b039091168152602090f35b3461004f57602036600319011261004f576004356001600160a01b038181169182900361004f57610135612722565b811561017c57600080546001600160a01b031981168417825560405191939192167f8be0079c531659141344cd1fd0a4f28419497f9722a3daafe3b4186f6b6457e08484a3f35b60405162461bcd60e51b815260206004820152602660248201527f4f776e61626c653a206e6577206f776e657220697320746865207a65726f206160448201526564647265737360d01b6064820152608490fd5b3461004f5761016036600319011261004f57366063121561004f576040516101f7816125a4565b3660841161004f576044905b60848210611351573660a3121561004f57604051610220816125a4565b366101041161004f576084905b61010482106113375736610123121561004f5760405161024c816125a4565b366101441161004f57610104905b610144821061132757610144356001600160401b03811161004f576102839036906004016126c4565b6001546040516331a9108f60e11b815260048035908201526001600160a01b039091169190602081602481865afa8015610846576102d491600091611308575b506001600160a01b0316331461281f565b6040516375d279b360e11b815260048035908201529160c083602481845afa8015610846576000916000926000956000936112b2575b5061127c57604051635c9302c960e01b8152602081600481855afa8015610846578491600091611247575b50036111f05761034c6103478661285b565b612871565b600119811161086157600119600182011161086157600519600282011161086157600519600782011161086157600c018451036111ab576040516343569ffb60e01b81528560048201526024356024820152602081604481855afa9081156108465760009161117c575b506001600160a01b031615611144576103ce8561285b565b80196005116108615760011960058201116108615733906001600160a01b03906103fb90600601876127ec565b51160361110e57600435600052600260205261041d60036040600020016128da565b6040519161042a83612529565b61043b61043688612887565b61285b565b801960051161086157600219600582011161086157600761045d9101876127ec565b51835261046c61043688612887565b801960051161086157600219600582011161086157600119600782011161086157600861049a9101876127ec565b5160208401526104ac61043688612887565b80196005116108615760021960058201116108615760021960078201116108615760096104da9101876127ec565b5160408401526104ec61043688612887565b801960051161086157600219600582011161086157600319600782011161086157600a61051a9101876127ec565b51606084015261052c61043688612887565b801960051161086157600219600582011161086157600419600782011161086157600b61055a9101876127ec565b5180608085015280610fca575b5050505060405161057781612529565b61058084612789565b51815261058c846127ac565b51602082015261059b846127bc565b5160408201526105aa846127cc565b5160608201526105b9846127dc565b51608082015260043560005260026020526003604060002001906000905b60058210610fb4575050506105eb8461285b565b80196005116108615761060190600501846127ec565b5160028503610f4b575b600435600052600260205260406000209161065160036040519461062e8661255a565b60ff815416151586526001810154602087015260028101546040870152016128da565b60608401908152835115610edd575b50610670610679926040926128ce565b9201518261291f565b926105dc8411610ea4576001546040516310211ca160e21b81526004803590820152926001600160a01b039091169061014084602481855afa93841561084657600094610e29575b50813b1561004f576000916044839260405194859384926304b24e8560e01b8452600435600485015260248401525af1801561084657610e1a575b50600091600061010060405161071181612588565b8281528260208201528260408201528260608201528260808201528260a08201528260c08201528260e0820152015260005b868110610877575050506001841061086157600019840114610762575b005b6001546001600160a01b0316803b1561004f5760008091604460405180948193635226dc9360e01b835260043560048401528860248401525af1801561084657610852575b506001546001600160a01b0316803b1561004f576000809160246040518094819363366cf14f60e11b835260043560048401525af1801561084657610837575b506004356000526002602052610800604060002061293b565b6040519182526020820152600435907f891b61a0d1978051cf0de05fd51588673823fb075284f28fbe7390ba4f3de04760403392a4005b61084090612575565b836107e7565b6040513d6000823e3d90fd5b61085b90612575565b836107a7565b634e487b7160e01b600052601160045260246000fd5b6001546001600160a01b031661088d828461292a565b516040519063618faeb560e11b82526004356004830152602482015261012081604481855afa90811561084657600091610d84575b5060608101516108d18a61289e565b8019600511610861576108f0906108e78661285b565b906005016128ce565b60021981116108615760026109069101876127ec565b5103610d4a576109158361285b565b80196005116108615761092b90600501866127ec565b516060820152608081015161093f8a61289e565b801960051161086157610955906108e78661285b565b60011981116108615760021960018201116108615760036109779101876127ec565b5103610d10576109868361285b565b80196005116108615760011960058201116108615760066109a89101866127ec565b51608082015260a08101516109bc8a61289e565b8019600511610861576109d2906108e78661285b565b60021981116108615760021960028201116108615760046109f49101876127ec565b5103610cd857610a038361285b565b8019600511610861576002196005820111610861576007610a259101866127ec565b5160a082015260c0810151610a398a61289e565b801960051161086157610a4f906108e78661285b565b6003198111610861576002196003820111610861576005610a719101876127ec565b5103610ca057610a808361285b565b8019600511610861576003196005820111610861576008610aa29101866127ec565b5160c082015260e0810151610ab68a61289e565b801960051161086157610acc906108e78661285b565b6004198111610861576002196004820111610861576006610aee9101876127ec565b5103610c6a57610afd8361285b565b8019600511610861576004196005820111610861576009610b1f9101866127ec565b518060e08301528315610c0e575b50610b38838561292a565b51823b1561004f576000926101648492604051958693849263e9d903b160e01b845260043560048501526024840152865160448401526020870151606484015260408701516084840152606087015160a4840152608087015160c484015260a087015160e484015260c087015161010484015260e08701516101248401526101008701516101448401525af19182156108465760e092610bff575b50015115610bea575b610be59061277a565b610743565b92610bf7610be59161277a565b939050610bdc565b610c0890612575565b89610bd3565b15610c195789610b2d565b60405162461bcd60e51b8152602060048201526024808201527f596f752073686f742074686520626f647920796f752073686f756c642070726f6044820152631d1958dd60e21b6064820152608490fd5b60405162461bcd60e51b815260206004820152600e60248201526d496e76616c69642072616469757360901b6044820152606490fd5b60405162461bcd60e51b815260206004820152601060248201526f496e76616c696420766563746f72207960801b6044820152606490fd5b60405162461bcd60e51b815260206004820152601060248201526f092dcecc2d8d2c840eccac6e8dee440f60831b6044820152606490fd5b60405162461bcd60e51b8152602060048201526012602482015271496e76616c696420706f736974696f6e207960701b6044820152606490fd5b60405162461bcd60e51b8152602060048201526012602482015271092dcecc2d8d2c840e0dee6d2e8d2dedc40f60731b6044820152606490fd5b9050610120813d61012011610e12575b81610da261012093836125db565b8101031261004f5761010060405191610dba83612588565b805183526020810151602084015260408101516040840152606081015160608401526080810151608084015260a081015160a084015260c081015160c084015260e081015160e08401520151610100820152896108c2565b3d9150610d94565b610e2390612575565b856106fc565b9093506101403d61014011610e9d575b610e4381836125db565b8101906101408183031261004f5781601f8201121561004f5760405191610e69836125bf565b829061014083011161004f5781905b61014083018210610e8d5750505092876106c1565b8151815260209182019101610e78565b503d610e39565b60405162461bcd60e51b815260206004820152601160248201527013585e081d1a58dac8195e18d959591959607a1b6044820152606490fd5b60018452816040850152600435600052600260205260036040600020918551151560ff801985541691161783556020860151600184015560408601516002840155519101906000905b60058210610f35575050610660565b6001602082829351865501930191019091610f26565b60038503610f59575b61060b565b600485031561060b576005850315610f54576006850315610f545760405162461bcd60e51b8152602060048201526018602482015277496e76616c6964206e756d626572206f6620626f6469657360401b6044820152606490fd5b60016020828293518655019301910190916105d7565b825190845180921493846110fb575b846110e8575b846110d5575b846110c7575b505015928361105a575b50508115611052575b501561100d5784808080610567565b60405162461bcd60e51b815260206004820152601760248201527f496e76616c696420696e666c696768744d697373696c650000000000000000006044820152606490fd5b905085610ffe565b60209081015160405163f81c8ec360e01b815293945091839060049082905afa91821561084657600092611093575b5014908680610ff5565b9091506020813d6020116110bf575b816110af602093836125db565b8101031261004f57519087611089565b3d91506110a2565b608001511492508880610feb565b9350606084015160608601511493610fe5565b9350604084015160408601511493610fdf565b9350602084015160208601511493610fd9565b60405162461bcd60e51b815260206004820152600e60248201526d24b73b30b634b21039b7b63b32b960911b6044820152606490fd5b60405162461bcd60e51b815260206004820152601060248201526f24b73b30b634b2103b32b934b334b2b960811b6044820152606490fd5b61119e915060203d6020116111a4575b61119681836125db565b810190612800565b866103b6565b503d61118c565b60405162461bcd60e51b815260206004820152601a60248201527f496e76616c69642070726f6f6620696e707574206c656e6774680000000000006044820152606490fd5b60405162461bcd60e51b815260206004820152602960248201527f4e6f206c6f6e67657220616363657074696e67207375626d697373696f6e7320604482015268666f7220746f64617960b81b6064820152608490fd5b9150506020813d602011611274575b81611263602093836125db565b8101031261004f5783905187610335565b3d9150611256565b60405162461bcd60e51b815260206004820152600e60248201526d105b1c9958591e481cdbdb1d995960921b6044820152606490fd5b93505093505060c0813d60c011611300575b816112d160c093836125db565b8101031261004f57805192831515840361004f5760408201519060a0606084015193015194919294918661030a565b3d91506112c4565b611321915060203d6020116111a45761119681836125db565b846102c3565b813581526020918201910161025a565b60206040916113463685612613565b81520191019061022d565b8135815260209182019101610203565b3461004f5760208060031936011261004f576001546040516331a9108f60e11b8152600480359082018190526001600160a01b0392831693929091908382602481885afa8015610846576113c092600091611469575b5016331461281f565b806000526002825260ff604060002054161561142c57823b1561004f576000809360246040518096819363366cf14f60e11b83528660048401525af19283156108465760029361141d575b5060005252610760604060002061293b565b61142690612575565b8361140b565b60405162461bcd60e51b81526004810183905260156024820152744d61746368206e6f7420696e2070726f677265737360581b6044820152606490fd5b6114809150853d87116111a45761119681836125db565b866113b7565b3461004f57600036600319011261004f576000546040516001600160a01b039091168152602090f35b3461004f57600036600319011261004f576114c8612722565b600080546001600160a01b0319811682556040519082906001600160a01b03167f8be0079c531659141344cd1fd0a4f28419497f9722a3daafe3b4186f6b6457e08284a3f35b3461004f57602036600319011261004f576004356000526002602052602060ff604060002054166040519015158152f35b3461004f57602036600319011261004f5760043560005260026020526060604060002060ff815416906002600182015491015490604051921515835260208301526040820152f35b3461004f57600036600319011261004f576020604051670de0b6b3a76400008152f35b3461004f57600036600319011261004f5760206040516105dc8152f35b3461004f5760c036600319011261004f576044356001600160401b03811161004f576115f7903690600401612658565b6001600160401b036064351161004f5736602360643501121561004f576064356004013590611625826125fc565b9161163360405193846125db565b80835260208301903660248260071b60643501011161004f57602460643501915b60248260071b60643501018310612489575050506084356001600160401b03811161004f57611687903690600401612658565b6001600160401b0360a4351161004f5736602360a43501121561004f5760a435600401356116b4816125fc565b906116c260405192836125db565b80825260208201903660248260051b60a43501011161004f57602460a43501915b60248260051b60a435010183106124565750505060005b81518110156107605761170d81856127ec565b5061171881866127ec565b5061172381846127ec565b5061172e81836127ec565b516001546040516331a9108f60e11b815260048035908201526001600160a01b03909116929190602081602481875afa8015610846576117809160009161243757506001600160a01b0316331461281f565b6040516375d279b360e11b815260048035908201529060c082602481875afa8015610846576000946000956000946000936123e1575b5061127c57604051635c9302c960e01b8152602081600481855afa80156108465787916000916123ac575b50036111f0576117f36103478561285b565b600119811161086157600119600182011161086157600519600282011161086157600519600782011161086157600c018351036111ab576040516343569ffb60e01b81528460048201526024356024820152602081604481855afa9081156108465760009161238d575b506001600160a01b031615611144576118758461285b565b80196005116108615760011960058201116108615733906001600160a01b03906118a290600601866127ec565b51160361110e5760043560005260026020526118c460036040600020016128da565b604051916118d183612529565b6118dd61043687612887565b80196005116108615760021960058201116108615760076118ff9101866127ec565b51835261190e61043687612887565b801960051161086157600219600582011161086157600119600782011161086157600861193c9101866127ec565b51602084015261194e61043687612887565b801960051161086157600219600582011161086157600219600782011161086157600961197c9101866127ec565b51604084015261198e61043687612887565b801960051161086157600219600582011161086157600319600782011161086157600a6119bc9101866127ec565b5160608401526119ce61043687612887565b801960051161086157600219600582011161086157600419600782011161086157600b6119fc9101866127ec565b518060808501528061228e575b50505050604051611a1981612529565b611a2283612789565b518152611a2e836127ac565b516020820152611a3d836127bc565b516040820152611a4c836127cc565b516060820152611a5b836127dc565b516080820152600435600052600260205260036040600020016000915b6005831061227857505050611a8c8361285b565b801960051161086157611aa290600501836127ec565b516002840361220f575b6004356000526002602052604060002091611acf60036040519461062e8661255a565b606084019081528351156121a2575b50610670611aee926040926128ce565b916105dc8311610ea4576001546040516310211ca160e21b81526004803590820152926001600160a01b039091169061014084602481855afa93841561084657600094612122575b50813b1561004f576000916044839260405194859384926304b24e8560e01b8452600435600485015260248401525af1801561084657612113575b506000916000610100604051611b8681612588565b8281528260208201528260408201528260608201528260808201528260a08201528260c08201528260e0820152015260005b858110611ce4575050506001831061086157600019830114611be6575b5050611be1915061277a565b6116fa565b6001546001600160a01b0316803b1561004f5760008091604460405180948193635226dc9360e01b835260043560048401528760248401525af1801561084657611cd5575b506001546001600160a01b031693843b1561004f576000809560246040518098819363366cf14f60e11b835260043560048401525af194851561084657611be195611cc6575b506004356000526002602052611c8a604060002061293b565b6040519182526020820152600435907f891b61a0d1978051cf0de05fd51588673823fb075284f28fbe7390ba4f3de04760403392a48680611bd5565b611ccf90612575565b89611c71565b611cde90612575565b88611c2b565b6001546001600160a01b0316611cfa828461292a565b516040519063618faeb560e11b82526004356004830152602482015261012081604481855afa9081156108465760009161207d575b506060810151611d3e8961289e565b801960051161086157611d54906108e78661285b565b6002198111610861576002611d6a9101876127ec565b5103610d4a57611d798361285b565b801960051161086157611d8f90600501866127ec565b5160608201526080810151611da38961289e565b801960051161086157611db9906108e78661285b565b6001198111610861576002196001820111610861576003611ddb9101876127ec565b5103610d1057611dea8361285b565b8019600511610861576001196005820111610861576006611e0c9101866127ec565b51608082015260a0810151611e208961289e565b801960051161086157611e36906108e78661285b565b6002198111610861576002196002820111610861576004611e589101876127ec565b5103610cd857611e678361285b565b8019600511610861576002196005820111610861576007611e899101866127ec565b5160a082015260c0810151611e9d8961289e565b801960051161086157611eb3906108e78661285b565b6003198111610861576002196003820111610861576005611ed59101876127ec565b5103610ca057611ee48361285b565b8019600511610861576003196005820111610861576008611f069101866127ec565b5160c082015260e0810151611f1a8961289e565b801960051161086157611f30906108e78661285b565b6004198111610861576002196004820111610861576006611f529101876127ec565b5103610c6a57611f618361285b565b8019600511610861576004196005820111610861576009611f839101866127ec565b518060e08301528315612072575b50611f9c838561292a565b51823b1561004f576000926101648492604051958693849263e9d903b160e01b845260043560048501526024840152865160448401526020870151606484015260408701516084840152606087015160a4840152608087015160c484015260a087015160e484015260c087015161010484015260e08701516101248401526101008701516101448401525af19182156108465760e092612063575b5001511561204e575b6120499061277a565b611bb8565b9261205b6120499161277a565b939050612040565b61206c90612575565b8e612037565b15610c19578e611f91565b9050610120813d6101201161210b575b8161209b61012093836125db565b8101031261004f57610100604051916120b383612588565b805183526020810151602084015260408101516040840152606081015160608401526080810151608084015260a081015160a084015260c081015160c084015260e081015160e084015201516101008201528e611d2f565b3d915061208d565b61211c90612575565b8a611b71565b909350610140903d6101401161219a575b61213d82826125db565b61014081838101031261004f57818101601f8201121561004f5760405191612164836125bf565b8290820161014083011161004f5781905b6101408301821061218a57505050928c611b36565b8151815260209182019101612175565b3d9150612133565b60018452816040850152600435600052600260205260036040600020918551151560ff8019855416911617835560208601516001840155604086015160028401555191016000915b600583106121f9575050611ade565b60016020828293518555019201920191906121ea565b6003840361221d575b611aac565b6004840315611aac5760058403156122185760068403156122185760405162461bcd60e51b8152602060048201526018602482015277496e76616c6964206e756d626572206f6620626f6469657360401b6044820152606490fd5b6001602082829351855501920192019190611a78565b8251908451809214938461237a575b84612367575b84612354575b84612346575b50501592836122d9575b505081156122d1575b501561100d5789808080611a09565b90508a6122c2565b60209081015160405163f81c8ec360e01b815293945091839060049082905afa91821561084657600092612312575b5014908b806122b9565b9091506020813d60201161233e575b8161232e602093836125db565b8101031261004f5751908c612308565b3d9150612321565b608001511492508d806122af565b93506060840151606086015114936122a9565b93506040840151604086015114936122a3565b935060208401516020860151149361229d565b6123a6915060203d6020116111a45761119681836125db565b8b61185d565b9150506020813d6020116123d9575b816123c8602093836125db565b8101031261004f578690518c6117e1565b3d91506123bb565b96505092505060c0843d60c01161242f575b8161240060c093836125db565b8101031261004f57835191821515830361004f5760408501519060a0606087015196015193919593918b6117b6565b3d91506123f3565b612450915060203d6020116111a45761119681836125db565b896102c3565b6001600160401b0383351161004f5760208060249261247c3685883560a43501016126c4565b81520193019290506116e3565b36601f8401121561004f576040516124a0816125a4565b8036608086011161004f5784905b6080860182106124cb575050815260809290920191602001611654565b60206040916124da3685612613565b8152019101906124ae565b3461004f57602036600319011261004f576004356001600160a01b0381169081900361004f57612513612722565b600180546001600160a01b031916919091179055005b60a081019081106001600160401b0382111761254457604052565b634e487b7160e01b600052604160045260246000fd5b608081019081106001600160401b0382111761254457604052565b6001600160401b03811161254457604052565b61012081019081106001600160401b0382111761254457604052565b604081019081106001600160401b0382111761254457604052565b61014081019081106001600160401b0382111761254457604052565b90601f801991011681019081106001600160401b0382111761254457604052565b6001600160401b0381116125445760051b60200190565b9080601f8301121561004f576040519161262c836125a4565b82906040810192831161004f57905b8282106126485750505090565b813581526020918201910161263b565b81601f8201121561004f5780359061266f826125fc565b9260409261267f845195866125db565b808552602091828087019260061b8501019381851161004f578301915b8483106126ac5750505050505090565b8386916126b98486612613565b81520192019161269c565b81601f8201121561004f578035916126db836125fc565b926126e960405194856125db565b808452602092838086019260051b82010192831161004f578301905b828210612713575050505090565b81358152908301908301612705565b6000546001600160a01b0316330361273657565b606460405162461bcd60e51b815260206004820152602060248201527f4f776e61626c653a2063616c6c6572206973206e6f7420746865206f776e65726044820152fd5b60001981146108615760010190565b8051156127965760200190565b634e487b7160e01b600052603260045260246000fd5b8051600110156127965760400190565b8051600210156127965760600190565b8051600310156127965760800190565b8051600410156127965760a00190565b80518210156127965760209160051b010190565b9081602091031261004f57516001600160a01b038116810361004f5790565b1561282657565b60405162461bcd60e51b815260206004820152600d60248201526c2737ba103a34329037bbb732b960991b6044820152606490fd5b8060001904600511811515166108615760050290565b8060001904600211811515166108615760011b90565b6001600160ff1b0381116001166108615760011b90565b7f333333333333333333333333333333333333333333333333333333333333333381116001166108615760050290565b81198111610861570190565b60405191906000835b600582106129095750505060a082018281106001600160401b0382111761254457604052565b60016020819285548152019301910190916128e3565b818110610861570390565b90600a8110156127965760051b0190565b600090818155600191808383015580600283015560036008830192015b8281106129655750505050565b818155830161295856fea26469706673582212208129c53c4200d1a2e9ed3913b330be6b0c4a0bb8c06dd5ed75b97a49c50f907264736f6c634300080f0033",
  "linkReferences": {},
  "deployedLinkReferences": {}
}