{
  "_format": "hh-sol-artifact-1",
  "contractName": "Groth16Verifier",
  "sourceName": "contracts/Game_6_100Verifier.sol",
  "abi": [
    {
      "inputs": [
        {
          "internalType": "uint256[2]",
          "name": "_pA",
          "type": "uint256[2]"
        },
        {
          "internalType": "uint256[2][2]",
          "name": "_pB",
          "type": "uint256[2][2]"
        },
        {
          "internalType": "uint256[2]",
          "name": "_pC",
          "type": "uint256[2]"
        },
        {
          "internalType": "uint256[72]",
          "name": "_pubSignals",
          "type": "uint256[72]"
        }
      ],
      "name": "verifyProof",
      "outputs": [
        {
          "internalType": "bool",
          "name": "",
          "type": "bool"
        }
      ],
      "stateMutability": "view",
      "type": "function"
    }
  ],
  "bytecode": "0x608080604052346100165761316e908161001c8239f35b600080fdfe6080604052600436101561001257600080fd5b6000803560e01c6311b535231461002857600080fd5b346103e857610a003660031901126103e857610043366103eb565b3660c4116103e457610054366103fd565b90610a043681116103e057916103dc916103d76020959461040060405261007d6101043561040b565b6100896101243561040b565b6100956101443561040b565b6100a16101643561040b565b6100ad6101843561040b565b6100b96101a43561040b565b6100c56101c43561040b565b6100d16101e43561040b565b6100dd6102043561040b565b6100e96102243561040b565b6100f56102443561040b565b6101016102643561040b565b61010d6102843561040b565b6101196102a43561040b565b6101256102c43561040b565b6101316102e43561040b565b61013d6103043561040b565b6101496103243561040b565b6101556103443561040b565b6101616103643561040b565b61016d6103843561040b565b6101796103a43561040b565b6101856103c43561040b565b6101916103e43561040b565b61019d6104043561040b565b6101a96104243561040b565b6101b56104443561040b565b6101c16104643561040b565b6101cd6104843561040b565b6101d96104a43561040b565b6101e56104c43561040b565b6101f16104e43561040b565b6101fd6105043561040b565b6102096105243561040b565b6102156105443561040b565b6102216105643561040b565b61022d6105843561040b565b6102396105a43561040b565b6102456105c43561040b565b6102516105e43561040b565b61025d6106043561040b565b6102696106243561040b565b6102756106443561040b565b6102816106643561040b565b61028d6106843561040b565b6102996106a43561040b565b6102a56106c43561040b565b6102b16106e43561040b565b6102bd6107043561040b565b6102c96107243561040b565b6102d56107443561040b565b6102e16107643561040b565b6102ed6107843561040b565b6102f96107a43561040b565b6103056107c43561040b565b6103116107e43561040b565b61031d6108043561040b565b6103296108243561040b565b6103356108443561040b565b6103416108643561040b565b61034d6108843561040b565b6103596108a43561040b565b6103656108c43561040b565b6103716108e43561040b565b61037d6109043561040b565b6103896109243561040b565b6103956109443561040b565b6103a16109643561040b565b6103ad6109843561040b565b6103b96109a43561040b565b6103c56109c43561040b565b6103d16109e43561040b565b3561040b565b612b09565b8152f35b8380fd5b5080fd5b80fd5b906004916044116103f857565b600080fd5b9060c491610104116103f857565b7f30644e72e131a029b85045b68181585d97816a916871ca8d3c208c16d87cfd47111561043457565b6000805260206000f35b604051907f28ca53468d3ec112351a0b7528cf5e0fa7b3697730b53f6b26281514ceb5f18782527f2d359bcb6c5ed0b9f93a2e1a30ca472b42c56e3fe8205830eff2c48c275aa2ca6020830152604082019081526107cf196040836060816007855a01fa156104345760409260066080939284938451905260a05160608401525a01fa1561043457565b604051907f0318d6682069fdb83c2858607d80f8ab6a80658805907b41ac86d07cbdaeb6fa82527f1261fd75c0fcc6d3b0934b1a15d223a8c584382fbc075ff7a8c986ffec2830a76020830152604082019081526107cf196040836060816007855a01fa156104345760409260066080939284938451905260a05160608401525a01fa1561043457565b604051907f05ba6639dc3238095bf558e0a90a038972382f30f48de9907012e8525ea9822e82527f23dc48069596736eb16f1e5c88143fa28129721fb1ab724eed7734095ed72ee96020830152604082019081526107cf196040836060816007855a01fa156104345760409260066080939284938451905260a05160608401525a01fa1561043457565b604051907f1825e67e152d2883f9901a7bace3e0b6fd9decb2b697e8bba24025601a4cdd9282527f2ef2a65e04cda717d0d8692736b27ffed3ebee712c181632daf2c1e42d3556996020830152604082019081526107cf196040836060816007855a01fa156104345760409260066080939284938451905260a05160608401525a01fa1561043457565b604051907f2eb893315fbc87c9228fe1e37aeeaf7ffd2d9fde008dcab18e0c916b18ea3cf882527f2f0155b23f6f0d657097ab9dce160a5f46084796ec166e09360ab5ac1f8e57f26020830152604082019081526107cf196040836060816007855a01fa156104345760409260066080939284938451905260a05160608401525a01fa1561043457565b604051907f0dfe3e886748ededf76170739efbd3736464d738fa50da4a7ac39c68fa61301782527f2b26eb7eb1307d535650b270a2facb7d888ac7d8ea39dc9f87ac3beee31095d56020830152604082019081526107cf196040836060816007855a01fa156104345760409260066080939284938451905260a05160608401525a01fa1561043457565b604051907e185e44704dc7ba7d0491199ef8911816d1fdf7275712a3920e17f9cf4634f082527f29d2473a6ba420ea19f037c88602470aa83be2dca71ea71f78a781c7eabde6266020830152604082019081526107cf196040836060816007855a01fa156104345760409260066080939284938451905260a05160608401525a01fa1561043457565b604051907e58c1f5b6115de970df686c51e731789b9cd13a893c50a47e9f6557ae2fe47082527f06c6cbaae7d4b8d16268118b97d732ee68609fdcc7d908c877ea1c4e2b3c74e26020830152604082019081526107cf196040836060816007855a01fa156104345760409260066080939284938451905260a05160608401525a01fa1561043457565b604051907f195d959fc88c9e01877447f2891c2f8004f4973a177ce2fed8b57e2d1a8dfacf82527f2a5a92eb550b5db97c91ff87178802e5c71fbc51bd235b6d896400abf50af19f6020830152604082019081526107cf196040836060816007855a01fa156104345760409260066080939284938451905260a05160608401525a01fa1561043457565b604051907f2a2ecf2969e496b773dd26c1c1a8d4a96df4c3dff47c778450e6b338322b990b82527f0be19cefa1da86b67d0c98ed6d794981c918604449198ab1a394836576f4d6f56020830152604082019081526107cf196040836060816007855a01fa156104345760409260066080939284938451905260a05160608401525a01fa1561043457565b604051907f0abf312b1309d88885345b3b3f7b4d68f723abe2dd7986cafd5cd4ac4f3991a382527f221556b3ae35c97f05740298a50f835bc4a3614ee5dd8149e4e483b4414783c96020830152604082019081526107cf196040836060816007855a01fa156104345760409260066080939284938451905260a05160608401525a01fa1561043457565b604051907f0d431f67f2dd137492c03a0a4c9fed795fb2dc39b00b2b977b138bd280b5cbfc82527f28ae850ec0a15a2a1229d0e87ef11a46d70240dfdf6f1b248f50feb140995b5f6020830152604082019081526107cf196040836060816007855a01fa156104345760409260066080939284938451905260a05160608401525a01fa1561043457565b604051907f20b838ff2e76face04102879fb91c5c6a784e7cd707ccc5034cecd3ff431ea3382527f2ab6085fb62d14fcc1c2b7a9fb6946ed7eafe031c6d59c808e319a0000ebe8436020830152604082019081526107cf196040836060816007855a01fa156104345760409260066080939284938451905260a05160608401525a01fa1561043457565b604051907f2145438bf8c70952823663ec38713358c3ca0436a616ee739681382bfbb3afa382527f22dea41abf0cbc6a10c84955d351abc40fc21d0649d2c1a1d16ff508fd6b105f6020830152604082019081526107cf196040836060816007855a01fa156104345760409260066080939284938451905260a05160608401525a01fa1561043457565b604051907f015375e5af33d1213d18e6e8876f3eb7d4ac31be612cac99e961859ccc3ba4a982527f23c57f15ba9c02922672ff8baf404965f1b0adc9bc317673a5663504822cfe036020830152604082019081526107cf196040836060816007855a01fa156104345760409260066080939284938451905260a05160608401525a01fa1561043457565b604051907f157c1b2484a14bc1cd1ceae79f21f070734d889679eae8d542e0e0dfc1c52a3582527f0d31c5e3ecbc83e819ce4db0e96bc0b1510799b8fefc5b70e29419cbd65a2c2e6020830152604082019081526107cf196040836060816007855a01fa156104345760409260066080939284938451905260a05160608401525a01fa1561043457565b604051907f1df24728497cbcee92ad9d03f74711a22c8733421f4c7e8b4791d15b73821c6f82527f15e1f65d4c1537cfabd145dddc66f39e7b7ef2dc090b4cc3617fda915fef763c6020830152604082019081526107cf196040836060816007855a01fa156104345760409260066080939284938451905260a05160608401525a01fa1561043457565b604051907f17627a3e08afc05c5c6ae183a15ad59b8e5b6572f5a8c4c7855a3dd34e5575e982527f05524c0a0c7fc36566528d6f48b020df04e67bf5351195ee0dc4bcab67c538aa6020830152604082019081526107cf196040836060816007855a01fa156104345760409260066080939284938451905260a05160608401525a01fa1561043457565b604051907f3012457f777f113b1815ae3791d9d92cd4a87332b411fdb5eab1fbf1011f7d7782527f225d87488b533390ce0bcecb1145e6e760dea6bbfad2e51075ff3d1fb0e2df306020830152604082019081526107cf196040836060816007855a01fa156104345760409260066080939284938451905260a05160608401525a01fa1561043457565b604051907f0321007c49d8acabec41d56b3a7c359fa0a509c160f146ebf8e91657193c4ed282527f240427e62082742a3e18f216d4eeaf678ba3d7ba670486184dc6f6222471d8d56020830152604082019081526107cf196040836060816007855a01fa156104345760409260066080939284938451905260a05160608401525a01fa1561043457565b604051907f25a3c7e4c19e95503dbf64a3129af4bd5f26db2405987a7f7c3224d129b37d2a82527f04ea2791925f8f9dfa0b606a095e43314a2932845413de87d41ceda41185480c6020830152604082019081526107cf196040836060816007855a01fa156104345760409260066080939284938451905260a05160608401525a01fa1561043457565b604051907e0b34ef45f8b7fb4bacebdf6245b05057e08e5a4e6a01d445f9df2104e8cabd82527f2b528d8b09f74bf168b11d15fc0d7318c98e3038a9c71130cd6e3504c8f4bab36020830152604082019081526107cf196040836060816007855a01fa156104345760409260066080939284938451905260a05160608401525a01fa1561043457565b604051907f2898686cbf23560d95d9e7859a671f1e4fba1b3a39e1187d576c6c9db461f6a682527f3063ab5f794f04cbeeeece6230e3f9de084590d784496f3c94b60ff60ef88b226020830152604082019081526107cf196040836060816007855a01fa156104345760409260066080939284938451905260a05160608401525a01fa1561043457565b604051907f06d9d20af8e024e37e91dfba89aef4263a7933e817b2c3d96460dca47a98d6bc82527f1597029e68bd5de8645cade4936f66ccd39cb605a152ea103c098df6d3b0d0646020830152604082019081526107cf196040836060816007855a01fa156104345760409260066080939284938451905260a05160608401525a01fa1561043457565b604051907f022b5b7504f007eddf4212510bd6618a9fac7e7007c276db8cbf5d1d8239a0c582527f238600b2e60657c2703b8d704720f6fb157997745bf58c6c92851bc512e1d2066020830152604082019081526107cf196040836060816007855a01fa156104345760409260066080939284938451905260a05160608401525a01fa1561043457565b604051907f129faaec464ef7553b3bee098273e24a4bbb8280231638d54a8ad2bb15772d6882527f184a5cfa73b3ef321a8c56da3c6ad92d992cecc5d23f09da3ebc37082286f5a86020830152604082019081526107cf196040836060816007855a01fa156104345760409260066080939284938451905260a05160608401525a01fa1561043457565b604051907f26957ad3f887b815dbf722fa533942f5a86b4b90f584f68db918ddec9a853c1d82527f2ec4198cda8df015f63628cb3d90be9aaea815913d03a80b2203d4fc3d71ff9a6020830152604082019081526107cf196040836060816007855a01fa156104345760409260066080939284938451905260a05160608401525a01fa1561043457565b604051907f06146e4cfbb29fc1f4b71ad4d6ad72aad1d537a9fd43bf5d42510a88fec29b8082527f1ce0a65575cb9520e9ab51a4979984aa88a3c9d5fb12c179cf0f38877058066c6020830152604082019081526107cf196040836060816007855a01fa156104345760409260066080939284938451905260a05160608401525a01fa1561043457565b604051907f1d196b9af9553da7bc11d4af41869196be9e87c4290ca4fd673ed0f1ba86621382527f088db7949a2e5c6a942fea20d3a5acfa1de7190a314d745f087f0edbd79686186020830152604082019081526107cf196040836060816007855a01fa156104345760409260066080939284938451905260a05160608401525a01fa1561043457565b604051907f27e77a2a3798640268ee36bf8cd8354f72289d41d7cb3dccd6a1123be80c6d0382527f1542f97ba083a7a937c546c519ccdcdea8829aa91aac4a614de7e7bb2356007a6020830152604082019081526107cf196040836060816007855a01fa156104345760409260066080939284938451905260a05160608401525a01fa1561043457565b604051907f0f52adf8a8d8f0f6369c39c9f97d39297772331afd17426259bdcfb168a35ab682527f12d3f16df04543092a9656d0f2a2a4272058f1fa465bc7928339a11a69228ab06020830152604082019081526107cf196040836060816007855a01fa156104345760409260066080939284938451905260a05160608401525a01fa1561043457565b604051907f2a356adb55d75ab8f0484a9beb5cdc1bea956bc432e5fcba90449cf50478ae6682527f01d683500221b85b0a8fbb8efa126a5c0a7bddb049ec5d83fb071f6dc9ab875f6020830152604082019081526107cf196040836060816007855a01fa156104345760409260066080939284938451905260a05160608401525a01fa1561043457565b604051907f0c2bfdc7edfa132829a9dc16f8539424b0eb30461f8b6dc52476c9ae02af4e1082527f16dee82b321c759de804b1f6958792e18192a153173c70e6bb8481f47653d89b6020830152604082019081526107cf196040836060816007855a01fa156104345760409260066080939284938451905260a05160608401525a01fa1561043457565b604051907f16eeff89027dff972039cbe09d74ee7a3b4dfd5dc9a5f0efb346c62c6cbe265082527f19322ebd4e9954d6d0d29e43cb241a90a829ba4cf47dba608631d794d7b6202f6020830152604082019081526107cf196040836060816007855a01fa156104345760409260066080939284938451905260a05160608401525a01fa1561043457565b604051907f2fb8671a6532bb7e9cb4277287f2252df87614c6a8950abf768b6acdfddfd1d482527f215a0dc08e792cf54f82f34719b773ed41d95ab5f40e9c309d49adc209c684ca6020830152604082019081526107cf196040836060816007855a01fa156104345760409260066080939284938451905260a05160608401525a01fa1561043457565b604051907f1fcf69157701c605697fc5f52de26faa44aae214dd29badc5e66b3ad07ccdcca82527f03e7c983921b3c0c859b06545529a6032a00230b603e16019fb76426e15d8c6d6020830152604082019081526107cf196040836060816007855a01fa156104345760409260066080939284938451905260a05160608401525a01fa1561043457565b604051907f042fffa43d2b8b4bf9b9f42125dd30c6fa9a5e71e429b74287fdc8da9fb6e51c82527f02bbf24b462288707b5ffdd62ea8b09e650bc1d863f189d298ecfd2bfaec8a2a6020830152604082019081526107cf196040836060816007855a01fa156104345760409260066080939284938451905260a05160608401525a01fa1561043457565b604051907f1a1f60be9db30f3d06f59b365663170f9ae85eaa974c96383d495a95e62fa2e382527f147db5de8de955e1e17f62cae2bef0d901d013627655e7e2f88e584f3a64031c6020830152604082019081526107cf196040836060816007855a01fa156104345760409260066080939284938451905260a05160608401525a01fa1561043457565b604051907f0965cc0305f8e352590e0d8e6960cdb8461126a44cfa8a118693c262be70c68082527f2f81c328d27b8364b71711b96cbe2664061f3742ba24f322d37d97a81ab5105f6020830152604082019081526107cf196040836060816007855a01fa156104345760409260066080939284938451905260a05160608401525a01fa1561043457565b604051907e3debc15be8212bdad2143bf09c0b16031d3be9bc61a3b36bcbffb45d9351c482527f20b2e949cf3cc0278dc81a3e026dbe14db28cb63f6c0267425579397b31ab7a46020830152604082019081526107cf196040836060816007855a01fa156104345760409260066080939284938451905260a05160608401525a01fa1561043457565b604051907f01b9c9a92aa5566efd4403a9b412065cde7961d2b0c22db5ac96e42d87f59e5a82527f14bc4997e6499cfa49142f19360a39ee870c1dd11bcae527d581643d1db85f496020830152604082019081526107cf196040836060816007855a01fa156104345760409260066080939284938451905260a05160608401525a01fa1561043457565b604051907f0d59aaab2798844e27d3046ddaa52b3b693cbce4309439515a8ee5587b95931c82527f1d510847e45774e269ceb42c5ec8982c3fc32e13d0fb7de3633116edf5bdef956020830152604082019081526107cf196040836060816007855a01fa156104345760409260066080939284938451905260a05160608401525a01fa1561043457565b604051907f19e5da7f3f4e62a756b19cbfc1673707d374d090eea6b7e3e8b95b0d5b8e368a82527f17eb238a545ff1a79b3529b86080d156d4fd797db838ca820915ce0e88e4bb446020830152604082019081526107cf196040836060816007855a01fa156104345760409260066080939284938451905260a05160608401525a01fa1561043457565b604051907f1849b583f69ae0c6a4acb0352cb38794295e4184fbb84cbbeaf4a2903e837b8c82527f02c9236c3a8488654891b9161de88bbc6e6e6da52e131d209d472fdf38b9d0526020830152604082019081526107cf196040836060816007855a01fa156104345760409260066080939284938451905260a05160608401525a01fa1561043457565b604051907f2df767c5085721010e2d69674db3a690a0a7aa47f39010b0b4a92228f1dee27082527f276a6d9beff9a7a99ee9332968af4d772e90b7a89323ff6712d7e2495bc66f086020830152604082019081526107cf196040836060816007855a01fa156104345760409260066080939284938451905260a05160608401525a01fa1561043457565b604051907f273783f2eba9969b61afd06b498d8f86887fdd6cabe093c80af0719cd70fbb8f82527f063e12db4a05cb6093a9a4283f5ab645a8b3e85275daba78ee85e76a64aecc436020830152604082019081526107cf196040836060816007855a01fa156104345760409260066080939284938451905260a05160608401525a01fa1561043457565b604051907f1b1b3eb1d884e84a5bad4efc46babfff520d6fbc3e7c7f2e8e84d1a03c810ed382527f11479889def64d75ae01231be43f3b64991fd19de43a1dfc92be8ca2d5d895776020830152604082019081526107cf196040836060816007855a01fa156104345760409260066080939284938451905260a05160608401525a01fa1561043457565b604051907f034a8e95b57adeed5437e98975e4a6bef385fd751e2ecec73b4bbc370aa149ca82527f0d55629459b77068433711ed0ded8fcf228fa2cedab6b446438b2177b5a5e4ba6020830152604082019081526107cf196040836060816007855a01fa156104345760409260066080939284938451905260a05160608401525a01fa1561043457565b604051907f2eb48676c4a8baf91782c85d960949ee88554b53afeb3b5247d81590636ff97e82527f053ec7133750411af9ac126ec7d8897d2bef6150812630e58e4f2428492ccf7a6020830152604082019081526107cf196040836060816007855a01fa156104345760409260066080939284938451905260a05160608401525a01fa1561043457565b604051907f2b12d07a285cc849bd136ad3b79450f3afc4946b4911d2990bb42065e97d20c282527f1cc154e323ada695bd0f7e1dc0e4866618fa72e42cabe455173bfd838225865a6020830152604082019081526107cf196040836060816007855a01fa156104345760409260066080939284938451905260a05160608401525a01fa1561043457565b604051907f23fdebdbe35d9588e27985880f07c91d2e485209ed91cd68862af426cab9553582527f119fc3586622f82517197bba392d5ab7d4a3e5f502ffc72b44cd89e611ec3c596020830152604082019081526107cf196040836060816007855a01fa156104345760409260066080939284938451905260a05160608401525a01fa1561043457565b604051907f0802870321e6cbe239d50de6a18fc646fe6445af8538050c54996ad0d2c1a30382527f1d7aba983c19cc68e75df1d21d15807e98f1598739309de487cfd3364f1a63776020830152604082019081526107cf196040836060816007855a01fa156104345760409260066080939284938451905260a05160608401525a01fa1561043457565b604051907f016d87ac10196d05d11c05b857549ace0ce3b62d86243d186564ee0e63ec27b282527f13f75fc4e83359d67e3713693d1d6b8b2084e91625d1c6cd7fb983a3624309606020830152604082019081526107cf196040836060816007855a01fa156104345760409260066080939284938451905260a05160608401525a01fa1561043457565b604051907f138e85f1562f49d57a5cbdc259ee391293c32d38de243cd5f71dca37baee451182527f06ecd77bd6c540d135fcf3782e1828561ae14ef1b708ba28b5bcb826497c03526020830152604082019081526107cf196040836060816007855a01fa156104345760409260066080939284938451905260a05160608401525a01fa1561043457565b604051907f1ca1a66760d94a9bbfeaeb50c0ca7dd6e6ca96edd86822d6ee65abe0dba8b13382527f0aeaca86164dba305518a9efa22a21d9a9d2d6cc2c537c550675fa94075014906020830152604082019081526107cf196040836060816007855a01fa156104345760409260066080939284938451905260a05160608401525a01fa1561043457565b604051907f138284ff24e9ea50d1cc065b453c7838a6d4c8a1eb1aec9ffe6bd9205eec4bf782527f2d618ee6b62bfbb6f7129e84f181741c0256de34e98f1a33f97d3c3dc6a66b6c6020830152604082019081526107cf196040836060816007855a01fa156104345760409260066080939284938451905260a05160608401525a01fa1561043457565b604051907f254c59e1f0ab7cedfbd0fd73aca186680e85738709c624f2421ddf958a21ec4782527f1b5bbea97f988727cbe6310e18812729d134e42ae0cd53ba2c4b5385c265a1386020830152604082019081526107cf196040836060816007855a01fa156104345760409260066080939284938451905260a05160608401525a01fa1561043457565b604051907f1841f2c43a76749b7222d822664aa21975070612ec837eea3de28fbe2e596ee882527f183d98d76d1908807c65b22257fa6f7d0b94a4f4fbf64037a1740bc57889eb946020830152604082019081526107cf196040836060816007855a01fa156104345760409260066080939284938451905260a05160608401525a01fa1561043457565b604051907f2b0df0e2b1ee4ad7947761ad2d3094c164f14965a402ddf7b8f887bd452cc79782527f1eb80c5ad20ac7007d49cf1e6cb09d9233c3fad7e37ecc1ab33dc7b40b6f74596020830152604082019081526107cf196040836060816007855a01fa156104345760409260066080939284938451905260a05160608401525a01fa1561043457565b604051907f2c695b8859ca39c415b86c341223c044bce475ea078cb99a76da70e76a0b364d82527f01b91c9c886ace2c1a2e79729cd72165933b54d66182f5efa0e619b429d2ceb36020830152604082019081526107cf196040836060816007855a01fa156104345760409260066080939284938451905260a05160608401525a01fa1561043457565b604051907f10a09bf4aaf622cd7bebf1d946b180c510822c22841ab87ea810b3a441c692ba82527f11e62e8c004c696e16cafd80b0ec7c7a5cf5acee005e305c5547be4c9e0c0e0a6020830152604082019081526107cf196040836060816007855a01fa156104345760409260066080939284938451905260a05160608401525a01fa1561043457565b604051907f1f4f3c0fb2df430938716abdc2dd6a009a9b8a789941f22c8e93a7286cbd49d682527f230061e79c35f869723a2d162308e81ffef6df65a957641f5c60d27f3e122bcc6020830152604082019081526107cf196040836060816007855a01fa156104345760409260066080939284938451905260a05160608401525a01fa1561043457565b604051907f049f1467b0318ea276f59cd07d4f979e3894277222abf43116fd1f9674474a1282527f0ba051e7c180f5d705006a1962268293ef26c032dd09e332fdf0c46a71baddee6020830152604082019081526107cf196040836060816007855a01fa156104345760409260066080939284938451905260a05160608401525a01fa1561043457565b604051907f1f2f02e43824cb89759b89c9f9ff4316333bde33264a25e34c47539eba33364682527f0bb45a30b3a64ff9a62df398001e1c38e1d1812cb75d08fcb2c07daee6c97d5c6020830152604082019081526107cf196040836060816007855a01fa156104345760409260066080939284938451905260a05160608401525a01fa1561043457565b604051907f221a566f3c6549885310a64c68758002aace7bac88f80d471d9bb8a3d2e43c9482527f1c4bec2d22bb53880718ad3443f10d7ae01265368e5fb46be6f335d60e042fc26020830152604082019081526107cf196040836060816007855a01fa156104345760409260066080939284938451905260a05160608401525a01fa1561043457565b604051907f0bdf4a5938610f1532128cf23a62a8d257e1f81b602e944866a4729aeac6343682527f034038621d9371388f944361c5477c6f2f2d65b26d6a238b6b31ed7a8e73f8076020830152604082019081526107cf196040836060816007855a01fa156104345760409260066080939284938451905260a05160608401525a01fa1561043457565b604051907f01949efb2d8de8f604b8fc1372a1f1830b091509bda789896581286214018f3382527f1a4235f083c1b0f49aa5b871eba4df98331d7b1c1d57320082783ffdc69b72f86020830152604082019081526107cf196040836060816007855a01fa156104345760409260066080939284938451905260a05160608401525a01fa1561043457565b604051907f14a2174d513813d2a60d52e06bdad9b20c97bcc2f9b82c34bd15318afce4b0c282527f215f63fcaa5ed77bcb9fa310e8cc678b4f738dd895a345d60441eb196a75c4026020830152604082019081526107cf196040836060816007855a01fa156104345760409260066080939284938451905260a05160608401525a01fa1561043457565b604051907f23d1489b6d592bf0fb57f079ae07c5ae68d4e01e51716c91464442f964b9268182527f0683bb379322c46228fbf7e552c8c0cb42b5aedcbe3b2a066bf9b8f243fede2b6020830152604082019081526107cf196040836060816007855a01fa156104345760409260066080939284938451905260a05160608401525a01fa1561043457565b604051907f18a532a7e24788e97411a3ca378f0c2c889fdaaefe550440a8bf6688694c684382527f1ac6b7d3d478c86ee9e2a2cfea476a696e93baf48058d456b02f8b4ac6da1abc6020830152604082019081526107cf196040836060816007855a01fa156104345760409260066080939284938451905260a05160608401525a01fa1561043457565b604051907f1c407da54bdfba0e2ac2ecf8f5a9c77ddd3c82e90fb759a23b3ceb7ed1e580ad82527e3bbc3d966e26f631ff462124a6592f653bca03eb619a1b087a18127abc30e26020830152604082019081526107cf196040836060816007855a01fa156104345760409260066080939284938451905260a05160608401525a01fa1561043457565b604051907f10c559f9dfcfd69cd20c3fab0ef02f330ab3d855789f4b093b51e4620455204982527f1e1b369b5a7c730c189c66711ed6feebfe20af2c8748234c55041a42fa86c6f96020830152604082019081526107cf196040836060816007855a01fa156104345760409260066080939284938451905260a05160608401525a01fa1561043457565b6020907f1e47e2fb58e346a4bbd488ae6517164d7639524d56739af85bdd6b94df7adbec6080527f2dbc38e005b913e4d3a0f0539fe2352e9643e7df12f4a4019263e9b7202bd3cf60a052612b606101043561043e565b612b6c610124356104c8565b612b7861014435610552565b612b84610164356105dc565b612b9061018435610666565b612b9c6101a4356106f0565b612ba86101c43561077a565b612bb46101e435610803565b612bc06102043561088c565b612bcc61022435610916565b612bd8610244356109a0565b612be461026435610a2a565b612bf061028435610ab4565b612bfc6102a435610b3e565b612c086102c435610bc8565b612c146102e435610c52565b612c2061030435610cdc565b612c2c61032435610d66565b612c3861034435610df0565b612c4461036435610e7a565b612c5061038435610f04565b612c5c6103a435610f8e565b612c686103c435611017565b612c746103e4356110a1565b612c806104043561112b565b612c8c610424356111b5565b612c986104443561123f565b612ca4610464356112c9565b612cb061048435611353565b612cbc6104a4356113dd565b612cc86104c435611467565b612cd46104e4356114f1565b612ce06105043561157b565b612cec61052435611605565b612cf86105443561168f565b612d0461056435611719565b612d10610584356117a3565b612d1c6105a43561182d565b612d286105c4356118b7565b612d346105e435611941565b612d40610604356119ca565b612d4c61062435611a54565b612d5861064435611ade565b612d6461066435611b68565b612d7061068435611bf2565b612d7c6106a435611c7c565b612d886106c435611d06565b612d946106e435611d90565b612da061070435611e1a565b612dac61072435611ea4565b612db861074435611f2e565b612dc461076435611fb8565b612dd061078435612042565b612ddc6107a4356120cc565b612de86107c435612156565b612df46107e4356121e0565b612e006108043561226a565b612e0c610824356122f4565b612e186108443561237e565b612e2461086435612408565b612e3061088435612492565b612e3c6108a43561251c565b612e486108c4356125a6565b612e546108e435612630565b612e60610904356126ba565b612e6c61092435612744565b612e78610944356127ce565b612e8461096435612858565b612e90610984356128e2565b612e9c6109a43561296c565b612ea86109c4356129f6565b612eb46109e435612a7f565b61010092818492358352837f30644e72e131a029b85045b68181585d97816a916871ca8d3c208c16d87cfd479101358103066101205260443561014052606435610160526084356101805260a4356101a0527f2d4d9aa7e302d9df41749d5507949d05dbea33fbb16c643b22f599a2be6df2e26101c0527f14bedd503c37ceb061d8ec60209fe345ce89830a19230301f076caff004d19266101e0527f0967032fcbf776d1afc985f88877f182d38480a653f2decaa9794cbc3bf3060c610200527f0e187847ad4c798374d0d6732bf501847dd68bc0e071241e0213bc7fc13db7ab610220527f304cfbd1e08a704a99f5e847d93f8c3caafddec46b7a0d379da69a4d112346a7610240527f1739c1b1a457a8c7313123d24d2f9192f896b7c63eea05a9d57f06547ad0cec8610260526080516102805260a0516102a0527f198e9393920d483a7260bfb731fb5d25f1aa493335a9e71297e485b7aef312c26102c0527f1800deef121f1e76426a00665e5c4479674322d4f75edadd46debd5cd992f6ed6102e05282610300917f090689d0585ff075ec9e99ad690c3395bc4b313370b38ef355acdadcd122975b83527f12c85ea5db8c6deb4aab71808dcb408fe3d1e7690c43d37b4ce6cc0166fa7daa610320528035610340520135610360527f0f1789d4251b0900b8a1d5dcedc1447f066bf280923c9eec817941b4b0b80c5d610380527f1e42da86514ac4a5b7f6066f4c6e1385ec47558dd3e561e4fe1a28d7de771ebf6103a0527e043883b29d4690320b3b443fe222d0244ec96fb7937abdcf957dea42c173d36103c0527f27d60dc5a62924fa9ddbc33ff4d0865e9b7290a06d4209d4047ba97e7709ced26103e0528160086107cf195a01fa9051169056fea2646970667358221220c99b89cf9311d7f46d1f13d593bb85bbdae5f133967ea60a3cda5525baf4d15564736f6c634300080f0033",
  "linkReferences": {},
  "deployedLinkReferences": {}
}