{
  "_format": "hh-sol-artifact-1",
  "contractName": "Groth16Verifier",
  "sourceName": "contracts/Game_7_100Verifier.sol",
  "abi": [
    {
      "inputs": [
        {
          "internalType": "uint256[2]",
          "name": "_pA",
          "type": "uint256[2]"
        },
        {
          "internalType": "uint256[2][2]",
          "name": "_pB",
          "type": "uint256[2][2]"
        },
        {
          "internalType": "uint256[2]",
          "name": "_pC",
          "type": "uint256[2]"
        },
        {
          "internalType": "uint256[82]",
          "name": "_pubSignals",
          "type": "uint256[82]"
        }
      ],
      "name": "verifyProof",
      "outputs": [
        {
          "internalType": "bool",
          "name": "",
          "type": "bool"
        }
      ],
      "stateMutability": "view",
      "type": "function"
    }
  ],
  "bytecode": "0x60808060405234610016576137c3908161001c8239f35b600080fdfe6080604052600436101561001257600080fd5b6000803560e01c631c02f62f1461002857600080fd5b3461046057610b403660031901126104605761004336610463565b3660c41161045c5761005436610475565b90610b4436811161045857916104549161044f6020959461040060405261007d61010435610483565b61008961012435610483565b61009561014435610483565b6100a161016435610483565b6100ad61018435610483565b6100b96101a435610483565b6100c56101c435610483565b6100d16101e435610483565b6100dd61020435610483565b6100e961022435610483565b6100f561024435610483565b61010161026435610483565b61010d61028435610483565b6101196102a435610483565b6101256102c435610483565b6101316102e435610483565b61013d61030435610483565b61014961032435610483565b61015561034435610483565b61016161036435610483565b61016d61038435610483565b6101796103a435610483565b6101856103c435610483565b6101916103e435610483565b61019d61040435610483565b6101a961042435610483565b6101b561044435610483565b6101c161046435610483565b6101cd61048435610483565b6101d96104a435610483565b6101e56104c435610483565b6101f16104e435610483565b6101fd61050435610483565b61020961052435610483565b61021561054435610483565b61022161056435610483565b61022d61058435610483565b6102396105a435610483565b6102456105c435610483565b6102516105e435610483565b61025d61060435610483565b61026961062435610483565b61027561064435610483565b61028161066435610483565b61028d61068435610483565b6102996106a435610483565b6102a56106c435610483565b6102b16106e435610483565b6102bd61070435610483565b6102c961072435610483565b6102d561074435610483565b6102e161076435610483565b6102ed61078435610483565b6102f96107a435610483565b6103056107c435610483565b6103116107e435610483565b61031d61080435610483565b61032961082435610483565b61033561084435610483565b61034161086435610483565b61034d61088435610483565b6103596108a435610483565b6103656108c435610483565b6103716108e435610483565b61037d61090435610483565b61038961092435610483565b61039561094435610483565b6103a161096435610483565b6103ad61098435610483565b6103b96109a435610483565b6103c56109c435610483565b6103d16109e435610483565b6103dd610a0435610483565b6103e9610a2435610483565b6103f5610a4435610483565b610401610a6435610483565b61040d610a8435610483565b610419610aa435610483565b610425610ac435610483565b610431610ae435610483565b61043d610b0435610483565b610449610b2435610483565b35610483565b6130e5565b8152f35b8380fd5b5080fd5b80fd5b9060049160441161047057565b600080fd5b9060c4916101041161047057565b7f30644e72e131a029b85045b68181585d97816a916871ca8d3c208c16d87cfd4711156104ac57565b6000805260206000f35b604051907f2669015563a11ef060bcb6447c5bafcdbae0639579c405a98d92a2223c66851d82527f281c828e85868cccc191e1c99a6dded8de58661d1bec578cd54d8ffdb1dc5be36020830152604082019081526107cf196040836060816007855a01fa156104ac5760409260066080939284938451905260a05160608401525a01fa156104ac57565b604051907f235015133718089efb1f94b8dc365e210dcbc1262eba76b01b6655bbb62743eb82527f04e43b8d54aae49c663ac5320cf3529f134fe3e377a051c195ceef89960274a96020830152604082019081526107cf196040836060816007855a01fa156104ac5760409260066080939284938451905260a05160608401525a01fa156104ac57565b604051907f2985fb9989d98db25136808d9b3d3c31f82b61306abd6c35511c6de902a2a5be82527f0a19578fc635f9e35f8ea2bf0a8eb9c44f86565f3f62cfb10c1ba6a3ab8b26306020830152604082019081526107cf196040836060816007855a01fa156104ac5760409260066080939284938451905260a05160608401525a01fa156104ac57565b604051907f2698519694b1e68bb330caf1d811b52da0667cef558955f8969a7b68e61c36dc82527f07ff629f69e459ff2a8666d211ba149543b145dd1ebd5b9ab807bb6d871aaa7e6020830152604082019081526107cf196040836060816007855a01fa156104ac5760409260066080939284938451905260a05160608401525a01fa156104ac57565b604051907f0e304b20cf229a93bbd79276711226f1fb4d0fed351824672a0dc4e38f09e30d82527f0c6deac122b526fe69a74f40d19d5eb7bcbee5299df59514827167f2590fd8936020830152604082019081526107cf196040836060816007855a01fa156104ac5760409260066080939284938451905260a05160608401525a01fa156104ac57565b604051907f2bb201d21d7a03e51a1d3255dad5de97e707623f1dd309174c8f8dcf9e6e267f82527f0f3e8a5bd208b47ec17b2067cc6a2dadd5317651022dff40e307589803a1581d6020830152604082019081526107cf196040836060816007855a01fa156104ac5760409260066080939284938451905260a05160608401525a01fa156104ac57565b604051907f02689444617f044256ec016bfdd4aa1f692ca7211471ed1a86adc4956600f0a982527ed08b84638a258b8f151fb1413ace04d4ca85f237197e563738baa663f9902f6020830152604082019081526107cf196040836060816007855a01fa156104ac5760409260066080939284938451905260a05160608401525a01fa156104ac57565b604051907f2d66a3bea8892cf8d10c70d4612b0c987108f88637325399a9ccf6f1431437da82527f1109f2543325f26782f1ae5ddfbdf4d7fad9739b5a5a0afb114ec664acc357216020830152604082019081526107cf196040836060816007855a01fa156104ac5760409260066080939284938451905260a05160608401525a01fa156104ac57565b604051907f13dda335b8bd5cf0478fd045bbf1260b5fe1512b6c4f3b698f5f75cb14d446c682527f2e7932caebfc4ca4a08fb14c3ee73b883ef71bfd3701cff3a0ac662afe9fc1a96020830152604082019081526107cf196040836060816007855a01fa156104ac5760409260066080939284938451905260a05160608401525a01fa156104ac57565b604051907f112b05f12359bd00377ec1068cc25627e62e0c89e6054cafb94a953850da0ad582527f2e20b5ccd283597bbe045e3850272530af270c4c4475e129c9c8f187b2a5f4f46020830152604082019081526107cf196040836060816007855a01fa156104ac5760409260066080939284938451905260a05160608401525a01fa156104ac57565b604051907f0ef899441dbfb9a927e53430b2c685b7d9949520b07a2be27b3452677c2ecaa782527f13c648bcdbf1933ac7f681e706f255346eccd8ff212bc2888a125cbbd5cf291f6020830152604082019081526107cf196040836060816007855a01fa156104ac5760409260066080939284938451905260a05160608401525a01fa156104ac57565b604051907f24e307943a86133fb23cf7266011c1fd6bc56a6ed70d96061b49c457238e0f5382527f149c57a7a0eaba48e544bc3a67253182657fc93bae70d67f3a29a8d50825f3336020830152604082019081526107cf196040836060816007855a01fa156104ac5760409260066080939284938451905260a05160608401525a01fa156104ac57565b604051907f01509be82da245906db3a02f9d18fb921b07b0df8620e6bc9301f6ea48cb90bb82527f12d99948c68e122c20308d6c16c7d25ed24769a6ac531bd1ea548a933b7eef696020830152604082019081526107cf196040836060816007855a01fa156104ac5760409260066080939284938451905260a05160608401525a01fa156104ac57565b604051907f19af9aa2f9147700a7c26df52f776c3b49af7cfa6e6b74354c0544101531cfd482527f1b2d446e0764294ec95a95ed5a30df823c37be0f7867aea455d712155cde7aba6020830152604082019081526107cf196040836060816007855a01fa156104ac5760409260066080939284938451905260a05160608401525a01fa156104ac57565b604051907f28fcbbe84f5e1557c2ca587a76c5c999e0ff26c61fb072204e4713fca5b8d74682527f250c28ae277dad1b9e7d4415f01579e42cbdccf5517634b49ee118773e2066d46020830152604082019081526107cf196040836060816007855a01fa156104ac5760409260066080939284938451905260a05160608401525a01fa156104ac57565b604051907f0a95294e2700650c3563c61ac15fe1125689d32764aa154c604625806a5fd03882527f12ea9755d22d508ef67ad7797b1805825039f5fca2dcfea943a306563f0e68a76020830152604082019081526107cf196040836060816007855a01fa156104ac5760409260066080939284938451905260a05160608401525a01fa156104ac57565b604051907f2fd3dda0cb75d14f7e738672886d7023bcdc2015b4db00beb2caebbeb4e285cf82527f2bfc13a397d282c10a450534ac5cbea6e692c5c7013e956840e476952e90d0826020830152604082019081526107cf196040836060816007855a01fa156104ac5760409260066080939284938451905260a05160608401525a01fa156104ac57565b604051907f1dde708e416a34afc51d7d87da0cf3b1e1f9b7d4cd8a0dec6143bf0cfa888e3582527f1453e73543ce8253f5cc4b51343bae14ff714aa53531f5e59553c503afae981e6020830152604082019081526107cf196040836060816007855a01fa156104ac5760409260066080939284938451905260a05160608401525a01fa156104ac57565b604051907f057219fe8b28e541f274b4fff5ee6de717699bba6ce0f1bec8a016d277ec81b582527f0bcfdcbb116b8995bd2891b33a384c05b0bf2504dd2f21aefea1e5d80f4ff4716020830152604082019081526107cf196040836060816007855a01fa156104ac5760409260066080939284938451905260a05160608401525a01fa156104ac57565b604051907f121df0575fafb296295adb0551d7293792c9da9e93c445f2eae63af672f64d4082527f0fd301b650c3bdeb004d048936110994d71b52248d50e25361bd2cc7ca0409656020830152604082019081526107cf196040836060816007855a01fa156104ac5760409260066080939284938451905260a05160608401525a01fa156104ac57565b604051907f2b8a18320020461ad2caca819aac029d9b1875e22d33f5dd3ac2bf6bf797bb3a82527f18ee5e4159823438eba3fcdccdcde97c3d12e036b74dadb031c4ca08b4c11dd76020830152604082019081526107cf196040836060816007855a01fa156104ac5760409260066080939284938451905260a05160608401525a01fa156104ac57565b604051907f1fac3a14c94037d80feefafec62f4ffcb7cc4eceaf9cc32f2ed694068ca1f6ee82527f29c06fd770faed30e57c6b6de60ba8b45404522ea37d80b2e394c9dc85dc688e6020830152604082019081526107cf196040836060816007855a01fa156104ac5760409260066080939284938451905260a05160608401525a01fa156104ac57565b604051907f2ae7860caa2814576009943f9b91a998492df65c2ad959830f5ac978b6a648ad82527f303f22b28fda0db247f4937b94db7bc4dea3f3ed49df5feb22506e10e151c5d86020830152604082019081526107cf196040836060816007855a01fa156104ac5760409260066080939284938451905260a05160608401525a01fa156104ac57565b604051907f0dd5330d01487a80421ee62a08100fda9cbba558f2a08ed3ba23e33355c2cc5882527f08b100951892bb4ef72ffb24886de7a42315f80c906bc96f1062eb530c6604ed6020830152604082019081526107cf196040836060816007855a01fa156104ac5760409260066080939284938451905260a05160608401525a01fa156104ac57565b604051907f17adc53e519c0b68547606c52e1d456f7be126c0178da6fe07d7537c4417fb1e82527f11828385982db2436b67d74d1b5d682179cc7b143398e50f3eaa823fed6863726020830152604082019081526107cf196040836060816007855a01fa156104ac5760409260066080939284938451905260a05160608401525a01fa156104ac57565b604051907f2f6e84d996c9930934b232ab0d35e3361e8aca5c4c0c3f8d4eb784d0cb91925182527f08ba44c248296997766aead5657c99e9721e68aeb7654a6a68a42f5f4e8632d36020830152604082019081526107cf196040836060816007855a01fa156104ac5760409260066080939284938451905260a05160608401525a01fa156104ac57565b604051907f2a3c87db445b94a8d5c477a9a3f1d5fd88f0f3495189194b27abc931ce775ebe82527f19bd855c48c586fc4d9add7516af1142ed86e853e68bd19e870d0935213a2c986020830152604082019081526107cf196040836060816007855a01fa156104ac5760409260066080939284938451905260a05160608401525a01fa156104ac57565b604051907f2b70518b34eab34f5014b3c185342890409d824c092ed938b7bc2351bc0f577882527f06c02cdea03788acc4bfc35c4a62c3de03656aea3b444e5e34a6303bc843c9286020830152604082019081526107cf196040836060816007855a01fa156104ac5760409260066080939284938451905260a05160608401525a01fa156104ac57565b604051907f25c95873185a18b5ce559cbdcce64da9d3060a15d6809cc73bdd5d7b972866e882527eda62c65727f3fa9bd4ccd4620136f44be6071e8175ce4bf2e4b343c47f38d76020830152604082019081526107cf196040836060816007855a01fa156104ac5760409260066080939284938451905260a05160608401525a01fa156104ac57565b604051907f05e3063ce8ec4881170bfcde25b9ea0966ba77f9535d47d5fd50bee45081f7f682527f19ff388ee4180ceae6bd63be4361ca471213737ca36bb3d85ff9db3e41ae0ca36020830152604082019081526107cf196040836060816007855a01fa156104ac5760409260066080939284938451905260a05160608401525a01fa156104ac57565b604051907f1802f74cf13f4360e3ffc15475f52a3aea853b2349103f2fe69e44bb91156b5482527f289338890462bd21d9e96fc336903fbddb2965a7f3d2152c059af2f7029a001f6020830152604082019081526107cf196040836060816007855a01fa156104ac5760409260066080939284938451905260a05160608401525a01fa156104ac57565b604051907f19c9f781882ff3fa71b3ed8c6323c75363f9a3863cc57fbf041bd60f0fca2eaa82527f091cb85746ca76218b5d4bc050f1afc07abb63e765ab51d44477599b30f86b856020830152604082019081526107cf196040836060816007855a01fa156104ac5760409260066080939284938451905260a05160608401525a01fa156104ac57565b604051907f12753bf9f4c6b8db7a9bf49f617b31c16b095516527de2e9134dd292f56dbe5b82527f14ad938a12507f5015c5a356346afe79398e03b970ab7d4864a10dc264eed1286020830152604082019081526107cf196040836060816007855a01fa156104ac5760409260066080939284938451905260a05160608401525a01fa156104ac57565b604051907f201a0aa1ae2a1a355464ebf384638734b49ff7fdca0bdaae8267ebb6fd59c4ca82527f293c1457f639b9a0f7a0fbe3152c0cc5f77eac3f0d1bfb3a7e7584269d37a63a6020830152604082019081526107cf196040836060816007855a01fa156104ac5760409260066080939284938451905260a05160608401525a01fa156104ac57565b604051907f11a46968c14a9293e63166b6c2780895729456fd0fa48cf3d5da48a85e23e23882527f01023307d0c16cb01f3e9ec4bfc4fb6aede90e39fe58d392967575f87e5ef7016020830152604082019081526107cf196040836060816007855a01fa156104ac5760409260066080939284938451905260a05160608401525a01fa156104ac57565b604051907f26102515f44fd184905e1ccd220525a56132c53dbb5c359607f5458184e06bf782527f0d534f5b4de98a046c61d2b4d6161643ae3381f2987e74a4c056e5e20e8cff336020830152604082019081526107cf196040836060816007855a01fa156104ac5760409260066080939284938451905260a05160608401525a01fa156104ac57565b604051907f1f069ad8de011fe74a0d885707cd77c17c539a4c2e249d4b94771b902b995f4282527f0f3aa178d39335e267d08a4102ca491ed79d76e108afbfc29265a017a1ef12206020830152604082019081526107cf196040836060816007855a01fa156104ac5760409260066080939284938451905260a05160608401525a01fa156104ac57565b604051907f16fa59c306e39bf1f9337bed64a6a6e7d26354de053319a060964437e602eb8782527f01431bffe8398e28ace50e5cf8364daac71c6d0307db2ae5e899bdf76f9663486020830152604082019081526107cf196040836060816007855a01fa156104ac5760409260066080939284938451905260a05160608401525a01fa156104ac57565b604051907f07efeb80a2f387ad62c1708aec54847a7763fa178953862503997dacabc932b482527f074082c6ce2ab65a2f9922933cf213db174db0b2cd44f95ee7192e6af09bbf6f6020830152604082019081526107cf196040836060816007855a01fa156104ac5760409260066080939284938451905260a05160608401525a01fa156104ac57565b604051907f12182a5d5f7b82c6996d38428b010ccee9e613258427552555da8edd192393b882527f2be2a0268733aeaf355822a27fba60882fa0cb6cb4b7329465633d545c47937f6020830152604082019081526107cf196040836060816007855a01fa156104ac5760409260066080939284938451905260a05160608401525a01fa156104ac57565b604051907f1366816738db6b34eba2e99594fe99692ccb662bab572033a77a684635e585ff82527f08c74ae5951b386aae1467f2d1c27a7024f21d3844843c57bcd470dbed9995ab6020830152604082019081526107cf196040836060816007855a01fa156104ac5760409260066080939284938451905260a05160608401525a01fa156104ac57565b604051907edaab49eaf006308507f860d1b9a2c0ba583a55839577a7b72246537e34dd6082527f2f34cb0b4f21a68197f01f5c0ff098f486ec5113f637c72cebafad0f3d3e68736020830152604082019081526107cf196040836060816007855a01fa156104ac5760409260066080939284938451905260a05160608401525a01fa156104ac57565b604051907f22db2c9a31349f5c1e609cc5790af0512dc578a18ff8f552c1ea6b4fe7b3369182527f2252c96c2d981d8675475db64c234fcfbf6be3c88901d2b87c74f0682f41553f6020830152604082019081526107cf196040836060816007855a01fa156104ac5760409260066080939284938451905260a05160608401525a01fa156104ac57565b604051907f076d22465c773f157678d100ec313e8c39234fac3ddc7f90f8486e53b98bf89982527f190b090efdaf029c40af8184f5c71a1913d144bbd3c5efc19e6b209e5c0132b56020830152604082019081526107cf196040836060816007855a01fa156104ac5760409260066080939284938451905260a05160608401525a01fa156104ac57565b604051907f03f2034f4db6f706e6442ee4846968d44b2370238035e053d6800eb85e5812aa82527f077b4bafb20206afaf0812854d7621c30980d9dbe0319a5097c59e8c319c77ff6020830152604082019081526107cf196040836060816007855a01fa156104ac5760409260066080939284938451905260a05160608401525a01fa156104ac57565b604051907f0eb4f62d4a3999c3e35ee5dbc3e33c8bcf76f2cd8839eb3843713b5eb300c8db82527f1f490cc8b1a6f6bd0507418e8c62e692c2f449a2a3d107e70410e0396cd1c1346020830152604082019081526107cf196040836060816007855a01fa156104ac5760409260066080939284938451905260a05160608401525a01fa156104ac57565b604051907f0607a61c2eea07319ee23e2270c81fd186995ad442a54ebb546ff79ddd307f3d82527f2812042fb63c32420362f5d6b99c03846d6cc2489a827dec7cca71d8b30639076020830152604082019081526107cf196040836060816007855a01fa156104ac5760409260066080939284938451905260a05160608401525a01fa156104ac57565b604051907f1b6396fecd7e237d791a3ad14651c1d44ccfa55b3989537ae1add369c6c4784f82527f2d201fff24fa0728741cf15ea7e5394cbe6d89c43765dc6716389bf3f69345886020830152604082019081526107cf196040836060816007855a01fa156104ac5760409260066080939284938451905260a05160608401525a01fa156104ac57565b604051907f1cbdb6a74e72055fcc4a7d437dd8a0a9109de539b7c28dc85a55a391bc3c584d82527f18ac27030882bb88a5c4a6e4fc21ce40dacdcaf877371e3f1fddbeb41e5b2f936020830152604082019081526107cf196040836060816007855a01fa156104ac5760409260066080939284938451905260a05160608401525a01fa156104ac57565b604051907f292a6493edf4088cb6274b3f1270ece4a5671f6f127db7fda7b35224a98aaad782527f0e8448dec82e6567d963c6f66860a616d7743b9ac874f3f17765787c49be5adc6020830152604082019081526107cf196040836060816007855a01fa156104ac5760409260066080939284938451905260a05160608401525a01fa156104ac57565b604051907f1a941d6c983b6573408a29a70ef8e4b21154a00d5e94a166e1c37d787ef7f83382527f2b40ec3add44cc2423875b098ced4a6d95b04d0d2ad84e2c0636601ad440c2916020830152604082019081526107cf196040836060816007855a01fa156104ac5760409260066080939284938451905260a05160608401525a01fa156104ac57565b604051907f18e76eb5e0abc06095f77b4d48b813a5233afe3b7041d04231ee1a5dca5abdd182527f29408c88eceb4b5bfb5a1f0278d1d573fdd231a6368f13937c8cb1fc3c2d211f6020830152604082019081526107cf196040836060816007855a01fa156104ac5760409260066080939284938451905260a05160608401525a01fa156104ac57565b604051907f116226ad9c429676f8567afb43bf3a7ad0c215005fa46845431adaf71d7a785882527f0dd032b1260a5e4c479bec0aba6048a5862cfe23468c710e3eae928d320b4fee6020830152604082019081526107cf196040836060816007855a01fa156104ac5760409260066080939284938451905260a05160608401525a01fa156104ac57565b604051907f2c8df3188df39aa89b1d2be87883ad28ad870f8bbd762bd3a53edef6d33a64b382527f07e67eb978de34a91af384b0ce0a83268e55eef37108f9a71328f6713c86d88a6020830152604082019081526107cf196040836060816007855a01fa156104ac5760409260066080939284938451905260a05160608401525a01fa156104ac57565b604051907f16569a5629d8fc1e017756a0726210ef1f92930292bd77d50bd21564753f4a9082527f11c099dd06416ea97e4517901e7ca23c962bdbf96d78b8850f4aa2d6dea26d616020830152604082019081526107cf196040836060816007855a01fa156104ac5760409260066080939284938451905260a05160608401525a01fa156104ac57565b604051907f13df12e5d7b1d22cd23b162ec327f0a9e1e336c4452bf1666dcdb0ecbfeb9f7f82527f26699c257be2e21b23d57f3bab0428f4c35c88b0010f17f69a2d55af9313b6a26020830152604082019081526107cf196040836060816007855a01fa156104ac5760409260066080939284938451905260a05160608401525a01fa156104ac57565b604051907f24a8ca20b74bd93b07dc5bf35f165471e69abfe2e62d377756f8a319039dcae882527f16b4575e6bae7ea762bd0b49702cf9564c98b44abd35ced41fa9537e6a57f4246020830152604082019081526107cf196040836060816007855a01fa156104ac5760409260066080939284938451905260a05160608401525a01fa156104ac57565b604051907f212ae9585895e0407b9ad9dfbe563181fc2cf51015efeb9ec46718849749128c82527f1511a31d7b4fe5fbb3e2666e62b31c7dedf962a1f3e8fc8834148305618b83eb6020830152604082019081526107cf196040836060816007855a01fa156104ac5760409260066080939284938451905260a05160608401525a01fa156104ac57565b604051907f21d5d48d465f67fd291a89f37c26d0736e2d5b42ce01a173a70fb75c5c7796bd82527f1fe61cc3c08bb39d066c21c13b12cadf106f430b77215b13d1bc50c67e7349bb6020830152604082019081526107cf196040836060816007855a01fa156104ac5760409260066080939284938451905260a05160608401525a01fa156104ac57565b604051907f0843fd05b2a7c9bef3bab03970a00f1054a336f6117d4716624e37445be4a0ba82527f22b7b2cb1052bb3115c547412a9ead9a847d317089f6c01442043f954b9cc07d6020830152604082019081526107cf196040836060816007855a01fa156104ac5760409260066080939284938451905260a05160608401525a01fa156104ac57565b604051907f1d63529bdb1185ca4db89c8ad857ede36f36b0a5e64208ab594ba3057b77facc82527f0601f0fb929a885f22ebf1316849d53a569198836b17aa7edbe5eb7068a808396020830152604082019081526107cf196040836060816007855a01fa156104ac5760409260066080939284938451905260a05160608401525a01fa156104ac57565b604051907f2183eceb61a368cdb951b12794e5d6c53f028e34286224389d7dcc128b548ebf82527f1e69643b25c9d8f1a1587478ca673d8006c55b03db485df1f9189dbf364605906020830152604082019081526107cf196040836060816007855a01fa156104ac5760409260066080939284938451905260a05160608401525a01fa156104ac57565b604051907f1a5250f2c094e1f012f4f5a2a9eefdaff70559554d86a8a8ba44313c74ac32b382527f1f51f44aebfe72646dbb3760b68dd0f65d49abbe15d767fb66205bbb61ee200a6020830152604082019081526107cf196040836060816007855a01fa156104ac5760409260066080939284938451905260a05160608401525a01fa156104ac57565b604051907f0ea4bcc0f4c1c3413857236ea3a0ce51f04d27288665c3613a37ecd13016e88a82527f128ab36d7d40088dc88aa6d64acc8030eaf121ca76d44621f6fdc15b1a03c9346020830152604082019081526107cf196040836060816007855a01fa156104ac5760409260066080939284938451905260a05160608401525a01fa156104ac57565b604051907f016cdc05557b66604614780418a95ac1dc8d6f2c95e5ef18d4ef25ea777c3af882527f192991bab1721f3e3344609534db746593ea9475f59a81839da6448b82f0650b6020830152604082019081526107cf196040836060816007855a01fa156104ac5760409260066080939284938451905260a05160608401525a01fa156104ac57565b604051907f104ce63aa39a58ed593f6325d66617f381435ab1ef4ece2ba00682f88cfccc6682527f2e1da99bd1f7fd7924a6bcd9bc7e1f25f81a43d444669515f0eee748246907b66020830152604082019081526107cf196040836060816007855a01fa156104ac5760409260066080939284938451905260a05160608401525a01fa156104ac57565b604051907e5c6d0d77bda319fd2773c9397c5faa9965258494fcad7ab70f50a30bd54b0f82527f16e25cd0ee68d6b65d21f0384afc73982b44b7b0f37a79263b70f0636a76896e6020830152604082019081526107cf196040836060816007855a01fa156104ac5760409260066080939284938451905260a05160608401525a01fa156104ac57565b604051907eeb4de1d4ca575fa021f4d56c40f6d0d904113305f097cfca15de1615b9ef3f82527f16b916aac33a47cfc5ba603cc80a67c4b63c766daba85c1e3c789a9754484eba6020830152604082019081526107cf196040836060816007855a01fa156104ac5760409260066080939284938451905260a05160608401525a01fa156104ac57565b604051907f222b6dcd1c62bf95e6601c3ce60a5b3a093f7728e50d9f1f0fdcf6a85f22a19b82527f256fb10964729e9341e1fcd4241ed6daf01c6e4868b0ac823bd94935a613c70b6020830152604082019081526107cf196040836060816007855a01fa156104ac5760409260066080939284938451905260a05160608401525a01fa156104ac57565b604051907f2c91b9f367ff4b005bec66955a369ba7ed01fc1a5da2026f9f2ac1b8c3f694d882527f2e5077af0cfff6dda292a61bcec54f572b3159fd0a78afec902b0eee33bdb9f36020830152604082019081526107cf196040836060816007855a01fa156104ac5760409260066080939284938451905260a05160608401525a01fa156104ac57565b604051907f0f99b4af5fc5e6d590706115acec759d1b99246407e7493137c8b73568d788db82527f0ea3a5399200178bce21af93c78eefaf4818b012ae088a55c69f11986b18c9d16020830152604082019081526107cf196040836060816007855a01fa156104ac5760409260066080939284938451905260a05160608401525a01fa156104ac57565b604051907f2f5d3d4f00b5fb6f560a384a3dd92e16111dd7df235bb63510875c2e05da64b982527f2c134f048e8ad1a409866909b6901765b423d3cabbc1f50ad700d8e160fa036c6020830152604082019081526107cf196040836060816007855a01fa156104ac5760409260066080939284938451905260a05160608401525a01fa156104ac57565b604051907f22ae3f52b04955e70df4070b8b85acdbcbf1aec5e2831249d8bff3c243273aef82527f16688422ef8ce039ba5352cd09440876c1d9995fff2f81e2eb3212e8894566e16020830152604082019081526107cf196040836060816007855a01fa156104ac5760409260066080939284938451905260a05160608401525a01fa156104ac57565b604051907f241ba810e934c83722447b58a58cdad138ff6ad6d88688508f6983e3de701b1d82527f10a880fb408d47307c95f96b5a42a61a6ede4ae6ac5adf7ccb060ea35b3f9aa36020830152604082019081526107cf196040836060816007855a01fa156104ac5760409260066080939284938451905260a05160608401525a01fa156104ac57565b604051907f1ea3c225b611734302c8e619f63269c897b5556a6c73069f64d276dab1329ffc82527f28c00f6d8509c79f9d4f27d6a3e066ca6b6fe59fabdf9a6956b06a2956b304cf6020830152604082019081526107cf196040836060816007855a01fa156104ac5760409260066080939284938451905260a05160608401525a01fa156104ac57565b604051907f2e0370569c566a1cb743c7a7ffb326091d1ce168d0657293265ab3295ed56f0e82527f191ef682690a8041ab9f878f67bd5173875cb0855606ddae7617b958aec931dd6020830152604082019081526107cf196040836060816007855a01fa156104ac5760409260066080939284938451905260a05160608401525a01fa156104ac57565b604051907f2ea1c4a14c861f46cf6689521698db7f5122c4471ccf7b668dea6c4da523347682527f27562f4272e3316e37489ebc33108662f9860883b9dc9d1763d127f7596bd3ba6020830152604082019081526107cf196040836060816007855a01fa156104ac5760409260066080939284938451905260a05160608401525a01fa156104ac57565b604051907f2110fc2cebb713a95b7990871ec861ff252689c4a25e268fcc6e516298bf704582527f09ffba64185817b140a45d281a8c0a5674f85c4a37b78276e6990c284bb4fd926020830152604082019081526107cf196040836060816007855a01fa156104ac5760409260066080939284938451905260a05160608401525a01fa156104ac57565b604051907f06d0c1ea0b9c8d290b5523a61972ba0ebdfaf892d4a605bd541f3de9e187dc7082527f2c37c2291cb4c7adec8ed0d4710c1b43a6f5e04a42ccc838e78c3617952d260a6020830152604082019081526107cf196040836060816007855a01fa156104ac5760409260066080939284938451905260a05160608401525a01fa156104ac57565b604051907f03f5b699af0823c911868bcb729c378ae988a87677b8eb792b53989762b24fd982527f0d2a0857f13185223570c8326c4427bd6e8b492bd55f5f1d61e393039565d0816020830152604082019081526107cf196040836060816007855a01fa156104ac5760409260066080939284938451905260a05160608401525a01fa156104ac57565b604051907f068f604a022a83a5c431ba71a6351b57e4f63d56bcbcedd834b40002e32b997a82527f0d9ecb22047e23ed815583dca17789b0bf1660acedb9761f52c5ebf1cb4c2ce26020830152604082019081526107cf196040836060816007855a01fa156104ac5760409260066080939284938451905260a05160608401525a01fa156104ac57565b604051907f22483ae6b1c8082601a6bc4c2c11e8213749ade88d740d6f37b1f9d46c49489e82527f1a510b9b34b70a70b4b43b31a4a3a22ecf5db31958493f69bfe05b67c25de7836020830152604082019081526107cf196040836060816007855a01fa156104ac5760409260066080939284938451905260a05160608401525a01fa156104ac57565b6020907f2a8d2748b8d9435edd1aff76b75d7de2da413e69b1a2312a2ae99de1e51daa686080527f0db6bf5aabff2446388ccfc9c03f637cfd9c2771669fa03ea60b47b4db0fca3660a05261313c610104356104b6565b61314861012435610540565b613154610144356105ca565b61316061016435610654565b61316c610184356106de565b6131786101a435610768565b6131846101c4356107f2565b6131906101e43561087b565b61319c61020435610905565b6131a86102243561098f565b6131b461024435610a19565b6131c061026435610aa3565b6131cc61028435610b2d565b6131d86102a435610bb7565b6131e46102c435610c41565b6131f06102e435610ccb565b6131fc61030435610d55565b61320861032435610ddf565b61321461034435610e69565b61322061036435610ef3565b61322c61038435610f7d565b6132386103a435611007565b6132446103c435611091565b6132506103e43561111b565b61325c610404356111a5565b6132686104243561122f565b613274610444356112b9565b61328061046435611343565b61328c610484356113cd565b6132986104a435611456565b6132a46104c4356114e0565b6132b06104e43561156a565b6132bc610504356115f4565b6132c86105243561167e565b6132d461054435611708565b6132e061056435611792565b6132ec6105843561181c565b6132f86105a4356118a6565b6133046105c435611930565b6133106105e4356119ba565b61331c61060435611a44565b61332861062435611ace565b61333461064435611b57565b61334061066435611be1565b61334c61068435611c6b565b6133586106a435611cf5565b6133646106c435611d7f565b6133706106e435611e09565b61337c61070435611e93565b61338861072435611f1d565b61339461074435611fa7565b6133a061076435612031565b6133ac610784356120bb565b6133b86107a435612145565b6133c46107c4356121cf565b6133d06107e435612259565b6133dc610804356122e3565b6133e86108243561236d565b6133f4610844356123f7565b61340061086435612481565b61340c6108843561250b565b6134186108a435612595565b6134246108c43561261f565b6134306108e4356126a9565b61343c61090435612733565b613448610924356127bd565b61345461094435612847565b613460610964356128d0565b61346c61098435612959565b6134786109a4356129e3565b6134846109c435612a6d565b6134906109e435612af7565b61349c610a0435612b81565b6134a8610a2435612c0b565b6134b4610a4435612c95565b6134c0610a6435612d1f565b6134cc610a8435612da9565b6134d8610aa435612e33565b6134e4610ac435612ebd565b6134f0610ae435612f47565b6134fc610b0435612fd1565b613508610b243561305b565b61010092818492358352837f30644e72e131a029b85045b68181585d97816a916871ca8d3c208c16d87cfd479101358103066101205260443561014052606435610160526084356101805260a4356101a0527f2d4d9aa7e302d9df41749d5507949d05dbea33fbb16c643b22f599a2be6df2e26101c0527f14bedd503c37ceb061d8ec60209fe345ce89830a19230301f076caff004d19266101e0527f0967032fcbf776d1afc985f88877f182d38480a653f2decaa9794cbc3bf3060c610200527f0e187847ad4c798374d0d6732bf501847dd68bc0e071241e0213bc7fc13db7ab610220527f304cfbd1e08a704a99f5e847d93f8c3caafddec46b7a0d379da69a4d112346a7610240527f1739c1b1a457a8c7313123d24d2f9192f896b7c63eea05a9d57f06547ad0cec8610260526080516102805260a0516102a0527f198e9393920d483a7260bfb731fb5d25f1aa493335a9e71297e485b7aef312c26102c0527f1800deef121f1e76426a00665e5c4479674322d4f75edadd46debd5cd992f6ed6102e05282610300917f090689d0585ff075ec9e99ad690c3395bc4b313370b38ef355acdadcd122975b83527f12c85ea5db8c6deb4aab71808dcb408fe3d1e7690c43d37b4ce6cc0166fa7daa610320528035610340520135610360527f10bc5fdbd340428e1063b89bfe03f9170dc3d44c97faabb2f8e1186f453f6e61610380527f05017f627857ea21e45cd4ef7c486f3385784f92ad0f2b2eaf25adfdf518d7896103a0527f126eda8fa512f8a5559bf28792c05a303a78fae52837f67b3d738388c80f07f56103c0527f262bad8a611a3c7342b64a44aa5b75d0f7fcda558ceab459a5b94c979f2c434f6103e0528160086107cf195a01fa9051169056fea26469706673582212209816f8717cff684e063ab9c8669620eb9365d149d0bd0726b5b88eda6606ad5c64736f6c634300080f0033",
  "linkReferences": {},
  "deployedLinkReferences": {}
}