{
  "_format": "hh-sol-artifact-1",
  "contractName": "AnybodyProblem",
  "sourceName": "contracts/AnybodyProblem.sol",
  "abi": [
    {
      "inputs": [
        {
          "internalType": "address payable",
          "name": "proceedRecipient_",
          "type": "address"
        },
        {
          "internalType": "address payable",
          "name": "speedruns_",
          "type": "address"
        },
        {
          "internalType": "address",
          "name": "externalMetadata_",
          "type": "address"
        },
        {
          "internalType": "address[]",
          "name": "verifiers_",
          "type": "address[]"
        },
        {
          "internalType": "uint256[]",
          "name": "verifiersTicks",
          "type": "uint256[]"
        },
        {
          "internalType": "uint256[]",
          "name": "verifiersBodies",
          "type": "uint256[]"
        }
      ],
      "stateMutability": "nonpayable",
      "type": "constructor"
    },
    {
      "anonymous": false,
      "inputs": [
        {
          "indexed": true,
          "internalType": "address",
          "name": "to",
          "type": "address"
        },
        {
          "indexed": true,
          "internalType": "bool",
          "name": "success",
          "type": "bool"
        },
        {
          "indexed": false,
          "internalType": "bytes",
          "name": "returnData",
          "type": "bytes"
        },
        {
          "indexed": false,
          "internalType": "uint256",
          "name": "amount",
          "type": "uint256"
        }
      ],
      "name": "EthMoved",
      "type": "event"
    },
    {
      "anonymous": false,
      "inputs": [
        {
          "indexed": false,
          "internalType": "uint256",
          "name": "runId",
          "type": "uint256"
        },
        {
          "indexed": false,
          "internalType": "uint256",
          "name": "level",
          "type": "uint256"
        },
        {
          "indexed": false,
          "internalType": "bytes32",
          "name": "seed",
          "type": "bytes32"
        },
        {
          "indexed": false,
          "internalType": "uint256",
          "name": "day",
          "type": "uint256"
        }
      ],
      "name": "LevelCreated",
      "type": "event"
    },
    {
      "anonymous": false,
      "inputs": [
        {
          "indexed": true,
          "internalType": "address",
          "name": "player",
          "type": "address"
        },
        {
          "indexed": true,
          "internalType": "uint256",
          "name": "runId",
          "type": "uint256"
        },
        {
          "indexed": true,
          "internalType": "uint256",
          "name": "level",
          "type": "uint256"
        },
        {
          "indexed": false,
          "internalType": "uint256",
          "name": "time",
          "type": "uint256"
        },
        {
          "indexed": false,
          "internalType": "uint256",
          "name": "day",
          "type": "uint256"
        }
      ],
      "name": "LevelSolved",
      "type": "event"
    },
    {
      "anonymous": false,
      "inputs": [
        {
          "indexed": true,
          "internalType": "address",
          "name": "previousOwner",
          "type": "address"
        },
        {
          "indexed": true,
          "internalType": "address",
          "name": "newOwner",
          "type": "address"
        }
      ],
      "name": "OwnershipTransferred",
      "type": "event"
    },
    {
      "anonymous": false,
      "inputs": [
        {
          "indexed": false,
          "internalType": "uint256",
          "name": "runId",
          "type": "uint256"
        },
        {
          "indexed": false,
          "internalType": "uint256",
          "name": "day",
          "type": "uint256"
        },
        {
          "indexed": false,
          "internalType": "bytes32",
          "name": "seed",
          "type": "bytes32"
        }
      ],
      "name": "RunCreated",
      "type": "event"
    },
    {
      "anonymous": false,
      "inputs": [
        {
          "indexed": true,
          "internalType": "address",
          "name": "player",
          "type": "address"
        },
        {
          "indexed": true,
          "internalType": "uint256",
          "name": "runId",
          "type": "uint256"
        },
        {
          "indexed": false,
          "internalType": "uint256",
          "name": "accumulativeTime",
          "type": "uint256"
        },
        {
          "indexed": false,
          "internalType": "uint256",
          "name": "day",
          "type": "uint256"
        }
      ],
      "name": "RunSolved",
      "type": "event"
    },
    {
      "stateMutability": "nonpayable",
      "type": "fallback"
    },
    {
      "inputs": [],
      "name": "FIRST_SUNDAY_AT_6_PM_UTC",
      "outputs": [
        {
          "internalType": "uint256",
          "name": "",
          "type": "uint256"
        }
      ],
      "stateMutability": "view",
      "type": "function"
    },
    {
      "inputs": [],
      "name": "LEVELS",
      "outputs": [
        {
          "internalType": "uint256",
          "name": "",
          "type": "uint256"
        }
      ],
      "stateMutability": "view",
      "type": "function"
    },
    {
      "inputs": [],
      "name": "SECONDS_IN_A_DAY",
      "outputs": [
        {
          "internalType": "uint256",
          "name": "",
          "type": "uint256"
        }
      ],
      "stateMutability": "view",
      "type": "function"
    },
    {
      "inputs": [],
      "name": "SECONDS_IN_A_WEEK",
      "outputs": [
        {
          "internalType": "uint256",
          "name": "",
          "type": "uint256"
        }
      ],
      "stateMutability": "view",
      "type": "function"
    },
    {
      "inputs": [
        {
          "internalType": "uint256",
          "name": "runId",
          "type": "uint256"
        },
        {
          "internalType": "uint256[]",
          "name": "tickCounts",
          "type": "uint256[]"
        },
        {
          "internalType": "uint256[2][]",
          "name": "a",
          "type": "uint256[2][]"
        },
        {
          "internalType": "uint256[2][2][]",
          "name": "b",
          "type": "uint256[2][2][]"
        },
        {
          "internalType": "uint256[2][]",
          "name": "c",
          "type": "uint256[2][]"
        },
        {
          "internalType": "uint256[][]",
          "name": "input",
          "type": "uint256[][]"
        }
      ],
      "name": "batchSolve",
      "outputs": [],
      "stateMutability": "payable",
      "type": "function"
    },
    {
      "inputs": [
        {
          "internalType": "uint256[]",
          "name": "input",
          "type": "uint256[]"
        }
      ],
      "name": "convertTo102",
      "outputs": [
        {
          "internalType": "uint256[102]",
          "name": "",
          "type": "uint256[102]"
        }
      ],
      "stateMutability": "pure",
      "type": "function"
    },
    {
      "inputs": [
        {
          "internalType": "uint256[]",
          "name": "input",
          "type": "uint256[]"
        }
      ],
      "name": "convertTo112",
      "outputs": [
        {
          "internalType": "uint256[112]",
          "name": "",
          "type": "uint256[112]"
        }
      ],
      "stateMutability": "pure",
      "type": "function"
    },
    {
      "inputs": [
        {
          "internalType": "uint256[]",
          "name": "input",
          "type": "uint256[]"
        }
      ],
      "name": "convertTo22",
      "outputs": [
        {
          "internalType": "uint256[22]",
          "name": "",
          "type": "uint256[22]"
        }
      ],
      "stateMutability": "pure",
      "type": "function"
    },
    {
      "inputs": [
        {
          "internalType": "uint256[]",
          "name": "input",
          "type": "uint256[]"
        }
      ],
      "name": "convertTo32",
      "outputs": [
        {
          "internalType": "uint256[32]",
          "name": "",
          "type": "uint256[32]"
        }
      ],
      "stateMutability": "pure",
      "type": "function"
    },
    {
      "inputs": [
        {
          "internalType": "uint256[]",
          "name": "input",
          "type": "uint256[]"
        }
      ],
      "name": "convertTo42",
      "outputs": [
        {
          "internalType": "uint256[42]",
          "name": "",
          "type": "uint256[42]"
        }
      ],
      "stateMutability": "pure",
      "type": "function"
    },
    {
      "inputs": [
        {
          "internalType": "uint256[]",
          "name": "input",
          "type": "uint256[]"
        }
      ],
      "name": "convertTo52",
      "outputs": [
        {
          "internalType": "uint256[52]",
          "name": "",
          "type": "uint256[52]"
        }
      ],
      "stateMutability": "pure",
      "type": "function"
    },
    {
      "inputs": [
        {
          "internalType": "uint256[]",
          "name": "input",
          "type": "uint256[]"
        }
      ],
      "name": "convertTo62",
      "outputs": [
        {
          "internalType": "uint256[62]",
          "name": "",
          "type": "uint256[62]"
        }
      ],
      "stateMutability": "pure",
      "type": "function"
    },
    {
      "inputs": [
        {
          "internalType": "uint256[]",
          "name": "input",
          "type": "uint256[]"
        }
      ],
      "name": "convertTo72",
      "outputs": [
        {
          "internalType": "uint256[72]",
          "name": "",
          "type": "uint256[72]"
        }
      ],
      "stateMutability": "pure",
      "type": "function"
    },
    {
      "inputs": [
        {
          "internalType": "uint256[]",
          "name": "input",
          "type": "uint256[]"
        }
      ],
      "name": "convertTo82",
      "outputs": [
        {
          "internalType": "uint256[82]",
          "name": "",
          "type": "uint256[82]"
        }
      ],
      "stateMutability": "pure",
      "type": "function"
    },
    {
      "inputs": [
        {
          "internalType": "uint256[]",
          "name": "input",
          "type": "uint256[]"
        }
      ],
      "name": "convertTo92",
      "outputs": [
        {
          "internalType": "uint256[92]",
          "name": "",
          "type": "uint256[92]"
        }
      ],
      "stateMutability": "pure",
      "type": "function"
    },
    {
      "inputs": [],
      "name": "currentDay",
      "outputs": [
        {
          "internalType": "uint256",
          "name": "",
          "type": "uint256"
        }
      ],
      "stateMutability": "view",
      "type": "function"
    },
    {
      "inputs": [
        {
          "internalType": "uint256",
          "name": "runId",
          "type": "uint256"
        }
      ],
      "name": "currentLevel",
      "outputs": [
        {
          "internalType": "uint256",
          "name": "",
          "type": "uint256"
        }
      ],
      "stateMutability": "view",
      "type": "function"
    },
    {
      "inputs": [],
      "name": "currentWeek",
      "outputs": [
        {
          "internalType": "uint256",
          "name": "",
          "type": "uint256"
        }
      ],
      "stateMutability": "view",
      "type": "function"
    },
    {
      "inputs": [
        {
          "internalType": "uint256",
          "name": "_fromTokenId",
          "type": "uint256"
        },
        {
          "internalType": "uint256",
          "name": "_toTokenId",
          "type": "uint256"
        }
      ],
      "name": "emitBatchMetadataUpdate",
      "outputs": [],
      "stateMutability": "nonpayable",
      "type": "function"
    },
    {
      "inputs": [
        {
          "internalType": "uint256",
          "name": "tokenId",
          "type": "uint256"
        }
      ],
      "name": "emitMetadataUpdate",
      "outputs": [],
      "stateMutability": "nonpayable",
      "type": "function"
    },
    {
      "inputs": [
        {
          "internalType": "uint256",
          "name": "_fromTokenId",
          "type": "uint256"
        },
        {
          "internalType": "uint256",
          "name": "_toTokenId",
          "type": "uint256"
        },
        {
          "internalType": "address",
          "name": "who",
          "type": "address"
        }
      ],
      "name": "exampleEmitMultipleIndexEvent",
      "outputs": [],
      "stateMutability": "nonpayable",
      "type": "function"
    },
    {
      "inputs": [],
      "name": "externalMetadata",
      "outputs": [
        {
          "internalType": "address",
          "name": "",
          "type": "address"
        }
      ],
      "stateMutability": "view",
      "type": "function"
    },
    {
      "inputs": [
        {
          "components": [
            {
              "internalType": "uint256",
              "name": "bodyIndex",
              "type": "uint256"
            },
            {
              "internalType": "uint256",
              "name": "px",
              "type": "uint256"
            },
            {
              "internalType": "uint256",
              "name": "py",
              "type": "uint256"
            },
            {
              "internalType": "uint256",
              "name": "vx",
              "type": "uint256"
            },
            {
              "internalType": "uint256",
              "name": "vy",
              "type": "uint256"
            },
            {
              "internalType": "uint256",
              "name": "radius",
              "type": "uint256"
            },
            {
              "internalType": "bytes32",
              "name": "seed",
              "type": "bytes32"
            }
          ],
          "internalType": "struct AnybodyProblem.Body",
          "name": "bodyData",
          "type": "tuple"
        },
        {
          "internalType": "uint256[]",
          "name": "input",
          "type": "uint256[]"
        },
        {
          "internalType": "uint256",
          "name": "i",
          "type": "uint256"
        }
      ],
      "name": "extractBodyData",
      "outputs": [
        {
          "components": [
            {
              "internalType": "uint256",
              "name": "bodyIndex",
              "type": "uint256"
            },
            {
              "internalType": "uint256",
              "name": "px",
              "type": "uint256"
            },
            {
              "internalType": "uint256",
              "name": "py",
              "type": "uint256"
            },
            {
              "internalType": "uint256",
              "name": "vx",
              "type": "uint256"
            },
            {
              "internalType": "uint256",
              "name": "vy",
              "type": "uint256"
            },
            {
              "internalType": "uint256",
              "name": "radius",
              "type": "uint256"
            },
            {
              "internalType": "bytes32",
              "name": "seed",
              "type": "bytes32"
            }
          ],
          "internalType": "struct AnybodyProblem.Body",
          "name": "",
          "type": "tuple"
        }
      ],
      "stateMutability": "pure",
      "type": "function"
    },
    {
      "inputs": [
        {
          "internalType": "uint256",
          "name": "",
          "type": "uint256"
        },
        {
          "internalType": "uint256",
          "name": "",
          "type": "uint256"
        }
      ],
      "name": "fastestByDay",
      "outputs": [
        {
          "internalType": "uint256",
          "name": "",
          "type": "uint256"
        }
      ],
      "stateMutability": "view",
      "type": "function"
    },
    {
      "inputs": [
        {
          "internalType": "uint256",
          "name": "",
          "type": "uint256"
        },
        {
          "internalType": "uint256",
          "name": "",
          "type": "uint256"
        }
      ],
      "name": "fastestByWeek",
      "outputs": [
        {
          "internalType": "address",
          "name": "",
          "type": "address"
        }
      ],
      "stateMutability": "view",
      "type": "function"
    },
    {
      "inputs": [
        {
          "internalType": "address",
          "name": "",
          "type": "address"
        }
      ],
      "name": "gamesPlayed",
      "outputs": [
        {
          "internalType": "uint256",
          "name": "total",
          "type": "uint256"
        },
        {
          "internalType": "uint256",
          "name": "lastPlayed",
          "type": "uint256"
        },
        {
          "internalType": "uint256",
          "name": "streak",
          "type": "uint256"
        }
      ],
      "stateMutability": "view",
      "type": "function"
    },
    {
      "inputs": [
        {
          "internalType": "uint256",
          "name": "index",
          "type": "uint256"
        }
      ],
      "name": "genRadius",
      "outputs": [
        {
          "internalType": "uint256",
          "name": "",
          "type": "uint256"
        }
      ],
      "stateMutability": "pure",
      "type": "function"
    },
    {
      "inputs": [
        {
          "internalType": "uint256",
          "name": "day",
          "type": "uint256"
        },
        {
          "internalType": "uint256",
          "name": "level",
          "type": "uint256"
        }
      ],
      "name": "generateLevelData",
      "outputs": [
        {
          "components": [
            {
              "internalType": "uint256",
              "name": "bodyIndex",
              "type": "uint256"
            },
            {
              "internalType": "uint256",
              "name": "px",
              "type": "uint256"
            },
            {
              "internalType": "uint256",
              "name": "py",
              "type": "uint256"
            },
            {
              "internalType": "uint256",
              "name": "vx",
              "type": "uint256"
            },
            {
              "internalType": "uint256",
              "name": "vy",
              "type": "uint256"
            },
            {
              "internalType": "uint256",
              "name": "radius",
              "type": "uint256"
            },
            {
              "internalType": "bytes32",
              "name": "seed",
              "type": "bytes32"
            }
          ],
          "internalType": "struct AnybodyProblem.Body[6]",
          "name": "bodyData",
          "type": "tuple[6]"
        },
        {
          "internalType": "uint256",
          "name": "bodyCount",
          "type": "uint256"
        }
      ],
      "stateMutability": "view",
      "type": "function"
    },
    {
      "inputs": [
        {
          "internalType": "uint256",
          "name": "id",
          "type": "uint256"
        },
        {
          "internalType": "uint256",
          "name": "index",
          "type": "uint256"
        }
      ],
      "name": "generateSeed",
      "outputs": [
        {
          "internalType": "bytes32",
          "name": "",
          "type": "bytes32"
        }
      ],
      "stateMutability": "view",
      "type": "function"
    },
    {
      "inputs": [
        {
          "internalType": "uint256",
          "name": "inputLength",
          "type": "uint256"
        }
      ],
      "name": "getLevelFromInputs",
      "outputs": [
        {
          "internalType": "uint256",
          "name": "",
          "type": "uint256"
        }
      ],
      "stateMutability": "pure",
      "type": "function"
    },
    {
      "inputs": [
        {
          "internalType": "uint256",
          "name": "day",
          "type": "uint256"
        },
        {
          "internalType": "uint256",
          "name": "level",
          "type": "uint256"
        },
        {
          "internalType": "uint256",
          "name": "bodyIndex",
          "type": "uint256"
        }
      ],
      "name": "getLevelSeed",
      "outputs": [
        {
          "internalType": "bytes32",
          "name": "",
          "type": "bytes32"
        }
      ],
      "stateMutability": "pure",
      "type": "function"
    },
    {
      "inputs": [
        {
          "internalType": "uint256",
          "name": "runId",
          "type": "uint256"
        }
      ],
      "name": "getLevelsData",
      "outputs": [
        {
          "components": [
            {
              "internalType": "bool",
              "name": "solved",
              "type": "bool"
            },
            {
              "internalType": "uint256",
              "name": "time",
              "type": "uint256"
            },
            {
              "internalType": "bytes32",
              "name": "seed",
              "type": "bytes32"
            },
            {
              "internalType": "uint256[5]",
              "name": "tmpInflightMissile",
              "type": "uint256[5]"
            },
            {
              "components": [
                {
                  "internalType": "uint256",
                  "name": "bodyIndex",
                  "type": "uint256"
                },
                {
                  "internalType": "uint256",
                  "name": "px",
                  "type": "uint256"
                },
                {
                  "internalType": "uint256",
                  "name": "py",
                  "type": "uint256"
                },
                {
                  "internalType": "uint256",
                  "name": "vx",
                  "type": "uint256"
                },
                {
                  "internalType": "uint256",
                  "name": "vy",
                  "type": "uint256"
                },
                {
                  "internalType": "uint256",
                  "name": "radius",
                  "type": "uint256"
                },
                {
                  "internalType": "bytes32",
                  "name": "seed",
                  "type": "bytes32"
                }
              ],
              "internalType": "struct AnybodyProblem.Body[6]",
              "name": "tmpBodyData",
              "type": "tuple[6]"
            }
          ],
          "internalType": "struct AnybodyProblem.Level[]",
          "name": "levels",
          "type": "tuple[]"
        }
      ],
      "stateMutability": "view",
      "type": "function"
    },
    {
      "inputs": [
        {
          "internalType": "bytes32",
          "name": "dayLevelIndexSeed",
          "type": "bytes32"
        },
        {
          "internalType": "uint256",
          "name": "index",
          "type": "uint256"
        }
      ],
      "name": "getRandomValues",
      "outputs": [
        {
          "components": [
            {
              "internalType": "uint256",
              "name": "bodyIndex",
              "type": "uint256"
            },
            {
              "internalType": "uint256",
              "name": "px",
              "type": "uint256"
            },
            {
              "internalType": "uint256",
              "name": "py",
              "type": "uint256"
            },
            {
              "internalType": "uint256",
              "name": "vx",
              "type": "uint256"
            },
            {
              "internalType": "uint256",
              "name": "vy",
              "type": "uint256"
            },
            {
              "internalType": "uint256",
              "name": "radius",
              "type": "uint256"
            },
            {
              "internalType": "bytes32",
              "name": "seed",
              "type": "bytes32"
            }
          ],
          "internalType": "struct AnybodyProblem.Body",
          "name": "",
          "type": "tuple"
        }
      ],
      "stateMutability": "pure",
      "type": "function"
    },
    {
      "inputs": [
        {
          "internalType": "uint256",
          "name": "",
          "type": "uint256"
        }
      ],
      "name": "longestStreak",
      "outputs": [
        {
          "internalType": "address",
          "name": "",
          "type": "address"
        }
      ],
      "stateMutability": "view",
      "type": "function"
    },
    {
      "inputs": [
        {
          "internalType": "uint256",
          "name": "",
          "type": "uint256"
        }
      ],
      "name": "maxTicksByLevelIndex",
      "outputs": [
        {
          "internalType": "uint256",
          "name": "",
          "type": "uint256"
        }
      ],
      "stateMutability": "view",
      "type": "function"
    },
    {
      "inputs": [],
      "name": "maxVector",
      "outputs": [
        {
          "internalType": "uint256",
          "name": "",
          "type": "uint256"
        }
      ],
      "stateMutability": "view",
      "type": "function"
    },
    {
      "inputs": [],
      "name": "maxVectorScaled",
      "outputs": [
        {
          "internalType": "uint256",
          "name": "",
          "type": "uint256"
        }
      ],
      "stateMutability": "view",
      "type": "function"
    },
    {
      "inputs": [
        {
          "internalType": "uint256",
          "name": "",
          "type": "uint256"
        }
      ],
      "name": "mostGames",
      "outputs": [
        {
          "internalType": "address",
          "name": "",
          "type": "address"
        }
      ],
      "stateMutability": "view",
      "type": "function"
    },
    {
      "inputs": [],
      "name": "owner",
      "outputs": [
        {
          "internalType": "address",
          "name": "",
          "type": "address"
        }
      ],
      "stateMutability": "view",
      "type": "function"
    },
    {
      "inputs": [],
      "name": "paused",
      "outputs": [
        {
          "internalType": "bool",
          "name": "",
          "type": "bool"
        }
      ],
      "stateMutability": "view",
      "type": "function"
    },
    {
      "inputs": [],
      "name": "price",
      "outputs": [
        {
          "internalType": "uint256",
          "name": "",
          "type": "uint256"
        }
      ],
      "stateMutability": "view",
      "type": "function"
    },
    {
      "inputs": [],
      "name": "proceedRecipient",
      "outputs": [
        {
          "internalType": "address payable",
          "name": "",
          "type": "address"
        }
      ],
      "stateMutability": "view",
      "type": "function"
    },
    {
      "inputs": [
        {
          "internalType": "uint256",
          "name": "min",
          "type": "uint256"
        },
        {
          "internalType": "uint256",
          "name": "max",
          "type": "uint256"
        },
        {
          "internalType": "bytes32",
          "name": "rand",
          "type": "bytes32"
        }
      ],
      "name": "randomRange",
      "outputs": [
        {
          "internalType": "uint256",
          "name": "",
          "type": "uint256"
        }
      ],
      "stateMutability": "pure",
      "type": "function"
    },
    {
      "inputs": [
        {
          "internalType": "address payable",
          "name": "_to",
          "type": "address"
        }
      ],
      "name": "recoverUnsuccessfulPayment",
      "outputs": [],
      "stateMutability": "nonpayable",
      "type": "function"
    },
    {
      "inputs": [],
      "name": "renounceOwnership",
      "outputs": [],
      "stateMutability": "nonpayable",
      "type": "function"
    },
    {
      "inputs": [
        {
          "internalType": "uint256",
          "name": "tokenId",
          "type": "uint256"
        },
        {
          "internalType": "uint256",
          "name": "salePrice",
          "type": "uint256"
        }
      ],
      "name": "royaltyInfo",
      "outputs": [
        {
          "internalType": "address",
          "name": "",
          "type": "address"
        },
        {
          "internalType": "uint256",
          "name": "",
          "type": "uint256"
        }
      ],
      "stateMutability": "view",
      "type": "function"
    },
    {
      "inputs": [],
      "name": "runCount",
      "outputs": [
        {
          "internalType": "uint256",
          "name": "",
          "type": "uint256"
        }
      ],
      "stateMutability": "view",
      "type": "function"
    },
    {
      "inputs": [
        {
          "internalType": "uint256",
          "name": "",
          "type": "uint256"
        }
      ],
      "name": "runs",
      "outputs": [
        {
          "internalType": "address",
          "name": "owner",
          "type": "address"
        },
        {
          "internalType": "bool",
          "name": "solved",
          "type": "bool"
        },
        {
          "internalType": "uint256",
          "name": "accumulativeTime",
          "type": "uint256"
        },
        {
          "internalType": "bytes32",
          "name": "seed",
          "type": "bytes32"
        },
        {
          "internalType": "uint256",
          "name": "day",
          "type": "uint256"
        }
      ],
      "stateMutability": "view",
      "type": "function"
    },
    {
      "inputs": [],
      "name": "scalingFactor",
      "outputs": [
        {
          "internalType": "uint256",
          "name": "",
          "type": "uint256"
        }
      ],
      "stateMutability": "view",
      "type": "function"
    },
    {
      "inputs": [],
      "name": "speedFactor",
      "outputs": [
        {
          "internalType": "uint256",
          "name": "",
          "type": "uint256"
        }
      ],
      "stateMutability": "view",
      "type": "function"
    },
    {
      "inputs": [],
      "name": "speedruns",
      "outputs": [
        {
          "internalType": "address payable",
          "name": "",
          "type": "address"
        }
      ],
      "stateMutability": "view",
      "type": "function"
    },
    {
      "inputs": [
        {
          "internalType": "bytes4",
          "name": "interfaceId",
          "type": "bytes4"
        }
      ],
      "name": "speedrunsSupportsInterface",
      "outputs": [
        {
          "internalType": "bool",
          "name": "",
          "type": "bool"
        }
      ],
      "stateMutability": "pure",
      "type": "function"
    },
    {
      "inputs": [
        {
          "internalType": "uint256",
          "name": "id",
          "type": "uint256"
        }
      ],
      "name": "speedrunsTokenURI",
      "outputs": [
        {
          "internalType": "string",
          "name": "",
          "type": "string"
        }
      ],
      "stateMutability": "view",
      "type": "function"
    },
    {
      "inputs": [],
      "name": "startingRadius",
      "outputs": [
        {
          "internalType": "uint256",
          "name": "",
          "type": "uint256"
        }
      ],
      "stateMutability": "view",
      "type": "function"
    },
    {
      "inputs": [
        {
          "internalType": "bytes4",
          "name": "interfaceId",
          "type": "bytes4"
        }
      ],
      "name": "supportsInterface",
      "outputs": [
        {
          "internalType": "bool",
          "name": "",
          "type": "bool"
        }
      ],
      "stateMutability": "view",
      "type": "function"
    },
    {
      "inputs": [],
      "name": "timeUntilEndOfWeek",
      "outputs": [
        {
          "internalType": "uint256",
          "name": "",
          "type": "uint256"
        }
      ],
      "stateMutability": "view",
      "type": "function"
    },
    {
      "inputs": [
        {
          "internalType": "address",
          "name": "newOwner",
          "type": "address"
        }
      ],
      "name": "transferOwnership",
      "outputs": [],
      "stateMutability": "nonpayable",
      "type": "function"
    },
    {
      "inputs": [
        {
          "internalType": "address",
          "name": "externalMetadata_",
          "type": "address"
        }
      ],
      "name": "updateExternalMetadata",
      "outputs": [],
      "stateMutability": "nonpayable",
      "type": "function"
    },
    {
      "inputs": [
        {
          "internalType": "bool",
          "name": "paused_",
          "type": "bool"
        }
      ],
      "name": "updatePaused",
      "outputs": [],
      "stateMutability": "nonpayable",
      "type": "function"
    },
    {
      "inputs": [
        {
          "internalType": "uint256",
          "name": "price_",
          "type": "uint256"
        }
      ],
      "name": "updatePrice",
      "outputs": [],
      "stateMutability": "nonpayable",
      "type": "function"
    },
    {
      "inputs": [
        {
          "internalType": "address payable",
          "name": "proceedRecipient_",
          "type": "address"
        }
      ],
      "name": "updateProceedRecipient",
      "outputs": [],
      "stateMutability": "nonpayable",
      "type": "function"
    },
    {
      "inputs": [
        {
          "internalType": "address payable",
          "name": "speedruns_",
          "type": "address"
        }
      ],
      "name": "updateSpeedrunsAddress",
      "outputs": [],
      "stateMutability": "nonpayable",
      "type": "function"
    },
    {
      "inputs": [
        {
          "internalType": "address",
          "name": "verifier_",
          "type": "address"
        },
        {
          "internalType": "uint256",
          "name": "verifierBodies",
          "type": "uint256"
        },
        {
          "internalType": "uint256",
          "name": "verifierTicks",
          "type": "uint256"
        }
      ],
      "name": "updateVerifier",
      "outputs": [],
      "stateMutability": "nonpayable",
      "type": "function"
    },
    {
      "inputs": [
        {
          "internalType": "uint256",
          "name": "",
          "type": "uint256"
        },
        {
          "internalType": "uint256",
          "name": "",
          "type": "uint256"
        }
      ],
      "name": "verifiers",
      "outputs": [
        {
          "internalType": "address",
          "name": "",
          "type": "address"
        }
      ],
      "stateMutability": "view",
      "type": "function"
    },
    {
      "inputs": [
        {
          "components": [
            {
              "internalType": "uint256",
              "name": "bodyIndex",
              "type": "uint256"
            },
            {
              "internalType": "uint256",
              "name": "px",
              "type": "uint256"
            },
            {
              "internalType": "uint256",
              "name": "py",
              "type": "uint256"
            },
            {
              "internalType": "uint256",
              "name": "vx",
              "type": "uint256"
            },
            {
              "internalType": "uint256",
              "name": "vy",
              "type": "uint256"
            },
            {
              "internalType": "uint256",
              "name": "radius",
              "type": "uint256"
            },
            {
              "internalType": "bytes32",
              "name": "seed",
              "type": "bytes32"
            }
          ],
          "internalType": "struct AnybodyProblem.Body",
          "name": "bodyData",
          "type": "tuple"
        },
        {
          "internalType": "uint256[]",
          "name": "input",
          "type": "uint256[]"
        },
        {
          "internalType": "uint256",
          "name": "bodyCount",
          "type": "uint256"
        },
        {
          "internalType": "uint256",
          "name": "i",
          "type": "uint256"
        }
      ],
      "name": "verifyBodyDataMatches",
      "outputs": [],
      "stateMutability": "pure",
      "type": "function"
    },
    {
      "inputs": [
        {
          "internalType": "uint256",
          "name": "bodyCount",
          "type": "uint256"
        },
        {
          "internalType": "address",
          "name": "verifier",
          "type": "address"
        },
        {
          "internalType": "uint256[2]",
          "name": "a",
          "type": "uint256[2]"
        },
        {
          "internalType": "uint256[2][2]",
          "name": "b",
          "type": "uint256[2][2]"
        },
        {
          "internalType": "uint256[2]",
          "name": "c",
          "type": "uint256[2]"
        },
        {
          "internalType": "uint256[]",
          "name": "input",
          "type": "uint256[]"
        }
      ],
      "name": "verifyProof",
      "outputs": [],
      "stateMutability": "view",
      "type": "function"
    },
    {
      "inputs": [
        {
          "internalType": "address",
          "name": "",
          "type": "address"
        },
        {
          "internalType": "uint256",
          "name": "",
          "type": "uint256"
        },
        {
          "internalType": "uint256",
          "name": "",
          "type": "uint256"
        }
      ],
      "name": "weeklyRecords",
      "outputs": [
        {
          "internalType": "uint256",
          "name": "",
          "type": "uint256"
        }
      ],
      "stateMutability": "view",
      "type": "function"
    },
    {
      "inputs": [],
      "name": "windowWidth",
      "outputs": [
        {
          "internalType": "uint256",
          "name": "",
          "type": "uint256"
        }
      ],
      "stateMutability": "view",
      "type": "function"
    },
    {
      "stateMutability": "payable",
      "type": "receive"
    }
  ],
  "bytecode": "0x610120604052346200071d576200519c803803806200001e816200073d565b928339810160c0828203126200071d57620000398262000763565b90620000486020840162000763565b620000566040850162000763565b60e05260608401516001600160401b0381116200071d5784019382601f860112156200071d57845194620000946200008e8762000778565b6200073d565b9560208088838152019160051b830101918583116200071d57602001905b828210620007225750505060808101516001600160401b0381116200071d5783620000df91830162000790565b60a08201519093906001600160401b0381116200071d5762000102920162000790565b60008054336001600160a01b03198216811783556040519396939290916001600160a01b0316907f8be0079c531659141344cd1fd0a4f28419497f9722a3daafe3b4186f6b6457e09084a36003805460ff191690556608e1bc9bf040006004556001600160401b0360a0820190811190821117620005bd5760a0810160405260fa81526101f460208201526102ee60408201526103e860608201526104e260808201526008906000905b600582106200070257505060408051915081018082116001600160401b0390911117620005bd57604081016040526001815260005b60208110620006a95750805190680100000000000000008211620005bd5760175482601755808310620005d3575b50601760009081526000805160206200517c83398151915292916020015b8282106200039257505050506200024362000911565b60e051600680546001600160a01b0319166001600160a01b03929092169190911790556200027062000911565b600580546001600160a01b0319166001600160a01b03929092169190911790556200029a62000911565b600780546001600160a01b0319166001600160a01b039290921691909117905560005b83518110156200038257620002e0620002d78284620008a6565b511515620008d1565b620003026001600160a01b03620002f88387620008a6565b51161515620008d1565b6001600160a01b03620003168286620008a6565b5116620003248285620008a6565b51600052601860205260406000206200033e8385620008a6565b5160005260205260406000209060018060a01b031982541617905560001981146200036c57600101620002bd565b634e487b7160e01b600052601160045260246000fd5b60405161481190816200096b8239f35b60a08151600180831b0381511686549060ff841b60208401511515851b169160018060a81b031916171786556040810151600187015560608101516002870155608081015160038701550151805190680100000000000000008211620005bd57600486015482600488015580831062000547575b50602001906004860160005260206000206000915b8083106200043b575050505060056020600192019401910190926200022d565b969593949a91989b929990978a518051151560ff80198c54169116178a55602081015160018b0155604081015160028b0155606081015160805260038a0160c05260005b6005811062000526575060800151610100526008890160a05260005b60068110156200050557600190600761010051602081519160c083519360a051948555838101518886015560408101516002860155606081015160038601556080810151600486015560a081015160058601550151600684015501610100520160a052016200049b565b5097929b989099603260206001929d97969899949d0194019101916200041b565b60019081608051602081519160c051928355016080520160c052016200047f565b62000552906200081e565b6200055d836200081e565b906004880160005260206000209182015b81830181106200058057505062000406565b806000603292556000600182015560006002820155620005b660088201620005ac81600385016200084f565b8383019062000868565b016200056e565b634e487b7160e01b600052604160045260246000fd5b620005de90620007ed565b620005e983620007ed565b60176000526000805160206200517c833981519152919082015b8183018110620006155750506200020f565b60008155600060018201556000600282015560006003820155600481015460006004830155806200064b575b5060050162000603565b62000656906200081e565b600482016000526020600020908101905b81811062000676575062000641565b806000603292556000600182015560006002820155620006a260088201620005ac81600385016200084f565b0162000667565b604051906001600160401b0360c0830190811190831117620005bd578160c06020930160405260008152600083820152600060408201526000606082015260006080820152606060a082015282828501015201620001e1565b600160208261ffff83945116865501930191019091620001ac565b600080fd5b60208091620007318462000763565b815201910190620000b2565b6040519190601f01601f191682016001600160401b03811183821017620005bd57604052565b51906001600160a01b03821682036200071d57565b6001600160401b038111620005bd5760051b60200190565b9080601f830112156200071d57815190620007af6200008e8362000778565b9182938184526020808095019260051b8201019283116200071d578301905b828210620007dd575050505090565b81518152908301908301620007ce565b7f333333333333333333333333333333333333333333333333333333333333333381116001166200036c5760050290565b7f051eb851eb851eb851eb851eb851eb851eb851eb851eb851eb851eb851eb851e81116001166200036c5760320290565b8181106200085b575050565b600081556001016200084f565b81811062000874575050565b600790600080825580600183015580600283015580600383015580600483015580600583015560068201550162000868565b8051821015620008bb5760209160051b010190565b634e487b7160e01b600052603260045260246000fd5b15620008d957565b60405162461bcd60e51b815260206004820152601060248201526f24b73b30b634b2103b32b934b334b2b960811b6044820152606490fd5b6000546001600160a01b031633036200092657565b606460405162461bcd60e51b815260206004820152602060248201527f4f776e61626c653a2063616c6c6572206973206e6f7420746865206f776e65726044820152fdfe6101006040526004361015610098575b361561005c57346100575760405162461bcd60e51b81526020600482015260156024820152746e6f2066616c6c6261636b207468616e6b20796f7560581b6044820152606490fd5b600080fd5b60405162461bcd60e51b81526020600482015260146024820152736e6f2072656365697665207468616e6b20796f7560601b6044820152606490fd5b6000803560e01c8063010520a114612eef578063014a30d214612ea657806301ffc9a714612e50578063041df08214612e3657806306575c8914612e1b57806308cdc2a814612de1578063098b5e9314612d3a5780630b27ce3f14612d1157806310d80a5514612ce6578063132d5ed914612cc8578063158b38b614612c865780632a55205a14612be25780632b057afa14612b965780632e93a49214612b605780633190b9ea14612a93578063355f74071461285057806335d6f0cc14612a715780633bdbdb7114612a525780633ef2570b14612a2d57806343569ffb146129f65780634b9862d9146129da5780634caa028b146129915780634dbe7f73146129615780635103d6ea146128cc5780635120a261146128af578063530ab7dc1461286057806353e52f09146128505780635542437b146128095780635bd6b2ea146127c05780635c9302c91461279e5780635c975abb1461277b5780636498c128146127445780636ef24f2d1461269d57806370180bc11461264c578063715018a6146125ee57806371b8ccb0146125a3578063770c5da11461256c5780637a19b190146124c5578063861f7556146123ab57806387b07780146123825780638cc52cf3146123645780638d6cc56d1461233f5780638da5cb5b14612318578063907311b1146122715780639196b700146122315780639654c1f7146122045780639691f1ab146121dd57806398a6a641146121995780639bc4961714612170578063a035b1fe14612152578063a4830114146120a6578063ac4a60471461205d578063adcbb85b14611fd0578063ae66f57c14611ee7578063b24f67b814611df7578063bd2c955214611d36578063c4b9d59f14611c00578063c8b90ebb14611b4c578063cc80b8ea14611b05578063d8531e6e14611aba578063de89d1c1146105b2578063e2adba8c14610596578063ed3437f814610579578063f2fde38b146104b3578063f6fbc39a14610410578063f81c8ec3146103f2578063f9cfa06f146103d45763ffd73d3b14610391575b5061000f565b346103d15761039f366131cc565b91908152600d602052604081209060038310156103d15760206103c284846133e9565b90549060031b1c604051908152f35b80fd5b50346103d157806003193601126103d1576020604051620151808152f35b50346103d157806003193601126103d1576020604051620f42408152f35b50346103d15760203660031901126103d15760043563ffffffff60e01b81168091036104af576020906301ffc9a760e01b811490811561049e575b811561048d575b811561047c575b811561046b575b506040519015158152f35b632483248360e11b14905082610460565b63152a902d60e11b81149150610459565b6303a24d0760e21b81149150610452565b636cdb3d1360e11b8114915061044b565b5080fd5b50346103d15760203660031901126103d1576104cd61326f565b6104d561358f565b6001600160a01b03908116801561052557600080546001600160a01b03198116831782556040519316907f8be0079c531659141344cd1fd0a4f28419497f9722a3daafe3b4186f6b6457e09084a3f35b60405162461bcd60e51b815260206004820152602660248201527f4f776e61626c653a206e6577206f776e657220697320746865207a65726f206160448201526564647265737360d01b6064820152608490fd5b50346103d157806003193601126103d15760206040516103e88152f35b50346103d157806003193601126103d157602060405160058152f35b5060c03660031901126103d1576024356001600160401b0381116104af576105de903690600401613142565b6044356001600160401b038111611ab6576105fd903690600401613523565b6064356001600160401b038111611ab25736602382011215611ab2578060040135906106288261312b565b91610636604051938461310a565b80835260208301913660248360071b83010111611a4e5760248101925b60248360071b8301018410611a5657505050506084356001600160401b038111611a5257610685903690600401613523565b916001600160401b0360a43511611a525736602360a435011215611a52576106b260a4356004013561312b565b916106c0604051938461310a565b60a4356004013583526020830136602460a4356004013560051b60a435010111611a4e57602460a43501905b602460a4356004013560051b60a43501018210611a1a5750506004359360ff600354166119e05761072262015180420642613637565b938515611623575b61073386613466565b50546001600160a01b031633036115cf5760ff61074f87613466565b505460a01c1661159557600361076487613466565b500154850361154157875b815181101561153b5786610783828a613623565b5161078e8388613623565b519061079a8488613623565b516107a58588613623565b51906107b18688613623565b519260046107c86107c286516145d7565b97613466565b5001548096036114f657600186106114a65760ff6107f76107e88f613466565b50600019890190600401613a3c565b5054166114ba5760011986116114a6578e9060018701825260186020526040822091526020528d604060018060a01b039120541693841561146e5761083e60018701613212565b80196005116112dd5760011960058201116112dd5733906001600160a01b039061086b9060060187613623565b51160361141b5761089a60036108938f61088490613466565b506000198a0190600401613a3c565b5001613642565b604051906108a782612f6b565b6108bb6108b660018a01613228565b613212565b80196005116114045760021960058201116114045760076108dd910187613623565b5182526108ef6108b660018a01613228565b801960051161140457600219600582011161140457600119600782011161140457600861091d910187613623565b5160208301526109326108b660018a01613228565b8019600511611404576002196005820111611404576002196007820111611404576009610960910187613623565b5160408301526109756108b660018a01613228565b801960051161140457600219600582011161140457600319600782011161140457600a6109a3910187613623565b5160608301526109b86108b660018a01613228565b801960051161140457600219600582011161140457600419600782011161140457600b6109e6910187613623565b518060808401528061131e575b505050604051610a0281612f6b565b610a0b856135f6565b518152610a1785613603565b516020820152610a2685613613565b5160408201528451600310156113085760808501516060820152845160041015611308578f60038f610a64610a739160a08a01516080870152613466565b506000198b0190600401613a3c565b500190915b600583106112f257505050610a8f60018701613212565b80196005116112dd5791610ab79391610aac869460050185613623565b519660018901614156565b610ae9610ade610ad8610ac98d613466565b50600019870190600401613a3c565b50613687565b926020840151613839565b8060208401526005600019850110156112c95760078401541061128e578b828b859383610b146137af565b505b6001860181106111a657505090610b41610b32610b4793613466565b50600019860190600401613a3c565b90613a58565b14610b5d575b5050610b58906135e7565b61076f565b906020600592610b87610b788c9b989d99969c9a979a613466565b50600019850190600401613a3c565b50600160ff19825416179055828a8383015160405190815289858201527f416328325568dd8681e48de39e8d89a80ddf01a688fbcb49c28c621071c9333b60403392a40151610be46001610bda8b613466565b5001918254613839565b90550361118c57610bf486613466565b50805460ff60a01b1916600160a01b1790556004543403611153576005546040518a918291829134906001600160a01b03165af1610c30613c61565b6007548b906001600160a01b0316803b156104af5781809160a48c604051948593849263093ccd3160e41b8452336004850152602484015260016044840152608060648401528160848401525af1801561114857611130575b50507fb08889abce443443404b2caf69aa3ccfb9ebfdf1ad2a634d06e11e24c1067938610ccf60018060a01b0360055416926040519182916040835260408301906134d6565b943460208301521515940390a3856001610ce882613466565b5001546040519081528460208201527f7f05a2f6290fe88fe25ed1665c50706361d709c5003e3067340b9053916fd70760403392a3338952601460205260408920610d3381546135e7565b9055610d47610d4187613466565b50613c9e565b97895b60808a01518b52600d6020528a600382101561111f57610d41610d7a836040610d86948f608001518152206133e9565b90549060031b1c613466565b6040808c0151910151809110908115611116575b50610dad57610da8906135e7565b610d4a565b896080899a94979b9993969998959801518c52600d60205260025b82811161109f5750610e05916080610dec9201518d52600d60205260408d206133e9565b819391549060031b600019811b9283911b169119161790565b90555b6003610e1388613466565b500154338a52601460205260408a209060405191610e3083612f86565b805483526002600182015491826020860152015460408401526201518019811161108b576201518001811461107457600160408301525b6020820152338a52601460205260408a20815181556020820151600182015560026040830151910155895b60038110610fc9575b5050338952601460205260408920600260405191610eb883612f86565b805483526001810154602084015201546040820152895b60038110610ee6575b5050610b58905b9038610b4d565b8151600e8201546001600160a01b03168c52601460205260408c205410610f1557610f10906135e7565b610ecf565b905060025b818111610f3e5750600e0180546001600160a01b03191633179055610b5838610ed8565b60018110610fb557600360001982011015610fa157600d8101546001600160a01b03166003821015610f8d57600e820180546001600160a01b0319169091179055610f8890613c91565b610f1a565b634e487b7160e01b8c52603260045260248cfd5b634e487b7160e01b8b52603260045260248bfd5b634e487b7160e01b8b52601160045260248bfd5b60408281015160118301546001600160a01b03168d526014602052908c206002015410610ffe57610ff9906135e7565b610e92565b905060025b818111611025575060110180546001600160a01b031916331790553880610e9b565b60018110610fb557600360001982011015610fa15760108101546001600160a01b03166003821015610f8d576011820180546001600160a01b031916909117905561106f90613c91565b611003565b61108160408301516135e7565b6040830152610e67565b634e487b7160e01b8c52601160045260248cfd5b9091925060808201518c52600d60205260408c206001821061110257908c6110f2610dec8360406110d86110f9976000198401906133e9565b90549060031b1c9460808901518152600d602052206133e9565b9055613c91565b90899291610dc8565b634e487b7160e01b8d52601160045260248dfd5b90501538610d9a565b505092959690939750939093610e08565b61113990612f3d565b611144578a38610c89565b8a80fd5b6040513d84823e3d90fd5b60405162461bcd60e51b8152602060048201526011602482015270125b98dbdc9c9958dd081c185e5b595b9d607a1b6044820152606490fd5b9296919495610b58906111a188969396613b51565b610edf565b92819495506111d59250906111c084608081940151613819565b516111d08360018b018484613de7565b613cf5565b8115611234575b60a081015115611217575b906112068161120c936080880151906112008383613819565b52613819565b506135e7565b8b8593928592610b16565b92906112068161122961120c946135e7565b9592509250506111e7565b60a08101516111dc5760405162461bcd60e51b8152602060048201526024808201527f596f752073686f742074686520626f647920796f752073686f756c642070726f6044820152631d1958dd60e21b6064820152608490fd5b60405162461bcd60e51b8152602060048201526013602482015272151a5b59481b1a5b5a5d08195e18d959591959606a1b6044820152606490fd5b634e487b7160e01b8d52603260045260248dfd5b50634e487b7160e01b8f52601160045260248ffd5b6001602082829351855501920192019190610a78565b634e487b7160e01b600052603260045260246000fd5b815190835180921492836113f1575b836113de575b836113cb575b836113bd575b50501591826113ac575b5081156113a4575b501561135f573880806109f3565b60405162461bcd60e51b815260206004820152601760248201527f496e76616c696420696e666c696768744d697373696c650000000000000000006044820152606490fd5b905038611351565b60200151620f424014915038611349565b60800151149150388061133f565b9250606083015160608501511492611339565b9250604083015160408501511492611333565b925060208301516020850151149261132d565b50505060248f634e487b7160e01b81526011600452fd5b60405162461bcd60e51b815260206004820152602560248201527f4f776e6572206f6620746869732070726f6f66206973206e6f7420746865207360448201526432b73232b960d91b6064820152608490fd5b60405162461bcd60e51b815260206004820152601060248201526f24b73b30b634b2103b32b934b334b2b960811b6044820152606490fd5b634e487b7160e01b8f52601160045260248ffd5b60405162461bcd60e51b815260206004820152601460248201527313195d995b08185b1c9958591e481cdbdb1d995960621b6044820152606490fd5b60405162461bcd60e51b815260206004820152601f60248201527f50726576696f7573206c6576656c206e6f742079657420636f6d706c657465006044820152606490fd5b88604051f35b60405162461bcd60e51b815260206004820152602660248201527f43616e206f6e6c7920736f6c76652072756e73206f6e207468652063757272656044820152656e742064617960d01b6064820152608490fd5b60405162461bcd60e51b8152602060048201526012602482015271149d5b88185b1c9958591e481cdbdb1d995960721b6044820152606490fd5b60405162461bcd60e51b815260206004820152602660248201527f4f6e6c7920746865206f776e6572206f66207468652072756e2063616e20736f6044820152651b1d99481a5d60d21b6064820152608490fd5b94506017549460405160a05261163a60a051612f50565b87602060a051015287604060a051015287606060a051015287608060a0510152606060a0805101523360a05152600143106119ca57604051866020820152600060408201526000194301406060820152606081528060808101106001600160401b036080830111176119b4576080810160405260208151910120606060a051015284608060a0510152600160401b8610156119a057600186016017556116df86613466565b61198c5760a0805180518354602083015160ff60a01b901515851b166001600160a01b039092166001600160a81b0319909116171783556040810151600184015560608101516002840155608081015160038401550151805190600160401b82116119785760048301548260048501558083106118cb575b5060206004910192018a5260208a208a905b8282106117be57505050507fbe33ae7a5df03243155e17a5896a63473638d0a5042d1504b59ea59ff0f2b0a560608060a0510151604051908982528860208301526040820152a16117b986613b51565b61072a565b95839a939b94959892999b979197516117e681511515899060ff801983541691151516179055565b60208101516001890155604081015160028901556060810151600389016080526000905b600582106118a45750506080015198600888019660009a5b60068c101561188357600760208260c0600194518d815190558d86858301519101558d600260408301519101558d600360608301519101558d600460808301519101558d600560a0830151910155015160068d01550199019b019a97611822565b50959c9a929893995095509592996032602060019201940192019091611769565b805160c08190526080805160e081905291825560019182019052919091019060200161180a565b6118d4906131e2565b6118dd836131e2565b90600485018d5260208d209182015b81830181106118fc575050611757565b8d81556000600182015560006002820155600381015b60088201811061196c5750600881015b60328201811061193557506032016118ec565b8060006007925560006001820155600060028201556000600382015560006004820155600060058201556000600682015501611922565b60008155600101611912565b634e487b7160e01b8b52604160045260248bfd5b634e487b7160e01b89526004899052602489fd5b634e487b7160e01b88526041600452602488fd5b634e487b7160e01b600052604160045260246000fd5b634e487b7160e01b600052601160045260246000fd5b60405162461bcd60e51b815260206004820152601260248201527110dbdb9d1c9858dd081a5cc81c185d5cd95960721b6044820152606490fd5b6001600160401b03823511611a4a5760208091611a3f366024863560a4350101613142565b8152019101906106ec565b8780fd5b8680fd5b8480fd5b36601f8501121561005757604051611a6d81612fa1565b803660808701116100575785905b608087018210611a98575050815260809390930192602001610653565b6020604091611aa736856133f9565b815201910190611a7b565b8380fd5b8280fd5b50346103d15760203660031901126103d157600435906001600160401b0382116103d157610680611af6611af13660048601613142565b614693565b611b0360405180926134fb565bf35b50346103d15760203660031901126103d1576004356001600160a01b038116908190036104af57611b3461358f565b6001600160601b0360a01b6005541617600555604051f35b50346103d157602090816003193601126103d1576004356001600160401b0381116104af57611b7f903690600401613142565b9060405192611b8d84613062565b610a40809436903760405192611ba284613062565b84368537825b60528110611bda5750506040519291835b60528210611bc5578585f35b82806001928651815201940191019092611bb9565b80611beb611bf89284979697613623565b518160051b8601526135e7565b939293611ba8565b50346103d15760603660031901126103d1576001600160a01b0360443581811690819003610057578291611c3261358f565b60405190611c5460209260043584820152838152611c4f81612fa1565b6147b8565b611c6d60405160243585820152848152611c4f81612fa1565b906040519484860152838552611c8285612fa1565b606060405194611c9186613047565b6003865236908601377f04d76c509b8f988dc8955b929b113410ea0e0897373914a00b48ea522da64173611cc4856135f6565b52611cce84613603565b52611cd883613613565b526007541691823b15611d3157611d089284928360405180968195829463b46f007160e01b84526004840161476b565b03925af1801561114857611d1d575b50604051f35b611d2690612f3d565b6103d1578038611d17565b505050fd5b50346103d1576020806003193601126104af57611d5f6004611d588135613466565b5001613759565b6040519180830181845282518091528160408501930191855b828110611d855785850386f35b90919293828551805115158352818101518284015260408101516040840152606080820151908401908a915b60058310611de157505050600192611dd560806106409301516101008301906132f4565b01950193929101611d78565b8151815287946001909301929182019101611db1565b50346103d1576020806003193601126104af5760065460405163295d33a960e21b81526004803590820152908390829060249082906001600160a01b03165afa928315611edb578093611e5f575b5050611e5b6040519282849384528301906134d6565b0390f35b909192503d8082843e611e72818461310a565b82019183818403126104af578051906001600160401b038211611ab6570182601f820112156104af57805191611ea783613c46565b93611eb5604051958661310a565b8385528584840101116103d1575090611ed3918480850191016134a1565b903880611e45565b604051903d90823e3d90fd5b50346103d15760203660031901126103d157600435906017548210156103d15760a0600583601760005202807fc624b66cc0138b8fabc209247f72d758e1cf3343756d543badbf24212bed8c150154907fc624b66cc0138b8fabc209247f72d758e1cf3343756d543badbf24212bed8c16810154907fc624b66cc0138b8fabc209247f72d758e1cf3343756d543badbf24212bed8c187fc624b66cc0138b8fabc209247f72d758e1cf3343756d543badbf24212bed8c178201549101549160ff60405194600180881b0381168652861c1615156020850152604084015260608301526080820152f35b50346103d15760203660031901126103d1576004356001600160a01b038116908190036104af57611fff61358f565b47907fb08889abce443443404b2caf69aa3ccfb9ebfdf1ad2a634d06e11e24c106793861204c84808060405187875af1612037613c61565b906040519283926040845260408401906134d6565b9560208301521515940390a3604051f35b50346103d15760203660031901126103d157600435906001600160401b0382116103d1576107c06120996120943660048601613142565b6146db565b611b03604051809261343e565b50346103d157806120b6366131cc565b6120be61358f565b6040519160208301526040820152604081526120d981612f86565b6040516120e581612fa1565b60018152602036818301377f6bd5c950a8d8df17f772f5af37cb3655737899cbf903264b9795592da439661c61211a826135f6565b526007546001600160a01b031691823b15611d3157611d089284928360405180968195829463b46f007160e01b84526004840161476b565b50346103d157806003193601126103d1576020600454604051908152f35b50346103d157806003193601126103d1576006546040516001600160a01b039091168152602090f35b50346103d1576121a836613285565b9160018060a01b03168352601560205260408320908352602052604082206007821015611ab657602092500154604051908152f35b50346103d15760203660031901126103d15760206121fc60043561398d565b604051908152f35b50346103d15760203660031901126103d15760043560058110156104af5760209060080154604051908152f35b50346103d157806003193601126103d157601754906001821061225d5760405160001983018152602090f35b634e487b7160e01b81526011600452602490fd5b50346103d157602090816003193601126103d1576004356001600160401b0381116104af576122a4903690600401613142565b90604051926122b28461302b565b610b808094369037604051926122c78461302b565b84368537825b605c81106122ff5750506040519291835b605c82106122ea578585f35b828060019286518152019401910190926122de565b80611beb6123109284979697613623565b9392936122cd565b50346103d157806003193601126103d157546040516001600160a01b039091168152602090f35b50346103d15760203660031901126103d15761235961358f565b600435600455604051f35b50346103d157806003193601126103d15760206040516204f1a08152f35b50346103d157806003193601126103d1576007546040516001600160a01b039091168152602090f35b50346103d1576101603660031901126103d1576024356001600160a01b038116810361005757366063121561005757604051906123e782612fa1565b608482368211610057576044905b8282106124b55750503660a312156100575760405161241381612fa1565b806101049236841161005757905b83821061249b575050366101231215610057576040519161244183612fa1565b826101449136831161005757905b82821061248b57505035936001600160401b03851161248757612479612482953690600401613142565b93600435614156565b604051f35b8580fd5b813581526020918201910161244f565b60206040916124aa36856133f9565b815201910190612421565b81358152602091820191016123f5565b50346103d157602090816003193601126103d1576004356001600160401b0381116104af576124f8903690600401613142565b90604051926125068461300f565b6102c080943690376040519261251b8461300f565b84368537825b601681106125535750506040519291835b6016821061253e578585f35b82806001928651815201940191019092612532565b80611beb6125649284979697613623565b939293612521565b50346103d15760203660031901126103d15760043560038110156104af57600e01546040516001600160a01b039091168152602090f35b50346103d1576125b2366131cc565b919081526016602052604081209060038310156103d15760206125d584846133e9565b905460405160039290921b1c6001600160a01b03168152f35b50346103d157806003193601126103d15761260761358f565b600080546001600160a01b03198116825560405191906001600160a01b03167f8be0079c531659141344cd1fd0a4f28419497f9722a3daafe3b4186f6b6457e08284a3f35b50346103d15760203660031901126103d1576060906040906001600160a01b0361267461326f565b168152601460205220805490600260018201549101549060405192835260208301526040820152f35b50346103d157602090816003193601126103d1576004356001600160401b0381116104af576126d0903690600401613142565b90604051926126de84612ff3565b610cc08094369037604051926126f384612ff3565b84368537825b6066811061272b5750506040519291835b60668210612716578585f35b8280600192865181520194019101909261270a565b80611beb61273c9284979697613623565b9392936126f9565b50346103d15760203660031901126103d15760043560038110156104af57601101546040516001600160a01b039091168152602090f35b50346103d157806003193601126103d157602060ff600354166040519015158152f35b50346103d157806003193601126103d15760206121fc62015180420642613637565b50346103d15760203660031901126103d157600435906001600160401b0382116103d1576109006127fc6127f73660048601613142565b614723565b611b0360405180926133c1565b50346103d15760203660031901126103d1576004356001600160a01b038116908190036104af5761283861358f565b6001600160601b0360a01b6007541617600755604051f35b505061285a6132af565b3861038b565b50346103d1576101403660031901126103d15761287c36613360565b60e435906001600160401b038211611ab65761289f612482923690600401613142565b9061012435916101043591613de7565b50346103d157806003193601126103d1576020604051614e208152f35b50346103d1576101203660031901126103d1576128e836613360565b9060e435906001600160401b0382116103d15760e06129188461290e3660048701613142565b6101043591613cf5565b611b03604051809260c08091805184526020810151602085015260408101516040850152606081015160608501526080810151608085015260a081015160a08501520151910152565b50346103d15761056061297c612976366131cc565b90613845565b61298960405180936132f4565b610540820152f35b50346103d15760203660031901126103d157600435906001600160401b0382116103d1576105406129cd6129c83660048601613142565b61464b565b611b0360405180926132cc565b50346103d157806003193601126103d157602060405160148152f35b50346103d157602090612a08366131cc565b90825260188352604082209082528252604060018060a01b0391205416604051908152f35b50346103d15760603660031901126103d15760206121fc60443560243560043561389e565b50346103d15760203660031901126103d15760206121fc6004356145d7565b50346103d15760403660031901126103d15760e06129186024356004356138c7565b50346103d15760203660031901126103d157612aad61358f565b604051600435602082015260208152612ac581612fa1565b8160405191612ad383612fa1565b60018352602036818501377ff8e1a15aba9398e019f0b49df1a4fde98ee17ae345cb5f6b5e2c27f5033e8ce7612b08846135f6565b526007546001600160a01b0316803b15611ab657612b3d938360405180968195829463b46f007160e01b84526004840161476b565b03925af1801561114857612b515750604051f35b612b5a90612f3d565b38611d17565b50346103d157806003193601126103d157612b79613a1a565b9062093a8019821161225d5760206121fc4262093a808501613637565b50346103d157612ba536613285565b90612bae61358f565b8352601860205260408320908352602052604082209060018060a01b03166001600160601b0360a01b825416179055604051f35b50346103d157612bf1366131cc565b90825260026020526040822060405190612c0a82612fa1565b546001600160a01b0380821680845260a09290921c6020840152919015612c64575b6001600160601b0360208201511693836000190485118415151661225d57509261271091604094511692845193845202046020820152f35b50604051612c7181612fa1565b600154828116825260a01c6020820152612c2c565b50346103d15760203660031901126103d157612ca061326f565b612ca861358f565b60018060a01b03166001600160601b0360a01b6006541617600655604051f35b50346103d157806003193601126103d157602060405162093a808152f35b50346103d15760203660031901126103d15760206004612d068135613466565b500154604051908152f35b50346103d157806003193601126103d1576005546040516001600160a01b039091168152602090f35b50346103d157602090816003193601126103d1576004356001600160401b0381116104af57612d6d903690600401613142565b9060405192612d7b84612fd7565b610e00809436903760405192612d9084612fd7565b84368537825b60708110612dc85750506040519291835b60708210612db3578585f35b82806001928651815201940191019092612da7565b80611beb612dd99284979697613623565b939293612d96565b50346103d15760203660031901126103d1576004358015158091036104af57612e0861358f565b60ff801960035416911617600355604051f35b50346103d157806003193601126103d15760206121fc613a1a565b50346103d15760206121fc612e4a366131cc565b906139e9565b50346103d15760203660031901126103d15760043563ffffffff60e01b81168091036104af5760209063152a902d60e11b8114908115612e9557506040519015158152f35b6301ffc9a760e01b14905082610460565b50346103d15760203660031901126103d157600435906001600160401b0382116103d157610400612ee2612edd3660048601613142565b6145f6565b611b0360405180926131a0565b50346103d15760603660031901126103d15760043590612f1182602435613637565b908115612f295760206121fc84846044350690613839565b634e487b7160e01b81526012600452602490fd5b6001600160401b0381116119b457604052565b60c081019081106001600160401b038211176119b457604052565b60a081019081106001600160401b038211176119b457604052565b606081019081106001600160401b038211176119b457604052565b604081019081106001600160401b038211176119b457604052565b60e081019081106001600160401b038211176119b457604052565b610e0081019081106001600160401b038211176119b457604052565b610cc081019081106001600160401b038211176119b457604052565b6102c081019081106001600160401b038211176119b457604052565b610b8081019081106001600160401b038211176119b457604052565b608081019081106001600160401b038211176119b457604052565b610a4081019081106001600160401b038211176119b457604052565b61040081019081106001600160401b038211176119b457604052565b61054081019081106001600160401b038211176119b457604052565b61068081019081106001600160401b038211176119b457604052565b6107c081019081106001600160401b038211176119b457604052565b61090081019081106001600160401b038211176119b457604052565b90601f801991011681019081106001600160401b038211176119b457604052565b6001600160401b0381116119b45760051b60200190565b81601f82011215610057578035916131598361312b565b92613167604051948561310a565b808452602092838086019260051b820101928311610057578301905b828210613191575050505090565b81358152908301908301613183565b916000915b602090818410156131c557908060019286518152019401920191926131a5565b5050915050565b6040906003190112610057576004359060243590565b7f051eb851eb851eb851eb851eb851eb851eb851eb851eb851eb851eb851eb851e81116001166119ca5760320290565b8060001904600511811515166119ca5760050290565b6001600160ff1b0381116001166119ca5760011b90565b7f333333333333333333333333333333333333333333333333333333333333333381116001166119ca5760050290565b600435906001600160a01b038216820361005757565b6060906003190112610057576004356001600160a01b038116810361005757906024359060443590565b503461005757600036600319011261005757602060405160028152f35b6000915b602a83106132dd57505050565b6001908251815260208091019201920191906132d0565b906000905b6006821061330657505050565b602060e082613354600194875160c08091805184526020810151602085015260408101516040850152606081015160608501526080810151608085015260a081015160a08501520151910152565b019301910190916132f9565b60e0906003190112610057576040519060e082018281106001600160401b038211176119b457604052816004358152602435602082015260443560408201526064356060820152608435608082015260a43560a082015260c060c435910152565b6000915b604883106133d257505050565b6001908251815260208091019201920191906133c5565b6003821015611308570190600090565b9080601f83011215610057576040519161341283612fa1565b82906040810192831161005757905b82821061342e5750505090565b8135815260209182019101613421565b6000915b603e831061344f57505050565b600190825181526020809101920192019190613442565b601754811015611308576005906017600052027fc624b66cc0138b8fabc209247f72d758e1cf3343756d543badbf24212bed8c150190600090565b918091926000905b8282106134c15750116134ba575050565b6000910152565b915080602091830151818601520182916134a9565b906020916134ef815180928185528580860191016134a1565b601f01601f1916010190565b6000915b6034831061350c57505050565b6001908251815260208091019201920191906134ff565b81601f820112156100575780359061353a8261312b565b9260409261354a8451958661310a565b808552602091828087019260061b85010193818511610057578301915b8483106135775750505050505090565b83869161358484866133f9565b815201920191613567565b6000546001600160a01b031633036135a357565b606460405162461bcd60e51b815260206004820152602060248201527f4f776e61626c653a2063616c6c6572206973206e6f7420746865206f776e65726044820152fd5b60001981146119ca5760010190565b8051156113085760200190565b8051600110156113085760400190565b8051600210156113085760600190565b80518210156113085760209160051b010190565b8181106119ca570390565b60405191906000835b600582106136715750505060a082018281106001600160401b038211176119b457604052565b600160208192855481520193019101909161364b565b90604080519261369684612f6b565b8360ff82541615158152600193848301549160209283820152600290818501548682015260036136c7818701613642565b90606091828401528751976136db89612f50565b60009760080195895b6006808b101561374657898d9260079286519061370082612fbc565b8c548252858d0154848301528b8d015488830152888d01548a83015260048d0154608083015260058d015460a08301528c015460c08201528152019801990198966136e4565b5050995050505092505050608091500152565b9081546137658161312b565b92613773604051948561310a565b818452600090815260208082208186015b848410613792575050505050565b6032836001926137a185613687565b815201920193019290613784565b604051906137bc82612fbc565b8160c06000918281528260208201528260408201528260608201528260808201528260a08201520152565b604051906137f482612f50565b8160005b60c08110613804575050565b60209061380f6137af565b81840152016137f8565b9060068110156113085760051b0190565b612710811981116119ca570190565b811981116119ca570190565b919061384f6137e7565b9260005b8281111561386c57505060011981116119ca5760010190565b806138848161387f61389994878761389e565b6138c7565b61388e8288613819565b526112068187613819565b613853565b91604051916020830193845260408301526060820152606081526138c181613047565b51902090565b613985906138d36137af565b506138ee6138df6137af565b938085528260c086015261398d565b60a08401526040519060209182810191825282815261390c81612fa1565b519020620f4240908181068386015260405183810191825283815261393081612fa1565b519020908106604085015260405182810191825282815261395081612fa1565b519020614e209161396283830661382a565b606086015260405190808201928352815261397c81612fa1565b5190200661382a565b608082015290565b6139d060ff916006604051916139a283612f50565b60248352601b60208401526016604084015260116060840152600c6080840152600760a08401520690613819565b51166103e89080600019048211811515166119ca570290565b90600143106119ca57604051906020820192835260408201526000194301406060820152606081526138c181613047565b6204f1a042106119ca57613a3962093a806204f19f1942010642613637565b90565b8054821015611308576000526032602060002091020190600090565b9290613b3b57613a79829392511515839060ff801983541691151516179055565b6020918284015192600193848301556040948581015193600294858501556060918281015160039081870190896000915b60058310613b27575050505060086080809301519601936000965b600680891015613b1957815180518855888101518c8901558c8101518b890155838101518589015585810151600489015560a0810151600589015560c0015190870155968901966007909501948601613ac5565b505050505095505050505050565b80518455928101929101908a908801613aaa565b634e487b7160e01b600052600060045260246000fd5b6003613b5c82613466565b500154906004613b6b82613466565b50015460011981116119ca576001019060405192613b8884612f6b565b6000845260006020850152604084019260008452604051613ba881612f6b565b60a0368237606086015260808501613bbe6137e7565b8152613bca82856139e9565b8552613bd68284613845565b5090526004613be484613466565b5001938454600160401b8110156119b4577f70f3b6a85b7a5047df9e61440f8b6480a7cd8a96f849a4092d0a22303a5dbb0f96610b41826080986001613c2c95018155613a3c565b5190604051938452602084015260408301526060820152a1565b6001600160401b0381116119b457601f01601f191660200190565b3d15613c8c573d90613c7282613c46565b91613c80604051938461310a565b82523d6000602084013e565b606090565b80156119ca576000190190565b90604051613cab81612f50565b60a0613cf06004839560ff8154600180871b0381168752851c161515602086015260018101546040860152600281015460608601526003810154608086015201613759565b910152565b9190613cff6137af565b50613d0982613212565b91600592801984116119ca57613d2190840183613623565b516020850152613d3081613212565b801984116119ca57600119848201116119ca576006613d50910183613623565b516040850152613d5f81613212565b801984116119ca57600219848201116119ca576007613d7f910183613623565b516060850152613d8e81613212565b90811984116119ca57600319848301116119ca57613db26008613dbd930184613623565b516080860152613212565b91821981116119ca57600419908301116119ca576009613dde920190613623565b5160a082015290565b9291906020928385015190613dfb8461323f565b90600591801983116119ca57613e1c90613e1483613212565b908401613839565b60021993908481116119ca576002613e35910186613623565b51036140ac576040870151613e498661323f565b801984116119ca57613e6690613e5e84613212565b908501613839565b60011981116119ca578460018201116119ca576003613e86910186613623565b510361407257606087015196613e9b8661323f565b801984116119ca57613eb090613e5e84613212565b978489116119ca578460028a01116119ca57613ed06004809a0187613623565b510361403b576080810151613ee48761323f565b8019851161402657613f0190613ef985613212565b908601613839565b6003198111614026578560038201116140265784613f20910187613623565b5103613fef5760a0613f349101519561323f565b9081198311613fda5790613f4b613f529392613212565b9101613839565b906004198211613fc55785820111613fb057906006613f72920190613623565b5103613f7c575050565b60405162461bcd60e51b815291820152600e60248201526d496e76616c69642072616469757360901b604482015260649150fd5b601185634e487b7160e01b6000525260246000fd5b601186634e487b7160e01b6000525260246000fd5b601188634e487b7160e01b6000525260246000fd5b60405162461bcd60e51b8152808901889052601060248201526f496e76616c696420766563746f72207960801b6044820152606490fd5b60118a634e487b7160e01b6000525260246000fd5b60405162461bcd60e51b8152808901889052601060248201526f092dcecc2d8d2c840eccac6e8dee440f60831b6044820152606490fd5b60405162461bcd60e51b8152600481018790526012602482015271496e76616c696420706f736974696f6e207960701b6044820152606490fd5b60405162461bcd60e51b8152600481018790526012602482015271092dcecc2d8d2c840e0dee6d2e8d2dedc40f60731b6044820152606490fd5b90816020910312610057575180151581036100575790565b6000915b6002831061410f57505050565b600190825181526020809101920192019190614102565b906000905b6002821061413857505050565b602060408261414a60019487516140fe565b0193019101909161412b565b939091929360028114600014614259575091610504916141c16141a2946141b6614182602098996145f6565b916141ac6040519a8b998a98630f3022c960e21b8a5260048a01906140fe565b6044880190614126565b60c48601906140fe565b6101048401906131a0565b6001600160a01b03165afa90811561424d5760009161421f575b50156141e357565b60405162461bcd60e51b815260206004820152601460248201527324b73b30b634b21019103137b23c90383937b7b360611b6044820152606490fd5b614240915060203d8111614246575b614238818361310a565b8101906140e6565b386141db565b503d61422e565b6040513d6000823e3d90fd5b60038103614324575091610644916142a86141a29461429d61427d6020989961464b565b916141ac6040519a8b998a986371dd4db160e11b8a5260048a01906140fe565b6101048401906132cc565b6001600160a01b03165afa90811561424d57600091614306575b50156142ca57565b60405162461bcd60e51b815260206004820152601460248201527324b73b30b634b21019903137b23c90383937b7b360611b6044820152606490fd5b61431e915060203d811161424657614238818361310a565b386142c2565b92939060049584878096146000146143f857509261437c61078493614371602097946141ac6143566141a29b99614693565b936040519b8c9a8b99632a6d5ed560e01b8b528a01906140fe565b6101048401906134fb565b6001600160a01b03165afa90811561424d576000916143da575b501561439f5750565b60649060206040519162461bcd60e51b8352820152601460248201527324b73b30b634b2101a103137b23c90383937b7b360611b6044820152fd5b6143f2915060203d811161424657614238818361310a565b38614396565b600581036144c25750926144466108c49361443b602097946141ac6144206141a29b996146db565b936040519b8c9a8b9963ea59061d60e01b8b528a01906140fe565b61010484019061343e565b6001600160a01b03165afa90811561424d576000916144a4575b50156144695750565b60649060206040519162461bcd60e51b8352820152601460248201527324b73b30b634b2101a903137b23c90383937b7b360611b6044820152fd5b6144bc915060203d811161424657614238818361310a565b38614460565b600691929394955014600014614593576020936145176141a2969461450c610a04956141ac6144f18c97614723565b936040519b8c9a8b996311b5352360e01b8b528a01906140fe565b6101048401906133c1565b6001600160a01b03165afa90811561424d57600091614575575b501561453a5750565b60649060206040519162461bcd60e51b8352820152601460248201527324b73b30b634b2101b103137b23c90383937b7b360611b6044820152fd5b61458d915060203d811161424657614238818361310a565b38614531565b60405162461bcd60e51b8152602081880152601860248201527f496e76616c6964206e756d626572206f6620626f6469657300000000000000006044820152606490fd5b600c81106119ca57600a90600b190104600181106119ca576000190190565b906040516146038161307e565b6104008091369037604051906146188261307e565b36823760005b6020811061462b57509150565b806146396146469286613623565b518160051b8401526135e7565b61461e565b906040516146588161309a565b61054080913690376040519061466d8261309a565b36823760005b602a811061468057509150565b8061463961468e9286613623565b614673565b906040516146a0816130b6565b6106808091369037604051906146b5826130b6565b36823760005b603481106146c857509150565b806146396146d69286613623565b6146bb565b906040516146e8816130d2565b6107c08091369037604051906146fd826130d2565b36823760005b603e811061471057509150565b8061463961471e9286613623565b614703565b90604051614730816130ee565b610900809136903760405190614745826130ee565b36823760005b6048811061475857509150565b806146396147669286613623565b61474b565b9092916040820191604081528451809352606081019260208096019060005b8181106147a457505050613a3993948184039101526134d6565b82518652948701949187019160010161478a565b6020815191015190602081106147cc575090565b6000199060200360031b1b169056fea2646970667358221220ac7db03f69e75e5055d3b93a6033230c77338e458ad1269192a44eeb31a024e964736f6c634300080f0033c624b66cc0138b8fabc209247f72d758e1cf3343756d543badbf24212bed8c15",
  "linkReferences": {},
  "deployedLinkReferences": {}
}