{
  "_format": "hh-sol-artifact-1",
  "contractName": "Groth16Verifier",
  "sourceName": "contracts/Game_6_20Verifier.sol",
  "abi": [
    {
      "inputs": [
        {
          "internalType": "uint256[2]",
          "name": "_pA",
          "type": "uint256[2]"
        },
        {
          "internalType": "uint256[2][2]",
          "name": "_pB",
          "type": "uint256[2][2]"
        },
        {
          "internalType": "uint256[2]",
          "name": "_pC",
          "type": "uint256[2]"
        },
        {
          "internalType": "uint256[60]",
          "name": "_pubSignals",
          "type": "uint256[60]"
        }
      ],
      "name": "verifyProof",
      "outputs": [
        {
          "internalType": "bool",
          "name": "",
          "type": "bool"
        }
      ],
      "stateMutability": "view",
      "type": "function"
    }
  ],
  "bytecode": "0x60808060405234610016576129d8908161001c8239f35b600080fdfe6080604052600436101561001257600080fd5b6000803560e01c63a54a2bcf1461002857600080fd5b3461035857610880366003190112610358576100433661035b565b3660c411610354576100543661036d565b90610884368111610350579161034c916103476020959461040060405261007d6101043561037b565b6100896101243561037b565b6100956101443561037b565b6100a16101643561037b565b6100ad6101843561037b565b6100b96101a43561037b565b6100c56101c43561037b565b6100d16101e43561037b565b6100dd6102043561037b565b6100e96102243561037b565b6100f56102443561037b565b6101016102643561037b565b61010d6102843561037b565b6101196102a43561037b565b6101256102c43561037b565b6101316102e43561037b565b61013d6103043561037b565b6101496103243561037b565b6101556103443561037b565b6101616103643561037b565b61016d6103843561037b565b6101796103a43561037b565b6101856103c43561037b565b6101916103e43561037b565b61019d6104043561037b565b6101a96104243561037b565b6101b56104443561037b565b6101c16104643561037b565b6101cd6104843561037b565b6101d96104a43561037b565b6101e56104c43561037b565b6101f16104e43561037b565b6101fd6105043561037b565b6102096105243561037b565b6102156105443561037b565b6102216105643561037b565b61022d6105843561037b565b6102396105a43561037b565b6102456105c43561037b565b6102516105e43561037b565b61025d6106043561037b565b6102696106243561037b565b6102756106443561037b565b6102816106643561037b565b61028d6106843561037b565b6102996106a43561037b565b6102a56106c43561037b565b6102b16106e43561037b565b6102bd6107043561037b565b6102c96107243561037b565b6102d56107443561037b565b6102e16107643561037b565b6102ed6107843561037b565b6102f96107a43561037b565b6103056107c43561037b565b6103116107e43561037b565b61031d6108043561037b565b6103296108243561037b565b6103356108443561037b565b6103416108643561037b565b3561037b565b612402565b8152f35b8380fd5b5080fd5b80fd5b9060049160441161036857565b600080fd5b9060c4916101041161036857565b7f30644e72e131a029b85045b68181585d97816a916871ca8d3c208c16d87cfd4711156103a457565b6000805260206000f35b604051907f1bc75b78e0d29fed273a5a0991bbb289bf107e46a258e1aa9c009e31590521b482527f281f1927bd6513b830753996c0aab88758854a643db16b884b1cf1b0e5b81aed6020830152604082019081526107cf196040836060816007855a01fa156103a45760409260066080939284938451905260a05160608401525a01fa156103a457565b604051907e858a2cd3fe8e3c4c19aec486565743d23150c7f738eb2088474511b6354bbc82527f02a750f85a5c67e7a7eb116b5bf45b4fe8d70a4423dc65a44119ef91b90dd9cd6020830152604082019081526107cf196040836060816007855a01fa156103a45760409260066080939284938451905260a05160608401525a01fa156103a457565b604051907f0de85ce3d457f97ed0c4e050d5f168f0bffef1d928187e168a5ed2d86b51c86782527f30622efe0ebf466b15a008632c7afb178a80e3b19e08fac82fd1f2ee225661416020830152604082019081526107cf196040836060816007855a01fa156103a45760409260066080939284938451905260a05160608401525a01fa156103a457565b604051907f07c4929263ec6a5696c586abc7a2d04d86418b5ba4c3e683921aa33fd095623e82527f15b3e163a8fe1d80c1e1915d44a024f9636844e595d0916cd12126652b7f7e416020830152604082019081526107cf196040836060816007855a01fa156103a45760409260066080939284938451905260a05160608401525a01fa156103a457565b604051907f1c9c627df9256c1fc2e0d692fbae2260fef7c4f0ec1d332df3845ce2ca718d7982527f04d1921fca6a2d6ed1cc89861b6bbe11d52437ae099bbe18e0c82491f27d95e16020830152604082019081526107cf196040836060816007855a01fa156103a45760409260066080939284938451905260a05160608401525a01fa156103a457565b604051907f03b98fa33db8e5a29b320f3186e1b54dac0a8afffa8668f3e4d210198bd411b782527f286897468d201f5eb4a125a5f4683a7fc629a7e67053b96c4cdb979dee4a06d76020830152604082019081526107cf196040836060816007855a01fa156103a45760409260066080939284938451905260a05160608401525a01fa156103a457565b604051907f294287ace30b48c7604826e8299de7141910c6bac951f966dbf651166354e6e782527f1f0763453f6b3cdb43acfa8aa94aebce429b884cfc1876852759b11eff8df7bd6020830152604082019081526107cf196040836060816007855a01fa156103a45760409260066080939284938451905260a05160608401525a01fa156103a457565b604051907f2e9d222f53d37b5693b0b5a7a81490b44d4b1648f8446c591806fc75f52debb482527f014989cf309faf5ee79f541b6d5a4bf210f2f20564407ecc5059f327bc7eed436020830152604082019081526107cf196040836060816007855a01fa156103a45760409260066080939284938451905260a05160608401525a01fa156103a457565b604051907f1bdc3a20ebc7e16503761f2deaa0d27adb3d53060e45cd77e763e0f5d69532e382527f251ae5f3f318371a8a8f45279ff1444709a115e2c6d43628e01a981edbd79d126020830152604082019081526107cf196040836060816007855a01fa156103a45760409260066080939284938451905260a05160608401525a01fa156103a457565b604051907f2a16658f3f65cf31e171c7224d480329500cd55dae57c1b7db2d9261cd36e68a82527f1a7fdf0b69fcbc2b13a278622dc66a7283059e164298a62430d81f402acab8be6020830152604082019081526107cf196040836060816007855a01fa156103a45760409260066080939284938451905260a05160608401525a01fa156103a457565b604051907f2a5ffe9a8f3292a995e2a30fa2c4915c33c47af86806b8547cb50adbca593f4782527f2067fdf297619caa75f96016b549db0cdfba5c6da3698fb35b31708d538be3e86020830152604082019081526107cf196040836060816007855a01fa156103a45760409260066080939284938451905260a05160608401525a01fa156103a457565b604051907f121b226ef9caa86583b15821b386e8f25c5b5d9c27bd995e8830c53ce53c619582527f0170013b50d3ab541701b019206f3321a5aaf50a256c31dbc550ffa05278897f6020830152604082019081526107cf196040836060816007855a01fa156103a45760409260066080939284938451905260a05160608401525a01fa156103a457565b604051907f09365f0827b07f34e99c3b1ed6946813cc36ec2bf911d1f4fb0fc4624ff75ab482527f03eb2ab00a8aa76d2f9cebaed394337da7a8d8a8ba4c6061b26c50327d57cdb16020830152604082019081526107cf196040836060816007855a01fa156103a45760409260066080939284938451905260a05160608401525a01fa156103a457565b604051907f22fa916e586ee4e573cda987e6d9a1378a57d8a0477e49414b1555a657403fc482527f05e1ecc994da04ffb2fbc3ee8a74dd89c46622dc77692b4ae9473e9b0964d5f56020830152604082019081526107cf196040836060816007855a01fa156103a45760409260066080939284938451905260a05160608401525a01fa156103a457565b604051907f13fdacaa421b6dc3958524cba779ce703a276e7657c6a34b7492925a1f8b725b82527f254022ee5bcd10964e3d72ac3a4373dea7febc03f11d27b5213312050e9aac5e6020830152604082019081526107cf196040836060816007855a01fa156103a45760409260066080939284938451905260a05160608401525a01fa156103a457565b604051907f1208f8d60111b19bf7aaac13d936f0b3f910e941d591c5457cc9b475efbc9bbc82527f15bde787c19077a858a889c6aeb89bbd23c36398488029ec232dc0fba94306f86020830152604082019081526107cf196040836060816007855a01fa156103a45760409260066080939284938451905260a05160608401525a01fa156103a457565b604051907e9a89a536b950697fff6c93a4b1d326304222df5e57d4c16f57056b5abdd46d82527f1ace7e48888c9cef75532c1a686ca8370662341515a33495cf5bc2710da5591a6020830152604082019081526107cf196040836060816007855a01fa156103a45760409260066080939284938451905260a05160608401525a01fa156103a457565b604051907f10dc593959254c85c9ee97aa76f282e5b2ed624d64388e8fbf522214b4f99ca982527f2db54e344fe8330a0e12fef25031ec48810cbfd22718456d4c91b2ce4e5e401c6020830152604082019081526107cf196040836060816007855a01fa156103a45760409260066080939284938451905260a05160608401525a01fa156103a457565b604051907f0118325cdcdec628367a0502946d3ad9f9b7dce96d4984463a88f2adfd20c88682527f09c422009e8e1c026fb306efc18c1a7bfa96352d29a91d693c6c4f3fcc3e5b406020830152604082019081526107cf196040836060816007855a01fa156103a45760409260066080939284938451905260a05160608401525a01fa156103a457565b604051907f2ea9ea1e85419f0255629907e3689735c963fe1b3239cac6f05c60089764177482527f2685533a55b4b8d23993a4d7e930d6e9988513f77bb0cf1068a407a7ff714b7f6020830152604082019081526107cf196040836060816007855a01fa156103a45760409260066080939284938451905260a05160608401525a01fa156103a457565b604051907f12f86e3e1c8d73067b713a0b13feb2f97b5012c6a377cf826d0b79ccecca278682527f16b5caf4b14faf4121e6da4562077b2a1711ccfd10f942ff430242f06d3e002b6020830152604082019081526107cf196040836060816007855a01fa156103a45760409260066080939284938451905260a05160608401525a01fa156103a457565b604051907f20bb0ed7d2b24fcd5aa03b79e167c0859cce562c25704c1e2b1bf270901a05e382527f1450e7ef02b1f8f72b9bfdde5894fa558dca4acca68956816d5c40bffd7b7daa6020830152604082019081526107cf196040836060816007855a01fa156103a45760409260066080939284938451905260a05160608401525a01fa156103a457565b604051907f14eead8854bbd3a89cf379e5260f5850fd6909e7286f053ac8ad4aaa28d65ac082527f2e816fde622b60784b2066ce94d2dee62af2afda0deed7420ea35776d43b80e16020830152604082019081526107cf196040836060816007855a01fa156103a45760409260066080939284938451905260a05160608401525a01fa156103a457565b604051907f0c0748b2bd3ca9b0777f9ef506c75e0581891a6558c29aa5e842c7429a0d6fd482527f0f990c8e9ec637d1fba155ccfe3dc82d69636377609f3ec8ffc58e57839038c46020830152604082019081526107cf196040836060816007855a01fa156103a45760409260066080939284938451905260a05160608401525a01fa156103a457565b604051907f0a2dcb8e47687c72e522bfef1168044d79afb9c47eca567ffa142cde108cdb3f82527f1f978ecc4239dec0abf6b7121e4b5019997d9d311d50e760a3d4a5bace6b14036020830152604082019081526107cf196040836060816007855a01fa156103a45760409260066080939284938451905260a05160608401525a01fa156103a457565b604051907f190fabeb18209cfb34e72b4c74e55f21aa7f5147411ebc6366eb62e849fe06a582527f08604d03eb5edcfdfb0dd02362e3f464e869e75e9cef3bff02f92e00422243176020830152604082019081526107cf196040836060816007855a01fa156103a45760409260066080939284938451905260a05160608401525a01fa156103a457565b604051907f0888cf085b3d9971e1110b6e263655df2400f846de5dcbf554e59ae2362ecfe282527f1aab885b2eb082fe017fb6577377f90e86ab19040d47526701f5d94ec36f954d6020830152604082019081526107cf196040836060816007855a01fa156103a45760409260066080939284938451905260a05160608401525a01fa156103a457565b604051907f149d0a99f3550953daf3d95170d44699fa309601c4fbd254bef2a9a404c65e6f82527f0ce1000af3e50c649a65463cec3c4ec7429c91544dd3426a03229f1b286f92ea6020830152604082019081526107cf196040836060816007855a01fa156103a45760409260066080939284938451905260a05160608401525a01fa156103a457565b604051907f1f32687c3048e99e0de5c1e5908d28757433165c289d694d88edafe5c13041cc82527f206c3e445488d6733469c6b663fc596a663d46ab3175c72c4968ab1b15e93e036020830152604082019081526107cf196040836060816007855a01fa156103a45760409260066080939284938451905260a05160608401525a01fa156103a457565b604051907f2ecae107e3b7b838d4cec08e93e03d89a28652b1e3da992f6656fad93359d02e82527f16914dd545e75756c66b39f0460ea5e28f90ade747c213a2c57200b225e736426020830152604082019081526107cf196040836060816007855a01fa156103a45760409260066080939284938451905260a05160608401525a01fa156103a457565b604051907f0515cc44d0f2ba52ea43ddd8fa2126928432d04fdb3a08f192ff7a6f46eae61d82527f300aed0be648cf0a4691e029a5da83383c63f08ffe1e301f4b5122020065ffb66020830152604082019081526107cf196040836060816007855a01fa156103a45760409260066080939284938451905260a05160608401525a01fa156103a457565b604051907f18e8bf028551c3733c16fc2e685e9227668ff69c4111e23f044e400717a03a5d82527f11993dace68208873a07e17d9730e785f826c7f30b9ba1f57eff2d11307f25516020830152604082019081526107cf196040836060816007855a01fa156103a45760409260066080939284938451905260a05160608401525a01fa156103a457565b604051907f21c3d9f612a6c6b357e37416772ca2436130038066a931358941002c0ac24ab282527f14b64b2766d6e93f658b9e01f80d4a8b7c0461a861e3c03ba9e833b8f7374dbe6020830152604082019081526107cf196040836060816007855a01fa156103a45760409260066080939284938451905260a05160608401525a01fa156103a457565b604051907f2d4d2a8f1ae5311894740bdbe412060f9e4626ae0fdd5015577bfa85ac79cccf82527f0b3f8a31ba61c75e9a46344701856b5fb26a96174203715b45e7bf0734d246b46020830152604082019081526107cf196040836060816007855a01fa156103a45760409260066080939284938451905260a05160608401525a01fa156103a457565b604051907f0b457c919507f186541f676db512bb8ee38d170f1e11febd6e0f46bba385020182527ed02b3887554669ef588efab18ddfaac31819e0bc59a99e689d412903442dc66020830152604082019081526107cf196040836060816007855a01fa156103a45760409260066080939284938451905260a05160608401525a01fa156103a457565b604051907f1ea2094408d65180621bda95508818cfe1888ea66f41ded4514f033d1dd4726582527f0f812651571e990ef6a189a55b2ce33243b4704a0dc1a6e607ee9a071f66d1106020830152604082019081526107cf196040836060816007855a01fa156103a45760409260066080939284938451905260a05160608401525a01fa156103a457565b604051907f290221c9270950e5c0a1f2920e0400beb06df45876af54f690552e3910803f4282527f1f0312a017f348fe5d4c8d3faf1e43a08c61e24b60838e23487c87244484ac206020830152604082019081526107cf196040836060816007855a01fa156103a45760409260066080939284938451905260a05160608401525a01fa156103a457565b604051907f29666c377ae94545a5d923ccc1a51df19c68f4a3b5d65ba8c3a828027562def582527f05d7460b5b399534311a959da5043a96ec4a5a668886648909bbda56e6f4b8496020830152604082019081526107cf196040836060816007855a01fa156103a45760409260066080939284938451905260a05160608401525a01fa156103a457565b604051907f0ad4e7807ffbc1faa95c2a39c2d420a28f95e017e3d61c6a1560a5d875bf14b382527f2cc124f26b272d16bd9925fb48e9c0869b54c28594161cae980997efb7c0c38c6020830152604082019081526107cf196040836060816007855a01fa156103a45760409260066080939284938451905260a05160608401525a01fa156103a457565b604051907f20f590682108d7586d0c587783ccbf89012c916cb9a450b61dcf62649ed2caf482527f214f17adf4dd27ee94c8e7d5ca3801dab78ccb4d6a03291f6ac50684f78fe2fd6020830152604082019081526107cf196040836060816007855a01fa156103a45760409260066080939284938451905260a05160608401525a01fa156103a457565b604051907ea38aedd107754b221883a71d39695dc3a48504058973b87fc402f74650ff2582527f1758469d2131b006dc1efb5a5515bff0aa81736a9a4b8e607ff2a8bd16938ff56020830152604082019081526107cf196040836060816007855a01fa156103a45760409260066080939284938451905260a05160608401525a01fa156103a457565b604051907f1d490894192d88fcc9e9882c7b02722bd441135ada494841e049837832696a7182527f2b4b8a2eeb521eac00839b27d42834a1dc27ccbc2cccaf30e6fbd45d3947bfef6020830152604082019081526107cf196040836060816007855a01fa156103a45760409260066080939284938451905260a05160608401525a01fa156103a457565b604051907f09fc43f6fa6ed445bdc9dd2d51e92db582a9b06874705c9c5ce3bcb19d650a6582527f20ba436414ceb681430ba87944d44cd94261db52b041df8f245ad7d41241dd266020830152604082019081526107cf196040836060816007855a01fa156103a45760409260066080939284938451905260a05160608401525a01fa156103a457565b604051907f2f2c77fb2ac2d12e9bd6ed1b359c95eb2e8c6fca0e787d9014a762515ca319c382527f069e5fdfb992494012dc15c6a6dc71a3e6ca9866ac29c63c90db1a38126a65616020830152604082019081526107cf196040836060816007855a01fa156103a45760409260066080939284938451905260a05160608401525a01fa156103a457565b604051907f26182e79c4d20706f97fa72c5b8d3b66db0314082f6defa2c7c045ee32b0b11182527f1ecf3ad8401da7ea1228949c3ce954c785c2dbdfd00a7a07cbab05a4564bdea06020830152604082019081526107cf196040836060816007855a01fa156103a45760409260066080939284938451905260a05160608401525a01fa156103a457565b604051907f1ce3053b3c3efc907ec2b70248b7f1d30a5bbefe61826a2e03b099ff8b3df7ae82527f24589b79f7693292ea372dbbc5ddfefde8c1d6ce1c35933ef8579ea3e6fe2fe46020830152604082019081526107cf196040836060816007855a01fa156103a45760409260066080939284938451905260a05160608401525a01fa156103a457565b604051907f281efb5585839407fa5235d70f22867bb0ef7f2abbbd6eb26e4e3937608c853082527f0c9a4681f5c27ac07ca9ada10136f5ccab23a4e3c8dfe9ed6526a212c727abc66020830152604082019081526107cf196040836060816007855a01fa156103a45760409260066080939284938451905260a05160608401525a01fa156103a457565b604051907f29b0d7bd258160e71cace5d456354e46f01b5a3774ee32649b59acaee77bf0cd82527f22f6479a8f046fbadbe29fd39a7f3ee62aa61f1c427d2f48bab43be24050b4066020830152604082019081526107cf196040836060816007855a01fa156103a45760409260066080939284938451905260a05160608401525a01fa156103a457565b604051907f119dff5b58006d87711707ef658b66de7e192cb45f907020af294f38bdccde8a82527f260da67c99c0dd7f5c856df19fd77e91aa80e89341ee7ced0756533c1f196b576020830152604082019081526107cf196040836060816007855a01fa156103a45760409260066080939284938451905260a05160608401525a01fa156103a457565b604051907f0b987a0a0fd2942c59f7fbc8b0ab2c5267ee7374e45de5ddecc991abb33a354c82527f1d5e265660e7eb7bd274ed7a0aae643f3ab93cee81d6986acc837f7a3b4035286020830152604082019081526107cf196040836060816007855a01fa156103a45760409260066080939284938451905260a05160608401525a01fa156103a457565b604051907f212c4faabb57642f0a37194461a168a1c4a86cc39a4b4e0402d61131d8cf7fbb82527f16b12e0c81c5fcd53c2cf07a0e8892cf7b7d2c57c60b38239dee0809b624f86f6020830152604082019081526107cf196040836060816007855a01fa156103a45760409260066080939284938451905260a05160608401525a01fa156103a457565b604051907f0a22066a6eafe7ba32265c1d0c4807a41f718b51957b095003e54b8b97475a7182527f2cda4ccf32a21d9219a8915bdb77ab623135f6cbcf2b9bd0b114168a4ceabb056020830152604082019081526107cf196040836060816007855a01fa156103a45760409260066080939284938451905260a05160608401525a01fa156103a457565b604051907f2869f7935139139b3ec3ba2eaa2acf88d76021993f1ecd5dfe74b4cc8aa4184982527f22bd306305edcf1de591607081f4f3a0819604bbf1f140389e40e5bb4dcc0a556020830152604082019081526107cf196040836060816007855a01fa156103a45760409260066080939284938451905260a05160608401525a01fa156103a457565b604051907f122aedec70c7b2baee154c662bedba5531b2cbc3b77c24b27ff6f84127084c1082527f09767f81590d25efa3681347f0a9cc9f1200354cabbf2b8308cdaeed6c36bcde6020830152604082019081526107cf196040836060816007855a01fa156103a45760409260066080939284938451905260a05160608401525a01fa156103a457565b604051907f172c9eb9b125ee67efa88fddc152b426994a85f74a71846dbc3d6866bb3c014782527f26259bccdfe70d4870ee05d6f75ab7d825a282d32ad5712d70339f73be4383d76020830152604082019081526107cf196040836060816007855a01fa156103a45760409260066080939284938451905260a05160608401525a01fa156103a457565b604051907f2421e48074b124be7b45a1e186f9d05206b78e746497b3278daefd9e51f22a7b82527f23d181d57678d40e9bbc75c55c894e3b34f82799afc65c19889f3b7fb4b20cb76020830152604082019081526107cf196040836060816007855a01fa156103a45760409260066080939284938451905260a05160608401525a01fa156103a457565b604051907f15b8c20dce12492dd17fa647bf92b6813c4faeaeef19518659735df3c706cfff82527f1514bbd51e317d7567d47800c9d08a45d3068be39e3afe9a305f10dcd47873296020830152604082019081526107cf196040836060816007855a01fa156103a45760409260066080939284938451905260a05160608401525a01fa156103a457565b604051907f29bb1a4c3617aee9604e8424291857c85f41a8f83e54560831c90b92fc2dd94382527f11e028f626afab6467b4ab45239a65bc5f9a19876d5556514771ccc5710da4946020830152604082019081526107cf196040836060816007855a01fa156103a45760409260066080939284938451905260a05160608401525a01fa156103a457565b604051907f2995c0e79ff294064b4e619c7d0b6c0c36edbc5d1c423529360d04226c87978782527f0f4204e155bbddab7af5a8c216b1cbb67f256a1a445da10ca1408983e5ed02f46020830152604082019081526107cf196040836060816007855a01fa156103a45760409260066080939284938451905260a05160608401525a01fa156103a457565b604051907f2805e2901343bd7b36103b1a6229d69bd20c5e3c1f96a49b4488f129a5eab49882527f2148cc526a7745a4d6379b2f7b6ef635a51a0a4aa8b04b9284dc8edd10cbc9c06020830152604082019081526107cf196040836060816007855a01fa156103a45760409260066080939284938451905260a05160608401525a01fa156103a457565b6020907f0d3ff173100f6192947da2aecac985166e1b3d779d6741fa10325bb4567256de6080527f10bc7363590432349260f3b1580a5731b756262a25ae465beb3ebac8053edd9660a052612459610104356103ae565b61246561012435610438565b612471610144356104c1565b61247d6101643561054b565b612489610184356105d5565b6124956101a43561065f565b6124a16101c4356106e9565b6124ad6101e435610773565b6124b9610204356107fd565b6124c561022435610887565b6124d161024435610911565b6124dd6102643561099b565b6124e961028435610a25565b6124f56102a435610aaf565b6125016102c435610b39565b61250d6102e435610bc3565b61251961030435610c4d565b61252561032435610cd6565b61253161034435610d60565b61253d61036435610dea565b61254961038435610e74565b6125556103a435610efe565b6125616103c435610f88565b61256d6103e435611012565b6125796104043561109c565b61258561042435611126565b612591610444356111b0565b61259d6104643561123a565b6125a9610484356112c4565b6125b56104a43561134e565b6125c16104c4356113d8565b6125cd6104e435611462565b6125d9610504356114ec565b6125e561052435611576565b6125f161054435611600565b6125fd61056435611689565b61260961058435611713565b6126156105a43561179d565b6126216105c435611827565b61262d6105e4356118b1565b6126396106043561193b565b612645610624356119c4565b61265161064435611a4e565b61265d61066435611ad8565b61266961068435611b62565b6126756106a435611bec565b6126816106c435611c76565b61268d6106e435611d00565b61269961070435611d8a565b6126a561072435611e14565b6126b161074435611e9e565b6126bd61076435611f28565b6126c961078435611fb2565b6126d56107a43561203c565b6126e16107c4356120c6565b6126ed6107e435612150565b6126f9610804356121da565b61270561082435612264565b612711610844356122ee565b61271d61086435612378565b61010092818492358352837f30644e72e131a029b85045b68181585d97816a916871ca8d3c208c16d87cfd479101358103066101205260443561014052606435610160526084356101805260a4356101a0527f2d4d9aa7e302d9df41749d5507949d05dbea33fbb16c643b22f599a2be6df2e26101c0527f14bedd503c37ceb061d8ec60209fe345ce89830a19230301f076caff004d19266101e0527f0967032fcbf776d1afc985f88877f182d38480a653f2decaa9794cbc3bf3060c610200527f0e187847ad4c798374d0d6732bf501847dd68bc0e071241e0213bc7fc13db7ab610220527f304cfbd1e08a704a99f5e847d93f8c3caafddec46b7a0d379da69a4d112346a7610240527f1739c1b1a457a8c7313123d24d2f9192f896b7c63eea05a9d57f06547ad0cec8610260526080516102805260a0516102a0527f198e9393920d483a7260bfb731fb5d25f1aa493335a9e71297e485b7aef312c26102c0527f1800deef121f1e76426a00665e5c4479674322d4f75edadd46debd5cd992f6ed6102e05282610300917f090689d0585ff075ec9e99ad690c3395bc4b313370b38ef355acdadcd122975b83527f12c85ea5db8c6deb4aab71808dcb408fe3d1e7690c43d37b4ce6cc0166fa7daa610320528035610340520135610360527f1dd183319549a98b6e3eb0a7f3dc78631dff68526620589101bcd1867d3e19f9610380527f20da893af3fe7cf73098ca0f3ac596fe8ece9550754404813af17db03b3d2e846103a0527f26e5f33c6dcfa51bfc3a925b33a74af9df4a1626bad967265d4cb05b16bcec086103c0527f12b3cbdc3b1e911f11703e2cb5e2c3c2decc401fe0ba9591b56e72404f90868b6103e0528160086107cf195a01fa9051169056fea2646970667358221220099576381cc08144e300c32f0a4092b525117662819adbf3ef080c382bd3dfdd64736f6c634300080f0033",
  "linkReferences": {},
  "deployedLinkReferences": {}
}