{
  "_format": "hh-sol-artifact-1",
  "contractName": "Groth16Verifier",
  "sourceName": "contracts/Game_3_500Verifier.sol",
  "abi": [
    {
      "inputs": [
        {
          "internalType": "uint256[2]",
          "name": "_pA",
          "type": "uint256[2]"
        },
        {
          "internalType": "uint256[2][2]",
          "name": "_pB",
          "type": "uint256[2][2]"
        },
        {
          "internalType": "uint256[2]",
          "name": "_pC",
          "type": "uint256[2]"
        },
        {
          "internalType": "uint256[30]",
          "name": "_pubSignals",
          "type": "uint256[30]"
        }
      ],
      "name": "verifyProof",
      "outputs": [
        {
          "internalType": "bool",
          "name": "",
          "type": "bool"
        }
      ],
      "stateMutability": "view",
      "type": "function"
    }
  ],
  "bytecode": "0x60808060405234610016576116df908161001c8239f35b600080fdfe6080604052600436101561001257600080fd5b6000803560e01c630e9464081461002857600080fd5b346101f0576104c03660031901126101f057610043366101f3565b3660c4116101ec5761005436610205565b906104c43681116101e857916101e4916101df6020959461040060405261007d61010435610213565b61008961012435610213565b61009561014435610213565b6100a161016435610213565b6100ad61018435610213565b6100b96101a435610213565b6100c56101c435610213565b6100d16101e435610213565b6100dd61020435610213565b6100e961022435610213565b6100f561024435610213565b61010161026435610213565b61010d61028435610213565b6101196102a435610213565b6101256102c435610213565b6101316102e435610213565b61013d61030435610213565b61014961032435610213565b61015561034435610213565b61016161036435610213565b61016d61038435610213565b6101796103a435610213565b6101856103c435610213565b6101916103e435610213565b61019d61040435610213565b6101a961042435610213565b6101b561044435610213565b6101c161046435610213565b6101cd61048435610213565b6101d96104a435610213565b35610213565b611271565b8152f35b8380fd5b5080fd5b80fd5b9060049160441161020057565b600080fd5b9060c4916101041161020057565b7f30644e72e131a029b85045b68181585d97816a916871ca8d3c208c16d87cfd47111561023c57565b6000805260206000f35b604051907f0d3bd12d181ac0e5b97543a46b43dd5475670b0932cac140c14a052f44e8df7382527f15bc89b055a62d111aea67a816a1b627faa52252e027ff371ef223cfd102897a6020830152604082019081526107cf196040836060816007855a01fa1561023c5760409260066080939284938451905260a05160608401525a01fa1561023c57565b604051907f2fc895f33d45af5d7e3866809cfa52c7511ada22234c8aa1fd11bcc5ca3b2d9182527f1a341ed19671818ad3986b341eb194d3f64fbdba584e33d7efb3174b2d753c446020830152604082019081526107cf196040836060816007855a01fa1561023c5760409260066080939284938451905260a05160608401525a01fa1561023c57565b604051907f10f807c563e34910135d1d2cab43804a34bae399144f1cf73bcdc0acfb72d59982527f06579ed269f2922da78be7978b8e9d55c94fdeff2cff7f34cbd07b3ca38c82e56020830152604082019081526107cf196040836060816007855a01fa1561023c5760409260066080939284938451905260a05160608401525a01fa1561023c57565b604051907f2cd10500fdc580df30ba3fd5495d149f044a1c9fd7a59d430457e498fc48a63f82527f1128982a0476cbf41bf4fc1c05b1476088b75466e6cc7604394d2328f94009266020830152604082019081526107cf196040836060816007855a01fa1561023c5760409260066080939284938451905260a05160608401525a01fa1561023c57565b604051907f1b873b3d527a6eef24c16c86a74712560134cc382bf51d022a958e13be00fd3a82527f0778054c2bf520bda5a7131530baf260ce6efe2936898a3a8e9cc361adf9d7c26020830152604082019081526107cf196040836060816007855a01fa1561023c5760409260066080939284938451905260a05160608401525a01fa1561023c57565b604051907f1646069a77097c7939247a445fb6b0a7bfd8047d851cc4786bd2dc2f351107a882527f2273841d7e046189899ccff5979441a7ae55506abd87c1640adabf82bc0513c36020830152604082019081526107cf196040836060816007855a01fa1561023c5760409260066080939284938451905260a05160608401525a01fa1561023c57565b604051907f2186567250b67fb393aa42d9bb88cac619ec7980884958f81c345e78cd8f97b882527f06083fcbff04eda711c83a1a1f4a658ae4275596e22e7b09134eaca8460e94536020830152604082019081526107cf196040836060816007855a01fa1561023c5760409260066080939284938451905260a05160608401525a01fa1561023c57565b604051907f274881787573faea85f78d68afed3a2b4a63fb0a2c1202f1ce45808d3094990582527f0c68167bfd7d59389f0b3736741fe5ea2798816e28fd9c2013e4121e8bca65fa6020830152604082019081526107cf196040836060816007855a01fa1561023c5760409260066080939284938451905260a05160608401525a01fa1561023c57565b604051907f2da9cd54c75f7c27c32f9d6b7e4ae6fa8791963f6f717a592c536a99f1920c0482527f06d9c417d6d1b5674267952c42609aa7b66a619be2fbffcc618a3eea64b7442d6020830152604082019081526107cf196040836060816007855a01fa1561023c5760409260066080939284938451905260a05160608401525a01fa1561023c57565b604051907f2a383ec2728cda2d00c0623587c99836b6a5b9f1c10775f6a66a7ca27ab6f67282527f19846cf1f7a6130e0e01cc83e570c97fa13bef37281df25bb8909d58a10b3f686020830152604082019081526107cf196040836060816007855a01fa1561023c5760409260066080939284938451905260a05160608401525a01fa1561023c57565b604051907f1f305c9a55783950cb3af44feb6d7920fd02ab1a8961c3210dc181700b8df3af82527f166739c20c22a9d704152937ca3b9b6f0229634453ce99ed46fbaf695c0a97326020830152604082019081526107cf196040836060816007855a01fa1561023c5760409260066080939284938451905260a05160608401525a01fa1561023c57565b604051907f18c60d28e76beb16b2be480babfb5405c52934a683b86f2c5b3f527dac6cb79d82527f24b434a1b52e285e2d8c44d8cc68cdc423d87fd7d66bc29714df6de115e16fe96020830152604082019081526107cf196040836060816007855a01fa1561023c5760409260066080939284938451905260a05160608401525a01fa1561023c57565b604051907f1a90d91f44f04d811fbc4b958e05ec1b6dc9e0e83d694ae9e813b2337ec1704782527f0a6172fdb6e6302fe351c46c90e91e655ae2d108dc9040e8866e74155d05f1a96020830152604082019081526107cf196040836060816007855a01fa1561023c5760409260066080939284938451905260a05160608401525a01fa1561023c57565b604051907f0e2bf511254681085f44f313af6ded54cffc2a8e98a20336d486182ea135f0a082527f0eef76c747b2ac33a2c50edf531b31165be7da3ae90c0dcbe257b29fdcabf2746020830152604082019081526107cf196040836060816007855a01fa1561023c5760409260066080939284938451905260a05160608401525a01fa1561023c57565b604051907f19efd592fab3615908ced5a52b031e31c86d60102b955c73c417957f635af5fd82527f2323934f8f4a7f83223446fb28688da8faa5edae83a11a0aa702bfa07276e4926020830152604082019081526107cf196040836060816007855a01fa1561023c5760409260066080939284938451905260a05160608401525a01fa1561023c57565b604051907f01be6cc77999d9a048c14ff8d4d6fdb4aa15ad031cf28032e23e14bae6fb0e3182527f05c145aded1cadc10da4cdd14846f5258581d03e1eb90771198560c64e4325696020830152604082019081526107cf196040836060816007855a01fa1561023c5760409260066080939284938451905260a05160608401525a01fa1561023c57565b604051907f286f4fc59c8ba4e2011ef7cf0fad171c4ebb4a1e025fcb49792ee42792019a1282527f130a9dde7cf1e5df0d04fc32a242a10b3efbd80c7bacd30f6369e9aa48af2f2c6020830152604082019081526107cf196040836060816007855a01fa1561023c5760409260066080939284938451905260a05160608401525a01fa1561023c57565b604051907f1815f7efc29da0d226c4c5e0c015e1c217f5f1248f30fdb26a66c6348ed31fd282527f15867099c51ee9a95b63e408493771391400194802e2d209c197af135393e1916020830152604082019081526107cf196040836060816007855a01fa1561023c5760409260066080939284938451905260a05160608401525a01fa1561023c57565b604051907f1523610b6a7e3566153231ca583f7340dfb9623686e5a230558b09247fb8908082527f0714c486613756e04c6e27125e48965683b2c463e246f8fb01bf9b075eb95c2b6020830152604082019081526107cf196040836060816007855a01fa1561023c5760409260066080939284938451905260a05160608401525a01fa1561023c57565b604051907f29e6109d8e6422f8d944a58636ef0c955aaf8f75a342cb10bb1dd6b5f48ca35582527f22fba2a36b7614f53ccbb80e62eaeaff6bb5062e0573d0a79474d77a7b77480f6020830152604082019081526107cf196040836060816007855a01fa1561023c5760409260066080939284938451905260a05160608401525a01fa1561023c57565b604051907f1629a23f4d088ac2d09969a9bfc361829156b59497ec73e484871e354a3c02d282527f264a2cc221be8dbd2e94162bc2c2749a5a5523ed5065c1013d81e94ff482ae3a6020830152604082019081526107cf196040836060816007855a01fa1561023c5760409260066080939284938451905260a05160608401525a01fa1561023c57565b604051907f11d105d0632b271fd7be5938c2081d398a41218b08b8983ba12811ff1e7c85a882527f206aa7f8d630d62199cdf32f793cc396a624b50a150d102013571193f9cde28e6020830152604082019081526107cf196040836060816007855a01fa1561023c5760409260066080939284938451905260a05160608401525a01fa1561023c57565b604051907f1ad84a146c519fb10745135ee8da3acec1a790097aab340d214bf3a89baaf80c82527f2b67fe879567cabcfd806c06dede79a687c3398bfdafe656bec4449c8b32ff176020830152604082019081526107cf196040836060816007855a01fa1561023c5760409260066080939284938451905260a05160608401525a01fa1561023c57565b604051907f293893960b7c41cd6960f01a7dcbcec6036163d2c39b9478febb0c7e2f40cf4f82527f24db4a2a567921f4fc60b6a8e25d20a2509d2233dd3b51c13eeb9a1966516a6c6020830152604082019081526107cf196040836060816007855a01fa1561023c5760409260066080939284938451905260a05160608401525a01fa1561023c57565b604051907f09da6555f4be4cb38c3b92a725efb0152a4aa875cd83f10978b5e6c6c3ea91d882527f1778f1d1299643830100fb5e0d95c91c56773386d8998ef06921cc4a888dafe86020830152604082019081526107cf196040836060816007855a01fa1561023c5760409260066080939284938451905260a05160608401525a01fa1561023c57565b604051907e91603e6fc3c75e7e9dc71a5df4f29f7e9229aff1e34cc0849bf084d10fa31982527f14fa0c15cfa57126b86b7b1ce7dee3511835a49c22c0ce91c0a0d98afedd9e796020830152604082019081526107cf196040836060816007855a01fa1561023c5760409260066080939284938451905260a05160608401525a01fa1561023c57565b604051907f0eab610c7035747e74e489cebc6871c9a8216acd93a0028b8fd0992a64b0bf4682527f08208316f8ecd2a7b08c61f26843530786a012ac5bb620d305564a74652f77836020830152604082019081526107cf196040836060816007855a01fa1561023c5760409260066080939284938451905260a05160608401525a01fa1561023c57565b604051907f0cfa7b7bef3d9e9ec6b3091d45df2ed88a59ec3c30faa11bfbd9b231b1c931e782527f05844fb1cb56f3e8befc9ee997388779aa0e7719f32a1cec3b560360d36f7b656020830152604082019081526107cf196040836060816007855a01fa1561023c5760409260066080939284938451905260a05160608401525a01fa1561023c57565b604051907f0cf67a8ddbaea77fbc943e426f153838c9f2620c93704ed53458d65d5482a06082527f29fa4390e38ab781202cd7d33e85dc28cbaae81104e5e7c99db146c2539a08886020830152604082019081526107cf196040836060816007855a01fa1561023c5760409260066080939284938451905260a05160608401525a01fa1561023c57565b604051907f154bc0bbc35afbb90314cad274f4c1b765af1ddeb9b428a4cc45f0225d1999f882527f1050a9b5e029706e28baa444b3f9922e4e547c0a92ea22104c4a18912eab6d5f6020830152604082019081526107cf196040836060816007855a01fa1561023c5760409260066080939284938451905260a05160608401525a01fa1561023c57565b6020907f29c530397c81b6d1e98b07a14aa4408f4757733dc83bc62d635a3428118a97606080527f0eb3411d6d25a9d1698f54199533707acc9b680172267cc77fe657275c9d78d860a0526112c861010435610246565b6112d4610124356102d0565b6112e06101443561035a565b6112ec610164356103e4565b6112f86101843561046e565b6113046101a4356104f8565b6113106101c435610582565b61131c6101e43561060c565b61132861020435610696565b61133461022435610720565b611340610244356107aa565b61134c61026435610834565b611358610284356108be565b6113646102a435610948565b6113706102c4356109d2565b61137c6102e435610a5c565b61138861030435610ae6565b61139461032435610b70565b6113a061034435610bfa565b6113ac61036435610c84565b6113b861038435610d0e565b6113c46103a435610d98565b6113d06103c435610e22565b6113dc6103e435610eac565b6113e861040435610f36565b6113f461042435610fc0565b61140061044435611049565b61140c610464356110d3565b6114186104843561115d565b6114246104a4356111e7565b61010092818492358352837f30644e72e131a029b85045b68181585d97816a916871ca8d3c208c16d87cfd479101358103066101205260443561014052606435610160526084356101805260a4356101a0527f2d4d9aa7e302d9df41749d5507949d05dbea33fbb16c643b22f599a2be6df2e26101c0527f14bedd503c37ceb061d8ec60209fe345ce89830a19230301f076caff004d19266101e0527f0967032fcbf776d1afc985f88877f182d38480a653f2decaa9794cbc3bf3060c610200527f0e187847ad4c798374d0d6732bf501847dd68bc0e071241e0213bc7fc13db7ab610220527f304cfbd1e08a704a99f5e847d93f8c3caafddec46b7a0d379da69a4d112346a7610240527f1739c1b1a457a8c7313123d24d2f9192f896b7c63eea05a9d57f06547ad0cec8610260526080516102805260a0516102a0527f198e9393920d483a7260bfb731fb5d25f1aa493335a9e71297e485b7aef312c26102c0527f1800deef121f1e76426a00665e5c4479674322d4f75edadd46debd5cd992f6ed6102e05282610300917f090689d0585ff075ec9e99ad690c3395bc4b313370b38ef355acdadcd122975b83527f12c85ea5db8c6deb4aab71808dcb408fe3d1e7690c43d37b4ce6cc0166fa7daa610320528035610340520135610360527f2b0e4f10609eeb0f0777173e90b82d73bf6829e97855fa306262e945bb3d2886610380527f0ea077115907acf82961241ce4b7d7d81c54c2952a975f1b1509d30c1fc942ce6103a0527f1ba57d92897b662b0ba8fece11bcda0635ddcf4e55b97c112694e9985404ed3a6103c0527f2a85b3a6026441c4578e031f52cfe2160cd289dde2026678eedd57c5765484686103e0528160086107cf195a01fa9051169056fea2646970667358221220872ad4e10f02dc3a67301e77a8490e2651c839c7ea380bd09155ebc4cf2dbaf064736f6c634300080f0033",
  "linkReferences": {},
  "deployedLinkReferences": {}
}