{
  "_format": "hh-sol-artifact-1",
  "contractName": "AnybodyProblem",
  "sourceName": "contracts/AnybodyProblem.sol",
  "abi": [
    {
      "inputs": [
        {
          "internalType": "address payable",
          "name": "proceedRecipient_",
          "type": "address"
        },
        {
          "internalType": "address payable",
          "name": "speedruns_",
          "type": "address"
        },
        {
          "internalType": "address",
          "name": "externalMetadata_",
          "type": "address"
        },
        {
          "internalType": "address[]",
          "name": "verifiers_",
          "type": "address[]"
        },
        {
          "internalType": "uint256[]",
          "name": "verifiersTicks",
          "type": "uint256[]"
        },
        {
          "internalType": "uint256[]",
          "name": "verifiersBodies",
          "type": "uint256[]"
        }
      ],
      "stateMutability": "nonpayable",
      "type": "constructor"
    },
    {
      "anonymous": false,
      "inputs": [
        {
          "indexed": true,
          "internalType": "address",
          "name": "to",
          "type": "address"
        },
        {
          "indexed": true,
          "internalType": "bool",
          "name": "success",
          "type": "bool"
        },
        {
          "indexed": false,
          "internalType": "bytes",
          "name": "returnData",
          "type": "bytes"
        },
        {
          "indexed": false,
          "internalType": "uint256",
          "name": "amount",
          "type": "uint256"
        }
      ],
      "name": "EthMoved",
      "type": "event"
    },
    {
      "anonymous": false,
      "inputs": [
        {
          "indexed": false,
          "internalType": "uint256",
          "name": "runId",
          "type": "uint256"
        },
        {
          "indexed": false,
          "internalType": "uint256",
          "name": "level",
          "type": "uint256"
        },
        {
          "indexed": false,
          "internalType": "bytes32",
          "name": "seed",
          "type": "bytes32"
        },
        {
          "indexed": false,
          "internalType": "uint256",
          "name": "day",
          "type": "uint256"
        }
      ],
      "name": "LevelCreated",
      "type": "event"
    },
    {
      "anonymous": false,
      "inputs": [
        {
          "indexed": true,
          "internalType": "address",
          "name": "player",
          "type": "address"
        },
        {
          "indexed": true,
          "internalType": "uint256",
          "name": "runId",
          "type": "uint256"
        },
        {
          "indexed": true,
          "internalType": "uint256",
          "name": "level",
          "type": "uint256"
        },
        {
          "indexed": false,
          "internalType": "uint256",
          "name": "time",
          "type": "uint256"
        },
        {
          "indexed": false,
          "internalType": "uint256",
          "name": "day",
          "type": "uint256"
        }
      ],
      "name": "LevelSolved",
      "type": "event"
    },
    {
      "anonymous": false,
      "inputs": [
        {
          "indexed": true,
          "internalType": "address",
          "name": "previousOwner",
          "type": "address"
        },
        {
          "indexed": true,
          "internalType": "address",
          "name": "newOwner",
          "type": "address"
        }
      ],
      "name": "OwnershipTransferred",
      "type": "event"
    },
    {
      "anonymous": false,
      "inputs": [
        {
          "indexed": false,
          "internalType": "uint256",
          "name": "runId",
          "type": "uint256"
        },
        {
          "indexed": false,
          "internalType": "uint256",
          "name": "day",
          "type": "uint256"
        },
        {
          "indexed": false,
          "internalType": "bytes32",
          "name": "seed",
          "type": "bytes32"
        }
      ],
      "name": "RunCreated",
      "type": "event"
    },
    {
      "anonymous": false,
      "inputs": [
        {
          "indexed": true,
          "internalType": "address",
          "name": "player",
          "type": "address"
        },
        {
          "indexed": true,
          "internalType": "uint256",
          "name": "runId",
          "type": "uint256"
        },
        {
          "indexed": false,
          "internalType": "uint256",
          "name": "accumulativeTime",
          "type": "uint256"
        },
        {
          "indexed": false,
          "internalType": "uint256",
          "name": "day",
          "type": "uint256"
        }
      ],
      "name": "RunSolved",
      "type": "event"
    },
    {
      "stateMutability": "nonpayable",
      "type": "fallback"
    },
    {
      "inputs": [],
      "name": "FIRST_SUNDAY_AT_6_PM_UTC",
      "outputs": [
        {
          "internalType": "uint256",
          "name": "",
          "type": "uint256"
        }
      ],
      "stateMutability": "view",
      "type": "function"
    },
    {
      "inputs": [],
      "name": "LEVELS",
      "outputs": [
        {
          "internalType": "uint256",
          "name": "",
          "type": "uint256"
        }
      ],
      "stateMutability": "view",
      "type": "function"
    },
    {
      "inputs": [],
      "name": "SECONDS_IN_A_DAY",
      "outputs": [
        {
          "internalType": "uint256",
          "name": "",
          "type": "uint256"
        }
      ],
      "stateMutability": "view",
      "type": "function"
    },
    {
      "inputs": [],
      "name": "SECONDS_IN_A_WEEK",
      "outputs": [
        {
          "internalType": "uint256",
          "name": "",
          "type": "uint256"
        }
      ],
      "stateMutability": "view",
      "type": "function"
    },
    {
      "inputs": [
        {
          "internalType": "uint256",
          "name": "runId",
          "type": "uint256"
        },
        {
          "internalType": "uint256[]",
          "name": "tickCounts",
          "type": "uint256[]"
        },
        {
          "internalType": "uint256[2][]",
          "name": "a",
          "type": "uint256[2][]"
        },
        {
          "internalType": "uint256[2][2][]",
          "name": "b",
          "type": "uint256[2][2][]"
        },
        {
          "internalType": "uint256[2][]",
          "name": "c",
          "type": "uint256[2][]"
        },
        {
          "internalType": "uint256[][]",
          "name": "input",
          "type": "uint256[][]"
        }
      ],
      "name": "batchSolve",
      "outputs": [],
      "stateMutability": "payable",
      "type": "function"
    },
    {
      "inputs": [
        {
          "internalType": "uint256[]",
          "name": "input",
          "type": "uint256[]"
        }
      ],
      "name": "convertTo102",
      "outputs": [
        {
          "internalType": "uint256[102]",
          "name": "",
          "type": "uint256[102]"
        }
      ],
      "stateMutability": "pure",
      "type": "function"
    },
    {
      "inputs": [
        {
          "internalType": "uint256[]",
          "name": "input",
          "type": "uint256[]"
        }
      ],
      "name": "convertTo112",
      "outputs": [
        {
          "internalType": "uint256[112]",
          "name": "",
          "type": "uint256[112]"
        }
      ],
      "stateMutability": "pure",
      "type": "function"
    },
    {
      "inputs": [
        {
          "internalType": "uint256[]",
          "name": "input",
          "type": "uint256[]"
        }
      ],
      "name": "convertTo22",
      "outputs": [
        {
          "internalType": "uint256[22]",
          "name": "",
          "type": "uint256[22]"
        }
      ],
      "stateMutability": "pure",
      "type": "function"
    },
    {
      "inputs": [
        {
          "internalType": "uint256[]",
          "name": "input",
          "type": "uint256[]"
        }
      ],
      "name": "convertTo32",
      "outputs": [
        {
          "internalType": "uint256[32]",
          "name": "",
          "type": "uint256[32]"
        }
      ],
      "stateMutability": "pure",
      "type": "function"
    },
    {
      "inputs": [
        {
          "internalType": "uint256[]",
          "name": "input",
          "type": "uint256[]"
        }
      ],
      "name": "convertTo42",
      "outputs": [
        {
          "internalType": "uint256[42]",
          "name": "",
          "type": "uint256[42]"
        }
      ],
      "stateMutability": "pure",
      "type": "function"
    },
    {
      "inputs": [
        {
          "internalType": "uint256[]",
          "name": "input",
          "type": "uint256[]"
        }
      ],
      "name": "convertTo52",
      "outputs": [
        {
          "internalType": "uint256[52]",
          "name": "",
          "type": "uint256[52]"
        }
      ],
      "stateMutability": "pure",
      "type": "function"
    },
    {
      "inputs": [
        {
          "internalType": "uint256[]",
          "name": "input",
          "type": "uint256[]"
        }
      ],
      "name": "convertTo62",
      "outputs": [
        {
          "internalType": "uint256[62]",
          "name": "",
          "type": "uint256[62]"
        }
      ],
      "stateMutability": "pure",
      "type": "function"
    },
    {
      "inputs": [
        {
          "internalType": "uint256[]",
          "name": "input",
          "type": "uint256[]"
        }
      ],
      "name": "convertTo72",
      "outputs": [
        {
          "internalType": "uint256[72]",
          "name": "",
          "type": "uint256[72]"
        }
      ],
      "stateMutability": "pure",
      "type": "function"
    },
    {
      "inputs": [
        {
          "internalType": "uint256[]",
          "name": "input",
          "type": "uint256[]"
        }
      ],
      "name": "convertTo82",
      "outputs": [
        {
          "internalType": "uint256[82]",
          "name": "",
          "type": "uint256[82]"
        }
      ],
      "stateMutability": "pure",
      "type": "function"
    },
    {
      "inputs": [
        {
          "internalType": "uint256[]",
          "name": "input",
          "type": "uint256[]"
        }
      ],
      "name": "convertTo92",
      "outputs": [
        {
          "internalType": "uint256[92]",
          "name": "",
          "type": "uint256[92]"
        }
      ],
      "stateMutability": "pure",
      "type": "function"
    },
    {
      "inputs": [],
      "name": "currentDay",
      "outputs": [
        {
          "internalType": "uint256",
          "name": "",
          "type": "uint256"
        }
      ],
      "stateMutability": "view",
      "type": "function"
    },
    {
      "inputs": [
        {
          "internalType": "uint256",
          "name": "runId",
          "type": "uint256"
        }
      ],
      "name": "currentLevel",
      "outputs": [
        {
          "internalType": "uint256",
          "name": "",
          "type": "uint256"
        }
      ],
      "stateMutability": "view",
      "type": "function"
    },
    {
      "inputs": [],
      "name": "currentWeek",
      "outputs": [
        {
          "internalType": "uint256",
          "name": "",
          "type": "uint256"
        }
      ],
      "stateMutability": "view",
      "type": "function"
    },
    {
      "inputs": [],
      "name": "externalMetadata",
      "outputs": [
        {
          "internalType": "address",
          "name": "",
          "type": "address"
        }
      ],
      "stateMutability": "view",
      "type": "function"
    },
    {
      "inputs": [
        {
          "components": [
            {
              "internalType": "uint256",
              "name": "bodyIndex",
              "type": "uint256"
            },
            {
              "internalType": "uint256",
              "name": "px",
              "type": "uint256"
            },
            {
              "internalType": "uint256",
              "name": "py",
              "type": "uint256"
            },
            {
              "internalType": "uint256",
              "name": "vx",
              "type": "uint256"
            },
            {
              "internalType": "uint256",
              "name": "vy",
              "type": "uint256"
            },
            {
              "internalType": "uint256",
              "name": "radius",
              "type": "uint256"
            },
            {
              "internalType": "bytes32",
              "name": "seed",
              "type": "bytes32"
            }
          ],
          "internalType": "struct AnybodyProblem.Body",
          "name": "bodyData",
          "type": "tuple"
        },
        {
          "internalType": "uint256[]",
          "name": "input",
          "type": "uint256[]"
        },
        {
          "internalType": "uint256",
          "name": "i",
          "type": "uint256"
        }
      ],
      "name": "extractBodyData",
      "outputs": [
        {
          "components": [
            {
              "internalType": "uint256",
              "name": "bodyIndex",
              "type": "uint256"
            },
            {
              "internalType": "uint256",
              "name": "px",
              "type": "uint256"
            },
            {
              "internalType": "uint256",
              "name": "py",
              "type": "uint256"
            },
            {
              "internalType": "uint256",
              "name": "vx",
              "type": "uint256"
            },
            {
              "internalType": "uint256",
              "name": "vy",
              "type": "uint256"
            },
            {
              "internalType": "uint256",
              "name": "radius",
              "type": "uint256"
            },
            {
              "internalType": "bytes32",
              "name": "seed",
              "type": "bytes32"
            }
          ],
          "internalType": "struct AnybodyProblem.Body",
          "name": "",
          "type": "tuple"
        }
      ],
      "stateMutability": "pure",
      "type": "function"
    },
    {
      "inputs": [
        {
          "internalType": "uint256",
          "name": "",
          "type": "uint256"
        },
        {
          "internalType": "uint256",
          "name": "",
          "type": "uint256"
        }
      ],
      "name": "fastestByDay",
      "outputs": [
        {
          "internalType": "uint256",
          "name": "",
          "type": "uint256"
        }
      ],
      "stateMutability": "view",
      "type": "function"
    },
    {
      "inputs": [
        {
          "internalType": "uint256",
          "name": "",
          "type": "uint256"
        },
        {
          "internalType": "uint256",
          "name": "",
          "type": "uint256"
        }
      ],
      "name": "fastestByWeek",
      "outputs": [
        {
          "internalType": "address",
          "name": "",
          "type": "address"
        }
      ],
      "stateMutability": "view",
      "type": "function"
    },
    {
      "inputs": [
        {
          "internalType": "address",
          "name": "",
          "type": "address"
        }
      ],
      "name": "gamesPlayed",
      "outputs": [
        {
          "internalType": "uint256",
          "name": "total",
          "type": "uint256"
        },
        {
          "internalType": "uint256",
          "name": "lastPlayed",
          "type": "uint256"
        },
        {
          "internalType": "uint256",
          "name": "streak",
          "type": "uint256"
        }
      ],
      "stateMutability": "view",
      "type": "function"
    },
    {
      "inputs": [
        {
          "internalType": "uint256",
          "name": "index",
          "type": "uint256"
        }
      ],
      "name": "genRadius",
      "outputs": [
        {
          "internalType": "uint256",
          "name": "",
          "type": "uint256"
        }
      ],
      "stateMutability": "pure",
      "type": "function"
    },
    {
      "inputs": [
        {
          "internalType": "uint256",
          "name": "day",
          "type": "uint256"
        },
        {
          "internalType": "uint256",
          "name": "level",
          "type": "uint256"
        }
      ],
      "name": "generateLevelData",
      "outputs": [
        {
          "components": [
            {
              "internalType": "uint256",
              "name": "bodyIndex",
              "type": "uint256"
            },
            {
              "internalType": "uint256",
              "name": "px",
              "type": "uint256"
            },
            {
              "internalType": "uint256",
              "name": "py",
              "type": "uint256"
            },
            {
              "internalType": "uint256",
              "name": "vx",
              "type": "uint256"
            },
            {
              "internalType": "uint256",
              "name": "vy",
              "type": "uint256"
            },
            {
              "internalType": "uint256",
              "name": "radius",
              "type": "uint256"
            },
            {
              "internalType": "bytes32",
              "name": "seed",
              "type": "bytes32"
            }
          ],
          "internalType": "struct AnybodyProblem.Body[6]",
          "name": "bodyData",
          "type": "tuple[6]"
        },
        {
          "internalType": "uint256",
          "name": "bodyCount",
          "type": "uint256"
        }
      ],
      "stateMutability": "view",
      "type": "function"
    },
    {
      "inputs": [
        {
          "internalType": "uint256",
          "name": "id",
          "type": "uint256"
        },
        {
          "internalType": "uint256",
          "name": "index",
          "type": "uint256"
        }
      ],
      "name": "generateSeed",
      "outputs": [
        {
          "internalType": "bytes32",
          "name": "",
          "type": "bytes32"
        }
      ],
      "stateMutability": "view",
      "type": "function"
    },
    {
      "inputs": [
        {
          "internalType": "uint256[]",
          "name": "input",
          "type": "uint256[]"
        }
      ],
      "name": "getLevelFromInputs",
      "outputs": [
        {
          "internalType": "uint256",
          "name": "bodyCount",
          "type": "uint256"
        },
        {
          "internalType": "uint256",
          "name": "dummyCount",
          "type": "uint256"
        }
      ],
      "stateMutability": "pure",
      "type": "function"
    },
    {
      "inputs": [
        {
          "internalType": "uint256",
          "name": "day",
          "type": "uint256"
        },
        {
          "internalType": "uint256",
          "name": "level",
          "type": "uint256"
        },
        {
          "internalType": "uint256",
          "name": "bodyIndex",
          "type": "uint256"
        }
      ],
      "name": "getLevelSeed",
      "outputs": [
        {
          "internalType": "bytes32",
          "name": "",
          "type": "bytes32"
        }
      ],
      "stateMutability": "pure",
      "type": "function"
    },
    {
      "inputs": [
        {
          "internalType": "uint256",
          "name": "runId",
          "type": "uint256"
        }
      ],
      "name": "getLevelsData",
      "outputs": [
        {
          "components": [
            {
              "internalType": "bool",
              "name": "solved",
              "type": "bool"
            },
            {
              "internalType": "uint256",
              "name": "time",
              "type": "uint256"
            },
            {
              "internalType": "bytes32",
              "name": "seed",
              "type": "bytes32"
            },
            {
              "internalType": "uint256[5]",
              "name": "tmpInflightMissile",
              "type": "uint256[5]"
            },
            {
              "components": [
                {
                  "internalType": "uint256",
                  "name": "bodyIndex",
                  "type": "uint256"
                },
                {
                  "internalType": "uint256",
                  "name": "px",
                  "type": "uint256"
                },
                {
                  "internalType": "uint256",
                  "name": "py",
                  "type": "uint256"
                },
                {
                  "internalType": "uint256",
                  "name": "vx",
                  "type": "uint256"
                },
                {
                  "internalType": "uint256",
                  "name": "vy",
                  "type": "uint256"
                },
                {
                  "internalType": "uint256",
                  "name": "radius",
                  "type": "uint256"
                },
                {
                  "internalType": "bytes32",
                  "name": "seed",
                  "type": "bytes32"
                }
              ],
              "internalType": "struct AnybodyProblem.Body[6]",
              "name": "tmpBodyData",
              "type": "tuple[6]"
            }
          ],
          "internalType": "struct AnybodyProblem.Level[]",
          "name": "levels",
          "type": "tuple[]"
        }
      ],
      "stateMutability": "view",
      "type": "function"
    },
    {
      "inputs": [
        {
          "internalType": "bytes32",
          "name": "dayLevelIndexSeed",
          "type": "bytes32"
        },
        {
          "internalType": "uint256",
          "name": "index",
          "type": "uint256"
        }
      ],
      "name": "getRandomValues",
      "outputs": [
        {
          "components": [
            {
              "internalType": "uint256",
              "name": "bodyIndex",
              "type": "uint256"
            },
            {
              "internalType": "uint256",
              "name": "px",
              "type": "uint256"
            },
            {
              "internalType": "uint256",
              "name": "py",
              "type": "uint256"
            },
            {
              "internalType": "uint256",
              "name": "vx",
              "type": "uint256"
            },
            {
              "internalType": "uint256",
              "name": "vy",
              "type": "uint256"
            },
            {
              "internalType": "uint256",
              "name": "radius",
              "type": "uint256"
            },
            {
              "internalType": "bytes32",
              "name": "seed",
              "type": "bytes32"
            }
          ],
          "internalType": "struct AnybodyProblem.Body",
          "name": "",
          "type": "tuple"
        }
      ],
      "stateMutability": "pure",
      "type": "function"
    },
    {
      "inputs": [
        {
          "internalType": "uint256",
          "name": "",
          "type": "uint256"
        }
      ],
      "name": "longestStreak",
      "outputs": [
        {
          "internalType": "address",
          "name": "",
          "type": "address"
        }
      ],
      "stateMutability": "view",
      "type": "function"
    },
    {
      "inputs": [
        {
          "internalType": "uint256",
          "name": "",
          "type": "uint256"
        }
      ],
      "name": "maxTicksByLevelIndex",
      "outputs": [
        {
          "internalType": "uint256",
          "name": "",
          "type": "uint256"
        }
      ],
      "stateMutability": "view",
      "type": "function"
    },
    {
      "inputs": [],
      "name": "maxVector",
      "outputs": [
        {
          "internalType": "uint256",
          "name": "",
          "type": "uint256"
        }
      ],
      "stateMutability": "view",
      "type": "function"
    },
    {
      "inputs": [],
      "name": "maxVectorScaled",
      "outputs": [
        {
          "internalType": "uint256",
          "name": "",
          "type": "uint256"
        }
      ],
      "stateMutability": "view",
      "type": "function"
    },
    {
      "inputs": [
        {
          "internalType": "uint256",
          "name": "",
          "type": "uint256"
        }
      ],
      "name": "mostGames",
      "outputs": [
        {
          "internalType": "address",
          "name": "",
          "type": "address"
        }
      ],
      "stateMutability": "view",
      "type": "function"
    },
    {
      "inputs": [],
      "name": "owner",
      "outputs": [
        {
          "internalType": "address",
          "name": "",
          "type": "address"
        }
      ],
      "stateMutability": "view",
      "type": "function"
    },
    {
      "inputs": [],
      "name": "paused",
      "outputs": [
        {
          "internalType": "bool",
          "name": "",
          "type": "bool"
        }
      ],
      "stateMutability": "view",
      "type": "function"
    },
    {
      "inputs": [],
      "name": "price",
      "outputs": [
        {
          "internalType": "uint256",
          "name": "",
          "type": "uint256"
        }
      ],
      "stateMutability": "view",
      "type": "function"
    },
    {
      "inputs": [],
      "name": "proceedRecipient",
      "outputs": [
        {
          "internalType": "address payable",
          "name": "",
          "type": "address"
        }
      ],
      "stateMutability": "view",
      "type": "function"
    },
    {
      "inputs": [
        {
          "internalType": "uint256",
          "name": "min",
          "type": "uint256"
        },
        {
          "internalType": "uint256",
          "name": "max",
          "type": "uint256"
        },
        {
          "internalType": "bytes32",
          "name": "rand",
          "type": "bytes32"
        }
      ],
      "name": "randomRange",
      "outputs": [
        {
          "internalType": "uint256",
          "name": "",
          "type": "uint256"
        }
      ],
      "stateMutability": "pure",
      "type": "function"
    },
    {
      "inputs": [
        {
          "internalType": "address payable",
          "name": "_to",
          "type": "address"
        }
      ],
      "name": "recoverUnsuccessfulPayment",
      "outputs": [],
      "stateMutability": "nonpayable",
      "type": "function"
    },
    {
      "inputs": [],
      "name": "renounceOwnership",
      "outputs": [],
      "stateMutability": "nonpayable",
      "type": "function"
    },
    {
      "inputs": [
        {
          "internalType": "uint256",
          "name": "tokenId",
          "type": "uint256"
        },
        {
          "internalType": "uint256",
          "name": "salePrice",
          "type": "uint256"
        }
      ],
      "name": "royaltyInfo",
      "outputs": [
        {
          "internalType": "address",
          "name": "",
          "type": "address"
        },
        {
          "internalType": "uint256",
          "name": "",
          "type": "uint256"
        }
      ],
      "stateMutability": "view",
      "type": "function"
    },
    {
      "inputs": [],
      "name": "runCount",
      "outputs": [
        {
          "internalType": "uint256",
          "name": "",
          "type": "uint256"
        }
      ],
      "stateMutability": "view",
      "type": "function"
    },
    {
      "inputs": [
        {
          "internalType": "uint256",
          "name": "",
          "type": "uint256"
        }
      ],
      "name": "runs",
      "outputs": [
        {
          "internalType": "address",
          "name": "owner",
          "type": "address"
        },
        {
          "internalType": "bool",
          "name": "solved",
          "type": "bool"
        },
        {
          "internalType": "uint256",
          "name": "accumulativeTime",
          "type": "uint256"
        },
        {
          "internalType": "bytes32",
          "name": "seed",
          "type": "bytes32"
        },
        {
          "internalType": "uint256",
          "name": "day",
          "type": "uint256"
        }
      ],
      "stateMutability": "view",
      "type": "function"
    },
    {
      "inputs": [],
      "name": "scalingFactor",
      "outputs": [
        {
          "internalType": "uint256",
          "name": "",
          "type": "uint256"
        }
      ],
      "stateMutability": "view",
      "type": "function"
    },
    {
      "inputs": [],
      "name": "speedFactor",
      "outputs": [
        {
          "internalType": "uint256",
          "name": "",
          "type": "uint256"
        }
      ],
      "stateMutability": "view",
      "type": "function"
    },
    {
      "inputs": [],
      "name": "speedruns",
      "outputs": [
        {
          "internalType": "address payable",
          "name": "",
          "type": "address"
        }
      ],
      "stateMutability": "view",
      "type": "function"
    },
    {
      "inputs": [
        {
          "internalType": "bytes4",
          "name": "interfaceId",
          "type": "bytes4"
        }
      ],
      "name": "speedrunsSupportsInterface",
      "outputs": [
        {
          "internalType": "bool",
          "name": "",
          "type": "bool"
        }
      ],
      "stateMutability": "pure",
      "type": "function"
    },
    {
      "inputs": [
        {
          "internalType": "uint256",
          "name": "id",
          "type": "uint256"
        }
      ],
      "name": "speedrunsTokenURI",
      "outputs": [
        {
          "internalType": "string",
          "name": "",
          "type": "string"
        }
      ],
      "stateMutability": "view",
      "type": "function"
    },
    {
      "inputs": [],
      "name": "startingRadius",
      "outputs": [
        {
          "internalType": "uint256",
          "name": "",
          "type": "uint256"
        }
      ],
      "stateMutability": "view",
      "type": "function"
    },
    {
      "inputs": [
        {
          "internalType": "bytes4",
          "name": "interfaceId",
          "type": "bytes4"
        }
      ],
      "name": "supportsInterface",
      "outputs": [
        {
          "internalType": "bool",
          "name": "",
          "type": "bool"
        }
      ],
      "stateMutability": "view",
      "type": "function"
    },
    {
      "inputs": [],
      "name": "timeUntilEndOfWeek",
      "outputs": [
        {
          "internalType": "uint256",
          "name": "",
          "type": "uint256"
        }
      ],
      "stateMutability": "view",
      "type": "function"
    },
    {
      "inputs": [
        {
          "internalType": "address",
          "name": "newOwner",
          "type": "address"
        }
      ],
      "name": "transferOwnership",
      "outputs": [],
      "stateMutability": "nonpayable",
      "type": "function"
    },
    {
      "inputs": [
        {
          "internalType": "address",
          "name": "externalMetadata_",
          "type": "address"
        }
      ],
      "name": "updateExternalMetadata",
      "outputs": [],
      "stateMutability": "nonpayable",
      "type": "function"
    },
    {
      "inputs": [
        {
          "internalType": "bool",
          "name": "paused_",
          "type": "bool"
        }
      ],
      "name": "updatePaused",
      "outputs": [],
      "stateMutability": "nonpayable",
      "type": "function"
    },
    {
      "inputs": [
        {
          "internalType": "uint256",
          "name": "price_",
          "type": "uint256"
        }
      ],
      "name": "updatePrice",
      "outputs": [],
      "stateMutability": "nonpayable",
      "type": "function"
    },
    {
      "inputs": [
        {
          "internalType": "address payable",
          "name": "proceedRecipient_",
          "type": "address"
        }
      ],
      "name": "updateProceedRecipient",
      "outputs": [],
      "stateMutability": "nonpayable",
      "type": "function"
    },
    {
      "inputs": [
        {
          "internalType": "address payable",
          "name": "speedruns_",
          "type": "address"
        }
      ],
      "name": "updateSpeedrunsAddress",
      "outputs": [],
      "stateMutability": "nonpayable",
      "type": "function"
    },
    {
      "inputs": [
        {
          "internalType": "address",
          "name": "verifier_",
          "type": "address"
        },
        {
          "internalType": "uint256",
          "name": "verifierBodies",
          "type": "uint256"
        },
        {
          "internalType": "uint256",
          "name": "verifierTicks",
          "type": "uint256"
        }
      ],
      "name": "updateVerifier",
      "outputs": [],
      "stateMutability": "nonpayable",
      "type": "function"
    },
    {
      "inputs": [
        {
          "internalType": "bytes32",
          "name": "",
          "type": "bytes32"
        }
      ],
      "name": "usedProofs",
      "outputs": [
        {
          "internalType": "bool",
          "name": "",
          "type": "bool"
        }
      ],
      "stateMutability": "view",
      "type": "function"
    },
    {
      "inputs": [
        {
          "internalType": "uint256",
          "name": "",
          "type": "uint256"
        },
        {
          "internalType": "uint256",
          "name": "",
          "type": "uint256"
        }
      ],
      "name": "verifiers",
      "outputs": [
        {
          "internalType": "address",
          "name": "",
          "type": "address"
        }
      ],
      "stateMutability": "view",
      "type": "function"
    },
    {
      "inputs": [
        {
          "components": [
            {
              "internalType": "uint256",
              "name": "bodyIndex",
              "type": "uint256"
            },
            {
              "internalType": "uint256",
              "name": "px",
              "type": "uint256"
            },
            {
              "internalType": "uint256",
              "name": "py",
              "type": "uint256"
            },
            {
              "internalType": "uint256",
              "name": "vx",
              "type": "uint256"
            },
            {
              "internalType": "uint256",
              "name": "vy",
              "type": "uint256"
            },
            {
              "internalType": "uint256",
              "name": "radius",
              "type": "uint256"
            },
            {
              "internalType": "bytes32",
              "name": "seed",
              "type": "bytes32"
            }
          ],
          "internalType": "struct AnybodyProblem.Body",
          "name": "bodyData",
          "type": "tuple"
        },
        {
          "internalType": "uint256[]",
          "name": "input",
          "type": "uint256[]"
        },
        {
          "internalType": "uint256",
          "name": "bodyCount",
          "type": "uint256"
        },
        {
          "internalType": "uint256",
          "name": "i",
          "type": "uint256"
        }
      ],
      "name": "verifyBodyDataMatches",
      "outputs": [],
      "stateMutability": "pure",
      "type": "function"
    },
    {
      "inputs": [
        {
          "internalType": "uint256",
          "name": "bodyCount",
          "type": "uint256"
        },
        {
          "internalType": "address",
          "name": "verifier",
          "type": "address"
        },
        {
          "internalType": "uint256[2]",
          "name": "a",
          "type": "uint256[2]"
        },
        {
          "internalType": "uint256[2][2]",
          "name": "b",
          "type": "uint256[2][2]"
        },
        {
          "internalType": "uint256[2]",
          "name": "c",
          "type": "uint256[2]"
        },
        {
          "internalType": "uint256[]",
          "name": "input",
          "type": "uint256[]"
        }
      ],
      "name": "verifyProof",
      "outputs": [],
      "stateMutability": "view",
      "type": "function"
    },
    {
      "inputs": [
        {
          "internalType": "address",
          "name": "",
          "type": "address"
        },
        {
          "internalType": "uint256",
          "name": "",
          "type": "uint256"
        },
        {
          "internalType": "uint256",
          "name": "",
          "type": "uint256"
        }
      ],
      "name": "weeklyRecords",
      "outputs": [
        {
          "internalType": "uint256",
          "name": "",
          "type": "uint256"
        }
      ],
      "stateMutability": "view",
      "type": "function"
    },
    {
      "inputs": [],
      "name": "windowWidth",
      "outputs": [
        {
          "internalType": "uint256",
          "name": "",
          "type": "uint256"
        }
      ],
      "stateMutability": "view",
      "type": "function"
    },
    {
      "stateMutability": "payable",
      "type": "receive"
    }
  ],
  "bytecode": "0x610120604052346200071d57620050f7803803806200001e816200073d565b928339810160c0828203126200071d57620000398262000763565b90620000486020840162000763565b620000566040850162000763565b60e05260608401516001600160401b0381116200071d5784019382601f860112156200071d57845194620000946200008e8762000778565b6200073d565b9560208088838152019160051b830101918583116200071d57602001905b828210620007225750505060808101516001600160401b0381116200071d5783620000df91830162000790565b60a08201519093906001600160401b0381116200071d5762000102920162000790565b60008054336001600160a01b03198216811783556040519396939290916001600160a01b0316907f8be0079c531659141344cd1fd0a4f28419497f9722a3daafe3b4186f6b6457e09084a36003805460ff191690556608e1bc9bf040006004556001600160401b0360a0820190811190821117620005bd5760a0810160405260fa81526101f460208201526102ee60408201526103e860608201526104e260808201526008906000905b600582106200070257505060408051915081018082116001600160401b0390911117620005bd57604081016040526001815260005b60208110620006a95750805190680100000000000000008211620005bd5760175482601755808310620005d3575b5060176000908152600080516020620050d783398151915292916020015b8282106200039257505050506200024362000911565b60e051600680546001600160a01b0319166001600160a01b03929092169190911790556200027062000911565b600580546001600160a01b0319166001600160a01b03929092169190911790556200029a62000911565b600780546001600160a01b0319166001600160a01b039290921691909117905560005b83518110156200038257620002e0620002d78284620008a6565b511515620008d1565b620003026001600160a01b03620002f88387620008a6565b51161515620008d1565b6001600160a01b03620003168286620008a6565b5116620003248285620008a6565b51600052601860205260406000206200033e8385620008a6565b5160005260205260406000209060018060a01b031982541617905560001981146200036c57600101620002bd565b634e487b7160e01b600052601160045260246000fd5b60405161476c90816200096b8239f35b60a08151600180831b0381511686549060ff841b60208401511515851b169160018060a81b031916171786556040810151600187015560608101516002870155608081015160038701550151805190680100000000000000008211620005bd57600486015482600488015580831062000547575b50602001906004860160005260206000206000915b8083106200043b575050505060056020600192019401910190926200022d565b969593949a91989b929990978a518051151560ff80198c54169116178a55602081015160018b0155604081015160028b0155606081015160805260038a0160c05260005b6005811062000526575060800151610100526008890160a05260005b60068110156200050557600190600761010051602081519160c083519360a051948555838101518886015560408101516002860155606081015160038601556080810151600486015560a081015160058601550151600684015501610100520160a052016200049b565b5097929b989099603260206001929d97969899949d0194019101916200041b565b60019081608051602081519160c051928355016080520160c052016200047f565b62000552906200081e565b6200055d836200081e565b906004880160005260206000209182015b81830181106200058057505062000406565b806000603292556000600182015560006002820155620005b660088201620005ac81600385016200084f565b8383019062000868565b016200056e565b634e487b7160e01b600052604160045260246000fd5b620005de90620007ed565b620005e983620007ed565b6017600052600080516020620050d7833981519152919082015b8183018110620006155750506200020f565b60008155600060018201556000600282015560006003820155600481015460006004830155806200064b575b5060050162000603565b62000656906200081e565b600482016000526020600020908101905b81811062000676575062000641565b806000603292556000600182015560006002820155620006a260088201620005ac81600385016200084f565b0162000667565b604051906001600160401b0360c0830190811190831117620005bd578160c06020930160405260008152600083820152600060408201526000606082015260006080820152606060a082015282828501015201620001e1565b600160208261ffff83945116865501930191019091620001ac565b600080fd5b60208091620007318462000763565b815201910190620000b2565b6040519190601f01601f191682016001600160401b03811183821017620005bd57604052565b51906001600160a01b03821682036200071d57565b6001600160401b038111620005bd5760051b60200190565b9080601f830112156200071d57815190620007af6200008e8362000778565b9182938184526020808095019260051b8201019283116200071d578301905b828210620007dd575050505090565b81518152908301908301620007ce565b7f333333333333333333333333333333333333333333333333333333333333333381116001166200036c5760050290565b7f051eb851eb851eb851eb851eb851eb851eb851eb851eb851eb851eb851eb851e81116001166200036c5760320290565b8181106200085b575050565b600081556001016200084f565b81811062000874575050565b600790600080825580600183015580600283015580600383015580600483015580600583015560068201550162000868565b8051821015620008bb5760209160051b010190565b634e487b7160e01b600052603260045260246000fd5b15620008d957565b60405162461bcd60e51b815260206004820152601060248201526f24b73b30b634b2103b32b934b334b2b960811b6044820152606490fd5b6000546001600160a01b031633036200092657565b606460405162461bcd60e51b815260206004820152602060248201527f4f776e61626c653a2063616c6c6572206973206e6f7420746865206f776e65726044820152fdfe60806040526004361015610097575b361561005b57346100565760405162461bcd60e51b81526020600482015260156024820152746e6f2066616c6c6261636b207468616e6b20796f7560581b6044820152606490fd5b600080fd5b60405162461bcd60e51b81526020600482015260146024820152736e6f2072656365697665207468616e6b20796f7560601b6044820152606490fd5b60003560e01c8063010520a114612d62578063014a30d214612d1a57806301ffc9a714612cc5578063041df08214612cac57806306575c8914612c9157806308cdc2a814612c56578063098b5e9314612bb55780630b27ce3f14612b8c57806310d80a5514612b62578063132d5ed914612b44578063158b38b614612b01578063159f82b114612abb5780632a55205a14612a185780632b057afa146129ca5780632e93a49214612994578063355f74071461277557806335d6f0cc146129735780633ef2570b1461294f57806343569ffb146129145780634b9862d9146128f85780634caa028b146128b05780634dbe7f73146128815780635103d6ea146127ee5780635120a261146127d1578063530ab7dc1461278357806353e52f09146127755780635542437b146127315780635bd6b2ea146126e95780635c9302c9146126c75780635c975abb146126a45780636498c1281461266e5780636ef24f2d146125cd57806370180bc11461257c578063715018a61461251d57806371b8ccb0146124d3578063770c5da11461249d5780637a19b190146123fc578063861f7556146122ec57806387b07780146122c35780638cc52cf3146122a55780638d6cc56d146122845780638da5cb5b1461225b578063907311b1146121ba5780639196b7001461218f5780639654c1f7146121635780639691f1ab1461213d57806398a6a641146120f65780639bc49617146120cd578063a035b1fe146120af578063ac4a604714612067578063adcbb85b14611fdd578063ae66f57c14611ef6578063b24f67b814611e15578063bd2c955214611d48578063c30a0f2514611d17578063c8b90ebb14611c69578063cc80b8ea14611c25578063d8531e6e14611bdb578063de89d1c11461058d578063e2adba8c14610571578063ed3437f814610554578063f2fde38b1461048c578063f6fbc39a146103ee578063f81c8ec3146103d0578063f9cfa06f146103b25763ffd73d3b0361000e5734610056576103803661303e565b90600052600d60205260406000206003821015610056576020916103a39161325b565b90549060031b1c604051908152f35b34610056576000366003190112610056576020604051620151808152f35b34610056576000366003190112610056576020604051620f42408152f35b346100565760203660031901126100565760043563ffffffff60e01b8116809103610056576020906301ffc9a760e01b811490811561047b575b811561046a575b8115610459575b8115610448575b506040519015158152f35b632483248360e11b1490508261043d565b63152a902d60e11b81149150610436565b6303a24d0760e21b8114915061042f565b636cdb3d1360e11b81149150610428565b34610056576020366003190112610056576104a56130e1565b6104ad613401565b6001600160a01b0390811690811561050057600080546001600160a01b031981168417825560405191939192167f8be0079c531659141344cd1fd0a4f28419497f9722a3daafe3b4186f6b6457e08484a3f35b60405162461bcd60e51b815260206004820152602660248201527f4f776e61626c653a206e6577206f776e657220697320746865207a65726f206160448201526564647265737360d01b6064820152608490fd5b346100565760003660031901126100565760206040516103e88152f35b3461005657600036600319011261005657602060405160058152f35b60c0366003190112610056576024356001600160401b038111610056576105b8903690600401612fb4565b6044356001600160401b038111610056576105d7903690600401613395565b606435906001600160401b03821161005657366023830112156100565781600401359161060383612f9d565b926106116040519485612f7c565b80845260208401913660248360071b830101116100565760248101925b60248360071b8301018410611b7f57505050506084356001600160401b03811161005657610660903690600401613395565b906001600160401b0360a435116100565736602360a4350112156100565760a4356004013561068e81612f9d565b9061069c6040519283612f7c565b80825260208201903660248260051b60a43501011161005657602460a43501915b60248260051b60a43501018310611b4a575050506004359360ff60035416611b10576106ee62015180420642613489565b9385156117a7575b6106ff866132d8565b50546001600160a01b031633036117535760ff61071b876132d8565b505460a01c16611719576003610730876132d8565b50015485036116c55760005b83518110156116c35761074f8189613475565b5161075a8287613475565b516107658386613475565b516107708486613475565b519061077c8589613475565b519160405161078e6020820186613a82565b600083606083015b600283106116a5575050506107ae60e0820183613a82565b61012081018185519160208701926000905b8082106116895750506107dc925003601f198101835282612f7c565b602081519101209182600052601960205260ff6040600020541661164f578c9561082b9360005260196020526040600020600160ff19825416179055600461082386614407565b9590986132d8565b50015480970361160a576001871061112b5760ff61085b8f61084c906132d8565b506000198a019060040161388e565b5054166115ce57600119871161112b57610878846001890161368b565b600052601860205260406000209060005260205260018060a01b0360406000205416918215611596576108b66108b18560018a0161368b565b613084565b801960051161112b57600119600582011161112b5733906001600160a01b03906108e39060060188613475565b5116036115435761091260038f6108fc61090b916132d8565b506000198b019060040161388e565b5001613494565b6040519061091f82612dca565b6109376108b16109328860018d0161368b565b61309a565b801960051161112b57600219600582011161112b576007610959910188613475565b51825261096f6108b16109328860018d0161368b565b801960051161112b57600219600582011161112b57600119600782011161112b57600861099d910188613475565b5160208301526109b66108b16109328860018d0161368b565b801960051161112b57600219600582011161112b57600219600782011161112b5760096109e4910188613475565b5160408301526109fd6108b16109328860018d0161368b565b801960051161112b57600219600582011161112b57600319600782011161112b57600a610a2b910188613475565b516060830152610a446108b16109328860018d0161368b565b801960051161112b57600219600582011161112b57600419600782011161112b57600b610a72910188613475565b518060808401528061145d575b505050604051610a8e81612dca565b610a9786613468565b5181528551600110156111155760408601516020820152855160021015611115576060860151604082015285516003101561111557608086015160608201528551600410156111155760038f6108fc610af99160a08a015160808601526132d8565b50016000915b6005831061144757505050610b1a6108b18560018a0161368b565b91821960051161112b578592600501610b339084613475565b5196610b428660018b0161368b565b94610b4c95613f92565b610b558b6132d8565b50610b689060001986019060040161388e565b50610b72906134d9565b92602084015190610b829161368b565b8060208501526000198501600511156111155760078501541061140c5790828b8593600093610baf613601565b5060005b60018701811061131b5750505090610bdf610bd0610be5936132d8565b5060001986019060040161388e565b906138aa565b14610bfb575b5050610bf690613459565b61073c565b906020600592610c26610c178c9b989c9d99969d9a979a6132d8565b5060001985019060040161388e565b50600160ff19825416179055828a8383015160405190815289858201527f416328325568dd8681e48de39e8d89a80ddf01a688fbcb49c28c621071c9333b60403392a40151610c836001610c798b6132d8565b500191825461368b565b90550361130157610c93866132d8565b50805460ff60a01b1916600160a01b17905560045434036112c8576005546040516000918291829134906001600160a01b03165af1610cd0613ac5565b6007546001600160a01b0316803b15610056576000809160a46040518094819363093ccd3160e41b83523360048401528b602484015260016044840152608060648401528160848401525af18015611215576112b9575b507fb08889abce443443404b2caf69aa3ccfb9ebfdf1ad2a634d06e11e24c1067938610d6c60018060a01b036005541692604051918291604083526040830190613348565b943460208301521515940390a3856001610d85826132d8565b5001546040519081528460208201527f7f05a2f6290fe88fe25ed1665c50706361d709c5003e3067340b9053916fd70760403392a33360005260146020526040600020610dd28154613459565b9055610de6610de0876132d8565b50613b02565b9660005b6080890151600052600d60205260038110156112aa576080890151600052610e28610de0610e1c83604060002061325b565b90549060031b1c6132d8565b6040808b01519101518091109081156112a1575b50610e4f57610e4a90613459565b610dea565b96889194976080829a9b94979b9895980151600052600d60205260025b81811161123d575090610eae610e958493608080960151600052600d602052604060002061325b565b819391549060031b600019811b9283911b169119161790565b9055015160405190602082015260208152610ec881612e13565b604051610ed481612e13565b60018152602036818301377ff8e1a15aba9398e019f0b49df1a4fde98ee17ae345cb5f6b5e2c27f5033e8ce7610f0982613468565b526007546001600160a01b031690813b15610056579160405192839163b46f007160e01b8352604483016040600485015282518091526020606485019301906000905b80821061122157505050600083610f728296948294600319848303016024850152613348565b03925af1801561121557611206575b505b6003610f8e886132d8565b50015433600052601460205260406000209060405191610fad83612df8565b805483526002600182015491826020860152015460408401526201518019811161112b57620151800181146111ef57600160408301525b6020820152336000526014602052604060002081518155602082015160018201556002604083015191015560005b60038110611141575b5050336000526014602052604060002060026040519161103a83612df8565b80548352600181015460208401520154604082015260005b60038110611069575b5050610bf6905b9089610beb565b8151600e8201546001600160a01b03166000908152601460205260409020541061109b5761109690613459565b611052565b905060025b8181116110c45750600e0180546001600160a01b03191633179055610bf68961105b565b6001811061112b5760036000198201101561111557600d8101546001600160a01b0316906003811015611115576111109181600e01906001600160601b0360a01b825416179055613af5565b6110a0565b634e487b7160e01b600052603260045260246000fd5b634e487b7160e01b600052601160045260246000fd5b604082015160018060a01b038260110154166000526014602052600260406000200154106111775761117290613459565b611012565b905060025b81811161119e575060110180546001600160a01b03191633179055888061101b565b6001811061112b576003600019820110156111155760108101546001600160a01b0316906003811015611115576111ea9181601101906001600160601b0360a01b825416179055613af5565b61117c565b6111fc6040830151613459565b6040830152610fe4565b61120f90612de5565b88610f81565b6040513d6000823e3d90fd5b8251855287955060209485019490920191600190910190610f4c565b9091506080830151600052600d6020526040600020906001811061112b5761126d6112999260001983019061325b565b90549060031b1c6080850151600052600d602052611292610e9583604060002061325b565b9055613af5565b908991610e6c565b9050158b610e3c565b50929596509296939093610f83565b6112c290612de5565b8a610d27565b60405162461bcd60e51b8152602060048201526011602482015270125b98dbdc9c9958dd081c185e5b595b9d607a1b6044820152606490fd5b9296610bf6906113168798949796939661398d565b611062565b9250928382959661134d8561134661135296600161133e846080819a015161366b565b51950161368b565b8484613c4b565b613b59565b81156113b2575b60a081015115611395575b90611383816113899360808901519061137d838361366b565b5261366b565b50613459565b85939285928e92610bb3565b9390611383816113a761138994613459565b969250925050611364565b60a08101516113595760405162461bcd60e51b8152602060048201526024808201527f596f752073686f742074686520626f647920796f752073686f756c642070726f6044820152631d1958dd60e21b6064820152608490fd5b60405162461bcd60e51b8152602060048201526013602482015272151a5b59481b1a5b5a5d08195e18d959591959606a1b6044820152606490fd5b6001602082829351855501920192019190610aff565b81519083518092149283611530575b8361151d575b8361150a575b836114fc575b50501591826114eb575b5081156114e3575b501561149e578f8080610a7f565b60405162461bcd60e51b815260206004820152601760248201527f496e76616c696420696e666c696768744d697373696c650000000000000000006044820152606490fd5b905038611490565b60200151620f424014915038611488565b60800151149150388061147e565b9250606083015160608501511492611478565b9250604083015160408501511492611472565b925060208301516020850151149261146c565b60405162461bcd60e51b815260206004820152602560248201527f4f776e6572206f6620746869732070726f6f66206973206e6f7420746865207360448201526432b73232b960d91b6064820152608490fd5b60405162461bcd60e51b815260206004820152601060248201526f24b73b30b634b2103b32b934b334b2b960811b6044820152606490fd5b60405162461bcd60e51b815260206004820152601460248201527313195d995b08185b1c9958591e481cdbdb1d995960621b6044820152606490fd5b60405162461bcd60e51b815260206004820152601f60248201527f50726576696f7573206c6576656c206e6f742079657420636f6d706c657465006044820152606490fd5b60405162461bcd60e51b8152602060048201526012602482015271141c9bdbd988185b1c9958591e481d5cd95960721b6044820152606490fd5b91600191935060208091865181520194019201849293916107c0565b60206040826116b76001948651613a82565b01920192019190610796565b005b60405162461bcd60e51b815260206004820152602660248201527f43616e206f6e6c7920736f6c76652072756e73206f6e207468652063757272656044820152656e742064617960d01b6064820152608490fd5b60405162461bcd60e51b8152602060048201526012602482015271149d5b88185b1c9958591e481cdbdb1d995960721b6044820152606490fd5b60405162461bcd60e51b815260206004820152602660248201527f4f6e6c7920746865206f776e6572206f66207468652072756e2063616e20736f6044820152651b1d99481a5d60d21b6064820152608490fd5b9450601754946040516117b981612daf565b60006020820152600060408201526000606082015260006080820152606060a08201523381526001431061112b57604051876020820152600060408201526000194301406060820152606081528060808101106001600160401b03608083011117611ae45760808101604052602081519101206060820152856080820152600160401b871015611ae45760018701601755611853876132d8565b611afa578151815460208401516001600160a81b03199091166001600160a01b03929092169190911790151560a090811b60ff60a01b16919091178255604083015160018301556060830151600283015560808301516003830155820151805190600160401b8211611ae4576004830154826004850155808310611a34575b50602060049101920160005260206000206000905b82821061193a57505050506060807fbe33ae7a5df03243155e17a5896a63473638d0a5042d1504b59ea59ff0f2b0a5920151604051908982528860208301526040820152a16119358661398d565b6106f6565b95839a939b94959892999b9791975161196281511515899060ff801983541691151516179055565b60208101516001890155604081015160028901556060810151600389016000915b60058310611a1e575050506080015198600888019660009a5b60068c10156119fd57600760208260c0600194518d815190558d86858301519101558d600260408301519101558d600360608301519101558d600460808301519101558d600560a0830151910155015160068d01550199019b019a9761199c565b50959c9a9298939950955095929960326020600192019401920190916118e7565b8051825560019283019290910190602001611983565b611a3d90613054565b611a4683613054565b906004850160005260206000209182015b8183018110611a675750506118d2565b600081556000600182015560006002820155600381015b600882018110611ad85750600881015b603282018110611aa15750603201611a57565b8060006007925560006001820155600060028201556000600382015560006004820155600060058201556000600682015501611a8e565b60008155600101611a7e565b634e487b7160e01b600052604160045260246000fd5b634e487b7160e01b600052600060045260246000fd5b60405162461bcd60e51b815260206004820152601260248201527110dbdb9d1c9858dd081a5cc81c185d5cd95960721b6044820152606490fd5b8235906001600160401b0382116100565760208091611b7260249485369160a4350101612fb4565b81520193019290506106bd565b36601f8501121561005657604051611b9681612e13565b803660808701116100565785905b608087018210611bc157505081526080939093019260200161062e565b6020604091611bd0368561326b565b815201910190611ba4565b34610056576020366003190112610056576004356001600160401b03811161005657611c16611c11610680923690600401612fb4565b61465e565b611c23604051809261336d565bf35b34610056576020366003190112610056576004356001600160a01b0381169081900361005657611c53613401565b600580546001600160a01b031916919091179055005b3461005657602080600319360112610056576004356001600160401b03811161005657611c9a903690600401612fb4565b9060405191611ca883612eb9565b610a40809336903760405190611cbd82612eb9565b8336833760005b60528110611cf7575050604051916000835b60528210611ce2578585f35b82806001928651815201940191019092611cd6565b80611d05611d129284613475565b518160051b850152613459565b611cc4565b34610056576020366003190112610056576004356000526019602052602060ff604060002054166040519015158152f35b346100565760208060031936011261005657611d706004611d6981356132d8565b50016135ab565b906040519181839283018184528251809152816040850193019160005b828110611d9c57505050500390f35b919390838194965051805115158352818101518284015260408101516040840152606080820151908401906000915b60058310611dff57505050600192611def6080610640930151610100830190613166565b0195019101918594939192611d8d565b8151815287946001909301929182019101611dcb565b34610056576020806003193601126100565760065460405163295d33a960e21b815260048035908201529190600090839060249082906001600160a01b03165afa91821561121557600092611e7e575b50611e7a604051928284938452830190613348565b0390f35b9091503d806000833e611e918183612f7c565b8101908281830312610056578051906001600160401b038211610056570181601f82011215610056578051611ec581613aaa565b92611ed36040519485612f7c565b81845284828401011161005657611eef91848085019101613313565b9082611e65565b346100565760203660031901126100565760043560175481101561005657600560a091601760005202807fc624b66cc0138b8fabc209247f72d758e1cf3343756d543badbf24212bed8c150154907fc624b66cc0138b8fabc209247f72d758e1cf3343756d543badbf24212bed8c16810154907fc624b66cc0138b8fabc209247f72d758e1cf3343756d543badbf24212bed8c187fc624b66cc0138b8fabc209247f72d758e1cf3343756d543badbf24212bed8c178201549101549160ff60405194600180881b0381168652861c1615156020850152604084015260608301526080820152f35b34610056576020366003190112610056576004356001600160a01b038116908190036100565761200b613401565b47907fb08889abce443443404b2caf69aa3ccfb9ebfdf1ad2a634d06e11e24c10679386120596000808060405187875af1612044613ac5565b90604051928392604084526040840190613348565b9560208301521515940390a3005b34610056576020366003190112610056576004356001600160401b038111610056576120a261209d6107c0923690600401612fb4565b6146a6565b611c2360405180926132b0565b34610056576000366003190112610056576020600454604051908152f35b34610056576000366003190112610056576006546040516001600160a01b039091168152602090f35b3461005657612104366130f7565b9160018060a01b031660005260156020526040600020906000526020526040600020906007811015610056576020910154604051908152f35b3461005657602036600319011261005657602061215b6004356137df565b604051908152f35b346100565760203660031901126100565760043560058110156100565760209060080154604051908152f35b34610056576000366003190112610056576017546001811061112b5760209060405190600019018152f35b3461005657602080600319360112610056576004356001600160401b038111610056576121eb903690600401612fb4565b90604051916121f983612e9d565b610b8080933690376040519061220e82612e9d565b8336833760005b605c8110612248575050604051916000835b605c8210612233578585f35b82806001928651815201940191019092612227565b80611d056122569284613475565b612215565b34610056576000366003190112610056576000546040516001600160a01b039091168152602090f35b346100565760203660031901126100565761229d613401565b600480359055005b346100565760003660031901126100565760206040516204f1a08152f35b34610056576000366003190112610056576007546040516001600160a01b039091168152602090f35b3461005657610160366003190112610056576024356001600160a01b0381168103610056573660631215610056576040519061232782612e13565b608482368211610056576044905b8282106123ec5750503660a312156100565760405161235381612e13565b806101049236841161005657905b8382106123d2575050366101231215610056576040519161238183612e13565b826101449136831161005657905b8282106123c257505035936001600160401b038511610056576123b96116c3953690600401612fb4565b93600435613f92565b813581526020918201910161238f565b60206040916123e1368561326b565b815201910190612361565b8135815260209182019101612335565b3461005657602080600319360112610056576004356001600160401b0381116100565761242d903690600401612fb4565b906040519161243b83612e81565b6102c080933690376040519061245082612e81565b8336833760005b6016811061248a575050604051916000835b60168210612475578585f35b82806001928651815201940191019092612469565b80611d056124989284613475565b612457565b3461005657602036600319011261005657600435600381101561005657600e01546040516001600160a01b039091168152602090f35b34610056576124e13661303e565b90600052601660205260406000206003821015610056576020916125049161325b565b905460405160039290921b1c6001600160a01b03168152f35b3461005657600036600319011261005657612536613401565b600080546001600160a01b0319811682556040519082906001600160a01b03167f8be0079c531659141344cd1fd0a4f28419497f9722a3daafe3b4186f6b6457e08284a3f35b34610056576020366003190112610056576001600160a01b0361259d6130e1565b16600052601460205260606040600020805490600260018201549101549060405192835260208301526040820152f35b3461005657602080600319360112610056576004356001600160401b038111610056576125fe903690600401612fb4565b906040519161260c83612e65565b610cc080933690376040519061262182612e65565b8336833760005b6066811061265b575050604051916000835b60668210612646578585f35b8280600192865181520194019101909261263a565b80611d056126699284613475565b612628565b3461005657602036600319011261005657600435600381101561005657601101546040516001600160a01b039091168152602090f35b3461005657600036600319011261005657602060ff600354166040519015158152f35b3461005657600036600319011261005657602061215b62015180420642613489565b34610056576020366003190112610056576004356001600160401b0381116100565761272461271f610900923690600401612fb4565b6146ee565b611c236040518092613233565b34610056576020366003190112610056576004356001600160a01b038116908190036100565761275f613401565b600780546001600160a01b031916919091179055005b5061277e613121565b61000e565b34610056576101403660031901126100565761279e366131d2565b60e435906001600160401b038211610056576127c16116c3923690600401612fb4565b9061012435916101043591613c4b565b34610056576000366003190112610056576020604051614e208152f35b346100565761012036600319011261005657612809366131d2565b60e4356001600160401b0381116100565760e09161282e612838923690600401612fb4565b6101043591613b59565b611c23604051809260c08091805184526020810151602085015260408101516040850152606081015160608501526080810151608085015260a081015160a08501520151910152565b346100565761056061289b6128953661303e565b90613697565b6128a86040518093613166565b610540820152f35b34610056576020366003190112610056576004356001600160401b038111610056576128eb6128e6610540923690600401612fb4565b614616565b611c23604051809261313e565b3461005657600036600319011261005657602060405160148152f35b34610056576129223661303e565b906000526018602052604060002090600052602052602060018060a01b0360406000205416604051908152f35b3461005657606036600319011261005657602061215b6044356024356004356136f0565b346100565760403660031901126100565760e0612838602435600435613719565b34610056576000366003190112610056576129ad61386c565b62093a8019811161112b5761215b60209162093a80429101613489565b34610056576129d8366130f7565b906129e1613401565b60009081526018602090815260408083209383529290522080546001600160a01b0319166001600160a01b03909216919091179055005b3461005657612a263661303e565b90600052600260205260406000209060405191612a4283612e13565b546001600160a01b0380821680855260a09290921c6020850152929015612a99575b6001600160601b03602082015116826000190481118315151661112b5760409361271092511692845193845202046020820152f35b50604051612aa681612e13565b600154838116825260a01c6020820152612a64565b34610056576020366003190112610056576004356001600160401b03811161005657612af5612af06040923690600401612fb4565b614407565b82519182526020820152f35b3461005657602036600319011261005657612b1a6130e1565b612b22613401565b600680546001600160a01b0319166001600160a01b0392909216919091179055005b3461005657600036600319011261005657602060405162093a808152f35b346100565760203660031901126100565760206004612b8181356132d8565b500154604051908152f35b34610056576000366003190112610056576005546040516001600160a01b039091168152602090f35b3461005657602080600319360112610056576004356001600160401b03811161005657612be6903690600401612fb4565b9060405191612bf483612e49565b610e00809336903760405190612c0982612e49565b8336833760005b60708110612c43575050604051916000835b60708210612c2e578585f35b82806001928651815201940191019092612c22565b80611d05612c519284613475565b612c10565b346100565760203660031901126100565760043580151580910361005657612c7c613401565b60ff8019600354169116176003556000604051f35b3461005657600036600319011261005657602061215b61386c565b3461005657602061215b612cbf3661303e565b9061383b565b346100565760203660031901126100565760043563ffffffff60e01b81168091036100565760209063152a902d60e11b8114908115612d0957506040519015158152f35b6301ffc9a760e01b1490508261043d565b34610056576020366003190112610056576004356001600160401b03811161005657612d55612d50610400923690600401612fb4565b6145c1565b611c236040518092613012565b3461005657606036600319011261005657600435612d8281602435613489565b8015612d995760209161215b91604435069061368b565b634e487b7160e01b600052601260045260246000fd5b60c081019081106001600160401b03821117611ae457604052565b60a081019081106001600160401b03821117611ae457604052565b6001600160401b038111611ae457604052565b606081019081106001600160401b03821117611ae457604052565b604081019081106001600160401b03821117611ae457604052565b60e081019081106001600160401b03821117611ae457604052565b610e0081019081106001600160401b03821117611ae457604052565b610cc081019081106001600160401b03821117611ae457604052565b6102c081019081106001600160401b03821117611ae457604052565b610b8081019081106001600160401b03821117611ae457604052565b610a4081019081106001600160401b03821117611ae457604052565b608081019081106001600160401b03821117611ae457604052565b61040081019081106001600160401b03821117611ae457604052565b61054081019081106001600160401b03821117611ae457604052565b61068081019081106001600160401b03821117611ae457604052565b6107c081019081106001600160401b03821117611ae457604052565b61090081019081106001600160401b03821117611ae457604052565b90601f801991011681019081106001600160401b03821117611ae457604052565b6001600160401b038111611ae45760051b60200190565b81601f8201121561005657803591612fcb83612f9d565b92612fd96040519485612f7c565b808452602092838086019260051b820101928311610056578301905b828210613003575050505090565b81358152908301908301612ff5565b916000915b602090818410156130375790806001928651815201940192019192613017565b5050915050565b6040906003190112610056576004359060243590565b7f051eb851eb851eb851eb851eb851eb851eb851eb851eb851eb851eb851eb851e811160011661112b5760320290565b80600019046005118115151661112b5760050290565b6001600160ff1b03811160011661112b5760011b90565b7f3333333333333333333333333333333333333333333333333333333333333333811160011661112b5760050290565b600435906001600160a01b038216820361005657565b6060906003190112610056576004356001600160a01b038116810361005657906024359060443590565b503461005657600036600319011261005657602060405160028152f35b6000915b602a831061314f57505050565b600190825181526020809101920192019190613142565b906000905b6006821061317857505050565b602060e0826131c6600194875160c08091805184526020810151602085015260408101516040850152606081015160608501526080810151608085015260a081015160a08501520151910152565b0193019101909161316b565b60e0906003190112610056576040519060e082018281106001600160401b03821117611ae457604052816004358152602435602082015260443560408201526064356060820152608435608082015260a43560a082015260c060c435910152565b6000915b6048831061324457505050565b600190825181526020809101920192019190613237565b6003821015611115570190600090565b9080601f83011215610056576040519161328483612e13565b82906040810192831161005657905b8282106132a05750505090565b8135815260209182019101613293565b6000915b603e83106132c157505050565b6001908251815260208091019201920191906132b4565b601754811015611115576005906017600052027fc624b66cc0138b8fabc209247f72d758e1cf3343756d543badbf24212bed8c150190600090565b918091926000905b82821061333357501161332c575050565b6000910152565b9150806020918301518186015201829161331b565b9060209161336181518092818552858086019101613313565b601f01601f1916010190565b6000915b6034831061337e57505050565b600190825181526020809101920192019190613371565b81601f82011215610056578035906133ac82612f9d565b926040926133bc84519586612f7c565b808552602091828087019260061b85010193818511610056578301915b8483106133e95750505050505090565b8386916133f6848661326b565b8152019201916133d9565b6000546001600160a01b0316330361341557565b606460405162461bcd60e51b815260206004820152602060248201527f4f776e61626c653a2063616c6c6572206973206e6f7420746865206f776e65726044820152fd5b600019811461112b5760010190565b8051156111155760200190565b80518210156111155760209160051b010190565b81811061112b570390565b60405191906000835b600582106134c35750505060a082018281106001600160401b03821117611ae457604052565b600160208192855481520193019101909161349d565b9060408051926134e884612dca565b8360ff8254161515815260019384830154916020928382015260029081850154868201526003613519818701613494565b906060918284015287519761352d89612daf565b60009760080195895b6006808b101561359857898d9260079286519061355282612e2e565b8c548252858d0154848301528b8d015488830152888d01548a83015260048d0154608083015260058d015460a08301528c015460c0820152815201980199019896613536565b5050995050505092505050608091500152565b9081546135b781612f9d565b926135c56040519485612f7c565b818452600090815260208082208186015b8484106135e4575050505050565b6032836001926135f3856134d9565b8152019201930192906135d6565b6040519061360e82612e2e565b8160c06000918281528260208201528260408201528260608201528260808201528260a08201520152565b6040519061364682612daf565b8160005b60c08110613656575050565b602090613661613601565b818401520161364a565b9060068110156111155760051b0190565b6127108119811161112b570190565b8119811161112b570190565b91906136a1613639565b9260005b828111156136be575050600119811161112b5760010190565b806136d6816136d16136eb9487876136f0565b613719565b6136e0828861366b565b52611383818761366b565b6136a5565b916040519160208301938452604083015260608201526060815261371381612ed5565b51902090565b6137d790613725613601565b50613740613731613601565b938085528260c08601526137df565b60a08401526040519060209182810191825282815261375e81612e13565b519020620f4240908181068386015260405183810191825283815261378281612e13565b51902090810660408501526040518281019182528281526137a281612e13565b519020614e20916137b483830661367c565b60608601526040519080820192835281526137ce81612e13565b5190200661367c565b608082015290565b61382260ff916006604051916137f483612daf565b60248352601b60208401526016604084015260116060840152600c6080840152600760a0840152069061366b565b51166103e890806000190482118115151661112b570290565b906001431061112b576040519060208201928352604082015260001943014060608201526060815261371381612ed5565b6204f1a0421061112b5761388b62093a806204f19f1942010642613489565b90565b8054821015611115576000526032602060002091020190600090565b9290611afa576138cb829392511515839060ff801983541691151516179055565b6020918284015192600193848301556040948581015193600294858501556060918281015160039081870190896000915b60058310613979575050505060086080809301519601936000965b60068089101561396b57815180518855888101518c8901558c8101518b890155838101518589015585810151600489015560a0810151600589015560c0015190870155968901966007909501948601613917565b505050505095505050505050565b80518455928101929101908a9088016138fc565b6003613998826132d8565b5001549060046139a7826132d8565b500154600119811161112b5760010190604051926139c484612dca565b60008452600060208501526040840192600084526040516139e481612dca565b60a03682376060860152608085016139fa613639565b8152613a06828561383b565b8552613a128284613697565b5090526004613a20846132d8565b5001938454600160401b811015611ae4577f70f3b6a85b7a5047df9e61440f8b6480a7cd8a96f849a4092d0a22303a5dbb0f96610bdf826080986001613a689501815561388e565b5190604051938452602084015260408301526060820152a1565b6000915b60028310613a9357505050565b600190825181526020809101920192019190613a86565b6001600160401b038111611ae457601f01601f191660200190565b3d15613af0573d90613ad682613aaa565b91613ae46040519384612f7c565b82523d6000602084013e565b606090565b801561112b576000190190565b90604051613b0f81612daf565b60a0613b546004839560ff8154600180871b0381168752851c1615156020860152600181015460408601526002810154606086015260038101546080860152016135ab565b910152565b9190613b63613601565b50613b6d82613084565b916005928019841161112b57613b8590840183613475565b516020850152613b9481613084565b8019841161112b576001198482011161112b576006613bb4910183613475565b516040850152613bc381613084565b8019841161112b576002198482011161112b576007613be3910183613475565b516060850152613bf281613084565b908119841161112b576003198483011161112b57613c166008613c21930184613475565b516080860152613084565b918219811161112b576004199083011161112b576009613c42920190613475565b5160a082015290565b9291906020928385015190613c5f846130b1565b906005918019831161112b57613c8090613c7883613084565b90840161368b565b600219939084811161112b576002613c99910186613475565b5103613f10576040870151613cad866130b1565b8019841161112b57613cca90613cc284613084565b90850161368b565b600119811161112b5784600182011161112b576003613cea910186613475565b5103613ed657606087015196613cff866130b1565b8019841161112b57613d1490613cc284613084565b9784891161112b578460028a011161112b57613d346004809a0187613475565b5103613e9f576080810151613d48876130b1565b80198511613e8a57613d6590613d5d85613084565b90860161368b565b6003198111613e8a57856003820111613e8a5784613d84910187613475565b5103613e535760a0613d98910151956130b1565b9081198311613e3e5790613daf613db69392613084565b910161368b565b906004198211613e295785820111613e1457906006613dd6920190613475565b5103613de0575050565b60405162461bcd60e51b815291820152600e60248201526d496e76616c69642072616469757360901b604482015260649150fd5b601185634e487b7160e01b6000525260246000fd5b601186634e487b7160e01b6000525260246000fd5b601188634e487b7160e01b6000525260246000fd5b60405162461bcd60e51b8152808901889052601060248201526f496e76616c696420766563746f72207960801b6044820152606490fd5b60118a634e487b7160e01b6000525260246000fd5b60405162461bcd60e51b8152808901889052601060248201526f092dcecc2d8d2c840eccac6e8dee440f60831b6044820152606490fd5b60405162461bcd60e51b8152600481018790526012602482015271496e76616c696420706f736974696f6e207960701b6044820152606490fd5b60405162461bcd60e51b8152600481018790526012602482015271092dcecc2d8d2c840e0dee6d2e8d2dedc40f60731b6044820152606490fd5b90816020910312610056575180151581036100565790565b906000905b60028210613f7457505050565b6020604082613f866001948751613a82565b01930191019091613f67565b93909192936002811460001461408957509161050491613ffd613fde94613ff2613fbe602098996145c1565b91613fe86040519a8b998a98630f3022c960e21b8a5260048a0190613a82565b6044880190613f62565b60c4860190613a82565b610104840190613012565b6001600160a01b03165afa9081156112155760009161405b575b501561401f57565b60405162461bcd60e51b815260206004820152601460248201527324b73b30b634b21019103137b23c90383937b7b360611b6044820152606490fd5b61407c915060203d8111614082575b6140748183612f7c565b810190613f4a565b38614017565b503d61406a565b60038103614154575091610644916140d8613fde946140cd6140ad60209899614616565b91613fe86040519a8b998a986371dd4db160e11b8a5260048a0190613a82565b61010484019061313e565b6001600160a01b03165afa90811561121557600091614136575b50156140fa57565b60405162461bcd60e51b815260206004820152601460248201527324b73b30b634b21019903137b23c90383937b7b360611b6044820152606490fd5b61414e915060203d8111614082576140748183612f7c565b386140f2565b92939060049584878096146000146142285750926141ac610784936141a160209794613fe8614186613fde9b9961465e565b936040519b8c9a8b99632a6d5ed560e01b8b528a0190613a82565b61010484019061336d565b6001600160a01b03165afa9081156112155760009161420a575b50156141cf5750565b60649060206040519162461bcd60e51b8352820152601460248201527324b73b30b634b2101a103137b23c90383937b7b360611b6044820152fd5b614222915060203d8111614082576140748183612f7c565b386141c6565b600581036142f25750926142766108c49361426b60209794613fe8614250613fde9b996146a6565b936040519b8c9a8b9963ea59061d60e01b8b528a0190613a82565b6101048401906132b0565b6001600160a01b03165afa908115611215576000916142d4575b50156142995750565b60649060206040519162461bcd60e51b8352820152601460248201527324b73b30b634b2101a903137b23c90383937b7b360611b6044820152fd5b6142ec915060203d8111614082576140748183612f7c565b38614290565b6006919293949550146000146143c357602093614347613fde969461433c610a0495613fe86143218c976146ee565b936040519b8c9a8b996311b5352360e01b8b528a0190613a82565b610104840190613233565b6001600160a01b03165afa908115611215576000916143a5575b501561436a5750565b60649060206040519162461bcd60e51b8352820152601460248201527324b73b30b634b2101b103137b23c90383937b7b360611b6044820152fd5b6143bd915060203d8111614082576140748183612f7c565b38614361565b60405162461bcd60e51b8152602081880152601860248201527f496e76616c6964206e756d626572206f6620626f6469657300000000000000006044820152606490fd5b908151600c811061112b57600a90600b1901049160019283811061112b576000936000808451948386106145ad576005600019968188820110614599579398979695949360051901929190845b614472575b50505050508394509061446e92939101613489565b9190565b8151851c84111561459457808a06156144a8575b61449d614497869798999a9b613459565b94613af5565b939998979695614454565b6144b28483613475565b511580614576575b80614555575b80614523575b806144f0575b156144865761449d6144976144e48798999a9b613459565b9a999897505050614486565b5060048085106145105750614509600319850183613475565b51156144cc565b634e487b7160e01b845260119052602483fd5b50600384106145415761453a600219850183613475565b51156144c6565b634e487b7160e01b83526011600452602483fd5b506002841061454157614e2061456f600119860184613475565b51146144c0565b5084841061454157614e2061458d88860184613475565b51146144ba565b614459565b634e487b7160e01b84526011600452602484fd5b634e487b7160e01b82526011600452602482fd5b906040516145ce81612ef0565b6104008091369037604051906145e382612ef0565b36823760005b602081106145f657509150565b806146046146119286613475565b518160051b840152613459565b6145e9565b9060405161462381612f0c565b61054080913690376040519061463882612f0c565b36823760005b602a811061464b57509150565b806146046146599286613475565b61463e565b9060405161466b81612f28565b61068080913690376040519061468082612f28565b36823760005b6034811061469357509150565b806146046146a19286613475565b614686565b906040516146b381612f44565b6107c08091369037604051906146c882612f44565b36823760005b603e81106146db57509150565b806146046146e99286613475565b6146ce565b906040516146fb81612f60565b61090080913690376040519061471082612f60565b36823760005b6048811061472357509150565b806146046147319286613475565b61471656fea26469706673582212204aed892cfb69ed0108262b3efbe25294ae75a3e7770d552a86bad27867271c9064736f6c634300080f0033c624b66cc0138b8fabc209247f72d758e1cf3343756d543badbf24212bed8c15",
  "linkReferences": {},
  "deployedLinkReferences": {}
}