{
  "_format": "hh-sol-artifact-1",
  "contractName": "Speedruns",
  "sourceName": "contracts/Speedruns.sol",
  "abi": [
    {
      "inputs": [],
      "stateMutability": "nonpayable",
      "type": "constructor"
    },
    {
      "anonymous": false,
      "inputs": [
        {
          "indexed": true,
          "internalType": "address",
          "name": "owner",
          "type": "address"
        },
        {
          "indexed": true,
          "internalType": "address",
          "name": "approved",
          "type": "address"
        },
        {
          "indexed": true,
          "internalType": "uint256",
          "name": "tokenId",
          "type": "uint256"
        }
      ],
      "name": "Approval",
      "type": "event"
    },
    {
      "anonymous": false,
      "inputs": [
        {
          "indexed": true,
          "internalType": "address",
          "name": "owner",
          "type": "address"
        },
        {
          "indexed": true,
          "internalType": "address",
          "name": "operator",
          "type": "address"
        },
        {
          "indexed": false,
          "internalType": "bool",
          "name": "approved",
          "type": "bool"
        }
      ],
      "name": "ApprovalForAll",
      "type": "event"
    },
    {
      "anonymous": false,
      "inputs": [
        {
          "indexed": true,
          "internalType": "address",
          "name": "previousOwner",
          "type": "address"
        },
        {
          "indexed": true,
          "internalType": "address",
          "name": "newOwner",
          "type": "address"
        }
      ],
      "name": "OwnershipTransferred",
      "type": "event"
    },
    {
      "anonymous": false,
      "inputs": [
        {
          "indexed": true,
          "internalType": "address",
          "name": "from",
          "type": "address"
        },
        {
          "indexed": true,
          "internalType": "address",
          "name": "to",
          "type": "address"
        },
        {
          "indexed": true,
          "internalType": "uint256",
          "name": "tokenId",
          "type": "uint256"
        }
      ],
      "name": "Transfer",
      "type": "event"
    },
    {
      "stateMutability": "nonpayable",
      "type": "fallback"
    },
    {
      "inputs": [
        {
          "internalType": "address",
          "name": "to",
          "type": "address"
        },
        {
          "internalType": "uint256",
          "name": "tokenId",
          "type": "uint256"
        }
      ],
      "name": "__approve",
      "outputs": [],
      "stateMutability": "nonpayable",
      "type": "function"
    },
    {
      "inputs": [
        {
          "internalType": "uint256",
          "name": "tokenId",
          "type": "uint256"
        }
      ],
      "name": "__burn",
      "outputs": [],
      "stateMutability": "nonpayable",
      "type": "function"
    },
    {
      "inputs": [
        {
          "internalType": "uint256",
          "name": "tokenId",
          "type": "uint256"
        },
        {
          "internalType": "address",
          "name": "to",
          "type": "address"
        }
      ],
      "name": "__mint",
      "outputs": [],
      "stateMutability": "nonpayable",
      "type": "function"
    },
    {
      "inputs": [
        {
          "internalType": "address",
          "name": "from",
          "type": "address"
        },
        {
          "internalType": "address",
          "name": "to",
          "type": "address"
        },
        {
          "internalType": "uint256",
          "name": "tokenId",
          "type": "uint256"
        }
      ],
      "name": "__transfer",
      "outputs": [],
      "stateMutability": "nonpayable",
      "type": "function"
    },
    {
      "inputs": [
        {
          "internalType": "address",
          "name": "to",
          "type": "address"
        },
        {
          "internalType": "uint256",
          "name": "tokenId",
          "type": "uint256"
        }
      ],
      "name": "approve",
      "outputs": [],
      "stateMutability": "nonpayable",
      "type": "function"
    },
    {
      "inputs": [
        {
          "internalType": "address",
          "name": "owner",
          "type": "address"
        }
      ],
      "name": "balanceOf",
      "outputs": [
        {
          "internalType": "uint256",
          "name": "",
          "type": "uint256"
        }
      ],
      "stateMutability": "view",
      "type": "function"
    },
    {
      "inputs": [
        {
          "internalType": "bytes32[]",
          "name": "topics",
          "type": "bytes32[]"
        },
        {
          "internalType": "bytes",
          "name": "logData",
          "type": "bytes"
        }
      ],
      "name": "emitGenericEvent",
      "outputs": [],
      "stateMutability": "nonpayable",
      "type": "function"
    },
    {
      "inputs": [
        {
          "internalType": "uint256",
          "name": "tokenId",
          "type": "uint256"
        }
      ],
      "name": "getApproved",
      "outputs": [
        {
          "internalType": "address",
          "name": "",
          "type": "address"
        }
      ],
      "stateMutability": "view",
      "type": "function"
    },
    {
      "inputs": [
        {
          "internalType": "address",
          "name": "owner",
          "type": "address"
        },
        {
          "internalType": "address",
          "name": "operator",
          "type": "address"
        }
      ],
      "name": "isApprovedForAll",
      "outputs": [
        {
          "internalType": "bool",
          "name": "",
          "type": "bool"
        }
      ],
      "stateMutability": "view",
      "type": "function"
    },
    {
      "inputs": [],
      "name": "name",
      "outputs": [
        {
          "internalType": "string",
          "name": "",
          "type": "string"
        }
      ],
      "stateMutability": "view",
      "type": "function"
    },
    {
      "inputs": [],
      "name": "owner",
      "outputs": [
        {
          "internalType": "address",
          "name": "",
          "type": "address"
        }
      ],
      "stateMutability": "view",
      "type": "function"
    },
    {
      "inputs": [
        {
          "internalType": "uint256",
          "name": "tokenId",
          "type": "uint256"
        }
      ],
      "name": "ownerOf",
      "outputs": [
        {
          "internalType": "address",
          "name": "",
          "type": "address"
        }
      ],
      "stateMutability": "view",
      "type": "function"
    },
    {
      "inputs": [],
      "name": "renounceOwnership",
      "outputs": [],
      "stateMutability": "nonpayable",
      "type": "function"
    },
    {
      "inputs": [
        {
          "internalType": "address",
          "name": "from",
          "type": "address"
        },
        {
          "internalType": "address",
          "name": "to",
          "type": "address"
        },
        {
          "internalType": "uint256",
          "name": "tokenId",
          "type": "uint256"
        }
      ],
      "name": "safeTransferFrom",
      "outputs": [],
      "stateMutability": "nonpayable",
      "type": "function"
    },
    {
      "inputs": [
        {
          "internalType": "address",
          "name": "from",
          "type": "address"
        },
        {
          "internalType": "address",
          "name": "to",
          "type": "address"
        },
        {
          "internalType": "uint256",
          "name": "tokenId",
          "type": "uint256"
        },
        {
          "internalType": "bytes",
          "name": "_data",
          "type": "bytes"
        }
      ],
      "name": "safeTransferFrom",
      "outputs": [],
      "stateMutability": "nonpayable",
      "type": "function"
    },
    {
      "inputs": [
        {
          "internalType": "address",
          "name": "operator",
          "type": "address"
        },
        {
          "internalType": "bool",
          "name": "approved",
          "type": "bool"
        }
      ],
      "name": "setApprovalForAll",
      "outputs": [],
      "stateMutability": "nonpayable",
      "type": "function"
    },
    {
      "inputs": [
        {
          "internalType": "bytes4",
          "name": "interfaceId",
          "type": "bytes4"
        }
      ],
      "name": "supportsInterface",
      "outputs": [
        {
          "internalType": "bool",
          "name": "",
          "type": "bool"
        }
      ],
      "stateMutability": "view",
      "type": "function"
    },
    {
      "inputs": [],
      "name": "symbol",
      "outputs": [
        {
          "internalType": "string",
          "name": "",
          "type": "string"
        }
      ],
      "stateMutability": "view",
      "type": "function"
    },
    {
      "inputs": [
        {
          "internalType": "uint256",
          "name": "tokenId",
          "type": "uint256"
        }
      ],
      "name": "tokenURI",
      "outputs": [
        {
          "internalType": "string",
          "name": "",
          "type": "string"
        }
      ],
      "stateMutability": "view",
      "type": "function"
    },
    {
      "inputs": [
        {
          "internalType": "address",
          "name": "from",
          "type": "address"
        },
        {
          "internalType": "address",
          "name": "to",
          "type": "address"
        },
        {
          "internalType": "uint256",
          "name": "tokenId",
          "type": "uint256"
        }
      ],
      "name": "transferFrom",
      "outputs": [],
      "stateMutability": "nonpayable",
      "type": "function"
    },
    {
      "inputs": [
        {
          "internalType": "address",
          "name": "newOwner",
          "type": "address"
        }
      ],
      "name": "transferOwnership",
      "outputs": [],
      "stateMutability": "nonpayable",
      "type": "function"
    },
    {
      "inputs": [
        {
          "internalType": "address payable",
          "name": "anybodyProblem_",
          "type": "address"
        }
      ],
      "name": "updateAnybodyProblemAddress",
      "outputs": [],
      "stateMutability": "nonpayable",
      "type": "function"
    },
    {
      "stateMutability": "payable",
      "type": "receive"
    }
  ],
  "bytecode": "0x6080346200036a576001600160401b039060408181018381118382101762000354578152601982526020917f416e79626f64792050726f626c656d20537065656472756e7300000000000000838201528151938285018581108282111762000354578352600385526241505360e81b84860152815181811162000354576000948554916001948584811c9416801562000349575b8385101462000335578190601f94858111620002e2575b5083908583116001146200027e57899262000272575b5050600019600383901b1c191690851b1786555b86519283116200025e5783548481811c9116801562000253575b828210146200023f57828111620001f7575b50809183116001146200019057508495829394959262000184575b5050600019600383901b1c191690821b1790555b60068054336001600160a01b03198216811790925591519290916001600160a01b0316907f8be0079c531659141344cd1fd0a4f28419497f9722a3daafe3b4186f6b6457e09084a36118869081620003708239f35b0151905038806200011b565b90601f198316968487528287209287905b898210620001df575050838596979810620001c5575b505050811b0190556200012f565b015160001960f88460031b161c19169055388080620001b7565b808785968294968601518155019501930190620001a1565b8487528187208380860160051c82019284871062000235575b0160051c019085905b8281106200022957505062000100565b88815501859062000219565b9250819262000210565b634e487b7160e01b87526022600452602487fd5b90607f1690620000ee565b634e487b7160e01b86526041600452602486fd5b015190503880620000c0565b898052848a208894509190601f1984168b5b87828210620002cb5750508411620002b1575b505050811b018655620000d4565b015160001960f88460031b161c19169055388080620002a3565b8385015186558b9790950194938401930162000290565b9091508880528389208580850160051c8201928686106200032b575b918991869594930160051c01915b8281106200031c575050620000aa565b8b81558594508991016200030c565b92508192620002fe565b634e487b7160e01b88526022600452602488fd5b93607f169362000093565b634e487b7160e01b600052604160045260246000fd5b600080fdfe60406080815260048036101561007f575b50361561005957346100545760075490516100529160009182916001600160a01b03169036838237828136810182815203925af161004c610d31565b50610d61565b005b600080fd5b600754905161005291600091829182919034906001600160a01b03165af161004c610d31565b90600091823560e01c806301ffc9a71461088b57806306fdde031461086d578063081812fc1461084d578063095ea7b31461082757806323b872dd1461080e578063338bc15e146107d357806342842e0e146107ba5780636352211e1461078957806370a08231146106f3578063715018a6146106935780638da5cb5b1461066a57806395d89b411461064c57806397478f1d1461052a578063a22cb465146104fb578063b46f00711461046a578063b88d4fde146103de578063c87b56dd146103a3578063d1a01520146102f8578063d1e31346146102c7578063e2ce81a514610284578063e985e9c5146102495763f2fde38b14610180575090610010565b3461024557602036600319011261024557610199610916565b6101a1610a03565b6001600160a01b039081169182156101f3575060065492826001600160601b0360a01b8516176006555192167f8be0079c531659141344cd1fd0a4f28419497f9722a3daafe3b4186f6b6457e08484a3f35b608490602085519162461bcd60e51b8352820152602660248201527f4f776e61626c653a206e6577206f776e657220697320746865207a65726f206160448201526564647265737360d01b6064820152fd5b8280fd5b505034610280578060031936011261028057602090610277610269610916565b61027161092c565b9061124b565b90519015158152f35b5080fd5b503461024557602036600319011261024557356001600160a01b03811690819003610245576102b1610a03565b6001600160601b0360a01b600754161760075551f35b505034610280576102f56102da36610942565b916102f060018060a01b03600754163314610acd565b610bbf565b51f35b509034610245576020366003190112610245578282359160018060a01b0361032581600754163314610acd565b61032e84610aa7565b5061033884610aa7565b94848452602052818320946001600160601b0360a01b95868154169055169384835260036020528183206000198154019055838352600260205281832090815416905551927fddf252ad1be2c89b69c2b068fc378daa952ba7f163c4a11628f55a4df523b3ef8285a4f35b5091346103db5760203660031901126103db57506103c46103d79235610e0c565b90519182916020835260208301906108f1565b0390f35b80fd5b5034610245576080366003190112610245576103f8610916565b9061040161092c565b916064359167ffffffffffffffff8311610466573660238401121561046657820135928561042e856109e7565b9361043b875195866109c5565b858552366024878301011161028057856102f596602460209301838801378501015260443591611677565b8580fd5b503461024557816003193601126102455767ffffffffffffffff81358181116104f757366023820112156104f757808301359082821161046657602490369260051b0101116104f357602435918183116104f757366023840112156104f7578201359081116104f35736910160240111610280576102f560018060a01b03600754163314610acd565b8380fd5b8480fd5b505034610280578060031936011261028057610515610916565b60243580151581036104f3576102f591611413565b50903461024557806003193601126102455781359061054761092c565b6007546001600160a01b0391906105619083163314610acd565b1692831561060a575060008281526002602052604090205461058f906001600160a01b031615155b15610b19565b6000828152600260205260409020546105b2906001600160a01b03161515610589565b8284526003602052808420600181540190558184526002602052808420836001600160601b0360a01b8254161790555191837fddf252ad1be2c89b69c2b068fc378daa952ba7f163c4a11628f55a4df523b3ef8185a4f35b6020606492519162461bcd60e51b8352820152602060248201527f4552433732313a206d696e7420746f20746865207a65726f20616464726573736044820152fd5b5050346102805781600319360112610280576103d7906103c461109b565b50503461028057816003193601126102805760065490516001600160a01b039091168152602090f35b5050346102805781600319360112610280576106ad610a03565b600680546001600160a01b0319811690915590519082906001600160a01b03167f8be0079c531659141344cd1fd0a4f28419497f9722a3daafe3b4186f6b6457e08284a3f35b50829034610280576020366003190112610280576001600160a01b03610717610916565b169081156107345760208480858581526003845220549051908152f35b608490602085519162461bcd60e51b8352820152602960248201527f4552433732313a2061646472657373207a65726f206973206e6f7420612076616044820152683634b21037bbb732b960b91b6064820152fd5b5091346103db5760203660031901126103db57506107a960209235610aa7565b90516001600160a01b039091168152f35b505034610280576102f56107cd36610942565b9161161a565b5050346102805780600319360112610280576102f56107f0610916565b61080560018060a01b03600754163314610acd565b60243590610cd2565b505034610280576102f561082136610942565b91611505565b5050346102805780600319360112610280576102f5610844610916565b602435906112cf565b5091346103db5760203660031901126103db57506107a9602092356111ab565b5050346102805781600319360112610280576103d7906103c4610f55565b50346102455760203660031901126102455735916001600160e01b0319831683036103db5750610277602092610ebd565b918091926000905b8282106108dc5750116108d5575050565b6000910152565b915080602091830151818601520182916108c4565b9060209161090a815180928185528580860191016108bc565b601f01601f1916010190565b600435906001600160a01b038216820361005457565b602435906001600160a01b038216820361005457565b6060906003190112610054576001600160a01b0390600435828116810361005457916024359081168103610054579060443590565b6040810190811067ffffffffffffffff82111761099357604052565b634e487b7160e01b600052604160045260246000fd5b6020810190811067ffffffffffffffff82111761099357604052565b90601f8019910116810190811067ffffffffffffffff82111761099357604052565b67ffffffffffffffff811161099357601f01601f191660200190565b6006546001600160a01b03163303610a1757565b606460405162461bcd60e51b815260206004820152602060248201527f4f776e61626c653a2063616c6c6572206973206e6f7420746865206f776e65726044820152fd5b15610a6257565b60405162461bcd60e51b815260206004820152601860248201527f4552433732313a20696e76616c696420746f6b656e20494400000000000000006044820152606490fd5b6000908152600260205260409020546001600160a01b0316610aca811515610a5b565b90565b15610ad457565b60405162461bcd60e51b815260206004820152601d60248201527f4f6e6c7920416e79626f64792050726f626c656d2063616e2063616c6c0000006044820152606490fd5b15610b2057565b60405162461bcd60e51b815260206004820152601c60248201527f4552433732313a20746f6b656e20616c7265616479206d696e746564000000006044820152606490fd5b15610b6c57565b60405162461bcd60e51b815260206004820152602560248201527f4552433732313a207472616e736665722066726f6d20696e636f72726563742060448201526437bbb732b960d91b6064820152608490fd5b90610be791610bcd84610aa7565b6001600160a01b0393918416928492909183168414610b65565b16918215610c815781610c0491610bfd86610aa7565b1614610b65565b7fddf252ad1be2c89b69c2b068fc378daa952ba7f163c4a11628f55a4df523b3ef60008481526004602052604081206001600160601b0360a01b90818154169055838252600360205260408220600019815401905584825260408220600181540190558582526002602052846040832091825416179055604051a4565b60405162461bcd60e51b8152602060048201526024808201527f4552433732313a207472616e7366657220746f20746865207a65726f206164646044820152637265737360e01b6064820152608490fd5b600082815260046020526040902080546001600160a01b0319166001600160a01b0392831690811790915590610d0783610aa7565b167f8c5be1e5ebec7d5bd14f71427d1e84f3dd0314c0f7b2291e5b200ac8c7c3b9256000604051a4565b3d15610d5c573d90610d42826109e7565b91610d5060405193846109c5565b82523d6000602084013e565b606090565b15610d6857565b60405162461bcd60e51b815260206004820152601d60248201527f43616c6c20746f20616e79626f647950726f626c656d206661696c65640000006044820152606490fd5b6020818303126100545780519067ffffffffffffffff8211610054570181601f82011215610054578051610de0816109e7565b92610dee60405194856109c5565b8184526020828401011161005457610aca91602080850191016108bc565b60008060018060a01b0360075416604051602081019063891bd90760e01b825260048152610e3981610977565b51915afa610e45610d31565b9015610e5f57610aca915060208082518301019101610dad565b50600090815260026020526040902054610e83906001600160a01b03161515610a5b565b6000604051610e91816109a9565b52604051610e9e816109a9565b6000815290565b90816020910312610054575180151581036100545790565b60008060018060a01b036007541660405160208101906301429b7b60e51b825260048152610eea81610977565b51915afa610ef6610d31565b9015610f1057610aca915060208082518301019101610ea5565b5063ffffffff60e01b166380ac58cd60e01b8114908115610f44575b8115610f36575090565b6301ffc9a760e01b14919050565b635b5e139f60e01b81149150610f2c565b6007546040516341b05ccf60e01b6020808301918252600483526001600160a01b03909316939291610f8681610977565b6000948592839251915afa90610f9a610d31565b9115610fb357610aca9293508082518301019101610dad565b90506040519083845494600186811c91818816978815611091575b858410891461107d578697988488979852908160001461105b5750600114611000575b505050610aca925003826109c5565b8080527f290decd9548b62a8d60345a988386fc84ba6bc95484008f6362f93160ef3e56395935091905b818310611043575050610aca9350820101388080610ff1565b8554878401850152948501948694509183019161102a565b92505050610aca94925060ff191682840152151560051b820101388080610ff1565b634e487b7160e01b82526022600452602482fd5b92607f1692610fce565b60075460405163523e8c0d60e11b6020808301918252600483526001600160a01b039093169392916110cc81610977565b6000948592839251915afa906110e0610d31565b91156110f957610aca9293508082518301019101610dad565b9050604051908360019485549586811c918188169788156111a1575b858410891461107d578697988488979852908160001461105b575060011461114657505050610aca925003826109c5565b8181527fb10e2d527612073b26eecdfd717e6a320cf44b4afac2b0732d9fcbe2b7fa0cf695935091905b818310611189575050610aca9350820101388080610ff1565b85548784018501529485019486945091830191611170565b92607f1692611115565b60075460405163848a2cf560e01b60208201908152600482526001600160a01b039392841692916111db81610977565b6000938492839251915afa906111ef610d31565b9115611215575060208180518101031261028057602001519182168092036103db575090565b60008181526002602052604090819020549093925061123e906001600160a01b03161515610a5b565b8152600460205220541690565b600754604051633dece88f60e11b602082019081526004825292936001600160a01b039392841692909161127e81610977565b6000938492839251915afa92611292610d31565b93156112af57505050610aca915060208082518301019101610ea5565b604093508060ff9516835260056020528383209116825260205220541690565b9060018060a01b036000808260075416604051826020820191639aa16ab960e01b8352600481526112ff81610977565b51925af161130b610d31565b501561131657505050565b61131f82610aa7565b9080821680918516146113c45733149081156113b2575b50156113475761134591610cd2565b565b60405162461bcd60e51b815260206004820152603d60248201527f4552433732313a20617070726f76652063616c6c6572206973206e6f7420746f60448201527f6b656e206f776e6572206f7220617070726f76656420666f7220616c6c0000006064820152608490fd5b6113be9150339061124b565b38611336565b60405162461bcd60e51b815260206004820152602160248201527f4552433732313a20617070726f76616c20746f2063757272656e74206f776e656044820152603960f91b6064820152608490fd5b60075460405163232954e360e21b60208201908152600482526001600160a01b0392831694939161144381610977565b600095869283809351925af1611457610d31565b50156114635750505050565b16918233146114c0576040903381526005602052818120848252602052209015159060ff1981541660ff83161790556040519081527f17307eab39ab6107e8899845ad3d59bd9653f200f220920489ca2b5937696c3160203392a3565b60405162461bcd60e51b815260206004820152601960248201527f4552433732313a20617070726f766520746f2063616c6c6572000000000000006044820152606490fd5b919060008060018060a01b036007541660405182602082019163e75b7df560e01b83526004815261153581610977565b51925af1611541610d31565b501561154c57505050565b611345926102f061155d84336115bf565b1561156457565b60405162461bcd60e51b815260206004820152602d60248201527f4552433732313a2063616c6c6572206973206e6f7420746f6b656e206f776e6560448201526c1c881bdc88185c1c1c9bdd9959609a1b6064820152608490fd5b6115c882610aa7565b9160018060a01b0390818316928285168414948515611607575b505083156115f1575b50505090565b6115fd919293506111ab565b16143880806115eb565b61161292955061124b565b9238806115e2565b909160008060018060a01b036007541660405182602082019163a2e3e7f360e01b83526004815261164a81610977565b51925af1611656610d31565b501561166157505050565b6113459260405192611672846109a9565b600084525b92919060008060018060a01b036007541660405182602082019163a2e3e7f360e01b8352600481526116a881610977565b51925af16116b4610d31565b50156116c05750505050565b6116e1936116d161155d84336115bf565b6116dc838383610bbf565b611758565b156116e857565b60405162461bcd60e51b81528061170160048201611705565b0390fd5b60809060208152603260208201527f4552433732313a207472616e7366657220746f206e6f6e20455243373231526560408201527131b2b4bb32b91034b6b83632b6b2b73a32b960711b60608201520190565b91926000929190813b15611846576020916117ae9185604051958680958194630a85bd0160e11b9b8c845233600485015260018060a01b03809516602485015260448401526080606484015260848301906108f1565b0393165af1908290826117fe575b50506117f0576117ca610d31565b805190816117eb5760405162461bcd60e51b81528061170160048201611705565b602001fd5b6001600160e01b0319161490565b909192506020813d821161183e575b8161181a602093836109c5565b810103126102805751906001600160e01b0319821682036103db57509038806117bc565b3d915061180d565b505050505060019056fea2646970667358221220d534f4b47ca52edd84151777e2490dd405c9d7e509b3420d43264c2e7051356d64736f6c634300080f0033",
  "linkReferences": {},
  "deployedLinkReferences": {}
}