{
  "_format": "hh-sol-artifact-1",
  "contractName": "Groth16Verifier",
  "sourceName": "contracts/Game_2_300Verifier.sol",
  "abi": [
    {
      "inputs": [
        {
          "internalType": "uint256[2]",
          "name": "_pA",
          "type": "uint256[2]"
        },
        {
          "internalType": "uint256[2][2]",
          "name": "_pB",
          "type": "uint256[2][2]"
        },
        {
          "internalType": "uint256[2]",
          "name": "_pC",
          "type": "uint256[2]"
        },
        {
          "internalType": "uint256[32]",
          "name": "_pubSignals",
          "type": "uint256[32]"
        }
      ],
      "name": "verifyProof",
      "outputs": [
        {
          "internalType": "bool",
          "name": "",
          "type": "bool"
        }
      ],
      "stateMutability": "view",
      "type": "function"
    }
  ],
  "bytecode": "0x6080806040523461001657611824908161001c8239f35b600080fdfe6080604052600436101561001257600080fd5b6000803560e01c633cc08b241461002857600080fd5b3461020857610500366003190112610208576100433661020b565b3660c411610204576100543661021d565b9061050436811161020057916101fc916101f76020959461040060405261007d6101043561022b565b6100896101243561022b565b6100956101443561022b565b6100a16101643561022b565b6100ad6101843561022b565b6100b96101a43561022b565b6100c56101c43561022b565b6100d16101e43561022b565b6100dd6102043561022b565b6100e96102243561022b565b6100f56102443561022b565b6101016102643561022b565b61010d6102843561022b565b6101196102a43561022b565b6101256102c43561022b565b6101316102e43561022b565b61013d6103043561022b565b6101496103243561022b565b6101556103443561022b565b6101616103643561022b565b61016d6103843561022b565b6101796103a43561022b565b6101856103c43561022b565b6101916103e43561022b565b61019d6104043561022b565b6101a96104243561022b565b6101b56104443561022b565b6101c16104643561022b565b6101cd6104843561022b565b6101d96104a43561022b565b6101e56104c43561022b565b6101f16104e43561022b565b3561022b565b61139e565b8152f35b8380fd5b5080fd5b80fd5b9060049160441161021857565b600080fd5b9060c4916101041161021857565b7f30644e72e131a029b85045b68181585d97816a916871ca8d3c208c16d87cfd47111561025457565b6000805260206000f35b604051907f2971983cfac641779055ac52bf1644058ab73722a2cb1faa9a5673b452aa581d82527f19294f656e28b03ae097d74cdc3974b5803968a97b97cfcd29c992b56e2168386020830152604082019081526107cf196040836060816007855a01fa156102545760409260066080939284938451905260a05160608401525a01fa1561025457565b604051907f11c2b81804a7602e76d642961f683a4c3ed8c2afbeeb298d46276fa11498b06d82527f1d646ba6ef5628236a3a6c36cf09c28ed2f851ae24bba927c06fef0833790f0f6020830152604082019081526107cf196040836060816007855a01fa156102545760409260066080939284938451905260a05160608401525a01fa1561025457565b604051907f22288a4909a9501e65af8f05c952196249d0e307bd16240e13189d2a424ce33f82527f15d08c5e76b5558363f3e1afe31ef1cfa1244145b84cb47f8d504670a99fd9626020830152604082019081526107cf196040836060816007855a01fa156102545760409260066080939284938451905260a05160608401525a01fa1561025457565b604051907f0e2c426b330578fb26221b81e55a410d9116e5bc24e9e7080c27c2e76675202e82527f17d3d42f481cc16c6706ce26053ea54d215ca3b19bf23d0b836834988eb727916020830152604082019081526107cf196040836060816007855a01fa156102545760409260066080939284938451905260a05160608401525a01fa1561025457565b604051907f2d3112eae4fd6879a364f8f3b6636c99b0980c6df454d92a412c0630ade4de0282527f18983fa595457eb3cd5d4d0f624fa287ec1ee8592073bbf715315087b60d07166020830152604082019081526107cf196040836060816007855a01fa156102545760409260066080939284938451905260a05160608401525a01fa1561025457565b604051907f1efcf6f27ba1116f1e5fbdd27180347d036ff81d892566f3bcf725d858b2764082527f16bd197e081c31b1e3a2527505dd63b35b8e4584c9f5722b55a6fc2f303cf2c06020830152604082019081526107cf196040836060816007855a01fa156102545760409260066080939284938451905260a05160608401525a01fa1561025457565b604051907f27fc2291785d25d70ad2d8820879c3827df1265b4b04f4191ac7742304e1822982527f0d61bb95e5f83bb2199b79f989f129bc08c5b9a7e6b903bb79cc73b695ecdc896020830152604082019081526107cf196040836060816007855a01fa156102545760409260066080939284938451905260a05160608401525a01fa1561025457565b604051907f1d9d5b826e3eb4257254b4cca2cadec03cfa3bf9c6c7f8cd71144260ee24f23e82527f27c65305cd96214c7c66c88ee861671f69125e76ab470dd7d8baa2750c9d77916020830152604082019081526107cf196040836060816007855a01fa156102545760409260066080939284938451905260a05160608401525a01fa1561025457565b604051907f2aed22e69fbce4115d6efbd78e6d21611382722f49b16bbaf146aa38e0516a8382527f2edfcf73dfb10b2c57b6266693922b043a01f9034382e9e7c1180314d416881b6020830152604082019081526107cf196040836060816007855a01fa156102545760409260066080939284938451905260a05160608401525a01fa1561025457565b604051907f095b95ebfe08cf005580fcab55dd5ba453f862d2283c2f0ac06d908c076f153582527f1eabe34961ff46d5dc7ac0c17a432699e8be3c56b4ee144de40a9e9de7d089536020830152604082019081526107cf196040836060816007855a01fa156102545760409260066080939284938451905260a05160608401525a01fa1561025457565b604051907f30083fcc9bf4b7af0056804b3ee8a11fdb74e5b0c82de33611583e63cad902cf82527f0ee19ee7d8c8525b493478549665beb78321c27f7a5dac0afec68032a261b7306020830152604082019081526107cf196040836060816007855a01fa156102545760409260066080939284938451905260a05160608401525a01fa1561025457565b604051907f2f3950a6720c8a426f0e6b0bbdc5998001112e1f2b0025857a1bff3f284e4f1482527f239e8d90fdd784f623e5f217ba39d026b72c9e1941a5a8d3322f21f29fee52266020830152604082019081526107cf196040836060816007855a01fa156102545760409260066080939284938451905260a05160608401525a01fa1561025457565b604051907f2ed17ddb3e9d2f6cfeaf320d4b5d3b7fc9a6f6a5afab8925b2705bde538f26df82527f1fc0c8420206d6aaf5fa5788c66f92d6e2090f1b3cdd0840c6af0020a76de4a56020830152604082019081526107cf196040836060816007855a01fa156102545760409260066080939284938451905260a05160608401525a01fa1561025457565b604051907f0a52ff41f3d63bcce67f5217331ecba49cfc6236dcc3f63d47e5fffae17a78cf82527f08d99ff48bc3bccb3142bfa8d2e811d4386e7a4745c1283c5a7fda072b60f9ed6020830152604082019081526107cf196040836060816007855a01fa156102545760409260066080939284938451905260a05160608401525a01fa1561025457565b604051907f20ef23fde8cf2287b39fc6bebe4eda90b11166efd80052dc0616195632b90c5e82527f129c63a6022cc80c9adf564331fa715a89021fa7cd11bb2fac8c927209d1edf56020830152604082019081526107cf196040836060816007855a01fa156102545760409260066080939284938451905260a05160608401525a01fa1561025457565b604051907f128098359b45fc5664ea156131faaf6fb41dc7e8d7373cf16a258370a3ada53e82527f14d4936db13fc675573fd06a69f1363adceb0059c6a57e4df5f00fa0d07d03326020830152604082019081526107cf196040836060816007855a01fa156102545760409260066080939284938451905260a05160608401525a01fa1561025457565b604051907f2bb73569ca69c1590f84f499c842afa217eb899ce856eb924bbf8237eba6361782527f2b9f762f8db2e69a99fc2d71f2d98bc939763a9d3d60365010af40c0edb0ce8b6020830152604082019081526107cf196040836060816007855a01fa156102545760409260066080939284938451905260a05160608401525a01fa1561025457565b604051907f239831dfffaea93880eb2f2c4d23e116fecd2d4fcfb4ea5fee96136ed9f66b2082527f15040b5eda01fc8b3ce324989a9efeb84671664bfc25ad754ef6cc5288bb96266020830152604082019081526107cf196040836060816007855a01fa156102545760409260066080939284938451905260a05160608401525a01fa1561025457565b604051907f0a8fe5be63420cdb4020c44ae79e2af3df10b06351acf4323b8d364a41b8e8c482527f1f6cbea86fc4e148a6cf4aaf0a45bd9e039fb9e37f30f6a0aeab1790d0bb7fa06020830152604082019081526107cf196040836060816007855a01fa156102545760409260066080939284938451905260a05160608401525a01fa1561025457565b604051907f3042aee580cbd1c8c635c1de75879b22d2282e1f13029a9eadcfda39fb07feea82527f3062c13c1b43a34c27e9ac6364622dec93ba2cf7763247efba37d8073f8b1eb56020830152604082019081526107cf196040836060816007855a01fa156102545760409260066080939284938451905260a05160608401525a01fa1561025457565b604051907f2e16024c51f0d2d1571ad361fa819f4285ab648d57a326f59d872866e0e2f8aa82527f29da7cef83fc76fd17e41df2b30fa8eeef7a53a63214355796d649ec638b37b86020830152604082019081526107cf196040836060816007855a01fa156102545760409260066080939284938451905260a05160608401525a01fa1561025457565b604051907f01a1e475d2ab263ff46918b04eb928706d4291ef61d0090abb7a887a2db5106a82527f1c925d3582534cf42943ce0c99971126fd2ed529346ca9c7ee75ebac1ecefa9c6020830152604082019081526107cf196040836060816007855a01fa156102545760409260066080939284938451905260a05160608401525a01fa1561025457565b604051907f165e659588c05b08788b0e176dd1ee5198459c6b9276b469c3021b040c5e0eac82527f0bf1cd28e2be4cc337e6a632462135f1567bbaaf1eb852c00296f68900409a566020830152604082019081526107cf196040836060816007855a01fa156102545760409260066080939284938451905260a05160608401525a01fa1561025457565b604051907f0b971c8f5f52d616570f12871e98941356c0091f2f130a5c16a109b85fc51c6982527f1b91e637ad02b0726ff6a2adad78a2599123ec7488975a79194aaf0844e430a86020830152604082019081526107cf196040836060816007855a01fa156102545760409260066080939284938451905260a05160608401525a01fa1561025457565b604051907f1a3183d31ed36238520f026ad6efa9ce84ee2af8ced69589c57eca126885768882527f21a4f6fe01520eecb10e16e914d1e3348a79886ccabab862338b11e8883904336020830152604082019081526107cf196040836060816007855a01fa156102545760409260066080939284938451905260a05160608401525a01fa1561025457565b604051907f2c8c674315fb607eac6badb96bce8e93e1602a6f8a3ebd4d1b37d4c89c967c4882527f0f75c5257a26c3df86b379d05c8ea87b15f847a80adf82f6308a2db4776dc17e6020830152604082019081526107cf196040836060816007855a01fa156102545760409260066080939284938451905260a05160608401525a01fa1561025457565b604051907f191624bd34cda0dc8f5128a44fa548c58e2537d5afb7b73baf0b46e9c2cfe6c282527f1b817e5a82ad8edc9c9b0877ad75393c3d947a97bcbf1a90c404029e3e6a6cf66020830152604082019081526107cf196040836060816007855a01fa156102545760409260066080939284938451905260a05160608401525a01fa1561025457565b604051907f014c2952ceb086b7ede688d22d715ca33365b58a4f7651161fd534719262f83082527f01f4c46f0c1e085f3be5ed69117aef99a808d1a1d46b701163307839872cb0206020830152604082019081526107cf196040836060816007855a01fa156102545760409260066080939284938451905260a05160608401525a01fa1561025457565b604051907f20af5de4e4900df234cf455a050f66f0d4a1fd007a6e44141a61e99e4ac48fc382527f22f423ba890d10ac7d50f0cac143e60f6090e5297046824924f8921229b03b9d6020830152604082019081526107cf196040836060816007855a01fa156102545760409260066080939284938451905260a05160608401525a01fa1561025457565b604051907f087670ff7adf5685ac85513de19c960474dc39d02e5dd08b7d30d37e0a2451db82527f10fab00e275277c33d0d6b613632983d88a39cbfbff9ae0500f9a0bb4e385d746020830152604082019081526107cf196040836060816007855a01fa156102545760409260066080939284938451905260a05160608401525a01fa1561025457565b604051907f29a33328d38a0ffcc2f7777c428095dc4559d0cab2f6211611a4c2594b7a5d7282527f2579f622fe7705c8bb9d053f8f4d23bb0ae283b10c1235da63019530f07933076020830152604082019081526107cf196040836060816007855a01fa156102545760409260066080939284938451905260a05160608401525a01fa1561025457565b604051907f275b4a08d9fcef4de497bfc131f890e8f113b75d9afc9fc35f42b9144339fa5082527f2a9ec1880fecfade5d3219cfb3bea05b79cd513063f5105fb216ce3d6b3e66226020830152604082019081526107cf196040836060816007855a01fa156102545760409260066080939284938451905260a05160608401525a01fa1561025457565b6020907f197acd7359b064a31525de029b55eba542f890b6e3f4f8e69e86dde55bf7ed486080527f1efa09d7a6d3138c10516a62be7bac9aecae66d07e7c8c1843b601f81f97ab7360a0526113f56101043561025e565b611401610124356102e8565b61140d61014435610372565b611419610164356103fc565b61142561018435610486565b6114316101a435610510565b61143d6101c43561059a565b6114496101e435610624565b611455610204356106ae565b61146161022435610738565b61146d610244356107c2565b6114796102643561084c565b611485610284356108d6565b6114916102a435610960565b61149d6102c4356109ea565b6114a96102e435610a74565b6114b561030435610afe565b6114c161032435610b88565b6114cd61034435610c12565b6114d961036435610c9c565b6114e561038435610d26565b6114f16103a435610db0565b6114fd6103c435610e3a565b6115096103e435610ec4565b61151561040435610f4e565b61152161042435610fd8565b61152d61044435611062565b611539610464356110ec565b61154561048435611176565b6115516104a435611200565b61155d6104c43561128a565b6115696104e435611314565b61010092818492358352837f30644e72e131a029b85045b68181585d97816a916871ca8d3c208c16d87cfd479101358103066101205260443561014052606435610160526084356101805260a4356101a0527f2d4d9aa7e302d9df41749d5507949d05dbea33fbb16c643b22f599a2be6df2e26101c0527f14bedd503c37ceb061d8ec60209fe345ce89830a19230301f076caff004d19266101e0527f0967032fcbf776d1afc985f88877f182d38480a653f2decaa9794cbc3bf3060c610200527f0e187847ad4c798374d0d6732bf501847dd68bc0e071241e0213bc7fc13db7ab610220527f304cfbd1e08a704a99f5e847d93f8c3caafddec46b7a0d379da69a4d112346a7610240527f1739c1b1a457a8c7313123d24d2f9192f896b7c63eea05a9d57f06547ad0cec8610260526080516102805260a0516102a0527f198e9393920d483a7260bfb731fb5d25f1aa493335a9e71297e485b7aef312c26102c0527f1800deef121f1e76426a00665e5c4479674322d4f75edadd46debd5cd992f6ed6102e05282610300917f090689d0585ff075ec9e99ad690c3395bc4b313370b38ef355acdadcd122975b83527f12c85ea5db8c6deb4aab71808dcb408fe3d1e7690c43d37b4ce6cc0166fa7daa610320528035610340520135610360527f156e74f5f44e817ff27d76cce1bc3ba08fe9055100eb82d2450be17aabdaaa15610380527f1fa3056e325e071d690934bbf224b77f18ba2d142899ae5ec299d7b690c9e2346103a0527f2ade2f3a04fc69240e790e02d9c30e8742af8a0c681e9dc5f201d4c1421378496103c0527f056a4aa6538fb71c8e26188921f4421d7c6a6fdb3ba3b426446e15f91805cdf36103e0528160086107cf195a01fa9051169056fea26469706673582212205c461095552ac6203a7bff4f2106adb07da19c04577c7de8dab18840fec484b864736f6c634300080f0033",
  "linkReferences": {},
  "deployedLinkReferences": {}
}